{
  "contractName": "FeeApprover",
  "abi": [
    {
      "anonymous": false,
      "inputs": [
        {
          "indexed": true,
          "internalType": "address",
          "name": "previousOwner",
          "type": "address"
        },
        {
          "indexed": true,
          "internalType": "address",
          "name": "newOwner",
          "type": "address"
        }
      ],
      "name": "OwnershipTransferred",
      "type": "event"
    },
    {
      "inputs": [],
      "name": "feePercentX100",
      "outputs": [
        {
          "internalType": "uint8",
          "name": "",
          "type": "uint8"
        }
      ],
      "stateMutability": "view",
      "type": "function"
    },
    {
      "inputs": [],
      "name": "lastTotalSupplyOfLPTokens",
      "outputs": [
        {
          "internalType": "uint256",
          "name": "",
          "type": "uint256"
        }
      ],
      "stateMutability": "view",
      "type": "function"
    },
    {
      "inputs": [
        {
          "internalType": "address",
          "name": "",
          "type": "address"
        }
      ],
      "name": "noFeeList",
      "outputs": [
        {
          "internalType": "bool",
          "name": "",
          "type": "bool"
        }
      ],
      "stateMutability": "view",
      "type": "function"
    },
    {
      "inputs": [],
      "name": "owner",
      "outputs": [
        {
          "internalType": "address",
          "name": "",
          "type": "address"
        }
      ],
      "stateMutability": "view",
      "type": "function"
    },
    {
      "inputs": [],
      "name": "renounceOwnership",
      "outputs": [],
      "stateMutability": "nonpayable",
      "type": "function"
    },
    {
      "inputs": [
        {
          "internalType": "address",
          "name": "newOwner",
          "type": "address"
        }
      ],
      "name": "transferOwnership",
      "outputs": [],
      "stateMutability": "nonpayable",
      "type": "function"
    },
    {
      "inputs": [],
      "name": "uniswapFactory",
      "outputs": [
        {
          "internalType": "contract IUniswapV2Factory",
          "name": "",
          "type": "address"
        }
      ],
      "stateMutability": "view",
      "type": "function"
    },
    {
      "inputs": [
        {
          "internalType": "address",
          "name": "_RAMAddress",
          "type": "address"
        },
        {
          "internalType": "address",
          "name": "_YGYAddress",
          "type": "address"
        },
        {
          "internalType": "address",
          "name": "_uniswapFactory",
          "type": "address"
        }
      ],
      "name": "initialize",
      "outputs": [],
      "stateMutability": "nonpayable",
      "type": "function"
    },
    {
      "inputs": [
        {
          "internalType": "bool",
          "name": "_pause",
          "type": "bool"
        }
      ],
      "name": "setPaused",
      "outputs": [],
      "stateMutability": "nonpayable",
      "type": "function"
    },
    {
      "inputs": [
        {
          "internalType": "uint8",
          "name": "_feeMultiplier",
          "type": "uint8"
        }
      ],
      "name": "setFeeMultiplier",
      "outputs": [],
      "stateMutability": "nonpayable",
      "type": "function"
    },
    {
      "inputs": [
        {
          "internalType": "address",
          "name": "_ramVaultAddress",
          "type": "address"
        }
      ],
      "name": "setRamVaultAddress",
      "outputs": [],
      "stateMutability": "nonpayable",
      "type": "function"
    },
    {
      "inputs": [
        {
          "internalType": "address",
          "name": "_address",
          "type": "address"
        },
        {
          "internalType": "bool",
          "name": "noFee",
          "type": "bool"
        }
      ],
      "name": "editNoFeeList",
      "outputs": [],
      "stateMutability": "nonpayable",
      "type": "function"
    },
    {
      "inputs": [
        {
          "internalType": "uint256",
          "name": "finneyAmnt",
          "type": "uint256"
        }
      ],
      "name": "setMinimumLiquidityToTriggerStop",
      "outputs": [],
      "stateMutability": "nonpayable",
      "type": "function"
    },
    {
      "inputs": [],
      "name": "sync",
      "outputs": [
        {
          "internalType": "bool",
          "name": "lastIsMint",
          "type": "bool"
        },
        {
          "internalType": "bool",
          "name": "lpTokenBurn",
          "type": "bool"
        }
      ],
      "stateMutability": "nonpayable",
      "type": "function"
    },
    {
      "inputs": [
        {
          "internalType": "address",
          "name": "sender",
          "type": "address"
        },
        {
          "internalType": "address",
          "name": "recipient",
          "type": "address"
        },
        {
          "internalType": "uint256",
          "name": "amount",
          "type": "uint256"
        }
      ],
      "name": "calculateAmountsAfterFee",
      "outputs": [
        {
          "internalType": "uint256",
          "name": "transferToAmount",
          "type": "uint256"
        },
        {
          "internalType": "uint256",
          "name": "transferToFeeDistributorAmount",
          "type": "uint256"
        }
      ],
      "stateMutability": "nonpayable",
      "type": "function"
    }
  ],
  "bytecode": "0x608060405234801561001057600080fd5b5061205c806100206000396000f3fe608060405234801561001057600080fd5b50600436106100f55760003560e01c80638aee4cfe11610097578063c0c53b8b11610066578063c0c53b8b14610383578063d5b71d5b14610407578063f2fde38b14610435578063fff6cae914610479576100f5565b80638aee4cfe146102cc5780638bdb2afa146102fd5780638da5cb5b1461033157806392f6193014610365576100f5565b806351d271be116100d357806351d271be146101d4578063546160c614610224578063715018a6146102685780638aa1ff7014610272576100f5565b806316c38b3c146100fa578063301a58011461012a5780633b4e71ad146101b3575b600080fd5b6101286004803603602081101561011057600080fd5b810190808035151590602001909291905050506104a2565b005b6101966004803603606081101561014057600080fd5b81019080803573ffffffffffffffffffffffffffffffffffffffff169060200190929190803573ffffffffffffffffffffffffffffffffffffffff16906020019092919080359060200190929190505050610593565b604051808381526020018281526020019250505060405180910390f35b6101bb6108ae565b604051808260ff16815260200191505060405180910390f35b610222600480360360408110156101ea57600080fd5b81019080803573ffffffffffffffffffffffffffffffffffffffff1690602001909291908035151590602001909291905050506108c1565b005b6102666004803603602081101561023a57600080fd5b81019080803573ffffffffffffffffffffffffffffffffffffffff169060200190929190505050610999565b005b610270610b21565b005b6102b46004803603602081101561028857600080fd5b81019080803573ffffffffffffffffffffffffffffffffffffffff169060200190929190505050610cac565b60405180821515815260200191505060405180910390f35b6102fb600480360360208110156102e257600080fd5b81019080803560ff169060200190929190505050610ccc565b005b610305610db4565b604051808273ffffffffffffffffffffffffffffffffffffffff16815260200191505060405180910390f35b610339610dda565b604051808273ffffffffffffffffffffffffffffffffffffffff16815260200191505060405180910390f35b61036d610e04565b6040518082815260200191505060405180910390f35b6104056004803603606081101561039957600080fd5b81019080803573ffffffffffffffffffffffffffffffffffffffff169060200190929190803573ffffffffffffffffffffffffffffffffffffffff169060200190929190803573ffffffffffffffffffffffffffffffffffffffff169060200190929190505050610e0a565b005b6104336004803603602081101561041d57600080fd5b810190808035906020019092919050505061116f565b005b6104776004803603602081101561044b57600080fd5b81019080803573ffffffffffffffffffffffffffffffffffffffff169060200190929190505050611243565b005b610481611453565b60405180831515815260200182151581526020019250505060405180910390f35b6104aa611735565b73ffffffffffffffffffffffffffffffffffffffff16606560009054906101000a900473ffffffffffffffffffffffffffffffffffffffff1673ffffffffffffffffffffffffffffffffffffffff161461056c576040517f08c379a00000000000000000000000000000000000000000000000000000000081526004018080602001828103825260208152602001807f4f776e61626c653a2063616c6c6572206973206e6f7420746865206f776e657281525060200191505060405180910390fd5b80609d60006101000a81548160ff02191690831515021790555061058e611453565b505050565b60008060001515609d60009054906101000a900460ff1615151461061f576040517f08c379a000000000000000000000000000000000000000000000000000000000815260040180806020018281038252601e8152602001807f46454520415050524f5645523a205472616e736665727320506175736564000081525060200191505060405180910390fd5b60008061062a611453565b91509150609760009054906101000a900473ffffffffffffffffffffffffffffffffffffffff1673ffffffffffffffffffffffffffffffffffffffff168773ffffffffffffffffffffffffffffffffffffffff1614156107795760001515821515146106fe576040517f08c379a000000000000000000000000000000000000000000000000000000000815260040180806020018281038252601f8152602001807f4c6971756964697479207769746864726177616c7320666f7262696464656e0081525060200191505060405180910390fd5b6000151581151514610778576040517f08c379a000000000000000000000000000000000000000000000000000000000815260040180806020018281038252601f8152602001807f4c6971756964697479207769746864726177616c7320666f7262696464656e0081525060200191505060405180910390fd5b5b60a060008873ffffffffffffffffffffffffffffffffffffffff1673ffffffffffffffffffffffffffffffffffffffff16815260200190815260200160002060009054906101000a900460ff1615610815576108096040518060400160405280601381526020017f53656e64696e6720776974686f7574206665650000000000000000000000000081525061173d565b600092508493506108a4565b6108536040518060400160405280601381526020017f4e6f726d616c20666565207472616e736665720000000000000000000000000081525061173d565b61088c6103e861087e609b60149054906101000a900460ff1660ff168861183b90919063ffffffff16565b6118c190919063ffffffff16565b92506108a1838661190b90919063ffffffff16565b93505b5050935093915050565b609b60149054906101000a900460ff1681565b6108c9611735565b73ffffffffffffffffffffffffffffffffffffffff16606560009054906101000a900473ffffffffffffffffffffffffffffffffffffffff1673ffffffffffffffffffffffffffffffffffffffff161461098b576040517f08c379a00000000000000000000000000000000000000000000000000000000081526004018080602001828103825260208152602001807f4f776e61626c653a2063616c6c6572206973206e6f7420746865206f776e657281525060200191505060405180910390fd5b6109958282611955565b5050565b6109a1611735565b73ffffffffffffffffffffffffffffffffffffffff16606560009054906101000a900473ffffffffffffffffffffffffffffffffffffffff1673ffffffffffffffffffffffffffffffffffffffff1614610a63576040517f08c379a00000000000000000000000000000000000000000000000000000000081526004018080602001828103825260208152602001807f4f776e61626c653a2063616c6c6572206973206e6f7420746865206f776e657281525060200191505060405180910390fd5b80609b60006101000a81548173ffffffffffffffffffffffffffffffffffffffff021916908373ffffffffffffffffffffffffffffffffffffffff160217905550600160a06000609b60009054906101000a900473ffffffffffffffffffffffffffffffffffffffff1673ffffffffffffffffffffffffffffffffffffffff1673ffffffffffffffffffffffffffffffffffffffff16815260200190815260200160002060006101000a81548160ff02191690831515021790555050565b610b29611735565b73ffffffffffffffffffffffffffffffffffffffff16606560009054906101000a900473ffffffffffffffffffffffffffffffffffffffff1673ffffffffffffffffffffffffffffffffffffffff1614610beb576040517f08c379a00000000000000000000000000000000000000000000000000000000081526004018080602001828103825260208152602001807f4f776e61626c653a2063616c6c6572206973206e6f7420746865206f776e657281525060200191505060405180910390fd5b600073ffffffffffffffffffffffffffffffffffffffff16606560009054906101000a900473ffffffffffffffffffffffffffffffffffffffff1673ffffffffffffffffffffffffffffffffffffffff167f8be0079c531659141344cd1fd0a4f28419497f9722a3daafe3b4186f6b6457e060405160405180910390a36000606560006101000a81548173ffffffffffffffffffffffffffffffffffffffff021916908373ffffffffffffffffffffffffffffffffffffffff160217905550565b60a06020528060005260406000206000915054906101000a900460ff1681565b610cd4611735565b73ffffffffffffffffffffffffffffffffffffffff16606560009054906101000a900473ffffffffffffffffffffffffffffffffffffffff1673ffffffffffffffffffffffffffffffffffffffff1614610d96576040517f08c379a00000000000000000000000000000000000000000000000000000000081526004018080602001828103825260208152602001807f4f776e61626c653a2063616c6c6572206973206e6f7420746865206f776e657281525060200191505060405180910390fd5b80609b60146101000a81548160ff021916908360ff16021790555050565b609860009054906101000a900473ffffffffffffffffffffffffffffffffffffffff1681565b6000606560009054906101000a900473ffffffffffffffffffffffffffffffffffffffff16905090565b609c5481565b600060019054906101000a900460ff1680610e295750610e286119b0565b5b80610e3f575060008054906101000a900460ff16155b610e94576040517f08c379a000000000000000000000000000000000000000000000000000000000815260040180806020018281038252602e815260200180611ff9602e913960400191505060405180910390fd5b60008060019054906101000a900460ff161590508015610ee4576001600060016101000a81548160ff02191690831515021790555060016000806101000a81548160ff0219169083151502179055505b610eec6119c7565b83609960006101000a81548173ffffffffffffffffffffffffffffffffffffffff021916908373ffffffffffffffffffffffffffffffffffffffff16021790555082609a60006101000a81548173ffffffffffffffffffffffffffffffffffffffff021916908373ffffffffffffffffffffffffffffffffffffffff1602179055508173ffffffffffffffffffffffffffffffffffffffff1663e6a43905609a60009054906101000a900473ffffffffffffffffffffffffffffffffffffffff16609960009054906101000a900473ffffffffffffffffffffffffffffffffffffffff166040518363ffffffff1660e01b8152600401808373ffffffffffffffffffffffffffffffffffffffff1681526020018273ffffffffffffffffffffffffffffffffffffffff1681526020019250505060206040518083038186803b15801561103757600080fd5b505afa15801561104b573d6000803e3d6000fd5b505050506040513d602081101561106157600080fd5b8101908080519060200190929190505050609760006101000a81548173ffffffffffffffffffffffffffffffffffffffff021916908373ffffffffffffffffffffffffffffffffffffffff160217905550600a609b60146101000a81548160ff021916908360ff1602179055506001609d60006101000a81548160ff02191690831515021790555061110873c5cacb708425961594b63ec171f4df27a9c0d8c96001611955565b611135609760009054906101000a900473ffffffffffffffffffffffffffffffffffffffff166001611955565b61113d611453565b505061138860a18190555080156111695760008060016101000a81548160ff0219169083151502179055505b50505050565b611177611735565b73ffffffffffffffffffffffffffffffffffffffff16606560009054906101000a900473ffffffffffffffffffffffffffffffffffffffff1673ffffffffffffffffffffffffffffffffffffffff1614611239576040517f08c379a00000000000000000000000000000000000000000000000000000000081526004018080602001828103825260208152602001807f4f776e61626c653a2063616c6c6572206973206e6f7420746865206f776e657281525060200191505060405180910390fd5b8060a18190555050565b61124b611735565b73ffffffffffffffffffffffffffffffffffffffff16606560009054906101000a900473ffffffffffffffffffffffffffffffffffffffff1673ffffffffffffffffffffffffffffffffffffffff161461130d576040517f08c379a00000000000000000000000000000000000000000000000000000000081526004018080602001828103825260208152602001807f4f776e61626c653a2063616c6c6572206973206e6f7420746865206f776e657281525060200191505060405180910390fd5b600073ffffffffffffffffffffffffffffffffffffffff168173ffffffffffffffffffffffffffffffffffffffff161415611393576040517f08c379a0000000000000000000000000000000000000000000000000000000008152600401808060200182810382526026815260200180611fb26026913960400191505060405180910390fd5b8073ffffffffffffffffffffffffffffffffffffffff16606560009054906101000a900473ffffffffffffffffffffffffffffffffffffffff1673ffffffffffffffffffffffffffffffffffffffff167f8be0079c531659141344cd1fd0a4f28419497f9722a3daafe3b4186f6b6457e060405160405180910390a380606560006101000a81548173ffffffffffffffffffffffffffffffffffffffff021916908373ffffffffffffffffffffffffffffffffffffffff16021790555050565b6000806000609760009054906101000a900473ffffffffffffffffffffffffffffffffffffffff1673ffffffffffffffffffffffffffffffffffffffff166318160ddd6040518163ffffffff1660e01b815260040160206040518083038186803b1580156114c057600080fd5b505afa1580156114d4573d6000803e3d6000fd5b505050506040513d60208110156114ea57600080fd5b8101908080519060200190929190505050905080609c5411915080609c819055506000609a60009054906101000a900473ffffffffffffffffffffffffffffffffffffffff1673ffffffffffffffffffffffffffffffffffffffff166370a08231609760009054906101000a900473ffffffffffffffffffffffffffffffffffffffff166040518263ffffffff1660e01b8152600401808273ffffffffffffffffffffffffffffffffffffffff16815260200191505060206040518083038186803b1580156115b857600080fd5b505afa1580156115cc573d6000803e3d6000fd5b505050506040513d60208110156115e257600080fd5b810190808051906020019092919050505090506000609960009054906101000a900473ffffffffffffffffffffffffffffffffffffffff1673ffffffffffffffffffffffffffffffffffffffff166370a08231609760009054906101000a900473ffffffffffffffffffffffffffffffffffffffff166040518263ffffffff1660e01b8152600401808273ffffffffffffffffffffffffffffffffffffffff16815260200191505060206040518083038186803b1580156116a257600080fd5b505afa1580156116b6573d6000803e3d6000fd5b505050506040513d60208110156116cc57600080fd5b81019080805190602001909291905050509050609e548111801561171e575061171b61170a66038d7ea4c6800060a15461183b90919063ffffffff16565b609f54611ad590919063ffffffff16565b82115b945080609e8190555081609f819055505050509091565b600033905090565b611838816040516024018080602001828103825283818151815260200191508051906020019080838360005b83811015611784578082015181840152602081019050611769565b50505050905090810190601f1680156117b15780820380516001836020036101000a031916815260200191505b50925050506040516020818303038152906040527f41304fac000000000000000000000000000000000000000000000000000000007bffffffffffffffffffffffffffffffffffffffffffffffffffffffff19166020820180517bffffffffffffffffffffffffffffffffffffffffffffffffffffffff8381831617835250505050611b5d565b50565b60008083141561184e57600090506118bb565b600082840290508284828161185f57fe5b04146118b6576040517f08c379a0000000000000000000000000000000000000000000000000000000008152600401808060200182810382526021815260200180611fd86021913960400191505060405180910390fd5b809150505b92915050565b600061190383836040518060400160405280601a81526020017f536166654d6174683a206469766973696f6e206279207a65726f000000000000815250611b86565b905092915050565b600061194d83836040518060400160405280601e81526020017f536166654d6174683a207375627472616374696f6e206f766572666c6f770000815250611c4c565b905092915050565b8060a060008473ffffffffffffffffffffffffffffffffffffffff1673ffffffffffffffffffffffffffffffffffffffff16815260200190815260200160002060006101000a81548160ff0219169083151502179055505050565b6000803090506000813b9050600081149250505090565b600060019054906101000a900460ff16806119e657506119e56119b0565b5b806119fc575060008054906101000a900460ff16155b611a51576040517f08c379a000000000000000000000000000000000000000000000000000000000815260040180806020018281038252602e815260200180611ff9602e913960400191505060405180910390fd5b60008060019054906101000a900460ff161590508015611aa1576001600060016101000a81548160ff02191690831515021790555060016000806101000a81548160ff0219169083151502179055505b611aa9611d0c565b611ab1611e0a565b8015611ad25760008060016101000a81548160ff0219169083151502179055505b50565b600080828401905083811015611b53576040517f08c379a000000000000000000000000000000000000000000000000000000000815260040180806020018281038252601b8152602001807f536166654d6174683a206164646974696f6e206f766572666c6f77000000000081525060200191505060405180910390fd5b8091505092915050565b60008151905060006a636f6e736f6c652e6c6f679050602083016000808483855afa5050505050565b60008083118290611c32576040517f08c379a00000000000000000000000000000000000000000000000000000000081526004018080602001828103825283818151815260200191508051906020019080838360005b83811015611bf7578082015181840152602081019050611bdc565b50505050905090810190601f168015611c245780820380516001836020036101000a031916815260200191505b509250505060405180910390fd5b506000838581611c3e57fe5b049050809150509392505050565b6000838311158290611cf9576040517f08c379a00000000000000000000000000000000000000000000000000000000081526004018080602001828103825283818151815260200191508051906020019080838360005b83811015611cbe578082015181840152602081019050611ca3565b50505050905090810190601f168015611ceb5780820380516001836020036101000a031916815260200191505b509250505060405180910390fd5b5060008385039050809150509392505050565b600060019054906101000a900460ff1680611d2b5750611d2a6119b0565b5b80611d41575060008054906101000a900460ff16155b611d96576040517f08c379a000000000000000000000000000000000000000000000000000000000815260040180806020018281038252602e815260200180611ff9602e913960400191505060405180910390fd5b60008060019054906101000a900460ff161590508015611de6576001600060016101000a81548160ff02191690831515021790555060016000806101000a81548160ff0219169083151502179055505b8015611e075760008060016101000a81548160ff0219169083151502179055505b50565b600060019054906101000a900460ff1680611e295750611e286119b0565b5b80611e3f575060008054906101000a900460ff16155b611e94576040517f08c379a000000000000000000000000000000000000000000000000000000000815260040180806020018281038252602e815260200180611ff9602e913960400191505060405180910390fd5b60008060019054906101000a900460ff161590508015611ee4576001600060016101000a81548160ff02191690831515021790555060016000806101000a81548160ff0219169083151502179055505b6000611eee611735565b905080606560006101000a81548173ffffffffffffffffffffffffffffffffffffffff021916908373ffffffffffffffffffffffffffffffffffffffff1602179055508073ffffffffffffffffffffffffffffffffffffffff16600073ffffffffffffffffffffffffffffffffffffffff167f8be0079c531659141344cd1fd0a4f28419497f9722a3daafe3b4186f6b6457e060405160405180910390a3508015611fae5760008060016101000a81548160ff0219169083151502179055505b5056fe4f776e61626c653a206e6577206f776e657220697320746865207a65726f2061646472657373536166654d6174683a206d756c7469706c69636174696f6e206f766572666c6f77436f6e747261637420696e7374616e63652068617320616c7265616479206265656e20696e697469616c697a6564a2646970667358221220bccf1f2dbc000500e9d4f7fdf1dc4e92559313bef9481a09d26ef6d30b7deadb64736f6c634300060c0033",
  "immutableReferences": {},
  "source": "// SPDX-License-Identifier: MIT\npragma solidity ^0.6.0;\nimport \"@openzeppelin/contracts-ethereum-package/contracts/access/Ownable.sol\";\nimport \"@openzeppelin/contracts-ethereum-package/contracts/math/SafeMath.sol\";\nimport \"@openzeppelin/contracts-ethereum-package/contracts/token/ERC20/IERC20.sol\"; // for WETH\nimport \"@nomiclabs/buidler/console.sol\";\nimport '@uniswap/v2-core/contracts/interfaces/IUniswapV2Factory.sol';\nimport \"@openzeppelin/contracts-ethereum-package/contracts/Initializable.sol\";\n\ncontract FeeApprover is OwnableUpgradeSafe {\n    using SafeMath for uint256;\n\n    function initialize(\n        address _RAMAddress,\n        address _YGYAddress,\n        address _uniswapFactory\n    ) public initializer {\n        OwnableUpgradeSafe.__Ownable_init();\n        ramTokenAddress = _RAMAddress;\n        ygyTokenAddress = _YGYAddress;\n        tokenUniswapPair = IUniswapV2Factory(_uniswapFactory).getPair(ygyTokenAddress,ramTokenAddress);\n        feePercentX100 = 10;\n        paused = true; // We start paused until sync post LGE happens.\n        _editNoFeeList(0xC5cacb708425961594B63eC171f4df27a9c0d8c9, true); // ramvault proxy\n        _editNoFeeList(tokenUniswapPair, true);\n        sync();\n        minFinney = 5000;\n    }\n\n\n    address tokenUniswapPair;\n    IUniswapV2Factory public uniswapFactory;\n    address ramTokenAddress;\n    address ygyTokenAddress;\n    address ramVaultAddress;\n    uint8 public feePercentX100;  // max 255 = 25.5% artificial clamp\n    uint256 public lastTotalSupplyOfLPTokens;\n    bool paused;\n    uint256 private lastSupplyOfRamInPair;\n    uint256 private lastSupplyOfYgyInPair;\n    mapping (address => bool) public noFeeList;\n\n    // RAM token is pausable\n    function setPaused(bool _pause) public onlyOwner {\n        paused = _pause;\n        sync();\n    }\n\n    function setFeeMultiplier(uint8 _feeMultiplier) public onlyOwner {\n        feePercentX100 = _feeMultiplier;\n    }\n\n    function setRamVaultAddress(address _ramVaultAddress) public onlyOwner {\n        ramVaultAddress = _ramVaultAddress;\n        noFeeList[ramVaultAddress] = true;\n    }\n\n    function editNoFeeList(address _address, bool noFee) public onlyOwner {\n        _editNoFeeList(_address,noFee);\n    }\n    function _editNoFeeList(address _address, bool noFee) internal{\n        noFeeList[_address] = noFee;\n    }\n    uint minFinney; // 2x for $ liq amount\n    function setMinimumLiquidityToTriggerStop(uint finneyAmnt) public onlyOwner{ // 1000 = 1eth\n        minFinney = finneyAmnt;\n    }\n\n    function sync() public returns (bool lastIsMint, bool lpTokenBurn) {\n\n        // This will update the state of lastIsMint, when called publically\n        // So we have to sync it before to the last LP token value.\n        uint256 _LPSupplyOfPairTotal = IERC20(tokenUniswapPair).totalSupply();\n        lpTokenBurn = lastTotalSupplyOfLPTokens > _LPSupplyOfPairTotal;\n        lastTotalSupplyOfLPTokens = _LPSupplyOfPairTotal;\n\n        uint256 _balanceYGY = IERC20(ygyTokenAddress).balanceOf(tokenUniswapPair);\n        uint256 _balanceRAM = IERC20(ramTokenAddress).balanceOf(tokenUniswapPair);\n\n        // Do not block after small liq additions\n        // you can only withdraw 350$ now with front running\n        // And cant front run buys with liq add ( adversary drain )\n        lastIsMint = _balanceRAM > lastSupplyOfRamInPair && _balanceYGY > lastSupplyOfYgyInPair.add(minFinney.mul(1 finney));\n\n        lastSupplyOfRamInPair = _balanceRAM;\n        lastSupplyOfYgyInPair = _balanceYGY;\n    }\n\n\n    function calculateAmountsAfterFee(\n        address sender,\n        address recipient, // unusued maybe use din future\n        uint256 amount\n        ) public  returns (uint256 transferToAmount, uint256 transferToFeeDistributorAmount)\n        {\n            require(paused == false, \"FEE APPROVER: Transfers Paused\");\n            (bool lastIsMint, bool lpTokenBurn) = sync();\n\n            if(sender == tokenUniswapPair) {\n                // This will block buys that are immidietly after a mint. Before sync is called/\n                // Deployment of this should only happen after router deployment\n                // And addition of sync to all RamVault transactions to remove 99.99% of the cases.\n                require(lastIsMint == false, \"Liquidity withdrawals forbidden\");\n                require(lpTokenBurn == false, \"Liquidity withdrawals forbidden\");\n\n            }\n\n            if(noFeeList[sender]) { // Dont have a fee when ramvault is sending, or infinite loop\n                console.log(\"Sending without fee\");                       // And when pair is sending ( buys are happening, no tax on it)\n                transferToFeeDistributorAmount = 0;\n                transferToAmount = amount;\n            }\n            else {\n                console.log(\"Normal fee transfer\");\n                transferToFeeDistributorAmount = amount.mul(feePercentX100).div(1000);\n                transferToAmount = amount.sub(transferToFeeDistributorAmount);\n            }\n\n\n        }\n\n\n}\n",
  "sourcePath": "/Users/denali/go/src/github.com/whitelabel/ygy/ram/contracts/FeeApprover.sol",
  "compiler": {
    "name": "solc",
    "version": "0.6.12+commit.27d51765.Emscripten.clang"
  },
  "schemaVersion": "3.1.0",
  "updatedAt": "2020-12-01T20:27:29.774Z",
  "devdoc": {
    "kind": "dev",
    "methods": {
      "owner()": {
        "details": "Returns the address of the current owner."
      },
      "renounceOwnership()": {
        "details": "Leaves the contract without owner. It will not be possible to call `onlyOwner` functions anymore. Can only be called by the current owner. NOTE: Renouncing ownership will leave the contract without an owner, thereby removing any functionality that is only available to the owner."
      },
      "transferOwnership(address)": {
        "details": "Transfers ownership of the contract to a new account (`newOwner`). Can only be called by the current owner."
      }
    },
    "version": 1
  },
  "userdoc": {
    "kind": "user",
    "methods": {},
    "version": 1
  }
}