{
  "contractName": "RAMVault",
  "abi": [
    {
      "anonymous": false,
      "inputs": [
        {
          "indexed": true,
          "internalType": "address",
          "name": "owner",
          "type": "address"
        },
        {
          "indexed": true,
          "internalType": "address",
          "name": "spender",
          "type": "address"
        },
        {
          "indexed": false,
          "internalType": "uint256",
          "name": "_pid",
          "type": "uint256"
        },
        {
          "indexed": false,
          "internalType": "uint256",
          "name": "value",
          "type": "uint256"
        }
      ],
      "name": "Approval",
      "type": "event"
    },
    {
      "anonymous": false,
      "inputs": [
        {
          "indexed": true,
          "internalType": "address",
          "name": "user",
          "type": "address"
        },
        {
          "indexed": true,
          "internalType": "uint256",
          "name": "pid",
          "type": "uint256"
        },
        {
          "indexed": true,
          "internalType": "uint256",
          "name": "level",
          "type": "uint256"
        }
      ],
      "name": "Boost",
      "type": "event"
    },
    {
      "anonymous": false,
      "inputs": [
        {
          "indexed": true,
          "internalType": "address",
          "name": "user",
          "type": "address"
        },
        {
          "indexed": true,
          "internalType": "uint256",
          "name": "pid",
          "type": "uint256"
        },
        {
          "indexed": false,
          "internalType": "uint256",
          "name": "amount",
          "type": "uint256"
        }
      ],
      "name": "Deposit",
      "type": "event"
    },
    {
      "anonymous": false,
      "inputs": [
        {
          "indexed": true,
          "internalType": "address",
          "name": "user",
          "type": "address"
        },
        {
          "indexed": true,
          "internalType": "uint256",
          "name": "pid",
          "type": "uint256"
        },
        {
          "indexed": false,
          "internalType": "uint256",
          "name": "amount",
          "type": "uint256"
        }
      ],
      "name": "EmergencyWithdraw",
      "type": "event"
    },
    {
      "anonymous": false,
      "inputs": [
        {
          "indexed": true,
          "internalType": "address",
          "name": "previousOwner",
          "type": "address"
        },
        {
          "indexed": true,
          "internalType": "address",
          "name": "newOwner",
          "type": "address"
        }
      ],
      "name": "OwnershipTransferred",
      "type": "event"
    },
    {
      "anonymous": false,
      "inputs": [
        {
          "indexed": true,
          "internalType": "address",
          "name": "previousOwner",
          "type": "address"
        },
        {
          "indexed": true,
          "internalType": "address",
          "name": "newOwner",
          "type": "address"
        }
      ],
      "name": "SuperAdminTransfered",
      "type": "event"
    },
    {
      "anonymous": false,
      "inputs": [
        {
          "indexed": true,
          "internalType": "address",
          "name": "user",
          "type": "address"
        },
        {
          "indexed": true,
          "internalType": "uint256",
          "name": "pid",
          "type": "uint256"
        },
        {
          "indexed": false,
          "internalType": "uint256",
          "name": "amount",
          "type": "uint256"
        }
      ],
      "name": "Withdraw",
      "type": "event"
    },
    {
      "inputs": [],
      "name": "boostFees",
      "outputs": [
        {
          "internalType": "uint256",
          "name": "",
          "type": "uint256"
        }
      ],
      "stateMutability": "view",
      "type": "function"
    },
    {
      "inputs": [],
      "name": "boostLevelFourCost",
      "outputs": [
        {
          "internalType": "uint256",
          "name": "",
          "type": "uint256"
        }
      ],
      "stateMutability": "view",
      "type": "function"
    },
    {
      "inputs": [],
      "name": "boostLevelFourMultiplier",
      "outputs": [
        {
          "internalType": "uint256",
          "name": "",
          "type": "uint256"
        }
      ],
      "stateMutability": "view",
      "type": "function"
    },
    {
      "inputs": [],
      "name": "boostLevelOneCost",
      "outputs": [
        {
          "internalType": "uint256",
          "name": "",
          "type": "uint256"
        }
      ],
      "stateMutability": "view",
      "type": "function"
    },
    {
      "inputs": [],
      "name": "boostLevelOneMultiplier",
      "outputs": [
        {
          "internalType": "uint256",
          "name": "",
          "type": "uint256"
        }
      ],
      "stateMutability": "view",
      "type": "function"
    },
    {
      "inputs": [],
      "name": "boostLevelThreeCost",
      "outputs": [
        {
          "internalType": "uint256",
          "name": "",
          "type": "uint256"
        }
      ],
      "stateMutability": "view",
      "type": "function"
    },
    {
      "inputs": [],
      "name": "boostLevelThreeMultiplier",
      "outputs": [
        {
          "internalType": "uint256",
          "name": "",
          "type": "uint256"
        }
      ],
      "stateMutability": "view",
      "type": "function"
    },
    {
      "inputs": [],
      "name": "boostLevelTwoCost",
      "outputs": [
        {
          "internalType": "uint256",
          "name": "",
          "type": "uint256"
        }
      ],
      "stateMutability": "view",
      "type": "function"
    },
    {
      "inputs": [],
      "name": "boostLevelTwoMultiplier",
      "outputs": [
        {
          "internalType": "uint256",
          "name": "",
          "type": "uint256"
        }
      ],
      "stateMutability": "view",
      "type": "function"
    },
    {
      "inputs": [],
      "name": "contractStartBlock",
      "outputs": [
        {
          "internalType": "uint256",
          "name": "",
          "type": "uint256"
        }
      ],
      "stateMutability": "view",
      "type": "function"
    },
    {
      "inputs": [],
      "name": "cumulativeRewardsSinceStart",
      "outputs": [
        {
          "internalType": "uint256",
          "name": "",
          "type": "uint256"
        }
      ],
      "stateMutability": "view",
      "type": "function"
    },
    {
      "inputs": [],
      "name": "devaddr",
      "outputs": [
        {
          "internalType": "address",
          "name": "",
          "type": "address"
        }
      ],
      "stateMutability": "view",
      "type": "function"
    },
    {
      "inputs": [],
      "name": "epoch",
      "outputs": [
        {
          "internalType": "uint256",
          "name": "",
          "type": "uint256"
        }
      ],
      "stateMutability": "view",
      "type": "function"
    },
    {
      "inputs": [],
      "name": "epochCalculationStartBlock",
      "outputs": [
        {
          "internalType": "uint256",
          "name": "",
          "type": "uint256"
        }
      ],
      "stateMutability": "view",
      "type": "function"
    },
    {
      "inputs": [
        {
          "internalType": "uint256",
          "name": "",
          "type": "uint256"
        }
      ],
      "name": "epochRewards",
      "outputs": [
        {
          "internalType": "uint256",
          "name": "",
          "type": "uint256"
        }
      ],
      "stateMutability": "view",
      "type": "function"
    },
    {
      "inputs": [],
      "name": "owner",
      "outputs": [
        {
          "internalType": "address",
          "name": "",
          "type": "address"
        }
      ],
      "stateMutability": "view",
      "type": "function"
    },
    {
      "inputs": [],
      "name": "pendingRewards",
      "outputs": [
        {
          "internalType": "uint256",
          "name": "",
          "type": "uint256"
        }
      ],
      "stateMutability": "view",
      "type": "function"
    },
    {
      "inputs": [],
      "name": "pendingYGYRewards",
      "outputs": [
        {
          "internalType": "uint256",
          "name": "",
          "type": "uint256"
        }
      ],
      "stateMutability": "view",
      "type": "function"
    },
    {
      "inputs": [
        {
          "internalType": "uint256",
          "name": "",
          "type": "uint256"
        }
      ],
      "name": "poolInfo",
      "outputs": [
        {
          "internalType": "contract IERC20",
          "name": "token",
          "type": "address"
        },
        {
          "internalType": "uint256",
          "name": "allocPoint",
          "type": "uint256"
        },
        {
          "internalType": "uint256",
          "name": "accRAMPerShare",
          "type": "uint256"
        },
        {
          "internalType": "uint256",
          "name": "accYGYPerShare",
          "type": "uint256"
        },
        {
          "internalType": "bool",
          "name": "withdrawable",
          "type": "bool"
        },
        {
          "internalType": "uint256",
          "name": "effectiveAdditionalTokensFromBoosts",
          "type": "uint256"
        }
      ],
      "stateMutability": "view",
      "type": "function"
    },
    {
      "inputs": [],
      "name": "ram",
      "outputs": [
        {
          "internalType": "contract INBUNIERC20",
          "name": "",
          "type": "address"
        }
      ],
      "stateMutability": "view",
      "type": "function"
    },
    {
      "inputs": [],
      "name": "regeneratoraddr",
      "outputs": [
        {
          "internalType": "address",
          "name": "",
          "type": "address"
        }
      ],
      "stateMutability": "view",
      "type": "function"
    },
    {
      "inputs": [],
      "name": "renounceOwnership",
      "outputs": [],
      "stateMutability": "nonpayable",
      "type": "function"
    },
    {
      "inputs": [],
      "name": "rewardsInThisEpoch",
      "outputs": [
        {
          "internalType": "uint256",
          "name": "",
          "type": "uint256"
        }
      ],
      "stateMutability": "view",
      "type": "function"
    },
    {
      "inputs": [],
      "name": "teamaddr",
      "outputs": [
        {
          "internalType": "address",
          "name": "",
          "type": "address"
        }
      ],
      "stateMutability": "view",
      "type": "function"
    },
    {
      "inputs": [],
      "name": "totalAllocPoint",
      "outputs": [
        {
          "internalType": "uint256",
          "name": "",
          "type": "uint256"
        }
      ],
      "stateMutability": "view",
      "type": "function"
    },
    {
      "inputs": [
        {
          "internalType": "address",
          "name": "newOwner",
          "type": "address"
        }
      ],
      "name": "transferOwnership",
      "outputs": [],
      "stateMutability": "nonpayable",
      "type": "function"
    },
    {
      "inputs": [
        {
          "internalType": "uint256",
          "name": "",
          "type": "uint256"
        },
        {
          "internalType": "address",
          "name": "",
          "type": "address"
        }
      ],
      "name": "userInfo",
      "outputs": [
        {
          "internalType": "uint256",
          "name": "amount",
          "type": "uint256"
        },
        {
          "internalType": "uint256",
          "name": "rewardDebt",
          "type": "uint256"
        },
        {
          "internalType": "uint256",
          "name": "boostAmount",
          "type": "uint256"
        },
        {
          "internalType": "uint256",
          "name": "boostLevel",
          "type": "uint256"
        },
        {
          "internalType": "uint256",
          "name": "spentMultiplierTokens",
          "type": "uint256"
        }
      ],
      "stateMutability": "view",
      "type": "function"
    },
    {
      "inputs": [],
      "name": "ygy",
      "outputs": [
        {
          "internalType": "contract IERC20",
          "name": "",
          "type": "address"
        }
      ],
      "stateMutability": "view",
      "type": "function"
    },
    {
      "inputs": [],
      "name": "averageFeesPerBlockSinceStart",
      "outputs": [
        {
          "internalType": "uint256",
          "name": "averagePerBlock",
          "type": "uint256"
        }
      ],
      "stateMutability": "view",
      "type": "function"
    },
    {
      "inputs": [],
      "name": "averageFeesPerBlockEpoch",
      "outputs": [
        {
          "internalType": "uint256",
          "name": "averagePerBlock",
          "type": "uint256"
        }
      ],
      "stateMutability": "view",
      "type": "function"
    },
    {
      "inputs": [],
      "name": "startNewEpoch",
      "outputs": [],
      "stateMutability": "nonpayable",
      "type": "function"
    },
    {
      "inputs": [
        {
          "internalType": "uint256",
          "name": "_amount",
          "type": "uint256"
        }
      ],
      "name": "addRAMRewardsOwner",
      "outputs": [],
      "stateMutability": "nonpayable",
      "type": "function"
    },
    {
      "inputs": [
        {
          "internalType": "uint256",
          "name": "_amount",
          "type": "uint256"
        }
      ],
      "name": "addYGYRewardsOwner",
      "outputs": [],
      "stateMutability": "nonpayable",
      "type": "function"
    },
    {
      "inputs": [
        {
          "internalType": "address",
          "name": "_ram",
          "type": "address"
        },
        {
          "internalType": "address",
          "name": "_ygy",
          "type": "address"
        },
        {
          "internalType": "address",
          "name": "_devaddr",
          "type": "address"
        },
        {
          "internalType": "address",
          "name": "_teamaddr",
          "type": "address"
        },
        {
          "internalType": "address",
          "name": "_regeneratoraddr",
          "type": "address"
        },
        {
          "internalType": "address",
          "name": "superAdmin",
          "type": "address"
        }
      ],
      "name": "initialize",
      "outputs": [],
      "stateMutability": "nonpayable",
      "type": "function"
    },
    {
      "inputs": [],
      "name": "poolLength",
      "outputs": [
        {
          "internalType": "uint256",
          "name": "",
          "type": "uint256"
        }
      ],
      "stateMutability": "view",
      "type": "function"
    },
    {
      "inputs": [
        {
          "internalType": "uint256",
          "name": "_allocPoint",
          "type": "uint256"
        },
        {
          "internalType": "contract IERC20",
          "name": "_token",
          "type": "address"
        },
        {
          "internalType": "bool",
          "name": "_withUpdate",
          "type": "bool"
        },
        {
          "internalType": "bool",
          "name": "_withdrawable",
          "type": "bool"
        }
      ],
      "name": "add",
      "outputs": [],
      "stateMutability": "nonpayable",
      "type": "function"
    },
    {
      "inputs": [
        {
          "internalType": "uint256",
          "name": "_pid",
          "type": "uint256"
        },
        {
          "internalType": "uint256",
          "name": "_allocPoint",
          "type": "uint256"
        },
        {
          "internalType": "bool",
          "name": "_withUpdate",
          "type": "bool"
        }
      ],
      "name": "set",
      "outputs": [],
      "stateMutability": "nonpayable",
      "type": "function"
    },
    {
      "inputs": [
        {
          "internalType": "uint256",
          "name": "_pid",
          "type": "uint256"
        },
        {
          "internalType": "bool",
          "name": "_withdrawable",
          "type": "bool"
        }
      ],
      "name": "setPoolWithdrawable",
      "outputs": [],
      "stateMutability": "nonpayable",
      "type": "function"
    },
    {
      "inputs": [
        {
          "internalType": "uint256",
          "name": "_pid",
          "type": "uint256"
        },
        {
          "internalType": "address",
          "name": "_user",
          "type": "address"
        }
      ],
      "name": "pendingRam",
      "outputs": [
        {
          "internalType": "uint256",
          "name": "",
          "type": "uint256"
        }
      ],
      "stateMutability": "view",
      "type": "function"
    },
    {
      "inputs": [
        {
          "internalType": "uint256",
          "name": "_pid",
          "type": "uint256"
        },
        {
          "internalType": "address",
          "name": "_user",
          "type": "address"
        }
      ],
      "name": "pendingYgy",
      "outputs": [
        {
          "internalType": "uint256",
          "name": "",
          "type": "uint256"
        }
      ],
      "stateMutability": "view",
      "type": "function"
    },
    {
      "inputs": [],
      "name": "massUpdatePools",
      "outputs": [],
      "stateMutability": "nonpayable",
      "type": "function"
    },
    {
      "inputs": [
        {
          "internalType": "uint256",
          "name": "_amount",
          "type": "uint256"
        }
      ],
      "name": "addPendingRewards",
      "outputs": [],
      "stateMutability": "nonpayable",
      "type": "function"
    },
    {
      "inputs": [
        {
          "internalType": "uint256",
          "name": "_pid",
          "type": "uint256"
        },
        {
          "internalType": "uint256",
          "name": "_amount",
          "type": "uint256"
        }
      ],
      "name": "deposit",
      "outputs": [],
      "stateMutability": "nonpayable",
      "type": "function"
    },
    {
      "inputs": [
        {
          "internalType": "address",
          "name": "depositFor",
          "type": "address"
        },
        {
          "internalType": "uint256",
          "name": "_pid",
          "type": "uint256"
        },
        {
          "internalType": "uint256",
          "name": "_amount",
          "type": "uint256"
        }
      ],
      "name": "depositFor",
      "outputs": [],
      "stateMutability": "nonpayable",
      "type": "function"
    },
    {
      "inputs": [
        {
          "internalType": "address",
          "name": "spender",
          "type": "address"
        },
        {
          "internalType": "uint256",
          "name": "_pid",
          "type": "uint256"
        },
        {
          "internalType": "uint256",
          "name": "value",
          "type": "uint256"
        }
      ],
      "name": "setAllowanceForPoolToken",
      "outputs": [],
      "stateMutability": "nonpayable",
      "type": "function"
    },
    {
      "inputs": [
        {
          "internalType": "address",
          "name": "owner",
          "type": "address"
        },
        {
          "internalType": "uint256",
          "name": "_pid",
          "type": "uint256"
        },
        {
          "internalType": "uint256",
          "name": "_amount",
          "type": "uint256"
        }
      ],
      "name": "withdrawFrom",
      "outputs": [],
      "stateMutability": "nonpayable",
      "type": "function"
    },
    {
      "inputs": [
        {
          "internalType": "uint256",
          "name": "_pid",
          "type": "uint256"
        },
        {
          "internalType": "uint256",
          "name": "_amount",
          "type": "uint256"
        }
      ],
      "name": "withdraw",
      "outputs": [],
      "stateMutability": "nonpayable",
      "type": "function"
    },
    {
      "inputs": [
        {
          "internalType": "uint256",
          "name": "_pid",
          "type": "uint256"
        }
      ],
      "name": "emergencyWithdraw",
      "outputs": [],
      "stateMutability": "nonpayable",
      "type": "function"
    },
    {
      "inputs": [
        {
          "internalType": "uint256",
          "name": "_pid",
          "type": "uint256"
        },
        {
          "internalType": "uint256",
          "name": "level",
          "type": "uint256"
        }
      ],
      "name": "purchase",
      "outputs": [],
      "stateMutability": "nonpayable",
      "type": "function"
    },
    {
      "inputs": [
        {
          "internalType": "uint256",
          "name": "boostLevel",
          "type": "uint256"
        }
      ],
      "name": "getTotalMultiplier",
      "outputs": [
        {
          "internalType": "uint256",
          "name": "",
          "type": "uint256"
        }
      ],
      "stateMutability": "view",
      "type": "function"
    },
    {
      "inputs": [
        {
          "internalType": "uint256",
          "name": "level",
          "type": "uint256"
        }
      ],
      "name": "calculateCost",
      "outputs": [
        {
          "internalType": "uint256",
          "name": "",
          "type": "uint256"
        }
      ],
      "stateMutability": "view",
      "type": "function"
    },
    {
      "inputs": [
        {
          "internalType": "address",
          "name": "account",
          "type": "address"
        },
        {
          "internalType": "uint256",
          "name": "pid",
          "type": "uint256"
        }
      ],
      "name": "getLevel",
      "outputs": [
        {
          "internalType": "uint256",
          "name": "",
          "type": "uint256"
        }
      ],
      "stateMutability": "view",
      "type": "function"
    },
    {
      "inputs": [
        {
          "internalType": "address",
          "name": "account",
          "type": "address"
        },
        {
          "internalType": "uint256",
          "name": "pid",
          "type": "uint256"
        }
      ],
      "name": "getSpent",
      "outputs": [
        {
          "internalType": "uint256",
          "name": "",
          "type": "uint256"
        }
      ],
      "stateMutability": "view",
      "type": "function"
    },
    {
      "inputs": [],
      "name": "distributeFees",
      "outputs": [],
      "stateMutability": "nonpayable",
      "type": "function"
    },
    {
      "inputs": [
        {
          "internalType": "uint256[]",
          "name": "_boostMultipliers",
          "type": "uint256[]"
        },
        {
          "internalType": "uint256[]",
          "name": "_boostCosts",
          "type": "uint256[]"
        }
      ],
      "name": "updateBoosts",
      "outputs": [],
      "stateMutability": "nonpayable",
      "type": "function"
    },
    {
      "inputs": [
        {
          "internalType": "uint16",
          "name": "_DEV_FEE",
          "type": "uint16"
        }
      ],
      "name": "setDevFee",
      "outputs": [],
      "stateMutability": "nonpayable",
      "type": "function"
    },
    {
      "inputs": [
        {
          "internalType": "address",
          "name": "tokenAddress",
          "type": "address"
        },
        {
          "internalType": "uint256",
          "name": "_amount",
          "type": "uint256"
        },
        {
          "internalType": "address",
          "name": "contractAddress",
          "type": "address"
        }
      ],
      "name": "setStrategyContractOrDistributionContractAllowance",
      "outputs": [],
      "stateMutability": "nonpayable",
      "type": "function"
    },
    {
      "inputs": [
        {
          "internalType": "address",
          "name": "addr",
          "type": "address"
        }
      ],
      "name": "isContract",
      "outputs": [
        {
          "internalType": "bool",
          "name": "",
          "type": "bool"
        }
      ],
      "stateMutability": "nonpayable",
      "type": "function"
    },
    {
      "inputs": [],
      "name": "transferRAMDevFee",
      "outputs": [],
      "stateMutability": "nonpayable",
      "type": "function"
    },
    {
      "inputs": [],
      "name": "transferYGYDevFee",
      "outputs": [],
      "stateMutability": "nonpayable",
      "type": "function"
    },
    {
      "inputs": [
        {
          "internalType": "address",
          "name": "_devaddr",
          "type": "address"
        }
      ],
      "name": "setDevFeeReciever",
      "outputs": [],
      "stateMutability": "nonpayable",
      "type": "function"
    },
    {
      "inputs": [],
      "name": "superAdmin",
      "outputs": [
        {
          "internalType": "address",
          "name": "",
          "type": "address"
        }
      ],
      "stateMutability": "view",
      "type": "function"
    },
    {
      "inputs": [],
      "name": "burnSuperAdmin",
      "outputs": [],
      "stateMutability": "nonpayable",
      "type": "function"
    },
    {
      "inputs": [
        {
          "internalType": "address",
          "name": "newOwner",
          "type": "address"
        }
      ],
      "name": "newSuperAdmin",
      "outputs": [],
      "stateMutability": "nonpayable",
      "type": "function"
    }
  ],
  "bytecode": "0x608060405234801561001057600080fd5b50616daf80620000216000396000f3fe608060405234801561001057600080fd5b50600436106103d05760003560e01c80637bedf68a116101ff578063b2f4b44a1161011a578063d49e77cd116100ad578063e2bbb1581161007c578063e2bbb1581461119c578063eded3fda146111d4578063f2fde38b146111f2578063fb70c3bf14611236576103d0565b8063d49e77cd146110c0578063d87190a9146110f4578063dbe0901f14611112578063e18cb4fe1461116a576103d0565b8063c507aeaa116100e9578063c507aeaa14610f4e578063c8ffb87314610fb4578063cc1362ec14610fd2578063cc2a9a5b14610fdc576103d0565b8063b2f4b44a14610d28578063ba02da3114610e74578063bb57ad2014610ed6578063c401458814610ee0576103d0565b8063900cf0cf116101925780639a6d2711116101615780639a6d271114610c305780639dbc2d9014610c64578063a676860a14610c82578063b121f2ac14610cc6576103d0565b8063900cf0cf14610b6c578063934eaa5014610b8a57806393f1a40b14610b945780639a4c309514610c12576103d0565b80638b6ff57b116101ce5780638b6ff57b14610ac85780638da5cb5b14610ae65780638ea703f514610b1a5780638f33b5e514610b38576103d0565b80637bedf68a14610a2a5780637cf75ca314610a6c5780637d3b8da114610a76578063896b09df14610aaa576103d0565b806342603602116102ef5780635312ea8e11610282578063630b5ba111610251578063630b5ba11461099a57806364482f79146109a457806370876c98146109e8578063715018a614610a20576103d0565b80635312ea8e146108ce5780635c4fd9c2146108fc5780635d577c181461095e578063608c8d3a1461097c576103d0565b80634af18f4f116102be5780634af18f4f146107b85780634cf5fbf5146107fa5780634dc47d34146108525780635207cc0d14610894576103d0565b80634260360214610726578063441a3e701461074457806346eaab321461077c57806349c5468d1461079a576103d0565b806317caf6f1116103675780633aab0a62116103365780633aab0a62146106925780633b6a68491461069c5780633fe6a278146106ca578063423d6fa0146106f8576103d0565b806317caf6f1146105a457806329575f6a146105c25780632d6754e5146105f65780633a0967cd1461063a576103d0565b806309e3de41116103a357806309e3de41146104915780630aae105d146104af5780631526fe27146104cd578063162790551461054a576103d0565b806301e492df146103d557806303dec009146103f357806304d5e99114610411578063081e3eda14610473575b600080fd5b6103dd61126a565b6040518082815260200191505060405180910390f35b6103fb611270565b6040518082815260200191505060405180910390f35b61045d6004803603604081101561042757600080fd5b8101908080359060200190929190803573ffffffffffffffffffffffffffffffffffffffff1690602001909291905050506112a0565b6040518082815260200191505060405180910390f35b61047b611388565b6040518082815260200191505060405180910390f35b610499611395565b6040518082815260200191505060405180910390f35b6104b761139b565b6040518082815260200191505060405180910390f35b6104f9600480360360208110156104e357600080fd5b81019080803590602001909291905050506113a1565b604051808773ffffffffffffffffffffffffffffffffffffffff1681526020018681526020018581526020018481526020018315158152602001828152602001965050505050505060405180910390f35b61058c6004803603602081101561056057600080fd5b81019080803573ffffffffffffffffffffffffffffffffffffffff169060200190929190505050611417565b60405180821515815260200191505060405180910390f35b6105ac61142a565b6040518082815260200191505060405180910390f35b6105ca611430565b604051808273ffffffffffffffffffffffffffffffffffffffff16815260200191505060405180910390f35b6106386004803603602081101561060c57600080fd5b81019080803573ffffffffffffffffffffffffffffffffffffffff16906020019092919050505061145a565b005b6106906004803603606081101561065057600080fd5b81019080803573ffffffffffffffffffffffffffffffffffffffff1690602001909291908035906020019092919080359060200190929190505050611568565b005b61069a6117a0565b005b6106c8600480360360208110156106b257600080fd5b8101908080359060200190929190505050611875565b005b6106f6600480360360208110156106e057600080fd5b8101908080359060200190929190505050611ae0565b005b6107246004803603602081101561070e57600080fd5b8101908080359060200190929190505050611d30565b005b61072e611d79565b6040518082815260200191505060405180910390f35b61077a6004803603604081101561075a57600080fd5b810190808035906020019092919080359060200190929190505050611d7f565b005b610784611d8f565b6040518082815260200191505060405180910390f35b6107a2611d95565b6040518082815260200191505060405180910390f35b6107e4600480360360208110156107ce57600080fd5b8101908080359060200190929190505050611d9b565b6040518082815260200191505060405180910390f35b6108506004803603606081101561081057600080fd5b81019080803573ffffffffffffffffffffffffffffffffffffffff1690602001909291908035906020019092919080359060200190929190505050611def565b005b61087e6004803603602081101561086857600080fd5b81019080803590602001909291905050506120d1565b6040518082815260200191505060405180910390f35b6108cc600480360360408110156108aa57600080fd5b81019080803590602001909291908035151590602001909291905050506120e9565b005b6108fa600480360360208110156108e457600080fd5b81019080803590602001909291905050506121ed565b005b6109486004803603604081101561091257600080fd5b8101908080359060200190929190803573ffffffffffffffffffffffffffffffffffffffff169060200190929190505050612390565b6040518082815260200191505060405180910390f35b610966612462565b6040518082815260200191505060405180910390f35b610984612468565b6040518082815260200191505060405180910390f35b6109a261246e565b005b6109e6600480360360608110156109ba57600080fd5b810190808035906020019092919080359060200190929190803515159060200190929190505050612547565b005b610a1e600480360360408110156109fe57600080fd5b810190808035906020019092919080359060200190929190505050612693565b005b610a28612a0d565b005b610a5660048036036020811015610a4057600080fd5b8101908080359060200190929190505050612b98565b6040518082815260200191505060405180910390f35b610a74612bf3565b005b610a7e61304f565b604051808273ffffffffffffffffffffffffffffffffffffffff16815260200191505060405180910390f35b610ab2613075565b6040518082815260200191505060405180910390f35b610ad061307b565b6040518082815260200191505060405180910390f35b610aee613081565b604051808273ffffffffffffffffffffffffffffffffffffffff16815260200191505060405180910390f35b610b226130ab565b6040518082815260200191505060405180910390f35b610b406130b1565b604051808273ffffffffffffffffffffffffffffffffffffffff16815260200191505060405180910390f35b610b746130d7565b6040518082815260200191505060405180910390f35b610b926130dd565b005b610be060048036036040811015610baa57600080fd5b8101908080359060200190929190803573ffffffffffffffffffffffffffffffffffffffff16906020019092919050505061324b565b604051808681526020018581526020018481526020018381526020018281526020019550505050505060405180910390f35b610c1a61328e565b6040518082815260200191505060405180910390f35b610c38613294565b604051808273ffffffffffffffffffffffffffffffffffffffff16815260200191505060405180910390f35b610c6c6132ba565b6040518082815260200191505060405180910390f35b610cc460048036036020811015610c9857600080fd5b81019080803573ffffffffffffffffffffffffffffffffffffffff1690602001909291905050506132fe565b005b610d1260048036036040811015610cdc57600080fd5b81019080803573ffffffffffffffffffffffffffffffffffffffff169060200190929190803590602001909291905050506134f1565b6040518082815260200191505060405180910390f35b610e7260048036036040811015610d3e57600080fd5b8101908080359060200190640100000000811115610d5b57600080fd5b820183602082011115610d6d57600080fd5b80359060200191846020830284011164010000000083111715610d8f57600080fd5b919080806020026020016040519081016040528093929190818152602001838360200280828437600081840152601f19601f82011690508083019250505050505050919291929080359060200190640100000000811115610def57600080fd5b820183602082011115610e0157600080fd5b80359060200191846020830284011164010000000083111715610e2357600080fd5b919080806020026020016040519081016040528093929190818152602001838360200280828437600081840152601f19601f820116905080830192505050505050509192919290505050613598565b005b610ec060048036036040811015610e8a57600080fd5b81019080803573ffffffffffffffffffffffffffffffffffffffff1690602001909291908035906020019092919050505061382c565b6040518082815260200191505060405180910390f35b610ede6138d3565b005b610f4c60048036036060811015610ef657600080fd5b81019080803573ffffffffffffffffffffffffffffffffffffffff16906020019092919080359060200190929190803573ffffffffffffffffffffffffffffffffffffffff169060200190929190505050613d9a565b005b610fb260048036036080811015610f6457600080fd5b8101908080359060200190929190803573ffffffffffffffffffffffffffffffffffffffff169060200190929190803515159060200190929190803515159060200190929190505050613fc6565b005b610fbc6142c6565b6040518082815260200191505060405180910390f35b610fda6142cc565b005b6110be600480360360c0811015610ff257600080fd5b81019080803573ffffffffffffffffffffffffffffffffffffffff169060200190929190803573ffffffffffffffffffffffffffffffffffffffff169060200190929190803573ffffffffffffffffffffffffffffffffffffffff169060200190929190803573ffffffffffffffffffffffffffffffffffffffff169060200190929190803573ffffffffffffffffffffffffffffffffffffffff169060200190929190803573ffffffffffffffffffffffffffffffffffffffff169060200190929190505050614728565b005b6110c8614a3e565b604051808273ffffffffffffffffffffffffffffffffffffffff16815260200191505060405180910390f35b6110fc614a64565b6040518082815260200191505060405180910390f35b6111686004803603606081101561112857600080fd5b81019080803573ffffffffffffffffffffffffffffffffffffffff1690602001909291908035906020019092919080359060200190929190505050614a6a565b005b61119a6004803603602081101561118057600080fd5b81019080803561ffff169060200190929190505050614b7f565b005b6111d2600480360360408110156111b257600080fd5b810190808035906020019092919080359060200190929190505050614ce5565b005b6111dc614fc6565b6040518082815260200191505060405180910390f35b6112346004803603602081101561120857600080fd5b81019080803573ffffffffffffffffffffffffffffffffffffffff169060200190929190505050614fcc565b005b61123e6151dc565b604051808273ffffffffffffffffffffffffffffffffffffffff16815260200191505060405180910390f35b60a75481565b600061129b61128a60a0544361520290919063ffffffff16565b60a25461524c90919063ffffffff16565b905090565b600080609a84815481106112b057fe5b906000526020600020906007020190506000609b600086815260200190815260200160002060008573ffffffffffffffffffffffffffffffffffffffff1673ffffffffffffffffffffffffffffffffffffffff1681526020019081526020016000209050600082600201549050600061133a8360020154846000015461529690919063ffffffff16565b905061137c836001015461136e64e8d4a51000611360868661531e90919063ffffffff16565b61524c90919063ffffffff16565b61520290919063ffffffff16565b94505050505092915050565b6000609a80549050905090565b60a65481565b60aa5481565b609a81815481106113ae57fe5b90600052602060002090600702016000915090508060000160009054906101000a900473ffffffffffffffffffffffffffffffffffffffff16908060010154908060020154908060030154908060040160009054906101000a900460ff16908060060154905086565b600080823b905060008111915050919050565b609c5481565b600060b560009054906101000a900473ffffffffffffffffffffffffffffffffffffffff16905090565b6114626153a4565b73ffffffffffffffffffffffffffffffffffffffff16606560009054906101000a900473ffffffffffffffffffffffffffffffffffffffff1673ffffffffffffffffffffffffffffffffffffffff1614611524576040517f08c379a00000000000000000000000000000000000000000000000000000000081526004018080602001828103825260208152602001807f4f776e61626c653a2063616c6c6572206973206e6f7420746865206f776e657281525060200191505060405180910390fd5b80609960006101000a81548173ffffffffffffffffffffffffffffffffffffffff021916908373ffffffffffffffffffffffffffffffffffffffff16021790555050565b6000609a838154811061157757fe5b90600052602060002090600702019050818160050160008673ffffffffffffffffffffffffffffffffffffffff1673ffffffffffffffffffffffffffffffffffffffff16815260200190815260200160002060003373ffffffffffffffffffffffffffffffffffffffff1673ffffffffffffffffffffffffffffffffffffffff16815260200190815260200160002054101561167b576040517f08c379a00000000000000000000000000000000000000000000000000000000081526004018080602001828103825260208152602001807f77697468647261773a20696e73756666696369656e7420616c6c6f77616e636581525060200191505060405180910390fd5b61170c828260050160008773ffffffffffffffffffffffffffffffffffffffff1673ffffffffffffffffffffffffffffffffffffffff16815260200190815260200160002060003373ffffffffffffffffffffffffffffffffffffffff1673ffffffffffffffffffffffffffffffffffffffff1681526020019081526020016000205461520290919063ffffffff16565b8160050160008673ffffffffffffffffffffffffffffffffffffffff1673ffffffffffffffffffffffffffffffffffffffff16815260200190815260200160002060003373ffffffffffffffffffffffffffffffffffffffff1673ffffffffffffffffffffffffffffffffffffffff1681526020019081526020016000208190555061179a838386336153ac565b50505050565b4361c35060a054011061181b576040517f08c379a00000000000000000000000000000000000000000000000000000000081526004018080602001828103825260178152602001807f4e65772065706f6368206e6f742072656164792079657400000000000000000081525060200191505060405180910390fd5b60a25460af600060a35481526020019081526020016000208190555061184e60a25460a15461529690919063ffffffff16565b60a181905550600060a2819055504360a08190555060a36000815460010191905081905550565b61187d6153a4565b73ffffffffffffffffffffffffffffffffffffffff16606560009054906101000a900473ffffffffffffffffffffffffffffffffffffffff1673ffffffffffffffffffffffffffffffffffffffff161461193f576040517f08c379a00000000000000000000000000000000000000000000000000000000081526004018080602001828103825260208152602001807f4f776e61626c653a2063616c6c6572206973206e6f7420746865206f776e657281525060200191505060405180910390fd5b609760009054906101000a900473ffffffffffffffffffffffffffffffffffffffff1673ffffffffffffffffffffffffffffffffffffffff166323b872dd3330846040518463ffffffff1660e01b8152600401808473ffffffffffffffffffffffffffffffffffffffff1681526020018373ffffffffffffffffffffffffffffffffffffffff1681526020018281526020019350505050602060405180830381600087803b1580156119f057600080fd5b505af1158015611a04573d6000803e3d6000fd5b505050506040513d6020811015611a1a57600080fd5b8101908080519060200190929190505050611a9d576040517f08c379a00000000000000000000000000000000000000000000000000000000081526004018080602001828103825260148152602001807f417070726f766520746f6b656e7320666972737400000000000000000000000081525060200191505060405180910390fd5b6000811115611add57611abb81609d5461529690919063ffffffff16565b609d81905550611ad68160a25461529690919063ffffffff16565b60a2819055505b50565b611ae86153a4565b73ffffffffffffffffffffffffffffffffffffffff16606560009054906101000a900473ffffffffffffffffffffffffffffffffffffffff1673ffffffffffffffffffffffffffffffffffffffff1614611baa576040517f08c379a00000000000000000000000000000000000000000000000000000000081526004018080602001828103825260208152602001807f4f776e61626c653a2063616c6c6572206973206e6f7420746865206f776e657281525060200191505060405180910390fd5b609860009054906101000a900473ffffffffffffffffffffffffffffffffffffffff1673ffffffffffffffffffffffffffffffffffffffff166323b872dd3330846040518463ffffffff1660e01b8152600401808473ffffffffffffffffffffffffffffffffffffffff1681526020018373ffffffffffffffffffffffffffffffffffffffff1681526020018281526020019350505050602060405180830381600087803b158015611c5b57600080fd5b505af1158015611c6f573d6000803e3d6000fd5b505050506040513d6020811015611c8557600080fd5b8101908080519060200190929190505050611d08576040517f08c379a00000000000000000000000000000000000000000000000000000000081526004018080602001828103825260148152602001807f417070726f766520746f6b656e7320666972737400000000000000000000000081525060200191505060405180910390fd5b6000811115611d2d57611d2681609e5461529690919063ffffffff16565b609e819055505b50565b60008190506000811115611d7557611d5381609d5461529690919063ffffffff16565b609d81905550611d6e8160a25461529690919063ffffffff16565b60a2819055505b5050565b60a85481565b611d8b828233336153ac565b5050565b60ae5481565b609f5481565b60006001821415611db05760a7549050611dea565b6002821415611dc35760a8549050611dea565b6003821415611dd65760a9549050611dea565b6004821415611de95760aa549050611dea565b5b919050565b6000609a8381548110611dfe57fe5b906000526020600020906007020190506000609b600085815260200190815260200160002060008673ffffffffffffffffffffffffffffffffffffffff1673ffffffffffffffffffffffffffffffffffffffff1681526020019081526020016000209050611e6a61246e565b611e7484866156d0565b6000831115612025578160000160009054906101000a900473ffffffffffffffffffffffffffffffffffffffff1673ffffffffffffffffffffffffffffffffffffffff166323b872dd3330866040518463ffffffff1660e01b8152600401808473ffffffffffffffffffffffffffffffffffffffff1681526020018373ffffffffffffffffffffffffffffffffffffffff1681526020018281526020019350505050602060405180830381600087803b158015611f3057600080fd5b505af1158015611f44573d6000803e3d6000fd5b505050506040513d6020811015611f5a57600080fd5b810190808051906020019092919050505050611f8383826000015461529690919063ffffffff16565b8160000181905550600081600301541115612024576000816002015490506000611fb08360030154612b98565b90506000611fde6064611fd084876000015461531e90919063ffffffff16565b61524c90919063ffffffff16565b90508084600201819055506000611ffe848361520290919063ffffffff16565b905061201781876006015461529690919063ffffffff16565b8660060181905550505050505b5b60006120428260020154836000015461529690919063ffffffff16565b905061207264e8d4a5100061206485600201548461531e90919063ffffffff16565b61524c90919063ffffffff16565b8260010181905550848673ffffffffffffffffffffffffffffffffffffffff167f90890809c654f11d6e72a28fa60149770a0d11ec6c92319d6ceb2bb0a4ea1a15866040518082815260200191505060405180910390a3505050505050565b60af6020528060005260406000206000915090505481565b6120f16153a4565b73ffffffffffffffffffffffffffffffffffffffff16606560009054906101000a900473ffffffffffffffffffffffffffffffffffffffff1673ffffffffffffffffffffffffffffffffffffffff16146121b3576040517f08c379a00000000000000000000000000000000000000000000000000000000081526004018080602001828103825260208152602001807f4f776e61626c653a2063616c6c6572206973206e6f7420746865206f776e657281525060200191505060405180910390fd5b80609a83815481106121c157fe5b906000526020600020906007020160040160006101000a81548160ff0219169083151502179055505050565b6000609a82815481106121fc57fe5b906000526020600020906007020190508060040160009054906101000a900460ff16612273576040517f08c379a0000000000000000000000000000000000000000000000000000000008152600401808060200182810382526026815260200180616ce06026913960400191505060405180910390fd5b6000609b600084815260200190815260200160002060003373ffffffffffffffffffffffffffffffffffffffff1673ffffffffffffffffffffffffffffffffffffffff168152602001908152602001600020905061231a3382600001548460000160009054906101000a900473ffffffffffffffffffffffffffffffffffffffff1673ffffffffffffffffffffffffffffffffffffffff1661571a9092919063ffffffff16565b823373ffffffffffffffffffffffffffffffffffffffff167fbb757047c2b5f3974fe26b7c10f732e7bce710b0952a71082702781e62ae059583600001546040518082815260200191505060405180910390a3600081600001819055506000816002018190555060008160010181905550505050565b600080609a84815481106123a057fe5b906000526020600020906007020190506000609b600086815260200190815260200160002060008573ffffffffffffffffffffffffffffffffffffffff1673ffffffffffffffffffffffffffffffffffffffff1681526020019081526020016000209050600082600301549050600061242a8360020154846000015461529690919063ffffffff16565b905061245664e8d4a51000612448848461531e90919063ffffffff16565b61524c90919063ffffffff16565b94505050505092915050565b60a05481565b60a25481565b6124ac6040518060400160405280601381526020017f4d617373205570646174696e6720506f6f6c73000000000000000000000000008152506157bc565b6000609a80549050905060008060005b8381101561250b576000806124d0836158ba565b915091506124e7828661529690919063ffffffff16565b94506124fc818561529690919063ffffffff16565b935050508060010190506124bc565b5061252182609d5461520290919063ffffffff16565b609d8190555061253c81609e5461520290919063ffffffff16565b609e81905550505050565b61254f6153a4565b73ffffffffffffffffffffffffffffffffffffffff16606560009054906101000a900473ffffffffffffffffffffffffffffffffffffffff1673ffffffffffffffffffffffffffffffffffffffff1614612611576040517f08c379a00000000000000000000000000000000000000000000000000000000081526004018080602001828103825260208152602001807f4f776e61626c653a2063616c6c6572206973206e6f7420746865206f776e657281525060200191505060405180910390fd5b80156126205761261f61246e565b5b61266582612657609a868154811061263457fe5b906000526020600020906007020160010154609c5461520290919063ffffffff16565b61529690919063ffffffff16565b609c8190555081609a848154811061267957fe5b906000526020600020906007020160010181905550505050565b6000609a83815481106126a257fe5b906000526020600020906007020190506000609b600085815260200190815260200160002060003373ffffffffffffffffffffffffffffffffffffffff1673ffffffffffffffffffffffffffffffffffffffff168152602001908152602001600020905080600301548311612762576040517f08c379a0000000000000000000000000000000000000000000000000000000008152600401808060200182810382526024815260200180616d566024913960400191505060405180910390fd5b600061276d84611d9b565b9050600061278883600401548361520290919063ffffffff16565b9050609760009054906101000a900473ffffffffffffffffffffffffffffffffffffffff1673ffffffffffffffffffffffffffffffffffffffff166323b872dd3330846040518463ffffffff1660e01b8152600401808473ffffffffffffffffffffffffffffffffffffffff1681526020018373ffffffffffffffffffffffffffffffffffffffff1681526020018281526020019350505050602060405180830381600087803b15801561283b57600080fd5b505af115801561284f573d6000803e3d6000fd5b505050506040513d602081101561286557600080fd5b81019080805190602001909291905050506128e8576040517f08c379a000000000000000000000000000000000000000000000000000000000815260040180806020018281038252600f8152602001807f5472616e73666572206661696c6564000000000000000000000000000000000081525060200191505060405180910390fd5b6128ff81846004015461529690919063ffffffff16565b83600401819055508483600301819055506000836000015411156129a557600061292886612b98565b90506000612956606461294884886000015461531e90919063ffffffff16565b61524c90919063ffffffff16565b9050600085600201549050818660020181905550600061297f828461520290919063ffffffff16565b905061299881896006015461529690919063ffffffff16565b8860060181905550505050505b6129ba8160a65461529690919063ffffffff16565b60a68190555084863373ffffffffffffffffffffffffffffffffffffffff167faadc628cb4fd3bb7a62795eb460290459458bdc6f387ffde727c740f42c1833760405160405180910390a4505050505050565b612a156153a4565b73ffffffffffffffffffffffffffffffffffffffff16606560009054906101000a900473ffffffffffffffffffffffffffffffffffffffff1673ffffffffffffffffffffffffffffffffffffffff1614612ad7576040517f08c379a00000000000000000000000000000000000000000000000000000000081526004018080602001828103825260208152602001807f4f776e61626c653a2063616c6c6572206973206e6f7420746865206f776e657281525060200191505060405180910390fd5b600073ffffffffffffffffffffffffffffffffffffffff16606560009054906101000a900473ffffffffffffffffffffffffffffffffffffffff1673ffffffffffffffffffffffffffffffffffffffff167f8be0079c531659141344cd1fd0a4f28419497f9722a3daafe3b4186f6b6457e060405160405180910390a36000606560006101000a81548173ffffffffffffffffffffffffffffffffffffffff021916908373ffffffffffffffffffffffffffffffffffffffff160217905550565b600080600090506001831415612bb25760ab549050612bea565b6002831415612bc55760ac549050612be9565b6003831415612bd85760ad549050612be8565b6004831415612be75760ae5490505b5b5b5b80915050919050565b600060b354111561304d576000806000609760009054906101000a900473ffffffffffffffffffffffffffffffffffffffff1673ffffffffffffffffffffffffffffffffffffffff166370a08231306040518263ffffffff1660e01b8152600401808273ffffffffffffffffffffffffffffffffffffffff16815260200191505060206040518083038186803b158015612c8c57600080fd5b505afa158015612ca0573d6000803e3d6000fd5b505050506040513d6020811015612cb657600080fd5b810190808051906020019092919050505090508060b3541115612d2a57612cfa6064612cec60468461531e90919063ffffffff16565b61524c90919063ffffffff16565b9250612d236064612d15601e8461531e90919063ffffffff16565b61524c90919063ffffffff16565b9150612d81565b612d536064612d45604660b35461531e90919063ffffffff16565b61524c90919063ffffffff16565b9250612d7e6064612d70601e60b35461531e90919063ffffffff16565b61524c90919063ffffffff16565b91505b6000831115612e7c57609760009054906101000a900473ffffffffffffffffffffffffffffffffffffffff1673ffffffffffffffffffffffffffffffffffffffff1663a9059cbb609960009054906101000a900473ffffffffffffffffffffffffffffffffffffffff16856040518363ffffffff1660e01b8152600401808373ffffffffffffffffffffffffffffffffffffffff16815260200182815260200192505050602060405180830381600087803b158015612e3f57600080fd5b505af1158015612e53573d6000803e3d6000fd5b505050506040513d6020811015612e6957600080fd5b8101908080519060200190929190505050505b6000821115612f7757609760009054906101000a900473ffffffffffffffffffffffffffffffffffffffff1673ffffffffffffffffffffffffffffffffffffffff1663a9059cbb60a560009054906101000a900473ffffffffffffffffffffffffffffffffffffffff16846040518363ffffffff1660e01b8152600401808373ffffffffffffffffffffffffffffffffffffffff16815260200182815260200192505050602060405180830381600087803b158015612f3a57600080fd5b505af1158015612f4e573d6000803e3d6000fd5b505050506040513d6020811015612f6457600080fd5b8101908080519060200190929190505050505b609760009054906101000a900473ffffffffffffffffffffffffffffffffffffffff1673ffffffffffffffffffffffffffffffffffffffff166370a08231306040518263ffffffff1660e01b8152600401808273ffffffffffffffffffffffffffffffffffffffff16815260200191505060206040518083038186803b15801561300057600080fd5b505afa158015613014573d6000803e3d6000fd5b505050506040513d602081101561302a57600080fd5b810190808051906020019092919050505060b181905550600060b3819055505050505b565b60a460009054906101000a900473ffffffffffffffffffffffffffffffffffffffff1681565b60ac5481565b609e5481565b6000606560009054906101000a900473ffffffffffffffffffffffffffffffffffffffff16905090565b60ab5481565b609760009054906101000a900473ffffffffffffffffffffffffffffffffffffffff1681565b60a35481565b6130e56153a4565b73ffffffffffffffffffffffffffffffffffffffff1660b560009054906101000a900473ffffffffffffffffffffffffffffffffffffffff1673ffffffffffffffffffffffffffffffffffffffff161461318a576040517f08c379a0000000000000000000000000000000000000000000000000000000008152600401808060200182810382526028815260200180616c696028913960400191505060405180910390fd5b600073ffffffffffffffffffffffffffffffffffffffff1660b560009054906101000a900473ffffffffffffffffffffffffffffffffffffffff1673ffffffffffffffffffffffffffffffffffffffff167ff564c40f4f45e62a2c1e6c22e8bfb46501f0f71fa1c72e5358903fa1115a4b6460405160405180910390a3600060b560006101000a81548173ffffffffffffffffffffffffffffffffffffffff021916908373ffffffffffffffffffffffffffffffffffffffff160217905550565b609b602052816000526040600020602052806000526040600020600091509150508060000154908060010154908060020154908060030154908060040154905085565b60ad5481565b60a560009054906101000a900473ffffffffffffffffffffffffffffffffffffffff1681565b60006132f96132d4609f544361520290919063ffffffff16565b6132eb60a25460a15461529690919063ffffffff16565b61524c90919063ffffffff16565b905090565b6133066153a4565b73ffffffffffffffffffffffffffffffffffffffff1660b560009054906101000a900473ffffffffffffffffffffffffffffffffffffffff1673ffffffffffffffffffffffffffffffffffffffff16146133ab576040517f08c379a0000000000000000000000000000000000000000000000000000000008152600401808060200182810382526028815260200180616c696028913960400191505060405180910390fd5b600073ffffffffffffffffffffffffffffffffffffffff168173ffffffffffffffffffffffffffffffffffffffff161415613431576040517f08c379a0000000000000000000000000000000000000000000000000000000008152600401808060200182810382526026815260200180616c1e6026913960400191505060405180910390fd5b8073ffffffffffffffffffffffffffffffffffffffff1660b560009054906101000a900473ffffffffffffffffffffffffffffffffffffffff1673ffffffffffffffffffffffffffffffffffffffff167ff564c40f4f45e62a2c1e6c22e8bfb46501f0f71fa1c72e5358903fa1115a4b6460405160405180910390a38060b560006101000a81548173ffffffffffffffffffffffffffffffffffffffff021916908373ffffffffffffffffffffffffffffffffffffffff16021790555050565b60006134fb616bee565b609b600084815260200190815260200160002060008573ffffffffffffffffffffffffffffffffffffffff1673ffffffffffffffffffffffffffffffffffffffff1681526020019081526020016000206040518060a0016040529081600082015481526020016001820154815260200160028201548152602001600382015481526020016004820154815250509050806060015191505092915050565b6135a06153a4565b73ffffffffffffffffffffffffffffffffffffffff16606560009054906101000a900473ffffffffffffffffffffffffffffffffffffffff1673ffffffffffffffffffffffffffffffffffffffff1614613662576040517f08c379a00000000000000000000000000000000000000000000000000000000081526004018080602001828103825260208152602001807f4f776e61626c653a2063616c6c6572206973206e6f7420746865206f776e657281525060200191505060405180910390fd5b60048251146136d9576040517f08c379a000000000000000000000000000000000000000000000000000000000815260040180806020018281038252601a8152602001807f4d75737420737065636966792034206d756c7469706c6965727300000000000081525060200191505060405180910390fd5b6004815114613750576040517f08c379a000000000000000000000000000000000000000000000000000000000815260040180806020018281038252601a8152602001807f4d75737420737065636966792034206d756c7469706c6965727300000000000081525060200191505060405180910390fd5b8060008151811061375d57fe5b602002602001015160a7819055508060018151811061377857fe5b602002602001015160a8819055508060028151811061379357fe5b602002602001015160a981905550806003815181106137ae57fe5b602002602001015160aa81905550816000815181106137c957fe5b602002602001015160ab81905550816001815181106137e457fe5b602002602001015160ac81905550816002815181106137ff57fe5b602002602001015160ad819055508160038151811061381a57fe5b602002602001015160ae819055505050565b6000613836616bee565b609b600084815260200190815260200160002060008573ffffffffffffffffffffffffffffffffffffffff1673ffffffffffffffffffffffffffffffffffffffff1681526020019081526020016000206040518060a0016040529081600082015481526020016001820154815260200160028201548152602001600382015481526020016004820154815250509050806080015191505092915050565b600060a6549050600060a68190555060006138f860028361524c90919063ffffffff16565b90506000811115613d9657609760009054906101000a900473ffffffffffffffffffffffffffffffffffffffff1673ffffffffffffffffffffffffffffffffffffffff1663a9059cbb60a460009054906101000a900473ffffffffffffffffffffffffffffffffffffffff16836040518363ffffffff1660e01b8152600401808373ffffffffffffffffffffffffffffffffffffffff16815260200182815260200192505050602060405180830381600087803b1580156139b857600080fd5b505af11580156139cc573d6000803e3d6000fd5b505050506040513d60208110156139e257600080fd5b8101908080519060200190929190505050613a65576040517f08c379a00000000000000000000000000000000000000000000000000000000081526004018080602001828103825260108152602001807f5472616e73666572206661696c65642e0000000000000000000000000000000081525060200191505060405180910390fd5b6000613a8e6064613a8060468561531e90919063ffffffff16565b61524c90919063ffffffff16565b90506000811115613bfc57609760009054906101000a900473ffffffffffffffffffffffffffffffffffffffff1673ffffffffffffffffffffffffffffffffffffffff1663a9059cbb609960009054906101000a900473ffffffffffffffffffffffffffffffffffffffff16836040518363ffffffff1660e01b8152600401808373ffffffffffffffffffffffffffffffffffffffff16815260200182815260200192505050602060405180830381600087803b158015613b4e57600080fd5b505af1158015613b62573d6000803e3d6000fd5b505050506040513d6020811015613b7857600080fd5b8101908080519060200190929190505050613bfb576040517f08c379a00000000000000000000000000000000000000000000000000000000081526004018080602001828103825260108152602001807f5472616e73666572206661696c65642e0000000000000000000000000000000081525060200191505060405180910390fd5b5b6000613c256064613c17601e8661531e90919063ffffffff16565b61524c90919063ffffffff16565b90506000811115613d9357609760009054906101000a900473ffffffffffffffffffffffffffffffffffffffff1673ffffffffffffffffffffffffffffffffffffffff1663a9059cbb60a560009054906101000a900473ffffffffffffffffffffffffffffffffffffffff16836040518363ffffffff1660e01b8152600401808373ffffffffffffffffffffffffffffffffffffffff16815260200182815260200192505050602060405180830381600087803b158015613ce557600080fd5b505af1158015613cf9573d6000803e3d6000fd5b505050506040513d6020811015613d0f57600080fd5b8101908080519060200190929190505050613d92576040517f08c379a00000000000000000000000000000000000000000000000000000000081526004018080602001828103825260108152602001807f5472616e73666572206661696c65642e0000000000000000000000000000000081525060200191505060405180910390fd5b5b50505b5050565b613da26153a4565b73ffffffffffffffffffffffffffffffffffffffff1660b560009054906101000a900473ffffffffffffffffffffffffffffffffffffffff1673ffffffffffffffffffffffffffffffffffffffff1614613e47576040517f08c379a0000000000000000000000000000000000000000000000000000000008152600401808060200182810382526028815260200180616c696028913960400191505060405180910390fd5b613e5081611417565b613ea5576040517f08c379a0000000000000000000000000000000000000000000000000000000008152600401808060200182810382526025815260200180616c446025913960400191505060405180910390fd5b613ebd62017318609f5461529690919063ffffffff16565b4311613f14576040517f08c379a0000000000000000000000000000000000000000000000000000000008152600401808060200182810382526026815260200180616d066026913960400191505060405180910390fd5b8273ffffffffffffffffffffffffffffffffffffffff1663095ea7b382846040518363ffffffff1660e01b8152600401808373ffffffffffffffffffffffffffffffffffffffff16815260200182815260200192505050602060405180830381600087803b158015613f8557600080fd5b505af1158015613f99573d6000803e3d6000fd5b505050506040513d6020811015613faf57600080fd5b810190808051906020019092919050505050505050565b613fce6153a4565b73ffffffffffffffffffffffffffffffffffffffff16606560009054906101000a900473ffffffffffffffffffffffffffffffffffffffff1673ffffffffffffffffffffffffffffffffffffffff1614614090576040517f08c379a00000000000000000000000000000000000000000000000000000000081526004018080602001828103825260208152602001807f4f776e61626c653a2063616c6c6572206973206e6f7420746865206f776e657281525060200191505060405180910390fd5b811561409f5761409e61246e565b5b6000609a80549050905060005b8181101561419f578473ffffffffffffffffffffffffffffffffffffffff16609a82815481106140d857fe5b906000526020600020906007020160000160009054906101000a900473ffffffffffffffffffffffffffffffffffffffff1673ffffffffffffffffffffffffffffffffffffffff161415614194576040517f08c379a00000000000000000000000000000000000000000000000000000000081526004018080602001828103825260188152602001807f4572726f7220706f6f6c20616c7265616479206164646564000000000000000081525060200191505060405180910390fd5b8060010190506140ac565b506141b585609c5461529690919063ffffffff16565b609c81905550609a6040518060c001604052808673ffffffffffffffffffffffffffffffffffffffff168152602001878152602001600081526020016000815260200184151581526020016000815250908060018154018082558091505060019003906000526020600020906007020160009091909190915060008201518160000160006101000a81548173ffffffffffffffffffffffffffffffffffffffff021916908373ffffffffffffffffffffffffffffffffffffffff16021790555060208201518160010155604082015181600201556060820151816003015560808201518160040160006101000a81548160ff02191690831515021790555060a0820151816006015550505050505050565b60a15481565b600060b4541115614726576000806000609860009054906101000a900473ffffffffffffffffffffffffffffffffffffffff1673ffffffffffffffffffffffffffffffffffffffff166370a08231306040518263ffffffff1660e01b8152600401808273ffffffffffffffffffffffffffffffffffffffff16815260200191505060206040518083038186803b15801561436557600080fd5b505afa158015614379573d6000803e3d6000fd5b505050506040513d602081101561438f57600080fd5b810190808051906020019092919050505090508060b4541115614403576143d360646143c560468461531e90919063ffffffff16565b61524c90919063ffffffff16565b92506143fc60646143ee601e8461531e90919063ffffffff16565b61524c90919063ffffffff16565b915061445a565b61442c606461441e604660b45461531e90919063ffffffff16565b61524c90919063ffffffff16565b92506144576064614449601e60b45461531e90919063ffffffff16565b61524c90919063ffffffff16565b91505b600083111561455557609860009054906101000a900473ffffffffffffffffffffffffffffffffffffffff1673ffffffffffffffffffffffffffffffffffffffff1663a9059cbb609960009054906101000a900473ffffffffffffffffffffffffffffffffffffffff16856040518363ffffffff1660e01b8152600401808373ffffffffffffffffffffffffffffffffffffffff16815260200182815260200192505050602060405180830381600087803b15801561451857600080fd5b505af115801561452c573d6000803e3d6000fd5b505050506040513d602081101561454257600080fd5b8101908080519060200190929190505050505b600082111561465057609860009054906101000a900473ffffffffffffffffffffffffffffffffffffffff1673ffffffffffffffffffffffffffffffffffffffff1663a9059cbb60a560009054906101000a900473ffffffffffffffffffffffffffffffffffffffff16846040518363ffffffff1660e01b8152600401808373ffffffffffffffffffffffffffffffffffffffff16815260200182815260200192505050602060405180830381600087803b15801561461357600080fd5b505af1158015614627573d6000803e3d6000fd5b505050506040513d602081101561463d57600080fd5b8101908080519060200190929190505050505b609860009054906101000a900473ffffffffffffffffffffffffffffffffffffffff1673ffffffffffffffffffffffffffffffffffffffff166370a08231306040518263ffffffff1660e01b8152600401808273ffffffffffffffffffffffffffffffffffffffff16815260200191505060206040518083038186803b1580156146d957600080fd5b505afa1580156146ed573d6000803e3d6000fd5b505050506040513d602081101561470357600080fd5b810190808051906020019092919050505060b081905550600060b4819055505050505b565b600060019054906101000a900460ff16806147475750614746615bb5565b5b8061475d575060008054906101000a900460ff16155b6147b2576040517f08c379a000000000000000000000000000000000000000000000000000000000815260040180806020018281038252602e815260200180616cb2602e913960400191505060405180910390fd5b60008060019054906101000a900460ff161590508015614802576001600060016101000a81548160ff02191690831515021790555060016000806101000a81548160ff0219169083151502179055505b61480a615bcc565b6102d460b260006101000a81548161ffff021916908361ffff16021790555086609760006101000a81548173ffffffffffffffffffffffffffffffffffffffff021916908373ffffffffffffffffffffffffffffffffffffffff16021790555085609860006101000a81548173ffffffffffffffffffffffffffffffffffffffff021916908373ffffffffffffffffffffffffffffffffffffffff16021790555084609960006101000a81548173ffffffffffffffffffffffffffffffffffffffff021916908373ffffffffffffffffffffffffffffffffffffffff1602179055508360a560006101000a81548173ffffffffffffffffffffffffffffffffffffffff021916908373ffffffffffffffffffffffffffffffffffffffff1602179055508260a460006101000a81548173ffffffffffffffffffffffffffffffffffffffff021916908373ffffffffffffffffffffffffffffffffffffffff16021790555043609f819055508160b560006101000a81548173ffffffffffffffffffffffffffffffffffffffff021916908373ffffffffffffffffffffffffffffffffffffffff160217905550674563918244f4000060a78190555067d02ab486cedc000060a8819055506801a055690d9db8000060a981905550680340aad21b3b70000060aa81905550600560ab81905550600f60ac81905550601e60ad81905550603c60ae819055508015614a355760008060016101000a81548160ff0219169083151502179055505b50505050505050565b609960009054906101000a900473ffffffffffffffffffffffffffffffffffffffff1681565b60a95481565b6000609a8381548110614a7957fe5b90600052602060002090600702019050818160050160003373ffffffffffffffffffffffffffffffffffffffff1673ffffffffffffffffffffffffffffffffffffffff16815260200190815260200160002060008673ffffffffffffffffffffffffffffffffffffffff1673ffffffffffffffffffffffffffffffffffffffff168152602001908152602001600020819055508373ffffffffffffffffffffffffffffffffffffffff163373ffffffffffffffffffffffffffffffffffffffff167fb3fd5071835887567a0671151121894ddccc2842f1d10bedad13e0d17cace9a78585604051808381526020018281526020019250505060405180910390a350505050565b614b876153a4565b73ffffffffffffffffffffffffffffffffffffffff16606560009054906101000a900473ffffffffffffffffffffffffffffffffffffffff1673ffffffffffffffffffffffffffffffffffffffff1614614c49576040517f08c379a00000000000000000000000000000000000000000000000000000000081526004018080602001828103825260208152602001807f4f776e61626c653a2063616c6c6572206973206e6f7420746865206f776e657281525060200191505060405180910390fd5b6103e88161ffff161115614cc5576040517f08c379a00000000000000000000000000000000000000000000000000000000081526004018080602001828103825260168152602001807f4465762066656520636c616d706564206174203130250000000000000000000081525060200191505060405180910390fd5b8060b260006101000a81548161ffff021916908361ffff16021790555050565b6000609a8381548110614cf457fe5b906000526020600020906007020190506000609b600085815260200190815260200160002060003373ffffffffffffffffffffffffffffffffffffffff1673ffffffffffffffffffffffffffffffffffffffff1681526020019081526020016000209050614d6061246e565b614d6a84336156d0565b6000831115614f1b578160000160009054906101000a900473ffffffffffffffffffffffffffffffffffffffff1673ffffffffffffffffffffffffffffffffffffffff166323b872dd3330866040518463ffffffff1660e01b8152600401808473ffffffffffffffffffffffffffffffffffffffff1681526020018373ffffffffffffffffffffffffffffffffffffffff1681526020018281526020019350505050602060405180830381600087803b158015614e2657600080fd5b505af1158015614e3a573d6000803e3d6000fd5b505050506040513d6020811015614e5057600080fd5b810190808051906020019092919050505050614e7983826000015461529690919063ffffffff16565b8160000181905550600081600301541115614f1a576000816002015490506000614ea68360030154612b98565b90506000614ed46064614ec684876000015461531e90919063ffffffff16565b61524c90919063ffffffff16565b90508084600201819055506000614ef4848361520290919063ffffffff16565b9050614f0d81876006015461529690919063ffffffff16565b8660060181905550505050505b5b6000614f388260020154836000015461529690919063ffffffff16565b9050614f6864e8d4a51000614f5a85600201548461531e90919063ffffffff16565b61524c90919063ffffffff16565b8260010181905550843373ffffffffffffffffffffffffffffffffffffffff167f90890809c654f11d6e72a28fa60149770a0d11ec6c92319d6ceb2bb0a4ea1a15866040518082815260200191505060405180910390a35050505050565b609d5481565b614fd46153a4565b73ffffffffffffffffffffffffffffffffffffffff16606560009054906101000a900473ffffffffffffffffffffffffffffffffffffffff1673ffffffffffffffffffffffffffffffffffffffff1614615096576040517f08c379a00000000000000000000000000000000000000000000000000000000081526004018080602001828103825260208152602001807f4f776e61626c653a2063616c6c6572206973206e6f7420746865206f776e657281525060200191505060405180910390fd5b600073ffffffffffffffffffffffffffffffffffffffff168173ffffffffffffffffffffffffffffffffffffffff16141561511c576040517f08c379a0000000000000000000000000000000000000000000000000000000008152600401808060200182810382526026815260200180616c1e6026913960400191505060405180910390fd5b8073ffffffffffffffffffffffffffffffffffffffff16606560009054906101000a900473ffffffffffffffffffffffffffffffffffffffff1673ffffffffffffffffffffffffffffffffffffffff167f8be0079c531659141344cd1fd0a4f28419497f9722a3daafe3b4186f6b6457e060405160405180910390a380606560006101000a81548173ffffffffffffffffffffffffffffffffffffffff021916908373ffffffffffffffffffffffffffffffffffffffff16021790555050565b609860009054906101000a900473ffffffffffffffffffffffffffffffffffffffff1681565b600061524483836040518060400160405280601e81526020017f536166654d6174683a207375627472616374696f6e206f766572666c6f770000815250615cda565b905092915050565b600061528e83836040518060400160405280601a81526020017f536166654d6174683a206469766973696f6e206279207a65726f000000000000815250615d9a565b905092915050565b600080828401905083811015615314576040517f08c379a000000000000000000000000000000000000000000000000000000000815260040180806020018281038252601b8152602001807f536166654d6174683a206164646974696f6e206f766572666c6f77000000000081525060200191505060405180910390fd5b8091505092915050565b600080831415615331576000905061539e565b600082840290508284828161534257fe5b0414615399576040517f08c379a0000000000000000000000000000000000000000000000000000000008152600401808060200182810382526021815260200180616c916021913960400191505060405180910390fd5b809150505b92915050565b600033905090565b6000609a85815481106153bb57fe5b906000526020600020906007020190508060040160009054906101000a900460ff16615432576040517f08c379a0000000000000000000000000000000000000000000000000000000008152600401808060200182810382526026815260200180616ce06026913960400191505060405180910390fd5b6000609b600087815260200190815260200160002060008573ffffffffffffffffffffffffffffffffffffffff1673ffffffffffffffffffffffffffffffffffffffff16815260200190815260200160002090508481600001541015615500576040517f08c379a00000000000000000000000000000000000000000000000000000000081526004018080602001828103825260128152602001807f77697468647261773a206e6f7420676f6f64000000000000000000000000000081525060200191505060405180910390fd5b61550861246e565b61551286856156d0565b60008511156156235761553285826000015461520290919063ffffffff16565b816000018190555061558983868460000160009054906101000a900473ffffffffffffffffffffffffffffffffffffffff1673ffffffffffffffffffffffffffffffffffffffff1661571a9092919063ffffffff16565b6000816003015411156156225760008160020154905060006155ae8360030154612b98565b905060006155dc60646155ce84876000015461531e90919063ffffffff16565b61524c90919063ffffffff16565b905080846002018190555060006155fc828561520290919063ffffffff16565b905061561581876006015461520290919063ffffffff16565b8660060181905550505050505b5b60006156408260020154836000015461529690919063ffffffff16565b905061567064e8d4a5100061566285600201548461531e90919063ffffffff16565b61524c90919063ffffffff16565b8260010181905550868473ffffffffffffffffffffffffffffffffffffffff167ff279e6a1f5e320cca91135676d9cb6e44ca8a08c0b88342bcdb1144f6511b568886040518082815260200191505060405180910390a350505050505050565b60006156dc83836112a0565b905060008111156156f2576156f18282615e60565b5b60006156fe8484612390565b90506000811115615714576157138382616275565b5b50505050565b6157b78363a9059cbb60e01b8484604051602401808373ffffffffffffffffffffffffffffffffffffffff16815260200182815260200192505050604051602081830303815290604052907bffffffffffffffffffffffffffffffffffffffffffffffffffffffff19166020820180517bffffffffffffffffffffffffffffffffffffffffffffffffffffffff838183161783525050505061668a565b505050565b6158b7816040516024018080602001828103825283818151815260200191508051906020019080838360005b838110156158035780820151818401526020810190506157e8565b50505050905090810190601f1680156158305780820380516001836020036101000a031916815260200191505b50925050506040516020818303038152906040527f41304fac000000000000000000000000000000000000000000000000000000007bffffffffffffffffffffffffffffffffffffffffffffffffffffffff19166020820180517bffffffffffffffffffffffffffffffffffffffffffffffffffffffff83818316178352505050506168d5565b50565b6000806000609a84815481106158cc57fe5b9060005260206000209060070201905060008160000160009054906101000a900473ffffffffffffffffffffffffffffffffffffffff1673ffffffffffffffffffffffffffffffffffffffff166370a08231306040518263ffffffff1660e01b8152600401808273ffffffffffffffffffffffffffffffffffffffff16815260200191505060206040518083038186803b15801561596957600080fd5b505afa15801561597d573d6000803e3d6000fd5b505050506040513d602081101561599357600080fd5b8101908080519060200190929190505050905060008114156159bd57600080935093505050615bb0565b6159ea609c546159dc8460010154609d5461531e90919063ffffffff16565b61524c90919063ffffffff16565b93506000615a29612710615a1b60b260009054906101000a900461ffff1661ffff168861531e90919063ffffffff16565b61524c90919063ffffffff16565b90506000615a40828761520290919063ffffffff16565b9050615a578260b35461529690919063ffffffff16565b60b381905550615a8a609c54615a7c8660010154609e5461531e90919063ffffffff16565b61524c90919063ffffffff16565b94506000615ac9612710615abb60b260009054906101000a900461ffff1661ffff168961531e90919063ffffffff16565b61524c90919063ffffffff16565b90506000615ae0828861520290919063ffffffff16565b9050615af78260b45461529690919063ffffffff16565b60b4819055506000615b1687600601548761529690919063ffffffff16565b9050615b58615b4582615b3764e8d4a510008861531e90919063ffffffff16565b61524c90919063ffffffff16565b886002015461529690919063ffffffff16565b8760020181905550615ba0615b8d82615b7f64e8d4a510008661531e90919063ffffffff16565b61524c90919063ffffffff16565b886003015461529690919063ffffffff16565b8760030181905550505050505050505b915091565b6000803090506000813b9050600081149250505090565b600060019054906101000a900460ff1680615beb5750615bea615bb5565b5b80615c01575060008054906101000a900460ff16155b615c56576040517f08c379a000000000000000000000000000000000000000000000000000000000815260040180806020018281038252602e815260200180616cb2602e913960400191505060405180910390fd5b60008060019054906101000a900460ff161590508015615ca6576001600060016101000a81548160ff02191690831515021790555060016000806101000a81548160ff0219169083151502179055505b615cae6168fe565b615cb66169fc565b8015615cd75760008060016101000a81548160ff0219169083151502179055505b50565b6000838311158290615d87576040517f08c379a00000000000000000000000000000000000000000000000000000000081526004018080602001828103825283818151815260200191508051906020019080838360005b83811015615d4c578082015181840152602081019050615d31565b50505050905090810190601f168015615d795780820380516001836020036101000a031916815260200191505b509250505060405180910390fd5b5060008385039050809150509392505050565b60008083118290615e46576040517f08c379a00000000000000000000000000000000000000000000000000000000081526004018080602001828103825283818151815260200191508051906020019080838360005b83811015615e0b578082015181840152602081019050615df0565b50505050905090810190601f168015615e385780820380516001836020036101000a031916815260200191505b509250505060405180910390fd5b506000838581615e5257fe5b049050809150509392505050565b6000609760009054906101000a900473ffffffffffffffffffffffffffffffffffffffff1673ffffffffffffffffffffffffffffffffffffffff166370a08231306040518263ffffffff1660e01b8152600401808273ffffffffffffffffffffffffffffffffffffffff16815260200191505060206040518083038186803b158015615eeb57600080fd5b505afa158015615eff573d6000803e3d6000fd5b505050506040513d6020811015615f1557600080fd5b81019080805190602001909291905050509050808211156160ce57609760009054906101000a900473ffffffffffffffffffffffffffffffffffffffff1673ffffffffffffffffffffffffffffffffffffffff1663a9059cbb84836040518363ffffffff1660e01b8152600401808373ffffffffffffffffffffffffffffffffffffffff16815260200182815260200192505050602060405180830381600087803b158015615fc357600080fd5b505af1158015615fd7573d6000803e3d6000fd5b505050506040513d6020811015615fed57600080fd5b810190808051906020019092919050505050609760009054906101000a900473ffffffffffffffffffffffffffffffffffffffff1673ffffffffffffffffffffffffffffffffffffffff166370a08231306040518263ffffffff1660e01b8152600401808273ffffffffffffffffffffffffffffffffffffffff16815260200191505060206040518083038186803b15801561608857600080fd5b505afa15801561609c573d6000803e3d6000fd5b505050506040513d60208110156160b257600080fd5b810190808051906020019092919050505060b181905550616268565b609760009054906101000a900473ffffffffffffffffffffffffffffffffffffffff1673ffffffffffffffffffffffffffffffffffffffff1663a9059cbb84846040518363ffffffff1660e01b8152600401808373ffffffffffffffffffffffffffffffffffffffff16815260200182815260200192505050602060405180830381600087803b15801561616157600080fd5b505af1158015616175573d6000803e3d6000fd5b505050506040513d602081101561618b57600080fd5b810190808051906020019092919050505050609760009054906101000a900473ffffffffffffffffffffffffffffffffffffffff1673ffffffffffffffffffffffffffffffffffffffff166370a08231306040518263ffffffff1660e01b8152600401808273ffffffffffffffffffffffffffffffffffffffff16815260200191505060206040518083038186803b15801561622657600080fd5b505afa15801561623a573d6000803e3d6000fd5b505050506040513d602081101561625057600080fd5b810190808051906020019092919050505060b1819055505b616270612bf3565b505050565b6000609860009054906101000a900473ffffffffffffffffffffffffffffffffffffffff1673ffffffffffffffffffffffffffffffffffffffff166370a08231306040518263ffffffff1660e01b8152600401808273ffffffffffffffffffffffffffffffffffffffff16815260200191505060206040518083038186803b15801561630057600080fd5b505afa158015616314573d6000803e3d6000fd5b505050506040513d602081101561632a57600080fd5b81019080805190602001909291905050509050808211156164e357609860009054906101000a900473ffffffffffffffffffffffffffffffffffffffff1673ffffffffffffffffffffffffffffffffffffffff1663a9059cbb84836040518363ffffffff1660e01b8152600401808373ffffffffffffffffffffffffffffffffffffffff16815260200182815260200192505050602060405180830381600087803b1580156163d857600080fd5b505af11580156163ec573d6000803e3d6000fd5b505050506040513d602081101561640257600080fd5b810190808051906020019092919050505050609860009054906101000a900473ffffffffffffffffffffffffffffffffffffffff1673ffffffffffffffffffffffffffffffffffffffff166370a08231306040518263ffffffff1660e01b8152600401808273ffffffffffffffffffffffffffffffffffffffff16815260200191505060206040518083038186803b15801561649d57600080fd5b505afa1580156164b1573d6000803e3d6000fd5b505050506040513d60208110156164c757600080fd5b810190808051906020019092919050505060b08190555061667d565b609860009054906101000a900473ffffffffffffffffffffffffffffffffffffffff1673ffffffffffffffffffffffffffffffffffffffff1663a9059cbb84846040518363ffffffff1660e01b8152600401808373ffffffffffffffffffffffffffffffffffffffff16815260200182815260200192505050602060405180830381600087803b15801561657657600080fd5b505af115801561658a573d6000803e3d6000fd5b505050506040513d60208110156165a057600080fd5b810190808051906020019092919050505050609860009054906101000a900473ffffffffffffffffffffffffffffffffffffffff1673ffffffffffffffffffffffffffffffffffffffff166370a08231306040518263ffffffff1660e01b8152600401808273ffffffffffffffffffffffffffffffffffffffff16815260200191505060206040518083038186803b15801561663b57600080fd5b505afa15801561664f573d6000803e3d6000fd5b505050506040513d602081101561666557600080fd5b810190808051906020019092919050505060b0819055505b6166856142cc565b505050565b6166a98273ffffffffffffffffffffffffffffffffffffffff16616ba3565b61671b576040517f08c379a000000000000000000000000000000000000000000000000000000000815260040180806020018281038252601f8152602001807f5361666545524332303a2063616c6c20746f206e6f6e2d636f6e74726163740081525060200191505060405180910390fd5b600060608373ffffffffffffffffffffffffffffffffffffffff16836040518082805190602001908083835b6020831061676a5780518252602082019150602081019050602083039250616747565b6001836020036101000a0380198251168184511680821785525050505050509050019150506000604051808303816000865af19150503d80600081146167cc576040519150601f19603f3d011682016040523d82523d6000602084013e6167d1565b606091505b509150915081616849576040517f08c379a00000000000000000000000000000000000000000000000000000000081526004018080602001828103825260208152602001807f5361666545524332303a206c6f772d6c6576656c2063616c6c206661696c656481525060200191505060405180910390fd5b6000815111156168cf5780806020019051602081101561686857600080fd5b81019080805190602001909291905050506168ce576040517f08c379a000000000000000000000000000000000000000000000000000000000815260040180806020018281038252602a815260200180616d2c602a913960400191505060405180910390fd5b5b50505050565b60008151905060006a636f6e736f6c652e6c6f679050602083016000808483855afa5050505050565b600060019054906101000a900460ff168061691d575061691c615bb5565b5b80616933575060008054906101000a900460ff16155b616988576040517f08c379a000000000000000000000000000000000000000000000000000000000815260040180806020018281038252602e815260200180616cb2602e913960400191505060405180910390fd5b60008060019054906101000a900460ff1615905080156169d8576001600060016101000a81548160ff02191690831515021790555060016000806101000a81548160ff0219169083151502179055505b80156169f95760008060016101000a81548160ff0219169083151502179055505b50565b600060019054906101000a900460ff1680616a1b5750616a1a615bb5565b5b80616a31575060008054906101000a900460ff16155b616a86576040517f08c379a000000000000000000000000000000000000000000000000000000000815260040180806020018281038252602e815260200180616cb2602e913960400191505060405180910390fd5b60008060019054906101000a900460ff161590508015616ad6576001600060016101000a81548160ff02191690831515021790555060016000806101000a81548160ff0219169083151502179055505b6000616ae06153a4565b905080606560006101000a81548173ffffffffffffffffffffffffffffffffffffffff021916908373ffffffffffffffffffffffffffffffffffffffff1602179055508073ffffffffffffffffffffffffffffffffffffffff16600073ffffffffffffffffffffffffffffffffffffffff167f8be0079c531659141344cd1fd0a4f28419497f9722a3daafe3b4186f6b6457e060405160405180910390a3508015616ba05760008060016101000a81548160ff0219169083151502179055505b50565b60008060007fc5d2460186f7233c927e7db2dcc703c0e500b653ca82273b7bfad8045d85a47060001b9050833f9150808214158015616be557506000801b8214155b92505050919050565b6040518060a001604052806000815260200160008152602001600081526020016000815260200160008152509056fe4f776e61626c653a206e6577206f776e657220697320746865207a65726f20616464726573735265636970656e74206973206e6f74206120736d61727420636f6e74726163742c2042414453757065722061646d696e203a2063616c6c6572206973206e6f742073757065722061646d696e2e536166654d6174683a206d756c7469706c69636174696f6e206f766572666c6f77436f6e747261637420696e7374616e63652068617320616c7265616479206265656e20696e697469616c697a65645769746864726177696e672066726f6d207468697320706f6f6c2069732064697361626c6564476f7665726e616e636520736574757020677261636520706572696f64206e6f74206f7665725361666545524332303a204552433230206f7065726174696f6e20646964206e6f74207375636365656443616e6e6f7420646f776e6772616465206c6576656c206f722073616d65206c6576656ca26469706673582212203c0db8c44d229a908b6bc418170f64ba8f356f44d84bf2223a42d6a42d3c1c8f64736f6c634300060c0033",
  "immutableReferences": {},
  "source": "// SPDX-License-Identifier: MIT\npragma solidity 0.6.12;\n\nimport \"@openzeppelin/contracts-ethereum-package/contracts/token/ERC20/IERC20.sol\";\nimport \"@openzeppelin/contracts-ethereum-package/contracts/token/ERC20/SafeERC20.sol\";\nimport \"@openzeppelin/contracts-ethereum-package/contracts/utils/EnumerableSet.sol\";\nimport \"@openzeppelin/contracts-ethereum-package/contracts/math/SafeMath.sol\";\nimport \"@openzeppelin/contracts-ethereum-package/contracts/access/Ownable.sol\";\nimport \"./INBUNIERC20.sol\";\nimport \"@nomiclabs/buidler/console.sol\";\n\n// Ram Vault distributes fees equally amongst staked pools\ncontract RAMVault is OwnableUpgradeSafe {\n    using SafeMath for uint256;\n    using SafeERC20 for IERC20;\n\n    // Info of each user.\n    struct UserInfo {\n        uint256 amount; // How many  tokens the user has provided.\n        uint256 rewardDebt; // Reward debt. See explanation below.\n        uint256 boostAmount;\n        uint256 boostLevel;\n        uint256 spentMultiplierTokens;\n    }\n\n    // At any point in time, the amount of RAMs entitled to a user but is pending to be distributed is:\n    //\n    //   pending reward = (user.amount+user.boostAmount * pool.accRAMPerShare) - user.rewardDebt\n    //\n    // Whenever a user deposits or withdraws  tokens to a pool. Here's what happens:\n    //   1. The pool's `accRAMPerShare` (and `lastRewardBlock`) gets updated.\n    //   2. User receives the pending reward sent to his/her address.\n    //   3. User's `amount` gets updated.\n    //   4, User's `boostAmount` gets updated.\n    //   5. Pool's `effectiveAdditionalTokensFromBoosts` gets updated.\n    //   4. User's `rewardDebt` gets updated.\n\n    // Info of each pool.\n    struct PoolInfo {\n        IERC20 token; // Address of  token contract.\n        uint256 allocPoint; // How many allocation points assigned to this pool. RAMs to distribute per block.\n        uint256 accRAMPerShare; // Accumulated RAMs per share, times 1e12. See below.\n        uint256 accYGYPerShare; // Accumulated YGYs per share, times 1e12. See below.\n        bool withdrawable; // Is this pool withdrawable?\n        mapping(address => mapping(address => uint256)) allowance;\n        uint256 effectiveAdditionalTokensFromBoosts; // Track the total additional accounting staked tokens from boosts.\n    }\n\n    INBUNIERC20 public ram; // The RAM token\n    IERC20 public ygy;  // The YGY token\n    // Dev address.\n    address public devaddr;\n\n    // Info of each pool.\n    PoolInfo[] public poolInfo;\n    // Info of each user that stakes  tokens.\n    mapping(uint256 => mapping(address => UserInfo)) public userInfo;\n    // Total allocation poitns. Must be the sum of all allocation points in all pools.\n    uint256 public totalAllocPoint;\n\n    // pending rewards awaiting anyone to massUpdate\n    uint256 public pendingRewards;\n    uint256 public pendingYGYRewards;\n\n    uint256 public contractStartBlock;\n    uint256 public epochCalculationStartBlock;\n    uint256 public cumulativeRewardsSinceStart;\n    uint256 public rewardsInThisEpoch;\n\n    uint public epoch;\n\n    // Boosts\n    address public regeneratoraddr;\n    address public teamaddr;\n    uint256 public boostFees;\n    uint256 public boostLevelOneCost;\n    uint256 public boostLevelTwoCost;\n    uint256 public boostLevelThreeCost;\n    uint256 public boostLevelFourCost;\n    uint256 public boostLevelOneMultiplier;\n    uint256 public boostLevelTwoMultiplier;\n    uint256 public boostLevelThreeMultiplier;\n    uint256 public boostLevelFourMultiplier;\n\n    // Returns fees generated since start of this contract\n    function averageFeesPerBlockSinceStart() external view returns (uint averagePerBlock) {\n        averagePerBlock = cumulativeRewardsSinceStart.add(rewardsInThisEpoch).div(block.number.sub(contractStartBlock));\n    }\n\n    // Returns averge fees in this epoch\n    function averageFeesPerBlockEpoch() external view returns (uint256 averagePerBlock) {\n        averagePerBlock = rewardsInThisEpoch.div(block.number.sub(epochCalculationStartBlock));\n    }\n\n    // For easy graphing historical epoch rewards\n    mapping(uint => uint256) public epochRewards;\n\n    //Starts a new calculation epoch\n    // Because averge since start will not be accurate\n    function startNewEpoch() public {\n        require(epochCalculationStartBlock + 50000 < block.number, \"New epoch not ready yet\"); // About a week\n        epochRewards[epoch] = rewardsInThisEpoch;\n        cumulativeRewardsSinceStart = cumulativeRewardsSinceStart.add(rewardsInThisEpoch);\n        rewardsInThisEpoch = 0;\n        epochCalculationStartBlock = block.number;\n        ++epoch;\n    }\n\n    function addRAMRewardsOwner(uint256 _amount) public onlyOwner {\n        require(ram.transferFrom(msg.sender, address(this), _amount), \"Approve tokens first\");\n        if(_amount > 0) {\n            pendingRewards = pendingRewards.add(_amount);\n            rewardsInThisEpoch = rewardsInThisEpoch.add(_amount);\n        }\n    }\n\n    uint256 private ygyBalance;\n    function addYGYRewardsOwner(uint256 _amount) public onlyOwner {\n        require(ygy.transferFrom(msg.sender, address(this), _amount), \"Approve tokens first\");\n        if(_amount > 0) {\n            pendingYGYRewards = pendingYGYRewards.add(_amount);\n        }\n    }\n\n    event Deposit(address indexed user, uint256 indexed pid, uint256 amount);\n    event Withdraw(address indexed user, uint256 indexed pid, uint256 amount);\n    event EmergencyWithdraw(\n        address indexed user,\n        uint256 indexed pid,\n        uint256 amount\n    );\n    event Approval(address indexed owner, address indexed spender, uint256 _pid, uint256 value);\n    event Boost(address indexed user, uint256 indexed pid, uint256 indexed level);\n\n    function initialize(\n        address _ram,\n        address _ygy,\n        address _devaddr,\n        address _teamaddr,\n        address _regeneratoraddr,\n        address superAdmin\n    ) public initializer {\n        OwnableUpgradeSafe.__Ownable_init();\n        DEV_FEE = 724;\n        ram = INBUNIERC20(_ram);\n        ygy = IERC20(_ygy);\n        devaddr = _devaddr;\n        teamaddr = _teamaddr;\n        regeneratoraddr = _regeneratoraddr;\n        contractStartBlock = block.number;\n        _superAdmin = superAdmin;\n\n        // Initial boost multipliers and costs\n        boostLevelOneCost = 5 * 1e18;    // 5 RAM tokens\n        boostLevelTwoCost = 15 * 1e18;   // 15 RAM tokens\n        boostLevelThreeCost = 30 * 1e18; // 30 RAM tokens\n        boostLevelFourCost = 60 * 1e18;  // 60 RAM tokens\n        boostLevelOneMultiplier = 5;     // 5%\n        boostLevelTwoMultiplier = 15;    // 15%\n        boostLevelThreeMultiplier = 30;  // 30%\n        boostLevelFourMultiplier = 60;   // 60%\n    }\n\n    // --------------------------------------------\n    //                  Pools\n    // --------------------------------------------\n\n    function poolLength() external view returns (uint256) {\n        return poolInfo.length;\n    }\n\n    // Add a new token pool. Can only be called by the owner.\n    // Note contract owner is meant to be a governance contract allowing RAM governance consensus\n    function add(\n        uint256 _allocPoint,\n        IERC20 _token,\n        bool _withUpdate,\n        bool _withdrawable\n    ) public onlyOwner {\n        if (_withUpdate) {\n            massUpdatePools();\n        }\n\n        uint256 length = poolInfo.length;\n        for (uint256 pid = 0; pid < length; ++pid) {\n            require(poolInfo[pid].token != _token,\"Error pool already added\");\n        }\n\n        totalAllocPoint = totalAllocPoint.add(_allocPoint);\n\n        poolInfo.push(\n            PoolInfo({\n                token: _token,\n                allocPoint: _allocPoint,\n                accRAMPerShare: 0,\n                accYGYPerShare: 0,\n                withdrawable : _withdrawable,\n                effectiveAdditionalTokensFromBoosts: 0\n            })\n        );\n    }\n\n    // Update the given pool's RAMs allocation point. Can only be called by the owner.\n        // Note contract owner is meant to be a governance contract allowing RAM governance consensus\n\n    function set(\n        uint256 _pid,\n        uint256 _allocPoint,\n        bool _withUpdate\n    ) public onlyOwner {\n        if (_withUpdate) {\n            massUpdatePools();\n        }\n\n        totalAllocPoint = totalAllocPoint.sub(poolInfo[_pid].allocPoint).add(\n            _allocPoint\n        );\n        poolInfo[_pid].allocPoint = _allocPoint;\n    }\n\n    // Update the given pool's ability to withdraw tokens\n    // Note contract owner is meant to be a governance contract allowing RAM governance consensus\n    function setPoolWithdrawable(\n        uint256 _pid,\n        bool _withdrawable\n    ) public onlyOwner {\n        poolInfo[_pid].withdrawable = _withdrawable;\n    }\n\n    // View function to see pending RAMs on frontend.\n    function pendingRam(uint256 _pid, address _user)\n        public\n        view\n        returns (uint256)\n    {\n        PoolInfo storage pool = poolInfo[_pid];\n        UserInfo storage user = userInfo[_pid][_user];\n        uint256 accRAMPerShare = pool.accRAMPerShare;\n\n        uint256 effectiveAmount = user.amount.add(user.boostAmount);\n        return effectiveAmount.mul(accRAMPerShare).div(1e12).sub(user.rewardDebt);\n    }\n\n    // View function to see pending YGYs on frontend.\n    function pendingYgy(uint256 _pid, address _user)\n        public\n        view\n        returns (uint256)\n    {\n        PoolInfo storage pool = poolInfo[_pid];\n        UserInfo storage user = userInfo[_pid][_user];\n        uint256 accYGYPerShare = pool.accYGYPerShare;\n\n        uint256 effectiveAmount = user.amount.add(user.boostAmount);\n        return effectiveAmount.mul(accYGYPerShare).div(1e12);\n    }\n\n    // Update reward vairables for all pools. Be careful of gas spending!\n    function massUpdatePools() public {\n        console.log(\"Mass Updating Pools\");\n        uint256 length = poolInfo.length;\n        uint allRewards;\n        uint allYGYRewards;\n        for (uint256 pid = 0; pid < length; ++pid) {\n            (uint256 ramWholeReward, uint256 ygyWholeReward) = updatePool(pid);\n            allRewards = allRewards.add(ramWholeReward);\n            allYGYRewards = allYGYRewards.add(ygyWholeReward);\n        }\n\n        pendingRewards = pendingRewards.sub(allRewards);\n        pendingYGYRewards = pendingYGYRewards.sub(allYGYRewards);\n    }\n\n    // ----\n    // Function that adds pending rewards, called by the RAM token.\n    // ----\n    uint256 private ramBalance;\n    function addPendingRewards(uint256 _amount) public {\n        uint256 newRewards = _amount;\n        // uint256 newRewards = ram.balanceOf(_amount).sub(ramBalance);\n\n        if(newRewards > 0) {\n            // ramBalance = ram.balanceOf(address(this)); // If there is no change the balance didn't change\n            pendingRewards = pendingRewards.add(newRewards);\n            rewardsInThisEpoch = rewardsInThisEpoch.add(newRewards);\n        }\n    }\n\n    // Update reward variables of the given pool to be up-to-date.\n    function updatePool(uint256 _pid) internal returns (uint256 ramRewardWhole, uint256 ygyRewardWhole) {\n        PoolInfo storage pool = poolInfo[_pid];\n\n        uint256 tokenSupply = pool.token.balanceOf(address(this));\n        if (tokenSupply == 0) { // avoids division by 0 errors\n            return (0, 0);\n        }\n\n        // Calculate ram reward to distribute\n        ramRewardWhole = pendingRewards // Multiplies pending rewards by allocation point of this pool and then total allocation\n            .mul(pool.allocPoint)        // getting the percent of total pending rewards this pool should get\n            .div(totalAllocPoint);       // we can do this because pools are only mass updated\n        uint256 ramRewardFee = ramRewardWhole.mul(DEV_FEE).div(10000);\n        uint256 ramRewardToDistribute = ramRewardWhole.sub(ramRewardFee);\n        pending_DEV_rewards = pending_DEV_rewards.add(ramRewardFee);\n\n        // Calculate ygy reward to distribute\n        ygyRewardWhole = pendingYGYRewards\n            .mul(pool.allocPoint)\n            .div(totalAllocPoint);\n        uint256 ygyRewardFee = ygyRewardWhole.mul(DEV_FEE).div(10000);\n        uint256 ygyRewardToDistribute = ygyRewardWhole.sub(ygyRewardFee);\n        pending_DEV_YGY_rewards = pending_DEV_YGY_rewards.add(ygyRewardFee);\n\n        // Add pool's effective additional token amount from boosts\n        uint256 effectivePoolStakedSupply = tokenSupply.add(pool.effectiveAdditionalTokensFromBoosts);\n        // Calculate RAMPerShare, accYGYPerShare using effective pool staked supply (not just total supply)\n        pool.accRAMPerShare = pool.accRAMPerShare.add(ramRewardToDistribute.mul(1e12).div(effectivePoolStakedSupply));\n        pool.accYGYPerShare = pool.accYGYPerShare.add(ygyRewardToDistribute.mul(1e12).div(effectivePoolStakedSupply));\n    }\n\n    // Deposit  tokens to RamVault for RAM allocation.\n    function deposit(uint256 _pid, uint256 _amount) public {\n        PoolInfo storage pool = poolInfo[_pid];\n        UserInfo storage user = userInfo[_pid][msg.sender];\n\n        massUpdatePools();\n\n        // Transfer pending tokens to user\n        updateAndPayOutPending(_pid, msg.sender);\n\n        // save gas\n        if(_amount > 0) {\n            pool.token.transferFrom(address(msg.sender), address(this), _amount);\n            user.amount = user.amount.add(_amount);\n\n            // Users that have bought multipliers will have an extra balance added to their stake according to the boost multiplier.\n            if (user.boostLevel > 0) {\n                uint256 prevBalancesAccounting = user.boostAmount;\n                // Calculate and set user's new accounting balance\n                uint256 accTotalMultiplier = getTotalMultiplier(user.boostLevel);\n                uint256 newBalancesAccounting = user.amount\n                    .mul(accTotalMultiplier)\n                    .div(100);\n\n                user.boostAmount = newBalancesAccounting;\n\n                // Adjust total accounting supply accordingly\n                uint256 diffBalancesAccounting = newBalancesAccounting.sub(prevBalancesAccounting);\n                pool.effectiveAdditionalTokensFromBoosts = pool.effectiveAdditionalTokensFromBoosts.add(diffBalancesAccounting);\n            }\n        }\n\n        uint256 effectiveAmount = user.amount.add(user.boostAmount);\n        user.rewardDebt = effectiveAmount.mul(pool.accRAMPerShare).div(1e12);\n        emit Deposit(msg.sender, _pid, _amount);\n    }\n\n    // Test coverage\n    // [x] Does user get the deposited amounts?\n    // [x] Does user that its deposited for update correcty?\n    // [x] Does the depositor get their tokens decreased\n    function depositFor(address depositFor, uint256 _pid, uint256 _amount) public {\n        // requires no allowances\n        PoolInfo storage pool = poolInfo[_pid];\n        UserInfo storage user = userInfo[_pid][depositFor];\n\n        massUpdatePools();\n\n        // Transfer pending tokens\n        // to user\n        updateAndPayOutPending(_pid, depositFor); // Update the balances of person that amount is being deposited for\n\n        if(_amount > 0) {\n            pool.token.transferFrom(address(msg.sender), address(this), _amount);\n            user.amount = user.amount.add(_amount); // This is depositedFor address\n\n            // Users that have bought multipliers will have an extra balance added to their stake according to the boost multiplier.\n            if (user.boostLevel > 0) {\n                uint256 prevBalancesAccounting = user.boostAmount;\n                // Calculate and set user's new accounting balance\n                uint256 accTotalMultiplier = getTotalMultiplier(user.boostLevel);\n                uint256 newBalancesAccounting = user.amount\n                    .mul(accTotalMultiplier)\n                    .div(100);\n\n                user.boostAmount = newBalancesAccounting;\n\n                // Adjust total accounting supply accordingly\n                uint256 diffBalancesAccounting = newBalancesAccounting.sub(prevBalancesAccounting);\n                pool.effectiveAdditionalTokensFromBoosts = pool.effectiveAdditionalTokensFromBoosts.add(diffBalancesAccounting);\n            }\n        }\n\n        uint256 effectiveAmount = user.amount.add(user.boostAmount);\n        user.rewardDebt = effectiveAmount.mul(pool.accRAMPerShare).div(1e12); // This is deposited for address\n        emit Deposit(depositFor, _pid, _amount);\n    }\n\n    // Test coverage\n    // [x] Does allowance update correctly?\n    function setAllowanceForPoolToken(address spender, uint256 _pid, uint256 value) public {\n        PoolInfo storage pool = poolInfo[_pid];\n        pool.allowance[msg.sender][spender] = value;\n        emit Approval(msg.sender, spender, _pid, value);\n    }\n\n    // Test coverage\n    // [x] Does allowance decrease?\n    // [x] Do oyu need allowance\n    // [x] Withdraws to correct address\n    function withdrawFrom(address owner, uint256 _pid, uint256 _amount) public{\n        PoolInfo storage pool = poolInfo[_pid];\n        require(pool.allowance[owner][msg.sender] >= _amount, \"withdraw: insufficient allowance\");\n        pool.allowance[owner][msg.sender] = pool.allowance[owner][msg.sender].sub(_amount);\n        _withdraw(_pid, _amount, owner, msg.sender);\n    }\n\n    // Withdraw  tokens from RamVault.\n    function withdraw(uint256 _pid, uint256 _amount) public {\n        _withdraw(_pid, _amount, msg.sender, msg.sender);\n    }\n\n    // Low level withdraw function\n    function _withdraw(uint256 _pid, uint256 _amount, address from, address to) internal {\n        PoolInfo storage pool = poolInfo[_pid];\n        require(pool.withdrawable, \"Withdrawing from this pool is disabled\");\n        UserInfo storage user = userInfo[_pid][from];\n        require(user.amount >= _amount, \"withdraw: not good\");\n\n        massUpdatePools();\n        updateAndPayOutPending(_pid, from); // Update balances of from this is not withdrawal but claiming RAM farmed\n\n        if(_amount > 0) {\n            user.amount = user.amount.sub(_amount);\n            pool.token.safeTransfer(address(to), _amount);\n\n            // Users who have bought multipliers will have their accounting balances readjusted.\n            if (user.boostLevel > 0) {\n                // The previous extra balance user had\n                uint256 prevBalancesAccounting = user.boostAmount;\n                // Calculate and set user's new accounting balance\n                uint256 accTotalMultiplier = getTotalMultiplier(user.boostLevel);\n                uint256 newBalancesAccounting = user.amount\n                    .mul(accTotalMultiplier)\n                    .div(100);\n\n                user.boostAmount = newBalancesAccounting;\n                // Subtract the withdrawn amount from the accounting balance\n                // If all tokens are withdrawn the balance will be 0.\n                uint256 diffBalancesAccounting = prevBalancesAccounting.sub(newBalancesAccounting);\n                pool.effectiveAdditionalTokensFromBoosts = pool.effectiveAdditionalTokensFromBoosts.sub(diffBalancesAccounting);\n            }\n        }\n\n        uint256 effectiveAmount = user.amount.add(user.boostAmount);\n        user.rewardDebt = effectiveAmount.mul(pool.accRAMPerShare).div(1e12);\n        emit Withdraw(to, _pid, _amount);\n    }\n\n    function updateAndPayOutPending(uint256 _pid, address from) internal {\n        uint256 pendingRAM = pendingRam(_pid, from);\n        if(pendingRAM > 0) {\n            safeRamTransfer(from, pendingRAM);\n        }\n        uint256 pendingYGY = pendingYgy(_pid, from);\n        if(pendingYGY > 0) {\n            safeYgyTransfer(from, pendingYGY);\n        }\n    }\n\n    // Withdraw without caring about rewards. EMERGENCY ONLY.\n    // !Caution this will remove all your pending rewards!\n    function emergencyWithdraw(uint256 _pid) public {\n        PoolInfo storage pool = poolInfo[_pid];\n        require(pool.withdrawable, \"Withdrawing from this pool is disabled\");\n        UserInfo storage user = userInfo[_pid][msg.sender];\n        pool.token.safeTransfer(address(msg.sender), user.amount);\n        emit EmergencyWithdraw(msg.sender, _pid, user.amount);\n        user.amount = 0;\n        user.boostAmount = 0;\n        user.rewardDebt = 0;\n        // No mass update dont update pending rewards\n    }\n\n    // --------------------------------------------\n    //                  Boosts\n    // --------------------------------------------\n\n    // Purchase a multiplier level for an individual user for an individual pool, same level cannot be purchased twice.\n    function purchase(uint256 _pid, uint256 level) external {\n        PoolInfo storage pool = poolInfo[_pid];\n        UserInfo storage user = userInfo[_pid][msg.sender];\n\n        require(\n            level > user.boostLevel,\n            \"Cannot downgrade level or same level\"\n        );\n\n        // Cost will be reduced by the amount already spent on multipliers.\n        uint256 cost = calculateCost(level);\n        uint256 finalCost = cost.sub(user.spentMultiplierTokens);\n\n        // Transfer RAM tokens to the contract\n        require(ram.transferFrom(msg.sender, address(this), finalCost), \"Transfer failed\");\n\n        // Update balances and level\n        user.spentMultiplierTokens = user.spentMultiplierTokens.add(finalCost);\n        user.boostLevel = level;\n\n        // If user has staked balances, then set their new accounting balance\n        if (user.amount > 0) {\n            // Get the new multiplier\n            uint256 accTotalMultiplier = getTotalMultiplier(level);\n\n            // Calculate new accounting  balance\n            uint256 newAccountingAmount = user.amount\n                .mul(accTotalMultiplier)\n                .div(100);\n\n           // Get the user's previous accounting balance\n            uint256 prevBalancesAccounting = user.boostAmount;\n\n            // Set the user' new accounting balance\n             user.boostAmount = newAccountingAmount;\n            // Get the difference to adjust the total accounting balance\n            uint256 diffBalancesAccounting = newAccountingAmount.sub(prevBalancesAccounting);\n            pool.effectiveAdditionalTokensFromBoosts = pool.effectiveAdditionalTokensFromBoosts.add(diffBalancesAccounting);\n        }\n\n        boostFees = boostFees.add(finalCost);\n        emit Boost(msg.sender, _pid, level);\n    }\n\n    // Returns the multiplier for user.\n    function getTotalMultiplier(uint256 boostLevel) public view returns (uint256) {\n        uint256 boostMultiplier = 0;\n        if (boostLevel == 1) {\n            boostMultiplier = boostLevelOneMultiplier;\n        } else if (boostLevel == 2) {\n            boostMultiplier = boostLevelTwoMultiplier;\n        } else if (boostLevel == 3) {\n            boostMultiplier = boostLevelThreeMultiplier;\n        } else if (boostLevel == 4) {\n            boostMultiplier = boostLevelFourMultiplier;\n        }\n        return boostMultiplier;\n    }\n\n    // Calculate the cost for purchasing a boost.\n    function calculateCost(uint256 level) public view returns (uint256) {\n        if (level == 1) {\n            return boostLevelOneCost;\n        } else if (level == 2) {\n            return boostLevelTwoCost;\n        } else if (level == 3) {\n            return boostLevelThreeCost;\n        } else if (level == 4) {\n            return boostLevelFourCost;\n        }\n    }\n\n   // Returns the users current multiplier level\n    function getLevel(address account, uint256 pid) external view returns (uint256) {\n        UserInfo memory user = userInfo[pid][account];\n        return user.boostLevel;\n    }\n\n    // Return the amount spent on multipliers, used for subtracting for future purchases.\n    function getSpent(address account, uint256 pid) external view returns (uint256) {\n        UserInfo memory user = userInfo[pid][account];\n        return user.spentMultiplierTokens;\n    }\n\n    // Distributes boost fees to devs and protocol\n    function distributeFees() public {\n        // Reset taxes to 0 before distributing any funds\n        uint256 totalBoostDistAmt = boostFees;\n        boostFees = 0;\n\n        // Distribute taxes to regenerator and team 50/50%\n        uint256 halfDistAmt = totalBoostDistAmt.div(2);\n        if (halfDistAmt > 0) {\n                // 50% to regenerator\n                require(ram.transfer(regeneratoraddr, halfDistAmt), \"Transfer failed.\");\n                // 70% of the other 50% to devs\n                uint256 devDistAmt = halfDistAmt.mul(70).div(100);\n                if (devDistAmt > 0) {\n                    require(ram.transfer(devaddr, devDistAmt), \"Transfer failed.\");\n                }\n                // 30% of the other 50% to team\n                uint256 teamDistAmt = halfDistAmt.mul(30).div(100);\n                if (teamDistAmt > 0) {\n                    require(ram.transfer(teamaddr, teamDistAmt), \"Transfer failed.\");\n                }\n        }\n    }\n\n    function updateBoosts(\n        uint256[] memory _boostMultipliers,\n        uint256[] memory _boostCosts\n    ) public onlyOwner\n    {\n         require(_boostMultipliers.length == 4, \"Must specify 4 multipliers\");\n         require(_boostCosts.length == 4, \"Must specify 4 multipliers\");\n         // Update boost costs\n         boostLevelOneCost = _boostCosts[0];\n         boostLevelTwoCost = _boostCosts[1];\n         boostLevelThreeCost = _boostCosts[2];\n         boostLevelFourCost = _boostCosts[3];\n         // Update boost multipliers\n         boostLevelOneMultiplier = _boostMultipliers[0];\n         boostLevelTwoMultiplier = _boostMultipliers[1];\n         boostLevelThreeMultiplier = _boostMultipliers[2];\n         boostLevelFourMultiplier = _boostMultipliers[3];\n    }\n\n    // --------------------------------------------\n    //                  Utils\n    // --------------------------------------------\n\n    // Sets the dev fee for this contract\n    // defaults at 7.24%\n    // Note contract owner is meant to be a governance contract allowing RAM governance consensus\n    uint16 DEV_FEE;\n    function setDevFee(uint16 _DEV_FEE) public onlyOwner {\n        require(_DEV_FEE <= 1000, 'Dev fee clamped at 10%');\n        DEV_FEE = _DEV_FEE;\n    }\n    uint256 pending_DEV_rewards;\n    uint256 pending_DEV_YGY_rewards;\n\n    // function that lets owner/governance contract\n    // approve allowance for any token inside this contract\n    // This means all future UNI like airdrops are covered\n    // And at the same time allows us to give allowance to strategy contracts.\n    // Upcoming cYFI etc vaults strategy contracts will  se this function to manage and farm yield on value locked\n    function setStrategyContractOrDistributionContractAllowance(address tokenAddress, uint256 _amount, address contractAddress) public onlySuperAdmin {\n        require(isContract(contractAddress), \"Recipent is not a smart contract, BAD\");\n        require(block.number > contractStartBlock.add(95_000), \"Governance setup grace period not over\"); // about 2weeks\n        IERC20(tokenAddress).approve(contractAddress, _amount);\n    }\n\n    function isContract(address addr) public returns (bool) {\n        uint size;\n        assembly { size := extcodesize(addr) }\n        return size > 0;\n    }\n\n    // Safe ram transfer function, just in case if rounding error causes pool to not have enough RAMs.\n    function safeRamTransfer(address _to, uint256 _amount) internal {\n        uint256 ramBal = ram.balanceOf(address(this));\n\n        if (_amount > ramBal) {\n            ram.transfer(_to, ramBal);\n            ramBalance = ram.balanceOf(address(this));\n\n        } else {\n            ram.transfer(_to, _amount);\n            ramBalance = ram.balanceOf(address(this));\n\n        }\n        //Avoids possible recursion loop\n        // proxy?\n        transferRAMDevFee();\n    }\n\n    // Safe ram transfer function, just in case if rounding error causes pool to not have enough RAMs.\n    function safeYgyTransfer(address _to, uint256 _amount) internal {\n        uint256 ygyBal = ygy.balanceOf(address(this));\n\n        if (_amount > ygyBal) {\n            ygy.transfer(_to, ygyBal);\n            ygyBalance = ygy.balanceOf(address(this));\n\n        } else {\n            ygy.transfer(_to, _amount);\n            ygyBalance = ygy.balanceOf(address(this));\n\n        }\n        //Avoids possible recursion loop\n        // proxy?\n        transferYGYDevFee();\n    }\n\n    function transferRAMDevFee() public {\n        if(pending_DEV_rewards > 0) {\n            uint256 devDistAmt;\n            uint256 teamDistAmt;\n            uint256 ramBal = ram.balanceOf(address(this));\n            if (pending_DEV_rewards > ramBal) {\n                devDistAmt = ramBal.mul(70).div(100);\n                teamDistAmt = ramBal.mul(30).div(100);\n            } else {\n                devDistAmt = pending_DEV_rewards.mul(70).div(100);\n                teamDistAmt = pending_DEV_rewards.mul(30).div(100);\n            }\n\n            if (devDistAmt > 0) { ram.transfer(devaddr, devDistAmt); }\n            if (teamDistAmt > 0) { ram.transfer(teamaddr, teamDistAmt);}\n\n            ramBalance = ram.balanceOf(address(this));\n            pending_DEV_rewards = 0;\n        }\n    }\n\n    function transferYGYDevFee() public {\n        if(pending_DEV_YGY_rewards > 0) {\n            uint256 devDistAmt;\n            uint256 teamDistAmt;\n            uint256 ygyBal = ygy.balanceOf(address(this));\n            if (pending_DEV_YGY_rewards > ygyBal) {\n                devDistAmt = ygyBal.mul(70).div(100);\n                teamDistAmt = ygyBal.mul(30).div(100);\n            } else {\n                devDistAmt = pending_DEV_YGY_rewards.mul(70).div(100);\n                teamDistAmt = pending_DEV_YGY_rewards.mul(30).div(100);\n            }\n\n            if (devDistAmt > 0) { ygy.transfer(devaddr, devDistAmt); }\n            if (teamDistAmt > 0) { ygy.transfer(teamaddr, teamDistAmt);}\n\n            ygyBalance = ygy.balanceOf(address(this));\n            pending_DEV_YGY_rewards = 0;\n        }\n    }\n\n    // Update dev address by the previous dev.\n    // Note onlyOwner functions are meant for the governance contract\n    // allowing RAM governance token holders to do this functions.\n    function setDevFeeReciever(address _devaddr) public onlyOwner {\n        devaddr = _devaddr;\n    }\n\n    // --------------------------------------------\n    //                  Admin\n    // --------------------------------------------\n\n    address private _superAdmin;\n\n    event SuperAdminTransfered(address indexed previousOwner, address indexed newOwner);\n\n    /**\n     * @dev Returns the address of the current super admin\n     */\n    function superAdmin() public view returns (address) {\n        return _superAdmin;\n    }\n\n    /**\n     * @dev Throws if called by any account other than the superAdmin\n     */\n    modifier onlySuperAdmin() {\n        require(_superAdmin == _msgSender(), \"Super admin : caller is not super admin.\");\n        _;\n    }\n\n    // Assisns super admint to address 0, making it unreachable forever\n    function burnSuperAdmin() public virtual onlySuperAdmin {\n        emit SuperAdminTransfered(_superAdmin, address(0));\n        _superAdmin = address(0);\n    }\n\n    // Super admin can transfer its powers to another address\n    function newSuperAdmin(address newOwner) public virtual onlySuperAdmin {\n        require(newOwner != address(0), \"Ownable: new owner is the zero address\");\n        emit SuperAdminTransfered(_superAdmin, newOwner);\n        _superAdmin = newOwner;\n    }\n}\n",
  "sourcePath": "/Users/denali/go/src/github.com/whitelabel/ygy/ram/contracts/RamVault.sol",
  "compiler": {
    "name": "solc",
    "version": "0.6.12+commit.27d51765.Emscripten.clang"
  },
  "schemaVersion": "3.1.0",
  "updatedAt": "2020-12-01T20:27:29.856Z",
  "devdoc": {
    "kind": "dev",
    "methods": {
      "owner()": {
        "details": "Returns the address of the current owner."
      },
      "renounceOwnership()": {
        "details": "Leaves the contract without owner. It will not be possible to call `onlyOwner` functions anymore. Can only be called by the current owner. NOTE: Renouncing ownership will leave the contract without an owner, thereby removing any functionality that is only available to the owner."
      },
      "superAdmin()": {
        "details": "Returns the address of the current super admin"
      },
      "transferOwnership(address)": {
        "details": "Transfers ownership of the contract to a new account (`newOwner`). Can only be called by the current owner."
      }
    },
    "version": 1
  },
  "userdoc": {
    "kind": "user",
    "methods": {},
    "version": 1
  }
}