{
    "contractName": "DelegateProxy",
    "abi": [
        {
            "stateMutability": "payable",
            "type": "fallback"
        },
        {
            "inputs": [
                {
                    "internalType": "address",
                    "name": "_implementation",
                    "type": "address"
                }
            ],
            "name": "setImplementation",
            "outputs": [],
            "stateMutability": "nonpayable",
            "type": "function"
        },
        {
            "stateMutability": "payable",
            "type": "receive"
        }
    ],
    "bytecode": "608060405234801561001057600080fd5b5061012d806100206000396000f3fe608060405260043610601f5760003560e01c8063d784d42614608e57605e565b36605e576001546040516001600160a01b03909116903480156108fc02916000818181858888f19350505050158015605b573d6000803e3d6000fd5b50005b600080546001600160a01b03169036908037600080366000845af43d6000803e8080156089573d6000f35b3d6000fd5b348015609957600080fd5b5060bd6004803603602081101560ae57600080fd5b50356001600160a01b031660bf565b005b6001546001600160a01b0316331460d557600080fd5b600080546001600160a01b0319166001600160a01b039290921691909117905556fea26469706673582212203daeac16021b16c6fb48961bd3c7ef70aed6cb74f27434535135686360b8eda364736f6c634300060c0033",
    "sourcePath": "/Users/225153/Projects/proxy-test/contracts/Proxy.sol",
    "compiler": {
        "name": "solc",
        "version": "0.6.12+commit.27d51765"
    },
    "functionHashes": {
        "setImplementation(address)": "d784d426"
    },
    "gasEstimates": {
        "creation": {
            "codeDepositCost": "60200",
            "executionCost": "111",
            "totalCost": "60311"
        },
        "external": {
            "": "infinite",
            "setImplementation(address)": "21891"
        }
    }
}