{
    "contractName": "ERC721",
    "abi": [
        {
            "inputs": [
                {
                    "internalType": "string",
                    "name": "name",
                    "type": "string"
                },
                {
                    "internalType": "string",
                    "name": "symbol",
                    "type": "string"
                },
                {
                    "internalType": "string",
                    "name": "tokenURI",
                    "type": "string"
                }
            ],
            "stateMutability": "nonpayable",
            "type": "constructor"
        },
        {
            "anonymous": false,
            "inputs": [
                {
                    "indexed": true,
                    "internalType": "address",
                    "name": "owner",
                    "type": "address"
                },
                {
                    "indexed": true,
                    "internalType": "address",
                    "name": "approved",
                    "type": "address"
                },
                {
                    "indexed": true,
                    "internalType": "uint256",
                    "name": "tokenId",
                    "type": "uint256"
                }
            ],
            "name": "Approval",
            "type": "event"
        },
        {
            "anonymous": false,
            "inputs": [
                {
                    "indexed": true,
                    "internalType": "address",
                    "name": "owner",
                    "type": "address"
                },
                {
                    "indexed": true,
                    "internalType": "address",
                    "name": "operator",
                    "type": "address"
                },
                {
                    "indexed": false,
                    "internalType": "bool",
                    "name": "approved",
                    "type": "bool"
                }
            ],
            "name": "ApprovalForAll",
            "type": "event"
        },
        {
            "anonymous": false,
            "inputs": [
                {
                    "indexed": true,
                    "internalType": "address",
                    "name": "from",
                    "type": "address"
                },
                {
                    "indexed": true,
                    "internalType": "address",
                    "name": "to",
                    "type": "address"
                },
                {
                    "indexed": true,
                    "internalType": "uint256",
                    "name": "tokenId",
                    "type": "uint256"
                }
            ],
            "name": "Transfer",
            "type": "event"
        },
        {
            "inputs": [],
            "name": "_tokenURI",
            "outputs": [
                {
                    "internalType": "string",
                    "name": "",
                    "type": "string"
                }
            ],
            "stateMutability": "view",
            "type": "function"
        },
        {
            "inputs": [
                {
                    "internalType": "address",
                    "name": "to",
                    "type": "address"
                },
                {
                    "internalType": "uint256",
                    "name": "tokenId",
                    "type": "uint256"
                }
            ],
            "name": "approve",
            "outputs": [],
            "stateMutability": "nonpayable",
            "type": "function"
        },
        {
            "inputs": [
                {
                    "internalType": "address",
                    "name": "owner",
                    "type": "address"
                }
            ],
            "name": "balanceOf",
            "outputs": [
                {
                    "internalType": "uint256",
                    "name": "",
                    "type": "uint256"
                }
            ],
            "stateMutability": "view",
            "type": "function"
        },
        {
            "inputs": [
                {
                    "internalType": "uint256",
                    "name": "tokenId",
                    "type": "uint256"
                }
            ],
            "name": "getApproved",
            "outputs": [
                {
                    "internalType": "address",
                    "name": "",
                    "type": "address"
                }
            ],
            "stateMutability": "view",
            "type": "function"
        },
        {
            "inputs": [
                {
                    "internalType": "address",
                    "name": "owner",
                    "type": "address"
                },
                {
                    "internalType": "address",
                    "name": "operator",
                    "type": "address"
                }
            ],
            "name": "isApprovedForAll",
            "outputs": [
                {
                    "internalType": "bool",
                    "name": "",
                    "type": "bool"
                }
            ],
            "stateMutability": "view",
            "type": "function"
        },
        {
            "inputs": [
                {
                    "internalType": "address",
                    "name": "to",
                    "type": "address"
                }
            ],
            "name": "mint",
            "outputs": [
                {
                    "internalType": "uint256",
                    "name": "tokenId",
                    "type": "uint256"
                }
            ],
            "stateMutability": "nonpayable",
            "type": "function"
        },
        {
            "inputs": [],
            "name": "name",
            "outputs": [
                {
                    "internalType": "string",
                    "name": "",
                    "type": "string"
                }
            ],
            "stateMutability": "view",
            "type": "function"
        },
        {
            "inputs": [
                {
                    "internalType": "uint256",
                    "name": "tokenId",
                    "type": "uint256"
                }
            ],
            "name": "ownerOf",
            "outputs": [
                {
                    "internalType": "address",
                    "name": "",
                    "type": "address"
                }
            ],
            "stateMutability": "view",
            "type": "function"
        },
        {
            "inputs": [
                {
                    "internalType": "address",
                    "name": "from",
                    "type": "address"
                },
                {
                    "internalType": "address",
                    "name": "to",
                    "type": "address"
                },
                {
                    "internalType": "uint256",
                    "name": "tokenId",
                    "type": "uint256"
                }
            ],
            "name": "safeTransferFrom",
            "outputs": [],
            "stateMutability": "nonpayable",
            "type": "function"
        },
        {
            "inputs": [
                {
                    "internalType": "address",
                    "name": "from",
                    "type": "address"
                },
                {
                    "internalType": "address",
                    "name": "to",
                    "type": "address"
                },
                {
                    "internalType": "uint256",
                    "name": "tokenId",
                    "type": "uint256"
                },
                {
                    "internalType": "bytes",
                    "name": "_data",
                    "type": "bytes"
                }
            ],
            "name": "safeTransferFrom",
            "outputs": [],
            "stateMutability": "nonpayable",
            "type": "function"
        },
        {
            "inputs": [
                {
                    "internalType": "address",
                    "name": "operator",
                    "type": "address"
                },
                {
                    "internalType": "bool",
                    "name": "approved",
                    "type": "bool"
                }
            ],
            "name": "setApprovalForAll",
            "outputs": [],
            "stateMutability": "nonpayable",
            "type": "function"
        },
        {
            "inputs": [
                {
                    "internalType": "bytes4",
                    "name": "interfaceId",
                    "type": "bytes4"
                }
            ],
            "name": "supportsInterface",
            "outputs": [
                {
                    "internalType": "bool",
                    "name": "",
                    "type": "bool"
                }
            ],
            "stateMutability": "view",
            "type": "function"
        },
        {
            "inputs": [],
            "name": "symbol",
            "outputs": [
                {
                    "internalType": "string",
                    "name": "",
                    "type": "string"
                }
            ],
            "stateMutability": "view",
            "type": "function"
        },
        {
            "inputs": [
                {
                    "internalType": "uint256",
                    "name": "index",
                    "type": "uint256"
                }
            ],
            "name": "tokenByIndex",
            "outputs": [
                {
                    "internalType": "uint256",
                    "name": "",
                    "type": "uint256"
                }
            ],
            "stateMutability": "view",
            "type": "function"
        },
        {
            "inputs": [
                {
                    "internalType": "address",
                    "name": "owner",
                    "type": "address"
                },
                {
                    "internalType": "uint256",
                    "name": "index",
                    "type": "uint256"
                }
            ],
            "name": "tokenOfOwnerByIndex",
            "outputs": [
                {
                    "internalType": "uint256",
                    "name": "",
                    "type": "uint256"
                }
            ],
            "stateMutability": "view",
            "type": "function"
        },
        {
            "inputs": [
                {
                    "internalType": "uint256",
                    "name": "tokenId",
                    "type": "uint256"
                }
            ],
            "name": "tokenURI",
            "outputs": [
                {
                    "internalType": "string",
                    "name": "",
                    "type": "string"
                }
            ],
            "stateMutability": "view",
            "type": "function"
        },
        {
            "inputs": [],
            "name": "totalSupply",
            "outputs": [
                {
                    "internalType": "uint256",
                    "name": "",
                    "type": "uint256"
                }
            ],
            "stateMutability": "view",
            "type": "function"
        },
        {
            "inputs": [
                {
                    "internalType": "address",
                    "name": "from",
                    "type": "address"
                },
                {
                    "internalType": "address",
                    "name": "to",
                    "type": "address"
                },
                {
                    "internalType": "uint256",
                    "name": "tokenId",
                    "type": "uint256"
                }
            ],
            "name": "transferFrom",
            "outputs": [],
            "stateMutability": "nonpayable",
            "type": "function"
        }
    ],
    "bytecode": "60806040523480156200001157600080fd5b5060405162001d4838038062001d48833981810160405260608110156200003757600080fd5b81019080805160405193929190846401000000008211156200005857600080fd5b9083019060208201858111156200006e57600080fd5b82516401000000008111828201881017156200008957600080fd5b82525081516020918201929091019080838360005b83811015620000b85781810151838201526020016200009e565b50505050905090810190601f168015620000e65780820380516001836020036101000a031916815260200191505b50604052602001805160405193929190846401000000008211156200010a57600080fd5b9083019060208201858111156200012057600080fd5b82516401000000008111828201881017156200013b57600080fd5b82525081516020918201929091019080838360005b838110156200016a57818101518382015260200162000150565b50505050905090810190601f168015620001985780820380516001836020036101000a031916815260200191505b5060405260200180516040519392919084640100000000821115620001bc57600080fd5b908301906020820185811115620001d257600080fd5b8251640100000000811182820188101715620001ed57600080fd5b82525081516020918201929091019080838360005b838110156200021c57818101518382015260200162000202565b50505050905090810190601f1680156200024a5780820380516001836020036101000a031916815260200191505b50604052506200026591506301ffc9a760e01b9050620002e6565b82516200027a9060079060208601906200036b565b508151620002909060089060208501906200036b565b508051620002a69060099060208401906200036b565b50620002b96380ac58cd60e01b620002e6565b620002cb635b5e139f60e01b620002e6565b620002dd63780e9d6360e01b620002e6565b50505062000407565b6001600160e01b0319808216141562000346576040805162461bcd60e51b815260206004820152601c60248201527f4552433136353a20696e76616c696420696e7465726661636520696400000000604482015290519081900360640190fd5b6001600160e01b0319166000908152602081905260409020805460ff19166001179055565b828054600181600116156101000203166002900490600052602060002090601f016020900481019282601f10620003ae57805160ff1916838001178555620003de565b82800160010185558215620003de579182015b82811115620003de578251825591602001919060010190620003c1565b50620003ec929150620003f0565b5090565b5b80821115620003ec5760008155600101620003f1565b61193180620004176000396000f3fe608060405234801561001057600080fd5b50600436106101165760003560e01c80636352211e116100a2578063a22cb46511610071578063a22cb4651461037a578063b4ce37d2146103a8578063b88d4fde146103b0578063c87b56dd14610476578063e985e9c51461049357610116565b80636352211e146103095780636a6278421461032657806370a082311461034c57806395d89b411461037257610116565b806318160ddd116100e957806318160ddd1461023a57806323b872dd146102545780632f745c591461028a57806342842e0e146102b65780634f6ccce7146102ec57610116565b806301ffc9a71461011b57806306fdde0314610156578063081812fc146101d3578063095ea7b31461020c575b600080fd5b6101426004803603602081101561013157600080fd5b50356001600160e01b0319166104c1565b604080519115158252519081900360200190f35b61015e6104e0565b6040805160208082528351818301528351919283929083019185019080838360005b83811015610198578181015183820152602001610180565b50505050905090810190601f1680156101c55780820380516001836020036101000a031916815260200191505b509250505060405180910390f35b6101f0600480360360208110156101e957600080fd5b5035610576565b604080516001600160a01b039092168252519081900360200190f35b6102386004803603604081101561022257600080fd5b506001600160a01b0381351690602001356105d8565b005b6102426106b3565b60408051918252519081900360200190f35b6102386004803603606081101561026a57600080fd5b506001600160a01b038135811691602081013590911690604001356106c4565b610242600480360360408110156102a057600080fd5b506001600160a01b03813516906020013561071b565b610238600480360360608110156102cc57600080fd5b506001600160a01b03813581169160208101359091169060400135610746565b6102426004803603602081101561030257600080fd5b5035610761565b6101f06004803603602081101561031f57600080fd5b5035610777565b6102426004803603602081101561033c57600080fd5b50356001600160a01b031661079f565b6102426004803603602081101561036257600080fd5b50356001600160a01b03166107c2565b61015e61082a565b6102386004803603604081101561039057600080fd5b506001600160a01b038135169060200135151561088b565b61015e610990565b610238600480360360808110156103c657600080fd5b6001600160a01b0382358116926020810135909116916040820135919081019060808101606082013564010000000081111561040157600080fd5b82018360208201111561041357600080fd5b8035906020019184600183028401116401000000008311171561043557600080fd5b91908080601f016020809104026020016040519081016040528093929190818152602001838380828437600092019190915250929550610a1e945050505050565b61015e6004803603602081101561048c57600080fd5b5035610a7c565b610142600480360360408110156104a957600080fd5b506001600160a01b0381358116916020013516610b54565b6001600160e01b03191660009081526020819052604090205460ff1690565b60078054604080516020601f600260001961010060018816150201909516949094049384018190048102820181019092528281526060939092909183018282801561056c5780601f106105415761010080835404028352916020019161056c565b820191906000526020600020905b81548152906001019060200180831161054f57829003601f168201915b5050505050905090565b600061058182610b82565b6105bc5760405162461bcd60e51b815260040180806020018281038252602c815260200180611826602c913960400191505060405180910390fd5b506000908152600560205260409020546001600160a01b031690565b60006105e382610777565b9050806001600160a01b0316836001600160a01b031614156106365760405162461bcd60e51b81526004018080602001828103825260218152602001806118aa6021913960400191505060405180910390fd5b806001600160a01b0316610648610b8f565b6001600160a01b03161480610669575061066981610664610b8f565b610b54565b6106a45760405162461bcd60e51b81526004018080602001828103825260388152602001806117796038913960400191505060405180910390fd5b6106ae8383610b93565b505050565b60006106bf6003610c01565b905090565b6106d56106cf610b8f565b82610c0c565b6107105760405162461bcd60e51b81526004018080602001828103825260318152602001806118cb6031913960400191505060405180910390fd5b6106ae838383610cb0565b6001600160a01b038216600090815260026020526040812061073d9083610dfc565b90505b92915050565b6106ae83838360405180602001604052806000815250610a1e565b60008061076f600384610e08565b509392505050565b6000610740826040518060600160405280602981526020016117db6029913960039190610e24565b6000806107ac6001610e3b565b90506107b88382610e3f565b6107406001610e5d565b60006001600160a01b0382166108095760405162461bcd60e51b815260040180806020018281038252602a8152602001806117b1602a913960400191505060405180910390fd5b6001600160a01b038216600090815260026020526040902061074090610c01565b60088054604080516020601f600260001961010060018816150201909516949094049384018190048102820181019092528281526060939092909183018282801561056c5780601f106105415761010080835404028352916020019161056c565b610893610b8f565b6001600160a01b0316826001600160a01b031614156108f9576040805162461bcd60e51b815260206004820152601960248201527f4552433732313a20617070726f766520746f2063616c6c657200000000000000604482015290519081900360640190fd5b8060066000610906610b8f565b6001600160a01b03908116825260208083019390935260409182016000908120918716808252919093529120805460ff19169215159290921790915561094a610b8f565b6001600160a01b03167f17307eab39ab6107e8899845ad3d59bd9653f200f220920489ca2b5937696c318360405180821515815260200191505060405180910390a35050565b6009805460408051602060026001851615610100026000190190941693909304601f81018490048402820184019092528181529291830182828015610a165780601f106109eb57610100808354040283529160200191610a16565b820191906000526020600020905b8154815290600101906020018083116109f957829003601f168201915b505050505081565b610a2f610a29610b8f565b83610c0c565b610a6a5760405162461bcd60e51b81526004018080602001828103825260318152602001806118cb6031913960400191505060405180910390fd5b610a7684848484610e66565b50505050565b6060610a8782610b82565b610ac25760405162461bcd60e51b815260040180806020018281038252602f81526020018061187b602f913960400191505060405180910390fd5b6009805460408051602060026001851615610100026000190190941693909304601f81018490048402820184019092528181529291830182828015610b485780601f10610b1d57610100808354040283529160200191610b48565b820191906000526020600020905b815481529060010190602001808311610b2b57829003601f168201915b50505050509050919050565b6001600160a01b03918216600090815260066020908152604080832093909416825291909152205460ff1690565b6000610740600383610eb8565b3390565b600081815260056020526040902080546001600160a01b0319166001600160a01b0384169081179091558190610bc882610777565b6001600160a01b03167f8c5be1e5ebec7d5bd14f71427d1e84f3dd0314c0f7b2291e5b200ac8c7c3b92560405160405180910390a45050565b600061074082610e3b565b6000610c1782610b82565b610c525760405162461bcd60e51b815260040180806020018281038252602c81526020018061174d602c913960400191505060405180910390fd5b6000610c5d83610777565b9050806001600160a01b0316846001600160a01b03161480610c985750836001600160a01b0316610c8d84610576565b6001600160a01b0316145b80610ca85750610ca88185610b54565b949350505050565b826001600160a01b0316610cc382610777565b6001600160a01b031614610d085760405162461bcd60e51b81526004018080602001828103825260298152602001806118526029913960400191505060405180910390fd5b6001600160a01b038216610d4d5760405162461bcd60e51b81526004018080602001828103825260248152602001806117296024913960400191505060405180910390fd5b610d588383836106ae565b610d63600082610b93565b6001600160a01b0383166000908152600260205260409020610d859082610ec4565b506001600160a01b0382166000908152600260205260409020610da89082610ed0565b50610db560038284610edc565b5080826001600160a01b0316846001600160a01b03167fddf252ad1be2c89b69c2b068fc378daa952ba7f163c4a11628f55a4df523b3ef60405160405180910390a4505050565b600061073d8383610ef2565b6000808080610e178686610f56565b9097909650945050505050565b6000610e31848484610fd1565b90505b9392505050565b5490565b610e5982826040518060200160405280600081525061109b565b5050565b80546001019055565b610e71848484610cb0565b610e7d848484846110ed565b610a765760405162461bcd60e51b81526004018080602001828103825260328152602001806116f76032913960400191505060405180910390fd5b600061073d8383611255565b600061073d838361126d565b600061073d8383611333565b6000610e3184846001600160a01b03851661137d565b81546000908210610f345760405162461bcd60e51b81526004018080602001828103825260228152602001806116d56022913960400191505060405180910390fd5b826000018281548110610f4357fe5b9060005260206000200154905092915050565b815460009081908310610f9a5760405162461bcd60e51b81526004018080602001828103825260228152602001806118046022913960400191505060405180910390fd5b6000846000018481548110610fab57fe5b906000526020600020906002020190508060000154816001015492509250509250929050565b6000828152600184016020526040812054828161106c5760405162461bcd60e51b81526004018080602001828103825283818151815260200191508051906020019080838360005b83811015611031578181015183820152602001611019565b50505050905090810190601f16801561105e5780820380516001836020036101000a031916815260200191505b509250505060405180910390fd5b5084600001600182038154811061107f57fe5b9060005260206000209060020201600101549150509392505050565b6110a58383611414565b6110b260008484846110ed565b6106ae5760405162461bcd60e51b81526004018080602001828103825260328152602001806116f76032913960400191505060405180910390fd5b6000611101846001600160a01b0316611542565b61110d57506001610ca8565b606061121b630a85bd0160e11b611122610b8f565b88878760405160240180856001600160a01b03168152602001846001600160a01b0316815260200183815260200180602001828103825283818151815260200191508051906020019080838360005b83811015611189578181015183820152602001611171565b50505050905090810190601f1680156111b65780820380516001836020036101000a031916815260200191505b5095505050505050604051602081830303815290604052906001600160e01b0319166020820180516001600160e01b0383818316178352505050506040518060600160405280603281526020016116f7603291396001600160a01b0388169190611548565b9050600081806020019051602081101561123457600080fd5b50516001600160e01b031916630a85bd0160e11b1492505050949350505050565b60009081526001919091016020526040902054151590565b6000818152600183016020526040812054801561132957835460001980830191908101906000908790839081106112a057fe5b90600052602060002001549050808760000184815481106112bd57fe5b6000918252602080832090910192909255828152600189810190925260409020908401905586548790806112ed57fe5b60019003818190600052602060002001600090559055866001016000878152602001908152602001600020600090556001945050505050610740565b6000915050610740565b600061133f8383611255565b61137557508154600181810184556000848152602080822090930184905584548482528286019093526040902091909155610740565b506000610740565b6000828152600184016020526040812054806113e2575050604080518082018252838152602080820184815286546001818101895560008981528481209551600290930290950191825591519082015586548684528188019092529290912055610e34565b828560000160018303815481106113f557fe5b9060005260206000209060020201600101819055506000915050610e34565b6001600160a01b03821661146f576040805162461bcd60e51b815260206004820181905260248201527f4552433732313a206d696e7420746f20746865207a65726f2061646472657373604482015290519081900360640190fd5b61147881610b82565b156114ca576040805162461bcd60e51b815260206004820152601c60248201527f4552433732313a20746f6b656e20616c7265616479206d696e74656400000000604482015290519081900360640190fd5b6114d6600083836106ae565b6001600160a01b03821660009081526002602052604090206114f89082610ed0565b5061150560038284610edc565b5060405181906001600160a01b038416906000907fddf252ad1be2c89b69c2b068fc378daa952ba7f163c4a11628f55a4df523b3ef908290a45050565b3b151590565b6060610e3184846000858561155c85611542565b6115ad576040805162461bcd60e51b815260206004820152601d60248201527f416464726573733a2063616c6c20746f206e6f6e2d636f6e7472616374000000604482015290519081900360640190fd5b60006060866001600160a01b031685876040518082805190602001908083835b602083106115ec5780518252601f1990920191602091820191016115cd565b6001836020036101000a03801982511681845116808217855250505050505090500191505060006040518083038185875af1925050503d806000811461164e576040519150601f19603f3d011682016040523d82523d6000602084013e611653565b606091505b509150915061166382828661166e565b979650505050505050565b6060831561167d575081610e34565b82511561168d5782518084602001fd5b60405162461bcd60e51b815260206004820181815284516024840152845185939192839260440191908501908083836000831561103157818101518382015260200161101956fe456e756d657261626c655365743a20696e646578206f7574206f6620626f756e64734552433732313a207472616e7366657220746f206e6f6e20455243373231526563656976657220696d706c656d656e7465724552433732313a207472616e7366657220746f20746865207a65726f20616464726573734552433732313a206f70657261746f7220717565727920666f72206e6f6e6578697374656e7420746f6b656e4552433732313a20617070726f76652063616c6c6572206973206e6f74206f776e6572206e6f7220617070726f76656420666f7220616c6c4552433732313a2062616c616e636520717565727920666f7220746865207a65726f20616464726573734552433732313a206f776e657220717565727920666f72206e6f6e6578697374656e7420746f6b656e456e756d657261626c654d61703a20696e646578206f7574206f6620626f756e64734552433732313a20617070726f76656420717565727920666f72206e6f6e6578697374656e7420746f6b656e4552433732313a207472616e73666572206f6620746f6b656e2074686174206973206e6f74206f776e4552433732314d657461646174613a2055524920717565727920666f72206e6f6e6578697374656e7420746f6b656e4552433732313a20617070726f76616c20746f2063757272656e74206f776e65724552433732313a207472616e736665722063616c6c6572206973206e6f74206f776e6572206e6f7220617070726f766564a2646970667358221220b08940194ebaa9511d9857ff57f5bc2627e81dcfa656de928cb91457ea9e866064736f6c634300060c0033",
    "sourcePath": "/Users/225153/Projects/proxy-test/contracts/ERC721.sol",
    "compiler": {
        "name": "solc",
        "version": "0.6.12+commit.27d51765"
    },
    "functionHashes": {
        "_tokenURI()": "b4ce37d2",
        "approve(address,uint256)": "095ea7b3",
        "balanceOf(address)": "70a08231",
        "getApproved(uint256)": "081812fc",
        "isApprovedForAll(address,address)": "e985e9c5",
        "mint(address)": "6a627842",
        "name()": "06fdde03",
        "ownerOf(uint256)": "6352211e",
        "safeTransferFrom(address,address,uint256)": "42842e0e",
        "safeTransferFrom(address,address,uint256,bytes)": "b88d4fde",
        "setApprovalForAll(address,bool)": "a22cb465",
        "supportsInterface(bytes4)": "01ffc9a7",
        "symbol()": "95d89b41",
        "tokenByIndex(uint256)": "4f6ccce7",
        "tokenOfOwnerByIndex(address,uint256)": "2f745c59",
        "tokenURI(uint256)": "c87b56dd",
        "totalSupply()": "18160ddd",
        "transferFrom(address,address,uint256)": "23b872dd"
    },
    "gasEstimates": {
        "creation": {
            "codeDepositCost": "1289800",
            "executionCost": "infinite",
            "totalCost": "infinite"
        },
        "external": {
            "_tokenURI()": "infinite",
            "approve(address,uint256)": "infinite",
            "balanceOf(address)": "infinite",
            "getApproved(uint256)": "infinite",
            "isApprovedForAll(address,address)": "1372",
            "mint(address)": "infinite",
            "name()": "infinite",
            "ownerOf(uint256)": "infinite",
            "safeTransferFrom(address,address,uint256)": "infinite",
            "safeTransferFrom(address,address,uint256,bytes)": "infinite",
            "setApprovalForAll(address,bool)": "infinite",
            "supportsInterface(bytes4)": "1187",
            "symbol()": "infinite",
            "tokenByIndex(uint256)": "infinite",
            "tokenOfOwnerByIndex(address,uint256)": "infinite",
            "tokenURI(uint256)": "infinite",
            "totalSupply()": "1096",
            "transferFrom(address,address,uint256)": "infinite"
        },
        "internal": {
            "_approve(address,uint256)": "infinite",
            "_beforeTokenTransfer(address,address,uint256)": "infinite",
            "_burn(uint256)": "infinite",
            "_checkOnERC721Received(address,address,uint256,bytes memory)": "infinite",
            "_exists(uint256)": "infinite",
            "_isApprovedOrOwner(address,uint256)": "infinite",
            "_mint(address,uint256)": "infinite",
            "_safeMint(address,uint256)": "infinite",
            "_safeMint(address,uint256,bytes memory)": "infinite",
            "_safeTransfer(address,address,uint256,bytes memory)": "infinite",
            "_transfer(address,address,uint256)": "infinite"
        }
    }
}