{
    "contractName": "GovernorAlpha",
    "abi": [
        {
            "inputs": [
                {
                    "internalType": "address",
                    "name": "timelock_",
                    "type": "address"
                },
                {
                    "internalType": "address",
                    "name": "ram_",
                    "type": "address"
                },
                {
                    "internalType": "address",
                    "name": "guardian_",
                    "type": "address"
                }
            ],
            "stateMutability": "nonpayable",
            "type": "constructor"
        },
        {
            "anonymous": false,
            "inputs": [
                {
                    "indexed": false,
                    "internalType": "uint256",
                    "name": "id",
                    "type": "uint256"
                }
            ],
            "name": "ProposalCanceled",
            "type": "event"
        },
        {
            "anonymous": false,
            "inputs": [
                {
                    "indexed": false,
                    "internalType": "uint256",
                    "name": "id",
                    "type": "uint256"
                },
                {
                    "indexed": false,
                    "internalType": "address",
                    "name": "proposer",
                    "type": "address"
                },
                {
                    "indexed": false,
                    "internalType": "address[]",
                    "name": "targets",
                    "type": "address[]"
                },
                {
                    "indexed": false,
                    "internalType": "uint256[]",
                    "name": "values",
                    "type": "uint256[]"
                },
                {
                    "indexed": false,
                    "internalType": "string[]",
                    "name": "signatures",
                    "type": "string[]"
                },
                {
                    "indexed": false,
                    "internalType": "bytes[]",
                    "name": "calldatas",
                    "type": "bytes[]"
                },
                {
                    "indexed": false,
                    "internalType": "uint256",
                    "name": "startBlock",
                    "type": "uint256"
                },
                {
                    "indexed": false,
                    "internalType": "uint256",
                    "name": "endBlock",
                    "type": "uint256"
                },
                {
                    "indexed": false,
                    "internalType": "string",
                    "name": "description",
                    "type": "string"
                }
            ],
            "name": "ProposalCreated",
            "type": "event"
        },
        {
            "anonymous": false,
            "inputs": [
                {
                    "indexed": false,
                    "internalType": "uint256",
                    "name": "id",
                    "type": "uint256"
                }
            ],
            "name": "ProposalExecuted",
            "type": "event"
        },
        {
            "anonymous": false,
            "inputs": [
                {
                    "indexed": false,
                    "internalType": "uint256",
                    "name": "id",
                    "type": "uint256"
                },
                {
                    "indexed": false,
                    "internalType": "uint256",
                    "name": "eta",
                    "type": "uint256"
                }
            ],
            "name": "ProposalQueued",
            "type": "event"
        },
        {
            "anonymous": false,
            "inputs": [
                {
                    "indexed": false,
                    "internalType": "address",
                    "name": "voter",
                    "type": "address"
                },
                {
                    "indexed": false,
                    "internalType": "uint256",
                    "name": "proposalId",
                    "type": "uint256"
                },
                {
                    "indexed": false,
                    "internalType": "bool",
                    "name": "support",
                    "type": "bool"
                },
                {
                    "indexed": false,
                    "internalType": "uint256",
                    "name": "votes",
                    "type": "uint256"
                }
            ],
            "name": "VoteCast",
            "type": "event"
        },
        {
            "inputs": [],
            "name": "BALLOT_TYPEHASH",
            "outputs": [
                {
                    "internalType": "bytes32",
                    "name": "",
                    "type": "bytes32"
                }
            ],
            "stateMutability": "view",
            "type": "function"
        },
        {
            "inputs": [],
            "name": "DOMAIN_TYPEHASH",
            "outputs": [
                {
                    "internalType": "bytes32",
                    "name": "",
                    "type": "bytes32"
                }
            ],
            "stateMutability": "view",
            "type": "function"
        },
        {
            "inputs": [],
            "name": "__abdicate",
            "outputs": [],
            "stateMutability": "nonpayable",
            "type": "function"
        },
        {
            "inputs": [],
            "name": "__acceptAdmin",
            "outputs": [],
            "stateMutability": "nonpayable",
            "type": "function"
        },
        {
            "inputs": [
                {
                    "internalType": "address",
                    "name": "newPendingAdmin",
                    "type": "address"
                },
                {
                    "internalType": "uint256",
                    "name": "eta",
                    "type": "uint256"
                }
            ],
            "name": "__executeSetTimelockPendingAdmin",
            "outputs": [],
            "stateMutability": "nonpayable",
            "type": "function"
        },
        {
            "inputs": [
                {
                    "internalType": "address",
                    "name": "newPendingAdmin",
                    "type": "address"
                },
                {
                    "internalType": "uint256",
                    "name": "eta",
                    "type": "uint256"
                }
            ],
            "name": "__queueSetTimelockPendingAdmin",
            "outputs": [],
            "stateMutability": "nonpayable",
            "type": "function"
        },
        {
            "inputs": [
                {
                    "internalType": "uint256",
                    "name": "proposalId",
                    "type": "uint256"
                }
            ],
            "name": "cancel",
            "outputs": [],
            "stateMutability": "nonpayable",
            "type": "function"
        },
        {
            "inputs": [
                {
                    "internalType": "uint256",
                    "name": "proposalId",
                    "type": "uint256"
                },
                {
                    "internalType": "bool",
                    "name": "support",
                    "type": "bool"
                }
            ],
            "name": "castVote",
            "outputs": [],
            "stateMutability": "nonpayable",
            "type": "function"
        },
        {
            "inputs": [
                {
                    "internalType": "uint256",
                    "name": "proposalId",
                    "type": "uint256"
                },
                {
                    "internalType": "bool",
                    "name": "support",
                    "type": "bool"
                },
                {
                    "internalType": "uint8",
                    "name": "v",
                    "type": "uint8"
                },
                {
                    "internalType": "bytes32",
                    "name": "r",
                    "type": "bytes32"
                },
                {
                    "internalType": "bytes32",
                    "name": "s",
                    "type": "bytes32"
                }
            ],
            "name": "castVoteBySig",
            "outputs": [],
            "stateMutability": "nonpayable",
            "type": "function"
        },
        {
            "inputs": [
                {
                    "internalType": "uint256",
                    "name": "proposalId",
                    "type": "uint256"
                }
            ],
            "name": "execute",
            "outputs": [],
            "stateMutability": "payable",
            "type": "function"
        },
        {
            "inputs": [
                {
                    "internalType": "uint256",
                    "name": "proposalId",
                    "type": "uint256"
                }
            ],
            "name": "getActions",
            "outputs": [
                {
                    "internalType": "address[]",
                    "name": "targets",
                    "type": "address[]"
                },
                {
                    "internalType": "uint256[]",
                    "name": "values",
                    "type": "uint256[]"
                },
                {
                    "internalType": "string[]",
                    "name": "signatures",
                    "type": "string[]"
                },
                {
                    "internalType": "bytes[]",
                    "name": "calldatas",
                    "type": "bytes[]"
                }
            ],
            "stateMutability": "view",
            "type": "function"
        },
        {
            "inputs": [
                {
                    "internalType": "uint256",
                    "name": "proposalId",
                    "type": "uint256"
                },
                {
                    "internalType": "address",
                    "name": "voter",
                    "type": "address"
                }
            ],
            "name": "getReceipt",
            "outputs": [
                {
                    "components": [
                        {
                            "internalType": "bool",
                            "name": "hasVoted",
                            "type": "bool"
                        },
                        {
                            "internalType": "bool",
                            "name": "support",
                            "type": "bool"
                        },
                        {
                            "internalType": "uint256",
                            "name": "votes",
                            "type": "uint256"
                        }
                    ],
                    "internalType": "struct GovernorAlpha.Receipt",
                    "name": "",
                    "type": "tuple"
                }
            ],
            "stateMutability": "view",
            "type": "function"
        },
        {
            "inputs": [],
            "name": "guardian",
            "outputs": [
                {
                    "internalType": "address",
                    "name": "",
                    "type": "address"
                }
            ],
            "stateMutability": "view",
            "type": "function"
        },
        {
            "inputs": [
                {
                    "internalType": "address",
                    "name": "",
                    "type": "address"
                }
            ],
            "name": "latestProposalIds",
            "outputs": [
                {
                    "internalType": "uint256",
                    "name": "",
                    "type": "uint256"
                }
            ],
            "stateMutability": "view",
            "type": "function"
        },
        {
            "inputs": [],
            "name": "name",
            "outputs": [
                {
                    "internalType": "string",
                    "name": "",
                    "type": "string"
                }
            ],
            "stateMutability": "view",
            "type": "function"
        },
        {
            "inputs": [],
            "name": "proposalCount",
            "outputs": [
                {
                    "internalType": "uint256",
                    "name": "",
                    "type": "uint256"
                }
            ],
            "stateMutability": "view",
            "type": "function"
        },
        {
            "inputs": [],
            "name": "proposalMaxOperations",
            "outputs": [
                {
                    "internalType": "uint256",
                    "name": "",
                    "type": "uint256"
                }
            ],
            "stateMutability": "pure",
            "type": "function"
        },
        {
            "inputs": [],
            "name": "proposalThreshold",
            "outputs": [
                {
                    "internalType": "uint256",
                    "name": "",
                    "type": "uint256"
                }
            ],
            "stateMutability": "view",
            "type": "function"
        },
        {
            "inputs": [
                {
                    "internalType": "uint256",
                    "name": "",
                    "type": "uint256"
                }
            ],
            "name": "proposals",
            "outputs": [
                {
                    "internalType": "uint256",
                    "name": "id",
                    "type": "uint256"
                },
                {
                    "internalType": "address",
                    "name": "proposer",
                    "type": "address"
                },
                {
                    "internalType": "uint256",
                    "name": "eta",
                    "type": "uint256"
                },
                {
                    "internalType": "uint256",
                    "name": "startBlock",
                    "type": "uint256"
                },
                {
                    "internalType": "uint256",
                    "name": "endBlock",
                    "type": "uint256"
                },
                {
                    "internalType": "uint256",
                    "name": "forVotes",
                    "type": "uint256"
                },
                {
                    "internalType": "uint256",
                    "name": "againstVotes",
                    "type": "uint256"
                },
                {
                    "internalType": "bool",
                    "name": "canceled",
                    "type": "bool"
                },
                {
                    "internalType": "bool",
                    "name": "executed",
                    "type": "bool"
                }
            ],
            "stateMutability": "view",
            "type": "function"
        },
        {
            "inputs": [
                {
                    "internalType": "address[]",
                    "name": "targets",
                    "type": "address[]"
                },
                {
                    "internalType": "uint256[]",
                    "name": "values",
                    "type": "uint256[]"
                },
                {
                    "internalType": "string[]",
                    "name": "signatures",
                    "type": "string[]"
                },
                {
                    "internalType": "bytes[]",
                    "name": "calldatas",
                    "type": "bytes[]"
                },
                {
                    "internalType": "string",
                    "name": "description",
                    "type": "string"
                }
            ],
            "name": "propose",
            "outputs": [
                {
                    "internalType": "uint256",
                    "name": "",
                    "type": "uint256"
                }
            ],
            "stateMutability": "nonpayable",
            "type": "function"
        },
        {
            "inputs": [
                {
                    "internalType": "uint256",
                    "name": "proposalId",
                    "type": "uint256"
                }
            ],
            "name": "queue",
            "outputs": [],
            "stateMutability": "nonpayable",
            "type": "function"
        },
        {
            "inputs": [],
            "name": "quorumVotes",
            "outputs": [
                {
                    "internalType": "uint256",
                    "name": "",
                    "type": "uint256"
                }
            ],
            "stateMutability": "view",
            "type": "function"
        },
        {
            "inputs": [],
            "name": "ram",
            "outputs": [
                {
                    "internalType": "contract RAM",
                    "name": "",
                    "type": "address"
                }
            ],
            "stateMutability": "view",
            "type": "function"
        },
        {
            "inputs": [
                {
                    "internalType": "uint256",
                    "name": "proposalId",
                    "type": "uint256"
                }
            ],
            "name": "state",
            "outputs": [
                {
                    "internalType": "enum GovernorAlpha.ProposalState",
                    "name": "",
                    "type": "uint8"
                }
            ],
            "stateMutability": "view",
            "type": "function"
        },
        {
            "inputs": [],
            "name": "timelock",
            "outputs": [
                {
                    "internalType": "contract TimelockInterface",
                    "name": "",
                    "type": "address"
                }
            ],
            "stateMutability": "view",
            "type": "function"
        },
        {
            "inputs": [],
            "name": "votingDelay",
            "outputs": [
                {
                    "internalType": "uint256",
                    "name": "",
                    "type": "uint256"
                }
            ],
            "stateMutability": "pure",
            "type": "function"
        },
        {
            "inputs": [],
            "name": "votingPeriod",
            "outputs": [
                {
                    "internalType": "uint256",
                    "name": "",
                    "type": "uint256"
                }
            ],
            "stateMutability": "pure",
            "type": "function"
        }
    ],
    "bytecode": "60806040523480156200001157600080fd5b506040516200331238038062003312833981016040819052620000349162000077565b600080546001600160a01b039485166001600160a01b031991821617909155600180549385169382169390931790925560028054919093169116179055620000e3565b6000806000606084860312156200008c578283fd5b83516200009981620000ca565b6020850151909350620000ac81620000ca565b6040850151909250620000bf81620000ca565b809150509250925092565b6001600160a01b0381168114620000e057600080fd5b50565b61321f80620000f36000396000f3fe60806040526004361061019c5760003560e01c80634634c61f116100ec578063d33219b41161008a578063ddf0b00911610064578063ddf0b00914610456578063deaaa7cc14610476578063e23a9a521461048b578063fe0d94c1146104b85761019c565b8063d33219b41461040c578063da35c66414610421578063da95691a146104365761019c565b80638f33b5e5116100c65780638f33b5e5146103ad57806391500671146103c2578063b58131b0146103e2578063b9a61961146103f75761019c565b80634634c61f14610363578063760fbc13146103835780637bdbe4d0146103985761019c565b806321f43e42116101595780633932abb1116101335780633932abb1146102df5780633e4f49e6146102f457806340e58ee514610321578063452a9320146103415761019c565b806321f43e421461027a57806324bc1a641461029a578063328dd982146102af5761019c565b8063013cf08b146101a157806302a251a3146101df57806306fdde031461020157806315373e3d1461022357806317977c611461024557806320606b7014610265575b600080fd5b3480156101ad57600080fd5b506101c16101bc36600461243e565b6104cb565b6040516101d6999897969594939291906130de565b60405180910390f35b3480156101eb57600080fd5b506101f4610524565b6040516101d69190612834565b34801561020d57600080fd5b5061021661052a565b6040516101d691906128ab565b34801561022f57600080fd5b5061024361023e366004612482565b610558565b005b34801561025157600080fd5b506101f4610260366004612286565b610567565b34801561027157600080fd5b506101f4610579565b34801561028657600080fd5b506102436102953660046122a1565b61059d565b3480156102a657600080fd5b506101f4610684565b3480156102bb57600080fd5b506102cf6102ca36600461243e565b61071b565b6040516101d694939291906127dc565b3480156102eb57600080fd5b506101f46109aa565b34801561030057600080fd5b5061031461030f36600461243e565b6109af565b6040516101d69190612897565b34801561032d57600080fd5b5061024361033c36600461243e565b610b39565b34801561034d57600080fd5b50610356610d99565b6040516101d69190612696565b34801561036f57600080fd5b5061024361037e3660046124b1565b610da8565b34801561038f57600080fd5b50610243610f56565b3480156103a457600080fd5b506101f4610f92565b3480156103b957600080fd5b50610356610f97565b3480156103ce57600080fd5b506102436103dd3660046122a1565b610fa6565b3480156103ee57600080fd5b506101f461107b565b34801561040357600080fd5b506102436110cd565b34801561041857600080fd5b50610356611152565b34801561042d57600080fd5b506101f4611161565b34801561044257600080fd5b506101f46104513660046122cb565b611167565b34801561046257600080fd5b5061024361047136600461243e565b61157e565b34801561048257600080fd5b506101f46117e8565b34801561049757600080fd5b506104ab6104a6366004612456565b61180c565b6040516101d69190613021565b6102436104c636600461243e565b611870565b6004602052600090815260409020805460018201546002830154600784015460088501546009860154600a870154600b9097015495966001600160a01b0390951695939492939192909160ff8082169161010090041689565b61438090565b6040518060400160405280601281526020017152616d20476f7665726e6f7220416c70686160701b81525081565b610563338383611a35565b5050565b60056020526000908152604090205481565b7f8cad95687ba82c2ce50e74f7b754645e5117c3a5bec8151c0726d5857980a86681565b6002546001600160a01b031633146105d05760405162461bcd60e51b81526004016105c7906129f0565b60405180910390fd5b600080546040516001600160a01b0390911691630825f38f918391906105fa908790602001612696565b604051602081830303815290604052856040518563ffffffff1660e01b815260040161062994939291906126c3565b600060405180830381600087803b15801561064357600080fd5b505af1158015610657573d6000803e3d6000fd5b505050506040513d6000823e601f3d908101601f1916820160405261067f91908101906123cb565b505050565b60006019600160009054906101000a90046001600160a01b03166001600160a01b03166318160ddd6040518163ffffffff1660e01b815260040160206040518083038186803b1580156106d657600080fd5b505afa1580156106ea573d6000803e3d6000fd5b505050506040513d601f19601f8201168201806040525081019061070e91906123b3565b8161071557fe5b04905090565b6060806060806000600460008781526020019081526020016000209050806003018160040182600501836006018380548060200260200160405190810160405280929190818152602001828054801561079d57602002820191906000526020600020905b81546001600160a01b0316815260019091019060200180831161077f575b50505050509350828054806020026020016040519081016040528092919081815260200182805480156107ef57602002820191906000526020600020905b8154815260200190600101908083116107db575b5050505050925081805480602002602001604051908101604052809291908181526020016000905b828210156108c25760008481526020908190208301805460408051601f60026000196101006001871615020190941693909304928301859004850281018501909152818152928301828280156108ae5780601f10610883576101008083540402835291602001916108ae565b820191906000526020600020905b81548152906001019060200180831161089157829003601f168201915b505050505081526020019060010190610817565b50505050915080805480602002602001604051908101604052809291908181526020016000905b828210156109945760008481526020908190208301805460408051601f60026000196101006001871615020190941693909304928301859004850281018501909152818152928301828280156109805780601f1061095557610100808354040283529160200191610980565b820191906000526020600020905b81548152906001019060200180831161096357829003601f168201915b5050505050815260200190600101906108e9565b5050505090509450945094509450509193509193565b600190565b600081600354101580156109c35750600082115b6109df5760405162461bcd60e51b81526004016105c790612a62565b6000828152600460205260409020600b81015460ff1615610a04576002915050610b34565b80600701544311610a19576000915050610b34565b80600801544311610a2e576001915050610b34565b80600a01548160090154111580610a4f5750610a48610684565b8160090154105b15610a5e576003915050610b34565b6002810154610a71576004915050610b34565b600b810154610100900460ff1615610a8d576007915050610b34565b610b1e816002015460008054906101000a90046001600160a01b03166001600160a01b031663c1a287e26040518163ffffffff1660e01b815260040160206040518083038186803b158015610ae157600080fd5b505afa158015610af5573d6000803e3d6000fd5b505050506040513d601f19601f82011682018060405250810190610b1991906123b3565b611bd1565b4210610b2e576006915050610b34565b60059150505b919050565b6000610b44826109af565b90506007816007811115610b5457fe5b1415610b725760405162461bcd60e51b81526004016105c790612efc565b60008281526004602052604090206002546001600160a01b0316331480610c345750610b9c61107b565b60018054838201546001600160a01b039182169263782d6fe19290911690610bc5904390611bfd565b6040518363ffffffff1660e01b8152600401610be29291906126aa565b60206040518083038186803b158015610bfa57600080fd5b505afa158015610c0e573d6000803e3d6000fd5b505050506040513d601f19601f82011682018060405250810190610c3291906123b3565b105b610c505760405162461bcd60e51b81526004016105c790612cc8565b600b8101805460ff1916600117905560005b6003820154811015610d5c576000546003830180546001600160a01b039092169163591fcdfe919084908110610c9457fe5b6000918252602090912001546004850180546001600160a01b039092169185908110610cbc57fe5b9060005260206000200154856005018581548110610cd657fe5b90600052602060002001866006018681548110610cef57fe5b9060005260206000200187600201546040518663ffffffff1660e01b8152600401610d1e9594939291906127a3565b600060405180830381600087803b158015610d3857600080fd5b505af1158015610d4c573d6000803e3d6000fd5b505060019092019150610c629050565b507f789cf55be980739dad1d0699b93b58e806b51c9d96619bfa8fe0a28abaa7b30c83604051610d8c9190612834565b60405180910390a1505050565b6002546001600160a01b031681565b60408051808201909152601281527152616d20476f7665726e6f7220416c70686160701b60209091015260007f8cad95687ba82c2ce50e74f7b754645e5117c3a5bec8151c0726d5857980a8667fc8959a1a6d98d07909fbe54e2bd8f36cfbda815481e33cf60520ca650a8f3a8e610e1e611c25565b30604051602001610e32949392919061283d565b60405160208183030381529060405280519060200120905060007f8e25870c07e0b0b3884c78da52790939a455c275406c44ae8b434b692fb916ee8787604051602001610e8193929190612861565b60405160208183030381529060405280519060200120905060008282604051602001610eae92919061267b565b604051602081830303815290604052805190602001209050600060018288888860405160008152602001604052604051610eeb9493929190612879565b6020604051602081039080840390855afa158015610f0d573d6000803e3d6000fd5b5050604051601f1901519150506001600160a01b038116610f405760405162461bcd60e51b81526004016105c790612e2a565b610f4b818a8a611a35565b505050505050505050565b6002546001600160a01b03163314610f805760405162461bcd60e51b81526004016105c790612fcb565b600280546001600160a01b0319169055565b600a90565b6001546001600160a01b031681565b6002546001600160a01b03163314610fd05760405162461bcd60e51b81526004016105c790612b7b565b600080546040516001600160a01b0390911691633a66f90191839190610ffa908790602001612696565b604051602081830303815290604052856040518563ffffffff1660e01b815260040161102994939291906126c3565b602060405180830381600087803b15801561104357600080fd5b505af1158015611057573d6000803e3d6000fd5b505050506040513d601f19601f8201168201806040525081019061067f91906123b3565b60006064600160009054906101000a90046001600160a01b03166001600160a01b03166318160ddd6040518163ffffffff1660e01b815260040160206040518083038186803b1580156106d657600080fd5b6002546001600160a01b031633146110f75760405162461bcd60e51b81526004016105c7906128be565b6000805460408051630e18b68160e01b815290516001600160a01b0390921692630e18b6819260048084019382900301818387803b15801561113857600080fd5b505af115801561114c573d6000803e3d6000fd5b50505050565b6000546001600160a01b031681565b60035481565b600061117161107b565b600180546001600160a01b03169063782d6fe1903390611192904390611bfd565b6040518363ffffffff1660e01b81526004016111af9291906126aa565b60206040518083038186803b1580156111c757600080fd5b505afa1580156111db573d6000803e3d6000fd5b505050506040513d601f19601f820116820180604052508101906111ff91906123b3565b1161121c5760405162461bcd60e51b81526004016105c790612dcd565b8451865114801561122e575083518651145b801561123b575082518651145b6112575760405162461bcd60e51b81526004016105c790612c5e565b85516112755760405162461bcd60e51b81526004016105c790612d81565b61127d610f92565b8651111561129d5760405162461bcd60e51b81526004016105c790612beb565b33600090815260056020526040902054801561131a5760006112be826109af565b905060018160078111156112ce57fe5b14156112ec5760405162461bcd60e51b81526004016105c790612e79565b60008160078111156112fa57fe5b14156113185760405162461bcd60e51b81526004016105c790612af8565b505b600061132843610b196109aa565b9050600061133882610b19610524565b600380546001019055905061134b611d88565b604051806101a001604052806003548152602001336001600160a01b03168152602001600081526020018b81526020018a815260200189815260200188815260200184815260200183815260200160008152602001600081526020016000151581526020016000151581525090508060046000836000015181526020019081526020016000206000820151816000015560208201518160010160006101000a8154816001600160a01b0302191690836001600160a01b0316021790555060408201518160020155606082015181600301908051906020019061142e929190611dfd565b506080820151805161144a916004840191602090910190611e62565b5060a08201518051611466916005840191602090910190611ea9565b5060c08201518051611482916006840191602090910190611f02565b5060e082015181600701556101008201518160080155610120820151816009015561014082015181600a015561016082015181600b0160006101000a81548160ff02191690831515021790555061018082015181600b0160016101000a81548160ff02191690831515021790555090505080600001516005600083602001516001600160a01b03166001600160a01b03168152602001908152602001600020819055507f7d84a6263ae0d98d3329bd7b46bb4e8d6f98cd35a7adb45c274c8b7fd5ebd5e08160000151338c8c8c8c89898e60405161156899989796959493929190613046565b60405180910390a1519998505050505050505050565b6004611589826109af565b600781111561159457fe5b146115b15760405162461bcd60e51b81526004016105c79061291b565b600081815260046020818152604080842084548251630d48571f60e31b815292519195946116069442946001600160a01b0390931693636a42b8f8938084019390829003018186803b158015610ae157600080fd5b905060005b60038301548110156117ae576117a683600301828154811061162957fe5b6000918252602090912001546004850180546001600160a01b03909216918490811061165157fe5b906000526020600020015485600501848154811061166b57fe5b600091825260209182902001805460408051601f60026000196101006001871615020190941693909304928301859004850281018501909152818152928301828280156116f95780601f106116ce576101008083540402835291602001916116f9565b820191906000526020600020905b8154815290600101906020018083116116dc57829003601f168201915b505050505086600601858154811061170d57fe5b600091825260209182902001805460408051601f600260001961010060018716150201909416939093049283018590048502810185019091528181529283018282801561179b5780601f106117705761010080835404028352916020019161179b565b820191906000526020600020905b81548152906001019060200180831161177e57829003601f168201915b505050505086611c29565b60010161160b565b50600282018190556040517f9a2e42fd6722813d69113e7d0079d3d940171428df7373df9c7f7617cfda289290610d8c908590849061312a565b7f8e25870c07e0b0b3884c78da52790939a455c275406c44ae8b434b692fb916ee81565b611814611f5b565b5060008281526004602090815260408083206001600160a01b0385168452600c018252918290208251606081018452815460ff808216151583526101009091041615159281019290925260010154918101919091525b92915050565b600561187b826109af565b600781111561188657fe5b146118a35760405162461bcd60e51b81526004016105c790612985565b6000818152600460205260408120600b8101805461ff001916610100179055905b60038201548110156119f9576000546004830180546001600160a01b0390921691630825f38f9190849081106118f657fe5b906000526020600020015484600301848154811061191057fe5b6000918252602090912001546004860180546001600160a01b03909216918690811061193857fe5b906000526020600020015486600501868154811061195257fe5b9060005260206000200187600601878154811061196b57fe5b9060005260206000200188600201546040518763ffffffff1660e01b815260040161199a9594939291906127a3565b6000604051808303818588803b1580156119b357600080fd5b505af11580156119c7573d6000803e3d6000fd5b50505050506040513d6000823e601f3d908101601f191682016040526119f091908101906123cb565b506001016118c4565b507f712ae1383f79ac853f8d882153778e0260ef8f03b504e2866e0593e04d2b291f82604051611a299190612834565b60405180910390a15050565b6001611a40836109af565b6007811115611a4b57fe5b14611a685760405162461bcd60e51b81526004016105c790612f52565b60008281526004602090815260408083206001600160a01b0387168452600c8101909252909120805460ff1615611ab15760405162461bcd60e51b81526004016105c790612aab565b600154600783015460405163782d6fe160e01b81526000926001600160a01b03169163782d6fe191611ae7918a916004016126aa565b60206040518083038186803b158015611aff57600080fd5b505afa158015611b13573d6000803e3d6000fd5b505050506040513d601f19601f82011682018060405250810190611b3791906123b3565b90508315611b5757611b4d836009015482611bd1565b6009840155611b6b565b611b6583600a015482611bd1565b600a8401555b8154600160ff19909116811761ff0019166101008615150217835582018190556040517f877856338e13f63d0c36822ff0ef736b80934cd90574a3a5bc9262c39d217c4690611bc190889088908890869061272f565b60405180910390a1505050505050565b600082820183811015611bf65760405162461bcd60e51b81526004016105c790612c33565b9392505050565b600082821115611c1f5760405162461bcd60e51b81526004016105c790612f9c565b50900390565b4690565b6000546040516001600160a01b039091169063f2b0653790611c579088908890889088908890602001612757565b604051602081830303815290604052805190602001206040518263ffffffff1660e01b8152600401611c899190612834565b60206040518083038186803b158015611ca157600080fd5b505afa158015611cb5573d6000803e3d6000fd5b505050506040513d601f19601f82011682018060405250810190611cd99190612397565b15611cf65760405162461bcd60e51b81526004016105c790612d17565b600054604051633a66f90160e01b81526001600160a01b0390911690633a66f90190611d2e9088908890889088908890600401612757565b602060405180830381600087803b158015611d4857600080fd5b505af1158015611d5c573d6000803e3d6000fd5b505050506040513d601f19601f82011682018060405250810190611d8091906123b3565b505050505050565b604051806101a001604052806000815260200160006001600160a01b031681526020016000815260200160608152602001606081526020016060815260200160608152602001600081526020016000815260200160008152602001600081526020016000151581526020016000151581525090565b828054828255906000526020600020908101928215611e52579160200282015b82811115611e5257825182546001600160a01b0319166001600160a01b03909116178255602090920191600190910190611e1d565b50611e5e929150611f7b565b5090565b828054828255906000526020600020908101928215611e9d579160200282015b82811115611e9d578251825591602001919060010190611e82565b50611e5e929150611f9a565b828054828255906000526020600020908101928215611ef6579160200282015b82811115611ef65782518051611ee6918491602090910190611faf565b5091602001919060010190611ec9565b50611e5e92915061201c565b828054828255906000526020600020908101928215611f4f579160200282015b82811115611f4f5782518051611f3f918491602090910190611faf565b5091602001919060010190611f22565b50611e5e929150612039565b604080516060810182526000808252602082018190529181019190915290565b5b80821115611e5e5780546001600160a01b0319168155600101611f7c565b5b80821115611e5e5760008155600101611f9b565b828054600181600116156101000203166002900490600052602060002090601f016020900481019282601f10611ff057805160ff1916838001178555611e9d565b82800160010185558215611e9d5791820182811115611e9d578251825591602001919060010190611e82565b80821115611e5e5760006120308282612056565b5060010161201c565b80821115611e5e57600061204d8282612056565b50600101612039565b50805460018160011615610100020316600290046000825580601f1061207c575061209a565b601f01602090049060005260206000209081019061209a9190611f9a565b50565b80356001600160a01b038116811461186a57600080fd5b600082601f8301126120c4578081fd5b81356120d76120d28261315f565b613138565b8181529150602080830190848101818402860182018710156120f857600080fd5b60005b8481101561211f5761210d888361209d565b845292820192908201906001016120fb565b505050505092915050565b600082601f83011261213a578081fd5b81356121486120d28261315f565b818152915060208083019084810160005b8481101561211f57612170888484358a0101612238565b84529282019290820190600101612159565b600082601f830112612192578081fd5b81356121a06120d28261315f565b818152915060208083019084810160005b8481101561211f576121c8888484358a0101612238565b845292820192908201906001016121b1565b600082601f8301126121ea578081fd5b81356121f86120d28261315f565b81815291506020808301908481018184028601820187101561221957600080fd5b60005b8481101561211f5781358452928201929082019060010161221c565b600082601f830112612248578081fd5b81356122566120d28261317f565b915080825283602082850101111561226d57600080fd5b8060208401602084013760009082016020015292915050565b600060208284031215612297578081fd5b611bf6838361209d565b600080604083850312156122b3578081fd5b6122bd848461209d565b946020939093013593505050565b600080600080600060a086880312156122e2578081fd5b853567ffffffffffffffff808211156122f9578283fd5b61230589838a016120b4565b9650602088013591508082111561231a578283fd5b61232689838a016121da565b9550604088013591508082111561233b578283fd5b61234789838a01612182565b9450606088013591508082111561235c578283fd5b61236889838a0161212a565b9350608088013591508082111561237d578283fd5b5061238a88828901612238565b9150509295509295909350565b6000602082840312156123a8578081fd5b8151611bf6816131db565b6000602082840312156123c4578081fd5b5051919050565b6000602082840312156123dc578081fd5b815167ffffffffffffffff8111156123f2578182fd5b8201601f81018413612402578182fd5b80516124106120d28261317f565b818152856020838501011115612424578384fd5b6124358260208301602086016131af565b95945050505050565b60006020828403121561244f578081fd5b5035919050565b60008060408385031215612468578182fd5b82359150612479846020850161209d565b90509250929050565b60008060408385031215612494578182fd5b8235915060208301356124a6816131db565b809150509250929050565b600080600080600060a086880312156124c8578283fd5b8535945060208601356124da816131db565b9350604086013560ff811681146124ef578384fd5b94979396509394606081013594506080013592915050565b6000815180845260208085019450808401835b8381101561253f5781516001600160a01b03168752958201959082019060010161251a565b509495945050505050565b6000815180845260208085018081965082840281019150828601855b8581101561259057828403895261257e8483516125cc565b98850198935090840190600101612566565b5091979650505050505050565b6000815180845260208085019450808401835b8381101561253f578151875295820195908201906001016125b0565b600081518084526125e48160208601602086016131af565b601f01601f19169290920160200192915050565b60008154600180821660008114612616576001811461263457612672565b60028304607f16865260ff1983166020870152604086019350612672565b60028304808752612644866131a3565b60005b828110156126685781546020828b0101528482019150602081019050612647565b8801602001955050505b50505092915050565b61190160f01b81526002810192909252602282015260420190565b6001600160a01b0391909116815260200190565b6001600160a01b03929092168252602082015260400190565b600060018060a01b038616825284602083015260a06040830152601860a08301527f73657450656e64696e6741646d696e286164647265737329000000000000000060c083015260e0606083015261271e60e08301856125cc565b905082608083015295945050505050565b6001600160a01b03949094168452602084019290925215156040830152606082015260800190565b600060018060a01b038716825285602083015260a0604083015261277e60a08301866125cc565b828103606084015261279081866125cc565b9150508260808301529695505050505050565b600060018060a01b038716825285602083015260a060408301526127ca60a08301866125f8565b828103606084015261279081866125f8565b6000608082526127ef6080830187612507565b8281036020840152612801818761259d565b90508281036040840152612815818661254a565b90508281036060840152612829818561254a565b979650505050505050565b90815260200190565b938452602084019290925260408301526001600160a01b0316606082015260800190565b92835260208301919091521515604082015260600190565b93845260ff9290921660208401526040830152606082015260800190565b60208101600883106128a557fe5b91905290565b600060208252611bf660208301846125cc565b60208082526039908201527f476f7665726e6f72416c7068613a3a5f5f61636365707441646d696e3a20736560408201527f6e646572206d75737420626520676f7620677561726469616e00000000000000606082015260800190565b60208082526044908201527f476f7665726e6f72416c7068613a3a71756575653a2070726f706f73616c206360408201527f616e206f6e6c79206265207175657565642069662069742069732073756363656060820152631959195960e21b608082015260a00190565b60208082526045908201527f476f7665726e6f72416c7068613a3a657865637574653a2070726f706f73616c60408201527f2063616e206f6e6c7920626520657865637574656420696620697420697320716060820152641d595d595960da1b608082015260a00190565b6020808252604c908201527f476f7665726e6f72416c7068613a3a5f5f6578656375746553657454696d656c60408201527f6f636b50656e64696e6741646d696e3a2073656e646572206d7573742062652060608201526b33b7bb1033bab0b93234b0b760a11b608082015260a00190565b60208082526029908201527f476f7665726e6f72416c7068613a3a73746174653a20696e76616c69642070726040820152681bdc1bdcd85b081a5960ba1b606082015260800190565b6020808252602d908201527f476f7665726e6f72416c7068613a3a5f63617374566f74653a20766f7465722060408201526c185b1c9958591e481d9bdd1959609a1b606082015260800190565b60208082526059908201527f476f7665726e6f72416c7068613a3a70726f706f73653a206f6e65206c69766560408201527f2070726f706f73616c207065722070726f706f7365722c20666f756e6420616e60608201527f20616c72656164792070656e64696e672070726f706f73616c00000000000000608082015260a00190565b6020808252604a908201527f476f7665726e6f72416c7068613a3a5f5f717565756553657454696d656c6f6360408201527f6b50656e64696e6741646d696e3a2073656e646572206d75737420626520676f6060820152693b1033bab0b93234b0b760b11b608082015260a00190565b60208082526028908201527f476f7665726e6f72416c7068613a3a70726f706f73653a20746f6f206d616e7960408201526720616374696f6e7360c01b606082015260800190565b6020808252601190820152706164646974696f6e206f766572666c6f7760781b604082015260600190565b60208082526044908201527f476f7665726e6f72416c7068613a3a70726f706f73653a2070726f706f73616c60408201527f2066756e6374696f6e20696e666f726d6174696f6e206172697479206d69736d6060820152630c2e8c6d60e31b608082015260a00190565b6020808252602f908201527f476f7665726e6f72416c7068613a3a63616e63656c3a2070726f706f7365722060408201526e18589bdd99481d1a1c995cda1bdb19608a1b606082015260800190565b60208082526044908201527f476f7665726e6f72416c7068613a3a5f71756575654f725265766572743a207060408201527f726f706f73616c20616374696f6e20616c7265616479207175657565642061746060820152632065746160e01b608082015260a00190565b6020808252602c908201527f476f7665726e6f72416c7068613a3a70726f706f73653a206d7573742070726f60408201526b7669646520616374696f6e7360a01b606082015260800190565b6020808252603f908201527f476f7665726e6f72416c7068613a3a70726f706f73653a2070726f706f73657260408201527f20766f7465732062656c6f772070726f706f73616c207468726573686f6c6400606082015260800190565b6020808252602f908201527f476f7665726e6f72416c7068613a3a63617374566f746542795369673a20696e60408201526e76616c6964207369676e617475726560881b606082015260800190565b60208082526058908201527f476f7665726e6f72416c7068613a3a70726f706f73653a206f6e65206c69766560408201527f2070726f706f73616c207065722070726f706f7365722c20666f756e6420616e60608201527f20616c7265616479206163746976652070726f706f73616c0000000000000000608082015260a00190565b60208082526036908201527f476f7665726e6f72416c7068613a3a63616e63656c3a2063616e6e6f742063616040820152751b98d95b08195e1958dd5d1959081c1c9bdc1bdcd85b60521b606082015260800190565b6020808252602a908201527f476f7665726e6f72416c7068613a3a5f63617374566f74653a20766f74696e67604082015269081a5cc818db1bdcd95960b21b606082015260800190565b6020808252601590820152747375627472616374696f6e20756e646572666c6f7760581b604082015260600190565b60208082526036908201527f476f7665726e6f72416c7068613a3a5f5f61626469636174653a2073656e6465604082015275391036bab9ba1031329033b7bb1033bab0b93234b0b760511b606082015260800190565b8151151581526020808301511515908201526040918201519181019190915260600190565b8981526001600160a01b0389166020820152610120604082018190526000906130718382018b612507565b90508281036060840152613085818a61259d565b90508281036080840152613099818961254a565b905082810360a08401526130ad818861254a565b90508560c08401528460e08401528281036101008401526130ce81856125cc565b9c9b505050505050505050505050565b9889526001600160a01b0397909716602089015260408801959095526060870193909352608086019190915260a085015260c0840152151560e083015215156101008201526101200190565b918252602082015260400190565b60405181810167ffffffffffffffff8111828210171561315757600080fd5b604052919050565b600067ffffffffffffffff821115613175578081fd5b5060209081020190565b600067ffffffffffffffff821115613195578081fd5b50601f01601f191660200190565b60009081526020902090565b60005b838110156131ca5781810151838201526020016131b2565b8381111561114c5750506000910152565b801515811461209a57600080fdfea264697066735822122079b35eca74fda9af8bc1b6c884457f7c7b52854649ed1aac70d33cb447fa615a64736f6c634300060c0033",
    "sourcePath": "/Users/225153/Projects/proxy-test/contracts/GovernorAlpha.sol",
    "compiler": {
        "name": "solc",
        "version": "0.6.12+commit.27d51765"
    },
    "functionHashes": {
        "BALLOT_TYPEHASH()": "deaaa7cc",
        "DOMAIN_TYPEHASH()": "20606b70",
        "__abdicate()": "760fbc13",
        "__acceptAdmin()": "b9a61961",
        "__executeSetTimelockPendingAdmin(address,uint256)": "21f43e42",
        "__queueSetTimelockPendingAdmin(address,uint256)": "91500671",
        "cancel(uint256)": "40e58ee5",
        "castVote(uint256,bool)": "15373e3d",
        "castVoteBySig(uint256,bool,uint8,bytes32,bytes32)": "4634c61f",
        "execute(uint256)": "fe0d94c1",
        "getActions(uint256)": "328dd982",
        "getReceipt(uint256,address)": "e23a9a52",
        "guardian()": "452a9320",
        "latestProposalIds(address)": "17977c61",
        "name()": "06fdde03",
        "proposalCount()": "da35c664",
        "proposalMaxOperations()": "7bdbe4d0",
        "proposalThreshold()": "b58131b0",
        "proposals(uint256)": "013cf08b",
        "propose(address[],uint256[],string[],bytes[],string)": "da95691a",
        "queue(uint256)": "ddf0b009",
        "quorumVotes()": "24bc1a64",
        "ram()": "8f33b5e5",
        "state(uint256)": "3e4f49e6",
        "timelock()": "d33219b4",
        "votingDelay()": "3932abb1",
        "votingPeriod()": "02a251a3"
    },
    "gasEstimates": {
        "creation": {
            "codeDepositCost": "2566200",
            "executionCost": "infinite",
            "totalCost": "infinite"
        },
        "external": {
            "BALLOT_TYPEHASH()": "294",
            "DOMAIN_TYPEHASH()": "362",
            "__abdicate()": "21882",
            "__acceptAdmin()": "infinite",
            "__executeSetTimelockPendingAdmin(address,uint256)": "infinite",
            "__queueSetTimelockPendingAdmin(address,uint256)": "infinite",
            "cancel(uint256)": "infinite",
            "castVote(uint256,bool)": "infinite",
            "castVoteBySig(uint256,bool,uint8,bytes32,bytes32)": "infinite",
            "execute(uint256)": "infinite",
            "getActions(uint256)": "infinite",
            "getReceipt(uint256,address)": "infinite",
            "guardian()": "1181",
            "latestProposalIds(address)": "1369",
            "name()": "infinite",
            "proposalCount()": "1095",
            "proposalMaxOperations()": "318",
            "proposalThreshold()": "infinite",
            "proposals(uint256)": "7160",
            "propose(address[],uint256[],string[],bytes[],string)": "infinite",
            "queue(uint256)": "infinite",
            "quorumVotes()": "infinite",
            "ram()": "1115",
            "state(uint256)": "infinite",
            "timelock()": "1115",
            "votingDelay()": "273",
            "votingPeriod()": "274"
        },
        "internal": {
            "_castVote(address,uint256,bool)": "infinite",
            "_queueOrRevert(address,uint256,string memory,bytes memory,uint256)": "infinite",
            "add256(uint256,uint256)": "infinite",
            "getChainId()": "14",
            "sub256(uint256,uint256)": "infinite"
        }
    }
}