{
    "contractName": "NBUNIERC20",
    "abi": [
        {
            "anonymous": false,
            "inputs": [
                {
                    "indexed": true,
                    "internalType": "address",
                    "name": "owner",
                    "type": "address"
                },
                {
                    "indexed": true,
                    "internalType": "address",
                    "name": "spender",
                    "type": "address"
                },
                {
                    "indexed": false,
                    "internalType": "uint256",
                    "name": "value",
                    "type": "uint256"
                }
            ],
            "name": "Approval",
            "type": "event"
        },
        {
            "anonymous": false,
            "inputs": [
                {
                    "indexed": false,
                    "internalType": "address",
                    "name": "dst",
                    "type": "address"
                },
                {
                    "indexed": false,
                    "internalType": "uint256",
                    "name": "value",
                    "type": "uint256"
                }
            ],
            "name": "LPTokenClaimed",
            "type": "event"
        },
        {
            "anonymous": false,
            "inputs": [
                {
                    "indexed": true,
                    "internalType": "address",
                    "name": "dst",
                    "type": "address"
                },
                {
                    "indexed": false,
                    "internalType": "uint256",
                    "name": "value",
                    "type": "uint256"
                }
            ],
            "name": "LiquidityAddition",
            "type": "event"
        },
        {
            "anonymous": false,
            "inputs": [
                {
                    "indexed": false,
                    "internalType": "string",
                    "name": "log",
                    "type": "string"
                }
            ],
            "name": "Log",
            "type": "event"
        },
        {
            "anonymous": false,
            "inputs": [
                {
                    "indexed": true,
                    "internalType": "address",
                    "name": "previousOwner",
                    "type": "address"
                },
                {
                    "indexed": true,
                    "internalType": "address",
                    "name": "newOwner",
                    "type": "address"
                }
            ],
            "name": "OwnershipTransferred",
            "type": "event"
        },
        {
            "anonymous": false,
            "inputs": [
                {
                    "indexed": true,
                    "internalType": "address",
                    "name": "from",
                    "type": "address"
                },
                {
                    "indexed": true,
                    "internalType": "address",
                    "name": "to",
                    "type": "address"
                },
                {
                    "indexed": false,
                    "internalType": "uint256",
                    "name": "value",
                    "type": "uint256"
                }
            ],
            "name": "Transfer",
            "type": "event"
        },
        {
            "inputs": [
                {
                    "internalType": "address",
                    "name": "owner",
                    "type": "address"
                },
                {
                    "internalType": "address",
                    "name": "spender",
                    "type": "address"
                }
            ],
            "name": "allowance",
            "outputs": [
                {
                    "internalType": "uint256",
                    "name": "",
                    "type": "uint256"
                }
            ],
            "stateMutability": "view",
            "type": "function"
        },
        {
            "inputs": [
                {
                    "internalType": "address",
                    "name": "spender",
                    "type": "address"
                },
                {
                    "internalType": "uint256",
                    "name": "amount",
                    "type": "uint256"
                }
            ],
            "name": "approve",
            "outputs": [
                {
                    "internalType": "bool",
                    "name": "",
                    "type": "bool"
                }
            ],
            "stateMutability": "nonpayable",
            "type": "function"
        },
        {
            "inputs": [
                {
                    "internalType": "address",
                    "name": "_owner",
                    "type": "address"
                }
            ],
            "name": "balanceOf",
            "outputs": [
                {
                    "internalType": "uint256",
                    "name": "",
                    "type": "uint256"
                }
            ],
            "stateMutability": "view",
            "type": "function"
        },
        {
            "inputs": [],
            "name": "contractStartTimestamp",
            "outputs": [
                {
                    "internalType": "uint256",
                    "name": "",
                    "type": "uint256"
                }
            ],
            "stateMutability": "view",
            "type": "function"
        },
        {
            "inputs": [
                {
                    "internalType": "address",
                    "name": "_YGY",
                    "type": "address"
                }
            ],
            "name": "createUniswapPairMainnet",
            "outputs": [
                {
                    "internalType": "address",
                    "name": "",
                    "type": "address"
                }
            ],
            "stateMutability": "nonpayable",
            "type": "function"
        },
        {
            "inputs": [],
            "name": "decimals",
            "outputs": [
                {
                    "internalType": "uint8",
                    "name": "",
                    "type": "uint8"
                }
            ],
            "stateMutability": "view",
            "type": "function"
        },
        {
            "inputs": [
                {
                    "internalType": "address",
                    "name": "spender",
                    "type": "address"
                },
                {
                    "internalType": "uint256",
                    "name": "subtractedValue",
                    "type": "uint256"
                }
            ],
            "name": "decreaseAllowance",
            "outputs": [
                {
                    "internalType": "bool",
                    "name": "",
                    "type": "bool"
                }
            ],
            "stateMutability": "nonpayable",
            "type": "function"
        },
        {
            "inputs": [],
            "name": "feeDistributor",
            "outputs": [
                {
                    "internalType": "address",
                    "name": "",
                    "type": "address"
                }
            ],
            "stateMutability": "view",
            "type": "function"
        },
        {
            "inputs": [
                {
                    "internalType": "address",
                    "name": "spender",
                    "type": "address"
                },
                {
                    "internalType": "uint256",
                    "name": "addedValue",
                    "type": "uint256"
                }
            ],
            "name": "increaseAllowance",
            "outputs": [
                {
                    "internalType": "bool",
                    "name": "",
                    "type": "bool"
                }
            ],
            "stateMutability": "nonpayable",
            "type": "function"
        },
        {
            "inputs": [],
            "name": "initialSupply",
            "outputs": [
                {
                    "internalType": "uint256",
                    "name": "",
                    "type": "uint256"
                }
            ],
            "stateMutability": "view",
            "type": "function"
        },
        {
            "inputs": [],
            "name": "name",
            "outputs": [
                {
                    "internalType": "string",
                    "name": "",
                    "type": "string"
                }
            ],
            "stateMutability": "view",
            "type": "function"
        },
        {
            "inputs": [],
            "name": "owner",
            "outputs": [
                {
                    "internalType": "address",
                    "name": "",
                    "type": "address"
                }
            ],
            "stateMutability": "view",
            "type": "function"
        },
        {
            "inputs": [],
            "name": "renounceOwnership",
            "outputs": [],
            "stateMutability": "nonpayable",
            "type": "function"
        },
        {
            "inputs": [
                {
                    "internalType": "address",
                    "name": "_feeDistributor",
                    "type": "address"
                }
            ],
            "name": "setFeeDistributor",
            "outputs": [],
            "stateMutability": "nonpayable",
            "type": "function"
        },
        {
            "inputs": [
                {
                    "internalType": "address",
                    "name": "_transferCheckerAddress",
                    "type": "address"
                }
            ],
            "name": "setShouldTransferChecker",
            "outputs": [],
            "stateMutability": "nonpayable",
            "type": "function"
        },
        {
            "inputs": [],
            "name": "symbol",
            "outputs": [
                {
                    "internalType": "string",
                    "name": "",
                    "type": "string"
                }
            ],
            "stateMutability": "view",
            "type": "function"
        },
        {
            "inputs": [],
            "name": "tokenUniswapPair",
            "outputs": [
                {
                    "internalType": "address",
                    "name": "",
                    "type": "address"
                }
            ],
            "stateMutability": "view",
            "type": "function"
        },
        {
            "inputs": [],
            "name": "totalSupply",
            "outputs": [
                {
                    "internalType": "uint256",
                    "name": "",
                    "type": "uint256"
                }
            ],
            "stateMutability": "view",
            "type": "function"
        },
        {
            "inputs": [
                {
                    "internalType": "address",
                    "name": "recipient",
                    "type": "address"
                },
                {
                    "internalType": "uint256",
                    "name": "amount",
                    "type": "uint256"
                }
            ],
            "name": "transfer",
            "outputs": [
                {
                    "internalType": "bool",
                    "name": "",
                    "type": "bool"
                }
            ],
            "stateMutability": "nonpayable",
            "type": "function"
        },
        {
            "inputs": [],
            "name": "transferCheckerAddress",
            "outputs": [
                {
                    "internalType": "address",
                    "name": "",
                    "type": "address"
                }
            ],
            "stateMutability": "view",
            "type": "function"
        },
        {
            "inputs": [
                {
                    "internalType": "address",
                    "name": "sender",
                    "type": "address"
                },
                {
                    "internalType": "address",
                    "name": "recipient",
                    "type": "address"
                },
                {
                    "internalType": "uint256",
                    "name": "amount",
                    "type": "uint256"
                }
            ],
            "name": "transferFrom",
            "outputs": [
                {
                    "internalType": "bool",
                    "name": "",
                    "type": "bool"
                }
            ],
            "stateMutability": "nonpayable",
            "type": "function"
        },
        {
            "inputs": [
                {
                    "internalType": "address",
                    "name": "newOwner",
                    "type": "address"
                }
            ],
            "name": "transferOwnership",
            "outputs": [],
            "stateMutability": "nonpayable",
            "type": "function"
        },
        {
            "inputs": [],
            "name": "uniswapFactory",
            "outputs": [
                {
                    "internalType": "contract IUniswapV2Factory",
                    "name": "",
                    "type": "address"
                }
            ],
            "stateMutability": "view",
            "type": "function"
        }
    ],
    "bytecode": "608060405234801561001057600080fd5b50600061001b61006a565b600080546001600160a01b0319166001600160a01b0383169081178255604051929350917f8be0079c531659141344cd1fd0a4f28419497f9722a3daafe3b4186f6b6457e0908290a35061006e565b3390565b6111ec8061007d6000396000f3fe608060405234801561001057600080fd5b506004361061014d5760003560e01c806370a08231116100c3578063a9059cbb1161007c578063a9059cbb1461037f578063a9d3a3cf146103ab578063b2aef26b146103d1578063ccfc2e8d146103d9578063dd62ed3e146103ff578063f2fde38b1461042d5761014d565b806370a082311461030d578063715018a6146103335780638bdb2afa1461033b5780638da5cb5b1461034357806395d89b411461034b578063a457c2d7146103535761014d565b806323b872dd1161011557806323b872dd14610275578063313ce567146102ab578063378dc3dc146102c957806339509351146102d15780634d332457146102fd5780636a2f796c146103055761014d565b806306fdde0314610152578063095ea7b3146101cf5780630d43e8ad1461020f57806310a7a6591461023357806318160ddd1461025b575b600080fd5b61015a610453565b6040805160208082528351818301528351919283929083019185019080838360005b8381101561019457818101518382015260200161017c565b50505050905090810190601f1680156101c15780820380516001836020036101000a031916815260200191505b509250505060405180910390f35b6101fb600480360360408110156101e557600080fd5b506001600160a01b0381351690602001356104e9565b604080519115158252519081900360200190f35b610217610506565b604080516001600160a01b039092168252519081900360200190f35b6102596004803603602081101561024957600080fd5b50356001600160a01b0316610515565b005b61026361058f565b60408051918252519081900360200190f35b6101fb6004803603606081101561028b57600080fd5b506001600160a01b03813581169160208101359091169060400135610595565b6102b361061c565b6040805160ff9092168252519081900360200190f35b610263610625565b6101fb600480360360408110156102e757600080fd5b506001600160a01b038135169060200135610633565b610217610681565b610263610690565b6102636004803603602081101561032357600080fd5b50356001600160a01b0316610696565b6102596106b1565b610217610753565b610217610762565b61015a610771565b6101fb6004803603604081101561036957600080fd5b506001600160a01b0381351690602001356107d2565b6101fb6004803603604081101561039557600080fd5b506001600160a01b03813516906020013561083a565b610217600480360360208110156103c157600080fd5b50356001600160a01b031661084e565b610217610955565b610259600480360360208110156103ef57600080fd5b50356001600160a01b0316610964565b6102636004803603604081101561041557600080fd5b506001600160a01b03813581169160200135166109de565b6102596004803603602081101561044357600080fd5b50356001600160a01b0316610a09565b60048054604080516020601f60026000196101006001881615020190951694909404938401819004810282018101909252828152606093909290918301828280156104df5780601f106104b4576101008083540402835291602001916104df565b820191906000526020600020905b8154815290600101906020018083116104c257829003601f168201915b5050505050905090565b60006104fd6104f6610b01565b8484610b05565b50600192915050565b600b546001600160a01b031681565b61051d610b01565b6000546001600160a01b0390811691161461056d576040805162461bcd60e51b81526020600482018190526024820152600080516020611105833981519152604482015290519081900360640190fd5b600a80546001600160a01b0319166001600160a01b0392909216919091179055565b60035490565b60006105a2848484610bf1565b610612846105ae610b01565b61060d856040518060600160405280602881526020016110dd602891396001600160a01b038a166000908152600260205260408120906105ec610b01565b6001600160a01b031681526020810191909152604001600020549190610f4e565b610b05565b5060019392505050565b60065460ff1690565b69021e19e0c9bab240000081565b60006104fd610640610b01565b8461060d8560026000610651610b01565b6001600160a01b03908116825260208083019390935260409182016000908120918c168152925290205490610fe5565b6009546001600160a01b031681565b60075481565b6001600160a01b031660009081526001602052604090205490565b6106b9610b01565b6000546001600160a01b03908116911614610709576040805162461bcd60e51b81526020600482018190526024820152600080516020611105833981519152604482015290519081900360640190fd5b600080546040516001600160a01b03909116907f8be0079c531659141344cd1fd0a4f28419497f9722a3daafe3b4186f6b6457e0908390a3600080546001600160a01b0319169055565b6008546001600160a01b031681565b6000546001600160a01b031690565b60058054604080516020601f60026000196101006001881615020190951694909404938401819004810282018101909252828152606093909290918301828280156104df5780601f106104b4576101008083540402835291602001916104df565b60006104fd6107df610b01565b8461060d856040518060600160405280602581526020016111926025913960026000610809610b01565b6001600160a01b03908116825260208083019390935260409182016000908120918d16815292529020549190610f4e565b60006104fd610847610b01565b8484610bf1565b6009546000906001600160a01b0316156108af576040805162461bcd60e51b815260206004820152601b60248201527f546f6b656e3a20706f6f6c20616c726561647920637265617465640000000000604482015290519081900360640190fd5b600854604080516364e329cb60e11b81526001600160a01b0385811660048301523060248301529151919092169163c9c653969160448083019260209291908290030181600087803b15801561090457600080fd5b505af1158015610918573d6000803e3d6000fd5b505050506040513d602081101561092e57600080fd5b5051600980546001600160a01b0319166001600160a01b0392831617908190551692915050565b600a546001600160a01b031681565b61096c610b01565b6000546001600160a01b039081169116146109bc576040805162461bcd60e51b81526020600482018190526024820152600080516020611105833981519152604482015290519081900360640190fd5b600b80546001600160a01b0319166001600160a01b0392909216919091179055565b6001600160a01b03918216600090815260026020908152604080832093909416825291909152205490565b610a11610b01565b6000546001600160a01b03908116911614610a61576040805162461bcd60e51b81526020600482018190526024820152600080516020611105833981519152604482015290519081900360640190fd5b6001600160a01b038116610aa65760405162461bcd60e51b815260040180806020018281038252602681526020018061106f6026913960400191505060405180910390fd5b600080546040516001600160a01b03808516939216917f8be0079c531659141344cd1fd0a4f28419497f9722a3daafe3b4186f6b6457e091a3600080546001600160a01b0319166001600160a01b0392909216919091179055565b3390565b6001600160a01b038316610b4a5760405162461bcd60e51b815260040180806020018281038252602481526020018061116e6024913960400191505060405180910390fd5b6001600160a01b038216610b8f5760405162461bcd60e51b81526004018080602001828103825260228152602001806110956022913960400191505060405180910390fd5b6001600160a01b03808416600081815260026020908152604080832094871680845294825291829020859055815185815291517f8c5be1e5ebec7d5bd14f71427d1e84f3dd0314c0f7b2291e5b200ac8c7c3b9259281900390910190a3505050565b6001600160a01b038316610c365760405162461bcd60e51b81526004018080602001828103825260258152602001806111256025913960400191505060405180910390fd5b6001600160a01b038216610c7b5760405162461bcd60e51b815260040180806020018281038252602381526020018061104c6023913960400191505060405180910390fd5b610c86838383611046565b610cc3816040518060600160405280602681526020016110b7602691396001600160a01b0386166000908152600160205260409020549190610f4e565b6001600160a01b0380851660008181526001602052604080822094909455600a54845163301a580160e01b81526004810193909352868416602484015260448301869052845191948594919091169263301a5801926064808301939282900301818787803b158015610d3457600080fd5b505af1158015610d48573d6000803e3d6000fd5b505050506040513d6040811015610d5e57600080fd5b508051602090910151909250905082610d778383610fe5565b14610db35760405162461bcd60e51b815260040180806020018281038252602481526020018061114a6024913960400191505060405180910390fd5b6001600160a01b038416600090815260016020526040902054610dd69083610fe5565b6001600160a01b0380861660008181526001602090815260409182902094909455805186815290519193928916927fddf252ad1be2c89b69c2b068fc378daa952ba7f163c4a11628f55a4df523b3ef92918290030190a3600081118015610e475750600b546001600160a01b031615155b15610f4757600b546001600160a01b0316600090815260016020526040902054610e719082610fe5565b600b80546001600160a01b039081166000908152600160209081526040918290209490945591548251858152925190821693918916927fddf252ad1be2c89b69c2b068fc378daa952ba7f163c4a11628f55a4df523b3ef92908290030190a3600b546001600160a01b031615610f4757600b5460408051630211eb7d60e51b81526004810184905290516001600160a01b039092169163423d6fa09160248082019260009290919082900301818387803b158015610f2e57600080fd5b505af1158015610f42573d6000803e3d6000fd5b505050505b5050505050565b60008184841115610fdd5760405162461bcd60e51b81526004018080602001828103825283818151815260200191508051906020019080838360005b83811015610fa2578181015183820152602001610f8a565b50505050905090810190601f168015610fcf5780820380516001836020036101000a031916815260200191505b509250505060405180910390fd5b505050900390565b60008282018381101561103f576040805162461bcd60e51b815260206004820152601b60248201527f536166654d6174683a206164646974696f6e206f766572666c6f770000000000604482015290519081900360640190fd5b9392505050565b50505056fe45524332303a207472616e7366657220746f20746865207a65726f20616464726573734f776e61626c653a206e6577206f776e657220697320746865207a65726f206164647265737345524332303a20617070726f766520746f20746865207a65726f206164647265737345524332303a207472616e7366657220616d6f756e7420657863656564732062616c616e636545524332303a207472616e7366657220616d6f756e74206578636565647320616c6c6f77616e63654f776e61626c653a2063616c6c6572206973206e6f7420746865206f776e657245524332303a207472616e736665722066726f6d20746865207a65726f20616464726573734d6174682062726f6b652c20646f65732067726176697479207374696c6c20776f726b3f45524332303a20617070726f76652066726f6d20746865207a65726f206164647265737345524332303a2064656372656173656420616c6c6f77616e63652062656c6f77207a65726fa2646970667358221220d38d4ea0e1a220d46e4e6a22f8120bd229bbaabcb8207de5889dca2391d4d78d64736f6c634300060c0033",
    "sourcePath": "/Users/225153/Projects/proxy-test/contracts/NBUNIERC20.sol",
    "compiler": {
        "name": "solc",
        "version": "0.6.12+commit.27d51765"
    },
    "functionHashes": {
        "allowance(address,address)": "dd62ed3e",
        "approve(address,uint256)": "095ea7b3",
        "balanceOf(address)": "70a08231",
        "contractStartTimestamp()": "6a2f796c",
        "createUniswapPairMainnet(address)": "a9d3a3cf",
        "decimals()": "313ce567",
        "decreaseAllowance(address,uint256)": "a457c2d7",
        "feeDistributor()": "0d43e8ad",
        "increaseAllowance(address,uint256)": "39509351",
        "initialSupply()": "378dc3dc",
        "name()": "06fdde03",
        "owner()": "8da5cb5b",
        "renounceOwnership()": "715018a6",
        "setFeeDistributor(address)": "ccfc2e8d",
        "setShouldTransferChecker(address)": "10a7a659",
        "symbol()": "95d89b41",
        "tokenUniswapPair()": "4d332457",
        "totalSupply()": "18160ddd",
        "transfer(address,uint256)": "a9059cbb",
        "transferCheckerAddress()": "b2aef26b",
        "transferFrom(address,address,uint256)": "23b872dd",
        "transferOwnership(address)": "f2fde38b",
        "uniswapFactory()": "8bdb2afa"
    },
    "gasEstimates": {
        "creation": {
            "codeDepositCost": "917600",
            "executionCost": "23390",
            "totalCost": "940990"
        },
        "external": {
            "allowance(address,address)": "1360",
            "approve(address,uint256)": "infinite",
            "balanceOf(address)": "1165",
            "contractStartTimestamp()": "1131",
            "createUniswapPairMainnet(address)": "infinite",
            "decimals()": "1058",
            "decreaseAllowance(address,uint256)": "infinite",
            "feeDistributor()": "1105",
            "increaseAllowance(address,uint256)": "infinite",
            "initialSupply()": "265",
            "name()": "infinite",
            "owner()": "1126",
            "renounceOwnership()": "infinite",
            "setFeeDistributor(address)": "infinite",
            "setShouldTransferChecker(address)": "infinite",
            "symbol()": "infinite",
            "tokenUniswapPair()": "1148",
            "totalSupply()": "1110",
            "transfer(address,uint256)": "infinite",
            "transferCheckerAddress()": "1103",
            "transferFrom(address,address,uint256)": "infinite",
            "transferOwnership(address)": "infinite",
            "uniswapFactory()": "1104"
        },
        "internal": {
            "_approve(address,address,uint256)": "infinite",
            "_beforeTokenTransfer(address,address,uint256)": "15",
            "_burn(address,uint256)": "infinite",
            "_mint(address,uint256)": "infinite",
            "_setupDecimals(uint8)": "infinite",
            "_transfer(address,address,uint256)": "infinite",
            "initialSetup(address)": "infinite"
        }
    }
}