{
    "contractName": "NFT",
    "abi": [
        {
            "inputs": [
                {
                    "internalType": "string",
                    "name": "_name",
                    "type": "string"
                },
                {
                    "internalType": "string",
                    "name": "_symbol",
                    "type": "string"
                },
                {
                    "internalType": "string",
                    "name": "_tokenURI",
                    "type": "string"
                },
                {
                    "internalType": "uint256",
                    "name": "_contractId",
                    "type": "uint256"
                },
                {
                    "internalType": "uint256",
                    "name": "_propertyChoices",
                    "type": "uint256"
                },
                {
                    "internalType": "address",
                    "name": "_superAdmin",
                    "type": "address"
                },
                {
                    "internalType": "bool",
                    "name": "_allowTrade",
                    "type": "bool"
                },
                {
                    "internalType": "bool",
                    "name": "_isCapped",
                    "type": "bool"
                },
                {
                    "internalType": "uint256",
                    "name": "_tokenCap",
                    "type": "uint256"
                }
            ],
            "stateMutability": "nonpayable",
            "type": "constructor"
        },
        {
            "anonymous": false,
            "inputs": [
                {
                    "indexed": true,
                    "internalType": "address",
                    "name": "owner",
                    "type": "address"
                },
                {
                    "indexed": true,
                    "internalType": "address",
                    "name": "approved",
                    "type": "address"
                },
                {
                    "indexed": true,
                    "internalType": "uint256",
                    "name": "tokenId",
                    "type": "uint256"
                }
            ],
            "name": "Approval",
            "type": "event"
        },
        {
            "anonymous": false,
            "inputs": [
                {
                    "indexed": true,
                    "internalType": "address",
                    "name": "owner",
                    "type": "address"
                },
                {
                    "indexed": true,
                    "internalType": "address",
                    "name": "operator",
                    "type": "address"
                },
                {
                    "indexed": false,
                    "internalType": "bool",
                    "name": "approved",
                    "type": "bool"
                }
            ],
            "name": "ApprovalForAll",
            "type": "event"
        },
        {
            "anonymous": false,
            "inputs": [
                {
                    "indexed": true,
                    "internalType": "bytes32",
                    "name": "role",
                    "type": "bytes32"
                },
                {
                    "indexed": true,
                    "internalType": "address",
                    "name": "account",
                    "type": "address"
                },
                {
                    "indexed": true,
                    "internalType": "address",
                    "name": "sender",
                    "type": "address"
                }
            ],
            "name": "RoleGranted",
            "type": "event"
        },
        {
            "anonymous": false,
            "inputs": [
                {
                    "indexed": true,
                    "internalType": "bytes32",
                    "name": "role",
                    "type": "bytes32"
                },
                {
                    "indexed": true,
                    "internalType": "address",
                    "name": "account",
                    "type": "address"
                },
                {
                    "indexed": true,
                    "internalType": "address",
                    "name": "sender",
                    "type": "address"
                }
            ],
            "name": "RoleRevoked",
            "type": "event"
        },
        {
            "anonymous": false,
            "inputs": [
                {
                    "indexed": true,
                    "internalType": "address",
                    "name": "from",
                    "type": "address"
                },
                {
                    "indexed": true,
                    "internalType": "address",
                    "name": "to",
                    "type": "address"
                },
                {
                    "indexed": true,
                    "internalType": "uint256",
                    "name": "tokenId",
                    "type": "uint256"
                }
            ],
            "name": "Transfer",
            "type": "event"
        },
        {
            "inputs": [],
            "name": "DEFAULT_ADMIN_ROLE",
            "outputs": [
                {
                    "internalType": "bytes32",
                    "name": "",
                    "type": "bytes32"
                }
            ],
            "stateMutability": "view",
            "type": "function"
        },
        {
            "inputs": [],
            "name": "PAUSER_ROLE",
            "outputs": [
                {
                    "internalType": "bytes32",
                    "name": "",
                    "type": "bytes32"
                }
            ],
            "stateMutability": "view",
            "type": "function"
        },
        {
            "inputs": [],
            "name": "SYSTEM_ROLE",
            "outputs": [
                {
                    "internalType": "bytes32",
                    "name": "",
                    "type": "bytes32"
                }
            ],
            "stateMutability": "view",
            "type": "function"
        },
        {
            "inputs": [],
            "name": "_tokenURI",
            "outputs": [
                {
                    "internalType": "string",
                    "name": "",
                    "type": "string"
                }
            ],
            "stateMutability": "view",
            "type": "function"
        },
        {
            "inputs": [
                {
                    "internalType": "address",
                    "name": "to",
                    "type": "address"
                },
                {
                    "internalType": "uint256",
                    "name": "tokenId",
                    "type": "uint256"
                }
            ],
            "name": "approve",
            "outputs": [],
            "stateMutability": "nonpayable",
            "type": "function"
        },
        {
            "inputs": [
                {
                    "internalType": "address",
                    "name": "owner",
                    "type": "address"
                }
            ],
            "name": "balanceOf",
            "outputs": [
                {
                    "internalType": "uint256",
                    "name": "",
                    "type": "uint256"
                }
            ],
            "stateMutability": "view",
            "type": "function"
        },
        {
            "inputs": [
                {
                    "internalType": "uint256",
                    "name": "_tokenId",
                    "type": "uint256"
                }
            ],
            "name": "burn",
            "outputs": [],
            "stateMutability": "nonpayable",
            "type": "function"
        },
        {
            "inputs": [
                {
                    "internalType": "uint256",
                    "name": "tokenId",
                    "type": "uint256"
                }
            ],
            "name": "getApproved",
            "outputs": [
                {
                    "internalType": "address",
                    "name": "",
                    "type": "address"
                }
            ],
            "stateMutability": "view",
            "type": "function"
        },
        {
            "inputs": [
                {
                    "internalType": "bytes32",
                    "name": "role",
                    "type": "bytes32"
                }
            ],
            "name": "getRoleAdmin",
            "outputs": [
                {
                    "internalType": "bytes32",
                    "name": "",
                    "type": "bytes32"
                }
            ],
            "stateMutability": "view",
            "type": "function"
        },
        {
            "inputs": [
                {
                    "internalType": "bytes32",
                    "name": "role",
                    "type": "bytes32"
                },
                {
                    "internalType": "uint256",
                    "name": "index",
                    "type": "uint256"
                }
            ],
            "name": "getRoleMember",
            "outputs": [
                {
                    "internalType": "address",
                    "name": "",
                    "type": "address"
                }
            ],
            "stateMutability": "view",
            "type": "function"
        },
        {
            "inputs": [
                {
                    "internalType": "bytes32",
                    "name": "role",
                    "type": "bytes32"
                }
            ],
            "name": "getRoleMemberCount",
            "outputs": [
                {
                    "internalType": "uint256",
                    "name": "",
                    "type": "uint256"
                }
            ],
            "stateMutability": "view",
            "type": "function"
        },
        {
            "inputs": [
                {
                    "internalType": "uint256",
                    "name": "_tokenId",
                    "type": "uint256"
                }
            ],
            "name": "getTokenProperty",
            "outputs": [
                {
                    "components": [
                        {
                            "internalType": "string",
                            "name": "pType",
                            "type": "string"
                        },
                        {
                            "internalType": "uint256",
                            "name": "pValue",
                            "type": "uint256"
                        },
                        {
                            "internalType": "bytes32",
                            "name": "extra",
                            "type": "bytes32"
                        }
                    ],
                    "internalType": "struct YGYStorageV1.NFTProperty",
                    "name": "",
                    "type": "tuple"
                }
            ],
            "stateMutability": "view",
            "type": "function"
        },
        {
            "inputs": [
                {
                    "internalType": "bytes32",
                    "name": "role",
                    "type": "bytes32"
                },
                {
                    "internalType": "address",
                    "name": "account",
                    "type": "address"
                }
            ],
            "name": "grantRole",
            "outputs": [],
            "stateMutability": "nonpayable",
            "type": "function"
        },
        {
            "inputs": [
                {
                    "internalType": "bytes32",
                    "name": "role",
                    "type": "bytes32"
                },
                {
                    "internalType": "address",
                    "name": "account",
                    "type": "address"
                }
            ],
            "name": "hasRole",
            "outputs": [
                {
                    "internalType": "bool",
                    "name": "",
                    "type": "bool"
                }
            ],
            "stateMutability": "view",
            "type": "function"
        },
        {
            "inputs": [
                {
                    "internalType": "address",
                    "name": "owner",
                    "type": "address"
                },
                {
                    "internalType": "address",
                    "name": "operator",
                    "type": "address"
                }
            ],
            "name": "isApprovedForAll",
            "outputs": [
                {
                    "internalType": "bool",
                    "name": "",
                    "type": "bool"
                }
            ],
            "stateMutability": "view",
            "type": "function"
        },
        {
            "inputs": [
                {
                    "internalType": "address",
                    "name": "to",
                    "type": "address"
                },
                {
                    "internalType": "uint256",
                    "name": "_randomness",
                    "type": "uint256"
                },
                {
                    "internalType": "contract YGYStorageV1",
                    "name": "_storage",
                    "type": "address"
                }
            ],
            "name": "mint",
            "outputs": [
                {
                    "internalType": "uint256",
                    "name": "_tokenId",
                    "type": "uint256"
                }
            ],
            "stateMutability": "nonpayable",
            "type": "function"
        },
        {
            "inputs": [],
            "name": "name",
            "outputs": [
                {
                    "internalType": "string",
                    "name": "",
                    "type": "string"
                }
            ],
            "stateMutability": "view",
            "type": "function"
        },
        {
            "inputs": [
                {
                    "internalType": "uint256",
                    "name": "tokenId",
                    "type": "uint256"
                }
            ],
            "name": "ownerOf",
            "outputs": [
                {
                    "internalType": "address",
                    "name": "",
                    "type": "address"
                }
            ],
            "stateMutability": "view",
            "type": "function"
        },
        {
            "inputs": [
                {
                    "internalType": "uint256",
                    "name": "",
                    "type": "uint256"
                }
            ],
            "name": "properties",
            "outputs": [
                {
                    "internalType": "string",
                    "name": "pType",
                    "type": "string"
                },
                {
                    "internalType": "uint256",
                    "name": "pValue",
                    "type": "uint256"
                },
                {
                    "internalType": "bytes32",
                    "name": "extra",
                    "type": "bytes32"
                }
            ],
            "stateMutability": "view",
            "type": "function"
        },
        {
            "inputs": [
                {
                    "internalType": "bytes32",
                    "name": "role",
                    "type": "bytes32"
                },
                {
                    "internalType": "address",
                    "name": "account",
                    "type": "address"
                }
            ],
            "name": "renounceRole",
            "outputs": [],
            "stateMutability": "nonpayable",
            "type": "function"
        },
        {
            "inputs": [
                {
                    "internalType": "bytes32",
                    "name": "role",
                    "type": "bytes32"
                },
                {
                    "internalType": "address",
                    "name": "account",
                    "type": "address"
                }
            ],
            "name": "revokeRole",
            "outputs": [],
            "stateMutability": "nonpayable",
            "type": "function"
        },
        {
            "inputs": [
                {
                    "internalType": "address",
                    "name": "from",
                    "type": "address"
                },
                {
                    "internalType": "address",
                    "name": "to",
                    "type": "address"
                },
                {
                    "internalType": "uint256",
                    "name": "tokenId",
                    "type": "uint256"
                },
                {
                    "internalType": "uint256",
                    "name": "poolId",
                    "type": "uint256"
                }
            ],
            "name": "safeTransferFrom",
            "outputs": [],
            "stateMutability": "nonpayable",
            "type": "function"
        },
        {
            "inputs": [
                {
                    "internalType": "address",
                    "name": "from",
                    "type": "address"
                },
                {
                    "internalType": "address",
                    "name": "to",
                    "type": "address"
                },
                {
                    "internalType": "uint256",
                    "name": "tokenId",
                    "type": "uint256"
                }
            ],
            "name": "safeTransferFrom",
            "outputs": [],
            "stateMutability": "nonpayable",
            "type": "function"
        },
        {
            "inputs": [
                {
                    "internalType": "address",
                    "name": "operator",
                    "type": "address"
                },
                {
                    "internalType": "bool",
                    "name": "approved",
                    "type": "bool"
                }
            ],
            "name": "setApprovalForAll",
            "outputs": [],
            "stateMutability": "nonpayable",
            "type": "function"
        },
        {
            "inputs": [
                {
                    "internalType": "bytes4",
                    "name": "interfaceId",
                    "type": "bytes4"
                }
            ],
            "name": "supportsInterface",
            "outputs": [
                {
                    "internalType": "bool",
                    "name": "",
                    "type": "bool"
                }
            ],
            "stateMutability": "view",
            "type": "function"
        },
        {
            "inputs": [],
            "name": "symbol",
            "outputs": [
                {
                    "internalType": "string",
                    "name": "",
                    "type": "string"
                }
            ],
            "stateMutability": "view",
            "type": "function"
        },
        {
            "inputs": [
                {
                    "internalType": "uint256",
                    "name": "index",
                    "type": "uint256"
                }
            ],
            "name": "tokenByIndex",
            "outputs": [
                {
                    "internalType": "uint256",
                    "name": "",
                    "type": "uint256"
                }
            ],
            "stateMutability": "view",
            "type": "function"
        },
        {
            "inputs": [
                {
                    "internalType": "address",
                    "name": "owner",
                    "type": "address"
                },
                {
                    "internalType": "uint256",
                    "name": "index",
                    "type": "uint256"
                }
            ],
            "name": "tokenOfOwnerByIndex",
            "outputs": [
                {
                    "internalType": "uint256",
                    "name": "",
                    "type": "uint256"
                }
            ],
            "stateMutability": "view",
            "type": "function"
        },
        {
            "inputs": [
                {
                    "internalType": "uint256",
                    "name": "tokenId",
                    "type": "uint256"
                }
            ],
            "name": "tokenURI",
            "outputs": [
                {
                    "internalType": "string",
                    "name": "",
                    "type": "string"
                }
            ],
            "stateMutability": "view",
            "type": "function"
        },
        {
            "inputs": [],
            "name": "totalSupply",
            "outputs": [
                {
                    "internalType": "uint256",
                    "name": "",
                    "type": "uint256"
                }
            ],
            "stateMutability": "view",
            "type": "function"
        },
        {
            "inputs": [
                {
                    "internalType": "address",
                    "name": "from",
                    "type": "address"
                },
                {
                    "internalType": "address",
                    "name": "to",
                    "type": "address"
                },
                {
                    "internalType": "uint256",
                    "name": "tokenId",
                    "type": "uint256"
                }
            ],
            "name": "transferFrom",
            "outputs": [],
            "stateMutability": "nonpayable",
            "type": "function"
        }
    ],
    "bytecode": "60806040523480156200001157600080fd5b5060405162002bfa38038062002bfa833981016040819052620000349162000417565b88888882609d90805190602001906200004f929190620002ab565b5081516200006590609e906020850190620002ab565b5080516200007b90609f906020840190620002ab565b506200008e6380ac58cd60e01b6200013a565b620000a0635b5e139f60e01b6200013a565b620000b263780e9d6360e01b6200013a565b505060d3805460ff19168515151761ff001916610100851515021790555060d481905560d286905560d6859055620000ec60008562000195565b6200011060008051602062002bda8339815191526200010a620001a5565b62000195565b6200012b60008051602062002bda8339815191528562000195565b50505050505050505062000534565b6001600160e01b03198082161415620001705760405162461bcd60e51b81526004016200016790620004fd565b60405180910390fd5b6001600160e01b0319166000908152606560205260409020805460ff19166001179055565b620001a18282620001a9565b5050565b3390565b600082815260a060209081526040909120620001d091839062000eb862000224821b17901c565b15620001a157620001e0620001a5565b6001600160a01b0316816001600160a01b0316837f2f8788117e7eff1d82e926ec794901d17c78024a50270940304540a733656f0d60405160405180910390a45050565b60006200023b836001600160a01b03841662000244565b90505b92915050565b600062000252838362000293565b6200028a575081546001818101845560008481526020808220909301849055845484825282860190935260409020919091556200023e565b5060006200023e565b60009081526001919091016020526040902054151590565b828054600181600116156101000203166002900490600052602060002090601f016020900481019282601f10620002ee57805160ff19168380011785556200031e565b828001600101855582156200031e579182015b828111156200031e57825182559160200191906001019062000301565b506200032c92915062000330565b5090565b5b808211156200032c576000815560010162000331565b80516001600160a01b03811681146200023e57600080fd5b805180151581146200023e57600080fd5b600082601f83011262000381578081fd5b81516001600160401b038082111562000398578283fd5b6040516020601f8401601f1916820181018381118382101715620003ba578586fd5b80604052508194508382528681858801011115620003d757600080fd5b600092505b83831015620003fb5785830181015182840182015291820191620003dc565b838311156200040d5760008185840101525b5050505092915050565b60008060008060008060008060006101208a8c03121562000436578485fd5b89516001600160401b03808211156200044d578687fd5b6200045b8d838e0162000370565b9a5060208c015191508082111562000471578687fd5b6200047f8d838e0162000370565b995060408c015191508082111562000495578687fd5b50620004a48c828d0162000370565b97505060608a0151955060808a01519450620004c48b60a08c0162000347565b9350620004d58b60c08c016200035f565b9250620004e68b60e08c016200035f565b91506101008a015190509295985092959850929598565b6020808252601c908201527f4552433136353a20696e76616c696420696e7465726661636520696400000000604082015260600190565b61269680620005446000396000f3fe608060405234801561001057600080fd5b50600436106101e55760003560e01c80634f6ccce71161010f578063a22cb465116100a2578063d547741f11610071578063d547741f146103f5578063e63ab1e914610408578063e985e9c514610410578063f7b1080814610423576101e5565b8063a22cb465146103b4578063b4ce37d2146103c7578063c87b56dd146103cf578063ca15c873146103e2576101e5565b80639010d07c116100de5780639010d07c1461037e57806391d148541461039157806395d89b41146103a4578063a217fddf146103ac576101e5565b80634f6ccce71461033d5780636352211e1461035057806370a082311461036357806375071d2a14610376576101e5565b806323b872dd1161018757806336568abe1161015657806336568abe146102e457806338e5cdce146102f757806342842e0e1461031757806342966c681461032a576101e5565b806323b872dd14610298578063248a9ca3146102ab5780632f2ff15d146102be5780632f745c59146102d1576101e5565b8063095ea7b3116101c3578063095ea7b3146102485780630d4d15131461025d5780630febdd491461027d57806318160ddd14610290576101e5565b806301ffc9a7146101ea57806306fdde0314610213578063081812fc14610228575b600080fd5b6101fd6101f8366004611d56565b610445565b60405161020a9190611eb9565b60405180910390f35b61021b610464565b60405161020a9190611ecd565b61023b610236366004611cf9565b6104fa565b60405161020a9190611e75565b61025b610256366004611c8d565b610546565b005b61027061026b366004611cb8565b6105de565b60405161020a9190611ec4565b61025b61028b366004611c17565b61078f565b6102706107ce565b61025b6102a6366004611bd7565b6107df565b6102706102b9366004611cf9565b610817565b61025b6102cc366004611d11565b61082c565b6102706102df366004611c8d565b610874565b61025b6102f2366004611d11565b61089f565b61030a610305366004611cf9565b6108e1565b60405161020a919061251d565b61025b610325366004611bd7565b6109ab565b61025b610338366004611cf9565b6109b8565b61027061034b366004611cf9565b610a24565b61023b61035e366004611cf9565b610a3a565b610270610371366004611b83565b610a62565b610270610aab565b61023b61038c366004611d35565b610abd565b6101fd61039f366004611d11565b610ad5565b61021b610aed565b610270610b4e565b61025b6103c2366004611c5c565b610b53565b61021b610c21565b61021b6103dd366004611cf9565b610caf565b6102706103f0366004611cf9565b610d68565b61025b610403366004611d11565b610d7f565b610270610db9565b6101fd61041e366004611b9f565b610ddd565b610436610431366004611cf9565b610e0b565b60405161020a93929190611ee0565b6001600160e01b03191660009081526065602052604090205460ff1690565b609d8054604080516020601f60026000196101006001881615020190951694909404938401819004810282018101909252828152606093909290918301828280156104f05780601f106104c5576101008083540402835291602001916104f0565b820191906000526020600020905b8154815290600101906020018083116104d357829003601f168201915b5050505050905090565b600061050582610ecd565b61052a5760405162461bcd60e51b81526004016105219061229a565b60405180910390fd5b506000908152609b60205260409020546001600160a01b031690565b600061055182610a3a565b9050806001600160a01b0316836001600160a01b031614156105855760405162461bcd60e51b8152600401610521906123ce565b806001600160a01b0316610597610eda565b6001600160a01b031614806105b357506105b38161041e610eda565b6105cf5760405162461bcd60e51b81526004016105219061217c565b6105d98383610ede565b505050565b60d354600090610100900460ff161580610613575060d354610100900460ff168015610613575060d4546106106107ce565b11155b61062f5760405162461bcd60e51b81526004016105219061230b565b61064960008051602061261883398151915261039f610eda565b6106655760405162461bcd60e51b8152600401610521906122e6565b600061067085610f4c565b90506000600160d65411156106905760d65461068d908690610f6f565b90505b6060600080866001600160a01b0316635498d4c060d254866040518363ffffffff1660e01b81526004016106c5929190612559565b60006040518083038186803b1580156106dd57600080fd5b505afa1580156106f1573d6000803e3d6000fd5b505050506040513d6000823e601f3d908101601f191682016040526107199190810190611d8e565b92509250925060405180606001604052808481526020018381526020018281525060d560008781526020019081526020016000206000820151816000019080519060200190610769929190611acc565b5060208201516001820155604090910151600290910155509293505050505b9392505050565b6107a061079a610eda565b83610fb1565b6107bc5760405162461bcd60e51b815260040161052190612446565b6107c884848484611036565b50505050565b60006107da6099611069565b905090565b6107f06107ea610eda565b82610fb1565b61080c5760405162461bcd60e51b815260040161052190612446565b6105d9838383611074565b600090815260a0602052604090206002015490565b600082815260a0602052604090206002015461084a9061039f610eda565b6108665760405162461bcd60e51b815260040161052190611f47565b6108708282611182565b5050565b6001600160a01b038216600090815260986020526040812061089690836111eb565b90505b92915050565b6108a7610eda565b6001600160a01b0316816001600160a01b0316146108d75760405162461bcd60e51b8152600401610521906124ce565b61087082826111f7565b6108e9611b4a565b600082815260d560209081526040918290208251815460026001821615610100026000190190911604601f810184900490930281016080908101909452606081018381529093919284928491908401828280156109875780601f1061095c57610100808354040283529160200191610987565b820191906000526020600020905b81548152906001019060200180831161096a57829003601f168201915b50505050508152602001600182015481526020016002820154815250509050919050565b6105d9838383600061078f565b6109c0610eda565b6001600160a01b03166109d282610a3a565b6001600160a01b031614806109fc57506109fc60008051602061261883398151915261039f610eda565b610a185760405162461bcd60e51b8152600401610521906122e6565b610a2181611260565b50565b600080610a326099846112ef565b509392505050565b600061089982604051806060016040528060298152602001612638602991396099919061130b565b60006001600160a01b038216610a8a5760405162461bcd60e51b8152600401610521906121d9565b6001600160a01b038216600090815260986020526040902061089990611069565b60008051602061261883398151915281565b600082815260a06020526040812061089690836111eb565b600082815260a0602052604081206108969083611318565b609e8054604080516020601f60026000196101006001881615020190951694909404938401819004810282018101909252828152606093909290918301828280156104f05780601f106104c5576101008083540402835291602001916104f0565b600081565b610b5b610eda565b6001600160a01b0316826001600160a01b03161415610b8c5760405162461bcd60e51b815260040161052190612063565b80609c6000610b99610eda565b6001600160a01b03908116825260208083019390935260409182016000908120918716808252919093529120805460ff191692151592909217909155610bdd610eda565b6001600160a01b03167f17307eab39ab6107e8899845ad3d59bd9653f200f220920489ca2b5937696c3183604051610c159190611eb9565b60405180910390a35050565b609f805460408051602060026001851615610100026000190190941693909304601f81018490048402820184019092528181529291830182828015610ca75780601f10610c7c57610100808354040283529160200191610ca7565b820191906000526020600020905b815481529060010190602001808311610c8a57829003601f168201915b505050505081565b6060610cba82610ecd565b610cd65760405162461bcd60e51b81526004016105219061237f565b609f805460408051602060026001851615610100026000190190941693909304601f81018490048402820184019092528181529291830182828015610d5c5780601f10610d3157610100808354040283529160200191610d5c565b820191906000526020600020905b815481529060010190602001808311610d3f57829003601f168201915b50505050509050919050565b600081815260a06020526040812061089990611069565b600082815260a06020526040902060020154610d9d9061039f610eda565b6108d75760405162461bcd60e51b81526004016105219061212c565b7f65d7a28e3265b37a6474929f336521b332c1681b933f6cb9f3376673440d862a81565b6001600160a01b039182166000908152609c6020908152604080832093909416825291909152205460ff1690565b60d56020908152600091825260409182902080548351601f60026000196101006001861615020190931692909204918201849004840281018401909452808452909291839190830182828015610ea25780601f10610e7757610100808354040283529160200191610ea2565b820191906000526020600020905b815481529060010190602001808311610e8557829003601f168201915b5050505050908060010154908060020154905083565b6000610896836001600160a01b03841661132d565b6000610899609983611377565b3390565b6000818152609b6020526040902080546001600160a01b0319166001600160a01b0384169081179091558190610f1382610a3a565b6001600160a01b03167f8c5be1e5ebec7d5bd14f71427d1e84f3dd0314c0f7b2291e5b200ac8c7c3b92560405160405180910390a45050565b600080610f596097611383565b9050610f658382611387565b61089960976113a1565b600061089683836040518060400160405280601881526020017f536166654d6174683a206d6f64756c6f206279207a65726f00000000000000008152506113aa565b6000610fbc82610ecd565b610fd85760405162461bcd60e51b8152600401610521906120e0565b6000610fe383610a3a565b9050806001600160a01b0316846001600160a01b0316148061101e5750836001600160a01b0316611013846104fa565b6001600160a01b0316145b8061102e575061102e8185610ddd565b949350505050565b611041848484611074565b61104d848484846113de565b6107c85760405162461bcd60e51b815260040161052190611f96565b600061089982611383565b826001600160a01b031661108782610a3a565b6001600160a01b0316146110ad5760405162461bcd60e51b815260040161052190612336565b6001600160a01b0382166110d35760405162461bcd60e51b81526004016105219061201f565b6110de8383836114bf565b6110e9600082610ede565b6001600160a01b038316600090815260986020526040902061110b908261152d565b506001600160a01b038216600090815260986020526040902061112e9082611539565b5061113b60998284611545565b5080826001600160a01b0316846001600160a01b03167fddf252ad1be2c89b69c2b068fc378daa952ba7f163c4a11628f55a4df523b3ef60405160405180910390a4505050565b600082815260a06020526040902061119a9082610eb8565b15610870576111a7610eda565b6001600160a01b0316816001600160a01b0316837f2f8788117e7eff1d82e926ec794901d17c78024a50270940304540a733656f0d60405160405180910390a45050565b6000610896838361155b565b600082815260a06020526040902061120f90826115a0565b156108705761121c610eda565b6001600160a01b0316816001600160a01b0316837ff6391f5c32d9c69d2a47ea670b442974b53935d1edc7fd64eb21e047a839171b60405160405180910390a45050565b600061126b82610a3a565b9050611279816000846114bf565b611284600083610ede565b6001600160a01b03811660009081526098602052604090206112a6908361152d565b506112b26099836115b5565b5060405182906000906001600160a01b038416907fddf252ad1be2c89b69c2b068fc378daa952ba7f163c4a11628f55a4df523b3ef908390a45050565b60008080806112fe86866115c1565b9097909650945050505050565b600061102e84848461161d565b6000610896836001600160a01b03841661167c565b6000611339838361167c565b61136f57508154600181810184556000848152602080822090930184905584548482528286019093526040902091909155610899565b506000610899565b6000610896838361167c565b5490565b610870828260405180602001604052806000815250611694565b80546001019055565b600081836113cb5760405162461bcd60e51b81526004016105219190611ecd565b508284816113d557fe5b06949350505050565b60006113f2846001600160a01b03166116c8565b6113fe5750600161102e565b606061148863e8cb20b760e01b611413610eda565b8887873060405160240161142b959493929190611e89565b604051602081830303815290604052906001600160e01b0319166020820180516001600160e01b0383818316178352505050506040518060600160405280603281526020016125e6603291396001600160a01b03881691906116ce565b90506000818060200190518101906114a09190611d72565b6001600160e01b03191663e8cb20b760e01b1492505050949350505050565b60d35460ff16806114e557506114e560008051602061261883398151915261039f610eda565b80611511575060d35460ff16158015611511575061151160008051602061261883398151915283610ad5565b6105d95760405162461bcd60e51b81526004016105219061240f565b600061089683836116dd565b6000610896838361132d565b600061102e84846001600160a01b0385166117a3565b8154600090821061157e5760405162461bcd60e51b815260040161052190611f05565b82600001828154811061158d57fe5b9060005260206000200154905092915050565b6000610896836001600160a01b0384166116dd565b6000610896838361183a565b8154600090819083106115e65760405162461bcd60e51b815260040161052190612223565b60008460000184815481106115f757fe5b906000526020600020906002020190508060000154816001015492509250509250929050565b6000828152600184016020526040812054828161164d5760405162461bcd60e51b81526004016105219190611ecd565b5084600001600182038154811061166057fe5b9060005260206000209060020201600101549150509392505050565b60009081526001919091016020526040902054151590565b61169e838361190e565b6116ac6000848460006113de565b6105d95760405162461bcd60e51b815260040161052190611f96565b3b151590565b606061102e84846000856119d2565b60008181526001830160205260408120548015611799578354600019808301919081019060009087908390811061171057fe5b906000526020600020015490508087600001848154811061172d57fe5b60009182526020808320909101929092558281526001898101909252604090209084019055865487908061175d57fe5b60019003818190600052602060002001600090559055866001016000878152602001908152602001600020600090556001945050505050610899565b6000915050610899565b600082815260018401602052604081205480611808575050604080518082018252838152602080820184815286546001818101895560008981528481209551600290930290950191825591519082015586548684528188019092529290912055610788565b8285600001600183038154811061181b57fe5b9060005260206000209060020201600101819055506000915050610788565b60008181526001830160205260408120548015611799578354600019808301919081019060009087908390811061186d57fe5b906000526020600020906002020190508087600001848154811061188d57fe5b6000918252602080832084546002909302019182556001938401549184019190915583548252898301905260409020908401905586548790806118cc57fe5b60008281526020808220600260001990940193840201828155600190810183905592909355888152898201909252604082209190915594506108999350505050565b6001600160a01b0382166119345760405162461bcd60e51b815260040161052190612265565b61193d81610ecd565b1561195a5760405162461bcd60e51b815260040161052190611fe8565b611966600083836114bf565b6001600160a01b03821660009081526098602052604090206119889082611539565b5061199560998284611545565b5060405181906001600160a01b038416906000907fddf252ad1be2c89b69c2b068fc378daa952ba7f163c4a11628f55a4df523b3ef908290a45050565b6060824710156119f45760405162461bcd60e51b81526004016105219061209a565b6119fd856116c8565b611a195760405162461bcd60e51b815260040161052190612497565b60006060866001600160a01b03168587604051611a369190611e59565b60006040518083038185875af1925050503d8060008114611a73576040519150601f19603f3d011682016040523d82523d6000602084013e611a78565b606091505b5091509150611a88828286611a93565b979650505050505050565b60608315611aa2575081610788565b825115611ab25782518084602001fd5b8160405162461bcd60e51b81526004016105219190611ecd565b828054600181600116156101000203166002900490600052602060002090601f016020900481019282601f10611b0d57805160ff1916838001178555611b3a565b82800160010185558215611b3a579182015b82811115611b3a578251825591602001919060010190611b1f565b50611b46929150611b6e565b5090565b60405180606001604052806060815260200160008152602001600080191681525090565b5b80821115611b465760008155600101611b6f565b600060208284031215611b94578081fd5b8135610788816125ba565b60008060408385031215611bb1578081fd5b8235611bbc816125ba565b91506020830135611bcc816125ba565b809150509250929050565b600080600060608486031215611beb578081fd5b8335611bf6816125ba565b92506020840135611c06816125ba565b929592945050506040919091013590565b60008060008060808587031215611c2c578081fd5b8435611c37816125ba565b93506020850135611c47816125ba565b93969395505050506040820135916060013590565b60008060408385031215611c6e578182fd5b8235611c79816125ba565b915060208301358015158114611bcc578182fd5b60008060408385031215611c9f578182fd5b8235611caa816125ba565b946020939093013593505050565b600080600060608486031215611ccc578283fd5b8335611cd7816125ba565b9250602084013591506040840135611cee816125ba565b809150509250925092565b600060208284031215611d0a578081fd5b5035919050565b60008060408385031215611d23578182fd5b823591506020830135611bcc816125ba565b60008060408385031215611d47578182fd5b50508035926020909101359150565b600060208284031215611d67578081fd5b8135610788816125cf565b600060208284031215611d83578081fd5b8151610788816125cf565b600080600060608486031215611da2578283fd5b835167ffffffffffffffff80821115611db9578485fd5b818601915086601f830112611dcc578485fd5b815181811115611dda578586fd5b611ded601f8201601f1916602001612567565b9150808252876020828501011115611e03578586fd5b611e1481602084016020860161258e565b5060208601516040909601519097959650949350505050565b60008151808452611e4581602086016020860161258e565b601f01601f19169290920160200192915050565b60008251611e6b81846020870161258e565b9190910192915050565b6001600160a01b0391909116815260200190565b6001600160a01b039586168152938516602085015260408401929092526060830152909116608082015260a00190565b901515815260200190565b90815260200190565b6000602082526108966020830184611e2d565b600060608252611ef36060830186611e2d565b60208301949094525060400152919050565b60208082526022908201527f456e756d657261626c655365743a20696e646578206f7574206f6620626f756e604082015261647360f01b606082015260800190565b6020808252602f908201527f416363657373436f6e74726f6c3a2073656e646572206d75737420626520616e60408201526e0818591b5a5b881d1bc819dc985b9d608a1b606082015260800190565b60208082526032908201527f4552433732313a207472616e7366657220746f206e6f6e20455243373231526560408201527131b2b4bb32b91034b6b83632b6b2b73a32b960711b606082015260800190565b6020808252601c908201527f4552433732313a20746f6b656e20616c7265616479206d696e74656400000000604082015260600190565b60208082526024908201527f4552433732313a207472616e7366657220746f20746865207a65726f206164646040820152637265737360e01b606082015260800190565b60208082526019908201527f4552433732313a20617070726f766520746f2063616c6c657200000000000000604082015260600190565b60208082526026908201527f416464726573733a20696e73756666696369656e742062616c616e636520666f6040820152651c8818d85b1b60d21b606082015260800190565b6020808252602c908201527f4552433732313a206f70657261746f7220717565727920666f72206e6f6e657860408201526b34b9ba32b73a103a37b5b2b760a11b606082015260800190565b60208082526030908201527f416363657373436f6e74726f6c3a2073656e646572206d75737420626520616e60408201526f2061646d696e20746f207265766f6b6560801b606082015260800190565b60208082526038908201527f4552433732313a20617070726f76652063616c6c6572206973206e6f74206f7760408201527f6e6572206e6f7220617070726f76656420666f7220616c6c0000000000000000606082015260800190565b6020808252602a908201527f4552433732313a2062616c616e636520717565727920666f7220746865207a65604082015269726f206164647265737360b01b606082015260800190565b60208082526022908201527f456e756d657261626c654d61703a20696e646578206f7574206f6620626f756e604082015261647360f01b606082015260800190565b6020808252818101527f4552433732313a206d696e7420746f20746865207a65726f2061646472657373604082015260600190565b6020808252602c908201527f4552433732313a20617070726f76656420717565727920666f72206e6f6e657860408201526b34b9ba32b73a103a37b5b2b760a11b606082015260800190565b6020808252600b908201526a139bdd08185b1b1bddd95960aa1b604082015260600190565b60208082526011908201527013919508131a5b5a5d081c995858da1959607a1b604082015260600190565b60208082526029908201527f4552433732313a207472616e73666572206f6620746f6b656e2074686174206960408201526839903737ba1037bbb760b91b606082015260800190565b6020808252602f908201527f4552433732314d657461646174613a2055524920717565727920666f72206e6f60408201526e3732bc34b9ba32b73a103a37b5b2b760891b606082015260800190565b60208082526021908201527f4552433732313a20617070726f76616c20746f2063757272656e74206f776e656040820152603960f91b606082015260800190565b6020808252601b908201527f45787465726e616c20747261646573206e6f7420616c6c6f7765640000000000604082015260600190565b60208082526031908201527f4552433732313a207472616e736665722063616c6c6572206973206e6f74206f6040820152701ddb995c881b9bdc88185c1c1c9bdd9959607a1b606082015260800190565b6020808252601d908201527f416464726573733a2063616c6c20746f206e6f6e2d636f6e7472616374000000604082015260600190565b6020808252602f908201527f416363657373436f6e74726f6c3a2063616e206f6e6c792072656e6f756e636560408201526e103937b632b9903337b91039b2b63360891b606082015260800190565b6000602082528251606060208401526125396080840182611e2d565b905060208401516040840152604084015160608401528091505092915050565b918252602082015260400190565b60405181810167ffffffffffffffff8111828210171561258657600080fd5b604052919050565b60005b838110156125a9578181015183820152602001612591565b838111156107c85750506000910152565b6001600160a01b0381168114610a2157600080fd5b6001600160e01b031981168114610a2157600080fdfe4552433732313a207472616e7366657220746f206e6f6e20455243373231526563656976657220696d706c656d656e7465725719df9ef2c4678b547f89e4f5ae410dbf400fc51cf3ded434c55f6adea2c43f4552433732313a206f776e657220717565727920666f72206e6f6e6578697374656e7420746f6b656ea2646970667358221220a1cef47be04483eb63e81305048db9fbc1ce43d0bbac735f801207c15cc986a864736f6c634300060c00335719df9ef2c4678b547f89e4f5ae410dbf400fc51cf3ded434c55f6adea2c43f",
    "sourcePath": "/Users/225153/Projects/proxy-test/contracts/NFT.sol",
    "compiler": {
        "name": "solc",
        "version": "0.6.12+commit.27d51765"
    },
    "functionHashes": {
        "DEFAULT_ADMIN_ROLE()": "a217fddf",
        "PAUSER_ROLE()": "e63ab1e9",
        "SYSTEM_ROLE()": "75071d2a",
        "_tokenURI()": "b4ce37d2",
        "approve(address,uint256)": "095ea7b3",
        "balanceOf(address)": "70a08231",
        "burn(uint256)": "42966c68",
        "getApproved(uint256)": "081812fc",
        "getRoleAdmin(bytes32)": "248a9ca3",
        "getRoleMember(bytes32,uint256)": "9010d07c",
        "getRoleMemberCount(bytes32)": "ca15c873",
        "getTokenProperty(uint256)": "38e5cdce",
        "grantRole(bytes32,address)": "2f2ff15d",
        "hasRole(bytes32,address)": "91d14854",
        "isApprovedForAll(address,address)": "e985e9c5",
        "mint(address,uint256,address)": "0d4d1513",
        "name()": "06fdde03",
        "ownerOf(uint256)": "6352211e",
        "properties(uint256)": "f7b10808",
        "renounceRole(bytes32,address)": "36568abe",
        "revokeRole(bytes32,address)": "d547741f",
        "safeTransferFrom(address,address,uint256)": "42842e0e",
        "safeTransferFrom(address,address,uint256,uint256)": "0febdd49",
        "setApprovalForAll(address,bool)": "a22cb465",
        "supportsInterface(bytes4)": "01ffc9a7",
        "symbol()": "95d89b41",
        "tokenByIndex(uint256)": "4f6ccce7",
        "tokenOfOwnerByIndex(address,uint256)": "2f745c59",
        "tokenURI(uint256)": "c87b56dd",
        "totalSupply()": "18160ddd",
        "transferFrom(address,address,uint256)": "23b872dd"
    },
    "gasEstimates": {
        "creation": {
            "codeDepositCost": "1975600",
            "executionCost": "infinite",
            "totalCost": "infinite"
        },
        "external": {
            "DEFAULT_ADMIN_ROLE()": "339",
            "PAUSER_ROLE()": "294",
            "SYSTEM_ROLE()": "infinite",
            "_tokenURI()": "infinite",
            "approve(address,uint256)": "infinite",
            "balanceOf(address)": "infinite",
            "burn(uint256)": "infinite",
            "getApproved(uint256)": "infinite",
            "getRoleAdmin(bytes32)": "1245",
            "getRoleMember(bytes32,uint256)": "infinite",
            "getRoleMemberCount(bytes32)": "infinite",
            "getTokenProperty(uint256)": "infinite",
            "grantRole(bytes32,address)": "infinite",
            "hasRole(bytes32,address)": "infinite",
            "isApprovedForAll(address,address)": "infinite",
            "mint(address,uint256,address)": "infinite",
            "name()": "infinite",
            "ownerOf(uint256)": "infinite",
            "properties(uint256)": "infinite",
            "renounceRole(bytes32,address)": "infinite",
            "revokeRole(bytes32,address)": "infinite",
            "safeTransferFrom(address,address,uint256)": "infinite",
            "safeTransferFrom(address,address,uint256,uint256)": "infinite",
            "setApprovalForAll(address,bool)": "infinite",
            "supportsInterface(bytes4)": "1329",
            "symbol()": "infinite",
            "tokenByIndex(uint256)": "3850",
            "tokenOfOwnerByIndex(address,uint256)": "infinite",
            "tokenURI(uint256)": "infinite",
            "totalSupply()": "1215",
            "transferFrom(address,address,uint256)": "infinite"
        },
        "internal": {
            "_beforeTokenTransfer(address,address,uint256)": "infinite"
        }
    }
}