{
    "contractName": "NFT",
    "abi": [
        {
            "inputs": [
                {
                    "internalType": "string",
                    "name": "_name",
                    "type": "string"
                },
                {
                    "internalType": "string",
                    "name": "_symbol",
                    "type": "string"
                },
                {
                    "internalType": "string",
                    "name": "_tokenURI",
                    "type": "string"
                },
                {
                    "internalType": "address",
                    "name": "_superAdmin",
                    "type": "address"
                },
                {
                    "internalType": "bool",
                    "name": "_allowTrade",
                    "type": "bool"
                },
                {
                    "internalType": "bool",
                    "name": "_isCapped",
                    "type": "bool"
                },
                {
                    "internalType": "uint256",
                    "name": "_tokenCap",
                    "type": "uint256"
                }
            ],
            "stateMutability": "nonpayable",
            "type": "constructor"
        },
        {
            "anonymous": false,
            "inputs": [
                {
                    "indexed": true,
                    "internalType": "address",
                    "name": "owner",
                    "type": "address"
                },
                {
                    "indexed": true,
                    "internalType": "address",
                    "name": "approved",
                    "type": "address"
                },
                {
                    "indexed": true,
                    "internalType": "uint256",
                    "name": "tokenId",
                    "type": "uint256"
                }
            ],
            "name": "Approval",
            "type": "event"
        },
        {
            "anonymous": false,
            "inputs": [
                {
                    "indexed": true,
                    "internalType": "address",
                    "name": "owner",
                    "type": "address"
                },
                {
                    "indexed": true,
                    "internalType": "address",
                    "name": "operator",
                    "type": "address"
                },
                {
                    "indexed": false,
                    "internalType": "bool",
                    "name": "approved",
                    "type": "bool"
                }
            ],
            "name": "ApprovalForAll",
            "type": "event"
        },
        {
            "anonymous": false,
            "inputs": [
                {
                    "indexed": true,
                    "internalType": "bytes32",
                    "name": "role",
                    "type": "bytes32"
                },
                {
                    "indexed": true,
                    "internalType": "bytes32",
                    "name": "previousAdminRole",
                    "type": "bytes32"
                },
                {
                    "indexed": true,
                    "internalType": "bytes32",
                    "name": "newAdminRole",
                    "type": "bytes32"
                }
            ],
            "name": "RoleAdminChanged",
            "type": "event"
        },
        {
            "anonymous": false,
            "inputs": [
                {
                    "indexed": true,
                    "internalType": "bytes32",
                    "name": "role",
                    "type": "bytes32"
                },
                {
                    "indexed": true,
                    "internalType": "address",
                    "name": "account",
                    "type": "address"
                },
                {
                    "indexed": true,
                    "internalType": "address",
                    "name": "sender",
                    "type": "address"
                }
            ],
            "name": "RoleGranted",
            "type": "event"
        },
        {
            "anonymous": false,
            "inputs": [
                {
                    "indexed": true,
                    "internalType": "bytes32",
                    "name": "role",
                    "type": "bytes32"
                },
                {
                    "indexed": true,
                    "internalType": "address",
                    "name": "account",
                    "type": "address"
                },
                {
                    "indexed": true,
                    "internalType": "address",
                    "name": "sender",
                    "type": "address"
                }
            ],
            "name": "RoleRevoked",
            "type": "event"
        },
        {
            "anonymous": false,
            "inputs": [
                {
                    "indexed": true,
                    "internalType": "address",
                    "name": "from",
                    "type": "address"
                },
                {
                    "indexed": true,
                    "internalType": "address",
                    "name": "to",
                    "type": "address"
                },
                {
                    "indexed": true,
                    "internalType": "uint256",
                    "name": "tokenId",
                    "type": "uint256"
                }
            ],
            "name": "Transfer",
            "type": "event"
        },
        {
            "inputs": [],
            "name": "DEFAULT_ADMIN_ROLE",
            "outputs": [
                {
                    "internalType": "bytes32",
                    "name": "",
                    "type": "bytes32"
                }
            ],
            "stateMutability": "view",
            "type": "function"
        },
        {
            "inputs": [],
            "name": "PAUSER_ROLE",
            "outputs": [
                {
                    "internalType": "bytes32",
                    "name": "",
                    "type": "bytes32"
                }
            ],
            "stateMutability": "view",
            "type": "function"
        },
        {
            "inputs": [],
            "name": "SYSTEM_ROLE",
            "outputs": [
                {
                    "internalType": "bytes32",
                    "name": "",
                    "type": "bytes32"
                }
            ],
            "stateMutability": "view",
            "type": "function"
        },
        {
            "inputs": [],
            "name": "_tokenURI",
            "outputs": [
                {
                    "internalType": "string",
                    "name": "",
                    "type": "string"
                }
            ],
            "stateMutability": "view",
            "type": "function"
        },
        {
            "inputs": [
                {
                    "internalType": "address",
                    "name": "to",
                    "type": "address"
                },
                {
                    "internalType": "uint256",
                    "name": "tokenId",
                    "type": "uint256"
                }
            ],
            "name": "approve",
            "outputs": [],
            "stateMutability": "nonpayable",
            "type": "function"
        },
        {
            "inputs": [
                {
                    "internalType": "address",
                    "name": "owner",
                    "type": "address"
                }
            ],
            "name": "balanceOf",
            "outputs": [
                {
                    "internalType": "uint256",
                    "name": "",
                    "type": "uint256"
                }
            ],
            "stateMutability": "view",
            "type": "function"
        },
        {
            "inputs": [
                {
                    "internalType": "uint256",
                    "name": "_tokenId",
                    "type": "uint256"
                }
            ],
            "name": "burn",
            "outputs": [],
            "stateMutability": "nonpayable",
            "type": "function"
        },
        {
            "inputs": [
                {
                    "internalType": "uint256",
                    "name": "tokenId",
                    "type": "uint256"
                }
            ],
            "name": "getApproved",
            "outputs": [
                {
                    "internalType": "address",
                    "name": "",
                    "type": "address"
                }
            ],
            "stateMutability": "view",
            "type": "function"
        },
        {
            "inputs": [
                {
                    "internalType": "bytes32",
                    "name": "role",
                    "type": "bytes32"
                }
            ],
            "name": "getRoleAdmin",
            "outputs": [
                {
                    "internalType": "bytes32",
                    "name": "",
                    "type": "bytes32"
                }
            ],
            "stateMutability": "view",
            "type": "function"
        },
        {
            "inputs": [
                {
                    "internalType": "bytes32",
                    "name": "role",
                    "type": "bytes32"
                },
                {
                    "internalType": "uint256",
                    "name": "index",
                    "type": "uint256"
                }
            ],
            "name": "getRoleMember",
            "outputs": [
                {
                    "internalType": "address",
                    "name": "",
                    "type": "address"
                }
            ],
            "stateMutability": "view",
            "type": "function"
        },
        {
            "inputs": [
                {
                    "internalType": "bytes32",
                    "name": "role",
                    "type": "bytes32"
                }
            ],
            "name": "getRoleMemberCount",
            "outputs": [
                {
                    "internalType": "uint256",
                    "name": "",
                    "type": "uint256"
                }
            ],
            "stateMutability": "view",
            "type": "function"
        },
        {
            "inputs": [
                {
                    "internalType": "bytes32",
                    "name": "role",
                    "type": "bytes32"
                },
                {
                    "internalType": "address",
                    "name": "account",
                    "type": "address"
                }
            ],
            "name": "grantRole",
            "outputs": [],
            "stateMutability": "nonpayable",
            "type": "function"
        },
        {
            "inputs": [
                {
                    "internalType": "bytes32",
                    "name": "role",
                    "type": "bytes32"
                },
                {
                    "internalType": "address",
                    "name": "account",
                    "type": "address"
                }
            ],
            "name": "hasRole",
            "outputs": [
                {
                    "internalType": "bool",
                    "name": "",
                    "type": "bool"
                }
            ],
            "stateMutability": "view",
            "type": "function"
        },
        {
            "inputs": [
                {
                    "internalType": "address",
                    "name": "owner",
                    "type": "address"
                },
                {
                    "internalType": "address",
                    "name": "operator",
                    "type": "address"
                }
            ],
            "name": "isApprovedForAll",
            "outputs": [
                {
                    "internalType": "bool",
                    "name": "",
                    "type": "bool"
                }
            ],
            "stateMutability": "view",
            "type": "function"
        },
        {
            "inputs": [
                {
                    "internalType": "address",
                    "name": "to",
                    "type": "address"
                }
            ],
            "name": "mint",
            "outputs": [
                {
                    "internalType": "uint256",
                    "name": "_tokenId",
                    "type": "uint256"
                }
            ],
            "stateMutability": "nonpayable",
            "type": "function"
        },
        {
            "inputs": [],
            "name": "name",
            "outputs": [
                {
                    "internalType": "string",
                    "name": "",
                    "type": "string"
                }
            ],
            "stateMutability": "view",
            "type": "function"
        },
        {
            "inputs": [
                {
                    "internalType": "uint256",
                    "name": "tokenId",
                    "type": "uint256"
                }
            ],
            "name": "ownerOf",
            "outputs": [
                {
                    "internalType": "address",
                    "name": "",
                    "type": "address"
                }
            ],
            "stateMutability": "view",
            "type": "function"
        },
        {
            "inputs": [
                {
                    "internalType": "bytes32",
                    "name": "role",
                    "type": "bytes32"
                },
                {
                    "internalType": "address",
                    "name": "account",
                    "type": "address"
                }
            ],
            "name": "renounceRole",
            "outputs": [],
            "stateMutability": "nonpayable",
            "type": "function"
        },
        {
            "inputs": [
                {
                    "internalType": "bytes32",
                    "name": "role",
                    "type": "bytes32"
                },
                {
                    "internalType": "address",
                    "name": "account",
                    "type": "address"
                }
            ],
            "name": "revokeRole",
            "outputs": [],
            "stateMutability": "nonpayable",
            "type": "function"
        },
        {
            "inputs": [
                {
                    "internalType": "address",
                    "name": "from",
                    "type": "address"
                },
                {
                    "internalType": "address",
                    "name": "to",
                    "type": "address"
                },
                {
                    "internalType": "uint256",
                    "name": "tokenId",
                    "type": "uint256"
                }
            ],
            "name": "safeTransferFrom",
            "outputs": [],
            "stateMutability": "nonpayable",
            "type": "function"
        },
        {
            "inputs": [
                {
                    "internalType": "address",
                    "name": "from",
                    "type": "address"
                },
                {
                    "internalType": "address",
                    "name": "to",
                    "type": "address"
                },
                {
                    "internalType": "uint256",
                    "name": "tokenId",
                    "type": "uint256"
                },
                {
                    "internalType": "bytes",
                    "name": "_data",
                    "type": "bytes"
                }
            ],
            "name": "safeTransferFrom",
            "outputs": [],
            "stateMutability": "nonpayable",
            "type": "function"
        },
        {
            "inputs": [
                {
                    "internalType": "address",
                    "name": "operator",
                    "type": "address"
                },
                {
                    "internalType": "bool",
                    "name": "approved",
                    "type": "bool"
                }
            ],
            "name": "setApprovalForAll",
            "outputs": [],
            "stateMutability": "nonpayable",
            "type": "function"
        },
        {
            "inputs": [
                {
                    "internalType": "bytes4",
                    "name": "interfaceId",
                    "type": "bytes4"
                }
            ],
            "name": "supportsInterface",
            "outputs": [
                {
                    "internalType": "bool",
                    "name": "",
                    "type": "bool"
                }
            ],
            "stateMutability": "view",
            "type": "function"
        },
        {
            "inputs": [],
            "name": "symbol",
            "outputs": [
                {
                    "internalType": "string",
                    "name": "",
                    "type": "string"
                }
            ],
            "stateMutability": "view",
            "type": "function"
        },
        {
            "inputs": [
                {
                    "internalType": "uint256",
                    "name": "index",
                    "type": "uint256"
                }
            ],
            "name": "tokenByIndex",
            "outputs": [
                {
                    "internalType": "uint256",
                    "name": "",
                    "type": "uint256"
                }
            ],
            "stateMutability": "view",
            "type": "function"
        },
        {
            "inputs": [
                {
                    "internalType": "address",
                    "name": "owner",
                    "type": "address"
                },
                {
                    "internalType": "uint256",
                    "name": "index",
                    "type": "uint256"
                }
            ],
            "name": "tokenOfOwnerByIndex",
            "outputs": [
                {
                    "internalType": "uint256",
                    "name": "",
                    "type": "uint256"
                }
            ],
            "stateMutability": "view",
            "type": "function"
        },
        {
            "inputs": [
                {
                    "internalType": "uint256",
                    "name": "tokenId",
                    "type": "uint256"
                }
            ],
            "name": "tokenURI",
            "outputs": [
                {
                    "internalType": "string",
                    "name": "",
                    "type": "string"
                }
            ],
            "stateMutability": "view",
            "type": "function"
        },
        {
            "inputs": [],
            "name": "totalSupply",
            "outputs": [
                {
                    "internalType": "uint256",
                    "name": "",
                    "type": "uint256"
                }
            ],
            "stateMutability": "view",
            "type": "function"
        },
        {
            "inputs": [
                {
                    "internalType": "address",
                    "name": "from",
                    "type": "address"
                },
                {
                    "internalType": "address",
                    "name": "to",
                    "type": "address"
                },
                {
                    "internalType": "uint256",
                    "name": "tokenId",
                    "type": "uint256"
                }
            ],
            "name": "transferFrom",
            "outputs": [],
            "stateMutability": "nonpayable",
            "type": "function"
        }
    ],
    "bytecode": "60806040523480156200001157600080fd5b506040516200286438038062002864833981810160405260e08110156200003757600080fd5b81019080805160405193929190846401000000008211156200005857600080fd5b9083019060208201858111156200006e57600080fd5b82516401000000008111828201881017156200008957600080fd5b82525081516020918201929091019080838360005b83811015620000b85781810151838201526020016200009e565b50505050905090810190601f168015620000e65780820380516001836020036101000a031916815260200191505b50604052602001805160405193929190846401000000008211156200010a57600080fd5b9083019060208201858111156200012057600080fd5b82516401000000008111828201881017156200013b57600080fd5b82525081516020918201929091019080838360005b838110156200016a57818101518382015260200162000150565b50505050905090810190601f168015620001985780820380516001836020036101000a031916815260200191505b5060405260200180516040519392919084640100000000821115620001bc57600080fd5b908301906020820185811115620001d257600080fd5b8251640100000000811182820188101715620001ed57600080fd5b82525081516020918201929091019080838360005b838110156200021c57818101518382015260200162000202565b50505050905090810190601f1680156200024a5780820380516001836020036101000a031916815260200191505b506040908152602082015190820151606083015160809093015191945092508686866200027e6301ffc9a760e01b62000372565b8251620002939060079060208601906200050d565b508151620002a99060089060208501906200050d565b508051620002bf9060099060208401906200050d565b50620002d26380ac58cd60e01b62000372565b620002e4635b5e139f60e01b62000372565b620002f663780e9d6360e01b62000372565b5050600b805460ff19168515151761ff0019166101008515150217905550600c81905562000326600085620003f7565b6200034a600080516020620028448339815191526200034462000407565b620003f7565b620003656000805160206200284483398151915285620003f7565b50505050505050620005a9565b6001600160e01b03198082161415620003d2576040805162461bcd60e51b815260206004820152601c60248201527f4552433136353a20696e76616c696420696e7465726661636520696400000000604482015290519081900360640190fd5b6001600160e01b0319166000908152602081905260409020805460ff19166001179055565b6200040382826200040b565b5050565b3390565b6000828152600a60209081526040909120620004329183906200108b62000486821b17901c565b1562000403576200044262000407565b6001600160a01b0316816001600160a01b0316837f2f8788117e7eff1d82e926ec794901d17c78024a50270940304540a733656f0d60405160405180910390a45050565b60006200049d836001600160a01b038416620004a6565b90505b92915050565b6000620004b48383620004f5565b620004ec57508154600181810184556000848152602080822090930184905584548482528286019093526040902091909155620004a0565b506000620004a0565b60009081526001919091016020526040902054151590565b828054600181600116156101000203166002900490600052602060002090601f016020900481019282601f106200055057805160ff191683800117855562000580565b8280016001018555821562000580579182015b828111156200058057825182559160200191906001019062000563565b506200058e92915062000592565b5090565b5b808211156200058e576000815560010162000593565b61228b80620005b96000396000f3fe608060405234801561001057600080fd5b50600436106101cf5760003560e01c80636a62784211610104578063a22cb465116100a2578063ca15c87311610071578063ca15c8731461063d578063d547741f1461065a578063e63ab1e914610686578063e985e9c51461068e576101cf565b8063a22cb46514610524578063b4ce37d214610552578063b88d4fde1461055a578063c87b56dd14610620576101cf565b80639010d07c116100de5780639010d07c146104c557806391d14854146104e857806395d89b4114610514578063a217fddf1461051c576101cf565b80636a6278421461047157806370a082311461049757806375071d2a146104bd576101cf565b80632f2ff15d1161017157806342842e0e1161014b57806342842e0e146103e457806342966c681461041a5780634f6ccce7146104375780636352211e14610454576101cf565b80632f2ff15d146103605780632f745c591461038c57806336568abe146103b8576101cf565b8063095ea7b3116101ad578063095ea7b3146102c557806318160ddd146102f357806323b872dd1461030d578063248a9ca314610343576101cf565b806301ffc9a7146101d457806306fdde031461020f578063081812fc1461028c575b600080fd5b6101fb600480360360208110156101ea57600080fd5b50356001600160e01b0319166106bc565b604080519115158252519081900360200190f35b6102176106db565b6040805160208082528351818301528351919283929083019185019080838360005b83811015610251578181015183820152602001610239565b50505050905090810190601f16801561027e5780820380516001836020036101000a031916815260200191505b509250505060405180910390f35b6102a9600480360360208110156102a257600080fd5b5035610771565b604080516001600160a01b039092168252519081900360200190f35b6102f1600480360360408110156102db57600080fd5b506001600160a01b0381351690602001356107d3565b005b6102fb6108ae565b60408051918252519081900360200190f35b6102f16004803603606081101561032357600080fd5b506001600160a01b038135811691602081013590911690604001356108bf565b6102fb6004803603602081101561035957600080fd5b5035610916565b6102f16004803603604081101561037657600080fd5b50803590602001356001600160a01b031661092b565b6102fb600480360360408110156103a257600080fd5b506001600160a01b038135169060200135610997565b6102f1600480360360408110156103ce57600080fd5b50803590602001356001600160a01b03166109c2565b6102f1600480360360608110156103fa57600080fd5b506001600160a01b03813581169160208101359091169060400135610a23565b6102f16004803603602081101561043057600080fd5b5035610a3e565b6102fb6004803603602081101561044d57600080fd5b5035610acd565b6102a96004803603602081101561046a57600080fd5b5035610ae3565b6102fb6004803603602081101561048757600080fd5b50356001600160a01b0316610b0b565b6102fb600480360360208110156104ad57600080fd5b50356001600160a01b0316610bf0565b6102fb610c58565b6102a9600480360360408110156104db57600080fd5b5080359060200135610c6a565b6101fb600480360360408110156104fe57600080fd5b50803590602001356001600160a01b0316610c82565b610217610c9a565b6102fb610cfb565b6102f16004803603604081101561053a57600080fd5b506001600160a01b0381351690602001351515610d00565b610217610e05565b6102f16004803603608081101561057057600080fd5b6001600160a01b038235811692602081013590911691604082013591908101906080810160608201356401000000008111156105ab57600080fd5b8201836020820111156105bd57600080fd5b803590602001918460018302840111640100000000831117156105df57600080fd5b91908080601f016020809104026020016040519081016040528093929190818152602001838380828437600092019190915250929550610e93945050505050565b6102176004803603602081101561063657600080fd5b5035610ef1565b6102fb6004803603602081101561065357600080fd5b5035610fc9565b6102f16004803603604081101561067057600080fd5b50803590602001356001600160a01b0316610fe0565b6102fb611039565b6101fb600480360360408110156106a457600080fd5b506001600160a01b038135811691602001351661105d565b6001600160e01b03191660009081526020819052604090205460ff1690565b60078054604080516020601f60026000196101006001881615020190951694909404938401819004810282018101909252828152606093909290918301828280156107675780601f1061073c57610100808354040283529160200191610767565b820191906000526020600020905b81548152906001019060200180831161074a57829003601f168201915b5050505050905090565b600061077c826110a0565b6107b75760405162461bcd60e51b815260040180806020018281038252602c815260200180612151602c913960400191505060405180910390fd5b506000908152600560205260409020546001600160a01b031690565b60006107de82610ae3565b9050806001600160a01b0316836001600160a01b031614156108315760405162461bcd60e51b81526004018080602001828103825260218152602001806121d56021913960400191505060405180910390fd5b806001600160a01b03166108436110ad565b6001600160a01b0316148061086457506108648161085f6110ad565b61105d565b61089f5760405162461bcd60e51b81526004018080602001828103825260388152602001806120a46038913960400191505060405180910390fd5b6108a983836110b1565b505050565b60006108ba600361111f565b905090565b6108d06108ca6110ad565b8261112a565b61090b5760405162461bcd60e51b81526004018080602001828103825260318152602001806121f66031913960400191505060405180910390fd5b6108a98383836111ce565b6000908152600a602052604090206002015490565b6000828152600a602052604090206002015461094e906109496110ad565b610c82565b6109895760405162461bcd60e51b815260040180806020018281038252602f815260200180611f7d602f913960400191505060405180910390fd5b610993828261131a565b5050565b6001600160a01b03821660009081526002602052604081206109b99083611383565b90505b92915050565b6109ca6110ad565b6001600160a01b0316816001600160a01b031614610a195760405162461bcd60e51b815260040180806020018281038252602f815260200180612227602f913960400191505060405180910390fd5b610993828261138f565b6108a983838360405180602001604052806000815250610e93565b610a466110ad565b6001600160a01b0316610a5882610ae3565b6001600160a01b03161480610a825750610a82600080516020611fde8339815191526109496110ad565b610ac1576040805162461bcd60e51b815260206004820152600b60248201526a139bdd08185b1b1bddd95960aa1b604482015290519081900360640190fd5b610aca816113f8565b50565b600080610adb600384611487565b509392505050565b60006109bc8260405180606001604052806029815260200161210660299139600391906114a3565b600b54600090610100900460ff161580610b405750600b54610100900460ff168015610b405750600c54610b3d6108ae565b11155b610b85576040805162461bcd60e51b815260206004820152601160248201527013919508131a5b5a5d081c995858da1959607a1b604482015290519081900360640190fd5b610b9f600080516020611fde8339815191526109496110ad565b610bde576040805162461bcd60e51b815260206004820152600b60248201526a139bdd08185b1b1bddd95960aa1b604482015290519081900360640190fd5b6000610be9836114b0565b9392505050565b60006001600160a01b038216610c375760405162461bcd60e51b815260040180806020018281038252602a8152602001806120dc602a913960400191505060405180910390fd5b6001600160a01b03821660009081526002602052604090206109bc9061111f565b600080516020611fde83398151915281565b6000828152600a602052604081206109b99083611383565b6000828152600a602052604081206109b990836114d3565b60088054604080516020601f60026000196101006001881615020190951694909404938401819004810282018101909252828152606093909290918301828280156107675780601f1061073c57610100808354040283529160200191610767565b600081565b610d086110ad565b6001600160a01b0316826001600160a01b03161415610d6e576040805162461bcd60e51b815260206004820152601960248201527f4552433732313a20617070726f766520746f2063616c6c657200000000000000604482015290519081900360640190fd5b8060066000610d7b6110ad565b6001600160a01b03908116825260208083019390935260409182016000908120918716808252919093529120805460ff191692151592909217909155610dbf6110ad565b6001600160a01b03167f17307eab39ab6107e8899845ad3d59bd9653f200f220920489ca2b5937696c318360405180821515815260200191505060405180910390a35050565b6009805460408051602060026001851615610100026000190190941693909304601f81018490048402820184019092528181529291830182828015610e8b5780601f10610e6057610100808354040283529160200191610e8b565b820191906000526020600020905b815481529060010190602001808311610e6e57829003601f168201915b505050505081565b610ea4610e9e6110ad565b8361112a565b610edf5760405162461bcd60e51b81526004018080602001828103825260318152602001806121f66031913960400191505060405180910390fd5b610eeb848484846114e8565b50505050565b6060610efc826110a0565b610f375760405162461bcd60e51b815260040180806020018281038252602f8152602001806121a6602f913960400191505060405180910390fd5b6009805460408051602060026001851615610100026000190190941693909304601f81018490048402820184019092528181529291830182828015610fbd5780601f10610f9257610100808354040283529160200191610fbd565b820191906000526020600020905b815481529060010190602001808311610fa057829003601f168201915b50505050509050919050565b6000818152600a602052604081206109bc9061111f565b6000828152600a6020526040902060020154610ffe906109496110ad565b610a195760405162461bcd60e51b81526004018080602001828103825260308152602001806120746030913960400191505060405180910390fd5b7f65d7a28e3265b37a6474929f336521b332c1681b933f6cb9f3376673440d862a81565b6001600160a01b03918216600090815260066020908152604080832093909416825291909152205460ff1690565b60006109b9836001600160a01b03841661153a565b60006109bc600383611584565b3390565b600081815260056020526040902080546001600160a01b0319166001600160a01b03841690811790915581906110e682610ae3565b6001600160a01b03167f8c5be1e5ebec7d5bd14f71427d1e84f3dd0314c0f7b2291e5b200ac8c7c3b92560405160405180910390a45050565b60006109bc82611590565b6000611135826110a0565b6111705760405162461bcd60e51b815260040180806020018281038252602c815260200180612048602c913960400191505060405180910390fd5b600061117b83610ae3565b9050806001600160a01b0316846001600160a01b031614806111b65750836001600160a01b03166111ab84610771565b6001600160a01b0316145b806111c657506111c6818561105d565b949350505050565b826001600160a01b03166111e182610ae3565b6001600160a01b0316146112265760405162461bcd60e51b815260040180806020018281038252602981526020018061217d6029913960400191505060405180910390fd5b6001600160a01b03821661126b5760405162461bcd60e51b8152600401808060200182810382526024815260200180611ffe6024913960400191505060405180910390fd5b611276838383611594565b6112816000826110b1565b6001600160a01b03831660009081526002602052604090206112a39082611637565b506001600160a01b03821660009081526002602052604090206112c69082611643565b506112d36003828461164f565b5080826001600160a01b0316846001600160a01b03167fddf252ad1be2c89b69c2b068fc378daa952ba7f163c4a11628f55a4df523b3ef60405160405180910390a4505050565b6000828152600a60205260409020611332908261108b565b156109935761133f6110ad565b6001600160a01b0316816001600160a01b0316837f2f8788117e7eff1d82e926ec794901d17c78024a50270940304540a733656f0d60405160405180910390a45050565b60006109b98383611665565b6000828152600a602052604090206113a790826116c9565b15610993576113b46110ad565b6001600160a01b0316816001600160a01b0316837ff6391f5c32d9c69d2a47ea670b442974b53935d1edc7fd64eb21e047a839171b60405160405180910390a45050565b600061140382610ae3565b905061141181600084611594565b61141c6000836110b1565b6001600160a01b038116600090815260026020526040902061143e9083611637565b5061144a6003836116de565b5060405182906000906001600160a01b038416907fddf252ad1be2c89b69c2b068fc378daa952ba7f163c4a11628f55a4df523b3ef908390a45050565b600080808061149686866116ea565b9097909650945050505050565b60006111c6848484611765565b6000806114bd6001611590565b90506114c9838261182f565b6109bc6001611849565b60006109b9836001600160a01b038416611852565b6114f38484846111ce565b6114ff8484848461186a565b610eeb5760405162461bcd60e51b8152600401808060200182810382526032815260200180611fac6032913960400191505060405180910390fd5b60006115468383611852565b61157c575081546001818101845560008481526020808220909301849055845484825282860190935260409020919091556109bc565b5060006109bc565b60006109b98383611852565b5490565b600b5460ff16806115ba57506115ba600080516020611fde8339815191526109496110ad565b806115e65750600b5460ff161580156115e657506115e6600080516020611fde83398151915283610c82565b6108a9576040805162461bcd60e51b815260206004820152601b60248201527f45787465726e616c20747261646573206e6f7420616c6c6f7765640000000000604482015290519081900360640190fd5b60006109b983836119d2565b60006109b9838361153a565b60006111c684846001600160a01b038516611a98565b815460009082106116a75760405162461bcd60e51b8152600401808060200182810382526022815260200180611f5b6022913960400191505060405180910390fd5b8260000182815481106116b657fe5b9060005260206000200154905092915050565b60006109b9836001600160a01b0384166119d2565b60006109b98383611b2f565b81546000908190831061172e5760405162461bcd60e51b815260040180806020018281038252602281526020018061212f6022913960400191505060405180910390fd5b600084600001848154811061173f57fe5b906000526020600020906002020190508060000154816001015492509250509250929050565b600082815260018401602052604081205482816118005760405162461bcd60e51b81526004018080602001828103825283818151815260200191508051906020019080838360005b838110156117c55781810151838201526020016117ad565b50505050905090810190601f1680156117f25780820380516001836020036101000a031916815260200191505b509250505060405180910390fd5b5084600001600182038154811061181357fe5b9060005260206000209060020201600101549150509392505050565b610993828260405180602001604052806000815250611c03565b80546001019055565b60009081526001919091016020526040902054151590565b600061187e846001600160a01b0316611c55565b61188a575060016111c6565b6060611998630a85bd0160e11b61189f6110ad565b88878760405160240180856001600160a01b03168152602001846001600160a01b0316815260200183815260200180602001828103825283818151815260200191508051906020019080838360005b838110156119065781810151838201526020016118ee565b50505050905090810190601f1680156119335780820380516001836020036101000a031916815260200191505b5095505050505050604051602081830303815290604052906001600160e01b0319166020820180516001600160e01b038381831617835250505050604051806060016040528060328152602001611fac603291396001600160a01b0388169190611c5b565b905060008180602001905160208110156119b157600080fd5b50516001600160e01b031916630a85bd0160e11b1492505050949350505050565b60008181526001830160205260408120548015611a8e5783546000198083019190810190600090879083908110611a0557fe5b9060005260206000200154905080876000018481548110611a2257fe5b600091825260208083209091019290925582815260018981019092526040902090840190558654879080611a5257fe5b600190038181906000526020600020016000905590558660010160008781526020019081526020016000206000905560019450505050506109bc565b60009150506109bc565b600082815260018401602052604081205480611afd575050604080518082018252838152602080820184815286546001818101895560008981528481209551600290930290950191825591519082015586548684528188019092529290912055610be9565b82856000016001830381548110611b1057fe5b9060005260206000209060020201600101819055506000915050610be9565b60008181526001830160205260408120548015611a8e5783546000198083019190810190600090879083908110611b6257fe5b9060005260206000209060020201905080876000018481548110611b8257fe5b600091825260208083208454600290930201918255600193840154918401919091558354825289830190526040902090840190558654879080611bc157fe5b60008281526020808220600260001990940193840201828155600190810183905592909355888152898201909252604082209190915594506109bc9350505050565b611c0d8383611c6a565b611c1a600084848461186a565b6108a95760405162461bcd60e51b8152600401808060200182810382526032815260200180611fac6032913960400191505060405180910390fd5b3b151590565b60606111c68484600085611d98565b6001600160a01b038216611cc5576040805162461bcd60e51b815260206004820181905260248201527f4552433732313a206d696e7420746f20746865207a65726f2061646472657373604482015290519081900360640190fd5b611cce816110a0565b15611d20576040805162461bcd60e51b815260206004820152601c60248201527f4552433732313a20746f6b656e20616c7265616479206d696e74656400000000604482015290519081900360640190fd5b611d2c60008383611594565b6001600160a01b0382166000908152600260205260409020611d4e9082611643565b50611d5b6003828461164f565b5060405181906001600160a01b038416906000907fddf252ad1be2c89b69c2b068fc378daa952ba7f163c4a11628f55a4df523b3ef908290a45050565b606082471015611dd95760405162461bcd60e51b81526004018080602001828103825260268152602001806120226026913960400191505060405180910390fd5b611de285611c55565b611e33576040805162461bcd60e51b815260206004820152601d60248201527f416464726573733a2063616c6c20746f206e6f6e2d636f6e7472616374000000604482015290519081900360640190fd5b60006060866001600160a01b031685876040518082805190602001908083835b60208310611e725780518252601f199092019160209182019101611e53565b6001836020036101000a03801982511681845116808217855250505050505090500191505060006040518083038185875af1925050503d8060008114611ed4576040519150601f19603f3d011682016040523d82523d6000602084013e611ed9565b606091505b5091509150611ee9828286611ef4565b979650505050505050565b60608315611f03575081610be9565b825115611f135782518084602001fd5b60405162461bcd60e51b81526020600482018181528451602484015284518593919283926044019190850190808383600083156117c55781810151838201526020016117ad56fe456e756d657261626c655365743a20696e646578206f7574206f6620626f756e6473416363657373436f6e74726f6c3a2073656e646572206d75737420626520616e2061646d696e20746f206772616e744552433732313a207472616e7366657220746f206e6f6e20455243373231526563656976657220696d706c656d656e7465725719df9ef2c4678b547f89e4f5ae410dbf400fc51cf3ded434c55f6adea2c43f4552433732313a207472616e7366657220746f20746865207a65726f2061646472657373416464726573733a20696e73756666696369656e742062616c616e636520666f722063616c6c4552433732313a206f70657261746f7220717565727920666f72206e6f6e6578697374656e7420746f6b656e416363657373436f6e74726f6c3a2073656e646572206d75737420626520616e2061646d696e20746f207265766f6b654552433732313a20617070726f76652063616c6c6572206973206e6f74206f776e6572206e6f7220617070726f76656420666f7220616c6c4552433732313a2062616c616e636520717565727920666f7220746865207a65726f20616464726573734552433732313a206f776e657220717565727920666f72206e6f6e6578697374656e7420746f6b656e456e756d657261626c654d61703a20696e646578206f7574206f6620626f756e64734552433732313a20617070726f76656420717565727920666f72206e6f6e6578697374656e7420746f6b656e4552433732313a207472616e73666572206f6620746f6b656e2074686174206973206e6f74206f776e4552433732314d657461646174613a2055524920717565727920666f72206e6f6e6578697374656e7420746f6b656e4552433732313a20617070726f76616c20746f2063757272656e74206f776e65724552433732313a207472616e736665722063616c6c6572206973206e6f74206f776e6572206e6f7220617070726f766564416363657373436f6e74726f6c3a2063616e206f6e6c792072656e6f756e636520726f6c657320666f722073656c66a2646970667358221220d7585d4ea71272ef7a69e4d7f31a222581e85889cac97aca1fb6f66ebbf9709064736f6c634300060c00335719df9ef2c4678b547f89e4f5ae410dbf400fc51cf3ded434c55f6adea2c43f",
    "sourcePath": "/Users/225153/Projects/ram/contracts/NFT.sol",
    "compiler": {
        "name": "solc",
        "version": "0.6.12+commit.27d51765"
    },
    "functionHashes": {
        "DEFAULT_ADMIN_ROLE()": "a217fddf",
        "PAUSER_ROLE()": "e63ab1e9",
        "SYSTEM_ROLE()": "75071d2a",
        "_tokenURI()": "b4ce37d2",
        "approve(address,uint256)": "095ea7b3",
        "balanceOf(address)": "70a08231",
        "burn(uint256)": "42966c68",
        "getApproved(uint256)": "081812fc",
        "getRoleAdmin(bytes32)": "248a9ca3",
        "getRoleMember(bytes32,uint256)": "9010d07c",
        "getRoleMemberCount(bytes32)": "ca15c873",
        "grantRole(bytes32,address)": "2f2ff15d",
        "hasRole(bytes32,address)": "91d14854",
        "isApprovedForAll(address,address)": "e985e9c5",
        "mint(address)": "6a627842",
        "name()": "06fdde03",
        "ownerOf(uint256)": "6352211e",
        "renounceRole(bytes32,address)": "36568abe",
        "revokeRole(bytes32,address)": "d547741f",
        "safeTransferFrom(address,address,uint256)": "42842e0e",
        "safeTransferFrom(address,address,uint256,bytes)": "b88d4fde",
        "setApprovalForAll(address,bool)": "a22cb465",
        "supportsInterface(bytes4)": "01ffc9a7",
        "symbol()": "95d89b41",
        "tokenByIndex(uint256)": "4f6ccce7",
        "tokenOfOwnerByIndex(address,uint256)": "2f745c59",
        "tokenURI(uint256)": "c87b56dd",
        "totalSupply()": "18160ddd",
        "transferFrom(address,address,uint256)": "23b872dd"
    },
    "gasEstimates": {
        "creation": {
            "codeDepositCost": "1768600",
            "executionCost": "infinite",
            "totalCost": "infinite"
        },
        "external": {
            "DEFAULT_ADMIN_ROLE()": "309",
            "PAUSER_ROLE()": "286",
            "SYSTEM_ROLE()": "infinite",
            "_tokenURI()": "infinite",
            "approve(address,uint256)": "infinite",
            "balanceOf(address)": "infinite",
            "burn(uint256)": "infinite",
            "getApproved(uint256)": "infinite",
            "getRoleAdmin(bytes32)": "1224",
            "getRoleMember(bytes32,uint256)": "infinite",
            "getRoleMemberCount(bytes32)": "infinite",
            "grantRole(bytes32,address)": "infinite",
            "hasRole(bytes32,address)": "infinite",
            "isApprovedForAll(address,address)": "1372",
            "mint(address)": "infinite",
            "name()": "infinite",
            "ownerOf(uint256)": "infinite",
            "renounceRole(bytes32,address)": "infinite",
            "revokeRole(bytes32,address)": "infinite",
            "safeTransferFrom(address,address,uint256)": "infinite",
            "safeTransferFrom(address,address,uint256,bytes)": "infinite",
            "setApprovalForAll(address,bool)": "infinite",
            "supportsInterface(bytes4)": "1210",
            "symbol()": "infinite",
            "tokenByIndex(uint256)": "infinite",
            "tokenOfOwnerByIndex(address,uint256)": "infinite",
            "tokenURI(uint256)": "infinite",
            "totalSupply()": "1141",
            "transferFrom(address,address,uint256)": "infinite"
        },
        "internal": {
            "_beforeTokenTransfer(address,address,uint256)": "infinite"
        }
    }
}