{
    "contractName": "NFT",
    "abi": [
        {
            "inputs": [
                {
                    "internalType": "string",
                    "name": "_name",
                    "type": "string"
                },
                {
                    "internalType": "string",
                    "name": "_symbol",
                    "type": "string"
                },
                {
                    "internalType": "string",
                    "name": "_tokenURI",
                    "type": "string"
                },
                {
                    "internalType": "uint256",
                    "name": "_contractId",
                    "type": "uint256"
                },
                {
                    "internalType": "uint256",
                    "name": "_propertyChoices",
                    "type": "uint256"
                },
                {
                    "internalType": "address",
                    "name": "_superAdmin",
                    "type": "address"
                },
                {
                    "internalType": "bool",
                    "name": "_allowTrade",
                    "type": "bool"
                },
                {
                    "internalType": "bool",
                    "name": "_isCapped",
                    "type": "bool"
                },
                {
                    "internalType": "uint256",
                    "name": "_tokenCap",
                    "type": "uint256"
                }
            ],
            "stateMutability": "nonpayable",
            "type": "constructor"
        },
        {
            "anonymous": false,
            "inputs": [
                {
                    "indexed": true,
                    "internalType": "address",
                    "name": "owner",
                    "type": "address"
                },
                {
                    "indexed": true,
                    "internalType": "address",
                    "name": "approved",
                    "type": "address"
                },
                {
                    "indexed": true,
                    "internalType": "uint256",
                    "name": "tokenId",
                    "type": "uint256"
                }
            ],
            "name": "Approval",
            "type": "event"
        },
        {
            "anonymous": false,
            "inputs": [
                {
                    "indexed": true,
                    "internalType": "address",
                    "name": "owner",
                    "type": "address"
                },
                {
                    "indexed": true,
                    "internalType": "address",
                    "name": "operator",
                    "type": "address"
                },
                {
                    "indexed": false,
                    "internalType": "bool",
                    "name": "approved",
                    "type": "bool"
                }
            ],
            "name": "ApprovalForAll",
            "type": "event"
        },
        {
            "anonymous": false,
            "inputs": [
                {
                    "indexed": true,
                    "internalType": "bytes32",
                    "name": "role",
                    "type": "bytes32"
                },
                {
                    "indexed": true,
                    "internalType": "bytes32",
                    "name": "previousAdminRole",
                    "type": "bytes32"
                },
                {
                    "indexed": true,
                    "internalType": "bytes32",
                    "name": "newAdminRole",
                    "type": "bytes32"
                }
            ],
            "name": "RoleAdminChanged",
            "type": "event"
        },
        {
            "anonymous": false,
            "inputs": [
                {
                    "indexed": true,
                    "internalType": "bytes32",
                    "name": "role",
                    "type": "bytes32"
                },
                {
                    "indexed": true,
                    "internalType": "address",
                    "name": "account",
                    "type": "address"
                },
                {
                    "indexed": true,
                    "internalType": "address",
                    "name": "sender",
                    "type": "address"
                }
            ],
            "name": "RoleGranted",
            "type": "event"
        },
        {
            "anonymous": false,
            "inputs": [
                {
                    "indexed": true,
                    "internalType": "bytes32",
                    "name": "role",
                    "type": "bytes32"
                },
                {
                    "indexed": true,
                    "internalType": "address",
                    "name": "account",
                    "type": "address"
                },
                {
                    "indexed": true,
                    "internalType": "address",
                    "name": "sender",
                    "type": "address"
                }
            ],
            "name": "RoleRevoked",
            "type": "event"
        },
        {
            "anonymous": false,
            "inputs": [
                {
                    "indexed": true,
                    "internalType": "address",
                    "name": "from",
                    "type": "address"
                },
                {
                    "indexed": true,
                    "internalType": "address",
                    "name": "to",
                    "type": "address"
                },
                {
                    "indexed": true,
                    "internalType": "uint256",
                    "name": "tokenId",
                    "type": "uint256"
                }
            ],
            "name": "Transfer",
            "type": "event"
        },
        {
            "inputs": [],
            "name": "DEFAULT_ADMIN_ROLE",
            "outputs": [
                {
                    "internalType": "bytes32",
                    "name": "",
                    "type": "bytes32"
                }
            ],
            "stateMutability": "view",
            "type": "function"
        },
        {
            "inputs": [],
            "name": "PAUSER_ROLE",
            "outputs": [
                {
                    "internalType": "bytes32",
                    "name": "",
                    "type": "bytes32"
                }
            ],
            "stateMutability": "view",
            "type": "function"
        },
        {
            "inputs": [],
            "name": "SYSTEM_ROLE",
            "outputs": [
                {
                    "internalType": "bytes32",
                    "name": "",
                    "type": "bytes32"
                }
            ],
            "stateMutability": "view",
            "type": "function"
        },
        {
            "inputs": [],
            "name": "_tokenURI",
            "outputs": [
                {
                    "internalType": "string",
                    "name": "",
                    "type": "string"
                }
            ],
            "stateMutability": "view",
            "type": "function"
        },
        {
            "inputs": [
                {
                    "internalType": "address",
                    "name": "to",
                    "type": "address"
                },
                {
                    "internalType": "uint256",
                    "name": "tokenId",
                    "type": "uint256"
                }
            ],
            "name": "approve",
            "outputs": [],
            "stateMutability": "nonpayable",
            "type": "function"
        },
        {
            "inputs": [
                {
                    "internalType": "address",
                    "name": "owner",
                    "type": "address"
                }
            ],
            "name": "balanceOf",
            "outputs": [
                {
                    "internalType": "uint256",
                    "name": "",
                    "type": "uint256"
                }
            ],
            "stateMutability": "view",
            "type": "function"
        },
        {
            "inputs": [
                {
                    "internalType": "uint256",
                    "name": "_tokenId",
                    "type": "uint256"
                }
            ],
            "name": "burn",
            "outputs": [],
            "stateMutability": "nonpayable",
            "type": "function"
        },
        {
            "inputs": [
                {
                    "internalType": "uint256",
                    "name": "tokenId",
                    "type": "uint256"
                }
            ],
            "name": "getApproved",
            "outputs": [
                {
                    "internalType": "address",
                    "name": "",
                    "type": "address"
                }
            ],
            "stateMutability": "view",
            "type": "function"
        },
        {
            "inputs": [
                {
                    "internalType": "bytes32",
                    "name": "role",
                    "type": "bytes32"
                }
            ],
            "name": "getRoleAdmin",
            "outputs": [
                {
                    "internalType": "bytes32",
                    "name": "",
                    "type": "bytes32"
                }
            ],
            "stateMutability": "view",
            "type": "function"
        },
        {
            "inputs": [
                {
                    "internalType": "bytes32",
                    "name": "role",
                    "type": "bytes32"
                },
                {
                    "internalType": "uint256",
                    "name": "index",
                    "type": "uint256"
                }
            ],
            "name": "getRoleMember",
            "outputs": [
                {
                    "internalType": "address",
                    "name": "",
                    "type": "address"
                }
            ],
            "stateMutability": "view",
            "type": "function"
        },
        {
            "inputs": [
                {
                    "internalType": "bytes32",
                    "name": "role",
                    "type": "bytes32"
                }
            ],
            "name": "getRoleMemberCount",
            "outputs": [
                {
                    "internalType": "uint256",
                    "name": "",
                    "type": "uint256"
                }
            ],
            "stateMutability": "view",
            "type": "function"
        },
        {
            "inputs": [
                {
                    "internalType": "bytes32",
                    "name": "role",
                    "type": "bytes32"
                },
                {
                    "internalType": "address",
                    "name": "account",
                    "type": "address"
                }
            ],
            "name": "grantRole",
            "outputs": [],
            "stateMutability": "nonpayable",
            "type": "function"
        },
        {
            "inputs": [
                {
                    "internalType": "bytes32",
                    "name": "role",
                    "type": "bytes32"
                },
                {
                    "internalType": "address",
                    "name": "account",
                    "type": "address"
                }
            ],
            "name": "hasRole",
            "outputs": [
                {
                    "internalType": "bool",
                    "name": "",
                    "type": "bool"
                }
            ],
            "stateMutability": "view",
            "type": "function"
        },
        {
            "inputs": [
                {
                    "internalType": "address",
                    "name": "owner",
                    "type": "address"
                },
                {
                    "internalType": "address",
                    "name": "operator",
                    "type": "address"
                }
            ],
            "name": "isApprovedForAll",
            "outputs": [
                {
                    "internalType": "bool",
                    "name": "",
                    "type": "bool"
                }
            ],
            "stateMutability": "view",
            "type": "function"
        },
        {
            "inputs": [
                {
                    "internalType": "address",
                    "name": "to",
                    "type": "address"
                },
                {
                    "internalType": "uint256",
                    "name": "_randomness",
                    "type": "uint256"
                },
                {
                    "internalType": "contract YGYStorageV1",
                    "name": "_storage",
                    "type": "address"
                }
            ],
            "name": "mint",
            "outputs": [
                {
                    "internalType": "uint256",
                    "name": "_tokenId",
                    "type": "uint256"
                }
            ],
            "stateMutability": "nonpayable",
            "type": "function"
        },
        {
            "inputs": [],
            "name": "name",
            "outputs": [
                {
                    "internalType": "string",
                    "name": "",
                    "type": "string"
                }
            ],
            "stateMutability": "view",
            "type": "function"
        },
        {
            "inputs": [
                {
                    "internalType": "uint256",
                    "name": "tokenId",
                    "type": "uint256"
                }
            ],
            "name": "ownerOf",
            "outputs": [
                {
                    "internalType": "address",
                    "name": "",
                    "type": "address"
                }
            ],
            "stateMutability": "view",
            "type": "function"
        },
        {
            "inputs": [
                {
                    "internalType": "uint256",
                    "name": "",
                    "type": "uint256"
                }
            ],
            "name": "properties",
            "outputs": [
                {
                    "internalType": "string",
                    "name": "pType",
                    "type": "string"
                },
                {
                    "internalType": "uint256",
                    "name": "pValue",
                    "type": "uint256"
                },
                {
                    "internalType": "bytes32",
                    "name": "extra",
                    "type": "bytes32"
                }
            ],
            "stateMutability": "view",
            "type": "function"
        },
        {
            "inputs": [
                {
                    "internalType": "bytes32",
                    "name": "role",
                    "type": "bytes32"
                },
                {
                    "internalType": "address",
                    "name": "account",
                    "type": "address"
                }
            ],
            "name": "renounceRole",
            "outputs": [],
            "stateMutability": "nonpayable",
            "type": "function"
        },
        {
            "inputs": [
                {
                    "internalType": "bytes32",
                    "name": "role",
                    "type": "bytes32"
                },
                {
                    "internalType": "address",
                    "name": "account",
                    "type": "address"
                }
            ],
            "name": "revokeRole",
            "outputs": [],
            "stateMutability": "nonpayable",
            "type": "function"
        },
        {
            "inputs": [
                {
                    "internalType": "address",
                    "name": "from",
                    "type": "address"
                },
                {
                    "internalType": "address",
                    "name": "to",
                    "type": "address"
                },
                {
                    "internalType": "uint256",
                    "name": "tokenId",
                    "type": "uint256"
                }
            ],
            "name": "safeTransferFrom",
            "outputs": [],
            "stateMutability": "nonpayable",
            "type": "function"
        },
        {
            "inputs": [
                {
                    "internalType": "address",
                    "name": "from",
                    "type": "address"
                },
                {
                    "internalType": "address",
                    "name": "to",
                    "type": "address"
                },
                {
                    "internalType": "uint256",
                    "name": "tokenId",
                    "type": "uint256"
                },
                {
                    "internalType": "bytes",
                    "name": "_data",
                    "type": "bytes"
                }
            ],
            "name": "safeTransferFrom",
            "outputs": [],
            "stateMutability": "nonpayable",
            "type": "function"
        },
        {
            "inputs": [
                {
                    "internalType": "address",
                    "name": "operator",
                    "type": "address"
                },
                {
                    "internalType": "bool",
                    "name": "approved",
                    "type": "bool"
                }
            ],
            "name": "setApprovalForAll",
            "outputs": [],
            "stateMutability": "nonpayable",
            "type": "function"
        },
        {
            "inputs": [
                {
                    "internalType": "bytes4",
                    "name": "interfaceId",
                    "type": "bytes4"
                }
            ],
            "name": "supportsInterface",
            "outputs": [
                {
                    "internalType": "bool",
                    "name": "",
                    "type": "bool"
                }
            ],
            "stateMutability": "view",
            "type": "function"
        },
        {
            "inputs": [],
            "name": "symbol",
            "outputs": [
                {
                    "internalType": "string",
                    "name": "",
                    "type": "string"
                }
            ],
            "stateMutability": "view",
            "type": "function"
        },
        {
            "inputs": [
                {
                    "internalType": "uint256",
                    "name": "index",
                    "type": "uint256"
                }
            ],
            "name": "tokenByIndex",
            "outputs": [
                {
                    "internalType": "uint256",
                    "name": "",
                    "type": "uint256"
                }
            ],
            "stateMutability": "view",
            "type": "function"
        },
        {
            "inputs": [
                {
                    "internalType": "address",
                    "name": "owner",
                    "type": "address"
                },
                {
                    "internalType": "uint256",
                    "name": "index",
                    "type": "uint256"
                }
            ],
            "name": "tokenOfOwnerByIndex",
            "outputs": [
                {
                    "internalType": "uint256",
                    "name": "",
                    "type": "uint256"
                }
            ],
            "stateMutability": "view",
            "type": "function"
        },
        {
            "inputs": [
                {
                    "internalType": "uint256",
                    "name": "tokenId",
                    "type": "uint256"
                }
            ],
            "name": "tokenURI",
            "outputs": [
                {
                    "internalType": "string",
                    "name": "",
                    "type": "string"
                }
            ],
            "stateMutability": "view",
            "type": "function"
        },
        {
            "inputs": [],
            "name": "totalSupply",
            "outputs": [
                {
                    "internalType": "uint256",
                    "name": "",
                    "type": "uint256"
                }
            ],
            "stateMutability": "view",
            "type": "function"
        },
        {
            "inputs": [
                {
                    "internalType": "address",
                    "name": "from",
                    "type": "address"
                },
                {
                    "internalType": "address",
                    "name": "to",
                    "type": "address"
                },
                {
                    "internalType": "uint256",
                    "name": "tokenId",
                    "type": "uint256"
                }
            ],
            "name": "transferFrom",
            "outputs": [],
            "stateMutability": "nonpayable",
            "type": "function"
        }
    ],
    "bytecode": "60806040523480156200001157600080fd5b5060405162002cbf38038062002cbf83398181016040526101208110156200003857600080fd5b81019080805160405193929190846401000000008211156200005957600080fd5b9083019060208201858111156200006f57600080fd5b82516401000000008111828201881017156200008a57600080fd5b82525081516020918201929091019080838360005b83811015620000b95781810151838201526020016200009f565b50505050905090810190601f168015620000e75780820380516001836020036101000a031916815260200191505b50604052602001805160405193929190846401000000008211156200010b57600080fd5b9083019060208201858111156200012157600080fd5b82516401000000008111828201881017156200013c57600080fd5b82525081516020918201929091019080838360005b838110156200016b57818101518382015260200162000151565b50505050905090810190601f168015620001995780820380516001836020036101000a031916815260200191505b5060405260200180516040519392919084640100000000821115620001bd57600080fd5b908301906020820185811115620001d357600080fd5b8251640100000000811182820188101715620001ee57600080fd5b82525081516020918201929091019080838360005b838110156200021d57818101518382015260200162000203565b50505050905090810190601f1680156200024b5780820380516001836020036101000a031916815260200191505b5060409081526020820151908201516060830151608084015160a085015160c0909501519396509194509290918888886200028d6301ffc9a760e01b6200038d565b8251620002a290600790602086019062000528565b508151620002b890600890602085019062000528565b508051620002ce90600990602084019062000528565b50620002e16380ac58cd60e01b6200038d565b620002f3635b5e139f60e01b6200038d565b6200030563780e9d6360e01b6200038d565b5050600c805460ff19168515151761ff0019166101008515150217905550600d819055600b869055600f8590556200033f60008562000412565b6200036360008051602062002c9f8339815191526200035d62000422565b62000412565b6200037e60008051602062002c9f8339815191528562000412565b505050505050505050620005c4565b6001600160e01b03198082161415620003ed576040805162461bcd60e51b815260206004820152601c60248201527f4552433136353a20696e76616c696420696e7465726661636520696400000000604482015290519081900360640190fd5b6001600160e01b0319166000908152602081905260409020805460ff19166001179055565b6200041e828262000426565b5050565b3390565b6000828152600a602090815260409091206200044d91839062001438620004a1821b17901c565b156200041e576200045d62000422565b6001600160a01b0316816001600160a01b0316837f2f8788117e7eff1d82e926ec794901d17c78024a50270940304540a733656f0d60405160405180910390a45050565b6000620004b8836001600160a01b038416620004c1565b90505b92915050565b6000620004cf838362000510565b6200050757508154600181810184556000848152602080822090930184905584548482528286019093526040902091909155620004bb565b506000620004bb565b60009081526001919091016020526040902054151590565b828054600181600116156101000203166002900490600052602060002090601f016020900481019282601f106200056b57805160ff19168380011785556200059b565b828001600101855582156200059b579182015b828111156200059b5782518255916020019190600101906200057e565b50620005a9929150620005ad565b5090565b5b80821115620005a95760008155600101620005ae565b6126cb80620005d46000396000f3fe608060405234801561001057600080fd5b50600436106101da5760003560e01c806370a0823111610104578063b4ce37d2116100a2578063d547741f11610071578063d547741f14610675578063e63ab1e9146106a1578063e985e9c5146106a9578063f7b10808146106d7576101da565b8063b4ce37d21461056d578063b88d4fde14610575578063c87b56dd1461063b578063ca15c87314610658576101da565b806391d14854116100de57806391d148541461050357806395d89b411461052f578063a217fddf14610537578063a22cb4651461053f576101da565b806370a08231146104b257806375071d2a146104d85780639010d07c146104e0576101da565b8063248a9ca31161017c57806342842e0e1161014b57806342842e0e1461042557806342966c681461045b5780634f6ccce7146104785780636352211e14610495576101da565b8063248a9ca3146103845780632f2ff15d146103a15780632f745c59146103cd57806336568abe146103f9576101da565b8063095ea7b3116101b8578063095ea7b3146102d05780630d4d1513146102fe57806318160ddd1461034657806323b872dd1461034e576101da565b806301ffc9a7146101df57806306fdde031461021a578063081812fc14610297575b600080fd5b610206600480360360208110156101f557600080fd5b50356001600160e01b03191661077a565b604080519115158252519081900360200190f35b610222610799565b6040805160208082528351818301528351919283929083019185019080838360005b8381101561025c578181015183820152602001610244565b50505050905090810190601f1680156102895780820380516001836020036101000a031916815260200191505b509250505060405180910390f35b6102b4600480360360208110156102ad57600080fd5b503561082f565b604080516001600160a01b039092168252519081900360200190f35b6102fc600480360360408110156102e657600080fd5b506001600160a01b038135169060200135610891565b005b6103346004803603606081101561031457600080fd5b506001600160a01b0381358116916020810135916040909101351661096c565b60408051918252519081900360200190f35b610334610c98565b6102fc6004803603606081101561036457600080fd5b506001600160a01b03813581169160208101359091169060400135610ca9565b6103346004803603602081101561039a57600080fd5b5035610d00565b6102fc600480360360408110156103b757600080fd5b50803590602001356001600160a01b0316610d15565b610334600480360360408110156103e357600080fd5b506001600160a01b038135169060200135610d7c565b6102fc6004803603604081101561040f57600080fd5b50803590602001356001600160a01b0316610da7565b6102fc6004803603606081101561043b57600080fd5b506001600160a01b03813581169160208101359091169060400135610e08565b6102fc6004803603602081101561047157600080fd5b5035610e23565b6103346004803603602081101561048e57600080fd5b5035610eb2565b6102b4600480360360208110156104ab57600080fd5b5035610ec8565b610334600480360360208110156104c857600080fd5b50356001600160a01b0316610ef0565b610334610f58565b6102b4600480360360408110156104f657600080fd5b5080359060200135610f6a565b6102066004803603604081101561051957600080fd5b50803590602001356001600160a01b0316610f82565b610222610f9a565b610334610ffb565b6102fc6004803603604081101561055557600080fd5b506001600160a01b0381351690602001351515611000565b610222611105565b6102fc6004803603608081101561058b57600080fd5b6001600160a01b038235811692602081013590911691604082013591908101906080810160608201356401000000008111156105c657600080fd5b8201836020820111156105d857600080fd5b803590602001918460018302840111640100000000831117156105fa57600080fd5b91908080601f016020809104026020016040519081016040528093929190818152602001838380828437600092019190915250929550611193945050505050565b6102226004803603602081101561065157600080fd5b50356111f1565b6103346004803603602081101561066e57600080fd5b50356112c9565b6102fc6004803603604081101561068b57600080fd5b50803590602001356001600160a01b03166112e0565b610334611339565b610206600480360360408110156106bf57600080fd5b506001600160a01b038135811691602001351661135d565b6106f4600480360360208110156106ed57600080fd5b503561138b565b6040518080602001848152602001838152602001828103825285818151815260200191508051906020019080838360005b8381101561073d578181015183820152602001610725565b50505050905090810190601f16801561076a5780820380516001836020036101000a031916815260200191505b5094505050505060405180910390f35b6001600160e01b03191660009081526020819052604090205460ff1690565b60078054604080516020601f60026000196101006001881615020190951694909404938401819004810282018101909252828152606093909290918301828280156108255780601f106107fa57610100808354040283529160200191610825565b820191906000526020600020905b81548152906001019060200180831161080857829003601f168201915b5050505050905090565b600061083a8261144d565b6108755760405162461bcd60e51b815260040180806020018281038252602c815260200180612591602c913960400191505060405180910390fd5b506000908152600560205260409020546001600160a01b031690565b600061089c82610ec8565b9050806001600160a01b0316836001600160a01b031614156108ef5760405162461bcd60e51b81526004018080602001828103825260218152602001806126156021913960400191505060405180910390fd5b806001600160a01b031661090161145a565b6001600160a01b0316148061092257506109228161091d61145a565b61135d565b61095d5760405162461bcd60e51b81526004018080602001828103825260388152602001806124e46038913960400191505060405180910390fd5b610967838361145e565b505050565b600c54600090610100900460ff1615806109a15750600c54610100900460ff1680156109a15750600d5461099e610c98565b11155b6109e6576040805162461bcd60e51b815260206004820152601160248201527013919508131a5b5a5d081c995858da1959607a1b604482015290519081900360640190fd5b610a0560008051602061241e833981519152610a0061145a565b610f82565b610a44576040805162461bcd60e51b815260206004820152600b60248201526a139bdd08185b1b1bddd95960aa1b604482015290519081900360640190fd5b6000610a4f856114cc565b9050600080600f541115610ae55773__$3fdcce1c0af91fca2ac7985b7882d3b9ef$__63d81f95d4600f54876040518363ffffffff1660e01b8152600401808381526020018281526020019250505060206040518083038186803b158015610ab657600080fd5b505af4158015610aca573d6000803e3d6000fd5b505050506040513d6020811015610ae057600080fd5b505190505b6060600080866001600160a01b0316635498d4c0600b54866040518363ffffffff1660e01b8152600401808381526020018281526020019250505060006040518083038186803b158015610b3857600080fd5b505afa158015610b4c573d6000803e3d6000fd5b505050506040513d6000823e601f3d908101601f191682016040526060811015610b7557600080fd5b8101908080516040519392919084640100000000821115610b9557600080fd5b908301906020820185811115610baa57600080fd5b8251640100000000811182820188101715610bc457600080fd5b82525081516020918201929091019080838360005b83811015610bf1578181015183820152602001610bd9565b50505050905090810190601f168015610c1e5780820380516001836020036101000a031916815260200191505b5060408181526020838101519382015160608401835287845281840185905283830181905260008d8152600e83529290922083518051989b509499509197509195909450610c729350849290910190612307565b5060208201516001820155604090910151600290910155509293505050505b9392505050565b6000610ca460036114ef565b905090565b610cba610cb461145a565b826114fa565b610cf55760405162461bcd60e51b81526004018080602001828103825260318152602001806126366031913960400191505060405180910390fd5b61096783838361159e565b6000908152600a602052604090206002015490565b6000828152600a6020526040902060020154610d3390610a0061145a565b610d6e5760405162461bcd60e51b815260040180806020018281038252602f8152602001806123bd602f913960400191505060405180910390fd5b610d7882826116ea565b5050565b6001600160a01b0382166000908152600260205260408120610d9e9083611753565b90505b92915050565b610daf61145a565b6001600160a01b0316816001600160a01b031614610dfe5760405162461bcd60e51b815260040180806020018281038252602f815260200180612667602f913960400191505060405180910390fd5b610d78828261175f565b61096783838360405180602001604052806000815250611193565b610e2b61145a565b6001600160a01b0316610e3d82610ec8565b6001600160a01b03161480610e675750610e6760008051602061241e833981519152610a0061145a565b610ea6576040805162461bcd60e51b815260206004820152600b60248201526a139bdd08185b1b1bddd95960aa1b604482015290519081900360640190fd5b610eaf816117c8565b50565b600080610ec0600384611857565b509392505050565b6000610da1826040518060600160405280602981526020016125466029913960039190611873565b60006001600160a01b038216610f375760405162461bcd60e51b815260040180806020018281038252602a81526020018061251c602a913960400191505060405180910390fd5b6001600160a01b0382166000908152600260205260409020610da1906114ef565b60008051602061241e83398151915281565b6000828152600a60205260408120610d9e9083611753565b6000828152600a60205260408120610d9e9083611880565b60088054604080516020601f60026000196101006001881615020190951694909404938401819004810282018101909252828152606093909290918301828280156108255780601f106107fa57610100808354040283529160200191610825565b600081565b61100861145a565b6001600160a01b0316826001600160a01b0316141561106e576040805162461bcd60e51b815260206004820152601960248201527f4552433732313a20617070726f766520746f2063616c6c657200000000000000604482015290519081900360640190fd5b806006600061107b61145a565b6001600160a01b03908116825260208083019390935260409182016000908120918716808252919093529120805460ff1916921515929092179091556110bf61145a565b6001600160a01b03167f17307eab39ab6107e8899845ad3d59bd9653f200f220920489ca2b5937696c318360405180821515815260200191505060405180910390a35050565b6009805460408051602060026001851615610100026000190190941693909304601f8101849004840282018401909252818152929183018282801561118b5780601f106111605761010080835404028352916020019161118b565b820191906000526020600020905b81548152906001019060200180831161116e57829003601f168201915b505050505081565b6111a461119e61145a565b836114fa565b6111df5760405162461bcd60e51b81526004018080602001828103825260318152602001806126366031913960400191505060405180910390fd5b6111eb84848484611895565b50505050565b60606111fc8261144d565b6112375760405162461bcd60e51b815260040180806020018281038252602f8152602001806125e6602f913960400191505060405180910390fd5b6009805460408051602060026001851615610100026000190190941693909304601f810184900484028201840190925281815292918301828280156112bd5780601f10611292576101008083540402835291602001916112bd565b820191906000526020600020905b8154815290600101906020018083116112a057829003601f168201915b50505050509050919050565b6000818152600a60205260408120610da1906114ef565b6000828152600a60205260409020600201546112fe90610a0061145a565b610dfe5760405162461bcd60e51b81526004018080602001828103825260308152602001806124b46030913960400191505060405180910390fd5b7f65d7a28e3265b37a6474929f336521b332c1681b933f6cb9f3376673440d862a81565b6001600160a01b03918216600090815260066020908152604080832093909416825291909152205460ff1690565b600e6020908152600091825260409182902080548351601f600260001961010060018616150201909316929092049182018490048402810184019094528084529092918391908301828280156114225780601f106113f757610100808354040283529160200191611422565b820191906000526020600020905b81548152906001019060200180831161140557829003601f168201915b5050505050908060010154908060020154905083565b6000610d9e836001600160a01b0384166118e7565b6000610da1600383611931565b3390565b600081815260056020526040902080546001600160a01b0319166001600160a01b038416908117909155819061149382610ec8565b6001600160a01b03167f8c5be1e5ebec7d5bd14f71427d1e84f3dd0314c0f7b2291e5b200ac8c7c3b92560405160405180910390a45050565b6000806114d9600161193d565b90506114e58382611941565b610da1600161195b565b6000610da18261193d565b60006115058261144d565b6115405760405162461bcd60e51b815260040180806020018281038252602c815260200180612488602c913960400191505060405180910390fd5b600061154b83610ec8565b9050806001600160a01b0316846001600160a01b031614806115865750836001600160a01b031661157b8461082f565b6001600160a01b0316145b806115965750611596818561135d565b949350505050565b826001600160a01b03166115b182610ec8565b6001600160a01b0316146115f65760405162461bcd60e51b81526004018080602001828103825260298152602001806125bd6029913960400191505060405180910390fd5b6001600160a01b03821661163b5760405162461bcd60e51b815260040180806020018281038252602481526020018061243e6024913960400191505060405180910390fd5b611646838383611964565b61165160008261145e565b6001600160a01b03831660009081526002602052604090206116739082611a07565b506001600160a01b03821660009081526002602052604090206116969082611a13565b506116a360038284611a1f565b5080826001600160a01b0316846001600160a01b03167fddf252ad1be2c89b69c2b068fc378daa952ba7f163c4a11628f55a4df523b3ef60405160405180910390a4505050565b6000828152600a602052604090206117029082611438565b15610d785761170f61145a565b6001600160a01b0316816001600160a01b0316837f2f8788117e7eff1d82e926ec794901d17c78024a50270940304540a733656f0d60405160405180910390a45050565b6000610d9e8383611a35565b6000828152600a602052604090206117779082611a99565b15610d785761178461145a565b6001600160a01b0316816001600160a01b0316837ff6391f5c32d9c69d2a47ea670b442974b53935d1edc7fd64eb21e047a839171b60405160405180910390a45050565b60006117d382610ec8565b90506117e181600084611964565b6117ec60008361145e565b6001600160a01b038116600090815260026020526040902061180e9083611a07565b5061181a600383611aae565b5060405182906000906001600160a01b038416907fddf252ad1be2c89b69c2b068fc378daa952ba7f163c4a11628f55a4df523b3ef908390a45050565b60008080806118668686611aba565b9097909650945050505050565b6000611596848484611b35565b6000610d9e836001600160a01b038416611bff565b6118a084848461159e565b6118ac84848484611c17565b6111eb5760405162461bcd60e51b81526004018080602001828103825260328152602001806123ec6032913960400191505060405180910390fd5b60006118f38383611bff565b61192957508154600181810184556000848152602080822090930184905584548482528286019093526040902091909155610da1565b506000610da1565b6000610d9e8383611bff565b5490565b610d78828260405180602001604052806000815250611d7f565b80546001019055565b600c5460ff168061198a575061198a60008051602061241e833981519152610a0061145a565b806119b65750600c5460ff161580156119b657506119b660008051602061241e83398151915283610f82565b610967576040805162461bcd60e51b815260206004820152601b60248201527f45787465726e616c20747261646573206e6f7420616c6c6f7765640000000000604482015290519081900360640190fd5b6000610d9e8383611dd1565b6000610d9e83836118e7565b600061159684846001600160a01b038516611e97565b81546000908210611a775760405162461bcd60e51b815260040180806020018281038252602281526020018061239b6022913960400191505060405180910390fd5b826000018281548110611a8657fe5b9060005260206000200154905092915050565b6000610d9e836001600160a01b038416611dd1565b6000610d9e8383611f2e565b815460009081908310611afe5760405162461bcd60e51b815260040180806020018281038252602281526020018061256f6022913960400191505060405180910390fd5b6000846000018481548110611b0f57fe5b906000526020600020906002020190508060000154816001015492509250509250929050565b60008281526001840160205260408120548281611bd05760405162461bcd60e51b81526004018080602001828103825283818151815260200191508051906020019080838360005b83811015611b95578181015183820152602001611b7d565b50505050905090810190601f168015611bc25780820380516001836020036101000a031916815260200191505b509250505060405180910390fd5b50846000016001820381548110611be357fe5b9060005260206000209060020201600101549150509392505050565b60009081526001919091016020526040902054151590565b6000611c2b846001600160a01b0316612002565b611c3757506001611596565b6060611d45630a85bd0160e11b611c4c61145a565b88878760405160240180856001600160a01b03168152602001846001600160a01b0316815260200183815260200180602001828103825283818151815260200191508051906020019080838360005b83811015611cb3578181015183820152602001611c9b565b50505050905090810190601f168015611ce05780820380516001836020036101000a031916815260200191505b5095505050505050604051602081830303815290604052906001600160e01b0319166020820180516001600160e01b0383818316178352505050506040518060600160405280603281526020016123ec603291396001600160a01b0388169190612008565b90506000818060200190516020811015611d5e57600080fd5b50516001600160e01b031916630a85bd0160e11b1492505050949350505050565b611d898383612017565b611d966000848484611c17565b6109675760405162461bcd60e51b81526004018080602001828103825260328152602001806123ec6032913960400191505060405180910390fd5b60008181526001830160205260408120548015611e8d5783546000198083019190810190600090879083908110611e0457fe5b9060005260206000200154905080876000018481548110611e2157fe5b600091825260208083209091019290925582815260018981019092526040902090840190558654879080611e5157fe5b60019003818190600052602060002001600090559055866001016000878152602001908152602001600020600090556001945050505050610da1565b6000915050610da1565b600082815260018401602052604081205480611efc575050604080518082018252838152602080820184815286546001818101895560008981528481209551600290930290950191825591519082015586548684528188019092529290912055610c91565b82856000016001830381548110611f0f57fe5b9060005260206000209060020201600101819055506000915050610c91565b60008181526001830160205260408120548015611e8d5783546000198083019190810190600090879083908110611f6157fe5b9060005260206000209060020201905080876000018481548110611f8157fe5b600091825260208083208454600290930201918255600193840154918401919091558354825289830190526040902090840190558654879080611fc057fe5b6000828152602080822060026000199094019384020182815560019081018390559290935588815289820190925260408220919091559450610da19350505050565b3b151590565b60606115968484600085612145565b6001600160a01b038216612072576040805162461bcd60e51b815260206004820181905260248201527f4552433732313a206d696e7420746f20746865207a65726f2061646472657373604482015290519081900360640190fd5b61207b8161144d565b156120cd576040805162461bcd60e51b815260206004820152601c60248201527f4552433732313a20746f6b656e20616c7265616479206d696e74656400000000604482015290519081900360640190fd5b6120d960008383611964565b6001600160a01b03821660009081526002602052604090206120fb9082611a13565b5061210860038284611a1f565b5060405181906001600160a01b038416906000907fddf252ad1be2c89b69c2b068fc378daa952ba7f163c4a11628f55a4df523b3ef908290a45050565b6060824710156121865760405162461bcd60e51b81526004018080602001828103825260268152602001806124626026913960400191505060405180910390fd5b61218f85612002565b6121e0576040805162461bcd60e51b815260206004820152601d60248201527f416464726573733a2063616c6c20746f206e6f6e2d636f6e7472616374000000604482015290519081900360640190fd5b60006060866001600160a01b031685876040518082805190602001908083835b6020831061221f5780518252601f199092019160209182019101612200565b6001836020036101000a03801982511681845116808217855250505050505090500191505060006040518083038185875af1925050503d8060008114612281576040519150601f19603f3d011682016040523d82523d6000602084013e612286565b606091505b50915091506122968282866122a1565b979650505050505050565b606083156122b0575081610c91565b8251156122c05782518084602001fd5b60405162461bcd60e51b8152602060048201818152845160248401528451859391928392604401919085019080838360008315611b95578181015183820152602001611b7d565b828054600181600116156101000203166002900490600052602060002090601f016020900481019282601f1061234857805160ff1916838001178555612375565b82800160010185558215612375579182015b8281111561237557825182559160200191906001019061235a565b50612381929150612385565b5090565b5b80821115612381576000815560010161238656fe456e756d657261626c655365743a20696e646578206f7574206f6620626f756e6473416363657373436f6e74726f6c3a2073656e646572206d75737420626520616e2061646d696e20746f206772616e744552433732313a207472616e7366657220746f206e6f6e20455243373231526563656976657220696d706c656d656e7465725719df9ef2c4678b547f89e4f5ae410dbf400fc51cf3ded434c55f6adea2c43f4552433732313a207472616e7366657220746f20746865207a65726f2061646472657373416464726573733a20696e73756666696369656e742062616c616e636520666f722063616c6c4552433732313a206f70657261746f7220717565727920666f72206e6f6e6578697374656e7420746f6b656e416363657373436f6e74726f6c3a2073656e646572206d75737420626520616e2061646d696e20746f207265766f6b654552433732313a20617070726f76652063616c6c6572206973206e6f74206f776e6572206e6f7220617070726f76656420666f7220616c6c4552433732313a2062616c616e636520717565727920666f7220746865207a65726f20616464726573734552433732313a206f776e657220717565727920666f72206e6f6e6578697374656e7420746f6b656e456e756d657261626c654d61703a20696e646578206f7574206f6620626f756e64734552433732313a20617070726f76656420717565727920666f72206e6f6e6578697374656e7420746f6b656e4552433732313a207472616e73666572206f6620746f6b656e2074686174206973206e6f74206f776e4552433732314d657461646174613a2055524920717565727920666f72206e6f6e6578697374656e7420746f6b656e4552433732313a20617070726f76616c20746f2063757272656e74206f776e65724552433732313a207472616e736665722063616c6c6572206973206e6f74206f776e6572206e6f7220617070726f766564416363657373436f6e74726f6c3a2063616e206f6e6c792072656e6f756e636520726f6c657320666f722073656c66a2646970667358221220bdc69c2c7e72d6e0bdf68f256e5255e57cdf8438b8eb3d1729aef0f30b430e0164736f6c634300060c00335719df9ef2c4678b547f89e4f5ae410dbf400fc51cf3ded434c55f6adea2c43f",
    "sourcePath": "/Users/225153/Projects/proxy-test/contracts/NFT.sol",
    "compiler": {
        "name": "solc",
        "version": "0.6.12+commit.27d51765"
    },
    "functionHashes": {
        "DEFAULT_ADMIN_ROLE()": "a217fddf",
        "PAUSER_ROLE()": "e63ab1e9",
        "SYSTEM_ROLE()": "75071d2a",
        "_tokenURI()": "b4ce37d2",
        "approve(address,uint256)": "095ea7b3",
        "balanceOf(address)": "70a08231",
        "burn(uint256)": "42966c68",
        "getApproved(uint256)": "081812fc",
        "getRoleAdmin(bytes32)": "248a9ca3",
        "getRoleMember(bytes32,uint256)": "9010d07c",
        "getRoleMemberCount(bytes32)": "ca15c873",
        "grantRole(bytes32,address)": "2f2ff15d",
        "hasRole(bytes32,address)": "91d14854",
        "isApprovedForAll(address,address)": "e985e9c5",
        "mint(address,uint256,address)": "0d4d1513",
        "name()": "06fdde03",
        "ownerOf(uint256)": "6352211e",
        "properties(uint256)": "f7b10808",
        "renounceRole(bytes32,address)": "36568abe",
        "revokeRole(bytes32,address)": "d547741f",
        "safeTransferFrom(address,address,uint256)": "42842e0e",
        "safeTransferFrom(address,address,uint256,bytes)": "b88d4fde",
        "setApprovalForAll(address,bool)": "a22cb465",
        "supportsInterface(bytes4)": "01ffc9a7",
        "symbol()": "95d89b41",
        "tokenByIndex(uint256)": "4f6ccce7",
        "tokenOfOwnerByIndex(address,uint256)": "2f745c59",
        "tokenURI(uint256)": "c87b56dd",
        "totalSupply()": "18160ddd",
        "transferFrom(address,address,uint256)": "23b872dd"
    },
    "gasEstimates": {
        "creation": {
            "codeDepositCost": "1986200",
            "executionCost": "infinite",
            "totalCost": "infinite"
        },
        "external": {
            "DEFAULT_ADMIN_ROLE()": "287",
            "PAUSER_ROLE()": "264",
            "SYSTEM_ROLE()": "infinite",
            "_tokenURI()": "infinite",
            "approve(address,uint256)": "infinite",
            "balanceOf(address)": "infinite",
            "burn(uint256)": "infinite",
            "getApproved(uint256)": "infinite",
            "getRoleAdmin(bytes32)": "1158",
            "getRoleMember(bytes32,uint256)": "infinite",
            "getRoleMemberCount(bytes32)": "infinite",
            "grantRole(bytes32,address)": "infinite",
            "hasRole(bytes32,address)": "infinite",
            "isApprovedForAll(address,address)": "1350",
            "mint(address,uint256,address)": "infinite",
            "name()": "infinite",
            "ownerOf(uint256)": "infinite",
            "properties(uint256)": "infinite",
            "renounceRole(bytes32,address)": "infinite",
            "revokeRole(bytes32,address)": "infinite",
            "safeTransferFrom(address,address,uint256)": "infinite",
            "safeTransferFrom(address,address,uint256,bytes)": "infinite",
            "setApprovalForAll(address,bool)": "infinite",
            "supportsInterface(bytes4)": "1210",
            "symbol()": "infinite",
            "tokenByIndex(uint256)": "infinite",
            "tokenOfOwnerByIndex(address,uint256)": "infinite",
            "tokenURI(uint256)": "infinite",
            "totalSupply()": "1163",
            "transferFrom(address,address,uint256)": "infinite"
        },
        "internal": {
            "_beforeTokenTransfer(address,address,uint256)": "infinite"
        }
    }
}