{
    "contractName": "NFT",
    "abi": [
        {
            "inputs": [
                {
                    "internalType": "string",
                    "name": "_name",
                    "type": "string"
                },
                {
                    "internalType": "string",
                    "name": "_symbol",
                    "type": "string"
                },
                {
                    "internalType": "string",
                    "name": "_tokenURI",
                    "type": "string"
                },
                {
                    "internalType": "bool",
                    "name": "_isPausableToken",
                    "type": "bool"
                },
                {
                    "internalType": "address",
                    "name": "admin",
                    "type": "address"
                },
                {
                    "internalType": "bool",
                    "name": "_isCapped",
                    "type": "bool"
                },
                {
                    "internalType": "uint256",
                    "name": "_tokenCap",
                    "type": "uint256"
                }
            ],
            "stateMutability": "nonpayable",
            "type": "constructor"
        },
        {
            "anonymous": false,
            "inputs": [
                {
                    "indexed": true,
                    "internalType": "address",
                    "name": "owner",
                    "type": "address"
                },
                {
                    "indexed": true,
                    "internalType": "address",
                    "name": "approved",
                    "type": "address"
                },
                {
                    "indexed": true,
                    "internalType": "uint256",
                    "name": "tokenId",
                    "type": "uint256"
                }
            ],
            "name": "Approval",
            "type": "event"
        },
        {
            "anonymous": false,
            "inputs": [
                {
                    "indexed": true,
                    "internalType": "address",
                    "name": "owner",
                    "type": "address"
                },
                {
                    "indexed": true,
                    "internalType": "address",
                    "name": "operator",
                    "type": "address"
                },
                {
                    "indexed": false,
                    "internalType": "bool",
                    "name": "approved",
                    "type": "bool"
                }
            ],
            "name": "ApprovalForAll",
            "type": "event"
        },
        {
            "anonymous": false,
            "inputs": [
                {
                    "indexed": true,
                    "internalType": "bytes32",
                    "name": "role",
                    "type": "bytes32"
                },
                {
                    "indexed": true,
                    "internalType": "bytes32",
                    "name": "previousAdminRole",
                    "type": "bytes32"
                },
                {
                    "indexed": true,
                    "internalType": "bytes32",
                    "name": "newAdminRole",
                    "type": "bytes32"
                }
            ],
            "name": "RoleAdminChanged",
            "type": "event"
        },
        {
            "anonymous": false,
            "inputs": [
                {
                    "indexed": true,
                    "internalType": "bytes32",
                    "name": "role",
                    "type": "bytes32"
                },
                {
                    "indexed": true,
                    "internalType": "address",
                    "name": "account",
                    "type": "address"
                },
                {
                    "indexed": true,
                    "internalType": "address",
                    "name": "sender",
                    "type": "address"
                }
            ],
            "name": "RoleGranted",
            "type": "event"
        },
        {
            "anonymous": false,
            "inputs": [
                {
                    "indexed": true,
                    "internalType": "bytes32",
                    "name": "role",
                    "type": "bytes32"
                },
                {
                    "indexed": true,
                    "internalType": "address",
                    "name": "account",
                    "type": "address"
                },
                {
                    "indexed": true,
                    "internalType": "address",
                    "name": "sender",
                    "type": "address"
                }
            ],
            "name": "RoleRevoked",
            "type": "event"
        },
        {
            "anonymous": false,
            "inputs": [
                {
                    "indexed": true,
                    "internalType": "address",
                    "name": "from",
                    "type": "address"
                },
                {
                    "indexed": true,
                    "internalType": "address",
                    "name": "to",
                    "type": "address"
                },
                {
                    "indexed": true,
                    "internalType": "uint256",
                    "name": "tokenId",
                    "type": "uint256"
                }
            ],
            "name": "Transfer",
            "type": "event"
        },
        {
            "inputs": [],
            "name": "DEFAULT_ADMIN_ROLE",
            "outputs": [
                {
                    "internalType": "bytes32",
                    "name": "",
                    "type": "bytes32"
                }
            ],
            "stateMutability": "view",
            "type": "function"
        },
        {
            "inputs": [],
            "name": "DELEGATOR_ROLE",
            "outputs": [
                {
                    "internalType": "bytes32",
                    "name": "",
                    "type": "bytes32"
                }
            ],
            "stateMutability": "view",
            "type": "function"
        },
        {
            "inputs": [],
            "name": "MINTER_ROLE",
            "outputs": [
                {
                    "internalType": "bytes32",
                    "name": "",
                    "type": "bytes32"
                }
            ],
            "stateMutability": "view",
            "type": "function"
        },
        {
            "inputs": [],
            "name": "PAUSER_ROLE",
            "outputs": [
                {
                    "internalType": "bytes32",
                    "name": "",
                    "type": "bytes32"
                }
            ],
            "stateMutability": "view",
            "type": "function"
        },
        {
            "inputs": [],
            "name": "_tokenURI",
            "outputs": [
                {
                    "internalType": "string",
                    "name": "",
                    "type": "string"
                }
            ],
            "stateMutability": "view",
            "type": "function"
        },
        {
            "inputs": [
                {
                    "internalType": "address",
                    "name": "to",
                    "type": "address"
                },
                {
                    "internalType": "uint256",
                    "name": "tokenId",
                    "type": "uint256"
                }
            ],
            "name": "approve",
            "outputs": [],
            "stateMutability": "nonpayable",
            "type": "function"
        },
        {
            "inputs": [
                {
                    "internalType": "address",
                    "name": "owner",
                    "type": "address"
                }
            ],
            "name": "balanceOf",
            "outputs": [
                {
                    "internalType": "uint256",
                    "name": "",
                    "type": "uint256"
                }
            ],
            "stateMutability": "view",
            "type": "function"
        },
        {
            "inputs": [
                {
                    "internalType": "uint256",
                    "name": "tokenId",
                    "type": "uint256"
                }
            ],
            "name": "burn",
            "outputs": [],
            "stateMutability": "nonpayable",
            "type": "function"
        },
        {
            "inputs": [
                {
                    "internalType": "address",
                    "name": "_to",
                    "type": "address"
                }
            ],
            "name": "delegate",
            "outputs": [],
            "stateMutability": "nonpayable",
            "type": "function"
        },
        {
            "inputs": [
                {
                    "internalType": "address",
                    "name": "",
                    "type": "address"
                }
            ],
            "name": "delegations",
            "outputs": [
                {
                    "internalType": "uint256",
                    "name": "tokenId",
                    "type": "uint256"
                },
                {
                    "internalType": "bool",
                    "name": "exists",
                    "type": "bool"
                }
            ],
            "stateMutability": "view",
            "type": "function"
        },
        {
            "inputs": [
                {
                    "internalType": "uint256",
                    "name": "tokenId",
                    "type": "uint256"
                }
            ],
            "name": "getApproved",
            "outputs": [
                {
                    "internalType": "address",
                    "name": "",
                    "type": "address"
                }
            ],
            "stateMutability": "view",
            "type": "function"
        },
        {
            "inputs": [
                {
                    "internalType": "bytes32",
                    "name": "role",
                    "type": "bytes32"
                }
            ],
            "name": "getRoleAdmin",
            "outputs": [
                {
                    "internalType": "bytes32",
                    "name": "",
                    "type": "bytes32"
                }
            ],
            "stateMutability": "view",
            "type": "function"
        },
        {
            "inputs": [
                {
                    "internalType": "bytes32",
                    "name": "role",
                    "type": "bytes32"
                },
                {
                    "internalType": "uint256",
                    "name": "index",
                    "type": "uint256"
                }
            ],
            "name": "getRoleMember",
            "outputs": [
                {
                    "internalType": "address",
                    "name": "",
                    "type": "address"
                }
            ],
            "stateMutability": "view",
            "type": "function"
        },
        {
            "inputs": [
                {
                    "internalType": "bytes32",
                    "name": "role",
                    "type": "bytes32"
                }
            ],
            "name": "getRoleMemberCount",
            "outputs": [
                {
                    "internalType": "uint256",
                    "name": "",
                    "type": "uint256"
                }
            ],
            "stateMutability": "view",
            "type": "function"
        },
        {
            "inputs": [
                {
                    "internalType": "bytes32",
                    "name": "role",
                    "type": "bytes32"
                },
                {
                    "internalType": "address",
                    "name": "account",
                    "type": "address"
                }
            ],
            "name": "grantRole",
            "outputs": [],
            "stateMutability": "nonpayable",
            "type": "function"
        },
        {
            "inputs": [
                {
                    "internalType": "address",
                    "name": "_who",
                    "type": "address"
                }
            ],
            "name": "hasDelegation",
            "outputs": [
                {
                    "internalType": "bool",
                    "name": "",
                    "type": "bool"
                }
            ],
            "stateMutability": "view",
            "type": "function"
        },
        {
            "inputs": [
                {
                    "internalType": "bytes32",
                    "name": "role",
                    "type": "bytes32"
                },
                {
                    "internalType": "address",
                    "name": "account",
                    "type": "address"
                }
            ],
            "name": "hasRole",
            "outputs": [
                {
                    "internalType": "bool",
                    "name": "",
                    "type": "bool"
                }
            ],
            "stateMutability": "view",
            "type": "function"
        },
        {
            "inputs": [
                {
                    "internalType": "address",
                    "name": "owner",
                    "type": "address"
                },
                {
                    "internalType": "address",
                    "name": "operator",
                    "type": "address"
                }
            ],
            "name": "isApprovedForAll",
            "outputs": [
                {
                    "internalType": "bool",
                    "name": "",
                    "type": "bool"
                }
            ],
            "stateMutability": "view",
            "type": "function"
        },
        {
            "inputs": [
                {
                    "internalType": "address",
                    "name": "to",
                    "type": "address"
                }
            ],
            "name": "mint",
            "outputs": [
                {
                    "internalType": "uint256",
                    "name": "tokenId",
                    "type": "uint256"
                }
            ],
            "stateMutability": "nonpayable",
            "type": "function"
        },
        {
            "inputs": [],
            "name": "name",
            "outputs": [
                {
                    "internalType": "string",
                    "name": "",
                    "type": "string"
                }
            ],
            "stateMutability": "view",
            "type": "function"
        },
        {
            "inputs": [
                {
                    "internalType": "uint256",
                    "name": "tokenId",
                    "type": "uint256"
                }
            ],
            "name": "ownerOf",
            "outputs": [
                {
                    "internalType": "address",
                    "name": "",
                    "type": "address"
                }
            ],
            "stateMutability": "view",
            "type": "function"
        },
        {
            "inputs": [
                {
                    "internalType": "bytes32",
                    "name": "role",
                    "type": "bytes32"
                },
                {
                    "internalType": "address",
                    "name": "account",
                    "type": "address"
                }
            ],
            "name": "renounceRole",
            "outputs": [],
            "stateMutability": "nonpayable",
            "type": "function"
        },
        {
            "inputs": [
                {
                    "internalType": "bytes32",
                    "name": "role",
                    "type": "bytes32"
                },
                {
                    "internalType": "address",
                    "name": "account",
                    "type": "address"
                }
            ],
            "name": "revokeRole",
            "outputs": [],
            "stateMutability": "nonpayable",
            "type": "function"
        },
        {
            "inputs": [
                {
                    "internalType": "address",
                    "name": "from",
                    "type": "address"
                },
                {
                    "internalType": "address",
                    "name": "to",
                    "type": "address"
                },
                {
                    "internalType": "uint256",
                    "name": "tokenId",
                    "type": "uint256"
                }
            ],
            "name": "safeTransferFrom",
            "outputs": [],
            "stateMutability": "nonpayable",
            "type": "function"
        },
        {
            "inputs": [
                {
                    "internalType": "address",
                    "name": "from",
                    "type": "address"
                },
                {
                    "internalType": "address",
                    "name": "to",
                    "type": "address"
                },
                {
                    "internalType": "uint256",
                    "name": "tokenId",
                    "type": "uint256"
                },
                {
                    "internalType": "bytes",
                    "name": "_data",
                    "type": "bytes"
                }
            ],
            "name": "safeTransferFrom",
            "outputs": [],
            "stateMutability": "nonpayable",
            "type": "function"
        },
        {
            "inputs": [
                {
                    "internalType": "address",
                    "name": "operator",
                    "type": "address"
                },
                {
                    "internalType": "bool",
                    "name": "approved",
                    "type": "bool"
                }
            ],
            "name": "setApprovalForAll",
            "outputs": [],
            "stateMutability": "nonpayable",
            "type": "function"
        },
        {
            "inputs": [
                {
                    "internalType": "bytes4",
                    "name": "interfaceId",
                    "type": "bytes4"
                }
            ],
            "name": "supportsInterface",
            "outputs": [
                {
                    "internalType": "bool",
                    "name": "",
                    "type": "bool"
                }
            ],
            "stateMutability": "view",
            "type": "function"
        },
        {
            "inputs": [],
            "name": "symbol",
            "outputs": [
                {
                    "internalType": "string",
                    "name": "",
                    "type": "string"
                }
            ],
            "stateMutability": "view",
            "type": "function"
        },
        {
            "inputs": [],
            "name": "togglePause",
            "outputs": [],
            "stateMutability": "nonpayable",
            "type": "function"
        },
        {
            "inputs": [
                {
                    "internalType": "uint256",
                    "name": "index",
                    "type": "uint256"
                }
            ],
            "name": "tokenByIndex",
            "outputs": [
                {
                    "internalType": "uint256",
                    "name": "",
                    "type": "uint256"
                }
            ],
            "stateMutability": "view",
            "type": "function"
        },
        {
            "inputs": [
                {
                    "internalType": "address",
                    "name": "owner",
                    "type": "address"
                },
                {
                    "internalType": "uint256",
                    "name": "index",
                    "type": "uint256"
                }
            ],
            "name": "tokenOfOwnerByIndex",
            "outputs": [
                {
                    "internalType": "uint256",
                    "name": "",
                    "type": "uint256"
                }
            ],
            "stateMutability": "view",
            "type": "function"
        },
        {
            "inputs": [
                {
                    "internalType": "uint256",
                    "name": "tokenId",
                    "type": "uint256"
                }
            ],
            "name": "tokenURI",
            "outputs": [
                {
                    "internalType": "string",
                    "name": "",
                    "type": "string"
                }
            ],
            "stateMutability": "view",
            "type": "function"
        },
        {
            "inputs": [],
            "name": "totalSupply",
            "outputs": [
                {
                    "internalType": "uint256",
                    "name": "",
                    "type": "uint256"
                }
            ],
            "stateMutability": "view",
            "type": "function"
        },
        {
            "inputs": [
                {
                    "internalType": "address",
                    "name": "from",
                    "type": "address"
                },
                {
                    "internalType": "address",
                    "name": "to",
                    "type": "address"
                },
                {
                    "internalType": "uint256",
                    "name": "tokenId",
                    "type": "uint256"
                }
            ],
            "name": "transferFrom",
            "outputs": [],
            "stateMutability": "nonpayable",
            "type": "function"
        },
        {
            "inputs": [
                {
                    "internalType": "address",
                    "name": "_who",
                    "type": "address"
                },
                {
                    "internalType": "uint256",
                    "name": "_tokenId",
                    "type": "uint256"
                }
            ],
            "name": "undelegate",
            "outputs": [],
            "stateMutability": "nonpayable",
            "type": "function"
        }
    ],
    "bytecode": "60806040523480156200001157600080fd5b5060405162002c5e38038062002c5e833981810160405260e08110156200003757600080fd5b81019080805160405193929190846401000000008211156200005857600080fd5b9083019060208201858111156200006e57600080fd5b82516401000000008111828201881017156200008957600080fd5b82525081516020918201929091019080838360005b83811015620000b85781810151838201526020016200009e565b50505050905090810190601f168015620000e65780820380516001836020036101000a031916815260200191505b50604052602001805160405193929190846401000000008211156200010a57600080fd5b9083019060208201858111156200012057600080fd5b82516401000000008111828201881017156200013b57600080fd5b82525081516020918201929091019080838360005b838110156200016a57818101518382015260200162000150565b50505050905090810190601f168015620001985780820380516001836020036101000a031916815260200191505b5060405260200180516040519392919084640100000000821115620001bc57600080fd5b908301906020820185811115620001d257600080fd5b8251640100000000811182820188101715620001ed57600080fd5b82525081516020918201929091019080838360005b838110156200021c57818101518382015260200162000202565b50505050905090810190601f1680156200024a5780820380516001836020036101000a031916815260200191505b506040908152602082015190820151606083015160809093015191945092508686866200027e6301ffc9a760e01b620003ca565b82516200029390600790602086019062000565565b508151620002a990600890602085019062000565565b508051620002bf90600990602084019062000565565b50620002d26380ac58cd60e01b620003ca565b620002e4635b5e139f60e01b620003ca565b620002f663780e9d6360e01b620003ca565b5050600b805461ff001916610100871515021762ff00001916620100008515150217905550600c8190556200032d6000846200044f565b620003627f9f2df0fed2c77648de5860a4cc508cd0818c85b8b8a1ab4ceeef8d981c8956a66200035c6200045f565b6200044f565b620003917f1948e62cb88693562db3600e12aba035ba28da4a0626473ef28234bb890540736200035c6200045f565b620003bd7f65d7a28e3265b37a6474929f336521b332c1681b933f6cb9f3376673440d862a846200044f565b5050505050505062000601565b6001600160e01b031980821614156200042a576040805162461bcd60e51b815260206004820152601c60248201527f4552433136353a20696e76616c696420696e7465726661636520696400000000604482015290519081900360640190fd5b6001600160e01b0319166000908152602081905260409020805460ff19166001179055565b6200045b828262000463565b5050565b3390565b6000828152600a602090815260409091206200048a918390620013f6620004de821b17901c565b156200045b576200049a6200045f565b6001600160a01b0316816001600160a01b0316837f2f8788117e7eff1d82e926ec794901d17c78024a50270940304540a733656f0d60405160405180910390a45050565b6000620004f5836001600160a01b038416620004fe565b90505b92915050565b60006200050c83836200054d565b6200054457508154600181810184556000848152602080822090930184905584548482528286019093526040902091909155620004f8565b506000620004f8565b60009081526001919091016020526040902054151590565b828054600181600116156101000203166002900490600052602060002090601f016020900481019282601f10620005a857805160ff1916838001178555620005d8565b82800160010185558215620005d8579182015b82811115620005d8578251825591602001919060010190620005bb565b50620005e6929150620005ea565b5090565b5b80821115620005e65760008155600101620005eb565b61264d80620006116000396000f3fe608060405234801561001057600080fd5b50600436106102115760003560e01c80636a62784211610125578063b88d4fde116100ad578063ca15c8731161007c578063ca15c8731461073e578063d53913931461075b578063d547741f14610763578063e63ab1e91461078f578063e985e9c51461079757610211565b8063b88d4fde14610614578063bffe3486146106da578063c4ae316814610719578063c87b56dd1461072157610211565b806395d89b41116100f457806395d89b41146105c657806397b8a3a7146105ce578063a217fddf146105d6578063a22cb465146105de578063b4ce37d21461060c57610211565b80636a6278421461052b57806370a08231146105515780639010d07c1461057757806391d148541461059a57610211565b80632f745c59116101a857806342966c681161017757806342966c68146104825780634d99dd161461049f5780634f6ccce7146104cb5780635c19a95c146104e85780636352211e1461050e57610211565b80632f745c59146103ce57806333950d8b146103fa57806336568abe1461042057806342842e0e1461044c57610211565b806318160ddd116101e457806318160ddd1461033557806323b872dd1461034f578063248a9ca3146103855780632f2ff15d146103a257610211565b806301ffc9a71461021657806306fdde0314610251578063081812fc146102ce578063095ea7b314610307575b600080fd5b61023d6004803603602081101561022c57600080fd5b50356001600160e01b0319166107c5565b604080519115158252519081900360200190f35b6102596107e4565b6040805160208082528351818301528351919283929083019185019080838360005b8381101561029357818101518382015260200161027b565b50505050905090810190601f1680156102c05780820380516001836020036101000a031916815260200191505b509250505060405180910390f35b6102eb600480360360208110156102e457600080fd5b503561087a565b604080516001600160a01b039092168252519081900360200190f35b6103336004803603604081101561031d57600080fd5b506001600160a01b0381351690602001356108dc565b005b61033d6109b7565b60408051918252519081900360200190f35b6103336004803603606081101561036557600080fd5b506001600160a01b038135811691602081013590911690604001356109c8565b61033d6004803603602081101561039b57600080fd5b5035610a1f565b610333600480360360408110156103b857600080fd5b50803590602001356001600160a01b0316610a34565b61033d600480360360408110156103e457600080fd5b506001600160a01b038135169060200135610aa0565b61023d6004803603602081101561041057600080fd5b50356001600160a01b0316610acb565b6103336004803603604081101561043657600080fd5b50803590602001356001600160a01b0316610b0f565b6103336004803603606081101561046257600080fd5b506001600160a01b03813581169160208101359091169060400135610b70565b6103336004803603602081101561049857600080fd5b5035610b8b565b610333600480360360408110156104b557600080fd5b506001600160a01b038135169060200135610c08565b61033d600480360360208110156104e157600080fd5b5035610ced565b610333600480360360208110156104fe57600080fd5b50356001600160a01b0316610d03565b6102eb6004803603602081101561052457600080fd5b5035610dca565b61033d6004803603602081101561054157600080fd5b50356001600160a01b0316610df2565b61033d6004803603602081101561056757600080fd5b50356001600160a01b0316610e54565b6102eb6004803603604081101561058d57600080fd5b5080359060200135610ebc565b61023d600480360360408110156105b057600080fd5b50803590602001356001600160a01b0316610ed4565b610259610eec565b61033d610f4d565b61033d610f5f565b610333600480360360408110156105f457600080fd5b506001600160a01b0381351690602001351515610f64565b610259611069565b6103336004803603608081101561062a57600080fd5b6001600160a01b0382358116926020810135909116916040820135919081019060808101606082013564010000000081111561066557600080fd5b82018360208201111561067757600080fd5b8035906020019184600183028401116401000000008311171561069957600080fd5b91908080601f0160208091040260200160405190810160405280939291908181526020018383808284376000920191909152509295506110f7945050505050565b610700600480360360208110156106f057600080fd5b50356001600160a01b0316611155565b6040805192835290151560208301528051918290030190f35b610333611171565b6102596004803603602081101561073757600080fd5b503561124a565b61033d6004803603602081101561075457600080fd5b5035611322565b61033d611339565b6103336004803603604081101561077957600080fd5b50803590602001356001600160a01b031661134b565b61033d6113a4565b61023d600480360360408110156107ad57600080fd5b506001600160a01b03813581169160200135166113c8565b6001600160e01b03191660009081526020819052604090205460ff1690565b60078054604080516020601f60026000196101006001881615020190951694909404938401819004810282018101909252828152606093909290918301828280156108705780601f1061084557610100808354040283529160200191610870565b820191906000526020600020905b81548152906001019060200180831161085357829003601f168201915b5050505050905090565b60006108858261140b565b6108c05760405162461bcd60e51b815260040180806020018281038252602c8152602001806124aa602c913960400191505060405180910390fd5b506000908152600560205260409020546001600160a01b031690565b60006108e782610dca565b9050806001600160a01b0316836001600160a01b0316141561093a5760405162461bcd60e51b81526004018080602001828103825260218152602001806125776021913960400191505060405180910390fd5b806001600160a01b031661094c611418565b6001600160a01b0316148061096d575061096d81610968611418565b6113c8565b6109a85760405162461bcd60e51b81526004018080602001828103825260388152602001806123fd6038913960400191505060405180910390fd5b6109b2838361141c565b505050565b60006109c3600361148a565b905090565b6109d96109d3611418565b82611495565b610a145760405162461bcd60e51b81526004018080602001828103825260318152602001806125986031913960400191505060405180910390fd5b6109b2838383611539565b6000908152600a602052604090206002015490565b6000828152600a6020526040902060020154610a5790610a52611418565b610ed4565b610a925760405162461bcd60e51b815260040180806020018281038252602f8152602001806122f6602f913960400191505060405180910390fd5b610a9c8282611685565b5050565b6001600160a01b0382166000908152600260205260408120610ac290836116ee565b90505b92915050565b6000610ad56122bc565b50506001600160a01b03166000908152600d60209081526040918290208251808401909352805483526001015460ff161515910181905290565b610b17611418565b6001600160a01b0316816001600160a01b031614610b665760405162461bcd60e51b815260040180806020018281038252602f8152602001806125e9602f913960400191505060405180910390fd5b610a9c82826116fa565b6109b2838383604051806020016040528060008152506110f7565b33610b9582610dca565b6001600160a01b03161480610bbd5750610bbd60008051602061255783398151915233610ed4565b610bfc576040805162461bcd60e51b815260206004820152600b60248201526a139bdd08185b1b1bddd95960aa1b604482015290519081900360640190fd5b610c0581611763565b50565b610c206000805160206125c983398151915233610ed4565b610c5f576040805162461bcd60e51b815260206004820152600b60248201526a139bdd08185b1b1bddd95960aa1b604482015290519081900360640190fd5b610c676122bc565b506001600160a01b0382166000908152600d60209081526040918290208251808401909352805483526001015460ff16158015918301829052610caa5750805182145b156109b2576001600160a01b0383166000908152600d60205260408120908155600101805460ff19169055610cde82611763565b600e8054600019019055505050565b600080610cfb6003846117f2565b509392505050565b610d1b6000805160206125c983398151915233610ed4565b610d5a576040805162461bcd60e51b815260206004820152600b60248201526a139bdd08185b1b1bddd95960aa1b604482015290519081900360640190fd5b6000610d6c610d67611418565b610df2565b9050610d766122bc565b50604080518082018252918252600160208084018281526001600160a01b03959095166000908152600d90915291909120915182559151908201805460ff1916911515919091179055600e80549091019055565b6000610ac58260405180606001604052806029815260200161245f602991396003919061180e565b6000610e0c60008051602061255783398151915233610ed4565b610e4b576040805162461bcd60e51b815260206004820152600b60248201526a139bdd08185b1b1bddd95960aa1b604482015290519081900360640190fd5b610ac582611825565b60006001600160a01b038216610e9b5760405162461bcd60e51b815260040180806020018281038252602a815260200180612435602a913960400191505060405180910390fd5b6001600160a01b0382166000908152600260205260409020610ac59061148a565b6000828152600a60205260408120610ac290836116ee565b6000828152600a60205260408120610ac29083611848565b60088054604080516020601f60026000196101006001881615020190951694909404938401819004810282018101909252828152606093909290918301828280156108705780601f1061084557610100808354040283529160200191610870565b6000805160206125c983398151915281565b600081565b610f6c611418565b6001600160a01b0316826001600160a01b03161415610fd2576040805162461bcd60e51b815260206004820152601960248201527f4552433732313a20617070726f766520746f2063616c6c657200000000000000604482015290519081900360640190fd5b8060066000610fdf611418565b6001600160a01b03908116825260208083019390935260409182016000908120918716808252919093529120805460ff191692151592909217909155611023611418565b6001600160a01b03167f17307eab39ab6107e8899845ad3d59bd9653f200f220920489ca2b5937696c318360405180821515815260200191505060405180910390a35050565b6009805460408051602060026001851615610100026000190190941693909304601f810184900484028201840190925281815292918301828280156110ef5780601f106110c4576101008083540402835291602001916110ef565b820191906000526020600020905b8154815290600101906020018083116110d257829003601f168201915b505050505081565b611108611102611418565b83611495565b6111435760405162461bcd60e51b81526004018080602001828103825260318152602001806125986031913960400191505060405180910390fd5b61114f8484848461185d565b50505050565b600d602052600090815260409020805460019091015460ff1682565b600b54610100900460ff166111cd576040805162461bcd60e51b815260206004820152601b60248201527f5468697320746f6b656e2063616e6e6f74206265207061757365640000000000604482015290519081900360640190fd5b6111f77f65d7a28e3265b37a6474929f336521b332c1681b933f6cb9f3376673440d862a33610ed4565b611236576040805162461bcd60e51b815260206004820152600b60248201526a139bdd08185b1b1bddd95960aa1b604482015290519081900360640190fd5b600b805460ff19811660ff90911615179055565b60606112558261140b565b6112905760405162461bcd60e51b815260040180806020018281038252602f815260200180612528602f913960400191505060405180910390fd5b6009805460408051602060026001851615610100026000190190941693909304601f810184900484028201840190925281815292918301828280156113165780601f106112eb57610100808354040283529160200191611316565b820191906000526020600020905b8154815290600101906020018083116112f957829003601f168201915b50505050509050919050565b6000818152600a60205260408120610ac59061148a565b60008051602061255783398151915281565b6000828152600a602052604090206002015461136990610a52611418565b610b665760405162461bcd60e51b81526004018080602001828103825260308152602001806123cd6030913960400191505060405180910390fd5b7f65d7a28e3265b37a6474929f336521b332c1681b933f6cb9f3376673440d862a81565b6001600160a01b03918216600090815260066020908152604080832093909416825291909152205460ff1690565b6000610ac2836001600160a01b0384166118af565b6000610ac56003836118f9565b3390565b600081815260056020526040902080546001600160a01b0319166001600160a01b038416908117909155819061145182610dca565b6001600160a01b03167f8c5be1e5ebec7d5bd14f71427d1e84f3dd0314c0f7b2291e5b200ac8c7c3b92560405160405180910390a45050565b6000610ac582611905565b60006114a08261140b565b6114db5760405162461bcd60e51b815260040180806020018281038252602c8152602001806123a1602c913960400191505060405180910390fd5b60006114e683610dca565b9050806001600160a01b0316846001600160a01b031614806115215750836001600160a01b03166115168461087a565b6001600160a01b0316145b80611531575061153181856113c8565b949350505050565b826001600160a01b031661154c82610dca565b6001600160a01b0316146115915760405162461bcd60e51b81526004018080602001828103825260298152602001806124ff6029913960400191505060405180910390fd5b6001600160a01b0382166115d65760405162461bcd60e51b81526004018080602001828103825260248152602001806123576024913960400191505060405180910390fd5b6115e1838383611909565b6115ec60008261141c565b6001600160a01b038316600090815260026020526040902061160e9082611999565b506001600160a01b038216600090815260026020526040902061163190826119a5565b5061163e600382846119b1565b5080826001600160a01b0316846001600160a01b03167fddf252ad1be2c89b69c2b068fc378daa952ba7f163c4a11628f55a4df523b3ef60405160405180910390a4505050565b6000828152600a6020526040902061169d90826113f6565b15610a9c576116aa611418565b6001600160a01b0316816001600160a01b0316837f2f8788117e7eff1d82e926ec794901d17c78024a50270940304540a733656f0d60405160405180910390a45050565b6000610ac283836119c7565b6000828152600a602052604090206117129082611a2b565b15610a9c5761171f611418565b6001600160a01b0316816001600160a01b0316837ff6391f5c32d9c69d2a47ea670b442974b53935d1edc7fd64eb21e047a839171b60405160405180910390a45050565b600061176e82610dca565b905061177c81600084611909565b61178760008361141c565b6001600160a01b03811660009081526002602052604090206117a99083611999565b506117b5600383611a40565b5060405182906000906001600160a01b038416907fddf252ad1be2c89b69c2b068fc378daa952ba7f163c4a11628f55a4df523b3ef908390a45050565b60008080806118018686611a4c565b9097909650945050505050565b600061181b848484611ac7565b90505b9392505050565b6000806118326001611905565b905061183e8382611b91565b610ac56001611bab565b6000610ac2836001600160a01b038416611bb4565b611868848484611539565b61187484848484611bcc565b61114f5760405162461bcd60e51b81526004018080602001828103825260328152602001806123256032913960400191505060405180910390fd5b60006118bb8383611bb4565b6118f157508154600181810184556000848152602080822090930184905584548482528286019093526040902091909155610ac5565b506000610ac5565b6000610ac28383611bb4565b5490565b600b5460ff16158061195e57506001600160a01b03831615801561195e575061194060008051602061255783398151915233610ed4565b8061195e575061195e6000805160206125c983398151915233610ed4565b6109b25760405162461bcd60e51b81526004018080602001828103825260298152602001806124d66029913960400191505060405180910390fd5b6000610ac28383611d34565b6000610ac283836118af565b600061181b84846001600160a01b038516611dfa565b81546000908210611a095760405162461bcd60e51b81526004018080602001828103825260228152602001806122d46022913960400191505060405180910390fd5b826000018281548110611a1857fe5b9060005260206000200154905092915050565b6000610ac2836001600160a01b038416611d34565b6000610ac28383611e91565b815460009081908310611a905760405162461bcd60e51b81526004018080602001828103825260228152602001806124886022913960400191505060405180910390fd5b6000846000018481548110611aa157fe5b906000526020600020906002020190508060000154816001015492509250509250929050565b60008281526001840160205260408120548281611b625760405162461bcd60e51b81526004018080602001828103825283818151815260200191508051906020019080838360005b83811015611b27578181015183820152602001611b0f565b50505050905090810190601f168015611b545780820380516001836020036101000a031916815260200191505b509250505060405180910390fd5b50846000016001820381548110611b7557fe5b9060005260206000209060020201600101549150509392505050565b610a9c828260405180602001604052806000815250611f65565b80546001019055565b60009081526001919091016020526040902054151590565b6000611be0846001600160a01b0316611fb7565b611bec57506001611531565b6060611cfa630a85bd0160e11b611c01611418565b88878760405160240180856001600160a01b03168152602001846001600160a01b0316815260200183815260200180602001828103825283818151815260200191508051906020019080838360005b83811015611c68578181015183820152602001611c50565b50505050905090810190601f168015611c955780820380516001836020036101000a031916815260200191505b5095505050505050604051602081830303815290604052906001600160e01b0319166020820180516001600160e01b038381831617835250505050604051806060016040528060328152602001612325603291396001600160a01b0388169190611fbd565b90506000818060200190516020811015611d1357600080fd5b50516001600160e01b031916630a85bd0160e11b1492505050949350505050565b60008181526001830160205260408120548015611df05783546000198083019190810190600090879083908110611d6757fe5b9060005260206000200154905080876000018481548110611d8457fe5b600091825260208083209091019290925582815260018981019092526040902090840190558654879080611db457fe5b60019003818190600052602060002001600090559055866001016000878152602001908152602001600020600090556001945050505050610ac5565b6000915050610ac5565b600082815260018401602052604081205480611e5f57505060408051808201825283815260208082018481528654600181810189556000898152848120955160029093029095019182559151908201558654868452818801909252929091205561181e565b82856000016001830381548110611e7257fe5b906000526020600020906002020160010181905550600091505061181e565b60008181526001830160205260408120548015611df05783546000198083019190810190600090879083908110611ec457fe5b9060005260206000209060020201905080876000018481548110611ee457fe5b600091825260208083208454600290930201918255600193840154918401919091558354825289830190526040902090840190558654879080611f2357fe5b6000828152602080822060026000199094019384020182815560019081018390559290935588815289820190925260408220919091559450610ac59350505050565b611f6f8383611fcc565b611f7c6000848484611bcc565b6109b25760405162461bcd60e51b81526004018080602001828103825260328152602001806123256032913960400191505060405180910390fd5b3b151590565b606061181b84846000856120fa565b6001600160a01b038216612027576040805162461bcd60e51b815260206004820181905260248201527f4552433732313a206d696e7420746f20746865207a65726f2061646472657373604482015290519081900360640190fd5b6120308161140b565b15612082576040805162461bcd60e51b815260206004820152601c60248201527f4552433732313a20746f6b656e20616c7265616479206d696e74656400000000604482015290519081900360640190fd5b61208e60008383611909565b6001600160a01b03821660009081526002602052604090206120b090826119a5565b506120bd600382846119b1565b5060405181906001600160a01b038416906000907fddf252ad1be2c89b69c2b068fc378daa952ba7f163c4a11628f55a4df523b3ef908290a45050565b60608247101561213b5760405162461bcd60e51b815260040180806020018281038252602681526020018061237b6026913960400191505060405180910390fd5b61214485611fb7565b612195576040805162461bcd60e51b815260206004820152601d60248201527f416464726573733a2063616c6c20746f206e6f6e2d636f6e7472616374000000604482015290519081900360640190fd5b60006060866001600160a01b031685876040518082805190602001908083835b602083106121d45780518252601f1990920191602091820191016121b5565b6001836020036101000a03801982511681845116808217855250505050505090500191505060006040518083038185875af1925050503d8060008114612236576040519150601f19603f3d011682016040523d82523d6000602084013e61223b565b606091505b509150915061224b828286612256565b979650505050505050565b6060831561226557508161181e565b8251156122755782518084602001fd5b60405162461bcd60e51b8152602060048201818152845160248401528451859391928392604401919085019080838360008315611b27578181015183820152602001611b0f565b60408051808201909152600080825260208201529056fe456e756d657261626c655365743a20696e646578206f7574206f6620626f756e6473416363657373436f6e74726f6c3a2073656e646572206d75737420626520616e2061646d696e20746f206772616e744552433732313a207472616e7366657220746f206e6f6e20455243373231526563656976657220696d706c656d656e7465724552433732313a207472616e7366657220746f20746865207a65726f2061646472657373416464726573733a20696e73756666696369656e742062616c616e636520666f722063616c6c4552433732313a206f70657261746f7220717565727920666f72206e6f6e6578697374656e7420746f6b656e416363657373436f6e74726f6c3a2073656e646572206d75737420626520616e2061646d696e20746f207265766f6b654552433732313a20617070726f76652063616c6c6572206973206e6f74206f776e6572206e6f7220617070726f76656420666f7220616c6c4552433732313a2062616c616e636520717565727920666f7220746865207a65726f20616464726573734552433732313a206f776e657220717565727920666f72206e6f6e6578697374656e7420746f6b656e456e756d657261626c654d61703a20696e646578206f7574206f6620626f756e64734552433732313a20617070726f76656420717565727920666f72206e6f6e6578697374656e7420746f6b656e546f6b656e206973206e6f74207472616e736665727261626c6520617420746865206d6f6d656e742e4552433732313a207472616e73666572206f6620746f6b656e2074686174206973206e6f74206f776e4552433732314d657461646174613a2055524920717565727920666f72206e6f6e6578697374656e7420746f6b656e9f2df0fed2c77648de5860a4cc508cd0818c85b8b8a1ab4ceeef8d981c8956a64552433732313a20617070726f76616c20746f2063757272656e74206f776e65724552433732313a207472616e736665722063616c6c6572206973206e6f74206f776e6572206e6f7220617070726f7665641948e62cb88693562db3600e12aba035ba28da4a0626473ef28234bb89054073416363657373436f6e74726f6c3a2063616e206f6e6c792072656e6f756e636520726f6c657320666f722073656c66a2646970667358221220215b2dd48df4bd452f134abbee7b9e27fe4e2641b1cedea1d82476f0bb1ff86464736f6c634300060c0033",
    "sourcePath": "/Users/225153/Projects/ram/contracts/NFT.sol",
    "compiler": {
        "name": "solc",
        "version": "0.6.12+commit.27d51765"
    },
    "functionHashes": {
        "DEFAULT_ADMIN_ROLE()": "a217fddf",
        "DELEGATOR_ROLE()": "97b8a3a7",
        "MINTER_ROLE()": "d5391393",
        "PAUSER_ROLE()": "e63ab1e9",
        "_tokenURI()": "b4ce37d2",
        "approve(address,uint256)": "095ea7b3",
        "balanceOf(address)": "70a08231",
        "burn(uint256)": "42966c68",
        "delegate(address)": "5c19a95c",
        "delegations(address)": "bffe3486",
        "getApproved(uint256)": "081812fc",
        "getRoleAdmin(bytes32)": "248a9ca3",
        "getRoleMember(bytes32,uint256)": "9010d07c",
        "getRoleMemberCount(bytes32)": "ca15c873",
        "grantRole(bytes32,address)": "2f2ff15d",
        "hasDelegation(address)": "33950d8b",
        "hasRole(bytes32,address)": "91d14854",
        "isApprovedForAll(address,address)": "e985e9c5",
        "mint(address)": "6a627842",
        "name()": "06fdde03",
        "ownerOf(uint256)": "6352211e",
        "renounceRole(bytes32,address)": "36568abe",
        "revokeRole(bytes32,address)": "d547741f",
        "safeTransferFrom(address,address,uint256)": "42842e0e",
        "safeTransferFrom(address,address,uint256,bytes)": "b88d4fde",
        "setApprovalForAll(address,bool)": "a22cb465",
        "supportsInterface(bytes4)": "01ffc9a7",
        "symbol()": "95d89b41",
        "togglePause()": "c4ae3168",
        "tokenByIndex(uint256)": "4f6ccce7",
        "tokenOfOwnerByIndex(address,uint256)": "2f745c59",
        "tokenURI(uint256)": "c87b56dd",
        "totalSupply()": "18160ddd",
        "transferFrom(address,address,uint256)": "23b872dd",
        "undelegate(address,uint256)": "4d99dd16"
    },
    "gasEstimates": {
        "creation": {
            "codeDepositCost": "1961000",
            "executionCost": "infinite",
            "totalCost": "infinite"
        },
        "external": {
            "DEFAULT_ADMIN_ROLE()": "287",
            "DELEGATOR_ROLE()": "infinite",
            "MINTER_ROLE()": "infinite",
            "PAUSER_ROLE()": "308",
            "_tokenURI()": "infinite",
            "approve(address,uint256)": "infinite",
            "balanceOf(address)": "infinite",
            "burn(uint256)": "infinite",
            "delegate(address)": "infinite",
            "delegations(address)": "2036",
            "getApproved(uint256)": "infinite",
            "getRoleAdmin(bytes32)": "1202",
            "getRoleMember(bytes32,uint256)": "infinite",
            "getRoleMemberCount(bytes32)": "infinite",
            "grantRole(bytes32,address)": "infinite",
            "hasDelegation(address)": "2191",
            "hasRole(bytes32,address)": "infinite",
            "isApprovedForAll(address,address)": "1394",
            "mint(address)": "infinite",
            "name()": "infinite",
            "ownerOf(uint256)": "infinite",
            "renounceRole(bytes32,address)": "infinite",
            "revokeRole(bytes32,address)": "infinite",
            "safeTransferFrom(address,address,uint256)": "infinite",
            "safeTransferFrom(address,address,uint256,bytes)": "infinite",
            "setApprovalForAll(address,bool)": "infinite",
            "supportsInterface(bytes4)": "1210",
            "symbol()": "infinite",
            "togglePause()": "infinite",
            "tokenByIndex(uint256)": "infinite",
            "tokenOfOwnerByIndex(address,uint256)": "infinite",
            "tokenURI(uint256)": "infinite",
            "totalSupply()": "1119",
            "transferFrom(address,address,uint256)": "infinite",
            "undelegate(address,uint256)": "infinite"
        },
        "internal": {
            "_beforeTokenTransfer(address,address,uint256)": "infinite"
        }
    }
}