{
    "contractName": "NFTFactory",
    "abi": [
        {
            "anonymous": false,
            "inputs": [
                {
                    "indexed": false,
                    "internalType": "string",
                    "name": "tokenName",
                    "type": "string"
                },
                {
                    "indexed": false,
                    "internalType": "address",
                    "name": "from",
                    "type": "address"
                },
                {
                    "indexed": false,
                    "internalType": "uint256",
                    "name": "tokenId",
                    "type": "uint256"
                }
            ],
            "name": "NFTBurned",
            "type": "event"
        },
        {
            "anonymous": false,
            "inputs": [
                {
                    "indexed": false,
                    "internalType": "string",
                    "name": "tokenName",
                    "type": "string"
                },
                {
                    "indexed": false,
                    "internalType": "address",
                    "name": "to",
                    "type": "address"
                },
                {
                    "indexed": false,
                    "internalType": "uint256",
                    "name": "tokenId",
                    "type": "uint256"
                }
            ],
            "name": "NFTMinted",
            "type": "event"
        },
        {
            "anonymous": false,
            "inputs": [
                {
                    "indexed": true,
                    "internalType": "address",
                    "name": "previousOwner",
                    "type": "address"
                },
                {
                    "indexed": true,
                    "internalType": "address",
                    "name": "newOwner",
                    "type": "address"
                }
            ],
            "name": "OwnershipTransferred",
            "type": "event"
        },
        {
            "anonymous": false,
            "inputs": [
                {
                    "indexed": true,
                    "internalType": "bytes32",
                    "name": "role",
                    "type": "bytes32"
                },
                {
                    "indexed": true,
                    "internalType": "address",
                    "name": "account",
                    "type": "address"
                },
                {
                    "indexed": true,
                    "internalType": "address",
                    "name": "sender",
                    "type": "address"
                }
            ],
            "name": "RoleGranted",
            "type": "event"
        },
        {
            "anonymous": false,
            "inputs": [
                {
                    "indexed": true,
                    "internalType": "bytes32",
                    "name": "role",
                    "type": "bytes32"
                },
                {
                    "indexed": true,
                    "internalType": "address",
                    "name": "account",
                    "type": "address"
                },
                {
                    "indexed": true,
                    "internalType": "address",
                    "name": "sender",
                    "type": "address"
                }
            ],
            "name": "RoleRevoked",
            "type": "event"
        },
        {
            "inputs": [],
            "name": "DEFAULT_ADMIN_ROLE",
            "outputs": [
                {
                    "internalType": "bytes32",
                    "name": "",
                    "type": "bytes32"
                }
            ],
            "stateMutability": "view",
            "type": "function"
        },
        {
            "inputs": [],
            "name": "MODIFIER_ROLE",
            "outputs": [
                {
                    "internalType": "bytes32",
                    "name": "",
                    "type": "bytes32"
                }
            ],
            "stateMutability": "view",
            "type": "function"
        },
        {
            "inputs": [],
            "name": "RAMVaultStartBlock",
            "outputs": [
                {
                    "internalType": "uint256",
                    "name": "",
                    "type": "uint256"
                }
            ],
            "stateMutability": "view",
            "type": "function"
        },
        {
            "inputs": [],
            "name": "YGYReserve",
            "outputs": [
                {
                    "internalType": "uint256",
                    "name": "",
                    "type": "uint256"
                }
            ],
            "stateMutability": "view",
            "type": "function"
        },
        {
            "inputs": [
                {
                    "internalType": "uint256",
                    "name": "",
                    "type": "uint256"
                }
            ],
            "name": "_NFTs",
            "outputs": [
                {
                    "internalType": "address",
                    "name": "",
                    "type": "address"
                }
            ],
            "stateMutability": "view",
            "type": "function"
        },
        {
            "inputs": [],
            "name": "_RAMToken",
            "outputs": [
                {
                    "internalType": "address",
                    "name": "",
                    "type": "address"
                }
            ],
            "stateMutability": "view",
            "type": "function"
        },
        {
            "inputs": [],
            "name": "_WETH",
            "outputs": [
                {
                    "internalType": "contract IWETH",
                    "name": "",
                    "type": "address"
                }
            ],
            "stateMutability": "view",
            "type": "function"
        },
        {
            "inputs": [],
            "name": "_YGYRAMPair",
            "outputs": [
                {
                    "internalType": "address",
                    "name": "",
                    "type": "address"
                }
            ],
            "stateMutability": "view",
            "type": "function"
        },
        {
            "inputs": [],
            "name": "_YGYToken",
            "outputs": [
                {
                    "internalType": "address",
                    "name": "",
                    "type": "address"
                }
            ],
            "stateMutability": "view",
            "type": "function"
        },
        {
            "inputs": [],
            "name": "_YGYWETHPair",
            "outputs": [
                {
                    "internalType": "address",
                    "name": "",
                    "type": "address"
                }
            ],
            "stateMutability": "view",
            "type": "function"
        },
        {
            "inputs": [],
            "name": "_dXIOTToken",
            "outputs": [
                {
                    "internalType": "contract IERC20",
                    "name": "",
                    "type": "address"
                }
            ],
            "stateMutability": "view",
            "type": "function"
        },
        {
            "inputs": [
                {
                    "internalType": "uint256",
                    "name": "",
                    "type": "uint256"
                }
            ],
            "name": "addressStorageCount",
            "outputs": [
                {
                    "internalType": "uint256",
                    "name": "",
                    "type": "uint256"
                }
            ],
            "stateMutability": "view",
            "type": "function"
        },
        {
            "inputs": [
                {
                    "internalType": "contract INFT",
                    "name": "_nft",
                    "type": "address"
                },
                {
                    "internalType": "address",
                    "name": "_who",
                    "type": "address"
                }
            ],
            "name": "balanceOf",
            "outputs": [
                {
                    "internalType": "uint256",
                    "name": "",
                    "type": "uint256"
                }
            ],
            "stateMutability": "view",
            "type": "function"
        },
        {
            "inputs": [
                {
                    "internalType": "address",
                    "name": "_addr",
                    "type": "address"
                }
            ],
            "name": "bondContract",
            "outputs": [
                {
                    "internalType": "bool",
                    "name": "",
                    "type": "bool"
                }
            ],
            "stateMutability": "nonpayable",
            "type": "function"
        },
        {
            "inputs": [],
            "name": "bondedContract",
            "outputs": [
                {
                    "internalType": "address",
                    "name": "",
                    "type": "address"
                }
            ],
            "stateMutability": "view",
            "type": "function"
        },
        {
            "inputs": [
                {
                    "internalType": "uint256",
                    "name": "",
                    "type": "uint256"
                }
            ],
            "name": "booleanMapStorageCount",
            "outputs": [
                {
                    "internalType": "uint256",
                    "name": "",
                    "type": "uint256"
                }
            ],
            "stateMutability": "view",
            "type": "function"
        },
        {
            "inputs": [],
            "name": "boostFees",
            "outputs": [
                {
                    "internalType": "uint256",
                    "name": "",
                    "type": "uint256"
                }
            ],
            "stateMutability": "view",
            "type": "function"
        },
        {
            "inputs": [
                {
                    "internalType": "uint256",
                    "name": "",
                    "type": "uint256"
                }
            ],
            "name": "boostLevelCosts",
            "outputs": [
                {
                    "internalType": "uint256",
                    "name": "",
                    "type": "uint256"
                }
            ],
            "stateMutability": "view",
            "type": "function"
        },
        {
            "inputs": [
                {
                    "internalType": "uint256",
                    "name": "",
                    "type": "uint256"
                }
            ],
            "name": "boostLevelMultipliers",
            "outputs": [
                {
                    "internalType": "uint256",
                    "name": "",
                    "type": "uint256"
                }
            ],
            "stateMutability": "view",
            "type": "function"
        },
        {
            "inputs": [
                {
                    "internalType": "contract INFT",
                    "name": "_nft",
                    "type": "address"
                },
                {
                    "internalType": "uint256",
                    "name": "_tokenId",
                    "type": "uint256"
                }
            ],
            "name": "burn",
            "outputs": [],
            "stateMutability": "nonpayable",
            "type": "function"
        },
        {
            "inputs": [
                {
                    "internalType": "uint256",
                    "name": "_pid",
                    "type": "uint256"
                },
                {
                    "internalType": "address",
                    "name": "_user",
                    "type": "address"
                }
            ],
            "name": "checkRewards",
            "outputs": [
                {
                    "internalType": "uint256",
                    "name": "pendingRAM",
                    "type": "uint256"
                },
                {
                    "internalType": "uint256",
                    "name": "pendingYGY",
                    "type": "uint256"
                }
            ],
            "stateMutability": "view",
            "type": "function"
        },
        {
            "inputs": [
                {
                    "internalType": "uint256",
                    "name": "",
                    "type": "uint256"
                }
            ],
            "name": "contracts",
            "outputs": [
                {
                    "internalType": "address",
                    "name": "",
                    "type": "address"
                }
            ],
            "stateMutability": "view",
            "type": "function"
        },
        {
            "inputs": [],
            "name": "cumulativeRewardsSinceStart",
            "outputs": [
                {
                    "internalType": "uint256",
                    "name": "",
                    "type": "uint256"
                }
            ],
            "stateMutability": "view",
            "type": "function"
        },
        {
            "inputs": [],
            "name": "cumulativeYGYRewardsSinceStart",
            "outputs": [
                {
                    "internalType": "uint256",
                    "name": "",
                    "type": "uint256"
                }
            ],
            "stateMutability": "view",
            "type": "function"
        },
        {
            "inputs": [
                {
                    "internalType": "string",
                    "name": "name",
                    "type": "string"
                },
                {
                    "internalType": "string",
                    "name": "symbol",
                    "type": "string"
                },
                {
                    "internalType": "string",
                    "name": "tokenURI",
                    "type": "string"
                },
                {
                    "internalType": "uint256",
                    "name": "contractId",
                    "type": "uint256"
                },
                {
                    "internalType": "uint256",
                    "name": "propertyChoices",
                    "type": "uint256"
                },
                {
                    "internalType": "address",
                    "name": "admin",
                    "type": "address"
                },
                {
                    "internalType": "bool",
                    "name": "allowTrade",
                    "type": "bool"
                },
                {
                    "internalType": "bool",
                    "name": "isCapped",
                    "type": "bool"
                },
                {
                    "internalType": "uint256",
                    "name": "capAmount",
                    "type": "uint256"
                }
            ],
            "name": "deployNFT",
            "outputs": [
                {
                    "internalType": "contract NFT",
                    "name": "newContract",
                    "type": "address"
                }
            ],
            "stateMutability": "nonpayable",
            "type": "function"
        },
        {
            "inputs": [],
            "name": "epoch",
            "outputs": [
                {
                    "internalType": "uint256",
                    "name": "",
                    "type": "uint256"
                }
            ],
            "stateMutability": "view",
            "type": "function"
        },
        {
            "inputs": [],
            "name": "epochCalculationStartBlock",
            "outputs": [
                {
                    "internalType": "uint256",
                    "name": "",
                    "type": "uint256"
                }
            ],
            "stateMutability": "view",
            "type": "function"
        },
        {
            "inputs": [
                {
                    "internalType": "uint256",
                    "name": "",
                    "type": "uint256"
                }
            ],
            "name": "epochRewards",
            "outputs": [
                {
                    "internalType": "uint256",
                    "name": "",
                    "type": "uint256"
                }
            ],
            "stateMutability": "view",
            "type": "function"
        },
        {
            "inputs": [
                {
                    "internalType": "string",
                    "name": "_key",
                    "type": "string"
                }
            ],
            "name": "getAddressStorage",
            "outputs": [
                {
                    "internalType": "address",
                    "name": "",
                    "type": "address"
                }
            ],
            "stateMutability": "view",
            "type": "function"
        },
        {
            "inputs": [
                {
                    "internalType": "string",
                    "name": "_key",
                    "type": "string"
                },
                {
                    "internalType": "address",
                    "name": "_address",
                    "type": "address"
                }
            ],
            "name": "getBooleanMapValue",
            "outputs": [
                {
                    "internalType": "bool",
                    "name": "",
                    "type": "bool"
                }
            ],
            "stateMutability": "view",
            "type": "function"
        },
        {
            "inputs": [
                {
                    "internalType": "uint256",
                    "name": "_level",
                    "type": "uint256"
                }
            ],
            "name": "getBoostLevelCost",
            "outputs": [
                {
                    "internalType": "uint256",
                    "name": "",
                    "type": "uint256"
                }
            ],
            "stateMutability": "view",
            "type": "function"
        },
        {
            "inputs": [
                {
                    "internalType": "uint256",
                    "name": "_level",
                    "type": "uint256"
                }
            ],
            "name": "getBoostLevelMultiplier",
            "outputs": [
                {
                    "internalType": "uint256",
                    "name": "",
                    "type": "uint256"
                }
            ],
            "stateMutability": "view",
            "type": "function"
        },
        {
            "inputs": [],
            "name": "getContractCount",
            "outputs": [
                {
                    "internalType": "uint256",
                    "name": "contractCount",
                    "type": "uint256"
                }
            ],
            "stateMutability": "view",
            "type": "function"
        },
        {
            "inputs": [
                {
                    "internalType": "uint256",
                    "name": "_epoch",
                    "type": "uint256"
                }
            ],
            "name": "getEpochRewards",
            "outputs": [
                {
                    "internalType": "uint256",
                    "name": "",
                    "type": "uint256"
                }
            ],
            "stateMutability": "view",
            "type": "function"
        },
        {
            "inputs": [
                {
                    "internalType": "uint256",
                    "name": "_contractId",
                    "type": "uint256"
                }
            ],
            "name": "getNFTAddress",
            "outputs": [
                {
                    "internalType": "address",
                    "name": "",
                    "type": "address"
                }
            ],
            "stateMutability": "view",
            "type": "function"
        },
        {
            "inputs": [
                {
                    "internalType": "uint256",
                    "name": "_contractId",
                    "type": "uint256"
                },
                {
                    "internalType": "uint256",
                    "name": "_index",
                    "type": "uint256"
                }
            ],
            "name": "getNFTProperty",
            "outputs": [
                {
                    "internalType": "string",
                    "name": "",
                    "type": "string"
                },
                {
                    "internalType": "uint256",
                    "name": "",
                    "type": "uint256"
                },
                {
                    "internalType": "bytes32",
                    "name": "",
                    "type": "bytes32"
                }
            ],
            "stateMutability": "view",
            "type": "function"
        },
        {
            "inputs": [
                {
                    "internalType": "uint256",
                    "name": "_contractId",
                    "type": "uint256"
                }
            ],
            "name": "getNFTPropertyCount",
            "outputs": [
                {
                    "internalType": "uint256",
                    "name": "",
                    "type": "uint256"
                }
            ],
            "stateMutability": "view",
            "type": "function"
        },
        {
            "inputs": [
                {
                    "internalType": "uint256",
                    "name": "_poolId",
                    "type": "uint256"
                }
            ],
            "name": "getPoolInfo",
            "outputs": [
                {
                    "internalType": "contract IERC20",
                    "name": "_token",
                    "type": "address"
                },
                {
                    "internalType": "uint256",
                    "name": "_allocPointt",
                    "type": "uint256"
                },
                {
                    "internalType": "uint256",
                    "name": "_accRAMPerShare",
                    "type": "uint256"
                },
                {
                    "internalType": "uint256",
                    "name": "_accYGYPerShare",
                    "type": "uint256"
                },
                {
                    "internalType": "bool",
                    "name": "_withdrawable",
                    "type": "bool"
                },
                {
                    "internalType": "uint256",
                    "name": "_effectiveAdditionalTokensFromBoosts",
                    "type": "uint256"
                }
            ],
            "stateMutability": "view",
            "type": "function"
        },
        {
            "inputs": [
                {
                    "internalType": "bytes32",
                    "name": "role",
                    "type": "bytes32"
                }
            ],
            "name": "getRoleAdmin",
            "outputs": [
                {
                    "internalType": "bytes32",
                    "name": "",
                    "type": "bytes32"
                }
            ],
            "stateMutability": "view",
            "type": "function"
        },
        {
            "inputs": [
                {
                    "internalType": "bytes32",
                    "name": "role",
                    "type": "bytes32"
                },
                {
                    "internalType": "uint256",
                    "name": "index",
                    "type": "uint256"
                }
            ],
            "name": "getRoleMember",
            "outputs": [
                {
                    "internalType": "address",
                    "name": "",
                    "type": "address"
                }
            ],
            "stateMutability": "view",
            "type": "function"
        },
        {
            "inputs": [
                {
                    "internalType": "bytes32",
                    "name": "role",
                    "type": "bytes32"
                }
            ],
            "name": "getRoleMemberCount",
            "outputs": [
                {
                    "internalType": "uint256",
                    "name": "",
                    "type": "uint256"
                }
            ],
            "stateMutability": "view",
            "type": "function"
        },
        {
            "inputs": [
                {
                    "internalType": "uint256",
                    "name": "_poolId",
                    "type": "uint256"
                },
                {
                    "internalType": "address",
                    "name": "_user",
                    "type": "address"
                }
            ],
            "name": "getUserInfo",
            "outputs": [
                {
                    "internalType": "uint256",
                    "name": "amount",
                    "type": "uint256"
                },
                {
                    "internalType": "uint256",
                    "name": "rewardDebt",
                    "type": "uint256"
                },
                {
                    "internalType": "uint256",
                    "name": "rewardDebtYGY",
                    "type": "uint256"
                },
                {
                    "internalType": "uint256",
                    "name": "boostAmount",
                    "type": "uint256"
                },
                {
                    "internalType": "uint256",
                    "name": "boostLevel",
                    "type": "uint256"
                },
                {
                    "internalType": "uint256",
                    "name": "spentMultiplierTokens",
                    "type": "uint256"
                }
            ],
            "stateMutability": "view",
            "type": "function"
        },
        {
            "inputs": [
                {
                    "internalType": "bytes32",
                    "name": "role",
                    "type": "bytes32"
                },
                {
                    "internalType": "address",
                    "name": "account",
                    "type": "address"
                }
            ],
            "name": "grantRole",
            "outputs": [],
            "stateMutability": "nonpayable",
            "type": "function"
        },
        {
            "inputs": [
                {
                    "internalType": "bytes32",
                    "name": "role",
                    "type": "bytes32"
                },
                {
                    "internalType": "address",
                    "name": "account",
                    "type": "address"
                }
            ],
            "name": "hasRole",
            "outputs": [
                {
                    "internalType": "bool",
                    "name": "",
                    "type": "bool"
                }
            ],
            "stateMutability": "view",
            "type": "function"
        },
        {
            "inputs": [],
            "name": "initialize",
            "outputs": [],
            "stateMutability": "nonpayable",
            "type": "function"
        },
        {
            "inputs": [
                {
                    "internalType": "address",
                    "name": "_ram",
                    "type": "address"
                },
                {
                    "internalType": "address",
                    "name": "_ygy",
                    "type": "address"
                },
                {
                    "internalType": "address",
                    "name": "_teamaddr",
                    "type": "address"
                },
                {
                    "internalType": "address",
                    "name": "_regeneratoraddr",
                    "type": "address"
                }
            ],
            "name": "initializeRAMVault",
            "outputs": [],
            "stateMutability": "nonpayable",
            "type": "function"
        },
        {
            "inputs": [
                {
                    "internalType": "contract INFT",
                    "name": "_nft",
                    "type": "address"
                },
                {
                    "internalType": "address",
                    "name": "_who",
                    "type": "address"
                },
                {
                    "internalType": "uint256",
                    "name": "tokenId",
                    "type": "uint256"
                }
            ],
            "name": "isOwner",
            "outputs": [
                {
                    "internalType": "bool",
                    "name": "",
                    "type": "bool"
                }
            ],
            "stateMutability": "view",
            "type": "function"
        },
        {
            "inputs": [],
            "name": "lastContractAddress",
            "outputs": [
                {
                    "internalType": "address",
                    "name": "",
                    "type": "address"
                }
            ],
            "stateMutability": "view",
            "type": "function"
        },
        {
            "inputs": [
                {
                    "internalType": "address",
                    "name": "",
                    "type": "address"
                }
            ],
            "name": "lastTicketLevel",
            "outputs": [
                {
                    "internalType": "uint256",
                    "name": "",
                    "type": "uint256"
                }
            ],
            "stateMutability": "view",
            "type": "function"
        },
        {
            "inputs": [
                {
                    "internalType": "address",
                    "name": "",
                    "type": "address"
                }
            ],
            "name": "liquidityContributedEthValue",
            "outputs": [
                {
                    "internalType": "uint256",
                    "name": "",
                    "type": "uint256"
                }
            ],
            "stateMutability": "view",
            "type": "function"
        },
        {
            "inputs": [
                {
                    "internalType": "contract INFT",
                    "name": "_nft",
                    "type": "address"
                },
                {
                    "internalType": "address",
                    "name": "_to",
                    "type": "address"
                }
            ],
            "name": "mint",
            "outputs": [
                {
                    "internalType": "uint256",
                    "name": "",
                    "type": "uint256"
                }
            ],
            "stateMutability": "nonpayable",
            "type": "function"
        },
        {
            "inputs": [
                {
                    "internalType": "address",
                    "name": "",
                    "type": "address"
                },
                {
                    "internalType": "uint256",
                    "name": "",
                    "type": "uint256"
                }
            ],
            "name": "nftPropertyChoices",
            "outputs": [
                {
                    "internalType": "string",
                    "name": "pType",
                    "type": "string"
                },
                {
                    "internalType": "uint256",
                    "name": "pValue",
                    "type": "uint256"
                },
                {
                    "internalType": "bytes32",
                    "name": "extra",
                    "type": "bytes32"
                }
            ],
            "stateMutability": "view",
            "type": "function"
        },
        {
            "inputs": [
                {
                    "internalType": "address",
                    "name": "",
                    "type": "address"
                }
            ],
            "name": "ownedContracts",
            "outputs": [
                {
                    "internalType": "bool",
                    "name": "",
                    "type": "bool"
                }
            ],
            "stateMutability": "view",
            "type": "function"
        },
        {
            "inputs": [],
            "name": "owner",
            "outputs": [
                {
                    "internalType": "address",
                    "name": "",
                    "type": "address"
                }
            ],
            "stateMutability": "view",
            "type": "function"
        },
        {
            "inputs": [],
            "name": "pendingRewards",
            "outputs": [
                {
                    "internalType": "uint256",
                    "name": "",
                    "type": "uint256"
                }
            ],
            "stateMutability": "view",
            "type": "function"
        },
        {
            "inputs": [],
            "name": "pendingYGYRewards",
            "outputs": [
                {
                    "internalType": "uint256",
                    "name": "",
                    "type": "uint256"
                }
            ],
            "stateMutability": "view",
            "type": "function"
        },
        {
            "inputs": [
                {
                    "internalType": "uint256",
                    "name": "",
                    "type": "uint256"
                }
            ],
            "name": "poolInfo",
            "outputs": [
                {
                    "internalType": "contract IERC20",
                    "name": "token",
                    "type": "address"
                },
                {
                    "internalType": "uint256",
                    "name": "allocPoint",
                    "type": "uint256"
                },
                {
                    "internalType": "uint256",
                    "name": "accRAMPerShare",
                    "type": "uint256"
                },
                {
                    "internalType": "uint256",
                    "name": "accYGYPerShare",
                    "type": "uint256"
                },
                {
                    "internalType": "bool",
                    "name": "withdrawable",
                    "type": "bool"
                },
                {
                    "internalType": "uint256",
                    "name": "effectiveAdditionalTokensFromBoosts",
                    "type": "uint256"
                }
            ],
            "stateMutability": "view",
            "type": "function"
        },
        {
            "inputs": [],
            "name": "poolLength",
            "outputs": [
                {
                    "internalType": "uint256",
                    "name": "",
                    "type": "uint256"
                }
            ],
            "stateMutability": "view",
            "type": "function"
        },
        {
            "inputs": [],
            "name": "ram",
            "outputs": [
                {
                    "internalType": "contract INBUNIERC20",
                    "name": "",
                    "type": "address"
                }
            ],
            "stateMutability": "view",
            "type": "function"
        },
        {
            "inputs": [],
            "name": "regeneratoraddr",
            "outputs": [
                {
                    "internalType": "address",
                    "name": "",
                    "type": "address"
                }
            ],
            "stateMutability": "view",
            "type": "function"
        },
        {
            "inputs": [],
            "name": "renounceOwnership",
            "outputs": [],
            "stateMutability": "nonpayable",
            "type": "function"
        },
        {
            "inputs": [
                {
                    "internalType": "bytes32",
                    "name": "role",
                    "type": "bytes32"
                },
                {
                    "internalType": "address",
                    "name": "account",
                    "type": "address"
                }
            ],
            "name": "renounceRole",
            "outputs": [],
            "stateMutability": "nonpayable",
            "type": "function"
        },
        {
            "inputs": [
                {
                    "internalType": "bytes32",
                    "name": "role",
                    "type": "bytes32"
                },
                {
                    "internalType": "address",
                    "name": "account",
                    "type": "address"
                }
            ],
            "name": "revokeRole",
            "outputs": [],
            "stateMutability": "nonpayable",
            "type": "function"
        },
        {
            "inputs": [],
            "name": "rewardsInThisEpoch",
            "outputs": [
                {
                    "internalType": "uint256",
                    "name": "",
                    "type": "uint256"
                }
            ],
            "stateMutability": "view",
            "type": "function"
        },
        {
            "inputs": [
                {
                    "internalType": "address",
                    "name": "_nft",
                    "type": "address"
                },
                {
                    "components": [
                        {
                            "internalType": "string",
                            "name": "pType",
                            "type": "string"
                        },
                        {
                            "internalType": "uint256",
                            "name": "pValue",
                            "type": "uint256"
                        },
                        {
                            "internalType": "bytes32",
                            "name": "extra",
                            "type": "bytes32"
                        }
                    ],
                    "internalType": "struct YGYStorageV1.NFTProperty[]",
                    "name": "_properties",
                    "type": "tuple[]"
                }
            ],
            "name": "setNFTProperties",
            "outputs": [],
            "stateMutability": "nonpayable",
            "type": "function"
        },
        {
            "inputs": [
                {
                    "internalType": "address",
                    "name": "RAMToken",
                    "type": "address"
                },
                {
                    "internalType": "address",
                    "name": "YGYToken",
                    "type": "address"
                },
                {
                    "internalType": "address",
                    "name": "WETH",
                    "type": "address"
                },
                {
                    "internalType": "address",
                    "name": "YGYRAMPair",
                    "type": "address"
                },
                {
                    "internalType": "address",
                    "name": "YGYWethPair",
                    "type": "address"
                },
                {
                    "internalType": "address[]",
                    "name": "nfts",
                    "type": "address[]"
                },
                {
                    "internalType": "address",
                    "name": "dXIOTToken",
                    "type": "address"
                }
            ],
            "name": "setTokens",
            "outputs": [],
            "stateMutability": "nonpayable",
            "type": "function"
        },
        {
            "inputs": [
                {
                    "internalType": "string",
                    "name": "source",
                    "type": "string"
                }
            ],
            "name": "stringToBytes32",
            "outputs": [
                {
                    "internalType": "bytes32",
                    "name": "result",
                    "type": "bytes32"
                }
            ],
            "stateMutability": "pure",
            "type": "function"
        },
        {
            "inputs": [],
            "name": "teamaddr",
            "outputs": [
                {
                    "internalType": "address",
                    "name": "",
                    "type": "address"
                }
            ],
            "stateMutability": "view",
            "type": "function"
        },
        {
            "inputs": [],
            "name": "ticketCount",
            "outputs": [
                {
                    "internalType": "uint256",
                    "name": "",
                    "type": "uint256"
                }
            ],
            "stateMutability": "view",
            "type": "function"
        },
        {
            "inputs": [
                {
                    "internalType": "uint256",
                    "name": "",
                    "type": "uint256"
                }
            ],
            "name": "tickets",
            "outputs": [
                {
                    "internalType": "address",
                    "name": "owner",
                    "type": "address"
                },
                {
                    "internalType": "uint256",
                    "name": "levelOneChance",
                    "type": "uint256"
                },
                {
                    "internalType": "uint256",
                    "name": "levelTwoChance",
                    "type": "uint256"
                },
                {
                    "internalType": "uint256",
                    "name": "levelThreeChance",
                    "type": "uint256"
                },
                {
                    "internalType": "uint256",
                    "name": "levelFourChance",
                    "type": "uint256"
                },
                {
                    "internalType": "uint256",
                    "name": "levelFiveChance",
                    "type": "uint256"
                }
            ],
            "stateMutability": "view",
            "type": "function"
        },
        {
            "inputs": [
                {
                    "internalType": "contract INFT",
                    "name": "_nft",
                    "type": "address"
                }
            ],
            "name": "tokenURI",
            "outputs": [
                {
                    "internalType": "string",
                    "name": "",
                    "type": "string"
                }
            ],
            "stateMutability": "view",
            "type": "function"
        },
        {
            "inputs": [],
            "name": "totalAllocPoint",
            "outputs": [
                {
                    "internalType": "uint256",
                    "name": "",
                    "type": "uint256"
                }
            ],
            "stateMutability": "view",
            "type": "function"
        },
        {
            "inputs": [
                {
                    "internalType": "address",
                    "name": "newOwner",
                    "type": "address"
                }
            ],
            "name": "transferOwnership",
            "outputs": [],
            "stateMutability": "nonpayable",
            "type": "function"
        },
        {
            "inputs": [
                {
                    "internalType": "uint256",
                    "name": "",
                    "type": "uint256"
                }
            ],
            "name": "uintStorageCount",
            "outputs": [
                {
                    "internalType": "uint256",
                    "name": "",
                    "type": "uint256"
                }
            ],
            "stateMutability": "view",
            "type": "function"
        },
        {
            "inputs": [
                {
                    "internalType": "uint256[]",
                    "name": "_boostMultipliers",
                    "type": "uint256[]"
                },
                {
                    "internalType": "uint256[]",
                    "name": "_boostCosts",
                    "type": "uint256[]"
                }
            ],
            "name": "updateBoosts",
            "outputs": [],
            "stateMutability": "nonpayable",
            "type": "function"
        },
        {
            "inputs": [
                {
                    "internalType": "uint256",
                    "name": "",
                    "type": "uint256"
                },
                {
                    "internalType": "address",
                    "name": "",
                    "type": "address"
                }
            ],
            "name": "userInfo",
            "outputs": [
                {
                    "internalType": "uint256",
                    "name": "amount",
                    "type": "uint256"
                },
                {
                    "internalType": "uint256",
                    "name": "rewardDebt",
                    "type": "uint256"
                },
                {
                    "internalType": "uint256",
                    "name": "rewardDebtYGY",
                    "type": "uint256"
                },
                {
                    "internalType": "uint256",
                    "name": "boostAmount",
                    "type": "uint256"
                },
                {
                    "internalType": "uint256",
                    "name": "boostLevel",
                    "type": "uint256"
                },
                {
                    "internalType": "uint256",
                    "name": "spentMultiplierTokens",
                    "type": "uint256"
                }
            ],
            "stateMutability": "view",
            "type": "function"
        },
        {
            "inputs": [],
            "name": "ygy",
            "outputs": [
                {
                    "internalType": "contract IERC20",
                    "name": "",
                    "type": "address"
                }
            ],
            "stateMutability": "view",
            "type": "function"
        }
    ],
    "bytecode": "608060405234801561001057600080fd5b5061636d806100206000396000f3fe60806040523480156200001157600080fd5b5060043610620004cc5760003560e01c8063900cf0cf1162000285578063cc40f6641162000165578063e941c85611620000d5578063f370e8c51162000093578063f370e8c51462000a81578063f7888aec1462000a98578063f7db38cb1462000aaf578063fa69669c1462000ab9578063fb70c3bf1462000ac357620004cc565b8063e941c8561462000a1b578063eded3fda1462000a32578063ee02ea1b1462000a3c578063ee1fe2ad1462000a53578063f2fde38b1462000a6a57620004cc565b8063d6cf80211162000123578063d6cf802114620009b5578063e0af361614620009cc578063e11f8a2614620009d6578063e671fab514620009ed578063e8e114091462000a0457620004cc565b8063cc40f664146200094f578063cfb519281462000966578063cfbd900f146200097d578063d547741f1462000987578063d5fec284146200099e57620004cc565b80639dc29fac1162000201578063b81a0b4c11620001bf578063b81a0b4c1462000903578063bcb49086146200090d578063bf184f931462000924578063c8ffb873146200092e578063ca15c873146200093857620004cc565b80639dc29fac146200089d578063a217fddf14620008b4578063a5f8ace814620008be578063ad1414b214620008d5578063b2f4b44a14620008ec57620004cc565b80639399869d116200024f5780639399869d146200085157806393f1a40b146200085b5780639649d76c14620008725780639a6d2711146200087c5780639d18f773146200088657620004cc565b8063900cf0cf14620007f35780639010d07c14620007fd57806391d14854146200081457806393702f33146200082b57620004cc565b8063474da79a11620003b15780636a9d1f6f116200032d5780637d3b8da111620002eb5780637d3b8da114620007c15780638129fc1c14620007cb5780638b6ff57b14620007d55780638da5cb5b14620007df5780638f33b5e514620007e957620004cc565b80636a9d1f6f14620007685780636b42ee55146200077f578063715018a614620007965780637575aa8a14620007a0578063795d79f514620007aa57620004cc565b806358739fc8116200037b57806358739fc8146200070f5780635d577c1814620007265780635f0c0f2b1462000730578063608c8d3a14620007475780636798f19f146200075157620004cc565b8063474da79a146200068e5780634dc47d3414620006a557806350b4471214620006bc5780635498d4c014620006e757620004cc565b8063248a9ca3116200044d57806332709738116200040b57806332709738146200063557806336568abe146200063f5780633664433414620006565780633b24bd4a146200066d578063469fcdcb146200067757620004cc565b8063248a9ca314620005cb5780632f2ff15d14620005e25780632f380b3514620005fb5780632f4f8a7a146200061257806331db122c146200062b57620004cc565b80631069f3b5116200049b5780631069f3b5146200053b5780631526fe27146200056657806317caf6f114620005915780631dbf779e146200059b57806324705db314620005a557620004cc565b8063081e3eda14620004d157806309e3de4114620004f35780630a08f1d414620004fd57806310178d9c1462000514575b600080fd5b620004db62000acd565b604051620004ea919062003181565b60405180910390f35b620004db62000ad3565b620004db6200050e36600462002e17565b62000ad9565b6200052b6200052536600462002e30565b62000c06565b604051620004ea92919062003576565b620005526200054c36600462002e30565b62000ce6565b604051620004ea9695949392919062003584565b6200057d6200057736600462002e17565b62000d78565b604051620004ea969594939291906200318a565b620004db62000dcc565b620004db62000dd2565b620005bc620005b636600462002ac4565b62000dd8565b604051620004ea919062003176565b620004db620005dc36600462002e17565b62000e42565b620005f9620005f336600462002e30565b62000e57565b005b6200057d6200060c36600462002e17565b62000ea7565b6200061c62000f4a565b604051620004ea91906200312f565b620004db62000f59565b6200061c62000f5f565b620005f96200065036600462002e30565b62000f6e565b620005f96200066736600462002b02565b62000fb7565b6200061c62001205565b620004db6200068836600462002e17565b62001214565b6200061c6200069f36600462002e17565b62001226565b620004db620006b636600462002e17565b6200124e565b620006d3620006cd36600462002e17565b62001260565b604051620004ea9695949392919062003143565b620006fe620006f836600462002e62565b6200129f565b604051620004ea9392919062003286565b620006fe6200072036600462002d81565b620013d0565b620004db6200149d565b620004db6200074136600462002e17565b620014a3565b620004db620014b5565b620004db6200076236600462002e17565b620014bb565b620004db6200077936600462002e17565b620014cd565b620004db6200079036600462002e17565b620014df565b620005f9620014fe565b620004db62001582565b6200061c620007bb36600462002e17565b62001595565b6200061c620015b0565b620005f9620015bf565b620004db62001689565b6200061c6200168f565b6200061c6200169e565b620004db620016ad565b6200061c6200080e36600462002e62565b620016b3565b620005bc6200082536600462002e30565b620016d6565b620008426200083c36600462002ac4565b620016f0565b604051620004ea9190620031bf565b620004db6200176b565b620005526200086c36600462002e30565b62001771565b620004db620017b1565b6200061c620017b7565b6200061c6200089736600462002e17565b620017c6565b620005f9620008ae36600462002d81565b620017e1565b620004db620019eb565b620005f9620008cf36600462002b66565b620019f0565b620004db620008e636600462002ac4565b62001ae3565b620005f9620008fd36600462002daf565b62001af5565b6200061c62001ba2565b620004db6200091e36600462002e17565b62001bb1565b6200061c62001bc3565b620004db62001bd2565b620004db6200094936600462002e17565b62001bd8565b620004db6200096036600462002ac4565b62001bf1565b620004db6200097736600462002efb565b62001c03565b620004db62001c23565b620005f96200099836600462002e30565b62001c29565b6200061c620009af36600462003001565b62001c69565b620004db620009c636600462002e17565b62001da3565b6200061c62001db1565b620005f9620009e736600462002c86565b62001dc0565b620005bc620009fe36600462002fb6565b62001ea2565b620005bc62000a1536600462002ac4565b62001ed8565b620004db62000a2c36600462002e17565b62001eed565b620004db62001efb565b6200061c62000a4d36600462002efb565b62001f01565b620004db62000a6436600462002e84565b62001f2e565b620005f962000a7b36600462002ac4565b620020e4565b620005bc62000a9236600462002eb6565b620021a3565b620004db62000aa936600462002e84565b62002243565b6200061c620022c8565b6200061c620022d7565b6200061c620022e6565b60ca5490565b60e15481565b600081815260e960209081526040808320546001600160a01b031680845260ea8352818420805483518186028101860190945280845291936060939290869084015b8282101562000bf65760008481526020908190206040805160038602909201805460026001821615610100026000190190911604601f810185900490940283016080908101909252606083018481529293909284929091849184018282801562000bc95780601f1062000b9d5761010080835404028352916020019162000bc9565b820191906000526020600020905b81548152906001019060200180831162000bab57829003601f168201915b50505050508152602001600182015481526020016002820154815250508152602001906001019062000b1b565b505091519450505050505b919050565b600080600060ca858154811062000c1957fe5b6000918252602080832088845260c9825260408085206001600160a01b038a1686529092529083206003810154815460079094029092019450929162000c5f91620022f5565b90506000808460030154111562000cad5762000caa836002015462000ca364e8d4a5100062000c9c8860030154876200231d90919063ffffffff16565b906200235d565b90620023a1565b90505b62000cd9836001015462000ca364e8d4a5100062000c9c8860020154876200231d90919063ffffffff16565b9890975095505050505050565b60008060008060008062000cf962002715565b5050506000958652505060c9602090815260408086206001600160a01b0395909516865293815293839020835160c08101855281548082526001830154968201879052600283015495820186905260038301546060830181905260048401546080840181905260059094015460a0909301839052909790945091925090565b60ca818154811062000d8657fe5b60009182526020909120600790910201805460018201546002830154600384015460048501546006909501546001600160a01b0390941695509193909260ff9091169086565b60cb5481565b60ce5481565b600062000de4620023e5565b6065546001600160a01b0390811691161462000e1d5760405162461bcd60e51b815260040162000e1490620034a4565b60405180910390fd5b5060f380546001600160a01b0383166001600160a01b03199091161790556001919050565b60009081526097602052604090206002015490565b60008281526097602052604090206002015462000e789062000825620023e5565b62000e975760405162461bcd60e51b815260040162000e1490620032ef565b62000ea38282620023e9565b5050565b60008060008060008062000eba6200274b565b60ca888154811062000ec857fe5b60009182526020918290206040805160c08101825260079390930290910180546001600160a01b031680845260018201549484018590526002820154928401839052600382015460608501819052600483015460ff1615156080860181905260069093015460a0909501859052909d949c50919a509098509650945092505050565b60db546001600160a01b031681565b60d15481565b60f2546001600160a01b031681565b62000f78620023e5565b6001600160a01b0316816001600160a01b03161462000fab5760405162461bcd60e51b815260040162000e149062003527565b62000ea3828262002457565b600054610100900460ff168062000fd3575062000fd3620024c5565b8062000fe2575060005460ff16155b620010015760405162461bcd60e51b815260040162000e1490620034d9565b600054610100900460ff161580156200102d576000805460ff1961ff0019909116610100171660011790555b6200104b6000805160206200631883398151915262000825620023e5565b6200105557600080fd5b60d980546001600160a01b038088166001600160a01b03199283161790925560da805487841690831617905560d8805486841690831617905560d78054928516929091169190911790554360d155674563918244f400007f30056815db4f2a630cfabf02667a38e3880aea5244187f7a83447df0f50fae7e5567d02ab486cedc00007f93c4bb6c0f2d824ad6efe8cc0ae6b5db7c1733a451e85fc0df8735d769377a3f556801a055690d9db800007fa840fbb79f21adf16d4f64c6fefec4671eee0ed4b74aabeb944158f632e4480055680340aad21b3b7000007fc0fcfbe25ae0350683c39d2a28523a539ce7452e2fd44451a32a75e038a003bf5560e360205260057fa71a5dc6523a2d0bf383648e732f9cbd05fb5cd75a9c44758106b038b320de3655600f7f943c16c606a37eaf2ffde50503ea170bf4838709828ded1135a1486c90b7e0ee55601e7f16856fcf46d514fe62f26b23afa013e951c313a821ce2c3eaba8a78d946060a8556004600052603c7f7f84c93ccfe82de4803f900144a81b2660ffe15f75cd8fd5ba5ab2f905ff42ad558015620011fe576000805461ff00191690555b5050505050565b60dd546001600160a01b031681565b60e26020526000908152604090205481565b60f181815481106200123457fe5b6000918252602090912001546001600160a01b0316905081565b60e46020526000908152604090205481565b60e6602052600090815260409020805460018201546002830154600384015460048501546005909501546001600160a01b039094169492939192909186565b600082815260e960205260408120546060919081906001600160a01b0316620012c76200278c565b6001600160a01b038216600090815260ea60205260409020805487908110620012ec57fe5b600091825260209182902060408051600393909302909101805460026001821615610100026000190190911604601f8101859004909402830160809081019092526060830184815292939092849290918491840182828015620013935780601f10620013675761010080835404028352916020019162001393565b820191906000526020600020905b8154815290600101906020018083116200137557829003601f168201915b5050505050815260200160018201548152602001600282015481525050905080600001518160200151826040015194509450945050509250925092565b60ea6020528160005260406000208181548110620013ea57fe5b60009182526020918290206003919091020180546040805160026001841615610100026000190190931692909204601f810185900485028301850190915280825291945092508391830182828015620014875780601f106200145b5761010080835404028352916020019162001487565b820191906000526020600020905b8154815290600101906020018083116200146957829003601f168201915b5050505050908060010154908060020154905083565b60d25481565b600090815260e4602052604090205490565b60d55481565b600090815260e3602052604090205490565b600090815260e2602052604090205490565b60ee8181548110620014ed57fe5b600091825260209091200154905081565b62001508620023e5565b6065546001600160a01b03908116911614620015385760405162461bcd60e51b815260040162000e1490620034a4565b6065546040516000916001600160a01b0316907f8be0079c531659141344cd1fd0a4f28419497f9722a3daafe3b4186f6b6457e0908390a3606580546001600160a01b0319169055565b6000805160206200631883398151915281565b60e9602052600090815260409020546001600160a01b031681565b60d7546001600160a01b031681565b600054610100900460ff1680620015db5750620015db620024c5565b80620015ea575060005460ff16155b620016095760405162461bcd60e51b815260040162000e1490620034d9565b600054610100900460ff1615801562001635576000805460ff1961ff0019909116610100171660011790555b62001645600062000825620023e5565b6200164f57600080fd5b62001673600080516020620063188339815191526200166d620023e5565b62000e97565b801562001686576000805461ff00191690555b50565b60cd5481565b6065546001600160a01b031690565b60d9546001600160a01b031681565b60d65481565b6000828152609760205260408120620016cd9083620024cb565b90505b92915050565b6000828152609760205260408120620016cd9083620024d9565b6060816001600160a01b031663b4ce37d26040518163ffffffff1660e01b815260040160006040518083038186803b1580156200172c57600080fd5b505afa15801562001741573d6000803e3d6000fd5b505050506040513d6000823e601f3d908101601f19168201604052620016d0919081019062002f3a565b60f15490565b60c9602090815260009283526040808420909152908252902080546001820154600283015460038401546004850154600590950154939492939192909186565b60d45481565b60d8546001600160a01b031681565b600090815260e960205260409020546001600160a01b031690565b620017eb620023e5565b6001600160a01b0316826001600160a01b0316636352211e836040518263ffffffff1660e01b815260040162001822919062003181565b60206040518083038186803b1580156200183b57600080fd5b505afa15801562001850573d6000803e3d6000fd5b505050506040513d601f19601f8201168201806040525081019062001876919062002ae3565b6001600160a01b03161480620018a8575060f3546001600160a01b03166200189d620023e5565b6001600160a01b0316145b620018c75760405162461bcd60e51b815260040162000e14906200333e565b604051630852cd8d60e31b81526001600160a01b038316906342966c6890620018f590849060040162003181565b600060405180830381600087803b1580156200191057600080fd5b505af115801562001925573d6000803e3d6000fd5b505050507f9fd5e03e81a19319baa416b857469a80358cba426888c502e0e1a925dda26f5f826001600160a01b03166306fdde036040518163ffffffff1660e01b815260040160006040518083038186803b1580156200198457600080fd5b505afa15801562001999573d6000803e3d6000fd5b505050506040513d6000823e601f3d908101601f19168201604052620019c3919081019062002f3a565b620019cd620023e5565b83604051620019df93929190620031d4565b60405180910390a15050565b600081565b62001a0e6000805160206200631883398151915262000825620023e5565b62001a1857600080fd5b60de80546001600160a01b03199081166001600160a01b038a81169190911790925560dc8054821689841617905560e08054821688841617905560db8054821687841617905560dd8054821686841617905560df805490911691831691909117905560005b825181101562001ad95782818151811062001a9457fe5b602090810291909101810151600192909201600081815260e9909252604090912080546001600160a01b0319166001600160a01b039093169290921790915562001a7d565b5050505050505050565b60e76020526000908152604090205481565b62001b136000805160206200631883398151915262000825620023e5565b62001b1d57600080fd5b60005b82518160ff161162001b9d57818160ff168151811062001b3c57fe5b602002602001015160e260008360010160ff16815260200190815260200160002081905550828160ff168151811062001b7157fe5b60209081029190910181015160ff6001909301928316600090815260e390925260409091205562001b20565b505050565b60df546001600160a01b031681565b60e36020526000908152604090205481565b60f3546001600160a01b031681565b60d35481565b6000818152609760205260408120620016d090620024f0565b60e86020526000908152604090205481565b8051600090829062001c1a57506000905062000c01565b50506020015190565b60e55481565b60008281526097602052604090206002015462001c4a9062000825620023e5565b62000fab5760405162461bcd60e51b815260040162000e149062003413565b600062001c756200168f565b6001600160a01b031662001c88620023e5565b6001600160a01b0316148062001cba575060f3546001600160a01b031662001caf620023e5565b6001600160a01b0316145b62001cd95760405162461bcd60e51b815260040162000e1490620033de565b60008a8a8a8a8a8a8a8a8a60405162001cf290620027b0565b62001d069998979695949392919062003204565b604051809103906000f08015801562001d23573d6000803e3d6000fd5b5060f1805460018181019092557fc29b39917e4e60f0fee5b6871b30a38e50531d76d1b0837811bd6351b34854ec0180546001600160a01b0384166001600160a01b0319918216811790925560f2805490911682179055600090815260f460205260409020805460ff191690911790559150509998505050505050505050565b60ec8181548110620014ed57fe5b60e0546001600160a01b031681565b62001dca620023e5565b6065546001600160a01b0390811691161462001dfa5760405162461bcd60e51b815260040162000e1490620034a4565b6000805b825181101562001e73578183828151811062001e1657fe5b60209081029190910181015182546001810184556000938452928290208151805192946003029091019262001e5192849290910190620027be565b5060208201516001808301919091556040909201516002909101550162001dfe565b506001600160a01b038316600090815260ea60205260409020815462001e9c9190839062002843565b50505050565b60008062001eb08462001c03565b600090815260eb6020908152604082206001600160a01b039095169091529290925292915050565b60f46020526000908152604090205460ff1681565b60f08181548110620014ed57fe5b60cc5481565b60008062001f0f8362001c03565b600090815260ed60205260409020546001600160a01b03169392505050565b60f3546000906001600160a01b031662001f47620023e5565b6001600160a01b0316148062001f80575062001f626200168f565b6001600160a01b031662001f75620023e5565b6001600160a01b0316145b62001f9f5760405162461bcd60e51b815260040162000e14906200333e565b6040516335313c2160e11b81526000906001600160a01b03851690636a6278429062001fd09086906004016200312f565b602060405180830381600087803b15801562001feb57600080fd5b505af115801562002000573d6000803e3d6000fd5b505050506040513d601f19601f82011682018060405250810190620020269190620030e8565b90507f163ce421fac3059ce58ba6a093aff4bd0f6b3bb35c5c48acaf9c18b7626e86ce846001600160a01b03166306fdde036040518163ffffffff1660e01b815260040160006040518083038186803b1580156200208357600080fd5b505afa15801562002098573d6000803e3d6000fd5b505050506040513d6000823e601f3d908101601f19168201604052620020c2919081019062002f3a565b8483604051620020d593929190620031d4565b60405180910390a19392505050565b620020ee620023e5565b6065546001600160a01b039081169116146200211e5760405162461bcd60e51b815260040162000e1490620034a4565b6001600160a01b038116620021475760405162461bcd60e51b815260040162000e149062003361565b6065546040516001600160a01b038084169216907f8be0079c531659141344cd1fd0a4f28419497f9722a3daafe3b4186f6b6457e090600090a3606580546001600160a01b0319166001600160a01b0392909216919091179055565b6000826001600160a01b0316846001600160a01b0316636352211e846040518263ffffffff1660e01b8152600401620021dd919062003181565b60206040518083038186803b158015620021f657600080fd5b505afa1580156200220b573d6000803e3d6000fd5b505050506040513d601f19601f8201168201806040525081019062002231919062002ae3565b6001600160a01b031614949350505050565b6040516370a0823160e01b81526000906001600160a01b038416906370a0823190620022749085906004016200312f565b60206040518083038186803b1580156200228d57600080fd5b505afa158015620022a2573d6000803e3d6000fd5b505050506040513d601f19601f82011682018060405250810190620016cd9190620030e8565b60dc546001600160a01b031681565b60de546001600160a01b031681565b60da546001600160a01b031681565b600082820183811015620016cd5760405162461bcd60e51b815260040162000e1490620033a7565b6000826200232e57506000620016d0565b828202828482816200233c57fe5b0414620016cd5760405162461bcd60e51b815260040162000e149062003463565b6000620016cd83836040518060400160405280601a81526020017f536166654d6174683a206469766973696f6e206279207a65726f000000000000815250620024fd565b6000620016cd83836040518060400160405280601e81526020017f536166654d6174683a207375627472616374696f6e206f766572666c6f77000081525062002538565b3390565b600082815260976020526040902062002403908262002567565b1562000ea35762002413620023e5565b6001600160a01b0316816001600160a01b0316837f2f8788117e7eff1d82e926ec794901d17c78024a50270940304540a733656f0d60405160405180910390a45050565b60008281526097602052604090206200247190826200257e565b1562000ea35762002481620023e5565b6001600160a01b0316816001600160a01b0316837ff6391f5c32d9c69d2a47ea670b442974b53935d1edc7fd64eb21e047a839171b60405160405180910390a45050565b303b1590565b6000620016cd838362002595565b6000620016cd836001600160a01b038416620025de565b6000620016d082620025f6565b60008183620025215760405162461bcd60e51b815260040162000e149190620031bf565b5060008385816200252e57fe5b0495945050505050565b600081848411156200255f5760405162461bcd60e51b815260040162000e149190620031bf565b505050900390565b6000620016cd836001600160a01b038416620025fa565b6000620016cd836001600160a01b03841662002649565b81546000908210620025bb5760405162461bcd60e51b815260040162000e1490620032ad565b826000018281548110620025cb57fe5b9060005260206000200154905092915050565b60009081526001919091016020526040902054151590565b5490565b6000620026088383620025de565b6200264057508154600181810184556000848152602080822090930184905584548482528286019093526040902091909155620016d0565b506000620016d0565b600081815260018301602052604081205480156200270a57835460001980830191908101906000908790839081106200267e57fe5b90600052602060002001549050808760000184815481106200269c57fe5b600091825260208083209091019290925582815260018981019092526040902090840190558654879080620026cd57fe5b60019003818190600052602060002001600090559055866001016000878152602001908152602001600020600090556001945050505050620016d0565b6000915050620016d0565b6040518060c001604052806000815260200160008152602001600081526020016000815260200160008152602001600081525090565b6040518060c0016040528060006001600160a01b03168152602001600081526020016000815260200160008152602001600015158152602001600081525090565b60405180606001604052806060815260200160008152602001600080191681525090565b612cb8806200366083390190565b828054600181600116156101000203166002900490600052602060002090601f016020900481019282601f106200280157805160ff191683800117855562002831565b8280016001018555821562002831579182015b828111156200283157825182559160200191906001019062002814565b506200283f929150620028d5565b5090565b828054828255906000526020600020906003028101928215620028c75760005260206000209160030282015b82811115620028c757825483908390620028a0908290849060026000196101006001841615020190911604620028ec565b5060018201548160010155600282015481600201555050916003019190600301906200286f565b506200283f92915062002966565b5b808211156200283f5760008155600101620028d6565b828054600181600116156101000203166002900490600052602060002090601f016020900481019282601f1062002927578054855562002831565b828001600101855582156200283157600052602060002091601f016020900482015b828111156200283157825482559160010191906001019062002949565b808211156200283f5760006200297d828262002995565b50600060018201819055600282015560030162002966565b50805460018160011615610100020316600290046000825580601f10620029bd575062001686565b601f016020900490600052602060002090810190620016869190620028d5565b8035620016d08162003649565b600082601f830112620029fb578081fd5b813562002a1262002a0c82620035d4565b620035ac565b81815291506020808301908481018184028601820187101562002a3457600080fd5b60005b8481101562002a555781358452928201929082019060010162002a37565b505050505092915050565b80358015158114620016d057600080fd5b600082601f83011262002a82578081fd5b813562002a9362002a0c82620035f5565b915080825283602082850101111562002aab57600080fd5b8060208401602084013760009082016020015292915050565b60006020828403121562002ad6578081fd5b8135620016cd8162003649565b60006020828403121562002af5578081fd5b8151620016cd8162003649565b6000806000806080858703121562002b18578283fd5b843562002b258162003649565b9350602085013562002b378162003649565b9250604085013562002b498162003649565b9150606085013562002b5b8162003649565b939692955090935050565b600080600080600080600060e0888a03121562002b81578283fd5b873562002b8e8162003649565b965060208881013562002ba18162003649565b9650604089013562002bb38162003649565b9550606089013562002bc58162003649565b9450608089013562002bd78162003649565b935060a089013567ffffffffffffffff81111562002bf3578384fd5b8901601f81018b1362002c04578384fd5b803562002c1562002a0c82620035d4565b81815283810190838501858402850186018f101562002c32578788fd5b8794505b8385101562002c605762002c4b8f82620029dd565b83526001949094019391850191850162002c36565b50809650505050505062002c788960c08a01620029dd565b905092959891949750929550565b6000806040838503121562002c99578182fd5b823562002ca68162003649565b915060208381013567ffffffffffffffff8082111562002cc4578384fd5b818601915086601f83011262002cd8578384fd5b813562002ce962002a0c82620035d4565b81815284810190848601875b8481101562002d7057813587016060818e03601f1901121562002d1657898afd5b62002d226060620035ac565b898201358881111562002d33578b8cfd5b62002d438f8c8386010162002a71565b8252506040828101358b830152606090920135918101919091528452928701929087019060010162002cf5565b50979a909950975050505050505050565b6000806040838503121562002d94578182fd5b823562002da18162003649565b946020939093013593505050565b6000806040838503121562002dc2578182fd5b823567ffffffffffffffff8082111562002dda578384fd5b62002de886838701620029ea565b9350602085013591508082111562002dfe578283fd5b5062002e0d85828601620029ea565b9150509250929050565b60006020828403121562002e29578081fd5b5035919050565b6000806040838503121562002e43578182fd5b82359150602083013562002e578162003649565b809150509250929050565b6000806040838503121562002e75578182fd5b50508035926020909101359150565b6000806040838503121562002e97578182fd5b823562002ea48162003649565b9150602083013562002e578162003649565b60008060006060848603121562002ecb578081fd5b833562002ed88162003649565b9250602084013562002eea8162003649565b929592945050506040919091013590565b60006020828403121562002f0d578081fd5b813567ffffffffffffffff81111562002f24578182fd5b62002f328482850162002a71565b949350505050565b60006020828403121562002f4c578081fd5b815167ffffffffffffffff81111562002f63578182fd5b8201601f8101841362002f74578182fd5b805162002f8562002a0c82620035f5565b81815285602083850101111562002f9a578384fd5b62002fad8260208301602086016200361a565b95945050505050565b6000806040838503121562002fc9578182fd5b823567ffffffffffffffff81111562002fe0578283fd5b62002fee8582860162002a71565b925050602083013562002e578162003649565b60008060008060008060008060006101208a8c03121562003020578283fd5b893567ffffffffffffffff8082111562003038578485fd5b620030468d838e0162002a71565b9a5060208c01359150808211156200305c578485fd5b6200306a8d838e0162002a71565b995060408c013591508082111562003080578485fd5b506200308f8c828d0162002a71565b97505060608a0135955060808a01359450620030af8b60a08c01620029dd565b9350620030c08b60c08c0162002a60565b9250620030d18b60e08c0162002a60565b91506101008a013590509295985092959850929598565b600060208284031215620030fa578081fd5b5051919050565b600081518084526200311b8160208601602086016200361a565b601f01601f19169290920160200192915050565b6001600160a01b0391909116815260200190565b6001600160a01b03969096168652602086019490945260408501929092526060840152608083015260a082015260c00190565b901515815260200190565b90815260200190565b6001600160a01b039690961686526020860194909452604085019290925260608401521515608083015260a082015260c00190565b600060208252620016cd602083018462003101565b600060608252620031e9606083018662003101565b6001600160a01b039490941660208301525060400152919050565b60006101208083526200321a8184018d62003101565b9050828103602084015262003230818c62003101565b9050828103604084015262003246818b62003101565b6060840199909952505060808101959095526001600160a01b039390931660a085015290151560c0840152151560e0830152610100909101529392505050565b6000606082526200329b606083018662003101565b60208301949094525060400152919050565b60208082526022908201527f456e756d657261626c655365743a20696e646578206f7574206f6620626f756e604082015261647360f01b606082015260800190565b6020808252602f908201527f416363657373436f6e74726f6c3a2073656e646572206d75737420626520616e60408201526e0818591b5a5b881d1bc819dc985b9d608a1b606082015260800190565b60208082526009908201526824a72b21a0a62622a960b91b604082015260600190565b60208082526026908201527f4f776e61626c653a206e6577206f776e657220697320746865207a65726f206160408201526564647265737360d01b606082015260800190565b6020808252601b908201527f536166654d6174683a206164646974696f6e206f766572666c6f770000000000604082015260600190565b6020808252818101527f496e76616c69642063616c6c65723a2063616e2774206465706c6f79204e4654604082015260600190565b60208082526030908201527f416363657373436f6e74726f6c3a2073656e646572206d75737420626520616e60408201526f2061646d696e20746f207265766f6b6560801b606082015260800190565b60208082526021908201527f536166654d6174683a206d756c7469706c69636174696f6e206f766572666c6f6040820152607760f81b606082015260800190565b6020808252818101527f4f776e61626c653a2063616c6c6572206973206e6f7420746865206f776e6572604082015260600190565b6020808252602e908201527f436f6e747261637420696e7374616e63652068617320616c726561647920626560408201526d195b881a5b9a5d1a585b1a5e995960921b606082015260800190565b6020808252602f908201527f416363657373436f6e74726f6c3a2063616e206f6e6c792072656e6f756e636560408201526e103937b632b9903337b91039b2b63360891b606082015260800190565b918252602082015260400190565b958652602086019490945260408501929092526060840152608083015260a082015260c00190565b60405181810167ffffffffffffffff81118282101715620035cc57600080fd5b604052919050565b600067ffffffffffffffff821115620035eb578081fd5b5060209081020190565b600067ffffffffffffffff8211156200360c578081fd5b50601f01601f191660200190565b60005b83811015620036375781810151838201526020016200361d565b8381111562001e9c5750506000910152565b6001600160a01b03811681146200168657600080fdfe60806040523480156200001157600080fd5b5060405162002cb838038062002cb8833981016040819052620000349162000417565b88888882609d90805190602001906200004f929190620002ab565b5081516200006590609e906020850190620002ab565b5080516200007b90609f906020840190620002ab565b506200008e6380ac58cd60e01b6200013a565b620000a0635b5e139f60e01b6200013a565b620000b263780e9d6360e01b6200013a565b505060d3805460ff19168515151761ff001916610100851515021790555060d481905560d286905560d6859055620000ec60008562000195565b6200011060008051602062002c988339815191526200010a620001a5565b62000195565b6200012b60008051602062002c988339815191528562000195565b50505050505050505062000534565b6001600160e01b03198082161415620001705760405162461bcd60e51b81526004016200016790620004fd565b60405180910390fd5b6001600160e01b0319166000908152606560205260409020805460ff19166001179055565b620001a18282620001a9565b5050565b3390565b600082815260a060209081526040909120620001d091839062000eff62000224821b17901c565b15620001a157620001e0620001a5565b6001600160a01b0316816001600160a01b0316837f2f8788117e7eff1d82e926ec794901d17c78024a50270940304540a733656f0d60405160405180910390a45050565b60006200023b836001600160a01b03841662000244565b90505b92915050565b600062000252838362000293565b6200028a575081546001818101845560008481526020808220909301849055845484825282860190935260409020919091556200023e565b5060006200023e565b60009081526001919091016020526040902054151590565b828054600181600116156101000203166002900490600052602060002090601f016020900481019282601f10620002ee57805160ff19168380011785556200031e565b828001600101855582156200031e579182015b828111156200031e57825182559160200191906001019062000301565b506200032c92915062000330565b5090565b5b808211156200032c576000815560010162000331565b80516001600160a01b03811681146200023e57600080fd5b805180151581146200023e57600080fd5b600082601f83011262000381578081fd5b81516001600160401b038082111562000398578283fd5b6040516020601f8401601f1916820181018381118382101715620003ba578586fd5b80604052508194508382528681858801011115620003d757600080fd5b600092505b83831015620003fb5785830181015182840182015291820191620003dc565b838311156200040d5760008185840101525b5050505092915050565b60008060008060008060008060006101208a8c03121562000436578485fd5b89516001600160401b03808211156200044d578687fd5b6200045b8d838e0162000370565b9a5060208c015191508082111562000471578687fd5b6200047f8d838e0162000370565b995060408c015191508082111562000495578687fd5b50620004a48c828d0162000370565b97505060608a0151955060808a01519450620004c48b60a08c0162000347565b9350620004d58b60c08c016200035f565b9250620004e68b60e08c016200035f565b91506101008a015190509295985092959850929598565b6020808252601c908201527f4552433136353a20696e76616c696420696e7465726661636520696400000000604082015260600190565b61275480620005446000396000f3fe608060405234801561001057600080fd5b50600436106101e55760003560e01c80636352211e1161010f578063b4ce37d2116100a2578063d547741f11610071578063d547741f146103f5578063e63ab1e914610408578063e985e9c514610410578063f7b1080814610423576101e5565b8063b4ce37d2146103b4578063b88d4fde146103bc578063c87b56dd146103cf578063ca15c873146103e2576101e5565b806391d14854116100de57806391d148541461037e57806395d89b4114610391578063a217fddf14610399578063a22cb465146103a1576101e5565b80636352211e1461033d57806370a082311461035057806375071d2a146103635780639010d07c1461036b576101e5565b8063248a9ca31161018757806338e5cdce1161015657806338e5cdce146102e457806342842e0e1461030457806342966c68146103175780634f6ccce71461032a576101e5565b8063248a9ca3146102985780632f2ff15d146102ab5780632f745c59146102be57806336568abe146102d1576101e5565b8063095ea7b3116101c3578063095ea7b3146102485780630d4d15131461025d57806318160ddd1461027d57806323b872dd14610285576101e5565b806301ffc9a7146101ea57806306fdde0314610213578063081812fc14610228575b600080fd5b6101fd6101f8366004611dfc565b610445565b60405161020a9190611f5c565b60405180910390f35b61021b610464565b60405161020a9190611f67565b61023b610236366004611d9f565b6104fa565b60405161020a9190611f0b565b61025b610256366004611d33565b610546565b005b61027061026b366004611d5e565b6105de565b60405161020a9190611f02565b61027061078f565b61025b610293366004611c1b565b6107a0565b6102706102a6366004611d9f565b6107d8565b61025b6102b9366004611db7565b6107ed565b6102706102cc366004611d33565b610835565b61025b6102df366004611db7565b610860565b6102f76102f2366004611d9f565b6108a2565b60405161020a91906125b7565b61025b610312366004611c1b565b61096c565b61025b610325366004611d9f565b6109c0565b610270610338366004611d9f565b610a2c565b61023b61034b366004611d9f565b610a42565b61027061035e366004611bc7565b610a6a565b610270610ab3565b61023b610379366004611ddb565b610ac5565b6101fd61038c366004611db7565b610add565b61021b610af5565b610270610b56565b61025b6103af366004611d02565b610b5b565b61021b610c29565b61025b6103ca366004611c5b565b610cb7565b61021b6103dd366004611d9f565b610cf6565b6102706103f0366004611d9f565b610daf565b61025b610403366004611db7565b610dc6565b610270610e00565b6101fd61041e366004611be3565b610e24565b610436610431366004611d9f565b610e52565b60405161020a93929190611f7a565b6001600160e01b03191660009081526065602052604090205460ff1690565b609d8054604080516020601f60026000196101006001881615020190951694909404938401819004810282018101909252828152606093909290918301828280156104f05780601f106104c5576101008083540402835291602001916104f0565b820191906000526020600020905b8154815290600101906020018083116104d357829003601f168201915b5050505050905090565b600061050582610f14565b61052a5760405162461bcd60e51b815260040161052190612334565b60405180910390fd5b506000908152609b60205260409020546001600160a01b031690565b600061055182610a42565b9050806001600160a01b0316836001600160a01b031614156105855760405162461bcd60e51b815260040161052190612468565b806001600160a01b0316610597610f21565b6001600160a01b031614806105b357506105b38161041e610f21565b6105cf5760405162461bcd60e51b815260040161052190612216565b6105d98383610f25565b505050565b60d354600090610100900460ff161580610613575060d354610100900460ff168015610613575060d45461061061078f565b11155b61062f5760405162461bcd60e51b8152600401610521906123a5565b6106496000805160206126d683398151915261038c610f21565b6106655760405162461bcd60e51b815260040161052190612380565b600061067085610f93565b90506000600160d65411156106905760d65461068d908690610fb6565b90505b6060600080866001600160a01b0316635498d4c060d254866040518363ffffffff1660e01b81526004016106c59291906125f3565b60006040518083038186803b1580156106dd57600080fd5b505afa1580156106f1573d6000803e3d6000fd5b505050506040513d6000823e601f3d908101601f191682016040526107199190810190611e34565b92509250925060405180606001604052808481526020018381526020018281525060d560008781526020019081526020016000206000820151816000019080519060200190610769929190611b10565b5060208201516001820155604090910151600290910155509293505050505b9392505050565b600061079b6099610ff8565b905090565b6107b16107ab610f21565b82611003565b6107cd5760405162461bcd60e51b8152600401610521906124e0565b6105d9838383611088565b600090815260a0602052604090206002015490565b600082815260a0602052604090206002015461080b9061038c610f21565b6108275760405162461bcd60e51b815260040161052190611fe1565b6108318282611196565b5050565b6001600160a01b038216600090815260986020526040812061085790836111ff565b90505b92915050565b610868610f21565b6001600160a01b0316816001600160a01b0316146108985760405162461bcd60e51b815260040161052190612568565b610831828261120b565b6108aa611b8e565b600082815260d560209081526040918290208251815460026001821615610100026000190190911604601f810184900490930281016080908101909452606081018381529093919284928491908401828280156109485780601f1061091d57610100808354040283529160200191610948565b820191906000526020600020905b81548152906001019060200180831161092b57829003601f168201915b50505050508152602001600182015481526020016002820154815250509050919050565b6109776107ab610f21565b6109935760405162461bcd60e51b8152600401610521906124e0565b6105d983838360d2546040516020016109ac9190611f02565b604051602081830303815290604052611274565b6109c8610f21565b6001600160a01b03166109da82610a42565b6001600160a01b03161480610a045750610a046000805160206126d683398151915261038c610f21565b610a205760405162461bcd60e51b815260040161052190612380565b610a29816112a7565b50565b600080610a3a609984611336565b509392505050565b600061085a826040518060600160405280602981526020016126f66029913960999190611352565b60006001600160a01b038216610a925760405162461bcd60e51b815260040161052190612273565b6001600160a01b038216600090815260986020526040902061085a90610ff8565b6000805160206126d683398151915281565b600082815260a06020526040812061085790836111ff565b600082815260a060205260408120610857908361135f565b609e8054604080516020601f60026000196101006001881615020190951694909404938401819004810282018101909252828152606093909290918301828280156104f05780601f106104c5576101008083540402835291602001916104f0565b600081565b610b63610f21565b6001600160a01b0316826001600160a01b03161415610b945760405162461bcd60e51b8152600401610521906120fd565b80609c6000610ba1610f21565b6001600160a01b03908116825260208083019390935260409182016000908120918716808252919093529120805460ff191692151592909217909155610be5610f21565b6001600160a01b03167f17307eab39ab6107e8899845ad3d59bd9653f200f220920489ca2b5937696c3183604051610c1d9190611f5c565b60405180910390a35050565b609f805460408051602060026001851615610100026000190190941693909304601f81018490048402820184019092528181529291830182828015610caf5780601f10610c8457610100808354040283529160200191610caf565b820191906000526020600020905b815481529060010190602001808311610c9257829003601f168201915b505050505081565b610cc8610cc2610f21565b83611003565b610ce45760405162461bcd60e51b8152600401610521906124e0565b610cf084848484611274565b50505050565b6060610d0182610f14565b610d1d5760405162461bcd60e51b815260040161052190612419565b609f805460408051602060026001851615610100026000190190941693909304601f81018490048402820184019092528181529291830182828015610da35780601f10610d7857610100808354040283529160200191610da3565b820191906000526020600020905b815481529060010190602001808311610d8657829003601f168201915b50505050509050919050565b600081815260a06020526040812061085a90610ff8565b600082815260a06020526040902060020154610de49061038c610f21565b6108985760405162461bcd60e51b8152600401610521906121c6565b7f65d7a28e3265b37a6474929f336521b332c1681b933f6cb9f3376673440d862a81565b6001600160a01b039182166000908152609c6020908152604080832093909416825291909152205460ff1690565b60d56020908152600091825260409182902080548351601f60026000196101006001861615020190931692909204918201849004840281018401909452808452909291839190830182828015610ee95780601f10610ebe57610100808354040283529160200191610ee9565b820191906000526020600020905b815481529060010190602001808311610ecc57829003601f168201915b5050505050908060010154908060020154905083565b6000610857836001600160a01b038416611374565b600061085a6099836113be565b3390565b6000818152609b6020526040902080546001600160a01b0319166001600160a01b0384169081179091558190610f5a82610a42565b6001600160a01b03167f8c5be1e5ebec7d5bd14f71427d1e84f3dd0314c0f7b2291e5b200ac8c7c3b92560405160405180910390a45050565b600080610fa060976113ca565b9050610fac83826113ce565b61085a60976113e8565b600061085783836040518060400160405280601881526020017f536166654d6174683a206d6f64756c6f206279207a65726f00000000000000008152506113f1565b600061085a826113ca565b600061100e82610f14565b61102a5760405162461bcd60e51b81526004016105219061217a565b600061103583610a42565b9050806001600160a01b0316846001600160a01b031614806110705750836001600160a01b0316611065846104fa565b6001600160a01b0316145b8061108057506110808185610e24565b949350505050565b826001600160a01b031661109b82610a42565b6001600160a01b0316146110c15760405162461bcd60e51b8152600401610521906123d0565b6001600160a01b0382166110e75760405162461bcd60e51b8152600401610521906120b9565b6110f2838383611425565b6110fd600082610f25565b6001600160a01b038316600090815260986020526040902061111f9082611493565b506001600160a01b0382166000908152609860205260409020611142908261149f565b5061114f609982846114ab565b5080826001600160a01b0316846001600160a01b03167fddf252ad1be2c89b69c2b068fc378daa952ba7f163c4a11628f55a4df523b3ef60405160405180910390a4505050565b600082815260a0602052604090206111ae9082610eff565b15610831576111bb610f21565b6001600160a01b0316816001600160a01b0316837f2f8788117e7eff1d82e926ec794901d17c78024a50270940304540a733656f0d60405160405180910390a45050565b600061085783836114c1565b600082815260a0602052604090206112239082611506565b1561083157611230610f21565b6001600160a01b0316816001600160a01b0316837ff6391f5c32d9c69d2a47ea670b442974b53935d1edc7fd64eb21e047a839171b60405160405180910390a45050565b61127f848484611088565b61128b8484848461151b565b610cf05760405162461bcd60e51b815260040161052190612030565b60006112b282610a42565b90506112c081600084611425565b6112cb600083610f25565b6001600160a01b03811660009081526098602052604090206112ed9083611493565b506112f96099836115fa565b5060405182906000906001600160a01b038416907fddf252ad1be2c89b69c2b068fc378daa952ba7f163c4a11628f55a4df523b3ef908390a45050565b60008080806113458686611606565b9097909650945050505050565b6000611080848484611662565b6000610857836001600160a01b0384166116c1565b600061138083836116c1565b6113b65750815460018181018455600084815260208082209093018490558454848252828601909352604090209190915561085a565b50600061085a565b600061085783836116c1565b5490565b6108318282604051806020016040528060008152506116d9565b80546001019055565b600081836114125760405162461bcd60e51b81526004016105219190611f67565b5082848161141c57fe5b06949350505050565b60d35460ff168061144b575061144b6000805160206126d683398151915261038c610f21565b80611477575060d35460ff1615801561147757506114776000805160206126d683398151915283610add565b6105d95760405162461bcd60e51b8152600401610521906124a9565b6000610857838361170c565b60006108578383611374565b600061108084846001600160a01b0385166117d2565b815460009082106114e45760405162461bcd60e51b815260040161052190611f9f565b8260000182815481106114f357fe5b9060005260206000200154905092915050565b6000610857836001600160a01b03841661170c565b600061152f846001600160a01b0316611869565b61153b57506001611080565b60606115c3630a85bd0160e11b611550610f21565b8887876040516024016115669493929190611f1f565b604051602081830303815290604052906001600160e01b0319166020820180516001600160e01b0383818316178352505050506040518060600160405280603281526020016126a4603291396001600160a01b038816919061186f565b90506000818060200190518101906115db9190611e18565b6001600160e01b031916630a85bd0160e11b1492505050949350505050565b6000610857838361187e565b81546000908190831061162b5760405162461bcd60e51b8152600401610521906122bd565b600084600001848154811061163c57fe5b906000526020600020906002020190508060000154816001015492509250509250929050565b600082815260018401602052604081205482816116925760405162461bcd60e51b81526004016105219190611f67565b508460000160018203815481106116a557fe5b9060005260206000209060020201600101549150509392505050565b60009081526001919091016020526040902054151590565b6116e38383611952565b6116f0600084848461151b565b6105d95760405162461bcd60e51b815260040161052190612030565b600081815260018301602052604081205480156117c8578354600019808301919081019060009087908390811061173f57fe5b906000526020600020015490508087600001848154811061175c57fe5b60009182526020808320909101929092558281526001898101909252604090209084019055865487908061178c57fe5b6001900381819060005260206000200160009055905586600101600087815260200190815260200160002060009055600194505050505061085a565b600091505061085a565b600082815260018401602052604081205480611837575050604080518082018252838152602080820184815286546001818101895560008981528481209551600290930290950191825591519082015586548684528188019092529290912055610788565b8285600001600183038154811061184a57fe5b9060005260206000209060020201600101819055506000915050610788565b3b151590565b60606110808484600085611a16565b600081815260018301602052604081205480156117c857835460001980830191908101906000908790839081106118b157fe5b90600052602060002090600202019050808760000184815481106118d157fe5b60009182526020808320845460029093020191825560019384015491840191909155835482528983019052604090209084019055865487908061191057fe5b600082815260208082206002600019909401938402018281556001908101839055929093558881528982019092526040822091909155945061085a9350505050565b6001600160a01b0382166119785760405162461bcd60e51b8152600401610521906122ff565b61198181610f14565b1561199e5760405162461bcd60e51b815260040161052190612082565b6119aa60008383611425565b6001600160a01b03821660009081526098602052604090206119cc908261149f565b506119d9609982846114ab565b5060405181906001600160a01b038416906000907fddf252ad1be2c89b69c2b068fc378daa952ba7f163c4a11628f55a4df523b3ef908290a45050565b606082471015611a385760405162461bcd60e51b815260040161052190612134565b611a4185611869565b611a5d5760405162461bcd60e51b815260040161052190612531565b60006060866001600160a01b03168587604051611a7a9190611ee6565b60006040518083038185875af1925050503d8060008114611ab7576040519150601f19603f3d011682016040523d82523d6000602084013e611abc565b606091505b5091509150611acc828286611ad7565b979650505050505050565b60608315611ae6575081610788565b825115611af65782518084602001fd5b8160405162461bcd60e51b81526004016105219190611f67565b828054600181600116156101000203166002900490600052602060002090601f016020900481019282601f10611b5157805160ff1916838001178555611b7e565b82800160010185558215611b7e579182015b82811115611b7e578251825591602001919060010190611b63565b50611b8a929150611bb2565b5090565b60405180606001604052806060815260200160008152602001600080191681525090565b5b80821115611b8a5760008155600101611bb3565b600060208284031215611bd8578081fd5b813561078881612678565b60008060408385031215611bf5578081fd5b8235611c0081612678565b91506020830135611c1081612678565b809150509250929050565b600080600060608486031215611c2f578081fd5b8335611c3a81612678565b92506020840135611c4a81612678565b929592945050506040919091013590565b60008060008060808587031215611c70578081fd5b8435611c7b81612678565b93506020850135611c8b81612678565b925060408501359150606085013567ffffffffffffffff811115611cad578182fd5b8501601f81018713611cbd578182fd5b8035611cd0611ccb82612628565b612601565b818152886020838501011115611ce4578384fd5b81602084016020830137908101602001929092525092959194509250565b60008060408385031215611d14578182fd5b8235611d1f81612678565b915060208301358015158114611c10578182fd5b60008060408385031215611d45578182fd5b8235611d5081612678565b946020939093013593505050565b600080600060608486031215611d72578283fd5b8335611d7d81612678565b9250602084013591506040840135611d9481612678565b809150509250925092565b600060208284031215611db0578081fd5b5035919050565b60008060408385031215611dc9578182fd5b823591506020830135611c1081612678565b60008060408385031215611ded578182fd5b50508035926020909101359150565b600060208284031215611e0d578081fd5b81356107888161268d565b600060208284031215611e29578081fd5b81516107888161268d565b600080600060608486031215611e48578081fd5b835167ffffffffffffffff811115611e5e578182fd5b8401601f81018613611e6e578182fd5b8051611e7c611ccb82612628565b818152876020838501011115611e90578384fd5b611ea182602083016020860161264c565b6020870151604090970151909896975095945050505050565b60008151808452611ed281602086016020860161264c565b601f01601f19169290920160200192915050565b60008251611ef881846020870161264c565b9190910192915050565b90815260200190565b6001600160a01b0391909116815260200190565b6001600160a01b0385811682528416602082015260408101839052608060608201819052600090611f5290830184611eba565b9695505050505050565b901515815260200190565b6000602082526108576020830184611eba565b600060608252611f8d6060830186611eba565b60208301949094525060400152919050565b60208082526022908201527f456e756d657261626c655365743a20696e646578206f7574206f6620626f756e604082015261647360f01b606082015260800190565b6020808252602f908201527f416363657373436f6e74726f6c3a2073656e646572206d75737420626520616e60408201526e0818591b5a5b881d1bc819dc985b9d608a1b606082015260800190565b60208082526032908201527f4552433732313a207472616e7366657220746f206e6f6e20455243373231526560408201527131b2b4bb32b91034b6b83632b6b2b73a32b960711b606082015260800190565b6020808252601c908201527f4552433732313a20746f6b656e20616c7265616479206d696e74656400000000604082015260600190565b60208082526024908201527f4552433732313a207472616e7366657220746f20746865207a65726f206164646040820152637265737360e01b606082015260800190565b60208082526019908201527f4552433732313a20617070726f766520746f2063616c6c657200000000000000604082015260600190565b60208082526026908201527f416464726573733a20696e73756666696369656e742062616c616e636520666f6040820152651c8818d85b1b60d21b606082015260800190565b6020808252602c908201527f4552433732313a206f70657261746f7220717565727920666f72206e6f6e657860408201526b34b9ba32b73a103a37b5b2b760a11b606082015260800190565b60208082526030908201527f416363657373436f6e74726f6c3a2073656e646572206d75737420626520616e60408201526f2061646d696e20746f207265766f6b6560801b606082015260800190565b60208082526038908201527f4552433732313a20617070726f76652063616c6c6572206973206e6f74206f7760408201527f6e6572206e6f7220617070726f76656420666f7220616c6c0000000000000000606082015260800190565b6020808252602a908201527f4552433732313a2062616c616e636520717565727920666f7220746865207a65604082015269726f206164647265737360b01b606082015260800190565b60208082526022908201527f456e756d657261626c654d61703a20696e646578206f7574206f6620626f756e604082015261647360f01b606082015260800190565b6020808252818101527f4552433732313a206d696e7420746f20746865207a65726f2061646472657373604082015260600190565b6020808252602c908201527f4552433732313a20617070726f76656420717565727920666f72206e6f6e657860408201526b34b9ba32b73a103a37b5b2b760a11b606082015260800190565b6020808252600b908201526a139bdd08185b1b1bddd95960aa1b604082015260600190565b60208082526011908201527013919508131a5b5a5d081c995858da1959607a1b604082015260600190565b60208082526029908201527f4552433732313a207472616e73666572206f6620746f6b656e2074686174206960408201526839903737ba1037bbb760b91b606082015260800190565b6020808252602f908201527f4552433732314d657461646174613a2055524920717565727920666f72206e6f60408201526e3732bc34b9ba32b73a103a37b5b2b760891b606082015260800190565b60208082526021908201527f4552433732313a20617070726f76616c20746f2063757272656e74206f776e656040820152603960f91b606082015260800190565b6020808252601b908201527f45787465726e616c20747261646573206e6f7420616c6c6f7765640000000000604082015260600190565b60208082526031908201527f4552433732313a207472616e736665722063616c6c6572206973206e6f74206f6040820152701ddb995c881b9bdc88185c1c1c9bdd9959607a1b606082015260800190565b6020808252601d908201527f416464726573733a2063616c6c20746f206e6f6e2d636f6e7472616374000000604082015260600190565b6020808252602f908201527f416363657373436f6e74726f6c3a2063616e206f6e6c792072656e6f756e636560408201526e103937b632b9903337b91039b2b63360891b606082015260800190565b6000602082528251606060208401526125d36080840182611eba565b905060208401516040840152604084015160608401528091505092915050565b918252602082015260400190565b60405181810167ffffffffffffffff8111828210171561262057600080fd5b604052919050565b600067ffffffffffffffff82111561263e578081fd5b50601f01601f191660200190565b60005b8381101561266757818101518382015260200161264f565b83811115610cf05750506000910152565b6001600160a01b0381168114610a2957600080fd5b6001600160e01b031981168114610a2957600080fdfe4552433732313a207472616e7366657220746f206e6f6e20455243373231526563656976657220696d706c656d656e7465725719df9ef2c4678b547f89e4f5ae410dbf400fc51cf3ded434c55f6adea2c43f4552433732313a206f776e657220717565727920666f72206e6f6e6578697374656e7420746f6b656ea26469706673582212209786a8c81863b50e6e00d6790bf42ce2c70df3d7c8c329a284e80341d7669f9664736f6c634300060c00335719df9ef2c4678b547f89e4f5ae410dbf400fc51cf3ded434c55f6adea2c43f62ca43aa15f7f495faa685ce5a258aa390fdc8d7094251dd23d32353f496ddfea26469706673582212201836e5ba8e37dd532f9c7c75a3c94999c2831526e4bf4aa7d7a9b10283e2918264736f6c634300060c0033",
    "sourcePath": "/Users/225153/Projects/proxy-test/contracts/NFTFactory.sol",
    "compiler": {
        "name": "solc",
        "version": "0.6.12+commit.27d51765"
    },
    "functionHashes": {
        "DEFAULT_ADMIN_ROLE()": "a217fddf",
        "MODIFIER_ROLE()": "7575aa8a",
        "RAMVaultStartBlock()": "31db122c",
        "YGYReserve()": "1dbf779e",
        "_NFTs(uint256)": "795d79f5",
        "_RAMToken()": "fa69669c",
        "_WETH()": "e0af3616",
        "_YGYRAMPair()": "2f4f8a7a",
        "_YGYToken()": "f7db38cb",
        "_YGYWETHPair()": "3b24bd4a",
        "_dXIOTToken()": "b81a0b4c",
        "addressStorageCount(uint256)": "6b42ee55",
        "balanceOf(address,address)": "f7888aec",
        "bondContract(address)": "24705db3",
        "bondedContract()": "bf184f93",
        "booleanMapStorageCount(uint256)": "d6cf8021",
        "boostFees()": "09e3de41",
        "boostLevelCosts(uint256)": "469fcdcb",
        "boostLevelMultipliers(uint256)": "bcb49086",
        "burn(address,uint256)": "9dc29fac",
        "checkRewards(uint256,address)": "10178d9c",
        "contracts(uint256)": "474da79a",
        "cumulativeRewardsSinceStart()": "c8ffb873",
        "cumulativeYGYRewardsSinceStart()": "9649d76c",
        "deployNFT(string,string,string,uint256,uint256,address,bool,bool,uint256)": "d5fec284",
        "epoch()": "900cf0cf",
        "epochCalculationStartBlock()": "5d577c18",
        "epochRewards(uint256)": "4dc47d34",
        "getAddressStorage(string)": "ee02ea1b",
        "getBooleanMapValue(string,address)": "e671fab5",
        "getBoostLevelCost(uint256)": "6a9d1f6f",
        "getBoostLevelMultiplier(uint256)": "6798f19f",
        "getContractCount()": "9399869d",
        "getEpochRewards(uint256)": "5f0c0f2b",
        "getNFTAddress(uint256)": "9d18f773",
        "getNFTProperty(uint256,uint256)": "5498d4c0",
        "getNFTPropertyCount(uint256)": "0a08f1d4",
        "getPoolInfo(uint256)": "2f380b35",
        "getRoleAdmin(bytes32)": "248a9ca3",
        "getRoleMember(bytes32,uint256)": "9010d07c",
        "getRoleMemberCount(bytes32)": "ca15c873",
        "getUserInfo(uint256,address)": "1069f3b5",
        "grantRole(bytes32,address)": "2f2ff15d",
        "hasRole(bytes32,address)": "91d14854",
        "initialize()": "8129fc1c",
        "initializeRAMVault(address,address,address,address)": "36644334",
        "isOwner(address,address,uint256)": "f370e8c5",
        "lastContractAddress()": "32709738",
        "lastTicketLevel(address)": "cc40f664",
        "liquidityContributedEthValue(address)": "ad1414b2",
        "mint(address,address)": "ee1fe2ad",
        "nftPropertyChoices(address,uint256)": "58739fc8",
        "ownedContracts(address)": "e8e11409",
        "owner()": "8da5cb5b",
        "pendingRewards()": "eded3fda",
        "pendingYGYRewards()": "8b6ff57b",
        "poolInfo(uint256)": "1526fe27",
        "poolLength()": "081e3eda",
        "ram()": "8f33b5e5",
        "regeneratoraddr()": "7d3b8da1",
        "renounceOwnership()": "715018a6",
        "renounceRole(bytes32,address)": "36568abe",
        "revokeRole(bytes32,address)": "d547741f",
        "rewardsInThisEpoch()": "608c8d3a",
        "setNFTProperties(address,(string,uint256,bytes32)[])": "e11f8a26",
        "setTokens(address,address,address,address,address,address[],address)": "a5f8ace8",
        "stringToBytes32(string)": "cfb51928",
        "teamaddr()": "9a6d2711",
        "ticketCount()": "cfbd900f",
        "tickets(uint256)": "50b44712",
        "tokenURI(address)": "93702f33",
        "totalAllocPoint()": "17caf6f1",
        "transferOwnership(address)": "f2fde38b",
        "uintStorageCount(uint256)": "e941c856",
        "updateBoosts(uint256[],uint256[])": "b2f4b44a",
        "userInfo(uint256,address)": "93f1a40b",
        "ygy()": "fb70c3bf"
    },
    "gasEstimates": {
        "creation": {
            "codeDepositCost": "5090600",
            "executionCost": "6064",
            "totalCost": "5096664"
        },
        "external": {
            "DEFAULT_ADMIN_ROLE()": "318",
            "MODIFIER_ROLE()": "infinite",
            "RAMVaultStartBlock()": "1185",
            "YGYReserve()": "1163",
            "_NFTs(uint256)": "1369",
            "_RAMToken()": "1202",
            "_WETH()": "1159",
            "_YGYRAMPair()": "1205",
            "_YGYToken()": "1180",
            "_YGYWETHPair()": "1204",
            "_dXIOTToken()": "1137",
            "addressStorageCount(uint256)": "2086",
            "balanceOf(address,address)": "infinite",
            "bondContract(address)": "22296",
            "bondedContract()": "1181",
            "booleanMapStorageCount(uint256)": "2063",
            "boostFees()": "1120",
            "boostLevelCosts(uint256)": "1327",
            "boostLevelMultipliers(uint256)": "1260",
            "burn(address,uint256)": "infinite",
            "checkRewards(uint256,address)": "infinite",
            "contracts(uint256)": "2107",
            "cumulativeRewardsSinceStart()": "1161",
            "cumulativeYGYRewardsSinceStart()": "1140",
            "deployNFT(string,string,string,uint256,uint256,address,bool,bool,uint256)": "infinite",
            "epoch()": "1097",
            "epochCalculationStartBlock()": "1118",
            "epochRewards(uint256)": "1262",
            "getAddressStorage(string)": "infinite",
            "getBooleanMapValue(string,address)": "infinite",
            "getBoostLevelCost(uint256)": "1239",
            "getBoostLevelMultiplier(uint256)": "1327",
            "getContractCount()": "1096",
            "getEpochRewards(uint256)": "1283",
            "getNFTAddress(uint256)": "1369",
            "getNFTProperty(uint256,uint256)": "infinite",
            "getNFTPropertyCount(uint256)": "infinite",
            "getPoolInfo(uint256)": "6736",
            "getRoleAdmin(bytes32)": "1246",
            "getRoleMember(bytes32,uint256)": "infinite",
            "getRoleMemberCount(bytes32)": "infinite",
            "getUserInfo(uint256,address)": "5953",
            "grantRole(bytes32,address)": "infinite",
            "hasRole(bytes32,address)": "infinite",
            "initialize()": "infinite",
            "initializeRAMVault(address,address,address,address)": "infinite",
            "isOwner(address,address,uint256)": "infinite",
            "lastContractAddress()": "1138",
            "lastTicketLevel(address)": "1318",
            "liquidityContributedEthValue(address)": "1384",
            "mint(address,address)": "infinite",
            "nftPropertyChoices(address,uint256)": "infinite",
            "ownedContracts(address)": "1417",
            "owner()": "1203",
            "pendingRewards()": "1117",
            "pendingYGYRewards()": "1139",
            "poolInfo(uint256)": "6341",
            "poolLength()": "1098",
            "ram()": "1225",
            "regeneratoraddr()": "1137",
            "renounceOwnership()": "24313",
            "renounceRole(bytes32,address)": "infinite",
            "revokeRole(bytes32,address)": "infinite",
            "rewardsInThisEpoch()": "1162",
            "setNFTProperties(address,(string,uint256,bytes32)[])": "infinite",
            "setTokens(address,address,address,address,address,address[],address)": "infinite",
            "stringToBytes32(string)": "infinite",
            "teamaddr()": "1204",
            "ticketCount()": "1140",
            "tickets(uint256)": "5512",
            "tokenURI(address)": "infinite",
            "totalAllocPoint()": "1141",
            "transferOwnership(address)": "24592",
            "uintStorageCount(uint256)": "2063",
            "updateBoosts(uint256[],uint256[])": "infinite",
            "userInfo(uint256,address)": "5622",
            "ygy()": "1224"
        }
    }
}