{
    "contractName": "NFTFactory",
    "abi": [
        {
            "anonymous": false,
            "inputs": [
                {
                    "indexed": false,
                    "internalType": "string",
                    "name": "tokenName",
                    "type": "string"
                },
                {
                    "indexed": false,
                    "internalType": "address",
                    "name": "from",
                    "type": "address"
                },
                {
                    "indexed": false,
                    "internalType": "uint256",
                    "name": "tokenId",
                    "type": "uint256"
                }
            ],
            "name": "NFTBurned",
            "type": "event"
        },
        {
            "anonymous": false,
            "inputs": [
                {
                    "indexed": false,
                    "internalType": "string",
                    "name": "tokenName",
                    "type": "string"
                },
                {
                    "indexed": false,
                    "internalType": "address",
                    "name": "to",
                    "type": "address"
                },
                {
                    "indexed": false,
                    "internalType": "uint256",
                    "name": "tokenId",
                    "type": "uint256"
                }
            ],
            "name": "NFTMinted",
            "type": "event"
        },
        {
            "anonymous": false,
            "inputs": [
                {
                    "indexed": true,
                    "internalType": "address",
                    "name": "previousOwner",
                    "type": "address"
                },
                {
                    "indexed": true,
                    "internalType": "address",
                    "name": "newOwner",
                    "type": "address"
                }
            ],
            "name": "OwnershipTransferred",
            "type": "event"
        },
        {
            "inputs": [],
            "name": "RAMVaultStartBlock",
            "outputs": [
                {
                    "internalType": "uint256",
                    "name": "",
                    "type": "uint256"
                }
            ],
            "stateMutability": "view",
            "type": "function"
        },
        {
            "inputs": [],
            "name": "YGYReserve",
            "outputs": [
                {
                    "internalType": "uint256",
                    "name": "",
                    "type": "uint256"
                }
            ],
            "stateMutability": "view",
            "type": "function"
        },
        {
            "inputs": [
                {
                    "internalType": "uint256",
                    "name": "",
                    "type": "uint256"
                }
            ],
            "name": "_NFTs",
            "outputs": [
                {
                    "internalType": "address",
                    "name": "",
                    "type": "address"
                }
            ],
            "stateMutability": "view",
            "type": "function"
        },
        {
            "inputs": [],
            "name": "_YGYRAMPair",
            "outputs": [
                {
                    "internalType": "address",
                    "name": "",
                    "type": "address"
                }
            ],
            "stateMutability": "view",
            "type": "function"
        },
        {
            "inputs": [],
            "name": "_YGYToken",
            "outputs": [
                {
                    "internalType": "address",
                    "name": "",
                    "type": "address"
                }
            ],
            "stateMutability": "view",
            "type": "function"
        },
        {
            "inputs": [],
            "name": "_YGYWETHPair",
            "outputs": [
                {
                    "internalType": "address",
                    "name": "",
                    "type": "address"
                }
            ],
            "stateMutability": "view",
            "type": "function"
        },
        {
            "inputs": [],
            "name": "_dXIOTToken",
            "outputs": [
                {
                    "internalType": "contract IERC20",
                    "name": "",
                    "type": "address"
                }
            ],
            "stateMutability": "view",
            "type": "function"
        },
        {
            "inputs": [
                {
                    "internalType": "uint256",
                    "name": "",
                    "type": "uint256"
                }
            ],
            "name": "addressStorageCount",
            "outputs": [
                {
                    "internalType": "uint256",
                    "name": "",
                    "type": "uint256"
                }
            ],
            "stateMutability": "view",
            "type": "function"
        },
        {
            "inputs": [
                {
                    "internalType": "contract INFT",
                    "name": "_nft",
                    "type": "address"
                },
                {
                    "internalType": "address",
                    "name": "_who",
                    "type": "address"
                }
            ],
            "name": "balanceOf",
            "outputs": [
                {
                    "internalType": "uint256",
                    "name": "",
                    "type": "uint256"
                }
            ],
            "stateMutability": "view",
            "type": "function"
        },
        {
            "inputs": [
                {
                    "internalType": "address",
                    "name": "_addr",
                    "type": "address"
                }
            ],
            "name": "bondContract",
            "outputs": [
                {
                    "internalType": "bool",
                    "name": "",
                    "type": "bool"
                }
            ],
            "stateMutability": "nonpayable",
            "type": "function"
        },
        {
            "inputs": [],
            "name": "bondedContract",
            "outputs": [
                {
                    "internalType": "address",
                    "name": "",
                    "type": "address"
                }
            ],
            "stateMutability": "view",
            "type": "function"
        },
        {
            "inputs": [
                {
                    "internalType": "uint256",
                    "name": "",
                    "type": "uint256"
                }
            ],
            "name": "booleanMapStorageCount",
            "outputs": [
                {
                    "internalType": "uint256",
                    "name": "",
                    "type": "uint256"
                }
            ],
            "stateMutability": "view",
            "type": "function"
        },
        {
            "inputs": [],
            "name": "boostFees",
            "outputs": [
                {
                    "internalType": "uint256",
                    "name": "",
                    "type": "uint256"
                }
            ],
            "stateMutability": "view",
            "type": "function"
        },
        {
            "inputs": [
                {
                    "internalType": "uint256",
                    "name": "",
                    "type": "uint256"
                }
            ],
            "name": "boostLevelCosts",
            "outputs": [
                {
                    "internalType": "uint256",
                    "name": "",
                    "type": "uint256"
                }
            ],
            "stateMutability": "view",
            "type": "function"
        },
        {
            "inputs": [
                {
                    "internalType": "uint256",
                    "name": "",
                    "type": "uint256"
                }
            ],
            "name": "boostLevelMultipliers",
            "outputs": [
                {
                    "internalType": "uint256",
                    "name": "",
                    "type": "uint256"
                }
            ],
            "stateMutability": "view",
            "type": "function"
        },
        {
            "inputs": [
                {
                    "internalType": "contract INFT",
                    "name": "_nft",
                    "type": "address"
                },
                {
                    "internalType": "uint256",
                    "name": "_tokenId",
                    "type": "uint256"
                }
            ],
            "name": "burn",
            "outputs": [],
            "stateMutability": "nonpayable",
            "type": "function"
        },
        {
            "inputs": [
                {
                    "internalType": "uint256",
                    "name": "_pid",
                    "type": "uint256"
                },
                {
                    "internalType": "address",
                    "name": "_user",
                    "type": "address"
                }
            ],
            "name": "checkRewards",
            "outputs": [
                {
                    "internalType": "uint256",
                    "name": "pendingRAM",
                    "type": "uint256"
                },
                {
                    "internalType": "uint256",
                    "name": "pendingYGY",
                    "type": "uint256"
                }
            ],
            "stateMutability": "view",
            "type": "function"
        },
        {
            "inputs": [
                {
                    "internalType": "uint256",
                    "name": "",
                    "type": "uint256"
                }
            ],
            "name": "contracts",
            "outputs": [
                {
                    "internalType": "address",
                    "name": "",
                    "type": "address"
                }
            ],
            "stateMutability": "view",
            "type": "function"
        },
        {
            "inputs": [],
            "name": "cumulativeRewardsSinceStart",
            "outputs": [
                {
                    "internalType": "uint256",
                    "name": "",
                    "type": "uint256"
                }
            ],
            "stateMutability": "view",
            "type": "function"
        },
        {
            "inputs": [],
            "name": "cumulativeYGYRewardsSinceStart",
            "outputs": [
                {
                    "internalType": "uint256",
                    "name": "",
                    "type": "uint256"
                }
            ],
            "stateMutability": "view",
            "type": "function"
        },
        {
            "inputs": [
                {
                    "internalType": "string",
                    "name": "name",
                    "type": "string"
                },
                {
                    "internalType": "string",
                    "name": "symbol",
                    "type": "string"
                },
                {
                    "internalType": "string",
                    "name": "tokenURI",
                    "type": "string"
                },
                {
                    "internalType": "address",
                    "name": "admin",
                    "type": "address"
                },
                {
                    "internalType": "bool",
                    "name": "allowTrade",
                    "type": "bool"
                },
                {
                    "internalType": "bool",
                    "name": "isCapped",
                    "type": "bool"
                },
                {
                    "internalType": "uint256",
                    "name": "capAmount",
                    "type": "uint256"
                }
            ],
            "name": "deployNFT",
            "outputs": [
                {
                    "internalType": "contract NFT",
                    "name": "newContract",
                    "type": "address"
                }
            ],
            "stateMutability": "nonpayable",
            "type": "function"
        },
        {
            "inputs": [],
            "name": "epoch",
            "outputs": [
                {
                    "internalType": "uint256",
                    "name": "",
                    "type": "uint256"
                }
            ],
            "stateMutability": "view",
            "type": "function"
        },
        {
            "inputs": [],
            "name": "epochCalculationStartBlock",
            "outputs": [
                {
                    "internalType": "uint256",
                    "name": "",
                    "type": "uint256"
                }
            ],
            "stateMutability": "view",
            "type": "function"
        },
        {
            "inputs": [
                {
                    "internalType": "uint256",
                    "name": "",
                    "type": "uint256"
                }
            ],
            "name": "epochRewards",
            "outputs": [
                {
                    "internalType": "uint256",
                    "name": "",
                    "type": "uint256"
                }
            ],
            "stateMutability": "view",
            "type": "function"
        },
        {
            "inputs": [
                {
                    "internalType": "string",
                    "name": "_key",
                    "type": "string"
                }
            ],
            "name": "getAddressStorage",
            "outputs": [
                {
                    "internalType": "address",
                    "name": "",
                    "type": "address"
                }
            ],
            "stateMutability": "view",
            "type": "function"
        },
        {
            "inputs": [
                {
                    "internalType": "string",
                    "name": "_key",
                    "type": "string"
                },
                {
                    "internalType": "address",
                    "name": "_address",
                    "type": "address"
                }
            ],
            "name": "getBooleanMapValue",
            "outputs": [
                {
                    "internalType": "bool",
                    "name": "",
                    "type": "bool"
                }
            ],
            "stateMutability": "view",
            "type": "function"
        },
        {
            "inputs": [
                {
                    "internalType": "uint256",
                    "name": "_level",
                    "type": "uint256"
                }
            ],
            "name": "getBoostLevelCost",
            "outputs": [
                {
                    "internalType": "uint256",
                    "name": "",
                    "type": "uint256"
                }
            ],
            "stateMutability": "view",
            "type": "function"
        },
        {
            "inputs": [
                {
                    "internalType": "uint256",
                    "name": "_level",
                    "type": "uint256"
                }
            ],
            "name": "getBoostLevelMultiplier",
            "outputs": [
                {
                    "internalType": "uint256",
                    "name": "",
                    "type": "uint256"
                }
            ],
            "stateMutability": "view",
            "type": "function"
        },
        {
            "inputs": [],
            "name": "getContractCount",
            "outputs": [
                {
                    "internalType": "uint256",
                    "name": "contractCount",
                    "type": "uint256"
                }
            ],
            "stateMutability": "view",
            "type": "function"
        },
        {
            "inputs": [
                {
                    "internalType": "uint256",
                    "name": "_epoch",
                    "type": "uint256"
                }
            ],
            "name": "getEpochRewards",
            "outputs": [
                {
                    "internalType": "uint256",
                    "name": "",
                    "type": "uint256"
                }
            ],
            "stateMutability": "view",
            "type": "function"
        },
        {
            "inputs": [
                {
                    "internalType": "uint256",
                    "name": "_poolId",
                    "type": "uint256"
                }
            ],
            "name": "getPoolInfo",
            "outputs": [
                {
                    "internalType": "contract IERC20",
                    "name": "_token",
                    "type": "address"
                },
                {
                    "internalType": "uint256",
                    "name": "_allocPointt",
                    "type": "uint256"
                },
                {
                    "internalType": "uint256",
                    "name": "_accRAMPerShare",
                    "type": "uint256"
                },
                {
                    "internalType": "uint256",
                    "name": "_accYGYPerShare",
                    "type": "uint256"
                },
                {
                    "internalType": "bool",
                    "name": "_withdrawable",
                    "type": "bool"
                },
                {
                    "internalType": "uint256",
                    "name": "_effectiveAdditionalTokensFromBoosts",
                    "type": "uint256"
                }
            ],
            "stateMutability": "view",
            "type": "function"
        },
        {
            "inputs": [
                {
                    "internalType": "uint256",
                    "name": "_poolId",
                    "type": "uint256"
                },
                {
                    "internalType": "address",
                    "name": "_user",
                    "type": "address"
                }
            ],
            "name": "getUserInfo",
            "outputs": [
                {
                    "internalType": "uint256",
                    "name": "amount",
                    "type": "uint256"
                },
                {
                    "internalType": "uint256",
                    "name": "rewardDebt",
                    "type": "uint256"
                },
                {
                    "internalType": "uint256",
                    "name": "rewardDebtYGY",
                    "type": "uint256"
                },
                {
                    "internalType": "uint256",
                    "name": "boostAmount",
                    "type": "uint256"
                },
                {
                    "internalType": "uint256",
                    "name": "boostLevel",
                    "type": "uint256"
                },
                {
                    "internalType": "uint256",
                    "name": "spentMultiplierTokens",
                    "type": "uint256"
                }
            ],
            "stateMutability": "view",
            "type": "function"
        },
        {
            "inputs": [
                {
                    "internalType": "address",
                    "name": "_ram",
                    "type": "address"
                },
                {
                    "internalType": "address",
                    "name": "_ygy",
                    "type": "address"
                },
                {
                    "internalType": "address",
                    "name": "_teamaddr",
                    "type": "address"
                },
                {
                    "internalType": "address",
                    "name": "_regeneratoraddr",
                    "type": "address"
                }
            ],
            "name": "initializeRAMVault",
            "outputs": [],
            "stateMutability": "nonpayable",
            "type": "function"
        },
        {
            "inputs": [
                {
                    "internalType": "contract INFT",
                    "name": "_nft",
                    "type": "address"
                },
                {
                    "internalType": "address",
                    "name": "_who",
                    "type": "address"
                },
                {
                    "internalType": "uint256",
                    "name": "tokenId",
                    "type": "uint256"
                }
            ],
            "name": "isOwner",
            "outputs": [
                {
                    "internalType": "bool",
                    "name": "",
                    "type": "bool"
                }
            ],
            "stateMutability": "view",
            "type": "function"
        },
        {
            "inputs": [],
            "name": "lastContractAddress",
            "outputs": [
                {
                    "internalType": "address",
                    "name": "",
                    "type": "address"
                }
            ],
            "stateMutability": "view",
            "type": "function"
        },
        {
            "inputs": [
                {
                    "internalType": "address",
                    "name": "",
                    "type": "address"
                }
            ],
            "name": "lastTicketLevel",
            "outputs": [
                {
                    "internalType": "uint256",
                    "name": "",
                    "type": "uint256"
                }
            ],
            "stateMutability": "view",
            "type": "function"
        },
        {
            "inputs": [
                {
                    "internalType": "address",
                    "name": "",
                    "type": "address"
                }
            ],
            "name": "liquidityContributedEthValue",
            "outputs": [
                {
                    "internalType": "uint256",
                    "name": "",
                    "type": "uint256"
                }
            ],
            "stateMutability": "view",
            "type": "function"
        },
        {
            "inputs": [
                {
                    "internalType": "contract INFT",
                    "name": "_nft",
                    "type": "address"
                },
                {
                    "internalType": "address",
                    "name": "_to",
                    "type": "address"
                }
            ],
            "name": "mint",
            "outputs": [
                {
                    "internalType": "uint256",
                    "name": "",
                    "type": "uint256"
                }
            ],
            "stateMutability": "nonpayable",
            "type": "function"
        },
        {
            "inputs": [
                {
                    "internalType": "address",
                    "name": "",
                    "type": "address"
                },
                {
                    "internalType": "uint256",
                    "name": "",
                    "type": "uint256"
                }
            ],
            "name": "nftProperties",
            "outputs": [
                {
                    "internalType": "string",
                    "name": "pType",
                    "type": "string"
                },
                {
                    "internalType": "uint256",
                    "name": "pValue",
                    "type": "uint256"
                }
            ],
            "stateMutability": "view",
            "type": "function"
        },
        {
            "inputs": [
                {
                    "internalType": "address",
                    "name": "",
                    "type": "address"
                }
            ],
            "name": "ownedContracts",
            "outputs": [
                {
                    "internalType": "bool",
                    "name": "",
                    "type": "bool"
                }
            ],
            "stateMutability": "view",
            "type": "function"
        },
        {
            "inputs": [],
            "name": "owner",
            "outputs": [
                {
                    "internalType": "address",
                    "name": "",
                    "type": "address"
                }
            ],
            "stateMutability": "view",
            "type": "function"
        },
        {
            "inputs": [],
            "name": "pendingRewards",
            "outputs": [
                {
                    "internalType": "uint256",
                    "name": "",
                    "type": "uint256"
                }
            ],
            "stateMutability": "view",
            "type": "function"
        },
        {
            "inputs": [],
            "name": "pendingYGYRewards",
            "outputs": [
                {
                    "internalType": "uint256",
                    "name": "",
                    "type": "uint256"
                }
            ],
            "stateMutability": "view",
            "type": "function"
        },
        {
            "inputs": [
                {
                    "internalType": "uint256",
                    "name": "",
                    "type": "uint256"
                }
            ],
            "name": "poolInfo",
            "outputs": [
                {
                    "internalType": "contract IERC20",
                    "name": "token",
                    "type": "address"
                },
                {
                    "internalType": "uint256",
                    "name": "allocPoint",
                    "type": "uint256"
                },
                {
                    "internalType": "uint256",
                    "name": "accRAMPerShare",
                    "type": "uint256"
                },
                {
                    "internalType": "uint256",
                    "name": "accYGYPerShare",
                    "type": "uint256"
                },
                {
                    "internalType": "bool",
                    "name": "withdrawable",
                    "type": "bool"
                },
                {
                    "internalType": "uint256",
                    "name": "effectiveAdditionalTokensFromBoosts",
                    "type": "uint256"
                }
            ],
            "stateMutability": "view",
            "type": "function"
        },
        {
            "inputs": [],
            "name": "poolLength",
            "outputs": [
                {
                    "internalType": "uint256",
                    "name": "",
                    "type": "uint256"
                }
            ],
            "stateMutability": "view",
            "type": "function"
        },
        {
            "inputs": [],
            "name": "ram",
            "outputs": [
                {
                    "internalType": "contract INBUNIERC20",
                    "name": "",
                    "type": "address"
                }
            ],
            "stateMutability": "view",
            "type": "function"
        },
        {
            "inputs": [],
            "name": "regeneratoraddr",
            "outputs": [
                {
                    "internalType": "address",
                    "name": "",
                    "type": "address"
                }
            ],
            "stateMutability": "view",
            "type": "function"
        },
        {
            "inputs": [],
            "name": "renounceOwnership",
            "outputs": [],
            "stateMutability": "nonpayable",
            "type": "function"
        },
        {
            "inputs": [],
            "name": "rewardsInThisEpoch",
            "outputs": [
                {
                    "internalType": "uint256",
                    "name": "",
                    "type": "uint256"
                }
            ],
            "stateMutability": "view",
            "type": "function"
        },
        {
            "inputs": [
                {
                    "internalType": "address",
                    "name": "_nft",
                    "type": "address"
                },
                {
                    "components": [
                        {
                            "internalType": "string",
                            "name": "pType",
                            "type": "string"
                        },
                        {
                            "internalType": "uint256",
                            "name": "pValue",
                            "type": "uint256"
                        }
                    ],
                    "internalType": "struct YGYStorageV1.NFTProperty[]",
                    "name": "_properties",
                    "type": "tuple[]"
                }
            ],
            "name": "setNFTProperties",
            "outputs": [],
            "stateMutability": "nonpayable",
            "type": "function"
        },
        {
            "inputs": [
                {
                    "internalType": "string",
                    "name": "source",
                    "type": "string"
                }
            ],
            "name": "stringToBytes32",
            "outputs": [
                {
                    "internalType": "bytes32",
                    "name": "result",
                    "type": "bytes32"
                }
            ],
            "stateMutability": "pure",
            "type": "function"
        },
        {
            "inputs": [],
            "name": "teamaddr",
            "outputs": [
                {
                    "internalType": "address",
                    "name": "",
                    "type": "address"
                }
            ],
            "stateMutability": "view",
            "type": "function"
        },
        {
            "inputs": [],
            "name": "ticketCount",
            "outputs": [
                {
                    "internalType": "uint256",
                    "name": "",
                    "type": "uint256"
                }
            ],
            "stateMutability": "view",
            "type": "function"
        },
        {
            "inputs": [
                {
                    "internalType": "uint256",
                    "name": "",
                    "type": "uint256"
                }
            ],
            "name": "tickets",
            "outputs": [
                {
                    "internalType": "address",
                    "name": "owner",
                    "type": "address"
                },
                {
                    "internalType": "uint256",
                    "name": "levelOneChance",
                    "type": "uint256"
                },
                {
                    "internalType": "uint256",
                    "name": "levelTwoChance",
                    "type": "uint256"
                },
                {
                    "internalType": "uint256",
                    "name": "levelThreeChance",
                    "type": "uint256"
                },
                {
                    "internalType": "uint256",
                    "name": "levelFourChance",
                    "type": "uint256"
                },
                {
                    "internalType": "uint256",
                    "name": "levelFiveChance",
                    "type": "uint256"
                }
            ],
            "stateMutability": "view",
            "type": "function"
        },
        {
            "inputs": [
                {
                    "internalType": "contract INFT",
                    "name": "_nft",
                    "type": "address"
                }
            ],
            "name": "tokenURI",
            "outputs": [
                {
                    "internalType": "string",
                    "name": "",
                    "type": "string"
                }
            ],
            "stateMutability": "view",
            "type": "function"
        },
        {
            "inputs": [],
            "name": "totalAllocPoint",
            "outputs": [
                {
                    "internalType": "uint256",
                    "name": "",
                    "type": "uint256"
                }
            ],
            "stateMutability": "view",
            "type": "function"
        },
        {
            "inputs": [
                {
                    "internalType": "address",
                    "name": "newOwner",
                    "type": "address"
                }
            ],
            "name": "transferOwnership",
            "outputs": [],
            "stateMutability": "nonpayable",
            "type": "function"
        },
        {
            "inputs": [
                {
                    "internalType": "uint256",
                    "name": "",
                    "type": "uint256"
                }
            ],
            "name": "uintStorageCount",
            "outputs": [
                {
                    "internalType": "uint256",
                    "name": "",
                    "type": "uint256"
                }
            ],
            "stateMutability": "view",
            "type": "function"
        },
        {
            "inputs": [
                {
                    "internalType": "uint256[]",
                    "name": "_boostMultipliers",
                    "type": "uint256[]"
                },
                {
                    "internalType": "uint256[]",
                    "name": "_boostCosts",
                    "type": "uint256[]"
                }
            ],
            "name": "updateBoosts",
            "outputs": [],
            "stateMutability": "nonpayable",
            "type": "function"
        },
        {
            "inputs": [
                {
                    "internalType": "uint256",
                    "name": "",
                    "type": "uint256"
                },
                {
                    "internalType": "address",
                    "name": "",
                    "type": "address"
                }
            ],
            "name": "userInfo",
            "outputs": [
                {
                    "internalType": "uint256",
                    "name": "amount",
                    "type": "uint256"
                },
                {
                    "internalType": "uint256",
                    "name": "rewardDebt",
                    "type": "uint256"
                },
                {
                    "internalType": "uint256",
                    "name": "rewardDebtYGY",
                    "type": "uint256"
                },
                {
                    "internalType": "uint256",
                    "name": "boostAmount",
                    "type": "uint256"
                },
                {
                    "internalType": "uint256",
                    "name": "boostLevel",
                    "type": "uint256"
                },
                {
                    "internalType": "uint256",
                    "name": "spentMultiplierTokens",
                    "type": "uint256"
                }
            ],
            "stateMutability": "view",
            "type": "function"
        },
        {
            "inputs": [],
            "name": "ygy",
            "outputs": [
                {
                    "internalType": "contract IERC20",
                    "name": "",
                    "type": "address"
                }
            ],
            "stateMutability": "view",
            "type": "function"
        }
    ],
    "bytecode": "608060405234801561001057600080fd5b50615192806100206000396000f3fe60806040523480156200001157600080fd5b50600436106200040c5760003560e01c80638da5cb5b1162000225578063cc40f6641162000135578063ee02ea1b11620000bd578063f370e8c51162000087578063f370e8c5146200089b578063f7888aec14620008b2578063f7db38cb14620008c9578063fb70c3bf14620008d3576200040c565b8063ee02ea1b146200083f578063ee1fe2ad1462000856578063f1094c9c146200086d578063f2fde38b1462000884576200040c565b8063e671fab511620000ff578063e671fab514620007f0578063e8e114091462000807578063e941c856146200081e578063eded3fda1462000835576200040c565b8063cc40f66414620007a1578063cfb5192814620007b8578063cfbd900f14620007cf578063d6cf802114620007d9576200040c565b80639a6d271111620001b9578063b81a0b4c1162000183578063b81a0b4c146200076c578063bcb490861462000776578063bf184f93146200078d578063c8ffb8731462000797576200040c565b80639a6d2711146200071d5780639dc29fac1462000727578063ad1414b2146200073e578063b2f4b44a1462000755576200040c565b806393702f3311620001fb57806393702f3314620006cc5780639399869d14620006f257806393f1a40b14620006fc5780639649d76c1462000713576200040c565b80638da5cb5b14620006ae5780638f33b5e514620006b8578063900cf0cf14620006c2576200040c565b80633b24bd4a1162000321578063608c8d3a11620002b5578063715018a6116200027f578063715018a61462000679578063795d79f514620006835780637d3b8da1146200069a5780638b6ff57b14620006a4576200040c565b8063608c8d3a146200062a5780636798f19f14620006345780636a9d1f6f146200064b5780636b42ee551462000662576200040c565b80634dc47d3411620002f75780634dc47d3414620005c757806350b4471214620005de5780635d577c1814620006095780635f0c0f2b1462000613576200040c565b80633b24bd4a146200058f578063469fcdcb1462000599578063474da79a14620005b0576200040c565b80631dbf779e11620003a557806330d27e94116200036f57806330d27e94146200053d57806331db122c146200056457806332709738146200056e578063366443341462000578576200040c565b80631dbf779e14620004dd57806324705db314620004e75780632f380b35146200050d5780632f4f8a7a1462000524576200040c565b80631069f3b511620003e75780631069f3b514620004645780631526fe27146200048f57806317caf6f114620004ba5780631d41d3fd14620004c4576200040c565b8063081e3eda146200041157806309e3de41146200043357806310178d9c146200043d575b600080fd5b6200041b620008dd565b6040516200042a91906200255f565b60405180910390f35b6200041b620008e3565b620004546200044e366004620024b8565b620008e9565b6040516200042a9291906200280e565b6200047b62000475366004620024b8565b620009c9565b6040516200042a969594939291906200281c565b620004a6620004a036600462002486565b62000a5b565b6040516200042a9695949392919062002568565b6200041b62000aaf565b620004db620004d5366004620020a5565b62000ab5565b005b6200041b62000b93565b620004fe620004f836600462002003565b62000b99565b6040516200042a919062002554565b620004a66200051e36600462002486565b62000bf9565b6200052e62000c9c565b6040516200042a91906200250d565b620005546200054e36600462002194565b62000cab565b6040516200042a92919062002651565b6200041b62000d6f565b6200052e62000d75565b620004db6200058936600462002041565b62000d84565b6200052e62000faa565b6200041b620005aa36600462002486565b62000fb9565b6200052e620005c136600462002486565b62000fcb565b6200041b620005d836600462002486565b62000ff3565b620005f5620005ef36600462002486565b62001005565b6040516200042a9695949392919062002521565b6200041b62001044565b6200041b6200062436600462002486565b6200104a565b6200041b6200105c565b6200041b6200064536600462002486565b62001062565b6200041b6200065c36600462002486565b62001074565b6200041b6200067336600462002486565b62001086565b620004db620010a5565b6200052e6200069436600462002486565b62001129565b6200052e62001144565b6200041b62001153565b6200052e62001159565b6200052e62001168565b6200041b62001177565b620006e3620006dd36600462002003565b6200117d565b6040516200042a91906200259d565b6200041b620011fe565b6200047b6200070d366004620024b8565b62001204565b6200041b62001244565b6200052e6200124a565b620004db6200073836600462002194565b62001259565b6200041b6200074f36600462002003565b62001463565b620004db62000766366004620021c2565b62001475565b6200052e62001534565b6200041b6200078736600462002486565b62001543565b6200052e62001555565b6200041b62001564565b6200041b620007b236600462002003565b6200156a565b6200041b620007c9366004620022ac565b6200157c565b6200041b6200159c565b6200041b620007ea36600462002486565b620015a2565b620004fe6200080136600462002367565b620015b0565b620004fe6200081836600462002003565b620015e6565b6200041b6200082f36600462002486565b620015fb565b6200041b62001609565b6200052e62000850366004620022ac565b6200160f565b6200041b620008673660046200222a565b6200163c565b6200052e6200087e366004620023b2565b620017f2565b620004db6200089536600462002003565b62001926565b620004fe620008ac36600462002267565b620019e5565b6200041b620008c33660046200222a565b62001a85565b6200052e62001b11565b6200052e62001b20565b60985490565b60ad5481565b600080600060988581548110620008fc57fe5b600091825260208083208884526097825260408085206001600160a01b038a16865290925290832060038101548154600790940290920194509291620009429162001b2f565b90506000808460030154111562000990576200098d83600201546200098664e8d4a510006200097f88600301548762001b5790919063ffffffff16565b9062001b97565b9062001bdb565b90505b620009bc83600101546200098664e8d4a510006200097f88600201548762001b5790919063ffffffff16565b9890975095505050505050565b600080600080600080620009dc62001c93565b505050600095865250506097602090815260408086206001600160a01b0395909516865293815293839020835160c08101855281548082526001830154968201879052600283015495820186905260038301546060830181905260048401546080840181905260059094015460a0909301839052909790945091925090565b6098818154811062000a6957fe5b60009182526020909120600790910201805460018201546002830154600384015460048501546006909501546001600160a01b0390941695509193909260ff9091169086565b609f5481565b62000abf62001c1f565b6065546001600160a01b0390811691161462000af85760405162461bcd60e51b815260040162000aef906200278b565b60405180910390fd5b6000805b825181101562000b64578183828151811062000b1457fe5b60209081029190910181015182546001810184556000938452928290208151805192946002029091019262000b4f9284929091019062001cc9565b50602091909101516001918201550162000afc565b506001600160a01b038316600090815260b660205260409020815462000b8d9190839062001d4e565b50505050565b60a25481565b600062000ba562001c1f565b6065546001600160a01b0390811691161462000bd55760405162461bcd60e51b815260040162000aef906200278b565b5060bf80546001600160a01b0319166001600160a01b03831617905560015b919050565b60008060008060008062000c0c62001dd6565b6098888154811062000c1a57fe5b60009182526020918290206040805160c08101825260079390930290910180546001600160a01b031680845260018201549484018590526002820154928401839052600382015460608501819052600483015460ff1615156080860181905260069093015460a0909501859052909d949c50919a509098509650945092505050565b609b546001600160a01b031681565b60b6602052816000526040600020818154811062000cc557fe5b60009182526020918290206002918202018054604080516001831615610100026000190190921693909304601f81018590048502820185019093528281529094509250839183018282801562000d5f5780601f1062000d335761010080835404028352916020019162000d5f565b820191906000526020600020905b81548152906001019060200180831162000d4157829003601f168201915b5050505050908060010154905082565b60a55481565b60be546001600160a01b031681565b600054610100900460ff168062000da0575062000da062001c23565b8062000daf575060005460ff16155b62000dce5760405162461bcd60e51b815260040162000aef90620027c0565b600054610100900460ff1615801562000dfa576000805460ff1961ff0019909116610100171660011790555b609980546001600160a01b038088166001600160a01b031992831617909255609a805487841690831617905560ac805486841690831617905560ab8054928516929091169190911790554360a555674563918244f400007fa48c146aff2b99f3caa3b8b735fb3553da3a3d1861b7483337aba478657c61d15567d02ab486cedc00007fbcbaa5b09af5b9ee16e708916ef421bb1a9f6553cca50cea957380581a962095556801a055690d9db800007f41dc00d57acd93277eee38b26add9196cc21fa10e81779b8f8a41ddafc7e501055680340aad21b3b7000007f2863961d3264ea2f83beef76aa2ec70eff5d5fee7fb65a1fcad844f7a9fe1aba5560af60205260057f900700e6bd57e6422dfd94f65cfe467c2bdd2d930a52c3d0980a8f38ab604c7f55600f7f3eed66fa71e60125d2fd69862cfa0d6a64fee0b5e6ce41d738adbbd1320e153855601e7fd1f7230ef7ce05c63c79bd2da0ef33773da184b006aecd5647472a85863c30ae556004600052603c7f933cb0270ff7df4494a53acf75562260c5e04279ad4ab7cf990c72d8b672f90455801562000fa3576000805461ff00191690555b5050505050565b609d546001600160a01b031681565b60ae6020526000908152604090205481565b60bd818154811062000fd957fe5b6000918252602090912001546001600160a01b0316905081565b60b06020526000908152604090205481565b60b2602052600090815260409020805460018201546002830154600384015460048501546005909501546001600160a01b039094169492939192909186565b60a65481565b600090815260b0602052604090205490565b60a95481565b600090815260af602052604090205490565b600090815260ae602052604090205490565b60ba81815481106200109457fe5b600091825260209091200154905081565b620010af62001c1f565b6065546001600160a01b03908116911614620010df5760405162461bcd60e51b815260040162000aef906200278b565b6065546040516000916001600160a01b0316907f8be0079c531659141344cd1fd0a4f28419497f9722a3daafe3b4186f6b6457e0908390a3606580546001600160a01b0319169055565b60b5602052600090815260409020546001600160a01b031681565b60ab546001600160a01b031681565b60a15481565b6065546001600160a01b031690565b6099546001600160a01b031681565b60aa5481565b6060816001600160a01b031663b4ce37d26040518163ffffffff1660e01b815260040160006040518083038186803b158015620011b957600080fd5b505afa158015620011ce573d6000803e3d6000fd5b505050506040513d6000823e601f3d908101601f19168201604052620011f89190810190620022eb565b92915050565b60bd5490565b6097602090815260009283526040808420909152908252902080546001820154600283015460038401546004850154600590950154939492939192909186565b60a85481565b60ac546001600160a01b031681565b6200126362001c1f565b6001600160a01b0316826001600160a01b0316636352211e836040518263ffffffff1660e01b81526004016200129a91906200255f565b60206040518083038186803b158015620012b357600080fd5b505afa158015620012c8573d6000803e3d6000fd5b505050506040513d601f19601f82011682018060405250810190620012ee919062002022565b6001600160a01b0316148062001320575060bf546001600160a01b03166200131562001c1f565b6001600160a01b0316145b6200133f5760405162461bcd60e51b815260040162000aef9062002675565b604051630852cd8d60e31b81526001600160a01b038316906342966c68906200136d9084906004016200255f565b600060405180830381600087803b1580156200138857600080fd5b505af11580156200139d573d6000803e3d6000fd5b505050507f9fd5e03e81a19319baa416b857469a80358cba426888c502e0e1a925dda26f5f826001600160a01b03166306fdde036040518163ffffffff1660e01b815260040160006040518083038186803b158015620013fc57600080fd5b505afa15801562001411573d6000803e3d6000fd5b505050506040513d6000823e601f3d908101601f191682016040526200143b9190810190620022eb565b6200144562001c1f565b836040516200145793929190620025b2565b60405180910390a15050565b60b36020526000908152604090205481565b6200147f62001c1f565b6065546001600160a01b03908116911614620014af5760405162461bcd60e51b815260040162000aef906200278b565b60005b82518160ff16116200152f57818160ff1681518110620014ce57fe5b602002602001015160ae60008360010160ff16815260200190815260200160002081905550828160ff16815181106200150357fe5b60209081029190910181015160ff6001909301928316600090815260af909252604090912055620014b2565b505050565b609e546001600160a01b031681565b60af6020526000908152604090205481565b60bf546001600160a01b031681565b60a75481565b60b46020526000908152604090205481565b805160009082906200159357506000905062000bf4565b50506020015190565b60b15481565b60b881815481106200109457fe5b600080620015be846200157c565b600090815260b76020908152604082206001600160a01b039095169091529290925292915050565b60c06020526000908152604090205460ff1681565b60bc81815481106200109457fe5b60a05481565b6000806200161d836200157c565b600090815260b960205260409020546001600160a01b03169392505050565b60bf546000906001600160a01b03166200165562001c1f565b6001600160a01b031614806200168e57506200167062001159565b6001600160a01b03166200168362001c1f565b6001600160a01b0316145b620016ad5760405162461bcd60e51b815260040162000aef9062002675565b6040516335313c2160e11b81526000906001600160a01b03851690636a62784290620016de9086906004016200250d565b602060405180830381600087803b158015620016f957600080fd5b505af11580156200170e573d6000803e3d6000fd5b505050506040513d601f19601f820116820180604052508101906200173491906200249f565b90507f163ce421fac3059ce58ba6a093aff4bd0f6b3bb35c5c48acaf9c18b7626e86ce846001600160a01b03166306fdde036040518163ffffffff1660e01b815260040160006040518083038186803b1580156200179157600080fd5b505afa158015620017a6573d6000803e3d6000fd5b505050506040513d6000823e601f3d908101601f19168201604052620017d09190810190620022eb565b8483604051620017e393929190620025b2565b60405180910390a19392505050565b6000620017fe62001159565b6001600160a01b03166200181162001c1f565b6001600160a01b0316148062001843575060bf546001600160a01b03166200183862001c1f565b6001600160a01b0316145b620018625760405162461bcd60e51b815260040162000aef9062002715565b600088888888888888604051620018799062001e17565b6200188b9796959493929190620025e2565b604051809103906000f080158015620018a8573d6000803e3d6000fd5b5060bd805460018181019092557fd344f074c815fded543cd5a29a47659de529cd0adb1c1fae6eda2d685d422bd80180546001600160a01b0384166001600160a01b0319918216811790925560be805490911682179055600090815260c060205260409020805460ff19169091179055915050979650505050505050565b6200193062001c1f565b6065546001600160a01b03908116911614620019605760405162461bcd60e51b815260040162000aef906200278b565b6001600160a01b038116620019895760405162461bcd60e51b815260040162000aef9062002698565b6065546040516001600160a01b038084169216907f8be0079c531659141344cd1fd0a4f28419497f9722a3daafe3b4186f6b6457e090600090a3606580546001600160a01b0319166001600160a01b0392909216919091179055565b6000826001600160a01b0316846001600160a01b0316636352211e846040518263ffffffff1660e01b815260040162001a1f91906200255f565b60206040518083038186803b15801562001a3857600080fd5b505afa15801562001a4d573d6000803e3d6000fd5b505050506040513d601f19601f8201168201806040525081019062001a73919062002022565b6001600160a01b031614949350505050565b6040516370a0823160e01b81526000906001600160a01b038416906370a082319062001ab69085906004016200250d565b60206040518083038186803b15801562001acf57600080fd5b505afa15801562001ae4573d6000803e3d6000fd5b505050506040513d601f19601f8201168201806040525081019062001b0a91906200249f565b9392505050565b609c546001600160a01b031681565b609a546001600160a01b031681565b60008282018381101562001b0a5760405162461bcd60e51b815260040162000aef90620026de565b60008262001b6857506000620011f8565b8282028284828162001b7657fe5b041462001b0a5760405162461bcd60e51b815260040162000aef906200274a565b600062001b0a83836040518060400160405280601a81526020017f536166654d6174683a206469766973696f6e206279207a65726f00000000000081525062001c29565b600062001b0a83836040518060400160405280601e81526020017f536166654d6174683a207375627472616374696f6e206f766572666c6f77000081525062001c64565b3390565b303b1590565b6000818362001c4d5760405162461bcd60e51b815260040162000aef91906200259d565b50600083858162001c5a57fe5b0495945050505050565b6000818484111562001c8b5760405162461bcd60e51b815260040162000aef91906200259d565b505050900390565b6040518060c001604052806000815260200160008152602001600081526020016000815260200160008152602001600081525090565b828054600181600116156101000203166002900490600052602060002090601f016020900481019282601f1062001d0c57805160ff191683800117855562001d3c565b8280016001018555821562001d3c579182015b8281111562001d3c57825182559160200191906001019062001d1f565b5062001d4a92915062001e25565b5090565b82805482825590600052602060002090600202810192821562001dc85760005260206000209160020282015b8281111562001dc85782548390839062001dab90829084906002600019610100600184161502019091160462001e3c565b506001820154816001015550509160020191906002019062001d7a565b5062001d4a92915062001eb6565b6040518060c0016040528060006001600160a01b03168152602001600081526020016000815260200160008152602001600015158152602001600081525090565b61286580620028f883390190565b5b8082111562001d4a576000815560010162001e26565b828054600181600116156101000203166002900490600052602060002090601f016020900481019282601f1062001e77578054855562001d3c565b8280016001018555821562001d3c57600052602060002091601f016020900482015b8281111562001d3c57825482559160010191906001019062001e99565b8082111562001d4a57600062001ecd828262001ede565b506000600182015560020162001eb6565b50805460018160011615610100020316600290046000825580601f1062001f06575062001f26565b601f01602090049060005260206000209081019062001f26919062001e25565b50565b600082601f83011262001f3a578081fd5b813562001f5162001f4b826200286c565b62002844565b81815291506020808301908481018184028601820187101562001f7357600080fd5b60005b8481101562001f945781358452928201929082019060010162001f76565b505050505092915050565b80358015158114620011f857600080fd5b600082601f83011262001fc1578081fd5b813562001fd262001f4b826200288d565b915080825283602082850101111562001fea57600080fd5b8060208401602084013760009082016020015292915050565b60006020828403121562002015578081fd5b813562001b0a81620028e1565b60006020828403121562002034578081fd5b815162001b0a81620028e1565b6000806000806080858703121562002057578283fd5b84356200206481620028e1565b935060208501356200207681620028e1565b925060408501356200208881620028e1565b915060608501356200209a81620028e1565b939692955090935050565b60008060408385031215620020b8578182fd5b8235620020c581620028e1565b915060208381013567ffffffffffffffff80821115620020e3578384fd5b818601915086601f830112620020f7578384fd5b81356200210862001f4b826200286c565b81815284810190848601875b848110156200218357813587016040818e03601f190112156200213557898afd5b62002141604062002844565b898201358881111562002152578b8cfd5b620021628f8c8386010162001fb0565b82525060409190910135898201528452928701929087019060010162002114565b50979a909950975050505050505050565b60008060408385031215620021a7578182fd5b8235620021b481620028e1565b946020939093013593505050565b60008060408385031215620021d5578182fd5b823567ffffffffffffffff80821115620021ed578384fd5b620021fb8683870162001f29565b9350602085013591508082111562002211578283fd5b50620022208582860162001f29565b9150509250929050565b600080604083850312156200223d578182fd5b82356200224a81620028e1565b915060208301356200225c81620028e1565b809150509250929050565b6000806000606084860312156200227c578283fd5b83356200228981620028e1565b925060208401356200229b81620028e1565b929592945050506040919091013590565b600060208284031215620022be578081fd5b813567ffffffffffffffff811115620022d5578182fd5b620022e38482850162001fb0565b949350505050565b600060208284031215620022fd578081fd5b815167ffffffffffffffff81111562002314578182fd5b8201601f8101841362002325578182fd5b80516200233662001f4b826200288d565b8181528560208385010111156200234b578384fd5b6200235e826020830160208601620028b2565b95945050505050565b600080604083850312156200237a578182fd5b823567ffffffffffffffff81111562002391578283fd5b6200239f8582860162001fb0565b92505060208301356200225c81620028e1565b600080600080600080600060e0888a031215620023cd578485fd5b873567ffffffffffffffff80821115620023e5578687fd5b620023f38b838c0162001fb0565b985060208a013591508082111562002409578687fd5b620024178b838c0162001fb0565b975060408a01359150808211156200242d578687fd5b506200243c8a828b0162001fb0565b95505060608801356200244f81620028e1565b9350620024608960808a0162001f9f565b9250620024718960a08a0162001f9f565b915060c0880135905092959891949750929550565b60006020828403121562002498578081fd5b5035919050565b600060208284031215620024b1578081fd5b5051919050565b60008060408385031215620024cb578182fd5b8235915060208301356200225c81620028e1565b60008151808452620024f9816020860160208601620028b2565b601f01601f19169290920160200192915050565b6001600160a01b0391909116815260200190565b6001600160a01b03969096168652602086019490945260408501929092526060840152608083015260a082015260c00190565b901515815260200190565b90815260200190565b6001600160a01b039690961686526020860194909452604085019290925260608401521515608083015260a082015260c00190565b60006020825262001b0a6020830184620024df565b600060608252620025c76060830186620024df565b6001600160a01b039490941660208301525060400152919050565b600060e08252620025f760e083018a620024df565b82810360208401526200260b818a620024df565b90508281036040840152620026218189620024df565b6001600160a01b039790971660608401525050921515608084015290151560a083015260c0909101529392505050565b600060408252620026666040830185620024df565b90508260208301529392505050565b60208082526009908201526824a72b21a0a62622a960b91b604082015260600190565b60208082526026908201527f4f776e61626c653a206e6577206f776e657220697320746865207a65726f206160408201526564647265737360d01b606082015260800190565b6020808252601b908201527f536166654d6174683a206164646974696f6e206f766572666c6f770000000000604082015260600190565b6020808252818101527f496e76616c69642063616c6c65723a2063616e2774206465706c6f79204e4654604082015260600190565b60208082526021908201527f536166654d6174683a206d756c7469706c69636174696f6e206f766572666c6f6040820152607760f81b606082015260800190565b6020808252818101527f4f776e61626c653a2063616c6c6572206973206e6f7420746865206f776e6572604082015260600190565b6020808252602e908201527f436f6e747261637420696e7374616e63652068617320616c726561647920626560408201526d195b881a5b9a5d1a585b1a5e995960921b606082015260800190565b918252602082015260400190565b958652602086019490945260408501929092526060840152608083015260a082015260c00190565b60405181810167ffffffffffffffff811182821017156200286457600080fd5b604052919050565b600067ffffffffffffffff82111562002883578081fd5b5060209081020190565b600067ffffffffffffffff821115620028a4578081fd5b50601f01601f191660200190565b60005b83811015620028cf578181015183820152602001620028b5565b8381111562000b8d5750506000910152565b6001600160a01b038116811462001f2657600080fdfe60806040523480156200001157600080fd5b506040516200286538038062002865833981810160405260e08110156200003757600080fd5b81019080805160405193929190846401000000008211156200005857600080fd5b9083019060208201858111156200006e57600080fd5b82516401000000008111828201881017156200008957600080fd5b82525081516020918201929091019080838360005b83811015620000b85781810151838201526020016200009e565b50505050905090810190601f168015620000e65780820380516001836020036101000a031916815260200191505b50604052602001805160405193929190846401000000008211156200010a57600080fd5b9083019060208201858111156200012057600080fd5b82516401000000008111828201881017156200013b57600080fd5b82525081516020918201929091019080838360005b838110156200016a57818101518382015260200162000150565b50505050905090810190601f168015620001985780820380516001836020036101000a031916815260200191505b5060405260200180516040519392919084640100000000821115620001bc57600080fd5b908301906020820185811115620001d257600080fd5b8251640100000000811182820188101715620001ed57600080fd5b82525081516020918201929091019080838360005b838110156200021c57818101518382015260200162000202565b50505050905090810190601f1680156200024a5780820380516001836020036101000a031916815260200191505b506040908152602082015190820151606083015160809093015191945092508686866200027e6301ffc9a760e01b62000372565b8251620002939060079060208601906200050d565b508151620002a99060089060208501906200050d565b508051620002bf9060099060208401906200050d565b50620002d26380ac58cd60e01b62000372565b620002e4635b5e139f60e01b62000372565b620002f663780e9d6360e01b62000372565b5050600b805460ff19168515151761ff0019166101008515150217905550600c81905562000326600085620003f7565b6200034a600080516020620028458339815191526200034462000407565b620003f7565b620003656000805160206200284583398151915285620003f7565b50505050505050620005a9565b6001600160e01b03198082161415620003d2576040805162461bcd60e51b815260206004820152601c60248201527f4552433136353a20696e76616c696420696e7465726661636520696400000000604482015290519081900360640190fd5b6001600160e01b0319166000908152602081905260409020805460ff19166001179055565b6200040382826200040b565b5050565b3390565b6000828152600a60209081526040909120620004329183906200108262000486821b17901c565b1562000403576200044262000407565b6001600160a01b0316816001600160a01b0316837f2f8788117e7eff1d82e926ec794901d17c78024a50270940304540a733656f0d60405160405180910390a45050565b60006200049d836001600160a01b038416620004a6565b90505b92915050565b6000620004b48383620004f5565b620004ec57508154600181810184556000848152602080822090930184905584548482528286019093526040902091909155620004a0565b506000620004a0565b60009081526001919091016020526040902054151590565b828054600181600116156101000203166002900490600052602060002090601f016020900481019282601f106200055057805160ff191683800117855562000580565b8280016001018555821562000580579182015b828111156200058057825182559160200191906001019062000563565b506200058e92915062000592565b5090565b5b808211156200058e576000815560010162000593565b61228c80620005b96000396000f3fe608060405234801561001057600080fd5b50600436106101cf5760003560e01c80636a62784211610104578063a22cb465116100a2578063ca15c87311610071578063ca15c8731461063d578063d547741f1461065a578063e63ab1e914610686578063e985e9c51461068e576101cf565b8063a22cb46514610524578063b4ce37d214610552578063b88d4fde1461055a578063c87b56dd14610620576101cf565b80639010d07c116100de5780639010d07c146104c557806391d14854146104e857806395d89b4114610514578063a217fddf1461051c576101cf565b80636a6278421461047157806370a082311461049757806375071d2a146104bd576101cf565b80632f2ff15d1161017157806342842e0e1161014b57806342842e0e146103e457806342966c681461041a5780634f6ccce7146104375780636352211e14610454576101cf565b80632f2ff15d146103605780632f745c591461038c57806336568abe146103b8576101cf565b8063095ea7b3116101ad578063095ea7b3146102c557806318160ddd146102f357806323b872dd1461030d578063248a9ca314610343576101cf565b806301ffc9a7146101d457806306fdde031461020f578063081812fc1461028c575b600080fd5b6101fb600480360360208110156101ea57600080fd5b50356001600160e01b0319166106bc565b604080519115158252519081900360200190f35b6102176106db565b6040805160208082528351818301528351919283929083019185019080838360005b83811015610251578181015183820152602001610239565b50505050905090810190601f16801561027e5780820380516001836020036101000a031916815260200191505b509250505060405180910390f35b6102a9600480360360208110156102a257600080fd5b5035610771565b604080516001600160a01b039092168252519081900360200190f35b6102f1600480360360408110156102db57600080fd5b506001600160a01b0381351690602001356107d3565b005b6102fb6108ae565b60408051918252519081900360200190f35b6102f16004803603606081101561032357600080fd5b506001600160a01b038135811691602081013590911690604001356108bf565b6102fb6004803603602081101561035957600080fd5b5035610916565b6102f16004803603604081101561037657600080fd5b50803590602001356001600160a01b031661092b565b6102fb600480360360408110156103a257600080fd5b506001600160a01b038135169060200135610997565b6102f1600480360360408110156103ce57600080fd5b50803590602001356001600160a01b03166109c2565b6102f1600480360360608110156103fa57600080fd5b506001600160a01b03813581169160208101359091169060400135610a23565b6102f16004803603602081101561043057600080fd5b5035610a3e565b6102fb6004803603602081101561044d57600080fd5b5035610acd565b6102a96004803603602081101561046a57600080fd5b5035610ae3565b6102fb6004803603602081101561048757600080fd5b50356001600160a01b0316610b0b565b6102fb600480360360208110156104ad57600080fd5b50356001600160a01b0316610be7565b6102fb610c4f565b6102a9600480360360408110156104db57600080fd5b5080359060200135610c61565b6101fb600480360360408110156104fe57600080fd5b50803590602001356001600160a01b0316610c79565b610217610c91565b6102fb610cf2565b6102f16004803603604081101561053a57600080fd5b506001600160a01b0381351690602001351515610cf7565b610217610dfc565b6102f16004803603608081101561057057600080fd5b6001600160a01b038235811692602081013590911691604082013591908101906080810160608201356401000000008111156105ab57600080fd5b8201836020820111156105bd57600080fd5b803590602001918460018302840111640100000000831117156105df57600080fd5b91908080601f016020809104026020016040519081016040528093929190818152602001838380828437600092019190915250929550610e8a945050505050565b6102176004803603602081101561063657600080fd5b5035610ee8565b6102fb6004803603602081101561065357600080fd5b5035610fc0565b6102f16004803603604081101561067057600080fd5b50803590602001356001600160a01b0316610fd7565b6102fb611030565b6101fb600480360360408110156106a457600080fd5b506001600160a01b0381358116916020013516611054565b6001600160e01b03191660009081526020819052604090205460ff1690565b60078054604080516020601f60026000196101006001881615020190951694909404938401819004810282018101909252828152606093909290918301828280156107675780601f1061073c57610100808354040283529160200191610767565b820191906000526020600020905b81548152906001019060200180831161074a57829003601f168201915b5050505050905090565b600061077c82611097565b6107b75760405162461bcd60e51b815260040180806020018281038252602c815260200180612152602c913960400191505060405180910390fd5b506000908152600560205260409020546001600160a01b031690565b60006107de82610ae3565b9050806001600160a01b0316836001600160a01b031614156108315760405162461bcd60e51b81526004018080602001828103825260218152602001806121d66021913960400191505060405180910390fd5b806001600160a01b03166108436110a4565b6001600160a01b0316148061086457506108648161085f6110a4565b611054565b61089f5760405162461bcd60e51b81526004018080602001828103825260388152602001806120a56038913960400191505060405180910390fd5b6108a983836110a8565b505050565b60006108ba6003611116565b905090565b6108d06108ca6110a4565b82611121565b61090b5760405162461bcd60e51b81526004018080602001828103825260318152602001806121f76031913960400191505060405180910390fd5b6108a98383836111c5565b6000908152600a602052604090206002015490565b6000828152600a602052604090206002015461094e906109496110a4565b610c79565b6109895760405162461bcd60e51b815260040180806020018281038252602f815260200180611f7e602f913960400191505060405180910390fd5b6109938282611311565b5050565b6001600160a01b03821660009081526002602052604081206109b9908361137a565b90505b92915050565b6109ca6110a4565b6001600160a01b0316816001600160a01b031614610a195760405162461bcd60e51b815260040180806020018281038252602f815260200180612228602f913960400191505060405180910390fd5b6109938282611386565b6108a983838360405180602001604052806000815250610e8a565b610a466110a4565b6001600160a01b0316610a5882610ae3565b6001600160a01b03161480610a825750610a82600080516020611fdf8339815191526109496110a4565b610ac1576040805162461bcd60e51b815260206004820152600b60248201526a139bdd08185b1b1bddd95960aa1b604482015290519081900360640190fd5b610aca816113ef565b50565b600080610adb60038461147e565b509392505050565b60006109bc82604051806060016040528060298152602001612107602991396003919061149a565b600b54600090610100900460ff161580610b405750600b54610100900460ff168015610b405750600c54610b3d6108ae565b11155b610b85576040805162461bcd60e51b815260206004820152601160248201527013919508131a5b5a5d081c995858da1959607a1b604482015290519081900360640190fd5b610b9f600080516020611fdf8339815191526109496110a4565b610bde576040805162461bcd60e51b815260206004820152600b60248201526a139bdd08185b1b1bddd95960aa1b604482015290519081900360640190fd5b6109bc826114b1565b60006001600160a01b038216610c2e5760405162461bcd60e51b815260040180806020018281038252602a8152602001806120dd602a913960400191505060405180910390fd5b6001600160a01b03821660009081526002602052604090206109bc90611116565b600080516020611fdf83398151915281565b6000828152600a602052604081206109b9908361137a565b6000828152600a602052604081206109b990836114d4565b60088054604080516020601f60026000196101006001881615020190951694909404938401819004810282018101909252828152606093909290918301828280156107675780601f1061073c57610100808354040283529160200191610767565b600081565b610cff6110a4565b6001600160a01b0316826001600160a01b03161415610d65576040805162461bcd60e51b815260206004820152601960248201527f4552433732313a20617070726f766520746f2063616c6c657200000000000000604482015290519081900360640190fd5b8060066000610d726110a4565b6001600160a01b03908116825260208083019390935260409182016000908120918716808252919093529120805460ff191692151592909217909155610db66110a4565b6001600160a01b03167f17307eab39ab6107e8899845ad3d59bd9653f200f220920489ca2b5937696c318360405180821515815260200191505060405180910390a35050565b6009805460408051602060026001851615610100026000190190941693909304601f81018490048402820184019092528181529291830182828015610e825780601f10610e5757610100808354040283529160200191610e82565b820191906000526020600020905b815481529060010190602001808311610e6557829003601f168201915b505050505081565b610e9b610e956110a4565b83611121565b610ed65760405162461bcd60e51b81526004018080602001828103825260318152602001806121f76031913960400191505060405180910390fd5b610ee2848484846114e9565b50505050565b6060610ef382611097565b610f2e5760405162461bcd60e51b815260040180806020018281038252602f8152602001806121a7602f913960400191505060405180910390fd5b6009805460408051602060026001851615610100026000190190941693909304601f81018490048402820184019092528181529291830182828015610fb45780601f10610f8957610100808354040283529160200191610fb4565b820191906000526020600020905b815481529060010190602001808311610f9757829003601f168201915b50505050509050919050565b6000818152600a602052604081206109bc90611116565b6000828152600a6020526040902060020154610ff5906109496110a4565b610a195760405162461bcd60e51b81526004018080602001828103825260308152602001806120756030913960400191505060405180910390fd5b7f65d7a28e3265b37a6474929f336521b332c1681b933f6cb9f3376673440d862a81565b6001600160a01b03918216600090815260066020908152604080832093909416825291909152205460ff1690565b60006109b9836001600160a01b03841661153b565b60006109bc600383611585565b3390565b600081815260056020526040902080546001600160a01b0319166001600160a01b03841690811790915581906110dd82610ae3565b6001600160a01b03167f8c5be1e5ebec7d5bd14f71427d1e84f3dd0314c0f7b2291e5b200ac8c7c3b92560405160405180910390a45050565b60006109bc82611591565b600061112c82611097565b6111675760405162461bcd60e51b815260040180806020018281038252602c815260200180612049602c913960400191505060405180910390fd5b600061117283610ae3565b9050806001600160a01b0316846001600160a01b031614806111ad5750836001600160a01b03166111a284610771565b6001600160a01b0316145b806111bd57506111bd8185611054565b949350505050565b826001600160a01b03166111d882610ae3565b6001600160a01b03161461121d5760405162461bcd60e51b815260040180806020018281038252602981526020018061217e6029913960400191505060405180910390fd5b6001600160a01b0382166112625760405162461bcd60e51b8152600401808060200182810382526024815260200180611fff6024913960400191505060405180910390fd5b61126d838383611595565b6112786000826110a8565b6001600160a01b038316600090815260026020526040902061129a9082611638565b506001600160a01b03821660009081526002602052604090206112bd9082611644565b506112ca60038284611650565b5080826001600160a01b0316846001600160a01b03167fddf252ad1be2c89b69c2b068fc378daa952ba7f163c4a11628f55a4df523b3ef60405160405180910390a4505050565b6000828152600a602052604090206113299082611082565b15610993576113366110a4565b6001600160a01b0316816001600160a01b0316837f2f8788117e7eff1d82e926ec794901d17c78024a50270940304540a733656f0d60405160405180910390a45050565b60006109b98383611666565b6000828152600a6020526040902061139e90826116ca565b15610993576113ab6110a4565b6001600160a01b0316816001600160a01b0316837ff6391f5c32d9c69d2a47ea670b442974b53935d1edc7fd64eb21e047a839171b60405160405180910390a45050565b60006113fa82610ae3565b905061140881600084611595565b6114136000836110a8565b6001600160a01b03811660009081526002602052604090206114359083611638565b506114416003836116df565b5060405182906000906001600160a01b038416907fddf252ad1be2c89b69c2b068fc378daa952ba7f163c4a11628f55a4df523b3ef908390a45050565b600080808061148d86866116eb565b9097909650945050505050565b60006114a7848484611766565b90505b9392505050565b6000806114be6001611591565b90506114ca8382611830565b6109bc600161184a565b60006109b9836001600160a01b038416611853565b6114f48484846111c5565b6115008484848461186b565b610ee25760405162461bcd60e51b8152600401808060200182810382526032815260200180611fad6032913960400191505060405180910390fd5b60006115478383611853565b61157d575081546001818101845560008481526020808220909301849055845484825282860190935260409020919091556109bc565b5060006109bc565b60006109b98383611853565b5490565b600b5460ff16806115bb57506115bb600080516020611fdf8339815191526109496110a4565b806115e75750600b5460ff161580156115e757506115e7600080516020611fdf83398151915283610c79565b6108a9576040805162461bcd60e51b815260206004820152601b60248201527f45787465726e616c20747261646573206e6f7420616c6c6f7765640000000000604482015290519081900360640190fd5b60006109b983836119d3565b60006109b9838361153b565b60006114a784846001600160a01b038516611a99565b815460009082106116a85760405162461bcd60e51b8152600401808060200182810382526022815260200180611f5c6022913960400191505060405180910390fd5b8260000182815481106116b757fe5b9060005260206000200154905092915050565b60006109b9836001600160a01b0384166119d3565b60006109b98383611b30565b81546000908190831061172f5760405162461bcd60e51b81526004018080602001828103825260228152602001806121306022913960400191505060405180910390fd5b600084600001848154811061174057fe5b906000526020600020906002020190508060000154816001015492509250509250929050565b600082815260018401602052604081205482816118015760405162461bcd60e51b81526004018080602001828103825283818151815260200191508051906020019080838360005b838110156117c65781810151838201526020016117ae565b50505050905090810190601f1680156117f35780820380516001836020036101000a031916815260200191505b509250505060405180910390fd5b5084600001600182038154811061181457fe5b9060005260206000209060020201600101549150509392505050565b610993828260405180602001604052806000815250611c04565b80546001019055565b60009081526001919091016020526040902054151590565b600061187f846001600160a01b0316611c56565b61188b575060016111bd565b6060611999630a85bd0160e11b6118a06110a4565b88878760405160240180856001600160a01b03168152602001846001600160a01b0316815260200183815260200180602001828103825283818151815260200191508051906020019080838360005b838110156119075781810151838201526020016118ef565b50505050905090810190601f1680156119345780820380516001836020036101000a031916815260200191505b5095505050505050604051602081830303815290604052906001600160e01b0319166020820180516001600160e01b038381831617835250505050604051806060016040528060328152602001611fad603291396001600160a01b0388169190611c5c565b905060008180602001905160208110156119b257600080fd5b50516001600160e01b031916630a85bd0160e11b1492505050949350505050565b60008181526001830160205260408120548015611a8f5783546000198083019190810190600090879083908110611a0657fe5b9060005260206000200154905080876000018481548110611a2357fe5b600091825260208083209091019290925582815260018981019092526040902090840190558654879080611a5357fe5b600190038181906000526020600020016000905590558660010160008781526020019081526020016000206000905560019450505050506109bc565b60009150506109bc565b600082815260018401602052604081205480611afe5750506040805180820182528381526020808201848152865460018181018955600089815284812095516002909302909501918255915190820155865486845281880190925292909120556114aa565b82856000016001830381548110611b1157fe5b90600052602060002090600202016001018190555060009150506114aa565b60008181526001830160205260408120548015611a8f5783546000198083019190810190600090879083908110611b6357fe5b9060005260206000209060020201905080876000018481548110611b8357fe5b600091825260208083208454600290930201918255600193840154918401919091558354825289830190526040902090840190558654879080611bc257fe5b60008281526020808220600260001990940193840201828155600190810183905592909355888152898201909252604082209190915594506109bc9350505050565b611c0e8383611c6b565b611c1b600084848461186b565b6108a95760405162461bcd60e51b8152600401808060200182810382526032815260200180611fad6032913960400191505060405180910390fd5b3b151590565b60606114a78484600085611d99565b6001600160a01b038216611cc6576040805162461bcd60e51b815260206004820181905260248201527f4552433732313a206d696e7420746f20746865207a65726f2061646472657373604482015290519081900360640190fd5b611ccf81611097565b15611d21576040805162461bcd60e51b815260206004820152601c60248201527f4552433732313a20746f6b656e20616c7265616479206d696e74656400000000604482015290519081900360640190fd5b611d2d60008383611595565b6001600160a01b0382166000908152600260205260409020611d4f9082611644565b50611d5c60038284611650565b5060405181906001600160a01b038416906000907fddf252ad1be2c89b69c2b068fc378daa952ba7f163c4a11628f55a4df523b3ef908290a45050565b606082471015611dda5760405162461bcd60e51b81526004018080602001828103825260268152602001806120236026913960400191505060405180910390fd5b611de385611c56565b611e34576040805162461bcd60e51b815260206004820152601d60248201527f416464726573733a2063616c6c20746f206e6f6e2d636f6e7472616374000000604482015290519081900360640190fd5b60006060866001600160a01b031685876040518082805190602001908083835b60208310611e735780518252601f199092019160209182019101611e54565b6001836020036101000a03801982511681845116808217855250505050505090500191505060006040518083038185875af1925050503d8060008114611ed5576040519150601f19603f3d011682016040523d82523d6000602084013e611eda565b606091505b5091509150611eea828286611ef5565b979650505050505050565b60608315611f045750816114aa565b825115611f145782518084602001fd5b60405162461bcd60e51b81526020600482018181528451602484015284518593919283926044019190850190808383600083156117c65781810151838201526020016117ae56fe456e756d657261626c655365743a20696e646578206f7574206f6620626f756e6473416363657373436f6e74726f6c3a2073656e646572206d75737420626520616e2061646d696e20746f206772616e744552433732313a207472616e7366657220746f206e6f6e20455243373231526563656976657220696d706c656d656e7465725719df9ef2c4678b547f89e4f5ae410dbf400fc51cf3ded434c55f6adea2c43f4552433732313a207472616e7366657220746f20746865207a65726f2061646472657373416464726573733a20696e73756666696369656e742062616c616e636520666f722063616c6c4552433732313a206f70657261746f7220717565727920666f72206e6f6e6578697374656e7420746f6b656e416363657373436f6e74726f6c3a2073656e646572206d75737420626520616e2061646d696e20746f207265766f6b654552433732313a20617070726f76652063616c6c6572206973206e6f74206f776e6572206e6f7220617070726f76656420666f7220616c6c4552433732313a2062616c616e636520717565727920666f7220746865207a65726f20616464726573734552433732313a206f776e657220717565727920666f72206e6f6e6578697374656e7420746f6b656e456e756d657261626c654d61703a20696e646578206f7574206f6620626f756e64734552433732313a20617070726f76656420717565727920666f72206e6f6e6578697374656e7420746f6b656e4552433732313a207472616e73666572206f6620746f6b656e2074686174206973206e6f74206f776e4552433732314d657461646174613a2055524920717565727920666f72206e6f6e6578697374656e7420746f6b656e4552433732313a20617070726f76616c20746f2063757272656e74206f776e65724552433732313a207472616e736665722063616c6c6572206973206e6f74206f776e6572206e6f7220617070726f766564416363657373436f6e74726f6c3a2063616e206f6e6c792072656e6f756e636520726f6c657320666f722073656c66a2646970667358221220ef8d6e64c51d036773bd3ac18ca3b58aff0e7f0e88633fb993a580a1423c0e3964736f6c634300060c00335719df9ef2c4678b547f89e4f5ae410dbf400fc51cf3ded434c55f6adea2c43fa2646970667358221220841fd79439eb4a5c0b8ac966c8f54988f916018bfba5f9fe04926cf1d6fdafb564736f6c634300060c0033",
    "sourcePath": "/Users/225153/Projects/proxy-test/contracts/NFTFactory.sol",
    "compiler": {
        "name": "solc",
        "version": "0.6.12+commit.27d51765"
    },
    "functionHashes": {
        "RAMVaultStartBlock()": "31db122c",
        "YGYReserve()": "1dbf779e",
        "_NFTs(uint256)": "795d79f5",
        "_YGYRAMPair()": "2f4f8a7a",
        "_YGYToken()": "f7db38cb",
        "_YGYWETHPair()": "3b24bd4a",
        "_dXIOTToken()": "b81a0b4c",
        "addressStorageCount(uint256)": "6b42ee55",
        "balanceOf(address,address)": "f7888aec",
        "bondContract(address)": "24705db3",
        "bondedContract()": "bf184f93",
        "booleanMapStorageCount(uint256)": "d6cf8021",
        "boostFees()": "09e3de41",
        "boostLevelCosts(uint256)": "469fcdcb",
        "boostLevelMultipliers(uint256)": "bcb49086",
        "burn(address,uint256)": "9dc29fac",
        "checkRewards(uint256,address)": "10178d9c",
        "contracts(uint256)": "474da79a",
        "cumulativeRewardsSinceStart()": "c8ffb873",
        "cumulativeYGYRewardsSinceStart()": "9649d76c",
        "deployNFT(string,string,string,address,bool,bool,uint256)": "f1094c9c",
        "epoch()": "900cf0cf",
        "epochCalculationStartBlock()": "5d577c18",
        "epochRewards(uint256)": "4dc47d34",
        "getAddressStorage(string)": "ee02ea1b",
        "getBooleanMapValue(string,address)": "e671fab5",
        "getBoostLevelCost(uint256)": "6a9d1f6f",
        "getBoostLevelMultiplier(uint256)": "6798f19f",
        "getContractCount()": "9399869d",
        "getEpochRewards(uint256)": "5f0c0f2b",
        "getPoolInfo(uint256)": "2f380b35",
        "getUserInfo(uint256,address)": "1069f3b5",
        "initializeRAMVault(address,address,address,address)": "36644334",
        "isOwner(address,address,uint256)": "f370e8c5",
        "lastContractAddress()": "32709738",
        "lastTicketLevel(address)": "cc40f664",
        "liquidityContributedEthValue(address)": "ad1414b2",
        "mint(address,address)": "ee1fe2ad",
        "nftProperties(address,uint256)": "30d27e94",
        "ownedContracts(address)": "e8e11409",
        "owner()": "8da5cb5b",
        "pendingRewards()": "eded3fda",
        "pendingYGYRewards()": "8b6ff57b",
        "poolInfo(uint256)": "1526fe27",
        "poolLength()": "081e3eda",
        "ram()": "8f33b5e5",
        "regeneratoraddr()": "7d3b8da1",
        "renounceOwnership()": "715018a6",
        "rewardsInThisEpoch()": "608c8d3a",
        "setNFTProperties(address,(string,uint256)[])": "1d41d3fd",
        "stringToBytes32(string)": "cfb51928",
        "teamaddr()": "9a6d2711",
        "ticketCount()": "cfbd900f",
        "tickets(uint256)": "50b44712",
        "tokenURI(address)": "93702f33",
        "totalAllocPoint()": "17caf6f1",
        "transferOwnership(address)": "f2fde38b",
        "uintStorageCount(uint256)": "e941c856",
        "updateBoosts(uint256[],uint256[])": "b2f4b44a",
        "userInfo(uint256,address)": "93f1a40b",
        "ygy()": "fb70c3bf"
    },
    "gasEstimates": {
        "creation": {
            "codeDepositCost": "4176400",
            "executionCost": "4801",
            "totalCost": "4181201"
        },
        "external": {
            "RAMVaultStartBlock()": "1118",
            "YGYReserve()": "1097",
            "_NFTs(uint256)": "1302",
            "_YGYRAMPair()": "1205",
            "_YGYToken()": "1180",
            "_YGYWETHPair()": "1139",
            "_dXIOTToken()": "1137",
            "addressStorageCount(uint256)": "2130",
            "balanceOf(address,address)": "infinite",
            "bondContract(address)": "22221",
            "bondedContract()": "1181",
            "booleanMapStorageCount(uint256)": "2130",
            "boostFees()": "1120",
            "boostLevelCosts(uint256)": "1262",
            "boostLevelMultipliers(uint256)": "1260",
            "burn(address,uint256)": "infinite",
            "checkRewards(uint256,address)": "infinite",
            "contracts(uint256)": "2151",
            "cumulativeRewardsSinceStart()": "1161",
            "cumulativeYGYRewardsSinceStart()": "1162",
            "deployNFT(string,string,string,address,bool,bool,uint256)": "infinite",
            "epoch()": "1141",
            "epochCalculationStartBlock()": "1140",
            "epochRewards(uint256)": "1239",
            "getAddressStorage(string)": "infinite",
            "getBooleanMapValue(string,address)": "infinite",
            "getBoostLevelCost(uint256)": "1283",
            "getBoostLevelMultiplier(uint256)": "1261",
            "getContractCount()": "1118",
            "getEpochRewards(uint256)": "1305",
            "getPoolInfo(uint256)": "6736",
            "getUserInfo(uint256,address)": "5953",
            "initializeRAMVault(address,address,address,address)": "infinite",
            "isOwner(address,address,uint256)": "infinite",
            "lastContractAddress()": "1182",
            "lastTicketLevel(address)": "1314",
            "liquidityContributedEthValue(address)": "1358",
            "mint(address,address)": "infinite",
            "nftProperties(address,uint256)": "infinite",
            "ownedContracts(address)": "1347",
            "owner()": "1139",
            "pendingRewards()": "1161",
            "pendingYGYRewards()": "1161",
            "poolInfo(uint256)": "6341",
            "poolLength()": "1098",
            "ram()": "1161",
            "regeneratoraddr()": "1181",
            "renounceOwnership()": "24268",
            "rewardsInThisEpoch()": "1096",
            "setNFTProperties(address,(string,uint256)[])": "infinite",
            "stringToBytes32(string)": "infinite",
            "teamaddr()": "1138",
            "ticketCount()": "1140",
            "tickets(uint256)": "5489",
            "tokenURI(address)": "infinite",
            "totalAllocPoint()": "1141",
            "transferOwnership(address)": "24566",
            "uintStorageCount(uint256)": "2107",
            "updateBoosts(uint256[],uint256[])": "infinite",
            "userInfo(uint256,address)": "5644",
            "ygy()": "1202"
        }
    }
}