{
    "contractName": "Proxy",
    "abi": [
        {
            "inputs": [],
            "stateMutability": "nonpayable",
            "type": "constructor"
        },
        {
            "stateMutability": "payable",
            "type": "fallback"
        },
        {
            "inputs": [],
            "name": "implementationAddr",
            "outputs": [
                {
                    "internalType": "address",
                    "name": "",
                    "type": "address"
                }
            ],
            "stateMutability": "view",
            "type": "function"
        },
        {
            "inputs": [
                {
                    "internalType": "address",
                    "name": "_implementationAddr",
                    "type": "address"
                },
                {
                    "internalType": "address",
                    "name": "_storageAddr",
                    "type": "address"
                }
            ],
            "name": "initialize",
            "outputs": [],
            "stateMutability": "nonpayable",
            "type": "function"
        },
        {
            "inputs": [],
            "name": "storageAddr",
            "outputs": [
                {
                    "internalType": "address",
                    "name": "",
                    "type": "address"
                }
            ],
            "stateMutability": "view",
            "type": "function"
        },
        {
            "inputs": [
                {
                    "internalType": "address",
                    "name": "_newImplementationAddr",
                    "type": "address"
                }
            ],
            "name": "upgrade",
            "outputs": [],
            "stateMutability": "nonpayable",
            "type": "function"
        },
        {
            "stateMutability": "payable",
            "type": "receive"
        }
    ],
    "bytecode": "608060405234801561001057600080fd5b50600280546001600160a01b0319163317905561023d806100326000396000f3fe6080604052600436106100435760003560e01c80630900f010146100b557806315d2147a146100ea578063485cc9551461011b57806397df573e1461015657610084565b36610084576002546040516001600160a01b03909116903480156108fc02916000818181858888f19350505050158015610081573d6000803e3d6000fd5b50005b600080546001600160a01b03169036908037600080366000845af43d6000803e8080156100b0573d6000f35b3d6000fd5b3480156100c157600080fd5b506100e8600480360360208110156100d857600080fd5b50356001600160a01b031661016b565b005b3480156100f657600080fd5b506100ff6101a4565b604080516001600160a01b039092168252519081900360200190f35b34801561012757600080fd5b506100e86004803603604081101561013e57600080fd5b506001600160a01b03813581169160200135166101b3565b34801561016257600080fd5b506100ff6101f8565b6002546001600160a01b0316331461018257600080fd5b600080546001600160a01b0319166001600160a01b0392909216919091179055565b6000546001600160a01b031681565b6002546001600160a01b031633146101ca57600080fd5b600080546001600160a01b039384166001600160a01b03199182161790915560018054929093169116179055565b6001546001600160a01b03168156fea264697066735822122062bda9cbb13effaf18a64a63e1513bf1238b4c16b553cd44e87f8155fc2f9e2a64736f6c634300060c0033",
    "sourcePath": "/Users/225153/Projects/proxy-test/contracts/Proxy.sol",
    "compiler": {
        "name": "solc",
        "version": "0.6.12+commit.27d51765"
    },
    "functionHashes": {
        "implementationAddr()": "15d2147a",
        "initialize(address,address)": "485cc955",
        "storageAddr()": "97df573e",
        "upgrade(address)": "0900f010"
    },
    "gasEstimates": {
        "creation": {
            "codeDepositCost": "114600",
            "executionCost": "20994",
            "totalCost": "135594"
        },
        "external": {
            "": "infinite",
            "implementationAddr()": "1037",
            "initialize(address,address)": "42783",
            "storageAddr()": "1081",
            "upgrade(address)": "21891"
        }
    }
}