{
    "contractName": "ProxyV1",
    "abi": [
        {
            "inputs": [],
            "stateMutability": "nonpayable",
            "type": "constructor"
        },
        {
            "stateMutability": "payable",
            "type": "fallback"
        },
        {
            "inputs": [],
            "name": "getName",
            "outputs": [
                {
                    "internalType": "string",
                    "name": "",
                    "type": "string"
                }
            ],
            "stateMutability": "view",
            "type": "function"
        },
        {
            "inputs": [],
            "name": "implementationAddr",
            "outputs": [
                {
                    "internalType": "address",
                    "name": "",
                    "type": "address"
                }
            ],
            "stateMutability": "view",
            "type": "function"
        },
        {
            "inputs": [
                {
                    "internalType": "address",
                    "name": "_implementationAddr",
                    "type": "address"
                },
                {
                    "internalType": "address",
                    "name": "_storageAddr",
                    "type": "address"
                }
            ],
            "name": "initialize",
            "outputs": [],
            "stateMutability": "nonpayable",
            "type": "function"
        },
        {
            "inputs": [],
            "name": "name",
            "outputs": [
                {
                    "internalType": "string",
                    "name": "",
                    "type": "string"
                }
            ],
            "stateMutability": "view",
            "type": "function"
        },
        {
            "inputs": [
                {
                    "internalType": "string",
                    "name": "_name",
                    "type": "string"
                }
            ],
            "name": "setName",
            "outputs": [],
            "stateMutability": "nonpayable",
            "type": "function"
        },
        {
            "inputs": [
                {
                    "internalType": "address payable",
                    "name": "_newOwner",
                    "type": "address"
                }
            ],
            "name": "setOwner",
            "outputs": [],
            "stateMutability": "nonpayable",
            "type": "function"
        },
        {
            "inputs": [],
            "name": "storageAddr",
            "outputs": [
                {
                    "internalType": "address",
                    "name": "",
                    "type": "address"
                }
            ],
            "stateMutability": "view",
            "type": "function"
        },
        {
            "inputs": [
                {
                    "internalType": "address payable",
                    "name": "_newOwner",
                    "type": "address"
                }
            ],
            "name": "updateOwner",
            "outputs": [],
            "stateMutability": "nonpayable",
            "type": "function"
        },
        {
            "inputs": [
                {
                    "internalType": "address",
                    "name": "_newImplementationAddr",
                    "type": "address"
                }
            ],
            "name": "upgrade",
            "outputs": [],
            "stateMutability": "nonpayable",
            "type": "function"
        },
        {
            "stateMutability": "payable",
            "type": "receive"
        }
    ],
    "bytecode": "608060405234801561001057600080fd5b5060018054336001600160a01b03199182168117909116179055610595806100396000396000f3fe60806040526004361061008a5760003560e01c806317d7de7c1161005957806317d7de7c1461021e578063485cc95514610233578063880cdc31146101ba57806397df573e1461026e578063c47f002714610283576100cb565b806306fdde03146100fb5780630900f0101461018557806313af4035146101ba57806315d2147a146101ed576100cb565b366100cb576001546040516001600160a01b03909116904780156108fc02916000818181858888f193505050501580156100c8573d6000803e3d6000fd5b50005b6002546001600160a01b03163660008037600080366000845af43d6000803e8080156100f6573d6000f35b3d6000fd5b34801561010757600080fd5b50610110610336565b6040805160208082528351818301528351919283929083019185019080838360005b8381101561014a578181015183820152602001610132565b50505050905090810190601f1680156101775780820380516001836020036101000a031916815260200191505b509250505060405180910390f35b34801561019157600080fd5b506101b8600480360360208110156101a857600080fd5b50356001600160a01b03166103c4565b005b3480156101c657600080fd5b506101b8600480360360208110156101dd57600080fd5b50356001600160a01b03166103fd565b3480156101f957600080fd5b50610202610436565b604080516001600160a01b039092168252519081900360200190f35b34801561022a57600080fd5b50610110610445565b34801561023f57600080fd5b506101b86004803603604081101561025657600080fd5b506001600160a01b038135811691602001351661044a565b34801561027a57600080fd5b5061020261048f565b34801561028f57600080fd5b506101b8600480360360208110156102a657600080fd5b8101906020810181356401000000008111156102c157600080fd5b8201836020820111156102d357600080fd5b803590602001918460018302840111640100000000831117156102f557600080fd5b91908080601f01602080910402602001604051908101604052809392919081815260200183838082843760009201919091525092955061049e945050505050565b6000805460408051602060026001851615610100026000190190941693909304601f810184900484028201840190925281815292918301828280156103bc5780601f10610391576101008083540402835291602001916103bc565b820191906000526020600020905b81548152906001019060200180831161039f57829003601f168201915b505050505081565b6001546001600160a01b031633146103db57600080fd5b600280546001600160a01b0319166001600160a01b0392909216919091179055565b6001546001600160a01b0316331461041457600080fd5b600180546001600160a01b0319166001600160a01b0392909216919091179055565b6002546001600160a01b031681565b606090565b6001546001600160a01b0316331461046157600080fd5b600280546001600160a01b039384166001600160a01b03199182161790915560038054929093169116179055565b6003546001600160a01b031681565b6001546001600160a01b031633146104b557600080fd5b80516104c89060009060208401906104cc565b5050565b828054600181600116156101000203166002900490600052602060002090601f016020900481019282601f1061050d57805160ff191683800117855561053a565b8280016001018555821561053a579182015b8281111561053a57825182559160200191906001019061051f565b5061054692915061054a565b5090565b5b80821115610546576000815560010161054b56fea264697066735822122088a82c14a75835180ba7219bd8eb038a2bcf54212ff532f9000f15a01e9eacfb64736f6c634300060c0033",
    "sourcePath": "/Users/225153/Projects/proxy-test/contracts/ProxyV1.sol",
    "compiler": {
        "name": "solc",
        "version": "0.6.12+commit.27d51765"
    },
    "functionHashes": {
        "getName()": "17d7de7c",
        "implementationAddr()": "15d2147a",
        "initialize(address,address)": "485cc955",
        "name()": "06fdde03",
        "setName(string)": "c47f0027",
        "setOwner(address)": "13af4035",
        "storageAddr()": "97df573e",
        "updateOwner(address)": "880cdc31",
        "upgrade(address)": "0900f010"
    },
    "gasEstimates": {
        "creation": {
            "codeDepositCost": "285800",
            "executionCost": "21180",
            "totalCost": "306980"
        },
        "external": {
            "": "infinite",
            "getName()": "infinite",
            "implementationAddr()": "1104",
            "initialize(address,address)": "42783",
            "name()": "infinite",
            "setName(string)": "infinite",
            "setOwner(address)": "21958",
            "storageAddr()": "1103",
            "updateOwner(address)": "21957",
            "upgrade(address)": "21936"
        }
    }
}