{
    "contractName": "RAMv1Router",
    "abi": [
        {
            "inputs": [
                {
                    "internalType": "address",
                    "name": "uniV2Factory",
                    "type": "address"
                },
                {
                    "internalType": "address",
                    "name": "feeApprover",
                    "type": "address"
                },
                {
                    "internalType": "address",
                    "name": "RAMVault",
                    "type": "address"
                },
                {
                    "internalType": "address",
                    "name": "nftFactory",
                    "type": "address"
                },
                {
                    "internalType": "address payable",
                    "name": "_regenerator",
                    "type": "address"
                },
                {
                    "internalType": "address",
                    "name": "linkAddr",
                    "type": "address"
                },
                {
                    "internalType": "address",
                    "name": "vrfAddr",
                    "type": "address"
                }
            ],
            "stateMutability": "nonpayable",
            "type": "constructor"
        },
        {
            "anonymous": false,
            "inputs": [
                {
                    "indexed": true,
                    "internalType": "address",
                    "name": "newAddress",
                    "type": "address"
                },
                {
                    "indexed": true,
                    "internalType": "address",
                    "name": "oldAddress",
                    "type": "address"
                }
            ],
            "name": "FeeApproverChanged",
            "type": "event"
        },
        {
            "anonymous": false,
            "inputs": [
                {
                    "indexed": true,
                    "internalType": "address",
                    "name": "previousOwner",
                    "type": "address"
                },
                {
                    "indexed": true,
                    "internalType": "address",
                    "name": "newOwner",
                    "type": "address"
                }
            ],
            "name": "OwnershipTransferred",
            "type": "event"
        },
        {
            "anonymous": false,
            "inputs": [
                {
                    "indexed": true,
                    "internalType": "bytes32",
                    "name": "role",
                    "type": "bytes32"
                },
                {
                    "indexed": true,
                    "internalType": "address",
                    "name": "account",
                    "type": "address"
                },
                {
                    "indexed": true,
                    "internalType": "address",
                    "name": "sender",
                    "type": "address"
                }
            ],
            "name": "RoleGranted",
            "type": "event"
        },
        {
            "anonymous": false,
            "inputs": [
                {
                    "indexed": true,
                    "internalType": "bytes32",
                    "name": "role",
                    "type": "bytes32"
                },
                {
                    "indexed": true,
                    "internalType": "address",
                    "name": "account",
                    "type": "address"
                },
                {
                    "indexed": true,
                    "internalType": "address",
                    "name": "sender",
                    "type": "address"
                }
            ],
            "name": "RoleRevoked",
            "type": "event"
        },
        {
            "stateMutability": "payable",
            "type": "fallback"
        },
        {
            "inputs": [],
            "name": "DEFAULT_ADMIN_ROLE",
            "outputs": [
                {
                    "internalType": "bytes32",
                    "name": "",
                    "type": "bytes32"
                }
            ],
            "stateMutability": "view",
            "type": "function"
        },
        {
            "inputs": [],
            "name": "MAX",
            "outputs": [
                {
                    "internalType": "uint256",
                    "name": "",
                    "type": "uint256"
                }
            ],
            "stateMutability": "view",
            "type": "function"
        },
        {
            "inputs": [],
            "name": "MODIFIER_ROLE",
            "outputs": [
                {
                    "internalType": "bytes32",
                    "name": "",
                    "type": "bytes32"
                }
            ],
            "stateMutability": "view",
            "type": "function"
        },
        {
            "inputs": [],
            "name": "OFFSET",
            "outputs": [
                {
                    "internalType": "uint256",
                    "name": "",
                    "type": "uint256"
                }
            ],
            "stateMutability": "view",
            "type": "function"
        },
        {
            "inputs": [],
            "name": "RAMVaultStartBlock",
            "outputs": [
                {
                    "internalType": "uint256",
                    "name": "",
                    "type": "uint256"
                }
            ],
            "stateMutability": "view",
            "type": "function"
        },
        {
            "inputs": [],
            "name": "SCALE",
            "outputs": [
                {
                    "internalType": "uint256",
                    "name": "",
                    "type": "uint256"
                }
            ],
            "stateMutability": "view",
            "type": "function"
        },
        {
            "inputs": [],
            "name": "SCALIFIER",
            "outputs": [
                {
                    "internalType": "uint256",
                    "name": "",
                    "type": "uint256"
                }
            ],
            "stateMutability": "view",
            "type": "function"
        },
        {
            "inputs": [],
            "name": "YGYReserve",
            "outputs": [
                {
                    "internalType": "uint256",
                    "name": "",
                    "type": "uint256"
                }
            ],
            "stateMutability": "view",
            "type": "function"
        },
        {
            "inputs": [],
            "name": "_NFTFactory",
            "outputs": [
                {
                    "internalType": "contract INFTFactory",
                    "name": "",
                    "type": "address"
                }
            ],
            "stateMutability": "view",
            "type": "function"
        },
        {
            "inputs": [
                {
                    "internalType": "uint256",
                    "name": "",
                    "type": "uint256"
                }
            ],
            "name": "_NFTs",
            "outputs": [
                {
                    "internalType": "address",
                    "name": "",
                    "type": "address"
                }
            ],
            "stateMutability": "view",
            "type": "function"
        },
        {
            "inputs": [],
            "name": "_RAMToken",
            "outputs": [
                {
                    "internalType": "address",
                    "name": "",
                    "type": "address"
                }
            ],
            "stateMutability": "view",
            "type": "function"
        },
        {
            "inputs": [],
            "name": "_RAMVault",
            "outputs": [
                {
                    "internalType": "contract IRAMVault",
                    "name": "",
                    "type": "address"
                }
            ],
            "stateMutability": "view",
            "type": "function"
        },
        {
            "inputs": [],
            "name": "_WETH",
            "outputs": [
                {
                    "internalType": "contract IWETH",
                    "name": "",
                    "type": "address"
                }
            ],
            "stateMutability": "view",
            "type": "function"
        },
        {
            "inputs": [],
            "name": "_YGYRAMPair",
            "outputs": [
                {
                    "internalType": "address",
                    "name": "",
                    "type": "address"
                }
            ],
            "stateMutability": "view",
            "type": "function"
        },
        {
            "inputs": [],
            "name": "_YGYToken",
            "outputs": [
                {
                    "internalType": "address",
                    "name": "",
                    "type": "address"
                }
            ],
            "stateMutability": "view",
            "type": "function"
        },
        {
            "inputs": [],
            "name": "_YGYWETHPair",
            "outputs": [
                {
                    "internalType": "address",
                    "name": "",
                    "type": "address"
                }
            ],
            "stateMutability": "view",
            "type": "function"
        },
        {
            "inputs": [],
            "name": "_dXIOTToken",
            "outputs": [
                {
                    "internalType": "contract IERC20",
                    "name": "",
                    "type": "address"
                }
            ],
            "stateMutability": "view",
            "type": "function"
        },
        {
            "inputs": [],
            "name": "_feeApprover",
            "outputs": [
                {
                    "internalType": "contract IFeeApprover",
                    "name": "",
                    "type": "address"
                }
            ],
            "stateMutability": "view",
            "type": "function"
        },
        {
            "inputs": [],
            "name": "_uniV2Factory",
            "outputs": [
                {
                    "internalType": "address",
                    "name": "",
                    "type": "address"
                }
            ],
            "stateMutability": "view",
            "type": "function"
        },
        {
            "inputs": [
                {
                    "internalType": "address payable",
                    "name": "to",
                    "type": "address"
                },
                {
                    "internalType": "bool",
                    "name": "autoStake",
                    "type": "bool"
                }
            ],
            "name": "addLiquidityETHOnly",
            "outputs": [],
            "stateMutability": "payable",
            "type": "function"
        },
        {
            "inputs": [
                {
                    "internalType": "uint256",
                    "name": "amount",
                    "type": "uint256"
                },
                {
                    "internalType": "bool",
                    "name": "autoStake",
                    "type": "bool"
                }
            ],
            "name": "addLiquidityYGYOnly",
            "outputs": [],
            "stateMutability": "payable",
            "type": "function"
        },
        {
            "inputs": [
                {
                    "internalType": "uint256",
                    "name": "",
                    "type": "uint256"
                }
            ],
            "name": "addressStorageCount",
            "outputs": [
                {
                    "internalType": "uint256",
                    "name": "",
                    "type": "uint256"
                }
            ],
            "stateMutability": "view",
            "type": "function"
        },
        {
            "inputs": [
                {
                    "internalType": "uint256",
                    "name": "",
                    "type": "uint256"
                }
            ],
            "name": "booleanMapStorageCount",
            "outputs": [
                {
                    "internalType": "uint256",
                    "name": "",
                    "type": "uint256"
                }
            ],
            "stateMutability": "view",
            "type": "function"
        },
        {
            "inputs": [],
            "name": "boostFees",
            "outputs": [
                {
                    "internalType": "uint256",
                    "name": "",
                    "type": "uint256"
                }
            ],
            "stateMutability": "view",
            "type": "function"
        },
        {
            "inputs": [
                {
                    "internalType": "uint256",
                    "name": "",
                    "type": "uint256"
                }
            ],
            "name": "boostLevelCosts",
            "outputs": [
                {
                    "internalType": "uint256",
                    "name": "",
                    "type": "uint256"
                }
            ],
            "stateMutability": "view",
            "type": "function"
        },
        {
            "inputs": [
                {
                    "internalType": "uint256",
                    "name": "",
                    "type": "uint256"
                }
            ],
            "name": "boostLevelMultipliers",
            "outputs": [
                {
                    "internalType": "uint256",
                    "name": "",
                    "type": "uint256"
                }
            ],
            "stateMutability": "view",
            "type": "function"
        },
        {
            "inputs": [
                {
                    "internalType": "address",
                    "name": "feeApprover",
                    "type": "address"
                }
            ],
            "name": "changeFeeApprover",
            "outputs": [],
            "stateMutability": "nonpayable",
            "type": "function"
        },
        {
            "inputs": [
                {
                    "internalType": "uint256",
                    "name": "_pid",
                    "type": "uint256"
                },
                {
                    "internalType": "address",
                    "name": "_user",
                    "type": "address"
                }
            ],
            "name": "checkRewards",
            "outputs": [
                {
                    "internalType": "uint256",
                    "name": "pendingRAM",
                    "type": "uint256"
                },
                {
                    "internalType": "uint256",
                    "name": "pendingYGY",
                    "type": "uint256"
                }
            ],
            "stateMutability": "view",
            "type": "function"
        },
        {
            "inputs": [],
            "name": "cumulativeRewardsSinceStart",
            "outputs": [
                {
                    "internalType": "uint256",
                    "name": "",
                    "type": "uint256"
                }
            ],
            "stateMutability": "view",
            "type": "function"
        },
        {
            "inputs": [],
            "name": "cumulativeYGYRewardsSinceStart",
            "outputs": [
                {
                    "internalType": "uint256",
                    "name": "",
                    "type": "uint256"
                }
            ],
            "stateMutability": "view",
            "type": "function"
        },
        {
            "inputs": [],
            "name": "epoch",
            "outputs": [
                {
                    "internalType": "uint256",
                    "name": "",
                    "type": "uint256"
                }
            ],
            "stateMutability": "view",
            "type": "function"
        },
        {
            "inputs": [],
            "name": "epochCalculationStartBlock",
            "outputs": [
                {
                    "internalType": "uint256",
                    "name": "",
                    "type": "uint256"
                }
            ],
            "stateMutability": "view",
            "type": "function"
        },
        {
            "inputs": [
                {
                    "internalType": "uint256",
                    "name": "",
                    "type": "uint256"
                }
            ],
            "name": "epochRewards",
            "outputs": [
                {
                    "internalType": "uint256",
                    "name": "",
                    "type": "uint256"
                }
            ],
            "stateMutability": "view",
            "type": "function"
        },
        {
            "inputs": [
                {
                    "internalType": "string",
                    "name": "_key",
                    "type": "string"
                }
            ],
            "name": "getAddressStorage",
            "outputs": [
                {
                    "internalType": "address",
                    "name": "",
                    "type": "address"
                }
            ],
            "stateMutability": "view",
            "type": "function"
        },
        {
            "inputs": [
                {
                    "internalType": "string",
                    "name": "_key",
                    "type": "string"
                },
                {
                    "internalType": "address",
                    "name": "_address",
                    "type": "address"
                }
            ],
            "name": "getBooleanMapValue",
            "outputs": [
                {
                    "internalType": "bool",
                    "name": "",
                    "type": "bool"
                }
            ],
            "stateMutability": "view",
            "type": "function"
        },
        {
            "inputs": [
                {
                    "internalType": "uint256",
                    "name": "_level",
                    "type": "uint256"
                }
            ],
            "name": "getBoostLevelCost",
            "outputs": [
                {
                    "internalType": "uint256",
                    "name": "",
                    "type": "uint256"
                }
            ],
            "stateMutability": "view",
            "type": "function"
        },
        {
            "inputs": [
                {
                    "internalType": "uint256",
                    "name": "_level",
                    "type": "uint256"
                }
            ],
            "name": "getBoostLevelMultiplier",
            "outputs": [
                {
                    "internalType": "uint256",
                    "name": "",
                    "type": "uint256"
                }
            ],
            "stateMutability": "view",
            "type": "function"
        },
        {
            "inputs": [
                {
                    "internalType": "uint256",
                    "name": "_epoch",
                    "type": "uint256"
                }
            ],
            "name": "getEpochRewards",
            "outputs": [
                {
                    "internalType": "uint256",
                    "name": "",
                    "type": "uint256"
                }
            ],
            "stateMutability": "view",
            "type": "function"
        },
        {
            "inputs": [
                {
                    "internalType": "uint256",
                    "name": "ygyAmt",
                    "type": "uint256"
                }
            ],
            "name": "getLPTokenPerYGYUnit",
            "outputs": [
                {
                    "internalType": "uint256",
                    "name": "liquidity",
                    "type": "uint256"
                }
            ],
            "stateMutability": "view",
            "type": "function"
        },
        {
            "inputs": [
                {
                    "internalType": "uint256",
                    "name": "_contractId",
                    "type": "uint256"
                }
            ],
            "name": "getNFTAddress",
            "outputs": [
                {
                    "internalType": "address",
                    "name": "",
                    "type": "address"
                }
            ],
            "stateMutability": "view",
            "type": "function"
        },
        {
            "inputs": [
                {
                    "internalType": "uint256",
                    "name": "_contractId",
                    "type": "uint256"
                },
                {
                    "internalType": "uint256",
                    "name": "_index",
                    "type": "uint256"
                }
            ],
            "name": "getNFTProperty",
            "outputs": [
                {
                    "internalType": "string",
                    "name": "",
                    "type": "string"
                },
                {
                    "internalType": "uint256",
                    "name": "",
                    "type": "uint256"
                },
                {
                    "internalType": "bytes32",
                    "name": "",
                    "type": "bytes32"
                }
            ],
            "stateMutability": "view",
            "type": "function"
        },
        {
            "inputs": [
                {
                    "internalType": "uint256",
                    "name": "_contractId",
                    "type": "uint256"
                }
            ],
            "name": "getNFTPropertyCount",
            "outputs": [
                {
                    "internalType": "uint256",
                    "name": "",
                    "type": "uint256"
                }
            ],
            "stateMutability": "view",
            "type": "function"
        },
        {
            "inputs": [
                {
                    "internalType": "uint256",
                    "name": "_poolId",
                    "type": "uint256"
                }
            ],
            "name": "getPoolInfo",
            "outputs": [
                {
                    "internalType": "contract IERC20",
                    "name": "_token",
                    "type": "address"
                },
                {
                    "internalType": "uint256",
                    "name": "_allocPointt",
                    "type": "uint256"
                },
                {
                    "internalType": "uint256",
                    "name": "_accRAMPerShare",
                    "type": "uint256"
                },
                {
                    "internalType": "uint256",
                    "name": "_accYGYPerShare",
                    "type": "uint256"
                },
                {
                    "internalType": "bool",
                    "name": "_withdrawable",
                    "type": "bool"
                },
                {
                    "internalType": "uint256",
                    "name": "_effectiveAdditionalTokensFromBoosts",
                    "type": "uint256"
                }
            ],
            "stateMutability": "view",
            "type": "function"
        },
        {
            "inputs": [
                {
                    "internalType": "uint256",
                    "name": "userProvidedSeed",
                    "type": "uint256"
                }
            ],
            "name": "getRandomNumber",
            "outputs": [
                {
                    "internalType": "bytes32",
                    "name": "requestId",
                    "type": "bytes32"
                }
            ],
            "stateMutability": "nonpayable",
            "type": "function"
        },
        {
            "inputs": [
                {
                    "internalType": "bytes32",
                    "name": "role",
                    "type": "bytes32"
                }
            ],
            "name": "getRoleAdmin",
            "outputs": [
                {
                    "internalType": "bytes32",
                    "name": "",
                    "type": "bytes32"
                }
            ],
            "stateMutability": "view",
            "type": "function"
        },
        {
            "inputs": [
                {
                    "internalType": "bytes32",
                    "name": "role",
                    "type": "bytes32"
                },
                {
                    "internalType": "uint256",
                    "name": "index",
                    "type": "uint256"
                }
            ],
            "name": "getRoleMember",
            "outputs": [
                {
                    "internalType": "address",
                    "name": "",
                    "type": "address"
                }
            ],
            "stateMutability": "view",
            "type": "function"
        },
        {
            "inputs": [
                {
                    "internalType": "bytes32",
                    "name": "role",
                    "type": "bytes32"
                }
            ],
            "name": "getRoleMemberCount",
            "outputs": [
                {
                    "internalType": "uint256",
                    "name": "",
                    "type": "uint256"
                }
            ],
            "stateMutability": "view",
            "type": "function"
        },
        {
            "inputs": [
                {
                    "internalType": "uint256",
                    "name": "_poolId",
                    "type": "uint256"
                },
                {
                    "internalType": "address",
                    "name": "_user",
                    "type": "address"
                }
            ],
            "name": "getUserInfo",
            "outputs": [
                {
                    "internalType": "uint256",
                    "name": "amount",
                    "type": "uint256"
                },
                {
                    "internalType": "uint256",
                    "name": "rewardDebt",
                    "type": "uint256"
                },
                {
                    "internalType": "uint256",
                    "name": "rewardDebtYGY",
                    "type": "uint256"
                },
                {
                    "internalType": "uint256",
                    "name": "boostAmount",
                    "type": "uint256"
                },
                {
                    "internalType": "uint256",
                    "name": "boostLevel",
                    "type": "uint256"
                },
                {
                    "internalType": "uint256",
                    "name": "spentMultiplierTokens",
                    "type": "uint256"
                }
            ],
            "stateMutability": "view",
            "type": "function"
        },
        {
            "inputs": [
                {
                    "internalType": "address",
                    "name": "user",
                    "type": "address"
                }
            ],
            "name": "getUserLotteryLevel",
            "outputs": [
                {
                    "internalType": "uint256",
                    "name": "",
                    "type": "uint256"
                }
            ],
            "stateMutability": "view",
            "type": "function"
        },
        {
            "inputs": [],
            "name": "governance",
            "outputs": [
                {
                    "internalType": "address",
                    "name": "",
                    "type": "address"
                }
            ],
            "stateMutability": "view",
            "type": "function"
        },
        {
            "inputs": [
                {
                    "internalType": "bytes32",
                    "name": "role",
                    "type": "bytes32"
                },
                {
                    "internalType": "address",
                    "name": "account",
                    "type": "address"
                }
            ],
            "name": "grantRole",
            "outputs": [],
            "stateMutability": "nonpayable",
            "type": "function"
        },
        {
            "inputs": [
                {
                    "internalType": "bytes32",
                    "name": "role",
                    "type": "bytes32"
                },
                {
                    "internalType": "address",
                    "name": "account",
                    "type": "address"
                }
            ],
            "name": "hasRole",
            "outputs": [
                {
                    "internalType": "bool",
                    "name": "",
                    "type": "bool"
                }
            ],
            "stateMutability": "view",
            "type": "function"
        },
        {
            "inputs": [],
            "name": "initialize",
            "outputs": [],
            "stateMutability": "nonpayable",
            "type": "function"
        },
        {
            "inputs": [
                {
                    "internalType": "address",
                    "name": "_ram",
                    "type": "address"
                },
                {
                    "internalType": "address",
                    "name": "_ygy",
                    "type": "address"
                },
                {
                    "internalType": "address",
                    "name": "_teamaddr",
                    "type": "address"
                },
                {
                    "internalType": "address",
                    "name": "_regeneratoraddr",
                    "type": "address"
                }
            ],
            "name": "initializeRAMVault",
            "outputs": [],
            "stateMutability": "nonpayable",
            "type": "function"
        },
        {
            "inputs": [
                {
                    "internalType": "address",
                    "name": "",
                    "type": "address"
                }
            ],
            "name": "lastTicketLevel",
            "outputs": [
                {
                    "internalType": "uint256",
                    "name": "",
                    "type": "uint256"
                }
            ],
            "stateMutability": "view",
            "type": "function"
        },
        {
            "inputs": [
                {
                    "internalType": "address",
                    "name": "",
                    "type": "address"
                }
            ],
            "name": "liquidityContributedEthValue",
            "outputs": [
                {
                    "internalType": "uint256",
                    "name": "",
                    "type": "uint256"
                }
            ],
            "stateMutability": "view",
            "type": "function"
        },
        {
            "inputs": [
                {
                    "internalType": "address",
                    "name": "",
                    "type": "address"
                },
                {
                    "internalType": "uint256",
                    "name": "",
                    "type": "uint256"
                }
            ],
            "name": "nftPropertyChoices",
            "outputs": [
                {
                    "internalType": "string",
                    "name": "pType",
                    "type": "string"
                },
                {
                    "internalType": "uint256",
                    "name": "pValue",
                    "type": "uint256"
                },
                {
                    "internalType": "bytes32",
                    "name": "extra",
                    "type": "bytes32"
                }
            ],
            "stateMutability": "view",
            "type": "function"
        },
        {
            "inputs": [
                {
                    "internalType": "bytes32",
                    "name": "",
                    "type": "bytes32"
                }
            ],
            "name": "nonces",
            "outputs": [
                {
                    "internalType": "uint256",
                    "name": "",
                    "type": "uint256"
                }
            ],
            "stateMutability": "view",
            "type": "function"
        },
        {
            "inputs": [],
            "name": "owner",
            "outputs": [
                {
                    "internalType": "address",
                    "name": "",
                    "type": "address"
                }
            ],
            "stateMutability": "view",
            "type": "function"
        },
        {
            "inputs": [],
            "name": "pendingRewards",
            "outputs": [
                {
                    "internalType": "uint256",
                    "name": "",
                    "type": "uint256"
                }
            ],
            "stateMutability": "view",
            "type": "function"
        },
        {
            "inputs": [],
            "name": "pendingYGYRewards",
            "outputs": [
                {
                    "internalType": "uint256",
                    "name": "",
                    "type": "uint256"
                }
            ],
            "stateMutability": "view",
            "type": "function"
        },
        {
            "inputs": [
                {
                    "internalType": "uint256",
                    "name": "",
                    "type": "uint256"
                }
            ],
            "name": "poolInfo",
            "outputs": [
                {
                    "internalType": "contract IERC20",
                    "name": "token",
                    "type": "address"
                },
                {
                    "internalType": "uint256",
                    "name": "allocPoint",
                    "type": "uint256"
                },
                {
                    "internalType": "uint256",
                    "name": "accRAMPerShare",
                    "type": "uint256"
                },
                {
                    "internalType": "uint256",
                    "name": "accYGYPerShare",
                    "type": "uint256"
                },
                {
                    "internalType": "bool",
                    "name": "withdrawable",
                    "type": "bool"
                },
                {
                    "internalType": "uint256",
                    "name": "effectiveAdditionalTokensFromBoosts",
                    "type": "uint256"
                }
            ],
            "stateMutability": "view",
            "type": "function"
        },
        {
            "inputs": [],
            "name": "poolLength",
            "outputs": [
                {
                    "internalType": "uint256",
                    "name": "",
                    "type": "uint256"
                }
            ],
            "stateMutability": "view",
            "type": "function"
        },
        {
            "inputs": [],
            "name": "ram",
            "outputs": [
                {
                    "internalType": "contract INBUNIERC20",
                    "name": "",
                    "type": "address"
                }
            ],
            "stateMutability": "view",
            "type": "function"
        },
        {
            "inputs": [],
            "name": "randomResult",
            "outputs": [
                {
                    "internalType": "uint256",
                    "name": "",
                    "type": "uint256"
                }
            ],
            "stateMutability": "view",
            "type": "function"
        },
        {
            "inputs": [
                {
                    "internalType": "bytes32",
                    "name": "requestId",
                    "type": "bytes32"
                },
                {
                    "internalType": "uint256",
                    "name": "randomness",
                    "type": "uint256"
                }
            ],
            "name": "rawFulfillRandomness",
            "outputs": [],
            "stateMutability": "nonpayable",
            "type": "function"
        },
        {
            "inputs": [],
            "name": "refreshApproval",
            "outputs": [],
            "stateMutability": "nonpayable",
            "type": "function"
        },
        {
            "inputs": [],
            "name": "regenerator",
            "outputs": [
                {
                    "internalType": "address payable",
                    "name": "",
                    "type": "address"
                }
            ],
            "stateMutability": "view",
            "type": "function"
        },
        {
            "inputs": [],
            "name": "regeneratorTax",
            "outputs": [
                {
                    "internalType": "uint256",
                    "name": "",
                    "type": "uint256"
                }
            ],
            "stateMutability": "view",
            "type": "function"
        },
        {
            "inputs": [],
            "name": "regeneratoraddr",
            "outputs": [
                {
                    "internalType": "address",
                    "name": "",
                    "type": "address"
                }
            ],
            "stateMutability": "view",
            "type": "function"
        },
        {
            "inputs": [],
            "name": "renounceOwnership",
            "outputs": [],
            "stateMutability": "nonpayable",
            "type": "function"
        },
        {
            "inputs": [
                {
                    "internalType": "bytes32",
                    "name": "role",
                    "type": "bytes32"
                },
                {
                    "internalType": "address",
                    "name": "account",
                    "type": "address"
                }
            ],
            "name": "renounceRole",
            "outputs": [],
            "stateMutability": "nonpayable",
            "type": "function"
        },
        {
            "inputs": [
                {
                    "internalType": "bytes32",
                    "name": "role",
                    "type": "bytes32"
                },
                {
                    "internalType": "address",
                    "name": "account",
                    "type": "address"
                }
            ],
            "name": "revokeRole",
            "outputs": [],
            "stateMutability": "nonpayable",
            "type": "function"
        },
        {
            "inputs": [],
            "name": "rewardsInThisEpoch",
            "outputs": [
                {
                    "internalType": "uint256",
                    "name": "",
                    "type": "uint256"
                }
            ],
            "stateMutability": "view",
            "type": "function"
        },
        {
            "inputs": [],
            "name": "rngLinkFee",
            "outputs": [
                {
                    "internalType": "uint256",
                    "name": "",
                    "type": "uint256"
                }
            ],
            "stateMutability": "view",
            "type": "function"
        },
        {
            "inputs": [
                {
                    "internalType": "uint256",
                    "name": "userProvidedSeed",
                    "type": "uint256"
                }
            ],
            "name": "selfRequestRandomNumber",
            "outputs": [
                {
                    "internalType": "bytes32",
                    "name": "requestId",
                    "type": "bytes32"
                }
            ],
            "stateMutability": "nonpayable",
            "type": "function"
        },
        {
            "inputs": [
                {
                    "internalType": "address",
                    "name": "feeApproverAddress",
                    "type": "address"
                }
            ],
            "name": "setFeeApprover",
            "outputs": [],
            "stateMutability": "nonpayable",
            "type": "function"
        },
        {
            "inputs": [
                {
                    "internalType": "address",
                    "name": "_governance",
                    "type": "address"
                }
            ],
            "name": "setGovernance",
            "outputs": [],
            "stateMutability": "nonpayable",
            "type": "function"
        },
        {
            "inputs": [
                {
                    "internalType": "uint256",
                    "name": "_regeneratorTax",
                    "type": "uint256"
                }
            ],
            "name": "setRegeneratorTax",
            "outputs": [],
            "stateMutability": "nonpayable",
            "type": "function"
        },
        {
            "inputs": [
                {
                    "internalType": "address",
                    "name": "RAMToken",
                    "type": "address"
                },
                {
                    "internalType": "address",
                    "name": "YGYToken",
                    "type": "address"
                },
                {
                    "internalType": "address",
                    "name": "WETH",
                    "type": "address"
                },
                {
                    "internalType": "address",
                    "name": "YGYRAMPair",
                    "type": "address"
                },
                {
                    "internalType": "address",
                    "name": "YGYWethPair",
                    "type": "address"
                },
                {
                    "internalType": "address[]",
                    "name": "nfts",
                    "type": "address[]"
                },
                {
                    "internalType": "address",
                    "name": "dXIOTToken",
                    "type": "address"
                }
            ],
            "name": "setTokens",
            "outputs": [],
            "stateMutability": "nonpayable",
            "type": "function"
        },
        {
            "inputs": [
                {
                    "internalType": "string",
                    "name": "source",
                    "type": "string"
                }
            ],
            "name": "stringToBytes32",
            "outputs": [
                {
                    "internalType": "bytes32",
                    "name": "result",
                    "type": "bytes32"
                }
            ],
            "stateMutability": "pure",
            "type": "function"
        },
        {
            "inputs": [],
            "name": "sync",
            "outputs": [],
            "stateMutability": "nonpayable",
            "type": "function"
        },
        {
            "inputs": [],
            "name": "teamaddr",
            "outputs": [
                {
                    "internalType": "address",
                    "name": "",
                    "type": "address"
                }
            ],
            "stateMutability": "view",
            "type": "function"
        },
        {
            "inputs": [],
            "name": "ticketCount",
            "outputs": [
                {
                    "internalType": "uint256",
                    "name": "",
                    "type": "uint256"
                }
            ],
            "stateMutability": "view",
            "type": "function"
        },
        {
            "inputs": [
                {
                    "internalType": "uint256",
                    "name": "",
                    "type": "uint256"
                }
            ],
            "name": "tickets",
            "outputs": [
                {
                    "internalType": "address",
                    "name": "owner",
                    "type": "address"
                },
                {
                    "internalType": "uint256",
                    "name": "levelOneChance",
                    "type": "uint256"
                },
                {
                    "internalType": "uint256",
                    "name": "levelTwoChance",
                    "type": "uint256"
                },
                {
                    "internalType": "uint256",
                    "name": "levelThreeChance",
                    "type": "uint256"
                },
                {
                    "internalType": "uint256",
                    "name": "levelFourChance",
                    "type": "uint256"
                },
                {
                    "internalType": "uint256",
                    "name": "levelFiveChance",
                    "type": "uint256"
                }
            ],
            "stateMutability": "view",
            "type": "function"
        },
        {
            "inputs": [],
            "name": "totalAllocPoint",
            "outputs": [
                {
                    "internalType": "uint256",
                    "name": "",
                    "type": "uint256"
                }
            ],
            "stateMutability": "view",
            "type": "function"
        },
        {
            "inputs": [
                {
                    "internalType": "address",
                    "name": "newOwner",
                    "type": "address"
                }
            ],
            "name": "transferOwnership",
            "outputs": [],
            "stateMutability": "nonpayable",
            "type": "function"
        },
        {
            "inputs": [
                {
                    "internalType": "uint256",
                    "name": "",
                    "type": "uint256"
                }
            ],
            "name": "uintStorageCount",
            "outputs": [
                {
                    "internalType": "uint256",
                    "name": "",
                    "type": "uint256"
                }
            ],
            "stateMutability": "view",
            "type": "function"
        },
        {
            "inputs": [
                {
                    "internalType": "uint256[]",
                    "name": "_boostMultipliers",
                    "type": "uint256[]"
                },
                {
                    "internalType": "uint256[]",
                    "name": "_boostCosts",
                    "type": "uint256[]"
                }
            ],
            "name": "updateBoosts",
            "outputs": [],
            "stateMutability": "nonpayable",
            "type": "function"
        },
        {
            "inputs": [
                {
                    "internalType": "bytes32",
                    "name": "_keyHash",
                    "type": "bytes32"
                }
            ],
            "name": "updateKeyHash",
            "outputs": [],
            "stateMutability": "nonpayable",
            "type": "function"
        },
        {
            "inputs": [
                {
                    "internalType": "uint256",
                    "name": "_rngLinkFee",
                    "type": "uint256"
                }
            ],
            "name": "updateRngLinkFee",
            "outputs": [],
            "stateMutability": "nonpayable",
            "type": "function"
        },
        {
            "inputs": [
                {
                    "internalType": "uint256",
                    "name": "",
                    "type": "uint256"
                },
                {
                    "internalType": "address",
                    "name": "",
                    "type": "address"
                }
            ],
            "name": "userInfo",
            "outputs": [
                {
                    "internalType": "uint256",
                    "name": "amount",
                    "type": "uint256"
                },
                {
                    "internalType": "uint256",
                    "name": "rewardDebt",
                    "type": "uint256"
                },
                {
                    "internalType": "uint256",
                    "name": "rewardDebtYGY",
                    "type": "uint256"
                },
                {
                    "internalType": "uint256",
                    "name": "boostAmount",
                    "type": "uint256"
                },
                {
                    "internalType": "uint256",
                    "name": "boostLevel",
                    "type": "uint256"
                },
                {
                    "internalType": "uint256",
                    "name": "spentMultiplierTokens",
                    "type": "uint256"
                }
            ],
            "stateMutability": "view",
            "type": "function"
        },
        {
            "inputs": [],
            "name": "ygy",
            "outputs": [
                {
                    "internalType": "contract IERC20",
                    "name": "",
                    "type": "address"
                }
            ],
            "stateMutability": "view",
            "type": "function"
        }
    ],
    "bytecode": "60c06040523480156200001157600080fd5b50604051620058c0380380620058c0833981016040819052620000349162000180565b6001600160601b0319606082811b821660a05283901b1660805260f480546001600160a01b038981166001600160a01b03199283161790925560f2805489841690831617905560f3805488841690831617905560fb805487841690831617905560f6805492861692909116919091179055620000af620000ed565b50507f6c3699283bda56ad74f6b855546325b68d482e983852a7a82979cc4807b641f460fa55505067016345785d8a000060f9555062000282915050565b60dc5460f35460405163095ea7b360e01b81526001600160a01b039283169263095ea7b39262000127929116906000199060040162000253565b602060405180830381600087803b1580156200014257600080fd5b505af115801562000157573d6000803e3d6000fd5b505050506040513d601f19601f820116820180604052508101906200017d91906200022a565b50565b600080600080600080600060e0888a0312156200019b578283fd5b8751620001a8816200026c565b6020890151909750620001bb816200026c565b6040890151909650620001ce816200026c565b6060890151909550620001e1816200026c565b6080890151909450620001f4816200026c565b60a089015190935062000207816200026c565b60c08901519092506200021a816200026c565b8091505092959891949750929550565b6000602082840312156200023c578081fd5b815180151581146200024c578182fd5b9392505050565b6001600160a01b03929092168252602082015260400190565b6001600160a01b03811681146200017d57600080fd5b60805160601c60a05160601c615605620002bb6000398061223452806133ed525080611abd52806126b052806133be52506156056000f3fe6080604052600436106105025760003560e01c80638f33b5e511610297578063ca15c87311610165578063e7fa67e5116100cc578063f4ab1a9311610085578063f4ab1a9314610ed3578063f7db38cb14610ee8578063fa69669c14610efd578063faf5db8e14610f12578063fb70c3bf14610f27578063fff6cae914610f3c57610502565b8063e7fa67e514610e29578063e941c85614610e49578063eced552614610e69578063eded3fda14610e7e578063ee02ea1b14610e93578063f2fde38b14610eb357610502565b8063cfbd900f1161011e578063cfbd900f14610d8a578063d49d518114610d9f578063d547741f14610db4578063d6cf802114610dd4578063e0af361614610df4578063e671fab514610e0957610502565b8063ca15c87314610ce0578063cb5b332e14610d00578063cc40f66414610d20578063cde7bc7014610d40578063ce665dd814610d55578063cfb5192814610d6a57610502565b8063a5f8ace811610209578063b37217a4116101c2578063b37217a414610c41578063b81a0b4c14610c61578063b93b4bb714610c76578063bcb4908614610c96578063bf33a1f514610cb6578063c8ffb87314610ccb57610502565b8063a5f8ace814610b8e578063ab033ea914610bae578063ad1414b214610bce578063adf5e1b114610bee578063b082cc2614610c01578063b2f4b44a14610c2157610502565b806394985ddd1161025b57806394985ddd14610aef5780639649d76c14610b0f5780639a6d271114610b245780639d18f77314610b395780639e317f1214610b59578063a217fddf14610b7957610502565b80638f33b5e514610a58578063900cf0cf14610a6d5780639010d07c14610a8257806391d1485414610aa257806393f1a40b14610acf57610502565b80633cb0b92d116103d45780635f0c0f2b116103465780637575aa8a116102ff5780637575aa8a146109cf578063795d79f5146109e45780637d3b8da114610a045780638129fc1c14610a195780638b6ff57b14610a2e5780638da5cb5b14610a4357610502565b80635f0c0f2b14610925578063608c8d3a146109455780636798f19f1461095a5780636a9d1f6f1461097a5780636b42ee551461099a578063715018a6146109ba57610502565b806350b447121161039857806350b44712146108655780635498d4c014610897578063571c2b4d146108c657806358739fc8146108db5780635aa6e675146108fb5780635d577c181461091057610502565b80633cb0b92d146107d057806342619f66146107f05780634601723a14610805578063469fcdcb146108255780634dc47d341461084557610502565b806322d5b25c116104785780633023af2d116104315780633023af2d1461073157806330e588ac1461074657806331db122c1461076657806336568abe1461077b578063366443341461079b5780633b24bd4a146107bb57610502565b806322d5b25c14610685578063248a9ca3146106a757806329e015ba146106c75780632f2ff15d146106dc5780632f380b35146106fc5780632f4f8a7a1461071c57610502565b806310178d9c116104ca57806310178d9c146105a95780631069f3b5146105d757806313d4829b146106095780631526fe271461062957806317caf6f11461065b5780631dbf779e1461067057610502565b8063081e3eda1461052157806309e3de411461054c5780630a08f1d4146105615780630c57af6c146105815780630eb1f90814610594575b60e1546001600160a01b0316331461051f5761051f336000610f51565b005b34801561052d57600080fd5b50610536611230565b6040516105439190614e29565b60405180910390f35b34801561055857600080fd5b50610536611236565b34801561056d57600080fd5b5061053661057c366004614b8c565b61123c565b61051f61058f36600461491a565b610f51565b3480156105a057600080fd5b50610536611363565b3480156105b557600080fd5b506105c96105c4366004614ba4565b611369565b604051610543929190614d44565b3480156105e357600080fd5b506105f76105f2366004614ba4565b611437565b60405161054396959493929190615508565b34801561061557600080fd5b50610536610624366004614b8c565b6114c7565b34801561063557600080fd5b50610649610644366004614b8c565b611642565b60405161054396959493929190614e56565b34801561066757600080fd5b50610536611695565b34801561067c57600080fd5b5061053661169b565b34801561069157600080fd5b5061069a6116a1565b6040516105439190614d52565b3480156106b357600080fd5b506105366106c2366004614b8c565b6116b0565b3480156106d357600080fd5b5061069a6116c5565b3480156106e857600080fd5b5061051f6106f7366004614ba4565b6116d4565b34801561070857600080fd5b50610649610717366004614b8c565b61171c565b34801561072857600080fd5b5061069a6117bc565b34801561073d57600080fd5b5061069a6117cb565b34801561075257600080fd5b5061051f610761366004614b8c565b6117da565b34801561077257600080fd5b50610536611809565b34801561078757600080fd5b5061051f610796366004614ba4565b61180f565b3480156107a757600080fd5b5061051f6107b6366004614952565b611851565b3480156107c757600080fd5b5061069a611a91565b3480156107dc57600080fd5b506105366107eb366004614b8c565b611aa0565b3480156107fc57600080fd5b50610536611cb6565b34801561081157600080fd5b5061051f6108203660046148fe565b611cbc565b34801561083157600080fd5b50610536610840366004614b8c565b611d42565b34801561085157600080fd5b50610536610860366004614b8c565b611d54565b34801561087157600080fd5b50610885610880366004614b8c565b611d66565b60405161054396959493929190614deb565b3480156108a357600080fd5b506108b76108b2366004614bc8565b611da5565b60405161054393929190614eda565b3480156108d257600080fd5b5061069a611ecf565b3480156108e757600080fd5b506108b76108f6366004614ab6565b611ede565b34801561090757600080fd5b5061069a611fa6565b34801561091c57600080fd5b50610536611fb5565b34801561093157600080fd5b50610536610940366004614b8c565b611fbb565b34801561095157600080fd5b50610536611fcd565b34801561096657600080fd5b50610536610975366004614b8c565b611fd3565b34801561098657600080fd5b50610536610995366004614b8c565b611fe5565b3480156109a657600080fd5b506105366109b5366004614b8c565b611ff7565b3480156109c657600080fd5b5061051f612015565b3480156109db57600080fd5b50610536612094565b3480156109f057600080fd5b5061069a6109ff366004614b8c565b6120a6565b348015610a1057600080fd5b5061069a6120c1565b348015610a2557600080fd5b5061051f6120d0565b348015610a3a57600080fd5b50610536612188565b348015610a4f57600080fd5b5061069a61218e565b348015610a6457600080fd5b5061069a61219d565b348015610a7957600080fd5b506105366121ac565b348015610a8e57600080fd5b5061069a610a9d366004614bc8565b6121b2565b348015610aae57600080fd5b50610ac2610abd366004614ba4565b6121d1565b6040516105439190614e1e565b348015610adb57600080fd5b506105f7610aea366004614ba4565b6121e9565b348015610afb57600080fd5b5061051f610b0a366004614bc8565b612229565b348015610b1b57600080fd5b5061053661227b565b348015610b3057600080fd5b5061069a612281565b348015610b4557600080fd5b5061069a610b54366004614b8c565b612290565b348015610b6557600080fd5b50610536610b74366004614b8c565b6122ab565b348015610b8557600080fd5b506105366122bd565b348015610b9a57600080fd5b5061051f610ba93660046149ad565b6122c2565b348015610bba57600080fd5b5061051f610bc93660046148fe565b6123ad565b348015610bda57600080fd5b50610536610be93660046148fe565b61240d565b61051f610bfc366004614cd5565b61241f565b348015610c0d57600080fd5b5061051f610c1c3660046148fe565b6125ae565b348015610c2d57600080fd5b5061051f610c3c366004614ae1565b612605565b348015610c4d57600080fd5b50610536610c5c366004614b8c565b6126a9565b348015610c6d57600080fd5b5061069a612768565b348015610c8257600080fd5b50610536610c913660046148fe565b612777565b348015610ca257600080fd5b50610536610cb1366004614b8c565b6128e5565b348015610cc257600080fd5b5061051f6128f7565b348015610cd757600080fd5b50610536612981565b348015610cec57600080fd5b50610536610cfb366004614b8c565b612987565b348015610d0c57600080fd5b5061051f610d1b366004614b8c565b61299e565b348015610d2c57600080fd5b50610536610d3b3660046148fe565b6129d8565b348015610d4c57600080fd5b5061069a6129ea565b348015610d6157600080fd5b506105366129f9565b348015610d7657600080fd5b50610536610d85366004614be9565b6129fe565b348015610d9657600080fd5b50610536612a1c565b348015610dab57600080fd5b50610536612a22565b348015610dc057600080fd5b5061051f610dcf366004614ba4565b612a28565b348015610de057600080fd5b50610536610def366004614b8c565b612a62565b348015610e0057600080fd5b5061069a612a6f565b348015610e1557600080fd5b50610ac2610e24366004614c24565b612a7e565b348015610e3557600080fd5b5061051f610e44366004614b8c565b612ab2565b348015610e5557600080fd5b50610536610e64366004614b8c565b612aec565b348015610e7557600080fd5b50610536612af9565b348015610e8a57600080fd5b50610536612afe565b348015610e9f57600080fd5b5061069a610eae366004614be9565b612b04565b348015610ebf57600080fd5b5061051f610ece3660046148fe565b612b2f565b348015610edf57600080fd5b50610536612be6565b348015610ef457600080fd5b5061069a612c0a565b348015610f0957600080fd5b5061069a612c19565b348015610f1e57600080fd5b50610536612c28565b348015610f3357600080fd5b5061069a612c2e565b348015610f4857600080fd5b5061051f612c3d565b6001600160a01b038216610f805760405162461bcd60e51b8152600401610f7790614f90565b60405180910390fd5b3480610f9e5760405162461bcd60e51b8152600401610f77906153c1565b60e160009054906101000a90046001600160a01b03166001600160a01b031663d0e30db0346040518263ffffffff1660e01b81526004016000604051808303818588803b158015610fee57600080fd5b505af1158015611002573d6000803e3d6000fd5b5050505050600080611012612cbc565b915091506000611023848484612da8565b60e15460de5460405163a9059cbb60e01b81529293506001600160a01b039182169263a9059cbb9261105b9216908890600401614dab565b602060405180830381600087803b15801561107557600080fd5b505af1158015611089573d6000803e3d6000fd5b505050506040513d601f19601f820116820180604052508101906110ad9190614b42565b506001600160a01b038616600090815260e860205260409020546110d19085612e42565b6001600160a01b03808816600090815260e8602052604081209290925560e15460dd5483926111039281169116612e67565b60de5460dd549294509092506001600160a01b039081169163022c0d9f91808616911614611132576000611134565b845b60dd546001600160a01b03858116911614611150576000611152565b855b306040518463ffffffff1660e01b8152600401611171939291906154da565b600060405180830381600087803b15801561118b57600080fd5b505af115801561119f573d6000803e3d6000fd5b5050505060006111c560646111bf60f75487612eea90919063ffffffff16565b90612f24565b60f6546040519192506001600160a01b03169082156108fc029083906000818181858888f19350505050158015611200573d6000803e3d6000fd5b50600061120d8583612f66565b905061122461121d826002612f24565b8b8b612fa8565b50505050505050505050565b60cb5490565b60e25481565b600081815260ea60209081526040808320546001600160a01b031680845260eb8352818420805483518186028101860190945280845291936060939290869084015b828210156113535760008481526020908190206040805160038602909201805460026001821615610100026000190190911604601f81018590049094028301608090810190925260608301848152929390928492909184918401828280156113275780601f106112fc57610100808354040283529160200191611327565b820191906000526020600020905b81548152906001019060200180831161130a57829003601f168201915b50505050508152602001600182015481526020016002820154815250508152602001906001019061127e565b505091519450505050505b919050565b60f95481565b600080600060cb858154811061137b57fe5b6000918252602080832088845260ca825260408085206001600160a01b038a168652909252908320600381015481546007909402909201945092916113bf91612e42565b905060008084600301541115611400576113fd83600201546113f764e8d4a510006111bf886003015487612eea90919063ffffffff16565b90612f66565b90505b61142883600101546113f764e8d4a510006111bf886002015487612eea90919063ffffffff16565b955093505050505b9250929050565b600080600080600080611448614742565b5050506000958652505060ca602090815260408086206001600160a01b0395909516865293815293839020835160c08101855281548082526001830154968201879052600283015495820186905260038301546060830181905260048401546080840181905260059094015460a0909301839052909790945091925090565b60008060006114d46131eb565b909250905060006114f06114e9866002612f24565b8484612da8565b9050600060dc60009054906101000a90046001600160a01b03166001600160a01b03166318160ddd6040518163ffffffff1660e01b815260040160206040518083038186803b15801561154257600080fd5b505afa158015611556573d6000803e3d6000fd5b505050506040513d601f19601f8201168201806040525081019061157a9190614cbd565b60dd5460df5491925060009161159c916001600160a01b039081169116612e67565b5060df5490915060009081906001600160a01b038085169116146115cb576115c5896002612f24565b856115d7565b846115d78a6002612f24565b60df54919350915060009081906001600160a01b038681169116146115fd578888611600565b87895b9092509050611633826116138689612eea565b8161161a57fe5b0482611626868a612eea565b8161162d57fe5b046132c8565b9b9a5050505050505050505050565b60cb818154811061164f57fe5b60009182526020909120600790910201805460018201546002830154600384015460048501546006909501546001600160a01b0390941695509193909260ff9091169086565b60cc5481565b60cf5481565b60f2546001600160a01b031681565b60009081526098602052604090206002015490565b60f3546001600160a01b031681565b6000828152609860205260409020600201546116f290610abd6132de565b61170e5760405162461bcd60e51b8152600401610f7790614f41565b61171882826132e2565b5050565b60008060008060008061172d614778565b60cb888154811061173a57fe5b60009182526020918290206040805160c08101825260079390930290910180546001600160a01b031680845260018201549484018590526002820154928401839052600382015460608501819052600483015460ff1615156080860181905260069093015460a0909501859052909d949c50919a509098509650945092505050565b60dc546001600160a01b031681565b60f4546001600160a01b031681565b60f5546001600160a01b031633146118045760405162461bcd60e51b8152600401610f779061505f565b60f755565b60d25481565b6118176132de565b6001600160a01b0316816001600160a01b0316146118475760405162461bcd60e51b8152600401610f779061548b565b611718828261334b565b600054610100900460ff168061186a575061186a6133b4565b80611878575060005460ff16155b6118945760405162461bcd60e51b8152600401610f779061527c565b600054610100900460ff161580156118bf576000805460ff1961ff0019909116610100171660011790555b6118d96000805160206155b0833981519152610abd6132de565b6118e257600080fd5b60da80546001600160a01b038088166001600160a01b03199283161790925560db805487841690831617905560d9805486841690831617905560d88054928516929091169190911790554360d255674563918244f400007fa71a5dc6523a2d0bf383648e732f9cbd05fb5cd75a9c44758106b038b320de365567d02ab486cedc00007f943c16c606a37eaf2ffde50503ea170bf4838709828ded1135a1486c90b7e0ee556801a055690d9db800007f16856fcf46d514fe62f26b23afa013e951c313a821ce2c3eaba8a78d946060a855680340aad21b3b7000007f7f84c93ccfe82de4803f900144a81b2660ffe15f75cd8fd5ba5ab2f905ff42ad5560e460205260057fdf62c8dc917fd3c651e5232c700e1160905e997338278f1371952f5781e895be55600f7f87adbfc682285cec9ad1e1e9168e9bf2c5833818e4cb9ef89b559233bfabc42355601e7f8e1c1f70b89ef2dcddf7ea724e4c2ef6a974e38831f896afbb232c812b9e3dbe556004600052603c7f4a202038c7e80c94126ea79de6a52577be41f2ece47cafbfe3ab36c772e21e36558015611a8a576000805461ff00191690555b5050505050565b60de546001600160a01b031681565b60f9546040516323b872dd60e01b81526000916001600160a01b037f000000000000000000000000000000000000000000000000000000000000000016916323b872dd91611af49133913091600401614d66565b602060405180830381600087803b158015611b0e57600080fd5b505af1158015611b22573d6000803e3d6000fd5b505050506040513d601f19601f82011682018060405250810190611b469190614b42565b611b625760405162461bcd60e51b8152600401610f7790615346565b600760005260ea6020527f27765e1fde0cf41654cd7c2f079383a34d2c706fc27064c3c4c501300c13e24b546040516370a0823160e01b81526001600160a01b03909116906370a0823190611bbb903390600401614d52565b60206040518083038186803b158015611bd357600080fd5b505afa158015611be7573d6000803e3d6000fd5b505050506040513d601f19601f82011682018060405250810190611c0b9190614cbd565b611ca15760fb54600760005260ea6020527f27765e1fde0cf41654cd7c2f079383a34d2c706fc27064c3c4c501300c13e24b5460405163ee1fe2ad60e01b81526001600160a01b039283169263ee1fe2ad92611c6e929116903390600401614e8b565b600060405180830381600087803b158015611c8857600080fd5b505af1158015611c9c573d6000803e3d6000fd5b505050505b611cb060fa5460f954846133ba565b92915050565b60f85481565b611cc46132de565b6065546001600160a01b03908116911614611cf15760405162461bcd60e51b8152600401610f7790615247565b60f280546001600160a01b038381166001600160a01b03198316811790935560405191169182917f9e4368dbddb338dc373020f18730584d6e9aaacad2101be6bd6d0a21fe59ffbc90600090a35050565b60e36020526000908152604090205481565b60e56020526000908152604090205481565b60e7602052600090815260409020805460018201546002830154600384015460048501546005909501546001600160a01b039094169492939192909186565b600082815260ea60205260408120546060919081906001600160a01b0316611dcb6147b9565b6001600160a01b038216600090815260eb60205260409020805487908110611def57fe5b600091825260209182902060408051600393909302909101805460026001821615610100026000190190911604601f8101859004909402830160809081019092526060830184815292939092849290918491840182828015611e925780601f10611e6757610100808354040283529160200191611e92565b820191906000526020600020905b815481529060010190602001808311611e7557829003601f168201915b5050505050815260200160018201548152602001600282015481525050905080600001518160200151826040015194509450945050509250925092565b60f6546001600160a01b031681565b60eb6020528160005260406000208181548110611ef757fe5b60009182526020918290206003919091020180546040805160026001841615610100026000190190931692909204601f810185900485028301850190915280825291945092508391830182828015611f905780601f10611f6557610100808354040283529160200191611f90565b820191906000526020600020905b815481529060010190602001808311611f7357829003601f168201915b5050505050908060010154908060020154905083565b60f5546001600160a01b031681565b60d35481565b600090815260e5602052604090205490565b60d65481565b600090815260e4602052604090205490565b600090815260e3602052604090205490565b60ef818154811061200457fe5b600091825260209091200154905081565b61201d6132de565b6065546001600160a01b0390811691161461204a5760405162461bcd60e51b8152600401610f7790615247565b6065546040516000916001600160a01b0316907f8be0079c531659141344cd1fd0a4f28419497f9722a3daafe3b4186f6b6457e0908390a3606580546001600160a01b0319169055565b6000805160206155b083398151915281565b60ea602052600090815260409020546001600160a01b031681565b60d8546001600160a01b031681565b600054610100900460ff16806120e957506120e96133b4565b806120f7575060005460ff16155b6121135760405162461bcd60e51b8152600401610f779061527c565b600054610100900460ff1615801561213e576000805460ff1961ff0019909116610100171660011790555b61214b6000610abd6132de565b61215457600080fd5b6121736000805160206155b083398151915261216e6132de565b61170e565b8015612185576000805461ff00191690555b50565b60ce5481565b6065546001600160a01b031690565b60da546001600160a01b031681565b60d75481565b60008281526098602052604081206121ca90836134fd565b9392505050565b60008281526098602052604081206121ca9083613509565b60ca602090815260009283526040808420909152908252902080546001820154600283015460038401546004850154600590950154939492939192909186565b336001600160a01b037f000000000000000000000000000000000000000000000000000000000000000016146122715760405162461bcd60e51b8152600401610f77906152ca565b611718828261351e565b60d55481565b60d9546001600160a01b031681565b600090815260ea60205260409020546001600160a01b031690565b60976020526000908152604090205481565b600081565b6122dc6000805160206155b0833981519152610abd6132de565b6122e557600080fd5b60df80546001600160a01b03199081166001600160a01b038a81169190911790925560dd8054821689841617905560e18054821688841617905560dc8054821687841617905560de8054821686841617905560e0805490911691831691909117905560005b82518110156123a35782818151811061235f57fe5b602090810291909101810151600192909201600081815260ea909252604090912080546001600160a01b0319166001600160a01b039093169290921790915561234a565b5050505050505050565b60f454600160a01b900460ff16156123d75760405162461bcd60e51b8152600401610f7790615443565b60f4805460ff60a01b1916600160a01b17905560f580546001600160a01b039092166001600160a01b0319909216919091179055565b60e86020526000908152604090205481565b6000821161243f5760405162461bcd60e51b8152600401610f7790615028565b60dd546040516323b872dd60e01b81526001600160a01b03909116906323b872dd9061247390339030908790600401614d66565b602060405180830381600087803b15801561248d57600080fd5b505af11580156124a1573d6000803e3d6000fd5b505050506040513d601f19601f820116820180604052508101906124c59190614b42565b6124e15760405162461bcd60e51b8152600401610f77906151a1565b6000806124ec612cbc565b9150915060006124fd858385612da8565b9050600061251b60646111bf60f75489612eea90919063ffffffff16565b60f6546040519192506001600160a01b03169082156108fc029083906000818181858888f19350505050158015612556573d6000803e3d6000fd5b5033600090815260e860205260409020546125719083612e42565b33600090815260e8602052604081209190915561258e8783612f66565b90506125a561259e826002612f24565b3388612fa8565b50505050505050565b6125b66132de565b6065546001600160a01b039081169116146125e35760405162461bcd60e51b8152600401610f7790615247565b60f280546001600160a01b0319166001600160a01b0392909216919091179055565b61261f6000805160206155b0833981519152610abd6132de565b61262857600080fd5b60005b82518160ff16116126a457818160ff168151811061264557fe5b602002602001015160e360008360010160ff16815260200190815260200160002081905550828160ff168151811061267957fe5b60209081029190910181015160ff6001909301928316600090815260e490925260409091205561262b565b505050565b600060f9547f00000000000000000000000000000000000000000000000000000000000000006001600160a01b03166370a08231306040518263ffffffff1660e01b81526004016126fa9190614d52565b60206040518083038186803b15801561271257600080fd5b505afa158015612726573d6000803e3d6000fd5b505050506040513d601f19601f8201168201806040525081019061274a9190614cbd565b1015611ca15760405162461bcd60e51b8152600401610f77906151cf565b60e0546001600160a01b031681565b6001600160a01b038116600090815260e86020526040812054670de0b6b3a76400008110156127aa57600091505061135e565b670de0b6b3a764000081101580156127c95750674563918244f4000081105b156127d857600191505061135e565b674563918244f4000081101580156127f75750678ac7230489e8000081105b1561280657600291505061135e565b678ac7230489e80000811015801561282657506801158e460913d0000081105b1561283557600391505061135e565b6801158e460913d00000811015801561285657506801a055690d9db8000081105b1561286557600491505061135e565b6801a055690d9db800008110158015612886575068022b1c8c1227a0000081105b1561289557600591505061135e565b68022b1c8c1227a0000081101580156128b657506802b5e3af16b188000081105b156128c557600691505061135e565b6802b5e3af16b188000081106128df57600791505061135e565b50919050565b60e46020526000908152604090205481565b60dc5460f35460405163095ea7b360e01b81526001600160a01b039283169263095ea7b39261292f9291169060001990600401614dab565b602060405180830381600087803b15801561294957600080fd5b505af115801561295d573d6000803e3d6000fd5b505050506040513d601f19601f820116820180604052508101906121859190614b42565b60d45481565b6000818152609860205260408120611cb090613532565b6129a66132de565b6065546001600160a01b039081169116146129d35760405162461bcd60e51b8152600401610f7790615247565b60f955565b60e96020526000908152604090205481565b60fb546001600160a01b031681565b600181565b80516000908290612a1357506000905061135e565b50506020015190565b60e65481565b60001981565b600082815260986020526040902060020154612a4690610abd6132de565b6118475760405162461bcd60e51b8152600401610f7790615109565b60ed818154811061200457fe5b60e1546001600160a01b031681565b600080612a8a846129fe565b600090815260ec6020908152604082206001600160a01b039095169091529290925292915050565b612aba6132de565b6065546001600160a01b03908116911614612ae75760405162461bcd60e51b8152600401610f7790615247565b60fa55565b60f1818154811061200457fe5b606481565b60cd5481565b600080612b10836129fe565b600090815260ee60205260409020546001600160a01b03169392505050565b612b376132de565b6065546001600160a01b03908116911614612b645760405162461bcd60e51b8152600401610f7790615247565b6001600160a01b038116612b8a5760405162461bcd60e51b8152600401610f7790614fb9565b6065546040516001600160a01b038084169216907f8be0079c531659141344cd1fd0a4f28419497f9722a3daafe3b4186f6b6457e090600090a3606580546001600160a01b0319166001600160a01b0392909216919091179055565b7f028f5c28f5c28f5c28f5c28f5c28f5c28f5c28f5c28f5c28f5c28f5c28f5c28f81565b60dd546001600160a01b031681565b60df546001600160a01b031681565b60f75481565b60db546001600160a01b031681565b60f2546040805160016209351760e01b0319815281516001600160a01b039093169263fff6cae9926004808401939192918290030181600087803b158015612c8457600080fd5b505af1158015612c98573d6000803e3d6000fd5b505050506040513d601f19601f820116820180604052508101906117189190614b5e565b60e15460dd5460009182918291612cdf916001600160a01b039182169116612e67565b50905060008060de60009054906101000a90046001600160a01b03166001600160a01b0316630902f1ac6040518163ffffffff1660e01b815260040160606040518083038186803b158015612d3357600080fd5b505afa158015612d47573d6000803e3d6000fd5b505050506040513d601f19601f82011682018060405250810190612d6b9190614c69565b5060dd546001600160701b039283169450911691506001600160a01b03848116911614612d99578181612d9c565b80825b90969095509350505050565b6000808411612dc95760405162461bcd60e51b8152600401610f77906153f8565b600083118015612dd95750600082115b612df55760405162461bcd60e51b8152600401610f7790615159565b6000612e03856103e5612eea565b90506000612e118285612eea565b90506000612e2b83612e25886103e8612eea565b90612e42565b9050808281612e3657fe5b04979650505050505050565b6000828201838110156121ca5760405162461bcd60e51b8152600401610f779061508d565b600080826001600160a01b0316846001600160a01b03161415612e9c5760405162461bcd60e51b8152600401610f77906150c4565b826001600160a01b0316846001600160a01b031610612ebc578284612ebf565b83835b90925090506001600160a01b0382166114305760405162461bcd60e51b8152600401610f779061538a565b600082612ef957506000611cb0565b82820282848281612f0657fe5b04146121ca5760405162461bcd60e51b8152600401610f7790615206565b60006121ca83836040518060400160405280601a81526020017f536166654d6174683a206469766973696f6e206279207a65726f00000000000081525061353d565b60006121ca83836040518060400160405280601e81526020017f536166654d6174683a207375627472616374696f6e206f766572666c6f770000815250613574565b600080612fb36131eb565b915091506000612fc4868484612da8565b60dd5460dc5460405163a9059cbb60e01b81529293506001600160a01b039182169263a9059cbb92612ffc9216908a90600401614dab565b602060405180830381600087803b15801561301657600080fd5b505af115801561302a573d6000803e3d6000fd5b505050506040513d601f19601f8201168201806040525081019061304e9190614b42565b61306a5760405162461bcd60e51b8152600401610f7790614fff565b60dd5460df54600091829161308b916001600160a01b039081169116612e67565b60dc5460df549294509092506001600160a01b039081169163022c0d9f918086169116146130ba5760006130bc565b845b60df546001600160a01b038581169116146130d85760006130da565b855b306040518463ffffffff1660e01b81526004016130f9939291906154da565b600060405180830381600087803b15801561311357600080fd5b505af1158015613127573d6000803e3d6000fd5b50505050613137838989896135a0565b60e0546040516323b872dd60e01b81526001600160a01b03909116906323b872dd906131879073ead9c93b79ae7c1591b1fb5323bd777e86e150d4908b90670de0b6b3a764000090600401614d66565b602060405180830381600087803b1580156131a157600080fd5b505af11580156131b5573d6000803e3d6000fd5b505050506040513d601f19601f820116820180604052508101906131d99190614b42565b506131e387613a23565b6123a3612c3d565b60dd5460df546000918291829161320e916001600160a01b039182169116612e67565b50905060008060dc60009054906101000a90046001600160a01b03166001600160a01b0316630902f1ac6040518163ffffffff1660e01b815260040160606040518083038186803b15801561326257600080fd5b505afa158015613276573d6000803e3d6000fd5b505050506040513d601f19601f8201168201806040525081019061329a9190614c69565b5060df546001600160701b039283169450911691506001600160a01b03848116911614612d99578181612d9c565b60008183106132d757816121ca565b5090919050565b3390565b60008281526098602052604090206132fa9082613dad565b15611718576133076132de565b6001600160a01b0316816001600160a01b0316837f2f8788117e7eff1d82e926ec794901d17c78024a50270940304540a733656f0d60405160405180910390a45050565b60008281526098602052604090206133639082613dc2565b15611718576133706132de565b6001600160a01b0316816001600160a01b0316837ff6391f5c32d9c69d2a47ea670b442974b53935d1edc7fd64eb21e047a839171b60405160405180910390a45050565b303b1590565b60007f00000000000000000000000000000000000000000000000000000000000000006001600160a01b0316634000aea07f0000000000000000000000000000000000000000000000000000000000000000858786604051602001613420929190614d44565b6040516020818303038152906040526040518463ffffffff1660e01b815260040161344d93929190614dc4565b602060405180830381600087803b15801561346757600080fd5b505af115801561347b573d6000803e3d6000fd5b505050506040513d601f19601f8201168201806040525081019061349f9190614b42565b506000848152609760205260408120546134be90869085903090613dd7565b6000868152609760205260409020549091506134db906001612e42565b6000868152609760205260409020556134f48582613e11565b95945050505050565b60006121ca8383613e44565b60006121ca836001600160a01b038416613e89565b61352781613ea1565b60f855611718613ead565b6000611cb0826142f0565b6000818361355e5760405162461bcd60e51b8152600401610f779190614ea5565b50600083858161356a57fe5b0495945050505050565b600081848411156135985760405162461bcd60e51b8152600401610f779190614ea5565b505050900390565b6000806135ab6131eb565b9150915060006135bc8684846142f4565b90506000878211156135dd576135d38884866142f4565b90508791506135e0565b50855b60dd5460dc5460405163a9059cbb60e01b81526001600160a01b039283169263a9059cbb92613616929116908590600401614dab565b602060405180830381600087803b15801561363057600080fd5b505af1158015613644573d6000803e3d6000fd5b505050506040513d601f19601f820116820180604052508101906136689190614b42565b61366e57fe5b60df5460dc5460405163a9059cbb60e01b81526001600160a01b039283169263a9059cbb926136a4929116908690600401614dab565b602060405180830381600087803b1580156136be57600080fd5b505af11580156136d2573d6000803e3d6000fd5b505050506040513d601f19601f820116820180604052508101906136f69190614b42565b6136fc57fe5b841561386c5760dc546040516335313c2160e11b81526001600160a01b0390911690636a62784290613732903090600401614d52565b602060405180830381600087803b15801561374c57600080fd5b505af1158015613760573d6000803e3d6000fd5b505050506040513d601f19601f820116820180604052508101906137849190614cbd565b5060f35460dc546040516370a0823160e01b81526001600160a01b0392831692634cf5fbf5928a92600092909116906370a08231906137c7903090600401614d52565b60206040518083038186803b1580156137df57600080fd5b505afa1580156137f3573d6000803e3d6000fd5b505050506040513d601f19601f820116820180604052508101906138179190614cbd565b6040518463ffffffff1660e01b815260040161383593929190614d8a565b600060405180830381600087803b15801561384f57600080fd5b505af1158015613863573d6000803e3d6000fd5b505050506138f0565b60dc546040516335313c2160e11b81526001600160a01b0390911690636a6278429061389c908990600401614d52565b602060405180830381600087803b1580156138b657600080fd5b505af11580156138ca573d6000803e3d6000fd5b505050506040513d601f19601f820116820180604052508101906138ee9190614cbd565b505b818811156139855760df546001600160a01b031663a9059cbb876139148b86612f66565b6040518363ffffffff1660e01b8152600401613931929190614dab565b602060405180830381600087803b15801561394b57600080fd5b505af115801561395f573d6000803e3d6000fd5b505050506040513d601f19601f820116820180604052508101906139839190614b42565b505b808711156123a35760dd546001600160a01b031663a9059cbb876139a98a85612f66565b6040518363ffffffff1660e01b81526004016139c6929190614dab565b602060405180830381600087803b1580156139e057600080fd5b505af11580156139f4573d6000803e3d6000fd5b505050506040513d601f19601f82011682018060405250810190613a189190614b42565b505050505050505050565b6001600160a01b038116600090815260e9602052604081205490613a4683612777565b9050815b81811015613d7b57613a5a6147dd565b81613aa1576040518060c00160405280866001600160a01b031681526020016032815260200160008152602001600081526020016000815260200160008152509050613ceb565b8160011415613aec576040518060c00160405280866001600160a01b03168152602001604b815260200160328152602001600081526020016000815260200160008152509050613ceb565b8160021415613b37576040518060c00160405280866001600160a01b0316815260200160648152602001604b8152602001603281526020016000815260200160008152509050613ceb565b8160031415613b82576040518060c00160405280866001600160a01b031681526020016064815260200160648152602001604b81526020016032815260200160008152509050613ceb565b8160041415613bcd576040518060c00160405280866001600160a01b03168152602001606481526020016064815260200160648152602001604b815260200160328152509050613ceb565b8160051415613c18576040518060c00160405280866001600160a01b031681526020016064815260200160648152602001606481526020016064815260200160328152509050613ceb565b8160061415613ceb5760e6805460010190819055613c359061435c565b506040805160c080820183526001600160a01b038781168084526064602080860182815286880183815260608089018581526080808b0187815260a0808d0189815260e654600090815260e78a528f81209e518f546001600160a01b0319169d169c909c178e55965160018e0155945160028d0155915160038c0155905160048b015592516005909901989098558851968701895293865290850182905295840181905293830184905293820192909252918201525b80516001600160a01b031615613d725760e6805460010190819055613d0f9061435c565b60e654600090815260e76020908152604091829020835181546001600160a01b0319166001600160a01b03909116178155908301516001820155908201516002820155606082015160038201556080820151600482015560a08201516005909101555b50600101613a4a565b5060038110613d8d57613d8d8361439f565b6001600160a01b03909216600090815260e9602052604090209190915550565b60006121ca836001600160a01b0384166145d0565b60006121ca836001600160a01b03841661461a565b600084848484604051602001613df09493929190614e32565b60408051601f19818403018152919052805160209091012095945050505050565b60008282604051602001613e26929190614d44565b60405160208183030381529060405280519060200120905092915050565b81546000908210613e675760405162461bcd60e51b8152600401610f7790614eff565b826000018281548110613e7657fe5b9060005260206000200154905092915050565b60009081526001919091016020526040902054151590565b60649081028190040690565b60005b60e6548110156142e357613ec26147dd565b5060e654600090815260e76020908152604091829020825160c08101845281546001600160a01b03168152600182015492810183905260028201549381019390935260038101546060840152600481015460808401526005015460a083015260f85411613fbb5760fb54600160005260ea6020527f053da50fe9d496a6e8668563ebc4cf5273f4d4a6a52b64f2fe59354d93f4c2c954825160405163ee1fe2ad60e01b81526001600160a01b039384169363ee1fe2ad93613f8893911691600401614e8b565b600060405180830381600087803b158015613fa257600080fd5b505af1158015613fb6573d6000803e3d6000fd5b505050505b806040015160f8541161405a5760fb54600260005260ea6020527fe2d2ea495f01b98bf45d2aa4d6edae4f3e3d943f51175e3981d3c65131c9f23854825160405163ee1fe2ad60e01b81526001600160a01b039384169363ee1fe2ad9361402793911691600401614e8b565b600060405180830381600087803b15801561404157600080fd5b505af1158015614055573d6000803e3d6000fd5b505050505b806060015160f854116140f95760fb54600360005260ea6020527f8e6f9ae030a9981532d94788dc52ae515fab0d0222abca81cf0256b72dab2d2154825160405163ee1fe2ad60e01b81526001600160a01b039384169363ee1fe2ad936140c693911691600401614e8b565b600060405180830381600087803b1580156140e057600080fd5b505af11580156140f4573d6000803e3d6000fd5b505050505b806080015160f8541161419a5760fb546004600081905260ea6020527fc9e95ae0804bf2947b7a279ca35d47ce1222d8f01a6718e126720acbe1b8589b54835160405163ee1fe2ad60e01b81526001600160a01b039485169463ee1fe2ad9461416794909116929101614e8b565b600060405180830381600087803b15801561418157600080fd5b505af1158015614195573d6000803e3d6000fd5b505050505b6141d16040518060400160405280601181526020017053686f756c64206d696e7420686572653f60781b8152508260a001516146e0565b8060a0015160f854116142705760fb54600560005260ea6020527fb4902acf906eddadd06cf4e66a2bfffbd3325648b33c8719425b53102c808a4e54825160405163ee1fe2ad60e01b81526001600160a01b039384169363ee1fe2ad9361423d93911691600401614e8b565b600060405180830381600087803b15801561425757600080fd5b505af115801561426b573d6000803e3d6000fd5b505050505b80516001600160a01b03908116600090815260e86020908152604080832083905585835260e7825280832080546001600160a01b0319168155600180820185905560028201859055600382018590556004820185905560059091018490559451909316825260e990529081205501613eb0565b50600060f881905560e655565b5490565b60008084116143155760405162461bcd60e51b8152600401610f7790615301565b6000831180156143255750600082115b6143415760405162461bcd60e51b8152600401610f7790615159565b8261434c8584612eea565b8161435357fe5b04949350505050565b612185816040516024016143709190614e29565b60408051601f198184030181529190526020810180516001600160e01b031663f5b1bba960e01b179052614721565b600660005260ea6020527f275c55d99bf454e113e018fcd228ac0e07e0e8ac6067d144118be177b3ba34c75460e0546040516370a0823160e01b81526001600160a01b03928316926801158e460913d000009216906370a0823190614408908690600401614d52565b60206040518083038186803b15801561442057600080fd5b505afa158015614434573d6000803e3d6000fd5b505050506040513d601f19601f820116820180604052508101906144589190614cbd565b101580156144e7575060fb54604051633de222bb60e21b81526001600160a01b039091169063f7888aec906144939084908690600401614e8b565b602060405180830381600087803b1580156144ad57600080fd5b505af11580156144c1573d6000803e3d6000fd5b505050506040513d601f19601f820116820180604052508101906144e59190614cbd565b155b801561456357506032816001600160a01b03166318160ddd6040518163ffffffff1660e01b815260040160206040518083038186803b15801561452957600080fd5b505afa15801561453d573d6000803e3d6000fd5b505050506040513d601f19601f820116820180604052508101906145619190614cbd565b105b156117185760fb5460405163ee1fe2ad60e01b81526001600160a01b039091169063ee1fe2ad9061459a9084908690600401614e8b565b600060405180830381600087803b1580156145b457600080fd5b505af11580156145c8573d6000803e3d6000fd5b505050505050565b60006145dc8383613e89565b61461257508154600181810184556000848152602080822090930184905584548482528286019093526040902091909155611cb0565b506000611cb0565b600081815260018301602052604081205480156146d6578354600019808301919081019060009087908390811061464d57fe5b906000526020600020015490508087600001848154811061466a57fe5b60009182526020808320909101929092558281526001898101909252604090209084019055865487908061469a57fe5b60019003818190600052602060002001600090559055866001016000878152602001908152602001600020600090556001945050505050611cb0565b6000915050611cb0565b61171882826040516024016146f6929190614eb8565b60408051601f198184030181529190526020810180516001600160e01b03166309710a9d60e41b1790525b80516a636f6e736f6c652e6c6f67602083016000808483855afa5050505050565b6040518060c001604052806000815260200160008152602001600081526020016000815260200160008152602001600081525090565b6040518060c0016040528060006001600160a01b03168152602001600081526020016000815260200160008152602001600015158152602001600081525090565b60405180606001604052806060815260200160008152602001600080191681525090565b6040518060c0016040528060006001600160a01b0316815260200160008152602001600081526020016000815260200160008152602001600081525090565b8035611cb081615577565b600082601f830112614837578081fd5b813561484a61484582615557565b615530565b81815291506020808301908481018184028601820187101561486b57600080fd5b60005b8481101561488a5781358452928201929082019060010161486e565b505050505092915050565b600082601f8301126148a5578081fd5b813567ffffffffffffffff8111156148bb578182fd5b6148ce601f8201601f1916602001615530565b91508082528360208285010111156148e557600080fd5b8060208401602084013760009082016020015292915050565b60006020828403121561490f578081fd5b81356121ca81615577565b6000806040838503121561492c578081fd5b823561493781615577565b915060208301356149478161558c565b809150509250929050565b60008060008060808587031215614967578182fd5b843561497281615577565b9350602085013561498281615577565b9250604085013561499281615577565b915060608501356149a281615577565b939692955090935050565b600080600080600080600060e0888a0312156149c7578283fd5b87356149d281615577565b96506020888101356149e381615577565b965060408901356149f381615577565b95506060890135614a0381615577565b94506080890135614a1381615577565b935060a089013567ffffffffffffffff811115614a2e578384fd5b8901601f81018b13614a3e578384fd5b8035614a4c61484582615557565b81815283810190838501858402850186018f1015614a68578788fd5b8794505b83851015614a9257614a7e8f8261481c565b835260019490940193918501918501614a6c565b508096505050505050614aa88960c08a0161481c565b905092959891949750929550565b60008060408385031215614ac8578182fd5b8235614ad381615577565b946020939093013593505050565b60008060408385031215614af3578182fd5b823567ffffffffffffffff80821115614b0a578384fd5b614b1686838701614827565b93506020850135915080821115614b2b578283fd5b50614b3885828601614827565b9150509250929050565b600060208284031215614b53578081fd5b81516121ca8161558c565b60008060408385031215614b70578182fd5b8251614b7b8161558c565b60208401519092506149478161558c565b600060208284031215614b9d578081fd5b5035919050565b60008060408385031215614bb6578182fd5b82359150602083013561494781615577565b60008060408385031215614bda578182fd5b50508035926020909101359150565b600060208284031215614bfa578081fd5b813567ffffffffffffffff811115614c10578182fd5b614c1c84828501614895565b949350505050565b60008060408385031215614c36578182fd5b823567ffffffffffffffff811115614c4c578283fd5b614c5885828601614895565b925050602083013561494781615577565b600080600060608486031215614c7d578081fd5b8351614c888161559a565b6020850151909350614c998161559a565b604085015190925063ffffffff81168114614cb2578182fd5b809150509250925092565b600060208284031215614cce578081fd5b5051919050565b60008060408385031215614ce7578182fd5b8235915060208301356149478161558c565b60008151808452815b81811015614d1e57602081850181015186830182015201614d02565b81811115614d2f5782602083870101525b50601f01601f19169290920160200192915050565b918252602082015260400190565b6001600160a01b0391909116815260200190565b6001600160a01b039384168152919092166020820152604081019190915260600190565b6001600160a01b039390931683526020830191909152604082015260600190565b6001600160a01b03929092168252602082015260400190565b600060018060a01b0385168252836020830152606060408301526134f46060830184614cf9565b6001600160a01b03969096168652602086019490945260408501929092526060840152608083015260a082015260c00190565b901515815260200190565b90815260200190565b93845260208401929092526001600160a01b03166040830152606082015260800190565b6001600160a01b039690961686526020860194909452604085019290925260608401521515608083015260a082015260c00190565b6001600160a01b0392831681529116602082015260400190565b6000602082526121ca6020830184614cf9565b600060408252614ecb6040830185614cf9565b90508260208301529392505050565b600060608252614eed6060830186614cf9565b60208301949094525060400152919050565b60208082526022908201527f456e756d657261626c655365743a20696e646578206f7574206f6620626f756e604082015261647360f01b606082015260800190565b6020808252602f908201527f416363657373436f6e74726f6c3a2073656e646572206d75737420626520616e60408201526e0818591b5a5b881d1bc819dc985b9d608a1b606082015260800190565b6020808252600f908201526e496e76616c6964206164647265737360881b604082015260600190565b60208082526026908201527f4f776e61626c653a206e6577206f776e657220697320746865207a65726f206160408201526564647265737360d01b606082015260800190565b6020808252600f908201526e151c985b9cd9995c8819985a5b1959608a1b604082015260600190565b60208082526019908201527f496e73756666696369656e7420746f6b656e20616d6f756e7400000000000000604082015260600190565b6020808252601490820152734c6f636b656420746f20676f7665726e616e636560601b604082015260600190565b6020808252601b908201527f536166654d6174683a206164646974696f6e206f766572666c6f770000000000604082015260600190565b60208082526025908201527f556e697377617056324c6962726172793a204944454e544943414c5f41444452604082015264455353455360d81b606082015260800190565b60208082526030908201527f416363657373436f6e74726f6c3a2073656e646572206d75737420626520616e60408201526f2061646d696e20746f207265766f6b6560801b606082015260800190565b60208082526028908201527f556e697377617056324c6962726172793a20494e53554646494349454e545f4c604082015267495155494449545960c01b606082015260800190565b602080825260149082015273105c1c1c9bdd99481d1bdad95b9cc8199a5c9cdd60621b604082015260600190565b6020808252601b908201527f4e6f7420656e6f756768204c494e4b206f6e20636f6e74726163740000000000604082015260600190565b60208082526021908201527f536166654d6174683a206d756c7469706c69636174696f6e206f766572666c6f6040820152607760f81b606082015260800190565b6020808252818101527f4f776e61626c653a2063616c6c6572206973206e6f7420746865206f776e6572604082015260600190565b6020808252602e908201527f436f6e747261637420696e7374616e63652068617320616c726561647920626560408201526d195b881a5b9a5d1a585b1a5e995960921b606082015260800190565b6020808252601f908201527f4f6e6c7920565246436f6f7264696e61746f722063616e2066756c66696c6c00604082015260600190565b60208082526025908201527f556e697377617056324c6962726172793a20494e53554646494349454e545f416040820152641353d5539560da1b606082015260800190565b60208082526024908201527f4e6f7420656e6f756768204c494e4b20617070726f76656420746f20636f6e746040820152631c9858dd60e21b606082015260800190565b6020808252601e908201527f556e697377617056324c6962726172793a205a45524f5f414444524553530000604082015260600190565b60208082526017908201527f496e73756666696369656e742045544820616d6f756e74000000000000000000604082015260600190565b6020808252602b908201527f556e697377617056324c6962726172793a20494e53554646494349454e545f4960408201526a1394155517d05353d5539560aa1b606082015260800190565b60208082526028908201527f476f7665726e616e636520636f6e74726163742068617320616c7265616479206040820152671899595b881cd95d60c21b606082015260800190565b6020808252602f908201527f416363657373436f6e74726f6c3a2063616e206f6e6c792072656e6f756e636560408201526e103937b632b9903337b91039b2b63360891b606082015260800190565b92835260208301919091526001600160a01b0316604082015260806060820181905260009082015260a00190565b958652602086019490945260408501929092526060840152608083015260a082015260c00190565b60405181810167ffffffffffffffff8111828210171561554f57600080fd5b604052919050565b600067ffffffffffffffff82111561556d578081fd5b5060209081020190565b6001600160a01b038116811461218557600080fd5b801515811461218557600080fd5b6001600160701b038116811461218557600080fdfe62ca43aa15f7f495faa685ce5a258aa390fdc8d7094251dd23d32353f496ddfea26469706673582212207a4a8b2e3dd289bf93a12bc9e766513b8d79ad3bff0f5718ab5514016322d84364736f6c634300060c0033",
    "sourcePath": "/Users/225153/Projects/proxy-test/contracts/RAMV1router.sol",
    "compiler": {
        "name": "solc",
        "version": "0.6.12+commit.27d51765"
    },
    "functionHashes": {
        "DEFAULT_ADMIN_ROLE()": "a217fddf",
        "MAX()": "d49d5181",
        "MODIFIER_ROLE()": "7575aa8a",
        "OFFSET()": "ce665dd8",
        "RAMVaultStartBlock()": "31db122c",
        "SCALE()": "eced5526",
        "SCALIFIER()": "f4ab1a93",
        "YGYReserve()": "1dbf779e",
        "_NFTFactory()": "cde7bc70",
        "_NFTs(uint256)": "795d79f5",
        "_RAMToken()": "fa69669c",
        "_RAMVault()": "29e015ba",
        "_WETH()": "e0af3616",
        "_YGYRAMPair()": "2f4f8a7a",
        "_YGYToken()": "f7db38cb",
        "_YGYWETHPair()": "3b24bd4a",
        "_dXIOTToken()": "b81a0b4c",
        "_feeApprover()": "22d5b25c",
        "_uniV2Factory()": "3023af2d",
        "addLiquidityETHOnly(address,bool)": "0c57af6c",
        "addLiquidityYGYOnly(uint256,bool)": "adf5e1b1",
        "addressStorageCount(uint256)": "6b42ee55",
        "booleanMapStorageCount(uint256)": "d6cf8021",
        "boostFees()": "09e3de41",
        "boostLevelCosts(uint256)": "469fcdcb",
        "boostLevelMultipliers(uint256)": "bcb49086",
        "changeFeeApprover(address)": "4601723a",
        "checkRewards(uint256,address)": "10178d9c",
        "cumulativeRewardsSinceStart()": "c8ffb873",
        "cumulativeYGYRewardsSinceStart()": "9649d76c",
        "epoch()": "900cf0cf",
        "epochCalculationStartBlock()": "5d577c18",
        "epochRewards(uint256)": "4dc47d34",
        "getAddressStorage(string)": "ee02ea1b",
        "getBooleanMapValue(string,address)": "e671fab5",
        "getBoostLevelCost(uint256)": "6a9d1f6f",
        "getBoostLevelMultiplier(uint256)": "6798f19f",
        "getEpochRewards(uint256)": "5f0c0f2b",
        "getLPTokenPerYGYUnit(uint256)": "13d4829b",
        "getNFTAddress(uint256)": "9d18f773",
        "getNFTProperty(uint256,uint256)": "5498d4c0",
        "getNFTPropertyCount(uint256)": "0a08f1d4",
        "getPoolInfo(uint256)": "2f380b35",
        "getRandomNumber(uint256)": "b37217a4",
        "getRoleAdmin(bytes32)": "248a9ca3",
        "getRoleMember(bytes32,uint256)": "9010d07c",
        "getRoleMemberCount(bytes32)": "ca15c873",
        "getUserInfo(uint256,address)": "1069f3b5",
        "getUserLotteryLevel(address)": "b93b4bb7",
        "governance()": "5aa6e675",
        "grantRole(bytes32,address)": "2f2ff15d",
        "hasRole(bytes32,address)": "91d14854",
        "initialize()": "8129fc1c",
        "initializeRAMVault(address,address,address,address)": "36644334",
        "lastTicketLevel(address)": "cc40f664",
        "liquidityContributedEthValue(address)": "ad1414b2",
        "nftPropertyChoices(address,uint256)": "58739fc8",
        "nonces(bytes32)": "9e317f12",
        "owner()": "8da5cb5b",
        "pendingRewards()": "eded3fda",
        "pendingYGYRewards()": "8b6ff57b",
        "poolInfo(uint256)": "1526fe27",
        "poolLength()": "081e3eda",
        "ram()": "8f33b5e5",
        "randomResult()": "42619f66",
        "rawFulfillRandomness(bytes32,uint256)": "94985ddd",
        "refreshApproval()": "bf33a1f5",
        "regenerator()": "571c2b4d",
        "regeneratorTax()": "faf5db8e",
        "regeneratoraddr()": "7d3b8da1",
        "renounceOwnership()": "715018a6",
        "renounceRole(bytes32,address)": "36568abe",
        "revokeRole(bytes32,address)": "d547741f",
        "rewardsInThisEpoch()": "608c8d3a",
        "rngLinkFee()": "0eb1f908",
        "selfRequestRandomNumber(uint256)": "3cb0b92d",
        "setFeeApprover(address)": "b082cc26",
        "setGovernance(address)": "ab033ea9",
        "setRegeneratorTax(uint256)": "30e588ac",
        "setTokens(address,address,address,address,address,address[],address)": "a5f8ace8",
        "stringToBytes32(string)": "cfb51928",
        "sync()": "fff6cae9",
        "teamaddr()": "9a6d2711",
        "ticketCount()": "cfbd900f",
        "tickets(uint256)": "50b44712",
        "totalAllocPoint()": "17caf6f1",
        "transferOwnership(address)": "f2fde38b",
        "uintStorageCount(uint256)": "e941c856",
        "updateBoosts(uint256[],uint256[])": "b2f4b44a",
        "updateKeyHash(bytes32)": "e7fa67e5",
        "updateRngLinkFee(uint256)": "cb5b332e",
        "userInfo(uint256,address)": "93f1a40b",
        "ygy()": "fb70c3bf"
    },
    "gasEstimates": {
        "creation": {
            "codeDepositCost": "4404200",
            "executionCost": "infinite",
            "totalCost": "infinite"
        },
        "external": {
            "": "infinite",
            "DEFAULT_ADMIN_ROLE()": "406",
            "MAX()": "320",
            "MODIFIER_ROLE()": "infinite",
            "OFFSET()": "384",
            "RAMVaultStartBlock()": "1140",
            "SCALE()": "339",
            "SCALIFIER()": "294",
            "YGYReserve()": "1207",
            "_NFTFactory()": "1204",
            "_NFTs(uint256)": "1302",
            "_RAMToken()": "1180",
            "_RAMVault()": "1183",
            "_WETH()": "1225",
            "_YGYRAMPair()": "1249",
            "_YGYToken()": "1158",
            "_YGYWETHPair()": "1248",
            "_dXIOTToken()": "1159",
            "_feeApprover()": "1139",
            "_uniV2Factory()": "1138",
            "addLiquidityETHOnly(address,bool)": "infinite",
            "addLiquidityYGYOnly(uint256,bool)": "infinite",
            "addressStorageCount(uint256)": "2152",
            "booleanMapStorageCount(uint256)": "2129",
            "boostFees()": "1120",
            "boostLevelCosts(uint256)": "1306",
            "boostLevelMultipliers(uint256)": "1304",
            "changeFeeApprover(address)": "23691",
            "checkRewards(uint256,address)": "infinite",
            "cumulativeRewardsSinceStart()": "1205",
            "cumulativeYGYRewardsSinceStart()": "1118",
            "epoch()": "1119",
            "epochCalculationStartBlock()": "1206",
            "epochRewards(uint256)": "1328",
            "getAddressStorage(string)": "infinite",
            "getBooleanMapValue(string,address)": "infinite",
            "getBoostLevelCost(uint256)": "1305",
            "getBoostLevelMultiplier(uint256)": "1283",
            "getEpochRewards(uint256)": "1239",
            "getLPTokenPerYGYUnit(uint256)": "infinite",
            "getNFTAddress(uint256)": "1347",
            "getNFTProperty(uint256,uint256)": "infinite",
            "getNFTPropertyCount(uint256)": "infinite",
            "getPoolInfo(uint256)": "6780",
            "getRandomNumber(uint256)": "infinite",
            "getRoleAdmin(bytes32)": "1268",
            "getRoleMember(bytes32,uint256)": "infinite",
            "getRoleMemberCount(bytes32)": "infinite",
            "getUserInfo(uint256,address)": "5975",
            "getUserLotteryLevel(address)": "1813",
            "governance()": "1226",
            "grantRole(bytes32,address)": "infinite",
            "hasRole(bytes32,address)": "infinite",
            "initialize()": "infinite",
            "initializeRAMVault(address,address,address,address)": "infinite",
            "lastTicketLevel(address)": "1358",
            "liquidityContributedEthValue(address)": "1358",
            "nftPropertyChoices(address,uint256)": "infinite",
            "nonces(bytes32)": "1327",
            "owner()": "1247",
            "pendingRewards()": "1161",
            "pendingYGYRewards()": "1183",
            "poolInfo(uint256)": "6385",
            "poolLength()": "1098",
            "ram()": "1139",
            "randomResult()": "1119",
            "rawFulfillRandomness(bytes32,uint256)": "infinite",
            "refreshApproval()": "infinite",
            "regenerator()": "1182",
            "regeneratorTax()": "1160",
            "regeneratoraddr()": "1181",
            "renounceOwnership()": "24379",
            "renounceRole(bytes32,address)": "infinite",
            "revokeRole(bytes32,address)": "infinite",
            "rewardsInThisEpoch()": "1118",
            "rngLinkFee()": "1186",
            "selfRequestRandomNumber(uint256)": "infinite",
            "setFeeApprover(address)": "22200",
            "setGovernance(address)": "42937",
            "setRegeneratorTax(uint256)": "21154",
            "setTokens(address,address,address,address,address,address[],address)": "infinite",
            "stringToBytes32(string)": "infinite",
            "sync()": "infinite",
            "teamaddr()": "1182",
            "ticketCount()": "1095",
            "tickets(uint256)": "5467",
            "totalAllocPoint()": "1185",
            "transferOwnership(address)": "24610",
            "uintStorageCount(uint256)": "2085",
            "updateBoosts(uint256[],uint256[])": "infinite",
            "updateKeyHash(bytes32)": "21170",
            "updateRngLinkFee(uint256)": "21193",
            "userInfo(uint256,address)": "5689",
            "ygy()": "1224"
        },
        "internal": {
            "_addLiquidity(uint256,uint256,address payable,bool)": "infinite",
            "_swapYGYForRAMAndAddLiquidity(uint256,address payable,bool)": "infinite",
            "applyRandomNumberToLottery()": "infinite",
            "fulfillRandomness(bytes32,uint256)": "infinite",
            "generateLotteryTickets(address)": "infinite",
            "getYGYRAMPairReserves()": "infinite",
            "getYGYWETHPairReserves()": "infinite",
            "mintRobotNFT(address)": "infinite",
            "rand(uint256)": "42"
        }
    }
}