{
    "contractName": "RAMVault",
    "abi": [
        {
            "anonymous": false,
            "inputs": [
                {
                    "indexed": true,
                    "internalType": "address",
                    "name": "owner",
                    "type": "address"
                },
                {
                    "indexed": true,
                    "internalType": "address",
                    "name": "spender",
                    "type": "address"
                },
                {
                    "indexed": false,
                    "internalType": "uint256",
                    "name": "_pid",
                    "type": "uint256"
                },
                {
                    "indexed": false,
                    "internalType": "uint256",
                    "name": "value",
                    "type": "uint256"
                }
            ],
            "name": "Approval",
            "type": "event"
        },
        {
            "anonymous": false,
            "inputs": [
                {
                    "indexed": true,
                    "internalType": "address",
                    "name": "user",
                    "type": "address"
                },
                {
                    "indexed": true,
                    "internalType": "uint256",
                    "name": "pid",
                    "type": "uint256"
                },
                {
                    "indexed": true,
                    "internalType": "uint256",
                    "name": "level",
                    "type": "uint256"
                }
            ],
            "name": "Boost",
            "type": "event"
        },
        {
            "anonymous": false,
            "inputs": [
                {
                    "indexed": true,
                    "internalType": "address",
                    "name": "user",
                    "type": "address"
                },
                {
                    "indexed": true,
                    "internalType": "uint256",
                    "name": "pid",
                    "type": "uint256"
                },
                {
                    "indexed": false,
                    "internalType": "uint256",
                    "name": "amount",
                    "type": "uint256"
                }
            ],
            "name": "Deposit",
            "type": "event"
        },
        {
            "anonymous": false,
            "inputs": [
                {
                    "indexed": true,
                    "internalType": "address",
                    "name": "user",
                    "type": "address"
                },
                {
                    "indexed": true,
                    "internalType": "uint256",
                    "name": "pid",
                    "type": "uint256"
                },
                {
                    "indexed": false,
                    "internalType": "uint256",
                    "name": "amount",
                    "type": "uint256"
                }
            ],
            "name": "EmergencyWithdraw",
            "type": "event"
        },
        {
            "anonymous": false,
            "inputs": [
                {
                    "indexed": true,
                    "internalType": "address",
                    "name": "previousOwner",
                    "type": "address"
                },
                {
                    "indexed": true,
                    "internalType": "address",
                    "name": "newOwner",
                    "type": "address"
                }
            ],
            "name": "OwnershipTransferred",
            "type": "event"
        },
        {
            "anonymous": false,
            "inputs": [
                {
                    "indexed": false,
                    "internalType": "uint256",
                    "name": "pid",
                    "type": "uint256"
                },
                {
                    "indexed": false,
                    "internalType": "address",
                    "name": "to",
                    "type": "address"
                }
            ],
            "name": "RewardPaid",
            "type": "event"
        },
        {
            "anonymous": false,
            "inputs": [
                {
                    "indexed": true,
                    "internalType": "bytes32",
                    "name": "role",
                    "type": "bytes32"
                },
                {
                    "indexed": true,
                    "internalType": "address",
                    "name": "account",
                    "type": "address"
                },
                {
                    "indexed": true,
                    "internalType": "address",
                    "name": "sender",
                    "type": "address"
                }
            ],
            "name": "RoleGranted",
            "type": "event"
        },
        {
            "anonymous": false,
            "inputs": [
                {
                    "indexed": true,
                    "internalType": "bytes32",
                    "name": "role",
                    "type": "bytes32"
                },
                {
                    "indexed": true,
                    "internalType": "address",
                    "name": "account",
                    "type": "address"
                },
                {
                    "indexed": true,
                    "internalType": "address",
                    "name": "sender",
                    "type": "address"
                }
            ],
            "name": "RoleRevoked",
            "type": "event"
        },
        {
            "anonymous": false,
            "inputs": [
                {
                    "indexed": false,
                    "internalType": "address",
                    "name": "previousOwner",
                    "type": "address"
                },
                {
                    "indexed": false,
                    "internalType": "address",
                    "name": "newOwner",
                    "type": "address"
                }
            ],
            "name": "SuperAdminTransfered",
            "type": "event"
        },
        {
            "anonymous": false,
            "inputs": [
                {
                    "indexed": true,
                    "internalType": "address",
                    "name": "user",
                    "type": "address"
                },
                {
                    "indexed": true,
                    "internalType": "uint256",
                    "name": "pid",
                    "type": "uint256"
                },
                {
                    "indexed": false,
                    "internalType": "uint256",
                    "name": "amount",
                    "type": "uint256"
                }
            ],
            "name": "Withdraw",
            "type": "event"
        },
        {
            "inputs": [],
            "name": "DEFAULT_ADMIN_ROLE",
            "outputs": [
                {
                    "internalType": "bytes32",
                    "name": "",
                    "type": "bytes32"
                }
            ],
            "stateMutability": "view",
            "type": "function"
        },
        {
            "inputs": [],
            "name": "MODIFIER_ROLE",
            "outputs": [
                {
                    "internalType": "bytes32",
                    "name": "",
                    "type": "bytes32"
                }
            ],
            "stateMutability": "view",
            "type": "function"
        },
        {
            "inputs": [],
            "name": "RAMVaultStartBlock",
            "outputs": [
                {
                    "internalType": "uint256",
                    "name": "",
                    "type": "uint256"
                }
            ],
            "stateMutability": "view",
            "type": "function"
        },
        {
            "inputs": [],
            "name": "YGYReserve",
            "outputs": [
                {
                    "internalType": "uint256",
                    "name": "",
                    "type": "uint256"
                }
            ],
            "stateMutability": "view",
            "type": "function"
        },
        {
            "inputs": [
                {
                    "internalType": "uint256",
                    "name": "",
                    "type": "uint256"
                }
            ],
            "name": "_NFTs",
            "outputs": [
                {
                    "internalType": "address",
                    "name": "",
                    "type": "address"
                }
            ],
            "stateMutability": "view",
            "type": "function"
        },
        {
            "inputs": [],
            "name": "_RAMToken",
            "outputs": [
                {
                    "internalType": "address",
                    "name": "",
                    "type": "address"
                }
            ],
            "stateMutability": "view",
            "type": "function"
        },
        {
            "inputs": [],
            "name": "_WETH",
            "outputs": [
                {
                    "internalType": "contract IWETH",
                    "name": "",
                    "type": "address"
                }
            ],
            "stateMutability": "view",
            "type": "function"
        },
        {
            "inputs": [],
            "name": "_YGYRAMPair",
            "outputs": [
                {
                    "internalType": "address",
                    "name": "",
                    "type": "address"
                }
            ],
            "stateMutability": "view",
            "type": "function"
        },
        {
            "inputs": [],
            "name": "_YGYToken",
            "outputs": [
                {
                    "internalType": "address",
                    "name": "",
                    "type": "address"
                }
            ],
            "stateMutability": "view",
            "type": "function"
        },
        {
            "inputs": [],
            "name": "_YGYWETHPair",
            "outputs": [
                {
                    "internalType": "address",
                    "name": "",
                    "type": "address"
                }
            ],
            "stateMutability": "view",
            "type": "function"
        },
        {
            "inputs": [],
            "name": "_dXIOTToken",
            "outputs": [
                {
                    "internalType": "contract IERC20",
                    "name": "",
                    "type": "address"
                }
            ],
            "stateMutability": "view",
            "type": "function"
        },
        {
            "inputs": [
                {
                    "internalType": "uint256",
                    "name": "_allocPoint",
                    "type": "uint256"
                },
                {
                    "internalType": "contract IERC20",
                    "name": "_token",
                    "type": "address"
                },
                {
                    "internalType": "bool",
                    "name": "_withdrawable",
                    "type": "bool"
                }
            ],
            "name": "add",
            "outputs": [],
            "stateMutability": "nonpayable",
            "type": "function"
        },
        {
            "inputs": [
                {
                    "internalType": "uint256",
                    "name": "_amount",
                    "type": "uint256"
                }
            ],
            "name": "addPendingRewards",
            "outputs": [],
            "stateMutability": "nonpayable",
            "type": "function"
        },
        {
            "inputs": [
                {
                    "internalType": "uint256",
                    "name": "_amount",
                    "type": "uint256"
                }
            ],
            "name": "addRAMRewardsOwner",
            "outputs": [],
            "stateMutability": "nonpayable",
            "type": "function"
        },
        {
            "inputs": [
                {
                    "internalType": "uint256",
                    "name": "_amount",
                    "type": "uint256"
                }
            ],
            "name": "addYGYRewardsOwner",
            "outputs": [],
            "stateMutability": "nonpayable",
            "type": "function"
        },
        {
            "inputs": [
                {
                    "internalType": "uint256",
                    "name": "",
                    "type": "uint256"
                }
            ],
            "name": "addressStorageCount",
            "outputs": [
                {
                    "internalType": "uint256",
                    "name": "",
                    "type": "uint256"
                }
            ],
            "stateMutability": "view",
            "type": "function"
        },
        {
            "inputs": [
                {
                    "internalType": "uint256",
                    "name": "",
                    "type": "uint256"
                }
            ],
            "name": "booleanMapStorageCount",
            "outputs": [
                {
                    "internalType": "uint256",
                    "name": "",
                    "type": "uint256"
                }
            ],
            "stateMutability": "view",
            "type": "function"
        },
        {
            "inputs": [],
            "name": "boostFees",
            "outputs": [
                {
                    "internalType": "uint256",
                    "name": "",
                    "type": "uint256"
                }
            ],
            "stateMutability": "view",
            "type": "function"
        },
        {
            "inputs": [
                {
                    "internalType": "uint256",
                    "name": "",
                    "type": "uint256"
                }
            ],
            "name": "boostLevelCosts",
            "outputs": [
                {
                    "internalType": "uint256",
                    "name": "",
                    "type": "uint256"
                }
            ],
            "stateMutability": "view",
            "type": "function"
        },
        {
            "inputs": [
                {
                    "internalType": "uint256",
                    "name": "",
                    "type": "uint256"
                }
            ],
            "name": "boostLevelMultipliers",
            "outputs": [
                {
                    "internalType": "uint256",
                    "name": "",
                    "type": "uint256"
                }
            ],
            "stateMutability": "view",
            "type": "function"
        },
        {
            "inputs": [],
            "name": "burnSuperAdmin",
            "outputs": [],
            "stateMutability": "nonpayable",
            "type": "function"
        },
        {
            "inputs": [
                {
                    "internalType": "uint256",
                    "name": "_pid",
                    "type": "uint256"
                },
                {
                    "internalType": "address",
                    "name": "_user",
                    "type": "address"
                }
            ],
            "name": "checkRewards",
            "outputs": [
                {
                    "internalType": "uint256",
                    "name": "pendingRAM",
                    "type": "uint256"
                },
                {
                    "internalType": "uint256",
                    "name": "pendingYGY",
                    "type": "uint256"
                }
            ],
            "stateMutability": "view",
            "type": "function"
        },
        {
            "inputs": [
                {
                    "internalType": "uint256",
                    "name": "_pid",
                    "type": "uint256"
                }
            ],
            "name": "claimRewards",
            "outputs": [],
            "stateMutability": "nonpayable",
            "type": "function"
        },
        {
            "inputs": [],
            "name": "cumulativeRewardsSinceStart",
            "outputs": [
                {
                    "internalType": "uint256",
                    "name": "",
                    "type": "uint256"
                }
            ],
            "stateMutability": "view",
            "type": "function"
        },
        {
            "inputs": [],
            "name": "cumulativeYGYRewardsSinceStart",
            "outputs": [
                {
                    "internalType": "uint256",
                    "name": "",
                    "type": "uint256"
                }
            ],
            "stateMutability": "view",
            "type": "function"
        },
        {
            "inputs": [
                {
                    "internalType": "uint256",
                    "name": "_pid",
                    "type": "uint256"
                },
                {
                    "internalType": "uint256",
                    "name": "_amount",
                    "type": "uint256"
                }
            ],
            "name": "deposit",
            "outputs": [],
            "stateMutability": "nonpayable",
            "type": "function"
        },
        {
            "inputs": [
                {
                    "internalType": "address",
                    "name": "_depositFor",
                    "type": "address"
                },
                {
                    "internalType": "uint256",
                    "name": "_pid",
                    "type": "uint256"
                },
                {
                    "internalType": "uint256",
                    "name": "_amount",
                    "type": "uint256"
                }
            ],
            "name": "depositFor",
            "outputs": [],
            "stateMutability": "nonpayable",
            "type": "function"
        },
        {
            "inputs": [],
            "name": "devaddr",
            "outputs": [
                {
                    "internalType": "address",
                    "name": "",
                    "type": "address"
                }
            ],
            "stateMutability": "view",
            "type": "function"
        },
        {
            "inputs": [],
            "name": "distributeFees",
            "outputs": [],
            "stateMutability": "nonpayable",
            "type": "function"
        },
        {
            "inputs": [
                {
                    "internalType": "uint256",
                    "name": "_pid",
                    "type": "uint256"
                }
            ],
            "name": "emergencyWithdraw",
            "outputs": [],
            "stateMutability": "nonpayable",
            "type": "function"
        },
        {
            "inputs": [],
            "name": "epoch",
            "outputs": [
                {
                    "internalType": "uint256",
                    "name": "",
                    "type": "uint256"
                }
            ],
            "stateMutability": "view",
            "type": "function"
        },
        {
            "inputs": [],
            "name": "epochCalculationStartBlock",
            "outputs": [
                {
                    "internalType": "uint256",
                    "name": "",
                    "type": "uint256"
                }
            ],
            "stateMutability": "view",
            "type": "function"
        },
        {
            "inputs": [
                {
                    "internalType": "uint256",
                    "name": "",
                    "type": "uint256"
                }
            ],
            "name": "epochRewards",
            "outputs": [
                {
                    "internalType": "uint256",
                    "name": "",
                    "type": "uint256"
                }
            ],
            "stateMutability": "view",
            "type": "function"
        },
        {
            "inputs": [
                {
                    "internalType": "string",
                    "name": "_key",
                    "type": "string"
                }
            ],
            "name": "getAddressStorage",
            "outputs": [
                {
                    "internalType": "address",
                    "name": "",
                    "type": "address"
                }
            ],
            "stateMutability": "view",
            "type": "function"
        },
        {
            "inputs": [
                {
                    "internalType": "string",
                    "name": "_key",
                    "type": "string"
                },
                {
                    "internalType": "address",
                    "name": "_address",
                    "type": "address"
                }
            ],
            "name": "getBooleanMapValue",
            "outputs": [
                {
                    "internalType": "bool",
                    "name": "",
                    "type": "bool"
                }
            ],
            "stateMutability": "view",
            "type": "function"
        },
        {
            "inputs": [
                {
                    "internalType": "uint256",
                    "name": "_level",
                    "type": "uint256"
                }
            ],
            "name": "getBoostLevelCost",
            "outputs": [
                {
                    "internalType": "uint256",
                    "name": "",
                    "type": "uint256"
                }
            ],
            "stateMutability": "view",
            "type": "function"
        },
        {
            "inputs": [
                {
                    "internalType": "uint256",
                    "name": "_level",
                    "type": "uint256"
                }
            ],
            "name": "getBoostLevelMultiplier",
            "outputs": [
                {
                    "internalType": "uint256",
                    "name": "",
                    "type": "uint256"
                }
            ],
            "stateMutability": "view",
            "type": "function"
        },
        {
            "inputs": [
                {
                    "internalType": "uint256",
                    "name": "_epoch",
                    "type": "uint256"
                }
            ],
            "name": "getEpochRewards",
            "outputs": [
                {
                    "internalType": "uint256",
                    "name": "",
                    "type": "uint256"
                }
            ],
            "stateMutability": "view",
            "type": "function"
        },
        {
            "inputs": [
                {
                    "internalType": "uint256",
                    "name": "_contractId",
                    "type": "uint256"
                }
            ],
            "name": "getNFTAddress",
            "outputs": [
                {
                    "internalType": "address",
                    "name": "",
                    "type": "address"
                }
            ],
            "stateMutability": "view",
            "type": "function"
        },
        {
            "inputs": [
                {
                    "internalType": "uint256",
                    "name": "_contractId",
                    "type": "uint256"
                },
                {
                    "internalType": "uint256",
                    "name": "_index",
                    "type": "uint256"
                }
            ],
            "name": "getNFTProperty",
            "outputs": [
                {
                    "internalType": "string",
                    "name": "",
                    "type": "string"
                },
                {
                    "internalType": "uint256",
                    "name": "",
                    "type": "uint256"
                },
                {
                    "internalType": "bytes32",
                    "name": "",
                    "type": "bytes32"
                }
            ],
            "stateMutability": "view",
            "type": "function"
        },
        {
            "inputs": [
                {
                    "internalType": "uint256",
                    "name": "_contractId",
                    "type": "uint256"
                }
            ],
            "name": "getNFTPropertyCount",
            "outputs": [
                {
                    "internalType": "uint256",
                    "name": "",
                    "type": "uint256"
                }
            ],
            "stateMutability": "view",
            "type": "function"
        },
        {
            "inputs": [
                {
                    "internalType": "uint256",
                    "name": "_poolId",
                    "type": "uint256"
                }
            ],
            "name": "getPoolInfo",
            "outputs": [
                {
                    "internalType": "contract IERC20",
                    "name": "_token",
                    "type": "address"
                },
                {
                    "internalType": "uint256",
                    "name": "_allocPointt",
                    "type": "uint256"
                },
                {
                    "internalType": "uint256",
                    "name": "_accRAMPerShare",
                    "type": "uint256"
                },
                {
                    "internalType": "uint256",
                    "name": "_accYGYPerShare",
                    "type": "uint256"
                },
                {
                    "internalType": "bool",
                    "name": "_withdrawable",
                    "type": "bool"
                },
                {
                    "internalType": "uint256",
                    "name": "_effectiveAdditionalTokensFromBoosts",
                    "type": "uint256"
                }
            ],
            "stateMutability": "view",
            "type": "function"
        },
        {
            "inputs": [
                {
                    "internalType": "bytes32",
                    "name": "role",
                    "type": "bytes32"
                }
            ],
            "name": "getRoleAdmin",
            "outputs": [
                {
                    "internalType": "bytes32",
                    "name": "",
                    "type": "bytes32"
                }
            ],
            "stateMutability": "view",
            "type": "function"
        },
        {
            "inputs": [
                {
                    "internalType": "bytes32",
                    "name": "role",
                    "type": "bytes32"
                },
                {
                    "internalType": "uint256",
                    "name": "index",
                    "type": "uint256"
                }
            ],
            "name": "getRoleMember",
            "outputs": [
                {
                    "internalType": "address",
                    "name": "",
                    "type": "address"
                }
            ],
            "stateMutability": "view",
            "type": "function"
        },
        {
            "inputs": [
                {
                    "internalType": "bytes32",
                    "name": "role",
                    "type": "bytes32"
                }
            ],
            "name": "getRoleMemberCount",
            "outputs": [
                {
                    "internalType": "uint256",
                    "name": "",
                    "type": "uint256"
                }
            ],
            "stateMutability": "view",
            "type": "function"
        },
        {
            "inputs": [
                {
                    "internalType": "uint256",
                    "name": "_poolId",
                    "type": "uint256"
                },
                {
                    "internalType": "address",
                    "name": "_user",
                    "type": "address"
                }
            ],
            "name": "getUserInfo",
            "outputs": [
                {
                    "components": [
                        {
                            "internalType": "uint256",
                            "name": "amount",
                            "type": "uint256"
                        },
                        {
                            "internalType": "uint256",
                            "name": "rewardDebt",
                            "type": "uint256"
                        },
                        {
                            "internalType": "uint256",
                            "name": "rewardDebtYGY",
                            "type": "uint256"
                        },
                        {
                            "internalType": "uint256",
                            "name": "boostAmount",
                            "type": "uint256"
                        },
                        {
                            "internalType": "uint256",
                            "name": "boostLevel",
                            "type": "uint256"
                        },
                        {
                            "internalType": "uint256",
                            "name": "spentMultiplierTokens",
                            "type": "uint256"
                        },
                        {
                            "internalType": "bool",
                            "name": "hasNFTBoostApplied",
                            "type": "bool"
                        }
                    ],
                    "internalType": "struct YGYStorageV1.UserInfo",
                    "name": "",
                    "type": "tuple"
                }
            ],
            "stateMutability": "view",
            "type": "function"
        },
        {
            "inputs": [
                {
                    "internalType": "bytes32",
                    "name": "role",
                    "type": "bytes32"
                },
                {
                    "internalType": "address",
                    "name": "account",
                    "type": "address"
                }
            ],
            "name": "grantRole",
            "outputs": [],
            "stateMutability": "nonpayable",
            "type": "function"
        },
        {
            "inputs": [
                {
                    "internalType": "bytes32",
                    "name": "role",
                    "type": "bytes32"
                },
                {
                    "internalType": "address",
                    "name": "account",
                    "type": "address"
                }
            ],
            "name": "hasRole",
            "outputs": [
                {
                    "internalType": "bool",
                    "name": "",
                    "type": "bool"
                }
            ],
            "stateMutability": "view",
            "type": "function"
        },
        {
            "inputs": [
                {
                    "internalType": "address",
                    "name": "_storageAddr",
                    "type": "address"
                },
                {
                    "internalType": "address",
                    "name": "superAdmin",
                    "type": "address"
                }
            ],
            "name": "initialize",
            "outputs": [],
            "stateMutability": "nonpayable",
            "type": "function"
        },
        {
            "inputs": [],
            "name": "initialize",
            "outputs": [],
            "stateMutability": "nonpayable",
            "type": "function"
        },
        {
            "inputs": [
                {
                    "internalType": "address",
                    "name": "_ram",
                    "type": "address"
                },
                {
                    "internalType": "address",
                    "name": "_ygy",
                    "type": "address"
                },
                {
                    "internalType": "address",
                    "name": "_teamaddr",
                    "type": "address"
                },
                {
                    "internalType": "address",
                    "name": "_regeneratoraddr",
                    "type": "address"
                }
            ],
            "name": "initializeRAMVault",
            "outputs": [],
            "stateMutability": "nonpayable",
            "type": "function"
        },
        {
            "inputs": [
                {
                    "internalType": "address",
                    "name": "",
                    "type": "address"
                }
            ],
            "name": "lastTicketLevel",
            "outputs": [
                {
                    "internalType": "uint256",
                    "name": "",
                    "type": "uint256"
                }
            ],
            "stateMutability": "view",
            "type": "function"
        },
        {
            "inputs": [
                {
                    "internalType": "address",
                    "name": "",
                    "type": "address"
                }
            ],
            "name": "liquidityContributedEthValue",
            "outputs": [
                {
                    "internalType": "uint256",
                    "name": "",
                    "type": "uint256"
                }
            ],
            "stateMutability": "view",
            "type": "function"
        },
        {
            "inputs": [],
            "name": "massUpdatePools",
            "outputs": [],
            "stateMutability": "nonpayable",
            "type": "function"
        },
        {
            "inputs": [
                {
                    "internalType": "address",
                    "name": "newOwner",
                    "type": "address"
                }
            ],
            "name": "newSuperAdmin",
            "outputs": [],
            "stateMutability": "nonpayable",
            "type": "function"
        },
        {
            "inputs": [
                {
                    "internalType": "address",
                    "name": "",
                    "type": "address"
                },
                {
                    "internalType": "uint256",
                    "name": "",
                    "type": "uint256"
                }
            ],
            "name": "nftPropertyChoices",
            "outputs": [
                {
                    "internalType": "string",
                    "name": "pType",
                    "type": "string"
                },
                {
                    "internalType": "uint256",
                    "name": "pValue",
                    "type": "uint256"
                },
                {
                    "internalType": "bytes32",
                    "name": "extra",
                    "type": "bytes32"
                }
            ],
            "stateMutability": "view",
            "type": "function"
        },
        {
            "inputs": [
                {
                    "internalType": "address",
                    "name": "_caller",
                    "type": "address"
                },
                {
                    "internalType": "address",
                    "name": "_previousOwner",
                    "type": "address"
                },
                {
                    "internalType": "uint256",
                    "name": "_tokenId",
                    "type": "uint256"
                },
                {
                    "internalType": "uint256",
                    "name": "_poolId",
                    "type": "uint256"
                },
                {
                    "internalType": "address",
                    "name": "_contractAddress",
                    "type": "address"
                }
            ],
            "name": "onERC721Received",
            "outputs": [
                {
                    "internalType": "bytes4",
                    "name": "",
                    "type": "bytes4"
                }
            ],
            "stateMutability": "nonpayable",
            "type": "function"
        },
        {
            "inputs": [],
            "name": "owner",
            "outputs": [
                {
                    "internalType": "address",
                    "name": "",
                    "type": "address"
                }
            ],
            "stateMutability": "view",
            "type": "function"
        },
        {
            "inputs": [],
            "name": "pendingRewards",
            "outputs": [
                {
                    "internalType": "uint256",
                    "name": "",
                    "type": "uint256"
                }
            ],
            "stateMutability": "view",
            "type": "function"
        },
        {
            "inputs": [],
            "name": "pendingYGYRewards",
            "outputs": [
                {
                    "internalType": "uint256",
                    "name": "",
                    "type": "uint256"
                }
            ],
            "stateMutability": "view",
            "type": "function"
        },
        {
            "inputs": [
                {
                    "internalType": "uint256",
                    "name": "",
                    "type": "uint256"
                }
            ],
            "name": "poolInfo",
            "outputs": [
                {
                    "internalType": "contract IERC20",
                    "name": "token",
                    "type": "address"
                },
                {
                    "internalType": "uint256",
                    "name": "allocPoint",
                    "type": "uint256"
                },
                {
                    "internalType": "uint256",
                    "name": "accRAMPerShare",
                    "type": "uint256"
                },
                {
                    "internalType": "uint256",
                    "name": "accYGYPerShare",
                    "type": "uint256"
                },
                {
                    "internalType": "bool",
                    "name": "withdrawable",
                    "type": "bool"
                },
                {
                    "internalType": "uint256",
                    "name": "effectiveAdditionalTokensFromBoosts",
                    "type": "uint256"
                }
            ],
            "stateMutability": "view",
            "type": "function"
        },
        {
            "inputs": [],
            "name": "poolLength",
            "outputs": [
                {
                    "internalType": "uint256",
                    "name": "",
                    "type": "uint256"
                }
            ],
            "stateMutability": "view",
            "type": "function"
        },
        {
            "inputs": [
                {
                    "internalType": "uint256",
                    "name": "_pid",
                    "type": "uint256"
                },
                {
                    "internalType": "uint256",
                    "name": "_level",
                    "type": "uint256"
                }
            ],
            "name": "purchase",
            "outputs": [],
            "stateMutability": "nonpayable",
            "type": "function"
        },
        {
            "inputs": [],
            "name": "ram",
            "outputs": [
                {
                    "internalType": "contract INBUNIERC20",
                    "name": "",
                    "type": "address"
                }
            ],
            "stateMutability": "view",
            "type": "function"
        },
        {
            "inputs": [],
            "name": "regeneratoraddr",
            "outputs": [
                {
                    "internalType": "address",
                    "name": "",
                    "type": "address"
                }
            ],
            "stateMutability": "view",
            "type": "function"
        },
        {
            "inputs": [],
            "name": "renounceOwnership",
            "outputs": [],
            "stateMutability": "nonpayable",
            "type": "function"
        },
        {
            "inputs": [
                {
                    "internalType": "bytes32",
                    "name": "role",
                    "type": "bytes32"
                },
                {
                    "internalType": "address",
                    "name": "account",
                    "type": "address"
                }
            ],
            "name": "renounceRole",
            "outputs": [],
            "stateMutability": "nonpayable",
            "type": "function"
        },
        {
            "inputs": [
                {
                    "internalType": "bytes32",
                    "name": "role",
                    "type": "bytes32"
                },
                {
                    "internalType": "address",
                    "name": "account",
                    "type": "address"
                }
            ],
            "name": "revokeRole",
            "outputs": [],
            "stateMutability": "nonpayable",
            "type": "function"
        },
        {
            "inputs": [],
            "name": "rewardsInThisEpoch",
            "outputs": [
                {
                    "internalType": "uint256",
                    "name": "",
                    "type": "uint256"
                }
            ],
            "stateMutability": "view",
            "type": "function"
        },
        {
            "inputs": [
                {
                    "internalType": "uint256",
                    "name": "_pid",
                    "type": "uint256"
                },
                {
                    "internalType": "uint256",
                    "name": "_allocPoint",
                    "type": "uint256"
                },
                {
                    "internalType": "bool",
                    "name": "_withdrawable",
                    "type": "bool"
                }
            ],
            "name": "set",
            "outputs": [],
            "stateMutability": "nonpayable",
            "type": "function"
        },
        {
            "inputs": [
                {
                    "internalType": "address",
                    "name": "spender",
                    "type": "address"
                },
                {
                    "internalType": "uint256",
                    "name": "_pid",
                    "type": "uint256"
                },
                {
                    "internalType": "uint256",
                    "name": "value",
                    "type": "uint256"
                }
            ],
            "name": "setAllowanceForPoolToken",
            "outputs": [],
            "stateMutability": "nonpayable",
            "type": "function"
        },
        {
            "inputs": [
                {
                    "internalType": "uint16",
                    "name": "_DEV_FEE",
                    "type": "uint16"
                }
            ],
            "name": "setDevFee",
            "outputs": [],
            "stateMutability": "nonpayable",
            "type": "function"
        },
        {
            "inputs": [
                {
                    "internalType": "address",
                    "name": "_devaddr",
                    "type": "address"
                }
            ],
            "name": "setDevFeeReciever",
            "outputs": [],
            "stateMutability": "nonpayable",
            "type": "function"
        },
        {
            "inputs": [
                {
                    "internalType": "address",
                    "name": "tokenAddress",
                    "type": "address"
                },
                {
                    "internalType": "uint256",
                    "name": "_amount",
                    "type": "uint256"
                },
                {
                    "internalType": "address",
                    "name": "contractAddress",
                    "type": "address"
                }
            ],
            "name": "setStrategyContractOrDistributionContractAllowance",
            "outputs": [],
            "stateMutability": "nonpayable",
            "type": "function"
        },
        {
            "inputs": [
                {
                    "internalType": "address",
                    "name": "RAMToken",
                    "type": "address"
                },
                {
                    "internalType": "address",
                    "name": "YGYToken",
                    "type": "address"
                },
                {
                    "internalType": "address",
                    "name": "WETH",
                    "type": "address"
                },
                {
                    "internalType": "address",
                    "name": "YGYRAMPair",
                    "type": "address"
                },
                {
                    "internalType": "address",
                    "name": "YGYWethPair",
                    "type": "address"
                },
                {
                    "internalType": "address[]",
                    "name": "nfts",
                    "type": "address[]"
                },
                {
                    "internalType": "address",
                    "name": "dXIOTToken",
                    "type": "address"
                }
            ],
            "name": "setTokens",
            "outputs": [],
            "stateMutability": "nonpayable",
            "type": "function"
        },
        {
            "inputs": [],
            "name": "startNewEpoch",
            "outputs": [],
            "stateMutability": "nonpayable",
            "type": "function"
        },
        {
            "inputs": [
                {
                    "internalType": "string",
                    "name": "source",
                    "type": "string"
                }
            ],
            "name": "stringToBytes32",
            "outputs": [
                {
                    "internalType": "bytes32",
                    "name": "result",
                    "type": "bytes32"
                }
            ],
            "stateMutability": "pure",
            "type": "function"
        },
        {
            "inputs": [],
            "name": "superAdmin",
            "outputs": [
                {
                    "internalType": "address",
                    "name": "",
                    "type": "address"
                }
            ],
            "stateMutability": "view",
            "type": "function"
        },
        {
            "inputs": [],
            "name": "teamaddr",
            "outputs": [
                {
                    "internalType": "address",
                    "name": "",
                    "type": "address"
                }
            ],
            "stateMutability": "view",
            "type": "function"
        },
        {
            "inputs": [],
            "name": "ticketCount",
            "outputs": [
                {
                    "internalType": "uint256",
                    "name": "",
                    "type": "uint256"
                }
            ],
            "stateMutability": "view",
            "type": "function"
        },
        {
            "inputs": [
                {
                    "internalType": "uint256",
                    "name": "",
                    "type": "uint256"
                }
            ],
            "name": "tickets",
            "outputs": [
                {
                    "internalType": "address",
                    "name": "owner",
                    "type": "address"
                },
                {
                    "internalType": "uint256",
                    "name": "levelOneChance",
                    "type": "uint256"
                },
                {
                    "internalType": "uint256",
                    "name": "levelTwoChance",
                    "type": "uint256"
                },
                {
                    "internalType": "uint256",
                    "name": "levelThreeChance",
                    "type": "uint256"
                },
                {
                    "internalType": "uint256",
                    "name": "levelFourChance",
                    "type": "uint256"
                },
                {
                    "internalType": "uint256",
                    "name": "levelFiveChance",
                    "type": "uint256"
                }
            ],
            "stateMutability": "view",
            "type": "function"
        },
        {
            "inputs": [],
            "name": "totalAllocPoint",
            "outputs": [
                {
                    "internalType": "uint256",
                    "name": "",
                    "type": "uint256"
                }
            ],
            "stateMutability": "view",
            "type": "function"
        },
        {
            "inputs": [
                {
                    "internalType": "address",
                    "name": "newOwner",
                    "type": "address"
                }
            ],
            "name": "transferOwnership",
            "outputs": [],
            "stateMutability": "nonpayable",
            "type": "function"
        },
        {
            "inputs": [],
            "name": "transferRAMDevFee",
            "outputs": [],
            "stateMutability": "nonpayable",
            "type": "function"
        },
        {
            "inputs": [],
            "name": "transferYGYDevFee",
            "outputs": [],
            "stateMutability": "nonpayable",
            "type": "function"
        },
        {
            "inputs": [
                {
                    "internalType": "uint256",
                    "name": "",
                    "type": "uint256"
                }
            ],
            "name": "uintStorageCount",
            "outputs": [
                {
                    "internalType": "uint256",
                    "name": "",
                    "type": "uint256"
                }
            ],
            "stateMutability": "view",
            "type": "function"
        },
        {
            "inputs": [
                {
                    "internalType": "uint256[]",
                    "name": "_boostMultipliers",
                    "type": "uint256[]"
                },
                {
                    "internalType": "uint256[]",
                    "name": "_boostCosts",
                    "type": "uint256[]"
                }
            ],
            "name": "updateBoosts",
            "outputs": [],
            "stateMutability": "nonpayable",
            "type": "function"
        },
        {
            "inputs": [
                {
                    "internalType": "uint256",
                    "name": "",
                    "type": "uint256"
                },
                {
                    "internalType": "address",
                    "name": "",
                    "type": "address"
                }
            ],
            "name": "userInfo",
            "outputs": [
                {
                    "internalType": "uint256",
                    "name": "amount",
                    "type": "uint256"
                },
                {
                    "internalType": "uint256",
                    "name": "rewardDebt",
                    "type": "uint256"
                },
                {
                    "internalType": "uint256",
                    "name": "rewardDebtYGY",
                    "type": "uint256"
                },
                {
                    "internalType": "uint256",
                    "name": "boostAmount",
                    "type": "uint256"
                },
                {
                    "internalType": "uint256",
                    "name": "boostLevel",
                    "type": "uint256"
                },
                {
                    "internalType": "uint256",
                    "name": "spentMultiplierTokens",
                    "type": "uint256"
                },
                {
                    "internalType": "bool",
                    "name": "hasNFTBoostApplied",
                    "type": "bool"
                }
            ],
            "stateMutability": "view",
            "type": "function"
        },
        {
            "inputs": [
                {
                    "internalType": "uint256",
                    "name": "_pid",
                    "type": "uint256"
                },
                {
                    "internalType": "uint256",
                    "name": "_amount",
                    "type": "uint256"
                }
            ],
            "name": "withdraw",
            "outputs": [],
            "stateMutability": "nonpayable",
            "type": "function"
        },
        {
            "inputs": [
                {
                    "internalType": "address",
                    "name": "owner",
                    "type": "address"
                },
                {
                    "internalType": "uint256",
                    "name": "_pid",
                    "type": "uint256"
                },
                {
                    "internalType": "uint256",
                    "name": "_amount",
                    "type": "uint256"
                }
            ],
            "name": "withdrawFrom",
            "outputs": [],
            "stateMutability": "nonpayable",
            "type": "function"
        },
        {
            "inputs": [],
            "name": "ygy",
            "outputs": [
                {
                    "internalType": "contract IERC20",
                    "name": "",
                    "type": "address"
                }
            ],
            "stateMutability": "view",
            "type": "function"
        }
    ],
    "bytecode": "608060405234801561001057600080fd5b5061560380620000216000396000f3fe608060405234801561001057600080fd5b50600436106104f95760003560e01c8063795d79f511610299578063c401458811610167578063e0af3616116100d9578063eded3fda11610092578063eded3fda14610a8d578063ee02ea1b14610a95578063f2fde38b14610aa8578063f7db38cb14610abb578063fa69669c14610ac3578063fb70c3bf14610acb576104f9565b8063e0af361614610a19578063e18cb4fe14610a21578063e2bbb15814610a34578063e671fab514610a47578063e8cb20b714610a5a578063e941c85614610a7a576104f9565b8063cfb519281161012b578063cfb51928146109bd578063cfbd900f146109d0578063d49e77cd146109d8578063d547741f146109e0578063d6cf8021146109f3578063dbe0901f14610a06576104f9565b8063c401458814610974578063c8ffb87314610987578063ca15c8731461098f578063cc1362ec146109a2578063cc40f664146109aa576104f9565b806393f1a40b1161020b578063a676860a116101c4578063a676860a14610918578063ad1414b21461092b578063b2f4b44a1461093e578063b81a0b4c14610951578063bb57ad2014610959578063bcb4908614610961576104f9565b806393f1a40b146108b45780639649d76c146108da5780639a6d2711146108e25780639d18f773146108ea578063a217fddf146108fd578063a5f8ace814610905576104f9565b80638da5cb5b1161025d5780638da5cb5b146108615780638f33b5e514610869578063900cf0cf146108715780639010d07c1461087957806391d148541461088c578063934eaa50146108ac576104f9565b8063795d79f51461082e5780637cf75ca3146108415780637d3b8da1146108495780638129fc1c146108515780638b6ff57b14610859576104f9565b80633b6a6849116103d657806358739fc8116103485780636798f19f116103015780636798f19f146107d25780636a9d1f6f146107e55780636b42ee55146107f857806370876c981461080b578063715018a61461081e5780637575aa8a14610826576104f9565b806358739fc8146107815780635d577c18146107945780635f0c0f2b1461079c578063608c8d3a146107af578063630b5ba1146107b757806364482f79146107bf576104f9565b8063485cc9551161039a578063485cc955146106ee5780634cf5fbf5146107015780634dc47d341461071457806350b44712146107275780635312ea8e1461074c5780635498d4c01461075f576104f9565b80633b6a68491461068f5780633fe6a278146106a2578063423d6fa0146106b5578063441a3e70146106c8578063469fcdcb146106db576104f9565b806329575f6a1161046f57806331db122c1161043357806331db122c1461063e57806336568abe1461064657806336644334146106595780633a0967cd1461066c5780633aab0a621461067f5780633b24bd4a14610687576104f9565b806329575f6a146105e85780632d6754e5146105fd5780632f2ff15d146106105780632f380b35146106235780632f4f8a7a14610636576104f9565b80631069f3b5116104c15780631069f3b51461056d5780631526fe271461058d57806317caf6f1146105b25780631dbf779e146105ba5780631eaaa045146105c2578063248a9ca3146105d5576104f9565b8063081e3eda146104fe5780630962ef791461051c57806309e3de41146105315780630a08f1d41461053957806310178d9c1461054c575b600080fd5b610506610ad3565b6040516105139190614ff5565b60405180910390f35b61052f61052a366004614cb9565b610ad9565b005b610506610b1f565b610506610547366004614cb9565b610b25565b61055f61055a366004614cd1565b610c4c565b6040516105139291906154b3565b61058061057b366004614cd1565b610d1e565b604051610513919061544c565b6105a061059b366004614cb9565b610da3565b60405161051396959493929190615013565b610506610df6565b610506610dfc565b61052f6105d0366004614e7e565b610e02565b6105066105e3366004614cb9565b611015565b6105f061102a565b6040516105139190614f4c565b61052f61060b36600461496a565b611039565b61052f61061e366004614cd1565b611090565b6105a0610631366004614cb9565b6110d8565b6105f0611178565b610506611187565b61052f610654366004614cd1565b61118d565b61052f6106673660046149da565b6111cf565b61052f61067a366004614c08565b61140f565b61052f6114e1565b6105f061152d565b61052f61069d366004614cb9565b61153c565b61052f6106b0366004614cb9565b61162a565b61052f6106c3366004614cb9565b611707565b61052f6106d6366004614cf5565b61178f565b6105066106e9366004614cb9565b61179b565b61052f6106fc3660046149a2565b6117ad565b61052f61070f366004614c08565b611884565b610506610722366004614cb9565b611a3a565b61073a610735366004614cb9565b611a4c565b60405161051396959493929190614fb7565b61052f61075a366004614cb9565b611a8b565b61077261076d366004614cf5565b611b4a565b6040516105139392919061505b565b61077261078f366004614b9c565b611c74565b610506611d3c565b6105066107aa366004614cb9565b611d42565b610506611d54565b61052f611d5a565b61052f6107cd366004614ed7565b611dc5565b6105066107e0366004614cb9565b611e9d565b6105066107f3366004614cb9565b611eaf565b610506610806366004614cb9565b611ec1565b61052f610819366004614cf5565b611edf565b61052f6120e8565b610506612167565b6105f061083c366004614cb9565b612179565b61052f612194565b6105f061243f565b61052f61244e565b610506612505565b6105f061250b565b6105f061251a565b610506612529565b6105f0610887366004614cf5565b61252f565b61089f61089a366004614cd1565b61254e565b6040516105139190614fea565b61052f612566565b6108c76108c2366004614cd1565b6125d5565b60405161051397969594939291906154c1565b610506612620565b6105f0612626565b6105f06108f8366004614cb9565b612635565b610506612650565b61052f610913366004614a35565b612655565b61052f61092636600461496a565b612740565b61050661093936600461496a565b6127c8565b61052f61094c366004614c3c565b6127da565b6105f0612879565b61052f612888565b61050661096f366004614cb9565b612a8d565b61052f610982366004614bc7565b612a9f565b610506612b80565b61050661099d366004614cb9565b612b86565b61052f612b9d565b6105066109b836600461496a565b612e47565b6105066109cb366004614d16565b612e59565b610506612e77565b6105f0612e7d565b61052f6109ee366004614cd1565b612e8c565b610506610a01366004614cb9565b612ec6565b61052f610a14366004614c08565b612ed3565b6105f0612f5b565b61052f610a2f366004614e44565b612f6a565b61052f610a42366004614cf5565b612fe7565b61089f610a55366004614d49565b613133565b610a6d610a68366004614b3e565b613167565b6040516105139190614ffe565b610506610a88366004614cb9565b613368565b610506613375565b6105f0610aa3366004614d16565b61337b565b61052f610ab636600461496a565b6133a6565b6105f061345d565b6105f061346c565b6105f061347b565b60ca5490565b610ae3813361348a565b7fc05cbf47ef4152ea1b2446fb1ba8eb9c7285054d9c85f2f52c294200d8d1d38b8133604051610b1492919061549c565b60405180910390a150565b60e15481565b600081815260e960209081526040808320546001600160a01b031680845260ea8352818420805483518186028101860190945280845291936060939290869084015b82821015610c3c5760008481526020908190206040805160038602909201805460026001821615610100026000190190911604601f8101859004909402830160809081019092526060830184815292939092849290918491840182828015610c105780601f10610be557610100808354040283529160200191610c10565b820191906000526020600020905b815481529060010190602001808311610bf357829003601f168201915b505050505081526020016001820154815260200160028201548152505081526020019060010190610b67565b505091519450505050505b919050565b600080600060ca8581548110610c5e57fe5b6000918252602080832088845260c9825260408085206001600160a01b038a16865290925290832060038101548154600790940290920194509291610ca29161353d565b905060008084600301541115610ce957610ce68360020154610ce064e8d4a51000610cda88600301548761356290919063ffffffff16565b9061359c565b906135de565b90505b610d118360010154610ce064e8d4a51000610cda88600201548761356290919063ffffffff16565b9890975095505050505050565b610d266147ff565b50600082815260c9602090815260408083206001600160a01b0385168452825291829020825160e081018452815481526001820154928101929092526002810154928201929092526003820154606082015260048201546080820152600582015460a082015260069091015460ff16151560c08201525b92915050565b60ca8181548110610db057fe5b60009182526020909120600790910201805460018201546002830154600384015460048501546006909501546001600160a01b0390941695509193909260ff9091169086565b60cb5481565b60ce5481565b610e0a613620565b6065546001600160a01b03908116911614610e405760405162461bcd60e51b8152600401610e379061527a565b60405180910390fd5b610e48611d5a565b60005b60ca54811015610eac57826001600160a01b031660ca8281548110610e6c57fe5b60009182526020909120600790910201546001600160a01b03161415610ea45760405162461bcd60e51b8152600401610e37906152fd565b600101610e4b565b5060cb54610eba908461353d565b60cb556040805160c0810182526001600160a01b039384168152602081019485526000918101828152606082018381529315156080830190815260a0830184815260ca8054600181018255955292517f42d72674974f694b5f5159593243114d38a5c39c89d6b62fee061ff523240ee1600790950294850180546001600160a01b031916919097161790955594517f42d72674974f694b5f5159593243114d38a5c39c89d6b62fee061ff523240ee283015593517f42d72674974f694b5f5159593243114d38a5c39c89d6b62fee061ff523240ee382015590517f42d72674974f694b5f5159593243114d38a5c39c89d6b62fee061ff523240ee482015590517f42d72674974f694b5f5159593243114d38a5c39c89d6b62fee061ff523240ee58201805460ff191691151591909117905590517f42d72674974f694b5f5159593243114d38a5c39c89d6b62fee061ff523240ee790910155565b60009081526097602052604090206002015490565b60f6546001600160a01b031690565b611041613620565b6065546001600160a01b0390811691161461106e5760405162461bcd60e51b8152600401610e379061527a565b60f180546001600160a01b0319166001600160a01b0392909216919091179055565b6000828152609760205260409020600201546110ae9061089a613620565b6110ca5760405162461bcd60e51b8152600401610e37906150c2565b6110d48282613624565b5050565b6000806000806000806110e961483e565b60ca88815481106110f657fe5b60009182526020918290206040805160c08101825260079390930290910180546001600160a01b031680845260018201549484018590526002820154928401839052600382015460608501819052600483015460ff1615156080860181905260069093015460a0909501859052909d949c50919a509098509650945092505050565b60db546001600160a01b031681565b60d15481565b611195613620565b6001600160a01b0316816001600160a01b0316146111c55760405162461bcd60e51b8152600401610e37906153fd565b6110d4828261368d565b600054610100900460ff16806111e857506111e86136f6565b806111f6575060005460ff16155b6112125760405162461bcd60e51b8152600401610e37906152af565b600054610100900460ff1615801561123d576000805460ff1961ff0019909116610100171660011790555b6112576000805160206155ae83398151915261089a613620565b61126057600080fd5b60d980546001600160a01b038088166001600160a01b03199283161790925560da805487841690831617905560d8805486841690831617905560d78054928516929091169190911790554360d155674563918244f400007f30056815db4f2a630cfabf02667a38e3880aea5244187f7a83447df0f50fae7e5567d02ab486cedc00007f93c4bb6c0f2d824ad6efe8cc0ae6b5db7c1733a451e85fc0df8735d769377a3f556801a055690d9db800007fa840fbb79f21adf16d4f64c6fefec4671eee0ed4b74aabeb944158f632e4480055680340aad21b3b7000007fc0fcfbe25ae0350683c39d2a28523a539ce7452e2fd44451a32a75e038a003bf5560e360205260057fa71a5dc6523a2d0bf383648e732f9cbd05fb5cd75a9c44758106b038b320de3655600f7f943c16c606a37eaf2ffde50503ea170bf4838709828ded1135a1486c90b7e0ee55601e7f16856fcf46d514fe62f26b23afa013e951c313a821ce2c3eaba8a78d946060a8556004600052603c7f7f84c93ccfe82de4803f900144a81b2660ffe15f75cd8fd5ba5ab2f905ff42ad558015611408576000805461ff00191690555b5050505050565b600060ca838154811061141e57fe5b600091825260208083206001600160a01b0388168452600560079093020191820181526040808420338552909152909120549091508211156114725760405162461bcd60e51b8152600401610e37906151c3565b6001600160a01b038416600090815260058201602090815260408083203384529091529020546114a290836135de565b6001600160a01b03851660009081526005830160209081526040808320338085529252909120919091556114db908490849087906136fc565b50505050565b4360d25461c35001106114f357600080fd5b60d55460d654600090815260e46020526040902081905560d3546115169161353d565b60d355600060d5554360d25560d680546001019055565b60dd546001600160a01b031681565b611544613620565b6065546001600160a01b039081169116146115715760405162461bcd60e51b8152600401610e379061527a565b60d9546040516323b872dd60e01b81526001600160a01b03909116906323b872dd906115a590339030908690600401614f60565b602060405180830381600087803b1580156115bf57600080fd5b505af11580156115d3573d6000803e3d6000fd5b505050506040513d601f19601f820116820180604052508101906115f79190614c9d565b61160057600080fd5b80156116275760cc54611613908261353d565b60cc5560d554611623908261353d565b60d5555b50565b611632613620565b6065546001600160a01b0390811691161461165f5760405162461bcd60e51b8152600401610e379061527a565b60da546040516323b872dd60e01b81526001600160a01b03909116906323b872dd9061169390339030908690600401614f60565b602060405180830381600087803b1580156116ad57600080fd5b505af11580156116c1573d6000803e3d6000fd5b505050506040513d601f19601f820116820180604052508101906116e59190614c9d565b6116ee57600080fd5b80156116275760ce54611701908261353d565b60ce5550565b60d9546001600160a01b0316331461171e57600080fd5b60cc5461172b908261353d565b60cc5560d55461173b908261353d565b60d55560ce5481101561176d5760cd54611755908261353d565b60cd5560ce5461176590826135de565b60ce55611627565b60ce54156116275760ce5460cd546117849161353d565b60cd55600060ce5550565b6110d4828233336136fc565b60e26020526000908152604090205481565b600054610100900460ff16806117c657506117c66136f6565b806117d4575060005460ff16155b6117f05760405162461bcd60e51b8152600401610e37906152af565b600054610100900460ff1615801561181b576000805460ff1961ff0019909116610100171660011790555b611823613867565b60f3805461ffff60a01b191660b560a21b176001600160a01b03199081166001600160a01b0386811691821790935560f280548316909117905560f68054909116918416919091179055801561187f576000805461ff00191690555b505050565b600060ca838154811061189357fe5b6000918252602080832086845260c9825260408085206001600160a01b038a1686529092529220600790910290910191506118ce848661348a565b82156119925781546040516323b872dd60e01b81526001600160a01b03909116906323b872dd9061190790339030908890600401614f60565b602060405180830381600087803b15801561192157600080fd5b505af1158015611935573d6000803e3d6000fd5b505050506040513d601f19601f820116820180604052508101906119599190614c9d565b508054611966908461353d565b81556004810154156119925760f3546119929082908490600090819081906001600160a01b03166138e5565b600381015481546000916119a6919061353d565b90506119c864e8d4a51000610cda85600201548461356290919063ffffffff16565b600183015560038301546119e89064e8d4a5100090610cda908490613562565b826002018190555084866001600160a01b03167f90890809c654f11d6e72a28fa60149770a0d11ec6c92319d6ceb2bb0a4ea1a1586604051611a2a9190614ff5565b60405180910390a3505050505050565b60e46020526000908152604090205481565b60e6602052600090815260409020805460018201546002830154600384015460048501546005909501546001600160a01b039094169492939192909186565b600060ca8281548110611a9a57fe5b60009182526020909120600790910201600481015490915060ff16611abe57600080fd5b600082815260c960209081526040808320338085529252909120805483549192611af1926001600160a01b03169161399b565b8054604051849133917fbb757047c2b5f3974fe26b7c10f732e7bce710b0952a71082702781e62ae059591611b2591614ff5565b60405180910390a3600080825560038201819055600182018190556002909101555050565b600082815260e960205260408120546060919081906001600160a01b0316611b7061487f565b6001600160a01b038216600090815260ea60205260409020805487908110611b9457fe5b600091825260209182902060408051600393909302909101805460026001821615610100026000190190911604601f8101859004909402830160809081019092526060830184815292939092849290918491840182828015611c375780601f10611c0c57610100808354040283529160200191611c37565b820191906000526020600020905b815481529060010190602001808311611c1a57829003601f168201915b5050505050815260200160018201548152602001600282015481525050905080600001518160200151826040015194509450945050509250925092565b60ea6020528160005260406000208181548110611c8d57fe5b60009182526020918290206003919091020180546040805160026001841615610100026000190190931692909204601f810185900485028301850190915280825291945092508391830182828015611d265780601f10611cfb57610100808354040283529160200191611d26565b820191906000526020600020905b815481529060010190602001808311611d0957829003601f168201915b5050505050908060010154908060020154905083565b60d25481565b600090815260e4602052604090205490565b60d55481565b60008060005b60ca54811015611da057600080611d76836139f1565b9092509050611d85858361353d565b9450611d91848261353d565b93505050806001019050611d60565b5060cc54611dae90836135de565b60cc5560cd54611dbe90826135de565b60cd555050565b611dcd613620565b6065546001600160a01b03908116911614611dfa5760405162461bcd60e51b8152600401610e379061527a565b611e02611d5a565b611e3f82611e3960ca8681548110611e1657fe5b90600052602060002090600702016001015460cb546135de90919063ffffffff16565b9061353d565b60cb819055508160ca8481548110611e5357fe5b9060005260206000209060070201600101819055508060ca8481548110611e7657fe5b60009182526020909120600790910201600401805460ff1916911515919091179055505050565b600090815260e3602052604090205490565b600090815260e2602052604090205490565b60ee8181548110611ece57fe5b600091825260209091200154905081565b600060ca8381548110611eee57fe5b6000918252602080832086845260c982526040808520338652909252922060048101546007909202909201925083118015611f2a575060048311155b611f3357600080fd5b60f354604051636a9d1f6f60e01b81526000916001600160a01b031690636a9d1f6f90611f64908790600401614ff5565b60206040518083038186803b158015611f7c57600080fd5b505afa158015611f90573d6000803e3d6000fd5b505050506040513d601f19601f82011682018060405250810190611fb49190614e66565b90506000611fcf8360050154836135de90919063ffffffff16565b60d9546040516323b872dd60e01b81529192506001600160a01b0316906323b872dd9061200490339030908690600401614f60565b602060405180830381600087803b15801561201e57600080fd5b505af1158015612032573d6000803e3d6000fd5b505050506040513d601f19601f820116820180604052508101906120569190614c9d565b61205f57600080fd5b600583015461206e908261353d565b6005840155600483018590558254156120a15760f3546120a19084908690889060009081906001600160a01b03166138e5565b60e1546120ae908261353d565b60e1556040518590879033907faadc628cb4fd3bb7a62795eb460290459458bdc6f387ffde727c740f42c1833790600090a4505050505050565b6120f0613620565b6065546001600160a01b0390811691161461211d5760405162461bcd60e51b8152600401610e379061527a565b6065546040516000916001600160a01b0316907f8be0079c531659141344cd1fd0a4f28419497f9722a3daafe3b4186f6b6457e0908390a3606580546001600160a01b0319169055565b6000805160206155ae83398151915281565b60e9602052600090815260409020546001600160a01b031681565b60f4541561243d5760d9546040516370a0823160e01b8152600091829182916001600160a01b0316906370a08231906121d1903090600401614f4c565b60206040518083038186803b1580156121e957600080fd5b505afa1580156121fd573d6000803e3d6000fd5b505050506040513d601f19601f820116820180604052508101906122219190614e66565b90508060f45411156122565761223d6064610cda836046613562565b925061224f6064610cda83601e613562565b9150612291565b6122716064610cda604660f45461356290919063ffffffff16565b925061228e6064610cda601e60f45461356290919063ffffffff16565b91505b82156123215760d95460f15460405163a9059cbb60e01b81526001600160a01b039283169263a9059cbb926122cd929116908790600401614f9e565b602060405180830381600087803b1580156122e757600080fd5b505af11580156122fb573d6000803e3d6000fd5b505050506040513d601f19601f8201168201806040525081019061231f9190614c9d565b505b81156123b15760d95460d85460405163a9059cbb60e01b81526001600160a01b039283169263a9059cbb9261235d929116908690600401614f9e565b602060405180830381600087803b15801561237757600080fd5b505af115801561238b573d6000803e3d6000fd5b505050506040513d601f19601f820116820180604052508101906123af9190614c9d565b505b60d9546040516370a0823160e01b81526001600160a01b03909116906370a08231906123e1903090600401614f4c565b60206040518083038186803b1580156123f957600080fd5b505afa15801561240d573d6000803e3d6000fd5b505050506040513d601f19601f820116820180604052508101906124319190614e66565b60cf555050600060f455505b565b60d7546001600160a01b031681565b600054610100900460ff168061246757506124676136f6565b80612475575060005460ff16155b6124915760405162461bcd60e51b8152600401610e37906152af565b600054610100900460ff161580156124bc576000805460ff1961ff0019909116610100171660011790555b6124c9600061089a613620565b6124d257600080fd5b6124f16000805160206155ae8339815191526124ec613620565b6110ca565b8015611627576000805461ff001916905550565b60cd5481565b6065546001600160a01b031690565b60d9546001600160a01b031681565b60d65481565b60008281526097602052604081206125479083613b59565b9392505050565b60008281526097602052604081206125479083613b65565b61256e613620565b60f6546001600160a01b0390811691161461258857600080fd5b60f680546001600160a01b03191690556040517ff564c40f4f45e62a2c1e6c22e8bfb46501f0f71fa1c72e5358903fa1115a4b64906125cb906000908190614f84565b60405180910390a1565b60c96020908152600092835260408084209091529082529020805460018201546002830154600384015460048501546005860154600690960154949593949293919290919060ff1687565b60d45481565b60d8546001600160a01b031681565b600090815260e960205260409020546001600160a01b031690565b600081565b61266f6000805160206155ae83398151915261089a613620565b61267857600080fd5b60de80546001600160a01b03199081166001600160a01b038a81169190911790925560dc8054821689841617905560e08054821688841617905560db8054821687841617905560dd8054821686841617905560df805490911691831691909117905560005b8251811015612736578281815181106126f257fe5b602090810291909101810151600192909201600081815260e9909252604090912080546001600160a01b0319166001600160a01b03909316929092179091556126dd565b5050505050505050565b612748613620565b60f6546001600160a01b0390811691161461276257600080fd5b6001600160a01b03811661277557600080fd5b60f680546001600160a01b0319166001600160a01b0383811691909117918290556040517ff564c40f4f45e62a2c1e6c22e8bfb46501f0f71fa1c72e5358903fa1115a4b6492610b149216908490614f84565b60e76020526000908152604090205481565b6127f46000805160206155ae83398151915261089a613620565b6127fd57600080fd5b60005b82518160ff161161187f57818160ff168151811061281a57fe5b602002602001015160e260008360010160ff16815260200190815260200160002081905550828160ff168151811061284e57fe5b60209081029190910181015160ff6001909301928316600090815260e3909252604090912055612800565b60df546001600160a01b031681565b60e180546000918290559061289e82600261359c565b905080156110d45760d95460d75460405163a9059cbb60e01b81526001600160a01b039283169263a9059cbb926128dc929116908590600401614f9e565b602060405180830381600087803b1580156128f657600080fd5b505af115801561290a573d6000803e3d6000fd5b505050506040513d601f19601f8201168201806040525081019061292e9190614c9d565b61293757600080fd5b60006129496064610cda846046613562565b905080156129e25760d95460f15460405163a9059cbb60e01b81526001600160a01b039283169263a9059cbb92612987929116908590600401614f9e565b602060405180830381600087803b1580156129a157600080fd5b505af11580156129b5573d6000803e3d6000fd5b505050506040513d601f19601f820116820180604052508101906129d99190614c9d565b6129e257600080fd5b60006129f46064610cda85601e613562565b905080156114db5760d95460d85460405163a9059cbb60e01b81526001600160a01b039283169263a9059cbb92612a32929116908590600401614f9e565b602060405180830381600087803b158015612a4c57600080fd5b505af1158015612a60573d6000803e3d6000fd5b505050506040513d601f19601f82011682018060405250810190612a849190614c9d565b6114db57600080fd5b60e36020526000908152604090205481565b612aa881613b7a565b8015612ac95750612ab7613620565b60f6546001600160a01b039081169116145b612ad257600080fd5b60d154612ae2906201731861353d565b4311612b005760405162461bcd60e51b8152600401610e3790615334565b60405163095ea7b360e01b81526001600160a01b0384169063095ea7b390612b2e9084908690600401614f9e565b602060405180830381600087803b158015612b4857600080fd5b505af1158015612b5c573d6000803e3d6000fd5b505050506040513d601f19601f820116820180604052508101906114db9190614c9d565b60d35481565b6000818152609760205260408120610d9d90613b80565b60f5541561243d5760da546040516370a0823160e01b8152600091829182916001600160a01b0316906370a0823190612bda903090600401614f4c565b60206040518083038186803b158015612bf257600080fd5b505afa158015612c06573d6000803e3d6000fd5b505050506040513d601f19601f82011682018060405250810190612c2a9190614e66565b90508060f5541115612c5f57612c466064610cda836046613562565b9250612c586064610cda83601e613562565b9150612c9a565b612c7a6064610cda604660f55461356290919063ffffffff16565b9250612c976064610cda601e60f55461356290919063ffffffff16565b91505b8215612d2a5760da5460f15460405163a9059cbb60e01b81526001600160a01b039283169263a9059cbb92612cd6929116908790600401614f9e565b602060405180830381600087803b158015612cf057600080fd5b505af1158015612d04573d6000803e3d6000fd5b505050506040513d601f19601f82011682018060405250810190612d289190614c9d565b505b8115612dba5760da5460d85460405163a9059cbb60e01b81526001600160a01b039283169263a9059cbb92612d66929116908690600401614f9e565b602060405180830381600087803b158015612d8057600080fd5b505af1158015612d94573d6000803e3d6000fd5b505050506040513d601f19601f82011682018060405250810190612db89190614c9d565b505b60da546040516370a0823160e01b81526001600160a01b03909116906370a0823190612dea903090600401614f4c565b60206040518083038186803b158015612e0257600080fd5b505afa158015612e16573d6000803e3d6000fd5b505050506040513d601f19601f82011682018060405250810190612e3a9190614e66565b60d0555050600060f55550565b60e86020526000908152604090205481565b80516000908290612e6e575060009050610c47565b50506020015190565b60e55481565b60f1546001600160a01b031681565b600082815260976020526040902060020154612eaa9061089a613620565b6111c55760405162461bcd60e51b8152600401610e37906151e9565b60ec8181548110611ece57fe5b600060ca8381548110612ee257fe5b60009182526020808320338085526007939093020160058101825260408085206001600160a01b038a168087529352938490208690559251929350917fb3fd5071835887567a0671151121894ddccc2842f1d10bedad13e0d17cace9a790612f4d90879087906154b3565b60405180910390a350505050565b60e0546001600160a01b031681565b612f72613620565b6065546001600160a01b03908116911614612f9f5760405162461bcd60e51b8152600401610e379061527a565b6103e88161ffff161115612fc55760405162461bcd60e51b8152600401610e379061535b565b60f3805461ffff909216600160a01b0261ffff60a01b19909216919091179055565b600060ca8381548110612ff657fe5b6000918252602080832086845260c982526040808520338087529352909320600790920290920192509061302b90859061348a565b82156130ef5781546040516323b872dd60e01b81526001600160a01b03909116906323b872dd9061306490339030908890600401614f60565b602060405180830381600087803b15801561307e57600080fd5b505af1158015613092573d6000803e3d6000fd5b505050506040513d601f19601f820116820180604052508101906130b69190614c9d565b5080546130c3908461353d565b81556004810154156130ef5760f3546130ef9082908490600090819081906001600160a01b03166138e5565b6130f98183613b8b565b83336001600160a01b03167f90890809c654f11d6e72a28fa60149770a0d11ec6c92319d6ceb2bb0a4ea1a1585604051612f4d9190614ff5565b60008061313f84612e59565b600090815260eb6020908152604082206001600160a01b039095169091529290925292915050565b60f354604051639d18f77360e01b815260009182916001600160a01b0391821691639d18f7739161319d91871690600401614ff5565b60206040518083038186803b1580156131b557600080fd5b505afa1580156131c9573d6000803e3d6000fd5b505050506040513d601f19601f820116820180604052508101906131ed9190614986565b9050806131f861487f565b604051631c72e6e760e11b81526001600160a01b038316906338e5cdce90613224908a90600401614ff5565b60006040518083038186803b15801561323c57600080fd5b505afa158015613250573d6000803e3d6000fd5b505050506040513d6000823e601f3d908101601f191682016040526132789190810190614d8e565b8051600088815260c9602090815260408083206001600160a01b038e168452909152812060ca805494955092939092908a9081106132b257fe5b906000526020600020906007020190507f4c2a2854ee53ed5b7d6634f420939b37032114560b2e272365ebe963e01dcbf4836040516020016132f49190614f30565b604051602081830303815290604052805190602001201415613337576004820154602085015160f3546133379285928592600091906001600160a01b03166138e5565b507f242fcbc508a9b8ebde5f4dab0c6c59f91e988b301a3812cc5fcd922d93a700a79b9a5050505050505050505050565b60f08181548110611ece57fe5b60cc5481565b60008061338783612e59565b600090815260ed60205260409020546001600160a01b03169392505050565b6133ae613620565b6065546001600160a01b039081169116146133db5760405162461bcd60e51b8152600401610e379061527a565b6001600160a01b0381166134015760405162461bcd60e51b8152600401610e3790615111565b6065546040516001600160a01b038084169216907f8be0079c531659141344cd1fd0a4f28419497f9722a3daafe3b4186f6b6457e090600090a3606580546001600160a01b0319166001600160a01b0392909216919091179055565b60dc546001600160a01b031681565b60de546001600160a01b031681565b60da546001600160a01b031681565b613492611d5a565b60f354604051630405e36760e21b815260009182916001600160a01b03909116906310178d9c906134c9908790879060040161549c565b604080518083038186803b1580156134e057600080fd5b505afa1580156134f4573d6000803e3d6000fd5b505050506040513d601f19601f820116820180604052508101906135189190614eb4565b9092509050811561352d5761352d8383613bd9565b80156114db576114db8382613dff565b6000828201838110156125475760405162461bcd60e51b8152600401610e3790615157565b60008261357157506000610d9d565b8282028284828161357e57fe5b04146125475760405162461bcd60e51b8152600401610e3790615239565b600061254783836040518060400160405280601a81526020017f536166654d6174683a206469766973696f6e206279207a65726f000000000000815250614025565b600061254783836040518060400160405280601e81526020017f536166654d6174683a207375627472616374696f6e206f766572666c6f77000081525061405c565b3390565b600082815260976020526040902061363c9082614088565b156110d457613649613620565b6001600160a01b0316816001600160a01b0316837f2f8788117e7eff1d82e926ec794901d17c78024a50270940304540a733656f0d60405160405180910390a45050565b60008281526097602052604090206136a5908261409d565b156110d4576136b2613620565b6001600160a01b0316816001600160a01b0316837ff6391f5c32d9c69d2a47ea670b442974b53935d1edc7fd64eb21e047a839171b60405160405180910390a45050565b303b1590565b600060ca858154811061370b57fe5b60009182526020909120600790910201600481015490915060ff1661372f57600080fd5b600085815260c9602090815260408083206001600160a01b03871684529091529020805485111561375f57600080fd5b613769868561348a565b84156137be57805461377b90866135de565b81558154613793906001600160a01b0316848761399b565b6004810154156137be5760f3546137be908290849060009060019082906001600160a01b03166138e5565b600381015481546000916137d2919061353d565b90506137f464e8d4a51000610cda85600201548461356290919063ffffffff16565b600183015560038301546138149064e8d4a5100090610cda908490613562565b826002018190555086846001600160a01b03167ff279e6a1f5e320cca91135676d9cb6e44ca8a08c0b88342bcdb1144f6511b568886040516138569190614ff5565b60405180910390a350505050505050565b600054610100900460ff168061388057506138806136f6565b8061388e575060005460ff16155b6138aa5760405162461bcd60e51b8152600401610e37906152af565b600054610100900460ff161580156138d5576000805460ff1961ff0019909116610100171660011790555b6138dd6140b2565b6124f1614133565b6003860154600061390788876138ff578960040154613901565b875b8561420d565b9050831561392b57613919818561353d565b60068901805460ff1916600117905590505b875460009061394190606490610cda9085613562565b60038a01819055905085156139725761396861395d84836135de565b60068a0154906135de565b6006890155613990565b61398a61397f82856135de565b60068a01549061353d565b60068901555b505050505050505050565b61187f8363a9059cbb60e01b84846040516024016139ba929190614f9e565b60408051601f198184030181529190526020810180516001600160e01b03166001600160e01b031990931692909217909152614294565b600080600060ca8481548110613a0357fe5b6000918252602090912060079091020180546040516370a0823160e01b81529192506001600160a01b0316906370a0823190613a43903090600401614f4c565b60206040518083038186803b158015613a5b57600080fd5b505afa158015613a6f573d6000803e3d6000fd5b505050506040513d601f19601f82011682018060405250810190613a939190614e66565b613aa4576000809250925050613b54565b60f3546000908190613ac09084906001600160a01b0316614379565b60f3549193509150600090613ae99061271090610cda908690600160a01b900461ffff16613562565b60f354909150600090613b109061271090610cda908690600160a01b900461ffff16613562565b60f454909150613b20908361353d565b60f45560f554613b30908261353d565b60f55560f354613b4e908690839085906001600160a01b0316614531565b50505050505b915091565b60006125478383614641565b6000612547836001600160a01b038416614686565b3b151590565b6000610d9d8261469e565b613bab64e8d4a51000610cda8360020154613ba5866146a2565b90613562565b8260010181905550613bcd64e8d4a51000610cda8360030154613ba5866146a2565b82600201819055505050565b60d9546040516370a0823160e01b81526000916001600160a01b0316906370a0823190613c0a903090600401614f4c565b60206040518083038186803b158015613c2257600080fd5b505afa158015613c36573d6000803e3d6000fd5b505050506040513d601f19601f82011682018060405250810190613c5a9190614e66565b905080821115613cee5760d95460405163a9059cbb60e01b81526001600160a01b039091169063a9059cbb90613c969086908590600401614f9e565b602060405180830381600087803b158015613cb057600080fd5b505af1158015613cc4573d6000803e3d6000fd5b505050506040513d601f19601f82011682018060405250810190613ce89190614c9d565b50613d74565b60d95460405163a9059cbb60e01b81526001600160a01b039091169063a9059cbb90613d209086908690600401614f9e565b602060405180830381600087803b158015613d3a57600080fd5b505af1158015613d4e573d6000803e3d6000fd5b505050506040513d601f19601f82011682018060405250810190613d729190614c9d565b505b60d9546040516370a0823160e01b81526001600160a01b03909116906370a0823190613da4903090600401614f4c565b60206040518083038186803b158015613dbc57600080fd5b505afa158015613dd0573d6000803e3d6000fd5b505050506040513d601f19601f82011682018060405250810190613df49190614e66565b60cf5561187f612194565b60da546040516370a0823160e01b81526000916001600160a01b0316906370a0823190613e30903090600401614f4c565b60206040518083038186803b158015613e4857600080fd5b505afa158015613e5c573d6000803e3d6000fd5b505050506040513d601f19601f82011682018060405250810190613e809190614e66565b905080821115613f145760da5460405163a9059cbb60e01b81526001600160a01b039091169063a9059cbb90613ebc9086908590600401614f9e565b602060405180830381600087803b158015613ed657600080fd5b505af1158015613eea573d6000803e3d6000fd5b505050506040513d601f19601f82011682018060405250810190613f0e9190614c9d565b50613f9a565b60da5460405163a9059cbb60e01b81526001600160a01b039091169063a9059cbb90613f469086908690600401614f9e565b602060405180830381600087803b158015613f6057600080fd5b505af1158015613f74573d6000803e3d6000fd5b505050506040513d601f19601f82011682018060405250810190613f989190614c9d565b505b60da546040516370a0823160e01b81526001600160a01b03909116906370a0823190613fca903090600401614f4c565b60206040518083038186803b158015613fe257600080fd5b505afa158015613ff6573d6000803e3d6000fd5b505050506040513d601f19601f8201168201806040525081019061401a9190614e66565b60d05561187f612b9d565b600081836140465760405162461bcd60e51b8152600401610e379190615048565b50600083858161405257fe5b0495945050505050565b600081848411156140805760405162461bcd60e51b8152600401610e379190615048565b505050900390565b6000612547836001600160a01b0384166146b6565b6000612547836001600160a01b038416614700565b600054610100900460ff16806140cb57506140cb6136f6565b806140d9575060005460ff16155b6140f55760405162461bcd60e51b8152600401610e37906152af565b600054610100900460ff161580156124f1576000805460ff1961ff0019909116610100171660011790558015611627576000805461ff001916905550565b600054610100900460ff168061414c575061414c6136f6565b8061415a575060005460ff16155b6141765760405162461bcd60e51b8152600401610e37906152af565b600054610100900460ff161580156141a1576000805460ff1961ff0019909116610100171660011790555b60006141ab613620565b606580546001600160a01b0319166001600160a01b038316908117909155604051919250906000907f8be0079c531659141344cd1fd0a4f28419497f9722a3daafe3b4186f6b6457e0908290a3508015611627576000805461ff001916905550565b604051636798f19f60e01b81526000906001600160a01b03831690636798f19f9061423c908690600401614ff5565b60206040518083038186803b15801561425457600080fd5b505afa158015614268573d6000803e3d6000fd5b505050506040513d601f19601f8201168201806040525081019061428c9190614e66565b949350505050565b6142a6826001600160a01b03166147c6565b6142c25760405162461bcd60e51b8152600401610e37906153c6565b60006060836001600160a01b0316836040516142de9190614f30565b6000604051808303816000865af19150503d806000811461431b576040519150601f19603f3d011682016040523d82523d6000602084013e614320565b606091505b5091509150816143425760405162461bcd60e51b8152600401610e379061518e565b8051156114db578080602001905181019061435d9190614c9d565b6114db5760405162461bcd60e51b8152600401610e379061537c565b600080600061446b846001600160a01b03166317caf6f16040518163ffffffff1660e01b815260040160206040518083038186803b1580156143ba57600080fd5b505afa1580156143ce573d6000803e3d6000fd5b505050506040513d601f19601f820116820180604052508101906143f29190614e66565b610cda8760010154876001600160a01b031663eded3fda6040518163ffffffff1660e01b815260040160206040518083038186803b15801561443357600080fd5b505afa158015614447573d6000803e3d6000fd5b505050506040513d601f19601f82011682018060405250810190613ba59190614e66565b90506000614524856001600160a01b03166317caf6f16040518163ffffffff1660e01b815260040160206040518083038186803b1580156144ab57600080fd5b505afa1580156144bf573d6000803e3d6000fd5b505050506040513d601f19601f820116820180604052508101906144e39190614e66565b610cda8860010154886001600160a01b0316638b6ff57b6040518163ffffffff1660e01b815260040160206040518083038186803b15801561443357600080fd5b9196919550909350505050565b83546040516370a0823160e01b81526000916001600160a01b0316906370a0823190614561903090600401614f4c565b60206040518083038186803b15801561457957600080fd5b505afa15801561458d573d6000803e3d6000fd5b505050506040513d601f19601f820116820180604052508101906145b19190614e66565b905060006145cc86600601548361353d90919063ffffffff16565b90506000806145db8886614379565b90925090506146056145fa84610cda64e8d4a51000613ba5868d6135de565b60038a01549061353d565b600389015561462f61462484610cda64e8d4a51000613ba5878c6135de565b60028a01549061353d565b88600201819055505050505050505050565b815460009082106146645760405162461bcd60e51b8152600401610e3790615080565b82600001828154811061467357fe5b9060005260206000200154905092915050565b60009081526001919091016020526040902054151590565b5490565b60038101548154600091610d9d919061353d565b60006146c28383614686565b6146f857508154600181810184556000848152602080822090930184905584548482528286019093526040902091909155610d9d565b506000610d9d565b600081815260018301602052604081205480156147bc578354600019808301919081019060009087908390811061473357fe5b906000526020600020015490508087600001848154811061475057fe5b60009182526020808320909101929092558281526001898101909252604090209084019055865487908061478057fe5b60019003818190600052602060002001600090559055866001016000878152602001908152602001600020600090556001945050505050610d9d565b6000915050610d9d565b6000813f7fc5d2460186f7233c927e7db2dcc703c0e500b653ca82273b7bfad8045d85a47081811480159061428c575050151592915050565b6040518060e001604052806000815260200160008152602001600081526020016000815260200160008152602001600081526020016000151581525090565b6040518060c0016040528060006001600160a01b03168152602001600081526020016000815260200160008152602001600015158152602001600081525090565b60405180606001604052806060815260200160008152602001600080191681525090565b8035610d9d8161558a565b600082601f8301126148be578081fd5b81356148d16148cc8261551a565b6154f3565b8181529150602080830190848101818402860182018710156148f257600080fd5b60005b84811015614911578135845292820192908201906001016148f5565b505050505092915050565b600082601f83011261492c578081fd5b813561493a6148cc8261553a565b915080825283602082850101111561495157600080fd5b8060208401602084013760009082016020015292915050565b60006020828403121561497b578081fd5b81356125478161558a565b600060208284031215614997578081fd5b81516125478161558a565b600080604083850312156149b4578081fd5b82356149bf8161558a565b915060208301356149cf8161558a565b809150509250929050565b600080600080608085870312156149ef578182fd5b84356149fa8161558a565b93506020850135614a0a8161558a565b92506040850135614a1a8161558a565b91506060850135614a2a8161558a565b939692955090935050565b600080600080600080600060e0888a031215614a4f578283fd5b8735614a5a8161558a565b9650602088810135614a6b8161558a565b96506040890135614a7b8161558a565b95506060890135614a8b8161558a565b94506080890135614a9b8161558a565b935060a089013567ffffffffffffffff811115614ab6578384fd5b8901601f81018b13614ac6578384fd5b8035614ad46148cc8261551a565b81815283810190838501858402850186018f1015614af0578788fd5b8794505b83851015614b1a57614b068f826148a3565b835260019490940193918501918501614af4565b508096505050505050614b308960c08a016148a3565b905092959891949750929550565b600080600080600060a08688031215614b55578081fd5b8535614b608161558a565b94506020860135614b708161558a565b935060408601359250606086013591506080860135614b8e8161558a565b809150509295509295909350565b60008060408385031215614bae578182fd5b8235614bb98161558a565b946020939093013593505050565b600080600060608486031215614bdb578081fd5b8335614be68161558a565b9250602084013591506040840135614bfd8161558a565b809150509250925092565b600080600060608486031215614c1c578081fd5b8335614c278161558a565b95602085013595506040909401359392505050565b60008060408385031215614c4e578182fd5b823567ffffffffffffffff80821115614c65578384fd5b614c71868387016148ae565b93506020850135915080821115614c86578283fd5b50614c93858286016148ae565b9150509250929050565b600060208284031215614cae578081fd5b81516125478161559f565b600060208284031215614cca578081fd5b5035919050565b60008060408385031215614ce3578182fd5b8235915060208301356149cf8161558a565b60008060408385031215614d07578182fd5b50508035926020909101359150565b600060208284031215614d27578081fd5b813567ffffffffffffffff811115614d3d578182fd5b61428c8482850161491c565b60008060408385031215614d5b578182fd5b823567ffffffffffffffff811115614d71578283fd5b614d7d8582860161491c565b92505060208301356149cf8161558a565b60006020808385031215614da0578182fd5b825167ffffffffffffffff80821115614db7578384fd5b9084019060608287031215614dca578384fd5b614dd460606154f3565b825182811115614de2578586fd5b83019150601f82018713614df4578485fd5b8151614e026148cc8261553a565b8181528886838601011115614e15578687fd5b614e248287830188870161555e565b825250828401519381019390935250604090810151908201529392505050565b600060208284031215614e55578081fd5b813561ffff81168114612547578182fd5b600060208284031215614e77578081fd5b5051919050565b600080600060608486031215614e92578081fd5b833592506020840135614ea48161558a565b91506040840135614bfd8161559f565b60008060408385031215614ec6578182fd5b505080516020909101519092909150565b600080600060608486031215614eeb578081fd5b83359250602084013591506040840135614bfd8161559f565b60008151808452614f1c81602086016020860161555e565b601f01601f19169290920160200192915050565b60008251614f4281846020870161555e565b9190910192915050565b6001600160a01b0391909116815260200190565b6001600160a01b039384168152919092166020820152604081019190915260600190565b6001600160a01b0392831681529116602082015260400190565b6001600160a01b03929092168252602082015260400190565b6001600160a01b03969096168652602086019490945260408501929092526060840152608083015260a082015260c00190565b901515815260200190565b90815260200190565b6001600160e01b031991909116815260200190565b6001600160a01b039690961686526020860194909452604085019290925260608401521515608083015260a082015260c00190565b6000602082526125476020830184614f04565b60006060825261506e6060830186614f04565b60208301949094525060400152919050565b60208082526022908201527f456e756d657261626c655365743a20696e646578206f7574206f6620626f756e604082015261647360f01b606082015260800190565b6020808252602f908201527f416363657373436f6e74726f6c3a2073656e646572206d75737420626520616e60408201526e0818591b5a5b881d1bc819dc985b9d608a1b606082015260800190565b60208082526026908201527f4f776e61626c653a206e6577206f776e657220697320746865207a65726f206160408201526564647265737360d01b606082015260800190565b6020808252601b908201527f536166654d6174683a206164646974696f6e206f766572666c6f770000000000604082015260600190565b6020808252818101527f5361666545524332303a206c6f772d6c6576656c2063616c6c206661696c6564604082015260600190565b6020808252600c908201526b4e6f20616c6c6f77616e636560a01b604082015260600190565b60208082526030908201527f416363657373436f6e74726f6c3a2073656e646572206d75737420626520616e60408201526f2061646d696e20746f207265766f6b6560801b606082015260800190565b60208082526021908201527f536166654d6174683a206d756c7469706c69636174696f6e206f766572666c6f6040820152607760f81b606082015260800190565b6020808252818101527f4f776e61626c653a2063616c6c6572206973206e6f7420746865206f776e6572604082015260600190565b6020808252602e908201527f436f6e747261637420696e7374616e63652068617320616c726561647920626560408201526d195b881a5b9a5d1a585b1a5e995960921b606082015260800190565b60208082526018908201527f4572726f7220706f6f6c20616c72656164792061646465640000000000000000604082015260600190565b6020808252600d908201526c476f76206e6f7420726561647960981b604082015260600190565b6020808252600790820152664d61782031302560c81b604082015260600190565b6020808252602a908201527f5361666545524332303a204552433230206f7065726174696f6e20646964206e6040820152691bdd081cdd58d8d9595960b21b606082015260800190565b6020808252601f908201527f5361666545524332303a2063616c6c20746f206e6f6e2d636f6e747261637400604082015260600190565b6020808252602f908201527f416363657373436f6e74726f6c3a2063616e206f6e6c792072656e6f756e636560408201526e103937b632b9903337b91039b2b63360891b606082015260800190565b600060e082019050825182526020830151602083015260408301516040830152606083015160608301526080830151608083015260a083015160a083015260c0830151151560c083015292915050565b9182526001600160a01b0316602082015260400190565b918252602082015260400190565b968752602087019590955260408601939093526060850191909152608084015260a0830152151560c082015260e00190565b60405181810167ffffffffffffffff8111828210171561551257600080fd5b604052919050565b600067ffffffffffffffff821115615530578081fd5b5060209081020190565b600067ffffffffffffffff821115615550578081fd5b50601f01601f191660200190565b60005b83811015615579578181015183820152602001615561565b838111156114db5750506000910152565b6001600160a01b038116811461162757600080fd5b801515811461162757600080fdfe62ca43aa15f7f495faa685ce5a258aa390fdc8d7094251dd23d32353f496ddfea2646970667358221220f616004a9c8eff0efa3e03d067dc4ebf92faf78954634636b054ad99f653aa2764736f6c634300060c0033",
    "sourcePath": "/Users/225153/Projects/proxy-test/contracts/RAMVault.sol",
    "compiler": {
        "name": "solc",
        "version": "0.6.12+commit.27d51765"
    },
    "functionHashes": {
        "DEFAULT_ADMIN_ROLE()": "a217fddf",
        "MODIFIER_ROLE()": "7575aa8a",
        "RAMVaultStartBlock()": "31db122c",
        "YGYReserve()": "1dbf779e",
        "_NFTs(uint256)": "795d79f5",
        "_RAMToken()": "fa69669c",
        "_WETH()": "e0af3616",
        "_YGYRAMPair()": "2f4f8a7a",
        "_YGYToken()": "f7db38cb",
        "_YGYWETHPair()": "3b24bd4a",
        "_dXIOTToken()": "b81a0b4c",
        "add(uint256,address,bool)": "1eaaa045",
        "addPendingRewards(uint256)": "423d6fa0",
        "addRAMRewardsOwner(uint256)": "3b6a6849",
        "addYGYRewardsOwner(uint256)": "3fe6a278",
        "addressStorageCount(uint256)": "6b42ee55",
        "booleanMapStorageCount(uint256)": "d6cf8021",
        "boostFees()": "09e3de41",
        "boostLevelCosts(uint256)": "469fcdcb",
        "boostLevelMultipliers(uint256)": "bcb49086",
        "burnSuperAdmin()": "934eaa50",
        "checkRewards(uint256,address)": "10178d9c",
        "claimRewards(uint256)": "0962ef79",
        "cumulativeRewardsSinceStart()": "c8ffb873",
        "cumulativeYGYRewardsSinceStart()": "9649d76c",
        "deposit(uint256,uint256)": "e2bbb158",
        "depositFor(address,uint256,uint256)": "4cf5fbf5",
        "devaddr()": "d49e77cd",
        "distributeFees()": "bb57ad20",
        "emergencyWithdraw(uint256)": "5312ea8e",
        "epoch()": "900cf0cf",
        "epochCalculationStartBlock()": "5d577c18",
        "epochRewards(uint256)": "4dc47d34",
        "getAddressStorage(string)": "ee02ea1b",
        "getBooleanMapValue(string,address)": "e671fab5",
        "getBoostLevelCost(uint256)": "6a9d1f6f",
        "getBoostLevelMultiplier(uint256)": "6798f19f",
        "getEpochRewards(uint256)": "5f0c0f2b",
        "getNFTAddress(uint256)": "9d18f773",
        "getNFTProperty(uint256,uint256)": "5498d4c0",
        "getNFTPropertyCount(uint256)": "0a08f1d4",
        "getPoolInfo(uint256)": "2f380b35",
        "getRoleAdmin(bytes32)": "248a9ca3",
        "getRoleMember(bytes32,uint256)": "9010d07c",
        "getRoleMemberCount(bytes32)": "ca15c873",
        "getUserInfo(uint256,address)": "1069f3b5",
        "grantRole(bytes32,address)": "2f2ff15d",
        "hasRole(bytes32,address)": "91d14854",
        "initialize()": "8129fc1c",
        "initialize(address,address)": "485cc955",
        "initializeRAMVault(address,address,address,address)": "36644334",
        "lastTicketLevel(address)": "cc40f664",
        "liquidityContributedEthValue(address)": "ad1414b2",
        "massUpdatePools()": "630b5ba1",
        "newSuperAdmin(address)": "a676860a",
        "nftPropertyChoices(address,uint256)": "58739fc8",
        "onERC721Received(address,address,uint256,uint256,address)": "e8cb20b7",
        "owner()": "8da5cb5b",
        "pendingRewards()": "eded3fda",
        "pendingYGYRewards()": "8b6ff57b",
        "poolInfo(uint256)": "1526fe27",
        "poolLength()": "081e3eda",
        "purchase(uint256,uint256)": "70876c98",
        "ram()": "8f33b5e5",
        "regeneratoraddr()": "7d3b8da1",
        "renounceOwnership()": "715018a6",
        "renounceRole(bytes32,address)": "36568abe",
        "revokeRole(bytes32,address)": "d547741f",
        "rewardsInThisEpoch()": "608c8d3a",
        "set(uint256,uint256,bool)": "64482f79",
        "setAllowanceForPoolToken(address,uint256,uint256)": "dbe0901f",
        "setDevFee(uint16)": "e18cb4fe",
        "setDevFeeReciever(address)": "2d6754e5",
        "setStrategyContractOrDistributionContractAllowance(address,uint256,address)": "c4014588",
        "setTokens(address,address,address,address,address,address[],address)": "a5f8ace8",
        "startNewEpoch()": "3aab0a62",
        "stringToBytes32(string)": "cfb51928",
        "superAdmin()": "29575f6a",
        "teamaddr()": "9a6d2711",
        "ticketCount()": "cfbd900f",
        "tickets(uint256)": "50b44712",
        "totalAllocPoint()": "17caf6f1",
        "transferOwnership(address)": "f2fde38b",
        "transferRAMDevFee()": "7cf75ca3",
        "transferYGYDevFee()": "cc1362ec",
        "uintStorageCount(uint256)": "e941c856",
        "updateBoosts(uint256[],uint256[])": "b2f4b44a",
        "userInfo(uint256,address)": "93f1a40b",
        "withdraw(uint256,uint256)": "441a3e70",
        "withdrawFrom(address,uint256,uint256)": "3a0967cd",
        "ygy()": "fb70c3bf"
    },
    "gasEstimates": {
        "creation": {
            "codeDepositCost": "4403800",
            "executionCost": "5112",
            "totalCost": "4408912"
        },
        "external": {
            "DEFAULT_ADMIN_ROLE()": "384",
            "MODIFIER_ROLE()": "infinite",
            "RAMVaultStartBlock()": "1096",
            "YGYReserve()": "1163",
            "_NFTs(uint256)": "1282",
            "_RAMToken()": "1224",
            "_WETH()": "1137",
            "_YGYRAMPair()": "1227",
            "_YGYToken()": "1202",
            "_YGYWETHPair()": "1248",
            "_dXIOTToken()": "1203",
            "add(uint256,address,bool)": "infinite",
            "addPendingRewards(uint256)": "infinite",
            "addRAMRewardsOwner(uint256)": "infinite",
            "addYGYRewardsOwner(uint256)": "infinite",
            "addressStorageCount(uint256)": "2107",
            "booleanMapStorageCount(uint256)": "2151",
            "boostFees()": "1142",
            "boostLevelCosts(uint256)": "1328",
            "boostLevelMultipliers(uint256)": "1348",
            "burnSuperAdmin()": "23428",
            "checkRewards(uint256,address)": "infinite",
            "claimRewards(uint256)": "infinite",
            "cumulativeRewardsSinceStart()": "1118",
            "cumulativeYGYRewardsSinceStart()": "1118",
            "deposit(uint256,uint256)": "infinite",
            "depositFor(address,uint256,uint256)": "infinite",
            "devaddr()": "1181",
            "distributeFees()": "infinite",
            "emergencyWithdraw(uint256)": "infinite",
            "epoch()": "1140",
            "epochCalculationStartBlock()": "1118",
            "epochRewards(uint256)": "1283",
            "getAddressStorage(string)": "infinite",
            "getBooleanMapValue(string,address)": "infinite",
            "getBoostLevelCost(uint256)": "1260",
            "getBoostLevelMultiplier(uint256)": "1238",
            "getEpochRewards(uint256)": "1283",
            "getNFTAddress(uint256)": "1347",
            "getNFTProperty(uint256,uint256)": "infinite",
            "getNFTPropertyCount(uint256)": "infinite",
            "getPoolInfo(uint256)": "6758",
            "getRoleAdmin(bytes32)": "1356",
            "getRoleMember(bytes32,uint256)": "infinite",
            "getRoleMemberCount(bytes32)": "infinite",
            "getUserInfo(uint256,address)": "6828",
            "grantRole(bytes32,address)": "infinite",
            "hasRole(bytes32,address)": "infinite",
            "initialize()": "infinite",
            "initialize(address,address)": "infinite",
            "initializeRAMVault(address,address,address,address)": "infinite",
            "lastTicketLevel(address)": "1402",
            "liquidityContributedEthValue(address)": "1335",
            "massUpdatePools()": "infinite",
            "newSuperAdmin(address)": "23548",
            "nftPropertyChoices(address,uint256)": "infinite",
            "onERC721Received(address,address,uint256,uint256,address)": "infinite",
            "owner()": "1138",
            "pendingRewards()": "1094",
            "pendingYGYRewards()": "1185",
            "poolInfo(uint256)": "6341",
            "poolLength()": "1098",
            "purchase(uint256,uint256)": "infinite",
            "ram()": "1160",
            "regeneratoraddr()": "1183",
            "renounceOwnership()": "24356",
            "renounceRole(bytes32,address)": "infinite",
            "revokeRole(bytes32,address)": "infinite",
            "rewardsInThisEpoch()": "1162",
            "set(uint256,uint256,bool)": "infinite",
            "setAllowanceForPoolToken(address,uint256,uint256)": "23732",
            "setDevFee(uint16)": "22123",
            "setDevFeeReciever(address)": "22135",
            "setStrategyContractOrDistributionContractAllowance(address,uint256,address)": "infinite",
            "setTokens(address,address,address,address,address,address[],address)": "infinite",
            "startNewEpoch()": "89518",
            "stringToBytes32(string)": "infinite",
            "superAdmin()": "1139",
            "teamaddr()": "1182",
            "ticketCount()": "1117",
            "tickets(uint256)": "5533",
            "totalAllocPoint()": "1141",
            "transferOwnership(address)": "24543",
            "transferRAMDevFee()": "infinite",
            "transferYGYDevFee()": "infinite",
            "uintStorageCount(uint256)": "2173",
            "updateBoosts(uint256[],uint256[])": "infinite",
            "userInfo(uint256,address)": "6457",
            "withdraw(uint256,uint256)": "infinite",
            "withdrawFrom(address,uint256,uint256)": "infinite",
            "ygy()": "1246"
        },
        "internal": {
            "_withdraw(uint256,uint256,address,address)": "infinite",
            "isContract(address)": "718",
            "safeRamTransfer(address,uint256)": "infinite",
            "safeYgyTransfer(address,uint256)": "infinite",
            "updateAndPayOutPending(uint256,address)": "infinite",
            "updatePool(uint256)": "infinite"
        }
    }
}