{
    "contractName": "RAMVault",
    "abi": [
        {
            "anonymous": false,
            "inputs": [
                {
                    "indexed": true,
                    "internalType": "address",
                    "name": "owner",
                    "type": "address"
                },
                {
                    "indexed": true,
                    "internalType": "address",
                    "name": "spender",
                    "type": "address"
                },
                {
                    "indexed": false,
                    "internalType": "uint256",
                    "name": "_pid",
                    "type": "uint256"
                },
                {
                    "indexed": false,
                    "internalType": "uint256",
                    "name": "value",
                    "type": "uint256"
                }
            ],
            "name": "Approval",
            "type": "event"
        },
        {
            "anonymous": false,
            "inputs": [
                {
                    "indexed": true,
                    "internalType": "address",
                    "name": "user",
                    "type": "address"
                },
                {
                    "indexed": true,
                    "internalType": "uint256",
                    "name": "pid",
                    "type": "uint256"
                },
                {
                    "indexed": true,
                    "internalType": "uint256",
                    "name": "level",
                    "type": "uint256"
                }
            ],
            "name": "Boost",
            "type": "event"
        },
        {
            "anonymous": false,
            "inputs": [
                {
                    "indexed": true,
                    "internalType": "address",
                    "name": "user",
                    "type": "address"
                },
                {
                    "indexed": true,
                    "internalType": "uint256",
                    "name": "pid",
                    "type": "uint256"
                },
                {
                    "indexed": false,
                    "internalType": "uint256",
                    "name": "amount",
                    "type": "uint256"
                }
            ],
            "name": "Deposit",
            "type": "event"
        },
        {
            "anonymous": false,
            "inputs": [
                {
                    "indexed": true,
                    "internalType": "address",
                    "name": "user",
                    "type": "address"
                },
                {
                    "indexed": true,
                    "internalType": "uint256",
                    "name": "pid",
                    "type": "uint256"
                },
                {
                    "indexed": false,
                    "internalType": "uint256",
                    "name": "amount",
                    "type": "uint256"
                }
            ],
            "name": "EmergencyWithdraw",
            "type": "event"
        },
        {
            "anonymous": false,
            "inputs": [
                {
                    "indexed": true,
                    "internalType": "address",
                    "name": "previousOwner",
                    "type": "address"
                },
                {
                    "indexed": true,
                    "internalType": "address",
                    "name": "newOwner",
                    "type": "address"
                }
            ],
            "name": "OwnershipTransferred",
            "type": "event"
        },
        {
            "anonymous": false,
            "inputs": [
                {
                    "indexed": false,
                    "internalType": "uint256",
                    "name": "pid",
                    "type": "uint256"
                },
                {
                    "indexed": false,
                    "internalType": "address",
                    "name": "to",
                    "type": "address"
                }
            ],
            "name": "RewardPaid",
            "type": "event"
        },
        {
            "anonymous": false,
            "inputs": [
                {
                    "indexed": true,
                    "internalType": "bytes32",
                    "name": "role",
                    "type": "bytes32"
                },
                {
                    "indexed": true,
                    "internalType": "address",
                    "name": "account",
                    "type": "address"
                },
                {
                    "indexed": true,
                    "internalType": "address",
                    "name": "sender",
                    "type": "address"
                }
            ],
            "name": "RoleGranted",
            "type": "event"
        },
        {
            "anonymous": false,
            "inputs": [
                {
                    "indexed": true,
                    "internalType": "bytes32",
                    "name": "role",
                    "type": "bytes32"
                },
                {
                    "indexed": true,
                    "internalType": "address",
                    "name": "account",
                    "type": "address"
                },
                {
                    "indexed": true,
                    "internalType": "address",
                    "name": "sender",
                    "type": "address"
                }
            ],
            "name": "RoleRevoked",
            "type": "event"
        },
        {
            "anonymous": false,
            "inputs": [
                {
                    "indexed": false,
                    "internalType": "address",
                    "name": "previousOwner",
                    "type": "address"
                },
                {
                    "indexed": false,
                    "internalType": "address",
                    "name": "newOwner",
                    "type": "address"
                }
            ],
            "name": "SuperAdminTransfered",
            "type": "event"
        },
        {
            "anonymous": false,
            "inputs": [
                {
                    "indexed": true,
                    "internalType": "address",
                    "name": "user",
                    "type": "address"
                },
                {
                    "indexed": true,
                    "internalType": "uint256",
                    "name": "pid",
                    "type": "uint256"
                },
                {
                    "indexed": false,
                    "internalType": "uint256",
                    "name": "amount",
                    "type": "uint256"
                }
            ],
            "name": "Withdraw",
            "type": "event"
        },
        {
            "inputs": [],
            "name": "DEFAULT_ADMIN_ROLE",
            "outputs": [
                {
                    "internalType": "bytes32",
                    "name": "",
                    "type": "bytes32"
                }
            ],
            "stateMutability": "view",
            "type": "function"
        },
        {
            "inputs": [],
            "name": "MODIFIER_ROLE",
            "outputs": [
                {
                    "internalType": "bytes32",
                    "name": "",
                    "type": "bytes32"
                }
            ],
            "stateMutability": "view",
            "type": "function"
        },
        {
            "inputs": [],
            "name": "RAMVaultStartBlock",
            "outputs": [
                {
                    "internalType": "uint256",
                    "name": "",
                    "type": "uint256"
                }
            ],
            "stateMutability": "view",
            "type": "function"
        },
        {
            "inputs": [],
            "name": "YGYReserve",
            "outputs": [
                {
                    "internalType": "uint256",
                    "name": "",
                    "type": "uint256"
                }
            ],
            "stateMutability": "view",
            "type": "function"
        },
        {
            "inputs": [
                {
                    "internalType": "uint256",
                    "name": "",
                    "type": "uint256"
                }
            ],
            "name": "_NFTs",
            "outputs": [
                {
                    "internalType": "address",
                    "name": "",
                    "type": "address"
                }
            ],
            "stateMutability": "view",
            "type": "function"
        },
        {
            "inputs": [],
            "name": "_RAMToken",
            "outputs": [
                {
                    "internalType": "address",
                    "name": "",
                    "type": "address"
                }
            ],
            "stateMutability": "view",
            "type": "function"
        },
        {
            "inputs": [],
            "name": "_WETH",
            "outputs": [
                {
                    "internalType": "contract IWETH",
                    "name": "",
                    "type": "address"
                }
            ],
            "stateMutability": "view",
            "type": "function"
        },
        {
            "inputs": [],
            "name": "_YGYRAMPair",
            "outputs": [
                {
                    "internalType": "address",
                    "name": "",
                    "type": "address"
                }
            ],
            "stateMutability": "view",
            "type": "function"
        },
        {
            "inputs": [],
            "name": "_YGYToken",
            "outputs": [
                {
                    "internalType": "address",
                    "name": "",
                    "type": "address"
                }
            ],
            "stateMutability": "view",
            "type": "function"
        },
        {
            "inputs": [],
            "name": "_YGYWETHPair",
            "outputs": [
                {
                    "internalType": "address",
                    "name": "",
                    "type": "address"
                }
            ],
            "stateMutability": "view",
            "type": "function"
        },
        {
            "inputs": [],
            "name": "_dXIOTToken",
            "outputs": [
                {
                    "internalType": "contract IERC20",
                    "name": "",
                    "type": "address"
                }
            ],
            "stateMutability": "view",
            "type": "function"
        },
        {
            "inputs": [
                {
                    "internalType": "uint256",
                    "name": "_allocPoint",
                    "type": "uint256"
                },
                {
                    "internalType": "contract IERC20",
                    "name": "_token",
                    "type": "address"
                },
                {
                    "internalType": "bool",
                    "name": "_withdrawable",
                    "type": "bool"
                }
            ],
            "name": "add",
            "outputs": [],
            "stateMutability": "nonpayable",
            "type": "function"
        },
        {
            "inputs": [
                {
                    "internalType": "uint256",
                    "name": "_amount",
                    "type": "uint256"
                }
            ],
            "name": "addPendingRewards",
            "outputs": [],
            "stateMutability": "nonpayable",
            "type": "function"
        },
        {
            "inputs": [
                {
                    "internalType": "uint256",
                    "name": "_amount",
                    "type": "uint256"
                }
            ],
            "name": "addRAMRewardsOwner",
            "outputs": [],
            "stateMutability": "nonpayable",
            "type": "function"
        },
        {
            "inputs": [
                {
                    "internalType": "uint256",
                    "name": "_amount",
                    "type": "uint256"
                }
            ],
            "name": "addYGYRewardsOwner",
            "outputs": [],
            "stateMutability": "nonpayable",
            "type": "function"
        },
        {
            "inputs": [
                {
                    "internalType": "uint256",
                    "name": "",
                    "type": "uint256"
                }
            ],
            "name": "addressStorageCount",
            "outputs": [
                {
                    "internalType": "uint256",
                    "name": "",
                    "type": "uint256"
                }
            ],
            "stateMutability": "view",
            "type": "function"
        },
        {
            "inputs": [
                {
                    "internalType": "uint256",
                    "name": "",
                    "type": "uint256"
                }
            ],
            "name": "booleanMapStorageCount",
            "outputs": [
                {
                    "internalType": "uint256",
                    "name": "",
                    "type": "uint256"
                }
            ],
            "stateMutability": "view",
            "type": "function"
        },
        {
            "inputs": [],
            "name": "boostFees",
            "outputs": [
                {
                    "internalType": "uint256",
                    "name": "",
                    "type": "uint256"
                }
            ],
            "stateMutability": "view",
            "type": "function"
        },
        {
            "inputs": [
                {
                    "internalType": "uint256",
                    "name": "",
                    "type": "uint256"
                }
            ],
            "name": "boostLevelCosts",
            "outputs": [
                {
                    "internalType": "uint256",
                    "name": "",
                    "type": "uint256"
                }
            ],
            "stateMutability": "view",
            "type": "function"
        },
        {
            "inputs": [
                {
                    "internalType": "uint256",
                    "name": "",
                    "type": "uint256"
                }
            ],
            "name": "boostLevelMultipliers",
            "outputs": [
                {
                    "internalType": "uint256",
                    "name": "",
                    "type": "uint256"
                }
            ],
            "stateMutability": "view",
            "type": "function"
        },
        {
            "inputs": [],
            "name": "burnSuperAdmin",
            "outputs": [],
            "stateMutability": "nonpayable",
            "type": "function"
        },
        {
            "inputs": [
                {
                    "internalType": "uint256",
                    "name": "_pid",
                    "type": "uint256"
                },
                {
                    "internalType": "address",
                    "name": "_user",
                    "type": "address"
                }
            ],
            "name": "checkRewards",
            "outputs": [
                {
                    "internalType": "uint256",
                    "name": "pendingRAM",
                    "type": "uint256"
                },
                {
                    "internalType": "uint256",
                    "name": "pendingYGY",
                    "type": "uint256"
                }
            ],
            "stateMutability": "view",
            "type": "function"
        },
        {
            "inputs": [
                {
                    "internalType": "uint256",
                    "name": "_pid",
                    "type": "uint256"
                }
            ],
            "name": "claimRewards",
            "outputs": [],
            "stateMutability": "nonpayable",
            "type": "function"
        },
        {
            "inputs": [],
            "name": "cumulativeRewardsSinceStart",
            "outputs": [
                {
                    "internalType": "uint256",
                    "name": "",
                    "type": "uint256"
                }
            ],
            "stateMutability": "view",
            "type": "function"
        },
        {
            "inputs": [],
            "name": "cumulativeYGYRewardsSinceStart",
            "outputs": [
                {
                    "internalType": "uint256",
                    "name": "",
                    "type": "uint256"
                }
            ],
            "stateMutability": "view",
            "type": "function"
        },
        {
            "inputs": [
                {
                    "internalType": "uint256",
                    "name": "_pid",
                    "type": "uint256"
                },
                {
                    "internalType": "uint256",
                    "name": "_amount",
                    "type": "uint256"
                }
            ],
            "name": "deposit",
            "outputs": [],
            "stateMutability": "nonpayable",
            "type": "function"
        },
        {
            "inputs": [
                {
                    "internalType": "address",
                    "name": "_depositFor",
                    "type": "address"
                },
                {
                    "internalType": "uint256",
                    "name": "_pid",
                    "type": "uint256"
                },
                {
                    "internalType": "uint256",
                    "name": "_amount",
                    "type": "uint256"
                }
            ],
            "name": "depositFor",
            "outputs": [],
            "stateMutability": "nonpayable",
            "type": "function"
        },
        {
            "inputs": [],
            "name": "devaddr",
            "outputs": [
                {
                    "internalType": "address",
                    "name": "",
                    "type": "address"
                }
            ],
            "stateMutability": "view",
            "type": "function"
        },
        {
            "inputs": [],
            "name": "distributeFees",
            "outputs": [],
            "stateMutability": "nonpayable",
            "type": "function"
        },
        {
            "inputs": [
                {
                    "internalType": "uint256",
                    "name": "_pid",
                    "type": "uint256"
                }
            ],
            "name": "emergencyWithdraw",
            "outputs": [],
            "stateMutability": "nonpayable",
            "type": "function"
        },
        {
            "inputs": [],
            "name": "epoch",
            "outputs": [
                {
                    "internalType": "uint256",
                    "name": "",
                    "type": "uint256"
                }
            ],
            "stateMutability": "view",
            "type": "function"
        },
        {
            "inputs": [],
            "name": "epochCalculationStartBlock",
            "outputs": [
                {
                    "internalType": "uint256",
                    "name": "",
                    "type": "uint256"
                }
            ],
            "stateMutability": "view",
            "type": "function"
        },
        {
            "inputs": [
                {
                    "internalType": "uint256",
                    "name": "",
                    "type": "uint256"
                }
            ],
            "name": "epochRewards",
            "outputs": [
                {
                    "internalType": "uint256",
                    "name": "",
                    "type": "uint256"
                }
            ],
            "stateMutability": "view",
            "type": "function"
        },
        {
            "inputs": [
                {
                    "internalType": "string",
                    "name": "_key",
                    "type": "string"
                }
            ],
            "name": "getAddressStorage",
            "outputs": [
                {
                    "internalType": "address",
                    "name": "",
                    "type": "address"
                }
            ],
            "stateMutability": "view",
            "type": "function"
        },
        {
            "inputs": [
                {
                    "internalType": "string",
                    "name": "_key",
                    "type": "string"
                },
                {
                    "internalType": "address",
                    "name": "_address",
                    "type": "address"
                }
            ],
            "name": "getBooleanMapValue",
            "outputs": [
                {
                    "internalType": "bool",
                    "name": "",
                    "type": "bool"
                }
            ],
            "stateMutability": "view",
            "type": "function"
        },
        {
            "inputs": [
                {
                    "internalType": "uint256",
                    "name": "_level",
                    "type": "uint256"
                }
            ],
            "name": "getBoostLevelCost",
            "outputs": [
                {
                    "internalType": "uint256",
                    "name": "",
                    "type": "uint256"
                }
            ],
            "stateMutability": "view",
            "type": "function"
        },
        {
            "inputs": [
                {
                    "internalType": "uint256",
                    "name": "_level",
                    "type": "uint256"
                }
            ],
            "name": "getBoostLevelMultiplier",
            "outputs": [
                {
                    "internalType": "uint256",
                    "name": "",
                    "type": "uint256"
                }
            ],
            "stateMutability": "view",
            "type": "function"
        },
        {
            "inputs": [
                {
                    "internalType": "uint256",
                    "name": "_epoch",
                    "type": "uint256"
                }
            ],
            "name": "getEpochRewards",
            "outputs": [
                {
                    "internalType": "uint256",
                    "name": "",
                    "type": "uint256"
                }
            ],
            "stateMutability": "view",
            "type": "function"
        },
        {
            "inputs": [
                {
                    "internalType": "uint256",
                    "name": "_contractId",
                    "type": "uint256"
                }
            ],
            "name": "getNFTAddress",
            "outputs": [
                {
                    "internalType": "address",
                    "name": "",
                    "type": "address"
                }
            ],
            "stateMutability": "view",
            "type": "function"
        },
        {
            "inputs": [
                {
                    "internalType": "uint256",
                    "name": "_contractId",
                    "type": "uint256"
                },
                {
                    "internalType": "uint256",
                    "name": "_index",
                    "type": "uint256"
                }
            ],
            "name": "getNFTProperty",
            "outputs": [
                {
                    "internalType": "string",
                    "name": "",
                    "type": "string"
                },
                {
                    "internalType": "uint256",
                    "name": "",
                    "type": "uint256"
                },
                {
                    "internalType": "bytes32",
                    "name": "",
                    "type": "bytes32"
                }
            ],
            "stateMutability": "view",
            "type": "function"
        },
        {
            "inputs": [
                {
                    "internalType": "uint256",
                    "name": "_contractId",
                    "type": "uint256"
                }
            ],
            "name": "getNFTPropertyCount",
            "outputs": [
                {
                    "internalType": "uint256",
                    "name": "",
                    "type": "uint256"
                }
            ],
            "stateMutability": "view",
            "type": "function"
        },
        {
            "inputs": [
                {
                    "internalType": "uint256",
                    "name": "_poolId",
                    "type": "uint256"
                }
            ],
            "name": "getPoolInfo",
            "outputs": [
                {
                    "internalType": "contract IERC20",
                    "name": "_token",
                    "type": "address"
                },
                {
                    "internalType": "uint256",
                    "name": "_allocPointt",
                    "type": "uint256"
                },
                {
                    "internalType": "uint256",
                    "name": "_accRAMPerShare",
                    "type": "uint256"
                },
                {
                    "internalType": "uint256",
                    "name": "_accYGYPerShare",
                    "type": "uint256"
                },
                {
                    "internalType": "bool",
                    "name": "_withdrawable",
                    "type": "bool"
                },
                {
                    "internalType": "uint256",
                    "name": "_effectiveAdditionalTokensFromBoosts",
                    "type": "uint256"
                }
            ],
            "stateMutability": "view",
            "type": "function"
        },
        {
            "inputs": [
                {
                    "internalType": "bytes32",
                    "name": "role",
                    "type": "bytes32"
                }
            ],
            "name": "getRoleAdmin",
            "outputs": [
                {
                    "internalType": "bytes32",
                    "name": "",
                    "type": "bytes32"
                }
            ],
            "stateMutability": "view",
            "type": "function"
        },
        {
            "inputs": [
                {
                    "internalType": "bytes32",
                    "name": "role",
                    "type": "bytes32"
                },
                {
                    "internalType": "uint256",
                    "name": "index",
                    "type": "uint256"
                }
            ],
            "name": "getRoleMember",
            "outputs": [
                {
                    "internalType": "address",
                    "name": "",
                    "type": "address"
                }
            ],
            "stateMutability": "view",
            "type": "function"
        },
        {
            "inputs": [
                {
                    "internalType": "bytes32",
                    "name": "role",
                    "type": "bytes32"
                }
            ],
            "name": "getRoleMemberCount",
            "outputs": [
                {
                    "internalType": "uint256",
                    "name": "",
                    "type": "uint256"
                }
            ],
            "stateMutability": "view",
            "type": "function"
        },
        {
            "inputs": [
                {
                    "internalType": "bytes32",
                    "name": "role",
                    "type": "bytes32"
                },
                {
                    "internalType": "address",
                    "name": "account",
                    "type": "address"
                }
            ],
            "name": "grantRole",
            "outputs": [],
            "stateMutability": "nonpayable",
            "type": "function"
        },
        {
            "inputs": [
                {
                    "internalType": "bytes32",
                    "name": "role",
                    "type": "bytes32"
                },
                {
                    "internalType": "address",
                    "name": "account",
                    "type": "address"
                }
            ],
            "name": "hasRole",
            "outputs": [
                {
                    "internalType": "bool",
                    "name": "",
                    "type": "bool"
                }
            ],
            "stateMutability": "view",
            "type": "function"
        },
        {
            "inputs": [
                {
                    "internalType": "address",
                    "name": "_storageAddr",
                    "type": "address"
                },
                {
                    "internalType": "address",
                    "name": "superAdmin",
                    "type": "address"
                }
            ],
            "name": "initialize",
            "outputs": [],
            "stateMutability": "nonpayable",
            "type": "function"
        },
        {
            "inputs": [],
            "name": "initialize",
            "outputs": [],
            "stateMutability": "nonpayable",
            "type": "function"
        },
        {
            "inputs": [
                {
                    "internalType": "address",
                    "name": "_ram",
                    "type": "address"
                },
                {
                    "internalType": "address",
                    "name": "_ygy",
                    "type": "address"
                },
                {
                    "internalType": "address",
                    "name": "_teamaddr",
                    "type": "address"
                },
                {
                    "internalType": "address",
                    "name": "_regeneratoraddr",
                    "type": "address"
                }
            ],
            "name": "initializeRAMVault",
            "outputs": [],
            "stateMutability": "nonpayable",
            "type": "function"
        },
        {
            "inputs": [
                {
                    "internalType": "address",
                    "name": "",
                    "type": "address"
                }
            ],
            "name": "lastTicketLevel",
            "outputs": [
                {
                    "internalType": "uint256",
                    "name": "",
                    "type": "uint256"
                }
            ],
            "stateMutability": "view",
            "type": "function"
        },
        {
            "inputs": [
                {
                    "internalType": "address",
                    "name": "",
                    "type": "address"
                }
            ],
            "name": "liquidityContributedEthValue",
            "outputs": [
                {
                    "internalType": "uint256",
                    "name": "",
                    "type": "uint256"
                }
            ],
            "stateMutability": "view",
            "type": "function"
        },
        {
            "inputs": [],
            "name": "massUpdatePools",
            "outputs": [],
            "stateMutability": "nonpayable",
            "type": "function"
        },
        {
            "inputs": [
                {
                    "internalType": "address",
                    "name": "newOwner",
                    "type": "address"
                }
            ],
            "name": "newSuperAdmin",
            "outputs": [],
            "stateMutability": "nonpayable",
            "type": "function"
        },
        {
            "inputs": [
                {
                    "internalType": "address",
                    "name": "",
                    "type": "address"
                },
                {
                    "internalType": "uint256",
                    "name": "",
                    "type": "uint256"
                }
            ],
            "name": "nftPropertyChoices",
            "outputs": [
                {
                    "internalType": "string",
                    "name": "pType",
                    "type": "string"
                },
                {
                    "internalType": "uint256",
                    "name": "pValue",
                    "type": "uint256"
                },
                {
                    "internalType": "bytes32",
                    "name": "extra",
                    "type": "bytes32"
                }
            ],
            "stateMutability": "view",
            "type": "function"
        },
        {
            "inputs": [
                {
                    "internalType": "address",
                    "name": "_caller",
                    "type": "address"
                },
                {
                    "internalType": "address",
                    "name": "_previousOwner",
                    "type": "address"
                },
                {
                    "internalType": "uint256",
                    "name": "_tokenId",
                    "type": "uint256"
                },
                {
                    "internalType": "uint256",
                    "name": "_poolId",
                    "type": "uint256"
                },
                {
                    "internalType": "address",
                    "name": "_contractAddress",
                    "type": "address"
                }
            ],
            "name": "onERC721Received",
            "outputs": [
                {
                    "internalType": "bytes4",
                    "name": "",
                    "type": "bytes4"
                }
            ],
            "stateMutability": "nonpayable",
            "type": "function"
        },
        {
            "inputs": [],
            "name": "owner",
            "outputs": [
                {
                    "internalType": "address",
                    "name": "",
                    "type": "address"
                }
            ],
            "stateMutability": "view",
            "type": "function"
        },
        {
            "inputs": [],
            "name": "pendingRewards",
            "outputs": [
                {
                    "internalType": "uint256",
                    "name": "",
                    "type": "uint256"
                }
            ],
            "stateMutability": "view",
            "type": "function"
        },
        {
            "inputs": [],
            "name": "pendingYGYRewards",
            "outputs": [
                {
                    "internalType": "uint256",
                    "name": "",
                    "type": "uint256"
                }
            ],
            "stateMutability": "view",
            "type": "function"
        },
        {
            "inputs": [
                {
                    "internalType": "uint256",
                    "name": "",
                    "type": "uint256"
                }
            ],
            "name": "poolInfo",
            "outputs": [
                {
                    "internalType": "contract IERC20",
                    "name": "token",
                    "type": "address"
                },
                {
                    "internalType": "uint256",
                    "name": "allocPoint",
                    "type": "uint256"
                },
                {
                    "internalType": "uint256",
                    "name": "accRAMPerShare",
                    "type": "uint256"
                },
                {
                    "internalType": "uint256",
                    "name": "accYGYPerShare",
                    "type": "uint256"
                },
                {
                    "internalType": "bool",
                    "name": "withdrawable",
                    "type": "bool"
                },
                {
                    "internalType": "uint256",
                    "name": "effectiveAdditionalTokensFromBoosts",
                    "type": "uint256"
                }
            ],
            "stateMutability": "view",
            "type": "function"
        },
        {
            "inputs": [],
            "name": "poolLength",
            "outputs": [
                {
                    "internalType": "uint256",
                    "name": "",
                    "type": "uint256"
                }
            ],
            "stateMutability": "view",
            "type": "function"
        },
        {
            "inputs": [
                {
                    "internalType": "uint256",
                    "name": "_pid",
                    "type": "uint256"
                },
                {
                    "internalType": "uint256",
                    "name": "_level",
                    "type": "uint256"
                }
            ],
            "name": "purchase",
            "outputs": [],
            "stateMutability": "nonpayable",
            "type": "function"
        },
        {
            "inputs": [],
            "name": "ram",
            "outputs": [
                {
                    "internalType": "contract INBUNIERC20",
                    "name": "",
                    "type": "address"
                }
            ],
            "stateMutability": "view",
            "type": "function"
        },
        {
            "inputs": [],
            "name": "regeneratoraddr",
            "outputs": [
                {
                    "internalType": "address",
                    "name": "",
                    "type": "address"
                }
            ],
            "stateMutability": "view",
            "type": "function"
        },
        {
            "inputs": [],
            "name": "renounceOwnership",
            "outputs": [],
            "stateMutability": "nonpayable",
            "type": "function"
        },
        {
            "inputs": [
                {
                    "internalType": "bytes32",
                    "name": "role",
                    "type": "bytes32"
                },
                {
                    "internalType": "address",
                    "name": "account",
                    "type": "address"
                }
            ],
            "name": "renounceRole",
            "outputs": [],
            "stateMutability": "nonpayable",
            "type": "function"
        },
        {
            "inputs": [
                {
                    "internalType": "bytes32",
                    "name": "role",
                    "type": "bytes32"
                },
                {
                    "internalType": "address",
                    "name": "account",
                    "type": "address"
                }
            ],
            "name": "revokeRole",
            "outputs": [],
            "stateMutability": "nonpayable",
            "type": "function"
        },
        {
            "inputs": [],
            "name": "rewardsInThisEpoch",
            "outputs": [
                {
                    "internalType": "uint256",
                    "name": "",
                    "type": "uint256"
                }
            ],
            "stateMutability": "view",
            "type": "function"
        },
        {
            "inputs": [
                {
                    "internalType": "uint256",
                    "name": "_pid",
                    "type": "uint256"
                },
                {
                    "internalType": "uint256",
                    "name": "_allocPoint",
                    "type": "uint256"
                },
                {
                    "internalType": "bool",
                    "name": "_withdrawable",
                    "type": "bool"
                }
            ],
            "name": "set",
            "outputs": [],
            "stateMutability": "nonpayable",
            "type": "function"
        },
        {
            "inputs": [
                {
                    "internalType": "address",
                    "name": "spender",
                    "type": "address"
                },
                {
                    "internalType": "uint256",
                    "name": "_pid",
                    "type": "uint256"
                },
                {
                    "internalType": "uint256",
                    "name": "value",
                    "type": "uint256"
                }
            ],
            "name": "setAllowanceForPoolToken",
            "outputs": [],
            "stateMutability": "nonpayable",
            "type": "function"
        },
        {
            "inputs": [
                {
                    "internalType": "uint16",
                    "name": "_DEV_FEE",
                    "type": "uint16"
                }
            ],
            "name": "setDevFee",
            "outputs": [],
            "stateMutability": "nonpayable",
            "type": "function"
        },
        {
            "inputs": [
                {
                    "internalType": "address",
                    "name": "_devaddr",
                    "type": "address"
                }
            ],
            "name": "setDevFeeReciever",
            "outputs": [],
            "stateMutability": "nonpayable",
            "type": "function"
        },
        {
            "inputs": [
                {
                    "internalType": "address",
                    "name": "tokenAddress",
                    "type": "address"
                },
                {
                    "internalType": "uint256",
                    "name": "_amount",
                    "type": "uint256"
                },
                {
                    "internalType": "address",
                    "name": "contractAddress",
                    "type": "address"
                }
            ],
            "name": "setStrategyContractOrDistributionContractAllowance",
            "outputs": [],
            "stateMutability": "nonpayable",
            "type": "function"
        },
        {
            "inputs": [
                {
                    "internalType": "address",
                    "name": "RAMToken",
                    "type": "address"
                },
                {
                    "internalType": "address",
                    "name": "YGYToken",
                    "type": "address"
                },
                {
                    "internalType": "address",
                    "name": "WETH",
                    "type": "address"
                },
                {
                    "internalType": "address",
                    "name": "YGYRAMPair",
                    "type": "address"
                },
                {
                    "internalType": "address",
                    "name": "YGYWethPair",
                    "type": "address"
                },
                {
                    "internalType": "address[]",
                    "name": "nfts",
                    "type": "address[]"
                },
                {
                    "internalType": "address",
                    "name": "dXIOTToken",
                    "type": "address"
                }
            ],
            "name": "setTokens",
            "outputs": [],
            "stateMutability": "nonpayable",
            "type": "function"
        },
        {
            "inputs": [],
            "name": "startNewEpoch",
            "outputs": [],
            "stateMutability": "nonpayable",
            "type": "function"
        },
        {
            "inputs": [
                {
                    "internalType": "string",
                    "name": "source",
                    "type": "string"
                }
            ],
            "name": "stringToBytes32",
            "outputs": [
                {
                    "internalType": "bytes32",
                    "name": "result",
                    "type": "bytes32"
                }
            ],
            "stateMutability": "pure",
            "type": "function"
        },
        {
            "inputs": [],
            "name": "superAdmin",
            "outputs": [
                {
                    "internalType": "address",
                    "name": "",
                    "type": "address"
                }
            ],
            "stateMutability": "view",
            "type": "function"
        },
        {
            "inputs": [],
            "name": "teamaddr",
            "outputs": [
                {
                    "internalType": "address",
                    "name": "",
                    "type": "address"
                }
            ],
            "stateMutability": "view",
            "type": "function"
        },
        {
            "inputs": [],
            "name": "ticketCount",
            "outputs": [
                {
                    "internalType": "uint256",
                    "name": "",
                    "type": "uint256"
                }
            ],
            "stateMutability": "view",
            "type": "function"
        },
        {
            "inputs": [
                {
                    "internalType": "uint256",
                    "name": "",
                    "type": "uint256"
                }
            ],
            "name": "tickets",
            "outputs": [
                {
                    "internalType": "address",
                    "name": "owner",
                    "type": "address"
                },
                {
                    "internalType": "uint256",
                    "name": "levelOneChance",
                    "type": "uint256"
                },
                {
                    "internalType": "uint256",
                    "name": "levelTwoChance",
                    "type": "uint256"
                },
                {
                    "internalType": "uint256",
                    "name": "levelThreeChance",
                    "type": "uint256"
                },
                {
                    "internalType": "uint256",
                    "name": "levelFourChance",
                    "type": "uint256"
                },
                {
                    "internalType": "uint256",
                    "name": "levelFiveChance",
                    "type": "uint256"
                }
            ],
            "stateMutability": "view",
            "type": "function"
        },
        {
            "inputs": [],
            "name": "totalAllocPoint",
            "outputs": [
                {
                    "internalType": "uint256",
                    "name": "",
                    "type": "uint256"
                }
            ],
            "stateMutability": "view",
            "type": "function"
        },
        {
            "inputs": [
                {
                    "internalType": "address",
                    "name": "newOwner",
                    "type": "address"
                }
            ],
            "name": "transferOwnership",
            "outputs": [],
            "stateMutability": "nonpayable",
            "type": "function"
        },
        {
            "inputs": [],
            "name": "transferRAMDevFee",
            "outputs": [],
            "stateMutability": "nonpayable",
            "type": "function"
        },
        {
            "inputs": [],
            "name": "transferYGYDevFee",
            "outputs": [],
            "stateMutability": "nonpayable",
            "type": "function"
        },
        {
            "inputs": [
                {
                    "internalType": "uint256",
                    "name": "",
                    "type": "uint256"
                }
            ],
            "name": "uintStorageCount",
            "outputs": [
                {
                    "internalType": "uint256",
                    "name": "",
                    "type": "uint256"
                }
            ],
            "stateMutability": "view",
            "type": "function"
        },
        {
            "inputs": [
                {
                    "internalType": "uint256[]",
                    "name": "_boostMultipliers",
                    "type": "uint256[]"
                },
                {
                    "internalType": "uint256[]",
                    "name": "_boostCosts",
                    "type": "uint256[]"
                }
            ],
            "name": "updateBoosts",
            "outputs": [],
            "stateMutability": "nonpayable",
            "type": "function"
        },
        {
            "inputs": [
                {
                    "internalType": "uint256",
                    "name": "",
                    "type": "uint256"
                },
                {
                    "internalType": "address",
                    "name": "",
                    "type": "address"
                }
            ],
            "name": "userInfo",
            "outputs": [
                {
                    "internalType": "uint256",
                    "name": "amount",
                    "type": "uint256"
                },
                {
                    "internalType": "uint256",
                    "name": "rewardDebt",
                    "type": "uint256"
                },
                {
                    "internalType": "uint256",
                    "name": "rewardDebtYGY",
                    "type": "uint256"
                },
                {
                    "internalType": "uint256",
                    "name": "boostAmount",
                    "type": "uint256"
                },
                {
                    "internalType": "uint256",
                    "name": "boostLevel",
                    "type": "uint256"
                },
                {
                    "internalType": "uint256",
                    "name": "spentMultiplierTokens",
                    "type": "uint256"
                },
                {
                    "internalType": "bool",
                    "name": "hasNFTBoostApplied",
                    "type": "bool"
                }
            ],
            "stateMutability": "view",
            "type": "function"
        },
        {
            "inputs": [
                {
                    "internalType": "uint256",
                    "name": "_pid",
                    "type": "uint256"
                },
                {
                    "internalType": "uint256",
                    "name": "_amount",
                    "type": "uint256"
                }
            ],
            "name": "withdraw",
            "outputs": [],
            "stateMutability": "nonpayable",
            "type": "function"
        },
        {
            "inputs": [
                {
                    "internalType": "address",
                    "name": "owner",
                    "type": "address"
                },
                {
                    "internalType": "uint256",
                    "name": "_pid",
                    "type": "uint256"
                },
                {
                    "internalType": "uint256",
                    "name": "_amount",
                    "type": "uint256"
                }
            ],
            "name": "withdrawFrom",
            "outputs": [],
            "stateMutability": "nonpayable",
            "type": "function"
        },
        {
            "inputs": [],
            "name": "ygy",
            "outputs": [
                {
                    "internalType": "contract IERC20",
                    "name": "",
                    "type": "address"
                }
            ],
            "stateMutability": "view",
            "type": "function"
        }
    ],
    "bytecode": "608060405234801561001057600080fd5b506154c3806100206000396000f3fe608060405234801561001057600080fd5b50600436106104ee5760003560e01c80637cf75ca31161028e578063c401458811610167578063e0af3616116100d9578063eded3fda11610092578063eded3fda14610a62578063ee02ea1b14610a6a578063f2fde38b14610a7d578063f7db38cb14610a90578063fa69669c14610a98578063fb70c3bf14610aa0576104ee565b8063e0af3616146109ee578063e18cb4fe146109f6578063e2bbb15814610a09578063e671fab514610a1c578063e8cb20b714610a2f578063e941c85614610a4f576104ee565b8063cfb519281161012b578063cfb5192814610992578063cfbd900f146109a5578063d49e77cd146109ad578063d547741f146109b5578063d6cf8021146109c8578063dbe0901f146109db576104ee565b8063c401458814610949578063c8ffb8731461095c578063ca15c87314610964578063cc1362ec14610977578063cc40f6641461097f576104ee565b80639649d76c11610200578063a676860a116101c4578063a676860a146108ed578063ad1414b214610900578063b2f4b44a14610913578063b81a0b4c14610926578063bb57ad201461092e578063bcb4908614610936576104ee565b80639649d76c146108af5780639a6d2711146108b75780639d18f773146108bf578063a217fddf146108d2578063a5f8ace8146108da576104ee565b80638f33b5e5116102525780638f33b5e51461083e578063900cf0cf146108465780639010d07c1461084e57806391d1485414610861578063934eaa501461088157806393f1a40b14610889576104ee565b80637cf75ca3146108165780637d3b8da11461081e5780638129fc1c146108265780638b6ff57b1461082e5780638da5cb5b14610836576104ee565b80633fe6a278116103cb5780635d577c181161033d5780636a9d1f6f116102f65780636a9d1f6f146107ba5780636b42ee55146107cd57806370876c98146107e0578063715018a6146107f35780637575aa8a146107fb578063795d79f514610803576104ee565b80635d577c18146107695780635f0c0f2b14610771578063608c8d3a14610784578063630b5ba11461078c57806364482f79146107945780636798f19f146107a7576104ee565b80634cf5fbf51161038f5780634cf5fbf5146106d65780634dc47d34146106e957806350b44712146106fc5780635312ea8e146107215780635498d4c01461073457806358739fc814610756576104ee565b80633fe6a27814610677578063423d6fa01461068a578063441a3e701461069d578063469fcdcb146106b0578063485cc955146106c3576104ee565b80632d6754e51161046457806336568abe1161042857806336568abe1461061b578063366443341461062e5780633a0967cd146106415780633aab0a62146106545780633b24bd4a1461065c5780633b6a684914610664576104ee565b80632d6754e5146105d25780632f2ff15d146105e55780632f380b35146105f85780632f4f8a7a1461060b57806331db122c14610613576104ee565b80631526fe27116104b65780631526fe271461056257806317caf6f1146105875780631dbf779e1461058f5780631eaaa04514610597578063248a9ca3146105aa57806329575f6a146105bd576104ee565b8063081e3eda146104f35780630962ef791461051157806309e3de41146105265780630a08f1d41461052e57806310178d9c14610541575b600080fd5b6104fb610aa8565b6040516105089190614f05565b60405180910390f35b61052461051f366004614bc9565b610aae565b005b6104fb610af4565b6104fb61053c366004614bc9565b610afa565b61055461054f366004614be1565b610c21565b604051610508929190615373565b610575610570366004614bc9565b610cf3565b60405161050896959493929190614f23565b6104fb610d46565b6104fb610d4c565b6105246105a5366004614d8e565b610d52565b6104fb6105b8366004614bc9565b610f65565b6105c5610f7a565b6040516105089190614e5c565b6105246105e036600461487a565b610f89565b6105246105f3366004614be1565b610fe0565b610575610606366004614bc9565b611028565b6105c56110c8565b6104fb6110d7565b610524610629366004614be1565b6110dd565b61052461063c3660046148ea565b61111f565b61052461064f366004614b18565b61135f565b610524611431565b6105c561147d565b610524610672366004614bc9565b61148c565b610524610685366004614bc9565b61157a565b610524610698366004614bc9565b611657565b6105246106ab366004614c05565b6116df565b6104fb6106be366004614bc9565b6116eb565b6105246106d13660046148b2565b6116fd565b6105246106e4366004614b18565b6117d4565b6104fb6106f7366004614bc9565b61198a565b61070f61070a366004614bc9565b61199c565b60405161050896959493929190614ec7565b61052461072f366004614bc9565b6119db565b610747610742366004614c05565b611a9a565b60405161050893929190614f6b565b610747610764366004614aac565b611bc4565b6104fb611c8c565b6104fb61077f366004614bc9565b611c92565b6104fb611ca4565b610524611caa565b6105246107a2366004614de7565b611d15565b6104fb6107b5366004614bc9565b611ded565b6104fb6107c8366004614bc9565b611dff565b6104fb6107db366004614bc9565b611e11565b6105246107ee366004614c05565b611e2f565b610524612038565b6104fb6120b7565b6105c5610811366004614bc9565b6120c9565b6105246120e4565b6105c561238f565b61052461239e565b6104fb612455565b6105c561245b565b6105c561246a565b6104fb612479565b6105c561085c366004614c05565b61247f565b61087461086f366004614be1565b6124a0565b6040516105089190614efa565b6105246124b8565b61089c610897366004614be1565b612527565b6040516105089796959493929190615381565b6104fb612572565b6105c5612578565b6105c56108cd366004614bc9565b612587565b6104fb6125a2565b6105246108e8366004614945565b6125a7565b6105246108fb36600461487a565b612692565b6104fb61090e36600461487a565b61271a565b610524610921366004614b4c565b61272c565b6105c56127cb565b6105246127da565b6104fb610944366004614bc9565b6129df565b610524610957366004614ad7565b6129f1565b6104fb612ad2565b6104fb610972366004614bc9565b612ad8565b610524612aef565b6104fb61098d36600461487a565b612d99565b6104fb6109a0366004614c26565b612dab565b6104fb612dc9565b6105c5612dcf565b6105246109c3366004614be1565b612dde565b6104fb6109d6366004614bc9565b612e18565b6105246109e9366004614b18565b612e25565b6105c5612ead565b610524610a04366004614d54565b612ebc565b610524610a17366004614c05565b612f39565b610874610a2a366004614c59565b613085565b610a42610a3d366004614a4e565b6130b9565b6040516105089190614f0e565b6104fb610a5d366004614bc9565b6132b7565b6104fb6132c4565b6105c5610a78366004614c26565b6132ca565b610524610a8b36600461487a565b6132f5565b6105c56133ac565b6105c56133bb565b6105c56133ca565b60ca5490565b610ab881336133d9565b7fc05cbf47ef4152ea1b2446fb1ba8eb9c7285054d9c85f2f52c294200d8d1d38b8133604051610ae992919061535c565b60405180910390a150565b60e15481565b600081815260e960209081526040808320546001600160a01b031680845260ea8352818420805483518186028101860190945280845291936060939290869084015b82821015610c115760008481526020908190206040805160038602909201805460026001821615610100026000190190911604601f8101859004909402830160809081019092526060830184815292939092849290918491840182828015610be55780601f10610bba57610100808354040283529160200191610be5565b820191906000526020600020905b815481529060010190602001808311610bc857829003601f168201915b505050505081526020016001820154815260200160028201548152505081526020019060010190610b3c565b505091519450505050505b919050565b600080600060ca8581548110610c3357fe5b6000918252602080832088845260c9825260408085206001600160a01b038a16865290925290832060038101548154600790940290920194509291610c779161348c565b905060008084600301541115610cbe57610cbb8360020154610cb564e8d4a51000610caf8860030154876134b190919063ffffffff16565b906134eb565b9061352d565b90505b610ce68360010154610cb564e8d4a51000610caf8860020154876134b190919063ffffffff16565b9890975095505050505050565b60ca8181548110610d0057fe5b60009182526020909120600790910201805460018201546002830154600384015460048501546006909501546001600160a01b0390941695509193909260ff9091169086565b60cb5481565b60ce5481565b610d5a61356f565b6065546001600160a01b03908116911614610d905760405162461bcd60e51b8152600401610d879061518a565b60405180910390fd5b610d98611caa565b60005b60ca54811015610dfc57826001600160a01b031660ca8281548110610dbc57fe5b60009182526020909120600790910201546001600160a01b03161415610df45760405162461bcd60e51b8152600401610d879061520d565b600101610d9b565b5060cb54610e0a908461348c565b60cb556040805160c0810182526001600160a01b039384168152602081019485526000918101828152606082018381529315156080830190815260a0830184815260ca8054600181018255955292517f42d72674974f694b5f5159593243114d38a5c39c89d6b62fee061ff523240ee1600790950294850180546001600160a01b031916919097161790955594517f42d72674974f694b5f5159593243114d38a5c39c89d6b62fee061ff523240ee283015593517f42d72674974f694b5f5159593243114d38a5c39c89d6b62fee061ff523240ee382015590517f42d72674974f694b5f5159593243114d38a5c39c89d6b62fee061ff523240ee482015590517f42d72674974f694b5f5159593243114d38a5c39c89d6b62fee061ff523240ee58201805460ff191691151591909117905590517f42d72674974f694b5f5159593243114d38a5c39c89d6b62fee061ff523240ee790910155565b60009081526097602052604090206002015490565b60f7546001600160a01b031690565b610f9161356f565b6065546001600160a01b03908116911614610fbe5760405162461bcd60e51b8152600401610d879061518a565b60f280546001600160a01b0319166001600160a01b0392909216919091179055565b600082815260976020526040902060020154610ffe9061086f61356f565b61101a5760405162461bcd60e51b8152600401610d8790614fd2565b6110248282613573565b5050565b60008060008060008061103961474e565b60ca888154811061104657fe5b60009182526020918290206040805160c08101825260079390930290910180546001600160a01b031680845260018201549484018590526002820154928401839052600382015460608501819052600483015460ff1615156080860181905260069093015460a0909501859052909d949c50919a509098509650945092505050565b60db546001600160a01b031681565b60d15481565b6110e561356f565b6001600160a01b0316816001600160a01b0316146111155760405162461bcd60e51b8152600401610d879061530d565b61102482826135dc565b600054610100900460ff16806111385750611138613645565b80611146575060005460ff16155b6111625760405162461bcd60e51b8152600401610d87906151bf565b600054610100900460ff1615801561118d576000805460ff1961ff0019909116610100171660011790555b6111a760008051602061546e83398151915261086f61356f565b6111b057600080fd5b60d980546001600160a01b038088166001600160a01b03199283161790925560da805487841690831617905560d8805486841690831617905560d78054928516929091169190911790554360d155674563918244f400007f30056815db4f2a630cfabf02667a38e3880aea5244187f7a83447df0f50fae7e5567d02ab486cedc00007f93c4bb6c0f2d824ad6efe8cc0ae6b5db7c1733a451e85fc0df8735d769377a3f556801a055690d9db800007fa840fbb79f21adf16d4f64c6fefec4671eee0ed4b74aabeb944158f632e4480055680340aad21b3b7000007fc0fcfbe25ae0350683c39d2a28523a539ce7452e2fd44451a32a75e038a003bf5560e360205260057fa71a5dc6523a2d0bf383648e732f9cbd05fb5cd75a9c44758106b038b320de3655600f7f943c16c606a37eaf2ffde50503ea170bf4838709828ded1135a1486c90b7e0ee55601e7f16856fcf46d514fe62f26b23afa013e951c313a821ce2c3eaba8a78d946060a8556004600052603c7f7f84c93ccfe82de4803f900144a81b2660ffe15f75cd8fd5ba5ab2f905ff42ad558015611358576000805461ff00191690555b5050505050565b600060ca838154811061136e57fe5b600091825260208083206001600160a01b0388168452600560079093020191820181526040808420338552909152909120549091508211156113c25760405162461bcd60e51b8152600401610d87906150d3565b6001600160a01b038416600090815260058201602090815260408083203384529091529020546113f2908361352d565b6001600160a01b038516600090815260058301602090815260408083203380855292529091209190915561142b9084908490879061364b565b50505050565b4360d25461c350011061144357600080fd5b60d55460d654600090815260e46020526040902081905560d3546114669161348c565b60d355600060d5554360d25560d680546001019055565b60dd546001600160a01b031681565b61149461356f565b6065546001600160a01b039081169116146114c15760405162461bcd60e51b8152600401610d879061518a565b60d9546040516323b872dd60e01b81526001600160a01b03909116906323b872dd906114f590339030908690600401614e70565b602060405180830381600087803b15801561150f57600080fd5b505af1158015611523573d6000803e3d6000fd5b505050506040513d601f19601f820116820180604052508101906115479190614bad565b61155057600080fd5b80156115775760cc54611563908261348c565b60cc5560d554611573908261348c565b60d5555b50565b61158261356f565b6065546001600160a01b039081169116146115af5760405162461bcd60e51b8152600401610d879061518a565b60da546040516323b872dd60e01b81526001600160a01b03909116906323b872dd906115e390339030908690600401614e70565b602060405180830381600087803b1580156115fd57600080fd5b505af1158015611611573d6000803e3d6000fd5b505050506040513d601f19601f820116820180604052508101906116359190614bad565b61163e57600080fd5b80156115775760ce54611651908261348c565b60ce5550565b60d9546001600160a01b0316331461166e57600080fd5b60cc5461167b908261348c565b60cc5560d55461168b908261348c565b60d55560ce548110156116bd5760cd546116a5908261348c565b60cd5560ce546116b5908261352d565b60ce55611577565b60ce54156115775760ce5460cd546116d49161348c565b60cd55600060ce5550565b6110248282333361364b565b60e26020526000908152604090205481565b600054610100900460ff16806117165750611716613645565b80611724575060005460ff16155b6117405760405162461bcd60e51b8152600401610d87906151bf565b600054610100900460ff1615801561176b576000805460ff1961ff0019909116610100171660011790555b6117736137b6565b60f4805461ffff60a01b191660b560a21b176001600160a01b03199081166001600160a01b0386811691821790935560f380548316909117905560f7805490911691841691909117905580156117cf576000805461ff00191690555b505050565b600060ca83815481106117e357fe5b6000918252602080832086845260c9825260408085206001600160a01b038a16865290925292206007909102909101915061181e84866133d9565b82156118e25781546040516323b872dd60e01b81526001600160a01b03909116906323b872dd9061185790339030908890600401614e70565b602060405180830381600087803b15801561187157600080fd5b505af1158015611885573d6000803e3d6000fd5b505050506040513d601f19601f820116820180604052508101906118a99190614bad565b5080546118b6908461348c565b81556004810154156118e25760f4546118e29082908490600090819081906001600160a01b0316613834565b600381015481546000916118f6919061348c565b905061191864e8d4a51000610caf8560020154846134b190919063ffffffff16565b600183015560038301546119389064e8d4a5100090610caf9084906134b1565b826002018190555084866001600160a01b03167f90890809c654f11d6e72a28fa60149770a0d11ec6c92319d6ceb2bb0a4ea1a158660405161197a9190614f05565b60405180910390a3505050505050565b60e46020526000908152604090205481565b60e6602052600090815260409020805460018201546002830154600384015460048501546005909501546001600160a01b039094169492939192909186565b600060ca82815481106119ea57fe5b60009182526020909120600790910201600481015490915060ff16611a0e57600080fd5b600082815260c960209081526040808320338085529252909120805483549192611a41926001600160a01b0316916138ea565b8054604051849133917fbb757047c2b5f3974fe26b7c10f732e7bce710b0952a71082702781e62ae059591611a7591614f05565b60405180910390a3600080825560038201819055600182018190556002909101555050565b600082815260e960205260408120546060919081906001600160a01b0316611ac061478f565b6001600160a01b038216600090815260ea60205260409020805487908110611ae457fe5b600091825260209182902060408051600393909302909101805460026001821615610100026000190190911604601f8101859004909402830160809081019092526060830184815292939092849290918491840182828015611b875780601f10611b5c57610100808354040283529160200191611b87565b820191906000526020600020905b815481529060010190602001808311611b6a57829003601f168201915b5050505050815260200160018201548152602001600282015481525050905080600001518160200151826040015194509450945050509250925092565b60ea6020528160005260406000208181548110611bdd57fe5b60009182526020918290206003919091020180546040805160026001841615610100026000190190931692909204601f810185900485028301850190915280825291945092508391830182828015611c765780601f10611c4b57610100808354040283529160200191611c76565b820191906000526020600020905b815481529060010190602001808311611c5957829003601f168201915b5050505050908060010154908060020154905083565b60d25481565b600090815260e4602052604090205490565b60d55481565b60008060005b60ca54811015611cf057600080611cc683613940565b9092509050611cd5858361348c565b9450611ce1848261348c565b93505050806001019050611cb0565b5060cc54611cfe908361352d565b60cc5560cd54611d0e908261352d565b60cd555050565b611d1d61356f565b6065546001600160a01b03908116911614611d4a5760405162461bcd60e51b8152600401610d879061518a565b611d52611caa565b611d8f82611d8960ca8681548110611d6657fe5b90600052602060002090600702016001015460cb5461352d90919063ffffffff16565b9061348c565b60cb819055508160ca8481548110611da357fe5b9060005260206000209060070201600101819055508060ca8481548110611dc657fe5b60009182526020909120600790910201600401805460ff1916911515919091179055505050565b600090815260e3602052604090205490565b600090815260e2602052604090205490565b60ee8181548110611e1e57fe5b600091825260209091200154905081565b600060ca8381548110611e3e57fe5b6000918252602080832086845260c982526040808520338652909252922060048101546007909202909201925083118015611e7a575060048311155b611e8357600080fd5b60f454604051636a9d1f6f60e01b81526000916001600160a01b031690636a9d1f6f90611eb4908790600401614f05565b60206040518083038186803b158015611ecc57600080fd5b505afa158015611ee0573d6000803e3d6000fd5b505050506040513d601f19601f82011682018060405250810190611f049190614d76565b90506000611f1f83600501548361352d90919063ffffffff16565b60d9546040516323b872dd60e01b81529192506001600160a01b0316906323b872dd90611f5490339030908690600401614e70565b602060405180830381600087803b158015611f6e57600080fd5b505af1158015611f82573d6000803e3d6000fd5b505050506040513d601f19601f82011682018060405250810190611fa69190614bad565b611faf57600080fd5b6005830154611fbe908261348c565b600584015560048301859055825415611ff15760f454611ff19084908690889060009081906001600160a01b0316613834565b60e154611ffe908261348c565b60e1556040518590879033907faadc628cb4fd3bb7a62795eb460290459458bdc6f387ffde727c740f42c1833790600090a4505050505050565b61204061356f565b6065546001600160a01b0390811691161461206d5760405162461bcd60e51b8152600401610d879061518a565b6065546040516000916001600160a01b0316907f8be0079c531659141344cd1fd0a4f28419497f9722a3daafe3b4186f6b6457e0908390a3606580546001600160a01b0319169055565b60008051602061546e83398151915281565b60e9602052600090815260409020546001600160a01b031681565b60f5541561238d5760d9546040516370a0823160e01b8152600091829182916001600160a01b0316906370a0823190612121903090600401614e5c565b60206040518083038186803b15801561213957600080fd5b505afa15801561214d573d6000803e3d6000fd5b505050506040513d601f19601f820116820180604052508101906121719190614d76565b90508060f55411156121a65761218d6064610caf8360466134b1565b925061219f6064610caf83601e6134b1565b91506121e1565b6121c16064610caf604660f5546134b190919063ffffffff16565b92506121de6064610caf601e60f5546134b190919063ffffffff16565b91505b82156122715760d95460f25460405163a9059cbb60e01b81526001600160a01b039283169263a9059cbb9261221d929116908790600401614eae565b602060405180830381600087803b15801561223757600080fd5b505af115801561224b573d6000803e3d6000fd5b505050506040513d601f19601f8201168201806040525081019061226f9190614bad565b505b81156123015760d95460d85460405163a9059cbb60e01b81526001600160a01b039283169263a9059cbb926122ad929116908690600401614eae565b602060405180830381600087803b1580156122c757600080fd5b505af11580156122db573d6000803e3d6000fd5b505050506040513d601f19601f820116820180604052508101906122ff9190614bad565b505b60d9546040516370a0823160e01b81526001600160a01b03909116906370a0823190612331903090600401614e5c565b60206040518083038186803b15801561234957600080fd5b505afa15801561235d573d6000803e3d6000fd5b505050506040513d601f19601f820116820180604052508101906123819190614d76565b60cf555050600060f555505b565b60d7546001600160a01b031681565b600054610100900460ff16806123b757506123b7613645565b806123c5575060005460ff16155b6123e15760405162461bcd60e51b8152600401610d87906151bf565b600054610100900460ff1615801561240c576000805460ff1961ff0019909116610100171660011790555b612419600061086f61356f565b61242257600080fd5b61244160008051602061546e83398151915261243c61356f565b61101a565b8015611577576000805461ff001916905550565b60cd5481565b6065546001600160a01b031690565b60d9546001600160a01b031681565b60d65481565b60008281526097602052604081206124979083613aa8565b90505b92915050565b60008281526097602052604081206124979083613ab4565b6124c061356f565b60f7546001600160a01b039081169116146124da57600080fd5b60f780546001600160a01b03191690556040517ff564c40f4f45e62a2c1e6c22e8bfb46501f0f71fa1c72e5358903fa1115a4b649061251d906000908190614e94565b60405180910390a1565b60c96020908152600092835260408084209091529082529020805460018201546002830154600384015460048501546005860154600690960154949593949293919290919060ff1687565b60d45481565b60d8546001600160a01b031681565b600090815260e960205260409020546001600160a01b031690565b600081565b6125c160008051602061546e83398151915261086f61356f565b6125ca57600080fd5b60de80546001600160a01b03199081166001600160a01b038a81169190911790925560dc8054821689841617905560e08054821688841617905560db8054821687841617905560dd8054821686841617905560df805490911691831691909117905560005b82518110156126885782818151811061264457fe5b602090810291909101810151600192909201600081815260e9909252604090912080546001600160a01b0319166001600160a01b039093169290921790915561262f565b5050505050505050565b61269a61356f565b60f7546001600160a01b039081169116146126b457600080fd5b6001600160a01b0381166126c757600080fd5b60f780546001600160a01b0319166001600160a01b0383811691909117918290556040517ff564c40f4f45e62a2c1e6c22e8bfb46501f0f71fa1c72e5358903fa1115a4b6492610ae99216908490614e94565b60e76020526000908152604090205481565b61274660008051602061546e83398151915261086f61356f565b61274f57600080fd5b60005b82518160ff16116117cf57818160ff168151811061276c57fe5b602002602001015160e260008360010160ff16815260200190815260200160002081905550828160ff16815181106127a057fe5b60209081029190910181015160ff6001909301928316600090815260e3909252604090912055612752565b60df546001600160a01b031681565b60e18054600091829055906127f08260026134eb565b905080156110245760d95460d75460405163a9059cbb60e01b81526001600160a01b039283169263a9059cbb9261282e929116908590600401614eae565b602060405180830381600087803b15801561284857600080fd5b505af115801561285c573d6000803e3d6000fd5b505050506040513d601f19601f820116820180604052508101906128809190614bad565b61288957600080fd5b600061289b6064610caf8460466134b1565b905080156129345760d95460f25460405163a9059cbb60e01b81526001600160a01b039283169263a9059cbb926128d9929116908590600401614eae565b602060405180830381600087803b1580156128f357600080fd5b505af1158015612907573d6000803e3d6000fd5b505050506040513d601f19601f8201168201806040525081019061292b9190614bad565b61293457600080fd5b60006129466064610caf85601e6134b1565b9050801561142b5760d95460d85460405163a9059cbb60e01b81526001600160a01b039283169263a9059cbb92612984929116908590600401614eae565b602060405180830381600087803b15801561299e57600080fd5b505af11580156129b2573d6000803e3d6000fd5b505050506040513d601f19601f820116820180604052508101906129d69190614bad565b61142b57600080fd5b60e36020526000908152604090205481565b6129fa81613ac9565b8015612a1b5750612a0961356f565b60f7546001600160a01b039081169116145b612a2457600080fd5b60d154612a34906201731861348c565b4311612a525760405162461bcd60e51b8152600401610d8790615244565b60405163095ea7b360e01b81526001600160a01b0384169063095ea7b390612a809084908690600401614eae565b602060405180830381600087803b158015612a9a57600080fd5b505af1158015612aae573d6000803e3d6000fd5b505050506040513d601f19601f8201168201806040525081019061142b9190614bad565b60d35481565b600081815260976020526040812061249a90613acf565b60f6541561238d5760da546040516370a0823160e01b8152600091829182916001600160a01b0316906370a0823190612b2c903090600401614e5c565b60206040518083038186803b158015612b4457600080fd5b505afa158015612b58573d6000803e3d6000fd5b505050506040513d601f19601f82011682018060405250810190612b7c9190614d76565b90508060f6541115612bb157612b986064610caf8360466134b1565b9250612baa6064610caf83601e6134b1565b9150612bec565b612bcc6064610caf604660f6546134b190919063ffffffff16565b9250612be96064610caf601e60f6546134b190919063ffffffff16565b91505b8215612c7c5760da5460f25460405163a9059cbb60e01b81526001600160a01b039283169263a9059cbb92612c28929116908790600401614eae565b602060405180830381600087803b158015612c4257600080fd5b505af1158015612c56573d6000803e3d6000fd5b505050506040513d601f19601f82011682018060405250810190612c7a9190614bad565b505b8115612d0c5760da5460d85460405163a9059cbb60e01b81526001600160a01b039283169263a9059cbb92612cb8929116908690600401614eae565b602060405180830381600087803b158015612cd257600080fd5b505af1158015612ce6573d6000803e3d6000fd5b505050506040513d601f19601f82011682018060405250810190612d0a9190614bad565b505b60da546040516370a0823160e01b81526001600160a01b03909116906370a0823190612d3c903090600401614e5c565b60206040518083038186803b158015612d5457600080fd5b505afa158015612d68573d6000803e3d6000fd5b505050506040513d601f19601f82011682018060405250810190612d8c9190614d76565b60d0555050600060f65550565b60e86020526000908152604090205481565b80516000908290612dc0575060009050610c1c565b50506020015190565b60e55481565b60f2546001600160a01b031681565b600082815260976020526040902060020154612dfc9061086f61356f565b6111155760405162461bcd60e51b8152600401610d87906150f9565b60ec8181548110611e1e57fe5b600060ca8381548110612e3457fe5b60009182526020808320338085526007939093020160058101825260408085206001600160a01b038a168087529352938490208690559251929350917fb3fd5071835887567a0671151121894ddccc2842f1d10bedad13e0d17cace9a790612e9f9087908790615373565b60405180910390a350505050565b60e0546001600160a01b031681565b612ec461356f565b6065546001600160a01b03908116911614612ef15760405162461bcd60e51b8152600401610d879061518a565b6103e88161ffff161115612f175760405162461bcd60e51b8152600401610d879061526b565b60f4805461ffff909216600160a01b0261ffff60a01b19909216919091179055565b600060ca8381548110612f4857fe5b6000918252602080832086845260c9825260408085203380875293529093206007909202909201925090612f7d9085906133d9565b82156130415781546040516323b872dd60e01b81526001600160a01b03909116906323b872dd90612fb690339030908890600401614e70565b602060405180830381600087803b158015612fd057600080fd5b505af1158015612fe4573d6000803e3d6000fd5b505050506040513d601f19601f820116820180604052508101906130089190614bad565b508054613015908461348c565b81556004810154156130415760f4546130419082908490600090819081906001600160a01b0316613834565b61304b8183613ada565b83336001600160a01b03167f90890809c654f11d6e72a28fa60149770a0d11ec6c92319d6ceb2bb0a4ea1a1585604051612e9f9190614f05565b60008061309184612dab565b600090815260eb6020908152604082206001600160a01b039095169091529290925292915050565b60f454604051639d18f77360e01b815260009182916001600160a01b0391821691639d18f773916130ef91871690600401614f05565b60206040518083038186803b15801561310757600080fd5b505afa15801561311b573d6000803e3d6000fd5b505050506040513d601f19601f8201168201806040525081019061313f9190614896565b90508061314a61478f565b604051631c72e6e760e11b81526001600160a01b038316906338e5cdce90613176908a90600401614f05565b60006040518083038186803b15801561318e57600080fd5b505afa1580156131a2573d6000803e3d6000fd5b505050506040513d6000823e601f3d908101601f191682016040526131ca9190810190614c9e565b8051600088815260c9602090815260408083206001600160a01b038e168452909152812060ca805494955092939092908a90811061320457fe5b906000526020600020906007020190507f4c2a2854ee53ed5b7d6634f420939b37032114560b2e272365ebe963e01dcbf4836040516020016132469190614e40565b60405160208183030381529060405280519060200120141561328657602084015160f45461328691849184916000918291906001600160a01b0316613834565b507f242fcbc508a9b8ebde5f4dab0c6c59f91e988b301a3812cc5fcd922d93a700a79b9a5050505050505050505050565b60f08181548110611e1e57fe5b60cc5481565b6000806132d683612dab565b600090815260ed60205260409020546001600160a01b03169392505050565b6132fd61356f565b6065546001600160a01b0390811691161461332a5760405162461bcd60e51b8152600401610d879061518a565b6001600160a01b0381166133505760405162461bcd60e51b8152600401610d8790615021565b6065546040516001600160a01b038084169216907f8be0079c531659141344cd1fd0a4f28419497f9722a3daafe3b4186f6b6457e090600090a3606580546001600160a01b0319166001600160a01b0392909216919091179055565b60dc546001600160a01b031681565b60de546001600160a01b031681565b60da546001600160a01b031681565b6133e1611caa565b60f454604051630405e36760e21b815260009182916001600160a01b03909116906310178d9c90613418908790879060040161535c565b604080518083038186803b15801561342f57600080fd5b505afa158015613443573d6000803e3d6000fd5b505050506040513d601f19601f820116820180604052508101906134679190614dc4565b9092509050811561347c5761347c8383613b28565b801561142b5761142b8382613d4e565b6000828201838110156124975760405162461bcd60e51b8152600401610d8790615067565b6000826134c05750600061249a565b828202828482816134cd57fe5b04146124975760405162461bcd60e51b8152600401610d8790615149565b600061249783836040518060400160405280601a81526020017f536166654d6174683a206469766973696f6e206279207a65726f000000000000815250613f74565b600061249783836040518060400160405280601e81526020017f536166654d6174683a207375627472616374696f6e206f766572666c6f770000815250613fab565b3390565b600082815260976020526040902061358b9082613fd7565b156110245761359861356f565b6001600160a01b0316816001600160a01b0316837f2f8788117e7eff1d82e926ec794901d17c78024a50270940304540a733656f0d60405160405180910390a45050565b60008281526097602052604090206135f49082613fec565b156110245761360161356f565b6001600160a01b0316816001600160a01b0316837ff6391f5c32d9c69d2a47ea670b442974b53935d1edc7fd64eb21e047a839171b60405160405180910390a45050565b303b1590565b600060ca858154811061365a57fe5b60009182526020909120600790910201600481015490915060ff1661367e57600080fd5b600085815260c9602090815260408083206001600160a01b0387168452909152902080548511156136ae57600080fd5b6136b886856133d9565b841561370d5780546136ca908661352d565b815581546136e2906001600160a01b031684876138ea565b60048101541561370d5760f45461370d908290849060009060019082906001600160a01b0316613834565b60038101548154600091613721919061348c565b905061374364e8d4a51000610caf8560020154846134b190919063ffffffff16565b600183015560038301546137639064e8d4a5100090610caf9084906134b1565b826002018190555086846001600160a01b03167ff279e6a1f5e320cca91135676d9cb6e44ca8a08c0b88342bcdb1144f6511b568886040516137a59190614f05565b60405180910390a350505050505050565b600054610100900460ff16806137cf57506137cf613645565b806137dd575060005460ff16155b6137f95760405162461bcd60e51b8152600401610d87906151bf565b600054610100900460ff16158015613824576000805460ff1961ff0019909116610100171660011790555b61382c614001565b612441614082565b60038601546000613856888761384e578960040154613850565b875b8561415c565b9050831561387a57613868818561348c565b60068901805460ff1916600117905590505b875460009061389090606490610caf90856134b1565b60038a01819055905085156138c1576138b76138ac848361352d565b60068a01549061352d565b60068901556138df565b6138d96138ce828561352d565b60068a01549061348c565b60068901555b505050505050505050565b6117cf8363a9059cbb60e01b8484604051602401613909929190614eae565b60408051601f198184030181529190526020810180516001600160e01b03166001600160e01b0319909316929092179091526141e3565b600080600060ca848154811061395257fe5b6000918252602090912060079091020180546040516370a0823160e01b81529192506001600160a01b0316906370a0823190613992903090600401614e5c565b60206040518083038186803b1580156139aa57600080fd5b505afa1580156139be573d6000803e3d6000fd5b505050506040513d601f19601f820116820180604052508101906139e29190614d76565b6139f3576000809250925050613aa3565b60f4546000908190613a0f9084906001600160a01b03166142c8565b60f4549193509150600090613a389061271090610caf908690600160a01b900461ffff166134b1565b60f454909150600090613a5f9061271090610caf908690600160a01b900461ffff166134b1565b60f554909150613a6f908361348c565b60f55560f654613a7f908261348c565b60f65560f454613a9d908690839085906001600160a01b0316614480565b50505050505b915091565b60006124978383614590565b6000612497836001600160a01b0384166145d5565b3b151590565b600061249a826145ed565b613afa64e8d4a51000610caf8360020154613af4866145f1565b906134b1565b8260010181905550613b1c64e8d4a51000610caf8360030154613af4866145f1565b82600201819055505050565b60d9546040516370a0823160e01b81526000916001600160a01b0316906370a0823190613b59903090600401614e5c565b60206040518083038186803b158015613b7157600080fd5b505afa158015613b85573d6000803e3d6000fd5b505050506040513d601f19601f82011682018060405250810190613ba99190614d76565b905080821115613c3d5760d95460405163a9059cbb60e01b81526001600160a01b039091169063a9059cbb90613be59086908590600401614eae565b602060405180830381600087803b158015613bff57600080fd5b505af1158015613c13573d6000803e3d6000fd5b505050506040513d601f19601f82011682018060405250810190613c379190614bad565b50613cc3565b60d95460405163a9059cbb60e01b81526001600160a01b039091169063a9059cbb90613c6f9086908690600401614eae565b602060405180830381600087803b158015613c8957600080fd5b505af1158015613c9d573d6000803e3d6000fd5b505050506040513d601f19601f82011682018060405250810190613cc19190614bad565b505b60d9546040516370a0823160e01b81526001600160a01b03909116906370a0823190613cf3903090600401614e5c565b60206040518083038186803b158015613d0b57600080fd5b505afa158015613d1f573d6000803e3d6000fd5b505050506040513d601f19601f82011682018060405250810190613d439190614d76565b60cf556117cf6120e4565b60da546040516370a0823160e01b81526000916001600160a01b0316906370a0823190613d7f903090600401614e5c565b60206040518083038186803b158015613d9757600080fd5b505afa158015613dab573d6000803e3d6000fd5b505050506040513d601f19601f82011682018060405250810190613dcf9190614d76565b905080821115613e635760da5460405163a9059cbb60e01b81526001600160a01b039091169063a9059cbb90613e0b9086908590600401614eae565b602060405180830381600087803b158015613e2557600080fd5b505af1158015613e39573d6000803e3d6000fd5b505050506040513d601f19601f82011682018060405250810190613e5d9190614bad565b50613ee9565b60da5460405163a9059cbb60e01b81526001600160a01b039091169063a9059cbb90613e959086908690600401614eae565b602060405180830381600087803b158015613eaf57600080fd5b505af1158015613ec3573d6000803e3d6000fd5b505050506040513d601f19601f82011682018060405250810190613ee79190614bad565b505b60da546040516370a0823160e01b81526001600160a01b03909116906370a0823190613f19903090600401614e5c565b60206040518083038186803b158015613f3157600080fd5b505afa158015613f45573d6000803e3d6000fd5b505050506040513d601f19601f82011682018060405250810190613f699190614d76565b60d0556117cf612aef565b60008183613f955760405162461bcd60e51b8152600401610d879190614f58565b506000838581613fa157fe5b0495945050505050565b60008184841115613fcf5760405162461bcd60e51b8152600401610d879190614f58565b505050900390565b6000612497836001600160a01b038416614605565b6000612497836001600160a01b03841661464f565b600054610100900460ff168061401a575061401a613645565b80614028575060005460ff16155b6140445760405162461bcd60e51b8152600401610d87906151bf565b600054610100900460ff16158015612441576000805460ff1961ff0019909116610100171660011790558015611577576000805461ff001916905550565b600054610100900460ff168061409b575061409b613645565b806140a9575060005460ff16155b6140c55760405162461bcd60e51b8152600401610d87906151bf565b600054610100900460ff161580156140f0576000805460ff1961ff0019909116610100171660011790555b60006140fa61356f565b606580546001600160a01b0319166001600160a01b038316908117909155604051919250906000907f8be0079c531659141344cd1fd0a4f28419497f9722a3daafe3b4186f6b6457e0908290a3508015611577576000805461ff001916905550565b604051636798f19f60e01b81526000906001600160a01b03831690636798f19f9061418b908690600401614f05565b60206040518083038186803b1580156141a357600080fd5b505afa1580156141b7573d6000803e3d6000fd5b505050506040513d601f19601f820116820180604052508101906141db9190614d76565b949350505050565b6141f5826001600160a01b0316614715565b6142115760405162461bcd60e51b8152600401610d87906152d6565b60006060836001600160a01b03168360405161422d9190614e40565b6000604051808303816000865af19150503d806000811461426a576040519150601f19603f3d011682016040523d82523d6000602084013e61426f565b606091505b5091509150816142915760405162461bcd60e51b8152600401610d879061509e565b80511561142b57808060200190518101906142ac9190614bad565b61142b5760405162461bcd60e51b8152600401610d879061528c565b60008060006143ba846001600160a01b03166317caf6f16040518163ffffffff1660e01b815260040160206040518083038186803b15801561430957600080fd5b505afa15801561431d573d6000803e3d6000fd5b505050506040513d601f19601f820116820180604052508101906143419190614d76565b610caf8760010154876001600160a01b031663eded3fda6040518163ffffffff1660e01b815260040160206040518083038186803b15801561438257600080fd5b505afa158015614396573d6000803e3d6000fd5b505050506040513d601f19601f82011682018060405250810190613af49190614d76565b90506000614473856001600160a01b03166317caf6f16040518163ffffffff1660e01b815260040160206040518083038186803b1580156143fa57600080fd5b505afa15801561440e573d6000803e3d6000fd5b505050506040513d601f19601f820116820180604052508101906144329190614d76565b610caf8860010154886001600160a01b0316638b6ff57b6040518163ffffffff1660e01b815260040160206040518083038186803b15801561438257600080fd5b9196919550909350505050565b83546040516370a0823160e01b81526000916001600160a01b0316906370a08231906144b0903090600401614e5c565b60206040518083038186803b1580156144c857600080fd5b505afa1580156144dc573d6000803e3d6000fd5b505050506040513d601f19601f820116820180604052508101906145009190614d76565b9050600061451b86600601548361348c90919063ffffffff16565b905060008061452a88866142c8565b909250905061455461454984610caf64e8d4a51000613af4868d61352d565b60038a01549061348c565b600389015561457e61457384610caf64e8d4a51000613af4878c61352d565b60028a01549061348c565b88600201819055505050505050505050565b815460009082106145b35760405162461bcd60e51b8152600401610d8790614f90565b8260000182815481106145c257fe5b9060005260206000200154905092915050565b60009081526001919091016020526040902054151590565b5490565b6003810154815460009161249a919061348c565b600061461183836145d5565b6146475750815460018181018455600084815260208082209093018490558454848252828601909352604090209190915561249a565b50600061249a565b6000818152600183016020526040812054801561470b578354600019808301919081019060009087908390811061468257fe5b906000526020600020015490508087600001848154811061469f57fe5b6000918252602080832090910192909255828152600189810190925260409020908401905586548790806146cf57fe5b6001900381819060005260206000200160009055905586600101600087815260200190815260200160002060009055600194505050505061249a565b600091505061249a565b6000813f7fc5d2460186f7233c927e7db2dcc703c0e500b653ca82273b7bfad8045d85a4708181148015906141db575050151592915050565b6040518060c0016040528060006001600160a01b03168152602001600081526020016000815260200160008152602001600015158152602001600081525090565b60405180606001604052806060815260200160008152602001600080191681525090565b803561249a8161544a565b600082601f8301126147ce578081fd5b81356147e16147dc826153da565b6153b3565b81815291506020808301908481018184028601820187101561480257600080fd5b60005b8481101561482157813584529282019290820190600101614805565b505050505092915050565b600082601f83011261483c578081fd5b813561484a6147dc826153fa565b915080825283602082850101111561486157600080fd5b8060208401602084013760009082016020015292915050565b60006020828403121561488b578081fd5b81356124978161544a565b6000602082840312156148a7578081fd5b81516124978161544a565b600080604083850312156148c4578081fd5b82356148cf8161544a565b915060208301356148df8161544a565b809150509250929050565b600080600080608085870312156148ff578182fd5b843561490a8161544a565b9350602085013561491a8161544a565b9250604085013561492a8161544a565b9150606085013561493a8161544a565b939692955090935050565b600080600080600080600060e0888a03121561495f578283fd5b873561496a8161544a565b965060208881013561497b8161544a565b9650604089013561498b8161544a565b9550606089013561499b8161544a565b945060808901356149ab8161544a565b935060a089013567ffffffffffffffff8111156149c6578384fd5b8901601f81018b136149d6578384fd5b80356149e46147dc826153da565b81815283810190838501858402850186018f1015614a00578788fd5b8794505b83851015614a2a57614a168f826147b3565b835260019490940193918501918501614a04565b508096505050505050614a408960c08a016147b3565b905092959891949750929550565b600080600080600060a08688031215614a65578081fd5b8535614a708161544a565b94506020860135614a808161544a565b935060408601359250606086013591506080860135614a9e8161544a565b809150509295509295909350565b60008060408385031215614abe578182fd5b8235614ac98161544a565b946020939093013593505050565b600080600060608486031215614aeb578081fd5b8335614af68161544a565b9250602084013591506040840135614b0d8161544a565b809150509250925092565b600080600060608486031215614b2c578081fd5b8335614b378161544a565b95602085013595506040909401359392505050565b60008060408385031215614b5e578182fd5b823567ffffffffffffffff80821115614b75578384fd5b614b81868387016147be565b93506020850135915080821115614b96578283fd5b50614ba3858286016147be565b9150509250929050565b600060208284031215614bbe578081fd5b81516124978161545f565b600060208284031215614bda578081fd5b5035919050565b60008060408385031215614bf3578182fd5b8235915060208301356148df8161544a565b60008060408385031215614c17578182fd5b50508035926020909101359150565b600060208284031215614c37578081fd5b813567ffffffffffffffff811115614c4d578182fd5b6141db8482850161482c565b60008060408385031215614c6b578182fd5b823567ffffffffffffffff811115614c81578283fd5b614c8d8582860161482c565b92505060208301356148df8161544a565b60006020808385031215614cb0578182fd5b825167ffffffffffffffff80821115614cc7578384fd5b9084019060608287031215614cda578384fd5b614ce460606153b3565b825182811115614cf2578586fd5b83019150601f82018713614d04578485fd5b8151614d126147dc826153fa565b8181528886838601011115614d25578687fd5b614d348287830188870161541e565b825250828401519381019390935250604090810151908201529392505050565b600060208284031215614d65578081fd5b813561ffff81168114612497578182fd5b600060208284031215614d87578081fd5b5051919050565b600080600060608486031215614da2578081fd5b833592506020840135614db48161544a565b91506040840135614b0d8161545f565b60008060408385031215614dd6578182fd5b505080516020909101519092909150565b600080600060608486031215614dfb578081fd5b83359250602084013591506040840135614b0d8161545f565b60008151808452614e2c81602086016020860161541e565b601f01601f19169290920160200192915050565b60008251614e5281846020870161541e565b9190910192915050565b6001600160a01b0391909116815260200190565b6001600160a01b039384168152919092166020820152604081019190915260600190565b6001600160a01b0392831681529116602082015260400190565b6001600160a01b03929092168252602082015260400190565b6001600160a01b03969096168652602086019490945260408501929092526060840152608083015260a082015260c00190565b901515815260200190565b90815260200190565b6001600160e01b031991909116815260200190565b6001600160a01b039690961686526020860194909452604085019290925260608401521515608083015260a082015260c00190565b6000602082526124976020830184614e14565b600060608252614f7e6060830186614e14565b60208301949094525060400152919050565b60208082526022908201527f456e756d657261626c655365743a20696e646578206f7574206f6620626f756e604082015261647360f01b606082015260800190565b6020808252602f908201527f416363657373436f6e74726f6c3a2073656e646572206d75737420626520616e60408201526e0818591b5a5b881d1bc819dc985b9d608a1b606082015260800190565b60208082526026908201527f4f776e61626c653a206e6577206f776e657220697320746865207a65726f206160408201526564647265737360d01b606082015260800190565b6020808252601b908201527f536166654d6174683a206164646974696f6e206f766572666c6f770000000000604082015260600190565b6020808252818101527f5361666545524332303a206c6f772d6c6576656c2063616c6c206661696c6564604082015260600190565b6020808252600c908201526b4e6f20616c6c6f77616e636560a01b604082015260600190565b60208082526030908201527f416363657373436f6e74726f6c3a2073656e646572206d75737420626520616e60408201526f2061646d696e20746f207265766f6b6560801b606082015260800190565b60208082526021908201527f536166654d6174683a206d756c7469706c69636174696f6e206f766572666c6f6040820152607760f81b606082015260800190565b6020808252818101527f4f776e61626c653a2063616c6c6572206973206e6f7420746865206f776e6572604082015260600190565b6020808252602e908201527f436f6e747261637420696e7374616e63652068617320616c726561647920626560408201526d195b881a5b9a5d1a585b1a5e995960921b606082015260800190565b60208082526018908201527f4572726f7220706f6f6c20616c72656164792061646465640000000000000000604082015260600190565b6020808252600d908201526c476f76206e6f7420726561647960981b604082015260600190565b6020808252600790820152664d61782031302560c81b604082015260600190565b6020808252602a908201527f5361666545524332303a204552433230206f7065726174696f6e20646964206e6040820152691bdd081cdd58d8d9595960b21b606082015260800190565b6020808252601f908201527f5361666545524332303a2063616c6c20746f206e6f6e2d636f6e747261637400604082015260600190565b6020808252602f908201527f416363657373436f6e74726f6c3a2063616e206f6e6c792072656e6f756e636560408201526e103937b632b9903337b91039b2b63360891b606082015260800190565b9182526001600160a01b0316602082015260400190565b918252602082015260400190565b968752602087019590955260408601939093526060850191909152608084015260a0830152151560c082015260e00190565b60405181810167ffffffffffffffff811182821017156153d257600080fd5b604052919050565b600067ffffffffffffffff8211156153f0578081fd5b5060209081020190565b600067ffffffffffffffff821115615410578081fd5b50601f01601f191660200190565b60005b83811015615439578181015183820152602001615421565b8381111561142b5750506000910152565b6001600160a01b038116811461157757600080fd5b801515811461157757600080fdfe62ca43aa15f7f495faa685ce5a258aa390fdc8d7094251dd23d32353f496ddfea264697066735822122089ab39dcebaa2e22d2d6a5bff7234dcce62484219015264e60a862158c34f8d864736f6c634300060c0033",
    "sourcePath": "/Users/225153/Projects/proxy-test/contracts/RAMVault.sol",
    "compiler": {
        "name": "solc",
        "version": "0.6.12+commit.27d51765"
    },
    "functionHashes": {
        "DEFAULT_ADMIN_ROLE()": "a217fddf",
        "MODIFIER_ROLE()": "7575aa8a",
        "RAMVaultStartBlock()": "31db122c",
        "YGYReserve()": "1dbf779e",
        "_NFTs(uint256)": "795d79f5",
        "_RAMToken()": "fa69669c",
        "_WETH()": "e0af3616",
        "_YGYRAMPair()": "2f4f8a7a",
        "_YGYToken()": "f7db38cb",
        "_YGYWETHPair()": "3b24bd4a",
        "_dXIOTToken()": "b81a0b4c",
        "add(uint256,address,bool)": "1eaaa045",
        "addPendingRewards(uint256)": "423d6fa0",
        "addRAMRewardsOwner(uint256)": "3b6a6849",
        "addYGYRewardsOwner(uint256)": "3fe6a278",
        "addressStorageCount(uint256)": "6b42ee55",
        "booleanMapStorageCount(uint256)": "d6cf8021",
        "boostFees()": "09e3de41",
        "boostLevelCosts(uint256)": "469fcdcb",
        "boostLevelMultipliers(uint256)": "bcb49086",
        "burnSuperAdmin()": "934eaa50",
        "checkRewards(uint256,address)": "10178d9c",
        "claimRewards(uint256)": "0962ef79",
        "cumulativeRewardsSinceStart()": "c8ffb873",
        "cumulativeYGYRewardsSinceStart()": "9649d76c",
        "deposit(uint256,uint256)": "e2bbb158",
        "depositFor(address,uint256,uint256)": "4cf5fbf5",
        "devaddr()": "d49e77cd",
        "distributeFees()": "bb57ad20",
        "emergencyWithdraw(uint256)": "5312ea8e",
        "epoch()": "900cf0cf",
        "epochCalculationStartBlock()": "5d577c18",
        "epochRewards(uint256)": "4dc47d34",
        "getAddressStorage(string)": "ee02ea1b",
        "getBooleanMapValue(string,address)": "e671fab5",
        "getBoostLevelCost(uint256)": "6a9d1f6f",
        "getBoostLevelMultiplier(uint256)": "6798f19f",
        "getEpochRewards(uint256)": "5f0c0f2b",
        "getNFTAddress(uint256)": "9d18f773",
        "getNFTProperty(uint256,uint256)": "5498d4c0",
        "getNFTPropertyCount(uint256)": "0a08f1d4",
        "getPoolInfo(uint256)": "2f380b35",
        "getRoleAdmin(bytes32)": "248a9ca3",
        "getRoleMember(bytes32,uint256)": "9010d07c",
        "getRoleMemberCount(bytes32)": "ca15c873",
        "grantRole(bytes32,address)": "2f2ff15d",
        "hasRole(bytes32,address)": "91d14854",
        "initialize()": "8129fc1c",
        "initialize(address,address)": "485cc955",
        "initializeRAMVault(address,address,address,address)": "36644334",
        "lastTicketLevel(address)": "cc40f664",
        "liquidityContributedEthValue(address)": "ad1414b2",
        "massUpdatePools()": "630b5ba1",
        "newSuperAdmin(address)": "a676860a",
        "nftPropertyChoices(address,uint256)": "58739fc8",
        "onERC721Received(address,address,uint256,uint256,address)": "e8cb20b7",
        "owner()": "8da5cb5b",
        "pendingRewards()": "eded3fda",
        "pendingYGYRewards()": "8b6ff57b",
        "poolInfo(uint256)": "1526fe27",
        "poolLength()": "081e3eda",
        "purchase(uint256,uint256)": "70876c98",
        "ram()": "8f33b5e5",
        "regeneratoraddr()": "7d3b8da1",
        "renounceOwnership()": "715018a6",
        "renounceRole(bytes32,address)": "36568abe",
        "revokeRole(bytes32,address)": "d547741f",
        "rewardsInThisEpoch()": "608c8d3a",
        "set(uint256,uint256,bool)": "64482f79",
        "setAllowanceForPoolToken(address,uint256,uint256)": "dbe0901f",
        "setDevFee(uint16)": "e18cb4fe",
        "setDevFeeReciever(address)": "2d6754e5",
        "setStrategyContractOrDistributionContractAllowance(address,uint256,address)": "c4014588",
        "setTokens(address,address,address,address,address,address[],address)": "a5f8ace8",
        "startNewEpoch()": "3aab0a62",
        "stringToBytes32(string)": "cfb51928",
        "superAdmin()": "29575f6a",
        "teamaddr()": "9a6d2711",
        "ticketCount()": "cfbd900f",
        "tickets(uint256)": "50b44712",
        "totalAllocPoint()": "17caf6f1",
        "transferOwnership(address)": "f2fde38b",
        "transferRAMDevFee()": "7cf75ca3",
        "transferYGYDevFee()": "cc1362ec",
        "uintStorageCount(uint256)": "e941c856",
        "updateBoosts(uint256[],uint256[])": "b2f4b44a",
        "userInfo(uint256,address)": "93f1a40b",
        "withdraw(uint256,uint256)": "441a3e70",
        "withdrawFrom(address,uint256,uint256)": "3a0967cd",
        "ygy()": "fb70c3bf"
    },
    "gasEstimates": {
        "creation": {
            "codeDepositCost": "4339800",
            "executionCost": "5025",
            "totalCost": "4344825"
        },
        "external": {
            "DEFAULT_ADMIN_ROLE()": "362",
            "MODIFIER_ROLE()": "infinite",
            "RAMVaultStartBlock()": "1185",
            "YGYReserve()": "1141",
            "_NFTs(uint256)": "1390",
            "_RAMToken()": "1224",
            "_WETH()": "1137",
            "_YGYRAMPair()": "1205",
            "_YGYToken()": "1202",
            "_YGYWETHPair()": "1226",
            "_dXIOTToken()": "1203",
            "add(uint256,address,bool)": "infinite",
            "addPendingRewards(uint256)": "infinite",
            "addRAMRewardsOwner(uint256)": "infinite",
            "addYGYRewardsOwner(uint256)": "infinite",
            "addressStorageCount(uint256)": "2085",
            "booleanMapStorageCount(uint256)": "2151",
            "boostFees()": "1142",
            "boostLevelCosts(uint256)": "1306",
            "boostLevelMultipliers(uint256)": "1348",
            "burnSuperAdmin()": "23406",
            "checkRewards(uint256,address)": "infinite",
            "claimRewards(uint256)": "infinite",
            "cumulativeRewardsSinceStart()": "1118",
            "cumulativeYGYRewardsSinceStart()": "1096",
            "deposit(uint256,uint256)": "infinite",
            "depositFor(address,uint256,uint256)": "infinite",
            "devaddr()": "1181",
            "distributeFees()": "infinite",
            "emergencyWithdraw(uint256)": "infinite",
            "epoch()": "1118",
            "epochCalculationStartBlock()": "1096",
            "epochRewards(uint256)": "1261",
            "getAddressStorage(string)": "infinite",
            "getBooleanMapValue(string,address)": "infinite",
            "getBoostLevelCost(uint256)": "1238",
            "getBoostLevelMultiplier(uint256)": "1349",
            "getEpochRewards(uint256)": "1261",
            "getNFTAddress(uint256)": "1325",
            "getNFTProperty(uint256,uint256)": "infinite",
            "getNFTPropertyCount(uint256)": "infinite",
            "getPoolInfo(uint256)": "6736",
            "getRoleAdmin(bytes32)": "1334",
            "getRoleMember(bytes32,uint256)": "infinite",
            "getRoleMemberCount(bytes32)": "infinite",
            "grantRole(bytes32,address)": "infinite",
            "hasRole(bytes32,address)": "infinite",
            "initialize()": "infinite",
            "initialize(address,address)": "infinite",
            "initializeRAMVault(address,address,address,address)": "infinite",
            "lastTicketLevel(address)": "1406",
            "liquidityContributedEthValue(address)": "1339",
            "massUpdatePools()": "infinite",
            "newSuperAdmin(address)": "23552",
            "nftPropertyChoices(address,uint256)": "infinite",
            "onERC721Received(address,address,uint256,uint256,address)": "infinite",
            "owner()": "1227",
            "pendingRewards()": "1094",
            "pendingYGYRewards()": "1163",
            "poolInfo(uint256)": "6319",
            "poolLength()": "1098",
            "purchase(uint256,uint256)": "infinite",
            "ram()": "1138",
            "regeneratoraddr()": "1161",
            "renounceOwnership()": "24334",
            "renounceRole(bytes32,address)": "infinite",
            "revokeRole(bytes32,address)": "infinite",
            "rewardsInThisEpoch()": "1140",
            "set(uint256,uint256,bool)": "infinite",
            "setAllowanceForPoolToken(address,uint256,uint256)": "23732",
            "setDevFee(uint16)": "22127",
            "setDevFeeReciever(address)": "22117",
            "setStrategyContractOrDistributionContractAllowance(address,uint256,address)": "infinite",
            "setTokens(address,address,address,address,address,address[],address)": "infinite",
            "startNewEpoch()": "89500",
            "stringToBytes32(string)": "infinite",
            "superAdmin()": "1249",
            "teamaddr()": "1160",
            "ticketCount()": "1117",
            "tickets(uint256)": "5511",
            "totalAllocPoint()": "1119",
            "transferOwnership(address)": "24547",
            "transferRAMDevFee()": "infinite",
            "transferYGYDevFee()": "infinite",
            "uintStorageCount(uint256)": "2173",
            "updateBoosts(uint256[],uint256[])": "infinite",
            "userInfo(uint256,address)": "6567",
            "withdraw(uint256,uint256)": "infinite",
            "withdrawFrom(address,uint256,uint256)": "infinite",
            "ygy()": "1246"
        },
        "internal": {
            "_withdraw(uint256,uint256,address,address)": "infinite",
            "isContract(address)": "718",
            "safeRamTransfer(address,uint256)": "infinite",
            "safeYgyTransfer(address,uint256)": "infinite",
            "updateAndPayOutPending(uint256,address)": "infinite",
            "updatePool(uint256)": "infinite"
        }
    }
}