{
    "contractName": "RAMVault",
    "abi": [
        {
            "anonymous": false,
            "inputs": [
                {
                    "indexed": true,
                    "internalType": "address",
                    "name": "owner",
                    "type": "address"
                },
                {
                    "indexed": true,
                    "internalType": "address",
                    "name": "spender",
                    "type": "address"
                },
                {
                    "indexed": false,
                    "internalType": "uint256",
                    "name": "_pid",
                    "type": "uint256"
                },
                {
                    "indexed": false,
                    "internalType": "uint256",
                    "name": "value",
                    "type": "uint256"
                }
            ],
            "name": "Approval",
            "type": "event"
        },
        {
            "anonymous": false,
            "inputs": [
                {
                    "indexed": true,
                    "internalType": "address",
                    "name": "user",
                    "type": "address"
                },
                {
                    "indexed": true,
                    "internalType": "uint256",
                    "name": "pid",
                    "type": "uint256"
                },
                {
                    "indexed": true,
                    "internalType": "uint256",
                    "name": "level",
                    "type": "uint256"
                }
            ],
            "name": "Boost",
            "type": "event"
        },
        {
            "anonymous": false,
            "inputs": [
                {
                    "indexed": true,
                    "internalType": "address",
                    "name": "user",
                    "type": "address"
                },
                {
                    "indexed": true,
                    "internalType": "uint256",
                    "name": "pid",
                    "type": "uint256"
                },
                {
                    "indexed": false,
                    "internalType": "uint256",
                    "name": "amount",
                    "type": "uint256"
                }
            ],
            "name": "Deposit",
            "type": "event"
        },
        {
            "anonymous": false,
            "inputs": [
                {
                    "indexed": true,
                    "internalType": "address",
                    "name": "user",
                    "type": "address"
                },
                {
                    "indexed": true,
                    "internalType": "uint256",
                    "name": "pid",
                    "type": "uint256"
                },
                {
                    "indexed": false,
                    "internalType": "uint256",
                    "name": "amount",
                    "type": "uint256"
                }
            ],
            "name": "EmergencyWithdraw",
            "type": "event"
        },
        {
            "anonymous": false,
            "inputs": [
                {
                    "indexed": true,
                    "internalType": "address",
                    "name": "previousOwner",
                    "type": "address"
                },
                {
                    "indexed": true,
                    "internalType": "address",
                    "name": "newOwner",
                    "type": "address"
                }
            ],
            "name": "OwnershipTransferred",
            "type": "event"
        },
        {
            "anonymous": false,
            "inputs": [
                {
                    "indexed": false,
                    "internalType": "uint256",
                    "name": "pid",
                    "type": "uint256"
                },
                {
                    "indexed": false,
                    "internalType": "address",
                    "name": "to",
                    "type": "address"
                }
            ],
            "name": "RewardPaid",
            "type": "event"
        },
        {
            "anonymous": false,
            "inputs": [
                {
                    "indexed": false,
                    "internalType": "address",
                    "name": "previousOwner",
                    "type": "address"
                },
                {
                    "indexed": false,
                    "internalType": "address",
                    "name": "newOwner",
                    "type": "address"
                }
            ],
            "name": "SuperAdminTransfered",
            "type": "event"
        },
        {
            "anonymous": false,
            "inputs": [
                {
                    "indexed": true,
                    "internalType": "address",
                    "name": "user",
                    "type": "address"
                },
                {
                    "indexed": true,
                    "internalType": "uint256",
                    "name": "pid",
                    "type": "uint256"
                },
                {
                    "indexed": false,
                    "internalType": "uint256",
                    "name": "amount",
                    "type": "uint256"
                }
            ],
            "name": "Withdraw",
            "type": "event"
        },
        {
            "inputs": [],
            "name": "RAMVaultStartBlock",
            "outputs": [
                {
                    "internalType": "uint256",
                    "name": "",
                    "type": "uint256"
                }
            ],
            "stateMutability": "view",
            "type": "function"
        },
        {
            "inputs": [],
            "name": "YGYReserve",
            "outputs": [
                {
                    "internalType": "uint256",
                    "name": "",
                    "type": "uint256"
                }
            ],
            "stateMutability": "view",
            "type": "function"
        },
        {
            "inputs": [
                {
                    "internalType": "uint256",
                    "name": "",
                    "type": "uint256"
                }
            ],
            "name": "_NFTs",
            "outputs": [
                {
                    "internalType": "address",
                    "name": "",
                    "type": "address"
                }
            ],
            "stateMutability": "view",
            "type": "function"
        },
        {
            "inputs": [],
            "name": "_YGYRAMPair",
            "outputs": [
                {
                    "internalType": "address",
                    "name": "",
                    "type": "address"
                }
            ],
            "stateMutability": "view",
            "type": "function"
        },
        {
            "inputs": [],
            "name": "_YGYToken",
            "outputs": [
                {
                    "internalType": "address",
                    "name": "",
                    "type": "address"
                }
            ],
            "stateMutability": "view",
            "type": "function"
        },
        {
            "inputs": [],
            "name": "_YGYWETHPair",
            "outputs": [
                {
                    "internalType": "address",
                    "name": "",
                    "type": "address"
                }
            ],
            "stateMutability": "view",
            "type": "function"
        },
        {
            "inputs": [],
            "name": "_dXIOTToken",
            "outputs": [
                {
                    "internalType": "contract IERC20",
                    "name": "",
                    "type": "address"
                }
            ],
            "stateMutability": "view",
            "type": "function"
        },
        {
            "inputs": [
                {
                    "internalType": "uint256",
                    "name": "_allocPoint",
                    "type": "uint256"
                },
                {
                    "internalType": "contract IERC20",
                    "name": "_token",
                    "type": "address"
                },
                {
                    "internalType": "bool",
                    "name": "_withdrawable",
                    "type": "bool"
                }
            ],
            "name": "add",
            "outputs": [],
            "stateMutability": "nonpayable",
            "type": "function"
        },
        {
            "inputs": [
                {
                    "internalType": "uint256",
                    "name": "_amount",
                    "type": "uint256"
                }
            ],
            "name": "addPendingRewards",
            "outputs": [],
            "stateMutability": "nonpayable",
            "type": "function"
        },
        {
            "inputs": [
                {
                    "internalType": "uint256",
                    "name": "_amount",
                    "type": "uint256"
                }
            ],
            "name": "addRAMRewardsOwner",
            "outputs": [],
            "stateMutability": "nonpayable",
            "type": "function"
        },
        {
            "inputs": [
                {
                    "internalType": "uint256",
                    "name": "_amount",
                    "type": "uint256"
                }
            ],
            "name": "addYGYRewardsOwner",
            "outputs": [],
            "stateMutability": "nonpayable",
            "type": "function"
        },
        {
            "inputs": [
                {
                    "internalType": "uint256",
                    "name": "",
                    "type": "uint256"
                }
            ],
            "name": "addressStorageCount",
            "outputs": [
                {
                    "internalType": "uint256",
                    "name": "",
                    "type": "uint256"
                }
            ],
            "stateMutability": "view",
            "type": "function"
        },
        {
            "inputs": [
                {
                    "internalType": "uint256",
                    "name": "",
                    "type": "uint256"
                }
            ],
            "name": "booleanMapStorageCount",
            "outputs": [
                {
                    "internalType": "uint256",
                    "name": "",
                    "type": "uint256"
                }
            ],
            "stateMutability": "view",
            "type": "function"
        },
        {
            "inputs": [],
            "name": "boostFees",
            "outputs": [
                {
                    "internalType": "uint256",
                    "name": "",
                    "type": "uint256"
                }
            ],
            "stateMutability": "view",
            "type": "function"
        },
        {
            "inputs": [
                {
                    "internalType": "uint256",
                    "name": "",
                    "type": "uint256"
                }
            ],
            "name": "boostLevelCosts",
            "outputs": [
                {
                    "internalType": "uint256",
                    "name": "",
                    "type": "uint256"
                }
            ],
            "stateMutability": "view",
            "type": "function"
        },
        {
            "inputs": [
                {
                    "internalType": "uint256",
                    "name": "",
                    "type": "uint256"
                }
            ],
            "name": "boostLevelMultipliers",
            "outputs": [
                {
                    "internalType": "uint256",
                    "name": "",
                    "type": "uint256"
                }
            ],
            "stateMutability": "view",
            "type": "function"
        },
        {
            "inputs": [],
            "name": "burnSuperAdmin",
            "outputs": [],
            "stateMutability": "nonpayable",
            "type": "function"
        },
        {
            "inputs": [
                {
                    "internalType": "uint256",
                    "name": "_pid",
                    "type": "uint256"
                },
                {
                    "internalType": "address",
                    "name": "_user",
                    "type": "address"
                }
            ],
            "name": "checkRewards",
            "outputs": [
                {
                    "internalType": "uint256",
                    "name": "pendingRAM",
                    "type": "uint256"
                },
                {
                    "internalType": "uint256",
                    "name": "pendingYGY",
                    "type": "uint256"
                }
            ],
            "stateMutability": "view",
            "type": "function"
        },
        {
            "inputs": [
                {
                    "internalType": "uint256",
                    "name": "_pid",
                    "type": "uint256"
                }
            ],
            "name": "claimRewards",
            "outputs": [],
            "stateMutability": "nonpayable",
            "type": "function"
        },
        {
            "inputs": [],
            "name": "cumulativeRewardsSinceStart",
            "outputs": [
                {
                    "internalType": "uint256",
                    "name": "",
                    "type": "uint256"
                }
            ],
            "stateMutability": "view",
            "type": "function"
        },
        {
            "inputs": [],
            "name": "cumulativeYGYRewardsSinceStart",
            "outputs": [
                {
                    "internalType": "uint256",
                    "name": "",
                    "type": "uint256"
                }
            ],
            "stateMutability": "view",
            "type": "function"
        },
        {
            "inputs": [
                {
                    "internalType": "uint256",
                    "name": "_pid",
                    "type": "uint256"
                },
                {
                    "internalType": "uint256",
                    "name": "_amount",
                    "type": "uint256"
                }
            ],
            "name": "deposit",
            "outputs": [],
            "stateMutability": "nonpayable",
            "type": "function"
        },
        {
            "inputs": [
                {
                    "internalType": "address",
                    "name": "_depositFor",
                    "type": "address"
                },
                {
                    "internalType": "uint256",
                    "name": "_pid",
                    "type": "uint256"
                },
                {
                    "internalType": "uint256",
                    "name": "_amount",
                    "type": "uint256"
                }
            ],
            "name": "depositFor",
            "outputs": [],
            "stateMutability": "nonpayable",
            "type": "function"
        },
        {
            "inputs": [],
            "name": "devaddr",
            "outputs": [
                {
                    "internalType": "address",
                    "name": "",
                    "type": "address"
                }
            ],
            "stateMutability": "view",
            "type": "function"
        },
        {
            "inputs": [],
            "name": "distributeFees",
            "outputs": [],
            "stateMutability": "nonpayable",
            "type": "function"
        },
        {
            "inputs": [
                {
                    "internalType": "uint256",
                    "name": "_pid",
                    "type": "uint256"
                }
            ],
            "name": "emergencyWithdraw",
            "outputs": [],
            "stateMutability": "nonpayable",
            "type": "function"
        },
        {
            "inputs": [],
            "name": "epoch",
            "outputs": [
                {
                    "internalType": "uint256",
                    "name": "",
                    "type": "uint256"
                }
            ],
            "stateMutability": "view",
            "type": "function"
        },
        {
            "inputs": [],
            "name": "epochCalculationStartBlock",
            "outputs": [
                {
                    "internalType": "uint256",
                    "name": "",
                    "type": "uint256"
                }
            ],
            "stateMutability": "view",
            "type": "function"
        },
        {
            "inputs": [
                {
                    "internalType": "uint256",
                    "name": "",
                    "type": "uint256"
                }
            ],
            "name": "epochRewards",
            "outputs": [
                {
                    "internalType": "uint256",
                    "name": "",
                    "type": "uint256"
                }
            ],
            "stateMutability": "view",
            "type": "function"
        },
        {
            "inputs": [
                {
                    "internalType": "string",
                    "name": "_key",
                    "type": "string"
                }
            ],
            "name": "getAddressStorage",
            "outputs": [
                {
                    "internalType": "address",
                    "name": "",
                    "type": "address"
                }
            ],
            "stateMutability": "view",
            "type": "function"
        },
        {
            "inputs": [
                {
                    "internalType": "string",
                    "name": "_key",
                    "type": "string"
                },
                {
                    "internalType": "address",
                    "name": "_address",
                    "type": "address"
                }
            ],
            "name": "getBooleanMapValue",
            "outputs": [
                {
                    "internalType": "bool",
                    "name": "",
                    "type": "bool"
                }
            ],
            "stateMutability": "view",
            "type": "function"
        },
        {
            "inputs": [
                {
                    "internalType": "uint256",
                    "name": "_level",
                    "type": "uint256"
                }
            ],
            "name": "getBoostLevelCost",
            "outputs": [
                {
                    "internalType": "uint256",
                    "name": "",
                    "type": "uint256"
                }
            ],
            "stateMutability": "view",
            "type": "function"
        },
        {
            "inputs": [
                {
                    "internalType": "uint256",
                    "name": "_level",
                    "type": "uint256"
                }
            ],
            "name": "getBoostLevelMultiplier",
            "outputs": [
                {
                    "internalType": "uint256",
                    "name": "",
                    "type": "uint256"
                }
            ],
            "stateMutability": "view",
            "type": "function"
        },
        {
            "inputs": [
                {
                    "internalType": "uint256",
                    "name": "_epoch",
                    "type": "uint256"
                }
            ],
            "name": "getEpochRewards",
            "outputs": [
                {
                    "internalType": "uint256",
                    "name": "",
                    "type": "uint256"
                }
            ],
            "stateMutability": "view",
            "type": "function"
        },
        {
            "inputs": [
                {
                    "internalType": "uint256",
                    "name": "_poolId",
                    "type": "uint256"
                }
            ],
            "name": "getPoolInfo",
            "outputs": [
                {
                    "internalType": "contract IERC20",
                    "name": "_token",
                    "type": "address"
                },
                {
                    "internalType": "uint256",
                    "name": "_allocPointt",
                    "type": "uint256"
                },
                {
                    "internalType": "uint256",
                    "name": "_accRAMPerShare",
                    "type": "uint256"
                },
                {
                    "internalType": "uint256",
                    "name": "_accYGYPerShare",
                    "type": "uint256"
                },
                {
                    "internalType": "bool",
                    "name": "_withdrawable",
                    "type": "bool"
                },
                {
                    "internalType": "uint256",
                    "name": "_effectiveAdditionalTokensFromBoosts",
                    "type": "uint256"
                }
            ],
            "stateMutability": "view",
            "type": "function"
        },
        {
            "inputs": [
                {
                    "internalType": "uint256",
                    "name": "_poolId",
                    "type": "uint256"
                },
                {
                    "internalType": "address",
                    "name": "_user",
                    "type": "address"
                }
            ],
            "name": "getUserInfo",
            "outputs": [
                {
                    "internalType": "uint256",
                    "name": "amount",
                    "type": "uint256"
                },
                {
                    "internalType": "uint256",
                    "name": "rewardDebt",
                    "type": "uint256"
                },
                {
                    "internalType": "uint256",
                    "name": "rewardDebtYGY",
                    "type": "uint256"
                },
                {
                    "internalType": "uint256",
                    "name": "boostAmount",
                    "type": "uint256"
                },
                {
                    "internalType": "uint256",
                    "name": "boostLevel",
                    "type": "uint256"
                },
                {
                    "internalType": "uint256",
                    "name": "spentMultiplierTokens",
                    "type": "uint256"
                }
            ],
            "stateMutability": "view",
            "type": "function"
        },
        {
            "inputs": [
                {
                    "internalType": "address",
                    "name": "_storageAddr",
                    "type": "address"
                },
                {
                    "internalType": "address",
                    "name": "superAdmin",
                    "type": "address"
                }
            ],
            "name": "initialize",
            "outputs": [],
            "stateMutability": "nonpayable",
            "type": "function"
        },
        {
            "inputs": [
                {
                    "internalType": "address",
                    "name": "_ram",
                    "type": "address"
                },
                {
                    "internalType": "address",
                    "name": "_ygy",
                    "type": "address"
                },
                {
                    "internalType": "address",
                    "name": "_teamaddr",
                    "type": "address"
                },
                {
                    "internalType": "address",
                    "name": "_regeneratoraddr",
                    "type": "address"
                }
            ],
            "name": "initializeRAMVault",
            "outputs": [],
            "stateMutability": "nonpayable",
            "type": "function"
        },
        {
            "inputs": [
                {
                    "internalType": "address",
                    "name": "",
                    "type": "address"
                }
            ],
            "name": "lastTicketLevel",
            "outputs": [
                {
                    "internalType": "uint256",
                    "name": "",
                    "type": "uint256"
                }
            ],
            "stateMutability": "view",
            "type": "function"
        },
        {
            "inputs": [
                {
                    "internalType": "address",
                    "name": "",
                    "type": "address"
                }
            ],
            "name": "liquidityContributedEthValue",
            "outputs": [
                {
                    "internalType": "uint256",
                    "name": "",
                    "type": "uint256"
                }
            ],
            "stateMutability": "view",
            "type": "function"
        },
        {
            "inputs": [],
            "name": "massUpdatePools",
            "outputs": [],
            "stateMutability": "nonpayable",
            "type": "function"
        },
        {
            "inputs": [
                {
                    "internalType": "address",
                    "name": "newOwner",
                    "type": "address"
                }
            ],
            "name": "newSuperAdmin",
            "outputs": [],
            "stateMutability": "nonpayable",
            "type": "function"
        },
        {
            "inputs": [
                {
                    "internalType": "address",
                    "name": "",
                    "type": "address"
                },
                {
                    "internalType": "uint256",
                    "name": "",
                    "type": "uint256"
                }
            ],
            "name": "nftProperties",
            "outputs": [
                {
                    "internalType": "string",
                    "name": "pType",
                    "type": "string"
                },
                {
                    "internalType": "uint256",
                    "name": "pValue",
                    "type": "uint256"
                }
            ],
            "stateMutability": "view",
            "type": "function"
        },
        {
            "inputs": [],
            "name": "owner",
            "outputs": [
                {
                    "internalType": "address",
                    "name": "",
                    "type": "address"
                }
            ],
            "stateMutability": "view",
            "type": "function"
        },
        {
            "inputs": [],
            "name": "pendingRewards",
            "outputs": [
                {
                    "internalType": "uint256",
                    "name": "",
                    "type": "uint256"
                }
            ],
            "stateMutability": "view",
            "type": "function"
        },
        {
            "inputs": [],
            "name": "pendingYGYRewards",
            "outputs": [
                {
                    "internalType": "uint256",
                    "name": "",
                    "type": "uint256"
                }
            ],
            "stateMutability": "view",
            "type": "function"
        },
        {
            "inputs": [
                {
                    "internalType": "uint256",
                    "name": "",
                    "type": "uint256"
                }
            ],
            "name": "poolInfo",
            "outputs": [
                {
                    "internalType": "contract IERC20",
                    "name": "token",
                    "type": "address"
                },
                {
                    "internalType": "uint256",
                    "name": "allocPoint",
                    "type": "uint256"
                },
                {
                    "internalType": "uint256",
                    "name": "accRAMPerShare",
                    "type": "uint256"
                },
                {
                    "internalType": "uint256",
                    "name": "accYGYPerShare",
                    "type": "uint256"
                },
                {
                    "internalType": "bool",
                    "name": "withdrawable",
                    "type": "bool"
                },
                {
                    "internalType": "uint256",
                    "name": "effectiveAdditionalTokensFromBoosts",
                    "type": "uint256"
                }
            ],
            "stateMutability": "view",
            "type": "function"
        },
        {
            "inputs": [],
            "name": "poolLength",
            "outputs": [
                {
                    "internalType": "uint256",
                    "name": "",
                    "type": "uint256"
                }
            ],
            "stateMutability": "view",
            "type": "function"
        },
        {
            "inputs": [
                {
                    "internalType": "uint256",
                    "name": "_pid",
                    "type": "uint256"
                },
                {
                    "internalType": "uint256",
                    "name": "_level",
                    "type": "uint256"
                }
            ],
            "name": "purchase",
            "outputs": [],
            "stateMutability": "nonpayable",
            "type": "function"
        },
        {
            "inputs": [],
            "name": "ram",
            "outputs": [
                {
                    "internalType": "contract INBUNIERC20",
                    "name": "",
                    "type": "address"
                }
            ],
            "stateMutability": "view",
            "type": "function"
        },
        {
            "inputs": [],
            "name": "regeneratoraddr",
            "outputs": [
                {
                    "internalType": "address",
                    "name": "",
                    "type": "address"
                }
            ],
            "stateMutability": "view",
            "type": "function"
        },
        {
            "inputs": [],
            "name": "renounceOwnership",
            "outputs": [],
            "stateMutability": "nonpayable",
            "type": "function"
        },
        {
            "inputs": [],
            "name": "rewardsInThisEpoch",
            "outputs": [
                {
                    "internalType": "uint256",
                    "name": "",
                    "type": "uint256"
                }
            ],
            "stateMutability": "view",
            "type": "function"
        },
        {
            "inputs": [
                {
                    "internalType": "uint256",
                    "name": "_pid",
                    "type": "uint256"
                },
                {
                    "internalType": "uint256",
                    "name": "_allocPoint",
                    "type": "uint256"
                },
                {
                    "internalType": "bool",
                    "name": "_withdrawable",
                    "type": "bool"
                }
            ],
            "name": "set",
            "outputs": [],
            "stateMutability": "nonpayable",
            "type": "function"
        },
        {
            "inputs": [
                {
                    "internalType": "address",
                    "name": "spender",
                    "type": "address"
                },
                {
                    "internalType": "uint256",
                    "name": "_pid",
                    "type": "uint256"
                },
                {
                    "internalType": "uint256",
                    "name": "value",
                    "type": "uint256"
                }
            ],
            "name": "setAllowanceForPoolToken",
            "outputs": [],
            "stateMutability": "nonpayable",
            "type": "function"
        },
        {
            "inputs": [
                {
                    "internalType": "uint16",
                    "name": "_DEV_FEE",
                    "type": "uint16"
                }
            ],
            "name": "setDevFee",
            "outputs": [],
            "stateMutability": "nonpayable",
            "type": "function"
        },
        {
            "inputs": [
                {
                    "internalType": "address",
                    "name": "_devaddr",
                    "type": "address"
                }
            ],
            "name": "setDevFeeReciever",
            "outputs": [],
            "stateMutability": "nonpayable",
            "type": "function"
        },
        {
            "inputs": [
                {
                    "internalType": "address",
                    "name": "tokenAddress",
                    "type": "address"
                },
                {
                    "internalType": "uint256",
                    "name": "_amount",
                    "type": "uint256"
                },
                {
                    "internalType": "address",
                    "name": "contractAddress",
                    "type": "address"
                }
            ],
            "name": "setStrategyContractOrDistributionContractAllowance",
            "outputs": [],
            "stateMutability": "nonpayable",
            "type": "function"
        },
        {
            "inputs": [],
            "name": "startNewEpoch",
            "outputs": [],
            "stateMutability": "nonpayable",
            "type": "function"
        },
        {
            "inputs": [
                {
                    "internalType": "string",
                    "name": "source",
                    "type": "string"
                }
            ],
            "name": "stringToBytes32",
            "outputs": [
                {
                    "internalType": "bytes32",
                    "name": "result",
                    "type": "bytes32"
                }
            ],
            "stateMutability": "pure",
            "type": "function"
        },
        {
            "inputs": [],
            "name": "superAdmin",
            "outputs": [
                {
                    "internalType": "address",
                    "name": "",
                    "type": "address"
                }
            ],
            "stateMutability": "view",
            "type": "function"
        },
        {
            "inputs": [],
            "name": "teamaddr",
            "outputs": [
                {
                    "internalType": "address",
                    "name": "",
                    "type": "address"
                }
            ],
            "stateMutability": "view",
            "type": "function"
        },
        {
            "inputs": [],
            "name": "ticketCount",
            "outputs": [
                {
                    "internalType": "uint256",
                    "name": "",
                    "type": "uint256"
                }
            ],
            "stateMutability": "view",
            "type": "function"
        },
        {
            "inputs": [
                {
                    "internalType": "uint256",
                    "name": "",
                    "type": "uint256"
                }
            ],
            "name": "tickets",
            "outputs": [
                {
                    "internalType": "address",
                    "name": "owner",
                    "type": "address"
                },
                {
                    "internalType": "uint256",
                    "name": "levelOneChance",
                    "type": "uint256"
                },
                {
                    "internalType": "uint256",
                    "name": "levelTwoChance",
                    "type": "uint256"
                },
                {
                    "internalType": "uint256",
                    "name": "levelThreeChance",
                    "type": "uint256"
                },
                {
                    "internalType": "uint256",
                    "name": "levelFourChance",
                    "type": "uint256"
                },
                {
                    "internalType": "uint256",
                    "name": "levelFiveChance",
                    "type": "uint256"
                }
            ],
            "stateMutability": "view",
            "type": "function"
        },
        {
            "inputs": [],
            "name": "totalAllocPoint",
            "outputs": [
                {
                    "internalType": "uint256",
                    "name": "",
                    "type": "uint256"
                }
            ],
            "stateMutability": "view",
            "type": "function"
        },
        {
            "inputs": [
                {
                    "internalType": "address",
                    "name": "newOwner",
                    "type": "address"
                }
            ],
            "name": "transferOwnership",
            "outputs": [],
            "stateMutability": "nonpayable",
            "type": "function"
        },
        {
            "inputs": [],
            "name": "transferRAMDevFee",
            "outputs": [],
            "stateMutability": "nonpayable",
            "type": "function"
        },
        {
            "inputs": [],
            "name": "transferYGYDevFee",
            "outputs": [],
            "stateMutability": "nonpayable",
            "type": "function"
        },
        {
            "inputs": [
                {
                    "internalType": "uint256",
                    "name": "",
                    "type": "uint256"
                }
            ],
            "name": "uintStorageCount",
            "outputs": [
                {
                    "internalType": "uint256",
                    "name": "",
                    "type": "uint256"
                }
            ],
            "stateMutability": "view",
            "type": "function"
        },
        {
            "inputs": [
                {
                    "internalType": "uint256[]",
                    "name": "_boostMultipliers",
                    "type": "uint256[]"
                },
                {
                    "internalType": "uint256[]",
                    "name": "_boostCosts",
                    "type": "uint256[]"
                }
            ],
            "name": "updateBoosts",
            "outputs": [],
            "stateMutability": "nonpayable",
            "type": "function"
        },
        {
            "inputs": [
                {
                    "internalType": "uint256",
                    "name": "",
                    "type": "uint256"
                },
                {
                    "internalType": "address",
                    "name": "",
                    "type": "address"
                }
            ],
            "name": "userInfo",
            "outputs": [
                {
                    "internalType": "uint256",
                    "name": "amount",
                    "type": "uint256"
                },
                {
                    "internalType": "uint256",
                    "name": "rewardDebt",
                    "type": "uint256"
                },
                {
                    "internalType": "uint256",
                    "name": "rewardDebtYGY",
                    "type": "uint256"
                },
                {
                    "internalType": "uint256",
                    "name": "boostAmount",
                    "type": "uint256"
                },
                {
                    "internalType": "uint256",
                    "name": "boostLevel",
                    "type": "uint256"
                },
                {
                    "internalType": "uint256",
                    "name": "spentMultiplierTokens",
                    "type": "uint256"
                }
            ],
            "stateMutability": "view",
            "type": "function"
        },
        {
            "inputs": [
                {
                    "internalType": "uint256",
                    "name": "_pid",
                    "type": "uint256"
                },
                {
                    "internalType": "uint256",
                    "name": "_amount",
                    "type": "uint256"
                }
            ],
            "name": "withdraw",
            "outputs": [],
            "stateMutability": "nonpayable",
            "type": "function"
        },
        {
            "inputs": [
                {
                    "internalType": "address",
                    "name": "owner",
                    "type": "address"
                },
                {
                    "internalType": "uint256",
                    "name": "_pid",
                    "type": "uint256"
                },
                {
                    "internalType": "uint256",
                    "name": "_amount",
                    "type": "uint256"
                }
            ],
            "name": "withdrawFrom",
            "outputs": [],
            "stateMutability": "nonpayable",
            "type": "function"
        },
        {
            "inputs": [],
            "name": "ygy",
            "outputs": [
                {
                    "internalType": "contract IERC20",
                    "name": "",
                    "type": "address"
                }
            ],
            "stateMutability": "view",
            "type": "function"
        }
    ],
    "bytecode": "608060405234801561001057600080fd5b506146a9806100206000396000f3fe608060405234801561001057600080fd5b506004361061043e5760003560e01c806370876c9811610236578063bcb490861161013b578063dbe0901f116100c3578063eded3fda11610087578063eded3fda14610e97578063ee02ea1b14610e9f578063f2fde38b14610f43578063f7db38cb14610f69578063fb70c3bf14610f715761043e565b8063dbe0901f14610d41578063e18cb4fe14610d73578063e2bbb15814610d94578063e671fab514610db7578063e941c85614610e7a5761043e565b8063cc40f6641161010a578063cc40f66414610c4a578063cfb5192814610c70578063cfbd900f14610d14578063d49e77cd14610d1c578063d6cf802114610d245761043e565b8063bcb4908614610be7578063c401458814610c04578063c8ffb87314610c3a578063cc1362ec14610c425761043e565b8063934eaa50116101be578063a676860a1161018d578063a676860a14610a68578063ad1414b214610a8e578063b2f4b44a14610ab4578063b81a0b4c14610bd7578063bb57ad2014610bdf5761043e565b8063934eaa5014610a2457806393f1a40b14610a2c5780639649d76c14610a585780639a6d271114610a605761043e565b80637d3b8da1116102055780637d3b8da1146109fc5780638b6ff57b14610a045780638da5cb5b14610a0c5780638f33b5e514610a14578063900cf0cf14610a1c5761043e565b806370876c98146109ac578063715018a6146109cf578063795d79f5146109d75780637cf75ca3146109f45761043e565b80633b24bd4a1161034757806350b44712116102cf578063630b5ba111610293578063630b5ba11461092257806364482f791461092a5780636798f19f146109555780636a9d1f6f146109725780636b42ee551461098f5761043e565b806350b447121461087e5780635312ea8e146108d85780635d577c18146108f55780635f0c0f2b146108fd578063608c8d3a1461091a5761043e565b8063441a3e7011610316578063441a3e70146107c1578063469fcdcb146107e4578063485cc955146108015780634cf5fbf51461082f5780634dc47d34146108615761043e565b80633b24bd4a146107625780633b6a68491461076a5780633fe6a27814610787578063423d6fa0146107a45761043e565b806329575f6a116103ca57806330d27e941161039957806330d27e941461063757806331db122c146106e257806336644334146106ea5780633a0967cd146107285780633aab0a621461075a5761043e565b806329575f6a146105c85780632d6754e5146105ec5780632f380b35146106125780632f4f8a7a1461062f5761043e565b80631069f3b5116104115780631069f3b5146104c95780631526fe271461052857806317caf6f1146105845780631dbf779e1461058c5780631eaaa045146105945761043e565b8063081e3eda146104435780630962ef791461045d57806309e3de411461047c57806310178d9c14610484575b600080fd5b61044b610f79565b60408051918252519081900360200190f35b61047a6004803603602081101561047357600080fd5b5035610f7f565b005b61044b610fc6565b6104b06004803603604081101561049a57600080fd5b50803590602001356001600160a01b0316610fcc565b6040805192835260208301919091528051918290030190f35b6104f5600480360360408110156104df57600080fd5b50803590602001356001600160a01b031661109e565b604080519687526020870195909552858501939093526060850191909152608084015260a0830152519081900360c00190f35b6105456004803603602081101561053e57600080fd5b503561112e565b604080516001600160a01b03909716875260208701959095528585019390935260608501919091521515608084015260a0830152519081900360c00190f35b61044b611181565b61044b611187565b61047a600480360360608110156105aa57600080fd5b508035906001600160a01b036020820135169060400135151561118d565b6105d06113ef565b604080516001600160a01b039092168252519081900360200190f35b61047a6004803603602081101561060257600080fd5b50356001600160a01b03166113fe565b6105456004803603602081101561062857600080fd5b5035611478565b6105d0611518565b6106636004803603604081101561064d57600080fd5b506001600160a01b038135169060200135611527565b6040518080602001838152602001828103825284818151815260200191508051906020019080838360005b838110156106a657818101518382015260200161068e565b50505050905090810190601f1680156106d35780820380516001836020036101000a031916815260200191505b50935050505060405180910390f35b61044b6115e6565b61047a6004803603608081101561070057600080fd5b506001600160a01b0381358116916020810135821691604082013581169160600135166115ec565b61047a6004803603606081101561073e57600080fd5b506001600160a01b038135169060208101359060400135611828565b61047a61191e565b6105d061196a565b61047a6004803603602081101561078057600080fd5b5035611979565b61047a6004803603602081101561079d57600080fd5b5035611a8a565b61047a600480360360208110156107ba57600080fd5b5035611b8a565b61047a600480360360408110156107d757600080fd5b5080359060200135611c12565b61044b600480360360208110156107fa57600080fd5b5035611c22565b61047a6004803603604081101561081757600080fd5b506001600160a01b0381358116916020013516611c34565b61047a6004803603606081101561084557600080fd5b506001600160a01b038135169060208101359060400135611d2a565b61044b6004803603602081101561087757600080fd5b5035611ed6565b61089b6004803603602081101561089457600080fd5b5035611ee8565b604080516001600160a01b0390971687526020870195909552858501939093526060850191909152608084015260a0830152519081900360c00190f35b61047a600480360360208110156108ee57600080fd5b5035611f27565b61044b611fe2565b61044b6004803603602081101561091357600080fd5b5035611fe8565b61044b611ffd565b61047a612003565b61047a6004803603606081101561094057600080fd5b5080359060208101359060400135151561206e565b61044b6004803603602081101561096b57600080fd5b5035612169565b61044b6004803603602081101561098857600080fd5b503561217b565b61044b600480360360208110156109a557600080fd5b503561218d565b61047a600480360360408110156109c257600080fd5b50803590602001356121ab565b61047a61244e565b6105d0600480360360208110156109ed57600080fd5b50356124f0565b61047a61250b565b6105d061279f565b61044b6127ae565b6105d06127b4565b6105d06127c3565b61044b6127d2565b61047a6127d8565b6104f560048036036040811015610a4257600080fd5b50803590602001356001600160a01b0316612847565b61044b612887565b6105d061288d565b61047a60048036036020811015610a7e57600080fd5b50356001600160a01b031661289c565b61044b60048036036020811015610aa457600080fd5b50356001600160a01b0316612932565b61047a60048036036040811015610aca57600080fd5b810190602081018135600160201b811115610ae457600080fd5b820183602082011115610af657600080fd5b803590602001918460208302840111600160201b83111715610b1757600080fd5b9190808060200260200160405190810160405280939291908181526020018383602002808284376000920191909152509295949360208101935035915050600160201b811115610b6657600080fd5b820183602082011115610b7857600080fd5b803590602001918460208302840111600160201b83111715610b9957600080fd5b919080806020026020016040519081016040528093929190818152602001838360200280828437600092019190915250929550612944945050505050565b6105d0612a18565b61047a612a27565b61044b60048036036020811015610bfd57600080fd5b5035612c23565b61047a60048036036060811015610c1a57600080fd5b506001600160a01b03813581169160208101359160409091013516612c35565b61044b612d3c565b61047a612d42565b61044b60048036036020811015610c6057600080fd5b50356001600160a01b0316612fd5565b61044b60048036036020811015610c8657600080fd5b810190602081018135600160201b811115610ca057600080fd5b820183602082011115610cb257600080fd5b803590602001918460018302840111600160201b83111715610cd357600080fd5b91908080601f016020809104026020016040519081016040528093929190818152602001838380828437600092019190915250929550612fe7945050505050565b61044b613005565b6105d061300b565b61044b60048036036020811015610d3a57600080fd5b503561301a565b61047a60048036036060811015610d5757600080fd5b506001600160a01b038135169060208101359060400135613027565b61047a60048036036020811015610d8957600080fd5b503561ffff166130ab565b61047a60048036036040811015610daa57600080fd5b508035906020013561316a565b610e6660048036036040811015610dcd57600080fd5b810190602081018135600160201b811115610de757600080fd5b820183602082011115610df957600080fd5b803590602001918460018302840111600160201b83111715610e1a57600080fd5b91908080601f016020809104026020016040519081016040528093929190818152602001838380828437600092019190915250929550505090356001600160a01b031691506133069050565b604080519115158252519081900360200190f35b61044b60048036036020811015610e9057600080fd5b503561333a565b61044b613347565b6105d060048036036020811015610eb557600080fd5b810190602081018135600160201b811115610ecf57600080fd5b820183602082011115610ee157600080fd5b803590602001918460018302840111600160201b83111715610f0257600080fd5b91908080601f01602080910402602001604051908101604052809392919081815260200183838082843760009201919091525092955061334d945050505050565b61047a60048036036020811015610f5957600080fd5b50356001600160a01b0316613378565b6105d0613471565b6105d0613480565b60985490565b610f89813361348f565b6040805182815233602082015281517fc05cbf47ef4152ea1b2446fb1ba8eb9c7285054d9c85f2f52c294200d8d1d38b929181900390910190a150565b60ad5481565b600080600060988581548110610fde57fe5b600091825260208083208884526097825260408085206001600160a01b038a1686529092529083206003810154815460079094029092019450929161102291613543565b90506000808460030154111561106957611066836002015461106064e8d4a5100061105a8860030154876135a690919063ffffffff16565b906135ff565b90613641565b90505b611091836001015461106064e8d4a5100061105a8860020154876135a690919063ffffffff16565b9890975095505050505050565b6000806000806000806110af614517565b505050600095865250506097602090815260408086206001600160a01b0395909516865293815293839020835160c08101855281548082526001830154968201879052600283015495820186905260038301546060830181905260048401546080840181905260059094015460a0909301839052909790945091925090565b6098818154811061113b57fe5b60009182526020909120600790910201805460018201546002830154600384015460048501546006909501546001600160a01b0390941695509193909260ff9091169086565b609f5481565b60a25481565b611195613683565b6065546001600160a01b039081169116146111e5576040805162461bcd60e51b815260206004820181905260248201526000805160206145fc833981519152604482015290519081900360640190fd5b6111ed612003565b60005b60985481101561128657826001600160a01b03166098828154811061121157fe5b60009182526020909120600790910201546001600160a01b0316141561127e576040805162461bcd60e51b815260206004820152601860248201527f4572726f7220706f6f6c20616c72656164792061646465640000000000000000604482015290519081900360640190fd5b6001016111f0565b50609f546112949084613543565b609f556040805160c0810182526001600160a01b039384168152602081019485526000918101828152606082018381529315156080830190815260a0830184815260988054600181018255955292517f2237a976fa961f5921fd19f2b03c925c725d77b20ce8f790c19709c03de4d814600790950294850180546001600160a01b031916919097161790955594517f2237a976fa961f5921fd19f2b03c925c725d77b20ce8f790c19709c03de4d81583015593517f2237a976fa961f5921fd19f2b03c925c725d77b20ce8f790c19709c03de4d81682015590517f2237a976fa961f5921fd19f2b03c925c725d77b20ce8f790c19709c03de4d81782015590517f2237a976fa961f5921fd19f2b03c925c725d77b20ce8f790c19709c03de4d8188201805460ff191691151591909117905590517f2237a976fa961f5921fd19f2b03c925c725d77b20ce8f790c19709c03de4d81a90910155565b60c2546001600160a01b031690565b611406613683565b6065546001600160a01b03908116911614611456576040805162461bcd60e51b815260206004820181905260248201526000805160206145fc833981519152604482015290519081900360640190fd5b60bd80546001600160a01b0319166001600160a01b0392909216919091179055565b60008060008060008061148961454d565b6098888154811061149657fe5b60009182526020918290206040805160c08101825260079390930290910180546001600160a01b031680845260018201549484018590526002820154928401839052600382015460608501819052600483015460ff1615156080860181905260069093015460a0909501859052909d949c50919a509098509650945092505050565b609b546001600160a01b031681565b60b6602052816000526040600020818154811061154057fe5b60009182526020918290206002918202018054604080516001831615610100026000190190921693909304601f8101859004850282018501909352828152909450925083918301828280156115d65780601f106115ab576101008083540402835291602001916115d6565b820191906000526020600020905b8154815290600101906020018083116115b957829003601f168201915b5050505050908060010154905082565b60a55481565b600054610100900460ff16806116055750611605613687565b80611613575060005460ff16155b61164e5760405162461bcd60e51b815260040180806020018281038252602e81526020018061461c602e913960400191505060405180910390fd5b600054610100900460ff16158015611679576000805460ff1961ff0019909116610100171660011790555b609980546001600160a01b038088166001600160a01b031992831617909255609a805487841690831617905560ac805486841690831617905560ab8054928516929091169190911790554360a555674563918244f400007fa48c146aff2b99f3caa3b8b735fb3553da3a3d1861b7483337aba478657c61d15567d02ab486cedc00007fbcbaa5b09af5b9ee16e708916ef421bb1a9f6553cca50cea957380581a962095556801a055690d9db800007f41dc00d57acd93277eee38b26add9196cc21fa10e81779b8f8a41ddafc7e501055680340aad21b3b7000007f2863961d3264ea2f83beef76aa2ec70eff5d5fee7fb65a1fcad844f7a9fe1aba5560af60205260057f900700e6bd57e6422dfd94f65cfe467c2bdd2d930a52c3d0980a8f38ab604c7f55600f7f3eed66fa71e60125d2fd69862cfa0d6a64fee0b5e6ce41d738adbbd1320e153855601e7fd1f7230ef7ce05c63c79bd2da0ef33773da184b006aecd5647472a85863c30ae556004600052603c7f933cb0270ff7df4494a53acf75562260c5e04279ad4ab7cf990c72d8b672f904558015611821576000805461ff00191690555b5050505050565b60006098838154811061183757fe5b600091825260208083206001600160a01b0388168452600560079093020191820181526040808420338552909152909120549091508211156118af576040805162461bcd60e51b815260206004820152600c60248201526b4e6f20616c6c6f77616e636560a01b604482015290519081900360640190fd5b6001600160a01b038416600090815260058201602090815260408083203384529091529020546118df9083613641565b6001600160a01b03851660009081526005830160209081526040808320338085529252909120919091556119189084908490879061368d565b50505050565b4360a65461c350011061193057600080fd5b60a95460aa54600090815260b06020526040902081905560a75461195391613543565b60a755600060a9554360a65560aa80546001019055565b609d546001600160a01b031681565b611981613683565b6065546001600160a01b039081169116146119d1576040805162461bcd60e51b815260206004820181905260248201526000805160206145fc833981519152604482015290519081900360640190fd5b609954604080516323b872dd60e01b81523360048201523060248201526044810184905290516001600160a01b03909216916323b872dd916064808201926020929091908290030181600087803b158015611a2b57600080fd5b505af1158015611a3f573d6000803e3d6000fd5b505050506040513d6020811015611a5557600080fd5b5051611a6057600080fd5b8015611a875760a054611a739082613543565b60a05560a954611a839082613543565b60a9555b50565b611a92613683565b6065546001600160a01b03908116911614611ae2576040805162461bcd60e51b815260206004820181905260248201526000805160206145fc833981519152604482015290519081900360640190fd5b609a54604080516323b872dd60e01b81523360048201523060248201526044810184905290516001600160a01b03909216916323b872dd916064808201926020929091908290030181600087803b158015611b3c57600080fd5b505af1158015611b50573d6000803e3d6000fd5b505050506040513d6020811015611b6657600080fd5b5051611b7157600080fd5b8015611a875760a254611b849082613543565b60a25550565b6099546001600160a01b03163314611ba157600080fd5b60a054611bae9082613543565b60a05560a954611bbe9082613543565b60a95560a254811015611bf05760a154611bd89082613543565b60a15560a254611be89082613641565b60a255611a87565b60a25415611a875760a25460a154611c0791613543565b60a155600060a25550565b611c1e8282333361368d565b5050565b60ae6020526000908152604090205481565b600054610100900460ff1680611c4d5750611c4d613687565b80611c5b575060005460ff16155b611c965760405162461bcd60e51b815260040180806020018281038252602e81526020018061461c602e913960400191505060405180910390fd5b600054610100900460ff16158015611cc1576000805460ff1961ff0019909116610100171660011790555b611cc96137ee565b60bf805461ffff60a01b191660b560a21b176001600160a01b03199081166001600160a01b0386811691821790935560be80548316909117905560c280549091169184169190911790558015611d25576000805461ff00191690555b505050565b600060988381548110611d3957fe5b600091825260208083208684526097825260408085206001600160a01b038a168652909252922060079091029091019150611d74848661348f565b8215611e33578154604080516323b872dd60e01b81523360048201523060248201526044810186905290516001600160a01b03909216916323b872dd916064808201926020929091908290030181600087803b158015611dd357600080fd5b505af1158015611de7573d6000803e3d6000fd5b505050506040513d6020811015611dfd57600080fd5b50508054611e0b9084613543565b8155600481015415611e335760be54611e3390839083906000906001600160a01b031661389f565b60038101548154600091611e479190613543565b9050611e6964e8d4a5100061105a8560020154846135a690919063ffffffff16565b60018301556003830154611e899064e8d4a510009061105a9084906135a6565b600283015560408051858152905186916001600160a01b038916917f90890809c654f11d6e72a28fa60149770a0d11ec6c92319d6ceb2bb0a4ea1a159181900360200190a3505050505050565b60b06020526000908152604090205481565b60b2602052600090815260409020805460018201546002830154600384015460048501546005909501546001600160a01b039094169492939192909186565b600060988281548110611f3657fe5b60009182526020909120600790910201600481015490915060ff16611f5a57600080fd5b6000828152609760209081526040808320338085529252909120805483549192611f8d926001600160a01b03169161392e565b80546040805191825251849133917fbb757047c2b5f3974fe26b7c10f732e7bce710b0952a71082702781e62ae05959181900360200190a3600080825560038201819055600182018190556002909101555050565b60a65481565b600081815260b060205260409020545b919050565b60a95481565b60008060005b6098548110156120495760008061201f83613980565b909250905061202e8583613543565b945061203a8482613543565b93505050806001019050612009565b5060a0546120579083613641565b60a05560a1546120679082613641565b60a1555050565b612076613683565b6065546001600160a01b039081169116146120c6576040805162461bcd60e51b815260206004820181905260248201526000805160206145fc833981519152604482015290519081900360640190fd5b6120ce612003565b61210b82612105609886815481106120e257fe5b906000526020600020906007020160010154609f5461364190919063ffffffff16565b90613543565b609f81905550816098848154811061211f57fe5b906000526020600020906007020160010181905550806098848154811061214257fe5b60009182526020909120600790910201600401805460ff1916911515919091179055505050565b600090815260af602052604090205490565b600090815260ae602052604090205490565b60ba818154811061219a57fe5b600091825260209091200154905081565b6000609883815481106121ba57fe5b600091825260208083208684526097825260408085203386529092529220600481015460079092029092019250831180156121f6575060048311155b6121ff57600080fd5b60bf5460408051636a9d1f6f60e01b81526004810186905290516000926001600160a01b031691636a9d1f6f916024808301926020929190829003018186803b15801561224b57600080fd5b505afa15801561225f573d6000803e3d6000fd5b505050506040513d602081101561227557600080fd5b5051600583015490915060009061228d908390613641565b609954604080516323b872dd60e01b81523360048201523060248201526044810184905290519293506001600160a01b03909116916323b872dd916064808201926020929091908290030181600087803b1580156122ea57600080fd5b505af11580156122fe573d6000803e3d6000fd5b505050506040513d602081101561231457600080fd5b505161231f57600080fd5b600583015461232e9082613543565b6005840155600483018590558254156124075760bf5460408051636798f19f60e01b81526004810188905290516000926001600160a01b031691636798f19f916024808301926020929190829003018186803b15801561238d57600080fd5b505afa1580156123a1573d6000803e3d6000fd5b505050506040513d60208110156123b757600080fd5b505184549091506000906123d29060649061105a90856135a6565b6003860180549082905590915060006123eb8383613641565b60068901549091506123fd9082613543565b6006890155505050505b60ad546124149082613543565b60ad556040518590879033907faadc628cb4fd3bb7a62795eb460290459458bdc6f387ffde727c740f42c1833790600090a4505050505050565b612456613683565b6065546001600160a01b039081169116146124a6576040805162461bcd60e51b815260206004820181905260248201526000805160206145fc833981519152604482015290519081900360640190fd5b6065546040516000916001600160a01b0316907f8be0079c531659141344cd1fd0a4f28419497f9722a3daafe3b4186f6b6457e0908390a3606580546001600160a01b0319169055565b60b5602052600090815260409020546001600160a01b031681565b60c0541561279d57609954604080516370a0823160e01b81523060048201529051600092839283926001600160a01b03909216916370a0823191602480820192602092909190829003018186803b15801561256557600080fd5b505afa158015612579573d6000803e3d6000fd5b505050506040513d602081101561258f57600080fd5b505160c0549091508110156125c7576125ae606461105a8360466135a6565b92506125c0606461105a83601e6135a6565b9150612602565b6125e2606461105a604660c0546135a690919063ffffffff16565b92506125ff606461105a601e60c0546135a690919063ffffffff16565b91505b821561268e5760995460bd546040805163a9059cbb60e01b81526001600160a01b039283166004820152602481018790529051919092169163a9059cbb9160448083019260209291908290030181600087803b15801561266157600080fd5b505af1158015612675573d6000803e3d6000fd5b505050506040513d602081101561268b57600080fd5b50505b811561271a5760995460ac546040805163a9059cbb60e01b81526001600160a01b039283166004820152602481018690529051919092169163a9059cbb9160448083019260209291908290030181600087803b1580156126ed57600080fd5b505af1158015612701573d6000803e3d6000fd5b505050506040513d602081101561271757600080fd5b50505b609954604080516370a0823160e01b815230600482015290516001600160a01b03909216916370a0823191602480820192602092909190829003018186803b15801561276557600080fd5b505afa158015612779573d6000803e3d6000fd5b505050506040513d602081101561278f57600080fd5b505160a3555050600060c055505b565b60ab546001600160a01b031681565b60a15481565b6065546001600160a01b031690565b6099546001600160a01b031681565b60aa5481565b6127e0613683565b60c2546001600160a01b039081169116146127fa57600080fd5b60c280546001600160a01b0319169055604080516000808252602082015281517ff564c40f4f45e62a2c1e6c22e8bfb46501f0f71fa1c72e5358903fa1115a4b64929181900390910190a1565b6097602090815260009283526040808420909152908252902080546001820154600283015460038401546004850154600590950154939492939192909186565b60a85481565b60ac546001600160a01b031681565b6128a4613683565b60c2546001600160a01b039081169116146128be57600080fd5b6001600160a01b0381166128d157600080fd5b60c280546001600160a01b0319166001600160a01b038381169182179283905560408051939091168352602083019190915280517ff564c40f4f45e62a2c1e6c22e8bfb46501f0f71fa1c72e5358903fa1115a4b649281900390910190a150565b60b36020526000908152604090205481565b61294c613683565b6065546001600160a01b0390811691161461299c576040805162461bcd60e51b815260206004820181905260248201526000805160206145fc833981519152604482015290519081900360640190fd5b60005b82518160ff1611611d2557818160ff16815181106129b957fe5b602002602001015160ae60008360010160ff16815260200190815260200160002081905550828160ff16815181106129ed57fe5b60209081029190910181015160ff6001909301928316600090815260af90925260409091205561299f565b609e546001600160a01b031681565b60ad805460009182905590612a3d8260026135ff565b90508015611c1e5760995460ab546040805163a9059cbb60e01b81526001600160a01b039283166004820152602481018590529051919092169163a9059cbb9160448083019260209291908290030181600087803b158015612a9e57600080fd5b505af1158015612ab2573d6000803e3d6000fd5b505050506040513d6020811015612ac857600080fd5b5051612ad357600080fd5b6000612ae5606461105a8460466135a6565b90508015612b7b5760995460bd546040805163a9059cbb60e01b81526001600160a01b039283166004820152602481018590529051919092169163a9059cbb9160448083019260209291908290030181600087803b158015612b4657600080fd5b505af1158015612b5a573d6000803e3d6000fd5b505050506040513d6020811015612b7057600080fd5b5051612b7b57600080fd5b6000612b8d606461105a85601e6135a6565b905080156119185760995460ac546040805163a9059cbb60e01b81526001600160a01b039283166004820152602481018590529051919092169163a9059cbb9160448083019260209291908290030181600087803b158015612bee57600080fd5b505af1158015612c02573d6000803e3d6000fd5b505050506040513d6020811015612c1857600080fd5b505161191857600080fd5b60af6020526000908152604090205481565b612c3e81613b56565b8015612c5f5750612c4d613683565b60c2546001600160a01b039081169116145b612c6857600080fd5b60a554612c789062017318613543565b4311612cbb576040805162461bcd60e51b815260206004820152600d60248201526c476f76206e6f7420726561647960981b604482015290519081900360640190fd5b826001600160a01b031663095ea7b382846040518363ffffffff1660e01b815260040180836001600160a01b0316815260200182815260200192505050602060405180830381600087803b158015612d1257600080fd5b505af1158015612d26573d6000803e3d6000fd5b505050506040513d602081101561182157600080fd5b60a75481565b60c1541561279d57609a54604080516370a0823160e01b81523060048201529051600092839283926001600160a01b03909216916370a0823191602480820192602092909190829003018186803b158015612d9c57600080fd5b505afa158015612db0573d6000803e3d6000fd5b505050506040513d6020811015612dc657600080fd5b505160c154909150811015612dfe57612de5606461105a8360466135a6565b9250612df7606461105a83601e6135a6565b9150612e39565b612e19606461105a604660c1546135a690919063ffffffff16565b9250612e36606461105a601e60c1546135a690919063ffffffff16565b91505b8215612ec557609a5460bd546040805163a9059cbb60e01b81526001600160a01b039283166004820152602481018790529051919092169163a9059cbb9160448083019260209291908290030181600087803b158015612e9857600080fd5b505af1158015612eac573d6000803e3d6000fd5b505050506040513d6020811015612ec257600080fd5b50505b8115612f5157609a5460ac546040805163a9059cbb60e01b81526001600160a01b039283166004820152602481018690529051919092169163a9059cbb9160448083019260209291908290030181600087803b158015612f2457600080fd5b505af1158015612f38573d6000803e3d6000fd5b505050506040513d6020811015612f4e57600080fd5b50505b609a54604080516370a0823160e01b815230600482015290516001600160a01b03909216916370a0823191602480820192602092909190829003018186803b158015612f9c57600080fd5b505afa158015612fb0573d6000803e3d6000fd5b505050506040513d6020811015612fc657600080fd5b505160a4555050600060c15550565b60b46020526000908152604090205481565b80516000908290612ffc575060009050611ff8565b50506020015190565b60b15481565b60bd546001600160a01b031681565b60b8818154811061219a57fe5b60006098838154811061303657fe5b60009182526020808320338085526007939093020160058101825260408085206001600160a01b038a1680875290845294819020879055805188815292830187905280519195507fb3fd5071835887567a0671151121894ddccc2842f1d10bedad13e0d17cace9a7928290030190a350505050565b6130b3613683565b6065546001600160a01b03908116911614613103576040805162461bcd60e51b815260206004820181905260248201526000805160206145fc833981519152604482015290519081900360640190fd5b6103e88161ffff161115613148576040805162461bcd60e51b81526020600482015260076024820152664d61782031302560c81b604482015290519081900360640190fd5b60bf805461ffff909216600160a01b0261ffff60a01b19909216919091179055565b60006098838154811061317957fe5b6000918252602080832086845260978252604080852033808752935290932060079092029092019250906131ae90859061348f565b821561326d578154604080516323b872dd60e01b81523360048201523060248201526044810186905290516001600160a01b03909216916323b872dd916064808201926020929091908290030181600087803b15801561320d57600080fd5b505af1158015613221573d6000803e3d6000fd5b505050506040513d602081101561323757600080fd5b505080546132459084613543565b815560048101541561326d5760be5461326d90839083906000906001600160a01b031661389f565b600381015481546000916132819190613543565b90506132a364e8d4a5100061105a8560020154846135a690919063ffffffff16565b600183015560038301546132c39064e8d4a510009061105a9084906135a6565b6002830155604080518581529051869133917f90890809c654f11d6e72a28fa60149770a0d11ec6c92319d6ceb2bb0a4ea1a159181900360200190a35050505050565b60008061331284612fe7565b600090815260b76020908152604082206001600160a01b039095169091529290925292915050565b60bc818154811061219a57fe5b60a05481565b60008061335983612fe7565b600090815260b960205260409020546001600160a01b03169392505050565b613380613683565b6065546001600160a01b039081169116146133d0576040805162461bcd60e51b815260206004820181905260248201526000805160206145fc833981519152604482015290519081900360640190fd5b6001600160a01b0381166134155760405162461bcd60e51b815260040180806020018281038252602681526020018061458f6026913960400191505060405180910390fd5b6065546040516001600160a01b038084169216907f8be0079c531659141344cd1fd0a4f28419497f9722a3daafe3b4186f6b6457e090600090a3606580546001600160a01b0319166001600160a01b0392909216919091179055565b609c546001600160a01b031681565b609a546001600160a01b031681565b613497612003565b60bf5460408051630405e36760e21b8152600481018590526001600160a01b038481166024830152825160009485949216926310178d9c926044808301939192829003018186803b1580156134eb57600080fd5b505afa1580156134ff573d6000803e3d6000fd5b505050506040513d604081101561351557600080fd5b50805160209091015190925090508115613533576135338383613b5c565b8015611918576119188382613d6a565b60008282018381101561359d576040805162461bcd60e51b815260206004820152601b60248201527f536166654d6174683a206164646974696f6e206f766572666c6f770000000000604482015290519081900360640190fd5b90505b92915050565b6000826135b5575060006135a0565b828202828482816135c257fe5b041461359d5760405162461bcd60e51b81526004018080602001828103825260218152602001806145db6021913960400191505060405180910390fd5b600061359d83836040518060400160405280601a81526020017f536166654d6174683a206469766973696f6e206279207a65726f000000000000815250613f78565b600061359d83836040518060400160405280601e81526020017f536166654d6174683a207375627472616374696f6e206f766572666c6f77000081525061401c565b3390565b303b1590565b60006098858154811061369c57fe5b60009182526020909120600790910201600481015490915060ff166136c057600080fd5b60008581526097602090815260408083206001600160a01b0387168452909152902080548511156136f057600080fd5b6136fa868561348f565b841561374a57805461370c9086613641565b81558154613724906001600160a01b0316848761392e565b60048101541561374a5760be5461374a90839083906001906001600160a01b031661389f565b6003810154815460009161375e9190613543565b905061378064e8d4a5100061105a8560020154846135a690919063ffffffff16565b600183015560038301546137a09064e8d4a510009061105a9084906135a6565b600283015560408051878152905188916001600160a01b038716917ff279e6a1f5e320cca91135676d9cb6e44ca8a08c0b88342bcdb1144f6511b5689181900360200190a350505050505050565b600054610100900460ff16806138075750613807613687565b80613815575060005460ff16155b6138505760405162461bcd60e51b815260040180806020018281038252602e81526020018061461c602e913960400191505060405180910390fd5b600054610100900460ff1615801561387b576000805460ff1961ff0019909116610100171660011790555b613883614076565b61388b614116565b8015611a87576000805461ff001916905550565b600383015460048401546000906138b6908461420f565b905060006138d6606461105a8489600001546135a690919063ffffffff16565b6003870181905590508415613907576138fd6138f28483613641565b600689015490613641565b6006880155613925565b61391f6139148285613641565b600689015490613543565b60068801555b50505050505050565b604080516001600160a01b038416602482015260448082018490528251808303909101815260649091019091526020810180516001600160e01b031663a9059cbb60e01b179052611d2590849061428d565b60008060006098848154811061399257fe5b6000918252602080832060079092029091018054604080516370a0823160e01b815230600482015290519295506001600160a01b03909116926370a0823192602480840193829003018186803b1580156139eb57600080fd5b505afa1580156139ff573d6000803e3d6000fd5b505050506040513d6020811015613a1557600080fd5b5051905080613a2c57600080935093505050613b51565b613a4b609f5461105a846001015460a0546135a690919063ffffffff16565b60bf54909450600090613a72906127109061105a908890600160a01b900461ffff166135a6565b60c054909150613a829082613543565b60c055609f54600184015460a154613a9f929161105a91906135a6565b60bf54909450600090613ac6906127109061105a908890600160a01b900461ffff166135a6565b60c154909150613ad69082613543565b60c1556006840154600090613aec908590613543565b9050613b19613b0e8261105a64e8d4a51000613b088c89613641565b906135a6565b600287015490613543565b6002860155613b43613b388261105a64e8d4a51000613b088b88613641565b600387015490613543565b856003018190555050505050505b915091565b3b151590565b609954604080516370a0823160e01b815230600482015290516000926001600160a01b0316916370a08231916024808301926020929190829003018186803b158015613ba757600080fd5b505afa158015613bbb573d6000803e3d6000fd5b505050506040513d6020811015613bd157600080fd5b5051905080821115613c65576099546040805163a9059cbb60e01b81526001600160a01b038681166004830152602482018590529151919092169163a9059cbb9160448083019260209291908290030181600087803b158015613c3357600080fd5b505af1158015613c47573d6000803e3d6000fd5b505050506040513d6020811015613c5d57600080fd5b50613ce89050565b6099546040805163a9059cbb60e01b81526001600160a01b038681166004830152602482018690529151919092169163a9059cbb9160448083019260209291908290030181600087803b158015613cbb57600080fd5b505af1158015613ccf573d6000803e3d6000fd5b505050506040513d6020811015613ce557600080fd5b50505b609954604080516370a0823160e01b815230600482015290516001600160a01b03909216916370a0823191602480820192602092909190829003018186803b158015613d3357600080fd5b505afa158015613d47573d6000803e3d6000fd5b505050506040513d6020811015613d5d57600080fd5b505160a355611d2561250b565b609a54604080516370a0823160e01b815230600482015290516000926001600160a01b0316916370a08231916024808301926020929190829003018186803b158015613db557600080fd5b505afa158015613dc9573d6000803e3d6000fd5b505050506040513d6020811015613ddf57600080fd5b5051905080821115613e7357609a546040805163a9059cbb60e01b81526001600160a01b038681166004830152602482018590529151919092169163a9059cbb9160448083019260209291908290030181600087803b158015613e4157600080fd5b505af1158015613e55573d6000803e3d6000fd5b505050506040513d6020811015613e6b57600080fd5b50613ef69050565b609a546040805163a9059cbb60e01b81526001600160a01b038681166004830152602482018690529151919092169163a9059cbb9160448083019260209291908290030181600087803b158015613ec957600080fd5b505af1158015613edd573d6000803e3d6000fd5b505050506040513d6020811015613ef357600080fd5b50505b609a54604080516370a0823160e01b815230600482015290516001600160a01b03909216916370a0823191602480820192602092909190829003018186803b158015613f4157600080fd5b505afa158015613f55573d6000803e3d6000fd5b505050506040513d6020811015613f6b57600080fd5b505160a455611d25612d42565b600081836140045760405162461bcd60e51b81526004018080602001828103825283818151815260200191508051906020019080838360005b83811015613fc9578181015183820152602001613fb1565b50505050905090810190601f168015613ff65780820380516001836020036101000a031916815260200191505b509250505060405180910390fd5b50600083858161401057fe5b049150505b9392505050565b6000818484111561406e5760405162461bcd60e51b8152602060048201818152835160248401528351909283926044909101919085019080838360008315613fc9578181015183820152602001613fb1565b505050900390565b600054610100900460ff168061408f575061408f613687565b8061409d575060005460ff16155b6140d85760405162461bcd60e51b815260040180806020018281038252602e81526020018061461c602e913960400191505060405180910390fd5b600054610100900460ff1615801561388b576000805460ff1961ff0019909116610100171660011790558015611a87576000805461ff001916905550565b600054610100900460ff168061412f575061412f613687565b8061413d575060005460ff16155b6141785760405162461bcd60e51b815260040180806020018281038252602e81526020018061461c602e913960400191505060405180910390fd5b600054610100900460ff161580156141a3576000805460ff1961ff0019909116610100171660011790555b60006141ad613683565b606580546001600160a01b0319166001600160a01b038316908117909155604051919250906000907f8be0079c531659141344cd1fd0a4f28419497f9722a3daafe3b4186f6b6457e0908290a3508015611a87576000805461ff001916905550565b600080829050806001600160a01b0316636798f19f856040518263ffffffff1660e01b81526004018082815260200191505060206040518083038186803b15801561425957600080fd5b505afa15801561426d573d6000803e3d6000fd5b505050506040513d602081101561428357600080fd5b5051949350505050565b60606142e2826040518060400160405280602081526020017f5361666545524332303a206c6f772d6c6576656c2063616c6c206661696c6564815250856001600160a01b031661433e9092919063ffffffff16565b805190915015611d255780806020019051602081101561430157600080fd5b5051611d255760405162461bcd60e51b815260040180806020018281038252602a81526020018061464a602a913960400191505060405180910390fd5b606061434d8484600085614355565b949350505050565b6060824710156143965760405162461bcd60e51b81526004018080602001828103825260268152602001806145b56026913960400191505060405180910390fd5b61439f85613b56565b6143f0576040805162461bcd60e51b815260206004820152601d60248201527f416464726573733a2063616c6c20746f206e6f6e2d636f6e7472616374000000604482015290519081900360640190fd5b60006060866001600160a01b031685876040518082805190602001908083835b6020831061442f5780518252601f199092019160209182019101614410565b6001836020036101000a03801982511681845116808217855250505050505090500191505060006040518083038185875af1925050503d8060008114614491576040519150601f19603f3d011682016040523d82523d6000602084013e614496565b606091505b50915091506144a68282866144b1565b979650505050505050565b606083156144c0575081614015565b8251156144d05782518084602001fd5b60405162461bcd60e51b8152602060048201818152845160248401528451859391928392604401919085019080838360008315613fc9578181015183820152602001613fb1565b6040518060c001604052806000815260200160008152602001600081526020016000815260200160008152602001600081525090565b6040518060c0016040528060006001600160a01b0316815260200160008152602001600081526020016000815260200160001515815260200160008152509056fe4f776e61626c653a206e6577206f776e657220697320746865207a65726f2061646472657373416464726573733a20696e73756666696369656e742062616c616e636520666f722063616c6c536166654d6174683a206d756c7469706c69636174696f6e206f766572666c6f774f776e61626c653a2063616c6c6572206973206e6f7420746865206f776e6572436f6e747261637420696e7374616e63652068617320616c7265616479206265656e20696e697469616c697a65645361666545524332303a204552433230206f7065726174696f6e20646964206e6f742073756363656564a2646970667358221220ddc43238ab76fed46776cf53f150249017c8ed2c9d833ad954caa32c77df6f8464736f6c634300060c0033",
    "sourcePath": "/Users/225153/Projects/proxy-test/contracts/RAMVault.sol",
    "compiler": {
        "name": "solc",
        "version": "0.6.12+commit.27d51765"
    },
    "functionHashes": {
        "RAMVaultStartBlock()": "31db122c",
        "YGYReserve()": "1dbf779e",
        "_NFTs(uint256)": "795d79f5",
        "_YGYRAMPair()": "2f4f8a7a",
        "_YGYToken()": "f7db38cb",
        "_YGYWETHPair()": "3b24bd4a",
        "_dXIOTToken()": "b81a0b4c",
        "add(uint256,address,bool)": "1eaaa045",
        "addPendingRewards(uint256)": "423d6fa0",
        "addRAMRewardsOwner(uint256)": "3b6a6849",
        "addYGYRewardsOwner(uint256)": "3fe6a278",
        "addressStorageCount(uint256)": "6b42ee55",
        "booleanMapStorageCount(uint256)": "d6cf8021",
        "boostFees()": "09e3de41",
        "boostLevelCosts(uint256)": "469fcdcb",
        "boostLevelMultipliers(uint256)": "bcb49086",
        "burnSuperAdmin()": "934eaa50",
        "checkRewards(uint256,address)": "10178d9c",
        "claimRewards(uint256)": "0962ef79",
        "cumulativeRewardsSinceStart()": "c8ffb873",
        "cumulativeYGYRewardsSinceStart()": "9649d76c",
        "deposit(uint256,uint256)": "e2bbb158",
        "depositFor(address,uint256,uint256)": "4cf5fbf5",
        "devaddr()": "d49e77cd",
        "distributeFees()": "bb57ad20",
        "emergencyWithdraw(uint256)": "5312ea8e",
        "epoch()": "900cf0cf",
        "epochCalculationStartBlock()": "5d577c18",
        "epochRewards(uint256)": "4dc47d34",
        "getAddressStorage(string)": "ee02ea1b",
        "getBooleanMapValue(string,address)": "e671fab5",
        "getBoostLevelCost(uint256)": "6a9d1f6f",
        "getBoostLevelMultiplier(uint256)": "6798f19f",
        "getEpochRewards(uint256)": "5f0c0f2b",
        "getPoolInfo(uint256)": "2f380b35",
        "getUserInfo(uint256,address)": "1069f3b5",
        "initialize(address,address)": "485cc955",
        "initializeRAMVault(address,address,address,address)": "36644334",
        "lastTicketLevel(address)": "cc40f664",
        "liquidityContributedEthValue(address)": "ad1414b2",
        "massUpdatePools()": "630b5ba1",
        "newSuperAdmin(address)": "a676860a",
        "nftProperties(address,uint256)": "30d27e94",
        "owner()": "8da5cb5b",
        "pendingRewards()": "eded3fda",
        "pendingYGYRewards()": "8b6ff57b",
        "poolInfo(uint256)": "1526fe27",
        "poolLength()": "081e3eda",
        "purchase(uint256,uint256)": "70876c98",
        "ram()": "8f33b5e5",
        "regeneratoraddr()": "7d3b8da1",
        "renounceOwnership()": "715018a6",
        "rewardsInThisEpoch()": "608c8d3a",
        "set(uint256,uint256,bool)": "64482f79",
        "setAllowanceForPoolToken(address,uint256,uint256)": "dbe0901f",
        "setDevFee(uint16)": "e18cb4fe",
        "setDevFeeReciever(address)": "2d6754e5",
        "setStrategyContractOrDistributionContractAllowance(address,uint256,address)": "c4014588",
        "startNewEpoch()": "3aab0a62",
        "stringToBytes32(string)": "cfb51928",
        "superAdmin()": "29575f6a",
        "teamaddr()": "9a6d2711",
        "ticketCount()": "cfbd900f",
        "tickets(uint256)": "50b44712",
        "totalAllocPoint()": "17caf6f1",
        "transferOwnership(address)": "f2fde38b",
        "transferRAMDevFee()": "7cf75ca3",
        "transferYGYDevFee()": "cc1362ec",
        "uintStorageCount(uint256)": "e941c856",
        "updateBoosts(uint256[],uint256[])": "b2f4b44a",
        "userInfo(uint256,address)": "93f1a40b",
        "withdraw(uint256,uint256)": "441a3e70",
        "withdrawFrom(address,uint256,uint256)": "3a0967cd",
        "ygy()": "fb70c3bf"
    },
    "gasEstimates": {
        "creation": {
            "codeDepositCost": "3617800",
            "executionCost": "4072",
            "totalCost": "3621872"
        },
        "external": {
            "RAMVaultStartBlock()": "1088",
            "YGYReserve()": "1133",
            "_NFTs(uint256)": "1258",
            "_YGYRAMPair()": "1172",
            "_YGYToken()": "1169",
            "_YGYWETHPair()": "1106",
            "_dXIOTToken()": "1170",
            "add(uint256,address,bool)": "infinite",
            "addPendingRewards(uint256)": "infinite",
            "addRAMRewardsOwner(uint256)": "infinite",
            "addYGYRewardsOwner(uint256)": "infinite",
            "addressStorageCount(uint256)": "2086",
            "booleanMapStorageCount(uint256)": "2086",
            "boostFees()": "1112",
            "boostLevelCosts(uint256)": "1196",
            "boostLevelMultipliers(uint256)": "1174",
            "burnSuperAdmin()": "23261",
            "checkRewards(uint256,address)": "infinite",
            "claimRewards(uint256)": "infinite",
            "cumulativeRewardsSinceStart()": "1110",
            "cumulativeYGYRewardsSinceStart()": "1110",
            "deposit(uint256,uint256)": "infinite",
            "depositFor(address,uint256,uint256)": "infinite",
            "devaddr()": "1170",
            "distributeFees()": "infinite",
            "emergencyWithdraw(uint256)": "infinite",
            "epoch()": "1154",
            "epochCalculationStartBlock()": "1110",
            "epochRewards(uint256)": "1262",
            "getAddressStorage(string)": "infinite",
            "getBooleanMapValue(string,address)": "infinite",
            "getBoostLevelCost(uint256)": "1239",
            "getBoostLevelMultiplier(uint256)": "1217",
            "getEpochRewards(uint256)": "1246",
            "getPoolInfo(uint256)": "6662",
            "getUserInfo(uint256,address)": "5809",
            "initialize(address,address)": "infinite",
            "initializeRAMVault(address,address,address,address)": "infinite",
            "lastTicketLevel(address)": "1191",
            "liquidityContributedEthValue(address)": "1213",
            "massUpdatePools()": "infinite",
            "newSuperAdmin(address)": "23408",
            "nftProperties(address,uint256)": "infinite",
            "owner()": "1149",
            "pendingRewards()": "1064",
            "pendingYGYRewards()": "1088",
            "poolInfo(uint256)": "6267",
            "poolLength()": "1068",
            "purchase(uint256,uint256)": "infinite",
            "ram()": "1171",
            "regeneratoraddr()": "1105",
            "renounceOwnership()": "infinite",
            "rewardsInThisEpoch()": "1154",
            "set(uint256,uint256,bool)": "infinite",
            "setAllowanceForPoolToken(address,uint256,uint256)": "23480",
            "setDevFee(uint16)": "infinite",
            "setDevFeeReciever(address)": "infinite",
            "setStrategyContractOrDistributionContractAllowance(address,uint256,address)": "infinite",
            "startNewEpoch()": "89522",
            "stringToBytes32(string)": "infinite",
            "superAdmin()": "1106",
            "teamaddr()": "1171",
            "ticketCount()": "1109",
            "tickets(uint256)": "5393",
            "totalAllocPoint()": "1111",
            "transferOwnership(address)": "infinite",
            "transferRAMDevFee()": "infinite",
            "transferYGYDevFee()": "infinite",
            "uintStorageCount(uint256)": "2086",
            "updateBoosts(uint256[],uint256[])": "infinite",
            "userInfo(uint256,address)": "5478",
            "withdraw(uint256,uint256)": "infinite",
            "withdrawFrom(address,uint256,uint256)": "infinite",
            "ygy()": "1191"
        },
        "internal": {
            "_withdraw(uint256,uint256,address,address)": "infinite",
            "isContract(address)": "718",
            "safeRamTransfer(address,uint256)": "infinite",
            "safeYgyTransfer(address,uint256)": "infinite",
            "updateAndPayOutPending(uint256,address)": "infinite",
            "updatePool(uint256)": "infinite"
        }
    }
}