{
    "contractName": "RAMv1Router",
    "abi": [
        {
            "inputs": [
                {
                    "internalType": "address",
                    "name": "RAMToken",
                    "type": "address"
                },
                {
                    "internalType": "address",
                    "name": "YGYToken",
                    "type": "address"
                },
                {
                    "internalType": "address",
                    "name": "WETH",
                    "type": "address"
                },
                {
                    "internalType": "address",
                    "name": "uniV2Factory",
                    "type": "address"
                },
                {
                    "internalType": "address",
                    "name": "YGYRAMPair",
                    "type": "address"
                },
                {
                    "internalType": "address",
                    "name": "YGYWethPair",
                    "type": "address"
                },
                {
                    "internalType": "address",
                    "name": "feeApprover",
                    "type": "address"
                },
                {
                    "internalType": "address",
                    "name": "RAMVault",
                    "type": "address"
                },
                {
                    "internalType": "address",
                    "name": "nftFactory",
                    "type": "address"
                },
                {
                    "internalType": "address[]",
                    "name": "nfts",
                    "type": "address[]"
                },
                {
                    "internalType": "address payable",
                    "name": "_regenerator",
                    "type": "address"
                },
                {
                    "internalType": "address",
                    "name": "dXIOTToken",
                    "type": "address"
                },
                {
                    "internalType": "address",
                    "name": "linkAddr",
                    "type": "address"
                },
                {
                    "internalType": "address",
                    "name": "vrfAddr",
                    "type": "address"
                }
            ],
            "stateMutability": "nonpayable",
            "type": "constructor"
        },
        {
            "anonymous": false,
            "inputs": [
                {
                    "indexed": true,
                    "internalType": "address",
                    "name": "newAddress",
                    "type": "address"
                },
                {
                    "indexed": true,
                    "internalType": "address",
                    "name": "oldAddress",
                    "type": "address"
                }
            ],
            "name": "FeeApproverChanged",
            "type": "event"
        },
        {
            "anonymous": false,
            "inputs": [
                {
                    "indexed": true,
                    "internalType": "address",
                    "name": "previousOwner",
                    "type": "address"
                },
                {
                    "indexed": true,
                    "internalType": "address",
                    "name": "newOwner",
                    "type": "address"
                }
            ],
            "name": "OwnershipTransferred",
            "type": "event"
        },
        {
            "stateMutability": "payable",
            "type": "fallback"
        },
        {
            "inputs": [],
            "name": "MAX",
            "outputs": [
                {
                    "internalType": "uint256",
                    "name": "",
                    "type": "uint256"
                }
            ],
            "stateMutability": "view",
            "type": "function"
        },
        {
            "inputs": [],
            "name": "OFFSET",
            "outputs": [
                {
                    "internalType": "uint256",
                    "name": "",
                    "type": "uint256"
                }
            ],
            "stateMutability": "view",
            "type": "function"
        },
        {
            "inputs": [],
            "name": "SCALE",
            "outputs": [
                {
                    "internalType": "uint256",
                    "name": "",
                    "type": "uint256"
                }
            ],
            "stateMutability": "view",
            "type": "function"
        },
        {
            "inputs": [],
            "name": "SCALIFIER",
            "outputs": [
                {
                    "internalType": "uint256",
                    "name": "",
                    "type": "uint256"
                }
            ],
            "stateMutability": "view",
            "type": "function"
        },
        {
            "inputs": [],
            "name": "_NFTFactory",
            "outputs": [
                {
                    "internalType": "contract INFTFactory",
                    "name": "",
                    "type": "address"
                }
            ],
            "stateMutability": "view",
            "type": "function"
        },
        {
            "inputs": [
                {
                    "internalType": "uint256",
                    "name": "",
                    "type": "uint256"
                }
            ],
            "name": "_NFTs",
            "outputs": [
                {
                    "internalType": "address",
                    "name": "",
                    "type": "address"
                }
            ],
            "stateMutability": "view",
            "type": "function"
        },
        {
            "inputs": [],
            "name": "_RAMToken",
            "outputs": [
                {
                    "internalType": "address",
                    "name": "",
                    "type": "address"
                }
            ],
            "stateMutability": "view",
            "type": "function"
        },
        {
            "inputs": [],
            "name": "_RAMVault",
            "outputs": [
                {
                    "internalType": "contract IRAMVault",
                    "name": "",
                    "type": "address"
                }
            ],
            "stateMutability": "view",
            "type": "function"
        },
        {
            "inputs": [],
            "name": "_WETH",
            "outputs": [
                {
                    "internalType": "contract IWETH",
                    "name": "",
                    "type": "address"
                }
            ],
            "stateMutability": "view",
            "type": "function"
        },
        {
            "inputs": [],
            "name": "_YGYRAMPair",
            "outputs": [
                {
                    "internalType": "address",
                    "name": "",
                    "type": "address"
                }
            ],
            "stateMutability": "view",
            "type": "function"
        },
        {
            "inputs": [],
            "name": "_YGYToken",
            "outputs": [
                {
                    "internalType": "address",
                    "name": "",
                    "type": "address"
                }
            ],
            "stateMutability": "view",
            "type": "function"
        },
        {
            "inputs": [],
            "name": "_YGYWETHPair",
            "outputs": [
                {
                    "internalType": "address",
                    "name": "",
                    "type": "address"
                }
            ],
            "stateMutability": "view",
            "type": "function"
        },
        {
            "inputs": [],
            "name": "_dXIOTToken",
            "outputs": [
                {
                    "internalType": "contract IERC20",
                    "name": "",
                    "type": "address"
                }
            ],
            "stateMutability": "view",
            "type": "function"
        },
        {
            "inputs": [],
            "name": "_feeApprover",
            "outputs": [
                {
                    "internalType": "contract IFeeApprover",
                    "name": "",
                    "type": "address"
                }
            ],
            "stateMutability": "view",
            "type": "function"
        },
        {
            "inputs": [],
            "name": "_uniV2Factory",
            "outputs": [
                {
                    "internalType": "address",
                    "name": "",
                    "type": "address"
                }
            ],
            "stateMutability": "view",
            "type": "function"
        },
        {
            "inputs": [
                {
                    "internalType": "address payable",
                    "name": "to",
                    "type": "address"
                },
                {
                    "internalType": "bool",
                    "name": "autoStake",
                    "type": "bool"
                }
            ],
            "name": "addLiquidityETHOnly",
            "outputs": [],
            "stateMutability": "payable",
            "type": "function"
        },
        {
            "inputs": [
                {
                    "internalType": "uint256",
                    "name": "amount",
                    "type": "uint256"
                },
                {
                    "internalType": "bool",
                    "name": "autoStake",
                    "type": "bool"
                }
            ],
            "name": "addLiquidityYGYOnly",
            "outputs": [],
            "stateMutability": "payable",
            "type": "function"
        },
        {
            "inputs": [
                {
                    "internalType": "address",
                    "name": "feeApprover",
                    "type": "address"
                }
            ],
            "name": "changeFeeApprover",
            "outputs": [],
            "stateMutability": "nonpayable",
            "type": "function"
        },
        {
            "inputs": [
                {
                    "internalType": "uint256",
                    "name": "ygyAmt",
                    "type": "uint256"
                }
            ],
            "name": "getLPTokenPerYGYUnit",
            "outputs": [
                {
                    "internalType": "uint256",
                    "name": "liquidity",
                    "type": "uint256"
                }
            ],
            "stateMutability": "view",
            "type": "function"
        },
        {
            "inputs": [
                {
                    "internalType": "uint256",
                    "name": "userProvidedSeed",
                    "type": "uint256"
                }
            ],
            "name": "getRandomNumber",
            "outputs": [
                {
                    "internalType": "bytes32",
                    "name": "requestId",
                    "type": "bytes32"
                }
            ],
            "stateMutability": "nonpayable",
            "type": "function"
        },
        {
            "inputs": [
                {
                    "internalType": "address",
                    "name": "user",
                    "type": "address"
                }
            ],
            "name": "getUserLotteryLevel",
            "outputs": [
                {
                    "internalType": "uint256",
                    "name": "",
                    "type": "uint256"
                }
            ],
            "stateMutability": "view",
            "type": "function"
        },
        {
            "inputs": [],
            "name": "governance",
            "outputs": [
                {
                    "internalType": "address",
                    "name": "",
                    "type": "address"
                }
            ],
            "stateMutability": "view",
            "type": "function"
        },
        {
            "inputs": [
                {
                    "internalType": "address",
                    "name": "",
                    "type": "address"
                }
            ],
            "name": "lastTicketLevel",
            "outputs": [
                {
                    "internalType": "uint256",
                    "name": "",
                    "type": "uint256"
                }
            ],
            "stateMutability": "view",
            "type": "function"
        },
        {
            "inputs": [
                {
                    "internalType": "address",
                    "name": "",
                    "type": "address"
                }
            ],
            "name": "liquidityContributedEthValue",
            "outputs": [
                {
                    "internalType": "uint256",
                    "name": "",
                    "type": "uint256"
                }
            ],
            "stateMutability": "view",
            "type": "function"
        },
        {
            "inputs": [
                {
                    "internalType": "bytes32",
                    "name": "",
                    "type": "bytes32"
                }
            ],
            "name": "nonces",
            "outputs": [
                {
                    "internalType": "uint256",
                    "name": "",
                    "type": "uint256"
                }
            ],
            "stateMutability": "view",
            "type": "function"
        },
        {
            "inputs": [],
            "name": "owner",
            "outputs": [
                {
                    "internalType": "address",
                    "name": "",
                    "type": "address"
                }
            ],
            "stateMutability": "view",
            "type": "function"
        },
        {
            "inputs": [],
            "name": "randomResult",
            "outputs": [
                {
                    "internalType": "uint256",
                    "name": "",
                    "type": "uint256"
                }
            ],
            "stateMutability": "view",
            "type": "function"
        },
        {
            "inputs": [
                {
                    "internalType": "bytes32",
                    "name": "requestId",
                    "type": "bytes32"
                },
                {
                    "internalType": "uint256",
                    "name": "randomness",
                    "type": "uint256"
                }
            ],
            "name": "rawFulfillRandomness",
            "outputs": [],
            "stateMutability": "nonpayable",
            "type": "function"
        },
        {
            "inputs": [],
            "name": "refreshApproval",
            "outputs": [],
            "stateMutability": "nonpayable",
            "type": "function"
        },
        {
            "inputs": [],
            "name": "regenerator",
            "outputs": [
                {
                    "internalType": "address payable",
                    "name": "",
                    "type": "address"
                }
            ],
            "stateMutability": "view",
            "type": "function"
        },
        {
            "inputs": [],
            "name": "regeneratorTax",
            "outputs": [
                {
                    "internalType": "uint256",
                    "name": "",
                    "type": "uint256"
                }
            ],
            "stateMutability": "view",
            "type": "function"
        },
        {
            "inputs": [],
            "name": "renounceOwnership",
            "outputs": [],
            "stateMutability": "nonpayable",
            "type": "function"
        },
        {
            "inputs": [],
            "name": "rngLinkFee",
            "outputs": [
                {
                    "internalType": "uint256",
                    "name": "",
                    "type": "uint256"
                }
            ],
            "stateMutability": "view",
            "type": "function"
        },
        {
            "inputs": [
                {
                    "internalType": "uint256",
                    "name": "userProvidedSeed",
                    "type": "uint256"
                }
            ],
            "name": "selfRequestRandomNumber",
            "outputs": [
                {
                    "internalType": "bytes32",
                    "name": "requestId",
                    "type": "bytes32"
                }
            ],
            "stateMutability": "nonpayable",
            "type": "function"
        },
        {
            "inputs": [
                {
                    "internalType": "address",
                    "name": "feeApproverAddress",
                    "type": "address"
                }
            ],
            "name": "setFeeApprover",
            "outputs": [],
            "stateMutability": "nonpayable",
            "type": "function"
        },
        {
            "inputs": [
                {
                    "internalType": "address",
                    "name": "_governance",
                    "type": "address"
                }
            ],
            "name": "setGovernance",
            "outputs": [],
            "stateMutability": "nonpayable",
            "type": "function"
        },
        {
            "inputs": [
                {
                    "internalType": "uint256",
                    "name": "_regeneratorTax",
                    "type": "uint256"
                }
            ],
            "name": "setRegeneratorTax",
            "outputs": [],
            "stateMutability": "nonpayable",
            "type": "function"
        },
        {
            "inputs": [],
            "name": "sync",
            "outputs": [],
            "stateMutability": "nonpayable",
            "type": "function"
        },
        {
            "inputs": [],
            "name": "ticketCount",
            "outputs": [
                {
                    "internalType": "uint256",
                    "name": "",
                    "type": "uint256"
                }
            ],
            "stateMutability": "view",
            "type": "function"
        },
        {
            "inputs": [
                {
                    "internalType": "uint256",
                    "name": "",
                    "type": "uint256"
                }
            ],
            "name": "tickets",
            "outputs": [
                {
                    "internalType": "address",
                    "name": "owner",
                    "type": "address"
                },
                {
                    "internalType": "uint256",
                    "name": "levelOneChance",
                    "type": "uint256"
                },
                {
                    "internalType": "uint256",
                    "name": "levelTwoChance",
                    "type": "uint256"
                },
                {
                    "internalType": "uint256",
                    "name": "levelThreeChance",
                    "type": "uint256"
                },
                {
                    "internalType": "uint256",
                    "name": "levelFourChance",
                    "type": "uint256"
                },
                {
                    "internalType": "uint256",
                    "name": "levelFiveChance",
                    "type": "uint256"
                }
            ],
            "stateMutability": "view",
            "type": "function"
        },
        {
            "inputs": [
                {
                    "internalType": "address",
                    "name": "newOwner",
                    "type": "address"
                }
            ],
            "name": "transferOwnership",
            "outputs": [],
            "stateMutability": "nonpayable",
            "type": "function"
        },
        {
            "inputs": [
                {
                    "internalType": "bytes32",
                    "name": "_keyHash",
                    "type": "bytes32"
                }
            ],
            "name": "updateKeyHash",
            "outputs": [],
            "stateMutability": "nonpayable",
            "type": "function"
        },
        {
            "inputs": [
                {
                    "internalType": "uint256",
                    "name": "_rngLinkFee",
                    "type": "uint256"
                }
            ],
            "name": "updateRngLinkFee",
            "outputs": [],
            "stateMutability": "nonpayable",
            "type": "function"
        }
    ],
    "bytecode": "60c06040523480156200001157600080fd5b5060405162003c1b38038062003c1b83398181016040526101c08110156200003857600080fd5b815160208301516040808501516060860151608087015160a088015160c089015160e08a01516101008b01516101208c01805198519a9c999b979a9699959894979396929591949293820192846401000000008211156200009857600080fd5b908301906020820185811115620000ae57600080fd5b8251866020820283011164010000000082111715620000cc57600080fd5b82525081516020918201928201910280838360005b83811015620000fb578181015183820152602001620000e1565b50505050905001604052602001805190602001909291908051906020019092919080519060200190929190805190602001909291905050508082816001600160a01b031660a0816001600160a01b031660601b81525050806001600160a01b03166080816001600160a01b031660601b8152505050508d609860006101000a8154816001600160a01b0302191690836001600160a01b031602179055508c609a60006101000a8154816001600160a01b0302191690836001600160a01b031602179055508b609e60006101000a8154816001600160a01b0302191690836001600160a01b031602179055508a609f60006101000a8154816001600160a01b0302191690836001600160a01b0316021790555087609c60006101000a8154816001600160a01b0302191690836001600160a01b0316021790555089609960006101000a8154816001600160a01b0302191690836001600160a01b0316021790555088609b60006101000a8154816001600160a01b0302191690836001600160a01b0316021790555086609d60006101000a8154816001600160a01b0302191690836001600160a01b031602179055508360a160006101000a8154816001600160a01b0302191690836001600160a01b031602179055508260ac60006101000a8154816001600160a01b0302191690836001600160a01b0316021790555062000307620003c760201b60201c565b60aa80546001600160a01b0319166001600160a01b03881617905560005b855181101562000381578581815181106200033c57fe5b602090810291909101810151600192909201600081815260ab909252604090912080546001600160a01b0319166001600160a01b039093169290921790915562000325565b50507f6c3699283bda56ad74f6b855546325b68d482e983852a7a82979cc4807b641f460a555505067016345785d8a000060a45550620004529950505050505050505050565b609954609d546040805163095ea7b360e01b81526001600160a01b03928316600482015260001960248201529051919092169163095ea7b39160448083019260209291908290030181600087803b1580156200042257600080fd5b505af115801562000437573d6000803e3d6000fd5b505050506040513d60208110156200044e57600080fd5b5050565b60805160601c60a05160601c6137906200048b600039806111bc52806122bf525080610ddb5280611550528061229052506137906000f3fe60806040526004361061025c5760003560e01c8063ad1414b211610144578063cfbd900f116100b6578063f2fde38b1161007a578063f2fde38b146107a4578063f4ab1a93146107d7578063f7db38cb146107ec578063fa69669c14610801578063faf5db8e14610816578063fff6cae91461082b5761025c565b8063cfbd900f14610726578063d49d51811461073b578063e0af361614610750578063e7fa67e514610765578063eced55261461078f5761025c565b8063b93b4bb711610108578063b93b4bb714610657578063bf33a1f51461068a578063cb5b332e1461069f578063cc40f664146106c9578063cde7bc70146106fc578063ce665dd8146107115761025c565b8063ad1414b21461058d578063adf5e1b1146105c0578063b082cc26146105e5578063b37217a414610618578063b81a0b4c146106425761025c565b806342619f66116101dd578063715018a6116101a1578063715018a6146104ac578063795d79f5146104c15780638da5cb5b146104eb57806394985ddd146105005780639e317f1214610530578063ab033ea91461055a5761025c565b806342619f66146103d35780634601723a146103e857806350b447121461041b578063571c2b4d146104825780635aa6e675146104975761025c565b80632f4f8a7a116102245780632f4f8a7a146103405780633023af2d1461035557806330e588ac1461036a5780633b24bd4a146103945780633cb0b92d146103a95761025c565b80630c57af6c1461027b5780630eb1f908146102a957806313d4829b146102d057806322d5b25c146102fa57806329e015ba1461032b575b609e546001600160a01b0316331461027957610279336000610840565b005b6102796004803603604081101561029157600080fd5b506001600160a01b0381351690602001351515610840565b3480156102b557600080fd5b506102be610b8d565b60408051918252519081900360200190f35b3480156102dc57600080fd5b506102be600480360360208110156102f357600080fd5b5035610b93565b34801561030657600080fd5b5061030f610d02565b604080516001600160a01b039092168252519081900360200190f35b34801561033757600080fd5b5061030f610d11565b34801561034c57600080fd5b5061030f610d20565b34801561036157600080fd5b5061030f610d2f565b34801561037657600080fd5b506102796004803603602081101561038d57600080fd5b5035610d3e565b3480156103a057600080fd5b5061030f610d99565b3480156103b557600080fd5b506102be600480360360208110156103cc57600080fd5b5035610da8565b3480156103df57600080fd5b506102be610fd9565b3480156103f457600080fd5b506102796004803603602081101561040b57600080fd5b50356001600160a01b0316610fdf565b34801561042757600080fd5b506104456004803603602081101561043e57600080fd5b5035611088565b604080516001600160a01b0390971687526020870195909552858501939093526060850191909152608084015260a0830152519081900360c00190f35b34801561048e57600080fd5b5061030f6110c7565b3480156104a357600080fd5b5061030f6110d6565b3480156104b857600080fd5b506102796110e5565b3480156104cd57600080fd5b5061030f600480360360208110156104e457600080fd5b5035611187565b3480156104f757600080fd5b5061030f6111a2565b34801561050c57600080fd5b506102796004803603604081101561052357600080fd5b50803590602001356111b1565b34801561053c57600080fd5b506102be6004803603602081101561055357600080fd5b503561123c565b34801561056657600080fd5b506102796004803603602081101561057d57600080fd5b50356001600160a01b031661124e565b34801561059957600080fd5b506102be600480360360208110156105b057600080fd5b50356001600160a01b03166112cd565b610279600480360360408110156105d657600080fd5b508035906020013515156112df565b3480156105f157600080fd5b506102796004803603602081101561060857600080fd5b50356001600160a01b03166114cf565b34801561062457600080fd5b506102be6004803603602081101561063b57600080fd5b5035611549565b34801561064e57600080fd5b5061030f61163a565b34801561066357600080fd5b506102be6004803603602081101561067a57600080fd5b50356001600160a01b0316611649565b34801561069657600080fd5b506102796117b7565b3480156106ab57600080fd5b50610279600480360360208110156106c257600080fd5b503561183b565b3480156106d557600080fd5b506102be600480360360208110156106ec57600080fd5b50356001600160a01b0316611898565b34801561070857600080fd5b5061030f6118aa565b34801561071d57600080fd5b506102be6118b9565b34801561073257600080fd5b506102be6118be565b34801561074757600080fd5b506102be6118c4565b34801561075c57600080fd5b5061030f6118ca565b34801561077157600080fd5b506102796004803603602081101561078857600080fd5b50356118d9565b34801561079b57600080fd5b506102be611936565b3480156107b057600080fd5b50610279600480360360208110156107c757600080fd5b50356001600160a01b031661193b565b3480156107e357600080fd5b506102be611a34565b3480156107f857600080fd5b5061030f611a58565b34801561080d57600080fd5b5061030f611a67565b34801561082257600080fd5b506102be611a76565b34801561083757600080fd5b50610279611a7c565b6001600160a01b03821661088d576040805162461bcd60e51b815260206004820152600f60248201526e496e76616c6964206164647265737360881b604482015290519081900360640190fd5b34806108e0576040805162461bcd60e51b815260206004820152601760248201527f496e73756666696369656e742045544820616d6f756e74000000000000000000604482015290519081900360640190fd5b609e60009054906101000a90046001600160a01b03166001600160a01b031663d0e30db0346040518263ffffffff1660e01b81526004016000604051808303818588803b15801561093057600080fd5b505af1158015610944573d6000803e3d6000fd5b5050505050600080610954611aed565b915091506000610965848484611bd3565b609e54609b546040805163a9059cbb60e01b81526001600160a01b03928316600482015260248101899052905193945091169163a9059cbb916044808201926020929091908290030181600087803b1580156109c057600080fd5b505af11580156109d4573d6000803e3d6000fd5b505050506040513d60208110156109ea57600080fd5b50506001600160a01b038616600090815260a86020526040902054610a0f9085611cab565b6001600160a01b03808816600090815260a86020526040812092909255609e54609a548392610a419281169116611d0e565b609b54609a549294509092506001600160a01b039081169163022c0d9f91808616911614610a70576000610a72565b845b609a546001600160a01b03858116911614610a8e576000610a90565b855b604080516001600160e01b031960e086901b1681526004810193909352602483019190915230604483015260806064830152600060848301819052905160c48084019382900301818387803b158015610ae857600080fd5b505af1158015610afc573d6000803e3d6000fd5b505050506000610b226064610b1c60a25487611dec90919063ffffffff16565b90611e45565b60a1546040519192506001600160a01b03169082156108fc029083906000818181858888f19350505050158015610b5d573d6000803e3d6000fd5b506000610b6a8583611eaf565b9050610b81610b7a826002611e45565b8b8b611f0c565b50505050505050505050565b60a45481565b6000806000610ba061219d565b90925090506000610bbc610bb5866002611e45565b8484611bd3565b90506000609960009054906101000a90046001600160a01b03166001600160a01b03166318160ddd6040518163ffffffff1660e01b815260040160206040518083038186803b158015610c0e57600080fd5b505afa158015610c22573d6000803e3d6000fd5b505050506040513d6020811015610c3857600080fd5b5051609a54609854919250600091610c5c916001600160a01b039081169116611d0e565b5060985490915060009081906001600160a01b03808516911614610c8b57610c85896002611e45565b85610c97565b84610c978a6002611e45565b609854919350915060009081906001600160a01b03868116911614610cbd578888610cc0565b87895b9092509050610cf382610cd38689611dec565b81610cda57fe5b0482610ce6868a611dec565b81610ced57fe5b04612274565b9b9a5050505050505050505050565b609c546001600160a01b031681565b609d546001600160a01b031681565b6099546001600160a01b031681565b609f546001600160a01b031681565b60a0546001600160a01b03163314610d94576040805162461bcd60e51b81526020600482015260146024820152734c6f636b656420746f20676f7665726e616e636560601b604482015290519081900360640190fd5b60a255565b609b546001600160a01b031681565b60a454604080516323b872dd60e01b81523360048201523060248201526044810192909252516000916001600160a01b037f000000000000000000000000000000000000000000000000000000000000000016916323b872dd9160648082019260209290919082900301818787803b158015610e2357600080fd5b505af1158015610e37573d6000803e3d6000fd5b505050506040513d6020811015610e4d57600080fd5b5051610e8a5760405162461bcd60e51b81526004018080602001828103825260248152602001806136e46024913960400191505060405180910390fd5b600760005260ab60209081527f89f7b0b4367d0fcce3b212957a1b1d291a2233228dbe23ba5a35fc72b112aebe54604080516370a0823160e01b815233600482015290516001600160a01b03909216926370a0823192602480840193829003018186803b158015610efa57600080fd5b505afa158015610f0e573d6000803e3d6000fd5b505050506040513d6020811015610f2457600080fd5b5051610fc25760aa546007600090815260ab6020527f89f7b0b4367d0fcce3b212957a1b1d291a2233228dbe23ba5a35fc72b112aebe546040805163ee1fe2ad60e01b81526001600160a01b0392831660048201523360248201529051919093169263ee1fe2ad92604480830193919282900301818387803b158015610fa957600080fd5b505af1158015610fbd573d6000803e3d6000fd5b505050505b610fd160a55460a4548461228c565b90505b919050565b60a35481565b610fe761243f565b6065546001600160a01b03908116911614611037576040805162461bcd60e51b8152602060048201819052602482015260008051602061369f833981519152604482015290519081900360640190fd5b609c80546001600160a01b038381166001600160a01b03198316811790935560405191169182917f9e4368dbddb338dc373020f18730584d6e9aaacad2101be6bd6d0a21fe59ffbc90600090a35050565b60a7602052600090815260409020805460018201546002830154600384015460048501546005909501546001600160a01b039094169492939192909186565b60a1546001600160a01b031681565b60a0546001600160a01b031681565b6110ed61243f565b6065546001600160a01b0390811691161461113d576040805162461bcd60e51b8152602060048201819052602482015260008051602061369f833981519152604482015290519081900360640190fd5b6065546040516000916001600160a01b0316907f8be0079c531659141344cd1fd0a4f28419497f9722a3daafe3b4186f6b6457e0908390a3606580546001600160a01b0319169055565b60ab602052600090815260409020546001600160a01b031681565b6065546001600160a01b031690565b336001600160a01b037f0000000000000000000000000000000000000000000000000000000000000000161461122e576040805162461bcd60e51b815260206004820152601f60248201527f4f6e6c7920565246436f6f7264696e61746f722063616e2066756c66696c6c00604482015290519081900360640190fd5b6112388282612443565b5050565b60976020526000908152604090205481565b609f54600160a01b900460ff16156112975760405162461bcd60e51b81526004018080602001828103825260288152602001806137336028913960400191505060405180910390fd5b609f805460ff60a01b1916600160a01b17905560a080546001600160a01b039092166001600160a01b0319909216919091179055565b60a86020526000908152604090205481565b60008211611334576040805162461bcd60e51b815260206004820152601960248201527f496e73756666696369656e7420746f6b656e20616d6f756e7400000000000000604482015290519081900360640190fd5b609a54604080516323b872dd60e01b81523360048201523060248201526044810185905290516001600160a01b03909216916323b872dd916064808201926020929091908290030181600087803b15801561138e57600080fd5b505af11580156113a2573d6000803e3d6000fd5b505050506040513d60208110156113b857600080fd5b5051611402576040805162461bcd60e51b8152602060048201526014602482015273105c1c1c9bdd99481d1bdad95b9cc8199a5c9cdd60621b604482015290519081900360640190fd5b60008061140d611aed565b91509150600061141e858385611bd3565b9050600061143c6064610b1c60a25489611dec90919063ffffffff16565b60a1546040519192506001600160a01b03169082156108fc029083906000818181858888f19350505050158015611477573d6000803e3d6000fd5b5033600090815260a860205260409020546114929083611cab565b33600090815260a860205260408120919091556114af8783611eaf565b90506114c66114bf826002611e45565b3388611f0c565b50505050505050565b6114d761243f565b6065546001600160a01b03908116911614611527576040805162461bcd60e51b8152602060048201819052602482015260008051602061369f833981519152604482015290519081900360640190fd5b609c80546001600160a01b0319166001600160a01b0392909216919091179055565b600060a4547f00000000000000000000000000000000000000000000000000000000000000006001600160a01b03166370a08231306040518263ffffffff1660e01b815260040180826001600160a01b0316815260200191505060206040518083038186803b1580156115bb57600080fd5b505afa1580156115cf573d6000803e3d6000fd5b505050506040513d60208110156115e557600080fd5b50511015610fc2576040805162461bcd60e51b815260206004820152601b60248201527f4e6f7420656e6f756768204c494e4b206f6e20636f6e74726163740000000000604482015290519081900360640190fd5b60ac546001600160a01b031681565b6001600160a01b038116600090815260a86020526040812054670de0b6b3a764000081101561167c576000915050610fd4565b670de0b6b3a7640000811015801561169b5750674563918244f4000081105b156116aa576001915050610fd4565b674563918244f4000081101580156116c95750678ac7230489e8000081105b156116d8576002915050610fd4565b678ac7230489e8000081101580156116f857506801158e460913d0000081105b15611707576003915050610fd4565b6801158e460913d00000811015801561172857506801a055690d9db8000081105b15611737576004915050610fd4565b6801a055690d9db800008110158015611758575068022b1c8c1227a0000081105b15611767576005915050610fd4565b68022b1c8c1227a00000811015801561178857506802b5e3af16b188000081105b15611797576006915050610fd4565b6802b5e3af16b188000081106117b1576007915050610fd4565b50919050565b609954609d546040805163095ea7b360e01b81526001600160a01b03928316600482015260001960248201529051919092169163095ea7b39160448083019260209291908290030181600087803b15801561181157600080fd5b505af1158015611825573d6000803e3d6000fd5b505050506040513d602081101561123857600080fd5b61184361243f565b6065546001600160a01b03908116911614611893576040805162461bcd60e51b8152602060048201819052602482015260008051602061369f833981519152604482015290519081900360640190fd5b60a455565b60a96020526000908152604090205481565b60aa546001600160a01b031681565b600181565b60a65481565b60001981565b609e546001600160a01b031681565b6118e161243f565b6065546001600160a01b03908116911614611931576040805162461bcd60e51b8152602060048201819052602482015260008051602061369f833981519152604482015290519081900360640190fd5b60a555565b606481565b61194361243f565b6065546001600160a01b03908116911614611993576040805162461bcd60e51b8152602060048201819052602482015260008051602061369f833981519152604482015290519081900360640190fd5b6001600160a01b0381166119d85760405162461bcd60e51b815260040180806020018281038252602681526020018061360b6026913960400191505060405180910390fd5b6065546040516001600160a01b038084169216907f8be0079c531659141344cd1fd0a4f28419497f9722a3daafe3b4186f6b6457e090600090a3606580546001600160a01b0319166001600160a01b0392909216919091179055565b7f028f5c28f5c28f5c28f5c28f5c28f5c28f5c28f5c28f5c28f5c28f5c28f5c28f81565b609a546001600160a01b031681565b6098546001600160a01b031681565b60a25481565b609c546040805160016209351760e01b0319815281516001600160a01b039093169263fff6cae9926004808401939192918290030181600087803b158015611ac357600080fd5b505af1158015611ad7573d6000803e3d6000fd5b505050506040513d604081101561123857600080fd5b609e54609a5460009182918291611b10916001600160a01b039182169116611d0e565b509050600080609b60009054906101000a90046001600160a01b03166001600160a01b0316630902f1ac6040518163ffffffff1660e01b815260040160606040518083038186803b158015611b6457600080fd5b505afa158015611b78573d6000803e3d6000fd5b505050506040513d6060811015611b8e57600080fd5b508051602090910151609a546001600160701b039283169450911691506001600160a01b03848116911614611bc4578181611bc7565b80825b90969095509350505050565b6000808411611c135760405162461bcd60e51b815260040180806020018281038252602b815260200180613708602b913960400191505060405180910390fd5b600083118015611c235750600082115b611c5e5760405162461bcd60e51b81526004018080602001828103825260288152602001806136566028913960400191505060405180910390fd5b6000611c6c856103e5612457565b90506000611c7a8285612457565b90506000611c9483611c8e886103e8612457565b906124ba565b9050808281611c9f57fe5b04979650505050505050565b600082820183811015611d05576040805162461bcd60e51b815260206004820152601b60248201527f536166654d6174683a206164646974696f6e206f766572666c6f770000000000604482015290519081900360640190fd5b90505b92915050565b600080826001600160a01b0316846001600160a01b03161415611d625760405162461bcd60e51b81526004018080602001828103825260258152602001806136316025913960400191505060405180910390fd5b826001600160a01b0316846001600160a01b031610611d82578284611d85565b83835b90925090506001600160a01b038216611de5576040805162461bcd60e51b815260206004820152601e60248201527f556e697377617056324c6962726172793a205a45524f5f414444524553530000604482015290519081900360640190fd5b9250929050565b600082611dfb57506000611d08565b82820282848281611e0857fe5b0414611d055760405162461bcd60e51b815260040180806020018281038252602181526020018061367e6021913960400191505060405180910390fd5b6000808211611e9b576040805162461bcd60e51b815260206004820152601a60248201527f536166654d6174683a206469766973696f6e206279207a65726f000000000000604482015290519081900360640190fd5b6000828481611ea657fe5b04949350505050565b600082821115611f06576040805162461bcd60e51b815260206004820152601e60248201527f536166654d6174683a207375627472616374696f6e206f766572666c6f770000604482015290519081900360640190fd5b50900390565b600080611f1761219d565b915091506000611f28868484611bd3565b609a546099546040805163a9059cbb60e01b81526001600160a01b039283166004820152602481018b9052905193945091169163a9059cbb916044808201926020929091908290030181600087803b158015611f8357600080fd5b505af1158015611f97573d6000803e3d6000fd5b505050506040513d6020811015611fad57600080fd5b5051611ff2576040805162461bcd60e51b815260206004820152600f60248201526e151c985b9cd9995c8819985a5b1959608a1b604482015290519081900360640190fd5b609a546098546000918291612013916001600160a01b039081169116611d0e565b6099546098549294509092506001600160a01b039081169163022c0d9f91808616911614612042576000612044565b845b6098546001600160a01b03858116911614612060576000612062565b855b604080516001600160e01b031960e086901b1681526004810193909352602483019190915230604483015260806064830152600060848301819052905160c48084019382900301818387803b1580156120ba57600080fd5b505af11580156120ce573d6000803e3d6000fd5b505050506120de83898989612509565b60ac54604080516323b872dd60e01b815273ead9c93b79ae7c1591b1fb5323bd777e86e150d460048201526001600160a01b038a81166024830152670de0b6b3a76400006044830152915191909216916323b872dd9160648083019260209291908290030181600087803b15801561215557600080fd5b505af1158015612169573d6000803e3d6000fd5b505050506040513d602081101561217f57600080fd5b5061218b90508761297e565b612193611a7c565b5050505050505050565b609a54609854600091829182916121c0916001600160a01b039182169116611d0e565b509050600080609960009054906101000a90046001600160a01b03166001600160a01b0316630902f1ac6040518163ffffffff1660e01b815260040160606040518083038186803b15801561221457600080fd5b505afa158015612228573d6000803e3d6000fd5b505050506040513d606081101561223e57600080fd5b5080516020909101516098546001600160701b039283169450911691506001600160a01b03848116911614611bc4578181611bc7565b60008183106122835781612285565b825b9392505050565b60007f00000000000000000000000000000000000000000000000000000000000000006001600160a01b0316634000aea07f000000000000000000000000000000000000000000000000000000000000000085878660405160200180838152602001828152602001925050506040516020818303038152906040526040518463ffffffff1660e01b815260040180846001600160a01b0316815260200183815260200180602001828103825283818151815260200191508051906020019080838360005b83811015612368578181015183820152602001612350565b50505050905090810190601f1680156123955780820380516001836020036101000a031916815260200191505b50945050505050602060405180830381600087803b1580156123b657600080fd5b505af11580156123ca573d6000803e3d6000fd5b505050506040513d60208110156123e057600080fd5b505060008481526097602052604081205461240090869085903090612d08565b60008681526097602052604090205490915061241d906001611cab565b6000868152609760205260409020556124368582612d4f565b95945050505050565b3390565b61244c81612d7b565b60a355611238612d87565b60008115806124725750508082028282828161246f57fe5b04145b611d08576040805162461bcd60e51b815260206004820152601460248201527364732d6d6174682d6d756c2d6f766572666c6f7760601b604482015290519081900360640190fd5b80820182811015611d08576040805162461bcd60e51b815260206004820152601460248201527364732d6d6174682d6164642d6f766572666c6f7760601b604482015290519081900360640190fd5b60008061251461219d565b9150915060006125258684846131f5565b90506000878211156125465761253c8884866131f5565b9050879150612549565b50855b609a546099546040805163a9059cbb60e01b81526001600160a01b039283166004820152602481018590529051919092169163a9059cbb9160448083019260209291908290030181600087803b1580156125a257600080fd5b505af11580156125b6573d6000803e3d6000fd5b505050506040513d60208110156125cc57600080fd5b50516125d457fe5b6098546099546040805163a9059cbb60e01b81526001600160a01b039283166004820152602481018690529051919092169163a9059cbb9160448083019260209291908290030181600087803b15801561262d57600080fd5b505af1158015612641573d6000803e3d6000fd5b505050506040513d602081101561265757600080fd5b505161265f57fe5b84156127d757609954604080516335313c2160e11b815230600482015290516001600160a01b0390921691636a627842916024808201926020929091908290030181600087803b1580156126b257600080fd5b505af11580156126c6573d6000803e3d6000fd5b505050506040513d60208110156126dc57600080fd5b5050609d54609954604080516370a0823160e01b815230600482015290516001600160a01b0393841693634cf5fbf5938b9360009391909216916370a08231916024808301926020929190829003018186803b15801561273b57600080fd5b505afa15801561274f573d6000803e3d6000fd5b505050506040513d602081101561276557600080fd5b5051604080516001600160e01b031960e087901b1681526001600160a01b0390941660048501526024840192909252604483015251606480830192600092919082900301818387803b1580156127ba57600080fd5b505af11580156127ce573d6000803e3d6000fd5b50505050612853565b609954604080516335313c2160e11b81526001600160a01b03898116600483015291519190921691636a6278429160248083019260209291908290030181600087803b15801561282657600080fd5b505af115801561283a573d6000803e3d6000fd5b505050506040513d602081101561285057600080fd5b50505b818811156128ea576098546001600160a01b031663a9059cbb876128778b86611eaf565b6040518363ffffffff1660e01b815260040180836001600160a01b0316815260200182815260200192505050602060405180830381600087803b1580156128bd57600080fd5b505af11580156128d1573d6000803e3d6000fd5b505050506040513d60208110156128e757600080fd5b50505b8087111561219357609a546001600160a01b031663a9059cbb8761290e8a85611eaf565b6040518363ffffffff1660e01b815260040180836001600160a01b0316815260200182815260200192505050602060405180830381600087803b15801561295457600080fd5b505af1158015612968573d6000803e3d6000fd5b505050506040513d6020811015610b8157600080fd5b6001600160a01b038116600090815260a96020526040812054906129a183611649565b9050815b81811015612cd6576129b56135cb565b816129fc576040518060c00160405280866001600160a01b031681526020016032815260200160008152602001600081526020016000815260200160008152509050612c46565b8160011415612a47576040518060c00160405280866001600160a01b03168152602001604b815260200160328152602001600081526020016000815260200160008152509050612c46565b8160021415612a92576040518060c00160405280866001600160a01b0316815260200160648152602001604b8152602001603281526020016000815260200160008152509050612c46565b8160031415612add576040518060c00160405280866001600160a01b031681526020016064815260200160648152602001604b81526020016032815260200160008152509050612c46565b8160041415612b28576040518060c00160405280866001600160a01b03168152602001606481526020016064815260200160648152602001604b815260200160328152509050612c46565b8160051415612b73576040518060c00160405280866001600160a01b031681526020016064815260200160648152602001606481526020016064815260200160328152509050612c46565b8160061415612c465760a6805460010190819055612b9090613292565b506040805160c080820183526001600160a01b038781168084526064602080860182815286880183815260608089018581526080808b0187815260a0808d0189815260a654600090815260a78a528f81209e518f546001600160a01b0319169d169c909c178e55965160018e0155945160028d0155915160038c0155905160048b015592516005909901989098558851968701895293865290850182905295840181905293830184905293820192909252918201525b80516001600160a01b031615612ccd5760a6805460010190819055612c6a90613292565b60a654600090815260a76020908152604091829020835181546001600160a01b0319166001600160a01b03909116178155908301516001820155908201516002820155606082015160038201556080820151600482015560a08201516005909101555b506001016129a5565b5060038110612ce857612ce8836132d6565b6001600160a01b03909216600090815260a9602052604090209190915550565b60408051602080820196909652808201949094526001600160a01b039290921660608401526080808401919091528151808403909101815260a09092019052805191012090565b604080516020808201949094528082019290925280518083038201815260609092019052805191012090565b60649081028190040690565b60005b60a6548110156131e857612d9c6135cb565b5060a654600090815260a76020908152604091829020825160c08101845281546001600160a01b03168152600182015492810183905260028201549381019390935260038101546060840152600481015460808401526005015460a083015260a35411612e9e5760aa546001600090815260ab6020527f0c5aa3afb5d7178824cafae65209988ed5d90c8cfea91ab0c0520fab0ec88a655483516040805163ee1fe2ad60e01b81526001600160a01b039384166004820152918316602483015251919093169263ee1fe2ad92604480830193919282900301818387803b158015612e8557600080fd5b505af1158015612e99573d6000803e3d6000fd5b505050505b806040015160a35411612f465760aa546002600090815260ab6020527fc7013af31c0ef0cbc9989befb902816c965dee628f24c9cdab52cc695de62a275483516040805163ee1fe2ad60e01b81526001600160a01b039384166004820152918316602483015251919093169263ee1fe2ad92604480830193919282900301818387803b158015612f2d57600080fd5b505af1158015612f41573d6000803e3d6000fd5b505050505b806060015160a35411612fee5760aa546003600090815260ab6020527f5b6193ea90bb8e101ad2d4f4a0f3b8535ba9d85e131f004d08431f92bfd3aa5a5483516040805163ee1fe2ad60e01b81526001600160a01b039384166004820152918316602483015251919093169263ee1fe2ad92604480830193919282900301818387803b158015612fd557600080fd5b505af1158015612fe9573d6000803e3d6000fd5b505050505b806080015160a354116130965760aa546004600081815260ab6020527fd59bc742fd4c80efc17c24c0febda594fa6b85fdaf76dc35047030c728b41cbd5484516040805163ee1fe2ad60e01b81526001600160a01b039384169581019590955290821660248501525193169263ee1fe2ad92604480820193929182900301818387803b15801561307d57600080fd5b505af1158015613091573d6000803e3d6000fd5b505050505b6130cd6040518060400160405280601181526020017053686f756c64206d696e7420686572653f60781b8152508260a001516134fc565b8060a0015160a354116131755760aa546005600090815260ab6020527faae3eb2c37882e93040c44553ef49fa021ec93cdfc146fc8e09abcadbde8358a5483516040805163ee1fe2ad60e01b81526001600160a01b039384166004820152918316602483015251919093169263ee1fe2ad92604480830193919282900301818387803b15801561315c57600080fd5b505af1158015613170573d6000803e3d6000fd5b505050505b80516001600160a01b03908116600090815260a86020908152604080832083905585835260a7825280832080546001600160a01b0319168155600180820185905560028201859055600382018590556004820185905560059091018490559451909316825260a990529081205501612d8a565b50600060a381905560a655565b60008084116132355760405162461bcd60e51b81526004018080602001828103825260258152602001806136bf6025913960400191505060405180910390fd5b6000831180156132455750600082115b6132805760405162461bcd60e51b81526004018080602001828103825260288152602001806136566028913960400191505060405180910390fd5b8261328b8584612457565b81611ea657fe5b6040805160248082018490528251808303909101815260449091019091526020810180516001600160e01b031663f5b1bba960e01b1790526132d3906135aa565b50565b600660005260ab60209081527f77abfe313f3a640f546a82a7723b9151377f06f55c75c7bf8088839797e0d46a5460ac54604080516370a0823160e01b81526001600160a01b0386811660048301529151938216946801158e460913d000009492909316926370a0823192602480840193829003018186803b15801561335b57600080fd5b505afa15801561336f573d6000803e3d6000fd5b505050506040513d602081101561338557600080fd5b505110801590613415575060aa5460408051633de222bb60e21b81526001600160a01b03848116600483015285811660248301529151919092169163f7888aec9160448083019260209291908290030181600087803b1580156133e757600080fd5b505af11580156133fb573d6000803e3d6000fd5b505050506040513d602081101561341157600080fd5b5051155b801561348557506032816001600160a01b03166318160ddd6040518163ffffffff1660e01b815260040160206040518083038186803b15801561345757600080fd5b505afa15801561346b573d6000803e3d6000fd5b505050506040513d602081101561348157600080fd5b5051105b156112385760aa546040805163ee1fe2ad60e01b81526001600160a01b03848116600483015285811660248301529151919092169163ee1fe2ad91604480830192600092919082900301818387803b1580156134e057600080fd5b505af11580156134f4573d6000803e3d6000fd5b505050505050565b61123882826040516024018080602001838152602001828103825284818151815260200191508051906020019080838360005b8381101561354757818101518382015260200161352f565b50505050905090810190601f1680156135745780820380516001836020036101000a031916815260200191505b5060408051601f198184030181529190526020810180516001600160e01b03166309710a9d60e41b17905293506135aa92505050565b80516a636f6e736f6c652e6c6f67602083016000808483855afa5050505050565b6040518060c0016040528060006001600160a01b031681526020016000815260200160008152602001600081526020016000815260200160008152509056fe4f776e61626c653a206e6577206f776e657220697320746865207a65726f2061646472657373556e697377617056324c6962726172793a204944454e544943414c5f414444524553534553556e697377617056324c6962726172793a20494e53554646494349454e545f4c4951554944495459536166654d6174683a206d756c7469706c69636174696f6e206f766572666c6f774f776e61626c653a2063616c6c6572206973206e6f7420746865206f776e6572556e697377617056324c6962726172793a20494e53554646494349454e545f414d4f554e544e6f7420656e6f756768204c494e4b20617070726f76656420746f20636f6e7472616374556e697377617056324c6962726172793a20494e53554646494349454e545f494e5055545f414d4f554e54476f7665726e616e636520636f6e74726163742068617320616c7265616479206265656e20736574a26469706673582212200507f530a5ef12a74d374e8c70eb869145366566e97b8d72b3afeff82a7f753264736f6c634300060c0033",
    "sourcePath": "/Users/225153/Projects/proxy-test/contracts/RAMV1router.sol",
    "compiler": {
        "name": "solc",
        "version": "0.6.12+commit.27d51765"
    },
    "functionHashes": {
        "MAX()": "d49d5181",
        "OFFSET()": "ce665dd8",
        "SCALE()": "eced5526",
        "SCALIFIER()": "f4ab1a93",
        "_NFTFactory()": "cde7bc70",
        "_NFTs(uint256)": "795d79f5",
        "_RAMToken()": "fa69669c",
        "_RAMVault()": "29e015ba",
        "_WETH()": "e0af3616",
        "_YGYRAMPair()": "2f4f8a7a",
        "_YGYToken()": "f7db38cb",
        "_YGYWETHPair()": "3b24bd4a",
        "_dXIOTToken()": "b81a0b4c",
        "_feeApprover()": "22d5b25c",
        "_uniV2Factory()": "3023af2d",
        "addLiquidityETHOnly(address,bool)": "0c57af6c",
        "addLiquidityYGYOnly(uint256,bool)": "adf5e1b1",
        "changeFeeApprover(address)": "4601723a",
        "getLPTokenPerYGYUnit(uint256)": "13d4829b",
        "getRandomNumber(uint256)": "b37217a4",
        "getUserLotteryLevel(address)": "b93b4bb7",
        "governance()": "5aa6e675",
        "lastTicketLevel(address)": "cc40f664",
        "liquidityContributedEthValue(address)": "ad1414b2",
        "nonces(bytes32)": "9e317f12",
        "owner()": "8da5cb5b",
        "randomResult()": "42619f66",
        "rawFulfillRandomness(bytes32,uint256)": "94985ddd",
        "refreshApproval()": "bf33a1f5",
        "regenerator()": "571c2b4d",
        "regeneratorTax()": "faf5db8e",
        "renounceOwnership()": "715018a6",
        "rngLinkFee()": "0eb1f908",
        "selfRequestRandomNumber(uint256)": "3cb0b92d",
        "setFeeApprover(address)": "b082cc26",
        "setGovernance(address)": "ab033ea9",
        "setRegeneratorTax(uint256)": "30e588ac",
        "sync()": "fff6cae9",
        "ticketCount()": "cfbd900f",
        "tickets(uint256)": "50b44712",
        "transferOwnership(address)": "f2fde38b",
        "updateKeyHash(bytes32)": "e7fa67e5",
        "updateRngLinkFee(uint256)": "cb5b332e"
    },
    "gasEstimates": {
        "creation": {
            "codeDepositCost": "2844800",
            "executionCost": "infinite",
            "totalCost": "infinite"
        },
        "external": {
            "": "infinite",
            "MAX()": "268",
            "OFFSET()": "353",
            "SCALE()": "331",
            "SCALIFIER()": "264",
            "_NFTFactory()": "1170",
            "_NFTs(uint256)": "1212",
            "_RAMToken()": "1147",
            "_RAMVault()": "1172",
            "_WETH()": "1126",
            "_YGYRAMPair()": "1083",
            "_YGYToken()": "1125",
            "_YGYWETHPair()": "1149",
            "_dXIOTToken()": "1171",
            "_feeApprover()": "1150",
            "_uniV2Factory()": "1105",
            "addLiquidityETHOnly(address,bool)": "infinite",
            "addLiquidityYGYOnly(uint256,bool)": "infinite",
            "changeFeeApprover(address)": "infinite",
            "getLPTokenPerYGYUnit(uint256)": "infinite",
            "getRandomNumber(uint256)": "infinite",
            "getUserLotteryLevel(address)": "1625",
            "governance()": "1171",
            "lastTicketLevel(address)": "1235",
            "liquidityContributedEthValue(address)": "1170",
            "nonces(bytes32)": "1239",
            "owner()": "1126",
            "randomResult()": "1044",
            "rawFulfillRandomness(bytes32,uint256)": "infinite",
            "refreshApproval()": "infinite",
            "regenerator()": "1149",
            "regeneratorTax()": "1130",
            "renounceOwnership()": "infinite",
            "rngLinkFee()": "1067",
            "selfRequestRandomNumber(uint256)": "infinite",
            "setFeeApprover(address)": "infinite",
            "setGovernance(address)": "infinite",
            "setRegeneratorTax(uint256)": "21119",
            "sync()": "infinite",
            "ticketCount()": "1043",
            "tickets(uint256)": "5415",
            "transferOwnership(address)": "infinite",
            "updateKeyHash(bytes32)": "infinite",
            "updateRngLinkFee(uint256)": "infinite"
        },
        "internal": {
            "_addLiquidity(uint256,uint256,address payable,bool)": "infinite",
            "_swapYGYForRAMAndAddLiquidity(uint256,address payable,bool)": "infinite",
            "applyRandomNumberToLottery()": "infinite",
            "fulfillRandomness(bytes32,uint256)": "infinite",
            "generateLotteryTickets(address)": "infinite",
            "getYGYRAMPairReserves()": "infinite",
            "getYGYWETHPairReserves()": "infinite",
            "mintRobotNFT(address)": "infinite",
            "rand(uint256)": "42"
        }
    }
}