{
    "contractName": "RAMVault",
    "abi": [
        {
            "anonymous": false,
            "inputs": [
                {
                    "indexed": true,
                    "internalType": "address",
                    "name": "owner",
                    "type": "address"
                },
                {
                    "indexed": true,
                    "internalType": "address",
                    "name": "spender",
                    "type": "address"
                },
                {
                    "indexed": false,
                    "internalType": "uint256",
                    "name": "_pid",
                    "type": "uint256"
                },
                {
                    "indexed": false,
                    "internalType": "uint256",
                    "name": "value",
                    "type": "uint256"
                }
            ],
            "name": "Approval",
            "type": "event"
        },
        {
            "anonymous": false,
            "inputs": [
                {
                    "indexed": true,
                    "internalType": "address",
                    "name": "user",
                    "type": "address"
                },
                {
                    "indexed": true,
                    "internalType": "uint256",
                    "name": "pid",
                    "type": "uint256"
                },
                {
                    "indexed": true,
                    "internalType": "uint256",
                    "name": "level",
                    "type": "uint256"
                }
            ],
            "name": "Boost",
            "type": "event"
        },
        {
            "anonymous": false,
            "inputs": [
                {
                    "indexed": true,
                    "internalType": "address",
                    "name": "user",
                    "type": "address"
                },
                {
                    "indexed": true,
                    "internalType": "uint256",
                    "name": "pid",
                    "type": "uint256"
                },
                {
                    "indexed": false,
                    "internalType": "uint256",
                    "name": "amount",
                    "type": "uint256"
                }
            ],
            "name": "Deposit",
            "type": "event"
        },
        {
            "anonymous": false,
            "inputs": [
                {
                    "indexed": true,
                    "internalType": "address",
                    "name": "user",
                    "type": "address"
                },
                {
                    "indexed": true,
                    "internalType": "uint256",
                    "name": "pid",
                    "type": "uint256"
                },
                {
                    "indexed": false,
                    "internalType": "uint256",
                    "name": "amount",
                    "type": "uint256"
                }
            ],
            "name": "EmergencyWithdraw",
            "type": "event"
        },
        {
            "anonymous": false,
            "inputs": [
                {
                    "indexed": true,
                    "internalType": "address",
                    "name": "previousOwner",
                    "type": "address"
                },
                {
                    "indexed": true,
                    "internalType": "address",
                    "name": "newOwner",
                    "type": "address"
                }
            ],
            "name": "OwnershipTransferred",
            "type": "event"
        },
        {
            "anonymous": false,
            "inputs": [
                {
                    "indexed": false,
                    "internalType": "uint256",
                    "name": "pid",
                    "type": "uint256"
                },
                {
                    "indexed": false,
                    "internalType": "address",
                    "name": "to",
                    "type": "address"
                }
            ],
            "name": "RewardPaid",
            "type": "event"
        },
        {
            "anonymous": false,
            "inputs": [
                {
                    "indexed": true,
                    "internalType": "address",
                    "name": "previousOwner",
                    "type": "address"
                },
                {
                    "indexed": true,
                    "internalType": "address",
                    "name": "newOwner",
                    "type": "address"
                }
            ],
            "name": "SuperAdminTransfered",
            "type": "event"
        },
        {
            "anonymous": false,
            "inputs": [
                {
                    "indexed": true,
                    "internalType": "address",
                    "name": "user",
                    "type": "address"
                },
                {
                    "indexed": true,
                    "internalType": "uint256",
                    "name": "pid",
                    "type": "uint256"
                },
                {
                    "indexed": false,
                    "internalType": "uint256",
                    "name": "amount",
                    "type": "uint256"
                }
            ],
            "name": "Withdraw",
            "type": "event"
        },
        {
            "inputs": [],
            "name": "YGYReserve",
            "outputs": [
                {
                    "internalType": "uint256",
                    "name": "",
                    "type": "uint256"
                }
            ],
            "stateMutability": "view",
            "type": "function"
        },
        {
            "inputs": [],
            "name": "YGYRewardsInThisEpoch",
            "outputs": [
                {
                    "internalType": "uint256",
                    "name": "",
                    "type": "uint256"
                }
            ],
            "stateMutability": "view",
            "type": "function"
        },
        {
            "inputs": [
                {
                    "internalType": "uint256",
                    "name": "_allocPoint",
                    "type": "uint256"
                },
                {
                    "internalType": "contract IERC20",
                    "name": "_token",
                    "type": "address"
                },
                {
                    "internalType": "bool",
                    "name": "_withUpdate",
                    "type": "bool"
                },
                {
                    "internalType": "bool",
                    "name": "_withdrawable",
                    "type": "bool"
                }
            ],
            "name": "add",
            "outputs": [],
            "stateMutability": "nonpayable",
            "type": "function"
        },
        {
            "inputs": [
                {
                    "internalType": "uint256",
                    "name": "_amount",
                    "type": "uint256"
                }
            ],
            "name": "addPendingRewards",
            "outputs": [],
            "stateMutability": "nonpayable",
            "type": "function"
        },
        {
            "inputs": [
                {
                    "internalType": "uint256",
                    "name": "_amount",
                    "type": "uint256"
                }
            ],
            "name": "addRAMRewardsOwner",
            "outputs": [],
            "stateMutability": "nonpayable",
            "type": "function"
        },
        {
            "inputs": [
                {
                    "internalType": "uint256",
                    "name": "_amount",
                    "type": "uint256"
                }
            ],
            "name": "addYGYRewardsOwner",
            "outputs": [],
            "stateMutability": "nonpayable",
            "type": "function"
        },
        {
            "inputs": [],
            "name": "averageFeesPerBlockEpoch",
            "outputs": [
                {
                    "internalType": "uint256",
                    "name": "averagePerBlock",
                    "type": "uint256"
                },
                {
                    "internalType": "uint256",
                    "name": "averageYGYPerBlock",
                    "type": "uint256"
                }
            ],
            "stateMutability": "view",
            "type": "function"
        },
        {
            "inputs": [],
            "name": "averageFeesPerBlockSinceStart",
            "outputs": [
                {
                    "internalType": "uint256",
                    "name": "averagePerBlock",
                    "type": "uint256"
                },
                {
                    "internalType": "uint256",
                    "name": "averageYGYPerBlock",
                    "type": "uint256"
                }
            ],
            "stateMutability": "view",
            "type": "function"
        },
        {
            "inputs": [],
            "name": "boostFees",
            "outputs": [
                {
                    "internalType": "uint256",
                    "name": "",
                    "type": "uint256"
                }
            ],
            "stateMutability": "view",
            "type": "function"
        },
        {
            "inputs": [],
            "name": "boostLevelFourCost",
            "outputs": [
                {
                    "internalType": "uint256",
                    "name": "",
                    "type": "uint256"
                }
            ],
            "stateMutability": "view",
            "type": "function"
        },
        {
            "inputs": [],
            "name": "boostLevelFourMultiplier",
            "outputs": [
                {
                    "internalType": "uint256",
                    "name": "",
                    "type": "uint256"
                }
            ],
            "stateMutability": "view",
            "type": "function"
        },
        {
            "inputs": [],
            "name": "boostLevelOneCost",
            "outputs": [
                {
                    "internalType": "uint256",
                    "name": "",
                    "type": "uint256"
                }
            ],
            "stateMutability": "view",
            "type": "function"
        },
        {
            "inputs": [],
            "name": "boostLevelOneMultiplier",
            "outputs": [
                {
                    "internalType": "uint256",
                    "name": "",
                    "type": "uint256"
                }
            ],
            "stateMutability": "view",
            "type": "function"
        },
        {
            "inputs": [],
            "name": "boostLevelThreeCost",
            "outputs": [
                {
                    "internalType": "uint256",
                    "name": "",
                    "type": "uint256"
                }
            ],
            "stateMutability": "view",
            "type": "function"
        },
        {
            "inputs": [],
            "name": "boostLevelThreeMultiplier",
            "outputs": [
                {
                    "internalType": "uint256",
                    "name": "",
                    "type": "uint256"
                }
            ],
            "stateMutability": "view",
            "type": "function"
        },
        {
            "inputs": [],
            "name": "boostLevelTwoCost",
            "outputs": [
                {
                    "internalType": "uint256",
                    "name": "",
                    "type": "uint256"
                }
            ],
            "stateMutability": "view",
            "type": "function"
        },
        {
            "inputs": [],
            "name": "boostLevelTwoMultiplier",
            "outputs": [
                {
                    "internalType": "uint256",
                    "name": "",
                    "type": "uint256"
                }
            ],
            "stateMutability": "view",
            "type": "function"
        },
        {
            "inputs": [],
            "name": "burnSuperAdmin",
            "outputs": [],
            "stateMutability": "nonpayable",
            "type": "function"
        },
        {
            "inputs": [
                {
                    "internalType": "uint256",
                    "name": "_level",
                    "type": "uint256"
                }
            ],
            "name": "calculateCost",
            "outputs": [
                {
                    "internalType": "uint256",
                    "name": "",
                    "type": "uint256"
                }
            ],
            "stateMutability": "view",
            "type": "function"
        },
        {
            "inputs": [
                {
                    "internalType": "uint256",
                    "name": "_pid",
                    "type": "uint256"
                },
                {
                    "internalType": "address",
                    "name": "_user",
                    "type": "address"
                }
            ],
            "name": "checkRewards",
            "outputs": [
                {
                    "internalType": "uint256",
                    "name": "pendingRAM",
                    "type": "uint256"
                },
                {
                    "internalType": "uint256",
                    "name": "pendingYGY",
                    "type": "uint256"
                }
            ],
            "stateMutability": "view",
            "type": "function"
        },
        {
            "inputs": [
                {
                    "internalType": "uint256",
                    "name": "_pid",
                    "type": "uint256"
                }
            ],
            "name": "claimRewards",
            "outputs": [],
            "stateMutability": "nonpayable",
            "type": "function"
        },
        {
            "inputs": [],
            "name": "contractStartBlock",
            "outputs": [
                {
                    "internalType": "uint256",
                    "name": "",
                    "type": "uint256"
                }
            ],
            "stateMutability": "view",
            "type": "function"
        },
        {
            "inputs": [],
            "name": "cumulativeRewardsSinceStart",
            "outputs": [
                {
                    "internalType": "uint256",
                    "name": "",
                    "type": "uint256"
                }
            ],
            "stateMutability": "view",
            "type": "function"
        },
        {
            "inputs": [],
            "name": "cumulativeYGYRewardsSinceStart",
            "outputs": [
                {
                    "internalType": "uint256",
                    "name": "",
                    "type": "uint256"
                }
            ],
            "stateMutability": "view",
            "type": "function"
        },
        {
            "inputs": [
                {
                    "internalType": "uint256",
                    "name": "_pid",
                    "type": "uint256"
                },
                {
                    "internalType": "uint256",
                    "name": "_amount",
                    "type": "uint256"
                }
            ],
            "name": "deposit",
            "outputs": [],
            "stateMutability": "nonpayable",
            "type": "function"
        },
        {
            "inputs": [
                {
                    "internalType": "address",
                    "name": "depositFor",
                    "type": "address"
                },
                {
                    "internalType": "uint256",
                    "name": "_pid",
                    "type": "uint256"
                },
                {
                    "internalType": "uint256",
                    "name": "_amount",
                    "type": "uint256"
                }
            ],
            "name": "depositFor",
            "outputs": [],
            "stateMutability": "nonpayable",
            "type": "function"
        },
        {
            "inputs": [],
            "name": "devaddr",
            "outputs": [
                {
                    "internalType": "address",
                    "name": "",
                    "type": "address"
                }
            ],
            "stateMutability": "view",
            "type": "function"
        },
        {
            "inputs": [],
            "name": "distributeFees",
            "outputs": [],
            "stateMutability": "nonpayable",
            "type": "function"
        },
        {
            "inputs": [
                {
                    "internalType": "uint256",
                    "name": "_pid",
                    "type": "uint256"
                }
            ],
            "name": "emergencyWithdraw",
            "outputs": [],
            "stateMutability": "nonpayable",
            "type": "function"
        },
        {
            "inputs": [],
            "name": "epoch",
            "outputs": [
                {
                    "internalType": "uint256",
                    "name": "",
                    "type": "uint256"
                }
            ],
            "stateMutability": "view",
            "type": "function"
        },
        {
            "inputs": [],
            "name": "epochCalculationStartBlock",
            "outputs": [
                {
                    "internalType": "uint256",
                    "name": "",
                    "type": "uint256"
                }
            ],
            "stateMutability": "view",
            "type": "function"
        },
        {
            "inputs": [
                {
                    "internalType": "uint256",
                    "name": "",
                    "type": "uint256"
                }
            ],
            "name": "epochRewards",
            "outputs": [
                {
                    "internalType": "uint256",
                    "name": "",
                    "type": "uint256"
                }
            ],
            "stateMutability": "view",
            "type": "function"
        },
        {
            "inputs": [
                {
                    "internalType": "uint256",
                    "name": "",
                    "type": "uint256"
                }
            ],
            "name": "epochYGYRewards",
            "outputs": [
                {
                    "internalType": "uint256",
                    "name": "",
                    "type": "uint256"
                }
            ],
            "stateMutability": "view",
            "type": "function"
        },
        {
            "inputs": [
                {
                    "internalType": "address",
                    "name": "account",
                    "type": "address"
                },
                {
                    "internalType": "uint256",
                    "name": "pid",
                    "type": "uint256"
                }
            ],
            "name": "getLevel",
            "outputs": [
                {
                    "internalType": "uint256",
                    "name": "",
                    "type": "uint256"
                }
            ],
            "stateMutability": "view",
            "type": "function"
        },
        {
            "inputs": [
                {
                    "internalType": "address",
                    "name": "account",
                    "type": "address"
                },
                {
                    "internalType": "uint256",
                    "name": "pid",
                    "type": "uint256"
                }
            ],
            "name": "getSpent",
            "outputs": [
                {
                    "internalType": "uint256",
                    "name": "",
                    "type": "uint256"
                }
            ],
            "stateMutability": "view",
            "type": "function"
        },
        {
            "inputs": [
                {
                    "internalType": "uint256",
                    "name": "_boostLevel",
                    "type": "uint256"
                }
            ],
            "name": "getTotalMultiplier",
            "outputs": [
                {
                    "internalType": "uint256",
                    "name": "",
                    "type": "uint256"
                }
            ],
            "stateMutability": "view",
            "type": "function"
        },
        {
            "inputs": [
                {
                    "internalType": "address",
                    "name": "_ram",
                    "type": "address"
                },
                {
                    "internalType": "address",
                    "name": "_ygy",
                    "type": "address"
                },
                {
                    "internalType": "address",
                    "name": "_devaddr",
                    "type": "address"
                },
                {
                    "internalType": "address",
                    "name": "_teamaddr",
                    "type": "address"
                },
                {
                    "internalType": "address",
                    "name": "_regeneratoraddr",
                    "type": "address"
                },
                {
                    "internalType": "address",
                    "name": "superAdmin",
                    "type": "address"
                }
            ],
            "name": "initialize",
            "outputs": [],
            "stateMutability": "nonpayable",
            "type": "function"
        },
        {
            "inputs": [
                {
                    "internalType": "address",
                    "name": "addr",
                    "type": "address"
                }
            ],
            "name": "isContract",
            "outputs": [
                {
                    "internalType": "bool",
                    "name": "",
                    "type": "bool"
                }
            ],
            "stateMutability": "nonpayable",
            "type": "function"
        },
        {
            "inputs": [],
            "name": "massUpdatePools",
            "outputs": [],
            "stateMutability": "nonpayable",
            "type": "function"
        },
        {
            "inputs": [
                {
                    "internalType": "address",
                    "name": "newOwner",
                    "type": "address"
                }
            ],
            "name": "newSuperAdmin",
            "outputs": [],
            "stateMutability": "nonpayable",
            "type": "function"
        },
        {
            "inputs": [],
            "name": "owner",
            "outputs": [
                {
                    "internalType": "address",
                    "name": "",
                    "type": "address"
                }
            ],
            "stateMutability": "view",
            "type": "function"
        },
        {
            "inputs": [],
            "name": "pendingRewards",
            "outputs": [
                {
                    "internalType": "uint256",
                    "name": "",
                    "type": "uint256"
                }
            ],
            "stateMutability": "view",
            "type": "function"
        },
        {
            "inputs": [],
            "name": "pendingYGYRewards",
            "outputs": [
                {
                    "internalType": "uint256",
                    "name": "",
                    "type": "uint256"
                }
            ],
            "stateMutability": "view",
            "type": "function"
        },
        {
            "inputs": [
                {
                    "internalType": "uint256",
                    "name": "",
                    "type": "uint256"
                }
            ],
            "name": "poolInfo",
            "outputs": [
                {
                    "internalType": "contract IERC20",
                    "name": "token",
                    "type": "address"
                },
                {
                    "internalType": "uint256",
                    "name": "allocPoint",
                    "type": "uint256"
                },
                {
                    "internalType": "uint256",
                    "name": "accRAMPerShare",
                    "type": "uint256"
                },
                {
                    "internalType": "uint256",
                    "name": "accYGYPerShare",
                    "type": "uint256"
                },
                {
                    "internalType": "bool",
                    "name": "withdrawable",
                    "type": "bool"
                },
                {
                    "internalType": "uint256",
                    "name": "effectiveAdditionalTokensFromBoosts",
                    "type": "uint256"
                }
            ],
            "stateMutability": "view",
            "type": "function"
        },
        {
            "inputs": [],
            "name": "poolLength",
            "outputs": [
                {
                    "internalType": "uint256",
                    "name": "",
                    "type": "uint256"
                }
            ],
            "stateMutability": "view",
            "type": "function"
        },
        {
            "inputs": [
                {
                    "internalType": "uint256",
                    "name": "_pid",
                    "type": "uint256"
                },
                {
                    "internalType": "uint256",
                    "name": "_level",
                    "type": "uint256"
                }
            ],
            "name": "purchase",
            "outputs": [],
            "stateMutability": "nonpayable",
            "type": "function"
        },
        {
            "inputs": [],
            "name": "ram",
            "outputs": [
                {
                    "internalType": "contract INBUNIERC20",
                    "name": "",
                    "type": "address"
                }
            ],
            "stateMutability": "view",
            "type": "function"
        },
        {
            "inputs": [],
            "name": "regeneratoraddr",
            "outputs": [
                {
                    "internalType": "address",
                    "name": "",
                    "type": "address"
                }
            ],
            "stateMutability": "view",
            "type": "function"
        },
        {
            "inputs": [],
            "name": "renounceOwnership",
            "outputs": [],
            "stateMutability": "nonpayable",
            "type": "function"
        },
        {
            "inputs": [],
            "name": "rewardsInThisEpoch",
            "outputs": [
                {
                    "internalType": "uint256",
                    "name": "",
                    "type": "uint256"
                }
            ],
            "stateMutability": "view",
            "type": "function"
        },
        {
            "inputs": [
                {
                    "internalType": "uint256",
                    "name": "_pid",
                    "type": "uint256"
                },
                {
                    "internalType": "uint256",
                    "name": "_allocPoint",
                    "type": "uint256"
                },
                {
                    "internalType": "bool",
                    "name": "_withUpdate",
                    "type": "bool"
                }
            ],
            "name": "set",
            "outputs": [],
            "stateMutability": "nonpayable",
            "type": "function"
        },
        {
            "inputs": [
                {
                    "internalType": "address",
                    "name": "spender",
                    "type": "address"
                },
                {
                    "internalType": "uint256",
                    "name": "_pid",
                    "type": "uint256"
                },
                {
                    "internalType": "uint256",
                    "name": "value",
                    "type": "uint256"
                }
            ],
            "name": "setAllowanceForPoolToken",
            "outputs": [],
            "stateMutability": "nonpayable",
            "type": "function"
        },
        {
            "inputs": [
                {
                    "internalType": "uint16",
                    "name": "_DEV_FEE",
                    "type": "uint16"
                }
            ],
            "name": "setDevFee",
            "outputs": [],
            "stateMutability": "nonpayable",
            "type": "function"
        },
        {
            "inputs": [
                {
                    "internalType": "address",
                    "name": "_devaddr",
                    "type": "address"
                }
            ],
            "name": "setDevFeeReciever",
            "outputs": [],
            "stateMutability": "nonpayable",
            "type": "function"
        },
        {
            "inputs": [
                {
                    "internalType": "uint256",
                    "name": "_pid",
                    "type": "uint256"
                },
                {
                    "internalType": "bool",
                    "name": "_withdrawable",
                    "type": "bool"
                }
            ],
            "name": "setPoolWithdrawable",
            "outputs": [],
            "stateMutability": "nonpayable",
            "type": "function"
        },
        {
            "inputs": [
                {
                    "internalType": "address",
                    "name": "tokenAddress",
                    "type": "address"
                },
                {
                    "internalType": "uint256",
                    "name": "_amount",
                    "type": "uint256"
                },
                {
                    "internalType": "address",
                    "name": "contractAddress",
                    "type": "address"
                }
            ],
            "name": "setStrategyContractOrDistributionContractAllowance",
            "outputs": [],
            "stateMutability": "nonpayable",
            "type": "function"
        },
        {
            "inputs": [],
            "name": "startNewEpoch",
            "outputs": [],
            "stateMutability": "nonpayable",
            "type": "function"
        },
        {
            "inputs": [],
            "name": "superAdmin",
            "outputs": [
                {
                    "internalType": "address",
                    "name": "",
                    "type": "address"
                }
            ],
            "stateMutability": "view",
            "type": "function"
        },
        {
            "inputs": [],
            "name": "teamaddr",
            "outputs": [
                {
                    "internalType": "address",
                    "name": "",
                    "type": "address"
                }
            ],
            "stateMutability": "view",
            "type": "function"
        },
        {
            "inputs": [],
            "name": "totalAllocPoint",
            "outputs": [
                {
                    "internalType": "uint256",
                    "name": "",
                    "type": "uint256"
                }
            ],
            "stateMutability": "view",
            "type": "function"
        },
        {
            "inputs": [
                {
                    "internalType": "address",
                    "name": "newOwner",
                    "type": "address"
                }
            ],
            "name": "transferOwnership",
            "outputs": [],
            "stateMutability": "nonpayable",
            "type": "function"
        },
        {
            "inputs": [],
            "name": "transferRAMDevFee",
            "outputs": [],
            "stateMutability": "nonpayable",
            "type": "function"
        },
        {
            "inputs": [],
            "name": "transferYGYDevFee",
            "outputs": [],
            "stateMutability": "nonpayable",
            "type": "function"
        },
        {
            "inputs": [
                {
                    "internalType": "uint256[]",
                    "name": "_boostMultipliers",
                    "type": "uint256[]"
                },
                {
                    "internalType": "uint256[]",
                    "name": "_boostCosts",
                    "type": "uint256[]"
                }
            ],
            "name": "updateBoosts",
            "outputs": [],
            "stateMutability": "nonpayable",
            "type": "function"
        },
        {
            "inputs": [
                {
                    "internalType": "uint256",
                    "name": "",
                    "type": "uint256"
                },
                {
                    "internalType": "address",
                    "name": "",
                    "type": "address"
                }
            ],
            "name": "userInfo",
            "outputs": [
                {
                    "internalType": "uint256",
                    "name": "amount",
                    "type": "uint256"
                },
                {
                    "internalType": "uint256",
                    "name": "rewardDebt",
                    "type": "uint256"
                },
                {
                    "internalType": "uint256",
                    "name": "rewardDebtYGY",
                    "type": "uint256"
                },
                {
                    "internalType": "uint256",
                    "name": "boostAmount",
                    "type": "uint256"
                },
                {
                    "internalType": "uint256",
                    "name": "boostLevel",
                    "type": "uint256"
                },
                {
                    "internalType": "uint256",
                    "name": "spentMultiplierTokens",
                    "type": "uint256"
                }
            ],
            "stateMutability": "view",
            "type": "function"
        },
        {
            "inputs": [
                {
                    "internalType": "uint256",
                    "name": "_pid",
                    "type": "uint256"
                },
                {
                    "internalType": "uint256",
                    "name": "_amount",
                    "type": "uint256"
                }
            ],
            "name": "withdraw",
            "outputs": [],
            "stateMutability": "nonpayable",
            "type": "function"
        },
        {
            "inputs": [
                {
                    "internalType": "address",
                    "name": "owner",
                    "type": "address"
                },
                {
                    "internalType": "uint256",
                    "name": "_pid",
                    "type": "uint256"
                },
                {
                    "internalType": "uint256",
                    "name": "_amount",
                    "type": "uint256"
                }
            ],
            "name": "withdrawFrom",
            "outputs": [],
            "stateMutability": "nonpayable",
            "type": "function"
        },
        {
            "inputs": [],
            "name": "ygy",
            "outputs": [
                {
                    "internalType": "contract IERC20",
                    "name": "",
                    "type": "address"
                }
            ],
            "stateMutability": "view",
            "type": "function"
        }
    ],
    "bytecode": "608060405234801561001057600080fd5b506145f1806100206000396000f3fe608060405234801561001057600080fd5b50600436106103fc5760003560e01c80637bedf68a11610215578063b2f4b44a11610125578063cc2a9a5b116100b8578063e18cb4fe11610087578063e18cb4fe14610b3f578063e2bbb15814610b60578063eded3fda14610b83578063f2fde38b14610b8b578063fb70c3bf14610bb1576103fc565b8063cc2a9a5b14610aaf578063d49e77cd14610afd578063d87190a914610b05578063dbe0901f14610b0d576103fc565b8063c4014588116100f4578063c401458814610a2d578063c507aeaa14610a63578063c8ffb87314610a9f578063cc1362ec14610aa7576103fc565b8063b2f4b44a146108ca578063ba02da31146109f1578063bb57ad2014610a1d578063c083143d14610a25576103fc565b8063900cf0cf116101a85780639a4c3095116101775780639a4c3095146108605780639a6d2711146108685780639dbc2d9014610870578063a676860a14610878578063b121f2ac1461089e576103fc565b8063900cf0cf146107e9578063934eaa50146107f157806393f1a40b146107f95780639649d76c14610858576103fc565b80638b6ff57b116101e45780638b6ff57b146107c95780638da5cb5b146107d15780638ea703f5146107d95780638f33b5e5146107e1576103fc565b80637bedf68a146107945780637cf75ca3146107b15780637d3b8da1146107b9578063896b09df146107c1576103fc565b80633fe6a278116103105780634dc47d34116102a3578063608c8d3a11610272578063608c8d3a1461072e578063630b5ba11461073657806364482f791461073e57806370876c9814610769578063715018a61461078c576103fc565b80634dc47d34146106c75780635207cc0d146106e45780635312ea8e146107095780635d577c1814610726576103fc565b806346eaab32116102df57806346eaab321461066857806349c5468d146106705780634af18f4f146106785780634cf5fbf514610695576103fc565b80633fe6a27814610603578063423d6fa014610620578063426036021461063d578063441a3e7014610645576103fc565b806316279055116103935780632d6754e5116103625780632d6754e5146105695780633a0967cd1461058f5780633aab0a62146105c15780633b6a6849146105c95780633cf99c1a146105e6576103fc565b806316279055146104fb57806317caf6f1146105355780631dbf779e1461053d57806329575f6a14610545576103fc565b806309e3de41116103cf57806309e3de41146104635780630aae105d1461046b57806310178d9c146104735780631526fe271461049f576103fc565b806301e492df1461040157806303dec0091461041b578063081e3eda1461043c5780630962ef7914610444575b600080fd5b610409610bb9565b60408051918252519081900360200190f35b610423610bbf565b6040805192835260208301919091528051918290030190f35b610409610c15565b6104616004803603602081101561045a57600080fd5b5035610c1b565b005b610409610c62565b610409610c68565b6104236004803603604081101561048957600080fd5b50803590602001356001600160a01b0316610c6e565b6104bc600480360360208110156104b557600080fd5b5035610d40565b604080516001600160a01b03909716875260208701959095528585019390935260608501919091521515608084015260a0830152519081900360c00190f35b6105216004803603602081101561051157600080fd5b50356001600160a01b0316610d93565b604080519115158252519081900360200190f35b610409610d9d565b610409610da3565b61054d610da9565b604080516001600160a01b039092168252519081900360200190f35b6104616004803603602081101561057f57600080fd5b50356001600160a01b0316610db8565b610461600480360360608110156105a557600080fd5b506001600160a01b038135169060208101359060400135610e32565b610461610f39565b610461600480360360208110156105df57600080fd5b5035610ffb565b610409600480360360208110156105fc57600080fd5b503561114b565b6104616004803603602081101561061957600080fd5b503561115d565b6104616004803603602081101561063657600080fd5b503561129c565b610409611347565b6104616004803603604081101561065b57600080fd5b508035906020013561134d565b61040961135d565b610409611363565b6104096004803603602081101561068e57600080fd5b5035611369565b610461600480360360608110156106ab57600080fd5b506001600160a01b0381351690602081013590604001356113b3565b610409600480360360208110156106dd57600080fd5b50356115aa565b610461600480360360408110156106fa57600080fd5b508035906020013515156115bc565b6104616004803603602081101561071f57600080fd5b5035611648565b610409611735565b61040961173b565b610461611741565b6104616004803603606081101561075457600080fd5b508035906020810135906040013515156117e1565b6104616004803603604081101561077f57600080fd5b50803590602001356118b2565b610461611ae6565b610409600480360360208110156107aa57600080fd5b5035611b88565b610461611bd5565b61054d611e69565b610409611e78565b610409611e7e565b61054d611e84565b610409611e93565b61054d611e99565b610409611ea8565b610461611eae565b6108256004803603604081101561080f57600080fd5b50803590602001356001600160a01b0316611f4c565b604080519687526020870195909552858501939093526060850191909152608084015260a0830152519081900360c00190f35b610409611f8c565b610409611f92565b61054d611f98565b610423611fa7565b6104616004803603602081101561088e57600080fd5b50356001600160a01b0316611ffe565b610409600480360360408110156108b457600080fd5b506001600160a01b0381351690602001356120f3565b610461600480360360408110156108e057600080fd5b8101906020810181356401000000008111156108fb57600080fd5b82018360208201111561090d57600080fd5b8035906020019184602083028401116401000000008311171561092f57600080fd5b919080806020026020016040519081016040528093929190818152602001838360200280828437600092019190915250929594936020810193503591505064010000000081111561097f57600080fd5b82018360208201111561099157600080fd5b803590602001918460208302840111640100000000831117156109b357600080fd5b91908080602002602001604051908101604052809392919081815260200183836020028082843760009201919091525092955061216e945050505050565b61040960048036036040811015610a0757600080fd5b506001600160a01b03813516906020013561234e565b6104616123c9565b610409612676565b61046160048036036060811015610a4357600080fd5b506001600160a01b0381358116916020810135916040909101351661267c565b61046160048036036080811015610a7957600080fd5b508035906001600160a01b036020820135169060408101351515906060013515156127e9565b610409612a54565b610461612a5a565b610461600480360360c0811015610ac557600080fd5b506001600160a01b038135811691602081013582169160408201358116916060810135821691608082013581169160a0013516612ced565b61054d612e5a565b610409612e69565b61046160048036036060811015610b2357600080fd5b506001600160a01b038135169060208101359060400135612e6f565b61046160048036036020811015610b5557600080fd5b503561ffff16612ef3565b61046160048036036040811015610b7657600080fd5b5080359060200135612fb7565b61040961319e565b61046160048036036020811015610ba157600080fd5b50356001600160a01b03166131a4565b61054d61329d565b60ac5481565b6000806000610be5610bdc60a354436132ac90919063ffffffff16565b60a654906132f5565b90506000610c0a610c0160a354436132ac90919063ffffffff16565b60a754906132f5565b919350909150509091565b609a5490565b610c258133613337565b6040805182815233602082015281517fc05cbf47ef4152ea1b2446fb1ba8eb9c7285054d9c85f2f52c294200d8d1d38b929181900390910190a150565b60ab5481565b60af5481565b6000806000609a8581548110610c8057fe5b60009182526020808320888452609b825260408085206001600160a01b038a16865290925290832060038101548154600790940290920194509291610cc4916133f3565b905060008084600301541115610d0b57610d088360020154610d0264e8d4a51000610cfc88600301548761344d90919063ffffffff16565b906132f5565b906132ac565b90505b610d338360010154610d0264e8d4a51000610cfc88600201548761344d90919063ffffffff16565b9890975095505050505050565b609a8181548110610d4d57fe5b60009182526020909120600790910201805460018201546002830154600384015460048501546006909501546001600160a01b0390941695509193909260ff9091169086565b803b15155b919050565b609c5481565b609f5481565b60b9546001600160a01b031690565b610dc06134a6565b6065546001600160a01b03908116911614610e10576040805162461bcd60e51b815260206004820181905260248201526000805160206144d4833981519152604482015290519081900360640190fd5b609980546001600160a01b0319166001600160a01b0392909216919091179055565b6000609a8381548110610e4157fe5b600091825260208083206001600160a01b038816845260056007909302019182018152604080842033855290915290912054909150821115610eca576040805162461bcd60e51b815260206004820181905260248201527f77697468647261773a20696e73756666696369656e7420616c6c6f77616e6365604482015290519081900360640190fd5b6001600160a01b03841660009081526005820160209081526040808320338452909152902054610efa90836132ac565b6001600160a01b0385166000908152600583016020908152604080832033808552925290912091909155610f33908490849087906134aa565b50505050565b4360a35461c3500110610f93576040805162461bcd60e51b815260206004820152601760248201527f4e65772065706f6368206e6f7420726561647920796574000000000000000000604482015290519081900360640190fd5b60a6805460a88054600090815260b4602090815260408083209490945560a7549254825260b5905291909120555460a454610fcd916133f3565b60a45560a75460a554610fdf916133f3565b60a555600060a681905560a7554360a35560a880546001019055565b6110036134a6565b6065546001600160a01b03908116911614611053576040805162461bcd60e51b815260206004820181905260248201526000805160206144d4833981519152604482015290519081900360640190fd5b609754604080516323b872dd60e01b81523360048201523060248201526044810184905290516001600160a01b03909216916323b872dd916064808201926020929091908290030181600087803b1580156110ad57600080fd5b505af11580156110c1573d6000803e3d6000fd5b505050506040513d60208110156110d757600080fd5b5051611121576040805162461bcd60e51b8152602060048201526014602482015273105c1c1c9bdd99481d1bdad95b9cc8199a5c9cdd60621b604482015290519081900360640190fd5b801561114857609d5461113490826133f3565b609d5560a65461114490826133f3565b60a6555b50565b60b56020526000908152604090205481565b6111656134a6565b6065546001600160a01b039081169116146111b5576040805162461bcd60e51b815260206004820181905260248201526000805160206144d4833981519152604482015290519081900360640190fd5b609854604080516323b872dd60e01b81523360048201523060248201526044810184905290516001600160a01b03909216916323b872dd916064808201926020929091908290030181600087803b15801561120f57600080fd5b505af1158015611223573d6000803e3d6000fd5b505050506040513d602081101561123957600080fd5b5051611283576040805162461bcd60e51b8152602060048201526014602482015273105c1c1c9bdd99481d1bdad95b9cc8199a5c9cdd60621b604482015290519081900360640190fd5b801561114857609f5461129690826133f3565b609f5550565b6097546001600160a01b031633146112fb576040805162461bcd60e51b815260206004820152601e60248201527f4f6e6c792052414d20746f6b656e2063616e2061646420726577617264730000604482015290519081900360640190fd5b609d5461130890826133f3565b609d5560a65461131890826133f3565b60a655609f54811161114857609d5461133190826133f3565b609e5560a75461134190826133f3565b60a75550565b60ad5481565b611359828233336134aa565b5050565b60b35481565b60a25481565b6000816001141561137d575060ac54610d98565b816002141561138f575060ad54610d98565b81600314156113a1575060ae54610d98565b8160041415610d98575060af54610d98565b6000609a83815481106113c257fe5b60009182526020808320868452609b825260408085206001600160a01b038a1686529092529220600790910290910191506113fd8486613337565b8215611507578154604080516323b872dd60e01b81523360048201523060248201526044810186905290516001600160a01b03909216916323b872dd916064808201926020929091908290030181600087803b15801561145c57600080fd5b505af1158015611470573d6000803e3d6000fd5b505050506040513d602081101561148657600080fd5b5050805461149490846133f3565b815560048101541561150757600381015460048201546000906114b690611b88565b905060006114d66064610cfc84876000015461344d90919063ffffffff16565b60038501819055905060006114eb82856132ac565b60068701549091506114fd90826133f3565b6006870155505050505b6003810154815460009161151b91906133f3565b905061153d64e8d4a51000610cfc85600201548461344d90919063ffffffff16565b6001830155600383015461155d9064e8d4a5100090610cfc90849061344d565b600283015560408051858152905186916001600160a01b038916917f90890809c654f11d6e72a28fa60149770a0d11ec6c92319d6ceb2bb0a4ea1a159181900360200190a3505050505050565b60b46020526000908152604090205481565b6115c46134a6565b6065546001600160a01b03908116911614611614576040805162461bcd60e51b815260206004820181905260248201526000805160206144d4833981519152604482015290519081900360640190fd5b80609a838154811061162257fe5b60009182526020909120600790910201600401805460ff19169115159190911790555050565b6000609a828154811061165757fe5b60009182526020909120600790910201600481015490915060ff166116ad5760405162461bcd60e51b81526004018080602001828103825260268152602001806145226026913960400191505060405180910390fd5b6000828152609b602090815260408083203380855292529091208054835491926116e0926001600160a01b0316916136c5565b80546040805191825251849133917fbb757047c2b5f3974fe26b7c10f732e7bce710b0952a71082702781e62ae05959181900360200190a3600080825560038201819055600182018190556002909101555050565b60a35481565b60a65481565b611775604051806040016040528060138152602001724d617373205570646174696e6720506f6f6c7360681b81525061371c565b609a54600080805b838110156117bb57600080611791836137c2565b90925090506117a085836133f3565b94506117ac84826133f3565b9350505080600101905061177d565b50609d546117c990836132ac565b609d55609e546117d990826132ac565b609e55505050565b6117e96134a6565b6065546001600160a01b03908116911614611839576040805162461bcd60e51b815260206004820181905260248201526000805160206144d4833981519152604482015290519081900360640190fd5b801561184757611847611741565b6118848261187e609a868154811061185b57fe5b906000526020600020906007020160010154609c546132ac90919063ffffffff16565b906133f3565b609c8190555081609a848154811061189857fe5b906000526020600020906007020160010181905550505050565b6000609a83815481106118c157fe5b60009182526020808320868452609b825260408085203386529092529220600481015460079092029092019250831161192b5760405162461bcd60e51b81526004018080602001828103825260248152602001806145986024913960400191505060405180910390fd5b600061193684611369565b905060006119518360050154836132ac90919063ffffffff16565b609754604080516323b872dd60e01b81523360048201523060248201526044810184905290519293506001600160a01b03909116916323b872dd916064808201926020929091908290030181600087803b1580156119ae57600080fd5b505af11580156119c2573d6000803e3d6000fd5b505050506040513d60208110156119d857600080fd5b5051611a1d576040805162461bcd60e51b815260206004820152600f60248201526e151c985b9cd9995c8819985a5b1959608a1b604482015290519081900360640190fd5b6005830154611a2c90826133f3565b600584015560048301859055825415611a9f576000611a4a86611b88565b90506000611a6a6064610cfc84886000015461344d90919063ffffffff16565b600386018054908290559091506000611a8383836132ac565b6006890154909150611a9590826133f3565b6006890155505050505b60ab54611aac90826133f3565b60ab556040518590879033907faadc628cb4fd3bb7a62795eb460290459458bdc6f387ffde727c740f42c1833790600090a4505050505050565b611aee6134a6565b6065546001600160a01b03908116911614611b3e576040805162461bcd60e51b815260206004820181905260248201526000805160206144d4833981519152604482015290519081900360640190fd5b6065546040516000916001600160a01b0316907f8be0079c531659141344cd1fd0a4f28419497f9722a3daafe3b4186f6b6457e0908390a3606580546001600160a01b0319169055565b6000806001831415611b9d575060b054611bcf565b8260021415611baf575060b154611bcf565b8260031415611bc1575060b254611bcf565b8260041415611bcf575060b3545b92915050565b60b75415611e6757609754604080516370a0823160e01b81523060048201529051600092839283926001600160a01b03909216916370a0823191602480820192602092909190829003018186803b158015611c2f57600080fd5b505afa158015611c43573d6000803e3d6000fd5b505050506040513d6020811015611c5957600080fd5b505160b754909150811015611c9157611c786064610cfc83604661344d565b9250611c8a6064610cfc83601e61344d565b9150611ccc565b611cac6064610cfc604660b75461344d90919063ffffffff16565b9250611cc96064610cfc601e60b75461344d90919063ffffffff16565b91505b8215611d58576097546099546040805163a9059cbb60e01b81526001600160a01b039283166004820152602481018790529051919092169163a9059cbb9160448083019260209291908290030181600087803b158015611d2b57600080fd5b505af1158015611d3f573d6000803e3d6000fd5b505050506040513d6020811015611d5557600080fd5b50505b8115611de45760975460aa546040805163a9059cbb60e01b81526001600160a01b039283166004820152602481018690529051919092169163a9059cbb9160448083019260209291908290030181600087803b158015611db757600080fd5b505af1158015611dcb573d6000803e3d6000fd5b505050506040513d6020811015611de157600080fd5b50505b609754604080516370a0823160e01b815230600482015290516001600160a01b03909216916370a0823191602480820192602092909190829003018186803b158015611e2f57600080fd5b505afa158015611e43573d6000803e3d6000fd5b505050506040513d6020811015611e5957600080fd5b505160a0555050600060b755505b565b60a9546001600160a01b031681565b60b15481565b609e5481565b6065546001600160a01b031690565b60b05481565b6097546001600160a01b031681565b60a85481565b611eb66134a6565b60b9546001600160a01b03908116911614611f025760405162461bcd60e51b815260040180806020018281038252602881526020018061448b6028913960400191505060405180910390fd5b60b9546040516000916001600160a01b0316907ff564c40f4f45e62a2c1e6c22e8bfb46501f0f71fa1c72e5358903fa1115a4b64908390a360b980546001600160a01b0319169055565b609b602090815260009283526040808420909152908252902080546001820154600283015460038401546004850154600590950154939492939192909186565b60a55481565b60b25481565b60aa546001600160a01b031681565b6000806000611fd3611fc460a254436132ac90919063ffffffff16565b60a65460a454610cfc916133f3565b90506000610c0a611fef60a254436132ac90919063ffffffff16565b60a75460a554610cfc916133f3565b6120066134a6565b60b9546001600160a01b039081169116146120525760405162461bcd60e51b815260040180806020018281038252602881526020018061448b6028913960400191505060405180910390fd5b6001600160a01b0381166120975760405162461bcd60e51b81526004018080602001828103825260268152602001806144406026913960400191505060405180910390fd5b60b9546040516001600160a01b038084169216907ff564c40f4f45e62a2c1e6c22e8bfb46501f0f71fa1c72e5358903fa1115a4b6490600090a360b980546001600160a01b0319166001600160a01b0392909216919091179055565b60006120fd614409565b50506000818152609b602090815260408083206001600160a01b0386168452825291829020825160c081018452815481526001820154928101929092526002810154928201929092526003820154606082015260048201546080820181905260059092015460a09091015292915050565b6121766134a6565b6065546001600160a01b039081169116146121c6576040805162461bcd60e51b815260206004820181905260248201526000805160206144d4833981519152604482015290519081900360640190fd5b815160041461221c576040805162461bcd60e51b815260206004820152601a60248201527f4d75737420737065636966792034206d756c7469706c69657273000000000000604482015290519081900360640190fd5b8051600414612272576040805162461bcd60e51b815260206004820152601a60248201527f4d75737420737065636966792034206d756c7469706c69657273000000000000604482015290519081900360640190fd5b8060008151811061227f57fe5b602002602001015160ac819055508060018151811061229a57fe5b602002602001015160ad81905550806002815181106122b557fe5b602002602001015160ae81905550806003815181106122d057fe5b602002602001015160af81905550816000815181106122eb57fe5b602002602001015160b0819055508160018151811061230657fe5b602002602001015160b1819055508160028151811061232157fe5b602002602001015160b2819055508160038151811061233c57fe5b602002602001015160b3819055505050565b6000612358614409565b50506000818152609b602090815260408083206001600160a01b0386168452825291829020825160c08101845281548152600182015492810192909252600281015492820192909252600382015460608201526004820154608082015260059091015460a090910181905292915050565b60ab8054600091829055906123df8260026132f5565b905080156113595760975460a9546040805163a9059cbb60e01b81526001600160a01b039283166004820152602481018590529051919092169163a9059cbb9160448083019260209291908290030181600087803b15801561244057600080fd5b505af1158015612454573d6000803e3d6000fd5b505050506040513d602081101561246a57600080fd5b50516124b0576040805162461bcd60e51b815260206004820152601060248201526f2a3930b739b332b9103330b4b632b21760811b604482015290519081900360640190fd5b60006124c26064610cfc84604661344d565b90508015612593576097546099546040805163a9059cbb60e01b81526001600160a01b039283166004820152602481018590529051919092169163a9059cbb9160448083019260209291908290030181600087803b15801561252357600080fd5b505af1158015612537573d6000803e3d6000fd5b505050506040513d602081101561254d57600080fd5b5051612593576040805162461bcd60e51b815260206004820152601060248201526f2a3930b739b332b9103330b4b632b21760811b604482015290519081900360640190fd5b60006125a56064610cfc85601e61344d565b90508015610f335760975460aa546040805163a9059cbb60e01b81526001600160a01b039283166004820152602481018590529051919092169163a9059cbb9160448083019260209291908290030181600087803b15801561260657600080fd5b505af115801561261a573d6000803e3d6000fd5b505050506040513d602081101561263057600080fd5b5051610f33576040805162461bcd60e51b815260206004820152601060248201526f2a3930b739b332b9103330b4b632b21760811b604482015290519081900360640190fd5b60a75481565b6126846134a6565b60b9546001600160a01b039081169116146126d05760405162461bcd60e51b815260040180806020018281038252602881526020018061448b6028913960400191505060405180910390fd5b6126d981610d93565b6127145760405162461bcd60e51b81526004018080602001828103825260258152602001806144666025913960400191505060405180910390fd5b60a25461272490620173186133f3565b43116127615760405162461bcd60e51b81526004018080602001828103825260268152602001806145486026913960400191505060405180910390fd5b826001600160a01b031663095ea7b382846040518363ffffffff1660e01b815260040180836001600160a01b0316815260200182815260200192505050602060405180830381600087803b1580156127b857600080fd5b505af11580156127cc573d6000803e3d6000fd5b505050506040513d60208110156127e257600080fd5b5050505050565b6127f16134a6565b6065546001600160a01b03908116911614612841576040805162461bcd60e51b815260206004820181905260248201526000805160206144d4833981519152604482015290519081900360640190fd5b811561284f5761284f611741565b609a5460005b818110156128e957846001600160a01b0316609a828154811061287457fe5b60009182526020909120600790910201546001600160a01b031614156128e1576040805162461bcd60e51b815260206004820152601860248201527f4572726f7220706f6f6c20616c72656164792061646465640000000000000000604482015290519081900360640190fd5b600101612855565b50609c546128f790866133f3565b609c55506040805160c0810182526001600160a01b039485168152602081019586526000918101828152606082018381529315156080830190815260a08301848152609a8054600181018255955292517f44da158ba27f9252712a74ff6a55c5d531f69609f1f6e7f17c4443a8e2089be4600790950294850180546001600160a01b031916919098161790965595517f44da158ba27f9252712a74ff6a55c5d531f69609f1f6e7f17c4443a8e2089be583015594517f44da158ba27f9252712a74ff6a55c5d531f69609f1f6e7f17c4443a8e2089be682015590517f44da158ba27f9252712a74ff6a55c5d531f69609f1f6e7f17c4443a8e2089be782015591517f44da158ba27f9252712a74ff6a55c5d531f69609f1f6e7f17c4443a8e2089be88301805460ff19169115159190911790555090517f44da158ba27f9252712a74ff6a55c5d531f69609f1f6e7f17c4443a8e2089bea90910155565b60a45481565b60b85415611e6757609854604080516370a0823160e01b81523060048201529051600092839283926001600160a01b03909216916370a0823191602480820192602092909190829003018186803b158015612ab457600080fd5b505afa158015612ac8573d6000803e3d6000fd5b505050506040513d6020811015612ade57600080fd5b505160b854909150811015612b1657612afd6064610cfc83604661344d565b9250612b0f6064610cfc83601e61344d565b9150612b51565b612b316064610cfc604660b85461344d90919063ffffffff16565b9250612b4e6064610cfc601e60b85461344d90919063ffffffff16565b91505b8215612bdd576098546099546040805163a9059cbb60e01b81526001600160a01b039283166004820152602481018790529051919092169163a9059cbb9160448083019260209291908290030181600087803b158015612bb057600080fd5b505af1158015612bc4573d6000803e3d6000fd5b505050506040513d6020811015612bda57600080fd5b50505b8115612c695760985460aa546040805163a9059cbb60e01b81526001600160a01b039283166004820152602481018690529051919092169163a9059cbb9160448083019260209291908290030181600087803b158015612c3c57600080fd5b505af1158015612c50573d6000803e3d6000fd5b505050506040513d6020811015612c6657600080fd5b50505b609854604080516370a0823160e01b815230600482015290516001600160a01b03909216916370a0823191602480820192602092909190829003018186803b158015612cb457600080fd5b505afa158015612cc8573d6000803e3d6000fd5b505050506040513d6020811015612cde57600080fd5b505160a1555050600060b85550565b600054610100900460ff1680612d065750612d0661399a565b80612d14575060005460ff16155b612d4f5760405162461bcd60e51b815260040180806020018281038252602e8152602001806144f4602e913960400191505060405180910390fd5b600054610100900460ff16158015612d7a576000805460ff1961ff0019909116610100171660011790555b612d826139a0565b60b6805461ffff19166102d4179055609780546001600160a01b03808a166001600160a01b031992831617909255609880548984169083161790556099805488841690831617905560aa805487841690831617905560a980548684169083161790554360a25560b9805492851692909116919091179055674563918244f4000060ac5567d02ab486cedc000060ad556801a055690d9db8000060ae55680340aad21b3b70000060af55600560b055600f60b155601e60b255603c60b3558015612e51576000805461ff00191690555b50505050505050565b6099546001600160a01b031681565b60ae5481565b6000609a8381548110612e7e57fe5b60009182526020808320338085526007939093020160058101825260408085206001600160a01b038a1680875290845294819020879055805188815292830187905280519195507fb3fd5071835887567a0671151121894ddccc2842f1d10bedad13e0d17cace9a7928290030190a350505050565b612efb6134a6565b6065546001600160a01b03908116911614612f4b576040805162461bcd60e51b815260206004820181905260248201526000805160206144d4833981519152604482015290519081900360640190fd5b6103e88161ffff161115612f9f576040805162461bcd60e51b81526020600482015260166024820152754465762066656520636c616d7065642061742031302560501b604482015290519081900360640190fd5b60b6805461ffff191661ffff92909216919091179055565b6000609a8381548110612fc657fe5b60009182526020808320868452609b825260408085203380875293529093206007909202909201925090612ffb908590613337565b8215613105578154604080516323b872dd60e01b81523360048201523060248201526044810186905290516001600160a01b03909216916323b872dd916064808201926020929091908290030181600087803b15801561305a57600080fd5b505af115801561306e573d6000803e3d6000fd5b505050506040513d602081101561308457600080fd5b5050805461309290846133f3565b815560048101541561310557600381015460048201546000906130b490611b88565b905060006130d46064610cfc84876000015461344d90919063ffffffff16565b60038501819055905060006130e982856132ac565b60068701549091506130fb90826133f3565b6006870155505050505b6003810154815460009161311991906133f3565b905061313b64e8d4a51000610cfc85600201548461344d90919063ffffffff16565b6001830155600383015461315b9064e8d4a5100090610cfc90849061344d565b6002830155604080518581529051869133917f90890809c654f11d6e72a28fa60149770a0d11ec6c92319d6ceb2bb0a4ea1a159181900360200190a35050505050565b609d5481565b6131ac6134a6565b6065546001600160a01b039081169116146131fc576040805162461bcd60e51b815260206004820181905260248201526000805160206144d4833981519152604482015290519081900360640190fd5b6001600160a01b0381166132415760405162461bcd60e51b81526004018080602001828103825260268152602001806144406026913960400191505060405180910390fd5b6065546040516001600160a01b038084169216907f8be0079c531659141344cd1fd0a4f28419497f9722a3daafe3b4186f6b6457e090600090a3606580546001600160a01b0319166001600160a01b0392909216919091179055565b6098546001600160a01b031681565b60006132ee83836040518060400160405280601e81526020017f536166654d6174683a207375627472616374696f6e206f766572666c6f770000815250613a51565b9392505050565b60006132ee83836040518060400160405280601a81526020017f536166654d6174683a206469766973696f6e206279207a65726f000000000000815250613ae8565b61333f611741565b60008061334c8484610c6e565b90925090508115613361576133618383613b4d565b6000811180156133e45750609854604080516370a0823160e01b8152306004820152905183926001600160a01b0316916370a08231916024808301926020929190829003018186803b1580156133b657600080fd5b505afa1580156133ca573d6000803e3d6000fd5b505050506040513d60208110156133e057600080fd5b5051115b15610f3357610f338382613dd4565b6000828201838110156132ee576040805162461bcd60e51b815260206004820152601b60248201527f536166654d6174683a206164646974696f6e206f766572666c6f770000000000604482015290519081900360640190fd5b60008261345c57506000611bcf565b8282028284828161346957fe5b04146132ee5760405162461bcd60e51b81526004018080602001828103825260218152602001806144b36021913960400191505060405180910390fd5b3390565b6000609a85815481106134b957fe5b60009182526020909120600790910201600481015490915060ff1661350f5760405162461bcd60e51b81526004018080602001828103825260268152602001806145226026913960400191505060405180910390fd5b6000858152609b602090815260408083206001600160a01b03871684529091529020805485111561357c576040805162461bcd60e51b81526020600482015260126024820152711dda5d1a191c985dce881b9bdd0819dbdbd960721b604482015290519081900360640190fd5b6135868685613337565b841561362157805461359890866132ac565b815581546135b0906001600160a01b031684876136c5565b60048101541561362157600381015460048201546000906135d090611b88565b905060006135f06064610cfc84876000015461344d90919063ffffffff16565b600385018190559050600061360584836132ac565b600687015490915061361790826132ac565b6006870155505050505b6003810154815460009161363591906133f3565b905061365764e8d4a51000610cfc85600201548461344d90919063ffffffff16565b600183015560038301546136779064e8d4a5100090610cfc90849061344d565b600283015560408051878152905188916001600160a01b038716917ff279e6a1f5e320cca91135676d9cb6e44ca8a08c0b88342bcdb1144f6511b5689181900360200190a350505050505050565b604080516001600160a01b038416602482015260448082018490528251808303909101815260649091019091526020810180516001600160e01b031663a9059cbb60e01b17905261371790849061405b565b505050565b611148816040516024018080602001828103825283818151815260200191508051906020019080838360005b83811015613760578181015183820152602001613748565b50505050905090810190601f16801561378d5780820380516001836020036101000a031916815260200191505b5060408051601f198184030181529190526020810180516001600160e01b031663104c13eb60e21b1790529250614213915050565b6000806000609a84815481106137d457fe5b6000918252602080832060079092029091018054604080516370a0823160e01b815230600482015290519295506001600160a01b03909116926370a0823192602480840193829003018186803b15801561382d57600080fd5b505afa158015613841573d6000803e3d6000fd5b505050506040513d602081101561385757600080fd5b505190508061386e57600080935093505050613995565b61388d609c54610cfc8460010154609d5461344d90919063ffffffff16565b60b6549094506000906138ad9061271090610cfc90889061ffff1661344d565b905060006138bb86836132ac565b60b7549091506138cb90836133f3565b60b755609c546001850154609e546138e89291610cfc919061344d565b60b6549095506000906139089061271090610cfc90899061ffff1661344d565b9050600061391687836132ac565b60b85490915061392690836133f3565b60b855600686015460009061393c9087906133f3565b905061395f61395482610cfc8764e8d4a5100061344d565b6002890154906133f3565b600288015561398561397a82610cfc8564e8d4a5100061344d565b6003890154906133f3565b8760030181905550505050505050505b915091565b303b1590565b600054610100900460ff16806139b957506139b961399a565b806139c7575060005460ff16155b613a025760405162461bcd60e51b815260040180806020018281038252602e8152602001806144f4602e913960400191505060405180910390fd5b600054610100900460ff16158015613a2d576000805460ff1961ff0019909116610100171660011790555b613a35614234565b613a3d6142d4565b8015611148576000805461ff001916905550565b60008184841115613ae05760405162461bcd60e51b81526004018080602001828103825283818151815260200191508051906020019080838360005b83811015613aa5578181015183820152602001613a8d565b50505050905090810190601f168015613ad25780820380516001836020036101000a031916815260200191505b509250505060405180910390fd5b505050900390565b60008183613b375760405162461bcd60e51b8152602060048201818152835160248401528351909283926044909101919085019080838360008315613aa5578181015183820152602001613a8d565b506000838581613b4357fe5b0495945050505050565b609754604080516370a0823160e01b815230600482015290516000926001600160a01b0316916370a08231916024808301926020929190829003018186803b158015613b9857600080fd5b505afa158015613bac573d6000803e3d6000fd5b505050506040513d6020811015613bc257600080fd5b5051905080821115613ccf576097546040805163a9059cbb60e01b81526001600160a01b038681166004830152602482018590529151919092169163a9059cbb9160448083019260209291908290030181600087803b158015613c2457600080fd5b505af1158015613c38573d6000803e3d6000fd5b505050506040513d6020811015613c4e57600080fd5b5050609754604080516370a0823160e01b815230600482015290516001600160a01b03909216916370a0823191602480820192602092909190829003018186803b158015613c9b57600080fd5b505afa158015613caf573d6000803e3d6000fd5b505050506040513d6020811015613cc557600080fd5b505160a055613dcc565b6097546040805163a9059cbb60e01b81526001600160a01b038681166004830152602482018690529151919092169163a9059cbb9160448083019260209291908290030181600087803b158015613d2557600080fd5b505af1158015613d39573d6000803e3d6000fd5b505050506040513d6020811015613d4f57600080fd5b5050609754604080516370a0823160e01b815230600482015290516001600160a01b03909216916370a0823191602480820192602092909190829003018186803b158015613d9c57600080fd5b505afa158015613db0573d6000803e3d6000fd5b505050506040513d6020811015613dc657600080fd5b505160a0555b613717611bd5565b609854604080516370a0823160e01b815230600482015290516000926001600160a01b0316916370a08231916024808301926020929190829003018186803b158015613e1f57600080fd5b505afa158015613e33573d6000803e3d6000fd5b505050506040513d6020811015613e4957600080fd5b5051905080821115613f56576098546040805163a9059cbb60e01b81526001600160a01b038681166004830152602482018590529151919092169163a9059cbb9160448083019260209291908290030181600087803b158015613eab57600080fd5b505af1158015613ebf573d6000803e3d6000fd5b505050506040513d6020811015613ed557600080fd5b5050609854604080516370a0823160e01b815230600482015290516001600160a01b03909216916370a0823191602480820192602092909190829003018186803b158015613f2257600080fd5b505afa158015613f36573d6000803e3d6000fd5b505050506040513d6020811015613f4c57600080fd5b505160a155614053565b6098546040805163a9059cbb60e01b81526001600160a01b038681166004830152602482018690529151919092169163a9059cbb9160448083019260209291908290030181600087803b158015613fac57600080fd5b505af1158015613fc0573d6000803e3d6000fd5b505050506040513d6020811015613fd657600080fd5b5050609854604080516370a0823160e01b815230600482015290516001600160a01b03909216916370a0823191602480820192602092909190829003018186803b15801561402357600080fd5b505afa158015614037573d6000803e3d6000fd5b505050506040513d602081101561404d57600080fd5b505160a1555b613717612a5a565b61406d826001600160a01b03166143cd565b6140be576040805162461bcd60e51b815260206004820152601f60248201527f5361666545524332303a2063616c6c20746f206e6f6e2d636f6e747261637400604482015290519081900360640190fd5b60006060836001600160a01b0316836040518082805190602001908083835b602083106140fc5780518252601f1990920191602091820191016140dd565b6001836020036101000a0380198251168184511680821785525050505050509050019150506000604051808303816000865af19150503d806000811461415e576040519150601f19603f3d011682016040523d82523d6000602084013e614163565b606091505b5091509150816141ba576040805162461bcd60e51b815260206004820181905260248201527f5361666545524332303a206c6f772d6c6576656c2063616c6c206661696c6564604482015290519081900360640190fd5b805115610f33578080602001905160208110156141d657600080fd5b5051610f335760405162461bcd60e51b815260040180806020018281038252602a81526020018061456e602a913960400191505060405180910390fd5b80516a636f6e736f6c652e6c6f67602083016000808483855afa5050505050565b600054610100900460ff168061424d575061424d61399a565b8061425b575060005460ff16155b6142965760405162461bcd60e51b815260040180806020018281038252602e8152602001806144f4602e913960400191505060405180910390fd5b600054610100900460ff16158015613a3d576000805460ff1961ff0019909116610100171660011790558015611148576000805461ff001916905550565b600054610100900460ff16806142ed57506142ed61399a565b806142fb575060005460ff16155b6143365760405162461bcd60e51b815260040180806020018281038252602e8152602001806144f4602e913960400191505060405180910390fd5b600054610100900460ff16158015614361576000805460ff1961ff0019909116610100171660011790555b600061436b6134a6565b606580546001600160a01b0319166001600160a01b038316908117909155604051919250906000907f8be0079c531659141344cd1fd0a4f28419497f9722a3daafe3b4186f6b6457e0908290a3508015611148576000805461ff001916905550565b6000813f7fc5d2460186f7233c927e7db2dcc703c0e500b653ca82273b7bfad8045d85a47081811480159061440157508115155b949350505050565b6040518060c00160405280600081526020016000815260200160008152602001600081526020016000815260200160008152509056fe4f776e61626c653a206e6577206f776e657220697320746865207a65726f20616464726573735265636970656e74206973206e6f74206120736d61727420636f6e74726163742c2042414453757065722061646d696e203a2063616c6c6572206973206e6f742073757065722061646d696e2e536166654d6174683a206d756c7469706c69636174696f6e206f766572666c6f774f776e61626c653a2063616c6c6572206973206e6f7420746865206f776e6572436f6e747261637420696e7374616e63652068617320616c7265616479206265656e20696e697469616c697a65645769746864726177696e672066726f6d207468697320706f6f6c2069732064697361626c6564476f7665726e616e636520736574757020677261636520706572696f64206e6f74206f7665725361666545524332303a204552433230206f7065726174696f6e20646964206e6f74207375636365656443616e6e6f7420646f776e6772616465206c6576656c206f722073616d65206c6576656ca264697066735822122094e206fab8d0459ef312ee728b93583d743c69bea143ffcf6f8a9c4bcccee9e364736f6c634300060c0033",
    "sourcePath": "/Users/225153/Projects/ram/contracts/RamVault.sol",
    "compiler": {
        "name": "solc",
        "version": "0.6.12+commit.27d51765"
    },
    "functionHashes": {
        "YGYReserve()": "1dbf779e",
        "YGYRewardsInThisEpoch()": "c083143d",
        "add(uint256,address,bool,bool)": "c507aeaa",
        "addPendingRewards(uint256)": "423d6fa0",
        "addRAMRewardsOwner(uint256)": "3b6a6849",
        "addYGYRewardsOwner(uint256)": "3fe6a278",
        "averageFeesPerBlockEpoch()": "03dec009",
        "averageFeesPerBlockSinceStart()": "9dbc2d90",
        "boostFees()": "09e3de41",
        "boostLevelFourCost()": "0aae105d",
        "boostLevelFourMultiplier()": "46eaab32",
        "boostLevelOneCost()": "01e492df",
        "boostLevelOneMultiplier()": "8ea703f5",
        "boostLevelThreeCost()": "d87190a9",
        "boostLevelThreeMultiplier()": "9a4c3095",
        "boostLevelTwoCost()": "42603602",
        "boostLevelTwoMultiplier()": "896b09df",
        "burnSuperAdmin()": "934eaa50",
        "calculateCost(uint256)": "4af18f4f",
        "checkRewards(uint256,address)": "10178d9c",
        "claimRewards(uint256)": "0962ef79",
        "contractStartBlock()": "49c5468d",
        "cumulativeRewardsSinceStart()": "c8ffb873",
        "cumulativeYGYRewardsSinceStart()": "9649d76c",
        "deposit(uint256,uint256)": "e2bbb158",
        "depositFor(address,uint256,uint256)": "4cf5fbf5",
        "devaddr()": "d49e77cd",
        "distributeFees()": "bb57ad20",
        "emergencyWithdraw(uint256)": "5312ea8e",
        "epoch()": "900cf0cf",
        "epochCalculationStartBlock()": "5d577c18",
        "epochRewards(uint256)": "4dc47d34",
        "epochYGYRewards(uint256)": "3cf99c1a",
        "getLevel(address,uint256)": "b121f2ac",
        "getSpent(address,uint256)": "ba02da31",
        "getTotalMultiplier(uint256)": "7bedf68a",
        "initialize(address,address,address,address,address,address)": "cc2a9a5b",
        "isContract(address)": "16279055",
        "massUpdatePools()": "630b5ba1",
        "newSuperAdmin(address)": "a676860a",
        "owner()": "8da5cb5b",
        "pendingRewards()": "eded3fda",
        "pendingYGYRewards()": "8b6ff57b",
        "poolInfo(uint256)": "1526fe27",
        "poolLength()": "081e3eda",
        "purchase(uint256,uint256)": "70876c98",
        "ram()": "8f33b5e5",
        "regeneratoraddr()": "7d3b8da1",
        "renounceOwnership()": "715018a6",
        "rewardsInThisEpoch()": "608c8d3a",
        "set(uint256,uint256,bool)": "64482f79",
        "setAllowanceForPoolToken(address,uint256,uint256)": "dbe0901f",
        "setDevFee(uint16)": "e18cb4fe",
        "setDevFeeReciever(address)": "2d6754e5",
        "setPoolWithdrawable(uint256,bool)": "5207cc0d",
        "setStrategyContractOrDistributionContractAllowance(address,uint256,address)": "c4014588",
        "startNewEpoch()": "3aab0a62",
        "superAdmin()": "29575f6a",
        "teamaddr()": "9a6d2711",
        "totalAllocPoint()": "17caf6f1",
        "transferOwnership(address)": "f2fde38b",
        "transferRAMDevFee()": "7cf75ca3",
        "transferYGYDevFee()": "cc1362ec",
        "updateBoosts(uint256[],uint256[])": "b2f4b44a",
        "userInfo(uint256,address)": "93f1a40b",
        "withdraw(uint256,uint256)": "441a3e70",
        "withdrawFrom(address,uint256,uint256)": "3a0967cd",
        "ygy()": "fb70c3bf"
    },
    "gasEstimates": {
        "creation": {
            "codeDepositCost": "3581000",
            "executionCost": "4023",
            "totalCost": "3585023"
        },
        "external": {
            "YGYReserve()": "1111",
            "YGYRewardsInThisEpoch()": "1132",
            "add(uint256,address,bool,bool)": "infinite",
            "addPendingRewards(uint256)": "infinite",
            "addRAMRewardsOwner(uint256)": "infinite",
            "addYGYRewardsOwner(uint256)": "infinite",
            "averageFeesPerBlockEpoch()": "infinite",
            "averageFeesPerBlockSinceStart()": "infinite",
            "boostFees()": "1067",
            "boostLevelFourCost()": "1089",
            "boostLevelFourMultiplier()": "1066",
            "boostLevelOneCost()": "1068",
            "boostLevelOneMultiplier()": "1110",
            "boostLevelThreeCost()": "1109",
            "boostLevelThreeMultiplier()": "1065",
            "boostLevelTwoCost()": "1111",
            "boostLevelTwoMultiplier()": "1133",
            "burnSuperAdmin()": "infinite",
            "calculateCost(uint256)": "1277",
            "checkRewards(uint256,address)": "infinite",
            "claimRewards(uint256)": "infinite",
            "contractStartBlock()": "1088",
            "cumulativeRewardsSinceStart()": "1109",
            "cumulativeYGYRewardsSinceStart()": "1132",
            "deposit(uint256,uint256)": "infinite",
            "depositFor(address,uint256,uint256)": "infinite",
            "devaddr()": "1126",
            "distributeFees()": "infinite",
            "emergencyWithdraw(uint256)": "infinite",
            "epoch()": "1066",
            "epochCalculationStartBlock()": "1132",
            "epochRewards(uint256)": "1174",
            "epochYGYRewards(uint256)": "1262",
            "getLevel(address,uint256)": "5739",
            "getSpent(address,uint256)": "5674",
            "getTotalMultiplier(uint256)": "1228",
            "initialize(address,address,address,address,address,address)": "infinite",
            "isContract(address)": "1045",
            "massUpdatePools()": "infinite",
            "newSuperAdmin(address)": "infinite",
            "owner()": "1127",
            "pendingRewards()": "1108",
            "pendingYGYRewards()": "1066",
            "poolInfo(uint256)": "6311",
            "poolLength()": "1112",
            "purchase(uint256,uint256)": "infinite",
            "ram()": "1171",
            "regeneratoraddr()": "1150",
            "renounceOwnership()": "infinite",
            "rewardsInThisEpoch()": "1065",
            "set(uint256,uint256,bool)": "infinite",
            "setAllowanceForPoolToken(address,uint256,uint256)": "23546",
            "setDevFee(uint16)": "infinite",
            "setDevFeeReciever(address)": "infinite",
            "setPoolWithdrawable(uint256,bool)": "infinite",
            "setStrategyContractOrDistributionContractAllowance(address,uint256,address)": "infinite",
            "startNewEpoch()": "infinite",
            "superAdmin()": "1172",
            "teamaddr()": "1126",
            "totalAllocPoint()": "1089",
            "transferOwnership(address)": "infinite",
            "transferRAMDevFee()": "infinite",
            "transferYGYDevFee()": "infinite",
            "updateBoosts(uint256[],uint256[])": "infinite",
            "userInfo(uint256,address)": "5500",
            "withdraw(uint256,uint256)": "infinite",
            "withdrawFrom(address,uint256,uint256)": "infinite",
            "ygy()": "1191"
        },
        "internal": {
            "_withdraw(uint256,uint256,address,address)": "infinite",
            "safeRamTransfer(address,uint256)": "infinite",
            "safeYgyTransfer(address,uint256)": "infinite",
            "updateAndPayOutPending(uint256,address)": "infinite",
            "updatePool(uint256)": "infinite"
        }
    }
}