{
    "contractName": "RAMVault",
    "abi": [
        {
            "anonymous": false,
            "inputs": [
                {
                    "indexed": true,
                    "internalType": "address",
                    "name": "owner",
                    "type": "address"
                },
                {
                    "indexed": true,
                    "internalType": "address",
                    "name": "spender",
                    "type": "address"
                },
                {
                    "indexed": false,
                    "internalType": "uint256",
                    "name": "_pid",
                    "type": "uint256"
                },
                {
                    "indexed": false,
                    "internalType": "uint256",
                    "name": "value",
                    "type": "uint256"
                }
            ],
            "name": "Approval",
            "type": "event"
        },
        {
            "anonymous": false,
            "inputs": [
                {
                    "indexed": true,
                    "internalType": "address",
                    "name": "user",
                    "type": "address"
                },
                {
                    "indexed": true,
                    "internalType": "uint256",
                    "name": "pid",
                    "type": "uint256"
                },
                {
                    "indexed": true,
                    "internalType": "uint256",
                    "name": "level",
                    "type": "uint256"
                }
            ],
            "name": "Boost",
            "type": "event"
        },
        {
            "anonymous": false,
            "inputs": [
                {
                    "indexed": true,
                    "internalType": "address",
                    "name": "user",
                    "type": "address"
                },
                {
                    "indexed": true,
                    "internalType": "uint256",
                    "name": "pid",
                    "type": "uint256"
                },
                {
                    "indexed": false,
                    "internalType": "uint256",
                    "name": "amount",
                    "type": "uint256"
                }
            ],
            "name": "Deposit",
            "type": "event"
        },
        {
            "anonymous": false,
            "inputs": [
                {
                    "indexed": true,
                    "internalType": "address",
                    "name": "user",
                    "type": "address"
                },
                {
                    "indexed": true,
                    "internalType": "uint256",
                    "name": "pid",
                    "type": "uint256"
                },
                {
                    "indexed": false,
                    "internalType": "uint256",
                    "name": "amount",
                    "type": "uint256"
                }
            ],
            "name": "EmergencyWithdraw",
            "type": "event"
        },
        {
            "anonymous": false,
            "inputs": [
                {
                    "indexed": true,
                    "internalType": "address",
                    "name": "previousOwner",
                    "type": "address"
                },
                {
                    "indexed": true,
                    "internalType": "address",
                    "name": "newOwner",
                    "type": "address"
                }
            ],
            "name": "OwnershipTransferred",
            "type": "event"
        },
        {
            "anonymous": false,
            "inputs": [
                {
                    "indexed": false,
                    "internalType": "uint256",
                    "name": "pid",
                    "type": "uint256"
                },
                {
                    "indexed": false,
                    "internalType": "address",
                    "name": "to",
                    "type": "address"
                }
            ],
            "name": "RewardPaid",
            "type": "event"
        },
        {
            "anonymous": false,
            "inputs": [
                {
                    "indexed": true,
                    "internalType": "address",
                    "name": "previousOwner",
                    "type": "address"
                },
                {
                    "indexed": true,
                    "internalType": "address",
                    "name": "newOwner",
                    "type": "address"
                }
            ],
            "name": "SuperAdminTransfered",
            "type": "event"
        },
        {
            "anonymous": false,
            "inputs": [
                {
                    "indexed": true,
                    "internalType": "address",
                    "name": "user",
                    "type": "address"
                },
                {
                    "indexed": true,
                    "internalType": "uint256",
                    "name": "pid",
                    "type": "uint256"
                },
                {
                    "indexed": false,
                    "internalType": "uint256",
                    "name": "amount",
                    "type": "uint256"
                }
            ],
            "name": "Withdraw",
            "type": "event"
        },
        {
            "inputs": [],
            "name": "YGYRewardsInThisEpoch",
            "outputs": [
                {
                    "internalType": "uint256",
                    "name": "",
                    "type": "uint256"
                }
            ],
            "stateMutability": "view",
            "type": "function"
        },
        {
            "inputs": [
                {
                    "internalType": "uint256",
                    "name": "_allocPoint",
                    "type": "uint256"
                },
                {
                    "internalType": "contract IERC20",
                    "name": "_token",
                    "type": "address"
                },
                {
                    "internalType": "bool",
                    "name": "_withUpdate",
                    "type": "bool"
                },
                {
                    "internalType": "bool",
                    "name": "_withdrawable",
                    "type": "bool"
                }
            ],
            "name": "add",
            "outputs": [],
            "stateMutability": "nonpayable",
            "type": "function"
        },
        {
            "inputs": [
                {
                    "internalType": "uint256",
                    "name": "_amount",
                    "type": "uint256"
                }
            ],
            "name": "addPendingRewards",
            "outputs": [],
            "stateMutability": "nonpayable",
            "type": "function"
        },
        {
            "inputs": [
                {
                    "internalType": "uint256",
                    "name": "_amount",
                    "type": "uint256"
                }
            ],
            "name": "addRAMRewardsOwner",
            "outputs": [],
            "stateMutability": "nonpayable",
            "type": "function"
        },
        {
            "inputs": [
                {
                    "internalType": "uint256",
                    "name": "_amount",
                    "type": "uint256"
                }
            ],
            "name": "addYGYRewardsOwner",
            "outputs": [],
            "stateMutability": "nonpayable",
            "type": "function"
        },
        {
            "inputs": [],
            "name": "averageFeesPerBlockEpoch",
            "outputs": [
                {
                    "internalType": "uint256",
                    "name": "averagePerBlock",
                    "type": "uint256"
                },
                {
                    "internalType": "uint256",
                    "name": "averageYGYPerBlock",
                    "type": "uint256"
                }
            ],
            "stateMutability": "view",
            "type": "function"
        },
        {
            "inputs": [],
            "name": "averageFeesPerBlockSinceStart",
            "outputs": [
                {
                    "internalType": "uint256",
                    "name": "averagePerBlock",
                    "type": "uint256"
                },
                {
                    "internalType": "uint256",
                    "name": "averageYGYPerBlock",
                    "type": "uint256"
                }
            ],
            "stateMutability": "view",
            "type": "function"
        },
        {
            "inputs": [],
            "name": "boostFees",
            "outputs": [
                {
                    "internalType": "uint256",
                    "name": "",
                    "type": "uint256"
                }
            ],
            "stateMutability": "view",
            "type": "function"
        },
        {
            "inputs": [],
            "name": "boostLevelFourCost",
            "outputs": [
                {
                    "internalType": "uint256",
                    "name": "",
                    "type": "uint256"
                }
            ],
            "stateMutability": "view",
            "type": "function"
        },
        {
            "inputs": [],
            "name": "boostLevelFourMultiplier",
            "outputs": [
                {
                    "internalType": "uint256",
                    "name": "",
                    "type": "uint256"
                }
            ],
            "stateMutability": "view",
            "type": "function"
        },
        {
            "inputs": [],
            "name": "boostLevelOneCost",
            "outputs": [
                {
                    "internalType": "uint256",
                    "name": "",
                    "type": "uint256"
                }
            ],
            "stateMutability": "view",
            "type": "function"
        },
        {
            "inputs": [],
            "name": "boostLevelOneMultiplier",
            "outputs": [
                {
                    "internalType": "uint256",
                    "name": "",
                    "type": "uint256"
                }
            ],
            "stateMutability": "view",
            "type": "function"
        },
        {
            "inputs": [],
            "name": "boostLevelThreeCost",
            "outputs": [
                {
                    "internalType": "uint256",
                    "name": "",
                    "type": "uint256"
                }
            ],
            "stateMutability": "view",
            "type": "function"
        },
        {
            "inputs": [],
            "name": "boostLevelThreeMultiplier",
            "outputs": [
                {
                    "internalType": "uint256",
                    "name": "",
                    "type": "uint256"
                }
            ],
            "stateMutability": "view",
            "type": "function"
        },
        {
            "inputs": [],
            "name": "boostLevelTwoCost",
            "outputs": [
                {
                    "internalType": "uint256",
                    "name": "",
                    "type": "uint256"
                }
            ],
            "stateMutability": "view",
            "type": "function"
        },
        {
            "inputs": [],
            "name": "boostLevelTwoMultiplier",
            "outputs": [
                {
                    "internalType": "uint256",
                    "name": "",
                    "type": "uint256"
                }
            ],
            "stateMutability": "view",
            "type": "function"
        },
        {
            "inputs": [],
            "name": "burnSuperAdmin",
            "outputs": [],
            "stateMutability": "nonpayable",
            "type": "function"
        },
        {
            "inputs": [
                {
                    "internalType": "uint256",
                    "name": "_level",
                    "type": "uint256"
                }
            ],
            "name": "calculateCost",
            "outputs": [
                {
                    "internalType": "uint256",
                    "name": "",
                    "type": "uint256"
                }
            ],
            "stateMutability": "view",
            "type": "function"
        },
        {
            "inputs": [
                {
                    "internalType": "uint256",
                    "name": "_pid",
                    "type": "uint256"
                },
                {
                    "internalType": "address",
                    "name": "_user",
                    "type": "address"
                }
            ],
            "name": "checkRewards",
            "outputs": [
                {
                    "internalType": "uint256",
                    "name": "pendingRAM",
                    "type": "uint256"
                },
                {
                    "internalType": "uint256",
                    "name": "pendingYGY",
                    "type": "uint256"
                }
            ],
            "stateMutability": "view",
            "type": "function"
        },
        {
            "inputs": [
                {
                    "internalType": "uint256",
                    "name": "_pid",
                    "type": "uint256"
                }
            ],
            "name": "claimRewards",
            "outputs": [],
            "stateMutability": "nonpayable",
            "type": "function"
        },
        {
            "inputs": [],
            "name": "contractStartBlock",
            "outputs": [
                {
                    "internalType": "uint256",
                    "name": "",
                    "type": "uint256"
                }
            ],
            "stateMutability": "view",
            "type": "function"
        },
        {
            "inputs": [],
            "name": "cumulativeRewardsSinceStart",
            "outputs": [
                {
                    "internalType": "uint256",
                    "name": "",
                    "type": "uint256"
                }
            ],
            "stateMutability": "view",
            "type": "function"
        },
        {
            "inputs": [],
            "name": "cumulativeYGYRewardsSinceStart",
            "outputs": [
                {
                    "internalType": "uint256",
                    "name": "",
                    "type": "uint256"
                }
            ],
            "stateMutability": "view",
            "type": "function"
        },
        {
            "inputs": [
                {
                    "internalType": "uint256",
                    "name": "_pid",
                    "type": "uint256"
                },
                {
                    "internalType": "uint256",
                    "name": "_amount",
                    "type": "uint256"
                }
            ],
            "name": "deposit",
            "outputs": [],
            "stateMutability": "nonpayable",
            "type": "function"
        },
        {
            "inputs": [
                {
                    "internalType": "address",
                    "name": "depositFor",
                    "type": "address"
                },
                {
                    "internalType": "uint256",
                    "name": "_pid",
                    "type": "uint256"
                },
                {
                    "internalType": "uint256",
                    "name": "_amount",
                    "type": "uint256"
                }
            ],
            "name": "depositFor",
            "outputs": [],
            "stateMutability": "nonpayable",
            "type": "function"
        },
        {
            "inputs": [],
            "name": "devaddr",
            "outputs": [
                {
                    "internalType": "address",
                    "name": "",
                    "type": "address"
                }
            ],
            "stateMutability": "view",
            "type": "function"
        },
        {
            "inputs": [],
            "name": "distributeFees",
            "outputs": [],
            "stateMutability": "nonpayable",
            "type": "function"
        },
        {
            "inputs": [
                {
                    "internalType": "uint256",
                    "name": "_pid",
                    "type": "uint256"
                }
            ],
            "name": "emergencyWithdraw",
            "outputs": [],
            "stateMutability": "nonpayable",
            "type": "function"
        },
        {
            "inputs": [],
            "name": "epoch",
            "outputs": [
                {
                    "internalType": "uint256",
                    "name": "",
                    "type": "uint256"
                }
            ],
            "stateMutability": "view",
            "type": "function"
        },
        {
            "inputs": [],
            "name": "epochCalculationStartBlock",
            "outputs": [
                {
                    "internalType": "uint256",
                    "name": "",
                    "type": "uint256"
                }
            ],
            "stateMutability": "view",
            "type": "function"
        },
        {
            "inputs": [
                {
                    "internalType": "uint256",
                    "name": "",
                    "type": "uint256"
                }
            ],
            "name": "epochRewards",
            "outputs": [
                {
                    "internalType": "uint256",
                    "name": "",
                    "type": "uint256"
                }
            ],
            "stateMutability": "view",
            "type": "function"
        },
        {
            "inputs": [
                {
                    "internalType": "uint256",
                    "name": "",
                    "type": "uint256"
                }
            ],
            "name": "epochYGYRewards",
            "outputs": [
                {
                    "internalType": "uint256",
                    "name": "",
                    "type": "uint256"
                }
            ],
            "stateMutability": "view",
            "type": "function"
        },
        {
            "inputs": [
                {
                    "internalType": "address",
                    "name": "account",
                    "type": "address"
                },
                {
                    "internalType": "uint256",
                    "name": "pid",
                    "type": "uint256"
                }
            ],
            "name": "getLevel",
            "outputs": [
                {
                    "internalType": "uint256",
                    "name": "",
                    "type": "uint256"
                }
            ],
            "stateMutability": "view",
            "type": "function"
        },
        {
            "inputs": [
                {
                    "internalType": "address",
                    "name": "account",
                    "type": "address"
                },
                {
                    "internalType": "uint256",
                    "name": "pid",
                    "type": "uint256"
                }
            ],
            "name": "getSpent",
            "outputs": [
                {
                    "internalType": "uint256",
                    "name": "",
                    "type": "uint256"
                }
            ],
            "stateMutability": "view",
            "type": "function"
        },
        {
            "inputs": [
                {
                    "internalType": "uint256",
                    "name": "_boostLevel",
                    "type": "uint256"
                }
            ],
            "name": "getTotalMultiplier",
            "outputs": [
                {
                    "internalType": "uint256",
                    "name": "",
                    "type": "uint256"
                }
            ],
            "stateMutability": "view",
            "type": "function"
        },
        {
            "inputs": [
                {
                    "internalType": "address",
                    "name": "_ram",
                    "type": "address"
                },
                {
                    "internalType": "address",
                    "name": "_ygy",
                    "type": "address"
                },
                {
                    "internalType": "address",
                    "name": "_devaddr",
                    "type": "address"
                },
                {
                    "internalType": "address",
                    "name": "_teamaddr",
                    "type": "address"
                },
                {
                    "internalType": "address",
                    "name": "_regeneratoraddr",
                    "type": "address"
                },
                {
                    "internalType": "address",
                    "name": "superAdmin",
                    "type": "address"
                }
            ],
            "name": "initialize",
            "outputs": [],
            "stateMutability": "nonpayable",
            "type": "function"
        },
        {
            "inputs": [
                {
                    "internalType": "address",
                    "name": "addr",
                    "type": "address"
                }
            ],
            "name": "isContract",
            "outputs": [
                {
                    "internalType": "bool",
                    "name": "",
                    "type": "bool"
                }
            ],
            "stateMutability": "nonpayable",
            "type": "function"
        },
        {
            "inputs": [],
            "name": "massUpdatePools",
            "outputs": [],
            "stateMutability": "nonpayable",
            "type": "function"
        },
        {
            "inputs": [
                {
                    "internalType": "address",
                    "name": "newOwner",
                    "type": "address"
                }
            ],
            "name": "newSuperAdmin",
            "outputs": [],
            "stateMutability": "nonpayable",
            "type": "function"
        },
        {
            "inputs": [],
            "name": "owner",
            "outputs": [
                {
                    "internalType": "address",
                    "name": "",
                    "type": "address"
                }
            ],
            "stateMutability": "view",
            "type": "function"
        },
        {
            "inputs": [],
            "name": "pendingRewards",
            "outputs": [
                {
                    "internalType": "uint256",
                    "name": "",
                    "type": "uint256"
                }
            ],
            "stateMutability": "view",
            "type": "function"
        },
        {
            "inputs": [],
            "name": "pendingYGYRewards",
            "outputs": [
                {
                    "internalType": "uint256",
                    "name": "",
                    "type": "uint256"
                }
            ],
            "stateMutability": "view",
            "type": "function"
        },
        {
            "inputs": [
                {
                    "internalType": "uint256",
                    "name": "",
                    "type": "uint256"
                }
            ],
            "name": "poolInfo",
            "outputs": [
                {
                    "internalType": "contract IERC20",
                    "name": "token",
                    "type": "address"
                },
                {
                    "internalType": "uint256",
                    "name": "allocPoint",
                    "type": "uint256"
                },
                {
                    "internalType": "uint256",
                    "name": "accRAMPerShare",
                    "type": "uint256"
                },
                {
                    "internalType": "uint256",
                    "name": "accYGYPerShare",
                    "type": "uint256"
                },
                {
                    "internalType": "bool",
                    "name": "withdrawable",
                    "type": "bool"
                },
                {
                    "internalType": "uint256",
                    "name": "effectiveAdditionalTokensFromBoosts",
                    "type": "uint256"
                }
            ],
            "stateMutability": "view",
            "type": "function"
        },
        {
            "inputs": [],
            "name": "poolLength",
            "outputs": [
                {
                    "internalType": "uint256",
                    "name": "",
                    "type": "uint256"
                }
            ],
            "stateMutability": "view",
            "type": "function"
        },
        {
            "inputs": [
                {
                    "internalType": "uint256",
                    "name": "_pid",
                    "type": "uint256"
                },
                {
                    "internalType": "uint256",
                    "name": "_level",
                    "type": "uint256"
                }
            ],
            "name": "purchase",
            "outputs": [],
            "stateMutability": "nonpayable",
            "type": "function"
        },
        {
            "inputs": [],
            "name": "ram",
            "outputs": [
                {
                    "internalType": "contract INBUNIERC20",
                    "name": "",
                    "type": "address"
                }
            ],
            "stateMutability": "view",
            "type": "function"
        },
        {
            "inputs": [],
            "name": "regeneratoraddr",
            "outputs": [
                {
                    "internalType": "address",
                    "name": "",
                    "type": "address"
                }
            ],
            "stateMutability": "view",
            "type": "function"
        },
        {
            "inputs": [],
            "name": "renounceOwnership",
            "outputs": [],
            "stateMutability": "nonpayable",
            "type": "function"
        },
        {
            "inputs": [],
            "name": "rewardsInThisEpoch",
            "outputs": [
                {
                    "internalType": "uint256",
                    "name": "",
                    "type": "uint256"
                }
            ],
            "stateMutability": "view",
            "type": "function"
        },
        {
            "inputs": [
                {
                    "internalType": "uint256",
                    "name": "_pid",
                    "type": "uint256"
                },
                {
                    "internalType": "uint256",
                    "name": "_allocPoint",
                    "type": "uint256"
                },
                {
                    "internalType": "bool",
                    "name": "_withUpdate",
                    "type": "bool"
                }
            ],
            "name": "set",
            "outputs": [],
            "stateMutability": "nonpayable",
            "type": "function"
        },
        {
            "inputs": [
                {
                    "internalType": "address",
                    "name": "spender",
                    "type": "address"
                },
                {
                    "internalType": "uint256",
                    "name": "_pid",
                    "type": "uint256"
                },
                {
                    "internalType": "uint256",
                    "name": "value",
                    "type": "uint256"
                }
            ],
            "name": "setAllowanceForPoolToken",
            "outputs": [],
            "stateMutability": "nonpayable",
            "type": "function"
        },
        {
            "inputs": [
                {
                    "internalType": "uint16",
                    "name": "_DEV_FEE",
                    "type": "uint16"
                }
            ],
            "name": "setDevFee",
            "outputs": [],
            "stateMutability": "nonpayable",
            "type": "function"
        },
        {
            "inputs": [
                {
                    "internalType": "address",
                    "name": "_devaddr",
                    "type": "address"
                }
            ],
            "name": "setDevFeeReciever",
            "outputs": [],
            "stateMutability": "nonpayable",
            "type": "function"
        },
        {
            "inputs": [
                {
                    "internalType": "uint256",
                    "name": "_pid",
                    "type": "uint256"
                },
                {
                    "internalType": "bool",
                    "name": "_withdrawable",
                    "type": "bool"
                }
            ],
            "name": "setPoolWithdrawable",
            "outputs": [],
            "stateMutability": "nonpayable",
            "type": "function"
        },
        {
            "inputs": [
                {
                    "internalType": "address",
                    "name": "tokenAddress",
                    "type": "address"
                },
                {
                    "internalType": "uint256",
                    "name": "_amount",
                    "type": "uint256"
                },
                {
                    "internalType": "address",
                    "name": "contractAddress",
                    "type": "address"
                }
            ],
            "name": "setStrategyContractOrDistributionContractAllowance",
            "outputs": [],
            "stateMutability": "nonpayable",
            "type": "function"
        },
        {
            "inputs": [],
            "name": "startNewEpoch",
            "outputs": [],
            "stateMutability": "nonpayable",
            "type": "function"
        },
        {
            "inputs": [],
            "name": "superAdmin",
            "outputs": [
                {
                    "internalType": "address",
                    "name": "",
                    "type": "address"
                }
            ],
            "stateMutability": "view",
            "type": "function"
        },
        {
            "inputs": [],
            "name": "teamaddr",
            "outputs": [
                {
                    "internalType": "address",
                    "name": "",
                    "type": "address"
                }
            ],
            "stateMutability": "view",
            "type": "function"
        },
        {
            "inputs": [],
            "name": "totalAllocPoint",
            "outputs": [
                {
                    "internalType": "uint256",
                    "name": "",
                    "type": "uint256"
                }
            ],
            "stateMutability": "view",
            "type": "function"
        },
        {
            "inputs": [
                {
                    "internalType": "address",
                    "name": "newOwner",
                    "type": "address"
                }
            ],
            "name": "transferOwnership",
            "outputs": [],
            "stateMutability": "nonpayable",
            "type": "function"
        },
        {
            "inputs": [],
            "name": "transferRAMDevFee",
            "outputs": [],
            "stateMutability": "nonpayable",
            "type": "function"
        },
        {
            "inputs": [],
            "name": "transferYGYDevFee",
            "outputs": [],
            "stateMutability": "nonpayable",
            "type": "function"
        },
        {
            "inputs": [
                {
                    "internalType": "uint256[]",
                    "name": "_boostMultipliers",
                    "type": "uint256[]"
                },
                {
                    "internalType": "uint256[]",
                    "name": "_boostCosts",
                    "type": "uint256[]"
                }
            ],
            "name": "updateBoosts",
            "outputs": [],
            "stateMutability": "nonpayable",
            "type": "function"
        },
        {
            "inputs": [
                {
                    "internalType": "uint256",
                    "name": "",
                    "type": "uint256"
                },
                {
                    "internalType": "address",
                    "name": "",
                    "type": "address"
                }
            ],
            "name": "userInfo",
            "outputs": [
                {
                    "internalType": "uint256",
                    "name": "amount",
                    "type": "uint256"
                },
                {
                    "internalType": "uint256",
                    "name": "rewardDebt",
                    "type": "uint256"
                },
                {
                    "internalType": "uint256",
                    "name": "boostAmount",
                    "type": "uint256"
                },
                {
                    "internalType": "uint256",
                    "name": "boostLevel",
                    "type": "uint256"
                },
                {
                    "internalType": "uint256",
                    "name": "spentMultiplierTokens",
                    "type": "uint256"
                }
            ],
            "stateMutability": "view",
            "type": "function"
        },
        {
            "inputs": [
                {
                    "internalType": "uint256",
                    "name": "_pid",
                    "type": "uint256"
                },
                {
                    "internalType": "uint256",
                    "name": "_amount",
                    "type": "uint256"
                }
            ],
            "name": "withdraw",
            "outputs": [],
            "stateMutability": "nonpayable",
            "type": "function"
        },
        {
            "inputs": [
                {
                    "internalType": "address",
                    "name": "owner",
                    "type": "address"
                },
                {
                    "internalType": "uint256",
                    "name": "_pid",
                    "type": "uint256"
                },
                {
                    "internalType": "uint256",
                    "name": "_amount",
                    "type": "uint256"
                }
            ],
            "name": "withdrawFrom",
            "outputs": [],
            "stateMutability": "nonpayable",
            "type": "function"
        },
        {
            "inputs": [],
            "name": "ygy",
            "outputs": [
                {
                    "internalType": "contract IERC20",
                    "name": "",
                    "type": "address"
                }
            ],
            "stateMutability": "view",
            "type": "function"
        }
    ],
    "bytecode": "608060405234801561001057600080fd5b50614574806100206000396000f3fe608060405234801561001057600080fd5b50600436106103f15760003560e01c80637bedf68a11610215578063b2f4b44a11610125578063cc2a9a5b116100b8578063e18cb4fe11610087578063e18cb4fe14610b24578063e2bbb15814610b45578063eded3fda14610b68578063f2fde38b14610b70578063fb70c3bf14610b96576103f1565b8063cc2a9a5b14610a94578063d49e77cd14610ae2578063d87190a914610aea578063dbe0901f14610af2576103f1565b8063c4014588116100f4578063c401458814610a12578063c507aeaa14610a48578063c8ffb87314610a84578063cc1362ec14610a8c576103f1565b8063b2f4b44a146108af578063ba02da31146109d6578063bb57ad2014610a02578063c083143d14610a0a576103f1565b8063900cf0cf116101a85780639a4c3095116101775780639a4c3095146108455780639a6d27111461084d5780639dbc2d9014610855578063a676860a1461085d578063b121f2ac14610883576103f1565b8063900cf0cf146107d6578063934eaa50146107de57806393f1a40b146107e65780639649d76c1461083d576103f1565b80638b6ff57b116101e45780638b6ff57b146107b65780638da5cb5b146107be5780638ea703f5146107c65780638f33b5e5146107ce576103f1565b80637bedf68a146107815780637cf75ca31461079e5780637d3b8da1146107a6578063896b09df146107ae576103f1565b80633fe6a278116103105780634dc47d34116102a3578063608c8d3a11610272578063608c8d3a1461071b578063630b5ba11461072357806364482f791461072b57806370876c9814610756578063715018a614610779576103f1565b80634dc47d34146106b45780635207cc0d146106d15780635312ea8e146106f65780635d577c1814610713576103f1565b806346eaab32116102df57806346eaab321461065557806349c5468d1461065d5780634af18f4f146106655780634cf5fbf514610682576103f1565b80633fe6a278146105f0578063423d6fa01461060d578063426036021461062a578063441a3e7014610632576103f1565b806316279055116103885780633a0967cd116103575780633a0967cd1461057c5780633aab0a62146105ae5780633b6a6849146105b65780633cf99c1a146105d3576103f1565b806316279055146104f057806317caf6f11461052a57806329575f6a146105325780632d6754e514610556576103f1565b806309e3de41116103c457806309e3de41146104585780630aae105d1461046057806310178d9c146104685780631526fe2714610494576103f1565b806301e492df146103f657806303dec00914610410578063081e3eda146104315780630962ef7914610439575b600080fd5b6103fe610b9e565b60408051918252519081900360200190f35b610418610ba4565b6040805192835260208301919091528051918290030190f35b6103fe610bfa565b6104566004803603602081101561044f57600080fd5b5035610c00565b005b6103fe610c47565b6103fe610c4d565b6104186004803603604081101561047e57600080fd5b50803590602001356001600160a01b0316610c53565b6104b1600480360360208110156104aa57600080fd5b5035610d1d565b604080516001600160a01b03909716875260208701959095528585019390935260608501919091521515608084015260a0830152519081900360c00190f35b6105166004803603602081101561050657600080fd5b50356001600160a01b0316610d70565b604080519115158252519081900360200190f35b6103fe610d7a565b61053a610d80565b604080516001600160a01b039092168252519081900360200190f35b6104566004803603602081101561056c57600080fd5b50356001600160a01b0316610d8f565b6104566004803603606081101561059257600080fd5b506001600160a01b038135169060208101359060400135610e09565b610456610f10565b610456600480360360208110156105cc57600080fd5b5035610fd2565b6103fe600480360360208110156105e957600080fd5b5035611122565b6104566004803603602081101561060657600080fd5b5035611134565b6104566004803603602081101561062357600080fd5b5035611283565b6103fe6112ef565b6104566004803603604081101561064857600080fd5b50803590602001356112f5565b6103fe611305565b6103fe61130b565b6103fe6004803603602081101561067b57600080fd5b5035611311565b6104566004803603606081101561069857600080fd5b506001600160a01b03813516906020810135906040013561135b565b6103fe600480360360208110156106ca57600080fd5b5035611532565b610456600480360360408110156106e757600080fd5b50803590602001351515611544565b6104566004803603602081101561070c57600080fd5b50356115d0565b6103fe6116b6565b6103fe6116bc565b6104566116c2565b6104566004803603606081101561074157600080fd5b50803590602081013590604001351515611762565b6104566004803603604081101561076c57600080fd5b5080359060200135611833565b610456611a67565b6103fe6004803603602081101561079757600080fd5b5035611b09565b610456611b56565b61053a611dea565b6103fe611df9565b6103fe611dff565b61053a611e05565b6103fe611e14565b61053a611e1a565b6103fe611e29565b610456611e2f565b610812600480360360408110156107fc57600080fd5b50803590602001356001600160a01b0316611ecd565b6040805195865260208601949094528484019290925260608401526080830152519081900360a00190f35b6103fe611f07565b6103fe611f0d565b61053a611f13565b610418611f22565b6104566004803603602081101561087357600080fd5b50356001600160a01b0316611f79565b6103fe6004803603604081101561089957600080fd5b506001600160a01b03813516906020013561206e565b610456600480360360408110156108c557600080fd5b8101906020810181356401000000008111156108e057600080fd5b8201836020820111156108f257600080fd5b8035906020019184602083028401116401000000008311171561091457600080fd5b919080806020026020016040519081016040528093929190818152602001838360200280828437600092019190915250929594936020810193503591505064010000000081111561096457600080fd5b82018360208201111561097657600080fd5b8035906020019184602083028401116401000000008311171561099857600080fd5b9190808060200260200160405190810160405280939291908181526020018383602002808284376000920191909152509295506120df945050505050565b6103fe600480360360408110156109ec57600080fd5b506001600160a01b0381351690602001356122bf565b610456612330565b6103fe6125dd565b61045660048036036060811015610a2857600080fd5b506001600160a01b038135811691602081013591604090910135166125e3565b61045660048036036080811015610a5e57600080fd5b508035906001600160a01b03602082013516906040810135151590606001351515612750565b6103fe6129bb565b6104566129c1565b610456600480360360c0811015610aaa57600080fd5b506001600160a01b038135811691602081013582169160408201358116916060810135821691608082013581169160a0013516612c54565b61053a612def565b6103fe612dfe565b61045660048036036060811015610b0857600080fd5b506001600160a01b038135169060208101359060400135612e04565b61045660048036036020811015610b3a57600080fd5b503561ffff16612e88565b61045660048036036040811015610b5b57600080fd5b5080359060200135612f4c565b6103fe613113565b61045660048036036020811015610b8657600080fd5b50356001600160a01b0316613119565b61053a613212565b60ab5481565b6000806000610bca610bc160a2544361322190919063ffffffff16565b60a5549061326a565b90506000610bef610be660a2544361322190919063ffffffff16565b60a6549061326a565b919350909150509091565b609a5490565b610c0a81336132ac565b6040805182815233602082015281517fc05cbf47ef4152ea1b2446fb1ba8eb9c7285054d9c85f2f52c294200d8d1d38b929181900390910190a150565b60aa5481565b60ae5481565b6000806000609a8581548110610c6557fe5b60009182526020808320888452609b825260408085206001600160a01b038a16865290925290832060028101548154600790940290920194509291610ca9916132e6565b905060008084600301541115610ce257610cdf64e8d4a51000610cd986600301548561334090919063ffffffff16565b9061326a565b90505b610d108360010154610d0a64e8d4a51000610cd988600201548761334090919063ffffffff16565b90613221565b9890975095505050505050565b609a8181548110610d2a57fe5b60009182526020909120600790910201805460018201546002830154600384015460048501546006909501546001600160a01b0390941695509193909260ff9091169086565b803b15155b919050565b609c5481565b60b8546001600160a01b031690565b610d97613399565b6065546001600160a01b03908116911614610de7576040805162461bcd60e51b81526020600482018190526024820152600080516020614457833981519152604482015290519081900360640190fd5b609980546001600160a01b0319166001600160a01b0392909216919091179055565b6000609a8381548110610e1857fe5b600091825260208083206001600160a01b038816845260056007909302019182018152604080842033855290915290912054909150821115610ea1576040805162461bcd60e51b815260206004820181905260248201527f77697468647261773a20696e73756666696369656e7420616c6c6f77616e6365604482015290519081900360640190fd5b6001600160a01b03841660009081526005820160209081526040808320338452909152902054610ed19083613221565b6001600160a01b0385166000908152600583016020908152604080832033808552925290912091909155610f0a9084908490879061339d565b50505050565b4360a25461c3500110610f6a576040805162461bcd60e51b815260206004820152601760248201527f4e65772065706f6368206e6f7420726561647920796574000000000000000000604482015290519081900360640190fd5b60a5805460a78054600090815260b3602090815260408083209490945560a6549254825260b4905291909120555460a354610fa4916132e6565b60a35560a65460a454610fb6916132e6565b60a455600060a581905560a6554360a25560a780546001019055565b610fda613399565b6065546001600160a01b0390811691161461102a576040805162461bcd60e51b81526020600482018190526024820152600080516020614457833981519152604482015290519081900360640190fd5b609754604080516323b872dd60e01b81523360048201523060248201526044810184905290516001600160a01b03909216916323b872dd916064808201926020929091908290030181600087803b15801561108457600080fd5b505af1158015611098573d6000803e3d6000fd5b505050506040513d60208110156110ae57600080fd5b50516110f8576040805162461bcd60e51b8152602060048201526014602482015273105c1c1c9bdd99481d1bdad95b9cc8199a5c9cdd60621b604482015290519081900360640190fd5b801561111f57609d5461110b90826132e6565b609d5560a55461111b90826132e6565b60a5555b50565b60b46020526000908152604090205481565b61113c613399565b6065546001600160a01b0390811691161461118c576040805162461bcd60e51b81526020600482018190526024820152600080516020614457833981519152604482015290519081900360640190fd5b609854604080516323b872dd60e01b81523360048201523060248201526044810184905290516001600160a01b03909216916323b872dd916064808201926020929091908290030181600087803b1580156111e657600080fd5b505af11580156111fa573d6000803e3d6000fd5b505050506040513d602081101561121057600080fd5b505161125a576040805162461bcd60e51b8152602060048201526014602482015273105c1c1c9bdd99481d1bdad95b9cc8199a5c9cdd60621b604482015290519081900360640190fd5b801561111f57609e5461126d90826132e6565b609e5560a65461127d90826132e6565b60a65550565b6097546001600160a01b031633146112e2576040805162461bcd60e51b815260206004820152601e60248201527f4f6e6c792052414d20746f6b656e2063616e2061646420726577617264730000604482015290519081900360640190fd5b609d5461110b90826132e6565b60ac5481565b6113018282333361339d565b5050565b60b25481565b60a15481565b60008160011415611325575060ab54610d75565b8160021415611337575060ac54610d75565b8160031415611349575060ad54610d75565b8160041415610d75575060ae54610d75565b6000609a838154811061136a57fe5b60009182526020808320868452609b825260408085206001600160a01b038a1686529092529220600790910290910191506113a584866132ac565b82156114af578154604080516323b872dd60e01b81523360048201523060248201526044810186905290516001600160a01b03909216916323b872dd916064808201926020929091908290030181600087803b15801561140457600080fd5b505af1158015611418573d6000803e3d6000fd5b505050506040513d602081101561142e57600080fd5b5050805461143c90846132e6565b81556003810154156114af576002810154600382015460009061145e90611b09565b9050600061147e6064610cd984876000015461334090919063ffffffff16565b60028501819055905060006114938285613221565b60068701549091506114a590826132e6565b6006870155505050505b600281015481546000916114c391906132e6565b90506114e564e8d4a51000610cd985600201548461334090919063ffffffff16565b600183015560408051858152905186916001600160a01b038916917f90890809c654f11d6e72a28fa60149770a0d11ec6c92319d6ceb2bb0a4ea1a159181900360200190a3505050505050565b60b36020526000908152604090205481565b61154c613399565b6065546001600160a01b0390811691161461159c576040805162461bcd60e51b81526020600482018190526024820152600080516020614457833981519152604482015290519081900360640190fd5b80609a83815481106115aa57fe5b60009182526020909120600790910201600401805460ff19169115159190911790555050565b6000609a82815481106115df57fe5b60009182526020909120600790910201600481015490915060ff166116355760405162461bcd60e51b81526004018080602001828103825260268152602001806144a56026913960400191505060405180910390fd5b6000828152609b60209081526040808320338085529252909120805483549192611668926001600160a01b031691613598565b80546040805191825251849133917fbb757047c2b5f3974fe26b7c10f732e7bce710b0952a71082702781e62ae05959181900360200190a36000808255600282018190556001909101555050565b60a25481565b60a55481565b6116f6604051806040016040528060138152602001724d617373205570646174696e6720506f6f6c7360681b8152506135ef565b609a54600080805b8381101561173c5760008061171283613695565b909250905061172185836132e6565b945061172d84826132e6565b935050508060010190506116fe565b50609d5461174a9083613221565b609d55609e5461175a9082613221565b609e55505050565b61176a613399565b6065546001600160a01b039081169116146117ba576040805162461bcd60e51b81526020600482018190526024820152600080516020614457833981519152604482015290519081900360640190fd5b80156117c8576117c86116c2565b611805826117ff609a86815481106117dc57fe5b906000526020600020906007020160010154609c5461322190919063ffffffff16565b906132e6565b609c8190555081609a848154811061181957fe5b906000526020600020906007020160010181905550505050565b6000609a838154811061184257fe5b60009182526020808320868452609b82526040808520338652909252922060038101546007909202909201925083116118ac5760405162461bcd60e51b815260040180806020018281038252602481526020018061451b6024913960400191505060405180910390fd5b60006118b784611311565b905060006118d283600401548361322190919063ffffffff16565b609754604080516323b872dd60e01b81523360048201523060248201526044810184905290519293506001600160a01b03909116916323b872dd916064808201926020929091908290030181600087803b15801561192f57600080fd5b505af1158015611943573d6000803e3d6000fd5b505050506040513d602081101561195957600080fd5b505161199e576040805162461bcd60e51b815260206004820152600f60248201526e151c985b9cd9995c8819985a5b1959608a1b604482015290519081900360640190fd5b60048301546119ad90826132e6565b600484015560038301859055825415611a205760006119cb86611b09565b905060006119eb6064610cd984886000015461334090919063ffffffff16565b600286018054908290559091506000611a048383613221565b6006890154909150611a1690826132e6565b6006890155505050505b60aa54611a2d90826132e6565b60aa556040518590879033907faadc628cb4fd3bb7a62795eb460290459458bdc6f387ffde727c740f42c1833790600090a4505050505050565b611a6f613399565b6065546001600160a01b03908116911614611abf576040805162461bcd60e51b81526020600482018190526024820152600080516020614457833981519152604482015290519081900360640190fd5b6065546040516000916001600160a01b0316907f8be0079c531659141344cd1fd0a4f28419497f9722a3daafe3b4186f6b6457e0908390a3606580546001600160a01b0319169055565b6000806001831415611b1e575060af54611b50565b8260021415611b30575060b054611b50565b8260031415611b42575060b154611b50565b8260041415611b50575060b2545b92915050565b60b65415611de857609754604080516370a0823160e01b81523060048201529051600092839283926001600160a01b03909216916370a0823191602480820192602092909190829003018186803b158015611bb057600080fd5b505afa158015611bc4573d6000803e3d6000fd5b505050506040513d6020811015611bda57600080fd5b505160b654909150811015611c1257611bf96064610cd9836046613340565b9250611c0b6064610cd983601e613340565b9150611c4d565b611c2d6064610cd9604660b65461334090919063ffffffff16565b9250611c4a6064610cd9601e60b65461334090919063ffffffff16565b91505b8215611cd9576097546099546040805163a9059cbb60e01b81526001600160a01b039283166004820152602481018790529051919092169163a9059cbb9160448083019260209291908290030181600087803b158015611cac57600080fd5b505af1158015611cc0573d6000803e3d6000fd5b505050506040513d6020811015611cd657600080fd5b50505b8115611d655760975460a9546040805163a9059cbb60e01b81526001600160a01b039283166004820152602481018690529051919092169163a9059cbb9160448083019260209291908290030181600087803b158015611d3857600080fd5b505af1158015611d4c573d6000803e3d6000fd5b505050506040513d6020811015611d6257600080fd5b50505b609754604080516370a0823160e01b815230600482015290516001600160a01b03909216916370a0823191602480820192602092909190829003018186803b158015611db057600080fd5b505afa158015611dc4573d6000803e3d6000fd5b505050506040513d6020811015611dda57600080fd5b5051609f555050600060b655505b565b60a8546001600160a01b031681565b60b05481565b609e5481565b6065546001600160a01b031690565b60af5481565b6097546001600160a01b031681565b60a75481565b611e37613399565b60b8546001600160a01b03908116911614611e835760405162461bcd60e51b815260040180806020018281038252602881526020018061440e6028913960400191505060405180910390fd5b60b8546040516000916001600160a01b0316907ff564c40f4f45e62a2c1e6c22e8bfb46501f0f71fa1c72e5358903fa1115a4b64908390a360b880546001600160a01b0319169055565b609b602090815260009283526040808420909152908252902080546001820154600283015460038401546004909401549293919290919085565b60a45481565b60b15481565b60a9546001600160a01b031681565b6000806000611f4e611f3f60a1544361322190919063ffffffff16565b60a55460a354610cd9916132e6565b90506000610bef611f6a60a1544361322190919063ffffffff16565b60a65460a454610cd9916132e6565b611f81613399565b60b8546001600160a01b03908116911614611fcd5760405162461bcd60e51b815260040180806020018281038252602881526020018061440e6028913960400191505060405180910390fd5b6001600160a01b0381166120125760405162461bcd60e51b81526004018080602001828103825260268152602001806143c36026913960400191505060405180910390fd5b60b8546040516001600160a01b038084169216907ff564c40f4f45e62a2c1e6c22e8bfb46501f0f71fa1c72e5358903fa1115a4b6490600090a360b880546001600160a01b0319166001600160a01b0392909216919091179055565b6000612078614393565b50506000818152609b602090815260408083206001600160a01b0386168452825291829020825160a0810184528154815260018201549281019290925260028101549282019290925260038201546060820181905260049092015460809091015292915050565b6120e7613399565b6065546001600160a01b03908116911614612137576040805162461bcd60e51b81526020600482018190526024820152600080516020614457833981519152604482015290519081900360640190fd5b815160041461218d576040805162461bcd60e51b815260206004820152601a60248201527f4d75737420737065636966792034206d756c7469706c69657273000000000000604482015290519081900360640190fd5b80516004146121e3576040805162461bcd60e51b815260206004820152601a60248201527f4d75737420737065636966792034206d756c7469706c69657273000000000000604482015290519081900360640190fd5b806000815181106121f057fe5b602002602001015160ab819055508060018151811061220b57fe5b602002602001015160ac819055508060028151811061222657fe5b602002602001015160ad819055508060038151811061224157fe5b602002602001015160ae819055508160008151811061225c57fe5b602002602001015160af819055508160018151811061227757fe5b602002602001015160b0819055508160028151811061229257fe5b602002602001015160b181905550816003815181106122ad57fe5b602002602001015160b2819055505050565b60006122c9614393565b50506000818152609b602090815260408083206001600160a01b0386168452825291829020825160a0810184528154815260018201549281019290925260028101549282019290925260038201546060820152600490910154608090910181905292915050565b60aa80546000918290559061234682600261326a565b905080156113015760975460a8546040805163a9059cbb60e01b81526001600160a01b039283166004820152602481018590529051919092169163a9059cbb9160448083019260209291908290030181600087803b1580156123a757600080fd5b505af11580156123bb573d6000803e3d6000fd5b505050506040513d60208110156123d157600080fd5b5051612417576040805162461bcd60e51b815260206004820152601060248201526f2a3930b739b332b9103330b4b632b21760811b604482015290519081900360640190fd5b60006124296064610cd9846046613340565b905080156124fa576097546099546040805163a9059cbb60e01b81526001600160a01b039283166004820152602481018590529051919092169163a9059cbb9160448083019260209291908290030181600087803b15801561248a57600080fd5b505af115801561249e573d6000803e3d6000fd5b505050506040513d60208110156124b457600080fd5b50516124fa576040805162461bcd60e51b815260206004820152601060248201526f2a3930b739b332b9103330b4b632b21760811b604482015290519081900360640190fd5b600061250c6064610cd985601e613340565b90508015610f0a5760975460a9546040805163a9059cbb60e01b81526001600160a01b039283166004820152602481018590529051919092169163a9059cbb9160448083019260209291908290030181600087803b15801561256d57600080fd5b505af1158015612581573d6000803e3d6000fd5b505050506040513d602081101561259757600080fd5b5051610f0a576040805162461bcd60e51b815260206004820152601060248201526f2a3930b739b332b9103330b4b632b21760811b604482015290519081900360640190fd5b60a65481565b6125eb613399565b60b8546001600160a01b039081169116146126375760405162461bcd60e51b815260040180806020018281038252602881526020018061440e6028913960400191505060405180910390fd5b61264081610d70565b61267b5760405162461bcd60e51b81526004018080602001828103825260258152602001806143e96025913960400191505060405180910390fd5b60a15461268b90620173186132e6565b43116126c85760405162461bcd60e51b81526004018080602001828103825260268152602001806144cb6026913960400191505060405180910390fd5b826001600160a01b031663095ea7b382846040518363ffffffff1660e01b815260040180836001600160a01b0316815260200182815260200192505050602060405180830381600087803b15801561271f57600080fd5b505af1158015612733573d6000803e3d6000fd5b505050506040513d602081101561274957600080fd5b5050505050565b612758613399565b6065546001600160a01b039081169116146127a8576040805162461bcd60e51b81526020600482018190526024820152600080516020614457833981519152604482015290519081900360640190fd5b81156127b6576127b66116c2565b609a5460005b8181101561285057846001600160a01b0316609a82815481106127db57fe5b60009182526020909120600790910201546001600160a01b03161415612848576040805162461bcd60e51b815260206004820152601860248201527f4572726f7220706f6f6c20616c72656164792061646465640000000000000000604482015290519081900360640190fd5b6001016127bc565b50609c5461285e90866132e6565b609c55506040805160c0810182526001600160a01b039485168152602081019586526000918101828152606082018381529315156080830190815260a08301848152609a8054600181018255955292517f44da158ba27f9252712a74ff6a55c5d531f69609f1f6e7f17c4443a8e2089be4600790950294850180546001600160a01b031916919098161790965595517f44da158ba27f9252712a74ff6a55c5d531f69609f1f6e7f17c4443a8e2089be583015594517f44da158ba27f9252712a74ff6a55c5d531f69609f1f6e7f17c4443a8e2089be682015590517f44da158ba27f9252712a74ff6a55c5d531f69609f1f6e7f17c4443a8e2089be782015591517f44da158ba27f9252712a74ff6a55c5d531f69609f1f6e7f17c4443a8e2089be88301805460ff19169115159190911790555090517f44da158ba27f9252712a74ff6a55c5d531f69609f1f6e7f17c4443a8e2089bea90910155565b60a35481565b60b75415611de857609854604080516370a0823160e01b81523060048201529051600092839283926001600160a01b03909216916370a0823191602480820192602092909190829003018186803b158015612a1b57600080fd5b505afa158015612a2f573d6000803e3d6000fd5b505050506040513d6020811015612a4557600080fd5b505160b754909150811015612a7d57612a646064610cd9836046613340565b9250612a766064610cd983601e613340565b9150612ab8565b612a986064610cd9604660b75461334090919063ffffffff16565b9250612ab56064610cd9601e60b75461334090919063ffffffff16565b91505b8215612b44576098546099546040805163a9059cbb60e01b81526001600160a01b039283166004820152602481018790529051919092169163a9059cbb9160448083019260209291908290030181600087803b158015612b1757600080fd5b505af1158015612b2b573d6000803e3d6000fd5b505050506040513d6020811015612b4157600080fd5b50505b8115612bd05760985460a9546040805163a9059cbb60e01b81526001600160a01b039283166004820152602481018690529051919092169163a9059cbb9160448083019260209291908290030181600087803b158015612ba357600080fd5b505af1158015612bb7573d6000803e3d6000fd5b505050506040513d6020811015612bcd57600080fd5b50505b609854604080516370a0823160e01b815230600482015290516001600160a01b03909216916370a0823191602480820192602092909190829003018186803b158015612c1b57600080fd5b505afa158015612c2f573d6000803e3d6000fd5b505050506040513d6020811015612c4557600080fd5b505160a0555050600060b75550565b600054610100900460ff1680612c6d5750612c6d61386d565b80612c7b575060005460ff16155b612cb65760405162461bcd60e51b815260040180806020018281038252602e815260200180614477602e913960400191505060405180910390fd5b600054610100900460ff16158015612ce1576000805460ff1961ff0019909116610100171660011790555b612ce9613873565b60b580546102d461ffff19909116179055609780546001600160a01b03199081166001600160a01b038a811691909117928390556098805483168a831617905560998054831689831617905560a98054831688831617905560a8805483168783161790554360a15560b880549092168582161790915560408051808201909152600c81526b21a7a729aa2aa92921aa27a960a11b6020820152612d8e92909116613924565b674563918244f4000060ab5567d02ab486cedc000060ac556801a055690d9db8000060ad55680340aad21b3b70000060ae55600560af55600f60b055601e60b155603c60b2558015612de6576000805461ff00191690555b50505050505050565b6099546001600160a01b031681565b60ad5481565b6000609a8381548110612e1357fe5b60009182526020808320338085526007939093020160058101825260408085206001600160a01b038a1680875290845294819020879055805188815292830187905280519195507fb3fd5071835887567a0671151121894ddccc2842f1d10bedad13e0d17cace9a7928290030190a350505050565b612e90613399565b6065546001600160a01b03908116911614612ee0576040805162461bcd60e51b81526020600482018190526024820152600080516020614457833981519152604482015290519081900360640190fd5b6103e88161ffff161115612f34576040805162461bcd60e51b81526020600482015260166024820152754465762066656520636c616d7065642061742031302560501b604482015290519081900360640190fd5b60b5805461ffff191661ffff92909216919091179055565b6000609a8381548110612f5b57fe5b60009182526020808320868452609b825260408085203380875293529093206007909202909201925090612f909085906132ac565b821561309a578154604080516323b872dd60e01b81523360048201523060248201526044810186905290516001600160a01b03909216916323b872dd916064808201926020929091908290030181600087803b158015612fef57600080fd5b505af1158015613003573d6000803e3d6000fd5b505050506040513d602081101561301957600080fd5b5050805461302790846132e6565b815560038101541561309a576002810154600382015460009061304990611b09565b905060006130696064610cd984876000015461334090919063ffffffff16565b600285018190559050600061307e8285613221565b600687015490915061309090826132e6565b6006870155505050505b600281015481546000916130ae91906132e6565b90506130d064e8d4a51000610cd985600201548461334090919063ffffffff16565b6001830155604080518581529051869133917f90890809c654f11d6e72a28fa60149770a0d11ec6c92319d6ceb2bb0a4ea1a159181900360200190a35050505050565b609d5481565b613121613399565b6065546001600160a01b03908116911614613171576040805162461bcd60e51b81526020600482018190526024820152600080516020614457833981519152604482015290519081900360640190fd5b6001600160a01b0381166131b65760405162461bcd60e51b81526004018080602001828103825260268152602001806143c36026913960400191505060405180910390fd5b6065546040516001600160a01b038084169216907f8be0079c531659141344cd1fd0a4f28419497f9722a3daafe3b4186f6b6457e090600090a3606580546001600160a01b0319166001600160a01b0392909216919091179055565b6098546001600160a01b031681565b600061326383836040518060400160405280601e81526020017f536166654d6174683a207375627472616374696f6e206f766572666c6f7700008152506139db565b9392505050565b600061326383836040518060400160405280601a81526020017f536166654d6174683a206469766973696f6e206279207a65726f000000000000815250613a72565b6132b46116c2565b6000806132c18484610c53565b909250905081156132d6576132d68383613ad7565b8015610f0a57610f0a8382613d5e565b600082820183811015613263576040805162461bcd60e51b815260206004820152601b60248201527f536166654d6174683a206164646974696f6e206f766572666c6f770000000000604482015290519081900360640190fd5b60008261334f57506000611b50565b8282028284828161335c57fe5b04146132635760405162461bcd60e51b81526004018080602001828103825260218152602001806144366021913960400191505060405180910390fd5b3390565b6000609a85815481106133ac57fe5b60009182526020909120600790910201600481015490915060ff166134025760405162461bcd60e51b81526004018080602001828103825260268152602001806144a56026913960400191505060405180910390fd5b6000858152609b602090815260408083206001600160a01b03871684529091529020805485111561346f576040805162461bcd60e51b81526020600482015260126024820152711dda5d1a191c985dce881b9bdd0819dbdbd960721b604482015290519081900360640190fd5b61347986856132ac565b841561351457805461348b9086613221565b815581546134a3906001600160a01b03168487613598565b60038101541561351457600281015460038201546000906134c390611b09565b905060006134e36064610cd984876000015461334090919063ffffffff16565b60028501819055905060006134f88483613221565b600687015490915061350a9082613221565b6006870155505050505b6002810154815460009161352891906132e6565b905061354a64e8d4a51000610cd985600201548461334090919063ffffffff16565b600183015560408051878152905188916001600160a01b038716917ff279e6a1f5e320cca91135676d9cb6e44ca8a08c0b88342bcdb1144f6511b5689181900360200190a350505050505050565b604080516001600160a01b038416602482015260448082018490528251808303909101815260649091019091526020810180516001600160e01b031663a9059cbb60e01b1790526135ea908490613fe5565b505050565b61111f816040516024018080602001828103825283818151815260200191508051906020019080838360005b8381101561363357818101518382015260200161361b565b50505050905090810190601f1680156136605780820380516001836020036101000a031916815260200191505b5060408051601f198184030181529190526020810180516001600160e01b031663104c13eb60e21b179052925061419d915050565b6000806000609a84815481106136a757fe5b6000918252602080832060079092029091018054604080516370a0823160e01b815230600482015290519295506001600160a01b03909116926370a0823192602480840193829003018186803b15801561370057600080fd5b505afa158015613714573d6000803e3d6000fd5b505050506040513d602081101561372a57600080fd5b505190508061374157600080935093505050613868565b613760609c54610cd98460010154609d5461334090919063ffffffff16565b60b5549094506000906137809061271090610cd990889061ffff16613340565b9050600061378e8683613221565b60b65490915061379e90836132e6565b60b655609c546001850154609e546137bb9291610cd99190613340565b60b5549095506000906137db9061271090610cd990899061ffff16613340565b905060006137e98783613221565b60b7549091506137f990836132e6565b60b755600686015460009061380f9087906132e6565b905061383261382782610cd98764e8d4a51000613340565b6002890154906132e6565b600288015561385861384d82610cd98564e8d4a51000613340565b6003890154906132e6565b8760030181905550505050505050505b915091565b303b1590565b600054610100900460ff168061388c575061388c61386d565b8061389a575060005460ff16155b6138d55760405162461bcd60e51b815260040180806020018281038252602e815260200180614477602e913960400191505060405180910390fd5b600054610100900460ff16158015613900576000805460ff1961ff0019909116610100171660011790555b6139086141be565b61391061425e565b801561111f576000805461ff001916905550565b61130182826040516024018080602001836001600160a01b03168152602001828103825284818151815260200191508051906020019080838360005b83811015613978578181015183820152602001613960565b50505050905090810190601f1680156139a55780820380516001836020036101000a031916815260200191505b5060408051601f198184030181529190526020810180516001600160e01b031663319af33360e01b179052935061419d92505050565b60008184841115613a6a5760405162461bcd60e51b81526004018080602001828103825283818151815260200191508051906020019080838360005b83811015613a2f578181015183820152602001613a17565b50505050905090810190601f168015613a5c5780820380516001836020036101000a031916815260200191505b509250505060405180910390fd5b505050900390565b60008183613ac15760405162461bcd60e51b8152602060048201818152835160248401528351909283926044909101919085019080838360008315613a2f578181015183820152602001613a17565b506000838581613acd57fe5b0495945050505050565b609754604080516370a0823160e01b815230600482015290516000926001600160a01b0316916370a08231916024808301926020929190829003018186803b158015613b2257600080fd5b505afa158015613b36573d6000803e3d6000fd5b505050506040513d6020811015613b4c57600080fd5b5051905080821115613c59576097546040805163a9059cbb60e01b81526001600160a01b038681166004830152602482018590529151919092169163a9059cbb9160448083019260209291908290030181600087803b158015613bae57600080fd5b505af1158015613bc2573d6000803e3d6000fd5b505050506040513d6020811015613bd857600080fd5b5050609754604080516370a0823160e01b815230600482015290516001600160a01b03909216916370a0823191602480820192602092909190829003018186803b158015613c2557600080fd5b505afa158015613c39573d6000803e3d6000fd5b505050506040513d6020811015613c4f57600080fd5b5051609f55613d56565b6097546040805163a9059cbb60e01b81526001600160a01b038681166004830152602482018690529151919092169163a9059cbb9160448083019260209291908290030181600087803b158015613caf57600080fd5b505af1158015613cc3573d6000803e3d6000fd5b505050506040513d6020811015613cd957600080fd5b5050609754604080516370a0823160e01b815230600482015290516001600160a01b03909216916370a0823191602480820192602092909190829003018186803b158015613d2657600080fd5b505afa158015613d3a573d6000803e3d6000fd5b505050506040513d6020811015613d5057600080fd5b5051609f555b6135ea611b56565b609854604080516370a0823160e01b815230600482015290516000926001600160a01b0316916370a08231916024808301926020929190829003018186803b158015613da957600080fd5b505afa158015613dbd573d6000803e3d6000fd5b505050506040513d6020811015613dd357600080fd5b5051905080821115613ee0576098546040805163a9059cbb60e01b81526001600160a01b038681166004830152602482018590529151919092169163a9059cbb9160448083019260209291908290030181600087803b158015613e3557600080fd5b505af1158015613e49573d6000803e3d6000fd5b505050506040513d6020811015613e5f57600080fd5b5050609854604080516370a0823160e01b815230600482015290516001600160a01b03909216916370a0823191602480820192602092909190829003018186803b158015613eac57600080fd5b505afa158015613ec0573d6000803e3d6000fd5b505050506040513d6020811015613ed657600080fd5b505160a055613fdd565b6098546040805163a9059cbb60e01b81526001600160a01b038681166004830152602482018690529151919092169163a9059cbb9160448083019260209291908290030181600087803b158015613f3657600080fd5b505af1158015613f4a573d6000803e3d6000fd5b505050506040513d6020811015613f6057600080fd5b5050609854604080516370a0823160e01b815230600482015290516001600160a01b03909216916370a0823191602480820192602092909190829003018186803b158015613fad57600080fd5b505afa158015613fc1573d6000803e3d6000fd5b505050506040513d6020811015613fd757600080fd5b505160a0555b6135ea6129c1565b613ff7826001600160a01b0316614357565b614048576040805162461bcd60e51b815260206004820152601f60248201527f5361666545524332303a2063616c6c20746f206e6f6e2d636f6e747261637400604482015290519081900360640190fd5b60006060836001600160a01b0316836040518082805190602001908083835b602083106140865780518252601f199092019160209182019101614067565b6001836020036101000a0380198251168184511680821785525050505050509050019150506000604051808303816000865af19150503d80600081146140e8576040519150601f19603f3d011682016040523d82523d6000602084013e6140ed565b606091505b509150915081614144576040805162461bcd60e51b815260206004820181905260248201527f5361666545524332303a206c6f772d6c6576656c2063616c6c206661696c6564604482015290519081900360640190fd5b805115610f0a5780806020019051602081101561416057600080fd5b5051610f0a5760405162461bcd60e51b815260040180806020018281038252602a8152602001806144f1602a913960400191505060405180910390fd5b80516a636f6e736f6c652e6c6f67602083016000808483855afa5050505050565b600054610100900460ff16806141d757506141d761386d565b806141e5575060005460ff16155b6142205760405162461bcd60e51b815260040180806020018281038252602e815260200180614477602e913960400191505060405180910390fd5b600054610100900460ff16158015613910576000805460ff1961ff001990911661010017166001179055801561111f576000805461ff001916905550565b600054610100900460ff1680614277575061427761386d565b80614285575060005460ff16155b6142c05760405162461bcd60e51b815260040180806020018281038252602e815260200180614477602e913960400191505060405180910390fd5b600054610100900460ff161580156142eb576000805460ff1961ff0019909116610100171660011790555b60006142f5613399565b606580546001600160a01b0319166001600160a01b038316908117909155604051919250906000907f8be0079c531659141344cd1fd0a4f28419497f9722a3daafe3b4186f6b6457e0908290a350801561111f576000805461ff001916905550565b6000813f7fc5d2460186f7233c927e7db2dcc703c0e500b653ca82273b7bfad8045d85a47081811480159061438b57508115155b949350505050565b6040518060a001604052806000815260200160008152602001600081526020016000815260200160008152509056fe4f776e61626c653a206e6577206f776e657220697320746865207a65726f20616464726573735265636970656e74206973206e6f74206120736d61727420636f6e74726163742c2042414453757065722061646d696e203a2063616c6c6572206973206e6f742073757065722061646d696e2e536166654d6174683a206d756c7469706c69636174696f6e206f766572666c6f774f776e61626c653a2063616c6c6572206973206e6f7420746865206f776e6572436f6e747261637420696e7374616e63652068617320616c7265616479206265656e20696e697469616c697a65645769746864726177696e672066726f6d207468697320706f6f6c2069732064697361626c6564476f7665726e616e636520736574757020677261636520706572696f64206e6f74206f7665725361666545524332303a204552433230206f7065726174696f6e20646964206e6f74207375636365656443616e6e6f7420646f776e6772616465206c6576656c206f722073616d65206c6576656ca264697066735822122016fd46ef393c9c171d3da3a8d6210efe2a30f9316a53d11770fa1a6e750ba2d564736f6c634300060c0033",
    "sourcePath": "/Users/225153/Projects/ram/contracts/RamVault.sol",
    "compiler": {
        "name": "solc",
        "version": "0.6.12+commit.27d51765"
    },
    "functionHashes": {
        "YGYRewardsInThisEpoch()": "c083143d",
        "add(uint256,address,bool,bool)": "c507aeaa",
        "addPendingRewards(uint256)": "423d6fa0",
        "addRAMRewardsOwner(uint256)": "3b6a6849",
        "addYGYRewardsOwner(uint256)": "3fe6a278",
        "averageFeesPerBlockEpoch()": "03dec009",
        "averageFeesPerBlockSinceStart()": "9dbc2d90",
        "boostFees()": "09e3de41",
        "boostLevelFourCost()": "0aae105d",
        "boostLevelFourMultiplier()": "46eaab32",
        "boostLevelOneCost()": "01e492df",
        "boostLevelOneMultiplier()": "8ea703f5",
        "boostLevelThreeCost()": "d87190a9",
        "boostLevelThreeMultiplier()": "9a4c3095",
        "boostLevelTwoCost()": "42603602",
        "boostLevelTwoMultiplier()": "896b09df",
        "burnSuperAdmin()": "934eaa50",
        "calculateCost(uint256)": "4af18f4f",
        "checkRewards(uint256,address)": "10178d9c",
        "claimRewards(uint256)": "0962ef79",
        "contractStartBlock()": "49c5468d",
        "cumulativeRewardsSinceStart()": "c8ffb873",
        "cumulativeYGYRewardsSinceStart()": "9649d76c",
        "deposit(uint256,uint256)": "e2bbb158",
        "depositFor(address,uint256,uint256)": "4cf5fbf5",
        "devaddr()": "d49e77cd",
        "distributeFees()": "bb57ad20",
        "emergencyWithdraw(uint256)": "5312ea8e",
        "epoch()": "900cf0cf",
        "epochCalculationStartBlock()": "5d577c18",
        "epochRewards(uint256)": "4dc47d34",
        "epochYGYRewards(uint256)": "3cf99c1a",
        "getLevel(address,uint256)": "b121f2ac",
        "getSpent(address,uint256)": "ba02da31",
        "getTotalMultiplier(uint256)": "7bedf68a",
        "initialize(address,address,address,address,address,address)": "cc2a9a5b",
        "isContract(address)": "16279055",
        "massUpdatePools()": "630b5ba1",
        "newSuperAdmin(address)": "a676860a",
        "owner()": "8da5cb5b",
        "pendingRewards()": "eded3fda",
        "pendingYGYRewards()": "8b6ff57b",
        "poolInfo(uint256)": "1526fe27",
        "poolLength()": "081e3eda",
        "purchase(uint256,uint256)": "70876c98",
        "ram()": "8f33b5e5",
        "regeneratoraddr()": "7d3b8da1",
        "renounceOwnership()": "715018a6",
        "rewardsInThisEpoch()": "608c8d3a",
        "set(uint256,uint256,bool)": "64482f79",
        "setAllowanceForPoolToken(address,uint256,uint256)": "dbe0901f",
        "setDevFee(uint16)": "e18cb4fe",
        "setDevFeeReciever(address)": "2d6754e5",
        "setPoolWithdrawable(uint256,bool)": "5207cc0d",
        "setStrategyContractOrDistributionContractAllowance(address,uint256,address)": "c4014588",
        "startNewEpoch()": "3aab0a62",
        "superAdmin()": "29575f6a",
        "teamaddr()": "9a6d2711",
        "totalAllocPoint()": "17caf6f1",
        "transferOwnership(address)": "f2fde38b",
        "transferRAMDevFee()": "7cf75ca3",
        "transferYGYDevFee()": "cc1362ec",
        "updateBoosts(uint256[],uint256[])": "b2f4b44a",
        "userInfo(uint256,address)": "93f1a40b",
        "withdraw(uint256,uint256)": "441a3e70",
        "withdrawFrom(address,uint256,uint256)": "3a0967cd",
        "ygy()": "fb70c3bf"
    },
    "gasEstimates": {
        "creation": {
            "codeDepositCost": "3556000",
            "executionCost": "3990",
            "totalCost": "3559990"
        },
        "external": {
            "YGYRewardsInThisEpoch()": "1132",
            "add(uint256,address,bool,bool)": "infinite",
            "addPendingRewards(uint256)": "infinite",
            "addRAMRewardsOwner(uint256)": "infinite",
            "addYGYRewardsOwner(uint256)": "infinite",
            "averageFeesPerBlockEpoch()": "infinite",
            "averageFeesPerBlockSinceStart()": "infinite",
            "boostFees()": "1067",
            "boostLevelFourCost()": "1089",
            "boostLevelFourMultiplier()": "1066",
            "boostLevelOneCost()": "1068",
            "boostLevelOneMultiplier()": "1110",
            "boostLevelThreeCost()": "1109",
            "boostLevelThreeMultiplier()": "1065",
            "boostLevelTwoCost()": "1111",
            "boostLevelTwoMultiplier()": "1133",
            "burnSuperAdmin()": "infinite",
            "calculateCost(uint256)": "1277",
            "checkRewards(uint256,address)": "infinite",
            "claimRewards(uint256)": "infinite",
            "contractStartBlock()": "1088",
            "cumulativeRewardsSinceStart()": "1109",
            "cumulativeYGYRewardsSinceStart()": "1132",
            "deposit(uint256,uint256)": "infinite",
            "depositFor(address,uint256,uint256)": "infinite",
            "devaddr()": "1126",
            "distributeFees()": "infinite",
            "emergencyWithdraw(uint256)": "infinite",
            "epoch()": "1066",
            "epochCalculationStartBlock()": "1132",
            "epochRewards(uint256)": "1174",
            "epochYGYRewards(uint256)": "1240",
            "getLevel(address,uint256)": "4897",
            "getSpent(address,uint256)": "4832",
            "getTotalMultiplier(uint256)": "1228",
            "initialize(address,address,address,address,address,address)": "infinite",
            "isContract(address)": "1045",
            "massUpdatePools()": "infinite",
            "newSuperAdmin(address)": "infinite",
            "owner()": "1127",
            "pendingRewards()": "1108",
            "pendingYGYRewards()": "1066",
            "poolInfo(uint256)": "6311",
            "poolLength()": "1112",
            "purchase(uint256,uint256)": "infinite",
            "ram()": "1171",
            "regeneratoraddr()": "1150",
            "renounceOwnership()": "infinite",
            "rewardsInThisEpoch()": "1065",
            "set(uint256,uint256,bool)": "infinite",
            "setAllowanceForPoolToken(address,uint256,uint256)": "23546",
            "setDevFee(uint16)": "infinite",
            "setDevFeeReciever(address)": "infinite",
            "setPoolWithdrawable(uint256,bool)": "infinite",
            "setStrategyContractOrDistributionContractAllowance(address,uint256,address)": "infinite",
            "startNewEpoch()": "infinite",
            "superAdmin()": "1150",
            "teamaddr()": "1126",
            "totalAllocPoint()": "1089",
            "transferOwnership(address)": "infinite",
            "transferRAMDevFee()": "infinite",
            "transferYGYDevFee()": "infinite",
            "updateBoosts(uint256[],uint256[])": "infinite",
            "userInfo(uint256,address)": "4664",
            "withdraw(uint256,uint256)": "infinite",
            "withdrawFrom(address,uint256,uint256)": "infinite",
            "ygy()": "1191"
        },
        "internal": {
            "_withdraw(uint256,uint256,address,address)": "infinite",
            "safeRamTransfer(address,uint256)": "infinite",
            "safeYgyTransfer(address,uint256)": "infinite",
            "updateAndPayOutPending(uint256,address)": "infinite",
            "updatePool(uint256)": "infinite"
        }
    }
}