{
    "contractName": "StorageV1",
    "abi": [
        {
            "inputs": [],
            "name": "YGYReserve",
            "outputs": [
                {
                    "internalType": "uint256",
                    "name": "",
                    "type": "uint256"
                }
            ],
            "stateMutability": "view",
            "type": "function"
        },
        {
            "inputs": [
                {
                    "internalType": "uint256",
                    "name": "",
                    "type": "uint256"
                }
            ],
            "name": "_NFTs",
            "outputs": [
                {
                    "internalType": "address",
                    "name": "",
                    "type": "address"
                }
            ],
            "stateMutability": "view",
            "type": "function"
        },
        {
            "inputs": [],
            "name": "_YGYRAMPair",
            "outputs": [
                {
                    "internalType": "address",
                    "name": "",
                    "type": "address"
                }
            ],
            "stateMutability": "view",
            "type": "function"
        },
        {
            "inputs": [],
            "name": "_YGYToken",
            "outputs": [
                {
                    "internalType": "address",
                    "name": "",
                    "type": "address"
                }
            ],
            "stateMutability": "view",
            "type": "function"
        },
        {
            "inputs": [],
            "name": "_YGYWETHPair",
            "outputs": [
                {
                    "internalType": "address",
                    "name": "",
                    "type": "address"
                }
            ],
            "stateMutability": "view",
            "type": "function"
        },
        {
            "inputs": [],
            "name": "_dXIOTToken",
            "outputs": [
                {
                    "internalType": "contract IERC20",
                    "name": "",
                    "type": "address"
                }
            ],
            "stateMutability": "view",
            "type": "function"
        },
        {
            "inputs": [
                {
                    "internalType": "uint256",
                    "name": "",
                    "type": "uint256"
                }
            ],
            "name": "addressStorageCount",
            "outputs": [
                {
                    "internalType": "uint256",
                    "name": "",
                    "type": "uint256"
                }
            ],
            "stateMutability": "view",
            "type": "function"
        },
        {
            "inputs": [
                {
                    "internalType": "uint256",
                    "name": "",
                    "type": "uint256"
                }
            ],
            "name": "booleanMapStorageCount",
            "outputs": [
                {
                    "internalType": "uint256",
                    "name": "",
                    "type": "uint256"
                }
            ],
            "stateMutability": "view",
            "type": "function"
        },
        {
            "inputs": [],
            "name": "boostFees",
            "outputs": [
                {
                    "internalType": "uint256",
                    "name": "",
                    "type": "uint256"
                }
            ],
            "stateMutability": "view",
            "type": "function"
        },
        {
            "inputs": [
                {
                    "internalType": "uint256",
                    "name": "",
                    "type": "uint256"
                }
            ],
            "name": "boostLevelCosts",
            "outputs": [
                {
                    "internalType": "uint256",
                    "name": "",
                    "type": "uint256"
                }
            ],
            "stateMutability": "view",
            "type": "function"
        },
        {
            "inputs": [
                {
                    "internalType": "uint256",
                    "name": "",
                    "type": "uint256"
                }
            ],
            "name": "boostLevelMultipliers",
            "outputs": [
                {
                    "internalType": "uint256",
                    "name": "",
                    "type": "uint256"
                }
            ],
            "stateMutability": "view",
            "type": "function"
        },
        {
            "inputs": [],
            "name": "cumulativeRewardsSinceStart",
            "outputs": [
                {
                    "internalType": "uint256",
                    "name": "",
                    "type": "uint256"
                }
            ],
            "stateMutability": "view",
            "type": "function"
        },
        {
            "inputs": [],
            "name": "cumulativeYGYRewardsSinceStart",
            "outputs": [
                {
                    "internalType": "uint256",
                    "name": "",
                    "type": "uint256"
                }
            ],
            "stateMutability": "view",
            "type": "function"
        },
        {
            "inputs": [],
            "name": "epoch",
            "outputs": [
                {
                    "internalType": "uint256",
                    "name": "",
                    "type": "uint256"
                }
            ],
            "stateMutability": "view",
            "type": "function"
        },
        {
            "inputs": [],
            "name": "epochCalculationStartBlock",
            "outputs": [
                {
                    "internalType": "uint256",
                    "name": "",
                    "type": "uint256"
                }
            ],
            "stateMutability": "view",
            "type": "function"
        },
        {
            "inputs": [
                {
                    "internalType": "uint256",
                    "name": "",
                    "type": "uint256"
                }
            ],
            "name": "epochRewards",
            "outputs": [
                {
                    "internalType": "uint256",
                    "name": "",
                    "type": "uint256"
                }
            ],
            "stateMutability": "view",
            "type": "function"
        },
        {
            "inputs": [
                {
                    "internalType": "string",
                    "name": "_key",
                    "type": "string"
                }
            ],
            "name": "getAddressStorage",
            "outputs": [
                {
                    "internalType": "address",
                    "name": "",
                    "type": "address"
                }
            ],
            "stateMutability": "view",
            "type": "function"
        },
        {
            "inputs": [
                {
                    "internalType": "string",
                    "name": "_key",
                    "type": "string"
                },
                {
                    "internalType": "address",
                    "name": "_address",
                    "type": "address"
                }
            ],
            "name": "getBooleanMapValue",
            "outputs": [
                {
                    "internalType": "bool",
                    "name": "",
                    "type": "bool"
                }
            ],
            "stateMutability": "view",
            "type": "function"
        },
        {
            "inputs": [
                {
                    "internalType": "address",
                    "name": "",
                    "type": "address"
                }
            ],
            "name": "lastTicketLevel",
            "outputs": [
                {
                    "internalType": "uint256",
                    "name": "",
                    "type": "uint256"
                }
            ],
            "stateMutability": "view",
            "type": "function"
        },
        {
            "inputs": [
                {
                    "internalType": "address",
                    "name": "",
                    "type": "address"
                }
            ],
            "name": "liquidityContributedEthValue",
            "outputs": [
                {
                    "internalType": "uint256",
                    "name": "",
                    "type": "uint256"
                }
            ],
            "stateMutability": "view",
            "type": "function"
        },
        {
            "inputs": [
                {
                    "internalType": "address",
                    "name": "",
                    "type": "address"
                },
                {
                    "internalType": "uint256",
                    "name": "",
                    "type": "uint256"
                }
            ],
            "name": "nftProperties",
            "outputs": [
                {
                    "internalType": "string",
                    "name": "pType",
                    "type": "string"
                },
                {
                    "internalType": "uint256",
                    "name": "pValue",
                    "type": "uint256"
                }
            ],
            "stateMutability": "view",
            "type": "function"
        },
        {
            "inputs": [],
            "name": "pendingRewards",
            "outputs": [
                {
                    "internalType": "uint256",
                    "name": "",
                    "type": "uint256"
                }
            ],
            "stateMutability": "view",
            "type": "function"
        },
        {
            "inputs": [],
            "name": "pendingYGYRewards",
            "outputs": [
                {
                    "internalType": "uint256",
                    "name": "",
                    "type": "uint256"
                }
            ],
            "stateMutability": "view",
            "type": "function"
        },
        {
            "inputs": [
                {
                    "internalType": "uint256",
                    "name": "",
                    "type": "uint256"
                }
            ],
            "name": "poolInfo",
            "outputs": [
                {
                    "internalType": "contract IERC20",
                    "name": "token",
                    "type": "address"
                },
                {
                    "internalType": "uint256",
                    "name": "allocPoint",
                    "type": "uint256"
                },
                {
                    "internalType": "uint256",
                    "name": "accRAMPerShare",
                    "type": "uint256"
                },
                {
                    "internalType": "uint256",
                    "name": "accYGYPerShare",
                    "type": "uint256"
                },
                {
                    "internalType": "bool",
                    "name": "withdrawable",
                    "type": "bool"
                },
                {
                    "internalType": "uint256",
                    "name": "effectiveAdditionalTokensFromBoosts",
                    "type": "uint256"
                }
            ],
            "stateMutability": "view",
            "type": "function"
        },
        {
            "inputs": [],
            "name": "ram",
            "outputs": [
                {
                    "internalType": "contract INBUNIERC20",
                    "name": "",
                    "type": "address"
                }
            ],
            "stateMutability": "view",
            "type": "function"
        },
        {
            "inputs": [],
            "name": "ramVaultStartBlock",
            "outputs": [
                {
                    "internalType": "uint256",
                    "name": "",
                    "type": "uint256"
                }
            ],
            "stateMutability": "view",
            "type": "function"
        },
        {
            "inputs": [],
            "name": "regeneratoraddr",
            "outputs": [
                {
                    "internalType": "address",
                    "name": "",
                    "type": "address"
                }
            ],
            "stateMutability": "view",
            "type": "function"
        },
        {
            "inputs": [],
            "name": "rewardsInThisEpoch",
            "outputs": [
                {
                    "internalType": "uint256",
                    "name": "",
                    "type": "uint256"
                }
            ],
            "stateMutability": "view",
            "type": "function"
        },
        {
            "inputs": [
                {
                    "internalType": "string",
                    "name": "source",
                    "type": "string"
                }
            ],
            "name": "stringToBytes32",
            "outputs": [
                {
                    "internalType": "bytes32",
                    "name": "result",
                    "type": "bytes32"
                }
            ],
            "stateMutability": "pure",
            "type": "function"
        },
        {
            "inputs": [],
            "name": "teamaddr",
            "outputs": [
                {
                    "internalType": "address",
                    "name": "",
                    "type": "address"
                }
            ],
            "stateMutability": "view",
            "type": "function"
        },
        {
            "inputs": [],
            "name": "ticketCount",
            "outputs": [
                {
                    "internalType": "uint256",
                    "name": "",
                    "type": "uint256"
                }
            ],
            "stateMutability": "view",
            "type": "function"
        },
        {
            "inputs": [
                {
                    "internalType": "uint256",
                    "name": "",
                    "type": "uint256"
                }
            ],
            "name": "tickets",
            "outputs": [
                {
                    "internalType": "address",
                    "name": "owner",
                    "type": "address"
                },
                {
                    "internalType": "uint256",
                    "name": "levelOneChance",
                    "type": "uint256"
                },
                {
                    "internalType": "uint256",
                    "name": "levelTwoChance",
                    "type": "uint256"
                },
                {
                    "internalType": "uint256",
                    "name": "levelThreeChance",
                    "type": "uint256"
                },
                {
                    "internalType": "uint256",
                    "name": "levelFourChance",
                    "type": "uint256"
                },
                {
                    "internalType": "uint256",
                    "name": "levelFiveChance",
                    "type": "uint256"
                }
            ],
            "stateMutability": "view",
            "type": "function"
        },
        {
            "inputs": [],
            "name": "totalAllocPoint",
            "outputs": [
                {
                    "internalType": "uint256",
                    "name": "",
                    "type": "uint256"
                }
            ],
            "stateMutability": "view",
            "type": "function"
        },
        {
            "inputs": [
                {
                    "internalType": "uint256",
                    "name": "",
                    "type": "uint256"
                }
            ],
            "name": "uintStorageCount",
            "outputs": [
                {
                    "internalType": "uint256",
                    "name": "",
                    "type": "uint256"
                }
            ],
            "stateMutability": "view",
            "type": "function"
        },
        {
            "inputs": [
                {
                    "internalType": "uint256",
                    "name": "",
                    "type": "uint256"
                },
                {
                    "internalType": "address",
                    "name": "",
                    "type": "address"
                }
            ],
            "name": "userInfo",
            "outputs": [
                {
                    "internalType": "uint256",
                    "name": "amount",
                    "type": "uint256"
                },
                {
                    "internalType": "uint256",
                    "name": "rewardDebt",
                    "type": "uint256"
                },
                {
                    "internalType": "uint256",
                    "name": "rewardDebtYGY",
                    "type": "uint256"
                },
                {
                    "internalType": "uint256",
                    "name": "boostAmount",
                    "type": "uint256"
                },
                {
                    "internalType": "uint256",
                    "name": "boostLevel",
                    "type": "uint256"
                },
                {
                    "internalType": "uint256",
                    "name": "spentMultiplierTokens",
                    "type": "uint256"
                }
            ],
            "stateMutability": "view",
            "type": "function"
        },
        {
            "inputs": [],
            "name": "ygy",
            "outputs": [
                {
                    "internalType": "contract IERC20",
                    "name": "",
                    "type": "address"
                }
            ],
            "stateMutability": "view",
            "type": "function"
        }
    ],
    "bytecode": "608060405234801561001057600080fd5b50610b87806100206000396000f3fe608060405234801561001057600080fd5b506004361061021c5760003560e01c8063900cf0cf11610125578063cfb51928116100ad578063e941c8561161007c578063e941c856146106fc578063eded3fda14610719578063ee02ea1b14610721578063f7db38cb146107c7578063fb70c3bf146107cf5761021c565b8063cfb519281461056c578063cfbd900f14610612578063d6cf80211461061a578063e671fab5146106375761021c565b8063ad1414b2116100f4578063ad1414b2146104f3578063b81a0b4c14610519578063bcb4908614610521578063c8ffb8731461053e578063cc40f664146105465761021c565b8063900cf0cf1461047c57806393f1a40b146104845780639649d76c146104e35780639a6d2711146104eb5761021c565b806350b44712116101a85780636b42ee55116101775780636b42ee551461042a578063795d79f5146104475780637d3b8da1146104645780638b6ff57b1461046c5780638f33b5e5146104745761021c565b806350b44712146103b85780635a93e986146104125780635d577c181461041a578063608c8d3a146104225761021c565b80632f4f8a7a116101ef5780632f4f8a7a146102a757806330d27e94146102cb5780633b24bd4a14610376578063469fcdcb1461037e5780634dc47d341461039b5761021c565b806309e3de41146102215780631526fe271461023b57806317caf6f1146102975780631dbf779e1461029f575b600080fd5b6102296107d7565b60408051918252519081900360200190f35b6102586004803603602081101561025157600080fd5b50356107dd565b604080516001600160a01b03909716875260208701959095528585019390935260608501919091521515608084015260a0830152519081900360c00190f35b610229610830565b610229610836565b6102af61083c565b604080516001600160a01b039092168252519081900360200190f35b6102f7600480360360408110156102e157600080fd5b506001600160a01b03813516906020013561084b565b6040518080602001838152602001828103825284818151815260200191508051906020019080838360005b8381101561033a578181015183820152602001610322565b50505050905090810190601f1680156103675780820380516001836020036101000a031916815260200191505b50935050505060405180910390f35b6102af61090a565b6102296004803603602081101561039457600080fd5b5035610919565b610229600480360360208110156103b157600080fd5b503561092b565b6103d5600480360360208110156103ce57600080fd5b503561093d565b604080516001600160a01b0390971687526020870195909552858501939093526060850191909152608084015260a0830152519081900360c00190f35b61022961097c565b610229610982565b610229610988565b6102296004803603602081101561044057600080fd5b503561098e565b6102af6004803603602081101561045d57600080fd5b50356109ac565b6102af6109c7565b6102296109d6565b6102af6109dc565b6102296109eb565b6104b06004803603604081101561049a57600080fd5b50803590602001356001600160a01b03166109f1565b604080519687526020870195909552858501939093526060850191909152608084015260a0830152519081900360c00190f35b610229610a2e565b6102af610a34565b6102296004803603602081101561050957600080fd5b50356001600160a01b0316610a43565b6102af610a55565b6102296004803603602081101561053757600080fd5b5035610a64565b610229610a76565b6102296004803603602081101561055c57600080fd5b50356001600160a01b0316610a7c565b6102296004803603602081101561058257600080fd5b81019060208101813564010000000081111561059d57600080fd5b8201836020820111156105af57600080fd5b803590602001918460018302840111640100000000831117156105d157600080fd5b91908080601f016020809104026020016040519081016040528093929190818152602001838380828437600092019190915250929550610a8e945050505050565b610229610ab0565b6102296004803603602081101561063057600080fd5b5035610ab6565b6106e86004803603604081101561064d57600080fd5b81019060208101813564010000000081111561066857600080fd5b82018360208201111561067a57600080fd5b8035906020019184600183028401116401000000008311171561069c57600080fd5b91908080601f016020809104026020016040519081016040528093929190818152602001838380828437600092019190915250929550505090356001600160a01b03169150610ac39050565b604080519115158252519081900360200190f35b6102296004803603602081101561071257600080fd5b5035610af5565b610229610b02565b6102af6004803603602081101561073757600080fd5b81019060208101813564010000000081111561075257600080fd5b82018360208201111561076457600080fd5b8035906020019184600183028401116401000000008311171561078657600080fd5b91908080601f016020809104026020016040519081016040528093929190818152602001838380828437600092019190915250929550610b08945050505050565b6102af610b33565b6102af610b42565b60165481565b600181815481106107ea57fe5b60009182526020909120600790910201805460018201546002830154600384015460048501546006909501546001600160a01b0390941695509193909260ff9091169086565b60085481565b600b5481565b6004546001600160a01b031681565b601f602052816000526040600020818154811061086457fe5b60009182526020918290206002918202018054604080516001831615610100026000190190921693909304601f8101859004850282018501909352828152909450925083918301828280156108fa5780601f106108cf576101008083540402835291602001916108fa565b820191906000526020600020905b8154815290600101906020018083116108dd57829003601f168201915b5050505050908060010154905082565b6006546001600160a01b031681565b60176020526000908152604090205481565b60196020526000908152604090205481565b601b602052600090815260409020805460018201546002830154600384015460048501546005909501546001600160a01b039094169492939192909186565b600e5481565b600f5481565b60125481565b6023818154811061099b57fe5b600091825260209091200154905081565b601e602052600090815260409020546001600160a01b031681565b6014546001600160a01b031681565b600a5481565b6002546001600160a01b031681565b60135481565b6000602081815292815260408082209093529081522080546001820154600283015460038401546004850154600590950154939492939192909186565b60115481565b6015546001600160a01b031681565b601c6020526000908152604090205481565b6007546001600160a01b031681565b60186020526000908152604090205481565b60105481565b601d6020526000908152604090205481565b80516000908290610aa3575060009050610aab565b505060208101515b919050565b601a5481565b6021818154811061099b57fe5b600080610acf84610a8e565b60009081526020808052604082206001600160a01b039095169091529290925292915050565b6025818154811061099b57fe5b60095481565b600080610b1483610a8e565b6000908152602260205260409020546001600160a01b03169392505050565b6005546001600160a01b031681565b6003546001600160a01b03168156fea2646970667358221220a86940525e70af415415fa9c537896f4e7239d128bbcae944f68d6ffacad872c64736f6c634300060c0033",
    "sourcePath": "/Users/225153/Projects/proxy-test/contracts/StorageV1.sol",
    "compiler": {
        "name": "solc",
        "version": "0.6.12+commit.27d51765"
    },
    "functionHashes": {
        "YGYReserve()": "1dbf779e",
        "_NFTs(uint256)": "795d79f5",
        "_YGYRAMPair()": "2f4f8a7a",
        "_YGYToken()": "f7db38cb",
        "_YGYWETHPair()": "3b24bd4a",
        "_dXIOTToken()": "b81a0b4c",
        "addressStorageCount(uint256)": "6b42ee55",
        "booleanMapStorageCount(uint256)": "d6cf8021",
        "boostFees()": "09e3de41",
        "boostLevelCosts(uint256)": "469fcdcb",
        "boostLevelMultipliers(uint256)": "bcb49086",
        "cumulativeRewardsSinceStart()": "c8ffb873",
        "cumulativeYGYRewardsSinceStart()": "9649d76c",
        "epoch()": "900cf0cf",
        "epochCalculationStartBlock()": "5d577c18",
        "epochRewards(uint256)": "4dc47d34",
        "getAddressStorage(string)": "ee02ea1b",
        "getBooleanMapValue(string,address)": "e671fab5",
        "lastTicketLevel(address)": "cc40f664",
        "liquidityContributedEthValue(address)": "ad1414b2",
        "nftProperties(address,uint256)": "30d27e94",
        "pendingRewards()": "eded3fda",
        "pendingYGYRewards()": "8b6ff57b",
        "poolInfo(uint256)": "1526fe27",
        "ram()": "8f33b5e5",
        "ramVaultStartBlock()": "5a93e986",
        "regeneratoraddr()": "7d3b8da1",
        "rewardsInThisEpoch()": "608c8d3a",
        "stringToBytes32(string)": "cfb51928",
        "teamaddr()": "9a6d2711",
        "ticketCount()": "cfbd900f",
        "tickets(uint256)": "50b44712",
        "totalAllocPoint()": "17caf6f1",
        "uintStorageCount(uint256)": "e941c856",
        "userInfo(uint256,address)": "93f1a40b",
        "ygy()": "fb70c3bf"
    },
    "gasEstimates": {
        "creation": {
            "codeDepositCost": "590200",
            "executionCost": "625",
            "totalCost": "590825"
        },
        "external": {
            "YGYReserve()": "1111",
            "_NFTs(uint256)": "1212",
            "_YGYRAMPair()": "1083",
            "_YGYToken()": "1147",
            "_YGYWETHPair()": "1127",
            "_dXIOTToken()": "1104",
            "addressStorageCount(uint256)": "1976",
            "booleanMapStorageCount(uint256)": "2020",
            "boostFees()": "1045",
            "boostLevelCosts(uint256)": "1218",
            "boostLevelMultipliers(uint256)": "1195",
            "cumulativeRewardsSinceStart()": "1109",
            "cumulativeYGYRewardsSinceStart()": "1088",
            "epoch()": "1044",
            "epochCalculationStartBlock()": "1088",
            "epochRewards(uint256)": "1240",
            "getAddressStorage(string)": "infinite",
            "getBooleanMapValue(string,address)": "infinite",
            "lastTicketLevel(address)": "1257",
            "liquidityContributedEthValue(address)": "1169",
            "nftProperties(address,uint256)": "infinite",
            "pendingRewards()": "1064",
            "pendingYGYRewards()": "1109",
            "poolInfo(uint256)": "6245",
            "ram()": "1170",
            "ramVaultStartBlock()": "1066",
            "regeneratoraddr()": "1126",
            "rewardsInThisEpoch()": "1110",
            "stringToBytes32(string)": "infinite",
            "teamaddr()": "1149",
            "ticketCount()": "1065",
            "tickets(uint256)": "5371",
            "totalAllocPoint()": "1089",
            "uintStorageCount(uint256)": "1975",
            "userInfo(uint256,address)": "5450",
            "ygy()": "1169"
        }
    }
}