{
    "contractName": "VaultProxy",
    "abi": [
        {
            "anonymous": false,
            "inputs": [
                {
                    "indexed": true,
                    "internalType": "address",
                    "name": "previousOwner",
                    "type": "address"
                },
                {
                    "indexed": true,
                    "internalType": "address",
                    "name": "newOwner",
                    "type": "address"
                }
            ],
            "name": "OwnershipTransferred",
            "type": "event"
        },
        {
            "stateMutability": "payable",
            "type": "fallback"
        },
        {
            "inputs": [
                {
                    "internalType": "address",
                    "name": "_implementation",
                    "type": "address"
                },
                {
                    "internalType": "address",
                    "name": "",
                    "type": "address"
                }
            ],
            "name": "initialize",
            "outputs": [],
            "stateMutability": "nonpayable",
            "type": "function"
        },
        {
            "inputs": [],
            "name": "owner",
            "outputs": [
                {
                    "internalType": "address",
                    "name": "",
                    "type": "address"
                }
            ],
            "stateMutability": "view",
            "type": "function"
        },
        {
            "inputs": [],
            "name": "renounceOwnership",
            "outputs": [],
            "stateMutability": "nonpayable",
            "type": "function"
        },
        {
            "inputs": [
                {
                    "internalType": "address",
                    "name": "newOwner",
                    "type": "address"
                }
            ],
            "name": "transferOwnership",
            "outputs": [],
            "stateMutability": "nonpayable",
            "type": "function"
        },
        {
            "stateMutability": "payable",
            "type": "receive"
        }
    ],
    "bytecode": "608060405234801561001057600080fd5b506103eb806100206000396000f3fe6080604052600436106100435760003560e01c8063485cc9551461007a578063715018a6146100b75780638da5cb5b146100cc578063f2fde38b146100fd5761004a565b3661004a57005b6097546001600160a01b03163660008037600080366000845af43d6000803e808015610075573d6000f35b3d6000fd5b34801561008657600080fd5b506100b56004803603604081101561009d57600080fd5b506001600160a01b0381358116916020013516610130565b005b3480156100c357600080fd5b506100b56101bd565b3480156100d857600080fd5b506100e1610271565b604080516001600160a01b039092168252519081900360200190f35b34801561010957600080fd5b506100b56004803603602081101561012057600080fd5b50356001600160a01b0316610280565b61013861038b565b6065546001600160a01b0390811691161461019a576040805162461bcd60e51b815260206004820181905260248201527f4f776e61626c653a2063616c6c6572206973206e6f7420746865206f776e6572604482015290519081900360640190fd5b50609780546001600160a01b0319166001600160a01b0392909216919091179055565b6101c561038b565b6065546001600160a01b03908116911614610227576040805162461bcd60e51b815260206004820181905260248201527f4f776e61626c653a2063616c6c6572206973206e6f7420746865206f776e6572604482015290519081900360640190fd5b6065546040516000916001600160a01b0316907f8be0079c531659141344cd1fd0a4f28419497f9722a3daafe3b4186f6b6457e0908390a3606580546001600160a01b0319169055565b6065546001600160a01b031690565b61028861038b565b6065546001600160a01b039081169116146102ea576040805162461bcd60e51b815260206004820181905260248201527f4f776e61626c653a2063616c6c6572206973206e6f7420746865206f776e6572604482015290519081900360640190fd5b6001600160a01b03811661032f5760405162461bcd60e51b81526004018080602001828103825260268152602001806103906026913960400191505060405180910390fd5b6065546040516001600160a01b038084169216907f8be0079c531659141344cd1fd0a4f28419497f9722a3daafe3b4186f6b6457e090600090a3606580546001600160a01b0319166001600160a01b0392909216919091179055565b339056fe4f776e61626c653a206e6577206f776e657220697320746865207a65726f2061646472657373a2646970667358221220b7d670b7c8f091395fc7adfe27b57c3e9b295699f59c8b44430375d4baa5e61a64736f6c634300060c0033",
    "sourcePath": "/Users/225153/Projects/proxy-test/contracts/VaultProxy.sol",
    "compiler": {
        "name": "solc",
        "version": "0.6.12+commit.27d51765"
    },
    "functionHashes": {
        "initialize(address,address)": "485cc955",
        "owner()": "8da5cb5b",
        "renounceOwnership()": "715018a6",
        "transferOwnership(address)": "f2fde38b"
    },
    "gasEstimates": {
        "creation": {
            "codeDepositCost": "200600",
            "executionCost": "245",
            "totalCost": "200845"
        },
        "external": {
            "": "infinite",
            "initialize(address,address)": "21953",
            "owner()": "1059",
            "renounceOwnership()": "24201",
            "transferOwnership(address)": "infinite"
        }
    }
}