{
    "contractName": "YGYStorageV1",
    "abi": [
        {
            "anonymous": false,
            "inputs": [
                {
                    "indexed": true,
                    "internalType": "bytes32",
                    "name": "role",
                    "type": "bytes32"
                },
                {
                    "indexed": true,
                    "internalType": "address",
                    "name": "account",
                    "type": "address"
                },
                {
                    "indexed": true,
                    "internalType": "address",
                    "name": "sender",
                    "type": "address"
                }
            ],
            "name": "RoleGranted",
            "type": "event"
        },
        {
            "anonymous": false,
            "inputs": [
                {
                    "indexed": true,
                    "internalType": "bytes32",
                    "name": "role",
                    "type": "bytes32"
                },
                {
                    "indexed": true,
                    "internalType": "address",
                    "name": "account",
                    "type": "address"
                },
                {
                    "indexed": true,
                    "internalType": "address",
                    "name": "sender",
                    "type": "address"
                }
            ],
            "name": "RoleRevoked",
            "type": "event"
        },
        {
            "inputs": [],
            "name": "DEFAULT_ADMIN_ROLE",
            "outputs": [
                {
                    "internalType": "bytes32",
                    "name": "",
                    "type": "bytes32"
                }
            ],
            "stateMutability": "view",
            "type": "function"
        },
        {
            "inputs": [],
            "name": "MODIFIER_ROLE",
            "outputs": [
                {
                    "internalType": "bytes32",
                    "name": "",
                    "type": "bytes32"
                }
            ],
            "stateMutability": "view",
            "type": "function"
        },
        {
            "inputs": [],
            "name": "RAMVaultStartBlock",
            "outputs": [
                {
                    "internalType": "uint256",
                    "name": "",
                    "type": "uint256"
                }
            ],
            "stateMutability": "view",
            "type": "function"
        },
        {
            "inputs": [],
            "name": "YGYReserve",
            "outputs": [
                {
                    "internalType": "uint256",
                    "name": "",
                    "type": "uint256"
                }
            ],
            "stateMutability": "view",
            "type": "function"
        },
        {
            "inputs": [
                {
                    "internalType": "uint256",
                    "name": "",
                    "type": "uint256"
                }
            ],
            "name": "_NFTs",
            "outputs": [
                {
                    "internalType": "address",
                    "name": "",
                    "type": "address"
                }
            ],
            "stateMutability": "view",
            "type": "function"
        },
        {
            "inputs": [],
            "name": "_RAMToken",
            "outputs": [
                {
                    "internalType": "address",
                    "name": "",
                    "type": "address"
                }
            ],
            "stateMutability": "view",
            "type": "function"
        },
        {
            "inputs": [],
            "name": "_WETH",
            "outputs": [
                {
                    "internalType": "contract IWETH",
                    "name": "",
                    "type": "address"
                }
            ],
            "stateMutability": "view",
            "type": "function"
        },
        {
            "inputs": [],
            "name": "_YGYRAMPair",
            "outputs": [
                {
                    "internalType": "address",
                    "name": "",
                    "type": "address"
                }
            ],
            "stateMutability": "view",
            "type": "function"
        },
        {
            "inputs": [],
            "name": "_YGYToken",
            "outputs": [
                {
                    "internalType": "address",
                    "name": "",
                    "type": "address"
                }
            ],
            "stateMutability": "view",
            "type": "function"
        },
        {
            "inputs": [],
            "name": "_YGYWETHPair",
            "outputs": [
                {
                    "internalType": "address",
                    "name": "",
                    "type": "address"
                }
            ],
            "stateMutability": "view",
            "type": "function"
        },
        {
            "inputs": [],
            "name": "_dXIOTToken",
            "outputs": [
                {
                    "internalType": "contract IERC20",
                    "name": "",
                    "type": "address"
                }
            ],
            "stateMutability": "view",
            "type": "function"
        },
        {
            "inputs": [
                {
                    "internalType": "uint256",
                    "name": "",
                    "type": "uint256"
                }
            ],
            "name": "addressStorageCount",
            "outputs": [
                {
                    "internalType": "uint256",
                    "name": "",
                    "type": "uint256"
                }
            ],
            "stateMutability": "view",
            "type": "function"
        },
        {
            "inputs": [
                {
                    "internalType": "uint256",
                    "name": "",
                    "type": "uint256"
                }
            ],
            "name": "booleanMapStorageCount",
            "outputs": [
                {
                    "internalType": "uint256",
                    "name": "",
                    "type": "uint256"
                }
            ],
            "stateMutability": "view",
            "type": "function"
        },
        {
            "inputs": [],
            "name": "boostFees",
            "outputs": [
                {
                    "internalType": "uint256",
                    "name": "",
                    "type": "uint256"
                }
            ],
            "stateMutability": "view",
            "type": "function"
        },
        {
            "inputs": [
                {
                    "internalType": "uint256",
                    "name": "",
                    "type": "uint256"
                }
            ],
            "name": "boostLevelCosts",
            "outputs": [
                {
                    "internalType": "uint256",
                    "name": "",
                    "type": "uint256"
                }
            ],
            "stateMutability": "view",
            "type": "function"
        },
        {
            "inputs": [
                {
                    "internalType": "uint256",
                    "name": "",
                    "type": "uint256"
                }
            ],
            "name": "boostLevelMultipliers",
            "outputs": [
                {
                    "internalType": "uint256",
                    "name": "",
                    "type": "uint256"
                }
            ],
            "stateMutability": "view",
            "type": "function"
        },
        {
            "inputs": [
                {
                    "internalType": "uint256",
                    "name": "_pid",
                    "type": "uint256"
                },
                {
                    "internalType": "address",
                    "name": "_user",
                    "type": "address"
                }
            ],
            "name": "checkRewards",
            "outputs": [
                {
                    "internalType": "uint256",
                    "name": "pendingRAM",
                    "type": "uint256"
                },
                {
                    "internalType": "uint256",
                    "name": "pendingYGY",
                    "type": "uint256"
                }
            ],
            "stateMutability": "view",
            "type": "function"
        },
        {
            "inputs": [],
            "name": "cumulativeRewardsSinceStart",
            "outputs": [
                {
                    "internalType": "uint256",
                    "name": "",
                    "type": "uint256"
                }
            ],
            "stateMutability": "view",
            "type": "function"
        },
        {
            "inputs": [],
            "name": "cumulativeYGYRewardsSinceStart",
            "outputs": [
                {
                    "internalType": "uint256",
                    "name": "",
                    "type": "uint256"
                }
            ],
            "stateMutability": "view",
            "type": "function"
        },
        {
            "inputs": [],
            "name": "epoch",
            "outputs": [
                {
                    "internalType": "uint256",
                    "name": "",
                    "type": "uint256"
                }
            ],
            "stateMutability": "view",
            "type": "function"
        },
        {
            "inputs": [],
            "name": "epochCalculationStartBlock",
            "outputs": [
                {
                    "internalType": "uint256",
                    "name": "",
                    "type": "uint256"
                }
            ],
            "stateMutability": "view",
            "type": "function"
        },
        {
            "inputs": [
                {
                    "internalType": "uint256",
                    "name": "",
                    "type": "uint256"
                }
            ],
            "name": "epochRewards",
            "outputs": [
                {
                    "internalType": "uint256",
                    "name": "",
                    "type": "uint256"
                }
            ],
            "stateMutability": "view",
            "type": "function"
        },
        {
            "inputs": [
                {
                    "internalType": "string",
                    "name": "_key",
                    "type": "string"
                }
            ],
            "name": "getAddressStorage",
            "outputs": [
                {
                    "internalType": "address",
                    "name": "",
                    "type": "address"
                }
            ],
            "stateMutability": "view",
            "type": "function"
        },
        {
            "inputs": [
                {
                    "internalType": "string",
                    "name": "_key",
                    "type": "string"
                },
                {
                    "internalType": "address",
                    "name": "_address",
                    "type": "address"
                }
            ],
            "name": "getBooleanMapValue",
            "outputs": [
                {
                    "internalType": "bool",
                    "name": "",
                    "type": "bool"
                }
            ],
            "stateMutability": "view",
            "type": "function"
        },
        {
            "inputs": [
                {
                    "internalType": "uint256",
                    "name": "_level",
                    "type": "uint256"
                }
            ],
            "name": "getBoostLevelCost",
            "outputs": [
                {
                    "internalType": "uint256",
                    "name": "",
                    "type": "uint256"
                }
            ],
            "stateMutability": "view",
            "type": "function"
        },
        {
            "inputs": [
                {
                    "internalType": "uint256",
                    "name": "_level",
                    "type": "uint256"
                }
            ],
            "name": "getBoostLevelMultiplier",
            "outputs": [
                {
                    "internalType": "uint256",
                    "name": "",
                    "type": "uint256"
                }
            ],
            "stateMutability": "view",
            "type": "function"
        },
        {
            "inputs": [
                {
                    "internalType": "uint256",
                    "name": "_epoch",
                    "type": "uint256"
                }
            ],
            "name": "getEpochRewards",
            "outputs": [
                {
                    "internalType": "uint256",
                    "name": "",
                    "type": "uint256"
                }
            ],
            "stateMutability": "view",
            "type": "function"
        },
        {
            "inputs": [
                {
                    "internalType": "uint256",
                    "name": "_contractId",
                    "type": "uint256"
                }
            ],
            "name": "getNFTAddress",
            "outputs": [
                {
                    "internalType": "address",
                    "name": "",
                    "type": "address"
                }
            ],
            "stateMutability": "view",
            "type": "function"
        },
        {
            "inputs": [
                {
                    "internalType": "uint256",
                    "name": "_contractId",
                    "type": "uint256"
                },
                {
                    "internalType": "uint256",
                    "name": "_index",
                    "type": "uint256"
                }
            ],
            "name": "getNFTProperty",
            "outputs": [
                {
                    "internalType": "string",
                    "name": "",
                    "type": "string"
                },
                {
                    "internalType": "uint256",
                    "name": "",
                    "type": "uint256"
                },
                {
                    "internalType": "bytes32",
                    "name": "",
                    "type": "bytes32"
                }
            ],
            "stateMutability": "view",
            "type": "function"
        },
        {
            "inputs": [
                {
                    "internalType": "uint256",
                    "name": "_contractId",
                    "type": "uint256"
                }
            ],
            "name": "getNFTPropertyCount",
            "outputs": [
                {
                    "internalType": "uint256",
                    "name": "",
                    "type": "uint256"
                }
            ],
            "stateMutability": "view",
            "type": "function"
        },
        {
            "inputs": [
                {
                    "internalType": "uint256",
                    "name": "_poolId",
                    "type": "uint256"
                }
            ],
            "name": "getPoolInfo",
            "outputs": [
                {
                    "internalType": "contract IERC20",
                    "name": "_token",
                    "type": "address"
                },
                {
                    "internalType": "uint256",
                    "name": "_allocPointt",
                    "type": "uint256"
                },
                {
                    "internalType": "uint256",
                    "name": "_accRAMPerShare",
                    "type": "uint256"
                },
                {
                    "internalType": "uint256",
                    "name": "_accYGYPerShare",
                    "type": "uint256"
                },
                {
                    "internalType": "bool",
                    "name": "_withdrawable",
                    "type": "bool"
                },
                {
                    "internalType": "uint256",
                    "name": "_effectiveAdditionalTokensFromBoosts",
                    "type": "uint256"
                }
            ],
            "stateMutability": "view",
            "type": "function"
        },
        {
            "inputs": [
                {
                    "internalType": "bytes32",
                    "name": "role",
                    "type": "bytes32"
                }
            ],
            "name": "getRoleAdmin",
            "outputs": [
                {
                    "internalType": "bytes32",
                    "name": "",
                    "type": "bytes32"
                }
            ],
            "stateMutability": "view",
            "type": "function"
        },
        {
            "inputs": [
                {
                    "internalType": "bytes32",
                    "name": "role",
                    "type": "bytes32"
                },
                {
                    "internalType": "uint256",
                    "name": "index",
                    "type": "uint256"
                }
            ],
            "name": "getRoleMember",
            "outputs": [
                {
                    "internalType": "address",
                    "name": "",
                    "type": "address"
                }
            ],
            "stateMutability": "view",
            "type": "function"
        },
        {
            "inputs": [
                {
                    "internalType": "bytes32",
                    "name": "role",
                    "type": "bytes32"
                }
            ],
            "name": "getRoleMemberCount",
            "outputs": [
                {
                    "internalType": "uint256",
                    "name": "",
                    "type": "uint256"
                }
            ],
            "stateMutability": "view",
            "type": "function"
        },
        {
            "inputs": [
                {
                    "internalType": "uint256",
                    "name": "_poolId",
                    "type": "uint256"
                },
                {
                    "internalType": "address",
                    "name": "_user",
                    "type": "address"
                }
            ],
            "name": "getUserInfo",
            "outputs": [
                {
                    "internalType": "uint256",
                    "name": "amount",
                    "type": "uint256"
                },
                {
                    "internalType": "uint256",
                    "name": "rewardDebt",
                    "type": "uint256"
                },
                {
                    "internalType": "uint256",
                    "name": "rewardDebtYGY",
                    "type": "uint256"
                },
                {
                    "internalType": "uint256",
                    "name": "boostAmount",
                    "type": "uint256"
                },
                {
                    "internalType": "uint256",
                    "name": "boostLevel",
                    "type": "uint256"
                },
                {
                    "internalType": "uint256",
                    "name": "spentMultiplierTokens",
                    "type": "uint256"
                }
            ],
            "stateMutability": "view",
            "type": "function"
        },
        {
            "inputs": [
                {
                    "internalType": "bytes32",
                    "name": "role",
                    "type": "bytes32"
                },
                {
                    "internalType": "address",
                    "name": "account",
                    "type": "address"
                }
            ],
            "name": "grantRole",
            "outputs": [],
            "stateMutability": "nonpayable",
            "type": "function"
        },
        {
            "inputs": [
                {
                    "internalType": "bytes32",
                    "name": "role",
                    "type": "bytes32"
                },
                {
                    "internalType": "address",
                    "name": "account",
                    "type": "address"
                }
            ],
            "name": "hasRole",
            "outputs": [
                {
                    "internalType": "bool",
                    "name": "",
                    "type": "bool"
                }
            ],
            "stateMutability": "view",
            "type": "function"
        },
        {
            "inputs": [],
            "name": "initialize",
            "outputs": [],
            "stateMutability": "nonpayable",
            "type": "function"
        },
        {
            "inputs": [
                {
                    "internalType": "address",
                    "name": "_ram",
                    "type": "address"
                },
                {
                    "internalType": "address",
                    "name": "_ygy",
                    "type": "address"
                },
                {
                    "internalType": "address",
                    "name": "_teamaddr",
                    "type": "address"
                },
                {
                    "internalType": "address",
                    "name": "_regeneratoraddr",
                    "type": "address"
                }
            ],
            "name": "initializeRAMVault",
            "outputs": [],
            "stateMutability": "nonpayable",
            "type": "function"
        },
        {
            "inputs": [
                {
                    "internalType": "address",
                    "name": "",
                    "type": "address"
                }
            ],
            "name": "lastTicketLevel",
            "outputs": [
                {
                    "internalType": "uint256",
                    "name": "",
                    "type": "uint256"
                }
            ],
            "stateMutability": "view",
            "type": "function"
        },
        {
            "inputs": [
                {
                    "internalType": "address",
                    "name": "",
                    "type": "address"
                }
            ],
            "name": "liquidityContributedEthValue",
            "outputs": [
                {
                    "internalType": "uint256",
                    "name": "",
                    "type": "uint256"
                }
            ],
            "stateMutability": "view",
            "type": "function"
        },
        {
            "inputs": [
                {
                    "internalType": "address",
                    "name": "",
                    "type": "address"
                },
                {
                    "internalType": "uint256",
                    "name": "",
                    "type": "uint256"
                }
            ],
            "name": "nftProperties",
            "outputs": [
                {
                    "internalType": "string",
                    "name": "pType",
                    "type": "string"
                },
                {
                    "internalType": "uint256",
                    "name": "pValue",
                    "type": "uint256"
                },
                {
                    "internalType": "bytes32",
                    "name": "extra",
                    "type": "bytes32"
                }
            ],
            "stateMutability": "view",
            "type": "function"
        },
        {
            "inputs": [],
            "name": "pendingRewards",
            "outputs": [
                {
                    "internalType": "uint256",
                    "name": "",
                    "type": "uint256"
                }
            ],
            "stateMutability": "view",
            "type": "function"
        },
        {
            "inputs": [],
            "name": "pendingYGYRewards",
            "outputs": [
                {
                    "internalType": "uint256",
                    "name": "",
                    "type": "uint256"
                }
            ],
            "stateMutability": "view",
            "type": "function"
        },
        {
            "inputs": [
                {
                    "internalType": "uint256",
                    "name": "",
                    "type": "uint256"
                }
            ],
            "name": "poolInfo",
            "outputs": [
                {
                    "internalType": "contract IERC20",
                    "name": "token",
                    "type": "address"
                },
                {
                    "internalType": "uint256",
                    "name": "allocPoint",
                    "type": "uint256"
                },
                {
                    "internalType": "uint256",
                    "name": "accRAMPerShare",
                    "type": "uint256"
                },
                {
                    "internalType": "uint256",
                    "name": "accYGYPerShare",
                    "type": "uint256"
                },
                {
                    "internalType": "bool",
                    "name": "withdrawable",
                    "type": "bool"
                },
                {
                    "internalType": "uint256",
                    "name": "effectiveAdditionalTokensFromBoosts",
                    "type": "uint256"
                }
            ],
            "stateMutability": "view",
            "type": "function"
        },
        {
            "inputs": [],
            "name": "poolLength",
            "outputs": [
                {
                    "internalType": "uint256",
                    "name": "",
                    "type": "uint256"
                }
            ],
            "stateMutability": "view",
            "type": "function"
        },
        {
            "inputs": [],
            "name": "ram",
            "outputs": [
                {
                    "internalType": "contract INBUNIERC20",
                    "name": "",
                    "type": "address"
                }
            ],
            "stateMutability": "view",
            "type": "function"
        },
        {
            "inputs": [],
            "name": "regeneratoraddr",
            "outputs": [
                {
                    "internalType": "address",
                    "name": "",
                    "type": "address"
                }
            ],
            "stateMutability": "view",
            "type": "function"
        },
        {
            "inputs": [
                {
                    "internalType": "bytes32",
                    "name": "role",
                    "type": "bytes32"
                },
                {
                    "internalType": "address",
                    "name": "account",
                    "type": "address"
                }
            ],
            "name": "renounceRole",
            "outputs": [],
            "stateMutability": "nonpayable",
            "type": "function"
        },
        {
            "inputs": [
                {
                    "internalType": "bytes32",
                    "name": "role",
                    "type": "bytes32"
                },
                {
                    "internalType": "address",
                    "name": "account",
                    "type": "address"
                }
            ],
            "name": "revokeRole",
            "outputs": [],
            "stateMutability": "nonpayable",
            "type": "function"
        },
        {
            "inputs": [],
            "name": "rewardsInThisEpoch",
            "outputs": [
                {
                    "internalType": "uint256",
                    "name": "",
                    "type": "uint256"
                }
            ],
            "stateMutability": "view",
            "type": "function"
        },
        {
            "inputs": [
                {
                    "internalType": "address",
                    "name": "RAMToken",
                    "type": "address"
                },
                {
                    "internalType": "address",
                    "name": "YGYToken",
                    "type": "address"
                },
                {
                    "internalType": "address",
                    "name": "WETH",
                    "type": "address"
                },
                {
                    "internalType": "address",
                    "name": "YGYRAMPair",
                    "type": "address"
                },
                {
                    "internalType": "address",
                    "name": "YGYWethPair",
                    "type": "address"
                },
                {
                    "internalType": "address[]",
                    "name": "nfts",
                    "type": "address[]"
                },
                {
                    "internalType": "address",
                    "name": "dXIOTToken",
                    "type": "address"
                }
            ],
            "name": "setTokens",
            "outputs": [],
            "stateMutability": "nonpayable",
            "type": "function"
        },
        {
            "inputs": [
                {
                    "internalType": "string",
                    "name": "source",
                    "type": "string"
                }
            ],
            "name": "stringToBytes32",
            "outputs": [
                {
                    "internalType": "bytes32",
                    "name": "result",
                    "type": "bytes32"
                }
            ],
            "stateMutability": "pure",
            "type": "function"
        },
        {
            "inputs": [],
            "name": "teamaddr",
            "outputs": [
                {
                    "internalType": "address",
                    "name": "",
                    "type": "address"
                }
            ],
            "stateMutability": "view",
            "type": "function"
        },
        {
            "inputs": [],
            "name": "ticketCount",
            "outputs": [
                {
                    "internalType": "uint256",
                    "name": "",
                    "type": "uint256"
                }
            ],
            "stateMutability": "view",
            "type": "function"
        },
        {
            "inputs": [
                {
                    "internalType": "uint256",
                    "name": "",
                    "type": "uint256"
                }
            ],
            "name": "tickets",
            "outputs": [
                {
                    "internalType": "address",
                    "name": "owner",
                    "type": "address"
                },
                {
                    "internalType": "uint256",
                    "name": "levelOneChance",
                    "type": "uint256"
                },
                {
                    "internalType": "uint256",
                    "name": "levelTwoChance",
                    "type": "uint256"
                },
                {
                    "internalType": "uint256",
                    "name": "levelThreeChance",
                    "type": "uint256"
                },
                {
                    "internalType": "uint256",
                    "name": "levelFourChance",
                    "type": "uint256"
                },
                {
                    "internalType": "uint256",
                    "name": "levelFiveChance",
                    "type": "uint256"
                }
            ],
            "stateMutability": "view",
            "type": "function"
        },
        {
            "inputs": [],
            "name": "totalAllocPoint",
            "outputs": [
                {
                    "internalType": "uint256",
                    "name": "",
                    "type": "uint256"
                }
            ],
            "stateMutability": "view",
            "type": "function"
        },
        {
            "inputs": [
                {
                    "internalType": "uint256",
                    "name": "",
                    "type": "uint256"
                }
            ],
            "name": "uintStorageCount",
            "outputs": [
                {
                    "internalType": "uint256",
                    "name": "",
                    "type": "uint256"
                }
            ],
            "stateMutability": "view",
            "type": "function"
        },
        {
            "inputs": [
                {
                    "internalType": "uint256[]",
                    "name": "_boostMultipliers",
                    "type": "uint256[]"
                },
                {
                    "internalType": "uint256[]",
                    "name": "_boostCosts",
                    "type": "uint256[]"
                }
            ],
            "name": "updateBoosts",
            "outputs": [],
            "stateMutability": "nonpayable",
            "type": "function"
        },
        {
            "inputs": [
                {
                    "internalType": "uint256",
                    "name": "",
                    "type": "uint256"
                },
                {
                    "internalType": "address",
                    "name": "",
                    "type": "address"
                }
            ],
            "name": "userInfo",
            "outputs": [
                {
                    "internalType": "uint256",
                    "name": "amount",
                    "type": "uint256"
                },
                {
                    "internalType": "uint256",
                    "name": "rewardDebt",
                    "type": "uint256"
                },
                {
                    "internalType": "uint256",
                    "name": "rewardDebtYGY",
                    "type": "uint256"
                },
                {
                    "internalType": "uint256",
                    "name": "boostAmount",
                    "type": "uint256"
                },
                {
                    "internalType": "uint256",
                    "name": "boostLevel",
                    "type": "uint256"
                },
                {
                    "internalType": "uint256",
                    "name": "spentMultiplierTokens",
                    "type": "uint256"
                }
            ],
            "stateMutability": "view",
            "type": "function"
        },
        {
            "inputs": [],
            "name": "ygy",
            "outputs": [
                {
                    "internalType": "contract IERC20",
                    "name": "",
                    "type": "address"
                }
            ],
            "stateMutability": "view",
            "type": "function"
        }
    ],
    "bytecode": "608060405234801561001057600080fd5b5061222b806100206000396000f3fe608060405234801561001057600080fd5b50600436106103af5760003560e01c80638129fc1c116101f4578063bcb490861161011a578063e0af3616116100ad578063ee02ea1b1161007c578063ee02ea1b14610777578063f7db38cb1461078a578063fa69669c14610792578063fb70c3bf1461079a576103af565b8063e0af361614610741578063e671fab514610749578063e941c8561461075c578063eded3fda1461076f576103af565b8063cfb51928116100e9578063cfb5192814610700578063cfbd900f14610713578063d547741f1461071b578063d6cf80211461072e576103af565b8063bcb49086146106bf578063c8ffb873146106d2578063ca15c873146106da578063cc40f664146106ed576103af565b80639649d76c11610192578063a5f8ace811610161578063a5f8ace81461067e578063ad1414b214610691578063b2f4b44a146106a4578063b81a0b4c146106b7576103af565b80639649d76c146106535780639a6d27111461065b5780639d18f77314610663578063a217fddf14610676576103af565b8063900cf0cf116101ce578063900cf0cf146106055780639010d07c1461060d57806391d148541461062057806393f1a40b14610640576103af565b80638129fc1c146105ed5780638b6ff57b146105f55780638f33b5e5146105fd576103af565b806336644334116102d95780635f0c0f2b116102775780636b42ee55116102465780636b42ee55146105b75780637575aa8a146105ca578063795d79f5146105d25780637d3b8da1146105e5576103af565b80635f0c0f2b14610576578063608c8d3a146105895780636798f19f146105915780636a9d1f6f146105a4576103af565b80634dc47d34116102b35780634dc47d341461052357806350b44712146105365780635498d4c01461055b5780635d577c181461056e576103af565b806336644334146104f55780633b24bd4a14610508578063469fcdcb14610510576103af565b80631dbf779e116103515780632f4f8a7a116103205780632f4f8a7a146104a357806330d27e94146104b857806331db122c146104da57806336568abe146104e2576103af565b80631dbf779e14610460578063248a9ca3146104685780632f2ff15d1461047b5780632f380b3514610490576103af565b806310178d9c1161038d57806310178d9c146103ed5780631069f3b51461040e5780631526fe271461043357806317caf6f114610458576103af565b8063081e3eda146103b457806309e3de41146103d25780630a08f1d4146103da575b600080fd5b6103bc6107a2565b6040516103c99190611eec565b60405180910390f35b6103bc6107a8565b6103bc6103e8366004611d31565b6107ae565b6104006103fb366004611e2c565b6108d5565b6040516103c9929190612158565b61042161041c366004611e2c565b6109a7565b6040516103c996959493929190612166565b610446610441366004611d31565b610a37565b6040516103c996959493929190611ef5565b6103bc610a8a565b6103bc610a90565b6103bc610476366004611d31565b610a96565b61048e610489366004611d49565b610aab565b005b61044661049e366004611d31565b610afc565b6104ab610b9c565b6040516103c99190611e9a565b6104cb6104c6366004611ca6565b610bab565b6040516103c993929190611f3d565b6103bc610c73565b61048e6104f0366004611d49565b610c79565b61048e610503366004611b4b565b610cbb565b6104ab610efb565b6103bc61051e366004611d31565b610f0a565b6103bc610531366004611d31565b610f1c565b610549610544366004611d31565b610f2e565b6040516103c996959493929190611eae565b6104cb610569366004611d83565b610f6d565b6103bc611097565b6103bc610584366004611d31565b61109d565b6103bc6110af565b6103bc61059f366004611d31565b6110b5565b6103bc6105b2366004611d31565b6110c7565b6103bc6105c5366004611d31565b6110d9565b6103bc6110f7565b6104ab6105e0366004611d31565b611109565b6104ab611124565b61048e611133565b6103bc6111eb565b6104ab6111f1565b6103bc611200565b6104ab61061b366004611d83565b611206565b61063361062e366004611d49565b611227565b6040516103c99190611ee1565b61042161064e366004611e2c565b61123f565b6103bc61127f565b6104ab611285565b6104ab610671366004611d31565b611294565b6103bc6112af565b61048e61068c366004611ba2565b6112b4565b6103bc61069f366004611b30565b61139f565b61048e6106b2366004611cd0565b6113b1565b6104ab611455565b6103bc6106cd366004611d31565b611464565b6103bc611476565b6103bc6106e8366004611d31565b61147c565b6103bc6106fb366004611b30565b611493565b6103bc61070e366004611da4565b6114a5565b6103bc6114c3565b61048e610729366004611d49565b6114c9565b6103bc61073c366004611d31565b611503565b6104ab611510565b610633610757366004611ddf565b61151f565b6103bc61076a366004611d31565b611553565b6103bc611560565b6104ab610785366004611da4565b611566565b6104ab611591565b6104ab6115a0565b6104ab6115af565b60985490565b60af5481565b600081815260b760209081526040808320546001600160a01b031680845260b88352818420805483518186028101860190945280845291936060939290869084015b828210156108c55760008481526020908190206040805160038602909201805460026001821615610100026000190190911604601f81018590049094028301608090810190925260608301848152929390928492909184918401828280156108995780601f1061086e57610100808354040283529160200191610899565b820191906000526020600020905b81548152906001019060200180831161087c57829003601f168201915b5050505050815260200160018201548152602001600282015481525050815260200190600101906107f0565b505091519450505050505b919050565b6000806000609885815481106108e757fe5b600091825260208083208884526097825260408085206001600160a01b038a1686529092529083206003810154815460079094029092019450929161092b916115be565b9050600080846003015411156109725761096f836002015461096964e8d4a510006109638860030154876115e390919063ffffffff16565b9061161d565b9061165f565b90505b61099a836001015461096964e8d4a510006109638860020154876115e390919063ffffffff16565b9890975095505050505050565b6000806000806000806109b86119a7565b505050600095865250506097602090815260408086206001600160a01b0395909516865293815293839020835160c08101855281548082526001830154968201879052600283015495820186905260038301546060830181905260048401546080840181905260059094015460a0909301839052909790945091925090565b60988181548110610a4457fe5b60009182526020909120600790910201805460018201546002830154600384015460048501546006909501546001600160a01b0390941695509193909260ff9091169086565b60995481565b609c5481565b60009081526065602052604090206002015490565b600082815260656020526040902060020154610ac99061062e6116a1565b610aee5760405162461bcd60e51b8152600401610ae590611fa4565b60405180910390fd5b610af882826116a5565b5050565b600080600080600080610b0d6119dd565b60988881548110610b1a57fe5b60009182526020918290206040805160c08101825260079390930290910180546001600160a01b031680845260018201549484018590526002820154928401839052600382015460608501819052600483015460ff1615156080860181905260069093015460a0909501859052909d949c50919a509098509650945092505050565b60a9546001600160a01b031681565b60b86020528160005260406000208181548110610bc457fe5b60009182526020918290206003919091020180546040805160026001841615610100026000190190931692909204601f810185900485028301850190915280825291945092508391830182828015610c5d5780601f10610c3257610100808354040283529160200191610c5d565b820191906000526020600020905b815481529060010190602001808311610c4057829003601f168201915b5050505050908060010154908060020154905083565b609f5481565b610c816116a1565b6001600160a01b0316816001600160a01b031614610cb15760405162461bcd60e51b8152600401610ae590612109565b610af8828261170e565b600054610100900460ff1680610cd45750610cd4611777565b80610ce2575060005460ff16155b610cfe5760405162461bcd60e51b8152600401610ae5906120bb565b600054610100900460ff16158015610d29576000805460ff1961ff0019909116610100171660011790555b610d436000805160206121d683398151915261062e6116a1565b610d4c57600080fd5b60a780546001600160a01b038088166001600160a01b03199283161790925560a8805487841690831617905560a6805486841690831617905560a580549285169290911691909117905543609f55674563918244f400007f2ece0d27245ca4a357e8d077613a722d4d1521036879824658dc484c52c7c0a15567d02ab486cedc00007f6e01826bd384b53cadd411dfb0d7b9bb8347fa1fdfb968d963ab9753a36f3ee1556801a055690d9db800007f1b47d0ec8866f11488ba3f9889b2cb3acfff2dfb8ebe8a1c3bdcf69e2f06577e55680340aad21b3b7000007f4a1be165f25a7987e337edc4e6b4ebb4f17cf12ecbb3dc24632b9c6b8bcff4ce5560b160205260057fd7e297a316c321c40332cfb8dc1701afefe5c7db49edec748122ee7e43d355c455600f7f7ae7ad9a4c32d2f3e019743ac18a175616ca69d351bbf6528cf9a64ce6017f7255601e7f8ad2446af2a0369fe8964797f78858d5dc0e301ab1acc8cdf1f7252f94e5c061556004600052603c7f8a66bef5dd30a7468a9bb314b1a60dbb73161e7e2f190bd4e69027c3498b6fa5558015610ef4576000805461ff00191690555b5050505050565b60ab546001600160a01b031681565b60b06020526000908152604090205481565b60b26020526000908152604090205481565b60b4602052600090815260409020805460018201546002830154600384015460048501546005909501546001600160a01b039094169492939192909186565b600082815260b760205260408120546060919081906001600160a01b0316610f93611a1e565b6001600160a01b038216600090815260b860205260409020805487908110610fb757fe5b600091825260209182902060408051600393909302909101805460026001821615610100026000190190911604601f810185900490940283016080908101909252606083018481529293909284929091849184018282801561105a5780601f1061102f5761010080835404028352916020019161105a565b820191906000526020600020905b81548152906001019060200180831161103d57829003601f168201915b5050505050815260200160018201548152602001600282015481525050905080600001518160200151826040015194509450945050509250925092565b60a05481565b600090815260b2602052604090205490565b60a35481565b600090815260b1602052604090205490565b600090815260b0602052604090205490565b60bc81815481106110e657fe5b600091825260209091200154905081565b6000805160206121d683398151915281565b60b7602052600090815260409020546001600160a01b031681565b60a5546001600160a01b031681565b600054610100900460ff168061114c575061114c611777565b8061115a575060005460ff16155b6111765760405162461bcd60e51b8152600401610ae5906120bb565b600054610100900460ff161580156111a1576000805460ff1961ff0019909116610100171660011790555b6111ae600061062e6116a1565b6111b757600080fd5b6111d66000805160206121d68339815191526111d16116a1565b610aee565b80156111e8576000805461ff00191690555b50565b609b5481565b60a7546001600160a01b031681565b60a45481565b600082815260656020526040812061121e908361177d565b90505b92915050565b600082815260656020526040812061121e9083611789565b6097602090815260009283526040808420909152908252902080546001820154600283015460038401546004850154600590950154939492939192909186565b60a25481565b60a6546001600160a01b031681565b600090815260b760205260409020546001600160a01b031690565b600081565b6112ce6000805160206121d683398151915261062e6116a1565b6112d757600080fd5b60ac80546001600160a01b03199081166001600160a01b038a81169190911790925560aa8054821689841617905560ae8054821688841617905560a98054821687841617905560ab8054821686841617905560ad805490911691831691909117905560005b82518110156113955782818151811061135157fe5b602090810291909101810151600192909201600081815260b7909252604090912080546001600160a01b0319166001600160a01b039093169290921790915561133c565b5050505050505050565b60b56020526000908152604090205481565b6113cb6000805160206121d683398151915261062e6116a1565b6113d457600080fd5b60005b82518160ff161161145057818160ff16815181106113f157fe5b602002602001015160b060008360010160ff16815260200190815260200160002081905550828160ff168151811061142557fe5b60209081029190910181015160ff6001909301928316600090815260b19092526040909120556113d7565b505050565b60ad546001600160a01b031681565b60b16020526000908152604090205481565b60a15481565b60008181526065602052604081206112219061179e565b60b66020526000908152604090205481565b805160009082906114ba5750600090506108d0565b50506020015190565b60b35481565b6000828152606560205260409020600201546114e79061062e6116a1565b610cb15760405162461bcd60e51b8152600401610ae59061202a565b60ba81815481106110e657fe5b60ae546001600160a01b031681565b60008061152b846114a5565b600090815260b96020908152604082206001600160a01b039095169091529290925292915050565b60be81815481106110e657fe5b609a5481565b600080611572836114a5565b600090815260bb60205260409020546001600160a01b03169392505050565b60aa546001600160a01b031681565b60ac546001600160a01b031681565b60a8546001600160a01b031681565b60008282018381101561121e5760405162461bcd60e51b8152600401610ae590611ff3565b6000826115f257506000611221565b828202828482816115ff57fe5b041461121e5760405162461bcd60e51b8152600401610ae59061207a565b600061121e83836040518060400160405280601a81526020017f536166654d6174683a206469766973696f6e206279207a65726f0000000000008152506117a9565b600061121e83836040518060400160405280601e81526020017f536166654d6174683a207375627472616374696f6e206f766572666c6f7700008152506117e0565b3390565b60008281526065602052604090206116bd908261180c565b15610af8576116ca6116a1565b6001600160a01b0316816001600160a01b0316837f2f8788117e7eff1d82e926ec794901d17c78024a50270940304540a733656f0d60405160405180910390a45050565b60008281526065602052604090206117269082611821565b15610af8576117336116a1565b6001600160a01b0316816001600160a01b0316837ff6391f5c32d9c69d2a47ea670b442974b53935d1edc7fd64eb21e047a839171b60405160405180910390a45050565b303b1590565b600061121e8383611836565b600061121e836001600160a01b03841661187b565b600061122182611893565b600081836117ca5760405162461bcd60e51b8152600401610ae59190611f2a565b5060008385816117d657fe5b0495945050505050565b600081848411156118045760405162461bcd60e51b8152600401610ae59190611f2a565b505050900390565b600061121e836001600160a01b038416611897565b600061121e836001600160a01b0384166118e1565b815460009082106118595760405162461bcd60e51b8152600401610ae590611f62565b82600001828154811061186857fe5b9060005260206000200154905092915050565b60009081526001919091016020526040902054151590565b5490565b60006118a3838361187b565b6118d957508154600181810184556000848152602080822090930184905584548482528286019093526040902091909155611221565b506000611221565b6000818152600183016020526040812054801561199d578354600019808301919081019060009087908390811061191457fe5b906000526020600020015490508087600001848154811061193157fe5b60009182526020808320909101929092558281526001898101909252604090209084019055865487908061196157fe5b60019003818190600052602060002001600090559055866001016000878152602001908152602001600020600090556001945050505050611221565b6000915050611221565b6040518060c001604052806000815260200160008152602001600081526020016000815260200160008152602001600081525090565b6040518060c0016040528060006001600160a01b03168152602001600081526020016000815260200160008152602001600015158152602001600081525090565b60405180606001604052806060815260200160008152602001600080191681525090565b80356001600160a01b038116811461122157600080fd5b600082601f830112611a69578081fd5b8135611a7c611a77826121b5565b61218e565b818152915060208083019084810181840286018201871015611a9d57600080fd5b60005b84811015611abc57813584529282019290820190600101611aa0565b505050505092915050565b600082601f830112611ad7578081fd5b813567ffffffffffffffff811115611aed578182fd5b611b00601f8201601f191660200161218e565b9150808252836020828501011115611b1757600080fd5b8060208401602084013760009082016020015292915050565b600060208284031215611b41578081fd5b61121e8383611a42565b60008060008060808587031215611b60578283fd5b611b6a8686611a42565b9350611b798660208701611a42565b9250611b888660408701611a42565b9150611b978660608701611a42565b905092959194509250565b600080600080600080600060e0888a031215611bbc578283fd5b611bc68989611a42565b96506020611bd68a828b01611a42565b9650611be58a60408b01611a42565b9550611bf48a60608b01611a42565b9450611c038a60808b01611a42565b935060a089013567ffffffffffffffff811115611c1e578384fd5b8901601f81018b13611c2e578384fd5b8035611c3c611a77826121b5565b81815283810190838501858402850186018f1015611c58578788fd5b8794505b83851015611c8257611c6e8f82611a42565b835260019490940193918501918501611c5c565b508096505050505050611c988960c08a01611a42565b905092959891949750929550565b60008060408385031215611cb8578182fd5b611cc28484611a42565b946020939093013593505050565b60008060408385031215611ce2578182fd5b823567ffffffffffffffff80821115611cf9578384fd5b611d0586838701611a59565b93506020850135915080821115611d1a578283fd5b50611d2785828601611a59565b9150509250929050565b600060208284031215611d42578081fd5b5035919050565b60008060408385031215611d5b578182fd5b8235915060208301356001600160a01b0381168114611d78578182fd5b809150509250929050565b60008060408385031215611d95578182fd5b50508035926020909101359150565b600060208284031215611db5578081fd5b813567ffffffffffffffff811115611dcb578182fd5b611dd784828501611ac7565b949350505050565b60008060408385031215611df1578182fd5b823567ffffffffffffffff811115611e07578283fd5b611e1385828601611ac7565b925050611e238460208501611a42565b90509250929050565b60008060408385031215611e3e578182fd5b82359150611e238460208501611a42565b60008151808452815b81811015611e7457602081850181015186830182015201611e58565b81811115611e855782602083870101525b50601f01601f19169290920160200192915050565b6001600160a01b0391909116815260200190565b6001600160a01b03969096168652602086019490945260408501929092526060840152608083015260a082015260c00190565b901515815260200190565b90815260200190565b6001600160a01b039690961686526020860194909452604085019290925260608401521515608083015260a082015260c00190565b60006020825261121e6020830184611e4f565b600060608252611f506060830186611e4f565b60208301949094525060400152919050565b60208082526022908201527f456e756d657261626c655365743a20696e646578206f7574206f6620626f756e604082015261647360f01b606082015260800190565b6020808252602f908201527f416363657373436f6e74726f6c3a2073656e646572206d75737420626520616e60408201526e0818591b5a5b881d1bc819dc985b9d608a1b606082015260800190565b6020808252601b908201527f536166654d6174683a206164646974696f6e206f766572666c6f770000000000604082015260600190565b60208082526030908201527f416363657373436f6e74726f6c3a2073656e646572206d75737420626520616e60408201526f2061646d696e20746f207265766f6b6560801b606082015260800190565b60208082526021908201527f536166654d6174683a206d756c7469706c69636174696f6e206f766572666c6f6040820152607760f81b606082015260800190565b6020808252602e908201527f436f6e747261637420696e7374616e63652068617320616c726561647920626560408201526d195b881a5b9a5d1a585b1a5e995960921b606082015260800190565b6020808252602f908201527f416363657373436f6e74726f6c3a2063616e206f6e6c792072656e6f756e636560408201526e103937b632b9903337b91039b2b63360891b606082015260800190565b918252602082015260400190565b958652602086019490945260408501929092526060840152608083015260a082015260c00190565b60405181810167ffffffffffffffff811182821017156121ad57600080fd5b604052919050565b600067ffffffffffffffff8211156121cb578081fd5b506020908102019056fe62ca43aa15f7f495faa685ce5a258aa390fdc8d7094251dd23d32353f496ddfea2646970667358221220d2636a2be0a050ca067d528fb65da4d9a55c9cbc0c1cbab198d0ef49c3333e3264736f6c634300060c0033",
    "sourcePath": "/Users/225153/Projects/proxy-test/contracts/YGYStorageV1.sol",
    "compiler": {
        "name": "solc",
        "version": "0.6.12+commit.27d51765"
    },
    "functionHashes": {
        "DEFAULT_ADMIN_ROLE()": "a217fddf",
        "MODIFIER_ROLE()": "7575aa8a",
        "RAMVaultStartBlock()": "31db122c",
        "YGYReserve()": "1dbf779e",
        "_NFTs(uint256)": "795d79f5",
        "_RAMToken()": "fa69669c",
        "_WETH()": "e0af3616",
        "_YGYRAMPair()": "2f4f8a7a",
        "_YGYToken()": "f7db38cb",
        "_YGYWETHPair()": "3b24bd4a",
        "_dXIOTToken()": "b81a0b4c",
        "addressStorageCount(uint256)": "6b42ee55",
        "booleanMapStorageCount(uint256)": "d6cf8021",
        "boostFees()": "09e3de41",
        "boostLevelCosts(uint256)": "469fcdcb",
        "boostLevelMultipliers(uint256)": "bcb49086",
        "checkRewards(uint256,address)": "10178d9c",
        "cumulativeRewardsSinceStart()": "c8ffb873",
        "cumulativeYGYRewardsSinceStart()": "9649d76c",
        "epoch()": "900cf0cf",
        "epochCalculationStartBlock()": "5d577c18",
        "epochRewards(uint256)": "4dc47d34",
        "getAddressStorage(string)": "ee02ea1b",
        "getBooleanMapValue(string,address)": "e671fab5",
        "getBoostLevelCost(uint256)": "6a9d1f6f",
        "getBoostLevelMultiplier(uint256)": "6798f19f",
        "getEpochRewards(uint256)": "5f0c0f2b",
        "getNFTAddress(uint256)": "9d18f773",
        "getNFTProperty(uint256,uint256)": "5498d4c0",
        "getNFTPropertyCount(uint256)": "0a08f1d4",
        "getPoolInfo(uint256)": "2f380b35",
        "getRoleAdmin(bytes32)": "248a9ca3",
        "getRoleMember(bytes32,uint256)": "9010d07c",
        "getRoleMemberCount(bytes32)": "ca15c873",
        "getUserInfo(uint256,address)": "1069f3b5",
        "grantRole(bytes32,address)": "2f2ff15d",
        "hasRole(bytes32,address)": "91d14854",
        "initialize()": "8129fc1c",
        "initializeRAMVault(address,address,address,address)": "36644334",
        "lastTicketLevel(address)": "cc40f664",
        "liquidityContributedEthValue(address)": "ad1414b2",
        "nftProperties(address,uint256)": "30d27e94",
        "pendingRewards()": "eded3fda",
        "pendingYGYRewards()": "8b6ff57b",
        "poolInfo(uint256)": "1526fe27",
        "poolLength()": "081e3eda",
        "ram()": "8f33b5e5",
        "regeneratoraddr()": "7d3b8da1",
        "renounceRole(bytes32,address)": "36568abe",
        "revokeRole(bytes32,address)": "d547741f",
        "rewardsInThisEpoch()": "608c8d3a",
        "setTokens(address,address,address,address,address,address[],address)": "a5f8ace8",
        "stringToBytes32(string)": "cfb51928",
        "teamaddr()": "9a6d2711",
        "ticketCount()": "cfbd900f",
        "tickets(uint256)": "50b44712",
        "totalAllocPoint()": "17caf6f1",
        "uintStorageCount(uint256)": "e941c856",
        "updateBoosts(uint256[],uint256[])": "b2f4b44a",
        "userInfo(uint256,address)": "93f1a40b",
        "ygy()": "fb70c3bf"
    },
    "gasEstimates": {
        "creation": {
            "codeDepositCost": "1749400",
            "executionCost": "1841",
            "totalCost": "1751241"
        },
        "external": {
            "DEFAULT_ADMIN_ROLE()": "362",
            "MODIFIER_ROLE()": "infinite",
            "RAMVaultStartBlock()": "1140",
            "YGYReserve()": "1097",
            "_NFTs(uint256)": "1324",
            "_RAMToken()": "1180",
            "_WETH()": "1137",
            "_YGYRAMPair()": "1138",
            "_YGYToken()": "1158",
            "_YGYWETHPair()": "1161",
            "_dXIOTToken()": "1203",
            "addressStorageCount(uint256)": "2063",
            "booleanMapStorageCount(uint256)": "2129",
            "boostFees()": "1120",
            "boostLevelCosts(uint256)": "1284",
            "boostLevelMultipliers(uint256)": "1239",
            "checkRewards(uint256,address)": "infinite",
            "cumulativeRewardsSinceStart()": "1118",
            "cumulativeYGYRewardsSinceStart()": "1096",
            "epoch()": "1096",
            "epochCalculationStartBlock()": "1162",
            "epochRewards(uint256)": "1239",
            "getAddressStorage(string)": "infinite",
            "getBooleanMapValue(string,address)": "infinite",
            "getBoostLevelCost(uint256)": "1305",
            "getBoostLevelMultiplier(uint256)": "1283",
            "getEpochRewards(uint256)": "1239",
            "getNFTAddress(uint256)": "1325",
            "getNFTProperty(uint256,uint256)": "infinite",
            "getNFTPropertyCount(uint256)": "infinite",
            "getPoolInfo(uint256)": "6758",
            "getRoleAdmin(bytes32)": "1268",
            "getRoleMember(bytes32,uint256)": "infinite",
            "getRoleMemberCount(bytes32)": "infinite",
            "getUserInfo(uint256,address)": "5981",
            "grantRole(bytes32,address)": "infinite",
            "hasRole(bytes32,address)": "infinite",
            "initialize()": "infinite",
            "initializeRAMVault(address,address,address,address)": "infinite",
            "lastTicketLevel(address)": "infinite",
            "liquidityContributedEthValue(address)": "infinite",
            "nftProperties(address,uint256)": "infinite",
            "pendingRewards()": "1161",
            "pendingYGYRewards()": "1119",
            "poolInfo(uint256)": "6363",
            "poolLength()": "1098",
            "ram()": "1183",
            "regeneratoraddr()": "1203",
            "renounceRole(bytes32,address)": "infinite",
            "revokeRole(bytes32,address)": "infinite",
            "rewardsInThisEpoch()": "1118",
            "setTokens(address,address,address,address,address,address[],address)": "infinite",
            "stringToBytes32(string)": "infinite",
            "teamaddr()": "1160",
            "ticketCount()": "1117",
            "tickets(uint256)": "5489",
            "totalAllocPoint()": "1163",
            "uintStorageCount(uint256)": "2107",
            "updateBoosts(uint256[],uint256[])": "infinite",
            "userInfo(uint256,address)": "5672",
            "ygy()": "1202"
        }
    }
}