{
    "contractName": "YGYStorageV1",
    "abi": [
        {
            "anonymous": false,
            "inputs": [
                {
                    "indexed": true,
                    "internalType": "address",
                    "name": "previousOwner",
                    "type": "address"
                },
                {
                    "indexed": true,
                    "internalType": "address",
                    "name": "newOwner",
                    "type": "address"
                }
            ],
            "name": "OwnershipTransferred",
            "type": "event"
        },
        {
            "inputs": [],
            "name": "RAMVaultStartBlock",
            "outputs": [
                {
                    "internalType": "uint256",
                    "name": "",
                    "type": "uint256"
                }
            ],
            "stateMutability": "view",
            "type": "function"
        },
        {
            "inputs": [],
            "name": "YGYReserve",
            "outputs": [
                {
                    "internalType": "uint256",
                    "name": "",
                    "type": "uint256"
                }
            ],
            "stateMutability": "view",
            "type": "function"
        },
        {
            "inputs": [
                {
                    "internalType": "uint256",
                    "name": "",
                    "type": "uint256"
                }
            ],
            "name": "_NFTs",
            "outputs": [
                {
                    "internalType": "address",
                    "name": "",
                    "type": "address"
                }
            ],
            "stateMutability": "view",
            "type": "function"
        },
        {
            "inputs": [],
            "name": "_YGYRAMPair",
            "outputs": [
                {
                    "internalType": "address",
                    "name": "",
                    "type": "address"
                }
            ],
            "stateMutability": "view",
            "type": "function"
        },
        {
            "inputs": [],
            "name": "_YGYToken",
            "outputs": [
                {
                    "internalType": "address",
                    "name": "",
                    "type": "address"
                }
            ],
            "stateMutability": "view",
            "type": "function"
        },
        {
            "inputs": [],
            "name": "_YGYWETHPair",
            "outputs": [
                {
                    "internalType": "address",
                    "name": "",
                    "type": "address"
                }
            ],
            "stateMutability": "view",
            "type": "function"
        },
        {
            "inputs": [],
            "name": "_dXIOTToken",
            "outputs": [
                {
                    "internalType": "contract IERC20",
                    "name": "",
                    "type": "address"
                }
            ],
            "stateMutability": "view",
            "type": "function"
        },
        {
            "inputs": [
                {
                    "internalType": "uint256",
                    "name": "",
                    "type": "uint256"
                }
            ],
            "name": "addressStorageCount",
            "outputs": [
                {
                    "internalType": "uint256",
                    "name": "",
                    "type": "uint256"
                }
            ],
            "stateMutability": "view",
            "type": "function"
        },
        {
            "inputs": [
                {
                    "internalType": "uint256",
                    "name": "",
                    "type": "uint256"
                }
            ],
            "name": "booleanMapStorageCount",
            "outputs": [
                {
                    "internalType": "uint256",
                    "name": "",
                    "type": "uint256"
                }
            ],
            "stateMutability": "view",
            "type": "function"
        },
        {
            "inputs": [],
            "name": "boostFees",
            "outputs": [
                {
                    "internalType": "uint256",
                    "name": "",
                    "type": "uint256"
                }
            ],
            "stateMutability": "view",
            "type": "function"
        },
        {
            "inputs": [
                {
                    "internalType": "uint256",
                    "name": "",
                    "type": "uint256"
                }
            ],
            "name": "boostLevelCosts",
            "outputs": [
                {
                    "internalType": "uint256",
                    "name": "",
                    "type": "uint256"
                }
            ],
            "stateMutability": "view",
            "type": "function"
        },
        {
            "inputs": [
                {
                    "internalType": "uint256",
                    "name": "",
                    "type": "uint256"
                }
            ],
            "name": "boostLevelMultipliers",
            "outputs": [
                {
                    "internalType": "uint256",
                    "name": "",
                    "type": "uint256"
                }
            ],
            "stateMutability": "view",
            "type": "function"
        },
        {
            "inputs": [
                {
                    "internalType": "uint256",
                    "name": "_pid",
                    "type": "uint256"
                },
                {
                    "internalType": "address",
                    "name": "_user",
                    "type": "address"
                }
            ],
            "name": "checkRewards",
            "outputs": [
                {
                    "internalType": "uint256",
                    "name": "pendingRAM",
                    "type": "uint256"
                },
                {
                    "internalType": "uint256",
                    "name": "pendingYGY",
                    "type": "uint256"
                }
            ],
            "stateMutability": "view",
            "type": "function"
        },
        {
            "inputs": [],
            "name": "cumulativeRewardsSinceStart",
            "outputs": [
                {
                    "internalType": "uint256",
                    "name": "",
                    "type": "uint256"
                }
            ],
            "stateMutability": "view",
            "type": "function"
        },
        {
            "inputs": [],
            "name": "cumulativeYGYRewardsSinceStart",
            "outputs": [
                {
                    "internalType": "uint256",
                    "name": "",
                    "type": "uint256"
                }
            ],
            "stateMutability": "view",
            "type": "function"
        },
        {
            "inputs": [],
            "name": "epoch",
            "outputs": [
                {
                    "internalType": "uint256",
                    "name": "",
                    "type": "uint256"
                }
            ],
            "stateMutability": "view",
            "type": "function"
        },
        {
            "inputs": [],
            "name": "epochCalculationStartBlock",
            "outputs": [
                {
                    "internalType": "uint256",
                    "name": "",
                    "type": "uint256"
                }
            ],
            "stateMutability": "view",
            "type": "function"
        },
        {
            "inputs": [
                {
                    "internalType": "uint256",
                    "name": "",
                    "type": "uint256"
                }
            ],
            "name": "epochRewards",
            "outputs": [
                {
                    "internalType": "uint256",
                    "name": "",
                    "type": "uint256"
                }
            ],
            "stateMutability": "view",
            "type": "function"
        },
        {
            "inputs": [
                {
                    "internalType": "string",
                    "name": "_key",
                    "type": "string"
                }
            ],
            "name": "getAddressStorage",
            "outputs": [
                {
                    "internalType": "address",
                    "name": "",
                    "type": "address"
                }
            ],
            "stateMutability": "view",
            "type": "function"
        },
        {
            "inputs": [
                {
                    "internalType": "string",
                    "name": "_key",
                    "type": "string"
                },
                {
                    "internalType": "address",
                    "name": "_address",
                    "type": "address"
                }
            ],
            "name": "getBooleanMapValue",
            "outputs": [
                {
                    "internalType": "bool",
                    "name": "",
                    "type": "bool"
                }
            ],
            "stateMutability": "view",
            "type": "function"
        },
        {
            "inputs": [
                {
                    "internalType": "uint256",
                    "name": "_level",
                    "type": "uint256"
                }
            ],
            "name": "getBoostLevelCost",
            "outputs": [
                {
                    "internalType": "uint256",
                    "name": "",
                    "type": "uint256"
                }
            ],
            "stateMutability": "view",
            "type": "function"
        },
        {
            "inputs": [
                {
                    "internalType": "uint256",
                    "name": "_level",
                    "type": "uint256"
                }
            ],
            "name": "getBoostLevelMultiplier",
            "outputs": [
                {
                    "internalType": "uint256",
                    "name": "",
                    "type": "uint256"
                }
            ],
            "stateMutability": "view",
            "type": "function"
        },
        {
            "inputs": [
                {
                    "internalType": "uint256",
                    "name": "_epoch",
                    "type": "uint256"
                }
            ],
            "name": "getEpochRewards",
            "outputs": [
                {
                    "internalType": "uint256",
                    "name": "",
                    "type": "uint256"
                }
            ],
            "stateMutability": "view",
            "type": "function"
        },
        {
            "inputs": [
                {
                    "internalType": "uint256",
                    "name": "_contractId",
                    "type": "uint256"
                }
            ],
            "name": "getNFTAddress",
            "outputs": [
                {
                    "internalType": "address",
                    "name": "",
                    "type": "address"
                }
            ],
            "stateMutability": "view",
            "type": "function"
        },
        {
            "inputs": [
                {
                    "internalType": "uint256",
                    "name": "_contractId",
                    "type": "uint256"
                },
                {
                    "internalType": "uint256",
                    "name": "_index",
                    "type": "uint256"
                }
            ],
            "name": "getNFTProperty",
            "outputs": [
                {
                    "internalType": "string",
                    "name": "",
                    "type": "string"
                },
                {
                    "internalType": "uint256",
                    "name": "",
                    "type": "uint256"
                },
                {
                    "internalType": "bytes32",
                    "name": "",
                    "type": "bytes32"
                }
            ],
            "stateMutability": "view",
            "type": "function"
        },
        {
            "inputs": [
                {
                    "internalType": "uint256",
                    "name": "_poolId",
                    "type": "uint256"
                }
            ],
            "name": "getPoolInfo",
            "outputs": [
                {
                    "internalType": "contract IERC20",
                    "name": "_token",
                    "type": "address"
                },
                {
                    "internalType": "uint256",
                    "name": "_allocPointt",
                    "type": "uint256"
                },
                {
                    "internalType": "uint256",
                    "name": "_accRAMPerShare",
                    "type": "uint256"
                },
                {
                    "internalType": "uint256",
                    "name": "_accYGYPerShare",
                    "type": "uint256"
                },
                {
                    "internalType": "bool",
                    "name": "_withdrawable",
                    "type": "bool"
                },
                {
                    "internalType": "uint256",
                    "name": "_effectiveAdditionalTokensFromBoosts",
                    "type": "uint256"
                }
            ],
            "stateMutability": "view",
            "type": "function"
        },
        {
            "inputs": [
                {
                    "internalType": "uint256",
                    "name": "_poolId",
                    "type": "uint256"
                },
                {
                    "internalType": "address",
                    "name": "_user",
                    "type": "address"
                }
            ],
            "name": "getUserInfo",
            "outputs": [
                {
                    "internalType": "uint256",
                    "name": "amount",
                    "type": "uint256"
                },
                {
                    "internalType": "uint256",
                    "name": "rewardDebt",
                    "type": "uint256"
                },
                {
                    "internalType": "uint256",
                    "name": "rewardDebtYGY",
                    "type": "uint256"
                },
                {
                    "internalType": "uint256",
                    "name": "boostAmount",
                    "type": "uint256"
                },
                {
                    "internalType": "uint256",
                    "name": "boostLevel",
                    "type": "uint256"
                },
                {
                    "internalType": "uint256",
                    "name": "spentMultiplierTokens",
                    "type": "uint256"
                }
            ],
            "stateMutability": "view",
            "type": "function"
        },
        {
            "inputs": [
                {
                    "internalType": "address",
                    "name": "_ram",
                    "type": "address"
                },
                {
                    "internalType": "address",
                    "name": "_ygy",
                    "type": "address"
                },
                {
                    "internalType": "address",
                    "name": "_teamaddr",
                    "type": "address"
                },
                {
                    "internalType": "address",
                    "name": "_regeneratoraddr",
                    "type": "address"
                }
            ],
            "name": "initializeRAMVault",
            "outputs": [],
            "stateMutability": "nonpayable",
            "type": "function"
        },
        {
            "inputs": [
                {
                    "internalType": "address",
                    "name": "",
                    "type": "address"
                }
            ],
            "name": "lastTicketLevel",
            "outputs": [
                {
                    "internalType": "uint256",
                    "name": "",
                    "type": "uint256"
                }
            ],
            "stateMutability": "view",
            "type": "function"
        },
        {
            "inputs": [
                {
                    "internalType": "address",
                    "name": "",
                    "type": "address"
                }
            ],
            "name": "liquidityContributedEthValue",
            "outputs": [
                {
                    "internalType": "uint256",
                    "name": "",
                    "type": "uint256"
                }
            ],
            "stateMutability": "view",
            "type": "function"
        },
        {
            "inputs": [
                {
                    "internalType": "address",
                    "name": "",
                    "type": "address"
                },
                {
                    "internalType": "uint256",
                    "name": "",
                    "type": "uint256"
                }
            ],
            "name": "nftProperties",
            "outputs": [
                {
                    "internalType": "string",
                    "name": "pType",
                    "type": "string"
                },
                {
                    "internalType": "uint256",
                    "name": "pValue",
                    "type": "uint256"
                },
                {
                    "internalType": "bytes32",
                    "name": "extra",
                    "type": "bytes32"
                }
            ],
            "stateMutability": "view",
            "type": "function"
        },
        {
            "inputs": [],
            "name": "owner",
            "outputs": [
                {
                    "internalType": "address",
                    "name": "",
                    "type": "address"
                }
            ],
            "stateMutability": "view",
            "type": "function"
        },
        {
            "inputs": [],
            "name": "pendingRewards",
            "outputs": [
                {
                    "internalType": "uint256",
                    "name": "",
                    "type": "uint256"
                }
            ],
            "stateMutability": "view",
            "type": "function"
        },
        {
            "inputs": [],
            "name": "pendingYGYRewards",
            "outputs": [
                {
                    "internalType": "uint256",
                    "name": "",
                    "type": "uint256"
                }
            ],
            "stateMutability": "view",
            "type": "function"
        },
        {
            "inputs": [
                {
                    "internalType": "uint256",
                    "name": "",
                    "type": "uint256"
                }
            ],
            "name": "poolInfo",
            "outputs": [
                {
                    "internalType": "contract IERC20",
                    "name": "token",
                    "type": "address"
                },
                {
                    "internalType": "uint256",
                    "name": "allocPoint",
                    "type": "uint256"
                },
                {
                    "internalType": "uint256",
                    "name": "accRAMPerShare",
                    "type": "uint256"
                },
                {
                    "internalType": "uint256",
                    "name": "accYGYPerShare",
                    "type": "uint256"
                },
                {
                    "internalType": "bool",
                    "name": "withdrawable",
                    "type": "bool"
                },
                {
                    "internalType": "uint256",
                    "name": "effectiveAdditionalTokensFromBoosts",
                    "type": "uint256"
                }
            ],
            "stateMutability": "view",
            "type": "function"
        },
        {
            "inputs": [],
            "name": "poolLength",
            "outputs": [
                {
                    "internalType": "uint256",
                    "name": "",
                    "type": "uint256"
                }
            ],
            "stateMutability": "view",
            "type": "function"
        },
        {
            "inputs": [],
            "name": "ram",
            "outputs": [
                {
                    "internalType": "contract INBUNIERC20",
                    "name": "",
                    "type": "address"
                }
            ],
            "stateMutability": "view",
            "type": "function"
        },
        {
            "inputs": [],
            "name": "regeneratoraddr",
            "outputs": [
                {
                    "internalType": "address",
                    "name": "",
                    "type": "address"
                }
            ],
            "stateMutability": "view",
            "type": "function"
        },
        {
            "inputs": [],
            "name": "renounceOwnership",
            "outputs": [],
            "stateMutability": "nonpayable",
            "type": "function"
        },
        {
            "inputs": [],
            "name": "rewardsInThisEpoch",
            "outputs": [
                {
                    "internalType": "uint256",
                    "name": "",
                    "type": "uint256"
                }
            ],
            "stateMutability": "view",
            "type": "function"
        },
        {
            "inputs": [
                {
                    "internalType": "string",
                    "name": "source",
                    "type": "string"
                }
            ],
            "name": "stringToBytes32",
            "outputs": [
                {
                    "internalType": "bytes32",
                    "name": "result",
                    "type": "bytes32"
                }
            ],
            "stateMutability": "pure",
            "type": "function"
        },
        {
            "inputs": [],
            "name": "teamaddr",
            "outputs": [
                {
                    "internalType": "address",
                    "name": "",
                    "type": "address"
                }
            ],
            "stateMutability": "view",
            "type": "function"
        },
        {
            "inputs": [],
            "name": "ticketCount",
            "outputs": [
                {
                    "internalType": "uint256",
                    "name": "",
                    "type": "uint256"
                }
            ],
            "stateMutability": "view",
            "type": "function"
        },
        {
            "inputs": [
                {
                    "internalType": "uint256",
                    "name": "",
                    "type": "uint256"
                }
            ],
            "name": "tickets",
            "outputs": [
                {
                    "internalType": "address",
                    "name": "owner",
                    "type": "address"
                },
                {
                    "internalType": "uint256",
                    "name": "levelOneChance",
                    "type": "uint256"
                },
                {
                    "internalType": "uint256",
                    "name": "levelTwoChance",
                    "type": "uint256"
                },
                {
                    "internalType": "uint256",
                    "name": "levelThreeChance",
                    "type": "uint256"
                },
                {
                    "internalType": "uint256",
                    "name": "levelFourChance",
                    "type": "uint256"
                },
                {
                    "internalType": "uint256",
                    "name": "levelFiveChance",
                    "type": "uint256"
                }
            ],
            "stateMutability": "view",
            "type": "function"
        },
        {
            "inputs": [],
            "name": "totalAllocPoint",
            "outputs": [
                {
                    "internalType": "uint256",
                    "name": "",
                    "type": "uint256"
                }
            ],
            "stateMutability": "view",
            "type": "function"
        },
        {
            "inputs": [
                {
                    "internalType": "address",
                    "name": "newOwner",
                    "type": "address"
                }
            ],
            "name": "transferOwnership",
            "outputs": [],
            "stateMutability": "nonpayable",
            "type": "function"
        },
        {
            "inputs": [
                {
                    "internalType": "uint256",
                    "name": "",
                    "type": "uint256"
                }
            ],
            "name": "uintStorageCount",
            "outputs": [
                {
                    "internalType": "uint256",
                    "name": "",
                    "type": "uint256"
                }
            ],
            "stateMutability": "view",
            "type": "function"
        },
        {
            "inputs": [
                {
                    "internalType": "uint256[]",
                    "name": "_boostMultipliers",
                    "type": "uint256[]"
                },
                {
                    "internalType": "uint256[]",
                    "name": "_boostCosts",
                    "type": "uint256[]"
                }
            ],
            "name": "updateBoosts",
            "outputs": [],
            "stateMutability": "nonpayable",
            "type": "function"
        },
        {
            "inputs": [
                {
                    "internalType": "uint256",
                    "name": "",
                    "type": "uint256"
                },
                {
                    "internalType": "address",
                    "name": "",
                    "type": "address"
                }
            ],
            "name": "userInfo",
            "outputs": [
                {
                    "internalType": "uint256",
                    "name": "amount",
                    "type": "uint256"
                },
                {
                    "internalType": "uint256",
                    "name": "rewardDebt",
                    "type": "uint256"
                },
                {
                    "internalType": "uint256",
                    "name": "rewardDebtYGY",
                    "type": "uint256"
                },
                {
                    "internalType": "uint256",
                    "name": "boostAmount",
                    "type": "uint256"
                },
                {
                    "internalType": "uint256",
                    "name": "boostLevel",
                    "type": "uint256"
                },
                {
                    "internalType": "uint256",
                    "name": "spentMultiplierTokens",
                    "type": "uint256"
                }
            ],
            "stateMutability": "view",
            "type": "function"
        },
        {
            "inputs": [],
            "name": "ygy",
            "outputs": [
                {
                    "internalType": "contract IERC20",
                    "name": "",
                    "type": "address"
                }
            ],
            "stateMutability": "view",
            "type": "function"
        }
    ],
    "bytecode": "608060405234801561001057600080fd5b50611900806100206000396000f3fe608060405234801561001057600080fd5b50600436106102d65760003560e01c80637d3b8da111610182578063bcb49086116100e9578063e671fab5116100a2578063ee02ea1b1161007c578063ee02ea1b146105e3578063f2fde38b146105f6578063f7db38cb14610609578063fb70c3bf14610611576102d6565b8063e671fab5146105a8578063e941c856146105c8578063eded3fda146105db576102d6565b8063bcb490861461054c578063c8ffb8731461055f578063cc40f66414610567578063cfb519281461057a578063cfbd900f1461058d578063d6cf802114610595576102d6565b80639649d76c1161013b5780639649d76c146104fb5780639a6d2711146105035780639d18f7731461050b578063ad1414b21461051e578063b2f4b44a14610531578063b81a0b4c14610544576102d6565b80637d3b8da1146104c05780638b6ff57b146104c85780638da5cb5b146104d05780638f33b5e5146104d8578063900cf0cf146104e057806393f1a40b146104e8576102d6565b80633b24bd4a116102415780635f0c0f2b116101fa5780636a9d1f6f116101d45780636a9d1f6f1461047f5780636b42ee5514610492578063715018a6146104a5578063795d79f5146104ad576102d6565b80635f0c0f2b14610451578063608c8d3a146104645780636798f19f1461046c576102d6565b80633b24bd4a146103e3578063469fcdcb146103eb5780634dc47d34146103fe57806350b44712146104115780635498d4c0146104365780635d577c1814610449576102d6565b80631dbf779e116102935780631dbf779e146103745780632f380b351461037c5780632f4f8a7a1461038f57806330d27e94146103a457806331db122c146103c657806336644334146103ce576102d6565b8063081e3eda146102db57806309e3de41146102f957806310178d9c146103015780631069f3b5146103225780631526fe271461034757806317caf6f11461036c575b600080fd5b6102e3610619565b6040516102f091906116b6565b60405180910390f35b6102e361061f565b61031461030f3660046115d5565b610625565b6040516102f092919061186d565b6103356103303660046115d5565b6106f7565b6040516102f09695949392919061187b565b61035a6103553660046115bd565b610787565b6040516102f0969594939291906116bf565b6102e36107da565b6102e36107e0565b61035a61038a3660046115bd565b6107e6565b610397610886565b6040516102f09190611664565b6103b76103b23660046114aa565b610895565b6040516102f093929190611707565b6102e361095d565b6103e16103dc366004611453565b610963565b005b610397610b89565b6102e36103f93660046115bd565b610b98565b6102e361040c3660046115bd565b610baa565b61042461041f3660046115bd565b610bbc565b6040516102f096959493929190611678565b6103b76104443660046115f8565b610bfb565b6102e3610d25565b6102e361045f3660046115bd565b610d2b565b6102e3610d40565b6102e361047a3660046115bd565b610d46565b6102e361048d3660046115bd565b610d58565b6102e36104a03660046115bd565b610d6a565b6103e1610d88565b6103976104bb3660046115bd565b610e07565b610397610e22565b6102e3610e31565b610397610e37565b610397610e46565b6102e3610e55565b6103356104f63660046115d5565b610e5b565b6102e3610e9b565b610397610ea1565b6103976105193660046115bd565b610eb0565b6102e361052c366004611438565b610ecb565b6103e161053f3660046114d4565b610edd565b610397610f93565b6102e361055a3660046115bd565b610fa2565b6102e3610fb4565b6102e3610575366004611438565b610fba565b6102e3610588366004611535565b610fcc565b6102e3610fea565b6102e36105a33660046115bd565b610ff0565b6105bb6105b6366004611570565b610ffd565b6040516102f091906116ab565b6102e36105d63660046115bd565b611031565b6102e361103e565b6103976105f1366004611535565b611044565b6103e1610604366004611438565b61106f565b610397611126565b610397611135565b60985490565b60ad5481565b60008060006098858154811061063757fe5b600091825260208083208884526097825260408085206001600160a01b038a1686529092529083206003810154815460079094029092019450929161067b91611144565b9050600080846003015411156106c2576106bf83600201546106b964e8d4a510006106b388600301548761117290919063ffffffff16565b906111ac565b906111ee565b90505b6106ea83600101546106b964e8d4a510006106b388600201548761117290919063ffffffff16565b9890975095505050505050565b60008060008060008061070861129d565b505050600095865250506097602090815260408086206001600160a01b0395909516865293815293839020835160c08101855281548082526001830154968201879052600283015495820186905260038301546060830181905260048401546080840181905260059094015460a0909301839052909790945091925090565b6098818154811061079457fe5b60009182526020909120600790910201805460018201546002830154600384015460048501546006909501546001600160a01b0390941695509193909260ff9091169086565b609f5481565b60a25481565b6000806000806000806107f76112d3565b6098888154811061080457fe5b60009182526020918290206040805160c08101825260079390930290910180546001600160a01b031680845260018201549484018590526002820154928401839052600382015460608501819052600483015460ff1615156080860181905260069093015460a0909501859052909d949c50919a509098509650945092505050565b609b546001600160a01b031681565b60b660205281600052604060002081815481106108ae57fe5b60009182526020918290206003919091020180546040805160026001841615610100026000190190931692909204601f8101859004850283018501909152808252919450925083918301828280156109475780601f1061091c57610100808354040283529160200191610947565b820191906000526020600020905b81548152906001019060200180831161092a57829003601f168201915b5050505050908060010154908060020154905083565b60a55481565b600054610100900460ff168061097c575061097c611230565b8061098a575060005460ff16155b6109af5760405162461bcd60e51b81526004016109a69061181f565b60405180910390fd5b600054610100900460ff161580156109da576000805460ff1961ff0019909116610100171660011790555b609980546001600160a01b038088166001600160a01b031992831617909255609a805487841690831617905560ac805486841690831617905560ab8054928516929091169190911790554360a555674563918244f400007fa48c146aff2b99f3caa3b8b735fb3553da3a3d1861b7483337aba478657c61d15567d02ab486cedc00007fbcbaa5b09af5b9ee16e708916ef421bb1a9f6553cca50cea957380581a962095556801a055690d9db800007f41dc00d57acd93277eee38b26add9196cc21fa10e81779b8f8a41ddafc7e501055680340aad21b3b7000007f2863961d3264ea2f83beef76aa2ec70eff5d5fee7fb65a1fcad844f7a9fe1aba5560af60205260057f900700e6bd57e6422dfd94f65cfe467c2bdd2d930a52c3d0980a8f38ab604c7f55600f7f3eed66fa71e60125d2fd69862cfa0d6a64fee0b5e6ce41d738adbbd1320e153855601e7fd1f7230ef7ce05c63c79bd2da0ef33773da184b006aecd5647472a85863c30ae556004600052603c7f933cb0270ff7df4494a53acf75562260c5e04279ad4ab7cf990c72d8b672f904558015610b82576000805461ff00191690555b5050505050565b609d546001600160a01b031681565b60ae6020526000908152604090205481565b60b06020526000908152604090205481565b60b2602052600090815260409020805460018201546002830154600384015460048501546005909501546001600160a01b039094169492939192909186565b600082815260b560205260408120546060919081906001600160a01b0316610c21611314565b6001600160a01b038216600090815260b660205260409020805487908110610c4557fe5b600091825260209182902060408051600393909302909101805460026001821615610100026000190190911604601f8101859004909402830160809081019092526060830184815292939092849290918491840182828015610ce85780601f10610cbd57610100808354040283529160200191610ce8565b820191906000526020600020905b815481529060010190602001808311610ccb57829003601f168201915b5050505050815260200160018201548152602001600282015481525050905080600001518160200151826040015194509450945050509250925092565b60a65481565b600081815260b060205260409020545b919050565b60a95481565b600090815260af602052604090205490565b600090815260ae602052604090205490565b60ba8181548110610d7757fe5b600091825260209091200154905081565b610d90611236565b6065546001600160a01b03908116911614610dbd5760405162461bcd60e51b81526004016109a6906117ea565b6065546040516000916001600160a01b0316907f8be0079c531659141344cd1fd0a4f28419497f9722a3daafe3b4186f6b6457e0908390a3606580546001600160a01b0319169055565b60b5602052600090815260409020546001600160a01b031681565b60ab546001600160a01b031681565b60a15481565b6065546001600160a01b031690565b6099546001600160a01b031681565b60aa5481565b6097602090815260009283526040808420909152908252902080546001820154600283015460038401546004850154600590950154939492939192909186565b60a85481565b60ac546001600160a01b031681565b600090815260b560205260409020546001600160a01b031690565b60b36020526000908152604090205481565b610ee5611236565b6065546001600160a01b03908116911614610f125760405162461bcd60e51b81526004016109a6906117ea565b60005b82518160ff1611610f8e57818160ff1681518110610f2f57fe5b602002602001015160ae60008360010160ff16815260200190815260200160002081905550828160ff1681518110610f6357fe5b60209081029190910181015160ff6001909301928316600090815260af909252604090912055610f15565b505050565b609e546001600160a01b031681565b60af6020526000908152604090205481565b60a75481565b60b46020526000908152604090205481565b80516000908290610fe1575060009050610d3b565b50506020015190565b60b15481565b60b88181548110610d7757fe5b60008061100984610fcc565b600090815260b76020908152604082206001600160a01b039095169091529290925292915050565b60bc8181548110610d7757fe5b60a05481565b60008061105083610fcc565b600090815260b960205260409020546001600160a01b03169392505050565b611077611236565b6065546001600160a01b039081169116146110a45760405162461bcd60e51b81526004016109a6906117ea565b6001600160a01b0381166110ca5760405162461bcd60e51b81526004016109a69061172c565b6065546040516001600160a01b038084169216907f8be0079c531659141344cd1fd0a4f28419497f9722a3daafe3b4186f6b6457e090600090a3606580546001600160a01b0319166001600160a01b0392909216919091179055565b609c546001600160a01b031681565b609a546001600160a01b031681565b6000828201838110156111695760405162461bcd60e51b81526004016109a690611772565b90505b92915050565b6000826111815750600061116c565b8282028284828161118e57fe5b04146111695760405162461bcd60e51b81526004016109a6906117a9565b600061116983836040518060400160405280601a81526020017f536166654d6174683a206469766973696f6e206279207a65726f00000000000081525061123a565b600061116983836040518060400160405280601e81526020017f536166654d6174683a207375627472616374696f6e206f766572666c6f770000815250611271565b303b1590565b3390565b6000818361125b5760405162461bcd60e51b81526004016109a691906116f4565b50600083858161126757fe5b0495945050505050565b600081848411156112955760405162461bcd60e51b81526004016109a691906116f4565b505050900390565b6040518060c001604052806000815260200160008152602001600081526020016000815260200160008152602001600081525090565b6040518060c0016040528060006001600160a01b03168152602001600081526020016000815260200160008152602001600015158152602001600081525090565b60405180606001604052806060815260200160008152602001600080191681525090565b80356001600160a01b038116811461116c57600080fd5b600082601f83011261135f578081fd5b813567ffffffffffffffff811115611375578182fd5b60208082026113858282016118a3565b838152935081840185830182870184018810156113a157600080fd5b600092505b848310156113c45780358252600192909201919083019083016113a6565b505050505092915050565b600082601f8301126113df578081fd5b813567ffffffffffffffff8111156113f5578182fd5b611408601f8201601f19166020016118a3565b915080825283602082850101111561141f57600080fd5b8060208401602084013760009082016020015292915050565b600060208284031215611449578081fd5b6111698383611338565b60008060008060808587031215611468578283fd5b6114728686611338565b93506114818660208701611338565b92506114908660408701611338565b915061149f8660608701611338565b905092959194509250565b600080604083850312156114bc578182fd5b6114c68484611338565b946020939093013593505050565b600080604083850312156114e6578182fd5b823567ffffffffffffffff808211156114fd578384fd5b6115098683870161134f565b9350602085013591508082111561151e578283fd5b5061152b8582860161134f565b9150509250929050565b600060208284031215611546578081fd5b813567ffffffffffffffff81111561155c578182fd5b611568848285016113cf565b949350505050565b60008060408385031215611582578182fd5b823567ffffffffffffffff811115611598578283fd5b6115a4858286016113cf565b9250506115b48460208501611338565b90509250929050565b6000602082840312156115ce578081fd5b5035919050565b600080604083850312156115e7578182fd5b823591506115b48460208501611338565b6000806040838503121561160a578182fd5b50508035926020909101359150565b60008151808452815b8181101561163e57602081850181015186830182015201611622565b8181111561164f5782602083870101525b50601f01601f19169290920160200192915050565b6001600160a01b0391909116815260200190565b6001600160a01b03969096168652602086019490945260408501929092526060840152608083015260a082015260c00190565b901515815260200190565b90815260200190565b6001600160a01b039690961686526020860194909452604085019290925260608401521515608083015260a082015260c00190565b6000602082526111696020830184611619565b60006060825261171a6060830186611619565b60208301949094525060400152919050565b60208082526026908201527f4f776e61626c653a206e6577206f776e657220697320746865207a65726f206160408201526564647265737360d01b606082015260800190565b6020808252601b908201527f536166654d6174683a206164646974696f6e206f766572666c6f770000000000604082015260600190565b60208082526021908201527f536166654d6174683a206d756c7469706c69636174696f6e206f766572666c6f6040820152607760f81b606082015260800190565b6020808252818101527f4f776e61626c653a2063616c6c6572206973206e6f7420746865206f776e6572604082015260600190565b6020808252602e908201527f436f6e747261637420696e7374616e63652068617320616c726561647920626560408201526d195b881a5b9a5d1a585b1a5e995960921b606082015260800190565b918252602082015260400190565b958652602086019490945260408501929092526060840152608083015260a082015260c00190565b60405181810167ffffffffffffffff811182821017156118c257600080fd5b60405291905056fea2646970667358221220ceef6f4bc5bdac26e8c65b9754cede6d91d8aefeacdf8f529758dbaa1edc333264736f6c634300060c0033",
    "sourcePath": "/Users/225153/Projects/proxy-test/contracts/YGYStorageV1.sol",
    "compiler": {
        "name": "solc",
        "version": "0.6.12+commit.27d51765"
    },
    "functionHashes": {
        "RAMVaultStartBlock()": "31db122c",
        "YGYReserve()": "1dbf779e",
        "_NFTs(uint256)": "795d79f5",
        "_YGYRAMPair()": "2f4f8a7a",
        "_YGYToken()": "f7db38cb",
        "_YGYWETHPair()": "3b24bd4a",
        "_dXIOTToken()": "b81a0b4c",
        "addressStorageCount(uint256)": "6b42ee55",
        "booleanMapStorageCount(uint256)": "d6cf8021",
        "boostFees()": "09e3de41",
        "boostLevelCosts(uint256)": "469fcdcb",
        "boostLevelMultipliers(uint256)": "bcb49086",
        "checkRewards(uint256,address)": "10178d9c",
        "cumulativeRewardsSinceStart()": "c8ffb873",
        "cumulativeYGYRewardsSinceStart()": "9649d76c",
        "epoch()": "900cf0cf",
        "epochCalculationStartBlock()": "5d577c18",
        "epochRewards(uint256)": "4dc47d34",
        "getAddressStorage(string)": "ee02ea1b",
        "getBooleanMapValue(string,address)": "e671fab5",
        "getBoostLevelCost(uint256)": "6a9d1f6f",
        "getBoostLevelMultiplier(uint256)": "6798f19f",
        "getEpochRewards(uint256)": "5f0c0f2b",
        "getNFTAddress(uint256)": "9d18f773",
        "getNFTProperty(uint256,uint256)": "5498d4c0",
        "getPoolInfo(uint256)": "2f380b35",
        "getUserInfo(uint256,address)": "1069f3b5",
        "initializeRAMVault(address,address,address,address)": "36644334",
        "lastTicketLevel(address)": "cc40f664",
        "liquidityContributedEthValue(address)": "ad1414b2",
        "nftProperties(address,uint256)": "30d27e94",
        "owner()": "8da5cb5b",
        "pendingRewards()": "eded3fda",
        "pendingYGYRewards()": "8b6ff57b",
        "poolInfo(uint256)": "1526fe27",
        "poolLength()": "081e3eda",
        "ram()": "8f33b5e5",
        "regeneratoraddr()": "7d3b8da1",
        "renounceOwnership()": "715018a6",
        "rewardsInThisEpoch()": "608c8d3a",
        "stringToBytes32(string)": "cfb51928",
        "teamaddr()": "9a6d2711",
        "ticketCount()": "cfbd900f",
        "tickets(uint256)": "50b44712",
        "totalAllocPoint()": "17caf6f1",
        "transferOwnership(address)": "f2fde38b",
        "uintStorageCount(uint256)": "e941c856",
        "updateBoosts(uint256[],uint256[])": "b2f4b44a",
        "userInfo(uint256,address)": "93f1a40b",
        "ygy()": "fb70c3bf"
    },
    "gasEstimates": {
        "creation": {
            "codeDepositCost": "1280000",
            "executionCost": "1329",
            "totalCost": "1281329"
        },
        "external": {
            "RAMVaultStartBlock()": "1162",
            "YGYReserve()": "1074",
            "_NFTs(uint256)": "1346",
            "_YGYRAMPair()": "1160",
            "_YGYToken()": "1180",
            "_YGYWETHPair()": "1116",
            "_dXIOTToken()": "1225",
            "addressStorageCount(uint256)": "2085",
            "booleanMapStorageCount(uint256)": "2151",
            "boostFees()": "1097",
            "boostLevelCosts(uint256)": "1239",
            "boostLevelMultipliers(uint256)": "1216",
            "checkRewards(uint256,address)": "infinite",
            "cumulativeRewardsSinceStart()": "1095",
            "cumulativeYGYRewardsSinceStart()": "1073",
            "epoch()": "1162",
            "epochCalculationStartBlock()": "1184",
            "epochRewards(uint256)": "1261",
            "getAddressStorage(string)": "infinite",
            "getBooleanMapValue(string,address)": "infinite",
            "getBoostLevelCost(uint256)": "1238",
            "getBoostLevelMultiplier(uint256)": "1283",
            "getEpochRewards(uint256)": "1245",
            "getNFTAddress(uint256)": "1302",
            "getNFTProperty(uint256,uint256)": "infinite",
            "getPoolInfo(uint256)": "6691",
            "getUserInfo(uint256,address)": "6003",
            "initializeRAMVault(address,address,address,address)": "infinite",
            "lastTicketLevel(address)": "infinite",
            "liquidityContributedEthValue(address)": "infinite",
            "nftProperties(address,uint256)": "infinite",
            "owner()": "1160",
            "pendingRewards()": "1139",
            "pendingYGYRewards()": "1096",
            "poolInfo(uint256)": "6385",
            "poolLength()": "1075",
            "ram()": "1182",
            "regeneratoraddr()": "1116",
            "renounceOwnership()": "24312",
            "rewardsInThisEpoch()": "1118",
            "stringToBytes32(string)": "infinite",
            "teamaddr()": "1137",
            "ticketCount()": "1161",
            "tickets(uint256)": "5511",
            "totalAllocPoint()": "1185",
            "transferOwnership(address)": "infinite",
            "uintStorageCount(uint256)": "2085",
            "updateBoosts(uint256[],uint256[])": "infinite",
            "userInfo(uint256,address)": "5694",
            "ygy()": "1202"
        }
    }
}