{
  "address": "0xc3e53F4d16Ae77Db1c982e75a937B9f60FE63690",
  "abi": [
    {
      "anonymous": false,
      "inputs": [
        {
          "indexed": true,
          "internalType": "address",
          "name": "previousOwner",
          "type": "address"
        },
        {
          "indexed": true,
          "internalType": "address",
          "name": "newOwner",
          "type": "address"
        }
      ],
      "name": "OwnershipTransferred",
      "type": "event"
    },
    {
      "inputs": [
        {
          "internalType": "address",
          "name": "sender",
          "type": "address"
        },
        {
          "internalType": "address",
          "name": "recipient",
          "type": "address"
        },
        {
          "internalType": "uint256",
          "name": "amount",
          "type": "uint256"
        }
      ],
      "name": "calculateAmountsAfterFee",
      "outputs": [
        {
          "internalType": "uint256",
          "name": "transferToAmount",
          "type": "uint256"
        },
        {
          "internalType": "uint256",
          "name": "transferToFeeDistributorAmount",
          "type": "uint256"
        }
      ],
      "stateMutability": "nonpayable",
      "type": "function"
    },
    {
      "inputs": [
        {
          "internalType": "address",
          "name": "_address",
          "type": "address"
        },
        {
          "internalType": "bool",
          "name": "noFee",
          "type": "bool"
        }
      ],
      "name": "editNoFeeList",
      "outputs": [],
      "stateMutability": "nonpayable",
      "type": "function"
    },
    {
      "inputs": [],
      "name": "feePercentX100",
      "outputs": [
        {
          "internalType": "uint8",
          "name": "",
          "type": "uint8"
        }
      ],
      "stateMutability": "view",
      "type": "function"
    },
    {
      "inputs": [
        {
          "internalType": "address",
          "name": "_RAMAddress",
          "type": "address"
        },
        {
          "internalType": "address",
          "name": "_YGYAddress",
          "type": "address"
        },
        {
          "internalType": "address",
          "name": "_uniswapFactory",
          "type": "address"
        },
        {
          "internalType": "address",
          "name": "_ramVault",
          "type": "address"
        }
      ],
      "name": "initialize",
      "outputs": [],
      "stateMutability": "nonpayable",
      "type": "function"
    },
    {
      "inputs": [],
      "name": "lastTotalSupplyOfLPTokens",
      "outputs": [
        {
          "internalType": "uint256",
          "name": "",
          "type": "uint256"
        }
      ],
      "stateMutability": "view",
      "type": "function"
    },
    {
      "inputs": [
        {
          "internalType": "address",
          "name": "",
          "type": "address"
        }
      ],
      "name": "noFeeList",
      "outputs": [
        {
          "internalType": "bool",
          "name": "",
          "type": "bool"
        }
      ],
      "stateMutability": "view",
      "type": "function"
    },
    {
      "inputs": [],
      "name": "owner",
      "outputs": [
        {
          "internalType": "address",
          "name": "",
          "type": "address"
        }
      ],
      "stateMutability": "view",
      "type": "function"
    },
    {
      "inputs": [],
      "name": "renounceOwnership",
      "outputs": [],
      "stateMutability": "nonpayable",
      "type": "function"
    },
    {
      "inputs": [
        {
          "internalType": "uint8",
          "name": "_feeMultiplier",
          "type": "uint8"
        }
      ],
      "name": "setFeeMultiplier",
      "outputs": [],
      "stateMutability": "nonpayable",
      "type": "function"
    },
    {
      "inputs": [
        {
          "internalType": "uint256",
          "name": "finneyAmnt",
          "type": "uint256"
        }
      ],
      "name": "setMinimumLiquidityToTriggerStop",
      "outputs": [],
      "stateMutability": "nonpayable",
      "type": "function"
    },
    {
      "inputs": [
        {
          "internalType": "bool",
          "name": "_pause",
          "type": "bool"
        }
      ],
      "name": "setPaused",
      "outputs": [],
      "stateMutability": "nonpayable",
      "type": "function"
    },
    {
      "inputs": [
        {
          "internalType": "address",
          "name": "_ramVaultAddress",
          "type": "address"
        }
      ],
      "name": "setRamVaultAddress",
      "outputs": [],
      "stateMutability": "nonpayable",
      "type": "function"
    },
    {
      "inputs": [],
      "name": "sync",
      "outputs": [
        {
          "internalType": "bool",
          "name": "lastIsMint",
          "type": "bool"
        },
        {
          "internalType": "bool",
          "name": "lpTokenBurn",
          "type": "bool"
        }
      ],
      "stateMutability": "nonpayable",
      "type": "function"
    },
    {
      "inputs": [
        {
          "internalType": "address",
          "name": "newOwner",
          "type": "address"
        }
      ],
      "name": "transferOwnership",
      "outputs": [],
      "stateMutability": "nonpayable",
      "type": "function"
    },
    {
      "inputs": [],
      "name": "uniswapFactory",
      "outputs": [
        {
          "internalType": "contract IUniswapV2Factory",
          "name": "",
          "type": "address"
        }
      ],
      "stateMutability": "view",
      "type": "function"
    }
  ],
  "transactionHash": "0xa5f7ace1c77046663684ef9b5cfff8d2e10822079910460576736f6bae1a4581",
  "args": [],
  "solcInputHash": "76850087fa2fc7e08bf89f9b4dbdc5a7",
  "bytecode": "0x608060405234801561001057600080fd5b50611303806100206000396000f3fe608060405234801561001057600080fd5b50600436106100f55760003560e01c80638aee4cfe11610097578063d5b71d5b11610066578063d5b71d5b14610284578063f2fde38b146102a1578063f8c8765e146102c7578063fff6cae914610305576100f5565b80638aee4cfe1461021e5780638bdb2afa1461023e5780638da5cb5b1461026257806392f619301461026a576100f5565b806351d271be116100d357806351d271be14610188578063546160c6146101b6578063715018a6146101dc5780638aa1ff70146101e4576100f5565b806316c38b3c146100fa578063301a58011461011b5780633b4e71ad1461016a575b600080fd5b6101196004803603602081101561011057600080fd5b50351515610328565b005b6101516004803603606081101561013157600080fd5b506001600160a01b0381358116916020810135909116906040013561039b565b6040805192835260208301919091528051918290030190f35b610172610564565b6040805160ff9092168252519081900360200190f35b6101196004803603604081101561019e57600080fd5b506001600160a01b0381351690602001351515610574565b610119600480360360208110156101cc57600080fd5b50356001600160a01b03166105da565b61011961066c565b61020a600480360360208110156101fa57600080fd5b50356001600160a01b031661070e565b604080519115158252519081900360200190f35b6101196004803603602081101561023457600080fd5b503560ff16610723565b61024661079b565b604080516001600160a01b039092168252519081900360200190f35b6102466107aa565b6102726107b9565b60408051918252519081900360200190f35b6101196004803603602081101561029a57600080fd5b50356107bf565b610119600480360360208110156102b757600080fd5b50356001600160a01b031661081c565b610119600480360360808110156102dd57600080fd5b506001600160a01b038135811691602081013582169160408201358116916060013516610915565b61030d610ade565b60408051921515835290151560208301528051918290030190f35b610330610cb3565b6065546001600160a01b03908116911614610380576040805162461bcd60e51b81526020600482018190526024820152600080516020611280833981519152604482015290519081900360640190fd5b609d805460ff1916821515179055610396610ade565b505050565b609d54600090819060ff16156103f8576040805162461bcd60e51b815260206004820152601e60248201527f46454520415050524f5645523a205472616e7366657273205061757365640000604482015290519081900360640190fd5b600080610403610ade565b60975491935091506001600160a01b03888116911614156104c4578115610471576040805162461bcd60e51b815260206004820152601f60248201527f4c6971756964697479207769746864726177616c7320666f7262696464656e00604482015290519081900360640190fd5b80156104c4576040805162461bcd60e51b815260206004820152601f60248201527f4c6971756964697479207769746864726177616c7320666f7262696464656e00604482015290519081900360640190fd5b6001600160a01b038716600090815260a0602052604090205460ff1615610525576105196040518060400160405280601381526020017253656e64696e6720776974686f75742066656560681b815250610cb7565b6000925084935061055a565b609b5461054b906103e890610545908890600160a01b900460ff16610d60565b90610dc2565b92506105578584610e04565b93505b5050935093915050565b609b54600160a01b900460ff1681565b61057c610cb3565b6065546001600160a01b039081169116146105cc576040805162461bcd60e51b81526020600482018190526024820152600080516020611280833981519152604482015290519081900360640190fd5b6105d68282610e46565b5050565b6105e2610cb3565b6065546001600160a01b03908116911614610632576040805162461bcd60e51b81526020600482018190526024820152600080516020611280833981519152604482015290519081900360640190fd5b609b80546001600160a01b0319166001600160a01b03928316179081905516600090815260a060205260409020805460ff19166001179055565b610674610cb3565b6065546001600160a01b039081169116146106c4576040805162461bcd60e51b81526020600482018190526024820152600080516020611280833981519152604482015290519081900360640190fd5b6065546040516000916001600160a01b0316907f8be0079c531659141344cd1fd0a4f28419497f9722a3daafe3b4186f6b6457e0908390a3606580546001600160a01b0319169055565b60a06020526000908152604090205460ff1681565b61072b610cb3565b6065546001600160a01b0390811691161461077b576040805162461bcd60e51b81526020600482018190526024820152600080516020611280833981519152604482015290519081900360640190fd5b609b805460ff909216600160a01b0260ff60a01b19909216919091179055565b6098546001600160a01b031681565b6065546001600160a01b031690565b609c5481565b6107c7610cb3565b6065546001600160a01b03908116911614610817576040805162461bcd60e51b81526020600482018190526024820152600080516020611280833981519152604482015290519081900360640190fd5b60a155565b610824610cb3565b6065546001600160a01b03908116911614610874576040805162461bcd60e51b81526020600482018190526024820152600080516020611280833981519152604482015290519081900360640190fd5b6001600160a01b0381166108b95760405162461bcd60e51b81526004018080602001828103825260268152602001806112396026913960400191505060405180910390fd5b6065546040516001600160a01b038084169216907f8be0079c531659141344cd1fd0a4f28419497f9722a3daafe3b4186f6b6457e090600090a3606580546001600160a01b0319166001600160a01b0392909216919091179055565b600054610100900460ff168061092e575061092e610e71565b8061093c575060005460ff16155b6109775760405162461bcd60e51b815260040180806020018281038252602e8152602001806112a0602e913960400191505060405180910390fd5b600054610100900460ff161580156109a2576000805460ff1961ff0019909116610100171660011790555b6109aa610e77565b609980546001600160a01b038088166001600160a01b03199283161792839055609a8054888316931692909217918290556040805163e6a4390560e01b81529282166004840152928116602483015291519185169163e6a4390591604480820192602092909190829003018186803b158015610a2557600080fd5b505afa158015610a39573d6000803e3d6000fd5b505050506040513d6020811015610a4f57600080fd5b5051609780546001600160a01b0319166001600160a01b03909216919091179055609b805460ff60a01b1916600560a11b179055609d805460ff19166001908117909155610a9e908390610e46565b609754610ab5906001600160a01b03166001610e46565b610abd610ade565b505061138860a1558015610ad7576000805461ff00191690555b5050505050565b6000806000609760009054906101000a90046001600160a01b03166001600160a01b03166318160ddd6040518163ffffffff1660e01b815260040160206040518083038186803b158015610b3157600080fd5b505afa158015610b45573d6000803e3d6000fd5b505050506040513d6020811015610b5b57600080fd5b5051609c805490829055609a54609754604080516370a0823160e01b81526001600160a01b039283166004820152905193851096509394506000939116916370a0823191602480820192602092909190829003018186803b158015610bbf57600080fd5b505afa158015610bd3573d6000803e3d6000fd5b505050506040513d6020811015610be957600080fd5b5051609954609754604080516370a0823160e01b81526001600160a01b039283166004820152905193945060009391909216916370a08231916024808301926020929190829003018186803b158015610c4157600080fd5b505afa158015610c55573d6000803e3d6000fd5b505050506040513d6020811015610c6b57600080fd5b5051609e5490915081118015610ca0575060a154610c9d90610c949066038d7ea4c68000610d60565b609f5490610f28565b82115b609e91909155609f919091559391925050565b3390565b610d5d816040516024018080602001828103825283818151815260200191508051906020019080838360005b83811015610cfb578181015183820152602001610ce3565b50505050905090810190601f168015610d285780820380516001836020036101000a031916815260200191505b5060408051601f198184030181529190526020810180516001600160e01b031663104c13eb60e21b1790529250610f82915050565b50565b600082610d6f57506000610dbc565b82820282848281610d7c57fe5b0414610db95760405162461bcd60e51b815260040180806020018281038252602181526020018061125f6021913960400191505060405180910390fd5b90505b92915050565b6000610db983836040518060400160405280601a81526020017f536166654d6174683a206469766973696f6e206279207a65726f000000000000815250610fa3565b6000610db983836040518060400160405280601e81526020017f536166654d6174683a207375627472616374696f6e206f766572666c6f770000815250611045565b6001600160a01b0391909116600090815260a060205260409020805460ff1916911515919091179055565b303b1590565b600054610100900460ff1680610e905750610e90610e71565b80610e9e575060005460ff16155b610ed95760405162461bcd60e51b815260040180806020018281038252602e8152602001806112a0602e913960400191505060405180910390fd5b600054610100900460ff16158015610f04576000805460ff1961ff0019909116610100171660011790555b610f0c61109f565b610f1461113f565b8015610d5d576000805461ff001916905550565b600082820183811015610db9576040805162461bcd60e51b815260206004820152601b60248201527f536166654d6174683a206164646974696f6e206f766572666c6f770000000000604482015290519081900360640190fd5b80516a636f6e736f6c652e6c6f67602083016000808483855afa5050505050565b6000818361102f5760405162461bcd60e51b81526004018080602001828103825283818151815260200191508051906020019080838360005b83811015610ff4578181015183820152602001610fdc565b50505050905090810190601f1680156110215780820380516001836020036101000a031916815260200191505b509250505060405180910390fd5b50600083858161103b57fe5b0495945050505050565b600081848411156110975760405162461bcd60e51b8152602060048201818152835160248401528351909283926044909101919085019080838360008315610ff4578181015183820152602001610fdc565b505050900390565b600054610100900460ff16806110b857506110b8610e71565b806110c6575060005460ff16155b6111015760405162461bcd60e51b815260040180806020018281038252602e8152602001806112a0602e913960400191505060405180910390fd5b600054610100900460ff16158015610f14576000805460ff1961ff0019909116610100171660011790558015610d5d576000805461ff001916905550565b600054610100900460ff16806111585750611158610e71565b80611166575060005460ff16155b6111a15760405162461bcd60e51b815260040180806020018281038252602e8152602001806112a0602e913960400191505060405180910390fd5b600054610100900460ff161580156111cc576000805460ff1961ff0019909116610100171660011790555b60006111d6610cb3565b606580546001600160a01b0319166001600160a01b038316908117909155604051919250906000907f8be0079c531659141344cd1fd0a4f28419497f9722a3daafe3b4186f6b6457e0908290a3508015610d5d576000805461ff00191690555056fe4f776e61626c653a206e6577206f776e657220697320746865207a65726f2061646472657373536166654d6174683a206d756c7469706c69636174696f6e206f766572666c6f774f776e61626c653a2063616c6c6572206973206e6f7420746865206f776e6572436f6e747261637420696e7374616e63652068617320616c7265616479206265656e20696e697469616c697a6564a26469706673582212208dcc79f09c523ccfb6a2968c44e5416e494dcde1bf940137722bae24e36952cf64736f6c634300060c0033",
  "devdoc": {
    "kind": "dev",
    "methods": {
      "owner()": {
        "details": "Returns the address of the current owner."
      },
      "renounceOwnership()": {
        "details": "Leaves the contract without owner. It will not be possible to call `onlyOwner` functions anymore. Can only be called by the current owner. NOTE: Renouncing ownership will leave the contract without an owner, thereby removing any functionality that is only available to the owner."
      },
      "transferOwnership(address)": {
        "details": "Transfers ownership of the contract to a new account (`newOwner`). Can only be called by the current owner."
      }
    },
    "version": 1
  },
  "userdoc": {
    "kind": "user",
    "methods": {},
    "version": 1
  },
  "storageLayout": {
    "storage": [
      {
        "astId": 195,
        "contract": "contracts/FeeApprover.sol:FeeApprover",
        "label": "initialized",
        "offset": 0,
        "slot": "0",
        "type": "t_bool"
      },
      {
        "astId": 198,
        "contract": "contracts/FeeApprover.sol:FeeApprover",
        "label": "initializing",
        "offset": 1,
        "slot": "0",
        "type": "t_bool"
      },
      {
        "astId": 263,
        "contract": "contracts/FeeApprover.sol:FeeApprover",
        "label": "______gap",
        "offset": 0,
        "slot": "1",
        "type": "t_array(t_uint256)50_storage"
      },
      {
        "astId": 188,
        "contract": "contracts/FeeApprover.sol:FeeApprover",
        "label": "__gap",
        "offset": 0,
        "slot": "51",
        "type": "t_array(t_uint256)50_storage"
      },
      {
        "astId": 565,
        "contract": "contracts/FeeApprover.sol:FeeApprover",
        "label": "_owner",
        "offset": 0,
        "slot": "101",
        "type": "t_address"
      },
      {
        "astId": 683,
        "contract": "contracts/FeeApprover.sol:FeeApprover",
        "label": "__gap",
        "offset": 0,
        "slot": "102",
        "type": "t_array(t_uint256)49_storage"
      },
      {
        "astId": 5900,
        "contract": "contracts/FeeApprover.sol:FeeApprover",
        "label": "tokenUniswapPair",
        "offset": 0,
        "slot": "151",
        "type": "t_address"
      },
      {
        "astId": 5902,
        "contract": "contracts/FeeApprover.sol:FeeApprover",
        "label": "uniswapFactory",
        "offset": 0,
        "slot": "152",
        "type": "t_contract(IUniswapV2Factory)4625"
      },
      {
        "astId": 5904,
        "contract": "contracts/FeeApprover.sol:FeeApprover",
        "label": "ramTokenAddress",
        "offset": 0,
        "slot": "153",
        "type": "t_address"
      },
      {
        "astId": 5906,
        "contract": "contracts/FeeApprover.sol:FeeApprover",
        "label": "ygyTokenAddress",
        "offset": 0,
        "slot": "154",
        "type": "t_address"
      },
      {
        "astId": 5908,
        "contract": "contracts/FeeApprover.sol:FeeApprover",
        "label": "ramVaultAddress",
        "offset": 0,
        "slot": "155",
        "type": "t_address"
      },
      {
        "astId": 5910,
        "contract": "contracts/FeeApprover.sol:FeeApprover",
        "label": "feePercentX100",
        "offset": 20,
        "slot": "155",
        "type": "t_uint8"
      },
      {
        "astId": 5912,
        "contract": "contracts/FeeApprover.sol:FeeApprover",
        "label": "lastTotalSupplyOfLPTokens",
        "offset": 0,
        "slot": "156",
        "type": "t_uint256"
      },
      {
        "astId": 5914,
        "contract": "contracts/FeeApprover.sol:FeeApprover",
        "label": "paused",
        "offset": 0,
        "slot": "157",
        "type": "t_bool"
      },
      {
        "astId": 5916,
        "contract": "contracts/FeeApprover.sol:FeeApprover",
        "label": "lastSupplyOfRamInPair",
        "offset": 0,
        "slot": "158",
        "type": "t_uint256"
      },
      {
        "astId": 5918,
        "contract": "contracts/FeeApprover.sol:FeeApprover",
        "label": "lastSupplyOfYgyInPair",
        "offset": 0,
        "slot": "159",
        "type": "t_uint256"
      },
      {
        "astId": 5922,
        "contract": "contracts/FeeApprover.sol:FeeApprover",
        "label": "noFeeList",
        "offset": 0,
        "slot": "160",
        "type": "t_mapping(t_address,t_bool)"
      },
      {
        "astId": 5998,
        "contract": "contracts/FeeApprover.sol:FeeApprover",
        "label": "minFinney",
        "offset": 0,
        "slot": "161",
        "type": "t_uint256"
      }
    ],
    "types": {
      "t_address": {
        "encoding": "inplace",
        "label": "address",
        "numberOfBytes": "20"
      },
      "t_array(t_uint256)49_storage": {
        "base": "t_uint256",
        "encoding": "inplace",
        "label": "uint256[49]",
        "numberOfBytes": "1568"
      },
      "t_array(t_uint256)50_storage": {
        "base": "t_uint256",
        "encoding": "inplace",
        "label": "uint256[50]",
        "numberOfBytes": "1600"
      },
      "t_bool": {
        "encoding": "inplace",
        "label": "bool",
        "numberOfBytes": "1"
      },
      "t_contract(IUniswapV2Factory)4625": {
        "encoding": "inplace",
        "label": "contract IUniswapV2Factory",
        "numberOfBytes": "20"
      },
      "t_mapping(t_address,t_bool)": {
        "encoding": "mapping",
        "key": "t_address",
        "label": "mapping(address => bool)",
        "numberOfBytes": "32",
        "value": "t_bool"
      },
      "t_uint256": {
        "encoding": "inplace",
        "label": "uint256",
        "numberOfBytes": "32"
      },
      "t_uint8": {
        "encoding": "inplace",
        "label": "uint8",
        "numberOfBytes": "1"
      }
    }
  }
}