{
  "address": "0x2bdCC0de6bE1f7D2ee689a0342D76F52E8EFABa3",
  "abi": [
    {
      "inputs": [
        {
          "internalType": "address",
          "name": "_YGYToken",
          "type": "address"
        },
        {
          "internalType": "address",
          "name": "_RAMRouter",
          "type": "address"
        }
      ],
      "stateMutability": "nonpayable",
      "type": "constructor"
    },
    {
      "inputs": [],
      "name": "RAMRouter",
      "outputs": [
        {
          "internalType": "contract IRAMv1Router",
          "name": "",
          "type": "address"
        }
      ],
      "stateMutability": "view",
      "type": "function"
    },
    {
      "inputs": [],
      "name": "YGYToken",
      "outputs": [
        {
          "internalType": "contract IERC20",
          "name": "",
          "type": "address"
        }
      ],
      "stateMutability": "view",
      "type": "function"
    },
    {
      "inputs": [],
      "name": "enterRegeneratorUpdateStagingMode",
      "outputs": [],
      "stateMutability": "nonpayable",
      "type": "function"
    },
    {
      "inputs": [
        {
          "internalType": "uint256",
          "name": "_level",
          "type": "uint256"
        }
      ],
      "name": "getDurationForLevel",
      "outputs": [
        {
          "internalType": "uint256",
          "name": "",
          "type": "uint256"
        }
      ],
      "stateMutability": "pure",
      "type": "function"
    },
    {
      "inputs": [
        {
          "internalType": "uint256",
          "name": "_level",
          "type": "uint256"
        }
      ],
      "name": "getMultiplierForLevel",
      "outputs": [
        {
          "internalType": "uint256",
          "name": "",
          "type": "uint256"
        }
      ],
      "stateMutability": "pure",
      "type": "function"
    },
    {
      "inputs": [
        {
          "internalType": "address",
          "name": "user",
          "type": "address"
        },
        {
          "internalType": "uint256",
          "name": "level",
          "type": "uint256"
        }
      ],
      "name": "hasTimeLockAtLevel",
      "outputs": [
        {
          "internalType": "bool",
          "name": "_hasTimelock",
          "type": "bool"
        },
        {
          "internalType": "uint256",
          "name": "_level",
          "type": "uint256"
        },
        {
          "internalType": "uint256",
          "name": "_unlockTime",
          "type": "uint256"
        }
      ],
      "stateMutability": "view",
      "type": "function"
    },
    {
      "inputs": [],
      "name": "lastRAMRouterUpdateTime",
      "outputs": [
        {
          "internalType": "uint256",
          "name": "",
          "type": "uint256"
        }
      ],
      "stateMutability": "view",
      "type": "function"
    },
    {
      "inputs": [
        {
          "internalType": "uint256",
          "name": "_number",
          "type": "uint256"
        }
      ],
      "name": "setUserNumber",
      "outputs": [],
      "stateMutability": "nonpayable",
      "type": "function"
    },
    {
      "inputs": [
        {
          "internalType": "uint256",
          "name": "_amount",
          "type": "uint256"
        },
        {
          "internalType": "uint256",
          "name": "_level",
          "type": "uint256"
        },
        {
          "internalType": "uint256",
          "name": "_number",
          "type": "uint256"
        }
      ],
      "name": "timelockYGY",
      "outputs": [],
      "stateMutability": "nonpayable",
      "type": "function"
    },
    {
      "inputs": [
        {
          "internalType": "uint256",
          "name": "_level",
          "type": "uint256"
        }
      ],
      "name": "unlockOldestTimelock",
      "outputs": [],
      "stateMutability": "nonpayable",
      "type": "function"
    },
    {
      "inputs": [],
      "name": "updateRAMRouterRegeneratorTax",
      "outputs": [],
      "stateMutability": "nonpayable",
      "type": "function"
    },
    {
      "inputs": [],
      "name": "updateStagingMode",
      "outputs": [
        {
          "internalType": "bool",
          "name": "",
          "type": "bool"
        }
      ],
      "stateMutability": "view",
      "type": "function"
    },
    {
      "inputs": [],
      "name": "updateStagingReadyTime",
      "outputs": [
        {
          "internalType": "uint256",
          "name": "",
          "type": "uint256"
        }
      ],
      "stateMutability": "view",
      "type": "function"
    },
    {
      "inputs": [
        {
          "internalType": "address",
          "name": "",
          "type": "address"
        }
      ],
      "name": "users",
      "outputs": [
        {
          "internalType": "uint256",
          "name": "number",
          "type": "uint256"
        },
        {
          "internalType": "uint256",
          "name": "timelockedYGY",
          "type": "uint256"
        }
      ],
      "stateMutability": "view",
      "type": "function"
    },
    {
      "inputs": [],
      "name": "votingShares",
      "outputs": [
        {
          "internalType": "uint256",
          "name": "",
          "type": "uint256"
        }
      ],
      "stateMutability": "view",
      "type": "function"
    },
    {
      "inputs": [],
      "name": "weightedNumber",
      "outputs": [
        {
          "internalType": "uint256",
          "name": "",
          "type": "uint256"
        }
      ],
      "stateMutability": "view",
      "type": "function"
    }
  ],
  "transactionHash": "0x600121615edde374fe8adc133b4a0ad372509184056abb00030b64c330fc50f8",
  "args": [
    "0xCf7Ed3AccA5a467e9e704C703E8D87F634fB0Fc9",
    "0x1613beB3B2C4f22Ee086B2b38C1476A3cE7f78E8"
  ],
  "solcInputHash": "76850087fa2fc7e08bf89f9b4dbdc5a7",
  "bytecode": "0x608060405234801561001057600080fd5b50604051610eb1380380610eb18339818101604052604081101561003357600080fd5b508051602090910151600080546001600160a01b039384166001600160a01b03199182161790915560018054939092169216919091178155600255610e348061007d6000396000f3fe608060405234801561001057600080fd5b50600436106101005760003560e01c8063978f254b11610097578063bbdc1d6711610066578063bbdc1d6714610270578063bf6ece401461028d578063c94c8201146102a9578063d80137e1146102b157610100565b8063978f254b14610204578063a33231591461020c578063a87430ba14610229578063ae38e4781461026857610100565b80638a48abc4116100d35780638a48abc41461014e5780638e75217e1461016b57806392d489031461018f578063952c5df7146101db57610100565b80632a23cf2014610105578063310fdd0a1461012457806370e560301461013e578063776fb9c014610146575b600080fd5b6101226004803603602081101561011b57600080fd5b50356102b9565b005b61012c61033c565b60408051918252519081900360200190f35b61012c610342565b61012c610348565b61012c6004803603602081101561016457600080fd5b503561034e565b6101736103a0565b604080516001600160a01b039092168252519081900360200190f35b6101bb600480360360408110156101a557600080fd5b506001600160a01b0381351690602001356103af565b604080519315158452602084019290925282820152519081900360600190f35b610122600480360360608110156101f157600080fd5b508035906020810135906040013561042d565b6101226106ae565b6101226004803603602081101561022257600080fd5b50356107be565b61024f6004803603602081101561023f57600080fd5b50356001600160a01b031661099c565b6040805192835260208301919091528051918290030190f35b61012c6109b5565b61012c6004803603602081101561028657600080fd5b50356109bb565b610295610a13565b604080519115158252519081900360200190f35b610122610a1c565b610173610a88565b600181101580156102cb575060088111155b61031c576040805162461bcd60e51b815260206004820152601b60248201527f4e756d626572206d75737420626520696e2072616e676520312d380000000000604482015290519081900360640190fd5b3360008181526007602052604090208281559061033890610a97565b5050565b60035481565b60065481565b60025481565b600081600114156103615750609661039b565b8160021415610373575061012c61039b565b816003141561038557506103e861039b565b816004141561039757506109c461039b565b5060965b919050565b6000546001600160a01b031681565b6001600160a01b038216600090815260076020908152604080832084845260048101909252822054829182918015610418575060008581526003820160209081526040808320546002948501835281842090845290915290200154600193508492509050610426565b600086600094509450945050505b9250925092565b6001811015801561043f575060088111155b610490576040805162461bcd60e51b815260206004820152601b60248201527f4e756d626572206d75737420626520696e2072616e676520312d380000000000604482015290519081900360640190fd5b60008054604080516323b872dd60e01b81523360048201523060248201526044810187905290516001600160a01b03909216926323b872dd926064808401936020939083900390910190829087803b1580156104eb57600080fd5b505af11580156104ff573d6000803e3d6000fd5b505050506040513d602081101561051557600080fd5b5051610568576040805162461bcd60e51b815260206004820152601a60248201527f4861766520746f6b656e73206265656e20617070726f7665643f000000000000604482015290519081900360640190fd5b3360009081526007602052604081209061059660646105906105898761034e565b8890610b37565b90610b99565b90506105a0610d73565b60405180606001604052808381526020018681526020016105ca6105c3886109bb565b4290610bdb565b90526000868152600385016020526040902054909150610612576000858152600384016020526040902054610600906001610bdb565b60008681526003850160205260409020555b600085815260048401602052604081205461062e906001610bdb565b6000878152600280870160209081526040808420858552825280842087518155828801516001808301919091558289015191909401558a8452600489019091529091208290558501549091506106849084610bdb565b60018501556003546106969084610bdb565b6003558484556106a533610a97565b50505050505050565b60055460ff16610705576040805162461bcd60e51b815260206004820152601e60248201527f4d75737420626520696e207570646174652073746167696e67206d6f64650000604482015290519081900360640190fd5b6006544210156107465760405162461bcd60e51b8152600401808060200182810382526028815260200180610dd76028913960400191505060405180910390fd5b6005805460ff1916905542600490815560015460025460408051630c39622b60e21b815293840191909152516001600160a01b03909116916330e588ac91602480830192600092919082900301818387803b1580156107a457600080fd5b505af11580156107b8573d6000803e3d6000fd5b50505050565b3360009081526007602090815260408083208484526003810183528184205460028083018552838620828752909452919093209182015490919042101561084c576040805162461bcd60e51b815260206004820152601b60248201527f546f6b656e7320617265207374696c6c2074696d656c6f636b65640000000000604482015290519081900360640190fd5b8054600184015461085c91610c35565b6001840155805460035461086f91610c35565b600381905550600061089461088c6064610590856001015461034e565b835490610b99565b600080546040805163a9059cbb60e01b81523360048201526024810185905290519394506001600160a01b039091169263a9059cbb92604480840193602093929083900390910190829087803b1580156108ed57600080fd5b505af1158015610901573d6000803e3d6000fd5b505050506040513d602081101561091757600080fd5b5050600085815260028086016020908152604080842087855290915282208281556001808201849055910191909155610951908490610bdb565b6000868152600386016020908152604080832093909355600487019052205461097b906001610c35565b600086815260048601602052604090205561099533610a97565b5050505050565b6007602052600090815260409020805460019091015482565b60045481565b600081600114156109d057506212750061039b565b81600214156109e357506224ea0061039b565b81600314156109f65750626ebe0061039b565b8160041415610a09575062dd7c0061039b565b5062127500919050565b60055460ff1681565b600454610a2c9062015180610bdb565b421015610a6a5760405162461bcd60e51b8152600401808060200182810382526021815260200180610db66021913960400191505060405180910390fd5b6005805460ff19166001179055610a8342610258610bdb565b600655565b6001546001600160a01b031681565b6001600160a01b03811660009081526007602052604081206001810154600354919291610ac391610c35565b82546001840154919250600091610ad991610b37565b90506000610af260025484610b3790919063ffffffff16565b90506000610b008383610bdb565b90506000600354118015610b18575060008560010154115b15610b2f57600354610b2b908290610b99565b6002555b505050505050565b600082610b4657506000610b93565b82820282848281610b5357fe5b0414610b905760405162461bcd60e51b8152600401808060200182810382526021815260200180610d956021913960400191505060405180910390fd5b90505b92915050565b6000610b9083836040518060400160405280601a81526020017f536166654d6174683a206469766973696f6e206279207a65726f000000000000815250610c77565b600082820183811015610b90576040805162461bcd60e51b815260206004820152601b60248201527f536166654d6174683a206164646974696f6e206f766572666c6f770000000000604482015290519081900360640190fd5b6000610b9083836040518060400160405280601e81526020017f536166654d6174683a207375627472616374696f6e206f766572666c6f770000815250610d19565b60008183610d035760405162461bcd60e51b81526004018080602001828103825283818151815260200191508051906020019080838360005b83811015610cc8578181015183820152602001610cb0565b50505050905090810190601f168015610cf55780820380516001836020036101000a031916815260200191505b509250505060405180910390fd5b506000838581610d0f57fe5b0495945050505050565b60008184841115610d6b5760405162461bcd60e51b8152602060048201818152835160248401528351909283926044909101919085019080838360008315610cc8578181015183820152602001610cb0565b505050900390565b6040518060600160405280600081526020016000815260200160008152509056fe536166654d6174683a206d756c7469706c69636174696f6e206f766572666c6f774d75737420776169742031206461792073696e6365206c617374207570646174654d7573742077616974203130206d696e757465732073696e63652075706461746520737461676564a264697066735822122095e698d0b43289576d6450f490e9359810f5dc832dc5a8a968658345fa70360164736f6c634300060c0033",
  "devdoc": {
    "kind": "dev",
    "methods": {},
    "version": 1
  },
  "userdoc": {
    "kind": "user",
    "methods": {},
    "version": 1
  },
  "storageLayout": {
    "storage": [
      {
        "astId": 6173,
        "contract": "contracts/Governance.sol:Governance",
        "label": "YGYToken",
        "offset": 0,
        "slot": "0",
        "type": "t_contract(IERC20)1045"
      },
      {
        "astId": 6175,
        "contract": "contracts/Governance.sol:Governance",
        "label": "RAMRouter",
        "offset": 0,
        "slot": "1",
        "type": "t_contract(IRAMv1Router)16331"
      },
      {
        "astId": 6177,
        "contract": "contracts/Governance.sol:Governance",
        "label": "weightedNumber",
        "offset": 0,
        "slot": "2",
        "type": "t_uint256"
      },
      {
        "astId": 6179,
        "contract": "contracts/Governance.sol:Governance",
        "label": "votingShares",
        "offset": 0,
        "slot": "3",
        "type": "t_uint256"
      },
      {
        "astId": 6181,
        "contract": "contracts/Governance.sol:Governance",
        "label": "lastRAMRouterUpdateTime",
        "offset": 0,
        "slot": "4",
        "type": "t_uint256"
      },
      {
        "astId": 6183,
        "contract": "contracts/Governance.sol:Governance",
        "label": "updateStagingMode",
        "offset": 0,
        "slot": "5",
        "type": "t_bool"
      },
      {
        "astId": 6185,
        "contract": "contracts/Governance.sol:Governance",
        "label": "updateStagingReadyTime",
        "offset": 0,
        "slot": "6",
        "type": "t_uint256"
      },
      {
        "astId": 6215,
        "contract": "contracts/Governance.sol:Governance",
        "label": "users",
        "offset": 0,
        "slot": "7",
        "type": "t_mapping(t_address,t_struct(User)6204_storage)"
      }
    ],
    "types": {
      "t_address": {
        "encoding": "inplace",
        "label": "address",
        "numberOfBytes": "20"
      },
      "t_bool": {
        "encoding": "inplace",
        "label": "bool",
        "numberOfBytes": "1"
      },
      "t_contract(IERC20)1045": {
        "encoding": "inplace",
        "label": "contract IERC20",
        "numberOfBytes": "20"
      },
      "t_contract(IRAMv1Router)16331": {
        "encoding": "inplace",
        "label": "contract IRAMv1Router",
        "numberOfBytes": "20"
      },
      "t_mapping(t_address,t_struct(User)6204_storage)": {
        "encoding": "mapping",
        "key": "t_address",
        "label": "mapping(address => struct Governance.User)",
        "numberOfBytes": "32",
        "value": "t_struct(User)6204_storage"
      },
      "t_mapping(t_uint256,t_mapping(t_uint256,t_struct(TimeLock)6211_storage))": {
        "encoding": "mapping",
        "key": "t_uint256",
        "label": "mapping(uint256 => mapping(uint256 => struct Governance.TimeLock))",
        "numberOfBytes": "32",
        "value": "t_mapping(t_uint256,t_struct(TimeLock)6211_storage)"
      },
      "t_mapping(t_uint256,t_struct(TimeLock)6211_storage)": {
        "encoding": "mapping",
        "key": "t_uint256",
        "label": "mapping(uint256 => struct Governance.TimeLock)",
        "numberOfBytes": "32",
        "value": "t_struct(TimeLock)6211_storage"
      },
      "t_mapping(t_uint256,t_uint256)": {
        "encoding": "mapping",
        "key": "t_uint256",
        "label": "mapping(uint256 => uint256)",
        "numberOfBytes": "32",
        "value": "t_uint256"
      },
      "t_struct(TimeLock)6211_storage": {
        "encoding": "inplace",
        "label": "struct Governance.TimeLock",
        "members": [
          {
            "astId": 6206,
            "contract": "contracts/Governance.sol:Governance",
            "label": "multipliedAmount",
            "offset": 0,
            "slot": "0",
            "type": "t_uint256"
          },
          {
            "astId": 6208,
            "contract": "contracts/Governance.sol:Governance",
            "label": "level",
            "offset": 0,
            "slot": "1",
            "type": "t_uint256"
          },
          {
            "astId": 6210,
            "contract": "contracts/Governance.sol:Governance",
            "label": "unlockTime",
            "offset": 0,
            "slot": "2",
            "type": "t_uint256"
          }
        ],
        "numberOfBytes": "96"
      },
      "t_struct(User)6204_storage": {
        "encoding": "inplace",
        "label": "struct Governance.User",
        "members": [
          {
            "astId": 6187,
            "contract": "contracts/Governance.sol:Governance",
            "label": "number",
            "offset": 0,
            "slot": "0",
            "type": "t_uint256"
          },
          {
            "astId": 6189,
            "contract": "contracts/Governance.sol:Governance",
            "label": "timelockedYGY",
            "offset": 0,
            "slot": "1",
            "type": "t_uint256"
          },
          {
            "astId": 6195,
            "contract": "contracts/Governance.sol:Governance",
            "label": "timelocks",
            "offset": 0,
            "slot": "2",
            "type": "t_mapping(t_uint256,t_mapping(t_uint256,t_struct(TimeLock)6211_storage))"
          },
          {
            "astId": 6199,
            "contract": "contracts/Governance.sol:Governance",
            "label": "timelockTop",
            "offset": 0,
            "slot": "3",
            "type": "t_mapping(t_uint256,t_uint256)"
          },
          {
            "astId": 6203,
            "contract": "contracts/Governance.sol:Governance",
            "label": "timelockCount",
            "offset": 0,
            "slot": "4",
            "type": "t_mapping(t_uint256,t_uint256)"
          }
        ],
        "numberOfBytes": "160"
      },
      "t_uint256": {
        "encoding": "inplace",
        "label": "uint256",
        "numberOfBytes": "32"
      }
    }
  }
}