{
  "address": "0x610178dA211FEF7D417bC0e6FeD39F05609AD788",
  "abi": [
    {
      "inputs": [
        {
          "internalType": "contract YGYStorageV1",
          "name": "__storage",
          "type": "address"
        }
      ],
      "stateMutability": "nonpayable",
      "type": "constructor"
    },
    {
      "anonymous": false,
      "inputs": [
        {
          "indexed": false,
          "internalType": "string",
          "name": "tokenName",
          "type": "string"
        },
        {
          "indexed": false,
          "internalType": "address",
          "name": "from",
          "type": "address"
        },
        {
          "indexed": false,
          "internalType": "uint256",
          "name": "tokenId",
          "type": "uint256"
        }
      ],
      "name": "NFTBurned",
      "type": "event"
    },
    {
      "anonymous": false,
      "inputs": [
        {
          "indexed": false,
          "internalType": "string",
          "name": "tokenName",
          "type": "string"
        },
        {
          "indexed": false,
          "internalType": "address",
          "name": "to",
          "type": "address"
        },
        {
          "indexed": false,
          "internalType": "uint256",
          "name": "tokenId",
          "type": "uint256"
        }
      ],
      "name": "NFTMinted",
      "type": "event"
    },
    {
      "anonymous": false,
      "inputs": [
        {
          "indexed": true,
          "internalType": "address",
          "name": "previousOwner",
          "type": "address"
        },
        {
          "indexed": true,
          "internalType": "address",
          "name": "newOwner",
          "type": "address"
        }
      ],
      "name": "OwnershipTransferred",
      "type": "event"
    },
    {
      "inputs": [
        {
          "internalType": "contract INFT",
          "name": "_nft",
          "type": "address"
        },
        {
          "internalType": "address",
          "name": "_who",
          "type": "address"
        }
      ],
      "name": "balanceOf",
      "outputs": [
        {
          "internalType": "uint256",
          "name": "",
          "type": "uint256"
        }
      ],
      "stateMutability": "view",
      "type": "function"
    },
    {
      "inputs": [
        {
          "internalType": "address",
          "name": "_addr",
          "type": "address"
        }
      ],
      "name": "bondContract",
      "outputs": [
        {
          "internalType": "bool",
          "name": "",
          "type": "bool"
        }
      ],
      "stateMutability": "nonpayable",
      "type": "function"
    },
    {
      "inputs": [],
      "name": "bondedContract",
      "outputs": [
        {
          "internalType": "address",
          "name": "",
          "type": "address"
        }
      ],
      "stateMutability": "view",
      "type": "function"
    },
    {
      "inputs": [
        {
          "internalType": "contract INFT",
          "name": "_nft",
          "type": "address"
        },
        {
          "internalType": "uint256",
          "name": "_tokenId",
          "type": "uint256"
        }
      ],
      "name": "burn",
      "outputs": [],
      "stateMutability": "nonpayable",
      "type": "function"
    },
    {
      "inputs": [
        {
          "internalType": "uint256",
          "name": "",
          "type": "uint256"
        }
      ],
      "name": "contracts",
      "outputs": [
        {
          "internalType": "address",
          "name": "",
          "type": "address"
        }
      ],
      "stateMutability": "view",
      "type": "function"
    },
    {
      "inputs": [
        {
          "internalType": "string",
          "name": "name",
          "type": "string"
        },
        {
          "internalType": "string",
          "name": "symbol",
          "type": "string"
        },
        {
          "internalType": "string",
          "name": "tokenURI",
          "type": "string"
        },
        {
          "internalType": "uint256",
          "name": "contractId",
          "type": "uint256"
        },
        {
          "internalType": "uint256",
          "name": "propertyChoices",
          "type": "uint256"
        },
        {
          "internalType": "address",
          "name": "admin",
          "type": "address"
        },
        {
          "internalType": "bool",
          "name": "allowTrade",
          "type": "bool"
        },
        {
          "internalType": "bool",
          "name": "isCapped",
          "type": "bool"
        },
        {
          "internalType": "uint256",
          "name": "capAmount",
          "type": "uint256"
        },
        {
          "internalType": "address",
          "name": "_ramVault",
          "type": "address"
        }
      ],
      "name": "deployNFT",
      "outputs": [
        {
          "internalType": "contract NFT",
          "name": "newContract",
          "type": "address"
        }
      ],
      "stateMutability": "nonpayable",
      "type": "function"
    },
    {
      "inputs": [],
      "name": "getContractCount",
      "outputs": [
        {
          "internalType": "uint256",
          "name": "contractCount",
          "type": "uint256"
        }
      ],
      "stateMutability": "view",
      "type": "function"
    },
    {
      "inputs": [
        {
          "internalType": "address",
          "name": "",
          "type": "address"
        }
      ],
      "name": "inUse",
      "outputs": [
        {
          "internalType": "bool",
          "name": "",
          "type": "bool"
        }
      ],
      "stateMutability": "view",
      "type": "function"
    },
    {
      "inputs": [
        {
          "internalType": "contract INFT",
          "name": "_nft",
          "type": "address"
        },
        {
          "internalType": "address",
          "name": "_who",
          "type": "address"
        },
        {
          "internalType": "uint256",
          "name": "_tokenId",
          "type": "uint256"
        }
      ],
      "name": "isOwner",
      "outputs": [
        {
          "internalType": "bool",
          "name": "",
          "type": "bool"
        }
      ],
      "stateMutability": "view",
      "type": "function"
    },
    {
      "inputs": [
        {
          "internalType": "contract INFT",
          "name": "_nft",
          "type": "address"
        },
        {
          "internalType": "address",
          "name": "_to",
          "type": "address"
        },
        {
          "internalType": "uint256",
          "name": "_randomness",
          "type": "uint256"
        }
      ],
      "name": "mint",
      "outputs": [
        {
          "internalType": "uint256",
          "name": "",
          "type": "uint256"
        }
      ],
      "stateMutability": "nonpayable",
      "type": "function"
    },
    {
      "inputs": [],
      "name": "owner",
      "outputs": [
        {
          "internalType": "address",
          "name": "",
          "type": "address"
        }
      ],
      "stateMutability": "view",
      "type": "function"
    },
    {
      "inputs": [],
      "name": "renounceOwnership",
      "outputs": [],
      "stateMutability": "nonpayable",
      "type": "function"
    },
    {
      "inputs": [
        {
          "internalType": "address",
          "name": "_nft",
          "type": "address"
        },
        {
          "components": [
            {
              "internalType": "string",
              "name": "pType",
              "type": "string"
            },
            {
              "internalType": "uint256",
              "name": "pValue",
              "type": "uint256"
            },
            {
              "internalType": "bytes32",
              "name": "extra",
              "type": "bytes32"
            }
          ],
          "internalType": "struct YGYStorageV1.NFTProperty[]",
          "name": "_properties",
          "type": "tuple[]"
        }
      ],
      "name": "setNFTProperties",
      "outputs": [],
      "stateMutability": "nonpayable",
      "type": "function"
    },
    {
      "inputs": [
        {
          "internalType": "address",
          "name": "_nft",
          "type": "address"
        },
        {
          "internalType": "bool",
          "name": "_inUse",
          "type": "bool"
        }
      ],
      "name": "setNFTUsage",
      "outputs": [],
      "stateMutability": "nonpayable",
      "type": "function"
    },
    {
      "inputs": [
        {
          "internalType": "address",
          "name": "newOwner",
          "type": "address"
        }
      ],
      "name": "transferOwnership",
      "outputs": [],
      "stateMutability": "nonpayable",
      "type": "function"
    },
    {
      "inputs": [
        {
          "internalType": "contract INFT",
          "name": "_nft",
          "type": "address"
        },
        {
          "internalType": "uint256",
          "name": "_tokenId",
          "type": "uint256"
        },
        {
          "internalType": "uint256",
          "name": "_poolId",
          "type": "uint256"
        }
      ],
      "name": "useNFT",
      "outputs": [],
      "stateMutability": "nonpayable",
      "type": "function"
    }
  ],
  "transactionHash": "0x3fefca0e8f7423a1a3bcb98881c934d3228e57e638b4b65cd9021ee671462192",
  "args": [
    "0x2279B7A0a67DB372996a5FaB50D91eAA73d2eBe6"
  ],
  "solcInputHash": "76850087fa2fc7e08bf89f9b4dbdc5a7",
  "bytecode": "0x60806040523480156200001157600080fd5b5060405162004cdc38038062004cdc8339810160408190526200003491620002cb565b6200003e62000064565b600080546001600160a01b0319166001600160a01b039290921691909117905562000349565b600054600160a81b900460ff16806200008257506200008262000124565b80620000985750600054600160a01b900460ff16155b620000c05760405162461bcd60e51b8152600401620000b790620002fb565b60405180910390fd5b600054600160a81b900460ff16158015620000f8576000805460ff60a01b1960ff60a81b19909116600160a81b1716600160a01b1790555b620001026200012a565b6200010c620001cb565b801562000121576000805460ff60a81b191690555b50565b303b1590565b600054600160a81b900460ff16806200014857506200014862000124565b806200015e5750600054600160a01b900460ff16155b6200017d5760405162461bcd60e51b8152600401620000b790620002fb565b600054600160a81b900460ff161580156200010c576000805460ff60a01b1960ff60a81b19909116600160a81b1716600160a01b179055801562000121576000805460ff60a81b1916905550565b600054600160a81b900460ff1680620001e95750620001e962000124565b80620001ff5750600054600160a01b900460ff16155b6200021e5760405162461bcd60e51b8152600401620000b790620002fb565b600054600160a81b900460ff1615801562000256576000805460ff60a01b1960ff60a81b19909116600160a81b1716600160a01b1790555b600062000262620002c7565b606580546001600160a01b0319166001600160a01b038316908117909155604051919250906000907f8be0079c531659141344cd1fd0a4f28419497f9722a3daafe3b4186f6b6457e0908290a350801562000121576000805460ff60a81b1916905550565b3390565b600060208284031215620002dd578081fd5b81516001600160a01b0381168114620002f4578182fd5b9392505050565b6020808252602e908201527f436f6e747261637420696e7374616e63652068617320616c726561647920626560408201526d195b881a5b9a5d1a585b1a5e995960921b606082015260800190565b61498380620003596000396000f3fe60806040523480156200001157600080fd5b5060043610620001185760003560e01c80639dc29fac11620000a5578063e11f8a26116200006f578063e11f8a261462000235578063f2fde38b146200024c578063f370e8c51462000263578063f7888aec146200027a5762000118565b80639dc29fac14620001e6578063b63e491c14620001fd578063bf184f931462000214578063c6c3bbe6146200021e5762000118565b8063715018a611620000e7578063715018a614620001a25780638da5cb5b14620001ac5780638f17e9f514620001b65780639399869d14620001cd5762000118565b806322f2cce9146200011d57806324705db31462000136578063474da79a14620001655780635af0de22146200018b575b600080fd5b620001346200012e36600462001158565b62000291565b005b6200014d6200014736600462001018565b620002ff565b6040516200015c91906200162a565b60405180910390f35b6200017c62000176366004620014b4565b6200034e565b6040516200015c919062001514565b620001346200019c36600462001305565b62000376565b620001346200068e565b6200017c62000712565b6200014d620001c736600462001018565b62000721565b620001d762000736565b6040516200015c919062001807565b62000134620001f7366004620012d7565b6200073c565b6200017c6200020e366004620013b8565b62000931565b6200017c62000a70565b620001d76200022f36600462001292565b62000a7f565b62000134620002463660046200105d565b62000c61565b620001346200025d36600462001018565b62000cf5565b6200014d6200027436600462001292565b62000db4565b620001d76200028b36600462001255565b62000e54565b6200029b62000ee2565b6065546001600160a01b03908116911614620002d45760405162461bcd60e51b8152600401620002cb906200177e565b60405180910390fd5b6001600160a01b03919091166000908152609a60205260409020805460ff1916911515919091179055565b60006200030b62000712565b6001600160a01b0316336001600160a01b0316146200032957600080fd5b50609880546001600160a01b0383166001600160a01b03199091161790556001919050565b609781815481106200035c57fe5b6000918252602090912001546001600160a01b0316905081565b6040516331a9108f60e11b815233906001600160a01b03851690636352211e90620003a690869060040162001807565b60206040518083038186803b158015620003bf57600080fd5b505afa158015620003d4573d6000803e3d6000fd5b505050506040513d601f19601f82011682018060405250810190620003fa91906200103e565b6001600160a01b031614620004235760405162461bcd60e51b8152600401620002cb90620017b3565b6000546040516330ff3d9760e01b81526060916001600160a01b0316906330ff3d97906200045690339060040162001514565b60006040518083038186803b1580156200046f57600080fd5b505afa15801562000484573d6000803e3d6000fd5b505050506040513d6000823e601f3d908101601f19168201604052620004ae919081019062001192565b90506000846001600160a01b0316638291286c6040518163ffffffff1660e01b815260040160206040518083038186803b158015620004ec57600080fd5b505afa15801562000501573d6000803e3d6000fd5b505050506040513d601f19601f82011682018060405250810190620005279190620014cd565b90506000805b83518110156200058e57828482815181106200054557fe5b602002602001015160000151141562000585576200057b8482815181106200056957fe5b60200260200101516000015162000ee6565b600191506200058e565b6001016200052d565b508015620005b05760405162461bcd60e51b8152600401620002cb90620017db565b6099546040516323b872dd60e01b81526001600160a01b03808916926323b872dd92620005e692339216908a9060040162001528565b600060405180830381600087803b1580156200060157600080fd5b505af115801562000616573d6000803e3d6000fd5b5050609954604051632edb255d60e11b81526001600160a01b039091169250635db64aba9150620006529033908a908a908a906004016200154c565b600060405180830381600087803b1580156200066d57600080fd5b505af115801562000682573d6000803e3d6000fd5b50505050505050505050565b6200069862000ee2565b6065546001600160a01b03908116911614620006c85760405162461bcd60e51b8152600401620002cb906200177e565b6065546040516000916001600160a01b0316907f8be0079c531659141344cd1fd0a4f28419497f9722a3daafe3b4186f6b6457e0908390a3606580546001600160a01b0319169055565b6065546001600160a01b031690565b609a6020526000908152604090205460ff1681565b60975490565b6200074662000ee2565b6001600160a01b0316826001600160a01b0316636352211e836040518263ffffffff1660e01b81526004016200077d919062001807565b60206040518083038186803b1580156200079657600080fd5b505afa158015620007ab573d6000803e3d6000fd5b505050506040513d601f19601f82011682018060405250810190620007d191906200103e565b6001600160a01b031614806200080357506098546001600160a01b0316620007f862000ee2565b6001600160a01b0316145b6200080d57600080fd5b604051630852cd8d60e31b81526001600160a01b038316906342966c68906200083b90849060040162001807565b600060405180830381600087803b1580156200085657600080fd5b505af11580156200086b573d6000803e3d6000fd5b505050507f9fd5e03e81a19319baa416b857469a80358cba426888c502e0e1a925dda26f5f826001600160a01b03166306fdde036040518163ffffffff1660e01b815260040160006040518083038186803b158015620008ca57600080fd5b505afa158015620008df573d6000803e3d6000fd5b505050506040513d6000823e601f3d908101601f191682016040526200090991908101906200133c565b6200091362000ee2565b8360405162000925939291906200164a565b60405180910390a15050565b60006200093d62000712565b6001600160a01b03166200095062000ee2565b6001600160a01b031614806200098257506098546001600160a01b03166200097762000ee2565b6001600160a01b0316145b620009a15760405162461bcd60e51b8152600401620002cb9062001749565b81609960006101000a8154816001600160a01b0302191690836001600160a01b0316021790555060008b8b8b8b8b8b8b8b8b8b604051620009e29062000f93565b620009f79a999897969594939291906200167a565b604051809103906000f08015801562000a14573d6000803e3d6000fd5b50609780546001810182556000919091527f354a83ed9988f79f6038d4c7a7dadbad8af32f4ad6df893e0e5807a1b1944ff90180546001600160a01b0319166001600160a01b0383161790559c9b505050505050505050505050565b6098546001600160a01b031681565b6098546000906001600160a01b031662000a9862000ee2565b6001600160a01b0316148062000ad1575062000ab362000712565b6001600160a01b031662000ac662000ee2565b6001600160a01b0316145b62000adb57600080fd5b60008054604051630d4d151360e01b81526001600160a01b0380881692630d4d15139262000b13928992899291169060040162001607565b602060405180830381600087803b15801562000b2e57600080fd5b505af115801562000b43573d6000803e3d6000fd5b505050506040513d601f19601f8201168201806040525081019062000b699190620014cd565b905062000ba4604051806040016040528060168152602001754e4654466163746f7279206d696e74282920646f6e6560501b81525062000f30565b7f163ce421fac3059ce58ba6a093aff4bd0f6b3bb35c5c48acaf9c18b7626e86ce856001600160a01b03166306fdde036040518163ffffffff1660e01b815260040160006040518083038186803b15801562000bff57600080fd5b505afa15801562000c14573d6000803e3d6000fd5b505050506040513d6000823e601f3d908101601f1916820160405262000c3e91908101906200133c565b858360405162000c51939291906200164a565b60405180910390a1949350505050565b62000c6b62000712565b6001600160a01b0316336001600160a01b03161462000c8957600080fd5b600054604051630cd2e09d60e11b81526001600160a01b03909116906319a5c13a9062000cbd908590859060040162001575565b600060405180830381600087803b15801562000cd857600080fd5b505af115801562000ced573d6000803e3d6000fd5b505050505050565b62000cff62000ee2565b6065546001600160a01b0390811691161462000d2f5760405162461bcd60e51b8152600401620002cb906200177e565b6001600160a01b03811662000d585760405162461bcd60e51b8152600401620002cb9062001703565b6065546040516001600160a01b038084169216907f8be0079c531659141344cd1fd0a4f28419497f9722a3daafe3b4186f6b6457e090600090a3606580546001600160a01b0319166001600160a01b0392909216919091179055565b6000826001600160a01b0316846001600160a01b0316636352211e846040518263ffffffff1660e01b815260040162000dee919062001807565b60206040518083038186803b15801562000e0757600080fd5b505afa15801562000e1c573d6000803e3d6000fd5b505050506040513d601f19601f8201168201806040525081019062000e4291906200103e565b6001600160a01b031614949350505050565b6040516370a0823160e01b81526000906001600160a01b038416906370a082319062000e8590859060040162001514565b60206040518083038186803b15801562000e9e57600080fd5b505afa15801562000eb3573d6000803e3d6000fd5b505050506040513d601f19601f8201168201806040525081019062000ed99190620014cd565b90505b92915050565b3390565b62000f2d8160405160240162000efd919062001807565b60408051601f198184030181529190526020810180516001600160e01b031663f5b1bba960e01b17905262000f72565b50565b62000f2d8160405160240162000f47919062001635565b60408051601f198184030181529190526020810180516001600160e01b031663104c13eb60e21b1790525b80516a636f6e736f6c652e6c6f67602083016000808483855afa5050505050565b61308680620018c883390190565b803562000edc81620018b1565b8035801515811462000edc57600080fd5b600082601f83011262000fd0578081fd5b813562000fe762000fe18262001859565b62001810565b915080825283602082850101111562000fff57600080fd5b8060208401602084013760009082016020015292915050565b6000602082840312156200102a578081fd5b81356200103781620018b1565b9392505050565b60006020828403121562001050578081fd5b81516200103781620018b1565b6000806040838503121562001070578081fd5b82356200107d81620018b1565b915060208381013567ffffffffffffffff808211156200109b578384fd5b818601915086601f830112620010af578384fd5b8135620010c062000fe18262001838565b81815284810190848601875b848110156200114757813587016060818e03601f19011215620010ed57898afd5b620010f9606062001810565b89820135888111156200110a578b8cfd5b6200111a8f8c8386010162000fbf565b8252506040828101358b8301526060909201359181019190915284529287019290870190600101620010cc565b50979a909950975050505050505050565b600080604083850312156200116b578182fd5b82356200117881620018b1565b915062001189846020850162000fae565b90509250929050565b60006020808385031215620011a5578182fd5b825167ffffffffffffffff811115620011bc578283fd5b8301601f81018513620011cd578283fd5b8051620011de62000fe18262001838565b818152838101908385016040808502860187018a1015620011fd578788fd5b8795505b84861015620012475780828b03121562001219578788fd5b620012248162001810565b825181528783015188820152845260019590950194928601929081019062001201565b509098975050505050505050565b6000806040838503121562001268578182fd5b82356200127581620018b1565b915060208301356200128781620018b1565b809150509250929050565b600080600060608486031215620012a7578081fd5b8335620012b481620018b1565b92506020840135620012c681620018b1565b929592945050506040919091013590565b60008060408385031215620012ea578182fd5b8235620012f781620018b1565b946020939093013593505050565b6000806000606084860312156200131a578283fd5b83356200132781620018b1565b95602085013595506040909401359392505050565b6000602082840312156200134e578081fd5b815167ffffffffffffffff81111562001365578182fd5b8201601f8101841362001376578182fd5b80516200138762000fe18262001859565b8181528560208385010111156200139c578384fd5b620013af8260208301602086016200187e565b95945050505050565b6000806000806000806000806000806101408b8d031215620013d8578788fd5b8a3567ffffffffffffffff80821115620013f057898afd5b620013fe8e838f0162000fbf565b9b5060208d01359150808211156200141457898afd5b620014228e838f0162000fbf565b9a5060408d01359150808211156200143857898afd5b50620014478d828e0162000fbf565b98505060608b0135965060808b01359550620014678c60a08d0162000fa1565b9450620014788c60c08d0162000fae565b9350620014898c60e08d0162000fae565b92506101008b01359150620014a38c6101208d0162000fa1565b90509295989b9194979a5092959850565b600060208284031215620014c6578081fd5b5035919050565b600060208284031215620014df578081fd5b5051919050565b60008151808452620015008160208601602086016200187e565b601f01601f19169290920160200192915050565b6001600160a01b0391909116815260200190565b6001600160a01b039384168152919092166020820152604081019190915260600190565b6001600160a01b0394851681529290931660208301526040820152606081019190915260800190565b6001600160a01b0383168152604060208083018290528351838301819052600092916060918286019080830287018401888401875b83811015620015f757898303605f1901855281518051888552620015d189860182620014e6565b82890151868a0152918a0151948a019490945294860194925090850190600101620015aa565b50909a9950505050505050505050565b6001600160a01b0393841681526020810192909252909116604082015260600190565b901515815260200190565b60006020825262000ed96020830184620014e6565b6000606082526200165f6060830186620014e6565b6001600160a01b039490941660208301525060400152919050565b6000610140808352620016908184018e620014e6565b90508281036020840152620016a6818d620014e6565b90508281036040840152620016bc818c620014e6565b606084019a909a52505060808101969096526001600160a01b0394851660a087015292151560c086015290151560e085015261010084015216610120909101529392505050565b60208082526026908201527f4f776e61626c653a206e6577206f776e657220697320746865207a65726f206160408201526564647265737360d01b606082015260800190565b6020808252818101527f496e76616c69642063616c6c65723a2063616e2774206465706c6f79204e4654604082015260600190565b6020808252818101527f4f776e61626c653a2063616c6c6572206973206e6f7420746865206f776e6572604082015260600190565b6020808252600e908201526d2ab9b2b9103737ba1037bbb732b960911b604082015260600190565b6020808252601290820152714e465420616c726561647920696e2075736560701b604082015260600190565b90815260200190565b60405181810167ffffffffffffffff811182821017156200183057600080fd5b604052919050565b600067ffffffffffffffff8211156200184f578081fd5b5060209081020190565b600067ffffffffffffffff82111562001870578081fd5b50601f01601f191660200190565b60005b838110156200189b57818101518382015260200162001881565b83811115620018ab576000848401525b50505050565b6001600160a01b038116811462000f2d57600080fdfe60806040523480156200001157600080fd5b506040516200308638038062003086833981016040819052620000349162000552565b89898982609d90805190602001906200004f929190620003e6565b5081516200006590609e906020850190620003e6565b5080516200007b90609f906020840190620003e6565b506200008e6380ac58cd60e01b62000145565b620000a0635b5e139f60e01b62000145565b620000b263780e9d6360e01b62000145565b505060d3805460ff19168615151761ff001916610100861515021790555060d482905560d287905560d7869055620000e9620001a0565b6200010d600080516020620030668339815191526200010762000240565b62000244565b62000128600080516020620030668339815191528262000244565b6200013560008662000244565b50505050505050505050620006d2565b6001600160e01b031980821614156200017b5760405162461bcd60e51b815260040162000172906200064d565b60405180910390fd5b6001600160e01b0319166000908152606560205260409020805460ff19166001179055565b600054610100900460ff1680620001bc5750620001bc62000254565b80620001cb575060005460ff16155b620001ea5760405162461bcd60e51b8152600401620001729062000684565b600054610100900460ff1615801562000216576000805460ff1961ff0019909116610100171660011790555b620002206200025a565b6200022a6200025a565b80156200023d576000805461ff00191690555b50565b3390565b620002508282620002e4565b5050565b303b1590565b600054610100900460ff16806200027657506200027662000254565b8062000285575060005460ff16155b620002a45760405162461bcd60e51b8152600401620001729062000684565b600054610100900460ff161580156200022a576000805460ff1961ff00199091166101001716600117905580156200023d576000805461ff001916905550565b600082815260a0602090815260409091206200030b91839062000f606200035f821b17901c565b1562000250576200031b62000240565b6001600160a01b0316816001600160a01b0316837f2f8788117e7eff1d82e926ec794901d17c78024a50270940304540a733656f0d60405160405180910390a45050565b600062000376836001600160a01b0384166200037f565b90505b92915050565b60006200038d8383620003ce565b620003c55750815460018181018455600084815260208082209093018490558454848252828601909352604090209190915562000379565b50600062000379565b60009081526001919091016020526040902054151590565b828054600181600116156101000203166002900490600052602060002090601f016020900481019282601f106200042957805160ff191683800117855562000459565b8280016001018555821562000459579182015b82811115620004595782518255916020019190600101906200043c565b50620004679291506200046b565b5090565b5b808211156200046757600081556001016200046c565b80516001600160a01b03811681146200037957600080fd5b805180151581146200037957600080fd5b600082601f830112620004bc578081fd5b81516001600160401b0380821115620004d3578283fd5b6040516020601f8401601f1916820181018381118382101715620004f5578586fd5b806040525081945083825286818588010111156200051257600080fd5b600092505b8383101562000536578583018101518284018201529182019162000517565b83831115620005485760008185840101525b5050505092915050565b6000806000806000806000806000806101408b8d03121562000572578586fd5b8a516001600160401b038082111562000589578788fd5b620005978e838f01620004ab565b9b5060208d0151915080821115620005ad578788fd5b620005bb8e838f01620004ab565b9a5060408d0151915080821115620005d1578788fd5b50620005e08d828e01620004ab565b98505060608b0151965060808b01519550620006008c60a08d0162000482565b9450620006118c60c08d016200049a565b9350620006228c60e08d016200049a565b92506101008b015191506200063c8c6101208d0162000482565b90509295989b9194979a5092959850565b6020808252601c908201527f4552433136353a20696e76616c696420696e7465726661636520696400000000604082015260600190565b6020808252602e908201527f436f6e747261637420696e7374616e63652068617320616c726561647920626560408201526d195b881a5b9a5d1a585b1a5e995960921b606082015260800190565b61298480620006e26000396000f3fe608060405234801561001057600080fd5b50600436106101f05760003560e01c806370a082311161010f578063b4ce37d2116100a2578063d547741f11610071578063d547741f14610408578063e63ab1e91461041b578063e985e9c514610423578063f7b1080814610436576101f0565b8063b4ce37d2146103c7578063b88d4fde146103cf578063c87b56dd146103e2578063ca15c873146103f5576101f0565b806391d14854116100de57806391d148541461039157806395d89b41146103a4578063a217fddf146103ac578063a22cb465146103b4576101f0565b806370a082311461035b57806375071d2a1461036e5780638291286c146103765780639010d07c1461037e576101f0565b80632f2ff15d1161018757806342842e0e1161015657806342842e0e1461030f57806342966c68146103225780634f6ccce7146103355780636352211e14610348576101f0565b80632f2ff15d146102b65780632f745c59146102c957806336568abe146102dc57806338e5cdce146102ef576101f0565b80630d4d1513116101c35780630d4d15131461026857806318160ddd1461028857806323b872dd14610290578063248a9ca3146102a3576101f0565b806301ffc9a7146101f557806306fdde031461021e578063081812fc14610233578063095ea7b314610253575b600080fd5b610208610203366004611fe6565b610458565b604051610215919061213d565b60405180910390f35b610226610477565b6040516102159190612151565b610246610241366004611f89565b61050d565b60405161021591906120ec565b610266610261366004611f1d565b610559565b005b61027b610276366004611f48565b6105f1565b6040516102159190612148565b61027b61081b565b61026661029e366004611e05565b61082c565b61027b6102b1366004611f89565b610842565b6102666102c4366004611fa1565b610857565b61027b6102d7366004611f1d565b61089f565b6102666102ea366004611fa1565b6108ca565b6103026102fd366004611f89565b61090c565b60405161021591906127f4565b61026661031d366004611e05565b6109d6565b610266610330366004611f89565b6109f1565b61027b610343366004611f89565b610a87565b610246610356366004611f89565b610a9d565b61027b610369366004611db1565b610ac5565b61027b610b0e565b61027b610b20565b61024661038c366004611fc5565b610b26565b61020861039f366004611fa1565b610b3e565b610226610b56565b61027b610bb7565b6102666103c2366004611eec565b610bbc565b610226610c8a565b6102666103dd366004611e45565b610d18565b6102266103f0366004611f89565b610d57565b61027b610403366004611f89565b610e10565b610266610416366004611fa1565b610e27565b61027b610e61565b610208610431366004611dcd565b610e85565b610449610444366004611f89565b610eb3565b604051610215939291906121fd565b6001600160e01b03191660009081526065602052604090205460ff1690565b609d8054604080516020601f60026000196101006001881615020190951694909404938401819004810282018101909252828152606093909290918301828280156105035780601f106104d857610100808354040283529160200191610503565b820191906000526020600020905b8154815290600101906020018083116104e657829003601f168201915b5050505050905090565b600061051882610f75565b61053d5760405162461bcd60e51b8152600401610534906125a8565b60405180910390fd5b506000908152609b60205260409020546001600160a01b031690565b600061056482610a9d565b9050806001600160a01b0316836001600160a01b031614156105985760405162461bcd60e51b8152600401610534906126dc565b806001600160a01b03166105aa610f82565b6001600160a01b031614806105c657506105c681610431610f82565b6105e25760405162461bcd60e51b81526004016105349061248a565b6105ec8383610f86565b505050565b60d354600090610100900460ff161580610626575060d354610100900460ff168015610626575060d45461062361081b565b11155b6106425760405162461bcd60e51b815260040161053490612619565b61065c60008051602061290683398151915261039f610f82565b6106785760405162461bcd60e51b8152600401610534906125f4565b600061068385610ff4565b90506106a160d75486610694610f82565b61069c61081b565b611057565b6000600160d75411156106bf5760d7546106bc9086906110a0565b90505b6060600080866001600160a01b0316635498d4c06106e9600160d2546110e290919063ffffffff16565b866040518363ffffffff1660e01b8152600401610707929190612855565b60006040518083038186803b15801561071f57600080fd5b505afa158015610733573d6000803e3d6000fd5b505050506040513d6000823e601f3d908101601f1916820160405261075b919081019061201e565b600088815260d66020908152604090912084519497509295509093506107849290860190611cfa565b506107b86040518060400160405280601281526020017173657474696e672070726f702076616c756560701b815250611107565b600085815260d660209081526040918290206001018490558151808301909252600e82526d1c1c9bdc081d985b1d59481cd95d60921b908201526107fb90611107565b600085815260d660205260409020600201555091925050505b9392505050565b6000610827609961114a565b905090565b610837838383611155565b6105ec8383836111c3565b600090815260a0602052604090206002015490565b600082815260a060205260409020600201546108759061039f610f82565b6108915760405162461bcd60e51b815260040161053490612264565b61089b82826111fb565b5050565b6001600160a01b03821660009081526098602052604081206108c19083611264565b90505b92915050565b6108d2610f82565b6001600160a01b0316816001600160a01b0316146109025760405162461bcd60e51b8152600401610534906127a5565b61089b8282611270565b610914611d78565b600082815260d660209081526040918290208251815460026001821615610100026000190190911604601f810184900490930281016080908101909452606081018381529093919284928491908401828280156109b25780601f10610987576101008083540402835291602001916109b2565b820191906000526020600020905b81548152906001019060200180831161099557829003601f168201915b50505050508152602001600182015481526020016002820154815250509050919050565b6105ec83838360405180602001604052806000815250610d18565b6109f9610f82565b6001600160a01b0316610a0b82610a9d565b6001600160a01b03161480610a355750610a3560008051602061290683398151915261039f610f82565b610a515760405162461bcd60e51b8152600401610534906125f4565b610a7b604051806040016040528060098152602001686275726e206261627960b81b815250611107565b610a84816112d9565b50565b600080610a9560998461139a565b509392505050565b60006108c48260405180606001604052806029815260200161292660299139609991906113b6565b60006001600160a01b038216610aed5760405162461bcd60e51b8152600401610534906124e7565b6001600160a01b03821660009081526098602052604090206108c49061114a565b60008051602061290683398151915281565b60d25481565b600082815260a0602052604081206108c19083611264565b600082815260a0602052604081206108c190836113cb565b609e8054604080516020601f60026000196101006001881615020190951694909404938401819004810282018101909252828152606093909290918301828280156105035780601f106104d857610100808354040283529160200191610503565b600081565b610bc4610f82565b6001600160a01b0316826001600160a01b03161415610bf55760405162461bcd60e51b8152600401610534906123b7565b80609c6000610c02610f82565b6001600160a01b03908116825260208083019390935260409182016000908120918716808252919093529120805460ff191692151592909217909155610c46610f82565b6001600160a01b03167f17307eab39ab6107e8899845ad3d59bd9653f200f220920489ca2b5937696c3183604051610c7e919061213d565b60405180910390a35050565b609f805460408051602060026001851615610100026000190190941693909304601f81018490048402820184019092528181529291830182828015610d105780601f10610ce557610100808354040283529160200191610d10565b820191906000526020600020905b815481529060010190602001808311610cf357829003601f168201915b505050505081565b610d29610d23610f82565b836113e0565b610d455760405162461bcd60e51b815260040161053490612754565b610d518484848461145d565b50505050565b6060610d6282610f75565b610d7e5760405162461bcd60e51b81526004016105349061268d565b609f805460408051602060026001851615610100026000190190941693909304601f81018490048402820184019092528181529291830182828015610e045780601f10610dd957610100808354040283529160200191610e04565b820191906000526020600020905b815481529060010190602001808311610de757829003601f168201915b50505050509050919050565b600081815260a0602052604081206108c49061114a565b600082815260a06020526040902060020154610e459061039f610f82565b6109025760405162461bcd60e51b81526004016105349061243a565b7f65d7a28e3265b37a6474929f336521b332c1681b933f6cb9f3376673440d862a81565b6001600160a01b039182166000908152609c6020908152604080832093909416825291909152205460ff1690565b60d66020908152600091825260409182902080548351601f60026000196101006001861615020190931692909204918201849004840281018401909452808452909291839190830182828015610f4a5780601f10610f1f57610100808354040283529160200191610f4a565b820191906000526020600020905b815481529060010190602001808311610f2d57829003601f168201915b5050505050908060010154908060020154905083565b60006108c1836001600160a01b038416611490565b60006108c46099836114da565b3390565b6000818152609b6020526040902080546001600160a01b0319166001600160a01b0384169081179091558190610fbb82610a9d565b6001600160a01b03167f8c5be1e5ebec7d5bd14f71427d1e84f3dd0314c0f7b2291e5b200ac8c7c3b92560405160405180910390a45050565b60008061100160976114e6565b90506110436040518060400160405280601781526020017f4e4654206d696e74282920746f6b656e49642c20746f3a00000000000000000081525082856114ea565b61104d8382611531565b6108c46097611626565b610d51848484846040516024016110719493929190612830565b60408051601f198184030181529190526020810180516001600160e01b0316634d1e5fcb60e11b17905261162f565b60006108c183836040518060400160405280601881526020017f536166654d6174683a206d6f64756c6f206279207a65726f0000000000000000815250611650565b6000828201838110156108c15760405162461bcd60e51b81526004016105349061233c565b610a848160405160240161111b9190612151565b60408051601f198184030181529190526020810180516001600160e01b031663104c13eb60e21b17905261162f565b60006108c4826114e6565b60d35460ff168061117b575061117b60008051602061290683398151915261039f610f82565b806111a7575060d35460ff161580156111a757506111a760008051602061290683398151915283610b3e565b6105ec5760405162461bcd60e51b81526004016105349061271d565b6111d46111ce610f82565b826113e0565b6111f05760405162461bcd60e51b815260040161053490612754565b6105ec838383611684565b600082815260a0602052604090206112139082610f60565b1561089b57611220610f82565b6001600160a01b0316816001600160a01b0316837f2f8788117e7eff1d82e926ec794901d17c78024a50270940304540a733656f0d60405160405180910390a45050565b60006108c18383611792565b600082815260a06020526040902061128890826117d7565b1561089b57611295610f82565b6001600160a01b0316816001600160a01b0316837ff6391f5c32d9c69d2a47ea670b442974b53935d1edc7fd64eb21e047a839171b60405160405180910390a45050565b60006112e482610a9d565b90506112f281600084611155565b6112fd600083610f86565b6001600160a01b038116600090815260986020526040902061131f90836117ec565b5061132b6099836117f8565b5061135e604051806040016040528060078152602001661c995b5bdd995960ca1b815250838361135961081b565b611804565b60405182906000906001600160a01b038416907fddf252ad1be2c89b69c2b068fc378daa952ba7f163c4a11628f55a4df523b3ef908390a45050565b60008080806113a9868661184d565b9097909650945050505050565b60006113c38484846118a9565b949350505050565b60006108c1836001600160a01b038416611908565b60006113eb82610f75565b6114075760405162461bcd60e51b8152600401610534906123ee565b600061141283610a9d565b9050806001600160a01b0316846001600160a01b0316148061144d5750836001600160a01b03166114428461050d565b6001600160a01b0316145b806113c357506113c38185610e85565b611468848484611684565b61147484848484611920565b610d515760405162461bcd60e51b8152600401610534906122b3565b600061149c8383611908565b6114d2575081546001818101845560008481526020808220909301849055845484825282860190935260409020919091556108c4565b5060006108c4565b60006108c18383611908565b5490565b6105ec83838360405160240161150293929190612192565b60408051601f198184030181529190526020810180516001600160e01b031663e3849f7960e01b17905261162f565b6001600160a01b0382166115575760405162461bcd60e51b815260040161053490612573565b61156081610f75565b1561157d5760405162461bcd60e51b815260040161053490612305565b61158960008383611155565b6001600160a01b03821660009081526098602052604090206115ab9082611a5a565b506115dd6040518060400160405280600e81526020016d455243373231205f6d696e74282960901b8152508383611a66565b6115e960998284611aad565b5060405181906001600160a01b038416906000907fddf252ad1be2c89b69c2b068fc378daa952ba7f163c4a11628f55a4df523b3ef908290a45050565b80546001019055565b80516a636f6e736f6c652e6c6f67602083016000808483855afa5050505050565b600081836116715760405162461bcd60e51b81526004016105349190612151565b5082848161167b57fe5b06949350505050565b826001600160a01b031661169782610a9d565b6001600160a01b0316146116bd5760405162461bcd60e51b815260040161053490612644565b6001600160a01b0382166116e35760405162461bcd60e51b815260040161053490612373565b6116ee838383611155565b6116f9600082610f86565b6001600160a01b038316600090815260986020526040902061171b90826117ec565b506001600160a01b038216600090815260986020526040902061173e9082611a5a565b5061174b60998284611aad565b5080826001600160a01b0316846001600160a01b03167fddf252ad1be2c89b69c2b068fc378daa952ba7f163c4a11628f55a4df523b3ef60405160405180910390a4505050565b815460009082106117b55760405162461bcd60e51b815260040161053490612222565b8260000182815481106117c457fe5b9060005260206000200154905092915050565b60006108c1836001600160a01b038416611ac3565b60006108c18383611ac3565b60006108c18383611b89565b610d518484848460405160240161181e94939291906121c5565b60408051601f198184030181529190526020810180516001600160e01b0316632c24bd7f60e11b17905261162f565b8154600090819083106118725760405162461bcd60e51b815260040161053490612531565b600084600001848154811061188357fe5b906000526020600020906002020190508060000154816001015492509250509250929050565b600082815260018401602052604081205482816118d95760405162461bcd60e51b81526004016105349190612151565b508460000160018203815481106118ec57fe5b9060005260206000209060020201600101549150509392505050565b60009081526001919091016020526040902054151590565b6000611934846001600160a01b0316611c5d565b611940575060016113c3565b600060606001600160a01b038616630a85bd0160e11b61195e610f82565b8988886040516024016119749493929190612100565b60408051601f198184030181529181526020820180516001600160e01b03166001600160e01b03199094169390931790925290516119b291906120d0565b6000604051808303816000865af19150503d80600081146119ef576040519150601f19603f3d011682016040523d82523d6000602084013e6119f4565b606091505b509150915081611a2657805115611a0e5780518082602001fd5b60405162461bcd60e51b8152600401610534906122b3565b600081806020019051810190611a3c9190612002565b6001600160e01b03191663e8cb20b760e01b1493506113c392505050565b60006108c18383611490565b6105ec838383604051602401611a7e93929190612164565b60408051601f198184030181529190526020810180516001600160e01b03166307c8121760e01b17905261162f565b60006113c384846001600160a01b038516611c63565b60008181526001830160205260408120548015611b7f5783546000198083019190810190600090879083908110611af657fe5b9060005260206000200154905080876000018481548110611b1357fe5b600091825260208083209091019290925582815260018981019092526040902090840190558654879080611b4357fe5b600190038181906000526020600020016000905590558660010160008781526020019081526020016000206000905560019450505050506108c4565b60009150506108c4565b60008181526001830160205260408120548015611b7f5783546000198083019190810190600090879083908110611bbc57fe5b9060005260206000209060020201905080876000018481548110611bdc57fe5b600091825260208083208454600290930201918255600193840154918401919091558354825289830190526040902090840190558654879080611c1b57fe5b60008281526020808220600260001990940193840201828155600190810183905592909355888152898201909252604082209190915594506108c49350505050565b3b151590565b600082815260018401602052604081205480611cc8575050604080518082018252838152602080820184815286546001818101895560008981528481209551600290930290950191825591519082015586548684528188019092529290912055610814565b82856000016001830381548110611cdb57fe5b9060005260206000209060020201600101819055506000915050610814565b828054600181600116156101000203166002900490600052602060002090601f016020900481019282601f10611d3b57805160ff1916838001178555611d68565b82800160010185558215611d68579182015b82811115611d68578251825591602001919060010190611d4d565b50611d74929150611d9c565b5090565b60405180606001604052806060815260200160008152602001600080191681525090565b5b80821115611d745760008155600101611d9d565b600060208284031215611dc2578081fd5b81356108c1816128da565b60008060408385031215611ddf578081fd5b8235611dea816128da565b91506020830135611dfa816128da565b809150509250929050565b600080600060608486031215611e19578081fd5b8335611e24816128da565b92506020840135611e34816128da565b929592945050506040919091013590565b60008060008060808587031215611e5a578081fd5b8435611e65816128da565b93506020850135611e75816128da565b925060408501359150606085013567ffffffffffffffff811115611e97578182fd5b8501601f81018713611ea7578182fd5b8035611eba611eb58261288a565b612863565b818152886020838501011115611ece578384fd5b81602084016020830137908101602001929092525092959194509250565b60008060408385031215611efe578182fd5b8235611f09816128da565b915060208301358015158114611dfa578182fd5b60008060408385031215611f2f578182fd5b8235611f3a816128da565b946020939093013593505050565b600080600060608486031215611f5c578283fd5b8335611f67816128da565b9250602084013591506040840135611f7e816128da565b809150509250925092565b600060208284031215611f9a578081fd5b5035919050565b60008060408385031215611fb3578182fd5b823591506020830135611dfa816128da565b60008060408385031215611fd7578182fd5b50508035926020909101359150565b600060208284031215611ff7578081fd5b81356108c1816128ef565b600060208284031215612013578081fd5b81516108c1816128ef565b600080600060608486031215612032578081fd5b835167ffffffffffffffff811115612048578182fd5b8401601f81018613612058578182fd5b8051612066611eb58261288a565b81815287602083850101111561207a578384fd5b61208b8260208301602086016128ae565b6020870151604090970151909896975095945050505050565b600081518084526120bc8160208601602086016128ae565b601f01601f19169290920160200192915050565b600082516120e28184602087016128ae565b9190910192915050565b6001600160a01b0391909116815260200190565b6001600160a01b0385811682528416602082015260408101839052608060608201819052600090612133908301846120a4565b9695505050505050565b901515815260200190565b90815260200190565b6000602082526108c160208301846120a4565b60006060825261217760608301866120a4565b6001600160a01b039490941660208301525060400152919050565b6000606082526121a560608301866120a4565b6020830194909452506001600160a01b0391909116604090910152919050565b6000608082526121d860808301876120a4565b6020830195909552506001600160a01b03929092166040830152606090910152919050565b60006060825261221060608301866120a4565b60208301949094525060400152919050565b60208082526022908201527f456e756d657261626c655365743a20696e646578206f7574206f6620626f756e604082015261647360f01b606082015260800190565b6020808252602f908201527f416363657373436f6e74726f6c3a2073656e646572206d75737420626520616e60408201526e0818591b5a5b881d1bc819dc985b9d608a1b606082015260800190565b60208082526032908201527f4552433732313a207472616e7366657220746f206e6f6e20455243373231526560408201527131b2b4bb32b91034b6b83632b6b2b73a32b960711b606082015260800190565b6020808252601c908201527f4552433732313a20746f6b656e20616c7265616479206d696e74656400000000604082015260600190565b6020808252601b908201527f536166654d6174683a206164646974696f6e206f766572666c6f770000000000604082015260600190565b60208082526024908201527f4552433732313a207472616e7366657220746f20746865207a65726f206164646040820152637265737360e01b606082015260800190565b60208082526019908201527f4552433732313a20617070726f766520746f2063616c6c657200000000000000604082015260600190565b6020808252602c908201527f4552433732313a206f70657261746f7220717565727920666f72206e6f6e657860408201526b34b9ba32b73a103a37b5b2b760a11b606082015260800190565b60208082526030908201527f416363657373436f6e74726f6c3a2073656e646572206d75737420626520616e60408201526f2061646d696e20746f207265766f6b6560801b606082015260800190565b60208082526038908201527f4552433732313a20617070726f76652063616c6c6572206973206e6f74206f7760408201527f6e6572206e6f7220617070726f76656420666f7220616c6c0000000000000000606082015260800190565b6020808252602a908201527f4552433732313a2062616c616e636520717565727920666f7220746865207a65604082015269726f206164647265737360b01b606082015260800190565b60208082526022908201527f456e756d657261626c654d61703a20696e646578206f7574206f6620626f756e604082015261647360f01b606082015260800190565b6020808252818101527f4552433732313a206d696e7420746f20746865207a65726f2061646472657373604082015260600190565b6020808252602c908201527f4552433732313a20617070726f76656420717565727920666f72206e6f6e657860408201526b34b9ba32b73a103a37b5b2b760a11b606082015260800190565b6020808252600b908201526a139bdd08185b1b1bddd95960aa1b604082015260600190565b60208082526011908201527013919508131a5b5a5d081c995858da1959607a1b604082015260600190565b60208082526029908201527f4552433732313a207472616e73666572206f6620746f6b656e2074686174206960408201526839903737ba1037bbb760b91b606082015260800190565b6020808252602f908201527f4552433732314d657461646174613a2055524920717565727920666f72206e6f60408201526e3732bc34b9ba32b73a103a37b5b2b760891b606082015260800190565b60208082526021908201527f4552433732313a20617070726f76616c20746f2063757272656e74206f776e656040820152603960f91b606082015260800190565b6020808252601b908201527f45787465726e616c20747261646573206e6f7420616c6c6f7765640000000000604082015260600190565b60208082526031908201527f4552433732313a207472616e736665722063616c6c6572206973206e6f74206f6040820152701ddb995c881b9bdc88185c1c1c9bdd9959607a1b606082015260800190565b6020808252602f908201527f416363657373436f6e74726f6c3a2063616e206f6e6c792072656e6f756e636560408201526e103937b632b9903337b91039b2b63360891b606082015260800190565b60006020825282516060602084015261281060808401826120a4565b905060208401516040840152604084015160608401528091505092915050565b9384526001600160a01b03928316602085015291166040830152606082015260800190565b918252602082015260400190565b60405181810167ffffffffffffffff8111828210171561288257600080fd5b604052919050565b600067ffffffffffffffff8211156128a0578081fd5b50601f01601f191660200190565b60005b838110156128c95781810151838201526020016128b1565b83811115610d515750506000910152565b6001600160a01b0381168114610a8457600080fd5b6001600160e01b031981168114610a8457600080fdfe5719df9ef2c4678b547f89e4f5ae410dbf400fc51cf3ded434c55f6adea2c43f4552433732313a206f776e657220717565727920666f72206e6f6e6578697374656e7420746f6b656ea2646970667358221220d2ceda69e01abdb2c088540aea054e22ccee87cab6afc28c442c88ae22cb1fb164736f6c634300060c00335719df9ef2c4678b547f89e4f5ae410dbf400fc51cf3ded434c55f6adea2c43fa2646970667358221220e764e32e192cd0c48b050ece51af8ec4edab97a55dbe2b5928d0c968325bca1164736f6c634300060c0033",
  "devdoc": {
    "kind": "dev",
    "methods": {
      "owner()": {
        "details": "Returns the address of the current owner."
      },
      "renounceOwnership()": {
        "details": "Leaves the contract without owner. It will not be possible to call `onlyOwner` functions anymore. Can only be called by the current owner. NOTE: Renouncing ownership will leave the contract without an owner, thereby removing any functionality that is only available to the owner."
      },
      "transferOwnership(address)": {
        "details": "Transfers ownership of the contract to a new account (`newOwner`). Can only be called by the current owner."
      }
    },
    "version": 1
  },
  "userdoc": {
    "kind": "user",
    "methods": {},
    "version": 1
  },
  "storageLayout": {
    "storage": [
      {
        "astId": 14097,
        "contract": "contracts/NFTFactory.sol:NFTFactory",
        "label": "_storage",
        "offset": 0,
        "slot": "0",
        "type": "t_contract(YGYStorageV1)15906"
      },
      {
        "astId": 195,
        "contract": "contracts/NFTFactory.sol:NFTFactory",
        "label": "initialized",
        "offset": 20,
        "slot": "0",
        "type": "t_bool"
      },
      {
        "astId": 198,
        "contract": "contracts/NFTFactory.sol:NFTFactory",
        "label": "initializing",
        "offset": 21,
        "slot": "0",
        "type": "t_bool"
      },
      {
        "astId": 263,
        "contract": "contracts/NFTFactory.sol:NFTFactory",
        "label": "______gap",
        "offset": 0,
        "slot": "1",
        "type": "t_array(t_uint256)50_storage"
      },
      {
        "astId": 188,
        "contract": "contracts/NFTFactory.sol:NFTFactory",
        "label": "__gap",
        "offset": 0,
        "slot": "51",
        "type": "t_array(t_uint256)50_storage"
      },
      {
        "astId": 565,
        "contract": "contracts/NFTFactory.sol:NFTFactory",
        "label": "_owner",
        "offset": 0,
        "slot": "101",
        "type": "t_address"
      },
      {
        "astId": 683,
        "contract": "contracts/NFTFactory.sol:NFTFactory",
        "label": "__gap",
        "offset": 0,
        "slot": "102",
        "type": "t_array(t_uint256)49_storage"
      },
      {
        "astId": 9121,
        "contract": "contracts/NFTFactory.sol:NFTFactory",
        "label": "contracts",
        "offset": 0,
        "slot": "151",
        "type": "t_array(t_address)dyn_storage"
      },
      {
        "astId": 9123,
        "contract": "contracts/NFTFactory.sol:NFTFactory",
        "label": "bondedContract",
        "offset": 0,
        "slot": "152",
        "type": "t_address"
      },
      {
        "astId": 9125,
        "contract": "contracts/NFTFactory.sol:NFTFactory",
        "label": "ramVault",
        "offset": 0,
        "slot": "153",
        "type": "t_contract(IRAMVault)16323"
      },
      {
        "astId": 9129,
        "contract": "contracts/NFTFactory.sol:NFTFactory",
        "label": "inUse",
        "offset": 0,
        "slot": "154",
        "type": "t_mapping(t_address,t_bool)"
      }
    ],
    "types": {
      "t_address": {
        "encoding": "inplace",
        "label": "address",
        "numberOfBytes": "20"
      },
      "t_array(t_address)dyn_storage": {
        "base": "t_address",
        "encoding": "dynamic_array",
        "label": "address[]",
        "numberOfBytes": "32"
      },
      "t_array(t_uint256)49_storage": {
        "base": "t_uint256",
        "encoding": "inplace",
        "label": "uint256[49]",
        "numberOfBytes": "1568"
      },
      "t_array(t_uint256)50_storage": {
        "base": "t_uint256",
        "encoding": "inplace",
        "label": "uint256[50]",
        "numberOfBytes": "1600"
      },
      "t_bool": {
        "encoding": "inplace",
        "label": "bool",
        "numberOfBytes": "1"
      },
      "t_contract(IRAMVault)16323": {
        "encoding": "inplace",
        "label": "contract IRAMVault",
        "numberOfBytes": "20"
      },
      "t_contract(YGYStorageV1)15906": {
        "encoding": "inplace",
        "label": "contract YGYStorageV1",
        "numberOfBytes": "20"
      },
      "t_mapping(t_address,t_bool)": {
        "encoding": "mapping",
        "key": "t_address",
        "label": "mapping(address => bool)",
        "numberOfBytes": "32",
        "value": "t_bool"
      },
      "t_uint256": {
        "encoding": "inplace",
        "label": "uint256",
        "numberOfBytes": "32"
      }
    }
  }
}