{
  "address": "0xB7f8BC63BbcaD18155201308C8f3540b07f84F5e",
  "abi": [
    {
      "anonymous": false,
      "inputs": [
        {
          "indexed": true,
          "internalType": "address",
          "name": "owner",
          "type": "address"
        },
        {
          "indexed": true,
          "internalType": "address",
          "name": "spender",
          "type": "address"
        },
        {
          "indexed": false,
          "internalType": "uint256",
          "name": "_pid",
          "type": "uint256"
        },
        {
          "indexed": false,
          "internalType": "uint256",
          "name": "value",
          "type": "uint256"
        }
      ],
      "name": "Approval",
      "type": "event"
    },
    {
      "anonymous": false,
      "inputs": [
        {
          "indexed": true,
          "internalType": "address",
          "name": "user",
          "type": "address"
        },
        {
          "indexed": true,
          "internalType": "uint256",
          "name": "pid",
          "type": "uint256"
        },
        {
          "indexed": true,
          "internalType": "uint256",
          "name": "level",
          "type": "uint256"
        },
        {
          "indexed": false,
          "internalType": "bool",
          "name": "fromNFT",
          "type": "bool"
        }
      ],
      "name": "Boost",
      "type": "event"
    },
    {
      "anonymous": false,
      "inputs": [
        {
          "indexed": true,
          "internalType": "address",
          "name": "user",
          "type": "address"
        },
        {
          "indexed": true,
          "internalType": "uint256",
          "name": "pid",
          "type": "uint256"
        },
        {
          "indexed": false,
          "internalType": "uint256",
          "name": "amount",
          "type": "uint256"
        }
      ],
      "name": "Deposit",
      "type": "event"
    },
    {
      "anonymous": false,
      "inputs": [
        {
          "indexed": true,
          "internalType": "address",
          "name": "user",
          "type": "address"
        },
        {
          "indexed": true,
          "internalType": "uint256",
          "name": "pid",
          "type": "uint256"
        },
        {
          "indexed": false,
          "internalType": "uint256",
          "name": "amount",
          "type": "uint256"
        }
      ],
      "name": "EmergencyWithdraw",
      "type": "event"
    },
    {
      "anonymous": false,
      "inputs": [
        {
          "indexed": true,
          "internalType": "address",
          "name": "previousOwner",
          "type": "address"
        },
        {
          "indexed": true,
          "internalType": "address",
          "name": "newOwner",
          "type": "address"
        }
      ],
      "name": "OwnershipTransferred",
      "type": "event"
    },
    {
      "anonymous": false,
      "inputs": [
        {
          "indexed": false,
          "internalType": "uint256",
          "name": "pid",
          "type": "uint256"
        },
        {
          "indexed": false,
          "internalType": "address",
          "name": "to",
          "type": "address"
        }
      ],
      "name": "RewardPaid",
      "type": "event"
    },
    {
      "anonymous": false,
      "inputs": [
        {
          "indexed": false,
          "internalType": "address",
          "name": "previousOwner",
          "type": "address"
        },
        {
          "indexed": false,
          "internalType": "address",
          "name": "newOwner",
          "type": "address"
        }
      ],
      "name": "SuperAdminTransfered",
      "type": "event"
    },
    {
      "anonymous": false,
      "inputs": [
        {
          "indexed": true,
          "internalType": "address",
          "name": "user",
          "type": "address"
        },
        {
          "indexed": true,
          "internalType": "uint256",
          "name": "pid",
          "type": "uint256"
        },
        {
          "indexed": false,
          "internalType": "uint256",
          "name": "amount",
          "type": "uint256"
        }
      ],
      "name": "Withdraw",
      "type": "event"
    },
    {
      "inputs": [
        {
          "internalType": "address",
          "name": "_user",
          "type": "address"
        },
        {
          "internalType": "address",
          "name": "_tokenAddress",
          "type": "address"
        },
        {
          "internalType": "uint256",
          "name": "_tokenId",
          "type": "uint256"
        },
        {
          "internalType": "uint256",
          "name": "_poolId",
          "type": "uint256"
        }
      ],
      "name": "NFTUsage",
      "outputs": [],
      "stateMutability": "nonpayable",
      "type": "function"
    },
    {
      "inputs": [
        {
          "internalType": "uint256",
          "name": "_amount",
          "type": "uint256"
        }
      ],
      "name": "addPendingRewards",
      "outputs": [],
      "stateMutability": "nonpayable",
      "type": "function"
    },
    {
      "inputs": [
        {
          "internalType": "uint256",
          "name": "_allocPoint",
          "type": "uint256"
        },
        {
          "internalType": "contract IERC20",
          "name": "_token",
          "type": "address"
        },
        {
          "internalType": "bool",
          "name": "_withdrawable",
          "type": "bool"
        }
      ],
      "name": "addPool",
      "outputs": [],
      "stateMutability": "nonpayable",
      "type": "function"
    },
    {
      "inputs": [
        {
          "internalType": "uint256",
          "name": "_amount",
          "type": "uint256"
        }
      ],
      "name": "addRAMRewardsOwner",
      "outputs": [],
      "stateMutability": "nonpayable",
      "type": "function"
    },
    {
      "inputs": [
        {
          "internalType": "uint256",
          "name": "_amount",
          "type": "uint256"
        }
      ],
      "name": "addYGYRewardsOwner",
      "outputs": [],
      "stateMutability": "nonpayable",
      "type": "function"
    },
    {
      "inputs": [],
      "name": "burnSuperAdmin",
      "outputs": [],
      "stateMutability": "nonpayable",
      "type": "function"
    },
    {
      "inputs": [
        {
          "internalType": "uint256",
          "name": "_pid",
          "type": "uint256"
        },
        {
          "internalType": "address",
          "name": "_user",
          "type": "address"
        }
      ],
      "name": "checkRewards",
      "outputs": [
        {
          "internalType": "uint256",
          "name": "pendingRAM",
          "type": "uint256"
        },
        {
          "internalType": "uint256",
          "name": "pendingYGY",
          "type": "uint256"
        }
      ],
      "stateMutability": "view",
      "type": "function"
    },
    {
      "inputs": [
        {
          "internalType": "uint256",
          "name": "_pid",
          "type": "uint256"
        }
      ],
      "name": "claimRewards",
      "outputs": [],
      "stateMutability": "nonpayable",
      "type": "function"
    },
    {
      "inputs": [
        {
          "internalType": "uint256",
          "name": "_pid",
          "type": "uint256"
        },
        {
          "internalType": "uint256",
          "name": "_amount",
          "type": "uint256"
        }
      ],
      "name": "deposit",
      "outputs": [],
      "stateMutability": "nonpayable",
      "type": "function"
    },
    {
      "inputs": [
        {
          "internalType": "address",
          "name": "_depositFor",
          "type": "address"
        },
        {
          "internalType": "uint256",
          "name": "_pid",
          "type": "uint256"
        },
        {
          "internalType": "uint256",
          "name": "_amount",
          "type": "uint256"
        }
      ],
      "name": "depositFor",
      "outputs": [],
      "stateMutability": "nonpayable",
      "type": "function"
    },
    {
      "inputs": [],
      "name": "distributeFees",
      "outputs": [],
      "stateMutability": "nonpayable",
      "type": "function"
    },
    {
      "inputs": [
        {
          "internalType": "uint256",
          "name": "_pid",
          "type": "uint256"
        }
      ],
      "name": "emergencyWithdraw",
      "outputs": [],
      "stateMutability": "nonpayable",
      "type": "function"
    },
    {
      "inputs": [
        {
          "internalType": "address",
          "name": "__superAdmin",
          "type": "address"
        },
        {
          "internalType": "address",
          "name": "_regeneratoraddr",
          "type": "address"
        },
        {
          "internalType": "address",
          "name": "_devaddr",
          "type": "address"
        },
        {
          "internalType": "address",
          "name": "_teamaddr",
          "type": "address"
        }
      ],
      "name": "initialize",
      "outputs": [],
      "stateMutability": "nonpayable",
      "type": "function"
    },
    {
      "inputs": [],
      "name": "massUpdatePools",
      "outputs": [],
      "stateMutability": "nonpayable",
      "type": "function"
    },
    {
      "inputs": [
        {
          "internalType": "address",
          "name": "newOwner",
          "type": "address"
        }
      ],
      "name": "newSuperAdmin",
      "outputs": [],
      "stateMutability": "nonpayable",
      "type": "function"
    },
    {
      "inputs": [],
      "name": "owner",
      "outputs": [
        {
          "internalType": "address",
          "name": "",
          "type": "address"
        }
      ],
      "stateMutability": "view",
      "type": "function"
    },
    {
      "inputs": [
        {
          "internalType": "uint256",
          "name": "_pid",
          "type": "uint256"
        },
        {
          "internalType": "uint256",
          "name": "_level",
          "type": "uint256"
        }
      ],
      "name": "purchase",
      "outputs": [],
      "stateMutability": "nonpayable",
      "type": "function"
    },
    {
      "inputs": [],
      "name": "renounceOwnership",
      "outputs": [],
      "stateMutability": "nonpayable",
      "type": "function"
    },
    {
      "inputs": [
        {
          "internalType": "uint256",
          "name": "_pid",
          "type": "uint256"
        },
        {
          "internalType": "uint256",
          "name": "_allocPoint",
          "type": "uint256"
        },
        {
          "internalType": "bool",
          "name": "_withdrawable",
          "type": "bool"
        }
      ],
      "name": "set",
      "outputs": [],
      "stateMutability": "nonpayable",
      "type": "function"
    },
    {
      "inputs": [
        {
          "internalType": "address",
          "name": "spender",
          "type": "address"
        },
        {
          "internalType": "uint256",
          "name": "_pid",
          "type": "uint256"
        },
        {
          "internalType": "uint256",
          "name": "value",
          "type": "uint256"
        }
      ],
      "name": "setAllowanceForPoolToken",
      "outputs": [],
      "stateMutability": "nonpayable",
      "type": "function"
    },
    {
      "inputs": [
        {
          "internalType": "uint16",
          "name": "_DEV_FEE",
          "type": "uint16"
        }
      ],
      "name": "setDevFee",
      "outputs": [],
      "stateMutability": "nonpayable",
      "type": "function"
    },
    {
      "inputs": [
        {
          "internalType": "address",
          "name": "_devaddr",
          "type": "address"
        },
        {
          "internalType": "address",
          "name": "_teamaddr",
          "type": "address"
        }
      ],
      "name": "setDevFeeReciever",
      "outputs": [],
      "stateMutability": "nonpayable",
      "type": "function"
    },
    {
      "inputs": [
        {
          "internalType": "address",
          "name": "tokenAddress",
          "type": "address"
        },
        {
          "internalType": "uint256",
          "name": "_amount",
          "type": "uint256"
        },
        {
          "internalType": "address",
          "name": "contractAddress",
          "type": "address"
        }
      ],
      "name": "setStrategyContractOrDistributionContractAllowance",
      "outputs": [],
      "stateMutability": "nonpayable",
      "type": "function"
    },
    {
      "inputs": [],
      "name": "startNewEpoch",
      "outputs": [],
      "stateMutability": "nonpayable",
      "type": "function"
    },
    {
      "inputs": [],
      "name": "superAdmin",
      "outputs": [
        {
          "internalType": "address",
          "name": "",
          "type": "address"
        }
      ],
      "stateMutability": "view",
      "type": "function"
    },
    {
      "inputs": [
        {
          "internalType": "address",
          "name": "newOwner",
          "type": "address"
        }
      ],
      "name": "transferOwnership",
      "outputs": [],
      "stateMutability": "nonpayable",
      "type": "function"
    },
    {
      "inputs": [],
      "name": "transferRAMDevFee",
      "outputs": [],
      "stateMutability": "nonpayable",
      "type": "function"
    },
    {
      "inputs": [],
      "name": "transferYGYDevFee",
      "outputs": [],
      "stateMutability": "nonpayable",
      "type": "function"
    },
    {
      "inputs": [
        {
          "internalType": "uint256",
          "name": "_pid",
          "type": "uint256"
        },
        {
          "internalType": "uint256",
          "name": "_amount",
          "type": "uint256"
        }
      ],
      "name": "withdraw",
      "outputs": [],
      "stateMutability": "nonpayable",
      "type": "function"
    },
    {
      "inputs": [
        {
          "internalType": "address",
          "name": "owner",
          "type": "address"
        },
        {
          "internalType": "uint256",
          "name": "_pid",
          "type": "uint256"
        },
        {
          "internalType": "uint256",
          "name": "_amount",
          "type": "uint256"
        }
      ],
      "name": "withdrawFrom",
      "outputs": [],
      "stateMutability": "nonpayable",
      "type": "function"
    }
  ],
  "transactionHash": "0xc78ebd700b0768f8d33477f871702c803d6dab4178309155780ec8a2d5b7a674",
  "args": [],
  "solcInputHash": "e1126a469c08dd05a8ec89baab354616",
  "bytecode": "0x608060405234801561001057600080fd5b506151e5806100206000396000f3fe608060405234801561001057600080fd5b50600436106101da5760003560e01c8063715018a611610104578063c4014588116100a2578063e2bbb15811610071578063e2bbb15814610390578063f2fde38b146103a3578063f8c8765e146103b6578063ff1888ca146103c9576101da565b8063c40145881461034f578063cc1362ec14610362578063dbe0901f1461036a578063e18cb4fe1461037d576101da565b80638da5cb5b116100de5780638da5cb5b14610324578063934eaa501461032c578063a676860a14610334578063bb57ad2014610347576101da565b8063715018a6146103015780637abceffd146103095780637cf75ca31461031c576101da565b8063423d6fa01161017c5780635db64aba1161014b5780635db64aba146102c0578063630b5ba1146102d357806364482f79146102db57806370876c98146102ee576101da565b8063423d6fa014610274578063441a3e70146102875780634cf5fbf51461029a5780635312ea8e146102ad576101da565b80633a0967cd116101b85780633a0967cd146102335780633aab0a62146102465780633b6a68491461024e5780633fe6a27814610261576101da565b80630962ef79146101df57806310178d9c146101f457806329575f6a1461021e575b600080fd5b6101f26101ed366004614ad8565b6103dc565b005b610207610202366004614b08565b610422565b6040516102159291906150ef565b60405180910390f35b6102266104af565b6040516102159190614c72565b6101f2610241366004614930565b6104be565b6101f26105ef565b6101f261025c366004614ad8565b61075c565b6101f261026f366004614ad8565b610911565b6101f2610282366004614ad8565b610a93565b6101f2610295366004614b62565b610b64565b6101f26102a8366004614930565b610b74565b6101f26102bb366004614ad8565b610da1565b6101f26102ce3660046148aa565b610f31565b6101f26112ca565b6101f26102e9366004614ba6565b6113fa565b6101f26102fc366004614b62565b61146b565b6101f261183d565b6101f2610317366004614b2c565b6118bc565b6101f261192d565b610226611e2b565b6101f2611e3a565b6101f26103423660046147fb565b611ea9565b6101f2611f31565b6101f261035d3660046148ef565b612398565b6101f26124fa565b6101f2610378366004614930565b6129f1565b6101f261038b366004614ab6565b612aab565b6101f261039e366004614b62565b612b28565b6101f26103b13660046147fb565b612d54565b6101f26103c436600461484f565b612e0b565b6101f26103d7366004614817565b612f0b565b6103e68133612f6e565b7fc05cbf47ef4152ea1b2446fb1ba8eb9c7285054d9c85f2f52c294200d8d1d38b8133604051610417929190614ffa565b60405180910390a150565b60008054604051630405e36760e21b815282916001600160a01b0316906310178d9c906104559087908790600401614ffa565b604080518083038186803b15801561046c57600080fd5b505afa158015610480573d6000803e3d6000fd5b505050506040513d601f19601f820116820180604052508101906104a49190614b83565b915091509250929050565b609c546001600160a01b031690565b6000805460405163158dd39360e01b81526001600160a01b039091169063158dd393906104f39086908890339060040161505a565b60206040518083038186803b15801561050b57600080fd5b505afa15801561051f573d6000803e3d6000fd5b505050506040513d601f19601f820116820180604052508101906105439190614af0565b90508181101561056e5760405162461bcd60e51b815260040161056590614e1d565b60405180910390fd5b6000546001600160a01b03166360443a4584863361058c8688612fa8565b6040518563ffffffff1660e01b81526004016105ab9493929190615011565b600060405180830381600087803b1580156105c557600080fd5b505af11580156105d9573d6000803e3d6000fd5b505050506105e983838633612ff3565b50505050565b6000805460408051632515621d60e11b815290516001600160a01b0390921692634a2ac43a9260048084019382900301818387803b15801561063057600080fd5b505af1158015610644573d6000803e3d6000fd5b5050600080546040805163221205f760e21b815290516001600160a01b03909216945063884817dc9350600480820193929182900301818387803b15801561068b57600080fd5b505af115801561069f573d6000803e3d6000fd5b5050600080546040516309df3e6d60e41b81526001600160a01b039091169350639df3e6d092506106d39190600401614ce8565b600060405180830381600087803b1580156106ed57600080fd5b505af1158015610701573d6000803e3d6000fd5b5050600080546040805163022fed0760e11b815290516001600160a01b03909216945063045fda0e9350600480820193929182900301818387803b15801561074857600080fd5b505af11580156105e9573d6000803e3d6000fd5b6107646131f7565b6065546001600160a01b039081169116146107915760405162461bcd60e51b815260040161056590614e84565b60008054906101000a90046001600160a01b03166001600160a01b0316638f33b5e56040518163ffffffff1660e01b815260040160206040518083038186803b1580156107dd57600080fd5b505afa1580156107f1573d6000803e3d6000fd5b505050506040513d601f19601f820116820180604052508101906108159190614980565b6001600160a01b03166323b872dd3330846040518463ffffffff1660e01b815260040161084493929190614c86565b602060405180830381600087803b15801561085e57600080fd5b505af1158015610872573d6000803e3d6000fd5b505050506040513d601f19601f820116820180604052508101906108969190614964565b80156108a25750600081115b6108ab57600080fd5b600080546040516301e0a3fb60e61b81526001600160a01b0390911691637828fec0916108dc918591600401614cf1565b600060405180830381600087803b1580156108f657600080fd5b505af115801561090a573d6000803e3d6000fd5b5050505050565b6109196131f7565b6065546001600160a01b039081169116146109465760405162461bcd60e51b815260040161056590614e84565b60008054906101000a90046001600160a01b03166001600160a01b031663fb70c3bf6040518163ffffffff1660e01b815260040160206040518083038186803b15801561099257600080fd5b505afa1580156109a6573d6000803e3d6000fd5b505050506040513d601f19601f820116820180604052508101906109ca9190614980565b6001600160a01b03166323b872dd3330846040518463ffffffff1660e01b81526004016109f993929190614c86565b602060405180830381600087803b158015610a1357600080fd5b505af1158015610a27573d6000803e3d6000fd5b505050506040513d601f19601f82011682018060405250810190610a4b9190614964565b8015610a575750600081115b610a6057600080fd5b6000546040516301e0a3fb60e61b81526001600160a01b0390911690637828fec0906108dc908490600190600401614cf1565b60008054906101000a90046001600160a01b03166001600160a01b0316638f33b5e56040518163ffffffff1660e01b815260040160206040518083038186803b158015610adf57600080fd5b505afa158015610af3573d6000803e3d6000fd5b505050506040513d601f19601f82011682018060405250810190610b179190614980565b6001600160a01b0316336001600160a01b031614610b3457600080fd5b600054604051630211eb7d60e51b81526001600160a01b039091169063423d6fa0906108dc908490600401614ce8565b610b7082823333612ff3565b5050565b610b7c614760565b600054610b939084906001600160a01b03166131fb565b9050610b9d6147a1565b600054610bb690859087906001600160a01b03166132cd565b9050610bc28486612f6e565b8215610c845781516040516323b872dd60e01b81526001600160a01b03909116906323b872dd90610bfb90339030908890600401614c86565b602060405180830381600087803b158015610c1557600080fd5b505af1158015610c29573d6000803e3d6000fd5b505050506040513d601f19601f82011682018060405250810190610c4d9190614964565b508051610c5a9084613395565b8152606081015115610c845760008054610c849183918591899181906001600160a01b03166133ba565b610c8e8183613457565b6000546040516303c4399d60e11b81526001600160a01b0390911690630788733a90610cc290879089908690600401615036565b600060405180830381600087803b158015610cdc57600080fd5b505af1158015610cf0573d6000803e3d6000fd5b505060005460405163d4665bb760e01b81526001600160a01b03909116925063d4665bb79150610d26908790869060040161509a565b600060405180830381600087803b158015610d4057600080fd5b505af1158015610d54573d6000803e3d6000fd5b5050505083856001600160a01b03167f90890809c654f11d6e72a28fa60149770a0d11ec6c92319d6ceb2bb0a4ea1a1585604051610d929190614ce8565b60405180910390a35050505050565b610da9614760565b600054610dc09083906001600160a01b03166131fb565b90508060800151610dd057600080fd5b610dd86147a1565b600054610df190849033906001600160a01b03166132cd565b80518351919250610e0d916001600160a01b03169033906134a5565b8051604051849133917fbb757047c2b5f3974fe26b7c10f732e7bce710b0952a71082702781e62ae059591610e4191614ce8565b60405180910390a3600080825260608201819052602082018190526040808301829052905490516303c4399d60e11b81526001600160a01b0390911690630788733a90610e9690869033908690600401615036565b600060405180830381600087803b158015610eb057600080fd5b505af1158015610ec4573d6000803e3d6000fd5b505060005460405163d4665bb760e01b81526001600160a01b03909116925063d4665bb79150610efa908690869060040161509a565b600060405180830381600087803b158015610f1457600080fd5b505af1158015610f28573d6000803e3d6000fd5b50505050505050565b82610f3a6147d7565b604051631c72e6e760e11b81526001600160a01b038316906338e5cdce90610f66908790600401614ce8565b60006040518083038186803b158015610f7e57600080fd5b505afa158015610f92573d6000803e3d6000fd5b505050506040513d6000823e601f3d908101601f19168201604052610fba91908101906149fb565b9050610fc46147a1565b600054610fdd90859089906001600160a01b03166132cd565b9050610fe7614760565b600054610ffe9086906001600160a01b03166131fb565b90507fb11f0630abdc3c49238c394684d47c0a22fb6922fdf83b64cfdd3d9769f1a26383600001516040516020016110369190614c56565b6040516020818303038152906040528051906020012014156111535760008054906101000a90046001600160a01b03166001600160a01b0316638792a265856001600160a01b0316638291286c6040518163ffffffff1660e01b815260040160206040518083038186803b1580156110ad57600080fd5b505afa1580156110c1573d6000803e3d6000fd5b505050506040513d601f19601f820116820180604052508101906110e59190614af0565b8a6040518363ffffffff1660e01b8152600401611103929190614ffa565b600060405180830381600087803b15801561111d57600080fd5b505af1158015611131573d6000803e3d6000fd5b505060008054611153935085925084918c9181906001600160a01b03166133ba565b604051630852cd8d60e31b81526001600160a01b038516906342966c689061117f908990600401614ce8565b600060405180830381600087803b15801561119957600080fd5b505af11580156111ad573d6000803e3d6000fd5b50506000546040516303c4399d60e11b81526001600160a01b039091169250630788733a91506111e59088908c908790600401615036565b600060405180830381600087803b1580156111ff57600080fd5b505af1158015611213573d6000803e3d6000fd5b505060005460405163d4665bb760e01b81526001600160a01b03909116925063d4665bb79150611249908890859060040161509a565b600060405180830381600087803b15801561126357600080fd5b505af1158015611277573d6000803e3d6000fd5b50505050600085896001600160a01b03167f2afbc6f74788c58c5d56fca9812c385d27a7bf8004bd05cd1b9f057ad145f69d60016040516112b89190614cdd565b60405180910390a45050505050505050565b60008060005b60008054906101000a90046001600160a01b03166001600160a01b031663b3944d526040518163ffffffff1660e01b815260040160206040518083038186803b15801561131c57600080fd5b505afa158015611330573d6000803e3d6000fd5b505050506040513d601f19601f820116820180604052508101906113549190614af0565b81101561139157600080611367836134fb565b90925090506113768583613395565b94506113828482613395565b935050508060010190506112d0565b50600054604051635105a97560e01b81526001600160a01b0390911690635105a975906113c490859085906004016150ef565b600060405180830381600087803b1580156113de57600080fd5b505af11580156113f2573d6000803e3d6000fd5b505050505050565b6114026131f7565b6065546001600160a01b0390811691161461142f5760405162461bcd60e51b815260040161056590614e84565b6114376112ca565b60005460405163236535f560e11b81526001600160a01b03909116906346ca6bea90610efa908690869086906004016150fd565b611473614760565b60005461148a9084906001600160a01b03166131fb565b90506114946147a1565b6000546114ad90859033906001600160a01b03166132cd565b90508060800151831180156114c3575060048311155b6114cc57600080fd5b60008054604051636a9d1f6f60e01b81526001600160a01b0390911690636a9d1f6f906114fd908790600401614ce8565b60206040518083038186803b15801561151557600080fd5b505afa158015611529573d6000803e3d6000fd5b505050506040513d601f19601f8201168201806040525081019061154d9190614af0565b905060006115688360a0015183612fa890919063ffffffff16565b905060008054906101000a90046001600160a01b03166001600160a01b0316638f33b5e56040518163ffffffff1660e01b815260040160206040518083038186803b1580156115b657600080fd5b505afa1580156115ca573d6000803e3d6000fd5b505050506040513d601f19601f820116820180604052508101906115ee9190614980565b6001600160a01b03166323b872dd3330846040518463ffffffff1660e01b815260040161161d93929190614c86565b602060405180830381600087803b15801561163757600080fd5b505af115801561164b573d6000803e3d6000fd5b505050506040513d601f19601f8201168201806040525081019061166f9190614964565b61167857600080fd5b60a08301516116879082613395565b60a08401526080830185905261169c8561392a565b8251156116c257600080546116c2918591879133918a91906001600160a01b03166133ba565b6000546040516303c4399d60e11b81526001600160a01b0390911690630788733a906116f690899033908890600401615036565b600060405180830381600087803b15801561171057600080fd5b505af1158015611724573d6000803e3d6000fd5b505060005460405163d4665bb760e01b81526001600160a01b03909116925063d4665bb7915061175a908990889060040161509a565b600060405180830381600087803b15801561177457600080fd5b505af1158015611788573d6000803e3d6000fd5b5050600054604051631be9449960e11b81526001600160a01b0390911692506337d2893291506117bf908490600190600401614cf1565b600060405180830381600087803b1580156117d957600080fd5b505af11580156117ed573d6000803e3d6000fd5b505050508486336001600160a01b03167f2afbc6f74788c58c5d56fca9812c385d27a7bf8004bd05cd1b9f057ad145f69d600060405161182d9190614cdd565b60405180910390a4505050505050565b6118456131f7565b6065546001600160a01b039081169116146118725760405162461bcd60e51b815260040161056590614e84565b6065546040516000916001600160a01b0316907f8be0079c531659141344cd1fd0a4f28419497f9722a3daafe3b4186f6b6457e0908390a3606580546001600160a01b0319169055565b6118c46131f7565b6065546001600160a01b039081169116146118f15760405162461bcd60e51b815260040161056590614e84565b6118f96112ca565b600054604051637abceffd60e01b81526001600160a01b0390911690637abceffd90610efa90869086908690600401615079565b609a5415611e295760008060008060009054906101000a90046001600160a01b03166001600160a01b0316638f33b5e56040518163ffffffff1660e01b815260040160206040518083038186803b15801561198757600080fd5b505afa15801561199b573d6000803e3d6000fd5b505050506040513d601f19601f820116820180604052508101906119bf9190614980565b6001600160a01b03166370a08231306040518263ffffffff1660e01b81526004016119ea9190614c72565b60206040518083038186803b158015611a0257600080fd5b505afa158015611a16573d6000803e3d6000fd5b505050506040513d601f19601f82011682018060405250810190611a3a9190614af0565b905080609a541115611a7557611a5c6064611a5683604661396d565b906139a7565b9250611a6e6064611a5683601e61396d565b9150611ab0565b611a906064611a566046609a5461396d90919063ffffffff16565b9250611aad6064611a56601e609a5461396d90919063ffffffff16565b91505b8215611bc15760008054906101000a90046001600160a01b03166001600160a01b0316638f33b5e56040518163ffffffff1660e01b815260040160206040518083038186803b158015611b0257600080fd5b505afa158015611b16573d6000803e3d6000fd5b505050506040513d601f19601f82011682018060405250810190611b3a9190614980565b60975460405163a9059cbb60e01b81526001600160a01b039283169263a9059cbb92611b6d929116908790600401614cc4565b602060405180830381600087803b158015611b8757600080fd5b505af1158015611b9b573d6000803e3d6000fd5b505050506040513d601f19601f82011682018060405250810190611bbf9190614964565b505b8115611cd25760008054906101000a90046001600160a01b03166001600160a01b0316638f33b5e56040518163ffffffff1660e01b815260040160206040518083038186803b158015611c1357600080fd5b505afa158015611c27573d6000803e3d6000fd5b505050506040513d601f19601f82011682018060405250810190611c4b9190614980565b60985460405163a9059cbb60e01b81526001600160a01b039283169263a9059cbb92611c7e929116908690600401614cc4565b602060405180830381600087803b158015611c9857600080fd5b505af1158015611cac573d6000803e3d6000fd5b505050506040513d601f19601f82011682018060405250810190611cd09190614964565b505b60005460408051638f33b5e560e01b815290516001600160a01b0390921691638f838a9f918391638f33b5e591600480820192602092909190829003018186803b158015611d1f57600080fd5b505afa158015611d33573d6000803e3d6000fd5b505050506040513d601f19601f82011682018060405250810190611d579190614980565b6001600160a01b03166370a08231306040518263ffffffff1660e01b8152600401611d829190614c72565b60206040518083038186803b158015611d9a57600080fd5b505afa158015611dae573d6000803e3d6000fd5b505050506040513d601f19601f82011682018060405250810190611dd29190614af0565b6040518263ffffffff1660e01b8152600401611dee9190614ce8565b600060405180830381600087803b158015611e0857600080fd5b505af1158015611e1c573d6000803e3d6000fd5b50506000609a5550505050505b565b6065546001600160a01b031690565b611e426131f7565b609c546001600160a01b03908116911614611e5c57600080fd5b609c80546001600160a01b03191690556040517ff564c40f4f45e62a2c1e6c22e8bfb46501f0f71fa1c72e5358903fa1115a4b6490611e9f906000908190614caa565b60405180910390a1565b611eb16131f7565b609c546001600160a01b03908116911614611ecb57600080fd5b6001600160a01b038116611ede57600080fd5b609c80546001600160a01b0319166001600160a01b0383811691909117918290556040517ff564c40f4f45e62a2c1e6c22e8bfb46501f0f71fa1c72e5358903fa1115a4b64926104179216908490614caa565b60008054604051631be9449960e11b81526001600160a01b03909116916337d2893291611f6391908190600401614cf1565b600060405180830381600087803b158015611f7d57600080fd5b505af1158015611f91573d6000803e3d6000fd5b505050506000612020600260008054906101000a90046001600160a01b03166001600160a01b03166309e3de416040518163ffffffff1660e01b815260040160206040518083038186803b158015611fe857600080fd5b505afa158015611ffc573d6000803e3d6000fd5b505050506040513d601f19601f82011682018060405250810190611a569190614af0565b905080156123955760008054906101000a90046001600160a01b03166001600160a01b0316638f33b5e56040518163ffffffff1660e01b815260040160206040518083038186803b15801561207457600080fd5b505afa158015612088573d6000803e3d6000fd5b505050506040513d601f19601f820116820180604052508101906120ac9190614980565b60995460405163a9059cbb60e01b81526001600160a01b039283169263a9059cbb926120df929116908590600401614cc4565b602060405180830381600087803b1580156120f957600080fd5b505af115801561210d573d6000803e3d6000fd5b505050506040513d601f19601f820116820180604052508101906121319190614964565b61213a57600080fd5b600061214c6064611a5684604661396d565b905080156122665760008054906101000a90046001600160a01b03166001600160a01b0316638f33b5e56040518163ffffffff1660e01b815260040160206040518083038186803b1580156121a057600080fd5b505afa1580156121b4573d6000803e3d6000fd5b505050506040513d601f19601f820116820180604052508101906121d89190614980565b60975460405163a9059cbb60e01b81526001600160a01b039283169263a9059cbb9261220b929116908590600401614cc4565b602060405180830381600087803b15801561222557600080fd5b505af1158015612239573d6000803e3d6000fd5b505050506040513d601f19601f8201168201806040525081019061225d9190614964565b61226657600080fd5b60006122786064611a5685601e61396d565b905080156123925760008054906101000a90046001600160a01b03166001600160a01b0316638f33b5e56040518163ffffffff1660e01b815260040160206040518083038186803b1580156122cc57600080fd5b505afa1580156122e0573d6000803e3d6000fd5b505050506040513d601f19601f820116820180604052508101906123049190614980565b60985460405163a9059cbb60e01b81526001600160a01b039283169263a9059cbb92612337929116908590600401614cc4565b602060405180830381600087803b15801561235157600080fd5b505af1158015612365573d6000803e3d6000fd5b505050506040513d601f19601f820116820180604052508101906123899190614964565b61239257600080fd5b50505b50565b6123a1816139e9565b80156123c257506123b06131f7565b609c546001600160a01b039081169116145b6123cb57600080fd5b61245c6201731860008054906101000a90046001600160a01b03166001600160a01b03166331db122c6040518163ffffffff1660e01b815260040160206040518083038186803b15801561241e57600080fd5b505afa158015612432573d6000803e3d6000fd5b505050506040513d601f19601f820116820180604052508101906124569190614af0565b90613395565b431161247a5760405162461bcd60e51b815260040161056590614f07565b60405163095ea7b360e01b81526001600160a01b0384169063095ea7b3906124a89084908690600401614cc4565b602060405180830381600087803b1580156124c257600080fd5b505af11580156124d6573d6000803e3d6000fd5b505050506040513d601f19601f820116820180604052508101906105e99190614964565b609b5415611e295760008060008060009054906101000a90046001600160a01b03166001600160a01b031663fb70c3bf6040518163ffffffff1660e01b815260040160206040518083038186803b15801561255457600080fd5b505afa158015612568573d6000803e3d6000fd5b505050506040513d601f19601f8201168201806040525081019061258c9190614980565b6001600160a01b03166370a08231306040518263ffffffff1660e01b81526004016125b79190614c72565b60206040518083038186803b1580156125cf57600080fd5b505afa1580156125e3573d6000803e3d6000fd5b505050506040513d601f19601f820116820180604052508101906126079190614af0565b905080609b54111561263c576126236064611a5683604661396d565b92506126356064611a5683601e61396d565b9150612677565b6126576064611a566046609b5461396d90919063ffffffff16565b92506126746064611a56601e609b5461396d90919063ffffffff16565b91505b82156127885760008054906101000a90046001600160a01b03166001600160a01b031663fb70c3bf6040518163ffffffff1660e01b815260040160206040518083038186803b1580156126c957600080fd5b505afa1580156126dd573d6000803e3d6000fd5b505050506040513d601f19601f820116820180604052508101906127019190614980565b60975460405163a9059cbb60e01b81526001600160a01b039283169263a9059cbb92612734929116908790600401614cc4565b602060405180830381600087803b15801561274e57600080fd5b505af1158015612762573d6000803e3d6000fd5b505050506040513d601f19601f820116820180604052508101906127869190614964565b505b81156128995760008054906101000a90046001600160a01b03166001600160a01b031663fb70c3bf6040518163ffffffff1660e01b815260040160206040518083038186803b1580156127da57600080fd5b505afa1580156127ee573d6000803e3d6000fd5b505050506040513d601f19601f820116820180604052508101906128129190614980565b60985460405163a9059cbb60e01b81526001600160a01b039283169263a9059cbb92612845929116908690600401614cc4565b602060405180830381600087803b15801561285f57600080fd5b505af1158015612873573d6000803e3d6000fd5b505050506040513d601f19601f820116820180604052508101906128979190614964565b505b6000546040805163fb70c3bf60e01b815290516001600160a01b039092169163094601f191839163fb70c3bf91600480820192602092909190829003018186803b1580156128e657600080fd5b505afa1580156128fa573d6000803e3d6000fd5b505050506040513d601f19601f8201168201806040525081019061291e9190614980565b6001600160a01b03166370a08231306040518263ffffffff1660e01b81526004016129499190614c72565b60206040518083038186803b15801561296157600080fd5b505afa158015612975573d6000803e3d6000fd5b505050506040513d601f19601f820116820180604052508101906129999190614af0565b6040518263ffffffff1660e01b81526004016129b59190614ce8565b600060405180830381600087803b1580156129cf57600080fd5b505af11580156129e3573d6000803e3d6000fd5b50506000609b555050505050565b6000546040516360443a4560e01b81526001600160a01b03909116906360443a4590612a27908590339088908790600401615011565b600060405180830381600087803b158015612a4157600080fd5b505af1158015612a55573d6000803e3d6000fd5b50505050826001600160a01b0316336001600160a01b03167fb3fd5071835887567a0671151121894ddccc2842f1d10bedad13e0d17cace9a78484604051612a9e9291906150ef565b60405180910390a3505050565b612ab36131f7565b6065546001600160a01b03908116911614612ae05760405162461bcd60e51b815260040161056590614e84565b6103e88161ffff161115612b065760405162461bcd60e51b815260040161056590614f2e565b6099805461ffff909216600160a01b0261ffff60a01b19909216919091179055565b612b30614760565b600054612b479084906001600160a01b03166131fb565b9050612b516147a1565b600054612b6a90859033906001600160a01b03166132cd565b9050612b768433612f6e565b8215612c385781516040516323b872dd60e01b81526001600160a01b03909116906323b872dd90612baf90339030908890600401614c86565b602060405180830381600087803b158015612bc957600080fd5b505af1158015612bdd573d6000803e3d6000fd5b505050506040513d601f19601f82011682018060405250810190612c019190614964565b508051612c0e9084613395565b8152608081015115612c385760008054612c389183918591339181906001600160a01b03166133ba565b612c428183613457565b6000546040516303c4399d60e11b81526001600160a01b0390911690630788733a90612c7690879033908690600401615036565b600060405180830381600087803b158015612c9057600080fd5b505af1158015612ca4573d6000803e3d6000fd5b505060005460405163d4665bb760e01b81526001600160a01b03909116925063d4665bb79150612cda908790869060040161509a565b600060405180830381600087803b158015612cf457600080fd5b505af1158015612d08573d6000803e3d6000fd5b5050505083336001600160a01b03167f90890809c654f11d6e72a28fa60149770a0d11ec6c92319d6ceb2bb0a4ea1a1585604051612d469190614ce8565b60405180910390a350505050565b612d5c6131f7565b6065546001600160a01b03908116911614612d895760405162461bcd60e51b815260040161056590614e84565b6001600160a01b038116612daf5760405162461bcd60e51b815260040161056590614d34565b6065546040516001600160a01b038084169216907f8be0079c531659141344cd1fd0a4f28419497f9722a3daafe3b4186f6b6457e090600090a3606580546001600160a01b0319166001600160a01b0392909216919091179055565b600054600160a81b900460ff1680612e265750612e266139ef565b80612e3b5750600054600160a01b900460ff16155b612e575760405162461bcd60e51b815260040161056590614eb9565b600054600160a81b900460ff16158015612e8e576000805460ff60a01b1960ff60a81b19909116600160a81b1716600160a01b1790555b612e966139f5565b60998054609c80546001600160a01b03199081166001600160a01b038a81169190911790925561ffff60a01b1990921660b560a21b1782168782161790925560978054821686841617905560988054909116918416919091179055801561090a576000805460ff60a81b191690555050505050565b612f136131f7565b6065546001600160a01b03908116911614612f405760405162461bcd60e51b815260040161056590614e84565b609780546001600160a01b039384166001600160a01b03199182161790915560988054929093169116179055565b612f766112ca565b600080612f838484610422565b90925090508115612f9857612f988383613a9e565b80156105e9576105e98382613edc565b6000612fea83836040518060400160405280601e81526020017f536166654d6174683a207375627472616374696f6e206f766572666c6f77000081525061434c565b90505b92915050565b612ffb614760565b6000546130129086906001600160a01b03166131fb565b905080608001516130355760405162461bcd60e51b815260040161056590614f99565b61303d6147a1565b60005461305690879086906001600160a01b03166132cd565b9050848160000151101561307c5760405162461bcd60e51b815260040161056590614de6565b6130868685612f6e565b84156130d95780516130989086612fa8565b815281516130b0906001600160a01b031684876134a5565b6060810151156130d957600080546130d9918391859188916001906001600160a01b03166133ba565b6130e38183613457565b6000546040516303c4399d60e11b81526001600160a01b0390911690630788733a9061311790899033908690600401615036565b600060405180830381600087803b15801561313157600080fd5b505af1158015613145573d6000803e3d6000fd5b505060005460405163d4665bb760e01b81526001600160a01b03909116925063d4665bb7915061317b908990869060040161509a565b600060405180830381600087803b15801561319557600080fd5b505af11580156131a9573d6000803e3d6000fd5b5050505085836001600160a01b03167ff279e6a1f5e320cca91135676d9cb6e44ca8a08c0b88342bcdb1144f6511b568876040516131e79190614ce8565b60405180910390a3505050505050565b3390565b613203614760565b600080600080600080876001600160a01b0316631526fe278a6040518263ffffffff1660e01b81526004016132389190614ce8565b60c06040518083038186803b15801561325057600080fd5b505afa158015613264573d6000803e3d6000fd5b505050506040513d601f19601f82011682018060405250810190613288919061499c565b6040805160c0810182526001600160a01b03909716875260208701959095529385019290925260608401521515608083015260a0820152965050505050505092915050565b6132d56147a1565b600080600080600080876001600160a01b03166393f1a40b8b8b6040518363ffffffff1660e01b815260040161330c929190614ffa565b60c06040518083038186803b15801561332457600080fd5b505afa158015613338573d6000803e3d6000fd5b505050506040513d601f19601f8201168201806040525081019061335c9190614bd3565b6040805160c0810182529687526020870195909552938501929092526060840152608083015260a08201529a9950505050505050505050565b600082820183811015612fea5760405162461bcd60e51b815260040161056590614d7a565b606086015160006133dd88866133d45789608001516133d6565b865b8886614378565b905060006133fd6064611a56848c6000015161396d90919063ffffffff16565b60608a018190529050841561342e576134246134198483612fa8565b60a08a015190612fa8565b60a089015261344c565b61344661343b8285612fa8565b60a08a015190613395565b60a08901525b505050505050505050565b61347764e8d4a51000611a5683604001516134718661444d565b9061396d565b602083015260608101516134999064e8d4a5100090611a56906134718661444d565b60409092019190915250565b6123928363a9059cbb60e01b84846040516024016134c4929190614cc4565b60408051601f198184030181529190526020810180516001600160e01b03166001600160e01b031990931692909217909152614461565b600080613506614760565b60005461351d9085906001600160a01b03166131fb565b9050600081600001516001600160a01b03166370a08231306040518263ffffffff1660e01b81526004016135519190614c72565b60206040518083038186803b15801561356957600080fd5b505afa15801561357d573d6000803e3d6000fd5b505050506040513d601f19601f820116820180604052508101906135a19190614af0565b9050806135b657600080935093505050613925565b60006135cf8360a001518361339590919063ffffffff16565b90506136da60008054906101000a90046001600160a01b03166001600160a01b03166317caf6f16040518163ffffffff1660e01b815260040160206040518083038186803b15801561362057600080fd5b505afa158015613634573d6000803e3d6000fd5b505050506040513d601f19601f820116820180604052508101906136589190614af0565b602080860151600054604080516376f69fed60e11b81529051611a56946001600160a01b039093169263eded3fda9260048082019391829003018186803b1580156136a257600080fd5b505afa1580156136b6573d6000803e3d6000fd5b505050506040513d601f19601f820116820180604052508101906134719190614af0565b6099549095506000906137019061271090611a56908990600160a01b900461ffff1661396d565b609a549091506137119082613395565b609a556000805460408051638b6ff57b60e01b815290516001600160a01b0390921691638b6ff57b91600480820192602092909190829003018186803b15801561375a57600080fd5b505afa15801561376e573d6000803e3d6000fd5b505050506040513d601f19601f820116820180604052508101906137929190614af0565b9050801561388e57600054604080516317caf6f160e01b81529051613828926001600160a01b0316916317caf6f1916004808301926020929190829003018186803b1580156137e057600080fd5b505afa1580156137f4573d6000803e3d6000fd5b505050506040513d601f19601f820116820180604052508101906138189190614af0565b6020870151611a5690849061396d565b60995490965060009061384f9061271090611a56908a90600160a01b900461ffff1661396d565b609b5490915061385f9082613395565b609b5561388761387c85611a5664e8d4a510006134718c87612fa8565b606088015190613395565b6060870152505b6138b36138a884611a5664e8d4a510006134718c88612fa8565b604087015190613395565b604080870191909152600054905163d4665bb760e01b81526001600160a01b039091169063d4665bb7906138ed908b90899060040161509a565b600060405180830381600087803b15801561390757600080fd5b505af115801561391b573d6000803e3d6000fd5b5050505050505050505b915091565b6123958160405160240161393e9190614ce8565b60408051601f198184030181529190526020810180516001600160e01b031663f5b1bba960e01b179052614546565b60008261397c57506000612fed565b8282028284828161398957fe5b0414612fea5760405162461bcd60e51b815260040161056590614e43565b6000612fea83836040518060400160405280601a81526020017f536166654d6174683a206469766973696f6e206279207a65726f000000000000815250614567565b3b151590565b303b1590565b600054600160a81b900460ff1680613a105750613a106139ef565b80613a255750600054600160a01b900460ff16155b613a415760405162461bcd60e51b815260040161056590614eb9565b600054600160a81b900460ff16158015613a78576000805460ff60a01b1960ff60a81b19909116600160a81b1716600160a01b1790555b613a8061459e565b613a88614636565b8015612395576000805460ff60a81b1916905550565b60008060009054906101000a90046001600160a01b03166001600160a01b0316638f33b5e56040518163ffffffff1660e01b815260040160206040518083038186803b158015613aed57600080fd5b505afa158015613b01573d6000803e3d6000fd5b505050506040513d601f19601f82011682018060405250810190613b259190614980565b6001600160a01b03166370a08231306040518263ffffffff1660e01b8152600401613b509190614c72565b60206040518083038186803b158015613b6857600080fd5b505afa158015613b7c573d6000803e3d6000fd5b505050506040513d601f19601f82011682018060405250810190613ba09190614af0565b905080821115613cb35760008054906101000a90046001600160a01b03166001600160a01b0316638f33b5e56040518163ffffffff1660e01b815260040160206040518083038186803b158015613bf657600080fd5b505afa158015613c0a573d6000803e3d6000fd5b505050506040513d601f19601f82011682018060405250810190613c2e9190614980565b6001600160a01b031663a9059cbb84836040518363ffffffff1660e01b8152600401613c5b929190614cc4565b602060405180830381600087803b158015613c7557600080fd5b505af1158015613c89573d6000803e3d6000fd5b505050506040513d601f19601f82011682018060405250810190613cad9190614964565b50613db8565b60008054906101000a90046001600160a01b03166001600160a01b0316638f33b5e56040518163ffffffff1660e01b815260040160206040518083038186803b158015613cff57600080fd5b505afa158015613d13573d6000803e3d6000fd5b505050506040513d601f19601f82011682018060405250810190613d379190614980565b6001600160a01b031663a9059cbb84846040518363ffffffff1660e01b8152600401613d64929190614cc4565b602060405180830381600087803b158015613d7e57600080fd5b505af1158015613d92573d6000803e3d6000fd5b505050506040513d601f19601f82011682018060405250810190613db69190614964565b505b613dc061192d565b60005460408051638f33b5e560e01b815290516001600160a01b0390921691638f838a9f918391638f33b5e591600480820192602092909190829003018186803b158015613e0d57600080fd5b505afa158015613e21573d6000803e3d6000fd5b505050506040513d601f19601f82011682018060405250810190613e459190614980565b6001600160a01b03166370a08231306040518263ffffffff1660e01b8152600401613e709190614c72565b60206040518083038186803b158015613e8857600080fd5b505afa158015613e9c573d6000803e3d6000fd5b505050506040513d601f19601f82011682018060405250810190613ec09190614af0565b6040518263ffffffff1660e01b8152600401610efa9190614ce8565b60008060009054906101000a90046001600160a01b03166001600160a01b031663fb70c3bf6040518163ffffffff1660e01b815260040160206040518083038186803b158015613f2b57600080fd5b505afa158015613f3f573d6000803e3d6000fd5b505050506040513d601f19601f82011682018060405250810190613f639190614980565b6001600160a01b03166370a08231306040518263ffffffff1660e01b8152600401613f8e9190614c72565b60206040518083038186803b158015613fa657600080fd5b505afa158015613fba573d6000803e3d6000fd5b505050506040513d601f19601f82011682018060405250810190613fde9190614af0565b9050808211156140f15760008054906101000a90046001600160a01b03166001600160a01b031663fb70c3bf6040518163ffffffff1660e01b815260040160206040518083038186803b15801561403457600080fd5b505afa158015614048573d6000803e3d6000fd5b505050506040513d601f19601f8201168201806040525081019061406c9190614980565b6001600160a01b031663a9059cbb84836040518363ffffffff1660e01b8152600401614099929190614cc4565b602060405180830381600087803b1580156140b357600080fd5b505af11580156140c7573d6000803e3d6000fd5b505050506040513d601f19601f820116820180604052508101906140eb9190614964565b506141f6565b60008054906101000a90046001600160a01b03166001600160a01b031663fb70c3bf6040518163ffffffff1660e01b815260040160206040518083038186803b15801561413d57600080fd5b505afa158015614151573d6000803e3d6000fd5b505050506040513d601f19601f820116820180604052508101906141759190614980565b6001600160a01b031663a9059cbb84846040518363ffffffff1660e01b81526004016141a2929190614cc4565b602060405180830381600087803b1580156141bc57600080fd5b505af11580156141d0573d6000803e3d6000fd5b505050506040513d601f19601f820116820180604052508101906141f49190614964565b505b6000546040805163fb70c3bf60e01b815290516001600160a01b039092169163094601f191839163fb70c3bf91600480820192602092909190829003018186803b15801561424357600080fd5b505afa158015614257573d6000803e3d6000fd5b505050506040513d601f19601f8201168201806040525081019061427b9190614980565b6001600160a01b03166370a08231306040518263ffffffff1660e01b81526004016142a69190614c72565b60206040518083038186803b1580156142be57600080fd5b505afa1580156142d2573d6000803e3d6000fd5b505050506040513d601f19601f820116820180604052508101906142f69190614af0565b6040518263ffffffff1660e01b81526004016143129190614ce8565b600060405180830381600087803b15801561432c57600080fd5b505af1158015614340573d6000803e3d6000fd5b505050506123926124fa565b600081848411156143705760405162461bcd60e51b81526004016105659190614d01565b505050900390565b600080826001600160a01b03166391328af2856040518263ffffffff1660e01b81526004016143a79190614c72565b60206040518083038186803b1580156143bf57600080fd5b505afa1580156143d3573d6000803e3d6000fd5b505050506040513d601f19601f820116820180604052508101906143f79190614af0565b905061444181846001600160a01b0316636798f19f886040518263ffffffff1660e01b81526004016144299190614ce8565b60206040518083038186803b15801561241e57600080fd5b9150505b949350505050565b60608101518151600091612fed9190613395565b614473826001600160a01b0316614727565b61448f5760405162461bcd60e51b815260040161056590614fc3565b60006060836001600160a01b0316836040516144ab9190614c56565b6000604051808303816000865af19150503d80600081146144e8576040519150601f19603f3d011682016040523d82523d6000602084013e6144ed565b606091505b50915091508161450f5760405162461bcd60e51b815260040161056590614db1565b8051156105e9578080602001905181019061452a9190614964565b6105e95760405162461bcd60e51b815260040161056590614f4f565b80516a636f6e736f6c652e6c6f67602083016000808483855afa5050505050565b600081836145885760405162461bcd60e51b81526004016105659190614d01565b50600083858161459457fe5b0495945050505050565b600054600160a81b900460ff16806145b957506145b96139ef565b806145ce5750600054600160a01b900460ff16155b6145ea5760405162461bcd60e51b815260040161056590614eb9565b600054600160a81b900460ff16158015613a88576000805460ff60a01b1960ff60a81b19909116600160a81b1716600160a01b1790558015612395576000805460ff60a81b1916905550565b600054600160a81b900460ff168061465157506146516139ef565b806146665750600054600160a01b900460ff16155b6146825760405162461bcd60e51b815260040161056590614eb9565b600054600160a81b900460ff161580156146b9576000805460ff60a01b1960ff60a81b19909116600160a81b1716600160a01b1790555b60006146c36131f7565b606580546001600160a01b0319166001600160a01b038316908117909155604051919250906000907f8be0079c531659141344cd1fd0a4f28419497f9722a3daafe3b4186f6b6457e0908290a3508015612395576000805460ff60a81b1916905550565b6000813f7fc5d2460186f7233c927e7db2dcc703c0e500b653ca82273b7bfad8045d85a470818114801590614445575050151592915050565b6040518060c0016040528060006001600160a01b03168152602001600081526020016000815260200160008152602001600015158152602001600081525090565b6040518060c001604052806000815260200160008152602001600081526020016000815260200160008152602001600081525090565b60405180606001604052806060815260200160008152602001600080191681525090565b60006020828403121561480c578081fd5b8135612fea8161518c565b60008060408385031215614829578081fd5b82356148348161518c565b915060208301356148448161518c565b809150509250929050565b60008060008060808587031215614864578182fd5b843561486f8161518c565b9350602085013561487f8161518c565b9250604085013561488f8161518c565b9150606085013561489f8161518c565b939692955090935050565b600080600080608085870312156148bf578384fd5b84356148ca8161518c565b935060208501356148da8161518c565b93969395505050506040820135916060013590565b600080600060608486031215614903578283fd5b833561490e8161518c565b92506020840135915060408401356149258161518c565b809150509250925092565b600080600060608486031215614944578283fd5b833561494f8161518c565b95602085013595506040909401359392505050565b600060208284031215614975578081fd5b8151612fea816151a1565b600060208284031215614991578081fd5b8151612fea8161518c565b60008060008060008060c087890312156149b4578182fd5b86516149bf8161518c565b8096505060208701519450604087015193506060870151925060808701516149e6816151a1565b8092505060a087015190509295509295509295565b60006020808385031215614a0d578182fd5b825167ffffffffffffffff80821115614a24578384fd5b9084019060608287031215614a37578384fd5b614a416060615115565b825182811115614a4f578586fd5b83019150601f82018713614a61578485fd5b8151614a74614a6f8261513c565b615115565b8181528886838601011115614a87578687fd5b614a9682878301888701615160565b825250828401519381019390935250604090810151908201529392505050565b600060208284031215614ac7578081fd5b813561ffff81168114612fea578182fd5b600060208284031215614ae9578081fd5b5035919050565b600060208284031215614b01578081fd5b5051919050565b60008060408385031215614b1a578182fd5b8235915060208301356148448161518c565b600080600060608486031215614b40578081fd5b833592506020840135614b528161518c565b91506040840135614925816151a1565b60008060408385031215614b74578182fd5b50508035926020909101359150565b60008060408385031215614b95578182fd5b505080516020909101519092909150565b600080600060608486031215614bba578081fd5b83359250602084013591506040840135614925816151a1565b60008060008060008060c08789031215614beb578384fd5b865195506020870151945060408701519350606087015192506080870151915060a087015190509295509295509295565b805182526020810151602083015260408101516040830152606081015160608301526080810151608083015260a081015160a08301525050565b60008251614c68818460208701615160565b9190910192915050565b6001600160a01b0391909116815260200190565b6001600160a01b039384168152919092166020820152604081019190915260600190565b6001600160a01b0392831681529116602082015260400190565b6001600160a01b03929092168252602082015260400190565b901515815260200190565b90815260200190565b9182521515602082015260400190565b6000602082528251806020840152614d20816040850160208701615160565b601f01601f19169190910160400192915050565b60208082526026908201527f4f776e61626c653a206e6577206f776e657220697320746865207a65726f206160408201526564647265737360d01b606082015260800190565b6020808252601b908201527f536166654d6174683a206164646974696f6e206f766572666c6f770000000000604082015260600190565b6020808252818101527f5361666545524332303a206c6f772d6c6576656c2063616c6c206661696c6564604082015260600190565b6020808252601f908201527f576974686472617720616d6f756e7420657863656564732062616c616e636500604082015260600190565b6020808252600c908201526b4e6f20616c6c6f77616e636560a01b604082015260600190565b60208082526021908201527f536166654d6174683a206d756c7469706c69636174696f6e206f766572666c6f6040820152607760f81b606082015260800190565b6020808252818101527f4f776e61626c653a2063616c6c6572206973206e6f7420746865206f776e6572604082015260600190565b6020808252602e908201527f436f6e747261637420696e7374616e63652068617320616c726561647920626560408201526d195b881a5b9a5d1a585b1a5e995960921b606082015260800190565b6020808252600d908201526c476f76206e6f7420726561647960981b604082015260600190565b6020808252600790820152664d61782031302560c81b604082015260600190565b6020808252602a908201527f5361666545524332303a204552433230206f7065726174696f6e20646964206e6040820152691bdd081cdd58d8d9595960b21b606082015260800190565b60208082526010908201526f4e6f7420776974686472617761626c6560801b604082015260600190565b6020808252601f908201527f5361666545524332303a2063616c6c20746f206e6f6e2d636f6e747261637400604082015260600190565b9182526001600160a01b0316602082015260400190565b9384526001600160a01b03928316602085015291166040830152606082015260800190565b8381526001600160a01b038316602082015261010081016144456040830184614c1c565b9283526001600160a01b03918216602084015216604082015260600190565b9283526001600160a01b039190911660208301521515604082015260600190565b600060e08201905083825260018060a01b0383511660208301526020830151604083015260408301516060830152606083015160808301526080830151151560a083015260a083015160c08301529392505050565b918252602082015260400190565b92835260208301919091521515604082015260600190565b60405181810167ffffffffffffffff8111828210171561513457600080fd5b604052919050565b600067ffffffffffffffff821115615152578081fd5b50601f01601f191660200190565b60005b8381101561517b578181015183820152602001615163565b838111156105e95750506000910152565b6001600160a01b038116811461239557600080fd5b801515811461239557600080fdfea2646970667358221220a7d517aec92d8e2e39bdda84bcec77a5a6e8731b2eebcf25212d23774ed3125064736f6c634300060c0033",
  "devdoc": {
    "kind": "dev",
    "methods": {
      "owner()": {
        "details": "Returns the address of the current owner."
      },
      "renounceOwnership()": {
        "details": "Leaves the contract without owner. It will not be possible to call `onlyOwner` functions anymore. Can only be called by the current owner. NOTE: Renouncing ownership will leave the contract without an owner, thereby removing any functionality that is only available to the owner."
      },
      "transferOwnership(address)": {
        "details": "Transfers ownership of the contract to a new account (`newOwner`). Can only be called by the current owner."
      }
    },
    "version": 1
  },
  "userdoc": {
    "kind": "user",
    "methods": {},
    "version": 1
  },
  "storageLayout": {
    "storage": [
      {
        "astId": 13652,
        "contract": "contracts/RAMVault.sol:RAMVault",
        "label": "_storage",
        "offset": 0,
        "slot": "0",
        "type": "t_contract(YGYStorageV1)15376"
      },
      {
        "astId": 195,
        "contract": "contracts/RAMVault.sol:RAMVault",
        "label": "initialized",
        "offset": 20,
        "slot": "0",
        "type": "t_bool"
      },
      {
        "astId": 198,
        "contract": "contracts/RAMVault.sol:RAMVault",
        "label": "initializing",
        "offset": 21,
        "slot": "0",
        "type": "t_bool"
      },
      {
        "astId": 263,
        "contract": "contracts/RAMVault.sol:RAMVault",
        "label": "______gap",
        "offset": 0,
        "slot": "1",
        "type": "t_array(t_uint256)50_storage"
      },
      {
        "astId": 188,
        "contract": "contracts/RAMVault.sol:RAMVault",
        "label": "__gap",
        "offset": 0,
        "slot": "51",
        "type": "t_array(t_uint256)50_storage"
      },
      {
        "astId": 565,
        "contract": "contracts/RAMVault.sol:RAMVault",
        "label": "_owner",
        "offset": 0,
        "slot": "101",
        "type": "t_address"
      },
      {
        "astId": 683,
        "contract": "contracts/RAMVault.sol:RAMVault",
        "label": "__gap",
        "offset": 0,
        "slot": "102",
        "type": "t_array(t_uint256)49_storage"
      },
      {
        "astId": 11744,
        "contract": "contracts/RAMVault.sol:RAMVault",
        "label": "devaddr",
        "offset": 0,
        "slot": "151",
        "type": "t_address"
      },
      {
        "astId": 11746,
        "contract": "contracts/RAMVault.sol:RAMVault",
        "label": "teamaddr",
        "offset": 0,
        "slot": "152",
        "type": "t_address"
      },
      {
        "astId": 11748,
        "contract": "contracts/RAMVault.sol:RAMVault",
        "label": "regeneratoraddr",
        "offset": 0,
        "slot": "153",
        "type": "t_address"
      },
      {
        "astId": 13114,
        "contract": "contracts/RAMVault.sol:RAMVault",
        "label": "DEV_FEE",
        "offset": 20,
        "slot": "153",
        "type": "t_uint16"
      },
      {
        "astId": 13135,
        "contract": "contracts/RAMVault.sol:RAMVault",
        "label": "pending_DEV_rewards",
        "offset": 0,
        "slot": "154",
        "type": "t_uint256"
      },
      {
        "astId": 13137,
        "contract": "contracts/RAMVault.sol:RAMVault",
        "label": "pending_DEV_YGY_rewards",
        "offset": 0,
        "slot": "155",
        "type": "t_uint256"
      },
      {
        "astId": 13575,
        "contract": "contracts/RAMVault.sol:RAMVault",
        "label": "_superAdmin",
        "offset": 0,
        "slot": "156",
        "type": "t_address"
      }
    ],
    "types": {
      "t_address": {
        "encoding": "inplace",
        "label": "address",
        "numberOfBytes": "20"
      },
      "t_array(t_uint256)49_storage": {
        "base": "t_uint256",
        "encoding": "inplace",
        "label": "uint256[49]",
        "numberOfBytes": "1568"
      },
      "t_array(t_uint256)50_storage": {
        "base": "t_uint256",
        "encoding": "inplace",
        "label": "uint256[50]",
        "numberOfBytes": "1600"
      },
      "t_bool": {
        "encoding": "inplace",
        "label": "bool",
        "numberOfBytes": "1"
      },
      "t_contract(YGYStorageV1)15376": {
        "encoding": "inplace",
        "label": "contract YGYStorageV1",
        "numberOfBytes": "20"
      },
      "t_uint16": {
        "encoding": "inplace",
        "label": "uint16",
        "numberOfBytes": "2"
      },
      "t_uint256": {
        "encoding": "inplace",
        "label": "uint256",
        "numberOfBytes": "32"
      }
    }
  }
}