{
  "address": "0x1613beB3B2C4f22Ee086B2b38C1476A3cE7f78E8",
  "abi": [
    {
      "inputs": [
        {
          "internalType": "address",
          "name": "uniV2Factory",
          "type": "address"
        },
        {
          "internalType": "address",
          "name": "feeApprover",
          "type": "address"
        },
        {
          "internalType": "address",
          "name": "RAMVault",
          "type": "address"
        },
        {
          "internalType": "address",
          "name": "nftFactory",
          "type": "address"
        },
        {
          "internalType": "address payable",
          "name": "_regenerator",
          "type": "address"
        },
        {
          "internalType": "address",
          "name": "__storage",
          "type": "address"
        },
        {
          "internalType": "address",
          "name": "linkAddr",
          "type": "address"
        },
        {
          "internalType": "address",
          "name": "vrfAddr",
          "type": "address"
        }
      ],
      "stateMutability": "nonpayable",
      "type": "constructor"
    },
    {
      "anonymous": false,
      "inputs": [
        {
          "indexed": true,
          "internalType": "address",
          "name": "newAddress",
          "type": "address"
        },
        {
          "indexed": true,
          "internalType": "address",
          "name": "oldAddress",
          "type": "address"
        }
      ],
      "name": "FeeApproverChanged",
      "type": "event"
    },
    {
      "anonymous": false,
      "inputs": [
        {
          "indexed": true,
          "internalType": "address",
          "name": "previousOwner",
          "type": "address"
        },
        {
          "indexed": true,
          "internalType": "address",
          "name": "newOwner",
          "type": "address"
        }
      ],
      "name": "OwnershipTransferred",
      "type": "event"
    },
    {
      "stateMutability": "payable",
      "type": "fallback"
    },
    {
      "inputs": [],
      "name": "MAX",
      "outputs": [
        {
          "internalType": "uint256",
          "name": "",
          "type": "uint256"
        }
      ],
      "stateMutability": "view",
      "type": "function"
    },
    {
      "inputs": [],
      "name": "OFFSET",
      "outputs": [
        {
          "internalType": "uint256",
          "name": "",
          "type": "uint256"
        }
      ],
      "stateMutability": "view",
      "type": "function"
    },
    {
      "inputs": [],
      "name": "SCALE",
      "outputs": [
        {
          "internalType": "uint256",
          "name": "",
          "type": "uint256"
        }
      ],
      "stateMutability": "view",
      "type": "function"
    },
    {
      "inputs": [],
      "name": "SCALIFIER",
      "outputs": [
        {
          "internalType": "uint256",
          "name": "",
          "type": "uint256"
        }
      ],
      "stateMutability": "view",
      "type": "function"
    },
    {
      "inputs": [],
      "name": "_NFTFactory",
      "outputs": [
        {
          "internalType": "contract INFTFactory",
          "name": "",
          "type": "address"
        }
      ],
      "stateMutability": "view",
      "type": "function"
    },
    {
      "inputs": [],
      "name": "_RAMToken",
      "outputs": [
        {
          "internalType": "address",
          "name": "",
          "type": "address"
        }
      ],
      "stateMutability": "view",
      "type": "function"
    },
    {
      "inputs": [],
      "name": "_RAMVault",
      "outputs": [
        {
          "internalType": "contract IRAMVault",
          "name": "",
          "type": "address"
        }
      ],
      "stateMutability": "view",
      "type": "function"
    },
    {
      "inputs": [],
      "name": "_WETH",
      "outputs": [
        {
          "internalType": "contract IWETH",
          "name": "",
          "type": "address"
        }
      ],
      "stateMutability": "view",
      "type": "function"
    },
    {
      "inputs": [],
      "name": "_YGYRAMPair",
      "outputs": [
        {
          "internalType": "address",
          "name": "",
          "type": "address"
        }
      ],
      "stateMutability": "view",
      "type": "function"
    },
    {
      "inputs": [],
      "name": "_YGYToken",
      "outputs": [
        {
          "internalType": "address",
          "name": "",
          "type": "address"
        }
      ],
      "stateMutability": "view",
      "type": "function"
    },
    {
      "inputs": [],
      "name": "_YGYWETHPair",
      "outputs": [
        {
          "internalType": "address",
          "name": "",
          "type": "address"
        }
      ],
      "stateMutability": "view",
      "type": "function"
    },
    {
      "inputs": [],
      "name": "_dXIOTToken",
      "outputs": [
        {
          "internalType": "contract IERC20",
          "name": "",
          "type": "address"
        }
      ],
      "stateMutability": "view",
      "type": "function"
    },
    {
      "inputs": [],
      "name": "_feeApprover",
      "outputs": [
        {
          "internalType": "contract IFeeApprover",
          "name": "",
          "type": "address"
        }
      ],
      "stateMutability": "view",
      "type": "function"
    },
    {
      "inputs": [],
      "name": "_uniV2Factory",
      "outputs": [
        {
          "internalType": "address",
          "name": "",
          "type": "address"
        }
      ],
      "stateMutability": "view",
      "type": "function"
    },
    {
      "inputs": [
        {
          "internalType": "address payable",
          "name": "to",
          "type": "address"
        },
        {
          "internalType": "bool",
          "name": "autoStake",
          "type": "bool"
        }
      ],
      "name": "addLiquidityETHOnly",
      "outputs": [],
      "stateMutability": "payable",
      "type": "function"
    },
    {
      "inputs": [
        {
          "internalType": "uint256",
          "name": "amount",
          "type": "uint256"
        },
        {
          "internalType": "bool",
          "name": "autoStake",
          "type": "bool"
        }
      ],
      "name": "addLiquidityYGYOnly",
      "outputs": [],
      "stateMutability": "payable",
      "type": "function"
    },
    {
      "inputs": [
        {
          "internalType": "address",
          "name": "feeApprover",
          "type": "address"
        }
      ],
      "name": "changeFeeApprover",
      "outputs": [],
      "stateMutability": "nonpayable",
      "type": "function"
    },
    {
      "inputs": [],
      "name": "claimLink",
      "outputs": [],
      "stateMutability": "nonpayable",
      "type": "function"
    },
    {
      "inputs": [],
      "name": "claimRobot",
      "outputs": [],
      "stateMutability": "nonpayable",
      "type": "function"
    },
    {
      "inputs": [],
      "name": "claimTickets",
      "outputs": [],
      "stateMutability": "nonpayable",
      "type": "function"
    },
    {
      "inputs": [
        {
          "internalType": "address",
          "name": "user",
          "type": "address"
        }
      ],
      "name": "claimTicketsForAddr",
      "outputs": [],
      "stateMutability": "nonpayable",
      "type": "function"
    },
    {
      "inputs": [
        {
          "internalType": "uint256",
          "name": "ygyAmt",
          "type": "uint256"
        }
      ],
      "name": "getLPTokenPerYGYUnit",
      "outputs": [
        {
          "internalType": "uint256",
          "name": "liquidity",
          "type": "uint256"
        }
      ],
      "stateMutability": "view",
      "type": "function"
    },
    {
      "inputs": [
        {
          "internalType": "uint256",
          "name": "userProvidedSeed",
          "type": "uint256"
        }
      ],
      "name": "getRandomNumber",
      "outputs": [
        {
          "internalType": "bytes32",
          "name": "requestId",
          "type": "bytes32"
        }
      ],
      "stateMutability": "nonpayable",
      "type": "function"
    },
    {
      "inputs": [
        {
          "internalType": "address",
          "name": "user",
          "type": "address"
        }
      ],
      "name": "getUserLotteryLevel",
      "outputs": [
        {
          "internalType": "uint256",
          "name": "",
          "type": "uint256"
        }
      ],
      "stateMutability": "view",
      "type": "function"
    },
    {
      "inputs": [],
      "name": "governance",
      "outputs": [
        {
          "internalType": "address",
          "name": "",
          "type": "address"
        }
      ],
      "stateMutability": "view",
      "type": "function"
    },
    {
      "inputs": [
        {
          "internalType": "address",
          "name": "",
          "type": "address"
        }
      ],
      "name": "linkNFTsToBeClaimed",
      "outputs": [
        {
          "internalType": "uint256",
          "name": "",
          "type": "uint256"
        }
      ],
      "stateMutability": "view",
      "type": "function"
    },
    {
      "inputs": [
        {
          "internalType": "uint256",
          "name": "",
          "type": "uint256"
        }
      ],
      "name": "lotteryResults",
      "outputs": [
        {
          "internalType": "uint256",
          "name": "",
          "type": "uint256"
        }
      ],
      "stateMutability": "view",
      "type": "function"
    },
    {
      "inputs": [],
      "name": "lotteryRoundCounter",
      "outputs": [
        {
          "internalType": "uint256",
          "name": "",
          "type": "uint256"
        }
      ],
      "stateMutability": "view",
      "type": "function"
    },
    {
      "inputs": [
        {
          "internalType": "bytes32",
          "name": "",
          "type": "bytes32"
        }
      ],
      "name": "nonces",
      "outputs": [
        {
          "internalType": "uint256",
          "name": "",
          "type": "uint256"
        }
      ],
      "stateMutability": "view",
      "type": "function"
    },
    {
      "inputs": [],
      "name": "owner",
      "outputs": [
        {
          "internalType": "address",
          "name": "",
          "type": "address"
        }
      ],
      "stateMutability": "view",
      "type": "function"
    },
    {
      "inputs": [
        {
          "internalType": "bytes32",
          "name": "requestId",
          "type": "bytes32"
        },
        {
          "internalType": "uint256",
          "name": "randomness",
          "type": "uint256"
        }
      ],
      "name": "rawFulfillRandomness",
      "outputs": [],
      "stateMutability": "nonpayable",
      "type": "function"
    },
    {
      "inputs": [],
      "name": "refreshApproval",
      "outputs": [],
      "stateMutability": "nonpayable",
      "type": "function"
    },
    {
      "inputs": [],
      "name": "regenerator",
      "outputs": [
        {
          "internalType": "address payable",
          "name": "",
          "type": "address"
        }
      ],
      "stateMutability": "view",
      "type": "function"
    },
    {
      "inputs": [],
      "name": "regeneratorTax",
      "outputs": [
        {
          "internalType": "uint256",
          "name": "",
          "type": "uint256"
        }
      ],
      "stateMutability": "view",
      "type": "function"
    },
    {
      "inputs": [],
      "name": "renounceOwnership",
      "outputs": [],
      "stateMutability": "nonpayable",
      "type": "function"
    },
    {
      "inputs": [],
      "name": "rngLinkFee",
      "outputs": [
        {
          "internalType": "uint256",
          "name": "",
          "type": "uint256"
        }
      ],
      "stateMutability": "view",
      "type": "function"
    },
    {
      "inputs": [
        {
          "internalType": "address",
          "name": "",
          "type": "address"
        }
      ],
      "name": "robotNFTsToBeClaimed",
      "outputs": [
        {
          "internalType": "uint256",
          "name": "",
          "type": "uint256"
        }
      ],
      "stateMutability": "view",
      "type": "function"
    },
    {
      "inputs": [
        {
          "internalType": "uint256",
          "name": "userProvidedSeed",
          "type": "uint256"
        }
      ],
      "name": "selfRequestRandomNumber",
      "outputs": [
        {
          "internalType": "bytes32",
          "name": "requestId",
          "type": "bytes32"
        }
      ],
      "stateMutability": "nonpayable",
      "type": "function"
    },
    {
      "inputs": [
        {
          "internalType": "address",
          "name": "feeApproverAddress",
          "type": "address"
        }
      ],
      "name": "setFeeApprover",
      "outputs": [],
      "stateMutability": "nonpayable",
      "type": "function"
    },
    {
      "inputs": [
        {
          "internalType": "address",
          "name": "_governance",
          "type": "address"
        }
      ],
      "name": "setGovernance",
      "outputs": [],
      "stateMutability": "nonpayable",
      "type": "function"
    },
    {
      "inputs": [
        {
          "internalType": "address payable",
          "name": "_regeneratoraddr",
          "type": "address"
        }
      ],
      "name": "setRegenerator",
      "outputs": [],
      "stateMutability": "nonpayable",
      "type": "function"
    },
    {
      "inputs": [
        {
          "internalType": "uint256",
          "name": "_regeneratorTax",
          "type": "uint256"
        }
      ],
      "name": "setRegeneratorTax",
      "outputs": [],
      "stateMutability": "nonpayable",
      "type": "function"
    },
    {
      "inputs": [],
      "name": "setTokens",
      "outputs": [],
      "stateMutability": "nonpayable",
      "type": "function"
    },
    {
      "inputs": [],
      "name": "sync",
      "outputs": [],
      "stateMutability": "nonpayable",
      "type": "function"
    },
    {
      "inputs": [],
      "name": "ticketCount",
      "outputs": [
        {
          "internalType": "uint256",
          "name": "",
          "type": "uint256"
        }
      ],
      "stateMutability": "view",
      "type": "function"
    },
    {
      "inputs": [
        {
          "internalType": "address",
          "name": "newOwner",
          "type": "address"
        }
      ],
      "name": "transferOwnership",
      "outputs": [],
      "stateMutability": "nonpayable",
      "type": "function"
    },
    {
      "inputs": [
        {
          "internalType": "bytes32",
          "name": "_keyHash",
          "type": "bytes32"
        }
      ],
      "name": "updateKeyHash",
      "outputs": [],
      "stateMutability": "nonpayable",
      "type": "function"
    },
    {
      "inputs": [
        {
          "internalType": "uint256",
          "name": "_rngLinkFee",
          "type": "uint256"
        }
      ],
      "name": "updateRngLinkFee",
      "outputs": [],
      "stateMutability": "nonpayable",
      "type": "function"
    },
    {
      "inputs": [
        {
          "internalType": "address",
          "name": "",
          "type": "address"
        }
      ],
      "name": "userTicketCount",
      "outputs": [
        {
          "internalType": "uint256",
          "name": "",
          "type": "uint256"
        }
      ],
      "stateMutability": "view",
      "type": "function"
    },
    {
      "inputs": [
        {
          "internalType": "address",
          "name": "",
          "type": "address"
        },
        {
          "internalType": "uint256",
          "name": "",
          "type": "uint256"
        }
      ],
      "name": "userTickets",
      "outputs": [
        {
          "internalType": "address",
          "name": "owner",
          "type": "address"
        },
        {
          "internalType": "uint256",
          "name": "roundNumber",
          "type": "uint256"
        },
        {
          "internalType": "uint256",
          "name": "levelOneChance",
          "type": "uint256"
        },
        {
          "internalType": "uint256",
          "name": "levelTwoChance",
          "type": "uint256"
        },
        {
          "internalType": "uint256",
          "name": "levelThreeChance",
          "type": "uint256"
        },
        {
          "internalType": "uint256",
          "name": "levelFourChance",
          "type": "uint256"
        },
        {
          "internalType": "uint256",
          "name": "levelFiveChance",
          "type": "uint256"
        }
      ],
      "stateMutability": "view",
      "type": "function"
    },
    {
      "inputs": [
        {
          "internalType": "address",
          "name": "",
          "type": "address"
        }
      ],
      "name": "userTopTicketStack",
      "outputs": [
        {
          "internalType": "uint256",
          "name": "",
          "type": "uint256"
        }
      ],
      "stateMutability": "view",
      "type": "function"
    }
  ],
  "transactionHash": "0xceab7a3211d652e2e788840bac219b5af63a69beb480565f6f8ad8175a840185",
  "args": [
    "0x5FbDB2315678afecb367f032d93F642f64180aa3",
    "0xc3e53F4d16Ae77Db1c982e75a937B9f60FE63690",
    "0x0DCd1Bf9A1b36cE34237eEaFef220932846BCD82",
    "0x610178dA211FEF7D417bC0e6FeD39F05609AD788",
    "0x90F79bf6EB2c4f870365E785982E1f101E93b906",
    "0x2279B7A0a67DB372996a5FaB50D91eAA73d2eBe6",
    "0xe7f1725E7734CE288F8367e1Bb143E90bb3F0512",
    "0xa513E6E4b8f2a923D98304ec87F64353C4D5C853"
  ],
  "solcInputHash": "76850087fa2fc7e08bf89f9b4dbdc5a7",
  "bytecode": "0x60c06040523480156200001157600080fd5b506040516200474b3803806200474b83398101604081905262000034916200036a565b6001600160601b0319606082811b821660a05283901b166080526200005862000103565b5050609a80546001600160a01b03199081166001600160a01b0398891617909155609880548216968816969096179095556099805486169487169490941790935560ac805485169286169290921790915560008054841692851692909217909155609c805490921692169190911790557f6c3699283bda56ad74f6b855546325b68d482e983852a7a82979cc4807b641f4609f5567016345785d8a0000609e556001609d556200048e565b600054600160a81b900460ff168062000121575062000121620001c3565b80620001375750600054600160a01b900460ff16155b6200015f5760405162461bcd60e51b815260040162000156906200042a565b60405180910390fd5b600054600160a81b900460ff1615801562000197576000805460ff60a01b1960ff60a81b19909116600160a81b1716600160a01b1790555b620001a1620001c9565b620001ab6200026a565b8015620001c0576000805460ff60a81b191690555b50565b303b1590565b600054600160a81b900460ff1680620001e75750620001e7620001c3565b80620001fd5750600054600160a01b900460ff16155b6200021c5760405162461bcd60e51b815260040162000156906200042a565b600054600160a81b900460ff16158015620001ab576000805460ff60a01b1960ff60a81b19909116600160a81b1716600160a01b1790558015620001c0576000805460ff60a81b1916905550565b600054600160a81b900460ff168062000288575062000288620001c3565b806200029e5750600054600160a01b900460ff16155b620002bd5760405162461bcd60e51b815260040162000156906200042a565b600054600160a81b900460ff16158015620002f5576000805460ff60a01b1960ff60a81b19909116600160a81b1716600160a01b1790555b60006200030162000366565b606580546001600160a01b0319166001600160a01b038316908117909155604051919250906000907f8be0079c531659141344cd1fd0a4f28419497f9722a3daafe3b4186f6b6457e0908290a3508015620001c0576000805460ff60a81b1916905550565b3390565b600080600080600080600080610100898b03121562000387578384fd5b8851620003948162000478565b60208a0151909850620003a78162000478565b60408a0151909750620003ba8162000478565b60608a0151909650620003cd8162000478565b60808a0151909550620003e08162000478565b60a08a0151909450620003f38162000478565b60c08a0151909350620004068162000478565b60e08a0151909250620004198162000478565b809150509295985092959890939650565b6020808252602e908201527f436f6e747261637420696e7374616e63652068617320616c726561647920626560408201526d195b881a5b9a5d1a585b1a5e995960921b606082015260800190565b6001600160a01b0381168114620001c057600080fd5b60805160601c60a05160601c614284620004c76000398061153652806125e1525080610d0f528061186952806125b252506142846000f3fe6080604052600436106102e45760003560e01c8063ae1b97d711610190578063cfbd900f116100dc578063f2fde38b11610095578063f7db38cb1161006f578063f7db38cb146107f7578063fa69669c1461080c578063faf5db8e14610821578063fff6cae914610836576102e4565b8063f2fde38b146107a2578063f4ab1a93146107c2578063f6cc8707146107d7576102e4565b8063cfbd900f1461070e578063d49d518114610723578063dcd7f76914610738578063e0af361614610758578063e7fa67e51461076d578063eced55261461078d576102e4565b8063bf33a1f511610149578063cb87ce6711610123578063cb87ce6714610691578063cde7bc70146106b1578063ce665dd8146106c6578063cf260baf146106db576102e4565b8063bf33a1f514610647578063c302d2561461065c578063cb5b332e14610671576102e4565b8063ae1b97d714610592578063b082cc26146105b2578063b08b3a51146105d2578063b37217a4146105f2578063b81a0b4c14610612578063b93b4bb714610627576102e4565b8063571c2b4d1161024f5780638da5cb5b116102085780639e317f12116101e25780639e317f121461051f578063ab033ea91461053f578063ace9f00e1461055f578063adf5e1b11461057f576102e4565b80638da5cb5b146104d55780638ea498c5146104ea57806394985ddd146104ff576102e4565b8063571c2b4d1461044c5780635aa6e67514610461578063617736b914610476578063715018a61461048b57806381fe4c61146104a05780638d8cf08a146104b5576102e4565b80633023af2d116102a15780633023af2d146103ad57806330e588ac146103c25780633b24bd4a146103e25780633cb0b92d146103f75780634601723a14610417578063559ed33914610437576102e4565b80630c57af6c146103035780630eb1f9081461031657806313d4829b1461034157806322d5b25c1461036157806329e015ba146103835780632f4f8a7a14610398575b60a4546001600160a01b031633146103015761030133600061084b565b005b6103016103113660046139f7565b61084b565b34801561032257600080fd5b5061032b610af7565b6040516103389190613cbd565b60405180910390f35b34801561034d57600080fd5b5061032b61035c366004613aa4565b610afd565b34801561036d57600080fd5b50610376610c78565b6040516103389190613bc6565b34801561038f57600080fd5b50610376610c87565b3480156103a457600080fd5b50610376610c96565b3480156103b957600080fd5b50610376610ca5565b3480156103ce57600080fd5b506103016103dd366004613aa4565b610cb4565b3480156103ee57600080fd5b50610376610ce3565b34801561040357600080fd5b5061032b610412366004613aa4565b610cf2565b34801561042357600080fd5b506103016104323660046139bf565b610df8565b34801561044357600080fd5b50610301610e7e565b34801561045857600080fd5b50610376611236565b34801561046d57600080fd5b50610376611245565b34801561048257600080fd5b50610301611254565b34801561049757600080fd5b50610301611424565b3480156104ac57600080fd5b506103016114a3565b3480156104c157600080fd5b506103016104d03660046139bf565b6114d8565b3480156104e157600080fd5b50610376611516565b3480156104f657600080fd5b5061032b611525565b34801561050b57600080fd5b5061030161051a366004613abc565b61152b565b34801561052b57600080fd5b5061032b61053a366004613aa4565b611581565b34801561054b57600080fd5b5061030161055a3660046139bf565b611593565b34801561056b57600080fd5b5061032b61057a3660046139bf565b6115f3565b61030161058d366004613b49565b611605565b34801561059e57600080fd5b506103016105ad3660046139bf565b6117a2565b3480156105be57600080fd5b506103016105cd3660046139bf565b6117f9565b3480156105de57600080fd5b5061032b6105ed366004613aa4565b611850565b3480156105fe57600080fd5b5061032b61060d366004613aa4565b611862565b34801561061e57600080fd5b50610376611930565b34801561063357600080fd5b5061032b6106423660046139bf565b61193f565b34801561065357600080fd5b50610301611b17565b34801561066857600080fd5b50610301611ba1565b34801561067d57600080fd5b5061030161068c366004613aa4565b611cf8565b34801561069d57600080fd5b5061032b6106ac3660046139bf565b611d32565b3480156106bd57600080fd5b50610376611d44565b3480156106d257600080fd5b5061032b611d53565b3480156106e757600080fd5b506106fb6106f6366004613a2f565b611d58565b6040516103389796959493929190613c82565b34801561071a57600080fd5b5061032b611daa565b34801561072f57600080fd5b5061032b611db0565b34801561074457600080fd5b5061032b6107533660046139bf565b611db6565b34801561076457600080fd5b50610376611dc8565b34801561077957600080fd5b50610301610788366004613aa4565b611dd7565b34801561079957600080fd5b5061032b611e11565b3480156107ae57600080fd5b506103016107bd3660046139bf565b611e16565b3480156107ce57600080fd5b5061032b611ecd565b3480156107e357600080fd5b5061032b6107f23660046139bf565b611ef1565b34801561080357600080fd5b50610376611f03565b34801561081857600080fd5b50610376611f12565b34801561082d57600080fd5b5061032b611f21565b34801561084257600080fd5b50610301611f27565b6001600160a01b03821661087a5760405162461bcd60e51b815260040161087190613cfd565b60405180910390fd5b34806108985760405162461bcd60e51b8152600401610871906140f1565b60a460009054906101000a90046001600160a01b03166001600160a01b031663d0e30db0346040518263ffffffff1660e01b81526004016000604051808303818588803b1580156108e857600080fd5b505af11580156108fc573d6000803e3d6000fd5b505050505060008061090c611fa6565b91509150600061091d848484612092565b60a45460a25460405163a9059cbb60e01b81529293506001600160a01b039182169263a9059cbb926109559216908890600401613c1f565b602060405180830381600087803b15801561096f57600080fd5b505af1158015610983573d6000803e3d6000fd5b505050506040513d601f19601f820116820180604052508101906109a79190613a5a565b5060008054604051633834374960e11b81526001600160a01b03909116916370686e92916109dc918a91899190600401613c38565b600060405180830381600087803b1580156109f657600080fd5b505af1158015610a0a573d6000803e3d6000fd5b505060a45460a15460009350839250610a2f916001600160a01b03908116911661212c565b60a25460a1549294509092506001600160a01b039081169163022c0d9f91808616911614610a5e576000610a60565b845b60a1546001600160a01b03858116911614610a7c576000610a7e565b855b306040518463ffffffff1660e01b8152600401610a9d939291906141e8565b600060405180830381600087803b158015610ab757600080fd5b505af1158015610acb573d6000803e3d6000fd5b50505050610aed610ae66002856121b690919063ffffffff16565b8989612201565b5050505050505050565b609e5481565b6000806000610b0a61245c565b90925090506000610b26610b1f8660026121b6565b8484612092565b9050600060a060009054906101000a90046001600160a01b03166001600160a01b03166318160ddd6040518163ffffffff1660e01b815260040160206040518083038186803b158015610b7857600080fd5b505afa158015610b8c573d6000803e3d6000fd5b505050506040513d601f19601f82011682018060405250810190610bb09190613b31565b60a15460a354919250600091610bd2916001600160a01b03908116911661212c565b5060a35490915060009081906001600160a01b03808516911614610c0157610bfb8960026121b6565b85610c0d565b84610c0d8a60026121b6565b60a354919350915060009081906001600160a01b03868116911614610c33578888610c36565b87895b9092509050610c6982610c498689612539565b81610c5057fe5b0482610c5c868a612539565b81610c6357fe5b04612573565b9b9a5050505050505050505050565b6098546001600160a01b031681565b6099546001600160a01b031681565b60a0546001600160a01b031681565b609a546001600160a01b031681565b609b546001600160a01b03163314610cde5760405162461bcd60e51b815260040161087190613dcc565b609d55565b60a2546001600160a01b031681565b609e546040516323b872dd60e01b81526000916001600160a01b037f000000000000000000000000000000000000000000000000000000000000000016916323b872dd91610d469133913091600401613bda565b602060405180830381600087803b158015610d6057600080fd5b505af1158015610d74573d6000803e3d6000fd5b505050506040513d601f19601f82011682018060405250810190610d989190613a5a565b610db45760405162461bcd60e51b81526004016108719061404c565b33600090815260ad6020526040902054610dcf906001612589565b33600090815260ad6020526040902055609f54609e54610df09190846125ae565b90505b919050565b610e006126f1565b6065546001600160a01b03908116911614610e2d5760405162461bcd60e51b815260040161087190613f9b565b609880546001600160a01b038381166001600160a01b03198316811790935560405191169182917f9e4368dbddb338dc373020f18730584d6e9aaacad2101be6bd6d0a21fe59ffbc90600090a35050565b610e866126f1565b6065546001600160a01b03908116911614610eb35760405162461bcd60e51b815260040161087190613f9b565b60008054906101000a90046001600160a01b03166001600160a01b0316632f4f8a7a6040518163ffffffff1660e01b815260040160206040518083038186803b158015610eff57600080fd5b505afa158015610f13573d6000803e3d6000fd5b505050506040513d601f19601f82011682018060405250810190610f3791906139db565b60a080546001600160a01b0319166001600160a01b039283161790556000546040805163f7db38cb60e01b81529051919092169163f7db38cb916004808301926020929190829003018186803b158015610f9057600080fd5b505afa158015610fa4573d6000803e3d6000fd5b505050506040513d601f19601f82011682018060405250810190610fc891906139db565b60a180546001600160a01b0319166001600160a01b0392831617905560005460408051631d925ea560e11b815290519190921691633b24bd4a916004808301926020929190829003018186803b15801561102157600080fd5b505afa158015611035573d6000803e3d6000fd5b505050506040513d601f19601f8201168201806040525081019061105991906139db565b60a280546001600160a01b0319166001600160a01b0392831617905560005460408051633e9a59a760e21b81529051919092169163fa69669c916004808301926020929190829003018186803b1580156110b257600080fd5b505afa1580156110c6573d6000803e3d6000fd5b505050506040513d601f19601f820116820180604052508101906110ea91906139db565b60a380546001600160a01b0319166001600160a01b03928316179055600054604080516370579b0b60e11b81529051919092169163e0af3616916004808301926020929190829003018186803b15801561114357600080fd5b505afa158015611157573d6000803e3d6000fd5b505050506040513d601f19601f8201168201806040525081019061117b91906139db565b60a480546001600160a01b0319166001600160a01b0392831617905560005460408051632e0682d360e21b81529051919092169163b81a0b4c916004808301926020929190829003018186803b1580156111d457600080fd5b505afa1580156111e8573d6000803e3d6000fd5b505050506040513d601f19601f8201168201806040525081019061120c91906139db565b60a580546001600160a01b0319166001600160a01b0392909216919091179055611234611b17565b565b609c546001600160a01b031681565b609b546001600160a01b031681565b33600090815260ae60205260409020546112805760405162461bcd60e51b815260040161087190613ebe565b6000805460405163795d79f560e01b81526001600160a01b039091169063795d79f5906112b290600690600401613cbd565b60206040518083038186803b1580156112ca57600080fd5b505afa1580156112de573d6000803e3d6000fd5b505050506040513d601f19601f8201168201806040525081019061130291906139db565b90506032816001600160a01b03166318160ddd6040518163ffffffff1660e01b815260040160206040518083038186803b15801561133f57600080fd5b505afa158015611353573d6000803e3d6000fd5b505050506040513d601f19601f820116820180604052508101906113779190613b31565b10156114215760ac5460a754600090815260a8602052604090819020549051636361ddf360e11b81526001600160a01b039092169163c6c3bbe6916113c29185913391600401613bda565b600060405180830381600087803b1580156113dc57600080fd5b505af11580156113f0573d6000803e3d6000fd5b505033600090815260ae60205260409020546114109250905060016126f5565b33600090815260ae60205260409020555b50565b61142c6126f1565b6065546001600160a01b039081169116146114595760405162461bcd60e51b815260040161087190613f9b565b6065546040516000916001600160a01b0316907f8be0079c531659141344cd1fd0a4f28419497f9722a3daafe3b4186f6b6457e0908390a3606580546001600160a01b0319169055565b33600090815260aa60205260409020546114cf5760405162461bcd60e51b8152600401610871906141bb565b61123433612737565b6001600160a01b038116600090815260aa602052604090205461150d5760405162461bcd60e51b8152600401610871906141bb565b61142181612737565b6065546001600160a01b031690565b60a75481565b336001600160a01b037f000000000000000000000000000000000000000000000000000000000000000016146115735760405162461bcd60e51b815260040161087190613fd0565b61157d8282612d70565b5050565b60976020526000908152604090205481565b609a54600160a01b900460ff16156115bd5760405162461bcd60e51b815260040161087190614173565b609a805460ff60a01b1916600160a01b179055609b80546001600160a01b039092166001600160a01b0319909216919091179055565b60ab6020526000908152604090205481565b600082116116255760405162461bcd60e51b815260040161087190613d95565b60a1546040516323b872dd60e01b81526001600160a01b03909116906323b872dd9061165990339030908790600401613bda565b602060405180830381600087803b15801561167357600080fd5b505af1158015611687573d6000803e3d6000fd5b505050506040513d601f19601f820116820180604052508101906116ab9190613a5a565b6116c75760405162461bcd60e51b815260040161087190613ef5565b6000806116d2611fa6565b9150915060006116e3858385612092565b905060006117076064611701609d548961253990919063ffffffff16565b906121b6565b60008054604051633834374960e11b81529293506001600160a01b0316916370686e929161173b9133918791600401613c38565b600060405180830381600087803b15801561175557600080fd5b505af1158015611769573d6000803e3d6000fd5b50505050600061178282886126f590919063ffffffff16565b90506117996117928260026121b6565b3388612201565b50505050505050565b6117aa6126f1565b6065546001600160a01b039081169116146117d75760405162461bcd60e51b815260040161087190613f9b565b609c80546001600160a01b0319166001600160a01b0392909216919091179055565b6118016126f1565b6065546001600160a01b0390811691161461182e5760405162461bcd60e51b815260040161087190613f9b565b609880546001600160a01b0319166001600160a01b0392909216919091179055565b60a86020526000908152604090205481565b6000609e547f00000000000000000000000000000000000000000000000000000000000000006001600160a01b03166370a08231306040518263ffffffff1660e01b81526004016118b39190613bc6565b60206040518083038186803b1580156118cb57600080fd5b505afa1580156118df573d6000803e3d6000fd5b505050506040513d601f19601f820116820180604052508101906119039190613b31565b10156119215760405162461bcd60e51b815260040161087190613f23565b610df0609f54609e54846125ae565b60a5546001600160a01b031681565b6000805460405163568a0a5960e11b815282916001600160a01b03169063ad1414b290611970908690600401613bc6565b60206040518083038186803b15801561198857600080fd5b505afa15801561199c573d6000803e3d6000fd5b505050506040513d601f19601f820116820180604052508101906119c09190613b31565b9050670de0b6b3a76400008110156119dc576000915050610df3565b670de0b6b3a764000081101580156119fb5750674563918244f4000081105b15611a0a576001915050610df3565b674563918244f400008110158015611a295750678ac7230489e8000081105b15611a38576002915050610df3565b678ac7230489e800008110158015611a5857506801158e460913d0000081105b15611a67576003915050610df3565b6801158e460913d000008110158015611a8857506801a055690d9db8000081105b15611a97576004915050610df3565b6801a055690d9db800008110158015611ab8575068022b1c8c1227a0000081105b15611ac7576005915050610df3565b68022b1c8c1227a000008110158015611ae857506802b5e3af16b188000081105b15611af7576006915050610df3565b6802b5e3af16b18800008110611b11576007915050610df3565b50919050565b60a05460995460405163095ea7b360e01b81526001600160a01b039283169263095ea7b392611b4f9291169060001990600401613c1f565b602060405180830381600087803b158015611b6957600080fd5b505af1158015611b7d573d6000803e3d6000fd5b505050506040513d601f19601f820116820180604052508101906114219190613a5a565b33600090815260ad6020526040902054611bcd5760405162461bcd60e51b8152600401610871906140c7565b6000805460405163795d79f560e01b81526001600160a01b039091169063795d79f590611bff90600790600401613cbd565b60206040518083038186803b158015611c1757600080fd5b505afa158015611c2b573d6000803e3d6000fd5b505050506040513d601f19601f82011682018060405250810190611c4f91906139db565b60ac5460a754600090815260a8602052604090819020549051636361ddf360e11b81529293506001600160a01b039091169163c6c3bbe691611c979185913391600401613bda565b600060405180830381600087803b158015611cb157600080fd5b505af1158015611cc5573d6000803e3d6000fd5b505033600090815260ad6020526040902054611ce59250905060016126f5565b33600090815260ad602052604090205550565b611d006126f1565b6065546001600160a01b03908116911614611d2d5760405162461bcd60e51b815260040161087190613f9b565b609e55565b60aa6020526000908152604090205481565b60ac546001600160a01b031681565b600181565b60a960209081526000928352604080842090915290825290208054600182015460028301546003840154600485015460058601546006909601546001600160a01b039095169593949293919290919087565b60a65481565b60001981565b60ae6020526000908152604090205481565b60a4546001600160a01b031681565b611ddf6126f1565b6065546001600160a01b03908116911614611e0c5760405162461bcd60e51b815260040161087190613f9b565b609f55565b606481565b611e1e6126f1565b6065546001600160a01b03908116911614611e4b5760405162461bcd60e51b815260040161087190613f9b565b6001600160a01b038116611e715760405162461bcd60e51b815260040161087190613d26565b6065546040516001600160a01b038084169216907f8be0079c531659141344cd1fd0a4f28419497f9722a3daafe3b4186f6b6457e090600090a3606580546001600160a01b0319166001600160a01b0392909216919091179055565b7f028f5c28f5c28f5c28f5c28f5c28f5c28f5c28f5c28f5c28f5c28f5c28f5c28f81565b60ad6020526000908152604090205481565b60a1546001600160a01b031681565b60a3546001600160a01b031681565b609d5481565b6098546040805160016209351760e01b0319815281516001600160a01b039093169263fff6cae9926004808401939192918290030181600087803b158015611f6e57600080fd5b505af1158015611f82573d6000803e3d6000fd5b505050506040513d601f19601f8201168201806040525081019061157d9190613a76565b60a45460a15460009182918291611fc9916001600160a01b03918216911661212c565b50905060008060a260009054906101000a90046001600160a01b03166001600160a01b0316630902f1ac6040518163ffffffff1660e01b815260040160606040518083038186803b15801561201d57600080fd5b505afa158015612031573d6000803e3d6000fd5b505050506040513d601f19601f820116820180604052508101906120559190613add565b5060a1546001600160701b039283169450911691506001600160a01b03848116911614612083578181612086565b80825b90969095509350505050565b60008084116120b35760405162461bcd60e51b815260040161087190614128565b6000831180156120c35750600082115b6120df5760405162461bcd60e51b815260040161087190613e76565b60006120ed856103e5612539565b905060006120fb8285612539565b905060006121158361210f886103e8612539565b90612589565b905080828161212057fe5b04979650505050505050565b600080826001600160a01b0316846001600160a01b031614156121615760405162461bcd60e51b815260040161087190613e31565b826001600160a01b0316846001600160a01b031610612181578284612184565b83835b90925090506001600160a01b0382166121af5760405162461bcd60e51b815260040161087190614090565b9250929050565b60006121f883836040518060400160405280601a81526020017f536166654d6174683a206469766973696f6e206279207a65726f000000000000815250612da7565b90505b92915050565b60008061220c61245c565b91509150600061221d868484612092565b60a15460a05460405163a9059cbb60e01b81529293506001600160a01b039182169263a9059cbb926122559216908a90600401613c1f565b602060405180830381600087803b15801561226f57600080fd5b505af1158015612283573d6000803e3d6000fd5b505050506040513d601f19601f820116820180604052508101906122a79190613a5a565b6122c35760405162461bcd60e51b815260040161087190613d6c565b60a15460a35460009182916122e4916001600160a01b03908116911661212c565b60a05460a3549294509092506001600160a01b039081169163022c0d9f91808616911614612313576000612315565b845b60a3546001600160a01b03858116911614612331576000612333565b855b306040518463ffffffff1660e01b8152600401612352939291906141e8565b600060405180830381600087803b15801561236c57600080fd5b505af1158015612380573d6000803e3d6000fd5b5050505060006123a06064611701609d548761253990919063ffffffff16565b60a354609c5460405163a9059cbb60e01b81529293506001600160a01b039182169263a9059cbb926123d89216908590600401613c1f565b602060405180830381600087803b1580156123f257600080fd5b505af1158015612406573d6000803e3d6000fd5b505050506040513d601f19601f8201168201806040525081019061242a9190613a5a565b5061244061243885836126f5565b8a8a8a612dde565b61244988613256565b612451611f27565b505050505050505050565b60a15460a3546000918291829161247f916001600160a01b03918216911661212c565b50905060008060a060009054906101000a90046001600160a01b03166001600160a01b0316630902f1ac6040518163ffffffff1660e01b815260040160606040518083038186803b1580156124d357600080fd5b505afa1580156124e7573d6000803e3d6000fd5b505050506040513d601f19601f8201168201806040525081019061250b9190613add565b5060a3546001600160701b039283169450911691506001600160a01b03848116911614612083578181612086565b600082612548575060006121fb565b8282028284828161255557fe5b04146121f85760405162461bcd60e51b815260040161087190613f5a565b600081831061258257816121f8565b5090919050565b6000828201838110156121f85760405162461bcd60e51b815260040161087190613dfa565b60007f00000000000000000000000000000000000000000000000000000000000000006001600160a01b0316634000aea07f0000000000000000000000000000000000000000000000000000000000000000858786604051602001612614929190613bb8565b6040516020818303038152906040526040518463ffffffff1660e01b815260040161264193929190613c5b565b602060405180830381600087803b15801561265b57600080fd5b505af115801561266f573d6000803e3d6000fd5b505050506040513d601f19601f820116820180604052508101906126939190613a5a565b506000848152609760205260408120546126b29086908590309061386c565b6000868152609760205260409020549091506126cf906001612589565b6000868152609760205260409020556126e885826138a6565b95945050505050565b3390565b60006121f883836040518060400160405280601e81526020017f536166654d6174683a207375627472616374696f6e206f766572666c6f7700008152506138d9565b6001600160a01b038116600090815260ab602090815260408083205460aa90925290912054815b6127688383612589565b811015612d6a57612777613979565b506001600160a01b03808516600090815260a960209081526040808320858452825291829020825160e0810184528154909416845260018101549184018290526002810154928401929092526003820154606084015260048201546080840152600582015460a084015260069091015460c083015260a754811415612800575050505050611421565b600081815260a8602052604090819020549083015181116129005760ac5460005460405163795d79f560e01b81526001600160a01b039283169263c6c3bbe692169063795d79f59061285790600190600401613cbd565b60206040518083038186803b15801561286f57600080fd5b505afa158015612883573d6000803e3d6000fd5b505050506040513d601f19601f820116820180604052508101906128a791906139db565b85516040516001600160e01b031960e085901b1681526128cd9291908690600401613bda565b600060405180830381600087803b1580156128e757600080fd5b505af11580156128fb573d6000803e3d6000fd5b505050505b826060015181116129f05760ac5460005460405163795d79f560e01b81526001600160a01b039283169263c6c3bbe692169063795d79f59061294790600290600401613cbd565b60206040518083038186803b15801561295f57600080fd5b505afa158015612973573d6000803e3d6000fd5b505050506040513d601f19601f8201168201806040525081019061299791906139db565b85516040516001600160e01b031960e085901b1681526129bd9291908690600401613bda565b600060405180830381600087803b1580156129d757600080fd5b505af11580156129eb573d6000803e3d6000fd5b505050505b82608001518111612ae05760ac5460005460405163795d79f560e01b81526001600160a01b039283169263c6c3bbe692169063795d79f590612a3790600390600401613cbd565b60206040518083038186803b158015612a4f57600080fd5b505afa158015612a63573d6000803e3d6000fd5b505050506040513d601f19601f82011682018060405250810190612a8791906139db565b85516040516001600160e01b031960e085901b168152612aad9291908690600401613bda565b600060405180830381600087803b158015612ac757600080fd5b505af1158015612adb573d6000803e3d6000fd5b505050505b8260a001518111612bcf5760ac5460005460405163795d79f560e01b81526001600160a01b039283169263c6c3bbe692169063795d79f590612b26906004908101613cbd565b60206040518083038186803b158015612b3e57600080fd5b505afa158015612b52573d6000803e3d6000fd5b505050506040513d601f19601f82011682018060405250810190612b7691906139db565b85516040516001600160e01b031960e085901b168152612b9c9291908690600401613bda565b600060405180830381600087803b158015612bb657600080fd5b505af1158015612bca573d6000803e3d6000fd5b505050505b8260c001518111612cbf5760ac5460005460405163795d79f560e01b81526001600160a01b039283169263c6c3bbe692169063795d79f590612c1690600590600401613cbd565b60206040518083038186803b158015612c2e57600080fd5b505afa158015612c42573d6000803e3d6000fd5b505050506040513d601f19601f82011682018060405250810190612c6691906139db565b85516040516001600160e01b031960e085901b168152612c8c9291908690600401613bda565b600060405180830381600087803b158015612ca657600080fd5b505af1158015612cba573d6000803e3d6000fd5b505050505b612cca866001612589565b6001600160a01b038816600090815260ab602052604090208190559550612cf28560016126f5565b6001600160a01b038816600090815260aa6020908152604080832084905560a98252808320888452909152812080546001600160a01b0319168155600180820183905560028201839055600382018390556004820183905560058201839055600690910191909155909550909301925061275e915050565b50505050565b6000612d7b82613905565b60a78054600090815260a86020526040902082905554909150612d9f906001612589565b60a755505050565b60008183612dc85760405162461bcd60e51b81526004016108719190613cea565b506000838581612dd457fe5b0495945050505050565b600080612de961245c565b915091506000612dfa868484613911565b9050600087821115612e1b57612e11888486613911565b9050879150612e1e565b50855b60a15460a05460405163a9059cbb60e01b81526001600160a01b039283169263a9059cbb92612e54929116908590600401613c1f565b602060405180830381600087803b158015612e6e57600080fd5b505af1158015612e82573d6000803e3d6000fd5b505050506040513d601f19601f82011682018060405250810190612ea69190613a5a565b612eac57fe5b60a35460a05460405163a9059cbb60e01b81526001600160a01b039283169263a9059cbb92612ee2929116908690600401613c1f565b602060405180830381600087803b158015612efc57600080fd5b505af1158015612f10573d6000803e3d6000fd5b505050506040513d601f19601f82011682018060405250810190612f349190613a5a565b612f3a57fe5b84156130aa5760a0546040516335313c2160e11b81526001600160a01b0390911690636a62784290612f70903090600401613bc6565b602060405180830381600087803b158015612f8a57600080fd5b505af1158015612f9e573d6000803e3d6000fd5b505050506040513d601f19601f82011682018060405250810190612fc29190613b31565b5060995460a0546040516370a0823160e01b81526001600160a01b0392831692634cf5fbf5928a92600092909116906370a0823190613005903090600401613bc6565b60206040518083038186803b15801561301d57600080fd5b505afa158015613031573d6000803e3d6000fd5b505050506040513d601f19601f820116820180604052508101906130559190613b31565b6040518463ffffffff1660e01b815260040161307393929190613bfe565b600060405180830381600087803b15801561308d57600080fd5b505af11580156130a1573d6000803e3d6000fd5b5050505061312e565b60a0546040516335313c2160e11b81526001600160a01b0390911690636a627842906130da908990600401613bc6565b602060405180830381600087803b1580156130f457600080fd5b505af1158015613108573d6000803e3d6000fd5b505050506040513d601f19601f8201168201806040525081019061312c9190613b31565b505b818811156131c35760a3546001600160a01b031663a9059cbb876131528b866126f5565b6040518363ffffffff1660e01b815260040161316f929190613c1f565b602060405180830381600087803b15801561318957600080fd5b505af115801561319d573d6000803e3d6000fd5b505050506040513d601f19601f820116820180604052508101906131c19190613a5a565b505b80871115610aed5760a1546001600160a01b031663a9059cbb876131e78a856126f5565b6040518363ffffffff1660e01b8152600401613204929190613c1f565b602060405180830381600087803b15801561321e57600080fd5b505af1158015613232573d6000803e3d6000fd5b505050506040513d601f19601f820116820180604052508101906124519190613a5a565b600080546040516333103d9960e21b81526001600160a01b039091169063cc40f66490613287908590600401613bc6565b60206040518083038186803b15801561329f57600080fd5b505afa1580156132b3573d6000803e3d6000fd5b505050506040513d601f19601f820116820180604052508101906132d79190613b31565b905060006132e48361193f565b6001600160a01b038416600090815260ab6020526040902054909150825b8281101561373057613312613979565b81613361576040518060e00160405280876001600160a01b0316815260200160a7548152602001603281526020016000815260200160008152602001600081526020016000815250905061364d565b81600114156133b4576040518060e00160405280876001600160a01b0316815260200160a7548152602001604b81526020016032815260200160008152602001600081526020016000815250905061364d565b8160021415613407576040518060e00160405280876001600160a01b0316815260200160a754815260200160648152602001604b815260200160328152602001600081526020016000815250905061364d565b816003141561345a576040518060e00160405280876001600160a01b0316815260200160a75481526020016064815260200160648152602001604b8152602001603281526020016000815250905061364d565b81600414156134ad576040518060e00160405280876001600160a01b0316815260200160a7548152602001606481526020016064815260200160648152602001604b81526020016032815250905061364d565b8160051415613500576040518060e00160405280876001600160a01b0316815260200160a7548152602001606481526020016064815260200160648152602001606481526020016032815250905061364d565b816006141561364d576001600160a01b038616600090815260aa60205260408120549061352d8583612589565b6040805160e0810182526001600160a01b038b811680835260a75460208085019182526064858701818152606087018281526080880183815260a0890184815260c08a01948552600097885260a986528a88208c895290955298909520965187546001600160a01b0319169616959095178655915160018087019190915593516002860155915160038501559351600484015551600583015591516006909101559091506135dc908390612589565b60aa60008a6001600160a01b03166001600160a01b03168152602001908152602001600020819055506040518060e00160405280896001600160a01b0316815260200160a7548152602001606481526020016064815260200160648152602001606481526020016000815250925050505b80516001600160a01b031615613727576001600160a01b038616600090815260aa6020526040812054906136818583612589565b6001600160a01b03898116600090815260a960209081526040808320858452825291829020875181546001600160a01b0319169416939093178355860151600180840191909155908601516002830155606086015160038301556080860151600483015560a0860151600583015560c086015160069092019190915590915061370b908390612589565b6001600160a01b038916600090815260aa602052604090205550505b50600101613302565b50600382101580156137c9575060a5546040516370a0823160e01b81526801158e460913d00000916001600160a01b0316906370a0823190613776908890600401613bc6565b60206040518083038186803b15801561378e57600080fd5b505afa1580156137a2573d6000803e3d6000fd5b505050506040513d601f19601f820116820180604052508101906137c69190613b31565b10155b1561380c576001600160a01b038416600090815260ae60205260409020546137f2906001612589565b6001600160a01b038516600090815260ae60205260409020555b600054604051631695fb2f60e31b81526001600160a01b039091169063b4afd9789061383e9087908690600401613c1f565b600060405180830381600087803b15801561385857600080fd5b505af1158015610aed573d6000803e3d6000fd5b6000848484846040516020016138859493929190613cc6565b60408051601f19818403018152919052805160209091012095945050505050565b600082826040516020016138bb929190613bb8565b60405160208183030381529060405280519060200120905092915050565b600081848411156138fd5760405162461bcd60e51b81526004016108719190613cea565b505050900390565b60649081028190040690565b60008084116139325760405162461bcd60e51b815260040161087190614007565b6000831180156139425750600082115b61395e5760405162461bcd60e51b815260040161087190613e76565b826139698584612539565b8161397057fe5b04949350505050565b6040518060e0016040528060006001600160a01b031681526020016000815260200160008152602001600081526020016000815260200160008152602001600081525090565b6000602082840312156139d0578081fd5b81356121f881614216565b6000602082840312156139ec578081fd5b81516121f881614216565b60008060408385031215613a09578081fd5b8235613a1481614216565b91506020830135613a248161422b565b809150509250929050565b60008060408385031215613a41578182fd5b8235613a4c81614216565b946020939093013593505050565b600060208284031215613a6b578081fd5b81516121f88161422b565b60008060408385031215613a88578182fd5b8251613a938161422b565b6020840151909250613a248161422b565b600060208284031215613ab5578081fd5b5035919050565b60008060408385031215613ace578182fd5b50508035926020909101359150565b600080600060608486031215613af1578081fd5b8351613afc81614239565b6020850151909350613b0d81614239565b604085015190925063ffffffff81168114613b26578182fd5b809150509250925092565b600060208284031215613b42578081fd5b5051919050565b60008060408385031215613b5b578081fd5b823591506020830135613a248161422b565b60008151808452815b81811015613b9257602081850181015186830182015201613b76565b81811115613ba35782602083870101525b50601f01601f19169290920160200192915050565b918252602082015260400190565b6001600160a01b0391909116815260200190565b6001600160a01b039384168152919092166020820152604081019190915260600190565b6001600160a01b039390931683526020830191909152604082015260600190565b6001600160a01b03929092168252602082015260400190565b6001600160a01b0393909316835260208301919091521515604082015260600190565b600060018060a01b0385168252836020830152606060408301526126e86060830184613b6d565b6001600160a01b03979097168752602087019590955260408601939093526060850191909152608084015260a083015260c082015260e00190565b90815260200190565b93845260208401929092526001600160a01b03166040830152606082015260800190565b6000602082526121f86020830184613b6d565b6020808252600f908201526e496e76616c6964206164647265737360881b604082015260600190565b60208082526026908201527f4f776e61626c653a206e6577206f776e657220697320746865207a65726f206160408201526564647265737360d01b606082015260800190565b6020808252600f908201526e151c985b9cd9995c8819985a5b1959608a1b604082015260600190565b60208082526019908201527f496e73756666696369656e7420746f6b656e20616d6f756e7400000000000000604082015260600190565b6020808252601490820152734c6f636b656420746f20676f7665726e616e636560601b604082015260600190565b6020808252601b908201527f536166654d6174683a206164646974696f6e206f766572666c6f770000000000604082015260600190565b60208082526025908201527f556e697377617056324c6962726172793a204944454e544943414c5f41444452604082015264455353455360d81b606082015260800190565b60208082526028908201527f556e697377617056324c6962726172793a20494e53554646494349454e545f4c604082015267495155494449545960c01b606082015260800190565b6020808252601c908201527f4e6f20524f424f547320666f72207573657220617661696c61626c6500000000604082015260600190565b602080825260149082015273105c1c1c9bdd99481d1bdad95b9cc8199a5c9cdd60621b604082015260600190565b6020808252601b908201527f4e6f7420656e6f756768204c494e4b206f6e20636f6e74726163740000000000604082015260600190565b60208082526021908201527f536166654d6174683a206d756c7469706c69636174696f6e206f766572666c6f6040820152607760f81b606082015260800190565b6020808252818101527f4f776e61626c653a2063616c6c6572206973206e6f7420746865206f776e6572604082015260600190565b6020808252601f908201527f4f6e6c7920565246436f6f7264696e61746f722063616e2066756c66696c6c00604082015260600190565b60208082526025908201527f556e697377617056324c6962726172793a20494e53554646494349454e545f416040820152641353d5539560da1b606082015260800190565b60208082526024908201527f4e6f7420656e6f756768204c494e4b20617070726f76656420746f20636f6e746040820152631c9858dd60e21b606082015260800190565b6020808252601e908201527f556e697377617056324c6962726172793a205a45524f5f414444524553530000604082015260600190565b60208082526010908201526f139bc81b1a5b9ac81c1c9bdd9a59195960821b604082015260600190565b60208082526017908201527f496e73756666696369656e742045544820616d6f756e74000000000000000000604082015260600190565b6020808252602b908201527f556e697377617056324c6962726172793a20494e53554646494349454e545f4960408201526a1394155517d05353d5539560aa1b606082015260800190565b60208082526028908201527f476f7665726e616e636520636f6e74726163742068617320616c7265616479206040820152671899595b881cd95d60c21b606082015260800190565b6020808252601390820152724e6f207469636b65747320746f20636c61696d60681b604082015260600190565b92835260208301919091526001600160a01b0316604082015260806060820181905260009082015260a00190565b6001600160a01b038116811461142157600080fd5b801515811461142157600080fd5b6001600160701b038116811461142157600080fdfea2646970667358221220396987dc07e72d9529eddd4bd8a12eab5af2bd7029936bb9d79231e6932a207364736f6c634300060c0033",
  "devdoc": {
    "kind": "dev",
    "methods": {
      "owner()": {
        "details": "Returns the address of the current owner."
      },
      "renounceOwnership()": {
        "details": "Leaves the contract without owner. It will not be possible to call `onlyOwner` functions anymore. Can only be called by the current owner. NOTE: Renouncing ownership will leave the contract without an owner, thereby removing any functionality that is only available to the owner."
      },
      "transferOwnership(address)": {
        "details": "Transfers ownership of the contract to a new account (`newOwner`). Can only be called by the current owner."
      }
    },
    "version": 1
  },
  "userdoc": {
    "kind": "user",
    "methods": {
      "getRandomNumber(uint256)": {
        "notice": "Requests randomness from a user-provided seed"
      },
      "selfRequestRandomNumber(uint256)": {
        "notice": "Requests randomness from a user-provided seed"
      }
    },
    "version": 1
  },
  "storageLayout": {
    "storage": [
      {
        "astId": 14097,
        "contract": "contracts/RAMV1router.sol:RAMv1Router",
        "label": "_storage",
        "offset": 0,
        "slot": "0",
        "type": "t_contract(YGYStorageV1)15906"
      },
      {
        "astId": 195,
        "contract": "contracts/RAMV1router.sol:RAMv1Router",
        "label": "initialized",
        "offset": 20,
        "slot": "0",
        "type": "t_bool"
      },
      {
        "astId": 198,
        "contract": "contracts/RAMV1router.sol:RAMv1Router",
        "label": "initializing",
        "offset": 21,
        "slot": "0",
        "type": "t_bool"
      },
      {
        "astId": 263,
        "contract": "contracts/RAMV1router.sol:RAMv1Router",
        "label": "______gap",
        "offset": 0,
        "slot": "1",
        "type": "t_array(t_uint256)50_storage"
      },
      {
        "astId": 188,
        "contract": "contracts/RAMV1router.sol:RAMv1Router",
        "label": "__gap",
        "offset": 0,
        "slot": "51",
        "type": "t_array(t_uint256)50_storage"
      },
      {
        "astId": 565,
        "contract": "contracts/RAMV1router.sol:RAMv1Router",
        "label": "_owner",
        "offset": 0,
        "slot": "101",
        "type": "t_address"
      },
      {
        "astId": 683,
        "contract": "contracts/RAMV1router.sol:RAMv1Router",
        "label": "__gap",
        "offset": 0,
        "slot": "102",
        "type": "t_array(t_uint256)49_storage"
      },
      {
        "astId": 14180,
        "contract": "contracts/RAMV1router.sol:RAMv1Router",
        "label": "nonces",
        "offset": 0,
        "slot": "151",
        "type": "t_mapping(t_bytes32,t_uint256)"
      },
      {
        "astId": 10182,
        "contract": "contracts/RAMV1router.sol:RAMv1Router",
        "label": "_feeApprover",
        "offset": 0,
        "slot": "152",
        "type": "t_contract(IFeeApprover)16094"
      },
      {
        "astId": 10184,
        "contract": "contracts/RAMV1router.sol:RAMv1Router",
        "label": "_RAMVault",
        "offset": 0,
        "slot": "153",
        "type": "t_contract(IRAMVault)16323"
      },
      {
        "astId": 10186,
        "contract": "contracts/RAMV1router.sol:RAMv1Router",
        "label": "_uniV2Factory",
        "offset": 0,
        "slot": "154",
        "type": "t_address"
      },
      {
        "astId": 10188,
        "contract": "contracts/RAMV1router.sol:RAMv1Router",
        "label": "governanceSet",
        "offset": 20,
        "slot": "154",
        "type": "t_bool"
      },
      {
        "astId": 10190,
        "contract": "contracts/RAMV1router.sol:RAMv1Router",
        "label": "governance",
        "offset": 0,
        "slot": "155",
        "type": "t_address"
      },
      {
        "astId": 10192,
        "contract": "contracts/RAMV1router.sol:RAMv1Router",
        "label": "regenerator",
        "offset": 0,
        "slot": "156",
        "type": "t_address_payable"
      },
      {
        "astId": 10194,
        "contract": "contracts/RAMV1router.sol:RAMv1Router",
        "label": "regeneratorTax",
        "offset": 0,
        "slot": "157",
        "type": "t_uint256"
      },
      {
        "astId": 10214,
        "contract": "contracts/RAMV1router.sol:RAMv1Router",
        "label": "rngLinkFee",
        "offset": 0,
        "slot": "158",
        "type": "t_uint256"
      },
      {
        "astId": 10216,
        "contract": "contracts/RAMV1router.sol:RAMv1Router",
        "label": "keyHash",
        "offset": 0,
        "slot": "159",
        "type": "t_bytes32"
      },
      {
        "astId": 10218,
        "contract": "contracts/RAMV1router.sol:RAMv1Router",
        "label": "_YGYRAMPair",
        "offset": 0,
        "slot": "160",
        "type": "t_address"
      },
      {
        "astId": 10220,
        "contract": "contracts/RAMV1router.sol:RAMv1Router",
        "label": "_YGYToken",
        "offset": 0,
        "slot": "161",
        "type": "t_address"
      },
      {
        "astId": 10222,
        "contract": "contracts/RAMV1router.sol:RAMv1Router",
        "label": "_YGYWETHPair",
        "offset": 0,
        "slot": "162",
        "type": "t_address"
      },
      {
        "astId": 10224,
        "contract": "contracts/RAMV1router.sol:RAMv1Router",
        "label": "_RAMToken",
        "offset": 0,
        "slot": "163",
        "type": "t_address"
      },
      {
        "astId": 10226,
        "contract": "contracts/RAMV1router.sol:RAMv1Router",
        "label": "_WETH",
        "offset": 0,
        "slot": "164",
        "type": "t_contract(IWETH)23597"
      },
      {
        "astId": 10228,
        "contract": "contracts/RAMV1router.sol:RAMv1Router",
        "label": "_dXIOTToken",
        "offset": 0,
        "slot": "165",
        "type": "t_contract(IERC20)1045"
      },
      {
        "astId": 10245,
        "contract": "contracts/RAMV1router.sol:RAMv1Router",
        "label": "ticketCount",
        "offset": 0,
        "slot": "166",
        "type": "t_uint256"
      },
      {
        "astId": 10247,
        "contract": "contracts/RAMV1router.sol:RAMv1Router",
        "label": "lotteryRoundCounter",
        "offset": 0,
        "slot": "167",
        "type": "t_uint256"
      },
      {
        "astId": 10251,
        "contract": "contracts/RAMV1router.sol:RAMv1Router",
        "label": "lotteryResults",
        "offset": 0,
        "slot": "168",
        "type": "t_mapping(t_uint256,t_uint256)"
      },
      {
        "astId": 10257,
        "contract": "contracts/RAMV1router.sol:RAMv1Router",
        "label": "userTickets",
        "offset": 0,
        "slot": "169",
        "type": "t_mapping(t_address,t_mapping(t_uint256,t_struct(LotteryTicket)10243_storage))"
      },
      {
        "astId": 10261,
        "contract": "contracts/RAMV1router.sol:RAMv1Router",
        "label": "userTicketCount",
        "offset": 0,
        "slot": "170",
        "type": "t_mapping(t_address,t_uint256)"
      },
      {
        "astId": 10265,
        "contract": "contracts/RAMV1router.sol:RAMv1Router",
        "label": "userTopTicketStack",
        "offset": 0,
        "slot": "171",
        "type": "t_mapping(t_address,t_uint256)"
      },
      {
        "astId": 10267,
        "contract": "contracts/RAMV1router.sol:RAMv1Router",
        "label": "_NFTFactory",
        "offset": 0,
        "slot": "172",
        "type": "t_contract(INFTFactory)16295"
      },
      {
        "astId": 11189,
        "contract": "contracts/RAMV1router.sol:RAMv1Router",
        "label": "linkNFTsToBeClaimed",
        "offset": 0,
        "slot": "173",
        "type": "t_mapping(t_address,t_uint256)"
      },
      {
        "astId": 11193,
        "contract": "contracts/RAMV1router.sol:RAMv1Router",
        "label": "robotNFTsToBeClaimed",
        "offset": 0,
        "slot": "174",
        "type": "t_mapping(t_address,t_uint256)"
      }
    ],
    "types": {
      "t_address": {
        "encoding": "inplace",
        "label": "address",
        "numberOfBytes": "20"
      },
      "t_address_payable": {
        "encoding": "inplace",
        "label": "address payable",
        "numberOfBytes": "20"
      },
      "t_array(t_uint256)49_storage": {
        "base": "t_uint256",
        "encoding": "inplace",
        "label": "uint256[49]",
        "numberOfBytes": "1568"
      },
      "t_array(t_uint256)50_storage": {
        "base": "t_uint256",
        "encoding": "inplace",
        "label": "uint256[50]",
        "numberOfBytes": "1600"
      },
      "t_bool": {
        "encoding": "inplace",
        "label": "bool",
        "numberOfBytes": "1"
      },
      "t_bytes32": {
        "encoding": "inplace",
        "label": "bytes32",
        "numberOfBytes": "32"
      },
      "t_contract(IERC20)1045": {
        "encoding": "inplace",
        "label": "contract IERC20",
        "numberOfBytes": "20"
      },
      "t_contract(IFeeApprover)16094": {
        "encoding": "inplace",
        "label": "contract IFeeApprover",
        "numberOfBytes": "20"
      },
      "t_contract(INFTFactory)16295": {
        "encoding": "inplace",
        "label": "contract INFTFactory",
        "numberOfBytes": "20"
      },
      "t_contract(IRAMVault)16323": {
        "encoding": "inplace",
        "label": "contract IRAMVault",
        "numberOfBytes": "20"
      },
      "t_contract(IWETH)23597": {
        "encoding": "inplace",
        "label": "contract IWETH",
        "numberOfBytes": "20"
      },
      "t_contract(YGYStorageV1)15906": {
        "encoding": "inplace",
        "label": "contract YGYStorageV1",
        "numberOfBytes": "20"
      },
      "t_mapping(t_address,t_mapping(t_uint256,t_struct(LotteryTicket)10243_storage))": {
        "encoding": "mapping",
        "key": "t_address",
        "label": "mapping(address => mapping(uint256 => struct RAMv1Router.LotteryTicket))",
        "numberOfBytes": "32",
        "value": "t_mapping(t_uint256,t_struct(LotteryTicket)10243_storage)"
      },
      "t_mapping(t_address,t_uint256)": {
        "encoding": "mapping",
        "key": "t_address",
        "label": "mapping(address => uint256)",
        "numberOfBytes": "32",
        "value": "t_uint256"
      },
      "t_mapping(t_bytes32,t_uint256)": {
        "encoding": "mapping",
        "key": "t_bytes32",
        "label": "mapping(bytes32 => uint256)",
        "numberOfBytes": "32",
        "value": "t_uint256"
      },
      "t_mapping(t_uint256,t_struct(LotteryTicket)10243_storage)": {
        "encoding": "mapping",
        "key": "t_uint256",
        "label": "mapping(uint256 => struct RAMv1Router.LotteryTicket)",
        "numberOfBytes": "32",
        "value": "t_struct(LotteryTicket)10243_storage"
      },
      "t_mapping(t_uint256,t_uint256)": {
        "encoding": "mapping",
        "key": "t_uint256",
        "label": "mapping(uint256 => uint256)",
        "numberOfBytes": "32",
        "value": "t_uint256"
      },
      "t_struct(LotteryTicket)10243_storage": {
        "encoding": "inplace",
        "label": "struct RAMv1Router.LotteryTicket",
        "members": [
          {
            "astId": 10230,
            "contract": "contracts/RAMV1router.sol:RAMv1Router",
            "label": "owner",
            "offset": 0,
            "slot": "0",
            "type": "t_address"
          },
          {
            "astId": 10232,
            "contract": "contracts/RAMV1router.sol:RAMv1Router",
            "label": "roundNumber",
            "offset": 0,
            "slot": "1",
            "type": "t_uint256"
          },
          {
            "astId": 10234,
            "contract": "contracts/RAMV1router.sol:RAMv1Router",
            "label": "levelOneChance",
            "offset": 0,
            "slot": "2",
            "type": "t_uint256"
          },
          {
            "astId": 10236,
            "contract": "contracts/RAMV1router.sol:RAMv1Router",
            "label": "levelTwoChance",
            "offset": 0,
            "slot": "3",
            "type": "t_uint256"
          },
          {
            "astId": 10238,
            "contract": "contracts/RAMV1router.sol:RAMv1Router",
            "label": "levelThreeChance",
            "offset": 0,
            "slot": "4",
            "type": "t_uint256"
          },
          {
            "astId": 10240,
            "contract": "contracts/RAMV1router.sol:RAMv1Router",
            "label": "levelFourChance",
            "offset": 0,
            "slot": "5",
            "type": "t_uint256"
          },
          {
            "astId": 10242,
            "contract": "contracts/RAMV1router.sol:RAMv1Router",
            "label": "levelFiveChance",
            "offset": 0,
            "slot": "6",
            "type": "t_uint256"
          }
        ],
        "numberOfBytes": "224"
      },
      "t_uint256": {
        "encoding": "inplace",
        "label": "uint256",
        "numberOfBytes": "32"
      }
    }
  }
}