{
  "address": "0x1613beB3B2C4f22Ee086B2b38C1476A3cE7f78E8",
  "abi": [
    {
      "inputs": [
        {
          "internalType": "address",
          "name": "uniV2Factory",
          "type": "address"
        },
        {
          "internalType": "address",
          "name": "feeApprover",
          "type": "address"
        },
        {
          "internalType": "address",
          "name": "RAMVault",
          "type": "address"
        },
        {
          "internalType": "address",
          "name": "nftFactory",
          "type": "address"
        },
        {
          "internalType": "address payable",
          "name": "_regenerator",
          "type": "address"
        },
        {
          "internalType": "address",
          "name": "__storage",
          "type": "address"
        },
        {
          "internalType": "address",
          "name": "linkAddr",
          "type": "address"
        },
        {
          "internalType": "address",
          "name": "vrfAddr",
          "type": "address"
        }
      ],
      "stateMutability": "nonpayable",
      "type": "constructor"
    },
    {
      "anonymous": false,
      "inputs": [
        {
          "indexed": true,
          "internalType": "address",
          "name": "newAddress",
          "type": "address"
        },
        {
          "indexed": true,
          "internalType": "address",
          "name": "oldAddress",
          "type": "address"
        }
      ],
      "name": "FeeApproverChanged",
      "type": "event"
    },
    {
      "anonymous": false,
      "inputs": [
        {
          "indexed": true,
          "internalType": "address",
          "name": "previousOwner",
          "type": "address"
        },
        {
          "indexed": true,
          "internalType": "address",
          "name": "newOwner",
          "type": "address"
        }
      ],
      "name": "OwnershipTransferred",
      "type": "event"
    },
    {
      "stateMutability": "payable",
      "type": "fallback"
    },
    {
      "inputs": [],
      "name": "MAX",
      "outputs": [
        {
          "internalType": "uint256",
          "name": "",
          "type": "uint256"
        }
      ],
      "stateMutability": "view",
      "type": "function"
    },
    {
      "inputs": [],
      "name": "OFFSET",
      "outputs": [
        {
          "internalType": "uint256",
          "name": "",
          "type": "uint256"
        }
      ],
      "stateMutability": "view",
      "type": "function"
    },
    {
      "inputs": [],
      "name": "SCALE",
      "outputs": [
        {
          "internalType": "uint256",
          "name": "",
          "type": "uint256"
        }
      ],
      "stateMutability": "view",
      "type": "function"
    },
    {
      "inputs": [],
      "name": "SCALIFIER",
      "outputs": [
        {
          "internalType": "uint256",
          "name": "",
          "type": "uint256"
        }
      ],
      "stateMutability": "view",
      "type": "function"
    },
    {
      "inputs": [],
      "name": "_NFTFactory",
      "outputs": [
        {
          "internalType": "contract INFTFactory",
          "name": "",
          "type": "address"
        }
      ],
      "stateMutability": "view",
      "type": "function"
    },
    {
      "inputs": [],
      "name": "_RAMToken",
      "outputs": [
        {
          "internalType": "address",
          "name": "",
          "type": "address"
        }
      ],
      "stateMutability": "view",
      "type": "function"
    },
    {
      "inputs": [],
      "name": "_RAMVault",
      "outputs": [
        {
          "internalType": "contract IRAMVault",
          "name": "",
          "type": "address"
        }
      ],
      "stateMutability": "view",
      "type": "function"
    },
    {
      "inputs": [],
      "name": "_WETH",
      "outputs": [
        {
          "internalType": "contract IWETH",
          "name": "",
          "type": "address"
        }
      ],
      "stateMutability": "view",
      "type": "function"
    },
    {
      "inputs": [],
      "name": "_YGYRAMPair",
      "outputs": [
        {
          "internalType": "address",
          "name": "",
          "type": "address"
        }
      ],
      "stateMutability": "view",
      "type": "function"
    },
    {
      "inputs": [],
      "name": "_YGYToken",
      "outputs": [
        {
          "internalType": "address",
          "name": "",
          "type": "address"
        }
      ],
      "stateMutability": "view",
      "type": "function"
    },
    {
      "inputs": [],
      "name": "_YGYWETHPair",
      "outputs": [
        {
          "internalType": "address",
          "name": "",
          "type": "address"
        }
      ],
      "stateMutability": "view",
      "type": "function"
    },
    {
      "inputs": [],
      "name": "_dXIOTToken",
      "outputs": [
        {
          "internalType": "contract IERC20",
          "name": "",
          "type": "address"
        }
      ],
      "stateMutability": "view",
      "type": "function"
    },
    {
      "inputs": [],
      "name": "_feeApprover",
      "outputs": [
        {
          "internalType": "contract IFeeApprover",
          "name": "",
          "type": "address"
        }
      ],
      "stateMutability": "view",
      "type": "function"
    },
    {
      "inputs": [],
      "name": "_uniV2Factory",
      "outputs": [
        {
          "internalType": "address",
          "name": "",
          "type": "address"
        }
      ],
      "stateMutability": "view",
      "type": "function"
    },
    {
      "inputs": [
        {
          "internalType": "address payable",
          "name": "to",
          "type": "address"
        },
        {
          "internalType": "bool",
          "name": "autoStake",
          "type": "bool"
        }
      ],
      "name": "addLiquidityETHOnly",
      "outputs": [],
      "stateMutability": "payable",
      "type": "function"
    },
    {
      "inputs": [
        {
          "internalType": "uint256",
          "name": "amount",
          "type": "uint256"
        },
        {
          "internalType": "bool",
          "name": "autoStake",
          "type": "bool"
        }
      ],
      "name": "addLiquidityYGYOnly",
      "outputs": [],
      "stateMutability": "payable",
      "type": "function"
    },
    {
      "inputs": [
        {
          "internalType": "address",
          "name": "feeApprover",
          "type": "address"
        }
      ],
      "name": "changeFeeApprover",
      "outputs": [],
      "stateMutability": "nonpayable",
      "type": "function"
    },
    {
      "inputs": [
        {
          "internalType": "uint256",
          "name": "ygyAmt",
          "type": "uint256"
        }
      ],
      "name": "getLPTokenPerYGYUnit",
      "outputs": [
        {
          "internalType": "uint256",
          "name": "liquidity",
          "type": "uint256"
        }
      ],
      "stateMutability": "view",
      "type": "function"
    },
    {
      "inputs": [
        {
          "internalType": "uint256",
          "name": "userProvidedSeed",
          "type": "uint256"
        }
      ],
      "name": "getRandomNumber",
      "outputs": [
        {
          "internalType": "bytes32",
          "name": "requestId",
          "type": "bytes32"
        }
      ],
      "stateMutability": "nonpayable",
      "type": "function"
    },
    {
      "inputs": [
        {
          "internalType": "address",
          "name": "user",
          "type": "address"
        }
      ],
      "name": "getUserLotteryLevel",
      "outputs": [
        {
          "internalType": "uint256",
          "name": "",
          "type": "uint256"
        }
      ],
      "stateMutability": "view",
      "type": "function"
    },
    {
      "inputs": [],
      "name": "governance",
      "outputs": [
        {
          "internalType": "address",
          "name": "",
          "type": "address"
        }
      ],
      "stateMutability": "view",
      "type": "function"
    },
    {
      "inputs": [],
      "name": "lotteryTriggerer",
      "outputs": [
        {
          "internalType": "address",
          "name": "",
          "type": "address"
        }
      ],
      "stateMutability": "view",
      "type": "function"
    },
    {
      "inputs": [
        {
          "internalType": "bytes32",
          "name": "",
          "type": "bytes32"
        }
      ],
      "name": "nonces",
      "outputs": [
        {
          "internalType": "uint256",
          "name": "",
          "type": "uint256"
        }
      ],
      "stateMutability": "view",
      "type": "function"
    },
    {
      "inputs": [],
      "name": "owner",
      "outputs": [
        {
          "internalType": "address",
          "name": "",
          "type": "address"
        }
      ],
      "stateMutability": "view",
      "type": "function"
    },
    {
      "inputs": [],
      "name": "randomResult",
      "outputs": [
        {
          "internalType": "uint256",
          "name": "",
          "type": "uint256"
        }
      ],
      "stateMutability": "view",
      "type": "function"
    },
    {
      "inputs": [
        {
          "internalType": "bytes32",
          "name": "requestId",
          "type": "bytes32"
        },
        {
          "internalType": "uint256",
          "name": "randomness",
          "type": "uint256"
        }
      ],
      "name": "rawFulfillRandomness",
      "outputs": [],
      "stateMutability": "nonpayable",
      "type": "function"
    },
    {
      "inputs": [],
      "name": "refreshApproval",
      "outputs": [],
      "stateMutability": "nonpayable",
      "type": "function"
    },
    {
      "inputs": [],
      "name": "regenerator",
      "outputs": [
        {
          "internalType": "address payable",
          "name": "",
          "type": "address"
        }
      ],
      "stateMutability": "view",
      "type": "function"
    },
    {
      "inputs": [],
      "name": "regeneratorTax",
      "outputs": [
        {
          "internalType": "uint256",
          "name": "",
          "type": "uint256"
        }
      ],
      "stateMutability": "view",
      "type": "function"
    },
    {
      "inputs": [],
      "name": "renounceOwnership",
      "outputs": [],
      "stateMutability": "nonpayable",
      "type": "function"
    },
    {
      "inputs": [],
      "name": "rngLinkFee",
      "outputs": [
        {
          "internalType": "uint256",
          "name": "",
          "type": "uint256"
        }
      ],
      "stateMutability": "view",
      "type": "function"
    },
    {
      "inputs": [
        {
          "internalType": "uint256",
          "name": "userProvidedSeed",
          "type": "uint256"
        }
      ],
      "name": "selfRequestRandomNumber",
      "outputs": [
        {
          "internalType": "bytes32",
          "name": "requestId",
          "type": "bytes32"
        }
      ],
      "stateMutability": "nonpayable",
      "type": "function"
    },
    {
      "inputs": [
        {
          "internalType": "address",
          "name": "feeApproverAddress",
          "type": "address"
        }
      ],
      "name": "setFeeApprover",
      "outputs": [],
      "stateMutability": "nonpayable",
      "type": "function"
    },
    {
      "inputs": [
        {
          "internalType": "address",
          "name": "_governance",
          "type": "address"
        }
      ],
      "name": "setGovernance",
      "outputs": [],
      "stateMutability": "nonpayable",
      "type": "function"
    },
    {
      "inputs": [
        {
          "internalType": "uint256",
          "name": "_regeneratorTax",
          "type": "uint256"
        }
      ],
      "name": "setRegeneratorTax",
      "outputs": [],
      "stateMutability": "nonpayable",
      "type": "function"
    },
    {
      "inputs": [],
      "name": "setTokens",
      "outputs": [],
      "stateMutability": "nonpayable",
      "type": "function"
    },
    {
      "inputs": [],
      "name": "sync",
      "outputs": [],
      "stateMutability": "nonpayable",
      "type": "function"
    },
    {
      "inputs": [],
      "name": "ticketCount",
      "outputs": [
        {
          "internalType": "uint256",
          "name": "",
          "type": "uint256"
        }
      ],
      "stateMutability": "view",
      "type": "function"
    },
    {
      "inputs": [
        {
          "internalType": "uint256",
          "name": "",
          "type": "uint256"
        }
      ],
      "name": "tickets",
      "outputs": [
        {
          "internalType": "address",
          "name": "owner",
          "type": "address"
        },
        {
          "internalType": "uint256",
          "name": "levelOneChance",
          "type": "uint256"
        },
        {
          "internalType": "uint256",
          "name": "levelTwoChance",
          "type": "uint256"
        },
        {
          "internalType": "uint256",
          "name": "levelThreeChance",
          "type": "uint256"
        },
        {
          "internalType": "uint256",
          "name": "levelFourChance",
          "type": "uint256"
        },
        {
          "internalType": "uint256",
          "name": "levelFiveChance",
          "type": "uint256"
        }
      ],
      "stateMutability": "view",
      "type": "function"
    },
    {
      "inputs": [
        {
          "internalType": "address",
          "name": "newOwner",
          "type": "address"
        }
      ],
      "name": "transferOwnership",
      "outputs": [],
      "stateMutability": "nonpayable",
      "type": "function"
    },
    {
      "inputs": [],
      "name": "triggerLottery",
      "outputs": [],
      "stateMutability": "nonpayable",
      "type": "function"
    },
    {
      "inputs": [
        {
          "internalType": "bytes32",
          "name": "_keyHash",
          "type": "bytes32"
        }
      ],
      "name": "updateKeyHash",
      "outputs": [],
      "stateMutability": "nonpayable",
      "type": "function"
    },
    {
      "inputs": [
        {
          "internalType": "uint256",
          "name": "_rngLinkFee",
          "type": "uint256"
        }
      ],
      "name": "updateRngLinkFee",
      "outputs": [],
      "stateMutability": "nonpayable",
      "type": "function"
    }
  ],
  "transactionHash": "0x6aef7e4a7910efded4b96570c4abc9bebc353e3d8fdcea71f975d7e9ae50b406",
  "args": [
    "0x5FbDB2315678afecb367f032d93F642f64180aa3",
    "0xc3e53F4d16Ae77Db1c982e75a937B9f60FE63690",
    "0x0DCd1Bf9A1b36cE34237eEaFef220932846BCD82",
    "0x610178dA211FEF7D417bC0e6FeD39F05609AD788",
    "0x90F79bf6EB2c4f870365E785982E1f101E93b906",
    "0x2279B7A0a67DB372996a5FaB50D91eAA73d2eBe6",
    "0xe7f1725E7734CE288F8367e1Bb143E90bb3F0512",
    "0xa513E6E4b8f2a923D98304ec87F64353C4D5C853"
  ],
  "solcInputHash": "e1126a469c08dd05a8ec89baab354616",
  "bytecode": "0x60c06040523480156200001157600080fd5b506040516200450c3803806200450c833981016040819052620000349162000365565b6001600160601b0319606082811b821660a05283901b1660805262000058620000fe565b5050609a80546001600160a01b03199081166001600160a01b0398891617909155609880548216968816969096179095556099805486169487169490941790935560a9805485169286169290921790915560008054841692851692909217909155609c805490921692169190911790557f6c3699283bda56ad74f6b855546325b68d482e983852a7a82979cc4807b641f460a05567016345785d8a0000609f5562000489565b600054600160a81b900460ff16806200011c57506200011c620001be565b80620001325750600054600160a01b900460ff16155b6200015a5760405162461bcd60e51b8152600401620001519062000425565b60405180910390fd5b600054600160a81b900460ff1615801562000192576000805460ff60a01b1960ff60a81b19909116600160a81b1716600160a01b1790555b6200019c620001c4565b620001a662000265565b8015620001bb576000805460ff60a81b191690555b50565b303b1590565b600054600160a81b900460ff1680620001e25750620001e2620001be565b80620001f85750600054600160a01b900460ff16155b620002175760405162461bcd60e51b8152600401620001519062000425565b600054600160a81b900460ff16158015620001a6576000805460ff60a01b1960ff60a81b19909116600160a81b1716600160a01b1790558015620001bb576000805460ff60a81b1916905550565b600054600160a81b900460ff168062000283575062000283620001be565b80620002995750600054600160a01b900460ff16155b620002b85760405162461bcd60e51b8152600401620001519062000425565b600054600160a81b900460ff16158015620002f0576000805460ff60a01b1960ff60a81b19909116600160a81b1716600160a01b1790555b6000620002fc62000361565b606580546001600160a01b0319166001600160a01b038316908117909155604051919250906000907f8be0079c531659141344cd1fd0a4f28419497f9722a3daafe3b4186f6b6457e0908290a3508015620001bb576000805460ff60a81b1916905550565b3390565b600080600080600080600080610100898b03121562000382578384fd5b88516200038f8162000473565b60208a0151909850620003a28162000473565b60408a0151909750620003b58162000473565b60608a0151909650620003c88162000473565b60808a0151909550620003db8162000473565b60a08a0151909450620003ee8162000473565b60c08a0151909350620004018162000473565b60e08a0151909250620004148162000473565b809150509295985092959890939650565b6020808252602e908201527f436f6e747261637420696e7374616e63652068617320616c726561647920626560408201526d195b881a5b9a5d1a585b1a5e995960921b606082015260800190565b6001600160a01b0381168114620001bb57600080fd5b60805160601c60a05160601c61404a620004c26000398061125352806121b9525080610c1a5280611541528061218a525061404a6000f3fe60806040526004361061025c5760003560e01c8063ab033ea911610144578063d49d5181116100b6578063f2fde38b1161007a578063f2fde38b14610644578063f4ab1a9314610664578063f7db38cb14610679578063fa69669c1461068e578063faf5db8e146106a3578063fff6cae9146106b85761025c565b8063d49d5181146105d0578063e0614322146105e5578063e0af3616146105fa578063e7fa67e51461060f578063eced55261461062f5761025c565b8063b93b4bb711610108578063b93b4bb71461053c578063bf33a1f51461055c578063cb5b332e14610571578063cde7bc7014610591578063ce665dd8146105a6578063cfbd900f146105bb5761025c565b8063ab033ea9146104b4578063adf5e1b1146104d4578063b082cc26146104e7578063b37217a414610507578063b81a0b4c146105275761025c565b806342619f66116101dd578063571c2b4d116101a1578063571c2b4d146104205780635aa6e67514610435578063715018a61461044a5780638da5cb5b1461045f57806394985ddd146104745780639e317f12146104945761025c565b806342619f661461038f5780634601723a146103a457806350b44712146103c457806353b77f52146103f6578063559ed3391461040b5761025c565b80632f4f8a7a116102245780632f4f8a7a146103105780633023af2d1461032557806330e588ac1461033a5780633b24bd4a1461035a5780633cb0b92d1461036f5761025c565b80630c57af6c1461027b5780630eb1f9081461028e57806313d4829b146102b957806322d5b25c146102d957806329e015ba146102fb575b60a5546001600160a01b03163314610279576102793360006106cd565b005b61027961028936600461382d565b6106cd565b34801561029a57600080fd5b506102a36109de565b6040516102b09190613ac0565b60405180910390f35b3480156102c557600080fd5b506102a36102d43660046138af565b6109e4565b3480156102e557600080fd5b506102ee610b5f565b6040516102b091906139d1565b34801561030757600080fd5b506102ee610b6e565b34801561031c57600080fd5b506102ee610b7d565b34801561033157600080fd5b506102ee610b8c565b34801561034657600080fd5b506102796103553660046138af565b610b9b565b34801561036657600080fd5b506102ee610bca565b34801561037b57600080fd5b506102a361038a3660046138af565b610bd9565b34801561039b57600080fd5b506102a3610ceb565b3480156103b057600080fd5b506102796103bf3660046137f5565b610cf1565b3480156103d057600080fd5b506103e46103df3660046138af565b610d77565b6040516102b096959493929190613a8d565b34801561040257600080fd5b50610279610db6565b34801561041757600080fd5b50610279610de4565b34801561042c57600080fd5b506102ee61119c565b34801561044157600080fd5b506102ee6111ab565b34801561045657600080fd5b506102796111ba565b34801561046b57600080fd5b506102ee611239565b34801561048057600080fd5b5061027961048f3660046138c7565b611248565b3480156104a057600080fd5b506102a36104af3660046138af565b61129e565b3480156104c057600080fd5b506102796104cf3660046137f5565b6112b0565b6102796104e2366004613954565b611310565b3480156104f357600080fd5b506102796105023660046137f5565b6114e3565b34801561051357600080fd5b506102a36105223660046138af565b61153a565b34801561053357600080fd5b506102ee611608565b34801561054857600080fd5b506102a36105573660046137f5565b611617565b34801561056857600080fd5b506102796117ef565b34801561057d57600080fd5b5061027961058c3660046138af565b61187c565b34801561059d57600080fd5b506102ee6118b6565b3480156105b257600080fd5b506102a36118c5565b3480156105c757600080fd5b506102a36118ca565b3480156105dc57600080fd5b506102a36118d0565b3480156105f157600080fd5b506102ee6118d6565b34801561060657600080fd5b506102ee6118e5565b34801561061b57600080fd5b5061027961062a3660046138af565b6118f4565b34801561063b57600080fd5b506102a361192e565b34801561065057600080fd5b5061027961065f3660046137f5565b611933565b34801561067057600080fd5b506102a36119ea565b34801561068557600080fd5b506102ee611a0e565b34801561069a57600080fd5b506102ee611a1d565b3480156106af57600080fd5b506102a3611a2c565b3480156106c457600080fd5b50610279611a32565b6001600160a01b0382166106fc5760405162461bcd60e51b81526004016106f390613b51565b60405180910390fd5b348061071a5760405162461bcd60e51b81526004016106f390613ee4565b60a560009054906101000a90046001600160a01b03166001600160a01b031663d0e30db0346040518263ffffffff1660e01b81526004016000604051808303818588803b15801561076a57600080fd5b505af115801561077e573d6000803e3d6000fd5b505050505060008061078e611ab1565b91509150600061079f848484611b9d565b60a55460a35460405163a9059cbb60e01b81529293506001600160a01b039182169263a9059cbb926107d79216908890600401613a2a565b602060405180830381600087803b1580156107f157600080fd5b505af1158015610805573d6000803e3d6000fd5b505050506040513d601f19601f820116820180604052508101906108299190613865565b5060008054604051633834374960e11b81526001600160a01b03909116916370686e929161085e918a91899190600401613a43565b600060405180830381600087803b15801561087857600080fd5b505af115801561088c573d6000803e3d6000fd5b505060a55460a254600093508392506108b1916001600160a01b039081169116611c37565b60a35460a2549294509092506001600160a01b039081169163022c0d9f918086169116146108e05760006108e2565b845b60a2546001600160a01b038581169116146108fe576000610900565b855b306040518463ffffffff1660e01b815260040161091f93929190613fae565b600060405180830381600087803b15801561093957600080fd5b505af115801561094d573d6000803e3d6000fd5b505050506000610973606461096d609d5487611cc190919063ffffffff16565b90611d04565b609c546040519192506001600160a01b03169082156108fc029083906000818181858888f193505050501580156109ae573d6000803e3d6000fd5b5060006109bb8583611d46565b90506109d26109cb826002611d04565b8b8b611d88565b50505050505050505050565b609f5481565b60008060006109f1612050565b90925090506000610a0d610a06866002611d04565b8484611b9d565b9050600060a160009054906101000a90046001600160a01b03166001600160a01b03166318160ddd6040518163ffffffff1660e01b815260040160206040518083038186803b158015610a5f57600080fd5b505afa158015610a73573d6000803e3d6000fd5b505050506040513d601f19601f82011682018060405250810190610a97919061393c565b60a25460a454919250600091610ab9916001600160a01b039081169116611c37565b5060a45490915060009081906001600160a01b03808516911614610ae857610ae2896002611d04565b85610af4565b84610af48a6002611d04565b60a454919350915060009081906001600160a01b03868116911614610b1a578888610b1d565b87895b9092509050610b5082610b308689611cc1565b81610b3757fe5b0482610b43868a611cc1565b81610b4a57fe5b0461212d565b9b9a5050505050505050505050565b6098546001600160a01b031681565b6099546001600160a01b031681565b60a1546001600160a01b031681565b609a546001600160a01b031681565b609b546001600160a01b03163314610bc55760405162461bcd60e51b81526004016106f390613c20565b609d55565b60a3546001600160a01b031681565b6000610c00604051806040016040528060048152602001636865726560e01b815250612143565b609f546040516323b872dd60e01b81526001600160a01b037f000000000000000000000000000000000000000000000000000000000000000016916323b872dd91610c529133913091906004016139e5565b602060405180830381600087803b158015610c6c57600080fd5b505af1158015610c80573d6000803e3d6000fd5b505050506040513d601f19601f82011682018060405250810190610ca49190613865565b610cc05760405162461bcd60e51b81526004016106f390613e69565b60aa80546001600160a01b0319163317905560a054609f54610ce3919084612186565b90505b919050565b609e5481565b610cf96122c9565b6065546001600160a01b03908116911614610d265760405162461bcd60e51b81526004016106f390613db8565b609880546001600160a01b038381166001600160a01b03198316811790935560405191169182917f9e4368dbddb338dc373020f18730584d6e9aaacad2101be6bd6d0a21fe59ffbc90600090a35050565b60a8602052600090815260409020805460018201546002830154600384015460048501546005909501546001600160a01b039094169492939192909186565b609e54610dd55760405162461bcd60e51b81526004016106f390613b1a565b610ddd6122cd565b6000609e55565b610dec6122c9565b6065546001600160a01b03908116911614610e195760405162461bcd60e51b81526004016106f390613db8565b60008054906101000a90046001600160a01b03166001600160a01b0316632f4f8a7a6040518163ffffffff1660e01b815260040160206040518083038186803b158015610e6557600080fd5b505afa158015610e79573d6000803e3d6000fd5b505050506040513d601f19601f82011682018060405250810190610e9d9190613811565b60a180546001600160a01b0319166001600160a01b039283161790556000546040805163f7db38cb60e01b81529051919092169163f7db38cb916004808301926020929190829003018186803b158015610ef657600080fd5b505afa158015610f0a573d6000803e3d6000fd5b505050506040513d601f19601f82011682018060405250810190610f2e9190613811565b60a280546001600160a01b0319166001600160a01b0392831617905560005460408051631d925ea560e11b815290519190921691633b24bd4a916004808301926020929190829003018186803b158015610f8757600080fd5b505afa158015610f9b573d6000803e3d6000fd5b505050506040513d601f19601f82011682018060405250810190610fbf9190613811565b60a380546001600160a01b0319166001600160a01b0392831617905560005460408051633e9a59a760e21b81529051919092169163fa69669c916004808301926020929190829003018186803b15801561101857600080fd5b505afa15801561102c573d6000803e3d6000fd5b505050506040513d601f19601f820116820180604052508101906110509190613811565b60a480546001600160a01b0319166001600160a01b03928316179055600054604080516370579b0b60e11b81529051919092169163e0af3616916004808301926020929190829003018186803b1580156110a957600080fd5b505afa1580156110bd573d6000803e3d6000fd5b505050506040513d601f19601f820116820180604052508101906110e19190613811565b60a580546001600160a01b0319166001600160a01b0392831617905560005460408051632e0682d360e21b81529051919092169163b81a0b4c916004808301926020929190829003018186803b15801561113a57600080fd5b505afa15801561114e573d6000803e3d6000fd5b505050506040513d601f19601f820116820180604052508101906111729190613811565b60a680546001600160a01b0319166001600160a01b039290921691909117905561119a6117ef565b565b609c546001600160a01b031681565b609b546001600160a01b031681565b6111c26122c9565b6065546001600160a01b039081169116146111ef5760405162461bcd60e51b81526004016106f390613db8565b6065546040516000916001600160a01b0316907f8be0079c531659141344cd1fd0a4f28419497f9722a3daafe3b4186f6b6457e0908390a3606580546001600160a01b0319169055565b6065546001600160a01b031690565b336001600160a01b037f000000000000000000000000000000000000000000000000000000000000000016146112905760405162461bcd60e51b81526004016106f390613ded565b61129a8282612921565b5050565b60976020526000908152604090205481565b609a54600160a01b900460ff16156112da5760405162461bcd60e51b81526004016106f390613f66565b609a805460ff60a01b1916600160a01b179055609b80546001600160a01b039092166001600160a01b0319909216919091179055565b600082116113305760405162461bcd60e51b81526004016106f390613be9565b60a2546040516323b872dd60e01b81526001600160a01b03909116906323b872dd90611364903390309087906004016139e5565b602060405180830381600087803b15801561137e57600080fd5b505af1158015611392573d6000803e3d6000fd5b505050506040513d601f19601f820116820180604052508101906113b69190613865565b6113d25760405162461bcd60e51b81526004016106f390613d12565b6000806113dd611ab1565b9150915060006113ee858385611b9d565b9050600061140c606461096d609d5489611cc190919063ffffffff16565b609c546040519192506001600160a01b03169082156108fc029083906000818181858888f19350505050158015611447573d6000803e3d6000fd5b5060008054604051633834374960e11b81526001600160a01b03909116916370686e929161147c913391879190600401613a43565b600060405180830381600087803b15801561149657600080fd5b505af11580156114aa573d6000803e3d6000fd5b5050505060006114c38288611d4690919063ffffffff16565b90506114da6114d3826002611d04565b3388611d88565b50505050505050565b6114eb6122c9565b6065546001600160a01b039081169116146115185760405162461bcd60e51b81526004016106f390613db8565b609880546001600160a01b0319166001600160a01b0392909216919091179055565b6000609f547f00000000000000000000000000000000000000000000000000000000000000006001600160a01b03166370a08231306040518263ffffffff1660e01b815260040161158b91906139d1565b60206040518083038186803b1580156115a357600080fd5b505afa1580156115b7573d6000803e3d6000fd5b505050506040513d601f19601f820116820180604052508101906115db919061393c565b10156115f95760405162461bcd60e51b81526004016106f390613d40565b610ce360a054609f5484612186565b60a6546001600160a01b031681565b6000805460405163568a0a5960e11b815282916001600160a01b03169063ad1414b2906116489086906004016139d1565b60206040518083038186803b15801561166057600080fd5b505afa158015611674573d6000803e3d6000fd5b505050506040513d601f19601f82011682018060405250810190611698919061393c565b9050670de0b6b3a76400008110156116b4576000915050610ce6565b670de0b6b3a764000081101580156116d35750674563918244f4000081105b156116e2576001915050610ce6565b674563918244f4000081101580156117015750678ac7230489e8000081105b15611710576002915050610ce6565b678ac7230489e80000811015801561173057506801158e460913d0000081105b1561173f576003915050610ce6565b6801158e460913d00000811015801561176057506801a055690d9db8000081105b1561176f576004915050610ce6565b6801a055690d9db800008110158015611790575068022b1c8c1227a0000081105b1561179f576005915050610ce6565b68022b1c8c1227a0000081101580156117c057506802b5e3af16b188000081105b156117cf576006915050610ce6565b6802b5e3af16b188000081106117e9576007915050610ce6565b50919050565b60a15460995460405163095ea7b360e01b81526001600160a01b039283169263095ea7b3926118279291169060001990600401613a2a565b602060405180830381600087803b15801561184157600080fd5b505af1158015611855573d6000803e3d6000fd5b505050506040513d601f19601f820116820180604052508101906118799190613865565b50565b6118846122c9565b6065546001600160a01b039081169116146118b15760405162461bcd60e51b81526004016106f390613db8565b609f55565b60a9546001600160a01b031681565b600181565b60a75481565b60001981565b60aa546001600160a01b031681565b60a5546001600160a01b031681565b6118fc6122c9565b6065546001600160a01b039081169116146119295760405162461bcd60e51b81526004016106f390613db8565b60a055565b606481565b61193b6122c9565b6065546001600160a01b039081169116146119685760405162461bcd60e51b81526004016106f390613db8565b6001600160a01b03811661198e5760405162461bcd60e51b81526004016106f390613b7a565b6065546040516001600160a01b038084169216907f8be0079c531659141344cd1fd0a4f28419497f9722a3daafe3b4186f6b6457e090600090a3606580546001600160a01b0319166001600160a01b0392909216919091179055565b7f028f5c28f5c28f5c28f5c28f5c28f5c28f5c28f5c28f5c28f5c28f5c28f5c28f81565b60a2546001600160a01b031681565b60a4546001600160a01b031681565b609d5481565b6098546040805160016209351760e01b0319815281516001600160a01b039093169263fff6cae9926004808401939192918290030181600087803b158015611a7957600080fd5b505af1158015611a8d573d6000803e3d6000fd5b505050506040513d601f19601f8201168201806040525081019061129a9190613881565b60a55460a25460009182918291611ad4916001600160a01b039182169116611c37565b50905060008060a360009054906101000a90046001600160a01b03166001600160a01b0316630902f1ac6040518163ffffffff1660e01b815260040160606040518083038186803b158015611b2857600080fd5b505afa158015611b3c573d6000803e3d6000fd5b505050506040513d601f19601f82011682018060405250810190611b6091906138e8565b5060a2546001600160701b039283169450911691506001600160a01b03848116911614611b8e578181611b91565b80825b90969095509350505050565b6000808411611bbe5760405162461bcd60e51b81526004016106f390613f1b565b600083118015611bce5750600082115b611bea5760405162461bcd60e51b81526004016106f390613cca565b6000611bf8856103e5611cc1565b90506000611c068285611cc1565b90506000611c2083611c1a886103e8611cc1565b90612ab9565b9050808281611c2b57fe5b04979650505050505050565b600080826001600160a01b0316846001600160a01b03161415611c6c5760405162461bcd60e51b81526004016106f390613c85565b826001600160a01b0316846001600160a01b031610611c8c578284611c8f565b83835b90925090506001600160a01b038216611cba5760405162461bcd60e51b81526004016106f390613ead565b9250929050565b600082611cd057506000611cfe565b82820282848281611cdd57fe5b0414611cfb5760405162461bcd60e51b81526004016106f390613d77565b90505b92915050565b6000611cfb83836040518060400160405280601a81526020017f536166654d6174683a206469766973696f6e206279207a65726f000000000000815250612ade565b6000611cfb83836040518060400160405280601e81526020017f536166654d6174683a207375627472616374696f6e206f766572666c6f770000815250612b15565b600080611d93612050565b915091506000611da4868484611b9d565b60a25460a15460405163a9059cbb60e01b81529293506001600160a01b039182169263a9059cbb92611ddc9216908a90600401613a2a565b602060405180830381600087803b158015611df657600080fd5b505af1158015611e0a573d6000803e3d6000fd5b505050506040513d601f19601f82011682018060405250810190611e2e9190613865565b611e4a5760405162461bcd60e51b81526004016106f390613bc0565b60a25460a4546000918291611e6b916001600160a01b039081169116611c37565b60a15460a4549294509092506001600160a01b039081169163022c0d9f91808616911614611e9a576000611e9c565b845b60a4546001600160a01b03858116911614611eb8576000611eba565b855b306040518463ffffffff1660e01b8152600401611ed993929190613fae565b600060405180830381600087803b158015611ef357600080fd5b505af1158015611f07573d6000803e3d6000fd5b50505050611f1783898989612b41565b60a6546040516370a0823160e01b8152670de0b6b3a7640000916001600160a01b0316906370a0823190611f4f9030906004016139d1565b60206040518083038186803b158015611f6757600080fd5b505afa158015611f7b573d6000803e3d6000fd5b505050506040513d601f19601f82011682018060405250810190611f9f919061393c565b11156120355760a6546040516323b872dd60e01b81526001600160a01b03909116906323b872dd90611fe19030908b90670de0b6b3a7640000906004016139e5565b602060405180830381600087803b158015611ffb57600080fd5b505af115801561200f573d6000803e3d6000fd5b505050506040513d601f19601f820116820180604052508101906120339190613865565b505b61203e87612fc4565b612046611a32565b5050505050505050565b60a25460a45460009182918291612073916001600160a01b039182169116611c37565b50905060008060a160009054906101000a90046001600160a01b03166001600160a01b0316630902f1ac6040518163ffffffff1660e01b815260040160606040518083038186803b1580156120c757600080fd5b505afa1580156120db573d6000803e3d6000fd5b505050506040513d601f19601f820116820180604052508101906120ff91906138e8565b5060a4546001600160701b039283169450911691506001600160a01b03848116911614611b8e578181611b91565b600081831061213c5781611cfb565b5090919050565b611879816040516024016121579190613b07565b60408051601f198184030181529190526020810180516001600160e01b031663104c13eb60e21b179052613429565b60007f00000000000000000000000000000000000000000000000000000000000000006001600160a01b0316634000aea07f00000000000000000000000000000000000000000000000000000000000000008587866040516020016121ec9291906139c3565b6040516020818303038152906040526040518463ffffffff1660e01b815260040161221993929190613a66565b602060405180830381600087803b15801561223357600080fd5b505af1158015612247573d6000803e3d6000fd5b505050506040513d601f19601f8201168201806040525081019061226b9190613865565b5060008481526097602052604081205461228a9086908590309061344a565b6000868152609760205260409020549091506122a7906001612ab9565b6000868152609760205260409020556122c08582613484565b95945050505050565b3390565b60005b60a754811015612914576122e26137b6565b50600081815260a86020908152604091829020825160c08101845281546001600160a01b03168152600182015492810183905260028201549381019390935260038101546060840152600481015460808401526005015460a0830152609e541161242d5760a95460005460405163795d79f560e01b81526001600160a01b039283169263c6c3bbe692169063795d79f59061238290600190600401613ac0565b60206040518083038186803b15801561239a57600080fd5b505afa1580156123ae573d6000803e3d6000fd5b505050506040513d601f19601f820116820180604052508101906123d29190613811565b8351609e546040516001600160e01b031960e086901b1681526123fa939291906004016139e5565b600060405180830381600087803b15801561241457600080fd5b505af1158015612428573d6000803e3d6000fd5b505050505b8060400151609e54116125215760a95460005460405163795d79f560e01b81526001600160a01b039283169263c6c3bbe692169063795d79f59061247690600290600401613ac0565b60206040518083038186803b15801561248e57600080fd5b505afa1580156124a2573d6000803e3d6000fd5b505050506040513d601f19601f820116820180604052508101906124c69190613811565b8351609e546040516001600160e01b031960e086901b1681526124ee939291906004016139e5565b600060405180830381600087803b15801561250857600080fd5b505af115801561251c573d6000803e3d6000fd5b505050505b8060600151609e54116126155760a95460005460405163795d79f560e01b81526001600160a01b039283169263c6c3bbe692169063795d79f59061256a90600390600401613ac0565b60206040518083038186803b15801561258257600080fd5b505afa158015612596573d6000803e3d6000fd5b505050506040513d601f19601f820116820180604052508101906125ba9190613811565b8351609e546040516001600160e01b031960e086901b1681526125e2939291906004016139e5565b600060405180830381600087803b1580156125fc57600080fd5b505af1158015612610573d6000803e3d6000fd5b505050505b8060800151609e54116127085760a95460005460405163795d79f560e01b81526001600160a01b039283169263c6c3bbe692169063795d79f59061265d906004908101613ac0565b60206040518083038186803b15801561267557600080fd5b505afa158015612689573d6000803e3d6000fd5b505050506040513d601f19601f820116820180604052508101906126ad9190613811565b8351609e546040516001600160e01b031960e086901b1681526126d5939291906004016139e5565b600060405180830381600087803b1580156126ef57600080fd5b505af1158015612703573d6000803e3d6000fd5b505050505b8060a00151609e54116127fc5760a95460005460405163795d79f560e01b81526001600160a01b039283169263c6c3bbe692169063795d79f59061275190600590600401613ac0565b60206040518083038186803b15801561276957600080fd5b505afa15801561277d573d6000803e3d6000fd5b505050506040513d601f19601f820116820180604052508101906127a19190613811565b8351609e546040516001600160e01b031960e086901b1681526127c9939291906004016139e5565b600060405180830381600087803b1580156127e357600080fd5b505af11580156127f7573d6000803e3d6000fd5b505050505b600080548251604051633834374960e11b81526001600160a01b03909216926370686e9292612832929190600190600401613a43565b600060405180830381600087803b15801561284c57600080fd5b505af1158015612860573d6000803e3d6000fd5b505050600083815260a8602052604080822080546001600160a01b031916815560018101839055600281018390556003810183905560048082018490556005909101839055825485519251631695fb2f60e31b81526001600160a01b03909116945063b4afd978936128d59392909101613a2a565b600060405180830381600087803b1580156128ef57600080fd5b505af1158015612903573d6000803e3d6000fd5b5050600190930192506122d0915050565b506000609e81905560a755565b61292a816134b7565b609e556000805460405163795d79f560e01b81526001600160a01b039091169063795d79f59061295f90600790600401613ac0565b60206040518083038186803b15801561297757600080fd5b505afa15801561298b573d6000803e3d6000fd5b505050506040513d601f19601f820116820180604052508101906129af9190613811565b60aa546040516370a0823160e01b81529192506001600160a01b03808416926370a08231926129e29216906004016139d1565b60206040518083038186803b1580156129fa57600080fd5b505afa158015612a0e573d6000803e3d6000fd5b505050506040513d601f19601f82011682018060405250810190612a32919061393c565b612aa45760a95460aa54609e54604051636361ddf360e11b81526001600160a01b039384169363c6c3bbe693612a7193879392909116916004016139e5565b600060405180830381600087803b158015612a8b57600080fd5b505af1158015612a9f573d6000803e3d6000fd5b505050505b505060aa80546001600160a01b031916905550565b600082820183811015611cfb5760405162461bcd60e51b81526004016106f390613c4e565b60008183612aff5760405162461bcd60e51b81526004016106f39190613b07565b506000838581612b0b57fe5b0495945050505050565b60008184841115612b395760405162461bcd60e51b81526004016106f39190613b07565b505050900390565b600080612b4c612050565b915091506000612b5d8684846134c3565b9050600087821115612b7e57612b748884866134c3565b9050879150612b81565b50855b60a25460a15460405163a9059cbb60e01b81526001600160a01b039283169263a9059cbb92612bb7929116908590600401613a2a565b602060405180830381600087803b158015612bd157600080fd5b505af1158015612be5573d6000803e3d6000fd5b505050506040513d601f19601f82011682018060405250810190612c099190613865565b612c0f57fe5b60a45460a15460405163a9059cbb60e01b81526001600160a01b039283169263a9059cbb92612c45929116908690600401613a2a565b602060405180830381600087803b158015612c5f57600080fd5b505af1158015612c73573d6000803e3d6000fd5b505050506040513d601f19601f82011682018060405250810190612c979190613865565b612c9d57fe5b8415612e0d5760a1546040516335313c2160e11b81526001600160a01b0390911690636a62784290612cd39030906004016139d1565b602060405180830381600087803b158015612ced57600080fd5b505af1158015612d01573d6000803e3d6000fd5b505050506040513d601f19601f82011682018060405250810190612d25919061393c565b5060995460a1546040516370a0823160e01b81526001600160a01b0392831692634cf5fbf5928a92600092909116906370a0823190612d689030906004016139d1565b60206040518083038186803b158015612d8057600080fd5b505afa158015612d94573d6000803e3d6000fd5b505050506040513d601f19601f82011682018060405250810190612db8919061393c565b6040518463ffffffff1660e01b8152600401612dd693929190613a09565b600060405180830381600087803b158015612df057600080fd5b505af1158015612e04573d6000803e3d6000fd5b50505050612e91565b60a1546040516335313c2160e11b81526001600160a01b0390911690636a62784290612e3d9089906004016139d1565b602060405180830381600087803b158015612e5757600080fd5b505af1158015612e6b573d6000803e3d6000fd5b505050506040513d601f19601f82011682018060405250810190612e8f919061393c565b505b81881115612f265760a4546001600160a01b031663a9059cbb87612eb58b86611d46565b6040518363ffffffff1660e01b8152600401612ed2929190613a2a565b602060405180830381600087803b158015612eec57600080fd5b505af1158015612f00573d6000803e3d6000fd5b505050506040513d601f19601f82011682018060405250810190612f249190613865565b505b808711156120465760a2546001600160a01b031663a9059cbb87612f4a8a85611d46565b6040518363ffffffff1660e01b8152600401612f67929190613a2a565b602060405180830381600087803b158015612f8157600080fd5b505af1158015612f95573d6000803e3d6000fd5b505050506040513d601f19601f82011682018060405250810190612fb99190613865565b505050505050505050565b600080546040516333103d9960e21b81526001600160a01b039091169063cc40f66490612ff59085906004016139d1565b60206040518083038186803b15801561300d57600080fd5b505afa158015613021573d6000803e3d6000fd5b505050506040513d601f19601f82011682018060405250810190613045919061393c565b9050600061305283611617565b9050815b818110156133b7576130666137b6565b816130ad576040518060c00160405280866001600160a01b03168152602001603281526020016000815260200160008152602001600081526020016000815250905061332f565b81600114156130f8576040518060c00160405280866001600160a01b03168152602001604b81526020016032815260200160008152602001600081526020016000815250905061332f565b8160021415613143576040518060c00160405280866001600160a01b0316815260200160648152602001604b815260200160328152602001600081526020016000815250905061332f565b816003141561318e576040518060c00160405280866001600160a01b031681526020016064815260200160648152602001604b8152602001603281526020016000815250905061332f565b81600414156131d9576040518060c00160405280866001600160a01b03168152602001606481526020016064815260200160648152602001604b81526020016032815250905061332f565b8160051415613224576040518060c00160405280866001600160a01b03168152602001606481526020016064815260200160648152602001606481526020016032815250905061332f565b816006141561332f5760a7600081548092919060010191905055506040518060c00160405280866001600160a01b0316815260200160648152602001606481526020016064815260200160648152602001606481525060a8600060a754815260200190815260200160002060008201518160000160006101000a8154816001600160a01b0302191690836001600160a01b031602179055506020820151816001015560408201518160020155606082015181600301556080820151816004015560a082015181600501559050506040518060c00160405280866001600160a01b0316815260200160648152602001606481526020016064815260200160648152602001600081525090505b80516001600160a01b0316156133ae5760a78054600190810191829055600091825260a86020908152604092839020845181546001600160a01b0319166001600160a01b039091161781559084015191810191909155908201516002820155606082015160038201556080820151600482015560a08201516005909101555b50600101613056565b50600381106133c9576133c98361352b565b600054604051631695fb2f60e31b81526001600160a01b039091169063b4afd978906133fb9086908590600401613a2a565b600060405180830381600087803b15801561341557600080fd5b505af11580156114da573d6000803e3d6000fd5b80516a636f6e736f6c652e6c6f67602083016000808483855afa5050505050565b6000848484846040516020016134639493929190613ac9565b60408051601f19818403018152919052805160209091012095945050505050565b600082826040516020016134999291906139c3565b60405160208183030381529060405280519060200120905092915050565b60649081028190040690565b60008084116134e45760405162461bcd60e51b81526004016106f390613e24565b6000831180156134f45750600082115b6135105760405162461bcd60e51b81526004016106f390613cca565b8261351b8584611cc1565b8161352257fe5b04949350505050565b6000805460405163795d79f560e01b81526001600160a01b039091169063795d79f59061355d90600690600401613ac0565b60206040518083038186803b15801561357557600080fd5b505afa158015613589573d6000803e3d6000fd5b505050506040513d601f19601f820116820180604052508101906135ad9190613811565b60a6546040516370a0823160e01b81529192506801158e460913d00000916001600160a01b03909116906370a08231906135eb9086906004016139d1565b60206040518083038186803b15801561360357600080fd5b505afa158015613617573d6000803e3d6000fd5b505050506040513d601f19601f8201168201806040525081019061363b919061393c565b101580156136ca575060a954604051633de222bb60e21b81526001600160a01b039091169063f7888aec906136769084908690600401613aed565b602060405180830381600087803b15801561369057600080fd5b505af11580156136a4573d6000803e3d6000fd5b505050506040513d601f19601f820116820180604052508101906136c8919061393c565b155b801561374657506032816001600160a01b03166318160ddd6040518163ffffffff1660e01b815260040160206040518083038186803b15801561370c57600080fd5b505afa158015613720573d6000803e3d6000fd5b505050506040513d601f19601f82011682018060405250810190613744919061393c565b105b1561129a5760a954609e54604051636361ddf360e11b81526001600160a01b039092169163c6c3bbe69161378091859187916004016139e5565b600060405180830381600087803b15801561379a57600080fd5b505af11580156137ae573d6000803e3d6000fd5b505050505050565b6040518060c0016040528060006001600160a01b0316815260200160008152602001600081526020016000815260200160008152602001600081525090565b600060208284031215613806578081fd5b8135611cfb81613fdc565b600060208284031215613822578081fd5b8151611cfb81613fdc565b6000806040838503121561383f578081fd5b823561384a81613fdc565b9150602083013561385a81613ff1565b809150509250929050565b600060208284031215613876578081fd5b8151611cfb81613ff1565b60008060408385031215613893578182fd5b825161389e81613ff1565b602084015190925061385a81613ff1565b6000602082840312156138c0578081fd5b5035919050565b600080604083850312156138d9578182fd5b50508035926020909101359150565b6000806000606084860312156138fc578081fd5b835161390781613fff565b602085015190935061391881613fff565b604085015190925063ffffffff81168114613931578182fd5b809150509250925092565b60006020828403121561394d578081fd5b5051919050565b60008060408385031215613966578182fd5b82359150602083013561385a81613ff1565b60008151808452815b8181101561399d57602081850181015186830182015201613981565b818111156139ae5782602083870101525b50601f01601f19169290920160200192915050565b918252602082015260400190565b6001600160a01b0391909116815260200190565b6001600160a01b039384168152919092166020820152604081019190915260600190565b6001600160a01b039390931683526020830191909152604082015260600190565b6001600160a01b03929092168252602082015260400190565b6001600160a01b0393909316835260208301919091521515604082015260600190565b600060018060a01b0385168252836020830152606060408301526122c06060830184613978565b6001600160a01b03969096168652602086019490945260408501929092526060840152608083015260a082015260c00190565b90815260200190565b93845260208401929092526001600160a01b03166040830152606082015260800190565b6001600160a01b0392831681529116602082015260400190565b600060208252611cfb6020830184613978565b6020808252601a908201527f4e6f2072616e646f6d206e756d62657220617661696c61626c65000000000000604082015260600190565b6020808252600f908201526e496e76616c6964206164647265737360881b604082015260600190565b60208082526026908201527f4f776e61626c653a206e6577206f776e657220697320746865207a65726f206160408201526564647265737360d01b606082015260800190565b6020808252600f908201526e151c985b9cd9995c8819985a5b1959608a1b604082015260600190565b60208082526019908201527f496e73756666696369656e7420746f6b656e20616d6f756e7400000000000000604082015260600190565b6020808252601490820152734c6f636b656420746f20676f7665726e616e636560601b604082015260600190565b6020808252601b908201527f536166654d6174683a206164646974696f6e206f766572666c6f770000000000604082015260600190565b60208082526025908201527f556e697377617056324c6962726172793a204944454e544943414c5f41444452604082015264455353455360d81b606082015260800190565b60208082526028908201527f556e697377617056324c6962726172793a20494e53554646494349454e545f4c604082015267495155494449545960c01b606082015260800190565b602080825260149082015273105c1c1c9bdd99481d1bdad95b9cc8199a5c9cdd60621b604082015260600190565b6020808252601b908201527f4e6f7420656e6f756768204c494e4b206f6e20636f6e74726163740000000000604082015260600190565b60208082526021908201527f536166654d6174683a206d756c7469706c69636174696f6e206f766572666c6f6040820152607760f81b606082015260800190565b6020808252818101527f4f776e61626c653a2063616c6c6572206973206e6f7420746865206f776e6572604082015260600190565b6020808252601f908201527f4f6e6c7920565246436f6f7264696e61746f722063616e2066756c66696c6c00604082015260600190565b60208082526025908201527f556e697377617056324c6962726172793a20494e53554646494349454e545f416040820152641353d5539560da1b606082015260800190565b60208082526024908201527f4e6f7420656e6f756768204c494e4b20617070726f76656420746f20636f6e746040820152631c9858dd60e21b606082015260800190565b6020808252601e908201527f556e697377617056324c6962726172793a205a45524f5f414444524553530000604082015260600190565b60208082526017908201527f496e73756666696369656e742045544820616d6f756e74000000000000000000604082015260600190565b6020808252602b908201527f556e697377617056324c6962726172793a20494e53554646494349454e545f4960408201526a1394155517d05353d5539560aa1b606082015260800190565b60208082526028908201527f476f7665726e616e636520636f6e74726163742068617320616c7265616479206040820152671899595b881cd95d60c21b606082015260800190565b92835260208301919091526001600160a01b0316604082015260806060820181905260009082015260a00190565b6001600160a01b038116811461187957600080fd5b801515811461187957600080fd5b6001600160701b038116811461187957600080fdfea2646970667358221220f92b771f147e6f02011e2c318cf29927e0bb767b3ddf45e9a44eab5b2eb49d2664736f6c634300060c0033",
  "devdoc": {
    "kind": "dev",
    "methods": {
      "owner()": {
        "details": "Returns the address of the current owner."
      },
      "renounceOwnership()": {
        "details": "Leaves the contract without owner. It will not be possible to call `onlyOwner` functions anymore. Can only be called by the current owner. NOTE: Renouncing ownership will leave the contract without an owner, thereby removing any functionality that is only available to the owner."
      },
      "transferOwnership(address)": {
        "details": "Transfers ownership of the contract to a new account (`newOwner`). Can only be called by the current owner."
      }
    },
    "version": 1
  },
  "userdoc": {
    "kind": "user",
    "methods": {
      "getRandomNumber(uint256)": {
        "notice": "Requests randomness from a user-provided seed"
      },
      "selfRequestRandomNumber(uint256)": {
        "notice": "Requests randomness from a user-provided seed"
      }
    },
    "version": 1
  },
  "storageLayout": {
    "storage": [
      {
        "astId": 13652,
        "contract": "contracts/RAMV1router.sol:RAMv1Router",
        "label": "_storage",
        "offset": 0,
        "slot": "0",
        "type": "t_contract(YGYStorageV1)15376"
      },
      {
        "astId": 195,
        "contract": "contracts/RAMV1router.sol:RAMv1Router",
        "label": "initialized",
        "offset": 20,
        "slot": "0",
        "type": "t_bool"
      },
      {
        "astId": 198,
        "contract": "contracts/RAMV1router.sol:RAMv1Router",
        "label": "initializing",
        "offset": 21,
        "slot": "0",
        "type": "t_bool"
      },
      {
        "astId": 263,
        "contract": "contracts/RAMV1router.sol:RAMv1Router",
        "label": "______gap",
        "offset": 0,
        "slot": "1",
        "type": "t_array(t_uint256)50_storage"
      },
      {
        "astId": 188,
        "contract": "contracts/RAMV1router.sol:RAMv1Router",
        "label": "__gap",
        "offset": 0,
        "slot": "51",
        "type": "t_array(t_uint256)50_storage"
      },
      {
        "astId": 565,
        "contract": "contracts/RAMV1router.sol:RAMv1Router",
        "label": "_owner",
        "offset": 0,
        "slot": "101",
        "type": "t_address"
      },
      {
        "astId": 683,
        "contract": "contracts/RAMV1router.sol:RAMv1Router",
        "label": "__gap",
        "offset": 0,
        "slot": "102",
        "type": "t_array(t_uint256)49_storage"
      },
      {
        "astId": 13735,
        "contract": "contracts/RAMV1router.sol:RAMv1Router",
        "label": "nonces",
        "offset": 0,
        "slot": "151",
        "type": "t_mapping(t_bytes32,t_uint256)"
      },
      {
        "astId": 10015,
        "contract": "contracts/RAMV1router.sol:RAMv1Router",
        "label": "_feeApprover",
        "offset": 0,
        "slot": "152",
        "type": "t_contract(IFeeApprover)15564"
      },
      {
        "astId": 10017,
        "contract": "contracts/RAMV1router.sol:RAMv1Router",
        "label": "_RAMVault",
        "offset": 0,
        "slot": "153",
        "type": "t_contract(IRAMVault)15780"
      },
      {
        "astId": 10019,
        "contract": "contracts/RAMV1router.sol:RAMv1Router",
        "label": "_uniV2Factory",
        "offset": 0,
        "slot": "154",
        "type": "t_address"
      },
      {
        "astId": 10021,
        "contract": "contracts/RAMV1router.sol:RAMv1Router",
        "label": "governanceSet",
        "offset": 20,
        "slot": "154",
        "type": "t_bool"
      },
      {
        "astId": 10023,
        "contract": "contracts/RAMV1router.sol:RAMv1Router",
        "label": "governance",
        "offset": 0,
        "slot": "155",
        "type": "t_address"
      },
      {
        "astId": 10025,
        "contract": "contracts/RAMV1router.sol:RAMv1Router",
        "label": "regenerator",
        "offset": 0,
        "slot": "156",
        "type": "t_address_payable"
      },
      {
        "astId": 10027,
        "contract": "contracts/RAMV1router.sol:RAMv1Router",
        "label": "regeneratorTax",
        "offset": 0,
        "slot": "157",
        "type": "t_uint256"
      },
      {
        "astId": 10047,
        "contract": "contracts/RAMV1router.sol:RAMv1Router",
        "label": "randomResult",
        "offset": 0,
        "slot": "158",
        "type": "t_uint256"
      },
      {
        "astId": 10049,
        "contract": "contracts/RAMV1router.sol:RAMv1Router",
        "label": "rngLinkFee",
        "offset": 0,
        "slot": "159",
        "type": "t_uint256"
      },
      {
        "astId": 10051,
        "contract": "contracts/RAMV1router.sol:RAMv1Router",
        "label": "keyHash",
        "offset": 0,
        "slot": "160",
        "type": "t_bytes32"
      },
      {
        "astId": 10053,
        "contract": "contracts/RAMV1router.sol:RAMv1Router",
        "label": "_YGYRAMPair",
        "offset": 0,
        "slot": "161",
        "type": "t_address"
      },
      {
        "astId": 10055,
        "contract": "contracts/RAMV1router.sol:RAMv1Router",
        "label": "_YGYToken",
        "offset": 0,
        "slot": "162",
        "type": "t_address"
      },
      {
        "astId": 10057,
        "contract": "contracts/RAMV1router.sol:RAMv1Router",
        "label": "_YGYWETHPair",
        "offset": 0,
        "slot": "163",
        "type": "t_address"
      },
      {
        "astId": 10059,
        "contract": "contracts/RAMV1router.sol:RAMv1Router",
        "label": "_RAMToken",
        "offset": 0,
        "slot": "164",
        "type": "t_address"
      },
      {
        "astId": 10061,
        "contract": "contracts/RAMV1router.sol:RAMv1Router",
        "label": "_WETH",
        "offset": 0,
        "slot": "165",
        "type": "t_contract(IWETH)23082"
      },
      {
        "astId": 10063,
        "contract": "contracts/RAMV1router.sol:RAMv1Router",
        "label": "_dXIOTToken",
        "offset": 0,
        "slot": "166",
        "type": "t_contract(IERC20)1045"
      },
      {
        "astId": 10078,
        "contract": "contracts/RAMV1router.sol:RAMv1Router",
        "label": "ticketCount",
        "offset": 0,
        "slot": "167",
        "type": "t_uint256"
      },
      {
        "astId": 10082,
        "contract": "contracts/RAMV1router.sol:RAMv1Router",
        "label": "tickets",
        "offset": 0,
        "slot": "168",
        "type": "t_mapping(t_uint256,t_struct(LotteryTicket)10076_storage)"
      },
      {
        "astId": 10084,
        "contract": "contracts/RAMV1router.sol:RAMv1Router",
        "label": "_NFTFactory",
        "offset": 0,
        "slot": "169",
        "type": "t_contract(INFTFactory)15752"
      },
      {
        "astId": 11022,
        "contract": "contracts/RAMV1router.sol:RAMv1Router",
        "label": "lotteryTriggerer",
        "offset": 0,
        "slot": "170",
        "type": "t_address"
      }
    ],
    "types": {
      "t_address": {
        "encoding": "inplace",
        "label": "address",
        "numberOfBytes": "20"
      },
      "t_address_payable": {
        "encoding": "inplace",
        "label": "address payable",
        "numberOfBytes": "20"
      },
      "t_array(t_uint256)49_storage": {
        "base": "t_uint256",
        "encoding": "inplace",
        "label": "uint256[49]",
        "numberOfBytes": "1568"
      },
      "t_array(t_uint256)50_storage": {
        "base": "t_uint256",
        "encoding": "inplace",
        "label": "uint256[50]",
        "numberOfBytes": "1600"
      },
      "t_bool": {
        "encoding": "inplace",
        "label": "bool",
        "numberOfBytes": "1"
      },
      "t_bytes32": {
        "encoding": "inplace",
        "label": "bytes32",
        "numberOfBytes": "32"
      },
      "t_contract(IERC20)1045": {
        "encoding": "inplace",
        "label": "contract IERC20",
        "numberOfBytes": "20"
      },
      "t_contract(IFeeApprover)15564": {
        "encoding": "inplace",
        "label": "contract IFeeApprover",
        "numberOfBytes": "20"
      },
      "t_contract(INFTFactory)15752": {
        "encoding": "inplace",
        "label": "contract INFTFactory",
        "numberOfBytes": "20"
      },
      "t_contract(IRAMVault)15780": {
        "encoding": "inplace",
        "label": "contract IRAMVault",
        "numberOfBytes": "20"
      },
      "t_contract(IWETH)23082": {
        "encoding": "inplace",
        "label": "contract IWETH",
        "numberOfBytes": "20"
      },
      "t_contract(YGYStorageV1)15376": {
        "encoding": "inplace",
        "label": "contract YGYStorageV1",
        "numberOfBytes": "20"
      },
      "t_mapping(t_bytes32,t_uint256)": {
        "encoding": "mapping",
        "key": "t_bytes32",
        "label": "mapping(bytes32 => uint256)",
        "numberOfBytes": "32",
        "value": "t_uint256"
      },
      "t_mapping(t_uint256,t_struct(LotteryTicket)10076_storage)": {
        "encoding": "mapping",
        "key": "t_uint256",
        "label": "mapping(uint256 => struct RAMv1Router.LotteryTicket)",
        "numberOfBytes": "32",
        "value": "t_struct(LotteryTicket)10076_storage"
      },
      "t_struct(LotteryTicket)10076_storage": {
        "encoding": "inplace",
        "label": "struct RAMv1Router.LotteryTicket",
        "members": [
          {
            "astId": 10065,
            "contract": "contracts/RAMV1router.sol:RAMv1Router",
            "label": "owner",
            "offset": 0,
            "slot": "0",
            "type": "t_address"
          },
          {
            "astId": 10067,
            "contract": "contracts/RAMV1router.sol:RAMv1Router",
            "label": "levelOneChance",
            "offset": 0,
            "slot": "1",
            "type": "t_uint256"
          },
          {
            "astId": 10069,
            "contract": "contracts/RAMV1router.sol:RAMv1Router",
            "label": "levelTwoChance",
            "offset": 0,
            "slot": "2",
            "type": "t_uint256"
          },
          {
            "astId": 10071,
            "contract": "contracts/RAMV1router.sol:RAMv1Router",
            "label": "levelThreeChance",
            "offset": 0,
            "slot": "3",
            "type": "t_uint256"
          },
          {
            "astId": 10073,
            "contract": "contracts/RAMV1router.sol:RAMv1Router",
            "label": "levelFourChance",
            "offset": 0,
            "slot": "4",
            "type": "t_uint256"
          },
          {
            "astId": 10075,
            "contract": "contracts/RAMV1router.sol:RAMv1Router",
            "label": "levelFiveChance",
            "offset": 0,
            "slot": "5",
            "type": "t_uint256"
          }
        ],
        "numberOfBytes": "192"
      },
      "t_uint256": {
        "encoding": "inplace",
        "label": "uint256",
        "numberOfBytes": "32"
      }
    }
  }
}