{
    "contractName": "NFTHelper",
    "abi": [
        {
            "inputs": [
                {
                    "internalType": "contract INFT",
                    "name": "_nft",
                    "type": "INFT"
                },
                {
                    "internalType": "address",
                    "name": "_who",
                    "type": "address"
                }
            ],
            "name": "balanceOf",
            "outputs": [
                {
                    "internalType": "uint256",
                    "name": "",
                    "type": "uint256"
                }
            ],
            "stateMutability": "view",
            "type": "function"
        },
        {
            "inputs": [
                {
                    "internalType": "uint256",
                    "name": "_choices",
                    "type": "uint256"
                },
                {
                    "internalType": "uint256",
                    "name": "_randomness",
                    "type": "uint256"
                }
            ],
            "name": "getRandomIndex",
            "outputs": [
                {
                    "internalType": "uint256",
                    "name": "",
                    "type": "uint256"
                }
            ],
            "stateMutability": "pure",
            "type": "function"
        }
    ],
    "bytecode": "610272610026600b82828239805160001a60731461001957fe5b30600052607381538281f3fe73000000000000000000000000000000000000000030146080604052600436106100405760003560e01c80631da0844314610045578063d81f95d414610085575b600080fd5b6100736004803603604081101561005b57600080fd5b506001600160a01b03813581169160200135166100a8565b60408051918252519081900360200190f35b6100736004803603604081101561009b57600080fd5b508035906020013561012a565b6000826001600160a01b03166370a08231836040518263ffffffff1660e01b815260040180826001600160a01b0316815260200191505060206040518083038186803b1580156100f757600080fd5b505afa15801561010b573d6000803e3d6000fd5b505050506040513d602081101561012157600080fd5b50519392505050565b60008060005b8481101561014c576101428486610154565b9150600101610130565b509392505050565b600061019683836040518060400160405280601881526020017f536166654d6174683a206d6f64756c6f206279207a65726f000000000000000081525061019d565b9392505050565b600081836102295760405162461bcd60e51b81526004018080602001828103825283818151815260200191508051906020019080838360005b838110156101ee5781810151838201526020016101d6565b50505050905090810190601f16801561021b5780820380516001836020036101000a031916815260200191505b509250505060405180910390fd5b5082848161023357fe5b0694935050505056fea264697066735822122018fa1de939bb0bd87429511036d93adb263ad3f69eec14bc19f8b3633c548b5064736f6c634300060c0033",
    "sourcePath": "/Users/225153/Projects/proxy-test/contracts/libraries/NFTHelper.sol",
    "compiler": {
        "name": "solc",
        "version": "0.6.12+commit.27d51765"
    },
    "functionHashes": {
        "balanceOf(INFT,address)": "1da08443",
        "getRandomIndex(uint256,uint256)": "d81f95d4"
    },
    "gasEstimates": {
        "creation": {
            "codeDepositCost": "125200",
            "executionCost": "196",
            "totalCost": "125396"
        },
        "external": {
            "balanceOf(INFT,address)": "infinite",
            "getRandomIndex(uint256,uint256)": "infinite"
        },
        "internal": {
            "isOwner(contract INFT,address,uint256)": "infinite",
            "tokenURI(contract INFT)": "infinite"
        }
    }
}