{
  "address": "0x656FED39b173080199bb8753d63bE434F4a8e95E",
  "abi": [
    {
      "inputs": [
        {
          "internalType": "contract YGYStorageV1",
          "name": "__storage",
          "type": "address"
        }
      ],
      "stateMutability": "nonpayable",
      "type": "constructor"
    },
    {
      "anonymous": false,
      "inputs": [
        {
          "indexed": false,
          "internalType": "string",
          "name": "tokenName",
          "type": "string"
        },
        {
          "indexed": false,
          "internalType": "address",
          "name": "from",
          "type": "address"
        },
        {
          "indexed": false,
          "internalType": "uint256",
          "name": "tokenId",
          "type": "uint256"
        }
      ],
      "name": "NFTBurned",
      "type": "event"
    },
    {
      "anonymous": false,
      "inputs": [
        {
          "indexed": false,
          "internalType": "string",
          "name": "tokenName",
          "type": "string"
        },
        {
          "indexed": false,
          "internalType": "address",
          "name": "to",
          "type": "address"
        },
        {
          "indexed": false,
          "internalType": "uint256",
          "name": "tokenId",
          "type": "uint256"
        }
      ],
      "name": "NFTMinted",
      "type": "event"
    },
    {
      "anonymous": false,
      "inputs": [
        {
          "indexed": true,
          "internalType": "address",
          "name": "previousOwner",
          "type": "address"
        },
        {
          "indexed": true,
          "internalType": "address",
          "name": "newOwner",
          "type": "address"
        }
      ],
      "name": "OwnershipTransferred",
      "type": "event"
    },
    {
      "inputs": [
        {
          "internalType": "contract INFT",
          "name": "_nft",
          "type": "address"
        },
        {
          "internalType": "address",
          "name": "_who",
          "type": "address"
        }
      ],
      "name": "balanceOf",
      "outputs": [
        {
          "internalType": "uint256",
          "name": "",
          "type": "uint256"
        }
      ],
      "stateMutability": "view",
      "type": "function"
    },
    {
      "inputs": [
        {
          "internalType": "address",
          "name": "_addr",
          "type": "address"
        }
      ],
      "name": "bondContract",
      "outputs": [
        {
          "internalType": "bool",
          "name": "",
          "type": "bool"
        }
      ],
      "stateMutability": "nonpayable",
      "type": "function"
    },
    {
      "inputs": [],
      "name": "bondedContract",
      "outputs": [
        {
          "internalType": "address",
          "name": "",
          "type": "address"
        }
      ],
      "stateMutability": "view",
      "type": "function"
    },
    {
      "inputs": [
        {
          "internalType": "contract INFT",
          "name": "_nft",
          "type": "address"
        },
        {
          "internalType": "uint256",
          "name": "_tokenId",
          "type": "uint256"
        }
      ],
      "name": "burn",
      "outputs": [],
      "stateMutability": "nonpayable",
      "type": "function"
    },
    {
      "inputs": [
        {
          "internalType": "uint256",
          "name": "",
          "type": "uint256"
        }
      ],
      "name": "contracts",
      "outputs": [
        {
          "internalType": "address",
          "name": "",
          "type": "address"
        }
      ],
      "stateMutability": "view",
      "type": "function"
    },
    {
      "inputs": [
        {
          "internalType": "string",
          "name": "name",
          "type": "string"
        },
        {
          "internalType": "string",
          "name": "symbol",
          "type": "string"
        },
        {
          "internalType": "string",
          "name": "tokenURI",
          "type": "string"
        },
        {
          "internalType": "uint256",
          "name": "contractId",
          "type": "uint256"
        },
        {
          "internalType": "uint256",
          "name": "propertyChoices",
          "type": "uint256"
        },
        {
          "internalType": "address",
          "name": "admin",
          "type": "address"
        },
        {
          "internalType": "bool",
          "name": "allowTrade",
          "type": "bool"
        },
        {
          "internalType": "bool",
          "name": "isCapped",
          "type": "bool"
        },
        {
          "internalType": "uint256",
          "name": "capAmount",
          "type": "uint256"
        },
        {
          "internalType": "address",
          "name": "_ramVault",
          "type": "address"
        }
      ],
      "name": "deployNFT",
      "outputs": [
        {
          "internalType": "contract NFT",
          "name": "newContract",
          "type": "address"
        }
      ],
      "stateMutability": "nonpayable",
      "type": "function"
    },
    {
      "inputs": [],
      "name": "getContractCount",
      "outputs": [
        {
          "internalType": "uint256",
          "name": "contractCount",
          "type": "uint256"
        }
      ],
      "stateMutability": "view",
      "type": "function"
    },
    {
      "inputs": [
        {
          "internalType": "address",
          "name": "",
          "type": "address"
        }
      ],
      "name": "inUse",
      "outputs": [
        {
          "internalType": "bool",
          "name": "",
          "type": "bool"
        }
      ],
      "stateMutability": "view",
      "type": "function"
    },
    {
      "inputs": [
        {
          "internalType": "contract INFT",
          "name": "_nft",
          "type": "address"
        },
        {
          "internalType": "address",
          "name": "_who",
          "type": "address"
        },
        {
          "internalType": "uint256",
          "name": "_tokenId",
          "type": "uint256"
        }
      ],
      "name": "isOwner",
      "outputs": [
        {
          "internalType": "bool",
          "name": "",
          "type": "bool"
        }
      ],
      "stateMutability": "view",
      "type": "function"
    },
    {
      "inputs": [
        {
          "internalType": "contract INFT",
          "name": "_nft",
          "type": "address"
        },
        {
          "internalType": "address",
          "name": "_to",
          "type": "address"
        },
        {
          "internalType": "uint256",
          "name": "_randomness",
          "type": "uint256"
        }
      ],
      "name": "mint",
      "outputs": [
        {
          "internalType": "uint256",
          "name": "",
          "type": "uint256"
        }
      ],
      "stateMutability": "nonpayable",
      "type": "function"
    },
    {
      "inputs": [],
      "name": "owner",
      "outputs": [
        {
          "internalType": "address",
          "name": "",
          "type": "address"
        }
      ],
      "stateMutability": "view",
      "type": "function"
    },
    {
      "inputs": [],
      "name": "renounceOwnership",
      "outputs": [],
      "stateMutability": "nonpayable",
      "type": "function"
    },
    {
      "inputs": [
        {
          "internalType": "address",
          "name": "_nft",
          "type": "address"
        },
        {
          "components": [
            {
              "internalType": "string",
              "name": "pType",
              "type": "string"
            },
            {
              "internalType": "uint256",
              "name": "pValue",
              "type": "uint256"
            },
            {
              "internalType": "bytes32",
              "name": "extra",
              "type": "bytes32"
            }
          ],
          "internalType": "struct YGYStorageV1.NFTProperty[]",
          "name": "_properties",
          "type": "tuple[]"
        }
      ],
      "name": "setNFTProperties",
      "outputs": [],
      "stateMutability": "nonpayable",
      "type": "function"
    },
    {
      "inputs": [
        {
          "internalType": "address",
          "name": "_nft",
          "type": "address"
        },
        {
          "internalType": "bool",
          "name": "_inUse",
          "type": "bool"
        }
      ],
      "name": "setNFTUsage",
      "outputs": [],
      "stateMutability": "nonpayable",
      "type": "function"
    },
    {
      "inputs": [
        {
          "internalType": "address",
          "name": "newOwner",
          "type": "address"
        }
      ],
      "name": "transferOwnership",
      "outputs": [],
      "stateMutability": "nonpayable",
      "type": "function"
    },
    {
      "inputs": [
        {
          "internalType": "contract INFT",
          "name": "_nft",
          "type": "address"
        },
        {
          "internalType": "uint256",
          "name": "_tokenId",
          "type": "uint256"
        },
        {
          "internalType": "uint256",
          "name": "_poolId",
          "type": "uint256"
        }
      ],
      "name": "useNFT",
      "outputs": [],
      "stateMutability": "nonpayable",
      "type": "function"
    }
  ],
  "transactionHash": "0x0ebd8c1ffad920d818f4a4d6e64dd1ff23ca09d6ae766914d972eb2a2fdf6c16",
  "args": [
    "0x1BAC3c3268Ee8Fb3a82443453CC83d1a9DCA3C11"
  ],
  "solcInputHash": "a5dcf25e21799f394871460dd911d43d",
  "bytecode": "0x60806040523480156200001157600080fd5b50604051620048fe380380620048fe8339810160408190526200003491620002cb565b6200003e62000064565b600080546001600160a01b0319166001600160a01b039290921691909117905562000349565b600054600160a81b900460ff16806200008257506200008262000124565b80620000985750600054600160a01b900460ff16155b620000c05760405162461bcd60e51b8152600401620000b790620002fb565b60405180910390fd5b600054600160a81b900460ff16158015620000f8576000805460ff60a01b1960ff60a81b19909116600160a81b1716600160a01b1790555b620001026200012a565b6200010c620001cb565b801562000121576000805460ff60a81b191690555b50565b303b1590565b600054600160a81b900460ff16806200014857506200014862000124565b806200015e5750600054600160a01b900460ff16155b6200017d5760405162461bcd60e51b8152600401620000b790620002fb565b600054600160a81b900460ff161580156200010c576000805460ff60a01b1960ff60a81b19909116600160a81b1716600160a01b179055801562000121576000805460ff60a81b1916905550565b600054600160a81b900460ff1680620001e95750620001e962000124565b80620001ff5750600054600160a01b900460ff16155b6200021e5760405162461bcd60e51b8152600401620000b790620002fb565b600054600160a81b900460ff1615801562000256576000805460ff60a01b1960ff60a81b19909116600160a81b1716600160a01b1790555b600062000262620002c7565b606580546001600160a01b0319166001600160a01b038316908117909155604051919250906000907f8be0079c531659141344cd1fd0a4f28419497f9722a3daafe3b4186f6b6457e0908290a350801562000121576000805460ff60a81b1916905550565b3390565b600060208284031215620002dd578081fd5b81516001600160a01b0381168114620002f4578182fd5b9392505050565b6020808252602e908201527f436f6e747261637420696e7374616e63652068617320616c726561647920626560408201526d195b881a5b9a5d1a585b1a5e995960921b606082015260800190565b6145a580620003596000396000f3fe60806040523480156200001157600080fd5b5060043610620001185760003560e01c80639dc29fac11620000a5578063e11f8a26116200006f578063e11f8a261462000235578063f2fde38b146200024c578063f370e8c51462000263578063f7888aec146200027a5762000118565b80639dc29fac14620001e6578063b63e491c14620001fd578063bf184f931462000214578063c6c3bbe6146200021e5762000118565b8063715018a611620000e7578063715018a614620001a25780638da5cb5b14620001ac5780638f17e9f514620001b65780639399869d14620001cd5762000118565b806322f2cce9146200011d57806324705db31462000136578063474da79a14620001655780635af0de22146200018b575b600080fd5b620001346200012e3660046200104f565b62000291565b005b6200014d6200014736600462000f0f565b620002ff565b6040516200015c919062001521565b60405180910390f35b6200017c62000176366004620013ab565b6200034e565b6040516200015c91906200140b565b620001346200019c366004620011fc565b62000376565b620001346200066b565b6200017c620006ef565b6200014d620001c736600462000f0f565b620006fe565b620001d762000713565b6040516200015c9190620016e9565b62000134620001f7366004620011ce565b62000719565b6200017c6200020e366004620012af565b6200090e565b6200017c62000a4d565b620001d76200022f36600462001189565b62000a5c565b620001346200024636600462000f54565b62000c05565b620001346200025d36600462000f0f565b62000c99565b6200014d6200027436600462001189565b62000d58565b620001d76200028b3660046200114c565b62000df8565b6200029b62000e86565b6065546001600160a01b03908116911614620002d45760405162461bcd60e51b8152600401620002cb9062001660565b60405180910390fd5b6001600160a01b03919091166000908152609a60205260409020805460ff1916911515919091179055565b60006200030b620006ef565b6001600160a01b0316336001600160a01b0316146200032957600080fd5b50609880546001600160a01b0383166001600160a01b03199091161790556001919050565b609781815481106200035c57fe5b6000918252602090912001546001600160a01b0316905081565b6040516331a9108f60e11b815233906001600160a01b03851690636352211e90620003a6908690600401620016e9565b60206040518083038186803b158015620003bf57600080fd5b505afa158015620003d4573d6000803e3d6000fd5b505050506040513d601f19601f82011682018060405250810190620003fa919062000f35565b6001600160a01b031614620004235760405162461bcd60e51b8152600401620002cb9062001695565b6000546040516330ff3d9760e01b81526060916001600160a01b0316906330ff3d9790620004569033906004016200140b565b60006040518083038186803b1580156200046f57600080fd5b505afa15801562000484573d6000803e3d6000fd5b505050506040513d6000823e601f3d908101601f19168201604052620004ae919081019062001089565b90506000846001600160a01b0316638291286c6040518163ffffffff1660e01b815260040160206040518083038186803b158015620004ec57600080fd5b505afa15801562000501573d6000803e3d6000fd5b505050506040513d601f19601f82011682018060405250810190620005279190620013c4565b90506000805b83518110156200056b57828482815181106200054557fe5b60200260200101516000015114156200056257600191506200056b565b6001016200052d565b5080156200058d5760405162461bcd60e51b8152600401620002cb90620016bd565b6099546040516323b872dd60e01b81526001600160a01b03808916926323b872dd92620005c392339216908a906004016200141f565b600060405180830381600087803b158015620005de57600080fd5b505af1158015620005f3573d6000803e3d6000fd5b5050609954604051632edb255d60e11b81526001600160a01b039091169250635db64aba91506200062f9033908a908a908a9060040162001443565b600060405180830381600087803b1580156200064a57600080fd5b505af11580156200065f573d6000803e3d6000fd5b50505050505050505050565b6200067562000e86565b6065546001600160a01b03908116911614620006a55760405162461bcd60e51b8152600401620002cb9062001660565b6065546040516000916001600160a01b0316907f8be0079c531659141344cd1fd0a4f28419497f9722a3daafe3b4186f6b6457e0908390a3606580546001600160a01b0319169055565b6065546001600160a01b031690565b609a6020526000908152604090205460ff1681565b60975490565b6200072362000e86565b6001600160a01b0316826001600160a01b0316636352211e836040518263ffffffff1660e01b81526004016200075a9190620016e9565b60206040518083038186803b1580156200077357600080fd5b505afa15801562000788573d6000803e3d6000fd5b505050506040513d601f19601f82011682018060405250810190620007ae919062000f35565b6001600160a01b03161480620007e057506098546001600160a01b0316620007d562000e86565b6001600160a01b0316145b620007ea57600080fd5b604051630852cd8d60e31b81526001600160a01b038316906342966c689062000818908490600401620016e9565b600060405180830381600087803b1580156200083357600080fd5b505af115801562000848573d6000803e3d6000fd5b505050507f9fd5e03e81a19319baa416b857469a80358cba426888c502e0e1a925dda26f5f826001600160a01b03166306fdde036040518163ffffffff1660e01b815260040160006040518083038186803b158015620008a757600080fd5b505afa158015620008bc573d6000803e3d6000fd5b505050506040513d6000823e601f3d908101601f19168201604052620008e6919081019062001233565b620008f062000e86565b8360405162000902939291906200152c565b60405180910390a15050565b60006200091a620006ef565b6001600160a01b03166200092d62000e86565b6001600160a01b031614806200095f57506098546001600160a01b03166200095462000e86565b6001600160a01b0316145b6200097e5760405162461bcd60e51b8152600401620002cb906200162b565b81609960006101000a8154816001600160a01b0302191690836001600160a01b0316021790555060008b8b8b8b8b8b8b8b8b8b604051620009bf9062000e8a565b620009d49a999897969594939291906200155c565b604051809103906000f080158015620009f1573d6000803e3d6000fd5b50609780546001810182556000919091527f354a83ed9988f79f6038d4c7a7dadbad8af32f4ad6df893e0e5807a1b1944ff90180546001600160a01b0319166001600160a01b0383161790559c9b505050505050505050505050565b6098546001600160a01b031681565b6098546000906001600160a01b031662000a7562000e86565b6001600160a01b0316148062000aae575062000a90620006ef565b6001600160a01b031662000aa362000e86565b6001600160a01b0316145b62000ab857600080fd5b60008054604051630d4d151360e01b81526001600160a01b0380881692630d4d15139262000af09289928992911690600401620014fe565b602060405180830381600087803b15801562000b0b57600080fd5b505af115801562000b20573d6000803e3d6000fd5b505050506040513d601f19601f8201168201806040525081019062000b469190620013c4565b90507f163ce421fac3059ce58ba6a093aff4bd0f6b3bb35c5c48acaf9c18b7626e86ce856001600160a01b03166306fdde036040518163ffffffff1660e01b815260040160006040518083038186803b15801562000ba357600080fd5b505afa15801562000bb8573d6000803e3d6000fd5b505050506040513d6000823e601f3d908101601f1916820160405262000be2919081019062001233565b858360405162000bf5939291906200152c565b60405180910390a1949350505050565b62000c0f620006ef565b6001600160a01b0316336001600160a01b03161462000c2d57600080fd5b600054604051630cd2e09d60e11b81526001600160a01b03909116906319a5c13a9062000c6190859085906004016200146c565b600060405180830381600087803b15801562000c7c57600080fd5b505af115801562000c91573d6000803e3d6000fd5b505050505050565b62000ca362000e86565b6065546001600160a01b0390811691161462000cd35760405162461bcd60e51b8152600401620002cb9062001660565b6001600160a01b03811662000cfc5760405162461bcd60e51b8152600401620002cb90620015e5565b6065546040516001600160a01b038084169216907f8be0079c531659141344cd1fd0a4f28419497f9722a3daafe3b4186f6b6457e090600090a3606580546001600160a01b0319166001600160a01b0392909216919091179055565b6000826001600160a01b0316846001600160a01b0316636352211e846040518263ffffffff1660e01b815260040162000d929190620016e9565b60206040518083038186803b15801562000dab57600080fd5b505afa15801562000dc0573d6000803e3d6000fd5b505050506040513d601f19601f8201168201806040525081019062000de6919062000f35565b6001600160a01b031614949350505050565b6040516370a0823160e01b81526000906001600160a01b038416906370a082319062000e299085906004016200140b565b60206040518083038186803b15801562000e4257600080fd5b505afa15801562000e57573d6000803e3d6000fd5b505050506040513d601f19601f8201168201806040525081019062000e7d9190620013c4565b90505b92915050565b3390565b612dc380620017ad83390190565b803562000e808162001793565b8035801515811462000e8057600080fd5b600082601f83011262000ec7578081fd5b813562000ede62000ed8826200173b565b620016f2565b915080825283602082850101111562000ef657600080fd5b8060208401602084013760009082016020015292915050565b60006020828403121562000f21578081fd5b813562000f2e8162001793565b9392505050565b60006020828403121562000f47578081fd5b815162000f2e8162001793565b6000806040838503121562000f67578081fd5b823562000f748162001793565b915060208381013567ffffffffffffffff8082111562000f92578384fd5b818601915086601f83011262000fa6578384fd5b813562000fb762000ed8826200171a565b81815284810190848601875b848110156200103e57813587016060818e03601f1901121562000fe457898afd5b62000ff06060620016f2565b898201358881111562001001578b8cfd5b620010118f8c8386010162000eb6565b8252506040828101358b830152606090920135918101919091528452928701929087019060010162000fc3565b50979a909950975050505050505050565b6000806040838503121562001062578182fd5b82356200106f8162001793565b915062001080846020850162000ea5565b90509250929050565b600060208083850312156200109c578182fd5b825167ffffffffffffffff811115620010b3578283fd5b8301601f81018513620010c4578283fd5b8051620010d562000ed8826200171a565b818152838101908385016040808502860187018a1015620010f4578788fd5b8795505b848610156200113e5780828b03121562001110578788fd5b6200111b81620016f2565b8251815287830151888201528452600195909501949286019290810190620010f8565b509098975050505050505050565b600080604083850312156200115f578182fd5b82356200116c8162001793565b915060208301356200117e8162001793565b809150509250929050565b6000806000606084860312156200119e578081fd5b8335620011ab8162001793565b92506020840135620011bd8162001793565b929592945050506040919091013590565b60008060408385031215620011e1578182fd5b8235620011ee8162001793565b946020939093013593505050565b60008060006060848603121562001211578283fd5b83356200121e8162001793565b95602085013595506040909401359392505050565b60006020828403121562001245578081fd5b815167ffffffffffffffff8111156200125c578182fd5b8201601f810184136200126d578182fd5b80516200127e62000ed8826200173b565b81815285602083850101111562001293578384fd5b620012a682602083016020860162001760565b95945050505050565b6000806000806000806000806000806101408b8d031215620012cf578788fd5b8a3567ffffffffffffffff80821115620012e757898afd5b620012f58e838f0162000eb6565b9b5060208d01359150808211156200130b57898afd5b620013198e838f0162000eb6565b9a5060408d01359150808211156200132f57898afd5b506200133e8d828e0162000eb6565b98505060608b0135965060808b013595506200135e8c60a08d0162000e98565b94506200136f8c60c08d0162000ea5565b9350620013808c60e08d0162000ea5565b92506101008b013591506200139a8c6101208d0162000e98565b90509295989b9194979a5092959850565b600060208284031215620013bd578081fd5b5035919050565b600060208284031215620013d6578081fd5b5051919050565b60008151808452620013f781602086016020860162001760565b601f01601f19169290920160200192915050565b6001600160a01b0391909116815260200190565b6001600160a01b039384168152919092166020820152604081019190915260600190565b6001600160a01b0394851681529290931660208301526040820152606081019190915260800190565b6001600160a01b0383168152604060208083018290528351838301819052600092916060918286019080830287018401888401875b83811015620014ee57898303605f1901855281518051888552620014c889860182620013dd565b82890151868a0152918a0151948a019490945294860194925090850190600101620014a1565b50909a9950505050505050505050565b6001600160a01b0393841681526020810192909252909116604082015260600190565b901515815260200190565b600060608252620015416060830186620013dd565b6001600160a01b039490941660208301525060400152919050565b6000610140808352620015728184018e620013dd565b9050828103602084015262001588818d620013dd565b905082810360408401526200159e818c620013dd565b606084019a909a52505060808101969096526001600160a01b0394851660a087015292151560c086015290151560e085015261010084015216610120909101529392505050565b60208082526026908201527f4f776e61626c653a206e6577206f776e657220697320746865207a65726f206160408201526564647265737360d01b606082015260800190565b6020808252818101527f496e76616c69642063616c6c65723a2063616e2774206465706c6f79204e4654604082015260600190565b6020808252818101527f4f776e61626c653a2063616c6c6572206973206e6f7420746865206f776e6572604082015260600190565b6020808252600e908201526d2ab9b2b9103737ba1037bbb732b960911b604082015260600190565b6020808252601290820152714e465420616c726561647920696e2075736560701b604082015260600190565b90815260200190565b60405181810167ffffffffffffffff811182821017156200171257600080fd5b604052919050565b600067ffffffffffffffff82111562001731578081fd5b5060209081020190565b600067ffffffffffffffff82111562001752578081fd5b50601f01601f191660200190565b60005b838110156200177d57818101518382015260200162001763565b838111156200178d576000848401525b50505050565b6001600160a01b0381168114620017a957600080fd5b5056fe60806040523480156200001157600080fd5b5060405162002dc338038062002dc3833981016040819052620000349162000552565b89898982609d90805190602001906200004f929190620003e6565b5081516200006590609e906020850190620003e6565b5080516200007b90609f906020840190620003e6565b506200008e6380ac58cd60e01b62000145565b620000a0635b5e139f60e01b62000145565b620000b263780e9d6360e01b62000145565b505060d3805460ff19168615151761ff001916610100861515021790555060d482905560d287905560d7869055620000e9620001a0565b6200010d60008051602062002da38339815191526200010762000240565b62000244565b6200012860008051602062002da38339815191528262000244565b6200013560008662000244565b50505050505050505050620006d2565b6001600160e01b031980821614156200017b5760405162461bcd60e51b815260040162000172906200064d565b60405180910390fd5b6001600160e01b0319166000908152606560205260409020805460ff19166001179055565b600054610100900460ff1680620001bc5750620001bc62000254565b80620001cb575060005460ff16155b620001ea5760405162461bcd60e51b8152600401620001729062000684565b600054610100900460ff1615801562000216576000805460ff1961ff0019909116610100171660011790555b620002206200025a565b6200022a6200025a565b80156200023d576000805461ff00191690555b50565b3390565b620002508282620002e4565b5050565b303b1590565b600054610100900460ff16806200027657506200027662000254565b8062000285575060005460ff16155b620002a45760405162461bcd60e51b8152600401620001729062000684565b600054610100900460ff161580156200022a576000805460ff1961ff00199091166101001716600117905580156200023d576000805461ff001916905550565b600082815260a0602090815260409091206200030b91839062000f146200035f821b17901c565b1562000250576200031b62000240565b6001600160a01b0316816001600160a01b0316837f2f8788117e7eff1d82e926ec794901d17c78024a50270940304540a733656f0d60405160405180910390a45050565b600062000376836001600160a01b0384166200037f565b90505b92915050565b60006200038d8383620003ce565b620003c55750815460018181018455600084815260208082209093018490558454848252828601909352604090209190915562000379565b50600062000379565b60009081526001919091016020526040902054151590565b828054600181600116156101000203166002900490600052602060002090601f016020900481019282601f106200042957805160ff191683800117855562000459565b8280016001018555821562000459579182015b82811115620004595782518255916020019190600101906200043c565b50620004679291506200046b565b5090565b5b808211156200046757600081556001016200046c565b80516001600160a01b03811681146200037957600080fd5b805180151581146200037957600080fd5b600082601f830112620004bc578081fd5b81516001600160401b0380821115620004d3578283fd5b6040516020601f8401601f1916820181018381118382101715620004f5578586fd5b806040525081945083825286818588010111156200051257600080fd5b600092505b8383101562000536578583018101518284018201529182019162000517565b83831115620005485760008185840101525b5050505092915050565b6000806000806000806000806000806101408b8d03121562000572578586fd5b8a516001600160401b038082111562000589578788fd5b620005978e838f01620004ab565b9b5060208d0151915080821115620005ad578788fd5b620005bb8e838f01620004ab565b9a5060408d0151915080821115620005d1578788fd5b50620005e08d828e01620004ab565b98505060608b0151965060808b01519550620006008c60a08d0162000482565b9450620006118c60c08d016200049a565b9350620006228c60e08d016200049a565b92506101008b015191506200063c8c6101208d0162000482565b90509295989b9194979a5092959850565b6020808252601c908201527f4552433136353a20696e76616c696420696e7465726661636520696400000000604082015260600190565b6020808252602e908201527f436f6e747261637420696e7374616e63652068617320616c726561647920626560408201526d195b881a5b9a5d1a585b1a5e995960921b606082015260800190565b6126c180620006e26000396000f3fe608060405234801561001057600080fd5b50600436106101fb5760003560e01c806370a082311161011a578063b4ce37d2116100ad578063d547741f1161007c578063d547741f14610413578063e0df5b6f14610426578063e63ab1e914610439578063e985e9c514610441578063f7b1080814610454576101fb565b8063b4ce37d2146103d2578063b88d4fde146103da578063c87b56dd146103ed578063ca15c87314610400576101fb565b806391d14854116100e957806391d148541461039c57806395d89b41146103af578063a217fddf146103b7578063a22cb465146103bf576101fb565b806370a082311461036657806375071d2a146103795780638291286c146103815780639010d07c14610389576101fb565b80632f2ff15d1161019257806342842e0e1161016157806342842e0e1461031a57806342966c681461032d5780634f6ccce7146103405780636352211e14610353576101fb565b80632f2ff15d146102c15780632f745c59146102d457806336568abe146102e757806338e5cdce146102fa576101fb565b80630d4d1513116101ce5780630d4d15131461027357806318160ddd1461029357806323b872dd1461029b578063248a9ca3146102ae576101fb565b806301ffc9a71461020057806306fdde0314610229578063081812fc1461023e578063095ea7b31461025e575b600080fd5b61021361020e366004611d89565b610476565b6040516102209190611f13565b60405180910390f35b610231610495565b6040516102209190611f27565b61025161024c366004611d2c565b61052b565b6040516102209190611ec2565b61027161026c366004611cc0565b610577565b005b610286610281366004611ceb565b61060f565b6040516102209190611f1e565b6102866107b0565b6102716102a9366004611be5565b6107c1565b6102866102bc366004611d2c565b6107d7565b6102716102cf366004611d44565b6107ec565b6102866102e2366004611cc0565b610834565b6102716102f5366004611d44565b61085f565b61030d610308366004611d2c565b6108a1565b6040516102209190612556565b610271610328366004611be5565b61096b565b61027161033b366004611d2c565b610986565b61028661034e366004611d2c565b6109f2565b610251610361366004611d2c565b610a08565b610286610374366004611b91565b610a30565b610286610a79565b610286610a8b565b610251610397366004611d68565b610a91565b6102136103aa366004611d44565b610aa9565b610231610ac1565b610286610b22565b6102716103cd366004611c8f565b610b27565b610231610bf5565b6102716103e8366004611c25565b610c83565b6102316103fb366004611d2c565b610cc2565b61028661040e366004611d2c565b610d7b565b610271610421366004611d44565b610d92565b610271610434366004611dc1565b610dcc565b610286610e15565b61021361044f366004611bad565b610e39565b610467610462366004611d2c565b610e67565b60405161022093929190611f3a565b6001600160e01b03191660009081526065602052604090205460ff1690565b609d8054604080516020601f60026000196101006001881615020190951694909404938401819004810282018101909252828152606093909290918301828280156105215780601f106104f657610100808354040283529160200191610521565b820191906000526020600020905b81548152906001019060200180831161050457829003601f168201915b5050505050905090565b600061053682610f29565b61055b5760405162461bcd60e51b8152600401610552906122e5565b60405180910390fd5b506000908152609b60205260409020546001600160a01b031690565b600061058282610a08565b9050806001600160a01b0316836001600160a01b031614156105b65760405162461bcd60e51b815260040161055290612419565b806001600160a01b03166105c8610f36565b6001600160a01b031614806105e457506105e48161044f610f36565b6106005760405162461bcd60e51b8152600401610552906121c7565b61060a8383610f3a565b505050565b60d354600090610100900460ff161580610644575060d354610100900460ff168015610644575060d4546106416107b0565b11155b6106605760405162461bcd60e51b815260040161055290612356565b61067a6000805160206126438339815191526103aa610f36565b6106965760405162461bcd60e51b815260040161055290612331565b60006106a185610fa8565b90506000600160d75411156106c15760d7546106be908690610fcb565b90505b6060600080866001600160a01b0316635498d4c06106eb600160d25461100d90919063ffffffff16565b866040518363ffffffff1660e01b8152600401610709929190612592565b60006040518083038186803b15801561072157600080fd5b505afa158015610735573d6000803e3d6000fd5b505050506040513d6000823e601f3d908101601f1916820160405261075d9190810190611df4565b600088815260d66020908152604090912084519497509295509093506107869290860190611a87565b50600085815260d660205260409020600181019290925560029091015550909150505b9392505050565b60006107bc6099611032565b905090565b6107cc83838361103d565b61060a8383836110ab565b600090815260a0602052604090206002015490565b600082815260a0602052604090206002015461080a906103aa610f36565b6108265760405162461bcd60e51b815260040161055290611fa1565b61083082826110e3565b5050565b6001600160a01b0382166000908152609860205260408120610856908361114c565b90505b92915050565b610867610f36565b6001600160a01b0316816001600160a01b0316146108975760405162461bcd60e51b815260040161055290612507565b6108308282611158565b6108a9611b05565b600082815260d660209081526040918290208251815460026001821615610100026000190190911604601f810184900490930281016080908101909452606081018381529093919284928491908401828280156109475780601f1061091c57610100808354040283529160200191610947565b820191906000526020600020905b81548152906001019060200180831161092a57829003601f168201915b50505050508152602001600182015481526020016002820154815250509050919050565b61060a83838360405180602001604052806000815250610c83565b61098e610f36565b6001600160a01b03166109a082610a08565b6001600160a01b031614806109ca57506109ca6000805160206126438339815191526103aa610f36565b6109e65760405162461bcd60e51b815260040161055290612331565b6109ef816111c1565b50565b600080610a00609984611250565b509392505050565b600061085982604051806060016040528060298152602001612663602991396099919061126c565b60006001600160a01b038216610a585760405162461bcd60e51b815260040161055290612224565b6001600160a01b038216600090815260986020526040902061085990611032565b60008051602061264383398151915281565b60d25481565b600082815260a060205260408120610856908361114c565b600082815260a0602052604081206108569083611281565b609e8054604080516020601f60026000196101006001881615020190951694909404938401819004810282018101909252828152606093909290918301828280156105215780601f106104f657610100808354040283529160200191610521565b600081565b610b2f610f36565b6001600160a01b0316826001600160a01b03161415610b605760405162461bcd60e51b8152600401610552906120f4565b80609c6000610b6d610f36565b6001600160a01b03908116825260208083019390935260409182016000908120918716808252919093529120805460ff191692151592909217909155610bb1610f36565b6001600160a01b03167f17307eab39ab6107e8899845ad3d59bd9653f200f220920489ca2b5937696c3183604051610be99190611f13565b60405180910390a35050565b609f805460408051602060026001851615610100026000190190941693909304601f81018490048402820184019092528181529291830182828015610c7b5780601f10610c5057610100808354040283529160200191610c7b565b820191906000526020600020905b815481529060010190602001808311610c5e57829003601f168201915b505050505081565b610c94610c8e610f36565b83611296565b610cb05760405162461bcd60e51b815260040161055290612491565b610cbc84848484611313565b50505050565b6060610ccd82610f29565b610ce95760405162461bcd60e51b8152600401610552906123ca565b609f805460408051602060026001851615610100026000190190941693909304601f81018490048402820184019092528181529291830182828015610d6f5780601f10610d4457610100808354040283529160200191610d6f565b820191906000526020600020905b815481529060010190602001808311610d5257829003601f168201915b50505050509050919050565b600081815260a06020526040812061085990611032565b600082815260a06020526040902060020154610db0906103aa610f36565b6108975760405162461bcd60e51b815260040161055290612177565b610de66000805160206126438339815191526103aa610f36565b610e025760405162461bcd60e51b8152600401610552906124e2565b805161083090609f906020840190611a87565b7f65d7a28e3265b37a6474929f336521b332c1681b933f6cb9f3376673440d862a81565b6001600160a01b039182166000908152609c6020908152604080832093909416825291909152205460ff1690565b60d66020908152600091825260409182902080548351601f60026000196101006001861615020190931692909204918201849004840281018401909452808452909291839190830182828015610efe5780601f10610ed357610100808354040283529160200191610efe565b820191906000526020600020905b815481529060010190602001808311610ee157829003601f168201915b5050505050908060010154908060020154905083565b6000610856836001600160a01b038416611346565b6000610859609983611390565b3390565b6000818152609b6020526040902080546001600160a01b0319166001600160a01b0384169081179091558190610f6f82610a08565b6001600160a01b03167f8c5be1e5ebec7d5bd14f71427d1e84f3dd0314c0f7b2291e5b200ac8c7c3b92560405160405180910390a45050565b600080610fb5609761139c565b9050610fc183826113a0565b6108596097611464565b600061085683836040518060400160405280601881526020017f536166654d6174683a206d6f64756c6f206279207a65726f000000000000000081525061146d565b6000828201838110156108565760405162461bcd60e51b815260040161055290612079565b60006108598261139c565b60d35460ff168061106357506110636000805160206126438339815191526103aa610f36565b8061108f575060d35460ff1615801561108f575061108f60008051602061264383398151915283610aa9565b61060a5760405162461bcd60e51b81526004016105529061245a565b6110bc6110b6610f36565b82611296565b6110d85760405162461bcd60e51b815260040161055290612491565b61060a8383836114a1565b600082815260a0602052604090206110fb9082610f14565b1561083057611108610f36565b6001600160a01b0316816001600160a01b0316837f2f8788117e7eff1d82e926ec794901d17c78024a50270940304540a733656f0d60405160405180910390a45050565b600061085683836115af565b600082815260a06020526040902061117090826115f4565b156108305761117d610f36565b6001600160a01b0316816001600160a01b0316837ff6391f5c32d9c69d2a47ea670b442974b53935d1edc7fd64eb21e047a839171b60405160405180910390a45050565b60006111cc82610a08565b90506111da8160008461103d565b6111e5600083610f3a565b6001600160a01b03811660009081526098602052604090206112079083611609565b50611213609983611615565b5060405182906000906001600160a01b038416907fddf252ad1be2c89b69c2b068fc378daa952ba7f163c4a11628f55a4df523b3ef908390a45050565b600080808061125f8686611621565b9097909650945050505050565b600061127984848461167d565b949350505050565b6000610856836001600160a01b0384166116dc565b60006112a182610f29565b6112bd5760405162461bcd60e51b81526004016105529061212b565b60006112c883610a08565b9050806001600160a01b0316846001600160a01b031614806113035750836001600160a01b03166112f88461052b565b6001600160a01b0316145b8061127957506112798185610e39565b61131e8484846114a1565b61132a848484846116f4565b610cbc5760405162461bcd60e51b815260040161055290611ff0565b600061135283836116dc565b61138857508154600181810184556000848152602080822090930184905584548482528286019093526040902091909155610859565b506000610859565b600061085683836116dc565b5490565b6001600160a01b0382166113c65760405162461bcd60e51b8152600401610552906122b0565b6113cf81610f29565b156113ec5760405162461bcd60e51b815260040161055290612042565b6113f86000838361103d565b6001600160a01b038216600090815260986020526040902061141a908261182e565b506114276099828461183a565b5060405181906001600160a01b038416906000907fddf252ad1be2c89b69c2b068fc378daa952ba7f163c4a11628f55a4df523b3ef908290a45050565b80546001019055565b6000818361148e5760405162461bcd60e51b81526004016105529190611f27565b5082848161149857fe5b06949350505050565b826001600160a01b03166114b482610a08565b6001600160a01b0316146114da5760405162461bcd60e51b815260040161055290612381565b6001600160a01b0382166115005760405162461bcd60e51b8152600401610552906120b0565b61150b83838361103d565b611516600082610f3a565b6001600160a01b03831660009081526098602052604090206115389082611609565b506001600160a01b038216600090815260986020526040902061155b908261182e565b506115686099828461183a565b5080826001600160a01b0316846001600160a01b03167fddf252ad1be2c89b69c2b068fc378daa952ba7f163c4a11628f55a4df523b3ef60405160405180910390a4505050565b815460009082106115d25760405162461bcd60e51b815260040161055290611f5f565b8260000182815481106115e157fe5b9060005260206000200154905092915050565b6000610856836001600160a01b038416611850565b60006108568383611850565b60006108568383611916565b8154600090819083106116465760405162461bcd60e51b81526004016105529061226e565b600084600001848154811061165757fe5b906000526020600020906002020190508060000154816001015492509250509250929050565b600082815260018401602052604081205482816116ad5760405162461bcd60e51b81526004016105529190611f27565b508460000160018203815481106116c057fe5b9060005260206000209060020201600101549150509392505050565b60009081526001919091016020526040902054151590565b6000611708846001600160a01b03166119ea565b61171457506001611279565b600060606001600160a01b038616630a85bd0160e11b611732610f36565b8988886040516024016117489493929190611ed6565b60408051601f198184030181529181526020820180516001600160e01b03166001600160e01b03199094169390931790925290516117869190611ea6565b6000604051808303816000865af19150503d80600081146117c3576040519150601f19603f3d011682016040523d82523d6000602084013e6117c8565b606091505b5091509150816117fa578051156117e25780518082602001fd5b60405162461bcd60e51b815260040161055290611ff0565b6000818060200190518101906118109190611da5565b6001600160e01b03191663e8cb20b760e01b14935061127992505050565b60006108568383611346565b600061127984846001600160a01b0385166119f0565b6000818152600183016020526040812054801561190c578354600019808301919081019060009087908390811061188357fe5b90600052602060002001549050808760000184815481106118a057fe5b6000918252602080832090910192909255828152600189810190925260409020908401905586548790806118d057fe5b60019003818190600052602060002001600090559055866001016000878152602001908152602001600020600090556001945050505050610859565b6000915050610859565b6000818152600183016020526040812054801561190c578354600019808301919081019060009087908390811061194957fe5b906000526020600020906002020190508087600001848154811061196957fe5b6000918252602080832084546002909302019182556001938401549184019190915583548252898301905260409020908401905586548790806119a857fe5b60008281526020808220600260001990940193840201828155600190810183905592909355888152898201909252604082209190915594506108599350505050565b3b151590565b600082815260018401602052604081205480611a555750506040805180820182528381526020808201848152865460018181018955600089815284812095516002909302909501918255915190820155865486845281880190925292909120556107a9565b82856000016001830381548110611a6857fe5b90600052602060002090600202016001018190555060009150506107a9565b828054600181600116156101000203166002900490600052602060002090601f016020900481019282601f10611ac857805160ff1916838001178555611af5565b82800160010185558215611af5579182015b82811115611af5578251825591602001919060010190611ada565b50611b01929150611b29565b5090565b60405180606001604052806060815260200160008152602001600080191681525090565b5b80821115611b015760008155600101611b2a565b600082601f830112611b4e578081fd5b8135611b61611b5c826125c7565b6125a0565b9150808252836020828501011115611b7857600080fd5b8060208401602084013760009082016020015292915050565b600060208284031215611ba2578081fd5b813561085681612617565b60008060408385031215611bbf578081fd5b8235611bca81612617565b91506020830135611bda81612617565b809150509250929050565b600080600060608486031215611bf9578081fd5b8335611c0481612617565b92506020840135611c1481612617565b929592945050506040919091013590565b60008060008060808587031215611c3a578081fd5b8435611c4581612617565b93506020850135611c5581612617565b925060408501359150606085013567ffffffffffffffff811115611c77578182fd5b611c8387828801611b3e565b91505092959194509250565b60008060408385031215611ca1578182fd5b8235611cac81612617565b915060208301358015158114611bda578182fd5b60008060408385031215611cd2578182fd5b8235611cdd81612617565b946020939093013593505050565b600080600060608486031215611cff578283fd5b8335611d0a81612617565b9250602084013591506040840135611d2181612617565b809150509250925092565b600060208284031215611d3d578081fd5b5035919050565b60008060408385031215611d56578182fd5b823591506020830135611bda81612617565b60008060408385031215611d7a578182fd5b50508035926020909101359150565b600060208284031215611d9a578081fd5b81356108568161262c565b600060208284031215611db6578081fd5b81516108568161262c565b600060208284031215611dd2578081fd5b813567ffffffffffffffff811115611de8578182fd5b61127984828501611b3e565b600080600060608486031215611e08578081fd5b835167ffffffffffffffff811115611e1e578182fd5b8401601f81018613611e2e578182fd5b8051611e3c611b5c826125c7565b818152876020838501011115611e50578384fd5b611e618260208301602086016125eb565b6020870151604090970151909896975095945050505050565b60008151808452611e928160208601602086016125eb565b601f01601f19169290920160200192915050565b60008251611eb88184602087016125eb565b9190910192915050565b6001600160a01b0391909116815260200190565b6001600160a01b0385811682528416602082015260408101839052608060608201819052600090611f0990830184611e7a565b9695505050505050565b901515815260200190565b90815260200190565b6000602082526108566020830184611e7a565b600060608252611f4d6060830186611e7a565b60208301949094525060400152919050565b60208082526022908201527f456e756d657261626c655365743a20696e646578206f7574206f6620626f756e604082015261647360f01b606082015260800190565b6020808252602f908201527f416363657373436f6e74726f6c3a2073656e646572206d75737420626520616e60408201526e0818591b5a5b881d1bc819dc985b9d608a1b606082015260800190565b60208082526032908201527f4552433732313a207472616e7366657220746f206e6f6e20455243373231526560408201527131b2b4bb32b91034b6b83632b6b2b73a32b960711b606082015260800190565b6020808252601c908201527f4552433732313a20746f6b656e20616c7265616479206d696e74656400000000604082015260600190565b6020808252601b908201527f536166654d6174683a206164646974696f6e206f766572666c6f770000000000604082015260600190565b60208082526024908201527f4552433732313a207472616e7366657220746f20746865207a65726f206164646040820152637265737360e01b606082015260800190565b60208082526019908201527f4552433732313a20617070726f766520746f2063616c6c657200000000000000604082015260600190565b6020808252602c908201527f4552433732313a206f70657261746f7220717565727920666f72206e6f6e657860408201526b34b9ba32b73a103a37b5b2b760a11b606082015260800190565b60208082526030908201527f416363657373436f6e74726f6c3a2073656e646572206d75737420626520616e60408201526f2061646d696e20746f207265766f6b6560801b606082015260800190565b60208082526038908201527f4552433732313a20617070726f76652063616c6c6572206973206e6f74206f7760408201527f6e6572206e6f7220617070726f76656420666f7220616c6c0000000000000000606082015260800190565b6020808252602a908201527f4552433732313a2062616c616e636520717565727920666f7220746865207a65604082015269726f206164647265737360b01b606082015260800190565b60208082526022908201527f456e756d657261626c654d61703a20696e646578206f7574206f6620626f756e604082015261647360f01b606082015260800190565b6020808252818101527f4552433732313a206d696e7420746f20746865207a65726f2061646472657373604082015260600190565b6020808252602c908201527f4552433732313a20617070726f76656420717565727920666f72206e6f6e657860408201526b34b9ba32b73a103a37b5b2b760a11b606082015260800190565b6020808252600b908201526a139bdd08185b1b1bddd95960aa1b604082015260600190565b60208082526011908201527013919508131a5b5a5d081c995858da1959607a1b604082015260600190565b60208082526029908201527f4552433732313a207472616e73666572206f6620746f6b656e2074686174206960408201526839903737ba1037bbb760b91b606082015260800190565b6020808252602f908201527f4552433732314d657461646174613a2055524920717565727920666f72206e6f60408201526e3732bc34b9ba32b73a103a37b5b2b760891b606082015260800190565b60208082526021908201527f4552433732313a20617070726f76616c20746f2063757272656e74206f776e656040820152603960f91b606082015260800190565b6020808252601b908201527f45787465726e616c20747261646573206e6f7420616c6c6f7765640000000000604082015260600190565b60208082526031908201527f4552433732313a207472616e736665722063616c6c6572206973206e6f74206f6040820152701ddb995c881b9bdc88185c1c1c9bdd9959607a1b606082015260800190565b6020808252600b908201526a4261642063616c6c65722160a81b604082015260600190565b6020808252602f908201527f416363657373436f6e74726f6c3a2063616e206f6e6c792072656e6f756e636560408201526e103937b632b9903337b91039b2b63360891b606082015260800190565b6000602082528251606060208401526125726080840182611e7a565b905060208401516040840152604084015160608401528091505092915050565b918252602082015260400190565b60405181810167ffffffffffffffff811182821017156125bf57600080fd5b604052919050565b600067ffffffffffffffff8211156125dd578081fd5b50601f01601f191660200190565b60005b838110156126065781810151838201526020016125ee565b83811115610cbc5750506000910152565b6001600160a01b03811681146109ef57600080fd5b6001600160e01b0319811681146109ef57600080fdfe5719df9ef2c4678b547f89e4f5ae410dbf400fc51cf3ded434c55f6adea2c43f4552433732313a206f776e657220717565727920666f72206e6f6e6578697374656e7420746f6b656ea2646970667358221220e9859680dd9e58194c778cd2231cc0af485a711d657a743318d6da0c333d941764736f6c634300060c00335719df9ef2c4678b547f89e4f5ae410dbf400fc51cf3ded434c55f6adea2c43fa264697066735822122095cf4a7ad688af7b35b8b06f519e5b35d07c35867754a389769ef9544789370064736f6c634300060c0033",
  "devdoc": {
    "kind": "dev",
    "methods": {
      "owner()": {
        "details": "Returns the address of the current owner."
      },
      "renounceOwnership()": {
        "details": "Leaves the contract without owner. It will not be possible to call `onlyOwner` functions anymore. Can only be called by the current owner. NOTE: Renouncing ownership will leave the contract without an owner, thereby removing any functionality that is only available to the owner."
      },
      "transferOwnership(address)": {
        "details": "Transfers ownership of the contract to a new account (`newOwner`). Can only be called by the current owner."
      }
    },
    "version": 1
  },
  "userdoc": {
    "kind": "user",
    "methods": {},
    "version": 1
  },
  "storageLayout": {
    "storage": [
      {
        "astId": 14062,
        "contract": "contracts/NFTFactory.sol:NFTFactory",
        "label": "_storage",
        "offset": 0,
        "slot": "0",
        "type": "t_contract(YGYStorageV1)15869"
      },
      {
        "astId": 195,
        "contract": "contracts/NFTFactory.sol:NFTFactory",
        "label": "initialized",
        "offset": 20,
        "slot": "0",
        "type": "t_bool"
      },
      {
        "astId": 198,
        "contract": "contracts/NFTFactory.sol:NFTFactory",
        "label": "initializing",
        "offset": 21,
        "slot": "0",
        "type": "t_bool"
      },
      {
        "astId": 263,
        "contract": "contracts/NFTFactory.sol:NFTFactory",
        "label": "______gap",
        "offset": 0,
        "slot": "1",
        "type": "t_array(t_uint256)50_storage"
      },
      {
        "astId": 188,
        "contract": "contracts/NFTFactory.sol:NFTFactory",
        "label": "__gap",
        "offset": 0,
        "slot": "51",
        "type": "t_array(t_uint256)50_storage"
      },
      {
        "astId": 565,
        "contract": "contracts/NFTFactory.sol:NFTFactory",
        "label": "_owner",
        "offset": 0,
        "slot": "101",
        "type": "t_address"
      },
      {
        "astId": 683,
        "contract": "contracts/NFTFactory.sol:NFTFactory",
        "label": "__gap",
        "offset": 0,
        "slot": "102",
        "type": "t_array(t_uint256)49_storage"
      },
      {
        "astId": 9102,
        "contract": "contracts/NFTFactory.sol:NFTFactory",
        "label": "contracts",
        "offset": 0,
        "slot": "151",
        "type": "t_array(t_address)dyn_storage"
      },
      {
        "astId": 9104,
        "contract": "contracts/NFTFactory.sol:NFTFactory",
        "label": "bondedContract",
        "offset": 0,
        "slot": "152",
        "type": "t_address"
      },
      {
        "astId": 9106,
        "contract": "contracts/NFTFactory.sol:NFTFactory",
        "label": "ramVault",
        "offset": 0,
        "slot": "153",
        "type": "t_contract(IRAMVault)16286"
      },
      {
        "astId": 9110,
        "contract": "contracts/NFTFactory.sol:NFTFactory",
        "label": "inUse",
        "offset": 0,
        "slot": "154",
        "type": "t_mapping(t_address,t_bool)"
      }
    ],
    "types": {
      "t_address": {
        "encoding": "inplace",
        "label": "address",
        "numberOfBytes": "20"
      },
      "t_array(t_address)dyn_storage": {
        "base": "t_address",
        "encoding": "dynamic_array",
        "label": "address[]",
        "numberOfBytes": "32"
      },
      "t_array(t_uint256)49_storage": {
        "base": "t_uint256",
        "encoding": "inplace",
        "label": "uint256[49]",
        "numberOfBytes": "1568"
      },
      "t_array(t_uint256)50_storage": {
        "base": "t_uint256",
        "encoding": "inplace",
        "label": "uint256[50]",
        "numberOfBytes": "1600"
      },
      "t_bool": {
        "encoding": "inplace",
        "label": "bool",
        "numberOfBytes": "1"
      },
      "t_contract(IRAMVault)16286": {
        "encoding": "inplace",
        "label": "contract IRAMVault",
        "numberOfBytes": "20"
      },
      "t_contract(YGYStorageV1)15869": {
        "encoding": "inplace",
        "label": "contract YGYStorageV1",
        "numberOfBytes": "20"
      },
      "t_mapping(t_address,t_bool)": {
        "encoding": "mapping",
        "key": "t_address",
        "label": "mapping(address => bool)",
        "numberOfBytes": "32",
        "value": "t_bool"
      },
      "t_uint256": {
        "encoding": "inplace",
        "label": "uint256",
        "numberOfBytes": "32"
      }
    }
  }
}