{
  "address": "0x7af2A68DA367D8B6621ff6e15b911Dbab0D94483",
  "abi": [
    {
      "anonymous": false,
      "inputs": [
        {
          "indexed": true,
          "internalType": "address",
          "name": "owner",
          "type": "address"
        },
        {
          "indexed": true,
          "internalType": "address",
          "name": "spender",
          "type": "address"
        },
        {
          "indexed": false,
          "internalType": "uint256",
          "name": "_pid",
          "type": "uint256"
        },
        {
          "indexed": false,
          "internalType": "uint256",
          "name": "value",
          "type": "uint256"
        }
      ],
      "name": "Approval",
      "type": "event"
    },
    {
      "anonymous": false,
      "inputs": [
        {
          "indexed": true,
          "internalType": "address",
          "name": "user",
          "type": "address"
        },
        {
          "indexed": true,
          "internalType": "uint256",
          "name": "pid",
          "type": "uint256"
        },
        {
          "indexed": true,
          "internalType": "uint256",
          "name": "level",
          "type": "uint256"
        },
        {
          "indexed": false,
          "internalType": "bool",
          "name": "fromNFT",
          "type": "bool"
        }
      ],
      "name": "Boost",
      "type": "event"
    },
    {
      "anonymous": false,
      "inputs": [
        {
          "indexed": true,
          "internalType": "address",
          "name": "user",
          "type": "address"
        },
        {
          "indexed": true,
          "internalType": "uint256",
          "name": "pid",
          "type": "uint256"
        },
        {
          "indexed": false,
          "internalType": "uint256",
          "name": "amount",
          "type": "uint256"
        }
      ],
      "name": "Deposit",
      "type": "event"
    },
    {
      "anonymous": false,
      "inputs": [
        {
          "indexed": true,
          "internalType": "address",
          "name": "user",
          "type": "address"
        },
        {
          "indexed": true,
          "internalType": "uint256",
          "name": "pid",
          "type": "uint256"
        },
        {
          "indexed": false,
          "internalType": "uint256",
          "name": "amount",
          "type": "uint256"
        }
      ],
      "name": "EmergencyWithdraw",
      "type": "event"
    },
    {
      "anonymous": false,
      "inputs": [
        {
          "indexed": false,
          "internalType": "uint256",
          "name": "",
          "type": "uint256"
        }
      ],
      "name": "NewEpoch",
      "type": "event"
    },
    {
      "anonymous": false,
      "inputs": [
        {
          "indexed": true,
          "internalType": "address",
          "name": "previousOwner",
          "type": "address"
        },
        {
          "indexed": true,
          "internalType": "address",
          "name": "newOwner",
          "type": "address"
        }
      ],
      "name": "OwnershipTransferred",
      "type": "event"
    },
    {
      "anonymous": false,
      "inputs": [
        {
          "indexed": false,
          "internalType": "uint256",
          "name": "pid",
          "type": "uint256"
        },
        {
          "indexed": false,
          "internalType": "address",
          "name": "to",
          "type": "address"
        }
      ],
      "name": "RewardPaid",
      "type": "event"
    },
    {
      "anonymous": false,
      "inputs": [
        {
          "indexed": false,
          "internalType": "address",
          "name": "previousOwner",
          "type": "address"
        },
        {
          "indexed": false,
          "internalType": "address",
          "name": "newOwner",
          "type": "address"
        }
      ],
      "name": "SuperAdminTransfered",
      "type": "event"
    },
    {
      "anonymous": false,
      "inputs": [
        {
          "indexed": true,
          "internalType": "address",
          "name": "user",
          "type": "address"
        },
        {
          "indexed": true,
          "internalType": "uint256",
          "name": "pid",
          "type": "uint256"
        },
        {
          "indexed": false,
          "internalType": "uint256",
          "name": "amount",
          "type": "uint256"
        }
      ],
      "name": "Withdraw",
      "type": "event"
    },
    {
      "inputs": [
        {
          "internalType": "address",
          "name": "_user",
          "type": "address"
        },
        {
          "internalType": "address",
          "name": "_tokenAddress",
          "type": "address"
        },
        {
          "internalType": "uint256",
          "name": "_tokenId",
          "type": "uint256"
        },
        {
          "internalType": "uint256",
          "name": "_poolId",
          "type": "uint256"
        }
      ],
      "name": "NFTUsage",
      "outputs": [],
      "stateMutability": "nonpayable",
      "type": "function"
    },
    {
      "inputs": [
        {
          "internalType": "uint256",
          "name": "_amount",
          "type": "uint256"
        }
      ],
      "name": "addPendingRewards",
      "outputs": [],
      "stateMutability": "nonpayable",
      "type": "function"
    },
    {
      "inputs": [
        {
          "internalType": "uint256",
          "name": "_allocPoint",
          "type": "uint256"
        },
        {
          "internalType": "contract IERC20",
          "name": "_token",
          "type": "address"
        },
        {
          "internalType": "bool",
          "name": "_withdrawable",
          "type": "bool"
        }
      ],
      "name": "addPool",
      "outputs": [],
      "stateMutability": "nonpayable",
      "type": "function"
    },
    {
      "inputs": [
        {
          "internalType": "uint256",
          "name": "_amount",
          "type": "uint256"
        }
      ],
      "name": "addRAMRewardsOwner",
      "outputs": [],
      "stateMutability": "nonpayable",
      "type": "function"
    },
    {
      "inputs": [
        {
          "internalType": "uint256",
          "name": "_amount",
          "type": "uint256"
        }
      ],
      "name": "addYGYRewardsOwner",
      "outputs": [],
      "stateMutability": "nonpayable",
      "type": "function"
    },
    {
      "inputs": [],
      "name": "burnSuperAdmin",
      "outputs": [],
      "stateMutability": "nonpayable",
      "type": "function"
    },
    {
      "inputs": [
        {
          "internalType": "uint256",
          "name": "_pid",
          "type": "uint256"
        },
        {
          "internalType": "address",
          "name": "_user",
          "type": "address"
        }
      ],
      "name": "checkRewards",
      "outputs": [
        {
          "internalType": "uint256",
          "name": "pendingRAM",
          "type": "uint256"
        },
        {
          "internalType": "uint256",
          "name": "pendingYGY",
          "type": "uint256"
        }
      ],
      "stateMutability": "view",
      "type": "function"
    },
    {
      "inputs": [
        {
          "internalType": "uint256",
          "name": "_pid",
          "type": "uint256"
        }
      ],
      "name": "claimRewards",
      "outputs": [],
      "stateMutability": "nonpayable",
      "type": "function"
    },
    {
      "inputs": [
        {
          "internalType": "uint256",
          "name": "_pid",
          "type": "uint256"
        },
        {
          "internalType": "uint256",
          "name": "_amount",
          "type": "uint256"
        }
      ],
      "name": "deposit",
      "outputs": [],
      "stateMutability": "nonpayable",
      "type": "function"
    },
    {
      "inputs": [
        {
          "internalType": "address",
          "name": "_depositFor",
          "type": "address"
        },
        {
          "internalType": "uint256",
          "name": "_pid",
          "type": "uint256"
        },
        {
          "internalType": "uint256",
          "name": "_amount",
          "type": "uint256"
        }
      ],
      "name": "depositFor",
      "outputs": [],
      "stateMutability": "nonpayable",
      "type": "function"
    },
    {
      "inputs": [],
      "name": "distributeFees",
      "outputs": [],
      "stateMutability": "nonpayable",
      "type": "function"
    },
    {
      "inputs": [
        {
          "internalType": "uint256",
          "name": "_pid",
          "type": "uint256"
        }
      ],
      "name": "emergencyWithdraw",
      "outputs": [],
      "stateMutability": "nonpayable",
      "type": "function"
    },
    {
      "inputs": [
        {
          "internalType": "address",
          "name": "__superAdmin",
          "type": "address"
        },
        {
          "internalType": "address",
          "name": "_regeneratoraddr",
          "type": "address"
        },
        {
          "internalType": "address",
          "name": "_devaddr",
          "type": "address"
        },
        {
          "internalType": "address",
          "name": "_teamaddr",
          "type": "address"
        },
        {
          "internalType": "address",
          "name": "_nftFactory",
          "type": "address"
        }
      ],
      "name": "initialize",
      "outputs": [],
      "stateMutability": "nonpayable",
      "type": "function"
    },
    {
      "inputs": [],
      "name": "massUpdatePools",
      "outputs": [],
      "stateMutability": "nonpayable",
      "type": "function"
    },
    {
      "inputs": [
        {
          "internalType": "address",
          "name": "newOwner",
          "type": "address"
        }
      ],
      "name": "newSuperAdmin",
      "outputs": [],
      "stateMutability": "nonpayable",
      "type": "function"
    },
    {
      "inputs": [],
      "name": "owner",
      "outputs": [
        {
          "internalType": "address",
          "name": "",
          "type": "address"
        }
      ],
      "stateMutability": "view",
      "type": "function"
    },
    {
      "inputs": [
        {
          "internalType": "uint256",
          "name": "_pid",
          "type": "uint256"
        },
        {
          "internalType": "uint256",
          "name": "_level",
          "type": "uint256"
        }
      ],
      "name": "purchase",
      "outputs": [],
      "stateMutability": "nonpayable",
      "type": "function"
    },
    {
      "inputs": [],
      "name": "renounceOwnership",
      "outputs": [],
      "stateMutability": "nonpayable",
      "type": "function"
    },
    {
      "inputs": [
        {
          "internalType": "uint256",
          "name": "_pid",
          "type": "uint256"
        },
        {
          "internalType": "uint256",
          "name": "_allocPoint",
          "type": "uint256"
        },
        {
          "internalType": "bool",
          "name": "_withdrawable",
          "type": "bool"
        }
      ],
      "name": "set",
      "outputs": [],
      "stateMutability": "nonpayable",
      "type": "function"
    },
    {
      "inputs": [
        {
          "internalType": "address",
          "name": "_devaddr",
          "type": "address"
        },
        {
          "internalType": "address",
          "name": "_teamaddr",
          "type": "address"
        },
        {
          "internalType": "address",
          "name": "_regeneratoraddr",
          "type": "address"
        }
      ],
      "name": "setAddresses",
      "outputs": [],
      "stateMutability": "nonpayable",
      "type": "function"
    },
    {
      "inputs": [
        {
          "internalType": "address",
          "name": "spender",
          "type": "address"
        },
        {
          "internalType": "uint256",
          "name": "_pid",
          "type": "uint256"
        },
        {
          "internalType": "uint256",
          "name": "value",
          "type": "uint256"
        }
      ],
      "name": "setAllowanceForPoolToken",
      "outputs": [],
      "stateMutability": "nonpayable",
      "type": "function"
    },
    {
      "inputs": [
        {
          "internalType": "uint16",
          "name": "_DEV_FEE",
          "type": "uint16"
        }
      ],
      "name": "setDevFee",
      "outputs": [],
      "stateMutability": "nonpayable",
      "type": "function"
    },
    {
      "inputs": [
        {
          "internalType": "address",
          "name": "tokenAddress",
          "type": "address"
        },
        {
          "internalType": "uint256",
          "name": "_amount",
          "type": "uint256"
        },
        {
          "internalType": "address",
          "name": "contractAddress",
          "type": "address"
        }
      ],
      "name": "setStrategyContractOrDistributionContractAllowance",
      "outputs": [],
      "stateMutability": "nonpayable",
      "type": "function"
    },
    {
      "inputs": [],
      "name": "startNewEpoch",
      "outputs": [],
      "stateMutability": "nonpayable",
      "type": "function"
    },
    {
      "inputs": [],
      "name": "superAdmin",
      "outputs": [
        {
          "internalType": "address",
          "name": "",
          "type": "address"
        }
      ],
      "stateMutability": "view",
      "type": "function"
    },
    {
      "inputs": [
        {
          "internalType": "address",
          "name": "newOwner",
          "type": "address"
        }
      ],
      "name": "transferOwnership",
      "outputs": [],
      "stateMutability": "nonpayable",
      "type": "function"
    },
    {
      "inputs": [],
      "name": "transferRAMDevFee",
      "outputs": [],
      "stateMutability": "nonpayable",
      "type": "function"
    },
    {
      "inputs": [],
      "name": "transferYGYDevFee",
      "outputs": [],
      "stateMutability": "nonpayable",
      "type": "function"
    },
    {
      "inputs": [
        {
          "internalType": "uint256",
          "name": "_pid",
          "type": "uint256"
        },
        {
          "internalType": "uint256",
          "name": "_amount",
          "type": "uint256"
        }
      ],
      "name": "withdraw",
      "outputs": [],
      "stateMutability": "nonpayable",
      "type": "function"
    },
    {
      "inputs": [
        {
          "internalType": "address",
          "name": "owner",
          "type": "address"
        },
        {
          "internalType": "uint256",
          "name": "_pid",
          "type": "uint256"
        },
        {
          "internalType": "uint256",
          "name": "_amount",
          "type": "uint256"
        }
      ],
      "name": "withdrawFrom",
      "outputs": [],
      "stateMutability": "nonpayable",
      "type": "function"
    }
  ],
  "transactionHash": "0xd8fe3647c8eff88742ca9e20d950279bb04f76e485bdf6e19101b679329939f8",
  "args": [],
  "solcInputHash": "54caf3496b4c0f3620e9671436d693c5",
  "bytecode": "0x608060405234801561001057600080fd5b50615522806100206000396000f3fe608060405234801561001057600080fd5b50600436106101da5760003560e01c806364482f7911610104578063a676860a116100a2578063dbe0901f11610071578063dbe0901f14610390578063e18cb4fe146103a3578063e2bbb158146103b6578063f2fde38b146103c9576101da565b8063a676860a1461035a578063bb57ad201461036d578063c401458814610375578063cc1362ec14610388576101da565b80637abceffd116100de5780637abceffd1461032f5780637cf75ca3146103425780638da5cb5b1461034a578063934eaa5014610352576101da565b806364482f791461030157806370876c9814610314578063715018a614610327576101da565b80633b6a68491161017c5780634cf5fbf51161014b5780634cf5fbf5146102c05780635312ea8e146102d35780635db64aba146102e6578063630b5ba1146102f9576101da565b80633b6a6849146102745780633fe6a27814610287578063423d6fa01461029a578063441a3e70146102ad576101da565b806329575f6a116101b857806329575f6a14610231578063363bf964146102465780633a0967cd146102595780633aab0a621461026c576101da565b80630962ef79146101df57806310178d9c146101f45780631459457a1461021e575b600080fd5b6101f26101ed366004614dd4565b6103dc565b005b610207610202366004614e04565b610565565b604051610215929190614fff565b60405180910390f35b6101f261022c366004614b33565b6105f2565b610239610705565b6040516102159190614f79565b6101f2610254366004614ae9565b610714565b6101f2610267366004614c1e565b610788565b6101f26108b0565b6101f2610282366004614dd4565b610b69565b6101f2610295366004614dd4565b610d1e565b6101f26102a8366004614dd4565b610ea0565b6101f26102bb366004614e69565b610f71565b6101f26102ce366004614c1e565b610f81565b6101f26102e1366004614dd4565b6111bf565b6101f26102f4366004614ba3565b611362565b6101f2611725565b6101f261030f366004614ead565b61184d565b6101f2610322366004614e69565b6118be565b6101f2611c87565b6101f261033d366004614e33565b611d06565b6101f2611d77565b610239612275565b6101f2612284565b6101f2610368366004614acd565b6122e9565b6101f261237c565b6101f2610383366004614be8565b6127e3565b6101f2612945565b6101f261039e366004614c1e565b612e3c565b6101f26103b1366004614db2565b612ef6565b6101f26103c4366004614e69565b612f73565b6101f26103d7366004614acd565b6131b0565b6103e4614a32565b6000546103fb9083906001600160a01b0316613267565b9050610405614a73565b60005461041e90849033906001600160a01b031661333a565b60608101519091501561044957600080546104499183918591339181906001600160a01b0316613402565b61045383336134cb565b61045d8183613505565b6000546040516303c4399d60e11b81526001600160a01b0390911690630788733a90610491908690339086906004016153a5565b600060405180830381600087803b1580156104ab57600080fd5b505af11580156104bf573d6000803e3d6000fd5b505060005460405163d4665bb760e01b81526001600160a01b03909116925063d4665bb791506104f59086908690600401615409565b600060405180830381600087803b15801561050f57600080fd5b505af1158015610523573d6000803e3d6000fd5b505050507fc05cbf47ef4152ea1b2446fb1ba8eb9c7285054d9c85f2f52c294200d8d1d38b8333604051610558929190615369565b60405180910390a1505050565b60008054604051630405e36760e21b815282916001600160a01b0316906310178d9c906105989087908790600401615369565b604080518083038186803b1580156105af57600080fd5b505afa1580156105c3573d6000803e3d6000fd5b505050506040513d601f19601f820116820180604052508101906105e79190614e8a565b915091509250929050565b600054600160a81b900460ff168061060d575061060d613553565b806106225750600054600160a01b900460ff16155b6106475760405162461bcd60e51b815260040161063e906151f0565b60405180910390fd5b600054600160a81b900460ff1615801561067e576000805460ff60a01b1960ff60a81b19909116600160a81b1716600160a01b1790555b610686613559565b609a8054609d80546001600160a01b03199081166001600160a01b038b8116919091179092556099805482168a841617905560978054821689841617905560988054821688841617905561ffff60a01b1990921660b560a21b1790911690841617905580156106fd576000805460ff60a81b191690555b505050505050565b609d546001600160a01b031690565b61071c613602565b6065546001600160a01b039081169116146107495760405162461bcd60e51b815260040161063e906151bb565b609780546001600160a01b039485166001600160a01b031991821617909155609880549385169382169390931790925560998054919093169116179055565b6000805460405163158dd39360e01b81526001600160a01b039091169063158dd393906107bd908690889033906004016153c9565b60206040518083038186803b1580156107d557600080fd5b505afa1580156107e9573d6000803e3d6000fd5b505050506040513d601f19601f8201168201806040525081019061080d9190614dec565b90508181101561082f5760405162461bcd60e51b815260040161063e90615154565b6000546001600160a01b03166360443a4584863361084d8688613606565b6040518563ffffffff1660e01b815260040161086c9493929190615380565b600060405180830381600087803b15801561088657600080fd5b505af115801561089a573d6000803e3d6000fd5b505050506108aa8383863361364f565b50505050565b60005460408051633ed55b7b60e01b8152905143926001600160a01b031691633ed55b7b916004808301926020929190829003018186803b1580156108f457600080fd5b505afa158015610908573d6000803e3d6000fd5b505050506040513d601f19601f8201168201806040525081019061092c9190614dec565b611680011061093a57600080fd5b6000805460408051632515621d60e11b815290516001600160a01b0390921692634a2ac43a9260048084019382900301818387803b15801561097b57600080fd5b505af115801561098f573d6000803e3d6000fd5b5050600080546040805163221205f760e21b815290516001600160a01b03909216945063884817dc9350600480820193929182900301818387803b1580156109d657600080fd5b505af11580156109ea573d6000803e3d6000fd5b50506000805460405163eaac617360e01b81526001600160a01b03909116935063eaac61739250610a2091908190600401614fff565b600060405180830381600087803b158015610a3a57600080fd5b505af1158015610a4e573d6000803e3d6000fd5b5050600080546040805163022fed0760e11b815290516001600160a01b03909216945063045fda0e9350600480820193929182900301818387803b158015610a9557600080fd5b505af1158015610aa9573d6000803e3d6000fd5b505050507febad8099c467528a56c98b63c8d476d251cf1ffb4c75db94b4d23fa2b6a1e33560008054906101000a90046001600160a01b03166001600160a01b031663900cf0cf6040518163ffffffff1660e01b815260040160206040518083038186803b158015610b1a57600080fd5b505afa158015610b2e573d6000803e3d6000fd5b505050506040513d601f19601f82011682018060405250810190610b529190614dec565b604051610b5f9190615360565b60405180910390a1565b610b71613602565b6065546001600160a01b03908116911614610b9e5760405162461bcd60e51b815260040161063e906151bb565b60008054906101000a90046001600160a01b03166001600160a01b0316638f33b5e56040518163ffffffff1660e01b815260040160206040518083038186803b158015610bea57600080fd5b505afa158015610bfe573d6000803e3d6000fd5b505050506040513d601f19601f82011682018060405250810190610c229190614c6e565b6001600160a01b03166323b872dd3330846040518463ffffffff1660e01b8152600401610c5193929190614f8d565b602060405180830381600087803b158015610c6b57600080fd5b505af1158015610c7f573d6000803e3d6000fd5b505050506040513d601f19601f82011682018060405250810190610ca39190614c52565b8015610caf5750600081115b610cb857600080fd5b600080546040516301e0a3fb60e61b81526001600160a01b0390911691637828fec091610ce9918591600401614fef565b600060405180830381600087803b158015610d0357600080fd5b505af1158015610d17573d6000803e3d6000fd5b5050505050565b610d26613602565b6065546001600160a01b03908116911614610d535760405162461bcd60e51b815260040161063e906151bb565b60008054906101000a90046001600160a01b03166001600160a01b031663fb70c3bf6040518163ffffffff1660e01b815260040160206040518083038186803b158015610d9f57600080fd5b505afa158015610db3573d6000803e3d6000fd5b505050506040513d601f19601f82011682018060405250810190610dd79190614c6e565b6001600160a01b03166323b872dd3330846040518463ffffffff1660e01b8152600401610e0693929190614f8d565b602060405180830381600087803b158015610e2057600080fd5b505af1158015610e34573d6000803e3d6000fd5b505050506040513d601f19601f82011682018060405250810190610e589190614c52565b8015610e645750600081115b610e6d57600080fd5b6000546040516301e0a3fb60e61b81526001600160a01b0390911690637828fec090610ce9908490600190600401614fef565b60008054906101000a90046001600160a01b03166001600160a01b0316638f33b5e56040518163ffffffff1660e01b815260040160206040518083038186803b158015610eec57600080fd5b505afa158015610f00573d6000803e3d6000fd5b505050506040513d601f19601f82011682018060405250810190610f249190614c6e565b6001600160a01b0316336001600160a01b031614610f4157600080fd5b600054604051630211eb7d60e51b81526001600160a01b039091169063423d6fa090610ce9908490600401615360565b610f7d8282333361364f565b5050565b610f89614a32565b600054610fa09084906001600160a01b0316613267565b9050610faa614a73565b600054610fc390859087906001600160a01b031661333a565b9050610fcf84866134cb565b82156110a25781516040516323b872dd60e01b81526001600160a01b03909116906323b872dd9061100890339030908890600401614f8d565b602060405180830381600087803b15801561102257600080fd5b505af1158015611036573d6000803e3d6000fd5b505050506040513d601f19601f8201168201806040525081019061105a9190614c52565b5080516110679084613865565b8152606081015115158061107f575060008160800151115b156110a257600080546110a29183918591899181906001600160a01b0316613402565b6110ac8183613505565b6000546040516303c4399d60e11b81526001600160a01b0390911690630788733a906110e0908790899086906004016153a5565b600060405180830381600087803b1580156110fa57600080fd5b505af115801561110e573d6000803e3d6000fd5b505060005460405163d4665bb760e01b81526001600160a01b03909116925063d4665bb791506111449087908690600401615409565b600060405180830381600087803b15801561115e57600080fd5b505af1158015611172573d6000803e3d6000fd5b5050505083856001600160a01b03167f90890809c654f11d6e72a28fa60149770a0d11ec6c92319d6ceb2bb0a4ea1a15856040516111b09190615360565b60405180910390a35050505050565b6111c7614a32565b6000546111de9083906001600160a01b0316613267565b905080608001516112015760405162461bcd60e51b815260040161063e90615286565b611209614a73565b60005461122290849033906001600160a01b031661333a565b8051835191925061123e916001600160a01b031690339061388a565b8051604051849133917fbb757047c2b5f3974fe26b7c10f732e7bce710b0952a71082702781e62ae05959161127291615360565b60405180910390a3600080825260608201819052602082018190526040808301829052905490516303c4399d60e11b81526001600160a01b0390911690630788733a906112c7908690339086906004016153a5565b600060405180830381600087803b1580156112e157600080fd5b505af11580156112f5573d6000803e3d6000fd5b505060005460405163d4665bb760e01b81526001600160a01b03909116925063d4665bb7915061132b9086908690600401615409565b600060405180830381600087803b15801561134557600080fd5b505af1158015611359573d6000803e3d6000fd5b50505050505050565b609a546001600160a01b0316331461138c5760405162461bcd60e51b815260040161063e90615040565b82611395614aa9565b604051631c72e6e760e11b81526001600160a01b038316906338e5cdce906113c1908790600401615360565b60006040518083038186803b1580156113d957600080fd5b505afa1580156113ed573d6000803e3d6000fd5b505050506040513d6000823e601f3d908101601f191682016040526114159190810190614ce9565b905061141f614a73565b60005461143890859089906001600160a01b031661333a565b9050611442614a32565b6000546114599086906001600160a01b0316613267565b90507fb11f0630abdc3c49238c394684d47c0a22fb6922fdf83b64cfdd3d9769f1a26383600001516040516020016114919190614f5d565b6040516020818303038152906040528051906020012014156115ae5760008054906101000a90046001600160a01b03166001600160a01b0316638792a265856001600160a01b0316638291286c6040518163ffffffff1660e01b815260040160206040518083038186803b15801561150857600080fd5b505afa15801561151c573d6000803e3d6000fd5b505050506040513d601f19601f820116820180604052508101906115409190614dec565b8a6040518363ffffffff1660e01b815260040161155e929190615369565b600060405180830381600087803b15801561157857600080fd5b505af115801561158c573d6000803e3d6000fd5b5050600080546115ae935085925084918c9181906001600160a01b0316613402565b604051630852cd8d60e31b81526001600160a01b038516906342966c68906115da908990600401615360565b600060405180830381600087803b1580156115f457600080fd5b505af1158015611608573d6000803e3d6000fd5b50506000546040516303c4399d60e11b81526001600160a01b039091169250630788733a91506116409088908c9087906004016153a5565b600060405180830381600087803b15801561165a57600080fd5b505af115801561166e573d6000803e3d6000fd5b505060005460405163d4665bb760e01b81526001600160a01b03909116925063d4665bb791506116a49088908590600401615409565b600060405180830381600087803b1580156116be57600080fd5b505af11580156116d2573d6000803e3d6000fd5b50505050600085896001600160a01b03167f2afbc6f74788c58c5d56fca9812c385d27a7bf8004bd05cd1b9f057ad145f69d60016040516117139190614fe4565b60405180910390a45050505050505050565b60008060005b60008054906101000a90046001600160a01b03166001600160a01b031663b3944d526040518163ffffffff1660e01b815260040160206040518083038186803b15801561177757600080fd5b505afa15801561178b573d6000803e3d6000fd5b505050506040513d601f19601f820116820180604052508101906117af9190614dec565b8110156117ec576000806117c2836138e0565b90925090506117d18583613865565b94506117dd8482613865565b9350505080600101905061172b565b50600054604051635105a97560e01b81526001600160a01b0390911690635105a9759061181f9085908590600401614fff565b600060405180830381600087803b15801561183957600080fd5b505af11580156106fd573d6000803e3d6000fd5b611855613602565b6065546001600160a01b039081169116146118825760405162461bcd60e51b815260040161063e906151bb565b61188a611725565b60005460405163236535f560e11b81526001600160a01b03909116906346ca6bea9061132b9086908690869060040161545e565b6118c6614a32565b6000546118dd9084906001600160a01b0316613267565b90506118e7614a73565b60005461190090859033906001600160a01b031661333a565b9050806080015183118015611916575060048311155b61191f57600080fd5b60008054604051636a9d1f6f60e01b81526001600160a01b0390911690636a9d1f6f90611950908790600401615360565b60206040518083038186803b15801561196857600080fd5b505afa15801561197c573d6000803e3d6000fd5b505050506040513d601f19601f820116820180604052508101906119a09190614dec565b905060006119bb8360a001518361360690919063ffffffff16565b905060008054906101000a90046001600160a01b03166001600160a01b0316638f33b5e56040518163ffffffff1660e01b815260040160206040518083038186803b158015611a0957600080fd5b505afa158015611a1d573d6000803e3d6000fd5b505050506040513d601f19601f82011682018060405250810190611a419190614c6e565b6001600160a01b03166323b872dd3330846040518463ffffffff1660e01b8152600401611a7093929190614f8d565b602060405180830381600087803b158015611a8a57600080fd5b505af1158015611a9e573d6000803e3d6000fd5b505050506040513d601f19601f82011682018060405250810190611ac29190614c52565b611acb57600080fd5b60a0830151611ada9082613865565b60a084015260808301859052825115611b0c5760008054611b0c918591879133918a91906001600160a01b0316613402565b6000546040516303c4399d60e11b81526001600160a01b0390911690630788733a90611b40908990339088906004016153a5565b600060405180830381600087803b158015611b5a57600080fd5b505af1158015611b6e573d6000803e3d6000fd5b505060005460405163d4665bb760e01b81526001600160a01b03909116925063d4665bb79150611ba49089908890600401615409565b600060405180830381600087803b158015611bbe57600080fd5b505af1158015611bd2573d6000803e3d6000fd5b5050600054604051631be9449960e11b81526001600160a01b0390911692506337d289329150611c09908490600190600401614fef565b600060405180830381600087803b158015611c2357600080fd5b505af1158015611c37573d6000803e3d6000fd5b505050508486336001600160a01b03167f2afbc6f74788c58c5d56fca9812c385d27a7bf8004bd05cd1b9f057ad145f69d6000604051611c779190614fe4565b60405180910390a4505050505050565b611c8f613602565b6065546001600160a01b03908116911614611cbc5760405162461bcd60e51b815260040161063e906151bb565b6065546040516000916001600160a01b0316907f8be0079c531659141344cd1fd0a4f28419497f9722a3daafe3b4186f6b6457e0908390a3606580546001600160a01b0319169055565b611d0e613602565b6065546001600160a01b03908116911614611d3b5760405162461bcd60e51b815260040161063e906151bb565b611d43611725565b600054604051637abceffd60e01b81526001600160a01b0390911690637abceffd9061132b908690869086906004016153e8565b609b54156122735760008060008060009054906101000a90046001600160a01b03166001600160a01b0316638f33b5e56040518163ffffffff1660e01b815260040160206040518083038186803b158015611dd157600080fd5b505afa158015611de5573d6000803e3d6000fd5b505050506040513d601f19601f82011682018060405250810190611e099190614c6e565b6001600160a01b03166370a08231306040518263ffffffff1660e01b8152600401611e349190614f79565b60206040518083038186803b158015611e4c57600080fd5b505afa158015611e60573d6000803e3d6000fd5b505050506040513d601f19601f82011682018060405250810190611e849190614dec565b905080609b541115611ebf57611ea66064611ea0836046613d0f565b90613d49565b9250611eb86064611ea083601e613d0f565b9150611efa565b611eda6064611ea06046609b54613d0f90919063ffffffff16565b9250611ef76064611ea0601e609b54613d0f90919063ffffffff16565b91505b821561200b5760008054906101000a90046001600160a01b03166001600160a01b0316638f33b5e56040518163ffffffff1660e01b815260040160206040518083038186803b158015611f4c57600080fd5b505afa158015611f60573d6000803e3d6000fd5b505050506040513d601f19601f82011682018060405250810190611f849190614c6e565b60975460405163a9059cbb60e01b81526001600160a01b039283169263a9059cbb92611fb7929116908790600401614fcb565b602060405180830381600087803b158015611fd157600080fd5b505af1158015611fe5573d6000803e3d6000fd5b505050506040513d601f19601f820116820180604052508101906120099190614c52565b505b811561211c5760008054906101000a90046001600160a01b03166001600160a01b0316638f33b5e56040518163ffffffff1660e01b815260040160206040518083038186803b15801561205d57600080fd5b505afa158015612071573d6000803e3d6000fd5b505050506040513d601f19601f820116820180604052508101906120959190614c6e565b60985460405163a9059cbb60e01b81526001600160a01b039283169263a9059cbb926120c8929116908690600401614fcb565b602060405180830381600087803b1580156120e257600080fd5b505af11580156120f6573d6000803e3d6000fd5b505050506040513d601f19601f8201168201806040525081019061211a9190614c52565b505b60005460408051638f33b5e560e01b815290516001600160a01b0390921691638f838a9f918391638f33b5e591600480820192602092909190829003018186803b15801561216957600080fd5b505afa15801561217d573d6000803e3d6000fd5b505050506040513d601f19601f820116820180604052508101906121a19190614c6e565b6001600160a01b03166370a08231306040518263ffffffff1660e01b81526004016121cc9190614f79565b60206040518083038186803b1580156121e457600080fd5b505afa1580156121f8573d6000803e3d6000fd5b505050506040513d601f19601f8201168201806040525081019061221c9190614dec565b6040518263ffffffff1660e01b81526004016122389190615360565b600060405180830381600087803b15801561225257600080fd5b505af1158015612266573d6000803e3d6000fd5b50506000609b5550505050505b565b6065546001600160a01b031690565b61228c613602565b609d546001600160a01b039081169116146122a657600080fd5b609d80546001600160a01b03191690556040517ff564c40f4f45e62a2c1e6c22e8bfb46501f0f71fa1c72e5358903fa1115a4b6490610b5f906000908190614fb1565b6122f1613602565b609d546001600160a01b0390811691161461230b57600080fd5b6001600160a01b03811661231e57600080fd5b609d80546001600160a01b0319166001600160a01b0383811691909117918290556040517ff564c40f4f45e62a2c1e6c22e8bfb46501f0f71fa1c72e5358903fa1115a4b64926123719216908490614fb1565b60405180910390a150565b60008054604051631be9449960e11b81526001600160a01b03909116916337d28932916123ae91908190600401614fef565b600060405180830381600087803b1580156123c857600080fd5b505af11580156123dc573d6000803e3d6000fd5b50505050600061246b600260008054906101000a90046001600160a01b03166001600160a01b03166309e3de416040518163ffffffff1660e01b815260040160206040518083038186803b15801561243357600080fd5b505afa158015612447573d6000803e3d6000fd5b505050506040513d601f19601f82011682018060405250810190611ea09190614dec565b905080156127e05760008054906101000a90046001600160a01b03166001600160a01b0316638f33b5e56040518163ffffffff1660e01b815260040160206040518083038186803b1580156124bf57600080fd5b505afa1580156124d3573d6000803e3d6000fd5b505050506040513d601f19601f820116820180604052508101906124f79190614c6e565b60995460405163a9059cbb60e01b81526001600160a01b039283169263a9059cbb9261252a929116908590600401614fcb565b602060405180830381600087803b15801561254457600080fd5b505af1158015612558573d6000803e3d6000fd5b505050506040513d601f19601f8201168201806040525081019061257c9190614c52565b61258557600080fd5b60006125976064611ea0846046613d0f565b905080156126b15760008054906101000a90046001600160a01b03166001600160a01b0316638f33b5e56040518163ffffffff1660e01b815260040160206040518083038186803b1580156125eb57600080fd5b505afa1580156125ff573d6000803e3d6000fd5b505050506040513d601f19601f820116820180604052508101906126239190614c6e565b60975460405163a9059cbb60e01b81526001600160a01b039283169263a9059cbb92612656929116908590600401614fcb565b602060405180830381600087803b15801561267057600080fd5b505af1158015612684573d6000803e3d6000fd5b505050506040513d601f19601f820116820180604052508101906126a89190614c52565b6126b157600080fd5b60006126c36064611ea085601e613d0f565b905080156127dd5760008054906101000a90046001600160a01b03166001600160a01b0316638f33b5e56040518163ffffffff1660e01b815260040160206040518083038186803b15801561271757600080fd5b505afa15801561272b573d6000803e3d6000fd5b505050506040513d601f19601f8201168201806040525081019061274f9190614c6e565b60985460405163a9059cbb60e01b81526001600160a01b039283169263a9059cbb92612782929116908590600401614fcb565b602060405180830381600087803b15801561279c57600080fd5b505af11580156127b0573d6000803e3d6000fd5b505050506040513d601f19601f820116820180604052508101906127d49190614c52565b6127dd57600080fd5b50505b50565b6127ec81613d8b565b801561280d57506127fb613602565b609d546001600160a01b039081169116145b61281657600080fd5b6128a76201731860008054906101000a90046001600160a01b03166001600160a01b03166331db122c6040518163ffffffff1660e01b815260040160206040518083038186803b15801561286957600080fd5b505afa15801561287d573d6000803e3d6000fd5b505050506040513d601f19601f820116820180604052508101906128a19190614dec565b90613865565b43116128c55760405162461bcd60e51b815260040161063e9061523e565b60405163095ea7b360e01b81526001600160a01b0384169063095ea7b3906128f39084908690600401614fcb565b602060405180830381600087803b15801561290d57600080fd5b505af1158015612921573d6000803e3d6000fd5b505050506040513d601f19601f820116820180604052508101906108aa9190614c52565b609c54156122735760008060008060009054906101000a90046001600160a01b03166001600160a01b031663fb70c3bf6040518163ffffffff1660e01b815260040160206040518083038186803b15801561299f57600080fd5b505afa1580156129b3573d6000803e3d6000fd5b505050506040513d601f19601f820116820180604052508101906129d79190614c6e565b6001600160a01b03166370a08231306040518263ffffffff1660e01b8152600401612a029190614f79565b60206040518083038186803b158015612a1a57600080fd5b505afa158015612a2e573d6000803e3d6000fd5b505050506040513d601f19601f82011682018060405250810190612a529190614dec565b905080609c541115612a8757612a6e6064611ea0836046613d0f565b9250612a806064611ea083601e613d0f565b9150612ac2565b612aa26064611ea06046609c54613d0f90919063ffffffff16565b9250612abf6064611ea0601e609c54613d0f90919063ffffffff16565b91505b8215612bd35760008054906101000a90046001600160a01b03166001600160a01b031663fb70c3bf6040518163ffffffff1660e01b815260040160206040518083038186803b158015612b1457600080fd5b505afa158015612b28573d6000803e3d6000fd5b505050506040513d601f19601f82011682018060405250810190612b4c9190614c6e565b60975460405163a9059cbb60e01b81526001600160a01b039283169263a9059cbb92612b7f929116908790600401614fcb565b602060405180830381600087803b158015612b9957600080fd5b505af1158015612bad573d6000803e3d6000fd5b505050506040513d601f19601f82011682018060405250810190612bd19190614c52565b505b8115612ce45760008054906101000a90046001600160a01b03166001600160a01b031663fb70c3bf6040518163ffffffff1660e01b815260040160206040518083038186803b158015612c2557600080fd5b505afa158015612c39573d6000803e3d6000fd5b505050506040513d601f19601f82011682018060405250810190612c5d9190614c6e565b60985460405163a9059cbb60e01b81526001600160a01b039283169263a9059cbb92612c90929116908690600401614fcb565b602060405180830381600087803b158015612caa57600080fd5b505af1158015612cbe573d6000803e3d6000fd5b505050506040513d601f19601f82011682018060405250810190612ce29190614c52565b505b6000546040805163fb70c3bf60e01b815290516001600160a01b039092169163094601f191839163fb70c3bf91600480820192602092909190829003018186803b158015612d3157600080fd5b505afa158015612d45573d6000803e3d6000fd5b505050506040513d601f19601f82011682018060405250810190612d699190614c6e565b6001600160a01b03166370a08231306040518263ffffffff1660e01b8152600401612d949190614f79565b60206040518083038186803b158015612dac57600080fd5b505afa158015612dc0573d6000803e3d6000fd5b505050506040513d601f19601f82011682018060405250810190612de49190614dec565b6040518263ffffffff1660e01b8152600401612e009190615360565b600060405180830381600087803b158015612e1a57600080fd5b505af1158015612e2e573d6000803e3d6000fd5b50506000609c555050505050565b6000546040516360443a4560e01b81526001600160a01b03909116906360443a4590612e72908590339088908790600401615380565b600060405180830381600087803b158015612e8c57600080fd5b505af1158015612ea0573d6000803e3d6000fd5b50505050826001600160a01b0316336001600160a01b03167fb3fd5071835887567a0671151121894ddccc2842f1d10bedad13e0d17cace9a78484604051612ee9929190614fff565b60405180910390a3505050565b612efe613602565b6065546001600160a01b03908116911614612f2b5760405162461bcd60e51b815260040161063e906151bb565b6103e88161ffff161115612f515760405162461bcd60e51b815260040161063e90615265565b609a805461ffff909216600160a01b0261ffff60a01b19909216919091179055565b612f7b614a32565b600054612f929084906001600160a01b0316613267565b9050612f9c614a73565b600054612fb590859033906001600160a01b031661333a565b9050612fc184336134cb565b82156130945781516040516323b872dd60e01b81526001600160a01b03909116906323b872dd90612ffa90339030908890600401614f8d565b602060405180830381600087803b15801561301457600080fd5b505af1158015613028573d6000803e3d6000fd5b505050506040513d601f19601f8201168201806040525081019061304c9190614c52565b5080516130599084613865565b81526060810151151580613071575060008160800151115b1561309457600080546130949183918591339181906001600160a01b0316613402565b61309e8183613505565b6000546040516303c4399d60e11b81526001600160a01b0390911690630788733a906130d2908790339086906004016153a5565b600060405180830381600087803b1580156130ec57600080fd5b505af1158015613100573d6000803e3d6000fd5b505060005460405163d4665bb760e01b81526001600160a01b03909116925063d4665bb791506131369087908690600401615409565b600060405180830381600087803b15801561315057600080fd5b505af1158015613164573d6000803e3d6000fd5b5050505083336001600160a01b03167f90890809c654f11d6e72a28fa60149770a0d11ec6c92319d6ceb2bb0a4ea1a15856040516131a29190615360565b60405180910390a350505050565b6131b8613602565b6065546001600160a01b039081169116146131e55760405162461bcd60e51b815260040161063e906151bb565b6001600160a01b03811661320b5760405162461bcd60e51b815260040161063e9061506b565b6065546040516001600160a01b038084169216907f8be0079c531659141344cd1fd0a4f28419497f9722a3daafe3b4186f6b6457e090600090a3606580546001600160a01b0319166001600160a01b0392909216919091179055565b61326f614a32565b600080600080600080876001600160a01b0316631526fe278a6040518263ffffffff1660e01b81526004016132a49190615360565b60c06040518083038186803b1580156132bc57600080fd5b505afa1580156132d0573d6000803e3d6000fd5b505050506040513d601f19601f820116820180604052508101906132f49190614c8a565b6040805160c0810182526001600160a01b03909716875260208701959095529385019290925260608401521515608083015260a082015296505050505050505b92915050565b613342614a73565b600080600080600080876001600160a01b03166393f1a40b8b8b6040518363ffffffff1660e01b8152600401613379929190615369565b60c06040518083038186803b15801561339157600080fd5b505afa1580156133a5573d6000803e3d6000fd5b505050506040513d601f19601f820116820180604052508101906133c99190614eda565b6040805160c0810182529687526020870195909552938501929092526060840152608083015260a08201529a9950505050505050505050565b60608601516000613425888661341c57896080015161341e565b865b8886613d91565b905060006134456064611ea0848c60000151613d0f90919063ffffffff16565b60608a01819052905084156134765761346c6134618483613606565b60a08a015190613606565b60a08901526134c0565b808311156134995761346c816128a1858b60a0015161360690919063ffffffff16565b6134ba836134b4838b60a0015161386590919063ffffffff16565b90613606565b60a08901525b505050505050505050565b6134d3611725565b6000806134e08484610565565b909250905081156134f5576134f58383613e66565b80156108aa576108aa83826142a4565b61352564e8d4a51000611ea0836040015161351f86614714565b90613d0f565b602083015260608101516135479064e8d4a5100090611ea09061351f86614714565b60409092019190915250565b303b1590565b600054600160a81b900460ff16806135745750613574613553565b806135895750600054600160a01b900460ff16155b6135a55760405162461bcd60e51b815260040161063e906151f0565b600054600160a81b900460ff161580156135dc576000805460ff60a01b1960ff60a81b19909116600160a81b1716600160a01b1790555b6135e4614728565b6135ec6147c0565b80156127e0576000805460ff60a81b1916905550565b3390565b600061364883836040518060400160405280601e81526020017f536166654d6174683a207375627472616374696f6e206f766572666c6f7700008152506148b1565b9392505050565b613657614a32565b60005461366e9086906001600160a01b0316613267565b905080608001516136915760405162461bcd60e51b815260040161063e906152ff565b613699614a73565b6000546136b290879086906001600160a01b031661333a565b905084816000015110156136d85760405162461bcd60e51b815260040161063e9061511d565b6136e286856134cb565b84156137475780516136f49086613606565b8152815161370c906001600160a01b0316848761388a565b600081606001511180613723575060008160800151115b156137475760008054613747918391859188916001906001600160a01b0316613402565b6137518183613505565b6000546040516303c4399d60e11b81526001600160a01b0390911690630788733a90613785908990339086906004016153a5565b600060405180830381600087803b15801561379f57600080fd5b505af11580156137b3573d6000803e3d6000fd5b505060005460405163d4665bb760e01b81526001600160a01b03909116925063d4665bb791506137e99089908690600401615409565b600060405180830381600087803b15801561380357600080fd5b505af1158015613817573d6000803e3d6000fd5b5050505085836001600160a01b03167ff279e6a1f5e320cca91135676d9cb6e44ca8a08c0b88342bcdb1144f6511b568876040516138559190615360565b60405180910390a3505050505050565b6000828201838110156136485760405162461bcd60e51b815260040161063e906150b1565b6127dd8363a9059cbb60e01b84846040516024016138a9929190614fcb565b60408051601f198184030181529190526020810180516001600160e01b03166001600160e01b0319909316929092179091526148dd565b6000806138eb614a32565b6000546139029085906001600160a01b0316613267565b9050600081600001516001600160a01b03166370a08231306040518263ffffffff1660e01b81526004016139369190614f79565b60206040518083038186803b15801561394e57600080fd5b505afa158015613962573d6000803e3d6000fd5b505050506040513d601f19601f820116820180604052508101906139869190614dec565b90508061399b57600080935093505050613d0a565b60006139b48360a001518361386590919063ffffffff16565b9050613abf60008054906101000a90046001600160a01b03166001600160a01b03166317caf6f16040518163ffffffff1660e01b815260040160206040518083038186803b158015613a0557600080fd5b505afa158015613a19573d6000803e3d6000fd5b505050506040513d601f19601f82011682018060405250810190613a3d9190614dec565b602080860151600054604080516376f69fed60e11b81529051611ea0946001600160a01b039093169263eded3fda9260048082019391829003018186803b158015613a8757600080fd5b505afa158015613a9b573d6000803e3d6000fd5b505050506040513d601f19601f8201168201806040525081019061351f9190614dec565b609a54909550600090613ae69061271090611ea0908990600160a01b900461ffff16613d0f565b609b54909150613af69082613865565b609b556000805460408051638b6ff57b60e01b815290516001600160a01b0390921691638b6ff57b91600480820192602092909190829003018186803b158015613b3f57600080fd5b505afa158015613b53573d6000803e3d6000fd5b505050506040513d601f19601f82011682018060405250810190613b779190614dec565b90508015613c7357600054604080516317caf6f160e01b81529051613c0d926001600160a01b0316916317caf6f1916004808301926020929190829003018186803b158015613bc557600080fd5b505afa158015613bd9573d6000803e3d6000fd5b505050506040513d601f19601f82011682018060405250810190613bfd9190614dec565b6020870151611ea0908490613d0f565b609a54909650600090613c349061271090611ea0908a90600160a01b900461ffff16613d0f565b609c54909150613c449082613865565b609c55613c6c613c6185611ea064e8d4a5100061351f8c87613606565b606088015190613865565b6060870152505b613c98613c8d84611ea064e8d4a5100061351f8c88613606565b604087015190613865565b604080870191909152600054905163d4665bb760e01b81526001600160a01b039091169063d4665bb790613cd2908b908990600401615409565b600060405180830381600087803b158015613cec57600080fd5b505af1158015613d00573d6000803e3d6000fd5b5050505050505050505b915091565b600082613d1e57506000613334565b82820282848281613d2b57fe5b04146136485760405162461bcd60e51b815260040161063e9061517a565b600061364883836040518060400160405280601a81526020017f536166654d6174683a206469766973696f6e206279207a65726f0000000000008152506149c2565b3b151590565b600080826001600160a01b03166391328af2856040518263ffffffff1660e01b8152600401613dc09190614f79565b60206040518083038186803b158015613dd857600080fd5b505afa158015613dec573d6000803e3d6000fd5b505050506040513d601f19601f82011682018060405250810190613e109190614dec565b9050613e5a81846001600160a01b0316636798f19f886040518263ffffffff1660e01b8152600401613e429190615360565b60206040518083038186803b15801561286957600080fd5b9150505b949350505050565b60008060009054906101000a90046001600160a01b03166001600160a01b0316638f33b5e56040518163ffffffff1660e01b815260040160206040518083038186803b158015613eb557600080fd5b505afa158015613ec9573d6000803e3d6000fd5b505050506040513d601f19601f82011682018060405250810190613eed9190614c6e565b6001600160a01b03166370a08231306040518263ffffffff1660e01b8152600401613f189190614f79565b60206040518083038186803b158015613f3057600080fd5b505afa158015613f44573d6000803e3d6000fd5b505050506040513d601f19601f82011682018060405250810190613f689190614dec565b90508082111561407b5760008054906101000a90046001600160a01b03166001600160a01b0316638f33b5e56040518163ffffffff1660e01b815260040160206040518083038186803b158015613fbe57600080fd5b505afa158015613fd2573d6000803e3d6000fd5b505050506040513d601f19601f82011682018060405250810190613ff69190614c6e565b6001600160a01b031663a9059cbb84836040518363ffffffff1660e01b8152600401614023929190614fcb565b602060405180830381600087803b15801561403d57600080fd5b505af1158015614051573d6000803e3d6000fd5b505050506040513d601f19601f820116820180604052508101906140759190614c52565b50614180565b60008054906101000a90046001600160a01b03166001600160a01b0316638f33b5e56040518163ffffffff1660e01b815260040160206040518083038186803b1580156140c757600080fd5b505afa1580156140db573d6000803e3d6000fd5b505050506040513d601f19601f820116820180604052508101906140ff9190614c6e565b6001600160a01b031663a9059cbb84846040518363ffffffff1660e01b815260040161412c929190614fcb565b602060405180830381600087803b15801561414657600080fd5b505af115801561415a573d6000803e3d6000fd5b505050506040513d601f19601f8201168201806040525081019061417e9190614c52565b505b614188611d77565b60005460408051638f33b5e560e01b815290516001600160a01b0390921691638f838a9f918391638f33b5e591600480820192602092909190829003018186803b1580156141d557600080fd5b505afa1580156141e9573d6000803e3d6000fd5b505050506040513d601f19601f8201168201806040525081019061420d9190614c6e565b6001600160a01b03166370a08231306040518263ffffffff1660e01b81526004016142389190614f79565b60206040518083038186803b15801561425057600080fd5b505afa158015614264573d6000803e3d6000fd5b505050506040513d601f19601f820116820180604052508101906142889190614dec565b6040518263ffffffff1660e01b815260040161132b9190615360565b60008060009054906101000a90046001600160a01b03166001600160a01b031663fb70c3bf6040518163ffffffff1660e01b815260040160206040518083038186803b1580156142f357600080fd5b505afa158015614307573d6000803e3d6000fd5b505050506040513d601f19601f8201168201806040525081019061432b9190614c6e565b6001600160a01b03166370a08231306040518263ffffffff1660e01b81526004016143569190614f79565b60206040518083038186803b15801561436e57600080fd5b505afa158015614382573d6000803e3d6000fd5b505050506040513d601f19601f820116820180604052508101906143a69190614dec565b9050808211156144b95760008054906101000a90046001600160a01b03166001600160a01b031663fb70c3bf6040518163ffffffff1660e01b815260040160206040518083038186803b1580156143fc57600080fd5b505afa158015614410573d6000803e3d6000fd5b505050506040513d601f19601f820116820180604052508101906144349190614c6e565b6001600160a01b031663a9059cbb84836040518363ffffffff1660e01b8152600401614461929190614fcb565b602060405180830381600087803b15801561447b57600080fd5b505af115801561448f573d6000803e3d6000fd5b505050506040513d601f19601f820116820180604052508101906144b39190614c52565b506145be565b60008054906101000a90046001600160a01b03166001600160a01b031663fb70c3bf6040518163ffffffff1660e01b815260040160206040518083038186803b15801561450557600080fd5b505afa158015614519573d6000803e3d6000fd5b505050506040513d601f19601f8201168201806040525081019061453d9190614c6e565b6001600160a01b031663a9059cbb84846040518363ffffffff1660e01b815260040161456a929190614fcb565b602060405180830381600087803b15801561458457600080fd5b505af1158015614598573d6000803e3d6000fd5b505050506040513d601f19601f820116820180604052508101906145bc9190614c52565b505b6000546040805163fb70c3bf60e01b815290516001600160a01b039092169163094601f191839163fb70c3bf91600480820192602092909190829003018186803b15801561460b57600080fd5b505afa15801561461f573d6000803e3d6000fd5b505050506040513d601f19601f820116820180604052508101906146439190614c6e565b6001600160a01b03166370a08231306040518263ffffffff1660e01b815260040161466e9190614f79565b60206040518083038186803b15801561468657600080fd5b505afa15801561469a573d6000803e3d6000fd5b505050506040513d601f19601f820116820180604052508101906146be9190614dec565b6040518263ffffffff1660e01b81526004016146da9190615360565b600060405180830381600087803b1580156146f457600080fd5b505af1158015614708573d6000803e3d6000fd5b505050506127dd612945565b606081015181516000916133349190613865565b600054600160a81b900460ff16806147435750614743613553565b806147585750600054600160a01b900460ff16155b6147745760405162461bcd60e51b815260040161063e906151f0565b600054600160a81b900460ff161580156135ec576000805460ff60a01b1960ff60a81b19909116600160a81b1716600160a01b17905580156127e0576000805460ff60a81b1916905550565b600054600160a81b900460ff16806147db57506147db613553565b806147f05750600054600160a01b900460ff16155b61480c5760405162461bcd60e51b815260040161063e906151f0565b600054600160a81b900460ff16158015614843576000805460ff60a01b1960ff60a81b19909116600160a81b1716600160a01b1790555b600061484d613602565b606580546001600160a01b0319166001600160a01b038316908117909155604051919250906000907f8be0079c531659141344cd1fd0a4f28419497f9722a3daafe3b4186f6b6457e0908290a35080156127e0576000805460ff60a81b1916905550565b600081848411156148d55760405162461bcd60e51b815260040161063e919061500d565b505050900390565b6148ef826001600160a01b03166149f9565b61490b5760405162461bcd60e51b815260040161063e90615329565b60006060836001600160a01b0316836040516149279190614f5d565b6000604051808303816000865af19150503d8060008114614964576040519150601f19603f3d011682016040523d82523d6000602084013e614969565b606091505b50915091508161498b5760405162461bcd60e51b815260040161063e906150e8565b8051156108aa57808060200190518101906149a69190614c52565b6108aa5760405162461bcd60e51b815260040161063e906152b5565b600081836149e35760405162461bcd60e51b815260040161063e919061500d565b5060008385816149ef57fe5b0495945050505050565b6000813f7fc5d2460186f7233c927e7db2dcc703c0e500b653ca82273b7bfad8045d85a470818114801590613e5e575050151592915050565b6040518060c0016040528060006001600160a01b03168152602001600081526020016000815260200160008152602001600015158152602001600081525090565b6040518060c001604052806000815260200160008152602001600081526020016000815260200160008152602001600081525090565b60405180606001604052806060815260200160008152602001600080191681525090565b600060208284031215614ade578081fd5b8135613648816154c9565b600080600060608486031215614afd578182fd5b8335614b08816154c9565b92506020840135614b18816154c9565b91506040840135614b28816154c9565b809150509250925092565b600080600080600060a08688031215614b4a578081fd5b8535614b55816154c9565b94506020860135614b65816154c9565b93506040860135614b75816154c9565b92506060860135614b85816154c9565b91506080860135614b95816154c9565b809150509295509295909350565b60008060008060808587031215614bb8578384fd5b8435614bc3816154c9565b93506020850135614bd3816154c9565b93969395505050506040820135916060013590565b600080600060608486031215614bfc578283fd5b8335614c07816154c9565b9250602084013591506040840135614b28816154c9565b600080600060608486031215614c32578283fd5b8335614c3d816154c9565b95602085013595506040909401359392505050565b600060208284031215614c63578081fd5b8151613648816154de565b600060208284031215614c7f578081fd5b8151613648816154c9565b60008060008060008060c08789031215614ca2578081fd5b8651614cad816154c9565b809650506020870151945060408701519350606087015192506080870151614cd4816154de565b8092505060a087015190509295509295509295565b60006020808385031215614cfb578182fd5b825167ffffffffffffffff80821115614d12578384fd5b9084019060608287031215614d25578384fd5b614d2f6060615476565b825182811115614d3d578586fd5b8301601f81018813614d4d578586fd5b805183811115614d5b578687fd5b614d6d601f8201601f19168701615476565b93508084528886828401011115614d82578687fd5b614d918187860188850161549d565b50509081528183015192810192909252604090810151908201529392505050565b600060208284031215614dc3578081fd5b813561ffff81168114613648578182fd5b600060208284031215614de5578081fd5b5035919050565b600060208284031215614dfd578081fd5b5051919050565b60008060408385031215614e16578182fd5b823591506020830135614e28816154c9565b809150509250929050565b600080600060608486031215614e47578081fd5b833592506020840135614e59816154c9565b91506040840135614b28816154de565b60008060408385031215614e7b578182fd5b50508035926020909101359150565b60008060408385031215614e9c578182fd5b505080516020909101519092909150565b600080600060608486031215614ec1578081fd5b83359250602084013591506040840135614b28816154de565b60008060008060008060c08789031215614ef2578384fd5b865195506020870151945060408701519350606087015192506080870151915060a087015190509295509295509295565b805182526020810151602083015260408101516040830152606081015160608301526080810151608083015260a081015160a08301525050565b60008251614f6f81846020870161549d565b9190910192915050565b6001600160a01b0391909116815260200190565b6001600160a01b039384168152919092166020820152604081019190915260600190565b6001600160a01b0392831681529116602082015260400190565b6001600160a01b03929092168252602082015260400190565b901515815260200190565b9182521515602082015260400190565b918252602082015260400190565b600060208252825180602084015261502c81604085016020870161549d565b601f01601f19169190910160400192915050565b602080825260119082015270283937b434b134ba32b21031b0b63632b960791b604082015260600190565b60208082526026908201527f4f776e61626c653a206e6577206f776e657220697320746865207a65726f206160408201526564647265737360d01b606082015260800190565b6020808252601b908201527f536166654d6174683a206164646974696f6e206f766572666c6f770000000000604082015260600190565b6020808252818101527f5361666545524332303a206c6f772d6c6576656c2063616c6c206661696c6564604082015260600190565b6020808252601f908201527f576974686472617720616d6f756e7420657863656564732062616c616e636500604082015260600190565b6020808252600c908201526b4e6f20616c6c6f77616e636560a01b604082015260600190565b60208082526021908201527f536166654d6174683a206d756c7469706c69636174696f6e206f766572666c6f6040820152607760f81b606082015260800190565b6020808252818101527f4f776e61626c653a2063616c6c6572206973206e6f7420746865206f776e6572604082015260600190565b6020808252602e908201527f436f6e747261637420696e7374616e63652068617320616c726561647920626560408201526d195b881a5b9a5d1a585b1a5e995960921b606082015260800190565b6020808252600d908201526c476f76206e6f7420726561647960981b604082015260600190565b6020808252600790820152664d61782031302560c81b604082015260600190565b602080825260159082015274506f6f6c206e6f7420776974686472617761626c6560581b604082015260600190565b6020808252602a908201527f5361666545524332303a204552433230206f7065726174696f6e20646964206e6040820152691bdd081cdd58d8d9595960b21b606082015260800190565b60208082526010908201526f4e6f7420776974686472617761626c6560801b604082015260600190565b6020808252601f908201527f5361666545524332303a2063616c6c20746f206e6f6e2d636f6e747261637400604082015260600190565b90815260200190565b9182526001600160a01b0316602082015260400190565b9384526001600160a01b03928316602085015291166040830152606082015260800190565b8381526001600160a01b03831660208201526101008101613e5e6040830184614f23565b9283526001600160a01b03918216602084015216604082015260600190565b9283526001600160a01b039190911660208301521515604082015260600190565b600060e08201905083825260018060a01b0383511660208301526020830151604083015260408301516060830152606083015160808301526080830151151560a083015260a083015160c08301529392505050565b92835260208301919091521515604082015260600190565b60405181810167ffffffffffffffff8111828210171561549557600080fd5b604052919050565b60005b838110156154b85781810151838201526020016154a0565b838111156108aa5750506000910152565b6001600160a01b03811681146127e057600080fd5b80151581146127e057600080fdfea2646970667358221220817201aaad0520cb25ada0954dbc967053cdc95f688a1bc098b68b6bb6bd53aa64736f6c634300060c0033",
  "devdoc": {
    "kind": "dev",
    "methods": {
      "owner()": {
        "details": "Returns the address of the current owner."
      },
      "renounceOwnership()": {
        "details": "Leaves the contract without owner. It will not be possible to call `onlyOwner` functions anymore. Can only be called by the current owner. NOTE: Renouncing ownership will leave the contract without an owner, thereby removing any functionality that is only available to the owner."
      },
      "transferOwnership(address)": {
        "details": "Transfers ownership of the contract to a new account (`newOwner`). Can only be called by the current owner."
      }
    },
    "version": 1
  },
  "userdoc": {
    "kind": "user",
    "methods": {},
    "version": 1
  },
  "storageLayout": {
    "storage": [
      {
        "astId": 14073,
        "contract": "contracts/RAMVault.sol:RAMVault",
        "label": "_storage",
        "offset": 0,
        "slot": "0",
        "type": "t_contract(YGYStorageV1)15880"
      },
      {
        "astId": 195,
        "contract": "contracts/RAMVault.sol:RAMVault",
        "label": "initialized",
        "offset": 20,
        "slot": "0",
        "type": "t_bool"
      },
      {
        "astId": 198,
        "contract": "contracts/RAMVault.sol:RAMVault",
        "label": "initializing",
        "offset": 21,
        "slot": "0",
        "type": "t_bool"
      },
      {
        "astId": 263,
        "contract": "contracts/RAMVault.sol:RAMVault",
        "label": "______gap",
        "offset": 0,
        "slot": "1",
        "type": "t_array(t_uint256)50_storage"
      },
      {
        "astId": 188,
        "contract": "contracts/RAMVault.sol:RAMVault",
        "label": "__gap",
        "offset": 0,
        "slot": "51",
        "type": "t_array(t_uint256)50_storage"
      },
      {
        "astId": 565,
        "contract": "contracts/RAMVault.sol:RAMVault",
        "label": "_owner",
        "offset": 0,
        "slot": "101",
        "type": "t_address"
      },
      {
        "astId": 683,
        "contract": "contracts/RAMVault.sol:RAMVault",
        "label": "__gap",
        "offset": 0,
        "slot": "102",
        "type": "t_array(t_uint256)49_storage"
      },
      {
        "astId": 12054,
        "contract": "contracts/RAMVault.sol:RAMVault",
        "label": "devaddr",
        "offset": 0,
        "slot": "151",
        "type": "t_address"
      },
      {
        "astId": 12056,
        "contract": "contracts/RAMVault.sol:RAMVault",
        "label": "teamaddr",
        "offset": 0,
        "slot": "152",
        "type": "t_address"
      },
      {
        "astId": 12058,
        "contract": "contracts/RAMVault.sol:RAMVault",
        "label": "regeneratoraddr",
        "offset": 0,
        "slot": "153",
        "type": "t_address"
      },
      {
        "astId": 12060,
        "contract": "contracts/RAMVault.sol:RAMVault",
        "label": "nftFactory",
        "offset": 0,
        "slot": "154",
        "type": "t_address"
      },
      {
        "astId": 13529,
        "contract": "contracts/RAMVault.sol:RAMVault",
        "label": "DEV_FEE",
        "offset": 20,
        "slot": "154",
        "type": "t_uint16"
      },
      {
        "astId": 13550,
        "contract": "contracts/RAMVault.sol:RAMVault",
        "label": "pending_DEV_rewards",
        "offset": 0,
        "slot": "155",
        "type": "t_uint256"
      },
      {
        "astId": 13552,
        "contract": "contracts/RAMVault.sol:RAMVault",
        "label": "pending_DEV_YGY_rewards",
        "offset": 0,
        "slot": "156",
        "type": "t_uint256"
      },
      {
        "astId": 13996,
        "contract": "contracts/RAMVault.sol:RAMVault",
        "label": "_superAdmin",
        "offset": 0,
        "slot": "157",
        "type": "t_address"
      }
    ],
    "types": {
      "t_address": {
        "encoding": "inplace",
        "label": "address",
        "numberOfBytes": "20"
      },
      "t_array(t_uint256)49_storage": {
        "base": "t_uint256",
        "encoding": "inplace",
        "label": "uint256[49]",
        "numberOfBytes": "1568"
      },
      "t_array(t_uint256)50_storage": {
        "base": "t_uint256",
        "encoding": "inplace",
        "label": "uint256[50]",
        "numberOfBytes": "1600"
      },
      "t_bool": {
        "encoding": "inplace",
        "label": "bool",
        "numberOfBytes": "1"
      },
      "t_contract(YGYStorageV1)15880": {
        "encoding": "inplace",
        "label": "contract YGYStorageV1",
        "numberOfBytes": "20"
      },
      "t_uint16": {
        "encoding": "inplace",
        "label": "uint16",
        "numberOfBytes": "2"
      },
      "t_uint256": {
        "encoding": "inplace",
        "label": "uint256",
        "numberOfBytes": "32"
      }
    }
  }
}