{
  "address": "0xB88c3E964FCf284A0bcFC7eFb83dEBdDA9EA3ad7",
  "abi": [
    {
      "inputs": [
        {
          "internalType": "address",
          "name": "factory",
          "type": "address"
        },
        {
          "internalType": "address",
          "name": "_ygy",
          "type": "address"
        },
        {
          "internalType": "address",
          "name": "_treasury",
          "type": "address"
        }
      ],
      "stateMutability": "nonpayable",
      "type": "constructor"
    },
    {
      "anonymous": false,
      "inputs": [
        {
          "indexed": true,
          "internalType": "address",
          "name": "owner",
          "type": "address"
        },
        {
          "indexed": true,
          "internalType": "address",
          "name": "spender",
          "type": "address"
        },
        {
          "indexed": false,
          "internalType": "uint256",
          "name": "value",
          "type": "uint256"
        }
      ],
      "name": "Approval",
      "type": "event"
    },
    {
      "anonymous": false,
      "inputs": [
        {
          "indexed": true,
          "internalType": "address",
          "name": "delegator",
          "type": "address"
        },
        {
          "indexed": true,
          "internalType": "address",
          "name": "fromDelegate",
          "type": "address"
        },
        {
          "indexed": true,
          "internalType": "address",
          "name": "toDelegate",
          "type": "address"
        }
      ],
      "name": "DelegateChanged",
      "type": "event"
    },
    {
      "anonymous": false,
      "inputs": [
        {
          "indexed": true,
          "internalType": "address",
          "name": "delegate",
          "type": "address"
        },
        {
          "indexed": false,
          "internalType": "uint256",
          "name": "previousBalance",
          "type": "uint256"
        },
        {
          "indexed": false,
          "internalType": "uint256",
          "name": "newBalance",
          "type": "uint256"
        }
      ],
      "name": "DelegateVotesChanged",
      "type": "event"
    },
    {
      "anonymous": false,
      "inputs": [
        {
          "indexed": false,
          "internalType": "address",
          "name": "dst",
          "type": "address"
        },
        {
          "indexed": false,
          "internalType": "uint256",
          "name": "value",
          "type": "uint256"
        }
      ],
      "name": "LPTokenClaimed",
      "type": "event"
    },
    {
      "anonymous": false,
      "inputs": [
        {
          "indexed": true,
          "internalType": "address",
          "name": "dst",
          "type": "address"
        },
        {
          "indexed": false,
          "internalType": "uint256",
          "name": "value",
          "type": "uint256"
        }
      ],
      "name": "LiquidityAddition",
      "type": "event"
    },
    {
      "anonymous": false,
      "inputs": [
        {
          "indexed": false,
          "internalType": "string",
          "name": "log",
          "type": "string"
        }
      ],
      "name": "Log",
      "type": "event"
    },
    {
      "anonymous": false,
      "inputs": [
        {
          "indexed": true,
          "internalType": "address",
          "name": "previousOwner",
          "type": "address"
        },
        {
          "indexed": true,
          "internalType": "address",
          "name": "newOwner",
          "type": "address"
        }
      ],
      "name": "OwnershipTransferred",
      "type": "event"
    },
    {
      "anonymous": false,
      "inputs": [
        {
          "indexed": true,
          "internalType": "address",
          "name": "from",
          "type": "address"
        },
        {
          "indexed": true,
          "internalType": "address",
          "name": "to",
          "type": "address"
        },
        {
          "indexed": false,
          "internalType": "uint256",
          "name": "value",
          "type": "uint256"
        }
      ],
      "name": "Transfer",
      "type": "event"
    },
    {
      "inputs": [],
      "name": "DELEGATION_TYPEHASH",
      "outputs": [
        {
          "internalType": "bytes32",
          "name": "",
          "type": "bytes32"
        }
      ],
      "stateMutability": "view",
      "type": "function"
    },
    {
      "inputs": [],
      "name": "DOMAIN_TYPEHASH",
      "outputs": [
        {
          "internalType": "bytes32",
          "name": "",
          "type": "bytes32"
        }
      ],
      "stateMutability": "view",
      "type": "function"
    },
    {
      "inputs": [
        {
          "internalType": "address",
          "name": "owner",
          "type": "address"
        },
        {
          "internalType": "address",
          "name": "spender",
          "type": "address"
        }
      ],
      "name": "allowance",
      "outputs": [
        {
          "internalType": "uint256",
          "name": "",
          "type": "uint256"
        }
      ],
      "stateMutability": "view",
      "type": "function"
    },
    {
      "inputs": [
        {
          "internalType": "address",
          "name": "spender",
          "type": "address"
        },
        {
          "internalType": "uint256",
          "name": "amount",
          "type": "uint256"
        }
      ],
      "name": "approve",
      "outputs": [
        {
          "internalType": "bool",
          "name": "",
          "type": "bool"
        }
      ],
      "stateMutability": "nonpayable",
      "type": "function"
    },
    {
      "inputs": [
        {
          "internalType": "address",
          "name": "_owner",
          "type": "address"
        }
      ],
      "name": "balanceOf",
      "outputs": [
        {
          "internalType": "uint256",
          "name": "",
          "type": "uint256"
        }
      ],
      "stateMutability": "view",
      "type": "function"
    },
    {
      "inputs": [
        {
          "internalType": "address",
          "name": "",
          "type": "address"
        },
        {
          "internalType": "uint32",
          "name": "",
          "type": "uint32"
        }
      ],
      "name": "checkpoints",
      "outputs": [
        {
          "internalType": "uint32",
          "name": "fromBlock",
          "type": "uint32"
        },
        {
          "internalType": "uint256",
          "name": "votes",
          "type": "uint256"
        }
      ],
      "stateMutability": "view",
      "type": "function"
    },
    {
      "inputs": [],
      "name": "contractStartTimestamp",
      "outputs": [
        {
          "internalType": "uint256",
          "name": "",
          "type": "uint256"
        }
      ],
      "stateMutability": "view",
      "type": "function"
    },
    {
      "inputs": [],
      "name": "decimals",
      "outputs": [
        {
          "internalType": "uint8",
          "name": "",
          "type": "uint8"
        }
      ],
      "stateMutability": "view",
      "type": "function"
    },
    {
      "inputs": [
        {
          "internalType": "address",
          "name": "spender",
          "type": "address"
        },
        {
          "internalType": "uint256",
          "name": "subtractedValue",
          "type": "uint256"
        }
      ],
      "name": "decreaseAllowance",
      "outputs": [
        {
          "internalType": "bool",
          "name": "",
          "type": "bool"
        }
      ],
      "stateMutability": "nonpayable",
      "type": "function"
    },
    {
      "inputs": [
        {
          "internalType": "address",
          "name": "delegatee",
          "type": "address"
        }
      ],
      "name": "delegate",
      "outputs": [],
      "stateMutability": "nonpayable",
      "type": "function"
    },
    {
      "inputs": [
        {
          "internalType": "address",
          "name": "delegatee",
          "type": "address"
        },
        {
          "internalType": "uint256",
          "name": "nonce",
          "type": "uint256"
        },
        {
          "internalType": "uint256",
          "name": "expiry",
          "type": "uint256"
        },
        {
          "internalType": "uint8",
          "name": "v",
          "type": "uint8"
        },
        {
          "internalType": "bytes32",
          "name": "r",
          "type": "bytes32"
        },
        {
          "internalType": "bytes32",
          "name": "s",
          "type": "bytes32"
        }
      ],
      "name": "delegateBySig",
      "outputs": [],
      "stateMutability": "nonpayable",
      "type": "function"
    },
    {
      "inputs": [
        {
          "internalType": "address",
          "name": "delegator",
          "type": "address"
        }
      ],
      "name": "delegates",
      "outputs": [
        {
          "internalType": "address",
          "name": "",
          "type": "address"
        }
      ],
      "stateMutability": "view",
      "type": "function"
    },
    {
      "inputs": [],
      "name": "feeDistributor",
      "outputs": [
        {
          "internalType": "address",
          "name": "",
          "type": "address"
        }
      ],
      "stateMutability": "view",
      "type": "function"
    },
    {
      "inputs": [
        {
          "internalType": "address",
          "name": "account",
          "type": "address"
        }
      ],
      "name": "getCurrentVotes",
      "outputs": [
        {
          "internalType": "uint256",
          "name": "",
          "type": "uint256"
        }
      ],
      "stateMutability": "view",
      "type": "function"
    },
    {
      "inputs": [
        {
          "internalType": "address",
          "name": "account",
          "type": "address"
        },
        {
          "internalType": "uint256",
          "name": "blockNumber",
          "type": "uint256"
        }
      ],
      "name": "getPriorVotes",
      "outputs": [
        {
          "internalType": "uint256",
          "name": "",
          "type": "uint256"
        }
      ],
      "stateMutability": "view",
      "type": "function"
    },
    {
      "inputs": [
        {
          "internalType": "address",
          "name": "spender",
          "type": "address"
        },
        {
          "internalType": "uint256",
          "name": "addedValue",
          "type": "uint256"
        }
      ],
      "name": "increaseAllowance",
      "outputs": [
        {
          "internalType": "bool",
          "name": "",
          "type": "bool"
        }
      ],
      "stateMutability": "nonpayable",
      "type": "function"
    },
    {
      "inputs": [],
      "name": "name",
      "outputs": [
        {
          "internalType": "string",
          "name": "",
          "type": "string"
        }
      ],
      "stateMutability": "view",
      "type": "function"
    },
    {
      "inputs": [
        {
          "internalType": "address",
          "name": "",
          "type": "address"
        }
      ],
      "name": "nonces",
      "outputs": [
        {
          "internalType": "uint256",
          "name": "",
          "type": "uint256"
        }
      ],
      "stateMutability": "view",
      "type": "function"
    },
    {
      "inputs": [
        {
          "internalType": "address",
          "name": "",
          "type": "address"
        }
      ],
      "name": "numCheckpoints",
      "outputs": [
        {
          "internalType": "uint32",
          "name": "",
          "type": "uint32"
        }
      ],
      "stateMutability": "view",
      "type": "function"
    },
    {
      "inputs": [],
      "name": "owner",
      "outputs": [
        {
          "internalType": "address",
          "name": "",
          "type": "address"
        }
      ],
      "stateMutability": "view",
      "type": "function"
    },
    {
      "inputs": [],
      "name": "renounceOwnership",
      "outputs": [],
      "stateMutability": "nonpayable",
      "type": "function"
    },
    {
      "inputs": [
        {
          "internalType": "address",
          "name": "_feeDistributor",
          "type": "address"
        }
      ],
      "name": "setFeeDistributor",
      "outputs": [],
      "stateMutability": "nonpayable",
      "type": "function"
    },
    {
      "inputs": [
        {
          "internalType": "address",
          "name": "_transferCheckerAddress",
          "type": "address"
        }
      ],
      "name": "setShouldTransferChecker",
      "outputs": [],
      "stateMutability": "nonpayable",
      "type": "function"
    },
    {
      "inputs": [],
      "name": "symbol",
      "outputs": [
        {
          "internalType": "string",
          "name": "",
          "type": "string"
        }
      ],
      "stateMutability": "view",
      "type": "function"
    },
    {
      "inputs": [],
      "name": "tokenCap",
      "outputs": [
        {
          "internalType": "uint256",
          "name": "",
          "type": "uint256"
        }
      ],
      "stateMutability": "view",
      "type": "function"
    },
    {
      "inputs": [],
      "name": "tokenUniswapPair",
      "outputs": [
        {
          "internalType": "address",
          "name": "",
          "type": "address"
        }
      ],
      "stateMutability": "view",
      "type": "function"
    },
    {
      "inputs": [],
      "name": "totalSupply",
      "outputs": [
        {
          "internalType": "uint256",
          "name": "",
          "type": "uint256"
        }
      ],
      "stateMutability": "view",
      "type": "function"
    },
    {
      "inputs": [
        {
          "internalType": "address",
          "name": "recipient",
          "type": "address"
        },
        {
          "internalType": "uint256",
          "name": "amount",
          "type": "uint256"
        }
      ],
      "name": "transfer",
      "outputs": [
        {
          "internalType": "bool",
          "name": "",
          "type": "bool"
        }
      ],
      "stateMutability": "nonpayable",
      "type": "function"
    },
    {
      "inputs": [],
      "name": "transferCheckerAddress",
      "outputs": [
        {
          "internalType": "address",
          "name": "",
          "type": "address"
        }
      ],
      "stateMutability": "view",
      "type": "function"
    },
    {
      "inputs": [
        {
          "internalType": "address",
          "name": "sender",
          "type": "address"
        },
        {
          "internalType": "address",
          "name": "recipient",
          "type": "address"
        },
        {
          "internalType": "uint256",
          "name": "amount",
          "type": "uint256"
        }
      ],
      "name": "transferFrom",
      "outputs": [
        {
          "internalType": "bool",
          "name": "",
          "type": "bool"
        }
      ],
      "stateMutability": "nonpayable",
      "type": "function"
    },
    {
      "inputs": [
        {
          "internalType": "address",
          "name": "newOwner",
          "type": "address"
        }
      ],
      "name": "transferOwnership",
      "outputs": [],
      "stateMutability": "nonpayable",
      "type": "function"
    },
    {
      "inputs": [],
      "name": "uniswapFactory",
      "outputs": [
        {
          "internalType": "contract IUniswapV2Factory",
          "name": "",
          "type": "address"
        }
      ],
      "stateMutability": "view",
      "type": "function"
    }
  ],
  "transactionHash": "0x404c1d4149a0f8d21efe8e9e94e8fbcc306f3b45cd5a1b00a11df0a2405c55ca",
  "args": [
    "0x5C69bEe701ef814a2B6a3EDD4B1652CB9cc5aA6f",
    "0x938842c3e97755D049b77FC586Dc26cB5d608911",
    "0x117C8f87Cc495b29bdDB20E2a54c6F4DacDdAb5C"
  ],
  "solcInputHash": "75f28e74adde1a4086abff6a2d720784",
  "bytecode": "0x60806040523480156200001157600080fd5b50604051620022dd380380620022dd833981810160405260608110156200003757600080fd5b5080516020820151604090920151909190600062000054620000b4565b600080546001600160a01b0319166001600160a01b0383169081178255604051929350917f8be0079c531659141344cd1fd0a4f28419497f9722a3daafe3b4186f6b6457e0908290a350620000ab838383620000b8565b505050620004f8565b3390565b6040805180820190915260038082526252414d60e81b6020909201918252620000e4916004916200045c565b506040805180820190915260038082526252414d60e81b602090920191825262000111916005916200045c565b506006805460ff19166012179055620001358169152d02c7e14af680000062000164565b42600755600880546001600160a01b0319166001600160a01b0385161790556200015f8262000277565b505050565b6001600160a01b038216620001c0576040805162461bcd60e51b815260206004820152601f60248201527f45524332303a206d696e7420746f20746865207a65726f206164647265737300604482015290519081900360640190fd5b620001ce600083836200037c565b620001ea81600354620003fa60201b620011cd1790919060201c565b6003556001600160a01b0382166000908152600160209081526040909120546200021f918390620011cd620003fa821b17901c565b6001600160a01b03831660008181526001602090815260408083209490945583518581529351929391927fddf252ad1be2c89b69c2b068fc378daa952ba7f163c4a11628f55a4df523b3ef9281900390910190a35050565b6009546001600160a01b031615620002d6576040805162461bcd60e51b815260206004820152601b60248201527f546f6b656e3a20706f6f6c20616c726561647920637265617465640000000000604482015290519081900360640190fd5b600854604080516364e329cb60e11b81526001600160a01b0384811660048301523060248301529151919092169163c9c653969160448083019260209291908290030181600087803b1580156200032c57600080fd5b505af115801562000341573d6000803e3d6000fd5b505050506040513d60208110156200035857600080fd5b5051600980546001600160a01b0319166001600160a01b0390921691909117905550565b6001600160a01b0383166200015f5769152d02c7e14af6800000620003b282600354620003fa60201b620011cd1790919060201c565b11156200015f576040805162461bcd60e51b8152602060048201526011602482015270151bdad95b8818d85c081c995858da1959607a1b604482015290519081900360640190fd5b60008282018381101562000455576040805162461bcd60e51b815260206004820152601b60248201527f536166654d6174683a206164646974696f6e206f766572666c6f770000000000604482015290519081900360640190fd5b9392505050565b828054600181600116156101000203166002900490600052602060002090601f016020900481019282601f106200049f57805160ff1916838001178555620004cf565b82800160010185558215620004cf579182015b82811115620004cf578251825591602001919060010190620004b2565b50620004dd929150620004e1565b5090565b5b80821115620004dd5760008155600101620004e2565b611dd580620005086000396000f3fe608060405234801561001057600080fd5b50600436106101f05760003560e01c8063782d6fe11161010f578063b4b5ea57116100a2578063dd62ed3e11610071578063dd62ed3e146105ce578063e7a324dc146105fc578063f1127ed814610604578063f2fde38b14610656576101f0565b8063b4b5ea5714610533578063c3cda52014610559578063ccfc2e8d146105a0578063dd54291b146105c6576101f0565b806395d89b41116100de57806395d89b41146104cb578063a457c2d7146104d3578063a9059cbb146104ff578063b2aef26b1461052b576101f0565b8063782d6fe1146104695780637ecebe00146104955780638bdb2afa146104bb5780638da5cb5b146104c3576101f0565b806339509351116101875780636a2f796c116101565780636a2f796c146103f45780636fcfff45146103fc57806370a082311461043b578063715018a614610461576101f0565b806339509351146103745780634d332457146103a0578063587cde1e146103a85780635c19a95c146103ce576101f0565b806318160ddd116101c357806318160ddd146102fe57806320606b701461031857806323b872dd14610320578063313ce56714610356576101f0565b806306fdde03146101f5578063095ea7b3146102725780630d43e8ad146102b257806310a7a659146102d6575b600080fd5b6101fd61067c565b6040805160208082528351818301528351919283929083019185019080838360005b8381101561023757818101518382015260200161021f565b50505050905090810190601f1680156102645780820380516001836020036101000a031916815260200191505b509250505060405180910390f35b61029e6004803603604081101561028857600080fd5b506001600160a01b038135169060200135610712565b604080519115158252519081900360200190f35b6102ba610730565b604080516001600160a01b039092168252519081900360200190f35b6102fc600480360360208110156102ec57600080fd5b50356001600160a01b031661073f565b005b6103066107b9565b60408051918252519081900360200190f35b6103066107bf565b61029e6004803603606081101561033657600080fd5b506001600160a01b038135811691602081013590911690604001356107e3565b61035e61086a565b6040805160ff9092168252519081900360200190f35b61029e6004803603604081101561038a57600080fd5b506001600160a01b038135169060200135610873565b6102ba6108c1565b6102ba600480360360208110156103be57600080fd5b50356001600160a01b03166108d0565b6102fc600480360360208110156103e457600080fd5b50356001600160a01b03166108ee565b6103066108fb565b6104226004803603602081101561041257600080fd5b50356001600160a01b0316610901565b6040805163ffffffff9092168252519081900360200190f35b6103066004803603602081101561045157600080fd5b50356001600160a01b0316610919565b6102fc610934565b6103066004803603604081101561047f57600080fd5b506001600160a01b0381351690602001356109d6565b610306600480360360208110156104ab57600080fd5b50356001600160a01b0316610bde565b6102ba610bf0565b6102ba610bff565b6101fd610c0e565b61029e600480360360408110156104e957600080fd5b506001600160a01b038135169060200135610c6f565b61029e6004803603604081101561051557600080fd5b506001600160a01b038135169060200135610cd7565b6102ba610ceb565b6103066004803603602081101561054957600080fd5b50356001600160a01b0316610cfa565b6102fc600480360360c081101561056f57600080fd5b506001600160a01b038135169060208101359060408101359060ff6060820135169060808101359060a00135610d5e565b6102fc600480360360208110156105b657600080fd5b50356001600160a01b0316610fd1565b61030661104b565b610306600480360360408110156105e457600080fd5b506001600160a01b0381358116916020013516611059565b610306611084565b6106366004803603604081101561061a57600080fd5b5080356001600160a01b0316906020013563ffffffff166110a8565b6040805163ffffffff909316835260208301919091528051918290030190f35b6102fc6004803603602081101561066c57600080fd5b50356001600160a01b03166110d5565b60048054604080516020601f60026000196101006001881615020190951694909404938401819004810282018101909252828152606093909290918301828280156107085780601f106106dd57610100808354040283529160200191610708565b820191906000526020600020905b8154815290600101906020018083116106eb57829003601f168201915b5050505050905090565b600061072661071f611227565b848461122b565b5060015b92915050565b600b546001600160a01b031681565b610747611227565b6000546001600160a01b03908116911614610797576040805162461bcd60e51b81526020600482018190526024820152600080516020611ccd833981519152604482015290519081900360640190fd5b600a80546001600160a01b0319166001600160a01b0392909216919091179055565b60035490565b7f8cad95687ba82c2ce50e74f7b754645e5117c3a5bec8151c0726d5857980a86681565b60006107f0848484611317565b610860846107fc611227565b61085b85604051806060016040528060288152602001611ca5602891396001600160a01b038a1660009081526002602052604081209061083a611227565b6001600160a01b031681526020810191909152604001600020549190611674565b61122b565b5060019392505050565b60065460ff1690565b6000610726610880611227565b8461085b8560026000610891611227565b6001600160a01b03908116825260208083019390935260409182016000908120918c1681529252902054906111cd565b6009546001600160a01b031681565b6001600160a01b039081166000908152600c60205260409020541690565b6108f8338261170b565b50565b60075481565b600e6020526000908152604090205463ffffffff1681565b6001600160a01b031660009081526001602052604090205490565b61093c611227565b6000546001600160a01b0390811691161461098c576040805162461bcd60e51b81526020600482018190526024820152600080516020611ccd833981519152604482015290519081900360640190fd5b600080546040516001600160a01b03909116907f8be0079c531659141344cd1fd0a4f28419497f9722a3daafe3b4186f6b6457e0908390a3600080546001600160a01b0319169055565b6000438210610a165760405162461bcd60e51b8152600401808060200182810382526026815260200180611c7f6026913960400191505060405180910390fd5b6001600160a01b0383166000908152600e602052604090205463ffffffff1680610a4457600091505061072a565b6001600160a01b0384166000908152600d6020908152604080832063ffffffff600019860181168552925290912054168310610ab3576001600160a01b0384166000908152600d602090815260408083206000199490940163ffffffff1683529290522060010154905061072a565b6001600160a01b0384166000908152600d6020908152604080832083805290915290205463ffffffff16831015610aee57600091505061072a565b600060001982015b8163ffffffff168163ffffffff161115610ba757600282820363ffffffff16048103610b20611b59565b506001600160a01b0387166000908152600d6020908152604080832063ffffffff808616855290835292819020815180830190925280549093168082526001909301549181019190915290871415610b825760200151945061072a9350505050565b805163ffffffff16871115610b9957819350610ba0565b6001820392505b5050610af6565b506001600160a01b0385166000908152600d6020908152604080832063ffffffff9094168352929052206001015491505092915050565b600f6020526000908152604090205481565b6008546001600160a01b031681565b6000546001600160a01b031690565b60058054604080516020601f60026000196101006001881615020190951694909404938401819004810282018101909252828152606093909290918301828280156107085780601f106106dd57610100808354040283529160200191610708565b6000610726610c7c611227565b8461085b85604051806060016040528060258152602001611d7b6025913960026000610ca6611227565b6001600160a01b03908116825260208083019390935260409182016000908120918d16815292529020549190611674565b6000610726610ce4611227565b8484611317565b600a546001600160a01b031681565b6001600160a01b0381166000908152600e602052604081205463ffffffff1680610d25576000610d57565b6001600160a01b0383166000908152600d6020908152604080832063ffffffff60001986011684529091529020600101545b9392505050565b60007f8cad95687ba82c2ce50e74f7b754645e5117c3a5bec8151c0726d5857980a866610d8961067c565b80519060200120610d986117a0565b60408051602080820195909552808201939093526060830191909152306080808401919091528151808403909101815260a0830182528051908401207fe48329057bfd03d55e49b547132e39cffd9c1820ad7b9d4c5307691425d15adf60c08401526001600160a01b038b1660e084015261010083018a90526101208084018a9052825180850390910181526101408401835280519085012061190160f01b6101608501526101628401829052610182808501829052835180860390910181526101a285018085528151918701919091206000918290526101c2860180865281905260ff8b166101e287015261020286018a90526102228601899052935192965090949293909260019261024280840193601f198301929081900390910190855afa158015610ecb573d6000803e3d6000fd5b5050604051601f1901519150506001600160a01b038116610f1d5760405162461bcd60e51b8152600401808060200182810382526025815260200180611bdc6025913960400191505060405180910390fd5b6001600160a01b0381166000908152600f602052604090208054600181019091558914610f7b5760405162461bcd60e51b8152600401808060200182810382526021815260200180611d5a6021913960400191505060405180910390fd5b87421115610fba5760405162461bcd60e51b8152600401808060200182810382526025815260200180611c5a6025913960400191505060405180910390fd5b610fc4818b61170b565b505050505b505050505050565b610fd9611227565b6000546001600160a01b03908116911614611029576040805162461bcd60e51b81526020600482018190526024820152600080516020611ccd833981519152604482015290519081900360640190fd5b600b80546001600160a01b0319166001600160a01b0392909216919091179055565b69152d02c7e14af680000081565b6001600160a01b03918216600090815260026020908152604080832093909416825291909152205490565b7fe48329057bfd03d55e49b547132e39cffd9c1820ad7b9d4c5307691425d15adf81565b600d6020908152600092835260408084209091529082529020805460019091015463ffffffff9091169082565b6110dd611227565b6000546001600160a01b0390811691161461112d576040805162461bcd60e51b81526020600482018190526024820152600080516020611ccd833981519152604482015290519081900360640190fd5b6001600160a01b0381166111725760405162461bcd60e51b8152600401808060200182810382526026815260200180611b946026913960400191505060405180910390fd5b600080546040516001600160a01b03808516939216917f8be0079c531659141344cd1fd0a4f28419497f9722a3daafe3b4186f6b6457e091a3600080546001600160a01b0319166001600160a01b0392909216919091179055565b600082820183811015610d57576040805162461bcd60e51b815260206004820152601b60248201527f536166654d6174683a206164646974696f6e206f766572666c6f770000000000604482015290519081900360640190fd5b3390565b6001600160a01b0383166112705760405162461bcd60e51b8152600401808060200182810382526024815260200180611d366024913960400191505060405180910390fd5b6001600160a01b0382166112b55760405162461bcd60e51b8152600401808060200182810382526022815260200180611bba6022913960400191505060405180910390fd5b6001600160a01b03808416600081815260026020908152604080832094871680845294825291829020859055815185815291517f8c5be1e5ebec7d5bd14f71427d1e84f3dd0314c0f7b2291e5b200ac8c7c3b9259281900390910190a3505050565b6001600160a01b03831661135c5760405162461bcd60e51b8152600401808060200182810382526025815260200180611ced6025913960400191505060405180910390fd5b6001600160a01b0382166113a15760405162461bcd60e51b8152600401808060200182810382526023815260200180611b716023913960400191505060405180910390fd5b6113ac8383836117a4565b6113e981604051806060016040528060268152602001611c01602691396001600160a01b0386166000908152600160205260409020549190611674565b6001600160a01b0380851660008181526001602052604080822094909455600a54845163301a580160e01b81526004810193909352868416602484015260448301869052845191948594919091169263301a5801926064808301939282900301818787803b15801561145a57600080fd5b505af115801561146e573d6000803e3d6000fd5b505050506040513d604081101561148457600080fd5b50805160209091015190925090508261149d83836111cd565b146114d95760405162461bcd60e51b8152600401808060200182810382526024815260200180611d126024913960400191505060405180910390fd5b6001600160a01b0384166000908152600160205260409020546114fc90836111cd565b6001600160a01b0380861660008181526001602090815260409182902094909455805186815290519193928916927fddf252ad1be2c89b69c2b068fc378daa952ba7f163c4a11628f55a4df523b3ef92918290030190a360008111801561156d5750600b546001600160a01b031615155b1561166d57600b546001600160a01b031660009081526001602052604090205461159790826111cd565b600b80546001600160a01b039081166000908152600160209081526040918290209490945591548251858152925190821693918916927fddf252ad1be2c89b69c2b068fc378daa952ba7f163c4a11628f55a4df523b3ef92908290030190a3600b546001600160a01b03161561166d57600b5460408051630211eb7d60e51b81526004810184905290516001600160a01b039092169163423d6fa09160248082019260009290919082900301818387803b15801561165457600080fd5b505af1158015611668573d6000803e3d6000fd5b505050505b5050505050565b600081848411156117035760405162461bcd60e51b81526004018080602001828103825283818151815260200191508051906020019080838360005b838110156116c85781810151838201526020016116b0565b50505050905090810190601f1680156116f55780820380516001836020036101000a031916815260200191505b509250505060405180910390fd5b505050900390565b6001600160a01b038083166000908152600c60205260408120549091169061173284610919565b6001600160a01b038581166000818152600c602052604080822080546001600160a01b031916898616908117909155905194955093928616927f3134e8a2e6d97e929a7e54011ea5485d7d196dd5f0ba4d4ef95803e8e3fc257f9190a461179a828483611817565b50505050565b4690565b6001600160a01b0383166118125760035469152d02c7e14af6800000906117cb90836111cd565b1115611812576040805162461bcd60e51b8152602060048201526011602482015270151bdad95b8818d85c081c995858da1959607a1b604482015290519081900360640190fd5b505050565b816001600160a01b0316836001600160a01b0316141580156118395750600081115b15611812576001600160a01b038316156118cb576001600160a01b0383166000908152600e602052604081205463ffffffff1690816118795760006118ab565b6001600160a01b0385166000908152600d6020908152604080832063ffffffff60001987011684529091529020600101545b905060006118b98285611954565b90506118c786848484611996565b5050505b6001600160a01b03821615611812576001600160a01b0382166000908152600e602052604081205463ffffffff169081611906576000611938565b6001600160a01b0384166000908152600d6020908152604080832063ffffffff60001987011684529091529020600101545b9050600061194682856111cd565b9050610fc985848484611996565b6000610d5783836040518060400160405280601e81526020017f536166654d6174683a207375627472616374696f6e206f766572666c6f770000815250611674565b60006119ba43604051806060016040528060338152602001611c2760339139611afb565b905060008463ffffffff16118015611a0357506001600160a01b0385166000908152600d6020908152604080832063ffffffff6000198901811685529252909120548282169116145b15611a40576001600160a01b0385166000908152600d6020908152604080832063ffffffff60001989011684529091529020600101829055611ab1565b60408051808201825263ffffffff808416825260208083018681526001600160a01b038a166000818152600d84528681208b8616825284528681209551865490861663ffffffff199182161787559251600196870155908152600e9092529390208054928801909116919092161790555b604080518481526020810184905281516001600160a01b038816927fdec2bacdd2f05b59de34da9b523dff8be42e5e38e818c82fdb0bae774387a724928290030190a25050505050565b6000816401000000008410611b515760405162461bcd60e51b81526020600482018181528351602484015283519092839260449091019190850190808383600083156116c85781810151838201526020016116b0565b509192915050565b60408051808201909152600080825260208201529056fe45524332303a207472616e7366657220746f20746865207a65726f20616464726573734f776e61626c653a206e6577206f776e657220697320746865207a65726f206164647265737345524332303a20617070726f766520746f20746865207a65726f206164647265737352414d3a3a64656c656761746542795369673a20696e76616c6964207369676e617475726545524332303a207472616e7366657220616d6f756e7420657863656564732062616c616e636552414d3a3a5f7772697465436865636b706f696e743a20626c6f636b206e756d6265722065786365656473203332206269747352414d3a3a64656c656761746542795369673a207369676e6174757265206578706972656452414d3a3a6765745072696f72566f7465733a206e6f74207965742064657465726d696e656445524332303a207472616e7366657220616d6f756e74206578636565647320616c6c6f77616e63654f776e61626c653a2063616c6c6572206973206e6f7420746865206f776e657245524332303a207472616e736665722066726f6d20746865207a65726f20616464726573734d6174682062726f6b652c20646f65732067726176697479207374696c6c20776f726b3f45524332303a20617070726f76652066726f6d20746865207a65726f206164647265737352414d3a3a64656c656761746542795369673a20696e76616c6964206e6f6e636545524332303a2064656372656173656420616c6c6f77616e63652062656c6f77207a65726fa26469706673582212206a05b581d73a3e8291d07edb39d47b7ee81835083b8befd62cdf2753e743863a64736f6c634300060c0033",
  "devdoc": {
    "kind": "dev",
    "methods": {
      "allowance(address,address)": {
        "details": "See {IERC20-allowance}."
      },
      "approve(address,uint256)": {
        "details": "See {IERC20-approve}. Requirements: - `spender` cannot be the zero address."
      },
      "balanceOf(address)": {
        "details": "See {IERC20-balanceOf}."
      },
      "constructor": {
        "details": "Sets the values for {name} and {symbol}, initializes {decimals} with a default value of 18. To select a different value for {decimals}, use {_setupDecimals}. All three of these values are immutable: they can only be set once during construction."
      },
      "decimals()": {
        "details": "Returns the number of decimals used to get its user representation. For example, if `decimals` equals `2`, a balance of `505` tokens should be displayed to a user as `5,05` (`505 / 10 ** 2`). Tokens usually opt for a value of 18, imitating the relationship between Ether and Wei. This is the value {ERC20} uses, unless {_setupDecimals} is called. NOTE: This information is only used for _display_ purposes: it in no way affects any of the arithmetic of the contract, including {IERC20-balanceOf} and {IERC20-transfer}."
      },
      "decreaseAllowance(address,uint256)": {
        "details": "Atomically decreases the allowance granted to `spender` by the caller. This is an alternative to {approve} that can be used as a mitigation for problems described in {IERC20-approve}. Emits an {Approval} event indicating the updated allowance. Requirements: - `spender` cannot be the zero address. - `spender` must have allowance for the caller of at least `subtractedValue`."
      },
      "delegate(address)": {
        "params": {
          "delegatee": "The address to delegate votes to"
        }
      },
      "delegateBySig(address,uint256,uint256,uint8,bytes32,bytes32)": {
        "params": {
          "delegatee": "The address to delegate votes to",
          "expiry": "The time at which to expire the signature",
          "nonce": "The contract state required to match the signature",
          "r": "Half of the ECDSA signature pair",
          "s": "Half of the ECDSA signature pair",
          "v": "The recovery byte of the signature"
        }
      },
      "delegates(address)": {
        "params": {
          "delegator": "The address to get delegatee for"
        }
      },
      "getCurrentVotes(address)": {
        "params": {
          "account": "The address to get votes balance"
        },
        "returns": {
          "_0": "The number of current votes for `account`"
        }
      },
      "getPriorVotes(address,uint256)": {
        "details": "Block number must be a finalized block or else this function will revert to prevent misinformation.",
        "params": {
          "account": "The address of the account to check",
          "blockNumber": "The block number to get the vote balance at"
        },
        "returns": {
          "_0": "The number of votes the account had as of the given block"
        }
      },
      "increaseAllowance(address,uint256)": {
        "details": "Atomically increases the allowance granted to `spender` by the caller. This is an alternative to {approve} that can be used as a mitigation for problems described in {IERC20-approve}. Emits an {Approval} event indicating the updated allowance. Requirements: - `spender` cannot be the zero address."
      },
      "name()": {
        "details": "Returns the name of the token."
      },
      "owner()": {
        "details": "Returns the address of the current owner."
      },
      "renounceOwnership()": {
        "details": "Leaves the contract without owner. It will not be possible to call `onlyOwner` functions anymore. Can only be called by the current owner. NOTE: Renouncing ownership will leave the contract without an owner, thereby removing any functionality that is only available to the owner."
      },
      "symbol()": {
        "details": "Returns the symbol of the token, usually a shorter version of the name."
      },
      "totalSupply()": {
        "details": "See {IERC20-totalSupply}."
      },
      "transfer(address,uint256)": {
        "details": "See {IERC20-transfer}. Requirements: - `recipient` cannot be the zero address. - the caller must have a balance of at least `amount`."
      },
      "transferFrom(address,address,uint256)": {
        "details": "See {IERC20-transferFrom}. Emits an {Approval} event indicating the updated allowance. This is not required by the EIP. See the note at the beginning of {ERC20}; Requirements: - `sender` and `recipient` cannot be the zero address. - `sender` must have a balance of at least `amount`. - the caller must have allowance for ``sender``'s tokens of at least `amount`."
      },
      "transferOwnership(address)": {
        "details": "Transfers ownership of the contract to a new account (`newOwner`). Can only be called by the current owner."
      }
    },
    "version": 1
  },
  "userdoc": {
    "events": {
      "DelegateChanged(address,address,address)": {
        "notice": "An event thats emitted when an account changes its delegate"
      },
      "DelegateVotesChanged(address,uint256,uint256)": {
        "notice": "An event thats emitted when a delegate account's vote balance changes"
      }
    },
    "kind": "user",
    "methods": {
      "DELEGATION_TYPEHASH()": {
        "notice": "The EIP-712 typehash for the delegation struct used by the contract"
      },
      "DOMAIN_TYPEHASH()": {
        "notice": "The EIP-712 typehash for the contract's domain"
      },
      "checkpoints(address,uint32)": {
        "notice": "A record of votes checkpoints for each account, by index"
      },
      "delegate(address)": {
        "notice": "Delegate votes from `msg.sender` to `delegatee`"
      },
      "delegateBySig(address,uint256,uint256,uint8,bytes32,bytes32)": {
        "notice": "Delegates votes from signatory to `delegatee`"
      },
      "delegates(address)": {
        "notice": "Delegate votes from `msg.sender` to `delegatee`"
      },
      "getCurrentVotes(address)": {
        "notice": "Gets the current votes balance for `account`"
      },
      "getPriorVotes(address,uint256)": {
        "notice": "Determine the prior number of votes for an account as of a block number"
      },
      "nonces(address)": {
        "notice": "A record of states for signing / validating signatures"
      },
      "numCheckpoints(address)": {
        "notice": "The number of checkpoints for each account"
      }
    },
    "version": 1
  },
  "storageLayout": {
    "storage": [
      {
        "astId": 2638,
        "contract": "contracts/RAM.sol:RAM",
        "label": "_owner",
        "offset": 0,
        "slot": "0",
        "type": "t_address"
      },
      {
        "astId": 8015,
        "contract": "contracts/RAM.sol:RAM",
        "label": "_balances",
        "offset": 0,
        "slot": "1",
        "type": "t_mapping(t_address,t_uint256)"
      },
      {
        "astId": 8021,
        "contract": "contracts/RAM.sol:RAM",
        "label": "_allowances",
        "offset": 0,
        "slot": "2",
        "type": "t_mapping(t_address,t_mapping(t_address,t_uint256))"
      },
      {
        "astId": 8035,
        "contract": "contracts/RAM.sol:RAM",
        "label": "_totalSupply",
        "offset": 0,
        "slot": "3",
        "type": "t_uint256"
      },
      {
        "astId": 8037,
        "contract": "contracts/RAM.sol:RAM",
        "label": "_name",
        "offset": 0,
        "slot": "4",
        "type": "t_string_storage"
      },
      {
        "astId": 8039,
        "contract": "contracts/RAM.sol:RAM",
        "label": "_symbol",
        "offset": 0,
        "slot": "5",
        "type": "t_string_storage"
      },
      {
        "astId": 8041,
        "contract": "contracts/RAM.sol:RAM",
        "label": "_decimals",
        "offset": 0,
        "slot": "6",
        "type": "t_uint8"
      },
      {
        "astId": 8046,
        "contract": "contracts/RAM.sol:RAM",
        "label": "contractStartTimestamp",
        "offset": 0,
        "slot": "7",
        "type": "t_uint256"
      },
      {
        "astId": 8141,
        "contract": "contracts/RAM.sol:RAM",
        "label": "uniswapFactory",
        "offset": 0,
        "slot": "8",
        "type": "t_contract(IUniswapV2Factory)22589"
      },
      {
        "astId": 8143,
        "contract": "contracts/RAM.sol:RAM",
        "label": "tokenUniswapPair",
        "offset": 0,
        "slot": "9",
        "type": "t_address"
      },
      {
        "astId": 8339,
        "contract": "contracts/RAM.sol:RAM",
        "label": "transferCheckerAddress",
        "offset": 0,
        "slot": "10",
        "type": "t_address"
      },
      {
        "astId": 8353,
        "contract": "contracts/RAM.sol:RAM",
        "label": "feeDistributor",
        "offset": 0,
        "slot": "11",
        "type": "t_address"
      },
      {
        "astId": 9360,
        "contract": "contracts/RAM.sol:RAM",
        "label": "_delegates",
        "offset": 0,
        "slot": "12",
        "type": "t_mapping(t_address,t_address)"
      },
      {
        "astId": 9372,
        "contract": "contracts/RAM.sol:RAM",
        "label": "checkpoints",
        "offset": 0,
        "slot": "13",
        "type": "t_mapping(t_address,t_mapping(t_uint32,t_struct(Checkpoint)9365_storage))"
      },
      {
        "astId": 9377,
        "contract": "contracts/RAM.sol:RAM",
        "label": "numCheckpoints",
        "offset": 0,
        "slot": "14",
        "type": "t_mapping(t_address,t_uint32)"
      },
      {
        "astId": 9394,
        "contract": "contracts/RAM.sol:RAM",
        "label": "nonces",
        "offset": 0,
        "slot": "15",
        "type": "t_mapping(t_address,t_uint256)"
      }
    ],
    "types": {
      "t_address": {
        "encoding": "inplace",
        "label": "address",
        "numberOfBytes": "20"
      },
      "t_contract(IUniswapV2Factory)22589": {
        "encoding": "inplace",
        "label": "contract IUniswapV2Factory",
        "numberOfBytes": "20"
      },
      "t_mapping(t_address,t_address)": {
        "encoding": "mapping",
        "key": "t_address",
        "label": "mapping(address => address)",
        "numberOfBytes": "32",
        "value": "t_address"
      },
      "t_mapping(t_address,t_mapping(t_address,t_uint256))": {
        "encoding": "mapping",
        "key": "t_address",
        "label": "mapping(address => mapping(address => uint256))",
        "numberOfBytes": "32",
        "value": "t_mapping(t_address,t_uint256)"
      },
      "t_mapping(t_address,t_mapping(t_uint32,t_struct(Checkpoint)9365_storage))": {
        "encoding": "mapping",
        "key": "t_address",
        "label": "mapping(address => mapping(uint32 => struct RAM.Checkpoint))",
        "numberOfBytes": "32",
        "value": "t_mapping(t_uint32,t_struct(Checkpoint)9365_storage)"
      },
      "t_mapping(t_address,t_uint256)": {
        "encoding": "mapping",
        "key": "t_address",
        "label": "mapping(address => uint256)",
        "numberOfBytes": "32",
        "value": "t_uint256"
      },
      "t_mapping(t_address,t_uint32)": {
        "encoding": "mapping",
        "key": "t_address",
        "label": "mapping(address => uint32)",
        "numberOfBytes": "32",
        "value": "t_uint32"
      },
      "t_mapping(t_uint32,t_struct(Checkpoint)9365_storage)": {
        "encoding": "mapping",
        "key": "t_uint32",
        "label": "mapping(uint32 => struct RAM.Checkpoint)",
        "numberOfBytes": "32",
        "value": "t_struct(Checkpoint)9365_storage"
      },
      "t_string_storage": {
        "encoding": "bytes",
        "label": "string",
        "numberOfBytes": "32"
      },
      "t_struct(Checkpoint)9365_storage": {
        "encoding": "inplace",
        "label": "struct RAM.Checkpoint",
        "members": [
          {
            "astId": 9362,
            "contract": "contracts/RAM.sol:RAM",
            "label": "fromBlock",
            "offset": 0,
            "slot": "0",
            "type": "t_uint32"
          },
          {
            "astId": 9364,
            "contract": "contracts/RAM.sol:RAM",
            "label": "votes",
            "offset": 0,
            "slot": "1",
            "type": "t_uint256"
          }
        ],
        "numberOfBytes": "64"
      },
      "t_uint256": {
        "encoding": "inplace",
        "label": "uint256",
        "numberOfBytes": "32"
      },
      "t_uint32": {
        "encoding": "inplace",
        "label": "uint32",
        "numberOfBytes": "4"
      },
      "t_uint8": {
        "encoding": "inplace",
        "label": "uint8",
        "numberOfBytes": "1"
      }
    }
  }
}