{
  "address": "0x5b9A40693859e3F56a8494C779F69509a4d66fDB",
  "abi": [
    {
      "anonymous": false,
      "inputs": [
        {
          "indexed": true,
          "internalType": "address",
          "name": "owner",
          "type": "address"
        },
        {
          "indexed": true,
          "internalType": "address",
          "name": "spender",
          "type": "address"
        },
        {
          "indexed": false,
          "internalType": "uint256",
          "name": "_pid",
          "type": "uint256"
        },
        {
          "indexed": false,
          "internalType": "uint256",
          "name": "value",
          "type": "uint256"
        }
      ],
      "name": "Approval",
      "type": "event"
    },
    {
      "anonymous": false,
      "inputs": [
        {
          "indexed": true,
          "internalType": "address",
          "name": "user",
          "type": "address"
        },
        {
          "indexed": true,
          "internalType": "uint256",
          "name": "pid",
          "type": "uint256"
        },
        {
          "indexed": true,
          "internalType": "uint256",
          "name": "level",
          "type": "uint256"
        },
        {
          "indexed": false,
          "internalType": "bool",
          "name": "fromNFT",
          "type": "bool"
        }
      ],
      "name": "Boost",
      "type": "event"
    },
    {
      "anonymous": false,
      "inputs": [
        {
          "indexed": true,
          "internalType": "address",
          "name": "user",
          "type": "address"
        },
        {
          "indexed": true,
          "internalType": "uint256",
          "name": "pid",
          "type": "uint256"
        },
        {
          "indexed": false,
          "internalType": "uint256",
          "name": "amount",
          "type": "uint256"
        }
      ],
      "name": "Deposit",
      "type": "event"
    },
    {
      "anonymous": false,
      "inputs": [
        {
          "indexed": true,
          "internalType": "address",
          "name": "user",
          "type": "address"
        },
        {
          "indexed": true,
          "internalType": "uint256",
          "name": "pid",
          "type": "uint256"
        },
        {
          "indexed": false,
          "internalType": "uint256",
          "name": "amount",
          "type": "uint256"
        }
      ],
      "name": "EmergencyWithdraw",
      "type": "event"
    },
    {
      "anonymous": false,
      "inputs": [
        {
          "indexed": false,
          "internalType": "uint256",
          "name": "",
          "type": "uint256"
        }
      ],
      "name": "NewEpoch",
      "type": "event"
    },
    {
      "anonymous": false,
      "inputs": [
        {
          "indexed": true,
          "internalType": "address",
          "name": "previousOwner",
          "type": "address"
        },
        {
          "indexed": true,
          "internalType": "address",
          "name": "newOwner",
          "type": "address"
        }
      ],
      "name": "OwnershipTransferred",
      "type": "event"
    },
    {
      "anonymous": false,
      "inputs": [
        {
          "indexed": false,
          "internalType": "uint256",
          "name": "pid",
          "type": "uint256"
        },
        {
          "indexed": false,
          "internalType": "address",
          "name": "to",
          "type": "address"
        }
      ],
      "name": "RewardPaid",
      "type": "event"
    },
    {
      "anonymous": false,
      "inputs": [
        {
          "indexed": false,
          "internalType": "address",
          "name": "previousOwner",
          "type": "address"
        },
        {
          "indexed": false,
          "internalType": "address",
          "name": "newOwner",
          "type": "address"
        }
      ],
      "name": "SuperAdminTransfered",
      "type": "event"
    },
    {
      "anonymous": false,
      "inputs": [
        {
          "indexed": true,
          "internalType": "address",
          "name": "user",
          "type": "address"
        },
        {
          "indexed": true,
          "internalType": "uint256",
          "name": "pid",
          "type": "uint256"
        },
        {
          "indexed": false,
          "internalType": "uint256",
          "name": "amount",
          "type": "uint256"
        }
      ],
      "name": "Withdraw",
      "type": "event"
    },
    {
      "inputs": [
        {
          "internalType": "address",
          "name": "_user",
          "type": "address"
        },
        {
          "internalType": "address",
          "name": "_tokenAddress",
          "type": "address"
        },
        {
          "internalType": "uint256",
          "name": "_tokenId",
          "type": "uint256"
        },
        {
          "internalType": "uint256",
          "name": "_poolId",
          "type": "uint256"
        }
      ],
      "name": "NFTUsage",
      "outputs": [],
      "stateMutability": "nonpayable",
      "type": "function"
    },
    {
      "inputs": [
        {
          "internalType": "uint256",
          "name": "_amount",
          "type": "uint256"
        }
      ],
      "name": "addPendingRewards",
      "outputs": [],
      "stateMutability": "nonpayable",
      "type": "function"
    },
    {
      "inputs": [
        {
          "internalType": "uint256",
          "name": "_allocPoint",
          "type": "uint256"
        },
        {
          "internalType": "contract IERC20",
          "name": "_token",
          "type": "address"
        },
        {
          "internalType": "bool",
          "name": "_withdrawable",
          "type": "bool"
        }
      ],
      "name": "addPool",
      "outputs": [],
      "stateMutability": "nonpayable",
      "type": "function"
    },
    {
      "inputs": [
        {
          "internalType": "uint256",
          "name": "_amount",
          "type": "uint256"
        }
      ],
      "name": "addRAMRewardsOwner",
      "outputs": [],
      "stateMutability": "nonpayable",
      "type": "function"
    },
    {
      "inputs": [
        {
          "internalType": "uint256",
          "name": "_amount",
          "type": "uint256"
        }
      ],
      "name": "addYGYRewardsOwner",
      "outputs": [],
      "stateMutability": "nonpayable",
      "type": "function"
    },
    {
      "inputs": [],
      "name": "burnSuperAdmin",
      "outputs": [],
      "stateMutability": "nonpayable",
      "type": "function"
    },
    {
      "inputs": [
        {
          "internalType": "uint256",
          "name": "_pid",
          "type": "uint256"
        },
        {
          "internalType": "address",
          "name": "_user",
          "type": "address"
        }
      ],
      "name": "checkRewards",
      "outputs": [
        {
          "internalType": "uint256",
          "name": "pendingRAM",
          "type": "uint256"
        },
        {
          "internalType": "uint256",
          "name": "pendingYGY",
          "type": "uint256"
        }
      ],
      "stateMutability": "view",
      "type": "function"
    },
    {
      "inputs": [
        {
          "internalType": "uint256",
          "name": "_pid",
          "type": "uint256"
        }
      ],
      "name": "claimRewards",
      "outputs": [],
      "stateMutability": "nonpayable",
      "type": "function"
    },
    {
      "inputs": [
        {
          "internalType": "uint256",
          "name": "_pid",
          "type": "uint256"
        },
        {
          "internalType": "uint256",
          "name": "_amount",
          "type": "uint256"
        }
      ],
      "name": "deposit",
      "outputs": [],
      "stateMutability": "nonpayable",
      "type": "function"
    },
    {
      "inputs": [
        {
          "internalType": "address",
          "name": "_depositFor",
          "type": "address"
        },
        {
          "internalType": "uint256",
          "name": "_pid",
          "type": "uint256"
        },
        {
          "internalType": "uint256",
          "name": "_amount",
          "type": "uint256"
        }
      ],
      "name": "depositFor",
      "outputs": [],
      "stateMutability": "nonpayable",
      "type": "function"
    },
    {
      "inputs": [],
      "name": "distributeFees",
      "outputs": [],
      "stateMutability": "nonpayable",
      "type": "function"
    },
    {
      "inputs": [
        {
          "internalType": "uint256",
          "name": "_pid",
          "type": "uint256"
        }
      ],
      "name": "emergencyWithdraw",
      "outputs": [],
      "stateMutability": "nonpayable",
      "type": "function"
    },
    {
      "inputs": [
        {
          "internalType": "address",
          "name": "__superAdmin",
          "type": "address"
        },
        {
          "internalType": "address",
          "name": "_regeneratoraddr",
          "type": "address"
        },
        {
          "internalType": "address",
          "name": "_devaddr",
          "type": "address"
        },
        {
          "internalType": "address",
          "name": "_teamaddr",
          "type": "address"
        },
        {
          "internalType": "address",
          "name": "_nftFactory",
          "type": "address"
        }
      ],
      "name": "initialize",
      "outputs": [],
      "stateMutability": "nonpayable",
      "type": "function"
    },
    {
      "inputs": [],
      "name": "massUpdatePools",
      "outputs": [],
      "stateMutability": "nonpayable",
      "type": "function"
    },
    {
      "inputs": [
        {
          "internalType": "address",
          "name": "newOwner",
          "type": "address"
        }
      ],
      "name": "newSuperAdmin",
      "outputs": [],
      "stateMutability": "nonpayable",
      "type": "function"
    },
    {
      "inputs": [],
      "name": "owner",
      "outputs": [
        {
          "internalType": "address",
          "name": "",
          "type": "address"
        }
      ],
      "stateMutability": "view",
      "type": "function"
    },
    {
      "inputs": [
        {
          "internalType": "uint256",
          "name": "_pid",
          "type": "uint256"
        },
        {
          "internalType": "uint256",
          "name": "_level",
          "type": "uint256"
        }
      ],
      "name": "purchase",
      "outputs": [],
      "stateMutability": "nonpayable",
      "type": "function"
    },
    {
      "inputs": [],
      "name": "renounceOwnership",
      "outputs": [],
      "stateMutability": "nonpayable",
      "type": "function"
    },
    {
      "inputs": [
        {
          "internalType": "uint256",
          "name": "_pid",
          "type": "uint256"
        },
        {
          "internalType": "uint256",
          "name": "_allocPoint",
          "type": "uint256"
        },
        {
          "internalType": "bool",
          "name": "_withdrawable",
          "type": "bool"
        }
      ],
      "name": "set",
      "outputs": [],
      "stateMutability": "nonpayable",
      "type": "function"
    },
    {
      "inputs": [
        {
          "internalType": "address",
          "name": "_devaddr",
          "type": "address"
        },
        {
          "internalType": "address",
          "name": "_teamaddr",
          "type": "address"
        },
        {
          "internalType": "address",
          "name": "_regeneratoraddr",
          "type": "address"
        }
      ],
      "name": "setAddresses",
      "outputs": [],
      "stateMutability": "nonpayable",
      "type": "function"
    },
    {
      "inputs": [
        {
          "internalType": "address",
          "name": "spender",
          "type": "address"
        },
        {
          "internalType": "uint256",
          "name": "_pid",
          "type": "uint256"
        },
        {
          "internalType": "uint256",
          "name": "value",
          "type": "uint256"
        }
      ],
      "name": "setAllowanceForPoolToken",
      "outputs": [],
      "stateMutability": "nonpayable",
      "type": "function"
    },
    {
      "inputs": [
        {
          "internalType": "uint16",
          "name": "_DEV_FEE",
          "type": "uint16"
        }
      ],
      "name": "setDevFee",
      "outputs": [],
      "stateMutability": "nonpayable",
      "type": "function"
    },
    {
      "inputs": [
        {
          "internalType": "address",
          "name": "tokenAddress",
          "type": "address"
        },
        {
          "internalType": "uint256",
          "name": "_amount",
          "type": "uint256"
        },
        {
          "internalType": "address",
          "name": "contractAddress",
          "type": "address"
        }
      ],
      "name": "setStrategyContractOrDistributionContractAllowance",
      "outputs": [],
      "stateMutability": "nonpayable",
      "type": "function"
    },
    {
      "inputs": [],
      "name": "startNewEpoch",
      "outputs": [],
      "stateMutability": "nonpayable",
      "type": "function"
    },
    {
      "inputs": [],
      "name": "superAdmin",
      "outputs": [
        {
          "internalType": "address",
          "name": "",
          "type": "address"
        }
      ],
      "stateMutability": "view",
      "type": "function"
    },
    {
      "inputs": [
        {
          "internalType": "address",
          "name": "newOwner",
          "type": "address"
        }
      ],
      "name": "transferOwnership",
      "outputs": [],
      "stateMutability": "nonpayable",
      "type": "function"
    },
    {
      "inputs": [],
      "name": "transferRAMDevFee",
      "outputs": [],
      "stateMutability": "nonpayable",
      "type": "function"
    },
    {
      "inputs": [],
      "name": "transferYGYDevFee",
      "outputs": [],
      "stateMutability": "nonpayable",
      "type": "function"
    },
    {
      "inputs": [
        {
          "internalType": "uint256",
          "name": "_pid",
          "type": "uint256"
        },
        {
          "internalType": "uint256",
          "name": "_amount",
          "type": "uint256"
        }
      ],
      "name": "withdraw",
      "outputs": [],
      "stateMutability": "nonpayable",
      "type": "function"
    },
    {
      "inputs": [
        {
          "internalType": "address",
          "name": "owner",
          "type": "address"
        },
        {
          "internalType": "uint256",
          "name": "_pid",
          "type": "uint256"
        },
        {
          "internalType": "uint256",
          "name": "_amount",
          "type": "uint256"
        }
      ],
      "name": "withdrawFrom",
      "outputs": [],
      "stateMutability": "nonpayable",
      "type": "function"
    }
  ],
  "transactionHash": "0x836160c8c5d206ceac425ca82236347acace5077235720d90b4d134f6f1fc3b6",
  "args": [],
  "solcInputHash": "ac7b371f6e191aaf3845c9283da8575b",
  "bytecode": "0x608060405234801561001057600080fd5b506154ae806100206000396000f3fe608060405234801561001057600080fd5b50600436106101da5760003560e01c806364482f7911610104578063a676860a116100a2578063dbe0901f11610071578063dbe0901f14610390578063e18cb4fe146103a3578063e2bbb158146103b6578063f2fde38b146103c9576101da565b8063a676860a1461035a578063bb57ad201461036d578063c401458814610375578063cc1362ec14610388576101da565b80637abceffd116100de5780637abceffd1461032f5780637cf75ca3146103425780638da5cb5b1461034a578063934eaa5014610352576101da565b806364482f791461030157806370876c9814610314578063715018a614610327576101da565b80633b6a68491161017c5780634cf5fbf51161014b5780634cf5fbf5146102c05780635312ea8e146102d35780635db64aba146102e6578063630b5ba1146102f9576101da565b80633b6a6849146102745780633fe6a27814610287578063423d6fa01461029a578063441a3e70146102ad576101da565b806329575f6a116101b857806329575f6a14610231578063363bf964146102465780633a0967cd146102595780633aab0a621461026c576101da565b80630962ef79146101df57806310178d9c146101f45780631459457a1461021e575b600080fd5b6101f26101ed366004614d3c565b6103dc565b005b610207610202366004614d6c565b610565565b604051610215929190614f67565b60405180910390f35b6101f261022c366004614aa9565b6105f2565b610239610705565b6040516102159190614ee1565b6101f2610254366004614a5f565b610714565b6101f2610267366004614b94565b610788565b6101f26108b0565b6101f2610282366004614d3c565b610adf565b6101f2610295366004614d3c565b610c94565b6101f26102a8366004614d3c565b610e16565b6101f26102bb366004614dd1565b610ee7565b6101f26102ce366004614b94565b610ef7565b6101f26102e1366004614d3c565b611135565b6101f26102f4366004614b19565b6112d8565b6101f261169b565b6101f261030f366004614e15565b6117c3565b6101f2610322366004614dd1565b611834565b6101f2611bfd565b6101f261033d366004614d9b565b611c7c565b6101f2611ced565b6102396121eb565b6101f26121fa565b6101f2610368366004614a43565b61225f565b6101f26122f2565b6101f2610383366004614b5e565b612759565b6101f26128bb565b6101f261039e366004614b94565b612db2565b6101f26103b1366004614d1a565b612e6c565b6101f26103c4366004614dd1565b612ee9565b6101f26103d7366004614a43565b613126565b6103e46149a8565b6000546103fb9083906001600160a01b03166131dd565b90506104056149e9565b60005461041e90849033906001600160a01b03166132b0565b60608101519091501561044957600080546104499183918591339181906001600160a01b0316613378565b6104538333613441565b61045d818361347b565b6000546040516303c4399d60e11b81526001600160a01b0390911690630788733a906104919086903390869060040161530d565b600060405180830381600087803b1580156104ab57600080fd5b505af11580156104bf573d6000803e3d6000fd5b505060005460405163d4665bb760e01b81526001600160a01b03909116925063d4665bb791506104f59086908690600401615371565b600060405180830381600087803b15801561050f57600080fd5b505af1158015610523573d6000803e3d6000fd5b505050507fc05cbf47ef4152ea1b2446fb1ba8eb9c7285054d9c85f2f52c294200d8d1d38b83336040516105589291906152d1565b60405180910390a1505050565b60008054604051630405e36760e21b815282916001600160a01b0316906310178d9c9061059890879087906004016152d1565b604080518083038186803b1580156105af57600080fd5b505afa1580156105c3573d6000803e3d6000fd5b505050506040513d601f19601f820116820180604052508101906105e79190614df2565b915091509250929050565b600054600160a81b900460ff168061060d575061060d6134c9565b806106225750600054600160a01b900460ff16155b6106475760405162461bcd60e51b815260040161063e90615158565b60405180910390fd5b600054600160a81b900460ff1615801561067e576000805460ff60a01b1960ff60a81b19909116600160a81b1716600160a01b1790555b6106866134cf565b609a8054609d80546001600160a01b03199081166001600160a01b038b8116919091179092556099805482168a841617905560978054821689841617905560988054821688841617905561ffff60a01b1990921660b560a21b1790911690841617905580156106fd576000805460ff60a81b191690555b505050505050565b609d546001600160a01b031690565b61071c613578565b6065546001600160a01b039081169116146107495760405162461bcd60e51b815260040161063e90615123565b609780546001600160a01b039485166001600160a01b031991821617909155609880549385169382169390931790925560998054919093169116179055565b6000805460405163158dd39360e01b81526001600160a01b039091169063158dd393906107bd90869088903390600401615331565b60206040518083038186803b1580156107d557600080fd5b505afa1580156107e9573d6000803e3d6000fd5b505050506040513d601f19601f8201168201806040525081019061080d9190614d54565b90508181101561082f5760405162461bcd60e51b815260040161063e906150bc565b6000546001600160a01b03166360443a4584863361084d868861357c565b6040518563ffffffff1660e01b815260040161086c94939291906152e8565b600060405180830381600087803b15801561088657600080fd5b505af115801561089a573d6000803e3d6000fd5b505050506108aa838386336135c5565b50505050565b6000805460408051632515621d60e11b815290516001600160a01b0390921692634a2ac43a9260048084019382900301818387803b1580156108f157600080fd5b505af1158015610905573d6000803e3d6000fd5b5050600080546040805163221205f760e21b815290516001600160a01b03909216945063884817dc9350600480820193929182900301818387803b15801561094c57600080fd5b505af1158015610960573d6000803e3d6000fd5b50506000805460405163eaac617360e01b81526001600160a01b03909116935063eaac6173925061099691908190600401614f67565b600060405180830381600087803b1580156109b057600080fd5b505af11580156109c4573d6000803e3d6000fd5b5050600080546040805163022fed0760e11b815290516001600160a01b03909216945063045fda0e9350600480820193929182900301818387803b158015610a0b57600080fd5b505af1158015610a1f573d6000803e3d6000fd5b505050507febad8099c467528a56c98b63c8d476d251cf1ffb4c75db94b4d23fa2b6a1e33560008054906101000a90046001600160a01b03166001600160a01b031663900cf0cf6040518163ffffffff1660e01b815260040160206040518083038186803b158015610a9057600080fd5b505afa158015610aa4573d6000803e3d6000fd5b505050506040513d601f19601f82011682018060405250810190610ac89190614d54565b604051610ad591906152c8565b60405180910390a1565b610ae7613578565b6065546001600160a01b03908116911614610b145760405162461bcd60e51b815260040161063e90615123565b60008054906101000a90046001600160a01b03166001600160a01b0316638f33b5e56040518163ffffffff1660e01b815260040160206040518083038186803b158015610b6057600080fd5b505afa158015610b74573d6000803e3d6000fd5b505050506040513d601f19601f82011682018060405250810190610b989190614be4565b6001600160a01b03166323b872dd3330846040518463ffffffff1660e01b8152600401610bc793929190614ef5565b602060405180830381600087803b158015610be157600080fd5b505af1158015610bf5573d6000803e3d6000fd5b505050506040513d601f19601f82011682018060405250810190610c199190614bc8565b8015610c255750600081115b610c2e57600080fd5b600080546040516301e0a3fb60e61b81526001600160a01b0390911691637828fec091610c5f918591600401614f57565b600060405180830381600087803b158015610c7957600080fd5b505af1158015610c8d573d6000803e3d6000fd5b5050505050565b610c9c613578565b6065546001600160a01b03908116911614610cc95760405162461bcd60e51b815260040161063e90615123565b60008054906101000a90046001600160a01b03166001600160a01b031663fb70c3bf6040518163ffffffff1660e01b815260040160206040518083038186803b158015610d1557600080fd5b505afa158015610d29573d6000803e3d6000fd5b505050506040513d601f19601f82011682018060405250810190610d4d9190614be4565b6001600160a01b03166323b872dd3330846040518463ffffffff1660e01b8152600401610d7c93929190614ef5565b602060405180830381600087803b158015610d9657600080fd5b505af1158015610daa573d6000803e3d6000fd5b505050506040513d601f19601f82011682018060405250810190610dce9190614bc8565b8015610dda5750600081115b610de357600080fd5b6000546040516301e0a3fb60e61b81526001600160a01b0390911690637828fec090610c5f908490600190600401614f57565b60008054906101000a90046001600160a01b03166001600160a01b0316638f33b5e56040518163ffffffff1660e01b815260040160206040518083038186803b158015610e6257600080fd5b505afa158015610e76573d6000803e3d6000fd5b505050506040513d601f19601f82011682018060405250810190610e9a9190614be4565b6001600160a01b0316336001600160a01b031614610eb757600080fd5b600054604051630211eb7d60e51b81526001600160a01b039091169063423d6fa090610c5f9084906004016152c8565b610ef3828233336135c5565b5050565b610eff6149a8565b600054610f169084906001600160a01b03166131dd565b9050610f206149e9565b600054610f3990859087906001600160a01b03166132b0565b9050610f458486613441565b82156110185781516040516323b872dd60e01b81526001600160a01b03909116906323b872dd90610f7e90339030908890600401614ef5565b602060405180830381600087803b158015610f9857600080fd5b505af1158015610fac573d6000803e3d6000fd5b505050506040513d601f19601f82011682018060405250810190610fd09190614bc8565b508051610fdd90846137db565b81526060810151151580610ff5575060008160800151115b1561101857600080546110189183918591899181906001600160a01b0316613378565b611022818361347b565b6000546040516303c4399d60e11b81526001600160a01b0390911690630788733a906110569087908990869060040161530d565b600060405180830381600087803b15801561107057600080fd5b505af1158015611084573d6000803e3d6000fd5b505060005460405163d4665bb760e01b81526001600160a01b03909116925063d4665bb791506110ba9087908690600401615371565b600060405180830381600087803b1580156110d457600080fd5b505af11580156110e8573d6000803e3d6000fd5b5050505083856001600160a01b03167f90890809c654f11d6e72a28fa60149770a0d11ec6c92319d6ceb2bb0a4ea1a158560405161112691906152c8565b60405180910390a35050505050565b61113d6149a8565b6000546111549083906001600160a01b03166131dd565b905080608001516111775760405162461bcd60e51b815260040161063e906151ee565b61117f6149e9565b60005461119890849033906001600160a01b03166132b0565b805183519192506111b4916001600160a01b0316903390613800565b8051604051849133917fbb757047c2b5f3974fe26b7c10f732e7bce710b0952a71082702781e62ae0595916111e8916152c8565b60405180910390a3600080825260608201819052602082018190526040808301829052905490516303c4399d60e11b81526001600160a01b0390911690630788733a9061123d9086903390869060040161530d565b600060405180830381600087803b15801561125757600080fd5b505af115801561126b573d6000803e3d6000fd5b505060005460405163d4665bb760e01b81526001600160a01b03909116925063d4665bb791506112a19086908690600401615371565b600060405180830381600087803b1580156112bb57600080fd5b505af11580156112cf573d6000803e3d6000fd5b50505050505050565b609a546001600160a01b031633146113025760405162461bcd60e51b815260040161063e90614fa8565b8261130b614a1f565b604051631c72e6e760e11b81526001600160a01b038316906338e5cdce906113379087906004016152c8565b60006040518083038186803b15801561134f57600080fd5b505afa158015611363573d6000803e3d6000fd5b505050506040513d6000823e601f3d908101601f1916820160405261138b9190810190614c5f565b90506113956149e9565b6000546113ae90859089906001600160a01b03166132b0565b90506113b86149a8565b6000546113cf9086906001600160a01b03166131dd565b90507fb11f0630abdc3c49238c394684d47c0a22fb6922fdf83b64cfdd3d9769f1a26383600001516040516020016114079190614ec5565b6040516020818303038152906040528051906020012014156115245760008054906101000a90046001600160a01b03166001600160a01b0316638792a265856001600160a01b0316638291286c6040518163ffffffff1660e01b815260040160206040518083038186803b15801561147e57600080fd5b505afa158015611492573d6000803e3d6000fd5b505050506040513d601f19601f820116820180604052508101906114b69190614d54565b8a6040518363ffffffff1660e01b81526004016114d49291906152d1565b600060405180830381600087803b1580156114ee57600080fd5b505af1158015611502573d6000803e3d6000fd5b505060008054611524935085925084918c9181906001600160a01b0316613378565b604051630852cd8d60e31b81526001600160a01b038516906342966c68906115509089906004016152c8565b600060405180830381600087803b15801561156a57600080fd5b505af115801561157e573d6000803e3d6000fd5b50506000546040516303c4399d60e11b81526001600160a01b039091169250630788733a91506115b69088908c90879060040161530d565b600060405180830381600087803b1580156115d057600080fd5b505af11580156115e4573d6000803e3d6000fd5b505060005460405163d4665bb760e01b81526001600160a01b03909116925063d4665bb7915061161a9088908590600401615371565b600060405180830381600087803b15801561163457600080fd5b505af1158015611648573d6000803e3d6000fd5b50505050600085896001600160a01b03167f2afbc6f74788c58c5d56fca9812c385d27a7bf8004bd05cd1b9f057ad145f69d60016040516116899190614f4c565b60405180910390a45050505050505050565b60008060005b60008054906101000a90046001600160a01b03166001600160a01b031663b3944d526040518163ffffffff1660e01b815260040160206040518083038186803b1580156116ed57600080fd5b505afa158015611701573d6000803e3d6000fd5b505050506040513d601f19601f820116820180604052508101906117259190614d54565b8110156117625760008061173883613856565b909250905061174785836137db565b945061175384826137db565b935050508060010190506116a1565b50600054604051635105a97560e01b81526001600160a01b0390911690635105a975906117959085908590600401614f67565b600060405180830381600087803b1580156117af57600080fd5b505af11580156106fd573d6000803e3d6000fd5b6117cb613578565b6065546001600160a01b039081169116146117f85760405162461bcd60e51b815260040161063e90615123565b61180061169b565b60005460405163236535f560e11b81526001600160a01b03909116906346ca6bea906112a1908690869086906004016153c6565b61183c6149a8565b6000546118539084906001600160a01b03166131dd565b905061185d6149e9565b60005461187690859033906001600160a01b03166132b0565b905080608001518311801561188c575060048311155b61189557600080fd5b60008054604051636a9d1f6f60e01b81526001600160a01b0390911690636a9d1f6f906118c69087906004016152c8565b60206040518083038186803b1580156118de57600080fd5b505afa1580156118f2573d6000803e3d6000fd5b505050506040513d601f19601f820116820180604052508101906119169190614d54565b905060006119318360a001518361357c90919063ffffffff16565b905060008054906101000a90046001600160a01b03166001600160a01b0316638f33b5e56040518163ffffffff1660e01b815260040160206040518083038186803b15801561197f57600080fd5b505afa158015611993573d6000803e3d6000fd5b505050506040513d601f19601f820116820180604052508101906119b79190614be4565b6001600160a01b03166323b872dd3330846040518463ffffffff1660e01b81526004016119e693929190614ef5565b602060405180830381600087803b158015611a0057600080fd5b505af1158015611a14573d6000803e3d6000fd5b505050506040513d601f19601f82011682018060405250810190611a389190614bc8565b611a4157600080fd5b60a0830151611a5090826137db565b60a084015260808301859052825115611a825760008054611a82918591879133918a91906001600160a01b0316613378565b6000546040516303c4399d60e11b81526001600160a01b0390911690630788733a90611ab69089903390889060040161530d565b600060405180830381600087803b158015611ad057600080fd5b505af1158015611ae4573d6000803e3d6000fd5b505060005460405163d4665bb760e01b81526001600160a01b03909116925063d4665bb79150611b1a9089908890600401615371565b600060405180830381600087803b158015611b3457600080fd5b505af1158015611b48573d6000803e3d6000fd5b5050600054604051631be9449960e11b81526001600160a01b0390911692506337d289329150611b7f908490600190600401614f57565b600060405180830381600087803b158015611b9957600080fd5b505af1158015611bad573d6000803e3d6000fd5b505050508486336001600160a01b03167f2afbc6f74788c58c5d56fca9812c385d27a7bf8004bd05cd1b9f057ad145f69d6000604051611bed9190614f4c565b60405180910390a4505050505050565b611c05613578565b6065546001600160a01b03908116911614611c325760405162461bcd60e51b815260040161063e90615123565b6065546040516000916001600160a01b0316907f8be0079c531659141344cd1fd0a4f28419497f9722a3daafe3b4186f6b6457e0908390a3606580546001600160a01b0319169055565b611c84613578565b6065546001600160a01b03908116911614611cb15760405162461bcd60e51b815260040161063e90615123565b611cb961169b565b600054604051637abceffd60e01b81526001600160a01b0390911690637abceffd906112a190869086908690600401615350565b609b54156121e95760008060008060009054906101000a90046001600160a01b03166001600160a01b0316638f33b5e56040518163ffffffff1660e01b815260040160206040518083038186803b158015611d4757600080fd5b505afa158015611d5b573d6000803e3d6000fd5b505050506040513d601f19601f82011682018060405250810190611d7f9190614be4565b6001600160a01b03166370a08231306040518263ffffffff1660e01b8152600401611daa9190614ee1565b60206040518083038186803b158015611dc257600080fd5b505afa158015611dd6573d6000803e3d6000fd5b505050506040513d601f19601f82011682018060405250810190611dfa9190614d54565b905080609b541115611e3557611e1c6064611e16836046613c85565b90613cbf565b9250611e2e6064611e1683601e613c85565b9150611e70565b611e506064611e166046609b54613c8590919063ffffffff16565b9250611e6d6064611e16601e609b54613c8590919063ffffffff16565b91505b8215611f815760008054906101000a90046001600160a01b03166001600160a01b0316638f33b5e56040518163ffffffff1660e01b815260040160206040518083038186803b158015611ec257600080fd5b505afa158015611ed6573d6000803e3d6000fd5b505050506040513d601f19601f82011682018060405250810190611efa9190614be4565b60975460405163a9059cbb60e01b81526001600160a01b039283169263a9059cbb92611f2d929116908790600401614f33565b602060405180830381600087803b158015611f4757600080fd5b505af1158015611f5b573d6000803e3d6000fd5b505050506040513d601f19601f82011682018060405250810190611f7f9190614bc8565b505b81156120925760008054906101000a90046001600160a01b03166001600160a01b0316638f33b5e56040518163ffffffff1660e01b815260040160206040518083038186803b158015611fd357600080fd5b505afa158015611fe7573d6000803e3d6000fd5b505050506040513d601f19601f8201168201806040525081019061200b9190614be4565b60985460405163a9059cbb60e01b81526001600160a01b039283169263a9059cbb9261203e929116908690600401614f33565b602060405180830381600087803b15801561205857600080fd5b505af115801561206c573d6000803e3d6000fd5b505050506040513d601f19601f820116820180604052508101906120909190614bc8565b505b60005460408051638f33b5e560e01b815290516001600160a01b0390921691638f838a9f918391638f33b5e591600480820192602092909190829003018186803b1580156120df57600080fd5b505afa1580156120f3573d6000803e3d6000fd5b505050506040513d601f19601f820116820180604052508101906121179190614be4565b6001600160a01b03166370a08231306040518263ffffffff1660e01b81526004016121429190614ee1565b60206040518083038186803b15801561215a57600080fd5b505afa15801561216e573d6000803e3d6000fd5b505050506040513d601f19601f820116820180604052508101906121929190614d54565b6040518263ffffffff1660e01b81526004016121ae91906152c8565b600060405180830381600087803b1580156121c857600080fd5b505af11580156121dc573d6000803e3d6000fd5b50506000609b5550505050505b565b6065546001600160a01b031690565b612202613578565b609d546001600160a01b0390811691161461221c57600080fd5b609d80546001600160a01b03191690556040517ff564c40f4f45e62a2c1e6c22e8bfb46501f0f71fa1c72e5358903fa1115a4b6490610ad5906000908190614f19565b612267613578565b609d546001600160a01b0390811691161461228157600080fd5b6001600160a01b03811661229457600080fd5b609d80546001600160a01b0319166001600160a01b0383811691909117918290556040517ff564c40f4f45e62a2c1e6c22e8bfb46501f0f71fa1c72e5358903fa1115a4b64926122e79216908490614f19565b60405180910390a150565b60008054604051631be9449960e11b81526001600160a01b03909116916337d289329161232491908190600401614f57565b600060405180830381600087803b15801561233e57600080fd5b505af1158015612352573d6000803e3d6000fd5b5050505060006123e1600260008054906101000a90046001600160a01b03166001600160a01b03166309e3de416040518163ffffffff1660e01b815260040160206040518083038186803b1580156123a957600080fd5b505afa1580156123bd573d6000803e3d6000fd5b505050506040513d601f19601f82011682018060405250810190611e169190614d54565b905080156127565760008054906101000a90046001600160a01b03166001600160a01b0316638f33b5e56040518163ffffffff1660e01b815260040160206040518083038186803b15801561243557600080fd5b505afa158015612449573d6000803e3d6000fd5b505050506040513d601f19601f8201168201806040525081019061246d9190614be4565b60995460405163a9059cbb60e01b81526001600160a01b039283169263a9059cbb926124a0929116908590600401614f33565b602060405180830381600087803b1580156124ba57600080fd5b505af11580156124ce573d6000803e3d6000fd5b505050506040513d601f19601f820116820180604052508101906124f29190614bc8565b6124fb57600080fd5b600061250d6064611e16846046613c85565b905080156126275760008054906101000a90046001600160a01b03166001600160a01b0316638f33b5e56040518163ffffffff1660e01b815260040160206040518083038186803b15801561256157600080fd5b505afa158015612575573d6000803e3d6000fd5b505050506040513d601f19601f820116820180604052508101906125999190614be4565b60975460405163a9059cbb60e01b81526001600160a01b039283169263a9059cbb926125cc929116908590600401614f33565b602060405180830381600087803b1580156125e657600080fd5b505af11580156125fa573d6000803e3d6000fd5b505050506040513d601f19601f8201168201806040525081019061261e9190614bc8565b61262757600080fd5b60006126396064611e1685601e613c85565b905080156127535760008054906101000a90046001600160a01b03166001600160a01b0316638f33b5e56040518163ffffffff1660e01b815260040160206040518083038186803b15801561268d57600080fd5b505afa1580156126a1573d6000803e3d6000fd5b505050506040513d601f19601f820116820180604052508101906126c59190614be4565b60985460405163a9059cbb60e01b81526001600160a01b039283169263a9059cbb926126f8929116908590600401614f33565b602060405180830381600087803b15801561271257600080fd5b505af1158015612726573d6000803e3d6000fd5b505050506040513d601f19601f8201168201806040525081019061274a9190614bc8565b61275357600080fd5b50505b50565b61276281613d01565b80156127835750612771613578565b609d546001600160a01b039081169116145b61278c57600080fd5b61281d6201731860008054906101000a90046001600160a01b03166001600160a01b03166331db122c6040518163ffffffff1660e01b815260040160206040518083038186803b1580156127df57600080fd5b505afa1580156127f3573d6000803e3d6000fd5b505050506040513d601f19601f820116820180604052508101906128179190614d54565b906137db565b431161283b5760405162461bcd60e51b815260040161063e906151a6565b60405163095ea7b360e01b81526001600160a01b0384169063095ea7b3906128699084908690600401614f33565b602060405180830381600087803b15801561288357600080fd5b505af1158015612897573d6000803e3d6000fd5b505050506040513d601f19601f820116820180604052508101906108aa9190614bc8565b609c54156121e95760008060008060009054906101000a90046001600160a01b03166001600160a01b031663fb70c3bf6040518163ffffffff1660e01b815260040160206040518083038186803b15801561291557600080fd5b505afa158015612929573d6000803e3d6000fd5b505050506040513d601f19601f8201168201806040525081019061294d9190614be4565b6001600160a01b03166370a08231306040518263ffffffff1660e01b81526004016129789190614ee1565b60206040518083038186803b15801561299057600080fd5b505afa1580156129a4573d6000803e3d6000fd5b505050506040513d601f19601f820116820180604052508101906129c89190614d54565b905080609c5411156129fd576129e46064611e16836046613c85565b92506129f66064611e1683601e613c85565b9150612a38565b612a186064611e166046609c54613c8590919063ffffffff16565b9250612a356064611e16601e609c54613c8590919063ffffffff16565b91505b8215612b495760008054906101000a90046001600160a01b03166001600160a01b031663fb70c3bf6040518163ffffffff1660e01b815260040160206040518083038186803b158015612a8a57600080fd5b505afa158015612a9e573d6000803e3d6000fd5b505050506040513d601f19601f82011682018060405250810190612ac29190614be4565b60975460405163a9059cbb60e01b81526001600160a01b039283169263a9059cbb92612af5929116908790600401614f33565b602060405180830381600087803b158015612b0f57600080fd5b505af1158015612b23573d6000803e3d6000fd5b505050506040513d601f19601f82011682018060405250810190612b479190614bc8565b505b8115612c5a5760008054906101000a90046001600160a01b03166001600160a01b031663fb70c3bf6040518163ffffffff1660e01b815260040160206040518083038186803b158015612b9b57600080fd5b505afa158015612baf573d6000803e3d6000fd5b505050506040513d601f19601f82011682018060405250810190612bd39190614be4565b60985460405163a9059cbb60e01b81526001600160a01b039283169263a9059cbb92612c06929116908690600401614f33565b602060405180830381600087803b158015612c2057600080fd5b505af1158015612c34573d6000803e3d6000fd5b505050506040513d601f19601f82011682018060405250810190612c589190614bc8565b505b6000546040805163fb70c3bf60e01b815290516001600160a01b039092169163094601f191839163fb70c3bf91600480820192602092909190829003018186803b158015612ca757600080fd5b505afa158015612cbb573d6000803e3d6000fd5b505050506040513d601f19601f82011682018060405250810190612cdf9190614be4565b6001600160a01b03166370a08231306040518263ffffffff1660e01b8152600401612d0a9190614ee1565b60206040518083038186803b158015612d2257600080fd5b505afa158015612d36573d6000803e3d6000fd5b505050506040513d601f19601f82011682018060405250810190612d5a9190614d54565b6040518263ffffffff1660e01b8152600401612d7691906152c8565b600060405180830381600087803b158015612d9057600080fd5b505af1158015612da4573d6000803e3d6000fd5b50506000609c555050505050565b6000546040516360443a4560e01b81526001600160a01b03909116906360443a4590612de89085903390889087906004016152e8565b600060405180830381600087803b158015612e0257600080fd5b505af1158015612e16573d6000803e3d6000fd5b50505050826001600160a01b0316336001600160a01b03167fb3fd5071835887567a0671151121894ddccc2842f1d10bedad13e0d17cace9a78484604051612e5f929190614f67565b60405180910390a3505050565b612e74613578565b6065546001600160a01b03908116911614612ea15760405162461bcd60e51b815260040161063e90615123565b6103e88161ffff161115612ec75760405162461bcd60e51b815260040161063e906151cd565b609a805461ffff909216600160a01b0261ffff60a01b19909216919091179055565b612ef16149a8565b600054612f089084906001600160a01b03166131dd565b9050612f126149e9565b600054612f2b90859033906001600160a01b03166132b0565b9050612f378433613441565b821561300a5781516040516323b872dd60e01b81526001600160a01b03909116906323b872dd90612f7090339030908890600401614ef5565b602060405180830381600087803b158015612f8a57600080fd5b505af1158015612f9e573d6000803e3d6000fd5b505050506040513d601f19601f82011682018060405250810190612fc29190614bc8565b508051612fcf90846137db565b81526060810151151580612fe7575060008160800151115b1561300a576000805461300a9183918591339181906001600160a01b0316613378565b613014818361347b565b6000546040516303c4399d60e11b81526001600160a01b0390911690630788733a906130489087903390869060040161530d565b600060405180830381600087803b15801561306257600080fd5b505af1158015613076573d6000803e3d6000fd5b505060005460405163d4665bb760e01b81526001600160a01b03909116925063d4665bb791506130ac9087908690600401615371565b600060405180830381600087803b1580156130c657600080fd5b505af11580156130da573d6000803e3d6000fd5b5050505083336001600160a01b03167f90890809c654f11d6e72a28fa60149770a0d11ec6c92319d6ceb2bb0a4ea1a158560405161311891906152c8565b60405180910390a350505050565b61312e613578565b6065546001600160a01b0390811691161461315b5760405162461bcd60e51b815260040161063e90615123565b6001600160a01b0381166131815760405162461bcd60e51b815260040161063e90614fd3565b6065546040516001600160a01b038084169216907f8be0079c531659141344cd1fd0a4f28419497f9722a3daafe3b4186f6b6457e090600090a3606580546001600160a01b0319166001600160a01b0392909216919091179055565b6131e56149a8565b600080600080600080876001600160a01b0316631526fe278a6040518263ffffffff1660e01b815260040161321a91906152c8565b60c06040518083038186803b15801561323257600080fd5b505afa158015613246573d6000803e3d6000fd5b505050506040513d601f19601f8201168201806040525081019061326a9190614c00565b6040805160c0810182526001600160a01b03909716875260208701959095529385019290925260608401521515608083015260a082015296505050505050505b92915050565b6132b86149e9565b600080600080600080876001600160a01b03166393f1a40b8b8b6040518363ffffffff1660e01b81526004016132ef9291906152d1565b60c06040518083038186803b15801561330757600080fd5b505afa15801561331b573d6000803e3d6000fd5b505050506040513d601f19601f8201168201806040525081019061333f9190614e42565b6040805160c0810182529687526020870195909552938501929092526060840152608083015260a08201529a9950505050505050505050565b6060860151600061339b8886613392578960800151613394565b865b8886613d07565b905060006133bb6064611e16848c60000151613c8590919063ffffffff16565b60608a01819052905084156133ec576133e26133d7848361357c565b60a08a01519061357c565b60a0890152613436565b8083111561340f576133e281612817858b60a0015161357c90919063ffffffff16565b6134308361342a838b60a001516137db90919063ffffffff16565b9061357c565b60a08901525b505050505050505050565b61344961169b565b6000806134568484610565565b9092509050811561346b5761346b8383613ddc565b80156108aa576108aa838261421a565b61349b64e8d4a51000611e1683604001516134958661468a565b90613c85565b602083015260608101516134bd9064e8d4a5100090611e16906134958661468a565b60409092019190915250565b303b1590565b600054600160a81b900460ff16806134ea57506134ea6134c9565b806134ff5750600054600160a01b900460ff16155b61351b5760405162461bcd60e51b815260040161063e90615158565b600054600160a81b900460ff16158015613552576000805460ff60a01b1960ff60a81b19909116600160a81b1716600160a01b1790555b61355a61469e565b613562614736565b8015612756576000805460ff60a81b1916905550565b3390565b60006135be83836040518060400160405280601e81526020017f536166654d6174683a207375627472616374696f6e206f766572666c6f770000815250614827565b9392505050565b6135cd6149a8565b6000546135e49086906001600160a01b03166131dd565b905080608001516136075760405162461bcd60e51b815260040161063e90615267565b61360f6149e9565b60005461362890879086906001600160a01b03166132b0565b9050848160000151101561364e5760405162461bcd60e51b815260040161063e90615085565b6136588685613441565b84156136bd57805161366a908661357c565b81528151613682906001600160a01b03168487613800565b600081606001511180613699575060008160800151115b156136bd57600080546136bd918391859188916001906001600160a01b0316613378565b6136c7818361347b565b6000546040516303c4399d60e11b81526001600160a01b0390911690630788733a906136fb9089903390869060040161530d565b600060405180830381600087803b15801561371557600080fd5b505af1158015613729573d6000803e3d6000fd5b505060005460405163d4665bb760e01b81526001600160a01b03909116925063d4665bb7915061375f9089908690600401615371565b600060405180830381600087803b15801561377957600080fd5b505af115801561378d573d6000803e3d6000fd5b5050505085836001600160a01b03167ff279e6a1f5e320cca91135676d9cb6e44ca8a08c0b88342bcdb1144f6511b568876040516137cb91906152c8565b60405180910390a3505050505050565b6000828201838110156135be5760405162461bcd60e51b815260040161063e90615019565b6127538363a9059cbb60e01b848460405160240161381f929190614f33565b60408051601f198184030181529190526020810180516001600160e01b03166001600160e01b031990931692909217909152614853565b6000806138616149a8565b6000546138789085906001600160a01b03166131dd565b9050600081600001516001600160a01b03166370a08231306040518263ffffffff1660e01b81526004016138ac9190614ee1565b60206040518083038186803b1580156138c457600080fd5b505afa1580156138d8573d6000803e3d6000fd5b505050506040513d601f19601f820116820180604052508101906138fc9190614d54565b90508061391157600080935093505050613c80565b600061392a8360a00151836137db90919063ffffffff16565b9050613a3560008054906101000a90046001600160a01b03166001600160a01b03166317caf6f16040518163ffffffff1660e01b815260040160206040518083038186803b15801561397b57600080fd5b505afa15801561398f573d6000803e3d6000fd5b505050506040513d601f19601f820116820180604052508101906139b39190614d54565b602080860151600054604080516376f69fed60e11b81529051611e16946001600160a01b039093169263eded3fda9260048082019391829003018186803b1580156139fd57600080fd5b505afa158015613a11573d6000803e3d6000fd5b505050506040513d601f19601f820116820180604052508101906134959190614d54565b609a54909550600090613a5c9061271090611e16908990600160a01b900461ffff16613c85565b609b54909150613a6c90826137db565b609b556000805460408051638b6ff57b60e01b815290516001600160a01b0390921691638b6ff57b91600480820192602092909190829003018186803b158015613ab557600080fd5b505afa158015613ac9573d6000803e3d6000fd5b505050506040513d601f19601f82011682018060405250810190613aed9190614d54565b90508015613be957600054604080516317caf6f160e01b81529051613b83926001600160a01b0316916317caf6f1916004808301926020929190829003018186803b158015613b3b57600080fd5b505afa158015613b4f573d6000803e3d6000fd5b505050506040513d601f19601f82011682018060405250810190613b739190614d54565b6020870151611e16908490613c85565b609a54909650600090613baa9061271090611e16908a90600160a01b900461ffff16613c85565b609c54909150613bba90826137db565b609c55613be2613bd785611e1664e8d4a510006134958c8761357c565b6060880151906137db565b6060870152505b613c0e613c0384611e1664e8d4a510006134958c8861357c565b6040870151906137db565b604080870191909152600054905163d4665bb760e01b81526001600160a01b039091169063d4665bb790613c48908b908990600401615371565b600060405180830381600087803b158015613c6257600080fd5b505af1158015613c76573d6000803e3d6000fd5b5050505050505050505b915091565b600082613c94575060006132aa565b82820282848281613ca157fe5b04146135be5760405162461bcd60e51b815260040161063e906150e2565b60006135be83836040518060400160405280601a81526020017f536166654d6174683a206469766973696f6e206279207a65726f000000000000815250614938565b3b151590565b600080826001600160a01b03166391328af2856040518263ffffffff1660e01b8152600401613d369190614ee1565b60206040518083038186803b158015613d4e57600080fd5b505afa158015613d62573d6000803e3d6000fd5b505050506040513d601f19601f82011682018060405250810190613d869190614d54565b9050613dd081846001600160a01b0316636798f19f886040518263ffffffff1660e01b8152600401613db891906152c8565b60206040518083038186803b1580156127df57600080fd5b9150505b949350505050565b60008060009054906101000a90046001600160a01b03166001600160a01b0316638f33b5e56040518163ffffffff1660e01b815260040160206040518083038186803b158015613e2b57600080fd5b505afa158015613e3f573d6000803e3d6000fd5b505050506040513d601f19601f82011682018060405250810190613e639190614be4565b6001600160a01b03166370a08231306040518263ffffffff1660e01b8152600401613e8e9190614ee1565b60206040518083038186803b158015613ea657600080fd5b505afa158015613eba573d6000803e3d6000fd5b505050506040513d601f19601f82011682018060405250810190613ede9190614d54565b905080821115613ff15760008054906101000a90046001600160a01b03166001600160a01b0316638f33b5e56040518163ffffffff1660e01b815260040160206040518083038186803b158015613f3457600080fd5b505afa158015613f48573d6000803e3d6000fd5b505050506040513d601f19601f82011682018060405250810190613f6c9190614be4565b6001600160a01b031663a9059cbb84836040518363ffffffff1660e01b8152600401613f99929190614f33565b602060405180830381600087803b158015613fb357600080fd5b505af1158015613fc7573d6000803e3d6000fd5b505050506040513d601f19601f82011682018060405250810190613feb9190614bc8565b506140f6565b60008054906101000a90046001600160a01b03166001600160a01b0316638f33b5e56040518163ffffffff1660e01b815260040160206040518083038186803b15801561403d57600080fd5b505afa158015614051573d6000803e3d6000fd5b505050506040513d601f19601f820116820180604052508101906140759190614be4565b6001600160a01b031663a9059cbb84846040518363ffffffff1660e01b81526004016140a2929190614f33565b602060405180830381600087803b1580156140bc57600080fd5b505af11580156140d0573d6000803e3d6000fd5b505050506040513d601f19601f820116820180604052508101906140f49190614bc8565b505b6140fe611ced565b60005460408051638f33b5e560e01b815290516001600160a01b0390921691638f838a9f918391638f33b5e591600480820192602092909190829003018186803b15801561414b57600080fd5b505afa15801561415f573d6000803e3d6000fd5b505050506040513d601f19601f820116820180604052508101906141839190614be4565b6001600160a01b03166370a08231306040518263ffffffff1660e01b81526004016141ae9190614ee1565b60206040518083038186803b1580156141c657600080fd5b505afa1580156141da573d6000803e3d6000fd5b505050506040513d601f19601f820116820180604052508101906141fe9190614d54565b6040518263ffffffff1660e01b81526004016112a191906152c8565b60008060009054906101000a90046001600160a01b03166001600160a01b031663fb70c3bf6040518163ffffffff1660e01b815260040160206040518083038186803b15801561426957600080fd5b505afa15801561427d573d6000803e3d6000fd5b505050506040513d601f19601f820116820180604052508101906142a19190614be4565b6001600160a01b03166370a08231306040518263ffffffff1660e01b81526004016142cc9190614ee1565b60206040518083038186803b1580156142e457600080fd5b505afa1580156142f8573d6000803e3d6000fd5b505050506040513d601f19601f8201168201806040525081019061431c9190614d54565b90508082111561442f5760008054906101000a90046001600160a01b03166001600160a01b031663fb70c3bf6040518163ffffffff1660e01b815260040160206040518083038186803b15801561437257600080fd5b505afa158015614386573d6000803e3d6000fd5b505050506040513d601f19601f820116820180604052508101906143aa9190614be4565b6001600160a01b031663a9059cbb84836040518363ffffffff1660e01b81526004016143d7929190614f33565b602060405180830381600087803b1580156143f157600080fd5b505af1158015614405573d6000803e3d6000fd5b505050506040513d601f19601f820116820180604052508101906144299190614bc8565b50614534565b60008054906101000a90046001600160a01b03166001600160a01b031663fb70c3bf6040518163ffffffff1660e01b815260040160206040518083038186803b15801561447b57600080fd5b505afa15801561448f573d6000803e3d6000fd5b505050506040513d601f19601f820116820180604052508101906144b39190614be4565b6001600160a01b031663a9059cbb84846040518363ffffffff1660e01b81526004016144e0929190614f33565b602060405180830381600087803b1580156144fa57600080fd5b505af115801561450e573d6000803e3d6000fd5b505050506040513d601f19601f820116820180604052508101906145329190614bc8565b505b6000546040805163fb70c3bf60e01b815290516001600160a01b039092169163094601f191839163fb70c3bf91600480820192602092909190829003018186803b15801561458157600080fd5b505afa158015614595573d6000803e3d6000fd5b505050506040513d601f19601f820116820180604052508101906145b99190614be4565b6001600160a01b03166370a08231306040518263ffffffff1660e01b81526004016145e49190614ee1565b60206040518083038186803b1580156145fc57600080fd5b505afa158015614610573d6000803e3d6000fd5b505050506040513d601f19601f820116820180604052508101906146349190614d54565b6040518263ffffffff1660e01b815260040161465091906152c8565b600060405180830381600087803b15801561466a57600080fd5b505af115801561467e573d6000803e3d6000fd5b505050506127536128bb565b606081015181516000916132aa91906137db565b600054600160a81b900460ff16806146b957506146b96134c9565b806146ce5750600054600160a01b900460ff16155b6146ea5760405162461bcd60e51b815260040161063e90615158565b600054600160a81b900460ff16158015613562576000805460ff60a01b1960ff60a81b19909116600160a81b1716600160a01b1790558015612756576000805460ff60a81b1916905550565b600054600160a81b900460ff168061475157506147516134c9565b806147665750600054600160a01b900460ff16155b6147825760405162461bcd60e51b815260040161063e90615158565b600054600160a81b900460ff161580156147b9576000805460ff60a01b1960ff60a81b19909116600160a81b1716600160a01b1790555b60006147c3613578565b606580546001600160a01b0319166001600160a01b038316908117909155604051919250906000907f8be0079c531659141344cd1fd0a4f28419497f9722a3daafe3b4186f6b6457e0908290a3508015612756576000805460ff60a81b1916905550565b6000818484111561484b5760405162461bcd60e51b815260040161063e9190614f75565b505050900390565b614865826001600160a01b031661496f565b6148815760405162461bcd60e51b815260040161063e90615291565b60006060836001600160a01b03168360405161489d9190614ec5565b6000604051808303816000865af19150503d80600081146148da576040519150601f19603f3d011682016040523d82523d6000602084013e6148df565b606091505b5091509150816149015760405162461bcd60e51b815260040161063e90615050565b8051156108aa578080602001905181019061491c9190614bc8565b6108aa5760405162461bcd60e51b815260040161063e9061521d565b600081836149595760405162461bcd60e51b815260040161063e9190614f75565b50600083858161496557fe5b0495945050505050565b6000813f7fc5d2460186f7233c927e7db2dcc703c0e500b653ca82273b7bfad8045d85a470818114801590613dd4575050151592915050565b6040518060c0016040528060006001600160a01b03168152602001600081526020016000815260200160008152602001600015158152602001600081525090565b6040518060c001604052806000815260200160008152602001600081526020016000815260200160008152602001600081525090565b60405180606001604052806060815260200160008152602001600080191681525090565b600060208284031215614a54578081fd5b81356135be81615455565b600080600060608486031215614a73578182fd5b8335614a7e81615455565b92506020840135614a8e81615455565b91506040840135614a9e81615455565b809150509250925092565b600080600080600060a08688031215614ac0578081fd5b8535614acb81615455565b94506020860135614adb81615455565b93506040860135614aeb81615455565b92506060860135614afb81615455565b91506080860135614b0b81615455565b809150509295509295909350565b60008060008060808587031215614b2e578384fd5b8435614b3981615455565b93506020850135614b4981615455565b93969395505050506040820135916060013590565b600080600060608486031215614b72578283fd5b8335614b7d81615455565b9250602084013591506040840135614a9e81615455565b600080600060608486031215614ba8578283fd5b8335614bb381615455565b95602085013595506040909401359392505050565b600060208284031215614bd9578081fd5b81516135be8161546a565b600060208284031215614bf5578081fd5b81516135be81615455565b60008060008060008060c08789031215614c18578081fd5b8651614c2381615455565b809650506020870151945060408701519350606087015192506080870151614c4a8161546a565b8092505060a087015190509295509295509295565b60006020808385031215614c71578182fd5b825167ffffffffffffffff80821115614c88578384fd5b9084019060608287031215614c9b578384fd5b614ca560606153de565b825182811115614cb3578586fd5b83019150601f82018713614cc5578485fd5b8151614cd8614cd382615405565b6153de565b8181528886838601011115614ceb578687fd5b614cfa82878301888701615429565b825250828401519381019390935250604090810151908201529392505050565b600060208284031215614d2b578081fd5b813561ffff811681146135be578182fd5b600060208284031215614d4d578081fd5b5035919050565b600060208284031215614d65578081fd5b5051919050565b60008060408385031215614d7e578182fd5b823591506020830135614d9081615455565b809150509250929050565b600080600060608486031215614daf578081fd5b833592506020840135614dc181615455565b91506040840135614a9e8161546a565b60008060408385031215614de3578182fd5b50508035926020909101359150565b60008060408385031215614e04578182fd5b505080516020909101519092909150565b600080600060608486031215614e29578081fd5b83359250602084013591506040840135614a9e8161546a565b60008060008060008060c08789031215614e5a578384fd5b865195506020870151945060408701519350606087015192506080870151915060a087015190509295509295509295565b805182526020810151602083015260408101516040830152606081015160608301526080810151608083015260a081015160a08301525050565b60008251614ed7818460208701615429565b9190910192915050565b6001600160a01b0391909116815260200190565b6001600160a01b039384168152919092166020820152604081019190915260600190565b6001600160a01b0392831681529116602082015260400190565b6001600160a01b03929092168252602082015260400190565b901515815260200190565b9182521515602082015260400190565b918252602082015260400190565b6000602082528251806020840152614f94816040850160208701615429565b601f01601f19169190910160400192915050565b602080825260119082015270283937b434b134ba32b21031b0b63632b960791b604082015260600190565b60208082526026908201527f4f776e61626c653a206e6577206f776e657220697320746865207a65726f206160408201526564647265737360d01b606082015260800190565b6020808252601b908201527f536166654d6174683a206164646974696f6e206f766572666c6f770000000000604082015260600190565b6020808252818101527f5361666545524332303a206c6f772d6c6576656c2063616c6c206661696c6564604082015260600190565b6020808252601f908201527f576974686472617720616d6f756e7420657863656564732062616c616e636500604082015260600190565b6020808252600c908201526b4e6f20616c6c6f77616e636560a01b604082015260600190565b60208082526021908201527f536166654d6174683a206d756c7469706c69636174696f6e206f766572666c6f6040820152607760f81b606082015260800190565b6020808252818101527f4f776e61626c653a2063616c6c6572206973206e6f7420746865206f776e6572604082015260600190565b6020808252602e908201527f436f6e747261637420696e7374616e63652068617320616c726561647920626560408201526d195b881a5b9a5d1a585b1a5e995960921b606082015260800190565b6020808252600d908201526c476f76206e6f7420726561647960981b604082015260600190565b6020808252600790820152664d61782031302560c81b604082015260600190565b602080825260159082015274506f6f6c206e6f7420776974686472617761626c6560581b604082015260600190565b6020808252602a908201527f5361666545524332303a204552433230206f7065726174696f6e20646964206e6040820152691bdd081cdd58d8d9595960b21b606082015260800190565b60208082526010908201526f4e6f7420776974686472617761626c6560801b604082015260600190565b6020808252601f908201527f5361666545524332303a2063616c6c20746f206e6f6e2d636f6e747261637400604082015260600190565b90815260200190565b9182526001600160a01b0316602082015260400190565b9384526001600160a01b03928316602085015291166040830152606082015260800190565b8381526001600160a01b03831660208201526101008101613dd46040830184614e8b565b9283526001600160a01b03918216602084015216604082015260600190565b9283526001600160a01b039190911660208301521515604082015260600190565b600060e08201905083825260018060a01b0383511660208301526020830151604083015260408301516060830152606083015160808301526080830151151560a083015260a083015160c08301529392505050565b92835260208301919091521515604082015260600190565b60405181810167ffffffffffffffff811182821017156153fd57600080fd5b604052919050565b600067ffffffffffffffff82111561541b578081fd5b50601f01601f191660200190565b60005b8381101561544457818101518382015260200161542c565b838111156108aa5750506000910152565b6001600160a01b038116811461275657600080fd5b801515811461275657600080fdfea2646970667358221220e25537bb6850bb5d37abda4fe5b6deabd0c91c3815517b2376042adc89c4aa4764736f6c634300060c0033",
  "devdoc": {
    "kind": "dev",
    "methods": {
      "owner()": {
        "details": "Returns the address of the current owner."
      },
      "renounceOwnership()": {
        "details": "Leaves the contract without owner. It will not be possible to call `onlyOwner` functions anymore. Can only be called by the current owner. NOTE: Renouncing ownership will leave the contract without an owner, thereby removing any functionality that is only available to the owner."
      },
      "transferOwnership(address)": {
        "details": "Transfers ownership of the contract to a new account (`newOwner`). Can only be called by the current owner."
      }
    },
    "version": 1
  },
  "userdoc": {
    "kind": "user",
    "methods": {},
    "version": 1
  },
  "storageLayout": {
    "storage": [
      {
        "astId": 14034,
        "contract": "contracts/RAMVault.sol:RAMVault",
        "label": "_storage",
        "offset": 0,
        "slot": "0",
        "type": "t_contract(YGYStorageV1)15841"
      },
      {
        "astId": 195,
        "contract": "contracts/RAMVault.sol:RAMVault",
        "label": "initialized",
        "offset": 20,
        "slot": "0",
        "type": "t_bool"
      },
      {
        "astId": 198,
        "contract": "contracts/RAMVault.sol:RAMVault",
        "label": "initializing",
        "offset": 21,
        "slot": "0",
        "type": "t_bool"
      },
      {
        "astId": 263,
        "contract": "contracts/RAMVault.sol:RAMVault",
        "label": "______gap",
        "offset": 0,
        "slot": "1",
        "type": "t_array(t_uint256)50_storage"
      },
      {
        "astId": 188,
        "contract": "contracts/RAMVault.sol:RAMVault",
        "label": "__gap",
        "offset": 0,
        "slot": "51",
        "type": "t_array(t_uint256)50_storage"
      },
      {
        "astId": 565,
        "contract": "contracts/RAMVault.sol:RAMVault",
        "label": "_owner",
        "offset": 0,
        "slot": "101",
        "type": "t_address"
      },
      {
        "astId": 683,
        "contract": "contracts/RAMVault.sol:RAMVault",
        "label": "__gap",
        "offset": 0,
        "slot": "102",
        "type": "t_array(t_uint256)49_storage"
      },
      {
        "astId": 12026,
        "contract": "contracts/RAMVault.sol:RAMVault",
        "label": "devaddr",
        "offset": 0,
        "slot": "151",
        "type": "t_address"
      },
      {
        "astId": 12028,
        "contract": "contracts/RAMVault.sol:RAMVault",
        "label": "teamaddr",
        "offset": 0,
        "slot": "152",
        "type": "t_address"
      },
      {
        "astId": 12030,
        "contract": "contracts/RAMVault.sol:RAMVault",
        "label": "regeneratoraddr",
        "offset": 0,
        "slot": "153",
        "type": "t_address"
      },
      {
        "astId": 12032,
        "contract": "contracts/RAMVault.sol:RAMVault",
        "label": "nftFactory",
        "offset": 0,
        "slot": "154",
        "type": "t_address"
      },
      {
        "astId": 13490,
        "contract": "contracts/RAMVault.sol:RAMVault",
        "label": "DEV_FEE",
        "offset": 20,
        "slot": "154",
        "type": "t_uint16"
      },
      {
        "astId": 13511,
        "contract": "contracts/RAMVault.sol:RAMVault",
        "label": "pending_DEV_rewards",
        "offset": 0,
        "slot": "155",
        "type": "t_uint256"
      },
      {
        "astId": 13513,
        "contract": "contracts/RAMVault.sol:RAMVault",
        "label": "pending_DEV_YGY_rewards",
        "offset": 0,
        "slot": "156",
        "type": "t_uint256"
      },
      {
        "astId": 13957,
        "contract": "contracts/RAMVault.sol:RAMVault",
        "label": "_superAdmin",
        "offset": 0,
        "slot": "157",
        "type": "t_address"
      }
    ],
    "types": {
      "t_address": {
        "encoding": "inplace",
        "label": "address",
        "numberOfBytes": "20"
      },
      "t_array(t_uint256)49_storage": {
        "base": "t_uint256",
        "encoding": "inplace",
        "label": "uint256[49]",
        "numberOfBytes": "1568"
      },
      "t_array(t_uint256)50_storage": {
        "base": "t_uint256",
        "encoding": "inplace",
        "label": "uint256[50]",
        "numberOfBytes": "1600"
      },
      "t_bool": {
        "encoding": "inplace",
        "label": "bool",
        "numberOfBytes": "1"
      },
      "t_contract(YGYStorageV1)15841": {
        "encoding": "inplace",
        "label": "contract YGYStorageV1",
        "numberOfBytes": "20"
      },
      "t_uint16": {
        "encoding": "inplace",
        "label": "uint16",
        "numberOfBytes": "2"
      },
      "t_uint256": {
        "encoding": "inplace",
        "label": "uint256",
        "numberOfBytes": "32"
      }
    }
  }
}