{
  "address": "0x9B8e31e712D913ecad30a64d5C0b4b641bB7182C",
  "abi": [
    {
      "inputs": [
        {
          "internalType": "address",
          "name": "uniV2Factory",
          "type": "address"
        },
        {
          "internalType": "address",
          "name": "feeApprover",
          "type": "address"
        },
        {
          "internalType": "address",
          "name": "RAMVault",
          "type": "address"
        },
        {
          "internalType": "address",
          "name": "nftFactory",
          "type": "address"
        },
        {
          "internalType": "address payable",
          "name": "_regenerator",
          "type": "address"
        },
        {
          "internalType": "address",
          "name": "__storage",
          "type": "address"
        },
        {
          "internalType": "address",
          "name": "linkAddr",
          "type": "address"
        },
        {
          "internalType": "address",
          "name": "vrfAddr",
          "type": "address"
        }
      ],
      "stateMutability": "nonpayable",
      "type": "constructor"
    },
    {
      "anonymous": false,
      "inputs": [
        {
          "indexed": true,
          "internalType": "address",
          "name": "newAddress",
          "type": "address"
        },
        {
          "indexed": true,
          "internalType": "address",
          "name": "oldAddress",
          "type": "address"
        }
      ],
      "name": "FeeApproverChanged",
      "type": "event"
    },
    {
      "anonymous": false,
      "inputs": [
        {
          "indexed": true,
          "internalType": "address",
          "name": "previousOwner",
          "type": "address"
        },
        {
          "indexed": true,
          "internalType": "address",
          "name": "newOwner",
          "type": "address"
        }
      ],
      "name": "OwnershipTransferred",
      "type": "event"
    },
    {
      "stateMutability": "payable",
      "type": "fallback"
    },
    {
      "inputs": [],
      "name": "MAX",
      "outputs": [
        {
          "internalType": "uint256",
          "name": "",
          "type": "uint256"
        }
      ],
      "stateMutability": "view",
      "type": "function"
    },
    {
      "inputs": [],
      "name": "OFFSET",
      "outputs": [
        {
          "internalType": "uint256",
          "name": "",
          "type": "uint256"
        }
      ],
      "stateMutability": "view",
      "type": "function"
    },
    {
      "inputs": [],
      "name": "SCALE",
      "outputs": [
        {
          "internalType": "uint256",
          "name": "",
          "type": "uint256"
        }
      ],
      "stateMutability": "view",
      "type": "function"
    },
    {
      "inputs": [],
      "name": "SCALIFIER",
      "outputs": [
        {
          "internalType": "uint256",
          "name": "",
          "type": "uint256"
        }
      ],
      "stateMutability": "view",
      "type": "function"
    },
    {
      "inputs": [],
      "name": "_NFTFactory",
      "outputs": [
        {
          "internalType": "contract INFTFactory",
          "name": "",
          "type": "address"
        }
      ],
      "stateMutability": "view",
      "type": "function"
    },
    {
      "inputs": [],
      "name": "_RAMToken",
      "outputs": [
        {
          "internalType": "address",
          "name": "",
          "type": "address"
        }
      ],
      "stateMutability": "view",
      "type": "function"
    },
    {
      "inputs": [],
      "name": "_RAMVault",
      "outputs": [
        {
          "internalType": "contract IRAMVault",
          "name": "",
          "type": "address"
        }
      ],
      "stateMutability": "view",
      "type": "function"
    },
    {
      "inputs": [],
      "name": "_WETH",
      "outputs": [
        {
          "internalType": "contract IWETH",
          "name": "",
          "type": "address"
        }
      ],
      "stateMutability": "view",
      "type": "function"
    },
    {
      "inputs": [],
      "name": "_YGYRAMPair",
      "outputs": [
        {
          "internalType": "address",
          "name": "",
          "type": "address"
        }
      ],
      "stateMutability": "view",
      "type": "function"
    },
    {
      "inputs": [],
      "name": "_YGYToken",
      "outputs": [
        {
          "internalType": "address",
          "name": "",
          "type": "address"
        }
      ],
      "stateMutability": "view",
      "type": "function"
    },
    {
      "inputs": [],
      "name": "_YGYWETHPair",
      "outputs": [
        {
          "internalType": "address",
          "name": "",
          "type": "address"
        }
      ],
      "stateMutability": "view",
      "type": "function"
    },
    {
      "inputs": [],
      "name": "_dXIOTToken",
      "outputs": [
        {
          "internalType": "contract IERC20",
          "name": "",
          "type": "address"
        }
      ],
      "stateMutability": "view",
      "type": "function"
    },
    {
      "inputs": [],
      "name": "_feeApprover",
      "outputs": [
        {
          "internalType": "contract IFeeApprover",
          "name": "",
          "type": "address"
        }
      ],
      "stateMutability": "view",
      "type": "function"
    },
    {
      "inputs": [],
      "name": "_uniV2Factory",
      "outputs": [
        {
          "internalType": "address",
          "name": "",
          "type": "address"
        }
      ],
      "stateMutability": "view",
      "type": "function"
    },
    {
      "inputs": [
        {
          "internalType": "address payable",
          "name": "to",
          "type": "address"
        },
        {
          "internalType": "bool",
          "name": "autoStake",
          "type": "bool"
        }
      ],
      "name": "addLiquidityETHOnly",
      "outputs": [],
      "stateMutability": "payable",
      "type": "function"
    },
    {
      "inputs": [
        {
          "internalType": "uint256",
          "name": "amount",
          "type": "uint256"
        },
        {
          "internalType": "bool",
          "name": "autoStake",
          "type": "bool"
        }
      ],
      "name": "addLiquidityYGYOnly",
      "outputs": [],
      "stateMutability": "payable",
      "type": "function"
    },
    {
      "inputs": [
        {
          "internalType": "address",
          "name": "feeApprover",
          "type": "address"
        }
      ],
      "name": "changeFeeApprover",
      "outputs": [],
      "stateMutability": "nonpayable",
      "type": "function"
    },
    {
      "inputs": [],
      "name": "claimTickets",
      "outputs": [],
      "stateMutability": "nonpayable",
      "type": "function"
    },
    {
      "inputs": [
        {
          "internalType": "address",
          "name": "user",
          "type": "address"
        }
      ],
      "name": "claimTicketsForAddr",
      "outputs": [],
      "stateMutability": "nonpayable",
      "type": "function"
    },
    {
      "inputs": [
        {
          "internalType": "uint256",
          "name": "ygyAmt",
          "type": "uint256"
        }
      ],
      "name": "getLPTokenPerYGYUnit",
      "outputs": [
        {
          "internalType": "uint256",
          "name": "liquidity",
          "type": "uint256"
        }
      ],
      "stateMutability": "view",
      "type": "function"
    },
    {
      "inputs": [
        {
          "internalType": "uint256",
          "name": "userProvidedSeed",
          "type": "uint256"
        }
      ],
      "name": "getRandomNumber",
      "outputs": [
        {
          "internalType": "bytes32",
          "name": "requestId",
          "type": "bytes32"
        }
      ],
      "stateMutability": "nonpayable",
      "type": "function"
    },
    {
      "inputs": [
        {
          "internalType": "address",
          "name": "user",
          "type": "address"
        }
      ],
      "name": "getUserLotteryLevel",
      "outputs": [
        {
          "internalType": "uint256",
          "name": "",
          "type": "uint256"
        }
      ],
      "stateMutability": "view",
      "type": "function"
    },
    {
      "inputs": [],
      "name": "governance",
      "outputs": [
        {
          "internalType": "address",
          "name": "",
          "type": "address"
        }
      ],
      "stateMutability": "view",
      "type": "function"
    },
    {
      "inputs": [],
      "name": "lastLotteryTriggerer",
      "outputs": [
        {
          "internalType": "address",
          "name": "",
          "type": "address"
        }
      ],
      "stateMutability": "view",
      "type": "function"
    },
    {
      "inputs": [
        {
          "internalType": "uint256",
          "name": "",
          "type": "uint256"
        }
      ],
      "name": "lotteryResults",
      "outputs": [
        {
          "internalType": "uint256",
          "name": "",
          "type": "uint256"
        }
      ],
      "stateMutability": "view",
      "type": "function"
    },
    {
      "inputs": [],
      "name": "lotteryRoundCounter",
      "outputs": [
        {
          "internalType": "uint256",
          "name": "",
          "type": "uint256"
        }
      ],
      "stateMutability": "view",
      "type": "function"
    },
    {
      "inputs": [
        {
          "internalType": "bytes32",
          "name": "",
          "type": "bytes32"
        }
      ],
      "name": "nonces",
      "outputs": [
        {
          "internalType": "uint256",
          "name": "",
          "type": "uint256"
        }
      ],
      "stateMutability": "view",
      "type": "function"
    },
    {
      "inputs": [],
      "name": "owner",
      "outputs": [
        {
          "internalType": "address",
          "name": "",
          "type": "address"
        }
      ],
      "stateMutability": "view",
      "type": "function"
    },
    {
      "inputs": [
        {
          "internalType": "bytes32",
          "name": "requestId",
          "type": "bytes32"
        },
        {
          "internalType": "uint256",
          "name": "randomness",
          "type": "uint256"
        }
      ],
      "name": "rawFulfillRandomness",
      "outputs": [],
      "stateMutability": "nonpayable",
      "type": "function"
    },
    {
      "inputs": [],
      "name": "refreshApproval",
      "outputs": [],
      "stateMutability": "nonpayable",
      "type": "function"
    },
    {
      "inputs": [],
      "name": "regenerator",
      "outputs": [
        {
          "internalType": "address payable",
          "name": "",
          "type": "address"
        }
      ],
      "stateMutability": "view",
      "type": "function"
    },
    {
      "inputs": [],
      "name": "regeneratorTax",
      "outputs": [
        {
          "internalType": "uint256",
          "name": "",
          "type": "uint256"
        }
      ],
      "stateMutability": "view",
      "type": "function"
    },
    {
      "inputs": [],
      "name": "renounceOwnership",
      "outputs": [],
      "stateMutability": "nonpayable",
      "type": "function"
    },
    {
      "inputs": [],
      "name": "rngLinkFee",
      "outputs": [
        {
          "internalType": "uint256",
          "name": "",
          "type": "uint256"
        }
      ],
      "stateMutability": "view",
      "type": "function"
    },
    {
      "inputs": [
        {
          "internalType": "uint256",
          "name": "userProvidedSeed",
          "type": "uint256"
        }
      ],
      "name": "selfRequestRandomNumber",
      "outputs": [
        {
          "internalType": "bytes32",
          "name": "requestId",
          "type": "bytes32"
        }
      ],
      "stateMutability": "nonpayable",
      "type": "function"
    },
    {
      "inputs": [
        {
          "internalType": "address",
          "name": "feeApproverAddress",
          "type": "address"
        }
      ],
      "name": "setFeeApprover",
      "outputs": [],
      "stateMutability": "nonpayable",
      "type": "function"
    },
    {
      "inputs": [
        {
          "internalType": "address",
          "name": "_governance",
          "type": "address"
        }
      ],
      "name": "setGovernance",
      "outputs": [],
      "stateMutability": "nonpayable",
      "type": "function"
    },
    {
      "inputs": [
        {
          "internalType": "address payable",
          "name": "_regeneratoraddr",
          "type": "address"
        }
      ],
      "name": "setRegenerator",
      "outputs": [],
      "stateMutability": "nonpayable",
      "type": "function"
    },
    {
      "inputs": [
        {
          "internalType": "uint256",
          "name": "_regeneratorTax",
          "type": "uint256"
        }
      ],
      "name": "setRegeneratorTax",
      "outputs": [],
      "stateMutability": "nonpayable",
      "type": "function"
    },
    {
      "inputs": [],
      "name": "setTokens",
      "outputs": [],
      "stateMutability": "nonpayable",
      "type": "function"
    },
    {
      "inputs": [],
      "name": "sync",
      "outputs": [],
      "stateMutability": "nonpayable",
      "type": "function"
    },
    {
      "inputs": [],
      "name": "ticketCount",
      "outputs": [
        {
          "internalType": "uint256",
          "name": "",
          "type": "uint256"
        }
      ],
      "stateMutability": "view",
      "type": "function"
    },
    {
      "inputs": [
        {
          "internalType": "address",
          "name": "newOwner",
          "type": "address"
        }
      ],
      "name": "transferOwnership",
      "outputs": [],
      "stateMutability": "nonpayable",
      "type": "function"
    },
    {
      "inputs": [
        {
          "internalType": "bytes32",
          "name": "_keyHash",
          "type": "bytes32"
        }
      ],
      "name": "updateKeyHash",
      "outputs": [],
      "stateMutability": "nonpayable",
      "type": "function"
    },
    {
      "inputs": [
        {
          "internalType": "uint256",
          "name": "_rngLinkFee",
          "type": "uint256"
        }
      ],
      "name": "updateRngLinkFee",
      "outputs": [],
      "stateMutability": "nonpayable",
      "type": "function"
    },
    {
      "inputs": [
        {
          "internalType": "address",
          "name": "",
          "type": "address"
        }
      ],
      "name": "userTicketCount",
      "outputs": [
        {
          "internalType": "uint256",
          "name": "",
          "type": "uint256"
        }
      ],
      "stateMutability": "view",
      "type": "function"
    },
    {
      "inputs": [
        {
          "internalType": "address",
          "name": "",
          "type": "address"
        },
        {
          "internalType": "uint256",
          "name": "",
          "type": "uint256"
        }
      ],
      "name": "userTickets",
      "outputs": [
        {
          "internalType": "address",
          "name": "owner",
          "type": "address"
        },
        {
          "internalType": "uint256",
          "name": "roundNumber",
          "type": "uint256"
        },
        {
          "internalType": "uint256",
          "name": "levelOneChance",
          "type": "uint256"
        },
        {
          "internalType": "uint256",
          "name": "levelTwoChance",
          "type": "uint256"
        },
        {
          "internalType": "uint256",
          "name": "levelThreeChance",
          "type": "uint256"
        },
        {
          "internalType": "uint256",
          "name": "levelFourChance",
          "type": "uint256"
        },
        {
          "internalType": "uint256",
          "name": "levelFiveChance",
          "type": "uint256"
        }
      ],
      "stateMutability": "view",
      "type": "function"
    },
    {
      "inputs": [
        {
          "internalType": "address",
          "name": "",
          "type": "address"
        }
      ],
      "name": "userTopTicketStack",
      "outputs": [
        {
          "internalType": "uint256",
          "name": "",
          "type": "uint256"
        }
      ],
      "stateMutability": "view",
      "type": "function"
    }
  ],
  "transactionHash": "0x0a9f2599f3008e1554855790308d5759bfb31f810a433209eb0170df9b134caa",
  "args": [
    "0x5C69bEe701ef814a2B6a3EDD4B1652CB9cc5aA6f",
    "0x87c24ffAa56BEF1B7eCc11eC36b1c8Ec7867a652",
    "0xf753522c2F901B2f4E6A5e1Dc3b5ecD2dae84252",
    "0x89E125BcAD2811AD954FAa0240884d0CdD3631b5",
    "0x7D60283E2Fad83bb81356F317009304082734D36",
    "0xEAB47Ec219BaF69755c664B081F6B925c2fc7471",
    "0xa36085F69e2889c224210F603D836748e7dC0088",
    "0xdD3782915140c8f3b190B5D67eAc6dc5760C46E9"
  ],
  "solcInputHash": "7a076f9f0e27f9aaefe58a560e2fc7ee",
  "bytecode": "0x60c06040523480156200001157600080fd5b506040516200465938038062004659833981016040819052620000349162000365565b6001600160601b0319606082811b821660a05283901b1660805262000058620000fe565b5050609a80546001600160a01b03199081166001600160a01b0398891617909155609880548216968816969096179095556099805486169487169490941790935560ac805485169286169290921790915560008054841692851692909217909155609c805490921692169190911790557f6c3699283bda56ad74f6b855546325b68d482e983852a7a82979cc4807b641f4609f5567016345785d8a0000609e5562000489565b600054600160a81b900460ff16806200011c57506200011c620001be565b80620001325750600054600160a01b900460ff16155b6200015a5760405162461bcd60e51b8152600401620001519062000425565b60405180910390fd5b600054600160a81b900460ff1615801562000192576000805460ff60a01b1960ff60a81b19909116600160a81b1716600160a01b1790555b6200019c620001c4565b620001a662000265565b8015620001bb576000805460ff60a81b191690555b50565b303b1590565b600054600160a81b900460ff1680620001e25750620001e2620001be565b80620001f85750600054600160a01b900460ff16155b620002175760405162461bcd60e51b8152600401620001519062000425565b600054600160a81b900460ff16158015620001a6576000805460ff60a01b1960ff60a81b19909116600160a81b1716600160a01b1790558015620001bb576000805460ff60a81b1916905550565b600054600160a81b900460ff168062000283575062000283620001be565b80620002995750600054600160a01b900460ff16155b620002b85760405162461bcd60e51b8152600401620001519062000425565b600054600160a81b900460ff16158015620002f0576000805460ff60a01b1960ff60a81b19909116600160a81b1716600160a01b1790555b6000620002fc62000361565b606580546001600160a01b0319166001600160a01b038316908117909155604051919250906000907f8be0079c531659141344cd1fd0a4f28419497f9722a3daafe3b4186f6b6457e0908290a3508015620001bb576000805460ff60a81b1916905550565b3390565b600080600080600080600080610100898b03121562000382578384fd5b88516200038f8162000473565b60208a0151909850620003a28162000473565b60408a0151909750620003b58162000473565b60608a0151909650620003c88162000473565b60808a0151909550620003db8162000473565b60a08a0151909450620003ee8162000473565b60c08a0151909350620004018162000473565b60e08a0151909250620004148162000473565b809150509295985092959890939650565b6020808252602e908201527f436f6e747261637420696e7374616e63652068617320616c726561647920626560408201526d195b881a5b9a5d1a585b1a5e995960921b606082015260800190565b6001600160a01b0381168114620001bb57600080fd5b60805160601c60a05160601c614197620004c26000398061131e52806121f0525080610cce528061168752806121c152506141976000f3fe6080604052600436106102935760003560e01c8063adf5e1b11161015a578063cf260baf116100c1578063f2fde38b1161007a578063f2fde38b1461071c578063f4ab1a931461073c578063f7db38cb14610751578063fa69669c14610766578063faf5db8e1461077b578063fff6cae91461079057610293565b8063cf260baf14610675578063cfbd900f146106a8578063d49d5181146106bd578063e0af3616146106d2578063e7fa67e5146106e7578063eced55261461070757610293565b8063b93b4bb711610113578063b93b4bb7146105d6578063bf33a1f5146105f6578063cb5b332e1461060b578063cb87ce671461062b578063cde7bc701461064b578063ce665dd81461066057610293565b8063adf5e1b11461052e578063ae1b97d714610541578063b082cc2614610561578063b08b3a5114610581578063b37217a4146105a1578063b81a0b4c146105c157610293565b8063571c2b4d116101fe5780638da5cb5b116101b75780638da5cb5b146104845780638ea498c51461049957806394985ddd146104ae5780639e317f12146104ce578063ab033ea9146104ee578063ace9f00e1461050e57610293565b8063571c2b4d146103fb5780635aa6e67514610410578063715018a6146104255780637ed6e0cb1461043a57806381fe4c611461044f5780638d8cf08a1461046457610293565b80633023af2d116102505780633023af2d1461035c57806330e588ac146103715780633b24bd4a146103915780633cb0b92d146103a65780634601723a146103c6578063559ed339146103e657610293565b80630c57af6c146102b25780630eb1f908146102c557806313d4829b146102f057806322d5b25c1461031057806329e015ba146103325780632f4f8a7a14610347575b60a4546001600160a01b031633146102b0576102b03360006107a5565b005b6102b06102c0366004613951565b6107a5565b3480156102d157600080fd5b506102da610ab6565b6040516102e79190613c17565b60405180910390f35b3480156102fc57600080fd5b506102da61030b3660046139fe565b610abc565b34801561031c57600080fd5b50610325610c37565b6040516102e79190613b20565b34801561033e57600080fd5b50610325610c46565b34801561035357600080fd5b50610325610c55565b34801561036857600080fd5b50610325610c64565b34801561037d57600080fd5b506102b061038c3660046139fe565b610c73565b34801561039d57600080fd5b50610325610ca2565b3480156103b257600080fd5b506102da6103c13660046139fe565b610cb1565b3480156103d257600080fd5b506102b06103e1366004613919565b610d9e565b3480156103f257600080fd5b506102b0610e24565b34801561040757600080fd5b506103256111dc565b34801561041c57600080fd5b506103256111eb565b34801561043157600080fd5b506102b06111fa565b34801561044657600080fd5b50610325611279565b34801561045b57600080fd5b506102b0611288565b34801561047057600080fd5b506102b061047f366004613919565b6112bd565b34801561049057600080fd5b506103256112fe565b3480156104a557600080fd5b506102da61130d565b3480156104ba57600080fd5b506102b06104c9366004613a16565b611313565b3480156104da57600080fd5b506102da6104e93660046139fe565b611369565b3480156104fa57600080fd5b506102b0610509366004613919565b61137b565b34801561051a57600080fd5b506102da610529366004613919565b6113db565b6102b061053c366004613aa3565b6113ed565b34801561054d57600080fd5b506102b061055c366004613919565b6115c0565b34801561056d57600080fd5b506102b061057c366004613919565b611617565b34801561058d57600080fd5b506102da61059c3660046139fe565b61166e565b3480156105ad57600080fd5b506102da6105bc3660046139fe565b611680565b3480156105cd57600080fd5b5061032561174e565b3480156105e257600080fd5b506102da6105f1366004613919565b61175d565b34801561060257600080fd5b506102b0611935565b34801561061757600080fd5b506102b06106263660046139fe565b6119bf565b34801561063757600080fd5b506102da610646366004613919565b6119f9565b34801561065757600080fd5b50610325611a0b565b34801561066c57600080fd5b506102da611a1a565b34801561068157600080fd5b50610695610690366004613989565b611a1f565b6040516102e79796959493929190613bdc565b3480156106b457600080fd5b506102da611a71565b3480156106c957600080fd5b506102da611a77565b3480156106de57600080fd5b50610325611a7d565b3480156106f357600080fd5b506102b06107023660046139fe565b611a8c565b34801561071357600080fd5b506102da611ac6565b34801561072857600080fd5b506102b0610737366004613919565b611acb565b34801561074857600080fd5b506102da611b82565b34801561075d57600080fd5b50610325611ba6565b34801561077257600080fd5b50610325611bb5565b34801561078757600080fd5b506102da611bc4565b34801561079c57600080fd5b506102b0611bca565b6001600160a01b0382166107d45760405162461bcd60e51b81526004016107cb90613c71565b60405180910390fd5b34806107f25760405162461bcd60e51b81526004016107cb90614004565b60a460009054906101000a90046001600160a01b03166001600160a01b031663d0e30db0346040518263ffffffff1660e01b81526004016000604051808303818588803b15801561084257600080fd5b505af1158015610856573d6000803e3d6000fd5b5050505050600080610866611c49565b915091506000610877848484611d35565b60a45460a25460405163a9059cbb60e01b81529293506001600160a01b039182169263a9059cbb926108af9216908890600401613b79565b602060405180830381600087803b1580156108c957600080fd5b505af11580156108dd573d6000803e3d6000fd5b505050506040513d601f19601f8201168201806040525081019061090191906139b4565b5060008054604051633834374960e11b81526001600160a01b03909116916370686e9291610936918a91899190600401613b92565b600060405180830381600087803b15801561095057600080fd5b505af1158015610964573d6000803e3d6000fd5b505060a45460a15460009350839250610989916001600160a01b039081169116611dcf565b60a25460a1549294509092506001600160a01b039081169163022c0d9f918086169116146109b85760006109ba565b845b60a1546001600160a01b038581169116146109d65760006109d8565b855b306040518463ffffffff1660e01b81526004016109f7939291906140fb565b600060405180830381600087803b158015610a1157600080fd5b505af1158015610a25573d6000803e3d6000fd5b505050506000610a4b6064610a45609d5487611e5990919063ffffffff16565b90611e9c565b609c546040519192506001600160a01b03169082156108fc029083906000818181858888f19350505050158015610a86573d6000803e3d6000fd5b506000610a938583611ede565b9050610aaa610aa3826002611e9c565b8b8b611f20565b50505050505050505050565b609e5481565b6000806000610ac96120ca565b90925090506000610ae5610ade866002611e9c565b8484611d35565b9050600060a060009054906101000a90046001600160a01b03166001600160a01b03166318160ddd6040518163ffffffff1660e01b815260040160206040518083038186803b158015610b3757600080fd5b505afa158015610b4b573d6000803e3d6000fd5b505050506040513d601f19601f82011682018060405250810190610b6f9190613a8b565b60a15460a354919250600091610b91916001600160a01b039081169116611dcf565b5060a35490915060009081906001600160a01b03808516911614610bc057610bba896002611e9c565b85610bcc565b84610bcc8a6002611e9c565b60a354919350915060009081906001600160a01b03868116911614610bf2578888610bf5565b87895b9092509050610c2882610c088689611e59565b81610c0f57fe5b0482610c1b868a611e59565b81610c2257fe5b046121a7565b9b9a5050505050505050505050565b6098546001600160a01b031681565b6099546001600160a01b031681565b60a0546001600160a01b031681565b609a546001600160a01b031681565b609b546001600160a01b03163314610c9d5760405162461bcd60e51b81526004016107cb90613d40565b609d55565b60a2546001600160a01b031681565b609e546040516323b872dd60e01b81526000916001600160a01b037f000000000000000000000000000000000000000000000000000000000000000016916323b872dd91610d059133913091600401613b34565b602060405180830381600087803b158015610d1f57600080fd5b505af1158015610d33573d6000803e3d6000fd5b505050506040513d601f19601f82011682018060405250810190610d5791906139b4565b610d735760405162461bcd60e51b81526004016107cb90613f89565b60ad80546001600160a01b03191633179055609f54609e54610d969190846121bd565b90505b919050565b610da6612300565b6065546001600160a01b03908116911614610dd35760405162461bcd60e51b81526004016107cb90613ed8565b609880546001600160a01b038381166001600160a01b03198316811790935560405191169182917f9e4368dbddb338dc373020f18730584d6e9aaacad2101be6bd6d0a21fe59ffbc90600090a35050565b610e2c612300565b6065546001600160a01b03908116911614610e595760405162461bcd60e51b81526004016107cb90613ed8565b60008054906101000a90046001600160a01b03166001600160a01b0316632f4f8a7a6040518163ffffffff1660e01b815260040160206040518083038186803b158015610ea557600080fd5b505afa158015610eb9573d6000803e3d6000fd5b505050506040513d601f19601f82011682018060405250810190610edd9190613935565b60a080546001600160a01b0319166001600160a01b039283161790556000546040805163f7db38cb60e01b81529051919092169163f7db38cb916004808301926020929190829003018186803b158015610f3657600080fd5b505afa158015610f4a573d6000803e3d6000fd5b505050506040513d601f19601f82011682018060405250810190610f6e9190613935565b60a180546001600160a01b0319166001600160a01b0392831617905560005460408051631d925ea560e11b815290519190921691633b24bd4a916004808301926020929190829003018186803b158015610fc757600080fd5b505afa158015610fdb573d6000803e3d6000fd5b505050506040513d601f19601f82011682018060405250810190610fff9190613935565b60a280546001600160a01b0319166001600160a01b0392831617905560005460408051633e9a59a760e21b81529051919092169163fa69669c916004808301926020929190829003018186803b15801561105857600080fd5b505afa15801561106c573d6000803e3d6000fd5b505050506040513d601f19601f820116820180604052508101906110909190613935565b60a380546001600160a01b0319166001600160a01b03928316179055600054604080516370579b0b60e11b81529051919092169163e0af3616916004808301926020929190829003018186803b1580156110e957600080fd5b505afa1580156110fd573d6000803e3d6000fd5b505050506040513d601f19601f820116820180604052508101906111219190613935565b60a480546001600160a01b0319166001600160a01b0392831617905560005460408051632e0682d360e21b81529051919092169163b81a0b4c916004808301926020929190829003018186803b15801561117a57600080fd5b505afa15801561118e573d6000803e3d6000fd5b505050506040513d601f19601f820116820180604052508101906111b29190613935565b60a580546001600160a01b0319166001600160a01b03929092169190911790556111da611935565b565b609c546001600160a01b031681565b609b546001600160a01b031681565b611202612300565b6065546001600160a01b0390811691161461122f5760405162461bcd60e51b81526004016107cb90613ed8565b6065546040516000916001600160a01b0316907f8be0079c531659141344cd1fd0a4f28419497f9722a3daafe3b4186f6b6457e0908390a3606580546001600160a01b0319169055565b60ad546001600160a01b031681565b33600090815260aa60205260409020546112b45760405162461bcd60e51b81526004016107cb906140ce565b6111da33612304565b6001600160a01b038116600090815260aa60205260409020546112f25760405162461bcd60e51b81526004016107cb906140ce565b6112fb81612304565b50565b6065546001600160a01b031690565b60a75481565b336001600160a01b037f0000000000000000000000000000000000000000000000000000000000000000161461135b5760405162461bcd60e51b81526004016107cb90613f0d565b611365828261293d565b5050565b60976020526000908152604090205481565b609a54600160a01b900460ff16156113a55760405162461bcd60e51b81526004016107cb90614086565b609a805460ff60a01b1916600160a01b179055609b80546001600160a01b039092166001600160a01b0319909216919091179055565b60ab6020526000908152604090205481565b6000821161140d5760405162461bcd60e51b81526004016107cb90613d09565b60a1546040516323b872dd60e01b81526001600160a01b03909116906323b872dd9061144190339030908790600401613b34565b602060405180830381600087803b15801561145b57600080fd5b505af115801561146f573d6000803e3d6000fd5b505050506040513d601f19601f8201168201806040525081019061149391906139b4565b6114af5760405162461bcd60e51b81526004016107cb90613e32565b6000806114ba611c49565b9150915060006114cb858385611d35565b905060006114e96064610a45609d5489611e5990919063ffffffff16565b609c546040519192506001600160a01b03169082156108fc029083906000818181858888f19350505050158015611524573d6000803e3d6000fd5b5060008054604051633834374960e11b81526001600160a01b03909116916370686e9291611559913391879190600401613b92565b600060405180830381600087803b15801561157357600080fd5b505af1158015611587573d6000803e3d6000fd5b5050505060006115a08288611ede90919063ffffffff16565b90506115b76115b0826002611e9c565b3388611f20565b50505050505050565b6115c8612300565b6065546001600160a01b039081169116146115f55760405162461bcd60e51b81526004016107cb90613ed8565b609c80546001600160a01b0319166001600160a01b0392909216919091179055565b61161f612300565b6065546001600160a01b0390811691161461164c5760405162461bcd60e51b81526004016107cb90613ed8565b609880546001600160a01b0319166001600160a01b0392909216919091179055565b60a86020526000908152604090205481565b6000609e547f00000000000000000000000000000000000000000000000000000000000000006001600160a01b03166370a08231306040518263ffffffff1660e01b81526004016116d19190613b20565b60206040518083038186803b1580156116e957600080fd5b505afa1580156116fd573d6000803e3d6000fd5b505050506040513d601f19601f820116820180604052508101906117219190613a8b565b101561173f5760405162461bcd60e51b81526004016107cb90613e60565b610d96609f54609e54846121bd565b60a5546001600160a01b031681565b6000805460405163568a0a5960e11b815282916001600160a01b03169063ad1414b29061178e908690600401613b20565b60206040518083038186803b1580156117a657600080fd5b505afa1580156117ba573d6000803e3d6000fd5b505050506040513d601f19601f820116820180604052508101906117de9190613a8b565b9050670de0b6b3a76400008110156117fa576000915050610d99565b670de0b6b3a764000081101580156118195750674563918244f4000081105b15611828576001915050610d99565b674563918244f4000081101580156118475750678ac7230489e8000081105b15611856576002915050610d99565b678ac7230489e80000811015801561187657506801158e460913d0000081105b15611885576003915050610d99565b6801158e460913d0000081101580156118a657506801a055690d9db8000081105b156118b5576004915050610d99565b6801a055690d9db8000081101580156118d6575068022b1c8c1227a0000081105b156118e5576005915050610d99565b68022b1c8c1227a00000811015801561190657506802b5e3af16b188000081105b15611915576006915050610d99565b6802b5e3af16b1880000811061192f576007915050610d99565b50919050565b60a05460995460405163095ea7b360e01b81526001600160a01b039283169263095ea7b39261196d9291169060001990600401613b79565b602060405180830381600087803b15801561198757600080fd5b505af115801561199b573d6000803e3d6000fd5b505050506040513d601f19601f820116820180604052508101906112fb91906139b4565b6119c7612300565b6065546001600160a01b039081169116146119f45760405162461bcd60e51b81526004016107cb90613ed8565b609e55565b60aa6020526000908152604090205481565b60ac546001600160a01b031681565b600181565b60a960209081526000928352604080842090915290825290208054600182015460028301546003840154600485015460058601546006909601546001600160a01b039095169593949293919290919087565b60a65481565b60001981565b60a4546001600160a01b031681565b611a94612300565b6065546001600160a01b03908116911614611ac15760405162461bcd60e51b81526004016107cb90613ed8565b609f55565b606481565b611ad3612300565b6065546001600160a01b03908116911614611b005760405162461bcd60e51b81526004016107cb90613ed8565b6001600160a01b038116611b265760405162461bcd60e51b81526004016107cb90613c9a565b6065546040516001600160a01b038084169216907f8be0079c531659141344cd1fd0a4f28419497f9722a3daafe3b4186f6b6457e090600090a3606580546001600160a01b0319166001600160a01b0392909216919091179055565b7f028f5c28f5c28f5c28f5c28f5c28f5c28f5c28f5c28f5c28f5c28f5c28f5c28f81565b60a1546001600160a01b031681565b60a3546001600160a01b031681565b609d5481565b6098546040805160016209351760e01b0319815281516001600160a01b039093169263fff6cae9926004808401939192918290030181600087803b158015611c1157600080fd5b505af1158015611c25573d6000803e3d6000fd5b505050506040513d601f19601f8201168201806040525081019061136591906139d0565b60a45460a15460009182918291611c6c916001600160a01b039182169116611dcf565b50905060008060a260009054906101000a90046001600160a01b03166001600160a01b0316630902f1ac6040518163ffffffff1660e01b815260040160606040518083038186803b158015611cc057600080fd5b505afa158015611cd4573d6000803e3d6000fd5b505050506040513d601f19601f82011682018060405250810190611cf89190613a37565b5060a1546001600160701b039283169450911691506001600160a01b03848116911614611d26578181611d29565b80825b90969095509350505050565b6000808411611d565760405162461bcd60e51b81526004016107cb9061403b565b600083118015611d665750600082115b611d825760405162461bcd60e51b81526004016107cb90613dea565b6000611d90856103e5611e59565b90506000611d9e8285611e59565b90506000611db883611db2886103e8611e59565b90612b02565b9050808281611dc357fe5b04979650505050505050565b600080826001600160a01b0316846001600160a01b03161415611e045760405162461bcd60e51b81526004016107cb90613da5565b826001600160a01b0316846001600160a01b031610611e24578284611e27565b83835b90925090506001600160a01b038216611e525760405162461bcd60e51b81526004016107cb90613fcd565b9250929050565b600082611e6857506000611e96565b82820282848281611e7557fe5b0414611e935760405162461bcd60e51b81526004016107cb90613e97565b90505b92915050565b6000611e9383836040518060400160405280601a81526020017f536166654d6174683a206469766973696f6e206279207a65726f000000000000815250612b27565b6000611e9383836040518060400160405280601e81526020017f536166654d6174683a207375627472616374696f6e206f766572666c6f770000815250612b5e565b600080611f2b6120ca565b915091506000611f3c868484611d35565b60a15460a05460405163a9059cbb60e01b81529293506001600160a01b039182169263a9059cbb92611f749216908a90600401613b79565b602060405180830381600087803b158015611f8e57600080fd5b505af1158015611fa2573d6000803e3d6000fd5b505050506040513d601f19601f82011682018060405250810190611fc691906139b4565b611fe25760405162461bcd60e51b81526004016107cb90613ce0565b60a15460a3546000918291612003916001600160a01b039081169116611dcf565b60a05460a3549294509092506001600160a01b039081169163022c0d9f91808616911614612032576000612034565b845b60a3546001600160a01b03858116911614612050576000612052565b855b306040518463ffffffff1660e01b8152600401612071939291906140fb565b600060405180830381600087803b15801561208b57600080fd5b505af115801561209f573d6000803e3d6000fd5b505050506120af83898989612b8a565b6120b88761300d565b6120c0611bca565b5050505050505050565b60a15460a354600091829182916120ed916001600160a01b039182169116611dcf565b50905060008060a060009054906101000a90046001600160a01b03166001600160a01b0316630902f1ac6040518163ffffffff1660e01b815260040160606040518083038186803b15801561214157600080fd5b505afa158015612155573d6000803e3d6000fd5b505050506040513d601f19601f820116820180604052508101906121799190613a37565b5060a3546001600160701b039283169450911691506001600160a01b03848116911614611d26578181611d29565b60008183106121b65781611e93565b5090919050565b60007f00000000000000000000000000000000000000000000000000000000000000006001600160a01b0316634000aea07f0000000000000000000000000000000000000000000000000000000000000000858786604051602001612223929190613b12565b6040516020818303038152906040526040518463ffffffff1660e01b815260040161225093929190613bb5565b602060405180830381600087803b15801561226a57600080fd5b505af115801561227e573d6000803e3d6000fd5b505050506040513d601f19601f820116820180604052508101906122a291906139b4565b506000848152609760205260408120546122c1908690859030906135ee565b6000868152609760205260409020549091506122de906001612b02565b6000868152609760205260409020556122f78582613628565b95945050505050565b3390565b6001600160a01b038116600090815260ab602090815260408083205460aa90925290912054815b6123358383612b02565b811015612937576123446138d3565b506001600160a01b03808516600090815260a960209081526040808320858452825291829020825160e0810184528154909416845260018101549184018290526002810154928401929092526003820154606084015260048201546080840152600582015460a084015260069091015460c083015260a7548114156123cd5750505050506112fb565b600081815260a8602052604090819020549083015181116124cd5760ac5460005460405163795d79f560e01b81526001600160a01b039283169263c6c3bbe692169063795d79f59061242490600190600401613c17565b60206040518083038186803b15801561243c57600080fd5b505afa158015612450573d6000803e3d6000fd5b505050506040513d601f19601f820116820180604052508101906124749190613935565b85516040516001600160e01b031960e085901b16815261249a9291908690600401613b34565b600060405180830381600087803b1580156124b457600080fd5b505af11580156124c8573d6000803e3d6000fd5b505050505b826060015181116125bd5760ac5460005460405163795d79f560e01b81526001600160a01b039283169263c6c3bbe692169063795d79f59061251490600290600401613c17565b60206040518083038186803b15801561252c57600080fd5b505afa158015612540573d6000803e3d6000fd5b505050506040513d601f19601f820116820180604052508101906125649190613935565b85516040516001600160e01b031960e085901b16815261258a9291908690600401613b34565b600060405180830381600087803b1580156125a457600080fd5b505af11580156125b8573d6000803e3d6000fd5b505050505b826080015181116126ad5760ac5460005460405163795d79f560e01b81526001600160a01b039283169263c6c3bbe692169063795d79f59061260490600390600401613c17565b60206040518083038186803b15801561261c57600080fd5b505afa158015612630573d6000803e3d6000fd5b505050506040513d601f19601f820116820180604052508101906126549190613935565b85516040516001600160e01b031960e085901b16815261267a9291908690600401613b34565b600060405180830381600087803b15801561269457600080fd5b505af11580156126a8573d6000803e3d6000fd5b505050505b8260a00151811161279c5760ac5460005460405163795d79f560e01b81526001600160a01b039283169263c6c3bbe692169063795d79f5906126f3906004908101613c17565b60206040518083038186803b15801561270b57600080fd5b505afa15801561271f573d6000803e3d6000fd5b505050506040513d601f19601f820116820180604052508101906127439190613935565b85516040516001600160e01b031960e085901b1681526127699291908690600401613b34565b600060405180830381600087803b15801561278357600080fd5b505af1158015612797573d6000803e3d6000fd5b505050505b8260c00151811161288c5760ac5460005460405163795d79f560e01b81526001600160a01b039283169263c6c3bbe692169063795d79f5906127e390600590600401613c17565b60206040518083038186803b1580156127fb57600080fd5b505afa15801561280f573d6000803e3d6000fd5b505050506040513d601f19601f820116820180604052508101906128339190613935565b85516040516001600160e01b031960e085901b1681526128599291908690600401613b34565b600060405180830381600087803b15801561287357600080fd5b505af1158015612887573d6000803e3d6000fd5b505050505b612897866001612b02565b6001600160a01b038816600090815260ab6020526040902081905595506128bf856001611ede565b6001600160a01b038816600090815260aa6020908152604080832084905560a98252808320888452909152812080546001600160a01b0319168155600180820183905560028201839055600382018390556004820183905560058201839055600690910191909155909550909301925061232b915050565b50505050565b60006129488261365b565b60a78054600090815260a8602052604090208290555490915061296c906001612b02565b60a7556000805460405163795d79f560e01b81526001600160a01b039091169063795d79f5906129a190600790600401613c17565b60206040518083038186803b1580156129b957600080fd5b505afa1580156129cd573d6000803e3d6000fd5b505050506040513d601f19601f820116820180604052508101906129f19190613935565b60ac5460ad54604051633de222bb60e21b81529293506001600160a01b039182169263f7888aec92612a2a928692911690600401613c44565b602060405180830381600087803b158015612a4457600080fd5b505af1158015612a58573d6000803e3d6000fd5b505050506040513d601f19601f82011682018060405250810190612a7c9190613a8b565b612aec5760ac5460ad54604051636361ddf360e11b81526001600160a01b039283169263c6c3bbe692612ab9928692909116908790600401613b34565b600060405180830381600087803b158015612ad357600080fd5b505af1158015612ae7573d6000803e3d6000fd5b505050505b505060ad80546001600160a01b03191690555050565b600082820183811015611e935760405162461bcd60e51b81526004016107cb90613d6e565b60008183612b485760405162461bcd60e51b81526004016107cb9190613c5e565b506000838581612b5457fe5b0495945050505050565b60008184841115612b825760405162461bcd60e51b81526004016107cb9190613c5e565b505050900390565b600080612b956120ca565b915091506000612ba6868484613667565b9050600087821115612bc757612bbd888486613667565b9050879150612bca565b50855b60a15460a05460405163a9059cbb60e01b81526001600160a01b039283169263a9059cbb92612c00929116908590600401613b79565b602060405180830381600087803b158015612c1a57600080fd5b505af1158015612c2e573d6000803e3d6000fd5b505050506040513d601f19601f82011682018060405250810190612c5291906139b4565b612c5857fe5b60a35460a05460405163a9059cbb60e01b81526001600160a01b039283169263a9059cbb92612c8e929116908690600401613b79565b602060405180830381600087803b158015612ca857600080fd5b505af1158015612cbc573d6000803e3d6000fd5b505050506040513d601f19601f82011682018060405250810190612ce091906139b4565b612ce657fe5b8415612e565760a0546040516335313c2160e11b81526001600160a01b0390911690636a62784290612d1c903090600401613b20565b602060405180830381600087803b158015612d3657600080fd5b505af1158015612d4a573d6000803e3d6000fd5b505050506040513d601f19601f82011682018060405250810190612d6e9190613a8b565b5060995460a0546040516370a0823160e01b81526001600160a01b0392831692634cf5fbf5928a92600092909116906370a0823190612db1903090600401613b20565b60206040518083038186803b158015612dc957600080fd5b505afa158015612ddd573d6000803e3d6000fd5b505050506040513d601f19601f82011682018060405250810190612e019190613a8b565b6040518463ffffffff1660e01b8152600401612e1f93929190613b58565b600060405180830381600087803b158015612e3957600080fd5b505af1158015612e4d573d6000803e3d6000fd5b50505050612eda565b60a0546040516335313c2160e11b81526001600160a01b0390911690636a62784290612e86908990600401613b20565b602060405180830381600087803b158015612ea057600080fd5b505af1158015612eb4573d6000803e3d6000fd5b505050506040513d601f19601f82011682018060405250810190612ed89190613a8b565b505b81881115612f6f5760a3546001600160a01b031663a9059cbb87612efe8b86611ede565b6040518363ffffffff1660e01b8152600401612f1b929190613b79565b602060405180830381600087803b158015612f3557600080fd5b505af1158015612f49573d6000803e3d6000fd5b505050506040513d601f19601f82011682018060405250810190612f6d91906139b4565b505b808711156120c05760a1546001600160a01b031663a9059cbb87612f938a85611ede565b6040518363ffffffff1660e01b8152600401612fb0929190613b79565b602060405180830381600087803b158015612fca57600080fd5b505af1158015612fde573d6000803e3d6000fd5b505050506040513d601f19601f8201168201806040525081019061300291906139b4565b505050505050505050565b600080546040516333103d9960e21b81526001600160a01b039091169063cc40f6649061303e908590600401613b20565b60206040518083038186803b15801561305657600080fd5b505afa15801561306a573d6000803e3d6000fd5b505050506040513d601f19601f8201168201806040525081019061308e9190613a8b565b9050600061309b8361175d565b6001600160a01b038416600090815260ab6020526040902054909150825b828110156134e7576130c96138d3565b81613118576040518060e00160405280876001600160a01b0316815260200160a75481526020016032815260200160008152602001600081526020016000815260200160008152509050613404565b816001141561316b576040518060e00160405280876001600160a01b0316815260200160a7548152602001604b815260200160328152602001600081526020016000815260200160008152509050613404565b81600214156131be576040518060e00160405280876001600160a01b0316815260200160a754815260200160648152602001604b8152602001603281526020016000815260200160008152509050613404565b8160031415613211576040518060e00160405280876001600160a01b0316815260200160a75481526020016064815260200160648152602001604b81526020016032815260200160008152509050613404565b8160041415613264576040518060e00160405280876001600160a01b0316815260200160a7548152602001606481526020016064815260200160648152602001604b815260200160328152509050613404565b81600514156132b7576040518060e00160405280876001600160a01b0316815260200160a75481526020016064815260200160648152602001606481526020016064815260200160328152509050613404565b8160061415613404576001600160a01b038616600090815260aa6020526040812054906132e48583612b02565b6040805160e0810182526001600160a01b038b811680835260a75460208085019182526064858701818152606087018281526080880183815260a0890184815260c08a01948552600097885260a986528a88208c895290955298909520965187546001600160a01b031916961695909517865591516001808701919091559351600286015591516003850155935160048401555160058301559151600690910155909150613393908390612b02565b60aa60008a6001600160a01b03166001600160a01b03168152602001908152602001600020819055506040518060e00160405280896001600160a01b0316815260200160a7548152602001606481526020016064815260200160648152602001606481526020016000815250925050505b80516001600160a01b0316156134de576001600160a01b038616600090815260aa6020526040812054906134388583612b02565b6001600160a01b03898116600090815260a960209081526040808320858452825291829020875181546001600160a01b0319169416939093178355860151600180840191909155908601516002830155606086015160038301556080860151600483015560a0860151600583015560c08601516006909201919091559091506134c2908390612b02565b6001600160a01b038916600090815260aa602052604090205550505b506001016130b9565b5060038210158015613580575060a5546040516370a0823160e01b81526801158e460913d00000916001600160a01b0316906370a082319061352d908890600401613b20565b60206040518083038186803b15801561354557600080fd5b505afa158015613559573d6000803e3d6000fd5b505050506040513d601f19601f8201168201806040525081019061357d9190613a8b565b10155b1561358e5761358e846136cf565b600054604051631695fb2f60e31b81526001600160a01b039091169063b4afd978906135c09087908690600401613b79565b600060405180830381600087803b1580156135da57600080fd5b505af11580156120c0573d6000803e3d6000fd5b6000848484846040516020016136079493929190613c20565b60408051601f19818403018152919052805160209091012095945050505050565b6000828260405160200161363d929190613b12565b60405160208183030381529060405280519060200120905092915050565b60649081028190040690565b60008084116136885760405162461bcd60e51b81526004016107cb90613f44565b6000831180156136985750600082115b6136b45760405162461bcd60e51b81526004016107cb90613dea565b826136bf8584611e59565b816136c657fe5b04949350505050565b6000805460405163795d79f560e01b81526001600160a01b039091169063795d79f59061370190600690600401613c17565b60206040518083038186803b15801561371957600080fd5b505afa15801561372d573d6000803e3d6000fd5b505050506040513d601f19601f820116820180604052508101906137519190613935565b60ac54604051633de222bb60e21b81529192506001600160a01b03169063f7888aec906137849084908690600401613c44565b602060405180830381600087803b15801561379e57600080fd5b505af11580156137b2573d6000803e3d6000fd5b505050506040513d601f19601f820116820180604052508101906137d69190613a8b565b15801561385357506032816001600160a01b03166318160ddd6040518163ffffffff1660e01b815260040160206040518083038186803b15801561381957600080fd5b505afa15801561382d573d6000803e3d6000fd5b505050506040513d601f19601f820116820180604052508101906138519190613a8b565b105b156113655760ac5460a754600090815260a8602052604090819020549051636361ddf360e11b81526001600160a01b039092169163c6c3bbe69161389d9185918791600401613b34565b600060405180830381600087803b1580156138b757600080fd5b505af11580156138cb573d6000803e3d6000fd5b505050505050565b6040518060e0016040528060006001600160a01b031681526020016000815260200160008152602001600081526020016000815260200160008152602001600081525090565b60006020828403121561392a578081fd5b8135611e9381614129565b600060208284031215613946578081fd5b8151611e9381614129565b60008060408385031215613963578081fd5b823561396e81614129565b9150602083013561397e8161413e565b809150509250929050565b6000806040838503121561399b578182fd5b82356139a681614129565b946020939093013593505050565b6000602082840312156139c5578081fd5b8151611e938161413e565b600080604083850312156139e2578182fd5b82516139ed8161413e565b602084015190925061397e8161413e565b600060208284031215613a0f578081fd5b5035919050565b60008060408385031215613a28578182fd5b50508035926020909101359150565b600080600060608486031215613a4b578081fd5b8351613a568161414c565b6020850151909350613a678161414c565b604085015190925063ffffffff81168114613a80578182fd5b809150509250925092565b600060208284031215613a9c578081fd5b5051919050565b60008060408385031215613ab5578081fd5b82359150602083013561397e8161413e565b60008151808452815b81811015613aec57602081850181015186830182015201613ad0565b81811115613afd5782602083870101525b50601f01601f19169290920160200192915050565b918252602082015260400190565b6001600160a01b0391909116815260200190565b6001600160a01b039384168152919092166020820152604081019190915260600190565b6001600160a01b039390931683526020830191909152604082015260600190565b6001600160a01b03929092168252602082015260400190565b6001600160a01b0393909316835260208301919091521515604082015260600190565b600060018060a01b0385168252836020830152606060408301526122f76060830184613ac7565b6001600160a01b03979097168752602087019590955260408601939093526060850191909152608084015260a083015260c082015260e00190565b90815260200190565b93845260208401929092526001600160a01b03166040830152606082015260800190565b6001600160a01b0392831681529116602082015260400190565b600060208252611e936020830184613ac7565b6020808252600f908201526e496e76616c6964206164647265737360881b604082015260600190565b60208082526026908201527f4f776e61626c653a206e6577206f776e657220697320746865207a65726f206160408201526564647265737360d01b606082015260800190565b6020808252600f908201526e151c985b9cd9995c8819985a5b1959608a1b604082015260600190565b60208082526019908201527f496e73756666696369656e7420746f6b656e20616d6f756e7400000000000000604082015260600190565b6020808252601490820152734c6f636b656420746f20676f7665726e616e636560601b604082015260600190565b6020808252601b908201527f536166654d6174683a206164646974696f6e206f766572666c6f770000000000604082015260600190565b60208082526025908201527f556e697377617056324c6962726172793a204944454e544943414c5f41444452604082015264455353455360d81b606082015260800190565b60208082526028908201527f556e697377617056324c6962726172793a20494e53554646494349454e545f4c604082015267495155494449545960c01b606082015260800190565b602080825260149082015273105c1c1c9bdd99481d1bdad95b9cc8199a5c9cdd60621b604082015260600190565b6020808252601b908201527f4e6f7420656e6f756768204c494e4b206f6e20636f6e74726163740000000000604082015260600190565b60208082526021908201527f536166654d6174683a206d756c7469706c69636174696f6e206f766572666c6f6040820152607760f81b606082015260800190565b6020808252818101527f4f776e61626c653a2063616c6c6572206973206e6f7420746865206f776e6572604082015260600190565b6020808252601f908201527f4f6e6c7920565246436f6f7264696e61746f722063616e2066756c66696c6c00604082015260600190565b60208082526025908201527f556e697377617056324c6962726172793a20494e53554646494349454e545f416040820152641353d5539560da1b606082015260800190565b60208082526024908201527f4e6f7420656e6f756768204c494e4b20617070726f76656420746f20636f6e746040820152631c9858dd60e21b606082015260800190565b6020808252601e908201527f556e697377617056324c6962726172793a205a45524f5f414444524553530000604082015260600190565b60208082526017908201527f496e73756666696369656e742045544820616d6f756e74000000000000000000604082015260600190565b6020808252602b908201527f556e697377617056324c6962726172793a20494e53554646494349454e545f4960408201526a1394155517d05353d5539560aa1b606082015260800190565b60208082526028908201527f476f7665726e616e636520636f6e74726163742068617320616c7265616479206040820152671899595b881cd95d60c21b606082015260800190565b6020808252601390820152724e6f207469636b65747320746f20636c61696d60681b604082015260600190565b92835260208301919091526001600160a01b0316604082015260806060820181905260009082015260a00190565b6001600160a01b03811681146112fb57600080fd5b80151581146112fb57600080fd5b6001600160701b03811681146112fb57600080fdfea2646970667358221220424af0f1bdd6068ee1d8c7802592fc691dee45829bdbaf660261de38df809d1564736f6c634300060c0033",
  "devdoc": {
    "kind": "dev",
    "methods": {
      "owner()": {
        "details": "Returns the address of the current owner."
      },
      "renounceOwnership()": {
        "details": "Leaves the contract without owner. It will not be possible to call `onlyOwner` functions anymore. Can only be called by the current owner. NOTE: Renouncing ownership will leave the contract without an owner, thereby removing any functionality that is only available to the owner."
      },
      "transferOwnership(address)": {
        "details": "Transfers ownership of the contract to a new account (`newOwner`). Can only be called by the current owner."
      }
    },
    "version": 1
  },
  "userdoc": {
    "kind": "user",
    "methods": {
      "getRandomNumber(uint256)": {
        "notice": "Requests randomness from a user-provided seed"
      },
      "selfRequestRandomNumber(uint256)": {
        "notice": "Requests randomness from a user-provided seed"
      }
    },
    "version": 1
  },
  "storageLayout": {
    "storage": [
      {
        "astId": 13848,
        "contract": "contracts/RAMV1router.sol:RAMv1Router",
        "label": "_storage",
        "offset": 0,
        "slot": "0",
        "type": "t_contract(YGYStorageV1)15570"
      },
      {
        "astId": 195,
        "contract": "contracts/RAMV1router.sol:RAMv1Router",
        "label": "initialized",
        "offset": 20,
        "slot": "0",
        "type": "t_bool"
      },
      {
        "astId": 198,
        "contract": "contracts/RAMV1router.sol:RAMv1Router",
        "label": "initializing",
        "offset": 21,
        "slot": "0",
        "type": "t_bool"
      },
      {
        "astId": 263,
        "contract": "contracts/RAMV1router.sol:RAMv1Router",
        "label": "______gap",
        "offset": 0,
        "slot": "1",
        "type": "t_array(t_uint256)50_storage"
      },
      {
        "astId": 188,
        "contract": "contracts/RAMV1router.sol:RAMv1Router",
        "label": "__gap",
        "offset": 0,
        "slot": "51",
        "type": "t_array(t_uint256)50_storage"
      },
      {
        "astId": 565,
        "contract": "contracts/RAMV1router.sol:RAMv1Router",
        "label": "_owner",
        "offset": 0,
        "slot": "101",
        "type": "t_address"
      },
      {
        "astId": 683,
        "contract": "contracts/RAMV1router.sol:RAMv1Router",
        "label": "__gap",
        "offset": 0,
        "slot": "102",
        "type": "t_array(t_uint256)49_storage"
      },
      {
        "astId": 13931,
        "contract": "contracts/RAMV1router.sol:RAMv1Router",
        "label": "nonces",
        "offset": 0,
        "slot": "151",
        "type": "t_mapping(t_bytes32,t_uint256)"
      },
      {
        "astId": 9985,
        "contract": "contracts/RAMV1router.sol:RAMv1Router",
        "label": "_feeApprover",
        "offset": 0,
        "slot": "152",
        "type": "t_contract(IFeeApprover)15758"
      },
      {
        "astId": 9987,
        "contract": "contracts/RAMV1router.sol:RAMv1Router",
        "label": "_RAMVault",
        "offset": 0,
        "slot": "153",
        "type": "t_contract(IRAMVault)15974"
      },
      {
        "astId": 9989,
        "contract": "contracts/RAMV1router.sol:RAMv1Router",
        "label": "_uniV2Factory",
        "offset": 0,
        "slot": "154",
        "type": "t_address"
      },
      {
        "astId": 9991,
        "contract": "contracts/RAMV1router.sol:RAMv1Router",
        "label": "governanceSet",
        "offset": 20,
        "slot": "154",
        "type": "t_bool"
      },
      {
        "astId": 9993,
        "contract": "contracts/RAMV1router.sol:RAMv1Router",
        "label": "governance",
        "offset": 0,
        "slot": "155",
        "type": "t_address"
      },
      {
        "astId": 9995,
        "contract": "contracts/RAMV1router.sol:RAMv1Router",
        "label": "regenerator",
        "offset": 0,
        "slot": "156",
        "type": "t_address_payable"
      },
      {
        "astId": 9997,
        "contract": "contracts/RAMV1router.sol:RAMv1Router",
        "label": "regeneratorTax",
        "offset": 0,
        "slot": "157",
        "type": "t_uint256"
      },
      {
        "astId": 10017,
        "contract": "contracts/RAMV1router.sol:RAMv1Router",
        "label": "rngLinkFee",
        "offset": 0,
        "slot": "158",
        "type": "t_uint256"
      },
      {
        "astId": 10019,
        "contract": "contracts/RAMV1router.sol:RAMv1Router",
        "label": "keyHash",
        "offset": 0,
        "slot": "159",
        "type": "t_bytes32"
      },
      {
        "astId": 10021,
        "contract": "contracts/RAMV1router.sol:RAMv1Router",
        "label": "_YGYRAMPair",
        "offset": 0,
        "slot": "160",
        "type": "t_address"
      },
      {
        "astId": 10023,
        "contract": "contracts/RAMV1router.sol:RAMv1Router",
        "label": "_YGYToken",
        "offset": 0,
        "slot": "161",
        "type": "t_address"
      },
      {
        "astId": 10025,
        "contract": "contracts/RAMV1router.sol:RAMv1Router",
        "label": "_YGYWETHPair",
        "offset": 0,
        "slot": "162",
        "type": "t_address"
      },
      {
        "astId": 10027,
        "contract": "contracts/RAMV1router.sol:RAMv1Router",
        "label": "_RAMToken",
        "offset": 0,
        "slot": "163",
        "type": "t_address"
      },
      {
        "astId": 10029,
        "contract": "contracts/RAMV1router.sol:RAMv1Router",
        "label": "_WETH",
        "offset": 0,
        "slot": "164",
        "type": "t_contract(IWETH)23254"
      },
      {
        "astId": 10031,
        "contract": "contracts/RAMV1router.sol:RAMv1Router",
        "label": "_dXIOTToken",
        "offset": 0,
        "slot": "165",
        "type": "t_contract(IERC20)1045"
      },
      {
        "astId": 10048,
        "contract": "contracts/RAMV1router.sol:RAMv1Router",
        "label": "ticketCount",
        "offset": 0,
        "slot": "166",
        "type": "t_uint256"
      },
      {
        "astId": 10050,
        "contract": "contracts/RAMV1router.sol:RAMv1Router",
        "label": "lotteryRoundCounter",
        "offset": 0,
        "slot": "167",
        "type": "t_uint256"
      },
      {
        "astId": 10054,
        "contract": "contracts/RAMV1router.sol:RAMv1Router",
        "label": "lotteryResults",
        "offset": 0,
        "slot": "168",
        "type": "t_mapping(t_uint256,t_uint256)"
      },
      {
        "astId": 10060,
        "contract": "contracts/RAMV1router.sol:RAMv1Router",
        "label": "userTickets",
        "offset": 0,
        "slot": "169",
        "type": "t_mapping(t_address,t_mapping(t_uint256,t_struct(LotteryTicket)10046_storage))"
      },
      {
        "astId": 10064,
        "contract": "contracts/RAMV1router.sol:RAMv1Router",
        "label": "userTicketCount",
        "offset": 0,
        "slot": "170",
        "type": "t_mapping(t_address,t_uint256)"
      },
      {
        "astId": 10068,
        "contract": "contracts/RAMV1router.sol:RAMv1Router",
        "label": "userTopTicketStack",
        "offset": 0,
        "slot": "171",
        "type": "t_mapping(t_address,t_uint256)"
      },
      {
        "astId": 10070,
        "contract": "contracts/RAMV1router.sol:RAMv1Router",
        "label": "_NFTFactory",
        "offset": 0,
        "slot": "172",
        "type": "t_contract(INFTFactory)15946"
      },
      {
        "astId": 10994,
        "contract": "contracts/RAMV1router.sol:RAMv1Router",
        "label": "lastLotteryTriggerer",
        "offset": 0,
        "slot": "173",
        "type": "t_address"
      }
    ],
    "types": {
      "t_address": {
        "encoding": "inplace",
        "label": "address",
        "numberOfBytes": "20"
      },
      "t_address_payable": {
        "encoding": "inplace",
        "label": "address payable",
        "numberOfBytes": "20"
      },
      "t_array(t_uint256)49_storage": {
        "base": "t_uint256",
        "encoding": "inplace",
        "label": "uint256[49]",
        "numberOfBytes": "1568"
      },
      "t_array(t_uint256)50_storage": {
        "base": "t_uint256",
        "encoding": "inplace",
        "label": "uint256[50]",
        "numberOfBytes": "1600"
      },
      "t_bool": {
        "encoding": "inplace",
        "label": "bool",
        "numberOfBytes": "1"
      },
      "t_bytes32": {
        "encoding": "inplace",
        "label": "bytes32",
        "numberOfBytes": "32"
      },
      "t_contract(IERC20)1045": {
        "encoding": "inplace",
        "label": "contract IERC20",
        "numberOfBytes": "20"
      },
      "t_contract(IFeeApprover)15758": {
        "encoding": "inplace",
        "label": "contract IFeeApprover",
        "numberOfBytes": "20"
      },
      "t_contract(INFTFactory)15946": {
        "encoding": "inplace",
        "label": "contract INFTFactory",
        "numberOfBytes": "20"
      },
      "t_contract(IRAMVault)15974": {
        "encoding": "inplace",
        "label": "contract IRAMVault",
        "numberOfBytes": "20"
      },
      "t_contract(IWETH)23254": {
        "encoding": "inplace",
        "label": "contract IWETH",
        "numberOfBytes": "20"
      },
      "t_contract(YGYStorageV1)15570": {
        "encoding": "inplace",
        "label": "contract YGYStorageV1",
        "numberOfBytes": "20"
      },
      "t_mapping(t_address,t_mapping(t_uint256,t_struct(LotteryTicket)10046_storage))": {
        "encoding": "mapping",
        "key": "t_address",
        "label": "mapping(address => mapping(uint256 => struct RAMv1Router.LotteryTicket))",
        "numberOfBytes": "32",
        "value": "t_mapping(t_uint256,t_struct(LotteryTicket)10046_storage)"
      },
      "t_mapping(t_address,t_uint256)": {
        "encoding": "mapping",
        "key": "t_address",
        "label": "mapping(address => uint256)",
        "numberOfBytes": "32",
        "value": "t_uint256"
      },
      "t_mapping(t_bytes32,t_uint256)": {
        "encoding": "mapping",
        "key": "t_bytes32",
        "label": "mapping(bytes32 => uint256)",
        "numberOfBytes": "32",
        "value": "t_uint256"
      },
      "t_mapping(t_uint256,t_struct(LotteryTicket)10046_storage)": {
        "encoding": "mapping",
        "key": "t_uint256",
        "label": "mapping(uint256 => struct RAMv1Router.LotteryTicket)",
        "numberOfBytes": "32",
        "value": "t_struct(LotteryTicket)10046_storage"
      },
      "t_mapping(t_uint256,t_uint256)": {
        "encoding": "mapping",
        "key": "t_uint256",
        "label": "mapping(uint256 => uint256)",
        "numberOfBytes": "32",
        "value": "t_uint256"
      },
      "t_struct(LotteryTicket)10046_storage": {
        "encoding": "inplace",
        "label": "struct RAMv1Router.LotteryTicket",
        "members": [
          {
            "astId": 10033,
            "contract": "contracts/RAMV1router.sol:RAMv1Router",
            "label": "owner",
            "offset": 0,
            "slot": "0",
            "type": "t_address"
          },
          {
            "astId": 10035,
            "contract": "contracts/RAMV1router.sol:RAMv1Router",
            "label": "roundNumber",
            "offset": 0,
            "slot": "1",
            "type": "t_uint256"
          },
          {
            "astId": 10037,
            "contract": "contracts/RAMV1router.sol:RAMv1Router",
            "label": "levelOneChance",
            "offset": 0,
            "slot": "2",
            "type": "t_uint256"
          },
          {
            "astId": 10039,
            "contract": "contracts/RAMV1router.sol:RAMv1Router",
            "label": "levelTwoChance",
            "offset": 0,
            "slot": "3",
            "type": "t_uint256"
          },
          {
            "astId": 10041,
            "contract": "contracts/RAMV1router.sol:RAMv1Router",
            "label": "levelThreeChance",
            "offset": 0,
            "slot": "4",
            "type": "t_uint256"
          },
          {
            "astId": 10043,
            "contract": "contracts/RAMV1router.sol:RAMv1Router",
            "label": "levelFourChance",
            "offset": 0,
            "slot": "5",
            "type": "t_uint256"
          },
          {
            "astId": 10045,
            "contract": "contracts/RAMV1router.sol:RAMv1Router",
            "label": "levelFiveChance",
            "offset": 0,
            "slot": "6",
            "type": "t_uint256"
          }
        ],
        "numberOfBytes": "224"
      },
      "t_uint256": {
        "encoding": "inplace",
        "label": "uint256",
        "numberOfBytes": "32"
      }
    }
  }
}