{
  "address": "0xBAd245Bc68E48578104c774b8A3Ea9Cf834b5484",
  "abi": [
    {
      "anonymous": false,
      "inputs": [
        {
          "indexed": true,
          "internalType": "address",
          "name": "owner",
          "type": "address"
        },
        {
          "indexed": true,
          "internalType": "address",
          "name": "spender",
          "type": "address"
        },
        {
          "indexed": false,
          "internalType": "uint256",
          "name": "_pid",
          "type": "uint256"
        },
        {
          "indexed": false,
          "internalType": "uint256",
          "name": "value",
          "type": "uint256"
        }
      ],
      "name": "Approval",
      "type": "event"
    },
    {
      "anonymous": false,
      "inputs": [
        {
          "indexed": true,
          "internalType": "address",
          "name": "user",
          "type": "address"
        },
        {
          "indexed": true,
          "internalType": "uint256",
          "name": "pid",
          "type": "uint256"
        },
        {
          "indexed": true,
          "internalType": "uint256",
          "name": "level",
          "type": "uint256"
        },
        {
          "indexed": false,
          "internalType": "bool",
          "name": "fromNFT",
          "type": "bool"
        }
      ],
      "name": "Boost",
      "type": "event"
    },
    {
      "anonymous": false,
      "inputs": [
        {
          "indexed": true,
          "internalType": "address",
          "name": "user",
          "type": "address"
        },
        {
          "indexed": true,
          "internalType": "uint256",
          "name": "pid",
          "type": "uint256"
        },
        {
          "indexed": false,
          "internalType": "uint256",
          "name": "amount",
          "type": "uint256"
        }
      ],
      "name": "Deposit",
      "type": "event"
    },
    {
      "anonymous": false,
      "inputs": [
        {
          "indexed": true,
          "internalType": "address",
          "name": "user",
          "type": "address"
        },
        {
          "indexed": true,
          "internalType": "uint256",
          "name": "pid",
          "type": "uint256"
        },
        {
          "indexed": false,
          "internalType": "uint256",
          "name": "amount",
          "type": "uint256"
        }
      ],
      "name": "EmergencyWithdraw",
      "type": "event"
    },
    {
      "anonymous": false,
      "inputs": [
        {
          "indexed": true,
          "internalType": "address",
          "name": "previousOwner",
          "type": "address"
        },
        {
          "indexed": true,
          "internalType": "address",
          "name": "newOwner",
          "type": "address"
        }
      ],
      "name": "OwnershipTransferred",
      "type": "event"
    },
    {
      "anonymous": false,
      "inputs": [
        {
          "indexed": false,
          "internalType": "uint256",
          "name": "pid",
          "type": "uint256"
        },
        {
          "indexed": false,
          "internalType": "address",
          "name": "to",
          "type": "address"
        }
      ],
      "name": "RewardPaid",
      "type": "event"
    },
    {
      "anonymous": false,
      "inputs": [
        {
          "indexed": false,
          "internalType": "address",
          "name": "previousOwner",
          "type": "address"
        },
        {
          "indexed": false,
          "internalType": "address",
          "name": "newOwner",
          "type": "address"
        }
      ],
      "name": "SuperAdminTransfered",
      "type": "event"
    },
    {
      "anonymous": false,
      "inputs": [
        {
          "indexed": true,
          "internalType": "address",
          "name": "user",
          "type": "address"
        },
        {
          "indexed": true,
          "internalType": "uint256",
          "name": "pid",
          "type": "uint256"
        },
        {
          "indexed": false,
          "internalType": "uint256",
          "name": "amount",
          "type": "uint256"
        }
      ],
      "name": "Withdraw",
      "type": "event"
    },
    {
      "inputs": [
        {
          "internalType": "address",
          "name": "_user",
          "type": "address"
        },
        {
          "internalType": "address",
          "name": "_tokenAddress",
          "type": "address"
        },
        {
          "internalType": "uint256",
          "name": "_tokenId",
          "type": "uint256"
        },
        {
          "internalType": "uint256",
          "name": "_poolId",
          "type": "uint256"
        }
      ],
      "name": "NFTUsage",
      "outputs": [],
      "stateMutability": "nonpayable",
      "type": "function"
    },
    {
      "inputs": [
        {
          "internalType": "uint256",
          "name": "_amount",
          "type": "uint256"
        }
      ],
      "name": "addPendingRewards",
      "outputs": [],
      "stateMutability": "nonpayable",
      "type": "function"
    },
    {
      "inputs": [
        {
          "internalType": "uint256",
          "name": "_allocPoint",
          "type": "uint256"
        },
        {
          "internalType": "contract IERC20",
          "name": "_token",
          "type": "address"
        },
        {
          "internalType": "bool",
          "name": "_withdrawable",
          "type": "bool"
        }
      ],
      "name": "addPool",
      "outputs": [],
      "stateMutability": "nonpayable",
      "type": "function"
    },
    {
      "inputs": [
        {
          "internalType": "uint256",
          "name": "_amount",
          "type": "uint256"
        }
      ],
      "name": "addRAMRewardsOwner",
      "outputs": [],
      "stateMutability": "nonpayable",
      "type": "function"
    },
    {
      "inputs": [
        {
          "internalType": "uint256",
          "name": "_amount",
          "type": "uint256"
        }
      ],
      "name": "addYGYRewardsOwner",
      "outputs": [],
      "stateMutability": "nonpayable",
      "type": "function"
    },
    {
      "inputs": [],
      "name": "burnSuperAdmin",
      "outputs": [],
      "stateMutability": "nonpayable",
      "type": "function"
    },
    {
      "inputs": [
        {
          "internalType": "uint256",
          "name": "_pid",
          "type": "uint256"
        },
        {
          "internalType": "address",
          "name": "_user",
          "type": "address"
        }
      ],
      "name": "checkRewards",
      "outputs": [
        {
          "internalType": "uint256",
          "name": "pendingRAM",
          "type": "uint256"
        },
        {
          "internalType": "uint256",
          "name": "pendingYGY",
          "type": "uint256"
        }
      ],
      "stateMutability": "view",
      "type": "function"
    },
    {
      "inputs": [
        {
          "internalType": "uint256",
          "name": "_pid",
          "type": "uint256"
        }
      ],
      "name": "claimRewards",
      "outputs": [],
      "stateMutability": "nonpayable",
      "type": "function"
    },
    {
      "inputs": [
        {
          "internalType": "uint256",
          "name": "_pid",
          "type": "uint256"
        },
        {
          "internalType": "uint256",
          "name": "_amount",
          "type": "uint256"
        }
      ],
      "name": "deposit",
      "outputs": [],
      "stateMutability": "nonpayable",
      "type": "function"
    },
    {
      "inputs": [
        {
          "internalType": "address",
          "name": "_depositFor",
          "type": "address"
        },
        {
          "internalType": "uint256",
          "name": "_pid",
          "type": "uint256"
        },
        {
          "internalType": "uint256",
          "name": "_amount",
          "type": "uint256"
        }
      ],
      "name": "depositFor",
      "outputs": [],
      "stateMutability": "nonpayable",
      "type": "function"
    },
    {
      "inputs": [],
      "name": "distributeFees",
      "outputs": [],
      "stateMutability": "nonpayable",
      "type": "function"
    },
    {
      "inputs": [
        {
          "internalType": "uint256",
          "name": "_pid",
          "type": "uint256"
        }
      ],
      "name": "emergencyWithdraw",
      "outputs": [],
      "stateMutability": "nonpayable",
      "type": "function"
    },
    {
      "inputs": [
        {
          "internalType": "address",
          "name": "__superAdmin",
          "type": "address"
        },
        {
          "internalType": "address",
          "name": "_regeneratoraddr",
          "type": "address"
        },
        {
          "internalType": "address",
          "name": "_devaddr",
          "type": "address"
        },
        {
          "internalType": "address",
          "name": "_teamaddr",
          "type": "address"
        }
      ],
      "name": "initialize",
      "outputs": [],
      "stateMutability": "nonpayable",
      "type": "function"
    },
    {
      "inputs": [],
      "name": "massUpdatePools",
      "outputs": [],
      "stateMutability": "nonpayable",
      "type": "function"
    },
    {
      "inputs": [
        {
          "internalType": "address",
          "name": "newOwner",
          "type": "address"
        }
      ],
      "name": "newSuperAdmin",
      "outputs": [],
      "stateMutability": "nonpayable",
      "type": "function"
    },
    {
      "inputs": [],
      "name": "owner",
      "outputs": [
        {
          "internalType": "address",
          "name": "",
          "type": "address"
        }
      ],
      "stateMutability": "view",
      "type": "function"
    },
    {
      "inputs": [
        {
          "internalType": "uint256",
          "name": "_pid",
          "type": "uint256"
        },
        {
          "internalType": "uint256",
          "name": "_level",
          "type": "uint256"
        }
      ],
      "name": "purchase",
      "outputs": [],
      "stateMutability": "nonpayable",
      "type": "function"
    },
    {
      "inputs": [],
      "name": "renounceOwnership",
      "outputs": [],
      "stateMutability": "nonpayable",
      "type": "function"
    },
    {
      "inputs": [
        {
          "internalType": "uint256",
          "name": "_pid",
          "type": "uint256"
        },
        {
          "internalType": "uint256",
          "name": "_allocPoint",
          "type": "uint256"
        },
        {
          "internalType": "bool",
          "name": "_withdrawable",
          "type": "bool"
        }
      ],
      "name": "set",
      "outputs": [],
      "stateMutability": "nonpayable",
      "type": "function"
    },
    {
      "inputs": [
        {
          "internalType": "address",
          "name": "spender",
          "type": "address"
        },
        {
          "internalType": "uint256",
          "name": "_pid",
          "type": "uint256"
        },
        {
          "internalType": "uint256",
          "name": "value",
          "type": "uint256"
        }
      ],
      "name": "setAllowanceForPoolToken",
      "outputs": [],
      "stateMutability": "nonpayable",
      "type": "function"
    },
    {
      "inputs": [
        {
          "internalType": "uint16",
          "name": "_DEV_FEE",
          "type": "uint16"
        }
      ],
      "name": "setDevFee",
      "outputs": [],
      "stateMutability": "nonpayable",
      "type": "function"
    },
    {
      "inputs": [
        {
          "internalType": "address",
          "name": "_devaddr",
          "type": "address"
        },
        {
          "internalType": "address",
          "name": "_teamaddr",
          "type": "address"
        }
      ],
      "name": "setDevFeeReciever",
      "outputs": [],
      "stateMutability": "nonpayable",
      "type": "function"
    },
    {
      "inputs": [
        {
          "internalType": "address",
          "name": "tokenAddress",
          "type": "address"
        },
        {
          "internalType": "uint256",
          "name": "_amount",
          "type": "uint256"
        },
        {
          "internalType": "address",
          "name": "contractAddress",
          "type": "address"
        }
      ],
      "name": "setStrategyContractOrDistributionContractAllowance",
      "outputs": [],
      "stateMutability": "nonpayable",
      "type": "function"
    },
    {
      "inputs": [],
      "name": "startNewEpoch",
      "outputs": [],
      "stateMutability": "nonpayable",
      "type": "function"
    },
    {
      "inputs": [],
      "name": "superAdmin",
      "outputs": [
        {
          "internalType": "address",
          "name": "",
          "type": "address"
        }
      ],
      "stateMutability": "view",
      "type": "function"
    },
    {
      "inputs": [
        {
          "internalType": "address",
          "name": "newOwner",
          "type": "address"
        }
      ],
      "name": "transferOwnership",
      "outputs": [],
      "stateMutability": "nonpayable",
      "type": "function"
    },
    {
      "inputs": [],
      "name": "transferRAMDevFee",
      "outputs": [],
      "stateMutability": "nonpayable",
      "type": "function"
    },
    {
      "inputs": [],
      "name": "transferYGYDevFee",
      "outputs": [],
      "stateMutability": "nonpayable",
      "type": "function"
    },
    {
      "inputs": [
        {
          "internalType": "uint256",
          "name": "_pid",
          "type": "uint256"
        },
        {
          "internalType": "uint256",
          "name": "_amount",
          "type": "uint256"
        }
      ],
      "name": "withdraw",
      "outputs": [],
      "stateMutability": "nonpayable",
      "type": "function"
    },
    {
      "inputs": [
        {
          "internalType": "address",
          "name": "owner",
          "type": "address"
        },
        {
          "internalType": "uint256",
          "name": "_pid",
          "type": "uint256"
        },
        {
          "internalType": "uint256",
          "name": "_amount",
          "type": "uint256"
        }
      ],
      "name": "withdrawFrom",
      "outputs": [],
      "stateMutability": "nonpayable",
      "type": "function"
    }
  ],
  "transactionHash": "0x47b6ebd5ab6e2fcc968f66f8a361316278767a6a3c3ff62fddf361cebb9a155f",
  "args": [],
  "solcInputHash": "ccaf5d1fb511a7f3aa44cce753a91265",
  "bytecode": "0x608060405234801561001057600080fd5b50615162806100206000396000f3fe608060405234801561001057600080fd5b50600436106101da5760003560e01c8063715018a611610104578063c4014588116100a2578063e2bbb15811610071578063e2bbb15814610390578063f2fde38b146103a3578063f8c8765e146103b6578063ff1888ca146103c9576101da565b8063c40145881461034f578063cc1362ec14610362578063dbe0901f1461036a578063e18cb4fe1461037d576101da565b80638da5cb5b116100de5780638da5cb5b14610324578063934eaa501461032c578063a676860a14610334578063bb57ad2014610347576101da565b8063715018a6146103015780637abceffd146103095780637cf75ca31461031c576101da565b8063423d6fa01161017c5780635db64aba1161014b5780635db64aba146102c0578063630b5ba1146102d357806364482f79146102db57806370876c98146102ee576101da565b8063423d6fa014610274578063441a3e70146102875780634cf5fbf51461029a5780635312ea8e146102ad576101da565b80633a0967cd116101b85780633a0967cd146102335780633aab0a62146102465780633b6a68491461024e5780633fe6a27814610261576101da565b80630962ef79146101df57806310178d9c146101f457806329575f6a1461021e575b600080fd5b6101f26101ed366004614a79565b6103dc565b005b610207610202366004614aa9565b610422565b604051610215929190615090565b60405180910390f35b6102266104af565b6040516102159190614c13565b6101f26102413660046148c3565b6104be565b6101f26105ef565b6101f261025c366004614a79565b61075c565b6101f261026f366004614a79565b610911565b6101f2610282366004614a79565b610a93565b6101f2610295366004614b03565b610b64565b6101f26102a83660046148c3565b610b74565b6101f26102bb366004614a79565b610da1565b6101f26102ce36600461483d565b610f31565b6101f26112ca565b6101f26102e9366004614b47565b6113fa565b6101f26102fc366004614b03565b61146b565b6101f2611834565b6101f2610317366004614acd565b6118b3565b6101f2611924565b610226611e22565b6101f2611e31565b6101f261034236600461478e565b611ea0565b6101f2611f28565b6101f261035d366004614882565b61238f565b6101f26124f1565b6101f26103783660046148c3565b6129e8565b6101f261038b366004614a57565b612aa2565b6101f261039e366004614b03565b612b1f565b6101f26103b136600461478e565b612d4b565b6101f26103c43660046147e2565b612e02565b6101f26103d73660046147aa565b612f02565b6103e68133612f65565b7fc05cbf47ef4152ea1b2446fb1ba8eb9c7285054d9c85f2f52c294200d8d1d38b8133604051610417929190614f9b565b60405180910390a150565b60008054604051630405e36760e21b815282916001600160a01b0316906310178d9c906104559087908790600401614f9b565b604080518083038186803b15801561046c57600080fd5b505afa158015610480573d6000803e3d6000fd5b505050506040513d601f19601f820116820180604052508101906104a49190614b24565b915091509250929050565b609c546001600160a01b031690565b6000805460405163158dd39360e01b81526001600160a01b039091169063158dd393906104f390869088903390600401614ffb565b60206040518083038186803b15801561050b57600080fd5b505afa15801561051f573d6000803e3d6000fd5b505050506040513d601f19601f820116820180604052508101906105439190614a91565b90508181101561056e5760405162461bcd60e51b815260040161056590614dbe565b60405180910390fd5b6000546001600160a01b03166360443a4584863361058c8688612f9f565b6040518563ffffffff1660e01b81526004016105ab9493929190614fb2565b600060405180830381600087803b1580156105c557600080fd5b505af11580156105d9573d6000803e3d6000fd5b505050506105e983838633612fea565b50505050565b6000805460408051632515621d60e11b815290516001600160a01b0390921692634a2ac43a9260048084019382900301818387803b15801561063057600080fd5b505af1158015610644573d6000803e3d6000fd5b5050600080546040805163221205f760e21b815290516001600160a01b03909216945063884817dc9350600480820193929182900301818387803b15801561068b57600080fd5b505af115801561069f573d6000803e3d6000fd5b5050600080546040516309df3e6d60e41b81526001600160a01b039091169350639df3e6d092506106d39190600401614c89565b600060405180830381600087803b1580156106ed57600080fd5b505af1158015610701573d6000803e3d6000fd5b5050600080546040805163022fed0760e11b815290516001600160a01b03909216945063045fda0e9350600480820193929182900301818387803b15801561074857600080fd5b505af11580156105e9573d6000803e3d6000fd5b6107646131ee565b6065546001600160a01b039081169116146107915760405162461bcd60e51b815260040161056590614e25565b60008054906101000a90046001600160a01b03166001600160a01b0316638f33b5e56040518163ffffffff1660e01b815260040160206040518083038186803b1580156107dd57600080fd5b505afa1580156107f1573d6000803e3d6000fd5b505050506040513d601f19601f820116820180604052508101906108159190614913565b6001600160a01b03166323b872dd3330846040518463ffffffff1660e01b815260040161084493929190614c27565b602060405180830381600087803b15801561085e57600080fd5b505af1158015610872573d6000803e3d6000fd5b505050506040513d601f19601f8201168201806040525081019061089691906148f7565b80156108a25750600081115b6108ab57600080fd5b600080546040516301e0a3fb60e61b81526001600160a01b0390911691637828fec0916108dc918591600401614c92565b600060405180830381600087803b1580156108f657600080fd5b505af115801561090a573d6000803e3d6000fd5b5050505050565b6109196131ee565b6065546001600160a01b039081169116146109465760405162461bcd60e51b815260040161056590614e25565b60008054906101000a90046001600160a01b03166001600160a01b031663fb70c3bf6040518163ffffffff1660e01b815260040160206040518083038186803b15801561099257600080fd5b505afa1580156109a6573d6000803e3d6000fd5b505050506040513d601f19601f820116820180604052508101906109ca9190614913565b6001600160a01b03166323b872dd3330846040518463ffffffff1660e01b81526004016109f993929190614c27565b602060405180830381600087803b158015610a1357600080fd5b505af1158015610a27573d6000803e3d6000fd5b505050506040513d601f19601f82011682018060405250810190610a4b91906148f7565b8015610a575750600081115b610a6057600080fd5b6000546040516301e0a3fb60e61b81526001600160a01b0390911690637828fec0906108dc908490600190600401614c92565b60008054906101000a90046001600160a01b03166001600160a01b0316638f33b5e56040518163ffffffff1660e01b815260040160206040518083038186803b158015610adf57600080fd5b505afa158015610af3573d6000803e3d6000fd5b505050506040513d601f19601f82011682018060405250810190610b179190614913565b6001600160a01b0316336001600160a01b031614610b3457600080fd5b600054604051630211eb7d60e51b81526001600160a01b039091169063423d6fa0906108dc908490600401614c89565b610b7082823333612fea565b5050565b610b7c6146f3565b600054610b939084906001600160a01b03166131f2565b9050610b9d614734565b600054610bb690859087906001600160a01b03166132c4565b9050610bc28486612f65565b8215610c845781516040516323b872dd60e01b81526001600160a01b03909116906323b872dd90610bfb90339030908890600401614c27565b602060405180830381600087803b158015610c1557600080fd5b505af1158015610c29573d6000803e3d6000fd5b505050506040513d601f19601f82011682018060405250810190610c4d91906148f7565b508051610c5a908461338c565b8152606081015115610c845760008054610c849183918591899181906001600160a01b03166133b1565b610c8e818361344e565b6000546040516303c4399d60e11b81526001600160a01b0390911690630788733a90610cc290879089908690600401614fd7565b600060405180830381600087803b158015610cdc57600080fd5b505af1158015610cf0573d6000803e3d6000fd5b505060005460405163d4665bb760e01b81526001600160a01b03909116925063d4665bb79150610d26908790869060040161503b565b600060405180830381600087803b158015610d4057600080fd5b505af1158015610d54573d6000803e3d6000fd5b5050505083856001600160a01b03167f90890809c654f11d6e72a28fa60149770a0d11ec6c92319d6ceb2bb0a4ea1a1585604051610d929190614c89565b60405180910390a35050505050565b610da96146f3565b600054610dc09083906001600160a01b03166131f2565b90508060800151610dd057600080fd5b610dd8614734565b600054610df190849033906001600160a01b03166132c4565b80518351919250610e0d916001600160a01b031690339061349c565b8051604051849133917fbb757047c2b5f3974fe26b7c10f732e7bce710b0952a71082702781e62ae059591610e4191614c89565b60405180910390a3600080825260608201819052602082018190526040808301829052905490516303c4399d60e11b81526001600160a01b0390911690630788733a90610e9690869033908690600401614fd7565b600060405180830381600087803b158015610eb057600080fd5b505af1158015610ec4573d6000803e3d6000fd5b505060005460405163d4665bb760e01b81526001600160a01b03909116925063d4665bb79150610efa908690869060040161503b565b600060405180830381600087803b158015610f1457600080fd5b505af1158015610f28573d6000803e3d6000fd5b50505050505050565b82610f3a61476a565b604051631c72e6e760e11b81526001600160a01b038316906338e5cdce90610f66908790600401614c89565b60006040518083038186803b158015610f7e57600080fd5b505afa158015610f92573d6000803e3d6000fd5b505050506040513d6000823e601f3d908101601f19168201604052610fba919081019061498e565b9050610fc4614734565b600054610fdd90859089906001600160a01b03166132c4565b9050610fe76146f3565b600054610ffe9086906001600160a01b03166131f2565b90507fb11f0630abdc3c49238c394684d47c0a22fb6922fdf83b64cfdd3d9769f1a26383600001516040516020016110369190614bf7565b6040516020818303038152906040528051906020012014156111535760008054906101000a90046001600160a01b03166001600160a01b0316638792a265856001600160a01b0316638291286c6040518163ffffffff1660e01b815260040160206040518083038186803b1580156110ad57600080fd5b505afa1580156110c1573d6000803e3d6000fd5b505050506040513d601f19601f820116820180604052508101906110e59190614a91565b8a6040518363ffffffff1660e01b8152600401611103929190614f9b565b600060405180830381600087803b15801561111d57600080fd5b505af1158015611131573d6000803e3d6000fd5b505060008054611153935085925084918c9181906001600160a01b03166133b1565b604051630852cd8d60e31b81526001600160a01b038516906342966c689061117f908990600401614c89565b600060405180830381600087803b15801561119957600080fd5b505af11580156111ad573d6000803e3d6000fd5b50506000546040516303c4399d60e11b81526001600160a01b039091169250630788733a91506111e59088908c908790600401614fd7565b600060405180830381600087803b1580156111ff57600080fd5b505af1158015611213573d6000803e3d6000fd5b505060005460405163d4665bb760e01b81526001600160a01b03909116925063d4665bb79150611249908890859060040161503b565b600060405180830381600087803b15801561126357600080fd5b505af1158015611277573d6000803e3d6000fd5b50505050600085896001600160a01b03167f2afbc6f74788c58c5d56fca9812c385d27a7bf8004bd05cd1b9f057ad145f69d60016040516112b89190614c7e565b60405180910390a45050505050505050565b60008060005b60008054906101000a90046001600160a01b03166001600160a01b031663b3944d526040518163ffffffff1660e01b815260040160206040518083038186803b15801561131c57600080fd5b505afa158015611330573d6000803e3d6000fd5b505050506040513d601f19601f820116820180604052508101906113549190614a91565b81101561139157600080611367836134f2565b9092509050611376858361338c565b9450611382848261338c565b935050508060010190506112d0565b50600054604051635105a97560e01b81526001600160a01b0390911690635105a975906113c49085908590600401615090565b600060405180830381600087803b1580156113de57600080fd5b505af11580156113f2573d6000803e3d6000fd5b505050505050565b6114026131ee565b6065546001600160a01b0390811691161461142f5760405162461bcd60e51b815260040161056590614e25565b6114376112ca565b60005460405163236535f560e11b81526001600160a01b03909116906346ca6bea90610efa9086908690869060040161509e565b6114736146f3565b60005461148a9084906001600160a01b03166131f2565b9050611494614734565b6000546114ad90859033906001600160a01b03166132c4565b90508060800151831180156114c3575060048311155b6114cc57600080fd5b60008054604051636a9d1f6f60e01b81526001600160a01b0390911690636a9d1f6f906114fd908790600401614c89565b60206040518083038186803b15801561151557600080fd5b505afa158015611529573d6000803e3d6000fd5b505050506040513d601f19601f8201168201806040525081019061154d9190614a91565b905060006115688360a0015183612f9f90919063ffffffff16565b905060008054906101000a90046001600160a01b03166001600160a01b0316638f33b5e56040518163ffffffff1660e01b815260040160206040518083038186803b1580156115b657600080fd5b505afa1580156115ca573d6000803e3d6000fd5b505050506040513d601f19601f820116820180604052508101906115ee9190614913565b6001600160a01b03166323b872dd3330846040518463ffffffff1660e01b815260040161161d93929190614c27565b602060405180830381600087803b15801561163757600080fd5b505af115801561164b573d6000803e3d6000fd5b505050506040513d601f19601f8201168201806040525081019061166f91906148f7565b61167857600080fd5b60a0830151611687908261338c565b60a0840152608083018590528251156116b957600080546116b9918591879133918a91906001600160a01b03166133b1565b6000546040516303c4399d60e11b81526001600160a01b0390911690630788733a906116ed90899033908890600401614fd7565b600060405180830381600087803b15801561170757600080fd5b505af115801561171b573d6000803e3d6000fd5b505060005460405163d4665bb760e01b81526001600160a01b03909116925063d4665bb79150611751908990889060040161503b565b600060405180830381600087803b15801561176b57600080fd5b505af115801561177f573d6000803e3d6000fd5b5050600054604051631be9449960e11b81526001600160a01b0390911692506337d2893291506117b6908490600190600401614c92565b600060405180830381600087803b1580156117d057600080fd5b505af11580156117e4573d6000803e3d6000fd5b505050508486336001600160a01b03167f2afbc6f74788c58c5d56fca9812c385d27a7bf8004bd05cd1b9f057ad145f69d60006040516118249190614c7e565b60405180910390a4505050505050565b61183c6131ee565b6065546001600160a01b039081169116146118695760405162461bcd60e51b815260040161056590614e25565b6065546040516000916001600160a01b0316907f8be0079c531659141344cd1fd0a4f28419497f9722a3daafe3b4186f6b6457e0908390a3606580546001600160a01b0319169055565b6118bb6131ee565b6065546001600160a01b039081169116146118e85760405162461bcd60e51b815260040161056590614e25565b6118f06112ca565b600054604051637abceffd60e01b81526001600160a01b0390911690637abceffd90610efa9086908690869060040161501a565b609a5415611e205760008060008060009054906101000a90046001600160a01b03166001600160a01b0316638f33b5e56040518163ffffffff1660e01b815260040160206040518083038186803b15801561197e57600080fd5b505afa158015611992573d6000803e3d6000fd5b505050506040513d601f19601f820116820180604052508101906119b69190614913565b6001600160a01b03166370a08231306040518263ffffffff1660e01b81526004016119e19190614c13565b60206040518083038186803b1580156119f957600080fd5b505afa158015611a0d573d6000803e3d6000fd5b505050506040513d601f19601f82011682018060405250810190611a319190614a91565b905080609a541115611a6c57611a536064611a4d836046613921565b9061395b565b9250611a656064611a4d83601e613921565b9150611aa7565b611a876064611a4d6046609a5461392190919063ffffffff16565b9250611aa46064611a4d601e609a5461392190919063ffffffff16565b91505b8215611bb85760008054906101000a90046001600160a01b03166001600160a01b0316638f33b5e56040518163ffffffff1660e01b815260040160206040518083038186803b158015611af957600080fd5b505afa158015611b0d573d6000803e3d6000fd5b505050506040513d601f19601f82011682018060405250810190611b319190614913565b60975460405163a9059cbb60e01b81526001600160a01b039283169263a9059cbb92611b64929116908790600401614c65565b602060405180830381600087803b158015611b7e57600080fd5b505af1158015611b92573d6000803e3d6000fd5b505050506040513d601f19601f82011682018060405250810190611bb691906148f7565b505b8115611cc95760008054906101000a90046001600160a01b03166001600160a01b0316638f33b5e56040518163ffffffff1660e01b815260040160206040518083038186803b158015611c0a57600080fd5b505afa158015611c1e573d6000803e3d6000fd5b505050506040513d601f19601f82011682018060405250810190611c429190614913565b60985460405163a9059cbb60e01b81526001600160a01b039283169263a9059cbb92611c75929116908690600401614c65565b602060405180830381600087803b158015611c8f57600080fd5b505af1158015611ca3573d6000803e3d6000fd5b505050506040513d601f19601f82011682018060405250810190611cc791906148f7565b505b60005460408051638f33b5e560e01b815290516001600160a01b0390921691638f838a9f918391638f33b5e591600480820192602092909190829003018186803b158015611d1657600080fd5b505afa158015611d2a573d6000803e3d6000fd5b505050506040513d601f19601f82011682018060405250810190611d4e9190614913565b6001600160a01b03166370a08231306040518263ffffffff1660e01b8152600401611d799190614c13565b60206040518083038186803b158015611d9157600080fd5b505afa158015611da5573d6000803e3d6000fd5b505050506040513d601f19601f82011682018060405250810190611dc99190614a91565b6040518263ffffffff1660e01b8152600401611de59190614c89565b600060405180830381600087803b158015611dff57600080fd5b505af1158015611e13573d6000803e3d6000fd5b50506000609a5550505050505b565b6065546001600160a01b031690565b611e396131ee565b609c546001600160a01b03908116911614611e5357600080fd5b609c80546001600160a01b03191690556040517ff564c40f4f45e62a2c1e6c22e8bfb46501f0f71fa1c72e5358903fa1115a4b6490611e96906000908190614c4b565b60405180910390a1565b611ea86131ee565b609c546001600160a01b03908116911614611ec257600080fd5b6001600160a01b038116611ed557600080fd5b609c80546001600160a01b0319166001600160a01b0383811691909117918290556040517ff564c40f4f45e62a2c1e6c22e8bfb46501f0f71fa1c72e5358903fa1115a4b64926104179216908490614c4b565b60008054604051631be9449960e11b81526001600160a01b03909116916337d2893291611f5a91908190600401614c92565b600060405180830381600087803b158015611f7457600080fd5b505af1158015611f88573d6000803e3d6000fd5b505050506000612017600260008054906101000a90046001600160a01b03166001600160a01b03166309e3de416040518163ffffffff1660e01b815260040160206040518083038186803b158015611fdf57600080fd5b505afa158015611ff3573d6000803e3d6000fd5b505050506040513d601f19601f82011682018060405250810190611a4d9190614a91565b9050801561238c5760008054906101000a90046001600160a01b03166001600160a01b0316638f33b5e56040518163ffffffff1660e01b815260040160206040518083038186803b15801561206b57600080fd5b505afa15801561207f573d6000803e3d6000fd5b505050506040513d601f19601f820116820180604052508101906120a39190614913565b60995460405163a9059cbb60e01b81526001600160a01b039283169263a9059cbb926120d6929116908590600401614c65565b602060405180830381600087803b1580156120f057600080fd5b505af1158015612104573d6000803e3d6000fd5b505050506040513d601f19601f8201168201806040525081019061212891906148f7565b61213157600080fd5b60006121436064611a4d846046613921565b9050801561225d5760008054906101000a90046001600160a01b03166001600160a01b0316638f33b5e56040518163ffffffff1660e01b815260040160206040518083038186803b15801561219757600080fd5b505afa1580156121ab573d6000803e3d6000fd5b505050506040513d601f19601f820116820180604052508101906121cf9190614913565b60975460405163a9059cbb60e01b81526001600160a01b039283169263a9059cbb92612202929116908590600401614c65565b602060405180830381600087803b15801561221c57600080fd5b505af1158015612230573d6000803e3d6000fd5b505050506040513d601f19601f8201168201806040525081019061225491906148f7565b61225d57600080fd5b600061226f6064611a4d85601e613921565b905080156123895760008054906101000a90046001600160a01b03166001600160a01b0316638f33b5e56040518163ffffffff1660e01b815260040160206040518083038186803b1580156122c357600080fd5b505afa1580156122d7573d6000803e3d6000fd5b505050506040513d601f19601f820116820180604052508101906122fb9190614913565b60985460405163a9059cbb60e01b81526001600160a01b039283169263a9059cbb9261232e929116908590600401614c65565b602060405180830381600087803b15801561234857600080fd5b505af115801561235c573d6000803e3d6000fd5b505050506040513d601f19601f8201168201806040525081019061238091906148f7565b61238957600080fd5b50505b50565b6123988161399d565b80156123b957506123a76131ee565b609c546001600160a01b039081169116145b6123c257600080fd5b6124536201731860008054906101000a90046001600160a01b03166001600160a01b03166331db122c6040518163ffffffff1660e01b815260040160206040518083038186803b15801561241557600080fd5b505afa158015612429573d6000803e3d6000fd5b505050506040513d601f19601f8201168201806040525081019061244d9190614a91565b9061338c565b43116124715760405162461bcd60e51b815260040161056590614ea8565b60405163095ea7b360e01b81526001600160a01b0384169063095ea7b39061249f9084908690600401614c65565b602060405180830381600087803b1580156124b957600080fd5b505af11580156124cd573d6000803e3d6000fd5b505050506040513d601f19601f820116820180604052508101906105e991906148f7565b609b5415611e205760008060008060009054906101000a90046001600160a01b03166001600160a01b031663fb70c3bf6040518163ffffffff1660e01b815260040160206040518083038186803b15801561254b57600080fd5b505afa15801561255f573d6000803e3d6000fd5b505050506040513d601f19601f820116820180604052508101906125839190614913565b6001600160a01b03166370a08231306040518263ffffffff1660e01b81526004016125ae9190614c13565b60206040518083038186803b1580156125c657600080fd5b505afa1580156125da573d6000803e3d6000fd5b505050506040513d601f19601f820116820180604052508101906125fe9190614a91565b905080609b5411156126335761261a6064611a4d836046613921565b925061262c6064611a4d83601e613921565b915061266e565b61264e6064611a4d6046609b5461392190919063ffffffff16565b925061266b6064611a4d601e609b5461392190919063ffffffff16565b91505b821561277f5760008054906101000a90046001600160a01b03166001600160a01b031663fb70c3bf6040518163ffffffff1660e01b815260040160206040518083038186803b1580156126c057600080fd5b505afa1580156126d4573d6000803e3d6000fd5b505050506040513d601f19601f820116820180604052508101906126f89190614913565b60975460405163a9059cbb60e01b81526001600160a01b039283169263a9059cbb9261272b929116908790600401614c65565b602060405180830381600087803b15801561274557600080fd5b505af1158015612759573d6000803e3d6000fd5b505050506040513d601f19601f8201168201806040525081019061277d91906148f7565b505b81156128905760008054906101000a90046001600160a01b03166001600160a01b031663fb70c3bf6040518163ffffffff1660e01b815260040160206040518083038186803b1580156127d157600080fd5b505afa1580156127e5573d6000803e3d6000fd5b505050506040513d601f19601f820116820180604052508101906128099190614913565b60985460405163a9059cbb60e01b81526001600160a01b039283169263a9059cbb9261283c929116908690600401614c65565b602060405180830381600087803b15801561285657600080fd5b505af115801561286a573d6000803e3d6000fd5b505050506040513d601f19601f8201168201806040525081019061288e91906148f7565b505b6000546040805163fb70c3bf60e01b815290516001600160a01b039092169163094601f191839163fb70c3bf91600480820192602092909190829003018186803b1580156128dd57600080fd5b505afa1580156128f1573d6000803e3d6000fd5b505050506040513d601f19601f820116820180604052508101906129159190614913565b6001600160a01b03166370a08231306040518263ffffffff1660e01b81526004016129409190614c13565b60206040518083038186803b15801561295857600080fd5b505afa15801561296c573d6000803e3d6000fd5b505050506040513d601f19601f820116820180604052508101906129909190614a91565b6040518263ffffffff1660e01b81526004016129ac9190614c89565b600060405180830381600087803b1580156129c657600080fd5b505af11580156129da573d6000803e3d6000fd5b50506000609b555050505050565b6000546040516360443a4560e01b81526001600160a01b03909116906360443a4590612a1e908590339088908790600401614fb2565b600060405180830381600087803b158015612a3857600080fd5b505af1158015612a4c573d6000803e3d6000fd5b50505050826001600160a01b0316336001600160a01b03167fb3fd5071835887567a0671151121894ddccc2842f1d10bedad13e0d17cace9a78484604051612a95929190615090565b60405180910390a3505050565b612aaa6131ee565b6065546001600160a01b03908116911614612ad75760405162461bcd60e51b815260040161056590614e25565b6103e88161ffff161115612afd5760405162461bcd60e51b815260040161056590614ecf565b6099805461ffff909216600160a01b0261ffff60a01b19909216919091179055565b612b276146f3565b600054612b3e9084906001600160a01b03166131f2565b9050612b48614734565b600054612b6190859033906001600160a01b03166132c4565b9050612b6d8433612f65565b8215612c2f5781516040516323b872dd60e01b81526001600160a01b03909116906323b872dd90612ba690339030908890600401614c27565b602060405180830381600087803b158015612bc057600080fd5b505af1158015612bd4573d6000803e3d6000fd5b505050506040513d601f19601f82011682018060405250810190612bf891906148f7565b508051612c05908461338c565b8152608081015115612c2f5760008054612c2f9183918591339181906001600160a01b03166133b1565b612c39818361344e565b6000546040516303c4399d60e11b81526001600160a01b0390911690630788733a90612c6d90879033908690600401614fd7565b600060405180830381600087803b158015612c8757600080fd5b505af1158015612c9b573d6000803e3d6000fd5b505060005460405163d4665bb760e01b81526001600160a01b03909116925063d4665bb79150612cd1908790869060040161503b565b600060405180830381600087803b158015612ceb57600080fd5b505af1158015612cff573d6000803e3d6000fd5b5050505083336001600160a01b03167f90890809c654f11d6e72a28fa60149770a0d11ec6c92319d6ceb2bb0a4ea1a1585604051612d3d9190614c89565b60405180910390a350505050565b612d536131ee565b6065546001600160a01b03908116911614612d805760405162461bcd60e51b815260040161056590614e25565b6001600160a01b038116612da65760405162461bcd60e51b815260040161056590614cd5565b6065546040516001600160a01b038084169216907f8be0079c531659141344cd1fd0a4f28419497f9722a3daafe3b4186f6b6457e090600090a3606580546001600160a01b0319166001600160a01b0392909216919091179055565b600054600160a81b900460ff1680612e1d5750612e1d6139a3565b80612e325750600054600160a01b900460ff16155b612e4e5760405162461bcd60e51b815260040161056590614e5a565b600054600160a81b900460ff16158015612e85576000805460ff60a01b1960ff60a81b19909116600160a81b1716600160a01b1790555b612e8d6139a9565b60998054609c80546001600160a01b03199081166001600160a01b038a81169190911790925561ffff60a01b1990921660b560a21b1782168782161790925560978054821686841617905560988054909116918416919091179055801561090a576000805460ff60a81b191690555050505050565b612f0a6131ee565b6065546001600160a01b03908116911614612f375760405162461bcd60e51b815260040161056590614e25565b609780546001600160a01b039384166001600160a01b03199182161790915560988054929093169116179055565b612f6d6112ca565b600080612f7a8484610422565b90925090508115612f8f57612f8f8383613a52565b80156105e9576105e98382613e90565b6000612fe183836040518060400160405280601e81526020017f536166654d6174683a207375627472616374696f6e206f766572666c6f770000815250614300565b90505b92915050565b612ff26146f3565b6000546130099086906001600160a01b03166131f2565b9050806080015161302c5760405162461bcd60e51b815260040161056590614f3a565b613034614734565b60005461304d90879086906001600160a01b03166132c4565b905084816000015110156130735760405162461bcd60e51b815260040161056590614d87565b61307d8685612f65565b84156130d057805161308f9086612f9f565b815281516130a7906001600160a01b0316848761349c565b6060810151156130d057600080546130d0918391859188916001906001600160a01b03166133b1565b6130da818361344e565b6000546040516303c4399d60e11b81526001600160a01b0390911690630788733a9061310e90899033908690600401614fd7565b600060405180830381600087803b15801561312857600080fd5b505af115801561313c573d6000803e3d6000fd5b505060005460405163d4665bb760e01b81526001600160a01b03909116925063d4665bb79150613172908990869060040161503b565b600060405180830381600087803b15801561318c57600080fd5b505af11580156131a0573d6000803e3d6000fd5b5050505085836001600160a01b03167ff279e6a1f5e320cca91135676d9cb6e44ca8a08c0b88342bcdb1144f6511b568876040516131de9190614c89565b60405180910390a3505050505050565b3390565b6131fa6146f3565b600080600080600080876001600160a01b0316631526fe278a6040518263ffffffff1660e01b815260040161322f9190614c89565b60c06040518083038186803b15801561324757600080fd5b505afa15801561325b573d6000803e3d6000fd5b505050506040513d601f19601f8201168201806040525081019061327f919061492f565b6040805160c0810182526001600160a01b03909716875260208701959095529385019290925260608401521515608083015260a0820152965050505050505092915050565b6132cc614734565b600080600080600080876001600160a01b03166393f1a40b8b8b6040518363ffffffff1660e01b8152600401613303929190614f9b565b60c06040518083038186803b15801561331b57600080fd5b505afa15801561332f573d6000803e3d6000fd5b505050506040513d601f19601f820116820180604052508101906133539190614b74565b6040805160c0810182529687526020870195909552938501929092526060840152608083015260a08201529a9950505050505050505050565b600082820183811015612fe15760405162461bcd60e51b815260040161056590614d1b565b606086015160006133d488866133cb5789608001516133cd565b865b888661432c565b905060006133f46064611a4d848c6000015161392190919063ffffffff16565b60608a01819052905084156134255761341b6134108483612f9f565b60a08a015190612f9f565b60a0890152613443565b61343d6134328285612f9f565b60a08a01519061338c565b60a08901525b505050505050505050565b61346e64e8d4a51000611a4d836040015161346886614401565b90613921565b602083015260608101516134909064e8d4a5100090611a4d9061346886614401565b60409092019190915250565b6123898363a9059cbb60e01b84846040516024016134bb929190614c65565b60408051601f198184030181529190526020810180516001600160e01b03166001600160e01b031990931692909217909152614415565b6000806134fd6146f3565b6000546135149085906001600160a01b03166131f2565b9050600081600001516001600160a01b03166370a08231306040518263ffffffff1660e01b81526004016135489190614c13565b60206040518083038186803b15801561356057600080fd5b505afa158015613574573d6000803e3d6000fd5b505050506040513d601f19601f820116820180604052508101906135989190614a91565b9050806135ad5760008093509350505061391c565b60006135c68360a001518361338c90919063ffffffff16565b90506136d160008054906101000a90046001600160a01b03166001600160a01b03166317caf6f16040518163ffffffff1660e01b815260040160206040518083038186803b15801561361757600080fd5b505afa15801561362b573d6000803e3d6000fd5b505050506040513d601f19601f8201168201806040525081019061364f9190614a91565b602080860151600054604080516376f69fed60e11b81529051611a4d946001600160a01b039093169263eded3fda9260048082019391829003018186803b15801561369957600080fd5b505afa1580156136ad573d6000803e3d6000fd5b505050506040513d601f19601f820116820180604052508101906134689190614a91565b6099549095506000906136f89061271090611a4d908990600160a01b900461ffff16613921565b609a54909150613708908261338c565b609a556000805460408051638b6ff57b60e01b815290516001600160a01b0390921691638b6ff57b91600480820192602092909190829003018186803b15801561375157600080fd5b505afa158015613765573d6000803e3d6000fd5b505050506040513d601f19601f820116820180604052508101906137899190614a91565b9050801561388557600054604080516317caf6f160e01b8152905161381f926001600160a01b0316916317caf6f1916004808301926020929190829003018186803b1580156137d757600080fd5b505afa1580156137eb573d6000803e3d6000fd5b505050506040513d601f19601f8201168201806040525081019061380f9190614a91565b6020870151611a4d908490613921565b6099549096506000906138469061271090611a4d908a90600160a01b900461ffff16613921565b609b54909150613856908261338c565b609b5561387e61387385611a4d64e8d4a510006134688c87612f9f565b60608801519061338c565b6060870152505b6138aa61389f84611a4d64e8d4a510006134688c88612f9f565b60408701519061338c565b604080870191909152600054905163d4665bb760e01b81526001600160a01b039091169063d4665bb7906138e4908b90899060040161503b565b600060405180830381600087803b1580156138fe57600080fd5b505af1158015613912573d6000803e3d6000fd5b5050505050505050505b915091565b60008261393057506000612fe4565b8282028284828161393d57fe5b0414612fe15760405162461bcd60e51b815260040161056590614de4565b6000612fe183836040518060400160405280601a81526020017f536166654d6174683a206469766973696f6e206279207a65726f0000000000008152506144fa565b3b151590565b303b1590565b600054600160a81b900460ff16806139c457506139c46139a3565b806139d95750600054600160a01b900460ff16155b6139f55760405162461bcd60e51b815260040161056590614e5a565b600054600160a81b900460ff16158015613a2c576000805460ff60a01b1960ff60a81b19909116600160a81b1716600160a01b1790555b613a34614531565b613a3c6145c9565b801561238c576000805460ff60a81b1916905550565b60008060009054906101000a90046001600160a01b03166001600160a01b0316638f33b5e56040518163ffffffff1660e01b815260040160206040518083038186803b158015613aa157600080fd5b505afa158015613ab5573d6000803e3d6000fd5b505050506040513d601f19601f82011682018060405250810190613ad99190614913565b6001600160a01b03166370a08231306040518263ffffffff1660e01b8152600401613b049190614c13565b60206040518083038186803b158015613b1c57600080fd5b505afa158015613b30573d6000803e3d6000fd5b505050506040513d601f19601f82011682018060405250810190613b549190614a91565b905080821115613c675760008054906101000a90046001600160a01b03166001600160a01b0316638f33b5e56040518163ffffffff1660e01b815260040160206040518083038186803b158015613baa57600080fd5b505afa158015613bbe573d6000803e3d6000fd5b505050506040513d601f19601f82011682018060405250810190613be29190614913565b6001600160a01b031663a9059cbb84836040518363ffffffff1660e01b8152600401613c0f929190614c65565b602060405180830381600087803b158015613c2957600080fd5b505af1158015613c3d573d6000803e3d6000fd5b505050506040513d601f19601f82011682018060405250810190613c6191906148f7565b50613d6c565b60008054906101000a90046001600160a01b03166001600160a01b0316638f33b5e56040518163ffffffff1660e01b815260040160206040518083038186803b158015613cb357600080fd5b505afa158015613cc7573d6000803e3d6000fd5b505050506040513d601f19601f82011682018060405250810190613ceb9190614913565b6001600160a01b031663a9059cbb84846040518363ffffffff1660e01b8152600401613d18929190614c65565b602060405180830381600087803b158015613d3257600080fd5b505af1158015613d46573d6000803e3d6000fd5b505050506040513d601f19601f82011682018060405250810190613d6a91906148f7565b505b613d74611924565b60005460408051638f33b5e560e01b815290516001600160a01b0390921691638f838a9f918391638f33b5e591600480820192602092909190829003018186803b158015613dc157600080fd5b505afa158015613dd5573d6000803e3d6000fd5b505050506040513d601f19601f82011682018060405250810190613df99190614913565b6001600160a01b03166370a08231306040518263ffffffff1660e01b8152600401613e249190614c13565b60206040518083038186803b158015613e3c57600080fd5b505afa158015613e50573d6000803e3d6000fd5b505050506040513d601f19601f82011682018060405250810190613e749190614a91565b6040518263ffffffff1660e01b8152600401610efa9190614c89565b60008060009054906101000a90046001600160a01b03166001600160a01b031663fb70c3bf6040518163ffffffff1660e01b815260040160206040518083038186803b158015613edf57600080fd5b505afa158015613ef3573d6000803e3d6000fd5b505050506040513d601f19601f82011682018060405250810190613f179190614913565b6001600160a01b03166370a08231306040518263ffffffff1660e01b8152600401613f429190614c13565b60206040518083038186803b158015613f5a57600080fd5b505afa158015613f6e573d6000803e3d6000fd5b505050506040513d601f19601f82011682018060405250810190613f929190614a91565b9050808211156140a55760008054906101000a90046001600160a01b03166001600160a01b031663fb70c3bf6040518163ffffffff1660e01b815260040160206040518083038186803b158015613fe857600080fd5b505afa158015613ffc573d6000803e3d6000fd5b505050506040513d601f19601f820116820180604052508101906140209190614913565b6001600160a01b031663a9059cbb84836040518363ffffffff1660e01b815260040161404d929190614c65565b602060405180830381600087803b15801561406757600080fd5b505af115801561407b573d6000803e3d6000fd5b505050506040513d601f19601f8201168201806040525081019061409f91906148f7565b506141aa565b60008054906101000a90046001600160a01b03166001600160a01b031663fb70c3bf6040518163ffffffff1660e01b815260040160206040518083038186803b1580156140f157600080fd5b505afa158015614105573d6000803e3d6000fd5b505050506040513d601f19601f820116820180604052508101906141299190614913565b6001600160a01b031663a9059cbb84846040518363ffffffff1660e01b8152600401614156929190614c65565b602060405180830381600087803b15801561417057600080fd5b505af1158015614184573d6000803e3d6000fd5b505050506040513d601f19601f820116820180604052508101906141a891906148f7565b505b6000546040805163fb70c3bf60e01b815290516001600160a01b039092169163094601f191839163fb70c3bf91600480820192602092909190829003018186803b1580156141f757600080fd5b505afa15801561420b573d6000803e3d6000fd5b505050506040513d601f19601f8201168201806040525081019061422f9190614913565b6001600160a01b03166370a08231306040518263ffffffff1660e01b815260040161425a9190614c13565b60206040518083038186803b15801561427257600080fd5b505afa158015614286573d6000803e3d6000fd5b505050506040513d601f19601f820116820180604052508101906142aa9190614a91565b6040518263ffffffff1660e01b81526004016142c69190614c89565b600060405180830381600087803b1580156142e057600080fd5b505af11580156142f4573d6000803e3d6000fd5b505050506123896124f1565b600081848411156143245760405162461bcd60e51b81526004016105659190614ca2565b505050900390565b600080826001600160a01b03166391328af2856040518263ffffffff1660e01b815260040161435b9190614c13565b60206040518083038186803b15801561437357600080fd5b505afa158015614387573d6000803e3d6000fd5b505050506040513d601f19601f820116820180604052508101906143ab9190614a91565b90506143f581846001600160a01b0316636798f19f886040518263ffffffff1660e01b81526004016143dd9190614c89565b60206040518083038186803b15801561241557600080fd5b9150505b949350505050565b60608101518151600091612fe4919061338c565b614427826001600160a01b03166146ba565b6144435760405162461bcd60e51b815260040161056590614f64565b60006060836001600160a01b03168360405161445f9190614bf7565b6000604051808303816000865af19150503d806000811461449c576040519150601f19603f3d011682016040523d82523d6000602084013e6144a1565b606091505b5091509150816144c35760405162461bcd60e51b815260040161056590614d52565b8051156105e957808060200190518101906144de91906148f7565b6105e95760405162461bcd60e51b815260040161056590614ef0565b6000818361451b5760405162461bcd60e51b81526004016105659190614ca2565b50600083858161452757fe5b0495945050505050565b600054600160a81b900460ff168061454c575061454c6139a3565b806145615750600054600160a01b900460ff16155b61457d5760405162461bcd60e51b815260040161056590614e5a565b600054600160a81b900460ff16158015613a3c576000805460ff60a01b1960ff60a81b19909116600160a81b1716600160a01b179055801561238c576000805460ff60a81b1916905550565b600054600160a81b900460ff16806145e457506145e46139a3565b806145f95750600054600160a01b900460ff16155b6146155760405162461bcd60e51b815260040161056590614e5a565b600054600160a81b900460ff1615801561464c576000805460ff60a01b1960ff60a81b19909116600160a81b1716600160a01b1790555b60006146566131ee565b606580546001600160a01b0319166001600160a01b038316908117909155604051919250906000907f8be0079c531659141344cd1fd0a4f28419497f9722a3daafe3b4186f6b6457e0908290a350801561238c576000805460ff60a81b1916905550565b6000813f7fc5d2460186f7233c927e7db2dcc703c0e500b653ca82273b7bfad8045d85a4708181148015906143f9575050151592915050565b6040518060c0016040528060006001600160a01b03168152602001600081526020016000815260200160008152602001600015158152602001600081525090565b6040518060c001604052806000815260200160008152602001600081526020016000815260200160008152602001600081525090565b60405180606001604052806060815260200160008152602001600080191681525090565b60006020828403121561479f578081fd5b8135612fe181615109565b600080604083850312156147bc578081fd5b82356147c781615109565b915060208301356147d781615109565b809150509250929050565b600080600080608085870312156147f7578182fd5b843561480281615109565b9350602085013561481281615109565b9250604085013561482281615109565b9150606085013561483281615109565b939692955090935050565b60008060008060808587031215614852578384fd5b843561485d81615109565b9350602085013561486d81615109565b93969395505050506040820135916060013590565b600080600060608486031215614896578283fd5b83356148a181615109565b92506020840135915060408401356148b881615109565b809150509250925092565b6000806000606084860312156148d7578283fd5b83356148e281615109565b95602085013595506040909401359392505050565b600060208284031215614908578081fd5b8151612fe18161511e565b600060208284031215614924578081fd5b8151612fe181615109565b60008060008060008060c08789031215614947578182fd5b865161495281615109565b8096505060208701519450604087015193506060870151925060808701516149798161511e565b8092505060a087015190509295509295509295565b600060208083850312156149a0578182fd5b825167ffffffffffffffff808211156149b7578384fd5b90840190606082870312156149ca578384fd5b6149d460606150b6565b8251828111156149e2578586fd5b8301601f810188136149f2578586fd5b805183811115614a00578687fd5b614a12601f8201601f191687016150b6565b93508084528886828401011115614a27578687fd5b614a36818786018885016150dd565b50509081528183015192810192909252604090810151908201529392505050565b600060208284031215614a68578081fd5b813561ffff81168114612fe1578182fd5b600060208284031215614a8a578081fd5b5035919050565b600060208284031215614aa2578081fd5b5051919050565b60008060408385031215614abb578182fd5b8235915060208301356147d781615109565b600080600060608486031215614ae1578081fd5b833592506020840135614af381615109565b915060408401356148b88161511e565b60008060408385031215614b15578182fd5b50508035926020909101359150565b60008060408385031215614b36578182fd5b505080516020909101519092909150565b600080600060608486031215614b5b578081fd5b833592506020840135915060408401356148b88161511e565b60008060008060008060c08789031215614b8c578384fd5b865195506020870151945060408701519350606087015192506080870151915060a087015190509295509295509295565b805182526020810151602083015260408101516040830152606081015160608301526080810151608083015260a081015160a08301525050565b60008251614c098184602087016150dd565b9190910192915050565b6001600160a01b0391909116815260200190565b6001600160a01b039384168152919092166020820152604081019190915260600190565b6001600160a01b0392831681529116602082015260400190565b6001600160a01b03929092168252602082015260400190565b901515815260200190565b90815260200190565b9182521515602082015260400190565b6000602082528251806020840152614cc18160408501602087016150dd565b601f01601f19169190910160400192915050565b60208082526026908201527f4f776e61626c653a206e6577206f776e657220697320746865207a65726f206160408201526564647265737360d01b606082015260800190565b6020808252601b908201527f536166654d6174683a206164646974696f6e206f766572666c6f770000000000604082015260600190565b6020808252818101527f5361666545524332303a206c6f772d6c6576656c2063616c6c206661696c6564604082015260600190565b6020808252601f908201527f576974686472617720616d6f756e7420657863656564732062616c616e636500604082015260600190565b6020808252600c908201526b4e6f20616c6c6f77616e636560a01b604082015260600190565b60208082526021908201527f536166654d6174683a206d756c7469706c69636174696f6e206f766572666c6f6040820152607760f81b606082015260800190565b6020808252818101527f4f776e61626c653a2063616c6c6572206973206e6f7420746865206f776e6572604082015260600190565b6020808252602e908201527f436f6e747261637420696e7374616e63652068617320616c726561647920626560408201526d195b881a5b9a5d1a585b1a5e995960921b606082015260800190565b6020808252600d908201526c476f76206e6f7420726561647960981b604082015260600190565b6020808252600790820152664d61782031302560c81b604082015260600190565b6020808252602a908201527f5361666545524332303a204552433230206f7065726174696f6e20646964206e6040820152691bdd081cdd58d8d9595960b21b606082015260800190565b60208082526010908201526f4e6f7420776974686472617761626c6560801b604082015260600190565b6020808252601f908201527f5361666545524332303a2063616c6c20746f206e6f6e2d636f6e747261637400604082015260600190565b9182526001600160a01b0316602082015260400190565b9384526001600160a01b03928316602085015291166040830152606082015260800190565b8381526001600160a01b038316602082015261010081016143f96040830184614bbd565b9283526001600160a01b03918216602084015216604082015260600190565b9283526001600160a01b039190911660208301521515604082015260600190565b600060e08201905083825260018060a01b0383511660208301526020830151604083015260408301516060830152606083015160808301526080830151151560a083015260a083015160c08301529392505050565b918252602082015260400190565b92835260208301919091521515604082015260600190565b60405181810167ffffffffffffffff811182821017156150d557600080fd5b604052919050565b60005b838110156150f85781810151838201526020016150e0565b838111156105e95750506000910152565b6001600160a01b038116811461238c57600080fd5b801515811461238c57600080fdfea2646970667358221220274f03aaf23bf4ff935219cfdd9cfb8180f5b20940b6c48a9690ff62540ac2aa64736f6c634300060c0033",
  "devdoc": {
    "kind": "dev",
    "methods": {
      "owner()": {
        "details": "Returns the address of the current owner."
      },
      "renounceOwnership()": {
        "details": "Leaves the contract without owner. It will not be possible to call `onlyOwner` functions anymore. Can only be called by the current owner. NOTE: Renouncing ownership will leave the contract without an owner, thereby removing any functionality that is only available to the owner."
      },
      "transferOwnership(address)": {
        "details": "Transfers ownership of the contract to a new account (`newOwner`). Can only be called by the current owner."
      }
    },
    "version": 1
  },
  "userdoc": {
    "kind": "user",
    "methods": {},
    "version": 1
  },
  "storageLayout": {
    "storage": [
      {
        "astId": 13603,
        "contract": "contracts/RAMVault.sol:RAMVault",
        "label": "_storage",
        "offset": 0,
        "slot": "0",
        "type": "t_contract(YGYStorageV1)15325"
      },
      {
        "astId": 195,
        "contract": "contracts/RAMVault.sol:RAMVault",
        "label": "initialized",
        "offset": 20,
        "slot": "0",
        "type": "t_bool"
      },
      {
        "astId": 198,
        "contract": "contracts/RAMVault.sol:RAMVault",
        "label": "initializing",
        "offset": 21,
        "slot": "0",
        "type": "t_bool"
      },
      {
        "astId": 263,
        "contract": "contracts/RAMVault.sol:RAMVault",
        "label": "______gap",
        "offset": 0,
        "slot": "1",
        "type": "t_array(t_uint256)50_storage"
      },
      {
        "astId": 188,
        "contract": "contracts/RAMVault.sol:RAMVault",
        "label": "__gap",
        "offset": 0,
        "slot": "51",
        "type": "t_array(t_uint256)50_storage"
      },
      {
        "astId": 565,
        "contract": "contracts/RAMVault.sol:RAMVault",
        "label": "_owner",
        "offset": 0,
        "slot": "101",
        "type": "t_address"
      },
      {
        "astId": 683,
        "contract": "contracts/RAMVault.sol:RAMVault",
        "label": "__gap",
        "offset": 0,
        "slot": "102",
        "type": "t_array(t_uint256)49_storage"
      },
      {
        "astId": 11701,
        "contract": "contracts/RAMVault.sol:RAMVault",
        "label": "devaddr",
        "offset": 0,
        "slot": "151",
        "type": "t_address"
      },
      {
        "astId": 11703,
        "contract": "contracts/RAMVault.sol:RAMVault",
        "label": "teamaddr",
        "offset": 0,
        "slot": "152",
        "type": "t_address"
      },
      {
        "astId": 11705,
        "contract": "contracts/RAMVault.sol:RAMVault",
        "label": "regeneratoraddr",
        "offset": 0,
        "slot": "153",
        "type": "t_address"
      },
      {
        "astId": 13065,
        "contract": "contracts/RAMVault.sol:RAMVault",
        "label": "DEV_FEE",
        "offset": 20,
        "slot": "153",
        "type": "t_uint16"
      },
      {
        "astId": 13086,
        "contract": "contracts/RAMVault.sol:RAMVault",
        "label": "pending_DEV_rewards",
        "offset": 0,
        "slot": "154",
        "type": "t_uint256"
      },
      {
        "astId": 13088,
        "contract": "contracts/RAMVault.sol:RAMVault",
        "label": "pending_DEV_YGY_rewards",
        "offset": 0,
        "slot": "155",
        "type": "t_uint256"
      },
      {
        "astId": 13526,
        "contract": "contracts/RAMVault.sol:RAMVault",
        "label": "_superAdmin",
        "offset": 0,
        "slot": "156",
        "type": "t_address"
      }
    ],
    "types": {
      "t_address": {
        "encoding": "inplace",
        "label": "address",
        "numberOfBytes": "20"
      },
      "t_array(t_uint256)49_storage": {
        "base": "t_uint256",
        "encoding": "inplace",
        "label": "uint256[49]",
        "numberOfBytes": "1568"
      },
      "t_array(t_uint256)50_storage": {
        "base": "t_uint256",
        "encoding": "inplace",
        "label": "uint256[50]",
        "numberOfBytes": "1600"
      },
      "t_bool": {
        "encoding": "inplace",
        "label": "bool",
        "numberOfBytes": "1"
      },
      "t_contract(YGYStorageV1)15325": {
        "encoding": "inplace",
        "label": "contract YGYStorageV1",
        "numberOfBytes": "20"
      },
      "t_uint16": {
        "encoding": "inplace",
        "label": "uint16",
        "numberOfBytes": "2"
      },
      "t_uint256": {
        "encoding": "inplace",
        "label": "uint256",
        "numberOfBytes": "32"
      }
    }
  }
}