{
  "address": "0x5A494D1E11d411A98D52bDC809c7a125490941aE",
  "abi": [
    {
      "anonymous": false,
      "inputs": [
        {
          "indexed": true,
          "internalType": "address",
          "name": "owner",
          "type": "address"
        },
        {
          "indexed": true,
          "internalType": "address",
          "name": "spender",
          "type": "address"
        },
        {
          "indexed": false,
          "internalType": "uint256",
          "name": "_pid",
          "type": "uint256"
        },
        {
          "indexed": false,
          "internalType": "uint256",
          "name": "value",
          "type": "uint256"
        }
      ],
      "name": "Approval",
      "type": "event"
    },
    {
      "anonymous": false,
      "inputs": [
        {
          "indexed": true,
          "internalType": "address",
          "name": "user",
          "type": "address"
        },
        {
          "indexed": true,
          "internalType": "uint256",
          "name": "pid",
          "type": "uint256"
        },
        {
          "indexed": true,
          "internalType": "uint256",
          "name": "level",
          "type": "uint256"
        },
        {
          "indexed": false,
          "internalType": "bool",
          "name": "fromNFT",
          "type": "bool"
        }
      ],
      "name": "Boost",
      "type": "event"
    },
    {
      "anonymous": false,
      "inputs": [
        {
          "indexed": true,
          "internalType": "address",
          "name": "user",
          "type": "address"
        },
        {
          "indexed": true,
          "internalType": "uint256",
          "name": "pid",
          "type": "uint256"
        },
        {
          "indexed": false,
          "internalType": "uint256",
          "name": "amount",
          "type": "uint256"
        }
      ],
      "name": "Deposit",
      "type": "event"
    },
    {
      "anonymous": false,
      "inputs": [
        {
          "indexed": true,
          "internalType": "address",
          "name": "user",
          "type": "address"
        },
        {
          "indexed": true,
          "internalType": "uint256",
          "name": "pid",
          "type": "uint256"
        },
        {
          "indexed": false,
          "internalType": "uint256",
          "name": "amount",
          "type": "uint256"
        }
      ],
      "name": "EmergencyWithdraw",
      "type": "event"
    },
    {
      "anonymous": false,
      "inputs": [
        {
          "indexed": true,
          "internalType": "address",
          "name": "previousOwner",
          "type": "address"
        },
        {
          "indexed": true,
          "internalType": "address",
          "name": "newOwner",
          "type": "address"
        }
      ],
      "name": "OwnershipTransferred",
      "type": "event"
    },
    {
      "anonymous": false,
      "inputs": [
        {
          "indexed": false,
          "internalType": "uint256",
          "name": "pid",
          "type": "uint256"
        },
        {
          "indexed": false,
          "internalType": "address",
          "name": "to",
          "type": "address"
        }
      ],
      "name": "RewardPaid",
      "type": "event"
    },
    {
      "anonymous": false,
      "inputs": [
        {
          "indexed": false,
          "internalType": "address",
          "name": "previousOwner",
          "type": "address"
        },
        {
          "indexed": false,
          "internalType": "address",
          "name": "newOwner",
          "type": "address"
        }
      ],
      "name": "SuperAdminTransfered",
      "type": "event"
    },
    {
      "anonymous": false,
      "inputs": [
        {
          "indexed": true,
          "internalType": "address",
          "name": "user",
          "type": "address"
        },
        {
          "indexed": true,
          "internalType": "uint256",
          "name": "pid",
          "type": "uint256"
        },
        {
          "indexed": false,
          "internalType": "uint256",
          "name": "amount",
          "type": "uint256"
        }
      ],
      "name": "Withdraw",
      "type": "event"
    },
    {
      "inputs": [
        {
          "internalType": "address",
          "name": "_user",
          "type": "address"
        },
        {
          "internalType": "address",
          "name": "_tokenAddress",
          "type": "address"
        },
        {
          "internalType": "uint256",
          "name": "_tokenId",
          "type": "uint256"
        },
        {
          "internalType": "uint256",
          "name": "_poolId",
          "type": "uint256"
        }
      ],
      "name": "NFTUsage",
      "outputs": [],
      "stateMutability": "nonpayable",
      "type": "function"
    },
    {
      "inputs": [
        {
          "internalType": "uint256",
          "name": "_amount",
          "type": "uint256"
        }
      ],
      "name": "addPendingRewards",
      "outputs": [],
      "stateMutability": "nonpayable",
      "type": "function"
    },
    {
      "inputs": [
        {
          "internalType": "uint256",
          "name": "_allocPoint",
          "type": "uint256"
        },
        {
          "internalType": "contract IERC20",
          "name": "_token",
          "type": "address"
        },
        {
          "internalType": "bool",
          "name": "_withdrawable",
          "type": "bool"
        }
      ],
      "name": "addPool",
      "outputs": [],
      "stateMutability": "nonpayable",
      "type": "function"
    },
    {
      "inputs": [
        {
          "internalType": "uint256",
          "name": "_amount",
          "type": "uint256"
        }
      ],
      "name": "addRAMRewardsOwner",
      "outputs": [],
      "stateMutability": "nonpayable",
      "type": "function"
    },
    {
      "inputs": [
        {
          "internalType": "uint256",
          "name": "_amount",
          "type": "uint256"
        }
      ],
      "name": "addYGYRewardsOwner",
      "outputs": [],
      "stateMutability": "nonpayable",
      "type": "function"
    },
    {
      "inputs": [],
      "name": "burnSuperAdmin",
      "outputs": [],
      "stateMutability": "nonpayable",
      "type": "function"
    },
    {
      "inputs": [
        {
          "internalType": "uint256",
          "name": "_pid",
          "type": "uint256"
        },
        {
          "internalType": "address",
          "name": "_user",
          "type": "address"
        }
      ],
      "name": "checkRewards",
      "outputs": [
        {
          "internalType": "uint256",
          "name": "pendingRAM",
          "type": "uint256"
        },
        {
          "internalType": "uint256",
          "name": "pendingYGY",
          "type": "uint256"
        }
      ],
      "stateMutability": "view",
      "type": "function"
    },
    {
      "inputs": [
        {
          "internalType": "uint256",
          "name": "_pid",
          "type": "uint256"
        }
      ],
      "name": "claimRewards",
      "outputs": [],
      "stateMutability": "nonpayable",
      "type": "function"
    },
    {
      "inputs": [
        {
          "internalType": "uint256",
          "name": "_pid",
          "type": "uint256"
        },
        {
          "internalType": "uint256",
          "name": "_amount",
          "type": "uint256"
        }
      ],
      "name": "deposit",
      "outputs": [],
      "stateMutability": "nonpayable",
      "type": "function"
    },
    {
      "inputs": [
        {
          "internalType": "address",
          "name": "_depositFor",
          "type": "address"
        },
        {
          "internalType": "uint256",
          "name": "_pid",
          "type": "uint256"
        },
        {
          "internalType": "uint256",
          "name": "_amount",
          "type": "uint256"
        }
      ],
      "name": "depositFor",
      "outputs": [],
      "stateMutability": "nonpayable",
      "type": "function"
    },
    {
      "inputs": [],
      "name": "distributeFees",
      "outputs": [],
      "stateMutability": "nonpayable",
      "type": "function"
    },
    {
      "inputs": [
        {
          "internalType": "uint256",
          "name": "_pid",
          "type": "uint256"
        }
      ],
      "name": "emergencyWithdraw",
      "outputs": [],
      "stateMutability": "nonpayable",
      "type": "function"
    },
    {
      "inputs": [
        {
          "internalType": "address",
          "name": "__superAdmin",
          "type": "address"
        },
        {
          "internalType": "address",
          "name": "_regeneratoraddr",
          "type": "address"
        },
        {
          "internalType": "address",
          "name": "_devaddr",
          "type": "address"
        },
        {
          "internalType": "address",
          "name": "_teamaddr",
          "type": "address"
        }
      ],
      "name": "initialize",
      "outputs": [],
      "stateMutability": "nonpayable",
      "type": "function"
    },
    {
      "inputs": [],
      "name": "massUpdatePools",
      "outputs": [],
      "stateMutability": "nonpayable",
      "type": "function"
    },
    {
      "inputs": [
        {
          "internalType": "address",
          "name": "newOwner",
          "type": "address"
        }
      ],
      "name": "newSuperAdmin",
      "outputs": [],
      "stateMutability": "nonpayable",
      "type": "function"
    },
    {
      "inputs": [],
      "name": "owner",
      "outputs": [
        {
          "internalType": "address",
          "name": "",
          "type": "address"
        }
      ],
      "stateMutability": "view",
      "type": "function"
    },
    {
      "inputs": [
        {
          "internalType": "uint256",
          "name": "_pid",
          "type": "uint256"
        },
        {
          "internalType": "uint256",
          "name": "_level",
          "type": "uint256"
        }
      ],
      "name": "purchase",
      "outputs": [],
      "stateMutability": "nonpayable",
      "type": "function"
    },
    {
      "inputs": [],
      "name": "renounceOwnership",
      "outputs": [],
      "stateMutability": "nonpayable",
      "type": "function"
    },
    {
      "inputs": [
        {
          "internalType": "uint256",
          "name": "_pid",
          "type": "uint256"
        },
        {
          "internalType": "uint256",
          "name": "_allocPoint",
          "type": "uint256"
        },
        {
          "internalType": "bool",
          "name": "_withdrawable",
          "type": "bool"
        }
      ],
      "name": "set",
      "outputs": [],
      "stateMutability": "nonpayable",
      "type": "function"
    },
    {
      "inputs": [
        {
          "internalType": "address",
          "name": "_devaddr",
          "type": "address"
        },
        {
          "internalType": "address",
          "name": "_teamaddr",
          "type": "address"
        },
        {
          "internalType": "address",
          "name": "_regeneratoraddr",
          "type": "address"
        }
      ],
      "name": "setAddresses",
      "outputs": [],
      "stateMutability": "nonpayable",
      "type": "function"
    },
    {
      "inputs": [
        {
          "internalType": "address",
          "name": "spender",
          "type": "address"
        },
        {
          "internalType": "uint256",
          "name": "_pid",
          "type": "uint256"
        },
        {
          "internalType": "uint256",
          "name": "value",
          "type": "uint256"
        }
      ],
      "name": "setAllowanceForPoolToken",
      "outputs": [],
      "stateMutability": "nonpayable",
      "type": "function"
    },
    {
      "inputs": [
        {
          "internalType": "uint16",
          "name": "_DEV_FEE",
          "type": "uint16"
        }
      ],
      "name": "setDevFee",
      "outputs": [],
      "stateMutability": "nonpayable",
      "type": "function"
    },
    {
      "inputs": [
        {
          "internalType": "address",
          "name": "tokenAddress",
          "type": "address"
        },
        {
          "internalType": "uint256",
          "name": "_amount",
          "type": "uint256"
        },
        {
          "internalType": "address",
          "name": "contractAddress",
          "type": "address"
        }
      ],
      "name": "setStrategyContractOrDistributionContractAllowance",
      "outputs": [],
      "stateMutability": "nonpayable",
      "type": "function"
    },
    {
      "inputs": [],
      "name": "startNewEpoch",
      "outputs": [],
      "stateMutability": "nonpayable",
      "type": "function"
    },
    {
      "inputs": [],
      "name": "superAdmin",
      "outputs": [
        {
          "internalType": "address",
          "name": "",
          "type": "address"
        }
      ],
      "stateMutability": "view",
      "type": "function"
    },
    {
      "inputs": [
        {
          "internalType": "address",
          "name": "newOwner",
          "type": "address"
        }
      ],
      "name": "transferOwnership",
      "outputs": [],
      "stateMutability": "nonpayable",
      "type": "function"
    },
    {
      "inputs": [],
      "name": "transferRAMDevFee",
      "outputs": [],
      "stateMutability": "nonpayable",
      "type": "function"
    },
    {
      "inputs": [],
      "name": "transferYGYDevFee",
      "outputs": [],
      "stateMutability": "nonpayable",
      "type": "function"
    },
    {
      "inputs": [
        {
          "internalType": "uint256",
          "name": "_pid",
          "type": "uint256"
        },
        {
          "internalType": "uint256",
          "name": "_amount",
          "type": "uint256"
        }
      ],
      "name": "withdraw",
      "outputs": [],
      "stateMutability": "nonpayable",
      "type": "function"
    },
    {
      "inputs": [
        {
          "internalType": "address",
          "name": "owner",
          "type": "address"
        },
        {
          "internalType": "uint256",
          "name": "_pid",
          "type": "uint256"
        },
        {
          "internalType": "uint256",
          "name": "_amount",
          "type": "uint256"
        }
      ],
      "name": "withdrawFrom",
      "outputs": [],
      "stateMutability": "nonpayable",
      "type": "function"
    }
  ],
  "transactionHash": "0xd18268fef4b8c48495bbba122c7e347d5d55e94f9ad0ae126a095d26b32a538a",
  "args": [],
  "solcInputHash": "bc1a585417435c540b4e50cc1976e9a1",
  "bytecode": "0x608060405234801561001057600080fd5b506153e8806100206000396000f3fe608060405234801561001057600080fd5b50600436106101da5760003560e01c806370876c9811610104578063bb57ad20116100a2578063e18cb4fe11610071578063e18cb4fe14610390578063e2bbb158146103a3578063f2fde38b146103b6578063f8c8765e146103c9576101da565b8063bb57ad201461035a578063c401458814610362578063cc1362ec14610375578063dbe0901f1461037d576101da565b80637cf75ca3116100de5780637cf75ca31461032f5780638da5cb5b14610337578063934eaa501461033f578063a676860a14610347576101da565b806370876c9814610301578063715018a6146103145780637abceffd1461031c576101da565b80633fe6a2781161017c5780635312ea8e1161014b5780635312ea8e146102c05780635db64aba146102d3578063630b5ba1146102e657806364482f79146102ee576101da565b80633fe6a27814610274578063423d6fa014610287578063441a3e701461029a5780634cf5fbf5146102ad576101da565b8063363bf964116101b8578063363bf964146102335780633a0967cd146102465780633aab0a62146102595780633b6a684914610261576101da565b80630962ef79146101df57806310178d9c146101f457806329575f6a1461021e575b600080fd5b6101f26101ed366004614ca1565b6103dc565b005b610207610202366004614cd1565b610565565b6040516102159291906152f2565b60405180910390f35b6102266105f2565b6040516102159190614e46565b6101f26102413660046149d9565b610601565b6101f2610254366004614af9565b61067e565b6101f26107a6565b6101f261026f366004614ca1565b61099d565b6101f2610282366004614ca1565b610b52565b6101f2610295366004614ca1565b610cd4565b6101f26102a8366004614d36565b610da5565b6101f26102bb366004614af9565b610db5565b6101f26102ce366004614ca1565b610ff3565b6101f26102e1366004614a7e565b611196565b6101f261152f565b6101f26102fc366004614d7a565b61165f565b6101f261030f366004614d36565b6116d0565b6101f2611a99565b6101f261032a366004614d00565b611b18565b6101f2611b89565b610226612087565b6101f2612096565b6101f26103553660046149bd565b612105565b6101f2612198565b6101f2610370366004614ac3565b6125ff565b6101f2612761565b6101f261038b366004614af9565b612c58565b6101f261039e366004614c7f565b612d12565b6101f26103b1366004614d36565b612d8f565b6101f26103c43660046149bd565b612fcc565b6101f26103d7366004614a23565b613083565b6103e4614922565b6000546103fb9083906001600160a01b0316613183565b9050610405614963565b60005461041e90849033906001600160a01b0316613256565b60608101519091501561044957600080546104499183918591339181906001600160a01b031661331e565b61045383336133bb565b61045d81836133f5565b6000546040516303c4399d60e11b81526001600160a01b0390911690630788733a9061049190869033908690600401615239565b600060405180830381600087803b1580156104ab57600080fd5b505af11580156104bf573d6000803e3d6000fd5b505060005460405163d4665bb760e01b81526001600160a01b03909116925063d4665bb791506104f5908690869060040161529d565b600060405180830381600087803b15801561050f57600080fd5b505af1158015610523573d6000803e3d6000fd5b505050507fc05cbf47ef4152ea1b2446fb1ba8eb9c7285054d9c85f2f52c294200d8d1d38b83336040516105589291906151fd565b60405180910390a1505050565b60008054604051630405e36760e21b815282916001600160a01b0316906310178d9c9061059890879087906004016151fd565b604080518083038186803b1580156105af57600080fd5b505afa1580156105c3573d6000803e3d6000fd5b505050506040513d601f19601f820116820180604052508101906105e79190614d57565b915091509250929050565b609c546001600160a01b031690565b610609613443565b6065546001600160a01b0390811691161461063f5760405162461bcd60e51b815260040161063690615058565b60405180910390fd5b609780546001600160a01b039485166001600160a01b031991821617909155609880549385169382169390931790925560998054919093169116179055565b6000805460405163158dd39360e01b81526001600160a01b039091169063158dd393906106b39086908890339060040161525d565b60206040518083038186803b1580156106cb57600080fd5b505afa1580156106df573d6000803e3d6000fd5b505050506040513d601f19601f820116820180604052508101906107039190614cb9565b9050818110156107255760405162461bcd60e51b815260040161063690614ff1565b6000546001600160a01b03166360443a458486336107438688613447565b6040518563ffffffff1660e01b81526004016107629493929190615214565b600060405180830381600087803b15801561077c57600080fd5b505af1158015610790573d6000803e3d6000fd5b505050506107a083838633613490565b50505050565b60005460408051630baaef8360e31b8152905143926001600160a01b031691635d577c18916004808301926020929190829003018186803b1580156107ea57600080fd5b505afa1580156107fe573d6000803e3d6000fd5b505050506040513d601f19601f820116820180604052508101906108229190614cb9565b611680011061083057600080fd5b6000805460408051632515621d60e11b815290516001600160a01b0390921692634a2ac43a9260048084019382900301818387803b15801561087157600080fd5b505af1158015610885573d6000803e3d6000fd5b5050600080546040805163221205f760e21b815290516001600160a01b03909216945063884817dc9350600480820193929182900301818387803b1580156108cc57600080fd5b505af11580156108e0573d6000803e3d6000fd5b5050600080546040516309df3e6d60e41b81526001600160a01b039091169350639df3e6d092506109149190600401614ebc565b600060405180830381600087803b15801561092e57600080fd5b505af1158015610942573d6000803e3d6000fd5b5050600080546040805163022fed0760e11b815290516001600160a01b03909216945063045fda0e9350600480820193929182900301818387803b15801561098957600080fd5b505af11580156107a0573d6000803e3d6000fd5b6109a5613443565b6065546001600160a01b039081169116146109d25760405162461bcd60e51b815260040161063690615058565b60008054906101000a90046001600160a01b03166001600160a01b0316638f33b5e56040518163ffffffff1660e01b815260040160206040518083038186803b158015610a1e57600080fd5b505afa158015610a32573d6000803e3d6000fd5b505050506040513d601f19601f82011682018060405250810190610a569190614b49565b6001600160a01b03166323b872dd3330846040518463ffffffff1660e01b8152600401610a8593929190614e5a565b602060405180830381600087803b158015610a9f57600080fd5b505af1158015610ab3573d6000803e3d6000fd5b505050506040513d601f19601f82011682018060405250810190610ad79190614b2d565b8015610ae35750600081115b610aec57600080fd5b600080546040516301e0a3fb60e61b81526001600160a01b0390911691637828fec091610b1d918591600401614ec5565b600060405180830381600087803b158015610b3757600080fd5b505af1158015610b4b573d6000803e3d6000fd5b5050505050565b610b5a613443565b6065546001600160a01b03908116911614610b875760405162461bcd60e51b815260040161063690615058565b60008054906101000a90046001600160a01b03166001600160a01b031663fb70c3bf6040518163ffffffff1660e01b815260040160206040518083038186803b158015610bd357600080fd5b505afa158015610be7573d6000803e3d6000fd5b505050506040513d601f19601f82011682018060405250810190610c0b9190614b49565b6001600160a01b03166323b872dd3330846040518463ffffffff1660e01b8152600401610c3a93929190614e5a565b602060405180830381600087803b158015610c5457600080fd5b505af1158015610c68573d6000803e3d6000fd5b505050506040513d601f19601f82011682018060405250810190610c8c9190614b2d565b8015610c985750600081115b610ca157600080fd5b6000546040516301e0a3fb60e61b81526001600160a01b0390911690637828fec090610b1d908490600190600401614ec5565b60008054906101000a90046001600160a01b03166001600160a01b0316638f33b5e56040518163ffffffff1660e01b815260040160206040518083038186803b158015610d2057600080fd5b505afa158015610d34573d6000803e3d6000fd5b505050506040513d601f19601f82011682018060405250810190610d589190614b49565b6001600160a01b0316336001600160a01b031614610d7557600080fd5b600054604051630211eb7d60e51b81526001600160a01b039091169063423d6fa090610b1d908490600401614ebc565b610db182823333613490565b5050565b610dbd614922565b600054610dd49084906001600160a01b0316613183565b9050610dde614963565b600054610df790859087906001600160a01b0316613256565b9050610e0384866133bb565b8215610ed65781516040516323b872dd60e01b81526001600160a01b03909116906323b872dd90610e3c90339030908890600401614e5a565b602060405180830381600087803b158015610e5657600080fd5b505af1158015610e6a573d6000803e3d6000fd5b505050506040513d601f19601f82011682018060405250810190610e8e9190614b2d565b508051610e9b90846136a6565b81526060810151151580610eb3575060008160800151115b15610ed65760008054610ed69183918591899181906001600160a01b031661331e565b610ee081836133f5565b6000546040516303c4399d60e11b81526001600160a01b0390911690630788733a90610f1490879089908690600401615239565b600060405180830381600087803b158015610f2e57600080fd5b505af1158015610f42573d6000803e3d6000fd5b505060005460405163d4665bb760e01b81526001600160a01b03909116925063d4665bb79150610f78908790869060040161529d565b600060405180830381600087803b158015610f9257600080fd5b505af1158015610fa6573d6000803e3d6000fd5b5050505083856001600160a01b03167f90890809c654f11d6e72a28fa60149770a0d11ec6c92319d6ceb2bb0a4ea1a1585604051610fe49190614ebc565b60405180910390a35050505050565b610ffb614922565b6000546110129083906001600160a01b0316613183565b905080608001516110355760405162461bcd60e51b815260040161063690615123565b61103d614963565b60005461105690849033906001600160a01b0316613256565b80518351919250611072916001600160a01b03169033906136cb565b8051604051849133917fbb757047c2b5f3974fe26b7c10f732e7bce710b0952a71082702781e62ae0595916110a691614ebc565b60405180910390a3600080825260608201819052602082018190526040808301829052905490516303c4399d60e11b81526001600160a01b0390911690630788733a906110fb90869033908690600401615239565b600060405180830381600087803b15801561111557600080fd5b505af1158015611129573d6000803e3d6000fd5b505060005460405163d4665bb760e01b81526001600160a01b03909116925063d4665bb7915061115f908690869060040161529d565b600060405180830381600087803b15801561117957600080fd5b505af115801561118d573d6000803e3d6000fd5b50505050505050565b8261119f614999565b604051631c72e6e760e11b81526001600160a01b038316906338e5cdce906111cb908790600401614ebc565b60006040518083038186803b1580156111e357600080fd5b505afa1580156111f7573d6000803e3d6000fd5b505050506040513d6000823e601f3d908101601f1916820160405261121f9190810190614bc4565b9050611229614963565b60005461124290859089906001600160a01b0316613256565b905061124c614922565b6000546112639086906001600160a01b0316613183565b90507fb11f0630abdc3c49238c394684d47c0a22fb6922fdf83b64cfdd3d9769f1a263836000015160405160200161129b9190614e2a565b6040516020818303038152906040528051906020012014156113b85760008054906101000a90046001600160a01b03166001600160a01b0316638792a265856001600160a01b0316638291286c6040518163ffffffff1660e01b815260040160206040518083038186803b15801561131257600080fd5b505afa158015611326573d6000803e3d6000fd5b505050506040513d601f19601f8201168201806040525081019061134a9190614cb9565b8a6040518363ffffffff1660e01b81526004016113689291906151fd565b600060405180830381600087803b15801561138257600080fd5b505af1158015611396573d6000803e3d6000fd5b5050600080546113b8935085925084918c9181906001600160a01b031661331e565b604051630852cd8d60e31b81526001600160a01b038516906342966c68906113e4908990600401614ebc565b600060405180830381600087803b1580156113fe57600080fd5b505af1158015611412573d6000803e3d6000fd5b50506000546040516303c4399d60e11b81526001600160a01b039091169250630788733a915061144a9088908c908790600401615239565b600060405180830381600087803b15801561146457600080fd5b505af1158015611478573d6000803e3d6000fd5b505060005460405163d4665bb760e01b81526001600160a01b03909116925063d4665bb791506114ae908890859060040161529d565b600060405180830381600087803b1580156114c857600080fd5b505af11580156114dc573d6000803e3d6000fd5b50505050600085896001600160a01b03167f2afbc6f74788c58c5d56fca9812c385d27a7bf8004bd05cd1b9f057ad145f69d600160405161151d9190614eb1565b60405180910390a45050505050505050565b60008060005b60008054906101000a90046001600160a01b03166001600160a01b031663b3944d526040518163ffffffff1660e01b815260040160206040518083038186803b15801561158157600080fd5b505afa158015611595573d6000803e3d6000fd5b505050506040513d601f19601f820116820180604052508101906115b99190614cb9565b8110156115f6576000806115cc83613721565b90925090506115db85836136a6565b94506115e784826136a6565b93505050806001019050611535565b50600054604051635105a97560e01b81526001600160a01b0390911690635105a9759061162990859085906004016152f2565b600060405180830381600087803b15801561164357600080fd5b505af1158015611657573d6000803e3d6000fd5b505050505050565b611667613443565b6065546001600160a01b039081169116146116945760405162461bcd60e51b815260040161063690615058565b61169c61152f565b60005460405163236535f560e11b81526001600160a01b03909116906346ca6bea9061115f90869086908690600401615300565b6116d8614922565b6000546116ef9084906001600160a01b0316613183565b90506116f9614963565b60005461171290859033906001600160a01b0316613256565b9050806080015183118015611728575060048311155b61173157600080fd5b60008054604051636a9d1f6f60e01b81526001600160a01b0390911690636a9d1f6f90611762908790600401614ebc565b60206040518083038186803b15801561177a57600080fd5b505afa15801561178e573d6000803e3d6000fd5b505050506040513d601f19601f820116820180604052508101906117b29190614cb9565b905060006117cd8360a001518361344790919063ffffffff16565b905060008054906101000a90046001600160a01b03166001600160a01b0316638f33b5e56040518163ffffffff1660e01b815260040160206040518083038186803b15801561181b57600080fd5b505afa15801561182f573d6000803e3d6000fd5b505050506040513d601f19601f820116820180604052508101906118539190614b49565b6001600160a01b03166323b872dd3330846040518463ffffffff1660e01b815260040161188293929190614e5a565b602060405180830381600087803b15801561189c57600080fd5b505af11580156118b0573d6000803e3d6000fd5b505050506040513d601f19601f820116820180604052508101906118d49190614b2d565b6118dd57600080fd5b60a08301516118ec90826136a6565b60a08401526080830185905282511561191e576000805461191e918591879133918a91906001600160a01b031661331e565b6000546040516303c4399d60e11b81526001600160a01b0390911690630788733a9061195290899033908890600401615239565b600060405180830381600087803b15801561196c57600080fd5b505af1158015611980573d6000803e3d6000fd5b505060005460405163d4665bb760e01b81526001600160a01b03909116925063d4665bb791506119b6908990889060040161529d565b600060405180830381600087803b1580156119d057600080fd5b505af11580156119e4573d6000803e3d6000fd5b5050600054604051631be9449960e11b81526001600160a01b0390911692506337d289329150611a1b908490600190600401614ec5565b600060405180830381600087803b158015611a3557600080fd5b505af1158015611a49573d6000803e3d6000fd5b505050508486336001600160a01b03167f2afbc6f74788c58c5d56fca9812c385d27a7bf8004bd05cd1b9f057ad145f69d6000604051611a899190614eb1565b60405180910390a4505050505050565b611aa1613443565b6065546001600160a01b03908116911614611ace5760405162461bcd60e51b815260040161063690615058565b6065546040516000916001600160a01b0316907f8be0079c531659141344cd1fd0a4f28419497f9722a3daafe3b4186f6b6457e0908390a3606580546001600160a01b0319169055565b611b20613443565b6065546001600160a01b03908116911614611b4d5760405162461bcd60e51b815260040161063690615058565b611b5561152f565b600054604051637abceffd60e01b81526001600160a01b0390911690637abceffd9061115f9086908690869060040161527c565b609a54156120855760008060008060009054906101000a90046001600160a01b03166001600160a01b0316638f33b5e56040518163ffffffff1660e01b815260040160206040518083038186803b158015611be357600080fd5b505afa158015611bf7573d6000803e3d6000fd5b505050506040513d601f19601f82011682018060405250810190611c1b9190614b49565b6001600160a01b03166370a08231306040518263ffffffff1660e01b8152600401611c469190614e46565b60206040518083038186803b158015611c5e57600080fd5b505afa158015611c72573d6000803e3d6000fd5b505050506040513d601f19601f82011682018060405250810190611c969190614cb9565b905080609a541115611cd157611cb86064611cb2836046613b50565b90613b8a565b9250611cca6064611cb283601e613b50565b9150611d0c565b611cec6064611cb26046609a54613b5090919063ffffffff16565b9250611d096064611cb2601e609a54613b5090919063ffffffff16565b91505b8215611e1d5760008054906101000a90046001600160a01b03166001600160a01b0316638f33b5e56040518163ffffffff1660e01b815260040160206040518083038186803b158015611d5e57600080fd5b505afa158015611d72573d6000803e3d6000fd5b505050506040513d601f19601f82011682018060405250810190611d969190614b49565b60975460405163a9059cbb60e01b81526001600160a01b039283169263a9059cbb92611dc9929116908790600401614e98565b602060405180830381600087803b158015611de357600080fd5b505af1158015611df7573d6000803e3d6000fd5b505050506040513d601f19601f82011682018060405250810190611e1b9190614b2d565b505b8115611f2e5760008054906101000a90046001600160a01b03166001600160a01b0316638f33b5e56040518163ffffffff1660e01b815260040160206040518083038186803b158015611e6f57600080fd5b505afa158015611e83573d6000803e3d6000fd5b505050506040513d601f19601f82011682018060405250810190611ea79190614b49565b60985460405163a9059cbb60e01b81526001600160a01b039283169263a9059cbb92611eda929116908690600401614e98565b602060405180830381600087803b158015611ef457600080fd5b505af1158015611f08573d6000803e3d6000fd5b505050506040513d601f19601f82011682018060405250810190611f2c9190614b2d565b505b60005460408051638f33b5e560e01b815290516001600160a01b0390921691638f838a9f918391638f33b5e591600480820192602092909190829003018186803b158015611f7b57600080fd5b505afa158015611f8f573d6000803e3d6000fd5b505050506040513d601f19601f82011682018060405250810190611fb39190614b49565b6001600160a01b03166370a08231306040518263ffffffff1660e01b8152600401611fde9190614e46565b60206040518083038186803b158015611ff657600080fd5b505afa15801561200a573d6000803e3d6000fd5b505050506040513d601f19601f8201168201806040525081019061202e9190614cb9565b6040518263ffffffff1660e01b815260040161204a9190614ebc565b600060405180830381600087803b15801561206457600080fd5b505af1158015612078573d6000803e3d6000fd5b50506000609a5550505050505b565b6065546001600160a01b031690565b61209e613443565b609c546001600160a01b039081169116146120b857600080fd5b609c80546001600160a01b03191690556040517ff564c40f4f45e62a2c1e6c22e8bfb46501f0f71fa1c72e5358903fa1115a4b64906120fb906000908190614e7e565b60405180910390a1565b61210d613443565b609c546001600160a01b0390811691161461212757600080fd5b6001600160a01b03811661213a57600080fd5b609c80546001600160a01b0319166001600160a01b0383811691909117918290556040517ff564c40f4f45e62a2c1e6c22e8bfb46501f0f71fa1c72e5358903fa1115a4b649261218d9216908490614e7e565b60405180910390a150565b60008054604051631be9449960e11b81526001600160a01b03909116916337d28932916121ca91908190600401614ec5565b600060405180830381600087803b1580156121e457600080fd5b505af11580156121f8573d6000803e3d6000fd5b505050506000612287600260008054906101000a90046001600160a01b03166001600160a01b03166309e3de416040518163ffffffff1660e01b815260040160206040518083038186803b15801561224f57600080fd5b505afa158015612263573d6000803e3d6000fd5b505050506040513d601f19601f82011682018060405250810190611cb29190614cb9565b905080156125fc5760008054906101000a90046001600160a01b03166001600160a01b0316638f33b5e56040518163ffffffff1660e01b815260040160206040518083038186803b1580156122db57600080fd5b505afa1580156122ef573d6000803e3d6000fd5b505050506040513d601f19601f820116820180604052508101906123139190614b49565b60995460405163a9059cbb60e01b81526001600160a01b039283169263a9059cbb92612346929116908590600401614e98565b602060405180830381600087803b15801561236057600080fd5b505af1158015612374573d6000803e3d6000fd5b505050506040513d601f19601f820116820180604052508101906123989190614b2d565b6123a157600080fd5b60006123b36064611cb2846046613b50565b905080156124cd5760008054906101000a90046001600160a01b03166001600160a01b0316638f33b5e56040518163ffffffff1660e01b815260040160206040518083038186803b15801561240757600080fd5b505afa15801561241b573d6000803e3d6000fd5b505050506040513d601f19601f8201168201806040525081019061243f9190614b49565b60975460405163a9059cbb60e01b81526001600160a01b039283169263a9059cbb92612472929116908590600401614e98565b602060405180830381600087803b15801561248c57600080fd5b505af11580156124a0573d6000803e3d6000fd5b505050506040513d601f19601f820116820180604052508101906124c49190614b2d565b6124cd57600080fd5b60006124df6064611cb285601e613b50565b905080156125f95760008054906101000a90046001600160a01b03166001600160a01b0316638f33b5e56040518163ffffffff1660e01b815260040160206040518083038186803b15801561253357600080fd5b505afa158015612547573d6000803e3d6000fd5b505050506040513d601f19601f8201168201806040525081019061256b9190614b49565b60985460405163a9059cbb60e01b81526001600160a01b039283169263a9059cbb9261259e929116908590600401614e98565b602060405180830381600087803b1580156125b857600080fd5b505af11580156125cc573d6000803e3d6000fd5b505050506040513d601f19601f820116820180604052508101906125f09190614b2d565b6125f957600080fd5b50505b50565b61260881613bcc565b80156126295750612617613443565b609c546001600160a01b039081169116145b61263257600080fd5b6126c36201731860008054906101000a90046001600160a01b03166001600160a01b03166331db122c6040518163ffffffff1660e01b815260040160206040518083038186803b15801561268557600080fd5b505afa158015612699573d6000803e3d6000fd5b505050506040513d601f19601f820116820180604052508101906126bd9190614cb9565b906136a6565b43116126e15760405162461bcd60e51b8152600401610636906150db565b60405163095ea7b360e01b81526001600160a01b0384169063095ea7b39061270f9084908690600401614e98565b602060405180830381600087803b15801561272957600080fd5b505af115801561273d573d6000803e3d6000fd5b505050506040513d601f19601f820116820180604052508101906107a09190614b2d565b609b54156120855760008060008060009054906101000a90046001600160a01b03166001600160a01b031663fb70c3bf6040518163ffffffff1660e01b815260040160206040518083038186803b1580156127bb57600080fd5b505afa1580156127cf573d6000803e3d6000fd5b505050506040513d601f19601f820116820180604052508101906127f39190614b49565b6001600160a01b03166370a08231306040518263ffffffff1660e01b815260040161281e9190614e46565b60206040518083038186803b15801561283657600080fd5b505afa15801561284a573d6000803e3d6000fd5b505050506040513d601f19601f8201168201806040525081019061286e9190614cb9565b905080609b5411156128a35761288a6064611cb2836046613b50565b925061289c6064611cb283601e613b50565b91506128de565b6128be6064611cb26046609b54613b5090919063ffffffff16565b92506128db6064611cb2601e609b54613b5090919063ffffffff16565b91505b82156129ef5760008054906101000a90046001600160a01b03166001600160a01b031663fb70c3bf6040518163ffffffff1660e01b815260040160206040518083038186803b15801561293057600080fd5b505afa158015612944573d6000803e3d6000fd5b505050506040513d601f19601f820116820180604052508101906129689190614b49565b60975460405163a9059cbb60e01b81526001600160a01b039283169263a9059cbb9261299b929116908790600401614e98565b602060405180830381600087803b1580156129b557600080fd5b505af11580156129c9573d6000803e3d6000fd5b505050506040513d601f19601f820116820180604052508101906129ed9190614b2d565b505b8115612b005760008054906101000a90046001600160a01b03166001600160a01b031663fb70c3bf6040518163ffffffff1660e01b815260040160206040518083038186803b158015612a4157600080fd5b505afa158015612a55573d6000803e3d6000fd5b505050506040513d601f19601f82011682018060405250810190612a799190614b49565b60985460405163a9059cbb60e01b81526001600160a01b039283169263a9059cbb92612aac929116908690600401614e98565b602060405180830381600087803b158015612ac657600080fd5b505af1158015612ada573d6000803e3d6000fd5b505050506040513d601f19601f82011682018060405250810190612afe9190614b2d565b505b6000546040805163fb70c3bf60e01b815290516001600160a01b039092169163094601f191839163fb70c3bf91600480820192602092909190829003018186803b158015612b4d57600080fd5b505afa158015612b61573d6000803e3d6000fd5b505050506040513d601f19601f82011682018060405250810190612b859190614b49565b6001600160a01b03166370a08231306040518263ffffffff1660e01b8152600401612bb09190614e46565b60206040518083038186803b158015612bc857600080fd5b505afa158015612bdc573d6000803e3d6000fd5b505050506040513d601f19601f82011682018060405250810190612c009190614cb9565b6040518263ffffffff1660e01b8152600401612c1c9190614ebc565b600060405180830381600087803b158015612c3657600080fd5b505af1158015612c4a573d6000803e3d6000fd5b50506000609b555050505050565b6000546040516360443a4560e01b81526001600160a01b03909116906360443a4590612c8e908590339088908790600401615214565b600060405180830381600087803b158015612ca857600080fd5b505af1158015612cbc573d6000803e3d6000fd5b50505050826001600160a01b0316336001600160a01b03167fb3fd5071835887567a0671151121894ddccc2842f1d10bedad13e0d17cace9a78484604051612d059291906152f2565b60405180910390a3505050565b612d1a613443565b6065546001600160a01b03908116911614612d475760405162461bcd60e51b815260040161063690615058565b6103e88161ffff161115612d6d5760405162461bcd60e51b815260040161063690615102565b6099805461ffff909216600160a01b0261ffff60a01b19909216919091179055565b612d97614922565b600054612dae9084906001600160a01b0316613183565b9050612db8614963565b600054612dd190859033906001600160a01b0316613256565b9050612ddd84336133bb565b8215612eb05781516040516323b872dd60e01b81526001600160a01b03909116906323b872dd90612e1690339030908890600401614e5a565b602060405180830381600087803b158015612e3057600080fd5b505af1158015612e44573d6000803e3d6000fd5b505050506040513d601f19601f82011682018060405250810190612e689190614b2d565b508051612e7590846136a6565b81526060810151151580612e8d575060008160800151115b15612eb05760008054612eb09183918591339181906001600160a01b031661331e565b612eba81836133f5565b6000546040516303c4399d60e11b81526001600160a01b0390911690630788733a90612eee90879033908690600401615239565b600060405180830381600087803b158015612f0857600080fd5b505af1158015612f1c573d6000803e3d6000fd5b505060005460405163d4665bb760e01b81526001600160a01b03909116925063d4665bb79150612f52908790869060040161529d565b600060405180830381600087803b158015612f6c57600080fd5b505af1158015612f80573d6000803e3d6000fd5b5050505083336001600160a01b03167f90890809c654f11d6e72a28fa60149770a0d11ec6c92319d6ceb2bb0a4ea1a1585604051612fbe9190614ebc565b60405180910390a350505050565b612fd4613443565b6065546001600160a01b039081169116146130015760405162461bcd60e51b815260040161063690615058565b6001600160a01b0381166130275760405162461bcd60e51b815260040161063690614f08565b6065546040516001600160a01b038084169216907f8be0079c531659141344cd1fd0a4f28419497f9722a3daafe3b4186f6b6457e090600090a3606580546001600160a01b0319166001600160a01b0392909216919091179055565b600054600160a81b900460ff168061309e575061309e613bd2565b806130b35750600054600160a01b900460ff16155b6130cf5760405162461bcd60e51b81526004016106369061508d565b600054600160a81b900460ff16158015613106576000805460ff60a01b1960ff60a81b19909116600160a81b1716600160a01b1790555b61310e613bd8565b60998054609c80546001600160a01b03199081166001600160a01b038a81169190911790925561ffff60a01b1990921660b560a21b17821687821617909255609780548216868416179055609880549091169184169190911790558015610b4b576000805460ff60a81b191690555050505050565b61318b614922565b600080600080600080876001600160a01b0316631526fe278a6040518263ffffffff1660e01b81526004016131c09190614ebc565b60c06040518083038186803b1580156131d857600080fd5b505afa1580156131ec573d6000803e3d6000fd5b505050506040513d601f19601f820116820180604052508101906132109190614b65565b6040805160c0810182526001600160a01b03909716875260208701959095529385019290925260608401521515608083015260a082015296505050505050505b92915050565b61325e614963565b600080600080600080876001600160a01b03166393f1a40b8b8b6040518363ffffffff1660e01b81526004016132959291906151fd565b60c06040518083038186803b1580156132ad57600080fd5b505afa1580156132c1573d6000803e3d6000fd5b505050506040513d601f19601f820116820180604052508101906132e59190614da7565b6040805160c0810182529687526020870195909552938501929092526060840152608083015260a08201529a9950505050505050505050565b60608601516000613341888661333857896080015161333a565b865b8886613c81565b905060006133616064611cb2848c60000151613b5090919063ffffffff16565b60608a01819052905084156133925761338861337d8483613447565b60a08a015190613447565b60a08901526133b0565b6133aa61339f8285613447565b60a08a0151906136a6565b60a08901525b505050505050505050565b6133c361152f565b6000806133d08484610565565b909250905081156133e5576133e58383613d56565b80156107a0576107a08382614194565b61341564e8d4a51000611cb2836040015161340f86614604565b90613b50565b602083015260608101516134379064e8d4a5100090611cb29061340f86614604565b60409092019190915250565b3390565b600061348983836040518060400160405280601e81526020017f536166654d6174683a207375627472616374696f6e206f766572666c6f770000815250614618565b9392505050565b613498614922565b6000546134af9086906001600160a01b0316613183565b905080608001516134d25760405162461bcd60e51b81526004016106369061519c565b6134da614963565b6000546134f390879086906001600160a01b0316613256565b905084816000015110156135195760405162461bcd60e51b815260040161063690614fba565b61352386856133bb565b84156135885780516135359086613447565b8152815161354d906001600160a01b031684876136cb565b600081606001511180613564575060008160800151115b156135885760008054613588918391859188916001906001600160a01b031661331e565b61359281836133f5565b6000546040516303c4399d60e11b81526001600160a01b0390911690630788733a906135c690899033908690600401615239565b600060405180830381600087803b1580156135e057600080fd5b505af11580156135f4573d6000803e3d6000fd5b505060005460405163d4665bb760e01b81526001600160a01b03909116925063d4665bb7915061362a908990869060040161529d565b600060405180830381600087803b15801561364457600080fd5b505af1158015613658573d6000803e3d6000fd5b5050505085836001600160a01b03167ff279e6a1f5e320cca91135676d9cb6e44ca8a08c0b88342bcdb1144f6511b568876040516136969190614ebc565b60405180910390a3505050505050565b6000828201838110156134895760405162461bcd60e51b815260040161063690614f4e565b6125f98363a9059cbb60e01b84846040516024016136ea929190614e98565b60408051601f198184030181529190526020810180516001600160e01b03166001600160e01b031990931692909217909152614644565b60008061372c614922565b6000546137439085906001600160a01b0316613183565b9050600081600001516001600160a01b03166370a08231306040518263ffffffff1660e01b81526004016137779190614e46565b60206040518083038186803b15801561378f57600080fd5b505afa1580156137a3573d6000803e3d6000fd5b505050506040513d601f19601f820116820180604052508101906137c79190614cb9565b9050806137dc57600080935093505050613b4b565b60006137f58360a00151836136a690919063ffffffff16565b905061390060008054906101000a90046001600160a01b03166001600160a01b03166317caf6f16040518163ffffffff1660e01b815260040160206040518083038186803b15801561384657600080fd5b505afa15801561385a573d6000803e3d6000fd5b505050506040513d601f19601f8201168201806040525081019061387e9190614cb9565b602080860151600054604080516376f69fed60e11b81529051611cb2946001600160a01b039093169263eded3fda9260048082019391829003018186803b1580156138c857600080fd5b505afa1580156138dc573d6000803e3d6000fd5b505050506040513d601f19601f8201168201806040525081019061340f9190614cb9565b6099549095506000906139279061271090611cb2908990600160a01b900461ffff16613b50565b609a5490915061393790826136a6565b609a556000805460408051638b6ff57b60e01b815290516001600160a01b0390921691638b6ff57b91600480820192602092909190829003018186803b15801561398057600080fd5b505afa158015613994573d6000803e3d6000fd5b505050506040513d601f19601f820116820180604052508101906139b89190614cb9565b90508015613ab457600054604080516317caf6f160e01b81529051613a4e926001600160a01b0316916317caf6f1916004808301926020929190829003018186803b158015613a0657600080fd5b505afa158015613a1a573d6000803e3d6000fd5b505050506040513d601f19601f82011682018060405250810190613a3e9190614cb9565b6020870151611cb2908490613b50565b609954909650600090613a759061271090611cb2908a90600160a01b900461ffff16613b50565b609b54909150613a8590826136a6565b609b55613aad613aa285611cb264e8d4a5100061340f8c87613447565b6060880151906136a6565b6060870152505b613ad9613ace84611cb264e8d4a5100061340f8c88613447565b6040870151906136a6565b604080870191909152600054905163d4665bb760e01b81526001600160a01b039091169063d4665bb790613b13908b90899060040161529d565b600060405180830381600087803b158015613b2d57600080fd5b505af1158015613b41573d6000803e3d6000fd5b5050505050505050505b915091565b600082613b5f57506000613250565b82820282848281613b6c57fe5b04146134895760405162461bcd60e51b815260040161063690615017565b600061348983836040518060400160405280601a81526020017f536166654d6174683a206469766973696f6e206279207a65726f000000000000815250614729565b3b151590565b303b1590565b600054600160a81b900460ff1680613bf35750613bf3613bd2565b80613c085750600054600160a01b900460ff16155b613c245760405162461bcd60e51b81526004016106369061508d565b600054600160a81b900460ff16158015613c5b576000805460ff60a01b1960ff60a81b19909116600160a81b1716600160a01b1790555b613c63614760565b613c6b6147f8565b80156125fc576000805460ff60a81b1916905550565b600080826001600160a01b03166391328af2856040518263ffffffff1660e01b8152600401613cb09190614e46565b60206040518083038186803b158015613cc857600080fd5b505afa158015613cdc573d6000803e3d6000fd5b505050506040513d601f19601f82011682018060405250810190613d009190614cb9565b9050613d4a81846001600160a01b0316636798f19f886040518263ffffffff1660e01b8152600401613d329190614ebc565b60206040518083038186803b15801561268557600080fd5b9150505b949350505050565b60008060009054906101000a90046001600160a01b03166001600160a01b0316638f33b5e56040518163ffffffff1660e01b815260040160206040518083038186803b158015613da557600080fd5b505afa158015613db9573d6000803e3d6000fd5b505050506040513d601f19601f82011682018060405250810190613ddd9190614b49565b6001600160a01b03166370a08231306040518263ffffffff1660e01b8152600401613e089190614e46565b60206040518083038186803b158015613e2057600080fd5b505afa158015613e34573d6000803e3d6000fd5b505050506040513d601f19601f82011682018060405250810190613e589190614cb9565b905080821115613f6b5760008054906101000a90046001600160a01b03166001600160a01b0316638f33b5e56040518163ffffffff1660e01b815260040160206040518083038186803b158015613eae57600080fd5b505afa158015613ec2573d6000803e3d6000fd5b505050506040513d601f19601f82011682018060405250810190613ee69190614b49565b6001600160a01b031663a9059cbb84836040518363ffffffff1660e01b8152600401613f13929190614e98565b602060405180830381600087803b158015613f2d57600080fd5b505af1158015613f41573d6000803e3d6000fd5b505050506040513d601f19601f82011682018060405250810190613f659190614b2d565b50614070565b60008054906101000a90046001600160a01b03166001600160a01b0316638f33b5e56040518163ffffffff1660e01b815260040160206040518083038186803b158015613fb757600080fd5b505afa158015613fcb573d6000803e3d6000fd5b505050506040513d601f19601f82011682018060405250810190613fef9190614b49565b6001600160a01b031663a9059cbb84846040518363ffffffff1660e01b815260040161401c929190614e98565b602060405180830381600087803b15801561403657600080fd5b505af115801561404a573d6000803e3d6000fd5b505050506040513d601f19601f8201168201806040525081019061406e9190614b2d565b505b614078611b89565b60005460408051638f33b5e560e01b815290516001600160a01b0390921691638f838a9f918391638f33b5e591600480820192602092909190829003018186803b1580156140c557600080fd5b505afa1580156140d9573d6000803e3d6000fd5b505050506040513d601f19601f820116820180604052508101906140fd9190614b49565b6001600160a01b03166370a08231306040518263ffffffff1660e01b81526004016141289190614e46565b60206040518083038186803b15801561414057600080fd5b505afa158015614154573d6000803e3d6000fd5b505050506040513d601f19601f820116820180604052508101906141789190614cb9565b6040518263ffffffff1660e01b815260040161115f9190614ebc565b60008060009054906101000a90046001600160a01b03166001600160a01b031663fb70c3bf6040518163ffffffff1660e01b815260040160206040518083038186803b1580156141e357600080fd5b505afa1580156141f7573d6000803e3d6000fd5b505050506040513d601f19601f8201168201806040525081019061421b9190614b49565b6001600160a01b03166370a08231306040518263ffffffff1660e01b81526004016142469190614e46565b60206040518083038186803b15801561425e57600080fd5b505afa158015614272573d6000803e3d6000fd5b505050506040513d601f19601f820116820180604052508101906142969190614cb9565b9050808211156143a95760008054906101000a90046001600160a01b03166001600160a01b031663fb70c3bf6040518163ffffffff1660e01b815260040160206040518083038186803b1580156142ec57600080fd5b505afa158015614300573d6000803e3d6000fd5b505050506040513d601f19601f820116820180604052508101906143249190614b49565b6001600160a01b031663a9059cbb84836040518363ffffffff1660e01b8152600401614351929190614e98565b602060405180830381600087803b15801561436b57600080fd5b505af115801561437f573d6000803e3d6000fd5b505050506040513d601f19601f820116820180604052508101906143a39190614b2d565b506144ae565b60008054906101000a90046001600160a01b03166001600160a01b031663fb70c3bf6040518163ffffffff1660e01b815260040160206040518083038186803b1580156143f557600080fd5b505afa158015614409573d6000803e3d6000fd5b505050506040513d601f19601f8201168201806040525081019061442d9190614b49565b6001600160a01b031663a9059cbb84846040518363ffffffff1660e01b815260040161445a929190614e98565b602060405180830381600087803b15801561447457600080fd5b505af1158015614488573d6000803e3d6000fd5b505050506040513d601f19601f820116820180604052508101906144ac9190614b2d565b505b6000546040805163fb70c3bf60e01b815290516001600160a01b039092169163094601f191839163fb70c3bf91600480820192602092909190829003018186803b1580156144fb57600080fd5b505afa15801561450f573d6000803e3d6000fd5b505050506040513d601f19601f820116820180604052508101906145339190614b49565b6001600160a01b03166370a08231306040518263ffffffff1660e01b815260040161455e9190614e46565b60206040518083038186803b15801561457657600080fd5b505afa15801561458a573d6000803e3d6000fd5b505050506040513d601f19601f820116820180604052508101906145ae9190614cb9565b6040518263ffffffff1660e01b81526004016145ca9190614ebc565b600060405180830381600087803b1580156145e457600080fd5b505af11580156145f8573d6000803e3d6000fd5b505050506125f9612761565b6060810151815160009161325091906136a6565b6000818484111561463c5760405162461bcd60e51b81526004016106369190614ed5565b505050900390565b614656826001600160a01b03166148e9565b6146725760405162461bcd60e51b8152600401610636906151c6565b60006060836001600160a01b03168360405161468e9190614e2a565b6000604051808303816000865af19150503d80600081146146cb576040519150601f19603f3d011682016040523d82523d6000602084013e6146d0565b606091505b5091509150816146f25760405162461bcd60e51b815260040161063690614f85565b8051156107a0578080602001905181019061470d9190614b2d565b6107a05760405162461bcd60e51b815260040161063690615152565b6000818361474a5760405162461bcd60e51b81526004016106369190614ed5565b50600083858161475657fe5b0495945050505050565b600054600160a81b900460ff168061477b575061477b613bd2565b806147905750600054600160a01b900460ff16155b6147ac5760405162461bcd60e51b81526004016106369061508d565b600054600160a81b900460ff16158015613c6b576000805460ff60a01b1960ff60a81b19909116600160a81b1716600160a01b17905580156125fc576000805460ff60a81b1916905550565b600054600160a81b900460ff16806148135750614813613bd2565b806148285750600054600160a01b900460ff16155b6148445760405162461bcd60e51b81526004016106369061508d565b600054600160a81b900460ff1615801561487b576000805460ff60a01b1960ff60a81b19909116600160a81b1716600160a01b1790555b6000614885613443565b606580546001600160a01b0319166001600160a01b038316908117909155604051919250906000907f8be0079c531659141344cd1fd0a4f28419497f9722a3daafe3b4186f6b6457e0908290a35080156125fc576000805460ff60a81b1916905550565b6000813f7fc5d2460186f7233c927e7db2dcc703c0e500b653ca82273b7bfad8045d85a470818114801590613d4e575050151592915050565b6040518060c0016040528060006001600160a01b03168152602001600081526020016000815260200160008152602001600015158152602001600081525090565b6040518060c001604052806000815260200160008152602001600081526020016000815260200160008152602001600081525090565b60405180606001604052806060815260200160008152602001600080191681525090565b6000602082840312156149ce578081fd5b81356134898161538f565b6000806000606084860312156149ed578182fd5b83356149f88161538f565b92506020840135614a088161538f565b91506040840135614a188161538f565b809150509250925092565b60008060008060808587031215614a38578081fd5b8435614a438161538f565b93506020850135614a538161538f565b92506040850135614a638161538f565b91506060850135614a738161538f565b939692955090935050565b60008060008060808587031215614a93578384fd5b8435614a9e8161538f565b93506020850135614aae8161538f565b93969395505050506040820135916060013590565b600080600060608486031215614ad7578283fd5b8335614ae28161538f565b9250602084013591506040840135614a188161538f565b600080600060608486031215614b0d578283fd5b8335614b188161538f565b95602085013595506040909401359392505050565b600060208284031215614b3e578081fd5b8151613489816153a4565b600060208284031215614b5a578081fd5b81516134898161538f565b60008060008060008060c08789031215614b7d578182fd5b8651614b888161538f565b809650506020870151945060408701519350606087015192506080870151614baf816153a4565b8092505060a087015190509295509295509295565b60006020808385031215614bd6578182fd5b825167ffffffffffffffff80821115614bed578384fd5b9084019060608287031215614c00578384fd5b614c0a6060615318565b825182811115614c18578586fd5b83019150601f82018713614c2a578485fd5b8151614c3d614c388261533f565b615318565b8181528886838601011115614c50578687fd5b614c5f82878301888701615363565b825250828401519381019390935250604090810151908201529392505050565b600060208284031215614c90578081fd5b813561ffff81168114613489578182fd5b600060208284031215614cb2578081fd5b5035919050565b600060208284031215614cca578081fd5b5051919050565b60008060408385031215614ce3578182fd5b823591506020830135614cf58161538f565b809150509250929050565b600080600060608486031215614d14578081fd5b833592506020840135614d268161538f565b91506040840135614a18816153a4565b60008060408385031215614d48578182fd5b50508035926020909101359150565b60008060408385031215614d69578182fd5b505080516020909101519092909150565b600080600060608486031215614d8e578081fd5b83359250602084013591506040840135614a18816153a4565b60008060008060008060c08789031215614dbf578384fd5b865195506020870151945060408701519350606087015192506080870151915060a087015190509295509295509295565b805182526020810151602083015260408101516040830152606081015160608301526080810151608083015260a081015160a08301525050565b60008251614e3c818460208701615363565b9190910192915050565b6001600160a01b0391909116815260200190565b6001600160a01b039384168152919092166020820152604081019190915260600190565b6001600160a01b0392831681529116602082015260400190565b6001600160a01b03929092168252602082015260400190565b901515815260200190565b90815260200190565b9182521515602082015260400190565b6000602082528251806020840152614ef4816040850160208701615363565b601f01601f19169190910160400192915050565b60208082526026908201527f4f776e61626c653a206e6577206f776e657220697320746865207a65726f206160408201526564647265737360d01b606082015260800190565b6020808252601b908201527f536166654d6174683a206164646974696f6e206f766572666c6f770000000000604082015260600190565b6020808252818101527f5361666545524332303a206c6f772d6c6576656c2063616c6c206661696c6564604082015260600190565b6020808252601f908201527f576974686472617720616d6f756e7420657863656564732062616c616e636500604082015260600190565b6020808252600c908201526b4e6f20616c6c6f77616e636560a01b604082015260600190565b60208082526021908201527f536166654d6174683a206d756c7469706c69636174696f6e206f766572666c6f6040820152607760f81b606082015260800190565b6020808252818101527f4f776e61626c653a2063616c6c6572206973206e6f7420746865206f776e6572604082015260600190565b6020808252602e908201527f436f6e747261637420696e7374616e63652068617320616c726561647920626560408201526d195b881a5b9a5d1a585b1a5e995960921b606082015260800190565b6020808252600d908201526c476f76206e6f7420726561647960981b604082015260600190565b6020808252600790820152664d61782031302560c81b604082015260600190565b602080825260159082015274506f6f6c206e6f7420776974686472617761626c6560581b604082015260600190565b6020808252602a908201527f5361666545524332303a204552433230206f7065726174696f6e20646964206e6040820152691bdd081cdd58d8d9595960b21b606082015260800190565b60208082526010908201526f4e6f7420776974686472617761626c6560801b604082015260600190565b6020808252601f908201527f5361666545524332303a2063616c6c20746f206e6f6e2d636f6e747261637400604082015260600190565b9182526001600160a01b0316602082015260400190565b9384526001600160a01b03928316602085015291166040830152606082015260800190565b8381526001600160a01b03831660208201526101008101613d4e6040830184614df0565b9283526001600160a01b03918216602084015216604082015260600190565b9283526001600160a01b039190911660208301521515604082015260600190565b600060e08201905083825260018060a01b0383511660208301526020830151604083015260408301516060830152606083015160808301526080830151151560a083015260a083015160c08301529392505050565b918252602082015260400190565b92835260208301919091521515604082015260600190565b60405181810167ffffffffffffffff8111828210171561533757600080fd5b604052919050565b600067ffffffffffffffff821115615355578081fd5b50601f01601f191660200190565b60005b8381101561537e578181015183820152602001615366565b838111156107a05750506000910152565b6001600160a01b03811681146125fc57600080fd5b80151581146125fc57600080fdfea26469706673582212205938881fe9590b475417367b8739202d4ff2eb5f5e565d87fb96d1532c20e7d864736f6c634300060c0033",
  "devdoc": {
    "kind": "dev",
    "methods": {
      "owner()": {
        "details": "Returns the address of the current owner."
      },
      "renounceOwnership()": {
        "details": "Leaves the contract without owner. It will not be possible to call `onlyOwner` functions anymore. Can only be called by the current owner. NOTE: Renouncing ownership will leave the contract without an owner, thereby removing any functionality that is only available to the owner."
      },
      "transferOwnership(address)": {
        "details": "Transfers ownership of the contract to a new account (`newOwner`). Can only be called by the current owner."
      }
    },
    "version": 1
  },
  "userdoc": {
    "kind": "user",
    "methods": {},
    "version": 1
  },
  "storageLayout": {
    "storage": [
      {
        "astId": 13673,
        "contract": "contracts/RAMVault.sol:RAMVault",
        "label": "_storage",
        "offset": 0,
        "slot": "0",
        "type": "t_contract(YGYStorageV1)15395"
      },
      {
        "astId": 195,
        "contract": "contracts/RAMVault.sol:RAMVault",
        "label": "initialized",
        "offset": 20,
        "slot": "0",
        "type": "t_bool"
      },
      {
        "astId": 198,
        "contract": "contracts/RAMVault.sol:RAMVault",
        "label": "initializing",
        "offset": 21,
        "slot": "0",
        "type": "t_bool"
      },
      {
        "astId": 263,
        "contract": "contracts/RAMVault.sol:RAMVault",
        "label": "______gap",
        "offset": 0,
        "slot": "1",
        "type": "t_array(t_uint256)50_storage"
      },
      {
        "astId": 188,
        "contract": "contracts/RAMVault.sol:RAMVault",
        "label": "__gap",
        "offset": 0,
        "slot": "51",
        "type": "t_array(t_uint256)50_storage"
      },
      {
        "astId": 565,
        "contract": "contracts/RAMVault.sol:RAMVault",
        "label": "_owner",
        "offset": 0,
        "slot": "101",
        "type": "t_address"
      },
      {
        "astId": 683,
        "contract": "contracts/RAMVault.sol:RAMVault",
        "label": "__gap",
        "offset": 0,
        "slot": "102",
        "type": "t_array(t_uint256)49_storage"
      },
      {
        "astId": 11677,
        "contract": "contracts/RAMVault.sol:RAMVault",
        "label": "devaddr",
        "offset": 0,
        "slot": "151",
        "type": "t_address"
      },
      {
        "astId": 11679,
        "contract": "contracts/RAMVault.sol:RAMVault",
        "label": "teamaddr",
        "offset": 0,
        "slot": "152",
        "type": "t_address"
      },
      {
        "astId": 11681,
        "contract": "contracts/RAMVault.sol:RAMVault",
        "label": "regeneratoraddr",
        "offset": 0,
        "slot": "153",
        "type": "t_address"
      },
      {
        "astId": 13129,
        "contract": "contracts/RAMVault.sol:RAMVault",
        "label": "DEV_FEE",
        "offset": 20,
        "slot": "153",
        "type": "t_uint16"
      },
      {
        "astId": 13150,
        "contract": "contracts/RAMVault.sol:RAMVault",
        "label": "pending_DEV_rewards",
        "offset": 0,
        "slot": "154",
        "type": "t_uint256"
      },
      {
        "astId": 13152,
        "contract": "contracts/RAMVault.sol:RAMVault",
        "label": "pending_DEV_YGY_rewards",
        "offset": 0,
        "slot": "155",
        "type": "t_uint256"
      },
      {
        "astId": 13596,
        "contract": "contracts/RAMVault.sol:RAMVault",
        "label": "_superAdmin",
        "offset": 0,
        "slot": "156",
        "type": "t_address"
      }
    ],
    "types": {
      "t_address": {
        "encoding": "inplace",
        "label": "address",
        "numberOfBytes": "20"
      },
      "t_array(t_uint256)49_storage": {
        "base": "t_uint256",
        "encoding": "inplace",
        "label": "uint256[49]",
        "numberOfBytes": "1568"
      },
      "t_array(t_uint256)50_storage": {
        "base": "t_uint256",
        "encoding": "inplace",
        "label": "uint256[50]",
        "numberOfBytes": "1600"
      },
      "t_bool": {
        "encoding": "inplace",
        "label": "bool",
        "numberOfBytes": "1"
      },
      "t_contract(YGYStorageV1)15395": {
        "encoding": "inplace",
        "label": "contract YGYStorageV1",
        "numberOfBytes": "20"
      },
      "t_uint16": {
        "encoding": "inplace",
        "label": "uint16",
        "numberOfBytes": "2"
      },
      "t_uint256": {
        "encoding": "inplace",
        "label": "uint256",
        "numberOfBytes": "32"
      }
    }
  }
}