{
  "address": "0x88796b9c66f55871323cFa10BaB640A32Ce86535",
  "abi": [
    {
      "inputs": [
        {
          "internalType": "address",
          "name": "uniV2Factory",
          "type": "address"
        },
        {
          "internalType": "address",
          "name": "feeApprover",
          "type": "address"
        },
        {
          "internalType": "address",
          "name": "RAMVault",
          "type": "address"
        },
        {
          "internalType": "address",
          "name": "nftFactory",
          "type": "address"
        },
        {
          "internalType": "address payable",
          "name": "_regenerator",
          "type": "address"
        },
        {
          "internalType": "address",
          "name": "__storage",
          "type": "address"
        },
        {
          "internalType": "address",
          "name": "linkAddr",
          "type": "address"
        },
        {
          "internalType": "address",
          "name": "vrfAddr",
          "type": "address"
        }
      ],
      "stateMutability": "nonpayable",
      "type": "constructor"
    },
    {
      "anonymous": false,
      "inputs": [
        {
          "indexed": true,
          "internalType": "address",
          "name": "newAddress",
          "type": "address"
        },
        {
          "indexed": true,
          "internalType": "address",
          "name": "oldAddress",
          "type": "address"
        }
      ],
      "name": "FeeApproverChanged",
      "type": "event"
    },
    {
      "anonymous": false,
      "inputs": [
        {
          "indexed": true,
          "internalType": "address",
          "name": "previousOwner",
          "type": "address"
        },
        {
          "indexed": true,
          "internalType": "address",
          "name": "newOwner",
          "type": "address"
        }
      ],
      "name": "OwnershipTransferred",
      "type": "event"
    },
    {
      "stateMutability": "payable",
      "type": "fallback"
    },
    {
      "inputs": [],
      "name": "MAX",
      "outputs": [
        {
          "internalType": "uint256",
          "name": "",
          "type": "uint256"
        }
      ],
      "stateMutability": "view",
      "type": "function"
    },
    {
      "inputs": [],
      "name": "OFFSET",
      "outputs": [
        {
          "internalType": "uint256",
          "name": "",
          "type": "uint256"
        }
      ],
      "stateMutability": "view",
      "type": "function"
    },
    {
      "inputs": [],
      "name": "SCALE",
      "outputs": [
        {
          "internalType": "uint256",
          "name": "",
          "type": "uint256"
        }
      ],
      "stateMutability": "view",
      "type": "function"
    },
    {
      "inputs": [],
      "name": "SCALIFIER",
      "outputs": [
        {
          "internalType": "uint256",
          "name": "",
          "type": "uint256"
        }
      ],
      "stateMutability": "view",
      "type": "function"
    },
    {
      "inputs": [],
      "name": "_NFTFactory",
      "outputs": [
        {
          "internalType": "contract INFTFactory",
          "name": "",
          "type": "address"
        }
      ],
      "stateMutability": "view",
      "type": "function"
    },
    {
      "inputs": [],
      "name": "_RAMToken",
      "outputs": [
        {
          "internalType": "address",
          "name": "",
          "type": "address"
        }
      ],
      "stateMutability": "view",
      "type": "function"
    },
    {
      "inputs": [],
      "name": "_RAMVault",
      "outputs": [
        {
          "internalType": "contract IRAMVault",
          "name": "",
          "type": "address"
        }
      ],
      "stateMutability": "view",
      "type": "function"
    },
    {
      "inputs": [],
      "name": "_WETH",
      "outputs": [
        {
          "internalType": "contract IWETH",
          "name": "",
          "type": "address"
        }
      ],
      "stateMutability": "view",
      "type": "function"
    },
    {
      "inputs": [],
      "name": "_YGYRAMPair",
      "outputs": [
        {
          "internalType": "address",
          "name": "",
          "type": "address"
        }
      ],
      "stateMutability": "view",
      "type": "function"
    },
    {
      "inputs": [],
      "name": "_YGYToken",
      "outputs": [
        {
          "internalType": "address",
          "name": "",
          "type": "address"
        }
      ],
      "stateMutability": "view",
      "type": "function"
    },
    {
      "inputs": [],
      "name": "_YGYWETHPair",
      "outputs": [
        {
          "internalType": "address",
          "name": "",
          "type": "address"
        }
      ],
      "stateMutability": "view",
      "type": "function"
    },
    {
      "inputs": [],
      "name": "_dXIOTToken",
      "outputs": [
        {
          "internalType": "contract IERC20",
          "name": "",
          "type": "address"
        }
      ],
      "stateMutability": "view",
      "type": "function"
    },
    {
      "inputs": [],
      "name": "_feeApprover",
      "outputs": [
        {
          "internalType": "contract IFeeApprover",
          "name": "",
          "type": "address"
        }
      ],
      "stateMutability": "view",
      "type": "function"
    },
    {
      "inputs": [],
      "name": "_uniV2Factory",
      "outputs": [
        {
          "internalType": "address",
          "name": "",
          "type": "address"
        }
      ],
      "stateMutability": "view",
      "type": "function"
    },
    {
      "inputs": [
        {
          "internalType": "address payable",
          "name": "to",
          "type": "address"
        },
        {
          "internalType": "bool",
          "name": "autoStake",
          "type": "bool"
        }
      ],
      "name": "addLiquidityETHOnly",
      "outputs": [],
      "stateMutability": "payable",
      "type": "function"
    },
    {
      "inputs": [
        {
          "internalType": "uint256",
          "name": "amount",
          "type": "uint256"
        },
        {
          "internalType": "bool",
          "name": "autoStake",
          "type": "bool"
        }
      ],
      "name": "addLiquidityYGYOnly",
      "outputs": [],
      "stateMutability": "payable",
      "type": "function"
    },
    {
      "inputs": [
        {
          "internalType": "address",
          "name": "feeApprover",
          "type": "address"
        }
      ],
      "name": "changeFeeApprover",
      "outputs": [],
      "stateMutability": "nonpayable",
      "type": "function"
    },
    {
      "inputs": [
        {
          "internalType": "uint256",
          "name": "ygyAmt",
          "type": "uint256"
        }
      ],
      "name": "getLPTokenPerYGYUnit",
      "outputs": [
        {
          "internalType": "uint256",
          "name": "liquidity",
          "type": "uint256"
        }
      ],
      "stateMutability": "view",
      "type": "function"
    },
    {
      "inputs": [
        {
          "internalType": "uint256",
          "name": "userProvidedSeed",
          "type": "uint256"
        }
      ],
      "name": "getRandomNumber",
      "outputs": [
        {
          "internalType": "bytes32",
          "name": "requestId",
          "type": "bytes32"
        }
      ],
      "stateMutability": "nonpayable",
      "type": "function"
    },
    {
      "inputs": [
        {
          "internalType": "address",
          "name": "user",
          "type": "address"
        }
      ],
      "name": "getUserLotteryLevel",
      "outputs": [
        {
          "internalType": "uint256",
          "name": "",
          "type": "uint256"
        }
      ],
      "stateMutability": "view",
      "type": "function"
    },
    {
      "inputs": [],
      "name": "governance",
      "outputs": [
        {
          "internalType": "address",
          "name": "",
          "type": "address"
        }
      ],
      "stateMutability": "view",
      "type": "function"
    },
    {
      "inputs": [],
      "name": "lotteryTriggerer",
      "outputs": [
        {
          "internalType": "address",
          "name": "",
          "type": "address"
        }
      ],
      "stateMutability": "view",
      "type": "function"
    },
    {
      "inputs": [
        {
          "internalType": "bytes32",
          "name": "",
          "type": "bytes32"
        }
      ],
      "name": "nonces",
      "outputs": [
        {
          "internalType": "uint256",
          "name": "",
          "type": "uint256"
        }
      ],
      "stateMutability": "view",
      "type": "function"
    },
    {
      "inputs": [],
      "name": "owner",
      "outputs": [
        {
          "internalType": "address",
          "name": "",
          "type": "address"
        }
      ],
      "stateMutability": "view",
      "type": "function"
    },
    {
      "inputs": [],
      "name": "randomResult",
      "outputs": [
        {
          "internalType": "uint256",
          "name": "",
          "type": "uint256"
        }
      ],
      "stateMutability": "view",
      "type": "function"
    },
    {
      "inputs": [
        {
          "internalType": "bytes32",
          "name": "requestId",
          "type": "bytes32"
        },
        {
          "internalType": "uint256",
          "name": "randomness",
          "type": "uint256"
        }
      ],
      "name": "rawFulfillRandomness",
      "outputs": [],
      "stateMutability": "nonpayable",
      "type": "function"
    },
    {
      "inputs": [],
      "name": "refreshApproval",
      "outputs": [],
      "stateMutability": "nonpayable",
      "type": "function"
    },
    {
      "inputs": [],
      "name": "regenerator",
      "outputs": [
        {
          "internalType": "address payable",
          "name": "",
          "type": "address"
        }
      ],
      "stateMutability": "view",
      "type": "function"
    },
    {
      "inputs": [],
      "name": "regeneratorTax",
      "outputs": [
        {
          "internalType": "uint256",
          "name": "",
          "type": "uint256"
        }
      ],
      "stateMutability": "view",
      "type": "function"
    },
    {
      "inputs": [],
      "name": "renounceOwnership",
      "outputs": [],
      "stateMutability": "nonpayable",
      "type": "function"
    },
    {
      "inputs": [],
      "name": "rngLinkFee",
      "outputs": [
        {
          "internalType": "uint256",
          "name": "",
          "type": "uint256"
        }
      ],
      "stateMutability": "view",
      "type": "function"
    },
    {
      "inputs": [
        {
          "internalType": "uint256",
          "name": "userProvidedSeed",
          "type": "uint256"
        }
      ],
      "name": "selfRequestRandomNumber",
      "outputs": [
        {
          "internalType": "bytes32",
          "name": "requestId",
          "type": "bytes32"
        }
      ],
      "stateMutability": "nonpayable",
      "type": "function"
    },
    {
      "inputs": [
        {
          "internalType": "address",
          "name": "feeApproverAddress",
          "type": "address"
        }
      ],
      "name": "setFeeApprover",
      "outputs": [],
      "stateMutability": "nonpayable",
      "type": "function"
    },
    {
      "inputs": [
        {
          "internalType": "address",
          "name": "_governance",
          "type": "address"
        }
      ],
      "name": "setGovernance",
      "outputs": [],
      "stateMutability": "nonpayable",
      "type": "function"
    },
    {
      "inputs": [
        {
          "internalType": "uint256",
          "name": "_regeneratorTax",
          "type": "uint256"
        }
      ],
      "name": "setRegeneratorTax",
      "outputs": [],
      "stateMutability": "nonpayable",
      "type": "function"
    },
    {
      "inputs": [],
      "name": "setTokens",
      "outputs": [],
      "stateMutability": "nonpayable",
      "type": "function"
    },
    {
      "inputs": [],
      "name": "sync",
      "outputs": [],
      "stateMutability": "nonpayable",
      "type": "function"
    },
    {
      "inputs": [],
      "name": "ticketCount",
      "outputs": [
        {
          "internalType": "uint256",
          "name": "",
          "type": "uint256"
        }
      ],
      "stateMutability": "view",
      "type": "function"
    },
    {
      "inputs": [
        {
          "internalType": "uint256",
          "name": "",
          "type": "uint256"
        }
      ],
      "name": "tickets",
      "outputs": [
        {
          "internalType": "address",
          "name": "owner",
          "type": "address"
        },
        {
          "internalType": "uint256",
          "name": "levelOneChance",
          "type": "uint256"
        },
        {
          "internalType": "uint256",
          "name": "levelTwoChance",
          "type": "uint256"
        },
        {
          "internalType": "uint256",
          "name": "levelThreeChance",
          "type": "uint256"
        },
        {
          "internalType": "uint256",
          "name": "levelFourChance",
          "type": "uint256"
        },
        {
          "internalType": "uint256",
          "name": "levelFiveChance",
          "type": "uint256"
        }
      ],
      "stateMutability": "view",
      "type": "function"
    },
    {
      "inputs": [
        {
          "internalType": "address",
          "name": "newOwner",
          "type": "address"
        }
      ],
      "name": "transferOwnership",
      "outputs": [],
      "stateMutability": "nonpayable",
      "type": "function"
    },
    {
      "inputs": [],
      "name": "triggerLottery",
      "outputs": [],
      "stateMutability": "nonpayable",
      "type": "function"
    },
    {
      "inputs": [
        {
          "internalType": "bytes32",
          "name": "_keyHash",
          "type": "bytes32"
        }
      ],
      "name": "updateKeyHash",
      "outputs": [],
      "stateMutability": "nonpayable",
      "type": "function"
    },
    {
      "inputs": [
        {
          "internalType": "uint256",
          "name": "_rngLinkFee",
          "type": "uint256"
        }
      ],
      "name": "updateRngLinkFee",
      "outputs": [],
      "stateMutability": "nonpayable",
      "type": "function"
    }
  ],
  "transactionHash": "0x476fe13d9469a1069e41b61c776cfc6e2ca62788e858cb9d91b3b0233b60b16b",
  "args": [
    "0x5C69bEe701ef814a2B6a3EDD4B1652CB9cc5aA6f",
    "0x229326aA44F0ed3611Fde6e1197F4dF6059727a5",
    "0x946068D93E69312f6dd7C5211CBFe0f7EC227a95",
    "0xe00D12Ee73A66FeDD4a4FD8D42abaF438FdD968E",
    "0x7D60283E2Fad83bb81356F317009304082734D36",
    "0xEE6cC33Ff0f7B62f7fdB5eC6ffbbbE3090eaF2C3",
    "0xa36085F69e2889c224210F603D836748e7dC0088",
    "0xdD3782915140c8f3b190B5D67eAc6dc5760C46E9"
  ],
  "solcInputHash": "bc1a585417435c540b4e50cc1976e9a1",
  "bytecode": "0x60c06040523480156200001157600080fd5b506040516200436338038062004363833981016040819052620000349162000365565b6001600160601b0319606082811b821660a05283901b1660805262000058620000fe565b5050609a80546001600160a01b03199081166001600160a01b0398891617909155609880548216968816969096179095556099805486169487169490941790935560a9805485169286169290921790915560008054841692851692909217909155609c805490921692169190911790557f6c3699283bda56ad74f6b855546325b68d482e983852a7a82979cc4807b641f460a05567016345785d8a0000609f5562000489565b600054600160a81b900460ff16806200011c57506200011c620001be565b80620001325750600054600160a01b900460ff16155b6200015a5760405162461bcd60e51b8152600401620001519062000425565b60405180910390fd5b600054600160a81b900460ff1615801562000192576000805460ff60a01b1960ff60a81b19909116600160a81b1716600160a01b1790555b6200019c620001c4565b620001a662000265565b8015620001bb576000805460ff60a81b191690555b50565b303b1590565b600054600160a81b900460ff1680620001e25750620001e2620001be565b80620001f85750600054600160a01b900460ff16155b620002175760405162461bcd60e51b8152600401620001519062000425565b600054600160a81b900460ff16158015620001a6576000805460ff60a01b1960ff60a81b19909116600160a81b1716600160a01b1790558015620001bb576000805460ff60a81b1916905550565b600054600160a81b900460ff168062000283575062000283620001be565b80620002995750600054600160a01b900460ff16155b620002b85760405162461bcd60e51b8152600401620001519062000425565b600054600160a81b900460ff16158015620002f0576000805460ff60a01b1960ff60a81b19909116600160a81b1716600160a01b1790555b6000620002fc62000361565b606580546001600160a01b0319166001600160a01b038316908117909155604051919250906000907f8be0079c531659141344cd1fd0a4f28419497f9722a3daafe3b4186f6b6457e0908290a3508015620001bb576000805460ff60a81b1916905550565b3390565b600080600080600080600080610100898b03121562000382578384fd5b88516200038f8162000473565b60208a0151909850620003a28162000473565b60408a0151909750620003b58162000473565b60608a0151909650620003c88162000473565b60808a0151909550620003db8162000473565b60a08a0151909450620003ee8162000473565b60c08a0151909350620004018162000473565b60e08a0151909250620004148162000473565b809150509295985092959890939650565b6020808252602e908201527f436f6e747261637420696e7374616e63652068617320616c726561647920626560408201526d195b881a5b9a5d1a585b1a5e995960921b606082015260800190565b6001600160a01b0381168114620001bb57600080fd5b60805160601c60a05160601c613ea1620004c26000398061122e5280612033525080610bf6528061151c52806120045250613ea16000f3fe60806040526004361061025c5760003560e01c8063ab033ea911610144578063d49d5181116100b6578063f2fde38b1161007a578063f2fde38b14610644578063f4ab1a9314610664578063f7db38cb14610679578063fa69669c1461068e578063faf5db8e146106a3578063fff6cae9146106b85761025c565b8063d49d5181146105d0578063e0614322146105e5578063e0af3616146105fa578063e7fa67e51461060f578063eced55261461062f5761025c565b8063b93b4bb711610108578063b93b4bb71461053c578063bf33a1f51461055c578063cb5b332e14610571578063cde7bc7014610591578063ce665dd8146105a6578063cfbd900f146105bb5761025c565b8063ab033ea9146104b4578063adf5e1b1146104d4578063b082cc26146104e7578063b37217a414610507578063b81a0b4c146105275761025c565b806342619f66116101dd578063571c2b4d116101a1578063571c2b4d146104205780635aa6e67514610435578063715018a61461044a5780638da5cb5b1461045f57806394985ddd146104745780639e317f12146104945761025c565b806342619f661461038f5780634601723a146103a457806350b44712146103c457806353b77f52146103f6578063559ed3391461040b5761025c565b80632f4f8a7a116102245780632f4f8a7a146103105780633023af2d1461032557806330e588ac1461033a5780633b24bd4a1461035a5780633cb0b92d1461036f5761025c565b80630c57af6c1461027b5780630eb1f9081461028e57806313d4829b146102b957806322d5b25c146102d957806329e015ba146102fb575b60a5546001600160a01b03163314610279576102793360006106cd565b005b610279610289366004613684565b6106cd565b34801561029a57600080fd5b506102a36109de565b6040516102b09190613917565b60405180910390f35b3480156102c557600080fd5b506102a36102d4366004613706565b6109e4565b3480156102e557600080fd5b506102ee610b5f565b6040516102b09190613828565b34801561030757600080fd5b506102ee610b6e565b34801561031c57600080fd5b506102ee610b7d565b34801561033157600080fd5b506102ee610b8c565b34801561034657600080fd5b50610279610355366004613706565b610b9b565b34801561036657600080fd5b506102ee610bca565b34801561037b57600080fd5b506102a361038a366004613706565b610bd9565b34801561039b57600080fd5b506102a3610cc6565b3480156103b057600080fd5b506102796103bf36600461364c565b610ccc565b3480156103d057600080fd5b506103e46103df366004613706565b610d52565b6040516102b0969594939291906138e4565b34801561040257600080fd5b50610279610d91565b34801561041757600080fd5b50610279610dbf565b34801561042c57600080fd5b506102ee611177565b34801561044157600080fd5b506102ee611186565b34801561045657600080fd5b50610279611195565b34801561046b57600080fd5b506102ee611214565b34801561048057600080fd5b5061027961048f36600461371e565b611223565b3480156104a057600080fd5b506102a36104af366004613706565b611279565b3480156104c057600080fd5b506102796104cf36600461364c565b61128b565b6102796104e23660046137ab565b6112eb565b3480156104f357600080fd5b5061027961050236600461364c565b6114be565b34801561051357600080fd5b506102a3610522366004613706565b611515565b34801561053357600080fd5b506102ee6115e3565b34801561054857600080fd5b506102a361055736600461364c565b6115f2565b34801561056857600080fd5b506102796117ca565b34801561057d57600080fd5b5061027961058c366004613706565b611857565b34801561059d57600080fd5b506102ee611891565b3480156105b257600080fd5b506102a36118a0565b3480156105c757600080fd5b506102a36118a5565b3480156105dc57600080fd5b506102a36118ab565b3480156105f157600080fd5b506102ee6118b1565b34801561060657600080fd5b506102ee6118c0565b34801561061b57600080fd5b5061027961062a366004613706565b6118cf565b34801561063b57600080fd5b506102a3611909565b34801561065057600080fd5b5061027961065f36600461364c565b61190e565b34801561067057600080fd5b506102a36119c5565b34801561068557600080fd5b506102ee6119e9565b34801561069a57600080fd5b506102ee6119f8565b3480156106af57600080fd5b506102a3611a07565b3480156106c457600080fd5b50610279611a0d565b6001600160a01b0382166106fc5760405162461bcd60e51b81526004016106f3906139a8565b60405180910390fd5b348061071a5760405162461bcd60e51b81526004016106f390613d3b565b60a560009054906101000a90046001600160a01b03166001600160a01b031663d0e30db0346040518263ffffffff1660e01b81526004016000604051808303818588803b15801561076a57600080fd5b505af115801561077e573d6000803e3d6000fd5b505050505060008061078e611a8c565b91509150600061079f848484611b78565b60a55460a35460405163a9059cbb60e01b81529293506001600160a01b039182169263a9059cbb926107d79216908890600401613881565b602060405180830381600087803b1580156107f157600080fd5b505af1158015610805573d6000803e3d6000fd5b505050506040513d601f19601f8201168201806040525081019061082991906136bc565b5060008054604051633834374960e11b81526001600160a01b03909116916370686e929161085e918a9189919060040161389a565b600060405180830381600087803b15801561087857600080fd5b505af115801561088c573d6000803e3d6000fd5b505060a55460a254600093508392506108b1916001600160a01b039081169116611c12565b60a35460a2549294509092506001600160a01b039081169163022c0d9f918086169116146108e05760006108e2565b845b60a2546001600160a01b038581169116146108fe576000610900565b855b306040518463ffffffff1660e01b815260040161091f93929190613e05565b600060405180830381600087803b15801561093957600080fd5b505af115801561094d573d6000803e3d6000fd5b505050506000610973606461096d609d5487611c9c90919063ffffffff16565b90611cdf565b609c546040519192506001600160a01b03169082156108fc029083906000818181858888f193505050501580156109ae573d6000803e3d6000fd5b5060006109bb8583611d21565b90506109d26109cb826002611cdf565b8b8b611d63565b50505050505050505050565b609f5481565b60008060006109f1611f0d565b90925090506000610a0d610a06866002611cdf565b8484611b78565b9050600060a160009054906101000a90046001600160a01b03166001600160a01b03166318160ddd6040518163ffffffff1660e01b815260040160206040518083038186803b158015610a5f57600080fd5b505afa158015610a73573d6000803e3d6000fd5b505050506040513d601f19601f82011682018060405250810190610a979190613793565b60a25460a454919250600091610ab9916001600160a01b039081169116611c12565b5060a45490915060009081906001600160a01b03808516911614610ae857610ae2896002611cdf565b85610af4565b84610af48a6002611cdf565b60a454919350915060009081906001600160a01b03868116911614610b1a578888610b1d565b87895b9092509050610b5082610b308689611c9c565b81610b3757fe5b0482610b43868a611c9c565b81610b4a57fe5b04611fea565b9b9a5050505050505050505050565b6098546001600160a01b031681565b6099546001600160a01b031681565b60a1546001600160a01b031681565b609a546001600160a01b031681565b609b546001600160a01b03163314610bc55760405162461bcd60e51b81526004016106f390613a77565b609d55565b60a3546001600160a01b031681565b609f546040516323b872dd60e01b81526000916001600160a01b037f000000000000000000000000000000000000000000000000000000000000000016916323b872dd91610c2d913391309160040161383c565b602060405180830381600087803b158015610c4757600080fd5b505af1158015610c5b573d6000803e3d6000fd5b505050506040513d601f19601f82011682018060405250810190610c7f91906136bc565b610c9b5760405162461bcd60e51b81526004016106f390613cc0565b60aa80546001600160a01b0319163317905560a054609f54610cbe919084612000565b90505b919050565b609e5481565b610cd4612143565b6065546001600160a01b03908116911614610d015760405162461bcd60e51b81526004016106f390613c0f565b609880546001600160a01b038381166001600160a01b03198316811790935560405191169182917f9e4368dbddb338dc373020f18730584d6e9aaacad2101be6bd6d0a21fe59ffbc90600090a35050565b60a8602052600090815260409020805460018201546002830154600384015460048501546005909501546001600160a01b039094169492939192909186565b609e54610db05760405162461bcd60e51b81526004016106f390613971565b610db8612147565b6000609e55565b610dc7612143565b6065546001600160a01b03908116911614610df45760405162461bcd60e51b81526004016106f390613c0f565b60008054906101000a90046001600160a01b03166001600160a01b0316632f4f8a7a6040518163ffffffff1660e01b815260040160206040518083038186803b158015610e4057600080fd5b505afa158015610e54573d6000803e3d6000fd5b505050506040513d601f19601f82011682018060405250810190610e789190613668565b60a180546001600160a01b0319166001600160a01b039283161790556000546040805163f7db38cb60e01b81529051919092169163f7db38cb916004808301926020929190829003018186803b158015610ed157600080fd5b505afa158015610ee5573d6000803e3d6000fd5b505050506040513d601f19601f82011682018060405250810190610f099190613668565b60a280546001600160a01b0319166001600160a01b0392831617905560005460408051631d925ea560e11b815290519190921691633b24bd4a916004808301926020929190829003018186803b158015610f6257600080fd5b505afa158015610f76573d6000803e3d6000fd5b505050506040513d601f19601f82011682018060405250810190610f9a9190613668565b60a380546001600160a01b0319166001600160a01b0392831617905560005460408051633e9a59a760e21b81529051919092169163fa69669c916004808301926020929190829003018186803b158015610ff357600080fd5b505afa158015611007573d6000803e3d6000fd5b505050506040513d601f19601f8201168201806040525081019061102b9190613668565b60a480546001600160a01b0319166001600160a01b03928316179055600054604080516370579b0b60e11b81529051919092169163e0af3616916004808301926020929190829003018186803b15801561108457600080fd5b505afa158015611098573d6000803e3d6000fd5b505050506040513d601f19601f820116820180604052508101906110bc9190613668565b60a580546001600160a01b0319166001600160a01b0392831617905560005460408051632e0682d360e21b81529051919092169163b81a0b4c916004808301926020929190829003018186803b15801561111557600080fd5b505afa158015611129573d6000803e3d6000fd5b505050506040513d601f19601f8201168201806040525081019061114d9190613668565b60a680546001600160a01b0319166001600160a01b03929092169190911790556111756117ca565b565b609c546001600160a01b031681565b609b546001600160a01b031681565b61119d612143565b6065546001600160a01b039081169116146111ca5760405162461bcd60e51b81526004016106f390613c0f565b6065546040516000916001600160a01b0316907f8be0079c531659141344cd1fd0a4f28419497f9722a3daafe3b4186f6b6457e0908390a3606580546001600160a01b0319169055565b6065546001600160a01b031690565b336001600160a01b037f0000000000000000000000000000000000000000000000000000000000000000161461126b5760405162461bcd60e51b81526004016106f390613c44565b611275828261279b565b5050565b60976020526000908152604090205481565b609a54600160a01b900460ff16156112b55760405162461bcd60e51b81526004016106f390613dbd565b609a805460ff60a01b1916600160a01b179055609b80546001600160a01b039092166001600160a01b0319909216919091179055565b6000821161130b5760405162461bcd60e51b81526004016106f390613a40565b60a2546040516323b872dd60e01b81526001600160a01b03909116906323b872dd9061133f9033903090879060040161383c565b602060405180830381600087803b15801561135957600080fd5b505af115801561136d573d6000803e3d6000fd5b505050506040513d601f19601f8201168201806040525081019061139191906136bc565b6113ad5760405162461bcd60e51b81526004016106f390613b69565b6000806113b8611a8c565b9150915060006113c9858385611b78565b905060006113e7606461096d609d5489611c9c90919063ffffffff16565b609c546040519192506001600160a01b03169082156108fc029083906000818181858888f19350505050158015611422573d6000803e3d6000fd5b5060008054604051633834374960e11b81526001600160a01b03909116916370686e929161145791339187919060040161389a565b600060405180830381600087803b15801561147157600080fd5b505af1158015611485573d6000803e3d6000fd5b50505050600061149e8288611d2190919063ffffffff16565b90506114b56114ae826002611cdf565b3388611d63565b50505050505050565b6114c6612143565b6065546001600160a01b039081169116146114f35760405162461bcd60e51b81526004016106f390613c0f565b609880546001600160a01b0319166001600160a01b0392909216919091179055565b6000609f547f00000000000000000000000000000000000000000000000000000000000000006001600160a01b03166370a08231306040518263ffffffff1660e01b81526004016115669190613828565b60206040518083038186803b15801561157e57600080fd5b505afa158015611592573d6000803e3d6000fd5b505050506040513d601f19601f820116820180604052508101906115b69190613793565b10156115d45760405162461bcd60e51b81526004016106f390613b97565b610cbe60a054609f5484612000565b60a6546001600160a01b031681565b6000805460405163568a0a5960e11b815282916001600160a01b03169063ad1414b290611623908690600401613828565b60206040518083038186803b15801561163b57600080fd5b505afa15801561164f573d6000803e3d6000fd5b505050506040513d601f19601f820116820180604052508101906116739190613793565b9050670de0b6b3a764000081101561168f576000915050610cc1565b670de0b6b3a764000081101580156116ae5750674563918244f4000081105b156116bd576001915050610cc1565b674563918244f4000081101580156116dc5750678ac7230489e8000081105b156116eb576002915050610cc1565b678ac7230489e80000811015801561170b57506801158e460913d0000081105b1561171a576003915050610cc1565b6801158e460913d00000811015801561173b57506801a055690d9db8000081105b1561174a576004915050610cc1565b6801a055690d9db80000811015801561176b575068022b1c8c1227a0000081105b1561177a576005915050610cc1565b68022b1c8c1227a00000811015801561179b57506802b5e3af16b188000081105b156117aa576006915050610cc1565b6802b5e3af16b188000081106117c4576007915050610cc1565b50919050565b60a15460995460405163095ea7b360e01b81526001600160a01b039283169263095ea7b3926118029291169060001990600401613881565b602060405180830381600087803b15801561181c57600080fd5b505af1158015611830573d6000803e3d6000fd5b505050506040513d601f19601f8201168201806040525081019061185491906136bc565b50565b61185f612143565b6065546001600160a01b0390811691161461188c5760405162461bcd60e51b81526004016106f390613c0f565b609f55565b60a9546001600160a01b031681565b600181565b60a75481565b60001981565b60aa546001600160a01b031681565b60a5546001600160a01b031681565b6118d7612143565b6065546001600160a01b039081169116146119045760405162461bcd60e51b81526004016106f390613c0f565b60a055565b606481565b611916612143565b6065546001600160a01b039081169116146119435760405162461bcd60e51b81526004016106f390613c0f565b6001600160a01b0381166119695760405162461bcd60e51b81526004016106f3906139d1565b6065546040516001600160a01b038084169216907f8be0079c531659141344cd1fd0a4f28419497f9722a3daafe3b4186f6b6457e090600090a3606580546001600160a01b0319166001600160a01b0392909216919091179055565b7f028f5c28f5c28f5c28f5c28f5c28f5c28f5c28f5c28f5c28f5c28f5c28f5c28f81565b60a2546001600160a01b031681565b60a4546001600160a01b031681565b609d5481565b6098546040805160016209351760e01b0319815281516001600160a01b039093169263fff6cae9926004808401939192918290030181600087803b158015611a5457600080fd5b505af1158015611a68573d6000803e3d6000fd5b505050506040513d601f19601f8201168201806040525081019061127591906136d8565b60a55460a25460009182918291611aaf916001600160a01b039182169116611c12565b50905060008060a360009054906101000a90046001600160a01b03166001600160a01b0316630902f1ac6040518163ffffffff1660e01b815260040160606040518083038186803b158015611b0357600080fd5b505afa158015611b17573d6000803e3d6000fd5b505050506040513d601f19601f82011682018060405250810190611b3b919061373f565b5060a2546001600160701b039283169450911691506001600160a01b03848116911614611b69578181611b6c565b80825b90969095509350505050565b6000808411611b995760405162461bcd60e51b81526004016106f390613d72565b600083118015611ba95750600082115b611bc55760405162461bcd60e51b81526004016106f390613b21565b6000611bd3856103e5611c9c565b90506000611be18285611c9c565b90506000611bfb83611bf5886103e8611c9c565b90612933565b9050808281611c0657fe5b04979650505050505050565b600080826001600160a01b0316846001600160a01b03161415611c475760405162461bcd60e51b81526004016106f390613adc565b826001600160a01b0316846001600160a01b031610611c67578284611c6a565b83835b90925090506001600160a01b038216611c955760405162461bcd60e51b81526004016106f390613d04565b9250929050565b600082611cab57506000611cd9565b82820282848281611cb857fe5b0414611cd65760405162461bcd60e51b81526004016106f390613bce565b90505b92915050565b6000611cd683836040518060400160405280601a81526020017f536166654d6174683a206469766973696f6e206279207a65726f000000000000815250612958565b6000611cd683836040518060400160405280601e81526020017f536166654d6174683a207375627472616374696f6e206f766572666c6f77000081525061298f565b600080611d6e611f0d565b915091506000611d7f868484611b78565b60a25460a15460405163a9059cbb60e01b81529293506001600160a01b039182169263a9059cbb92611db79216908a90600401613881565b602060405180830381600087803b158015611dd157600080fd5b505af1158015611de5573d6000803e3d6000fd5b505050506040513d601f19601f82011682018060405250810190611e0991906136bc565b611e255760405162461bcd60e51b81526004016106f390613a17565b60a25460a4546000918291611e46916001600160a01b039081169116611c12565b60a15460a4549294509092506001600160a01b039081169163022c0d9f91808616911614611e75576000611e77565b845b60a4546001600160a01b03858116911614611e93576000611e95565b855b306040518463ffffffff1660e01b8152600401611eb493929190613e05565b600060405180830381600087803b158015611ece57600080fd5b505af1158015611ee2573d6000803e3d6000fd5b50505050611ef2838989896129bb565b611efb87612e3e565b611f03611a0d565b5050505050505050565b60a25460a45460009182918291611f30916001600160a01b039182169116611c12565b50905060008060a160009054906101000a90046001600160a01b03166001600160a01b0316630902f1ac6040518163ffffffff1660e01b815260040160606040518083038186803b158015611f8457600080fd5b505afa158015611f98573d6000803e3d6000fd5b505050506040513d601f19601f82011682018060405250810190611fbc919061373f565b5060a4546001600160701b039283169450911691506001600160a01b03848116911614611b69578181611b6c565b6000818310611ff95781611cd6565b5090919050565b60007f00000000000000000000000000000000000000000000000000000000000000006001600160a01b0316634000aea07f000000000000000000000000000000000000000000000000000000000000000085878660405160200161206692919061381a565b6040516020818303038152906040526040518463ffffffff1660e01b8152600401612093939291906138bd565b602060405180830381600087803b1580156120ad57600080fd5b505af11580156120c1573d6000803e3d6000fd5b505050506040513d601f19601f820116820180604052508101906120e591906136bc565b5060008481526097602052604081205461210490869085903090613338565b600086815260976020526040902054909150612121906001612933565b60008681526097602052604090205561213a8582613372565b95945050505050565b3390565b60005b60a75481101561278e5761215c61360d565b50600081815260a86020908152604091829020825160c08101845281546001600160a01b03168152600182015492810183905260028201549381019390935260038101546060840152600481015460808401526005015460a0830152609e54116122a75760a95460005460405163795d79f560e01b81526001600160a01b039283169263c6c3bbe692169063795d79f5906121fc90600190600401613917565b60206040518083038186803b15801561221457600080fd5b505afa158015612228573d6000803e3d6000fd5b505050506040513d601f19601f8201168201806040525081019061224c9190613668565b8351609e546040516001600160e01b031960e086901b1681526122749392919060040161383c565b600060405180830381600087803b15801561228e57600080fd5b505af11580156122a2573d6000803e3d6000fd5b505050505b8060400151609e541161239b5760a95460005460405163795d79f560e01b81526001600160a01b039283169263c6c3bbe692169063795d79f5906122f090600290600401613917565b60206040518083038186803b15801561230857600080fd5b505afa15801561231c573d6000803e3d6000fd5b505050506040513d601f19601f820116820180604052508101906123409190613668565b8351609e546040516001600160e01b031960e086901b1681526123689392919060040161383c565b600060405180830381600087803b15801561238257600080fd5b505af1158015612396573d6000803e3d6000fd5b505050505b8060600151609e541161248f5760a95460005460405163795d79f560e01b81526001600160a01b039283169263c6c3bbe692169063795d79f5906123e490600390600401613917565b60206040518083038186803b1580156123fc57600080fd5b505afa158015612410573d6000803e3d6000fd5b505050506040513d601f19601f820116820180604052508101906124349190613668565b8351609e546040516001600160e01b031960e086901b16815261245c9392919060040161383c565b600060405180830381600087803b15801561247657600080fd5b505af115801561248a573d6000803e3d6000fd5b505050505b8060800151609e54116125825760a95460005460405163795d79f560e01b81526001600160a01b039283169263c6c3bbe692169063795d79f5906124d7906004908101613917565b60206040518083038186803b1580156124ef57600080fd5b505afa158015612503573d6000803e3d6000fd5b505050506040513d601f19601f820116820180604052508101906125279190613668565b8351609e546040516001600160e01b031960e086901b16815261254f9392919060040161383c565b600060405180830381600087803b15801561256957600080fd5b505af115801561257d573d6000803e3d6000fd5b505050505b8060a00151609e54116126765760a95460005460405163795d79f560e01b81526001600160a01b039283169263c6c3bbe692169063795d79f5906125cb90600590600401613917565b60206040518083038186803b1580156125e357600080fd5b505afa1580156125f7573d6000803e3d6000fd5b505050506040513d601f19601f8201168201806040525081019061261b9190613668565b8351609e546040516001600160e01b031960e086901b1681526126439392919060040161383c565b600060405180830381600087803b15801561265d57600080fd5b505af1158015612671573d6000803e3d6000fd5b505050505b600080548251604051633834374960e11b81526001600160a01b03909216926370686e92926126ac92919060019060040161389a565b600060405180830381600087803b1580156126c657600080fd5b505af11580156126da573d6000803e3d6000fd5b505050600083815260a8602052604080822080546001600160a01b031916815560018101839055600281018390556003810183905560048082018490556005909101839055825485519251631695fb2f60e31b81526001600160a01b03909116945063b4afd9789361274f9392909101613881565b600060405180830381600087803b15801561276957600080fd5b505af115801561277d573d6000803e3d6000fd5b50506001909301925061214a915050565b506000609e81905560a755565b6127a4816133a5565b609e556000805460405163795d79f560e01b81526001600160a01b039091169063795d79f5906127d990600790600401613917565b60206040518083038186803b1580156127f157600080fd5b505afa158015612805573d6000803e3d6000fd5b505050506040513d601f19601f820116820180604052508101906128299190613668565b60aa546040516370a0823160e01b81529192506001600160a01b03808416926370a082319261285c921690600401613828565b60206040518083038186803b15801561287457600080fd5b505afa158015612888573d6000803e3d6000fd5b505050506040513d601f19601f820116820180604052508101906128ac9190613793565b61291e5760a95460aa54609e54604051636361ddf360e11b81526001600160a01b039384169363c6c3bbe6936128eb938793929091169160040161383c565b600060405180830381600087803b15801561290557600080fd5b505af1158015612919573d6000803e3d6000fd5b505050505b505060aa80546001600160a01b031916905550565b600082820183811015611cd65760405162461bcd60e51b81526004016106f390613aa5565b600081836129795760405162461bcd60e51b81526004016106f3919061395e565b50600083858161298557fe5b0495945050505050565b600081848411156129b35760405162461bcd60e51b81526004016106f3919061395e565b505050900390565b6000806129c6611f0d565b9150915060006129d78684846133b1565b90506000878211156129f8576129ee8884866133b1565b90508791506129fb565b50855b60a25460a15460405163a9059cbb60e01b81526001600160a01b039283169263a9059cbb92612a31929116908590600401613881565b602060405180830381600087803b158015612a4b57600080fd5b505af1158015612a5f573d6000803e3d6000fd5b505050506040513d601f19601f82011682018060405250810190612a8391906136bc565b612a8957fe5b60a45460a15460405163a9059cbb60e01b81526001600160a01b039283169263a9059cbb92612abf929116908690600401613881565b602060405180830381600087803b158015612ad957600080fd5b505af1158015612aed573d6000803e3d6000fd5b505050506040513d601f19601f82011682018060405250810190612b1191906136bc565b612b1757fe5b8415612c875760a1546040516335313c2160e11b81526001600160a01b0390911690636a62784290612b4d903090600401613828565b602060405180830381600087803b158015612b6757600080fd5b505af1158015612b7b573d6000803e3d6000fd5b505050506040513d601f19601f82011682018060405250810190612b9f9190613793565b5060995460a1546040516370a0823160e01b81526001600160a01b0392831692634cf5fbf5928a92600092909116906370a0823190612be2903090600401613828565b60206040518083038186803b158015612bfa57600080fd5b505afa158015612c0e573d6000803e3d6000fd5b505050506040513d601f19601f82011682018060405250810190612c329190613793565b6040518463ffffffff1660e01b8152600401612c5093929190613860565b600060405180830381600087803b158015612c6a57600080fd5b505af1158015612c7e573d6000803e3d6000fd5b50505050612d0b565b60a1546040516335313c2160e11b81526001600160a01b0390911690636a62784290612cb7908990600401613828565b602060405180830381600087803b158015612cd157600080fd5b505af1158015612ce5573d6000803e3d6000fd5b505050506040513d601f19601f82011682018060405250810190612d099190613793565b505b81881115612da05760a4546001600160a01b031663a9059cbb87612d2f8b86611d21565b6040518363ffffffff1660e01b8152600401612d4c929190613881565b602060405180830381600087803b158015612d6657600080fd5b505af1158015612d7a573d6000803e3d6000fd5b505050506040513d601f19601f82011682018060405250810190612d9e91906136bc565b505b80871115611f035760a2546001600160a01b031663a9059cbb87612dc48a85611d21565b6040518363ffffffff1660e01b8152600401612de1929190613881565b602060405180830381600087803b158015612dfb57600080fd5b505af1158015612e0f573d6000803e3d6000fd5b505050506040513d601f19601f82011682018060405250810190612e3391906136bc565b505050505050505050565b600080546040516333103d9960e21b81526001600160a01b039091169063cc40f66490612e6f908590600401613828565b60206040518083038186803b158015612e8757600080fd5b505afa158015612e9b573d6000803e3d6000fd5b505050506040513d601f19601f82011682018060405250810190612ebf9190613793565b90506000612ecc836115f2565b9050815b8181101561323157612ee061360d565b81612f27576040518060c00160405280866001600160a01b0316815260200160328152602001600081526020016000815260200160008152602001600081525090506131a9565b8160011415612f72576040518060c00160405280866001600160a01b03168152602001604b8152602001603281526020016000815260200160008152602001600081525090506131a9565b8160021415612fbd576040518060c00160405280866001600160a01b0316815260200160648152602001604b81526020016032815260200160008152602001600081525090506131a9565b8160031415613008576040518060c00160405280866001600160a01b031681526020016064815260200160648152602001604b815260200160328152602001600081525090506131a9565b8160041415613053576040518060c00160405280866001600160a01b03168152602001606481526020016064815260200160648152602001604b8152602001603281525090506131a9565b816005141561309e576040518060c00160405280866001600160a01b0316815260200160648152602001606481526020016064815260200160648152602001603281525090506131a9565b81600614156131a95760a7600081548092919060010191905055506040518060c00160405280866001600160a01b0316815260200160648152602001606481526020016064815260200160648152602001606481525060a8600060a754815260200190815260200160002060008201518160000160006101000a8154816001600160a01b0302191690836001600160a01b031602179055506020820151816001015560408201518160020155606082015181600301556080820151816004015560a082015181600501559050506040518060c00160405280866001600160a01b0316815260200160648152602001606481526020016064815260200160648152602001600081525090505b80516001600160a01b0316156132285760a78054600190810191829055600091825260a86020908152604092839020845181546001600160a01b0319166001600160a01b039091161781559084015191810191909155908201516002820155606082015160038201556080820151600482015560a08201516005909101555b50600101612ed0565b50600381101580156132ca575060a6546040516370a0823160e01b81526801158e460913d00000916001600160a01b0316906370a0823190613277908790600401613828565b60206040518083038186803b15801561328f57600080fd5b505afa1580156132a3573d6000803e3d6000fd5b505050506040513d601f19601f820116820180604052508101906132c79190613793565b10155b156132d8576132d883613419565b600054604051631695fb2f60e31b81526001600160a01b039091169063b4afd9789061330a9086908590600401613881565b600060405180830381600087803b15801561332457600080fd5b505af11580156114b5573d6000803e3d6000fd5b6000848484846040516020016133519493929190613920565b60408051601f19818403018152919052805160209091012095945050505050565b6000828260405160200161338792919061381a565b60405160208183030381529060405280519060200120905092915050565b60649081028190040690565b60008084116133d25760405162461bcd60e51b81526004016106f390613c7b565b6000831180156133e25750600082115b6133fe5760405162461bcd60e51b81526004016106f390613b21565b826134098584611c9c565b8161341057fe5b04949350505050565b6000805460405163795d79f560e01b81526001600160a01b039091169063795d79f59061344b90600690600401613917565b60206040518083038186803b15801561346357600080fd5b505afa158015613477573d6000803e3d6000fd5b505050506040513d601f19601f8201168201806040525081019061349b9190613668565b60a954604051633de222bb60e21b81529192506001600160a01b03169063f7888aec906134ce9084908690600401613944565b602060405180830381600087803b1580156134e857600080fd5b505af11580156134fc573d6000803e3d6000fd5b505050506040513d601f19601f820116820180604052508101906135209190613793565b15801561359d57506032816001600160a01b03166318160ddd6040518163ffffffff1660e01b815260040160206040518083038186803b15801561356357600080fd5b505afa158015613577573d6000803e3d6000fd5b505050506040513d601f19601f8201168201806040525081019061359b9190613793565b105b156112755760a954609e54604051636361ddf360e11b81526001600160a01b039092169163c6c3bbe6916135d7918591879160040161383c565b600060405180830381600087803b1580156135f157600080fd5b505af1158015613605573d6000803e3d6000fd5b505050505050565b6040518060c0016040528060006001600160a01b0316815260200160008152602001600081526020016000815260200160008152602001600081525090565b60006020828403121561365d578081fd5b8135611cd681613e33565b600060208284031215613679578081fd5b8151611cd681613e33565b60008060408385031215613696578081fd5b82356136a181613e33565b915060208301356136b181613e48565b809150509250929050565b6000602082840312156136cd578081fd5b8151611cd681613e48565b600080604083850312156136ea578182fd5b82516136f581613e48565b60208401519092506136b181613e48565b600060208284031215613717578081fd5b5035919050565b60008060408385031215613730578182fd5b50508035926020909101359150565b600080600060608486031215613753578081fd5b835161375e81613e56565b602085015190935061376f81613e56565b604085015190925063ffffffff81168114613788578182fd5b809150509250925092565b6000602082840312156137a4578081fd5b5051919050565b600080604083850312156137bd578182fd5b8235915060208301356136b181613e48565b60008151808452815b818110156137f4576020818501810151868301820152016137d8565b818111156138055782602083870101525b50601f01601f19169290920160200192915050565b918252602082015260400190565b6001600160a01b0391909116815260200190565b6001600160a01b039384168152919092166020820152604081019190915260600190565b6001600160a01b039390931683526020830191909152604082015260600190565b6001600160a01b03929092168252602082015260400190565b6001600160a01b0393909316835260208301919091521515604082015260600190565b600060018060a01b03851682528360208301526060604083015261213a60608301846137cf565b6001600160a01b03969096168652602086019490945260408501929092526060840152608083015260a082015260c00190565b90815260200190565b93845260208401929092526001600160a01b03166040830152606082015260800190565b6001600160a01b0392831681529116602082015260400190565b600060208252611cd660208301846137cf565b6020808252601a908201527f4e6f2072616e646f6d206e756d62657220617661696c61626c65000000000000604082015260600190565b6020808252600f908201526e496e76616c6964206164647265737360881b604082015260600190565b60208082526026908201527f4f776e61626c653a206e6577206f776e657220697320746865207a65726f206160408201526564647265737360d01b606082015260800190565b6020808252600f908201526e151c985b9cd9995c8819985a5b1959608a1b604082015260600190565b60208082526019908201527f496e73756666696369656e7420746f6b656e20616d6f756e7400000000000000604082015260600190565b6020808252601490820152734c6f636b656420746f20676f7665726e616e636560601b604082015260600190565b6020808252601b908201527f536166654d6174683a206164646974696f6e206f766572666c6f770000000000604082015260600190565b60208082526025908201527f556e697377617056324c6962726172793a204944454e544943414c5f41444452604082015264455353455360d81b606082015260800190565b60208082526028908201527f556e697377617056324c6962726172793a20494e53554646494349454e545f4c604082015267495155494449545960c01b606082015260800190565b602080825260149082015273105c1c1c9bdd99481d1bdad95b9cc8199a5c9cdd60621b604082015260600190565b6020808252601b908201527f4e6f7420656e6f756768204c494e4b206f6e20636f6e74726163740000000000604082015260600190565b60208082526021908201527f536166654d6174683a206d756c7469706c69636174696f6e206f766572666c6f6040820152607760f81b606082015260800190565b6020808252818101527f4f776e61626c653a2063616c6c6572206973206e6f7420746865206f776e6572604082015260600190565b6020808252601f908201527f4f6e6c7920565246436f6f7264696e61746f722063616e2066756c66696c6c00604082015260600190565b60208082526025908201527f556e697377617056324c6962726172793a20494e53554646494349454e545f416040820152641353d5539560da1b606082015260800190565b60208082526024908201527f4e6f7420656e6f756768204c494e4b20617070726f76656420746f20636f6e746040820152631c9858dd60e21b606082015260800190565b6020808252601e908201527f556e697377617056324c6962726172793a205a45524f5f414444524553530000604082015260600190565b60208082526017908201527f496e73756666696369656e742045544820616d6f756e74000000000000000000604082015260600190565b6020808252602b908201527f556e697377617056324c6962726172793a20494e53554646494349454e545f4960408201526a1394155517d05353d5539560aa1b606082015260800190565b60208082526028908201527f476f7665726e616e636520636f6e74726163742068617320616c7265616479206040820152671899595b881cd95d60c21b606082015260800190565b92835260208301919091526001600160a01b0316604082015260806060820181905260009082015260a00190565b6001600160a01b038116811461185457600080fd5b801515811461185457600080fd5b6001600160701b038116811461185457600080fdfea26469706673582212203ada20ef70a2483feac7a39b970ac4028e516977f64cf9872bf3e14484787bbf64736f6c634300060c0033",
  "devdoc": {
    "kind": "dev",
    "methods": {
      "owner()": {
        "details": "Returns the address of the current owner."
      },
      "renounceOwnership()": {
        "details": "Leaves the contract without owner. It will not be possible to call `onlyOwner` functions anymore. Can only be called by the current owner. NOTE: Renouncing ownership will leave the contract without an owner, thereby removing any functionality that is only available to the owner."
      },
      "transferOwnership(address)": {
        "details": "Transfers ownership of the contract to a new account (`newOwner`). Can only be called by the current owner."
      }
    },
    "version": 1
  },
  "userdoc": {
    "kind": "user",
    "methods": {
      "getRandomNumber(uint256)": {
        "notice": "Requests randomness from a user-provided seed"
      },
      "selfRequestRandomNumber(uint256)": {
        "notice": "Requests randomness from a user-provided seed"
      }
    },
    "version": 1
  },
  "storageLayout": {
    "storage": [
      {
        "astId": 13673,
        "contract": "contracts/RAMV1router.sol:RAMv1Router",
        "label": "_storage",
        "offset": 0,
        "slot": "0",
        "type": "t_contract(YGYStorageV1)15395"
      },
      {
        "astId": 195,
        "contract": "contracts/RAMV1router.sol:RAMv1Router",
        "label": "initialized",
        "offset": 20,
        "slot": "0",
        "type": "t_bool"
      },
      {
        "astId": 198,
        "contract": "contracts/RAMV1router.sol:RAMv1Router",
        "label": "initializing",
        "offset": 21,
        "slot": "0",
        "type": "t_bool"
      },
      {
        "astId": 263,
        "contract": "contracts/RAMV1router.sol:RAMv1Router",
        "label": "______gap",
        "offset": 0,
        "slot": "1",
        "type": "t_array(t_uint256)50_storage"
      },
      {
        "astId": 188,
        "contract": "contracts/RAMV1router.sol:RAMv1Router",
        "label": "__gap",
        "offset": 0,
        "slot": "51",
        "type": "t_array(t_uint256)50_storage"
      },
      {
        "astId": 565,
        "contract": "contracts/RAMV1router.sol:RAMv1Router",
        "label": "_owner",
        "offset": 0,
        "slot": "101",
        "type": "t_address"
      },
      {
        "astId": 683,
        "contract": "contracts/RAMV1router.sol:RAMv1Router",
        "label": "__gap",
        "offset": 0,
        "slot": "102",
        "type": "t_array(t_uint256)49_storage"
      },
      {
        "astId": 13756,
        "contract": "contracts/RAMV1router.sol:RAMv1Router",
        "label": "nonces",
        "offset": 0,
        "slot": "151",
        "type": "t_mapping(t_bytes32,t_uint256)"
      },
      {
        "astId": 9979,
        "contract": "contracts/RAMV1router.sol:RAMv1Router",
        "label": "_feeApprover",
        "offset": 0,
        "slot": "152",
        "type": "t_contract(IFeeApprover)15583"
      },
      {
        "astId": 9981,
        "contract": "contracts/RAMV1router.sol:RAMv1Router",
        "label": "_RAMVault",
        "offset": 0,
        "slot": "153",
        "type": "t_contract(IRAMVault)15799"
      },
      {
        "astId": 9983,
        "contract": "contracts/RAMV1router.sol:RAMv1Router",
        "label": "_uniV2Factory",
        "offset": 0,
        "slot": "154",
        "type": "t_address"
      },
      {
        "astId": 9985,
        "contract": "contracts/RAMV1router.sol:RAMv1Router",
        "label": "governanceSet",
        "offset": 20,
        "slot": "154",
        "type": "t_bool"
      },
      {
        "astId": 9987,
        "contract": "contracts/RAMV1router.sol:RAMv1Router",
        "label": "governance",
        "offset": 0,
        "slot": "155",
        "type": "t_address"
      },
      {
        "astId": 9989,
        "contract": "contracts/RAMV1router.sol:RAMv1Router",
        "label": "regenerator",
        "offset": 0,
        "slot": "156",
        "type": "t_address_payable"
      },
      {
        "astId": 9991,
        "contract": "contracts/RAMV1router.sol:RAMv1Router",
        "label": "regeneratorTax",
        "offset": 0,
        "slot": "157",
        "type": "t_uint256"
      },
      {
        "astId": 10011,
        "contract": "contracts/RAMV1router.sol:RAMv1Router",
        "label": "randomResult",
        "offset": 0,
        "slot": "158",
        "type": "t_uint256"
      },
      {
        "astId": 10013,
        "contract": "contracts/RAMV1router.sol:RAMv1Router",
        "label": "rngLinkFee",
        "offset": 0,
        "slot": "159",
        "type": "t_uint256"
      },
      {
        "astId": 10015,
        "contract": "contracts/RAMV1router.sol:RAMv1Router",
        "label": "keyHash",
        "offset": 0,
        "slot": "160",
        "type": "t_bytes32"
      },
      {
        "astId": 10017,
        "contract": "contracts/RAMV1router.sol:RAMv1Router",
        "label": "_YGYRAMPair",
        "offset": 0,
        "slot": "161",
        "type": "t_address"
      },
      {
        "astId": 10019,
        "contract": "contracts/RAMV1router.sol:RAMv1Router",
        "label": "_YGYToken",
        "offset": 0,
        "slot": "162",
        "type": "t_address"
      },
      {
        "astId": 10021,
        "contract": "contracts/RAMV1router.sol:RAMv1Router",
        "label": "_YGYWETHPair",
        "offset": 0,
        "slot": "163",
        "type": "t_address"
      },
      {
        "astId": 10023,
        "contract": "contracts/RAMV1router.sol:RAMv1Router",
        "label": "_RAMToken",
        "offset": 0,
        "slot": "164",
        "type": "t_address"
      },
      {
        "astId": 10025,
        "contract": "contracts/RAMV1router.sol:RAMv1Router",
        "label": "_WETH",
        "offset": 0,
        "slot": "165",
        "type": "t_contract(IWETH)23079"
      },
      {
        "astId": 10027,
        "contract": "contracts/RAMV1router.sol:RAMv1Router",
        "label": "_dXIOTToken",
        "offset": 0,
        "slot": "166",
        "type": "t_contract(IERC20)1045"
      },
      {
        "astId": 10042,
        "contract": "contracts/RAMV1router.sol:RAMv1Router",
        "label": "ticketCount",
        "offset": 0,
        "slot": "167",
        "type": "t_uint256"
      },
      {
        "astId": 10046,
        "contract": "contracts/RAMV1router.sol:RAMv1Router",
        "label": "tickets",
        "offset": 0,
        "slot": "168",
        "type": "t_mapping(t_uint256,t_struct(LotteryTicket)10040_storage)"
      },
      {
        "astId": 10048,
        "contract": "contracts/RAMV1router.sol:RAMv1Router",
        "label": "_NFTFactory",
        "offset": 0,
        "slot": "169",
        "type": "t_contract(INFTFactory)15771"
      },
      {
        "astId": 10960,
        "contract": "contracts/RAMV1router.sol:RAMv1Router",
        "label": "lotteryTriggerer",
        "offset": 0,
        "slot": "170",
        "type": "t_address"
      }
    ],
    "types": {
      "t_address": {
        "encoding": "inplace",
        "label": "address",
        "numberOfBytes": "20"
      },
      "t_address_payable": {
        "encoding": "inplace",
        "label": "address payable",
        "numberOfBytes": "20"
      },
      "t_array(t_uint256)49_storage": {
        "base": "t_uint256",
        "encoding": "inplace",
        "label": "uint256[49]",
        "numberOfBytes": "1568"
      },
      "t_array(t_uint256)50_storage": {
        "base": "t_uint256",
        "encoding": "inplace",
        "label": "uint256[50]",
        "numberOfBytes": "1600"
      },
      "t_bool": {
        "encoding": "inplace",
        "label": "bool",
        "numberOfBytes": "1"
      },
      "t_bytes32": {
        "encoding": "inplace",
        "label": "bytes32",
        "numberOfBytes": "32"
      },
      "t_contract(IERC20)1045": {
        "encoding": "inplace",
        "label": "contract IERC20",
        "numberOfBytes": "20"
      },
      "t_contract(IFeeApprover)15583": {
        "encoding": "inplace",
        "label": "contract IFeeApprover",
        "numberOfBytes": "20"
      },
      "t_contract(INFTFactory)15771": {
        "encoding": "inplace",
        "label": "contract INFTFactory",
        "numberOfBytes": "20"
      },
      "t_contract(IRAMVault)15799": {
        "encoding": "inplace",
        "label": "contract IRAMVault",
        "numberOfBytes": "20"
      },
      "t_contract(IWETH)23079": {
        "encoding": "inplace",
        "label": "contract IWETH",
        "numberOfBytes": "20"
      },
      "t_contract(YGYStorageV1)15395": {
        "encoding": "inplace",
        "label": "contract YGYStorageV1",
        "numberOfBytes": "20"
      },
      "t_mapping(t_bytes32,t_uint256)": {
        "encoding": "mapping",
        "key": "t_bytes32",
        "label": "mapping(bytes32 => uint256)",
        "numberOfBytes": "32",
        "value": "t_uint256"
      },
      "t_mapping(t_uint256,t_struct(LotteryTicket)10040_storage)": {
        "encoding": "mapping",
        "key": "t_uint256",
        "label": "mapping(uint256 => struct RAMv1Router.LotteryTicket)",
        "numberOfBytes": "32",
        "value": "t_struct(LotteryTicket)10040_storage"
      },
      "t_struct(LotteryTicket)10040_storage": {
        "encoding": "inplace",
        "label": "struct RAMv1Router.LotteryTicket",
        "members": [
          {
            "astId": 10029,
            "contract": "contracts/RAMV1router.sol:RAMv1Router",
            "label": "owner",
            "offset": 0,
            "slot": "0",
            "type": "t_address"
          },
          {
            "astId": 10031,
            "contract": "contracts/RAMV1router.sol:RAMv1Router",
            "label": "levelOneChance",
            "offset": 0,
            "slot": "1",
            "type": "t_uint256"
          },
          {
            "astId": 10033,
            "contract": "contracts/RAMV1router.sol:RAMv1Router",
            "label": "levelTwoChance",
            "offset": 0,
            "slot": "2",
            "type": "t_uint256"
          },
          {
            "astId": 10035,
            "contract": "contracts/RAMV1router.sol:RAMv1Router",
            "label": "levelThreeChance",
            "offset": 0,
            "slot": "3",
            "type": "t_uint256"
          },
          {
            "astId": 10037,
            "contract": "contracts/RAMV1router.sol:RAMv1Router",
            "label": "levelFourChance",
            "offset": 0,
            "slot": "4",
            "type": "t_uint256"
          },
          {
            "astId": 10039,
            "contract": "contracts/RAMV1router.sol:RAMv1Router",
            "label": "levelFiveChance",
            "offset": 0,
            "slot": "5",
            "type": "t_uint256"
          }
        ],
        "numberOfBytes": "192"
      },
      "t_uint256": {
        "encoding": "inplace",
        "label": "uint256",
        "numberOfBytes": "32"
      }
    }
  }
}