{
  "address": "0x91A3eDAF22FD40AAC8c1df08FACcBD9b3931048e",
  "abi": [
    {
      "anonymous": false,
      "inputs": [
        {
          "indexed": true,
          "internalType": "address",
          "name": "owner",
          "type": "address"
        },
        {
          "indexed": true,
          "internalType": "address",
          "name": "spender",
          "type": "address"
        },
        {
          "indexed": false,
          "internalType": "uint256",
          "name": "_pid",
          "type": "uint256"
        },
        {
          "indexed": false,
          "internalType": "uint256",
          "name": "value",
          "type": "uint256"
        }
      ],
      "name": "Approval",
      "type": "event"
    },
    {
      "anonymous": false,
      "inputs": [
        {
          "indexed": true,
          "internalType": "address",
          "name": "user",
          "type": "address"
        },
        {
          "indexed": true,
          "internalType": "uint256",
          "name": "pid",
          "type": "uint256"
        },
        {
          "indexed": true,
          "internalType": "uint256",
          "name": "level",
          "type": "uint256"
        },
        {
          "indexed": false,
          "internalType": "bool",
          "name": "fromNFT",
          "type": "bool"
        }
      ],
      "name": "Boost",
      "type": "event"
    },
    {
      "anonymous": false,
      "inputs": [
        {
          "indexed": true,
          "internalType": "address",
          "name": "user",
          "type": "address"
        },
        {
          "indexed": true,
          "internalType": "uint256",
          "name": "pid",
          "type": "uint256"
        },
        {
          "indexed": false,
          "internalType": "uint256",
          "name": "amount",
          "type": "uint256"
        }
      ],
      "name": "Deposit",
      "type": "event"
    },
    {
      "anonymous": false,
      "inputs": [
        {
          "indexed": true,
          "internalType": "address",
          "name": "user",
          "type": "address"
        },
        {
          "indexed": true,
          "internalType": "uint256",
          "name": "pid",
          "type": "uint256"
        },
        {
          "indexed": false,
          "internalType": "uint256",
          "name": "amount",
          "type": "uint256"
        }
      ],
      "name": "EmergencyWithdraw",
      "type": "event"
    },
    {
      "anonymous": false,
      "inputs": [
        {
          "indexed": false,
          "internalType": "uint256",
          "name": "",
          "type": "uint256"
        }
      ],
      "name": "NewEpoch",
      "type": "event"
    },
    {
      "anonymous": false,
      "inputs": [
        {
          "indexed": true,
          "internalType": "address",
          "name": "previousOwner",
          "type": "address"
        },
        {
          "indexed": true,
          "internalType": "address",
          "name": "newOwner",
          "type": "address"
        }
      ],
      "name": "OwnershipTransferred",
      "type": "event"
    },
    {
      "anonymous": false,
      "inputs": [
        {
          "indexed": false,
          "internalType": "uint256",
          "name": "pid",
          "type": "uint256"
        },
        {
          "indexed": false,
          "internalType": "address",
          "name": "to",
          "type": "address"
        }
      ],
      "name": "RewardPaid",
      "type": "event"
    },
    {
      "anonymous": false,
      "inputs": [
        {
          "indexed": false,
          "internalType": "address",
          "name": "previousOwner",
          "type": "address"
        },
        {
          "indexed": false,
          "internalType": "address",
          "name": "newOwner",
          "type": "address"
        }
      ],
      "name": "SuperAdminTransfered",
      "type": "event"
    },
    {
      "anonymous": false,
      "inputs": [
        {
          "indexed": true,
          "internalType": "address",
          "name": "user",
          "type": "address"
        },
        {
          "indexed": true,
          "internalType": "uint256",
          "name": "pid",
          "type": "uint256"
        },
        {
          "indexed": false,
          "internalType": "uint256",
          "name": "amount",
          "type": "uint256"
        }
      ],
      "name": "Withdraw",
      "type": "event"
    },
    {
      "inputs": [
        {
          "internalType": "address",
          "name": "_user",
          "type": "address"
        },
        {
          "internalType": "address",
          "name": "_tokenAddress",
          "type": "address"
        },
        {
          "internalType": "uint256",
          "name": "_tokenId",
          "type": "uint256"
        },
        {
          "internalType": "uint256",
          "name": "_poolId",
          "type": "uint256"
        }
      ],
      "name": "NFTUsage",
      "outputs": [],
      "stateMutability": "nonpayable",
      "type": "function"
    },
    {
      "inputs": [
        {
          "internalType": "uint256",
          "name": "_amount",
          "type": "uint256"
        }
      ],
      "name": "addPendingRewards",
      "outputs": [],
      "stateMutability": "nonpayable",
      "type": "function"
    },
    {
      "inputs": [
        {
          "internalType": "uint256",
          "name": "_allocPoint",
          "type": "uint256"
        },
        {
          "internalType": "contract IERC20",
          "name": "_token",
          "type": "address"
        },
        {
          "internalType": "bool",
          "name": "_withdrawable",
          "type": "bool"
        }
      ],
      "name": "addPool",
      "outputs": [],
      "stateMutability": "nonpayable",
      "type": "function"
    },
    {
      "inputs": [
        {
          "internalType": "uint256",
          "name": "_amount",
          "type": "uint256"
        }
      ],
      "name": "addRAMRewardsOwner",
      "outputs": [],
      "stateMutability": "nonpayable",
      "type": "function"
    },
    {
      "inputs": [
        {
          "internalType": "uint256",
          "name": "_amount",
          "type": "uint256"
        }
      ],
      "name": "addYGYRewardsOwner",
      "outputs": [],
      "stateMutability": "nonpayable",
      "type": "function"
    },
    {
      "inputs": [],
      "name": "burnSuperAdmin",
      "outputs": [],
      "stateMutability": "nonpayable",
      "type": "function"
    },
    {
      "inputs": [
        {
          "internalType": "uint256",
          "name": "_pid",
          "type": "uint256"
        },
        {
          "internalType": "address",
          "name": "_user",
          "type": "address"
        }
      ],
      "name": "checkRewards",
      "outputs": [
        {
          "internalType": "uint256",
          "name": "pendingRAM",
          "type": "uint256"
        },
        {
          "internalType": "uint256",
          "name": "pendingYGY",
          "type": "uint256"
        }
      ],
      "stateMutability": "view",
      "type": "function"
    },
    {
      "inputs": [
        {
          "internalType": "uint256",
          "name": "_pid",
          "type": "uint256"
        }
      ],
      "name": "claimRewards",
      "outputs": [],
      "stateMutability": "nonpayable",
      "type": "function"
    },
    {
      "inputs": [
        {
          "internalType": "uint256",
          "name": "_pid",
          "type": "uint256"
        },
        {
          "internalType": "uint256",
          "name": "_amount",
          "type": "uint256"
        }
      ],
      "name": "deposit",
      "outputs": [],
      "stateMutability": "nonpayable",
      "type": "function"
    },
    {
      "inputs": [
        {
          "internalType": "address",
          "name": "_depositFor",
          "type": "address"
        },
        {
          "internalType": "uint256",
          "name": "_pid",
          "type": "uint256"
        },
        {
          "internalType": "uint256",
          "name": "_amount",
          "type": "uint256"
        }
      ],
      "name": "depositFor",
      "outputs": [],
      "stateMutability": "nonpayable",
      "type": "function"
    },
    {
      "inputs": [],
      "name": "distributeFees",
      "outputs": [],
      "stateMutability": "nonpayable",
      "type": "function"
    },
    {
      "inputs": [
        {
          "internalType": "uint256",
          "name": "_pid",
          "type": "uint256"
        }
      ],
      "name": "emergencyWithdraw",
      "outputs": [],
      "stateMutability": "nonpayable",
      "type": "function"
    },
    {
      "inputs": [
        {
          "internalType": "address",
          "name": "__superAdmin",
          "type": "address"
        },
        {
          "internalType": "address",
          "name": "_regeneratoraddr",
          "type": "address"
        },
        {
          "internalType": "address",
          "name": "_devaddr",
          "type": "address"
        },
        {
          "internalType": "address",
          "name": "_teamaddr",
          "type": "address"
        }
      ],
      "name": "initialize",
      "outputs": [],
      "stateMutability": "nonpayable",
      "type": "function"
    },
    {
      "inputs": [],
      "name": "massUpdatePools",
      "outputs": [],
      "stateMutability": "nonpayable",
      "type": "function"
    },
    {
      "inputs": [
        {
          "internalType": "address",
          "name": "newOwner",
          "type": "address"
        }
      ],
      "name": "newSuperAdmin",
      "outputs": [],
      "stateMutability": "nonpayable",
      "type": "function"
    },
    {
      "inputs": [],
      "name": "owner",
      "outputs": [
        {
          "internalType": "address",
          "name": "",
          "type": "address"
        }
      ],
      "stateMutability": "view",
      "type": "function"
    },
    {
      "inputs": [
        {
          "internalType": "uint256",
          "name": "_pid",
          "type": "uint256"
        },
        {
          "internalType": "uint256",
          "name": "_level",
          "type": "uint256"
        }
      ],
      "name": "purchase",
      "outputs": [],
      "stateMutability": "nonpayable",
      "type": "function"
    },
    {
      "inputs": [],
      "name": "renounceOwnership",
      "outputs": [],
      "stateMutability": "nonpayable",
      "type": "function"
    },
    {
      "inputs": [
        {
          "internalType": "uint256",
          "name": "_pid",
          "type": "uint256"
        },
        {
          "internalType": "uint256",
          "name": "_allocPoint",
          "type": "uint256"
        },
        {
          "internalType": "bool",
          "name": "_withdrawable",
          "type": "bool"
        }
      ],
      "name": "set",
      "outputs": [],
      "stateMutability": "nonpayable",
      "type": "function"
    },
    {
      "inputs": [
        {
          "internalType": "address",
          "name": "_devaddr",
          "type": "address"
        },
        {
          "internalType": "address",
          "name": "_teamaddr",
          "type": "address"
        },
        {
          "internalType": "address",
          "name": "_regeneratoraddr",
          "type": "address"
        }
      ],
      "name": "setAddresses",
      "outputs": [],
      "stateMutability": "nonpayable",
      "type": "function"
    },
    {
      "inputs": [
        {
          "internalType": "address",
          "name": "spender",
          "type": "address"
        },
        {
          "internalType": "uint256",
          "name": "_pid",
          "type": "uint256"
        },
        {
          "internalType": "uint256",
          "name": "value",
          "type": "uint256"
        }
      ],
      "name": "setAllowanceForPoolToken",
      "outputs": [],
      "stateMutability": "nonpayable",
      "type": "function"
    },
    {
      "inputs": [
        {
          "internalType": "uint16",
          "name": "_DEV_FEE",
          "type": "uint16"
        }
      ],
      "name": "setDevFee",
      "outputs": [],
      "stateMutability": "nonpayable",
      "type": "function"
    },
    {
      "inputs": [
        {
          "internalType": "address",
          "name": "tokenAddress",
          "type": "address"
        },
        {
          "internalType": "uint256",
          "name": "_amount",
          "type": "uint256"
        },
        {
          "internalType": "address",
          "name": "contractAddress",
          "type": "address"
        }
      ],
      "name": "setStrategyContractOrDistributionContractAllowance",
      "outputs": [],
      "stateMutability": "nonpayable",
      "type": "function"
    },
    {
      "inputs": [],
      "name": "startNewEpoch",
      "outputs": [],
      "stateMutability": "nonpayable",
      "type": "function"
    },
    {
      "inputs": [],
      "name": "superAdmin",
      "outputs": [
        {
          "internalType": "address",
          "name": "",
          "type": "address"
        }
      ],
      "stateMutability": "view",
      "type": "function"
    },
    {
      "inputs": [
        {
          "internalType": "address",
          "name": "newOwner",
          "type": "address"
        }
      ],
      "name": "transferOwnership",
      "outputs": [],
      "stateMutability": "nonpayable",
      "type": "function"
    },
    {
      "inputs": [],
      "name": "transferRAMDevFee",
      "outputs": [],
      "stateMutability": "nonpayable",
      "type": "function"
    },
    {
      "inputs": [],
      "name": "transferYGYDevFee",
      "outputs": [],
      "stateMutability": "nonpayable",
      "type": "function"
    },
    {
      "inputs": [
        {
          "internalType": "uint256",
          "name": "_pid",
          "type": "uint256"
        },
        {
          "internalType": "uint256",
          "name": "_amount",
          "type": "uint256"
        }
      ],
      "name": "withdraw",
      "outputs": [],
      "stateMutability": "nonpayable",
      "type": "function"
    },
    {
      "inputs": [
        {
          "internalType": "address",
          "name": "owner",
          "type": "address"
        },
        {
          "internalType": "uint256",
          "name": "_pid",
          "type": "uint256"
        },
        {
          "internalType": "uint256",
          "name": "_amount",
          "type": "uint256"
        }
      ],
      "name": "withdrawFrom",
      "outputs": [],
      "stateMutability": "nonpayable",
      "type": "function"
    }
  ],
  "transactionHash": "0xed0afc461518a3688e20fb17ad3e05433aa7cd051981ed29f2d00c805837a6ef",
  "args": [],
  "solcInputHash": "7a076f9f0e27f9aaefe58a560e2fc7ee",
  "bytecode": "0x608060405234801561001057600080fd5b50615488806100206000396000f3fe608060405234801561001057600080fd5b50600436106101da5760003560e01c806370876c9811610104578063bb57ad20116100a2578063e18cb4fe11610071578063e18cb4fe14610390578063e2bbb158146103a3578063f2fde38b146103b6578063f8c8765e146103c9576101da565b8063bb57ad201461035a578063c401458814610362578063cc1362ec14610375578063dbe0901f1461037d576101da565b80637cf75ca3116100de5780637cf75ca31461032f5780638da5cb5b14610337578063934eaa501461033f578063a676860a14610347576101da565b806370876c9814610301578063715018a6146103145780637abceffd1461031c576101da565b80633fe6a2781161017c5780635312ea8e1161014b5780635312ea8e146102c05780635db64aba146102d3578063630b5ba1146102e657806364482f79146102ee576101da565b80633fe6a27814610274578063423d6fa014610287578063441a3e701461029a5780634cf5fbf5146102ad576101da565b8063363bf964116101b8578063363bf964146102335780633a0967cd146102465780633aab0a62146102595780633b6a684914610261576101da565b80630962ef79146101df57806310178d9c146101f457806329575f6a1461021e575b600080fd5b6101f26101ed366004614d65565b6103dc565b005b610207610202366004614d95565b610565565b6040516102159291906153b6565b60405180910390f35b6102266105f2565b6040516102159190614f0a565b6101f2610241366004614a8f565b610601565b6101f2610254366004614baf565b61067e565b6101f26107a6565b6101f261026f366004614d65565b610a5d565b6101f2610282366004614d65565b610c12565b6101f2610295366004614d65565b610d94565b6101f26102a8366004614dfa565b610e65565b6101f26102bb366004614baf565b610e75565b6101f26102ce366004614d65565b6110b3565b6101f26102e1366004614b34565b611256565b6101f26115ef565b6101f26102fc366004614e3e565b61171f565b6101f261030f366004614dfa565b611790565b6101f2611b59565b6101f261032a366004614dc4565b611bd8565b6101f2611c49565b610226612147565b6101f2612156565b6101f2610355366004614a73565b6121bb565b6101f261224e565b6101f2610370366004614b79565b6126b5565b6101f2612817565b6101f261038b366004614baf565b612d0e565b6101f261039e366004614d43565b612dc8565b6101f26103b1366004614dfa565b612e45565b6101f26103c4366004614a73565b613082565b6101f26103d7366004614ad9565b613139565b6103e46149d8565b6000546103fb9083906001600160a01b0316613239565b9050610405614a19565b60005461041e90849033906001600160a01b031661330c565b60608101519091501561044957600080546104499183918591339181906001600160a01b03166133d4565b6104538333613471565b61045d81836134ab565b6000546040516303c4399d60e11b81526001600160a01b0390911690630788733a90610491908690339086906004016152fd565b600060405180830381600087803b1580156104ab57600080fd5b505af11580156104bf573d6000803e3d6000fd5b505060005460405163d4665bb760e01b81526001600160a01b03909116925063d4665bb791506104f59086908690600401615361565b600060405180830381600087803b15801561050f57600080fd5b505af1158015610523573d6000803e3d6000fd5b505050507fc05cbf47ef4152ea1b2446fb1ba8eb9c7285054d9c85f2f52c294200d8d1d38b83336040516105589291906152c1565b60405180910390a1505050565b60008054604051630405e36760e21b815282916001600160a01b0316906310178d9c9061059890879087906004016152c1565b604080518083038186803b1580156105af57600080fd5b505afa1580156105c3573d6000803e3d6000fd5b505050506040513d601f19601f820116820180604052508101906105e79190614e1b565b915091509250929050565b609c546001600160a01b031690565b6106096134f9565b6065546001600160a01b0390811691161461063f5760405162461bcd60e51b81526004016106369061511c565b60405180910390fd5b609780546001600160a01b039485166001600160a01b031991821617909155609880549385169382169390931790925560998054919093169116179055565b6000805460405163158dd39360e01b81526001600160a01b039091169063158dd393906106b390869088903390600401615321565b60206040518083038186803b1580156106cb57600080fd5b505afa1580156106df573d6000803e3d6000fd5b505050506040513d601f19601f820116820180604052508101906107039190614d7d565b9050818110156107255760405162461bcd60e51b8152600401610636906150b5565b6000546001600160a01b03166360443a4584863361074386886134fd565b6040518563ffffffff1660e01b815260040161076294939291906152d8565b600060405180830381600087803b15801561077c57600080fd5b505af1158015610790573d6000803e3d6000fd5b505050506107a083838633613546565b50505050565b60005460408051630baaef8360e31b8152905143926001600160a01b031691635d577c18916004808301926020929190829003018186803b1580156107ea57600080fd5b505afa1580156107fe573d6000803e3d6000fd5b505050506040513d601f19601f820116820180604052508101906108229190614d7d565b611680011061083057600080fd5b6000805460408051632515621d60e11b815290516001600160a01b0390921692634a2ac43a9260048084019382900301818387803b15801561087157600080fd5b505af1158015610885573d6000803e3d6000fd5b5050600080546040805163221205f760e21b815290516001600160a01b03909216945063884817dc9350600480820193929182900301818387803b1580156108cc57600080fd5b505af11580156108e0573d6000803e3d6000fd5b5050600080546040516309df3e6d60e41b81526001600160a01b039091169350639df3e6d092506109149190600401614f80565b600060405180830381600087803b15801561092e57600080fd5b505af1158015610942573d6000803e3d6000fd5b5050600080546040805163022fed0760e11b815290516001600160a01b03909216945063045fda0e9350600480820193929182900301818387803b15801561098957600080fd5b505af115801561099d573d6000803e3d6000fd5b505050507febad8099c467528a56c98b63c8d476d251cf1ffb4c75db94b4d23fa2b6a1e33560008054906101000a90046001600160a01b03166001600160a01b031663900cf0cf6040518163ffffffff1660e01b815260040160206040518083038186803b158015610a0e57600080fd5b505afa158015610a22573d6000803e3d6000fd5b505050506040513d601f19601f82011682018060405250810190610a469190614d7d565b604051610a539190614f80565b60405180910390a1565b610a656134f9565b6065546001600160a01b03908116911614610a925760405162461bcd60e51b81526004016106369061511c565b60008054906101000a90046001600160a01b03166001600160a01b0316638f33b5e56040518163ffffffff1660e01b815260040160206040518083038186803b158015610ade57600080fd5b505afa158015610af2573d6000803e3d6000fd5b505050506040513d601f19601f82011682018060405250810190610b169190614bff565b6001600160a01b03166323b872dd3330846040518463ffffffff1660e01b8152600401610b4593929190614f1e565b602060405180830381600087803b158015610b5f57600080fd5b505af1158015610b73573d6000803e3d6000fd5b505050506040513d601f19601f82011682018060405250810190610b979190614be3565b8015610ba35750600081115b610bac57600080fd5b600080546040516301e0a3fb60e61b81526001600160a01b0390911691637828fec091610bdd918591600401614f89565b600060405180830381600087803b158015610bf757600080fd5b505af1158015610c0b573d6000803e3d6000fd5b5050505050565b610c1a6134f9565b6065546001600160a01b03908116911614610c475760405162461bcd60e51b81526004016106369061511c565b60008054906101000a90046001600160a01b03166001600160a01b031663fb70c3bf6040518163ffffffff1660e01b815260040160206040518083038186803b158015610c9357600080fd5b505afa158015610ca7573d6000803e3d6000fd5b505050506040513d601f19601f82011682018060405250810190610ccb9190614bff565b6001600160a01b03166323b872dd3330846040518463ffffffff1660e01b8152600401610cfa93929190614f1e565b602060405180830381600087803b158015610d1457600080fd5b505af1158015610d28573d6000803e3d6000fd5b505050506040513d601f19601f82011682018060405250810190610d4c9190614be3565b8015610d585750600081115b610d6157600080fd5b6000546040516301e0a3fb60e61b81526001600160a01b0390911690637828fec090610bdd908490600190600401614f89565b60008054906101000a90046001600160a01b03166001600160a01b0316638f33b5e56040518163ffffffff1660e01b815260040160206040518083038186803b158015610de057600080fd5b505afa158015610df4573d6000803e3d6000fd5b505050506040513d601f19601f82011682018060405250810190610e189190614bff565b6001600160a01b0316336001600160a01b031614610e3557600080fd5b600054604051630211eb7d60e51b81526001600160a01b039091169063423d6fa090610bdd908490600401614f80565b610e7182823333613546565b5050565b610e7d6149d8565b600054610e949084906001600160a01b0316613239565b9050610e9e614a19565b600054610eb790859087906001600160a01b031661330c565b9050610ec38486613471565b8215610f965781516040516323b872dd60e01b81526001600160a01b03909116906323b872dd90610efc90339030908890600401614f1e565b602060405180830381600087803b158015610f1657600080fd5b505af1158015610f2a573d6000803e3d6000fd5b505050506040513d601f19601f82011682018060405250810190610f4e9190614be3565b508051610f5b908461375c565b81526060810151151580610f73575060008160800151115b15610f965760008054610f969183918591899181906001600160a01b03166133d4565b610fa081836134ab565b6000546040516303c4399d60e11b81526001600160a01b0390911690630788733a90610fd4908790899086906004016152fd565b600060405180830381600087803b158015610fee57600080fd5b505af1158015611002573d6000803e3d6000fd5b505060005460405163d4665bb760e01b81526001600160a01b03909116925063d4665bb791506110389087908690600401615361565b600060405180830381600087803b15801561105257600080fd5b505af1158015611066573d6000803e3d6000fd5b5050505083856001600160a01b03167f90890809c654f11d6e72a28fa60149770a0d11ec6c92319d6ceb2bb0a4ea1a15856040516110a49190614f80565b60405180910390a35050505050565b6110bb6149d8565b6000546110d29083906001600160a01b0316613239565b905080608001516110f55760405162461bcd60e51b8152600401610636906151e7565b6110fd614a19565b60005461111690849033906001600160a01b031661330c565b80518351919250611132916001600160a01b0316903390613781565b8051604051849133917fbb757047c2b5f3974fe26b7c10f732e7bce710b0952a71082702781e62ae05959161116691614f80565b60405180910390a3600080825260608201819052602082018190526040808301829052905490516303c4399d60e11b81526001600160a01b0390911690630788733a906111bb908690339086906004016152fd565b600060405180830381600087803b1580156111d557600080fd5b505af11580156111e9573d6000803e3d6000fd5b505060005460405163d4665bb760e01b81526001600160a01b03909116925063d4665bb7915061121f9086908690600401615361565b600060405180830381600087803b15801561123957600080fd5b505af115801561124d573d6000803e3d6000fd5b50505050505050565b8261125f614a4f565b604051631c72e6e760e11b81526001600160a01b038316906338e5cdce9061128b908790600401614f80565b60006040518083038186803b1580156112a357600080fd5b505afa1580156112b7573d6000803e3d6000fd5b505050506040513d6000823e601f3d908101601f191682016040526112df9190810190614c7a565b90506112e9614a19565b60005461130290859089906001600160a01b031661330c565b905061130c6149d8565b6000546113239086906001600160a01b0316613239565b90507fb11f0630abdc3c49238c394684d47c0a22fb6922fdf83b64cfdd3d9769f1a263836000015160405160200161135b9190614eee565b6040516020818303038152906040528051906020012014156114785760008054906101000a90046001600160a01b03166001600160a01b0316638792a265856001600160a01b0316638291286c6040518163ffffffff1660e01b815260040160206040518083038186803b1580156113d257600080fd5b505afa1580156113e6573d6000803e3d6000fd5b505050506040513d601f19601f8201168201806040525081019061140a9190614d7d565b8a6040518363ffffffff1660e01b81526004016114289291906152c1565b600060405180830381600087803b15801561144257600080fd5b505af1158015611456573d6000803e3d6000fd5b505060008054611478935085925084918c9181906001600160a01b03166133d4565b604051630852cd8d60e31b81526001600160a01b038516906342966c68906114a4908990600401614f80565b600060405180830381600087803b1580156114be57600080fd5b505af11580156114d2573d6000803e3d6000fd5b50506000546040516303c4399d60e11b81526001600160a01b039091169250630788733a915061150a9088908c9087906004016152fd565b600060405180830381600087803b15801561152457600080fd5b505af1158015611538573d6000803e3d6000fd5b505060005460405163d4665bb760e01b81526001600160a01b03909116925063d4665bb7915061156e9088908590600401615361565b600060405180830381600087803b15801561158857600080fd5b505af115801561159c573d6000803e3d6000fd5b50505050600085896001600160a01b03167f2afbc6f74788c58c5d56fca9812c385d27a7bf8004bd05cd1b9f057ad145f69d60016040516115dd9190614f75565b60405180910390a45050505050505050565b60008060005b60008054906101000a90046001600160a01b03166001600160a01b031663b3944d526040518163ffffffff1660e01b815260040160206040518083038186803b15801561164157600080fd5b505afa158015611655573d6000803e3d6000fd5b505050506040513d601f19601f820116820180604052508101906116799190614d7d565b8110156116b65760008061168c836137d7565b909250905061169b858361375c565b94506116a7848261375c565b935050508060010190506115f5565b50600054604051635105a97560e01b81526001600160a01b0390911690635105a975906116e990859085906004016153b6565b600060405180830381600087803b15801561170357600080fd5b505af1158015611717573d6000803e3d6000fd5b505050505050565b6117276134f9565b6065546001600160a01b039081169116146117545760405162461bcd60e51b81526004016106369061511c565b61175c6115ef565b60005460405163236535f560e11b81526001600160a01b03909116906346ca6bea9061121f908690869086906004016153c4565b6117986149d8565b6000546117af9084906001600160a01b0316613239565b90506117b9614a19565b6000546117d290859033906001600160a01b031661330c565b90508060800151831180156117e8575060048311155b6117f157600080fd5b60008054604051636a9d1f6f60e01b81526001600160a01b0390911690636a9d1f6f90611822908790600401614f80565b60206040518083038186803b15801561183a57600080fd5b505afa15801561184e573d6000803e3d6000fd5b505050506040513d601f19601f820116820180604052508101906118729190614d7d565b9050600061188d8360a00151836134fd90919063ffffffff16565b905060008054906101000a90046001600160a01b03166001600160a01b0316638f33b5e56040518163ffffffff1660e01b815260040160206040518083038186803b1580156118db57600080fd5b505afa1580156118ef573d6000803e3d6000fd5b505050506040513d601f19601f820116820180604052508101906119139190614bff565b6001600160a01b03166323b872dd3330846040518463ffffffff1660e01b815260040161194293929190614f1e565b602060405180830381600087803b15801561195c57600080fd5b505af1158015611970573d6000803e3d6000fd5b505050506040513d601f19601f820116820180604052508101906119949190614be3565b61199d57600080fd5b60a08301516119ac908261375c565b60a0840152608083018590528251156119de57600080546119de918591879133918a91906001600160a01b03166133d4565b6000546040516303c4399d60e11b81526001600160a01b0390911690630788733a90611a12908990339088906004016152fd565b600060405180830381600087803b158015611a2c57600080fd5b505af1158015611a40573d6000803e3d6000fd5b505060005460405163d4665bb760e01b81526001600160a01b03909116925063d4665bb79150611a769089908890600401615361565b600060405180830381600087803b158015611a9057600080fd5b505af1158015611aa4573d6000803e3d6000fd5b5050600054604051631be9449960e11b81526001600160a01b0390911692506337d289329150611adb908490600190600401614f89565b600060405180830381600087803b158015611af557600080fd5b505af1158015611b09573d6000803e3d6000fd5b505050508486336001600160a01b03167f2afbc6f74788c58c5d56fca9812c385d27a7bf8004bd05cd1b9f057ad145f69d6000604051611b499190614f75565b60405180910390a4505050505050565b611b616134f9565b6065546001600160a01b03908116911614611b8e5760405162461bcd60e51b81526004016106369061511c565b6065546040516000916001600160a01b0316907f8be0079c531659141344cd1fd0a4f28419497f9722a3daafe3b4186f6b6457e0908390a3606580546001600160a01b0319169055565b611be06134f9565b6065546001600160a01b03908116911614611c0d5760405162461bcd60e51b81526004016106369061511c565b611c156115ef565b600054604051637abceffd60e01b81526001600160a01b0390911690637abceffd9061121f90869086908690600401615340565b609a54156121455760008060008060009054906101000a90046001600160a01b03166001600160a01b0316638f33b5e56040518163ffffffff1660e01b815260040160206040518083038186803b158015611ca357600080fd5b505afa158015611cb7573d6000803e3d6000fd5b505050506040513d601f19601f82011682018060405250810190611cdb9190614bff565b6001600160a01b03166370a08231306040518263ffffffff1660e01b8152600401611d069190614f0a565b60206040518083038186803b158015611d1e57600080fd5b505afa158015611d32573d6000803e3d6000fd5b505050506040513d601f19601f82011682018060405250810190611d569190614d7d565b905080609a541115611d9157611d786064611d72836046613c06565b90613c40565b9250611d8a6064611d7283601e613c06565b9150611dcc565b611dac6064611d726046609a54613c0690919063ffffffff16565b9250611dc96064611d72601e609a54613c0690919063ffffffff16565b91505b8215611edd5760008054906101000a90046001600160a01b03166001600160a01b0316638f33b5e56040518163ffffffff1660e01b815260040160206040518083038186803b158015611e1e57600080fd5b505afa158015611e32573d6000803e3d6000fd5b505050506040513d601f19601f82011682018060405250810190611e569190614bff565b60975460405163a9059cbb60e01b81526001600160a01b039283169263a9059cbb92611e89929116908790600401614f5c565b602060405180830381600087803b158015611ea357600080fd5b505af1158015611eb7573d6000803e3d6000fd5b505050506040513d601f19601f82011682018060405250810190611edb9190614be3565b505b8115611fee5760008054906101000a90046001600160a01b03166001600160a01b0316638f33b5e56040518163ffffffff1660e01b815260040160206040518083038186803b158015611f2f57600080fd5b505afa158015611f43573d6000803e3d6000fd5b505050506040513d601f19601f82011682018060405250810190611f679190614bff565b60985460405163a9059cbb60e01b81526001600160a01b039283169263a9059cbb92611f9a929116908690600401614f5c565b602060405180830381600087803b158015611fb457600080fd5b505af1158015611fc8573d6000803e3d6000fd5b505050506040513d601f19601f82011682018060405250810190611fec9190614be3565b505b60005460408051638f33b5e560e01b815290516001600160a01b0390921691638f838a9f918391638f33b5e591600480820192602092909190829003018186803b15801561203b57600080fd5b505afa15801561204f573d6000803e3d6000fd5b505050506040513d601f19601f820116820180604052508101906120739190614bff565b6001600160a01b03166370a08231306040518263ffffffff1660e01b815260040161209e9190614f0a565b60206040518083038186803b1580156120b657600080fd5b505afa1580156120ca573d6000803e3d6000fd5b505050506040513d601f19601f820116820180604052508101906120ee9190614d7d565b6040518263ffffffff1660e01b815260040161210a9190614f80565b600060405180830381600087803b15801561212457600080fd5b505af1158015612138573d6000803e3d6000fd5b50506000609a5550505050505b565b6065546001600160a01b031690565b61215e6134f9565b609c546001600160a01b0390811691161461217857600080fd5b609c80546001600160a01b03191690556040517ff564c40f4f45e62a2c1e6c22e8bfb46501f0f71fa1c72e5358903fa1115a4b6490610a53906000908190614f42565b6121c36134f9565b609c546001600160a01b039081169116146121dd57600080fd5b6001600160a01b0381166121f057600080fd5b609c80546001600160a01b0319166001600160a01b0383811691909117918290556040517ff564c40f4f45e62a2c1e6c22e8bfb46501f0f71fa1c72e5358903fa1115a4b64926122439216908490614f42565b60405180910390a150565b60008054604051631be9449960e11b81526001600160a01b03909116916337d289329161228091908190600401614f89565b600060405180830381600087803b15801561229a57600080fd5b505af11580156122ae573d6000803e3d6000fd5b50505050600061233d600260008054906101000a90046001600160a01b03166001600160a01b03166309e3de416040518163ffffffff1660e01b815260040160206040518083038186803b15801561230557600080fd5b505afa158015612319573d6000803e3d6000fd5b505050506040513d601f19601f82011682018060405250810190611d729190614d7d565b905080156126b25760008054906101000a90046001600160a01b03166001600160a01b0316638f33b5e56040518163ffffffff1660e01b815260040160206040518083038186803b15801561239157600080fd5b505afa1580156123a5573d6000803e3d6000fd5b505050506040513d601f19601f820116820180604052508101906123c99190614bff565b60995460405163a9059cbb60e01b81526001600160a01b039283169263a9059cbb926123fc929116908590600401614f5c565b602060405180830381600087803b15801561241657600080fd5b505af115801561242a573d6000803e3d6000fd5b505050506040513d601f19601f8201168201806040525081019061244e9190614be3565b61245757600080fd5b60006124696064611d72846046613c06565b905080156125835760008054906101000a90046001600160a01b03166001600160a01b0316638f33b5e56040518163ffffffff1660e01b815260040160206040518083038186803b1580156124bd57600080fd5b505afa1580156124d1573d6000803e3d6000fd5b505050506040513d601f19601f820116820180604052508101906124f59190614bff565b60975460405163a9059cbb60e01b81526001600160a01b039283169263a9059cbb92612528929116908590600401614f5c565b602060405180830381600087803b15801561254257600080fd5b505af1158015612556573d6000803e3d6000fd5b505050506040513d601f19601f8201168201806040525081019061257a9190614be3565b61258357600080fd5b60006125956064611d7285601e613c06565b905080156126af5760008054906101000a90046001600160a01b03166001600160a01b0316638f33b5e56040518163ffffffff1660e01b815260040160206040518083038186803b1580156125e957600080fd5b505afa1580156125fd573d6000803e3d6000fd5b505050506040513d601f19601f820116820180604052508101906126219190614bff565b60985460405163a9059cbb60e01b81526001600160a01b039283169263a9059cbb92612654929116908590600401614f5c565b602060405180830381600087803b15801561266e57600080fd5b505af1158015612682573d6000803e3d6000fd5b505050506040513d601f19601f820116820180604052508101906126a69190614be3565b6126af57600080fd5b50505b50565b6126be81613c82565b80156126df57506126cd6134f9565b609c546001600160a01b039081169116145b6126e857600080fd5b6127796201731860008054906101000a90046001600160a01b03166001600160a01b03166331db122c6040518163ffffffff1660e01b815260040160206040518083038186803b15801561273b57600080fd5b505afa15801561274f573d6000803e3d6000fd5b505050506040513d601f19601f820116820180604052508101906127739190614d7d565b9061375c565b43116127975760405162461bcd60e51b81526004016106369061519f565b60405163095ea7b360e01b81526001600160a01b0384169063095ea7b3906127c59084908690600401614f5c565b602060405180830381600087803b1580156127df57600080fd5b505af11580156127f3573d6000803e3d6000fd5b505050506040513d601f19601f820116820180604052508101906107a09190614be3565b609b54156121455760008060008060009054906101000a90046001600160a01b03166001600160a01b031663fb70c3bf6040518163ffffffff1660e01b815260040160206040518083038186803b15801561287157600080fd5b505afa158015612885573d6000803e3d6000fd5b505050506040513d601f19601f820116820180604052508101906128a99190614bff565b6001600160a01b03166370a08231306040518263ffffffff1660e01b81526004016128d49190614f0a565b60206040518083038186803b1580156128ec57600080fd5b505afa158015612900573d6000803e3d6000fd5b505050506040513d601f19601f820116820180604052508101906129249190614d7d565b905080609b541115612959576129406064611d72836046613c06565b92506129526064611d7283601e613c06565b9150612994565b6129746064611d726046609b54613c0690919063ffffffff16565b92506129916064611d72601e609b54613c0690919063ffffffff16565b91505b8215612aa55760008054906101000a90046001600160a01b03166001600160a01b031663fb70c3bf6040518163ffffffff1660e01b815260040160206040518083038186803b1580156129e657600080fd5b505afa1580156129fa573d6000803e3d6000fd5b505050506040513d601f19601f82011682018060405250810190612a1e9190614bff565b60975460405163a9059cbb60e01b81526001600160a01b039283169263a9059cbb92612a51929116908790600401614f5c565b602060405180830381600087803b158015612a6b57600080fd5b505af1158015612a7f573d6000803e3d6000fd5b505050506040513d601f19601f82011682018060405250810190612aa39190614be3565b505b8115612bb65760008054906101000a90046001600160a01b03166001600160a01b031663fb70c3bf6040518163ffffffff1660e01b815260040160206040518083038186803b158015612af757600080fd5b505afa158015612b0b573d6000803e3d6000fd5b505050506040513d601f19601f82011682018060405250810190612b2f9190614bff565b60985460405163a9059cbb60e01b81526001600160a01b039283169263a9059cbb92612b62929116908690600401614f5c565b602060405180830381600087803b158015612b7c57600080fd5b505af1158015612b90573d6000803e3d6000fd5b505050506040513d601f19601f82011682018060405250810190612bb49190614be3565b505b6000546040805163fb70c3bf60e01b815290516001600160a01b039092169163094601f191839163fb70c3bf91600480820192602092909190829003018186803b158015612c0357600080fd5b505afa158015612c17573d6000803e3d6000fd5b505050506040513d601f19601f82011682018060405250810190612c3b9190614bff565b6001600160a01b03166370a08231306040518263ffffffff1660e01b8152600401612c669190614f0a565b60206040518083038186803b158015612c7e57600080fd5b505afa158015612c92573d6000803e3d6000fd5b505050506040513d601f19601f82011682018060405250810190612cb69190614d7d565b6040518263ffffffff1660e01b8152600401612cd29190614f80565b600060405180830381600087803b158015612cec57600080fd5b505af1158015612d00573d6000803e3d6000fd5b50506000609b555050505050565b6000546040516360443a4560e01b81526001600160a01b03909116906360443a4590612d449085903390889087906004016152d8565b600060405180830381600087803b158015612d5e57600080fd5b505af1158015612d72573d6000803e3d6000fd5b50505050826001600160a01b0316336001600160a01b03167fb3fd5071835887567a0671151121894ddccc2842f1d10bedad13e0d17cace9a78484604051612dbb9291906153b6565b60405180910390a3505050565b612dd06134f9565b6065546001600160a01b03908116911614612dfd5760405162461bcd60e51b81526004016106369061511c565b6103e88161ffff161115612e235760405162461bcd60e51b8152600401610636906151c6565b6099805461ffff909216600160a01b0261ffff60a01b19909216919091179055565b612e4d6149d8565b600054612e649084906001600160a01b0316613239565b9050612e6e614a19565b600054612e8790859033906001600160a01b031661330c565b9050612e938433613471565b8215612f665781516040516323b872dd60e01b81526001600160a01b03909116906323b872dd90612ecc90339030908890600401614f1e565b602060405180830381600087803b158015612ee657600080fd5b505af1158015612efa573d6000803e3d6000fd5b505050506040513d601f19601f82011682018060405250810190612f1e9190614be3565b508051612f2b908461375c565b81526060810151151580612f43575060008160800151115b15612f665760008054612f669183918591339181906001600160a01b03166133d4565b612f7081836134ab565b6000546040516303c4399d60e11b81526001600160a01b0390911690630788733a90612fa4908790339086906004016152fd565b600060405180830381600087803b158015612fbe57600080fd5b505af1158015612fd2573d6000803e3d6000fd5b505060005460405163d4665bb760e01b81526001600160a01b03909116925063d4665bb791506130089087908690600401615361565b600060405180830381600087803b15801561302257600080fd5b505af1158015613036573d6000803e3d6000fd5b5050505083336001600160a01b03167f90890809c654f11d6e72a28fa60149770a0d11ec6c92319d6ceb2bb0a4ea1a15856040516130749190614f80565b60405180910390a350505050565b61308a6134f9565b6065546001600160a01b039081169116146130b75760405162461bcd60e51b81526004016106369061511c565b6001600160a01b0381166130dd5760405162461bcd60e51b815260040161063690614fcc565b6065546040516001600160a01b038084169216907f8be0079c531659141344cd1fd0a4f28419497f9722a3daafe3b4186f6b6457e090600090a3606580546001600160a01b0319166001600160a01b0392909216919091179055565b600054600160a81b900460ff16806131545750613154613c88565b806131695750600054600160a01b900460ff16155b6131855760405162461bcd60e51b815260040161063690615151565b600054600160a81b900460ff161580156131bc576000805460ff60a01b1960ff60a81b19909116600160a81b1716600160a01b1790555b6131c4613c8e565b60998054609c80546001600160a01b03199081166001600160a01b038a81169190911790925561ffff60a01b1990921660b560a21b17821687821617909255609780548216868416179055609880549091169184169190911790558015610c0b576000805460ff60a81b191690555050505050565b6132416149d8565b600080600080600080876001600160a01b0316631526fe278a6040518263ffffffff1660e01b81526004016132769190614f80565b60c06040518083038186803b15801561328e57600080fd5b505afa1580156132a2573d6000803e3d6000fd5b505050506040513d601f19601f820116820180604052508101906132c69190614c1b565b6040805160c0810182526001600160a01b03909716875260208701959095529385019290925260608401521515608083015260a082015296505050505050505b92915050565b613314614a19565b600080600080600080876001600160a01b03166393f1a40b8b8b6040518363ffffffff1660e01b815260040161334b9291906152c1565b60c06040518083038186803b15801561336357600080fd5b505afa158015613377573d6000803e3d6000fd5b505050506040513d601f19601f8201168201806040525081019061339b9190614e6b565b6040805160c0810182529687526020870195909552938501929092526060840152608083015260a08201529a9950505050505050505050565b606086015160006133f788866133ee5789608001516133f0565b865b8886613d37565b905060006134176064611d72848c60000151613c0690919063ffffffff16565b60608a01819052905084156134485761343e61343384836134fd565b60a08a0151906134fd565b60a0890152613466565b61346061345582856134fd565b60a08a01519061375c565b60a08901525b505050505050505050565b6134796115ef565b6000806134868484610565565b9092509050811561349b5761349b8383613e0c565b80156107a0576107a0838261424a565b6134cb64e8d4a51000611d7283604001516134c5866146ba565b90613c06565b602083015260608101516134ed9064e8d4a5100090611d72906134c5866146ba565b60409092019190915250565b3390565b600061353f83836040518060400160405280601e81526020017f536166654d6174683a207375627472616374696f6e206f766572666c6f7700008152506146ce565b9392505050565b61354e6149d8565b6000546135659086906001600160a01b0316613239565b905080608001516135885760405162461bcd60e51b815260040161063690615260565b613590614a19565b6000546135a990879086906001600160a01b031661330c565b905084816000015110156135cf5760405162461bcd60e51b81526004016106369061507e565b6135d98685613471565b841561363e5780516135eb90866134fd565b81528151613603906001600160a01b03168487613781565b60008160600151118061361a575060008160800151115b1561363e576000805461363e918391859188916001906001600160a01b03166133d4565b61364881836134ab565b6000546040516303c4399d60e11b81526001600160a01b0390911690630788733a9061367c908990339086906004016152fd565b600060405180830381600087803b15801561369657600080fd5b505af11580156136aa573d6000803e3d6000fd5b505060005460405163d4665bb760e01b81526001600160a01b03909116925063d4665bb791506136e09089908690600401615361565b600060405180830381600087803b1580156136fa57600080fd5b505af115801561370e573d6000803e3d6000fd5b5050505085836001600160a01b03167ff279e6a1f5e320cca91135676d9cb6e44ca8a08c0b88342bcdb1144f6511b5688760405161374c9190614f80565b60405180910390a3505050505050565b60008282018381101561353f5760405162461bcd60e51b815260040161063690615012565b6126af8363a9059cbb60e01b84846040516024016137a0929190614f5c565b60408051601f198184030181529190526020810180516001600160e01b03166001600160e01b0319909316929092179091526146fa565b6000806137e26149d8565b6000546137f99085906001600160a01b0316613239565b9050600081600001516001600160a01b03166370a08231306040518263ffffffff1660e01b815260040161382d9190614f0a565b60206040518083038186803b15801561384557600080fd5b505afa158015613859573d6000803e3d6000fd5b505050506040513d601f19601f8201168201806040525081019061387d9190614d7d565b90508061389257600080935093505050613c01565b60006138ab8360a001518361375c90919063ffffffff16565b90506139b660008054906101000a90046001600160a01b03166001600160a01b03166317caf6f16040518163ffffffff1660e01b815260040160206040518083038186803b1580156138fc57600080fd5b505afa158015613910573d6000803e3d6000fd5b505050506040513d601f19601f820116820180604052508101906139349190614d7d565b602080860151600054604080516376f69fed60e11b81529051611d72946001600160a01b039093169263eded3fda9260048082019391829003018186803b15801561397e57600080fd5b505afa158015613992573d6000803e3d6000fd5b505050506040513d601f19601f820116820180604052508101906134c59190614d7d565b6099549095506000906139dd9061271090611d72908990600160a01b900461ffff16613c06565b609a549091506139ed908261375c565b609a556000805460408051638b6ff57b60e01b815290516001600160a01b0390921691638b6ff57b91600480820192602092909190829003018186803b158015613a3657600080fd5b505afa158015613a4a573d6000803e3d6000fd5b505050506040513d601f19601f82011682018060405250810190613a6e9190614d7d565b90508015613b6a57600054604080516317caf6f160e01b81529051613b04926001600160a01b0316916317caf6f1916004808301926020929190829003018186803b158015613abc57600080fd5b505afa158015613ad0573d6000803e3d6000fd5b505050506040513d601f19601f82011682018060405250810190613af49190614d7d565b6020870151611d72908490613c06565b609954909650600090613b2b9061271090611d72908a90600160a01b900461ffff16613c06565b609b54909150613b3b908261375c565b609b55613b63613b5885611d7264e8d4a510006134c58c876134fd565b60608801519061375c565b6060870152505b613b8f613b8484611d7264e8d4a510006134c58c886134fd565b60408701519061375c565b604080870191909152600054905163d4665bb760e01b81526001600160a01b039091169063d4665bb790613bc9908b908990600401615361565b600060405180830381600087803b158015613be357600080fd5b505af1158015613bf7573d6000803e3d6000fd5b5050505050505050505b915091565b600082613c1557506000613306565b82820282848281613c2257fe5b041461353f5760405162461bcd60e51b8152600401610636906150db565b600061353f83836040518060400160405280601a81526020017f536166654d6174683a206469766973696f6e206279207a65726f0000000000008152506147df565b3b151590565b303b1590565b600054600160a81b900460ff1680613ca95750613ca9613c88565b80613cbe5750600054600160a01b900460ff16155b613cda5760405162461bcd60e51b815260040161063690615151565b600054600160a81b900460ff16158015613d11576000805460ff60a01b1960ff60a81b19909116600160a81b1716600160a01b1790555b613d19614816565b613d216148ae565b80156126b2576000805460ff60a81b1916905550565b600080826001600160a01b03166391328af2856040518263ffffffff1660e01b8152600401613d669190614f0a565b60206040518083038186803b158015613d7e57600080fd5b505afa158015613d92573d6000803e3d6000fd5b505050506040513d601f19601f82011682018060405250810190613db69190614d7d565b9050613e0081846001600160a01b0316636798f19f886040518263ffffffff1660e01b8152600401613de89190614f80565b60206040518083038186803b15801561273b57600080fd5b9150505b949350505050565b60008060009054906101000a90046001600160a01b03166001600160a01b0316638f33b5e56040518163ffffffff1660e01b815260040160206040518083038186803b158015613e5b57600080fd5b505afa158015613e6f573d6000803e3d6000fd5b505050506040513d601f19601f82011682018060405250810190613e939190614bff565b6001600160a01b03166370a08231306040518263ffffffff1660e01b8152600401613ebe9190614f0a565b60206040518083038186803b158015613ed657600080fd5b505afa158015613eea573d6000803e3d6000fd5b505050506040513d601f19601f82011682018060405250810190613f0e9190614d7d565b9050808211156140215760008054906101000a90046001600160a01b03166001600160a01b0316638f33b5e56040518163ffffffff1660e01b815260040160206040518083038186803b158015613f6457600080fd5b505afa158015613f78573d6000803e3d6000fd5b505050506040513d601f19601f82011682018060405250810190613f9c9190614bff565b6001600160a01b031663a9059cbb84836040518363ffffffff1660e01b8152600401613fc9929190614f5c565b602060405180830381600087803b158015613fe357600080fd5b505af1158015613ff7573d6000803e3d6000fd5b505050506040513d601f19601f8201168201806040525081019061401b9190614be3565b50614126565b60008054906101000a90046001600160a01b03166001600160a01b0316638f33b5e56040518163ffffffff1660e01b815260040160206040518083038186803b15801561406d57600080fd5b505afa158015614081573d6000803e3d6000fd5b505050506040513d601f19601f820116820180604052508101906140a59190614bff565b6001600160a01b031663a9059cbb84846040518363ffffffff1660e01b81526004016140d2929190614f5c565b602060405180830381600087803b1580156140ec57600080fd5b505af1158015614100573d6000803e3d6000fd5b505050506040513d601f19601f820116820180604052508101906141249190614be3565b505b61412e611c49565b60005460408051638f33b5e560e01b815290516001600160a01b0390921691638f838a9f918391638f33b5e591600480820192602092909190829003018186803b15801561417b57600080fd5b505afa15801561418f573d6000803e3d6000fd5b505050506040513d601f19601f820116820180604052508101906141b39190614bff565b6001600160a01b03166370a08231306040518263ffffffff1660e01b81526004016141de9190614f0a565b60206040518083038186803b1580156141f657600080fd5b505afa15801561420a573d6000803e3d6000fd5b505050506040513d601f19601f8201168201806040525081019061422e9190614d7d565b6040518263ffffffff1660e01b815260040161121f9190614f80565b60008060009054906101000a90046001600160a01b03166001600160a01b031663fb70c3bf6040518163ffffffff1660e01b815260040160206040518083038186803b15801561429957600080fd5b505afa1580156142ad573d6000803e3d6000fd5b505050506040513d601f19601f820116820180604052508101906142d19190614bff565b6001600160a01b03166370a08231306040518263ffffffff1660e01b81526004016142fc9190614f0a565b60206040518083038186803b15801561431457600080fd5b505afa158015614328573d6000803e3d6000fd5b505050506040513d601f19601f8201168201806040525081019061434c9190614d7d565b90508082111561445f5760008054906101000a90046001600160a01b03166001600160a01b031663fb70c3bf6040518163ffffffff1660e01b815260040160206040518083038186803b1580156143a257600080fd5b505afa1580156143b6573d6000803e3d6000fd5b505050506040513d601f19601f820116820180604052508101906143da9190614bff565b6001600160a01b031663a9059cbb84836040518363ffffffff1660e01b8152600401614407929190614f5c565b602060405180830381600087803b15801561442157600080fd5b505af1158015614435573d6000803e3d6000fd5b505050506040513d601f19601f820116820180604052508101906144599190614be3565b50614564565b60008054906101000a90046001600160a01b03166001600160a01b031663fb70c3bf6040518163ffffffff1660e01b815260040160206040518083038186803b1580156144ab57600080fd5b505afa1580156144bf573d6000803e3d6000fd5b505050506040513d601f19601f820116820180604052508101906144e39190614bff565b6001600160a01b031663a9059cbb84846040518363ffffffff1660e01b8152600401614510929190614f5c565b602060405180830381600087803b15801561452a57600080fd5b505af115801561453e573d6000803e3d6000fd5b505050506040513d601f19601f820116820180604052508101906145629190614be3565b505b6000546040805163fb70c3bf60e01b815290516001600160a01b039092169163094601f191839163fb70c3bf91600480820192602092909190829003018186803b1580156145b157600080fd5b505afa1580156145c5573d6000803e3d6000fd5b505050506040513d601f19601f820116820180604052508101906145e99190614bff565b6001600160a01b03166370a08231306040518263ffffffff1660e01b81526004016146149190614f0a565b60206040518083038186803b15801561462c57600080fd5b505afa158015614640573d6000803e3d6000fd5b505050506040513d601f19601f820116820180604052508101906146649190614d7d565b6040518263ffffffff1660e01b81526004016146809190614f80565b600060405180830381600087803b15801561469a57600080fd5b505af11580156146ae573d6000803e3d6000fd5b505050506126af612817565b60608101518151600091613306919061375c565b600081848411156146f25760405162461bcd60e51b81526004016106369190614f99565b505050900390565b61470c826001600160a01b031661499f565b6147285760405162461bcd60e51b81526004016106369061528a565b60006060836001600160a01b0316836040516147449190614eee565b6000604051808303816000865af19150503d8060008114614781576040519150601f19603f3d011682016040523d82523d6000602084013e614786565b606091505b5091509150816147a85760405162461bcd60e51b815260040161063690615049565b8051156107a057808060200190518101906147c39190614be3565b6107a05760405162461bcd60e51b815260040161063690615216565b600081836148005760405162461bcd60e51b81526004016106369190614f99565b50600083858161480c57fe5b0495945050505050565b600054600160a81b900460ff16806148315750614831613c88565b806148465750600054600160a01b900460ff16155b6148625760405162461bcd60e51b815260040161063690615151565b600054600160a81b900460ff16158015613d21576000805460ff60a01b1960ff60a81b19909116600160a81b1716600160a01b17905580156126b2576000805460ff60a81b1916905550565b600054600160a81b900460ff16806148c957506148c9613c88565b806148de5750600054600160a01b900460ff16155b6148fa5760405162461bcd60e51b815260040161063690615151565b600054600160a81b900460ff16158015614931576000805460ff60a01b1960ff60a81b19909116600160a81b1716600160a01b1790555b600061493b6134f9565b606580546001600160a01b0319166001600160a01b038316908117909155604051919250906000907f8be0079c531659141344cd1fd0a4f28419497f9722a3daafe3b4186f6b6457e0908290a35080156126b2576000805460ff60a81b1916905550565b6000813f7fc5d2460186f7233c927e7db2dcc703c0e500b653ca82273b7bfad8045d85a470818114801590613e04575050151592915050565b6040518060c0016040528060006001600160a01b03168152602001600081526020016000815260200160008152602001600015158152602001600081525090565b6040518060c001604052806000815260200160008152602001600081526020016000815260200160008152602001600081525090565b60405180606001604052806060815260200160008152602001600080191681525090565b600060208284031215614a84578081fd5b813561353f8161542f565b600080600060608486031215614aa3578182fd5b8335614aae8161542f565b92506020840135614abe8161542f565b91506040840135614ace8161542f565b809150509250925092565b60008060008060808587031215614aee578081fd5b8435614af98161542f565b93506020850135614b098161542f565b92506040850135614b198161542f565b91506060850135614b298161542f565b939692955090935050565b60008060008060808587031215614b49578384fd5b8435614b548161542f565b93506020850135614b648161542f565b93969395505050506040820135916060013590565b600080600060608486031215614b8d578283fd5b8335614b988161542f565b9250602084013591506040840135614ace8161542f565b600080600060608486031215614bc3578283fd5b8335614bce8161542f565b95602085013595506040909401359392505050565b600060208284031215614bf4578081fd5b815161353f81615444565b600060208284031215614c10578081fd5b815161353f8161542f565b60008060008060008060c08789031215614c33578182fd5b8651614c3e8161542f565b809650506020870151945060408701519350606087015192506080870151614c6581615444565b8092505060a087015190509295509295509295565b60006020808385031215614c8c578182fd5b825167ffffffffffffffff80821115614ca3578384fd5b9084019060608287031215614cb6578384fd5b614cc060606153dc565b825182811115614cce578586fd5b8301601f81018813614cde578586fd5b805183811115614cec578687fd5b614cfe601f8201601f191687016153dc565b93508084528886828401011115614d13578687fd5b614d2281878601888501615403565b50509081528183015192810192909252604090810151908201529392505050565b600060208284031215614d54578081fd5b813561ffff8116811461353f578182fd5b600060208284031215614d76578081fd5b5035919050565b600060208284031215614d8e578081fd5b5051919050565b60008060408385031215614da7578182fd5b823591506020830135614db98161542f565b809150509250929050565b600080600060608486031215614dd8578081fd5b833592506020840135614dea8161542f565b91506040840135614ace81615444565b60008060408385031215614e0c578182fd5b50508035926020909101359150565b60008060408385031215614e2d578182fd5b505080516020909101519092909150565b600080600060608486031215614e52578081fd5b83359250602084013591506040840135614ace81615444565b60008060008060008060c08789031215614e83578384fd5b865195506020870151945060408701519350606087015192506080870151915060a087015190509295509295509295565b805182526020810151602083015260408101516040830152606081015160608301526080810151608083015260a081015160a08301525050565b60008251614f00818460208701615403565b9190910192915050565b6001600160a01b0391909116815260200190565b6001600160a01b039384168152919092166020820152604081019190915260600190565b6001600160a01b0392831681529116602082015260400190565b6001600160a01b03929092168252602082015260400190565b901515815260200190565b90815260200190565b9182521515602082015260400190565b6000602082528251806020840152614fb8816040850160208701615403565b601f01601f19169190910160400192915050565b60208082526026908201527f4f776e61626c653a206e6577206f776e657220697320746865207a65726f206160408201526564647265737360d01b606082015260800190565b6020808252601b908201527f536166654d6174683a206164646974696f6e206f766572666c6f770000000000604082015260600190565b6020808252818101527f5361666545524332303a206c6f772d6c6576656c2063616c6c206661696c6564604082015260600190565b6020808252601f908201527f576974686472617720616d6f756e7420657863656564732062616c616e636500604082015260600190565b6020808252600c908201526b4e6f20616c6c6f77616e636560a01b604082015260600190565b60208082526021908201527f536166654d6174683a206d756c7469706c69636174696f6e206f766572666c6f6040820152607760f81b606082015260800190565b6020808252818101527f4f776e61626c653a2063616c6c6572206973206e6f7420746865206f776e6572604082015260600190565b6020808252602e908201527f436f6e747261637420696e7374616e63652068617320616c726561647920626560408201526d195b881a5b9a5d1a585b1a5e995960921b606082015260800190565b6020808252600d908201526c476f76206e6f7420726561647960981b604082015260600190565b6020808252600790820152664d61782031302560c81b604082015260600190565b602080825260159082015274506f6f6c206e6f7420776974686472617761626c6560581b604082015260600190565b6020808252602a908201527f5361666545524332303a204552433230206f7065726174696f6e20646964206e6040820152691bdd081cdd58d8d9595960b21b606082015260800190565b60208082526010908201526f4e6f7420776974686472617761626c6560801b604082015260600190565b6020808252601f908201527f5361666545524332303a2063616c6c20746f206e6f6e2d636f6e747261637400604082015260600190565b9182526001600160a01b0316602082015260400190565b9384526001600160a01b03928316602085015291166040830152606082015260800190565b8381526001600160a01b03831660208201526101008101613e046040830184614eb4565b9283526001600160a01b03918216602084015216604082015260600190565b9283526001600160a01b039190911660208301521515604082015260600190565b600060e08201905083825260018060a01b0383511660208301526020830151604083015260408301516060830152606083015160808301526080830151151560a083015260a083015160c08301529392505050565b918252602082015260400190565b92835260208301919091521515604082015260600190565b60405181810167ffffffffffffffff811182821017156153fb57600080fd5b604052919050565b60005b8381101561541e578181015183820152602001615406565b838111156107a05750506000910152565b6001600160a01b03811681146126b257600080fd5b80151581146126b257600080fdfea264697066735822122069f7bc6a1083924d435272972a1d915c468c8e552ba0ea2cb4e9f65d25df76f764736f6c634300060c0033",
  "devdoc": {
    "kind": "dev",
    "methods": {
      "owner()": {
        "details": "Returns the address of the current owner."
      },
      "renounceOwnership()": {
        "details": "Leaves the contract without owner. It will not be possible to call `onlyOwner` functions anymore. Can only be called by the current owner. NOTE: Renouncing ownership will leave the contract without an owner, thereby removing any functionality that is only available to the owner."
      },
      "transferOwnership(address)": {
        "details": "Transfers ownership of the contract to a new account (`newOwner`). Can only be called by the current owner."
      }
    },
    "version": 1
  },
  "userdoc": {
    "kind": "user",
    "methods": {},
    "version": 1
  },
  "storageLayout": {
    "storage": [
      {
        "astId": 13848,
        "contract": "contracts/RAMVault.sol:RAMVault",
        "label": "_storage",
        "offset": 0,
        "slot": "0",
        "type": "t_contract(YGYStorageV1)15570"
      },
      {
        "astId": 195,
        "contract": "contracts/RAMVault.sol:RAMVault",
        "label": "initialized",
        "offset": 20,
        "slot": "0",
        "type": "t_bool"
      },
      {
        "astId": 198,
        "contract": "contracts/RAMVault.sol:RAMVault",
        "label": "initializing",
        "offset": 21,
        "slot": "0",
        "type": "t_bool"
      },
      {
        "astId": 263,
        "contract": "contracts/RAMVault.sol:RAMVault",
        "label": "______gap",
        "offset": 0,
        "slot": "1",
        "type": "t_array(t_uint256)50_storage"
      },
      {
        "astId": 188,
        "contract": "contracts/RAMVault.sol:RAMVault",
        "label": "__gap",
        "offset": 0,
        "slot": "51",
        "type": "t_array(t_uint256)50_storage"
      },
      {
        "astId": 565,
        "contract": "contracts/RAMVault.sol:RAMVault",
        "label": "_owner",
        "offset": 0,
        "slot": "101",
        "type": "t_address"
      },
      {
        "astId": 683,
        "contract": "contracts/RAMVault.sol:RAMVault",
        "label": "__gap",
        "offset": 0,
        "slot": "102",
        "type": "t_array(t_uint256)49_storage"
      },
      {
        "astId": 11846,
        "contract": "contracts/RAMVault.sol:RAMVault",
        "label": "devaddr",
        "offset": 0,
        "slot": "151",
        "type": "t_address"
      },
      {
        "astId": 11848,
        "contract": "contracts/RAMVault.sol:RAMVault",
        "label": "teamaddr",
        "offset": 0,
        "slot": "152",
        "type": "t_address"
      },
      {
        "astId": 11850,
        "contract": "contracts/RAMVault.sol:RAMVault",
        "label": "regeneratoraddr",
        "offset": 0,
        "slot": "153",
        "type": "t_address"
      },
      {
        "astId": 13304,
        "contract": "contracts/RAMVault.sol:RAMVault",
        "label": "DEV_FEE",
        "offset": 20,
        "slot": "153",
        "type": "t_uint16"
      },
      {
        "astId": 13325,
        "contract": "contracts/RAMVault.sol:RAMVault",
        "label": "pending_DEV_rewards",
        "offset": 0,
        "slot": "154",
        "type": "t_uint256"
      },
      {
        "astId": 13327,
        "contract": "contracts/RAMVault.sol:RAMVault",
        "label": "pending_DEV_YGY_rewards",
        "offset": 0,
        "slot": "155",
        "type": "t_uint256"
      },
      {
        "astId": 13771,
        "contract": "contracts/RAMVault.sol:RAMVault",
        "label": "_superAdmin",
        "offset": 0,
        "slot": "156",
        "type": "t_address"
      }
    ],
    "types": {
      "t_address": {
        "encoding": "inplace",
        "label": "address",
        "numberOfBytes": "20"
      },
      "t_array(t_uint256)49_storage": {
        "base": "t_uint256",
        "encoding": "inplace",
        "label": "uint256[49]",
        "numberOfBytes": "1568"
      },
      "t_array(t_uint256)50_storage": {
        "base": "t_uint256",
        "encoding": "inplace",
        "label": "uint256[50]",
        "numberOfBytes": "1600"
      },
      "t_bool": {
        "encoding": "inplace",
        "label": "bool",
        "numberOfBytes": "1"
      },
      "t_contract(YGYStorageV1)15570": {
        "encoding": "inplace",
        "label": "contract YGYStorageV1",
        "numberOfBytes": "20"
      },
      "t_uint16": {
        "encoding": "inplace",
        "label": "uint16",
        "numberOfBytes": "2"
      },
      "t_uint256": {
        "encoding": "inplace",
        "label": "uint256",
        "numberOfBytes": "32"
      }
    }
  }
}