{
  "address": "0x0146C13594E7954bBBf6ea973a065f07A09217B5",
  "abi": [
    {
      "inputs": [],
      "stateMutability": "nonpayable",
      "type": "constructor"
    },
    {
      "stateMutability": "payable",
      "type": "fallback"
    },
    {
      "inputs": [],
      "name": "implementation",
      "outputs": [
        {
          "internalType": "address",
          "name": "impl",
          "type": "address"
        }
      ],
      "stateMutability": "view",
      "type": "function"
    },
    {
      "inputs": [],
      "name": "proxyOwner",
      "outputs": [
        {
          "internalType": "address",
          "name": "owner",
          "type": "address"
        }
      ],
      "stateMutability": "view",
      "type": "function"
    },
    {
      "inputs": [
        {
          "internalType": "address",
          "name": "_implementation",
          "type": "address"
        },
        {
          "internalType": "contract YGYStorageV1",
          "name": "__storage",
          "type": "address"
        }
      ],
      "name": "setup",
      "outputs": [],
      "stateMutability": "nonpayable",
      "type": "function"
    }
  ],
  "transactionHash": "0x3241bd344f67216a01c70b5bb8d100ee13b6f30b0bc92ba688e54af2dc69955f",
  "args": [],
  "solcInputHash": "d9da18d08eae42d67632b558d5cb2179",
  "bytecode": "0x608060405234801561001057600080fd5b5061001a3361001f565b610043565b7fd05446a80abe7f1728fee2dff022e0a52c8fe322b0c45836db59dea171d25e7255565b6101f6806100526000396000f3fe6080604052600436106100345760003560e01c8063025313a2146100645780632d34ba79146100955780635c60da1b14610064575b600061003e6100d2565b90503660008037600080366000845af43d6000803e80801561005f573d6000f35b3d6000fd5b34801561007057600080fd5b506100796100d2565b604080516001600160a01b039092168252519081900360200190f35b3480156100a157600080fd5b506100d0600480360360408110156100b857600080fd5b506001600160a01b03813581169160200135166100f7565b005b7fd05446a80abe7f1728fee2dff022e0a52c8fe322b0c45836db59dea171d25e725490565b6100ff6100d2565b6001600160a01b0316336001600160a01b03161461011c57600080fd5b61012533610133565b61012f8282610157565b5050565b7fd05446a80abe7f1728fee2dff022e0a52c8fe322b0c45836db59dea171d25e7255565b61015f6100d2565b6001600160a01b0316336001600160a01b03161461017c57600080fd5b600080546001600160a01b0319166001600160a01b03929092169190911790557fd05446a80abe7f1728fee2dff022e0a52c8fe322b0c45836db59dea171d25e725556fea264697066735822122043d13726da10a6cd5ede6c73ea8892e997ccd75f20edbfe7e8423621a090e5bf64736f6c634300060c0033",
  "devdoc": {
    "kind": "dev",
    "methods": {},
    "version": 1
  },
  "userdoc": {
    "kind": "user",
    "methods": {},
    "version": 1
  },
  "storageLayout": {
    "storage": [
      {
        "astId": 14004,
        "contract": "contracts/VaultProxy.sol:VaultProxy",
        "label": "_storage",
        "offset": 0,
        "slot": "0",
        "type": "t_contract(YGYStorageV1)15726"
      }
    ],
    "types": {
      "t_contract(YGYStorageV1)15726": {
        "encoding": "inplace",
        "label": "contract YGYStorageV1",
        "numberOfBytes": "20"
      }
    }
  }
}