{
  "address": "0x9070233ce9aBCA46688af3ca185cd3C9e20Ad4D7",
  "abi": [
    {
      "anonymous": false,
      "inputs": [
        {
          "indexed": true,
          "internalType": "bytes32",
          "name": "role",
          "type": "bytes32"
        },
        {
          "indexed": true,
          "internalType": "address",
          "name": "account",
          "type": "address"
        },
        {
          "indexed": true,
          "internalType": "address",
          "name": "sender",
          "type": "address"
        }
      ],
      "name": "RoleGranted",
      "type": "event"
    },
    {
      "anonymous": false,
      "inputs": [
        {
          "indexed": true,
          "internalType": "bytes32",
          "name": "role",
          "type": "bytes32"
        },
        {
          "indexed": true,
          "internalType": "address",
          "name": "account",
          "type": "address"
        },
        {
          "indexed": true,
          "internalType": "address",
          "name": "sender",
          "type": "address"
        }
      ],
      "name": "RoleRevoked",
      "type": "event"
    },
    {
      "inputs": [],
      "name": "DEFAULT_ADMIN_ROLE",
      "outputs": [
        {
          "internalType": "bytes32",
          "name": "",
          "type": "bytes32"
        }
      ],
      "stateMutability": "view",
      "type": "function"
    },
    {
      "inputs": [],
      "name": "MODIFIER_ROLE",
      "outputs": [
        {
          "internalType": "bytes32",
          "name": "",
          "type": "bytes32"
        }
      ],
      "stateMutability": "view",
      "type": "function"
    },
    {
      "inputs": [
        {
          "internalType": "uint256",
          "name": "",
          "type": "uint256"
        },
        {
          "internalType": "address",
          "name": "",
          "type": "address"
        },
        {
          "internalType": "uint256",
          "name": "",
          "type": "uint256"
        }
      ],
      "name": "NFTUsageInfo",
      "outputs": [
        {
          "internalType": "uint256",
          "name": "nftId",
          "type": "uint256"
        },
        {
          "internalType": "uint256",
          "name": "epoch",
          "type": "uint256"
        }
      ],
      "stateMutability": "view",
      "type": "function"
    },
    {
      "inputs": [],
      "name": "RAMVaultStartBlock",
      "outputs": [
        {
          "internalType": "uint256",
          "name": "",
          "type": "uint256"
        }
      ],
      "stateMutability": "view",
      "type": "function"
    },
    {
      "inputs": [],
      "name": "YGYReserve",
      "outputs": [
        {
          "internalType": "uint256",
          "name": "",
          "type": "uint256"
        }
      ],
      "stateMutability": "view",
      "type": "function"
    },
    {
      "inputs": [
        {
          "internalType": "uint256",
          "name": "",
          "type": "uint256"
        }
      ],
      "name": "_NFTs",
      "outputs": [
        {
          "internalType": "address",
          "name": "",
          "type": "address"
        }
      ],
      "stateMutability": "view",
      "type": "function"
    },
    {
      "inputs": [],
      "name": "_RAMToken",
      "outputs": [
        {
          "internalType": "address",
          "name": "",
          "type": "address"
        }
      ],
      "stateMutability": "view",
      "type": "function"
    },
    {
      "inputs": [],
      "name": "_WETH",
      "outputs": [
        {
          "internalType": "contract IWETH",
          "name": "",
          "type": "address"
        }
      ],
      "stateMutability": "view",
      "type": "function"
    },
    {
      "inputs": [],
      "name": "_YGYRAMPair",
      "outputs": [
        {
          "internalType": "address",
          "name": "",
          "type": "address"
        }
      ],
      "stateMutability": "view",
      "type": "function"
    },
    {
      "inputs": [],
      "name": "_YGYToken",
      "outputs": [
        {
          "internalType": "address",
          "name": "",
          "type": "address"
        }
      ],
      "stateMutability": "view",
      "type": "function"
    },
    {
      "inputs": [],
      "name": "_YGYWETHPair",
      "outputs": [
        {
          "internalType": "address",
          "name": "",
          "type": "address"
        }
      ],
      "stateMutability": "view",
      "type": "function"
    },
    {
      "inputs": [],
      "name": "_dXIOTToken",
      "outputs": [
        {
          "internalType": "contract IERC20",
          "name": "",
          "type": "address"
        }
      ],
      "stateMutability": "view",
      "type": "function"
    },
    {
      "inputs": [
        {
          "internalType": "uint256",
          "name": "_amount",
          "type": "uint256"
        },
        {
          "internalType": "bool",
          "name": "_ygy",
          "type": "bool"
        }
      ],
      "name": "addAdditionalRewards",
      "outputs": [],
      "stateMutability": "nonpayable",
      "type": "function"
    },
    {
      "inputs": [
        {
          "internalType": "uint256",
          "name": "_amount",
          "type": "uint256"
        }
      ],
      "name": "addPendingRewards",
      "outputs": [],
      "stateMutability": "nonpayable",
      "type": "function"
    },
    {
      "inputs": [
        {
          "internalType": "uint256",
          "name": "_allocPoint",
          "type": "uint256"
        },
        {
          "internalType": "contract IERC20",
          "name": "_token",
          "type": "address"
        },
        {
          "internalType": "bool",
          "name": "_withdrawable",
          "type": "bool"
        }
      ],
      "name": "addPool",
      "outputs": [],
      "stateMutability": "nonpayable",
      "type": "function"
    },
    {
      "inputs": [
        {
          "internalType": "uint256",
          "name": "",
          "type": "uint256"
        }
      ],
      "name": "addressStorageCount",
      "outputs": [
        {
          "internalType": "uint256",
          "name": "",
          "type": "uint256"
        }
      ],
      "stateMutability": "view",
      "type": "function"
    },
    {
      "inputs": [
        {
          "internalType": "uint256",
          "name": "",
          "type": "uint256"
        }
      ],
      "name": "booleanMapStorageCount",
      "outputs": [
        {
          "internalType": "uint256",
          "name": "",
          "type": "uint256"
        }
      ],
      "stateMutability": "view",
      "type": "function"
    },
    {
      "inputs": [],
      "name": "boostFees",
      "outputs": [
        {
          "internalType": "uint256",
          "name": "",
          "type": "uint256"
        }
      ],
      "stateMutability": "view",
      "type": "function"
    },
    {
      "inputs": [
        {
          "internalType": "uint256",
          "name": "",
          "type": "uint256"
        }
      ],
      "name": "boostLevelCosts",
      "outputs": [
        {
          "internalType": "uint256",
          "name": "",
          "type": "uint256"
        }
      ],
      "stateMutability": "view",
      "type": "function"
    },
    {
      "inputs": [
        {
          "internalType": "uint256",
          "name": "",
          "type": "uint256"
        }
      ],
      "name": "boostLevelMultipliers",
      "outputs": [
        {
          "internalType": "uint256",
          "name": "",
          "type": "uint256"
        }
      ],
      "stateMutability": "view",
      "type": "function"
    },
    {
      "inputs": [
        {
          "internalType": "uint256",
          "name": "_pid",
          "type": "uint256"
        },
        {
          "internalType": "address",
          "name": "_user",
          "type": "address"
        }
      ],
      "name": "checkRewards",
      "outputs": [
        {
          "internalType": "uint256",
          "name": "pendingRAM",
          "type": "uint256"
        },
        {
          "internalType": "uint256",
          "name": "pendingYGY",
          "type": "uint256"
        }
      ],
      "stateMutability": "view",
      "type": "function"
    },
    {
      "inputs": [],
      "name": "cumulativeRewardsSinceStart",
      "outputs": [
        {
          "internalType": "uint256",
          "name": "",
          "type": "uint256"
        }
      ],
      "stateMutability": "view",
      "type": "function"
    },
    {
      "inputs": [],
      "name": "cumulativeYGYRewardsSinceStart",
      "outputs": [
        {
          "internalType": "uint256",
          "name": "",
          "type": "uint256"
        }
      ],
      "stateMutability": "view",
      "type": "function"
    },
    {
      "inputs": [],
      "name": "epoch",
      "outputs": [
        {
          "internalType": "uint256",
          "name": "",
          "type": "uint256"
        }
      ],
      "stateMutability": "view",
      "type": "function"
    },
    {
      "inputs": [],
      "name": "epochCalculationStartBlock",
      "outputs": [
        {
          "internalType": "uint256",
          "name": "",
          "type": "uint256"
        }
      ],
      "stateMutability": "view",
      "type": "function"
    },
    {
      "inputs": [
        {
          "internalType": "uint256",
          "name": "",
          "type": "uint256"
        }
      ],
      "name": "epochRewards",
      "outputs": [
        {
          "internalType": "uint256",
          "name": "",
          "type": "uint256"
        }
      ],
      "stateMutability": "view",
      "type": "function"
    },
    {
      "inputs": [
        {
          "internalType": "string",
          "name": "_key",
          "type": "string"
        }
      ],
      "name": "getAddressStorage",
      "outputs": [
        {
          "internalType": "address",
          "name": "",
          "type": "address"
        }
      ],
      "stateMutability": "view",
      "type": "function"
    },
    {
      "inputs": [
        {
          "internalType": "string",
          "name": "_key",
          "type": "string"
        },
        {
          "internalType": "address",
          "name": "_address",
          "type": "address"
        }
      ],
      "name": "getBooleanMapValue",
      "outputs": [
        {
          "internalType": "bool",
          "name": "",
          "type": "bool"
        }
      ],
      "stateMutability": "view",
      "type": "function"
    },
    {
      "inputs": [
        {
          "internalType": "uint256",
          "name": "_level",
          "type": "uint256"
        }
      ],
      "name": "getBoostLevelCost",
      "outputs": [
        {
          "internalType": "uint256",
          "name": "",
          "type": "uint256"
        }
      ],
      "stateMutability": "view",
      "type": "function"
    },
    {
      "inputs": [
        {
          "internalType": "uint256",
          "name": "_level",
          "type": "uint256"
        }
      ],
      "name": "getBoostLevelMultiplier",
      "outputs": [
        {
          "internalType": "uint256",
          "name": "",
          "type": "uint256"
        }
      ],
      "stateMutability": "view",
      "type": "function"
    },
    {
      "inputs": [
        {
          "internalType": "uint256",
          "name": "_contractId",
          "type": "uint256"
        }
      ],
      "name": "getNFTAddress",
      "outputs": [
        {
          "internalType": "address",
          "name": "",
          "type": "address"
        }
      ],
      "stateMutability": "view",
      "type": "function"
    },
    {
      "inputs": [
        {
          "internalType": "address",
          "name": "_user",
          "type": "address"
        }
      ],
      "name": "getNFTBoost",
      "outputs": [
        {
          "internalType": "uint256",
          "name": "",
          "type": "uint256"
        }
      ],
      "stateMutability": "view",
      "type": "function"
    },
    {
      "inputs": [
        {
          "internalType": "uint256",
          "name": "_contractId",
          "type": "uint256"
        },
        {
          "internalType": "uint256",
          "name": "_index",
          "type": "uint256"
        }
      ],
      "name": "getNFTProperty",
      "outputs": [
        {
          "internalType": "string",
          "name": "",
          "type": "string"
        },
        {
          "internalType": "uint256",
          "name": "",
          "type": "uint256"
        },
        {
          "internalType": "bytes32",
          "name": "",
          "type": "bytes32"
        }
      ],
      "stateMutability": "view",
      "type": "function"
    },
    {
      "inputs": [
        {
          "internalType": "uint256",
          "name": "_contractId",
          "type": "uint256"
        }
      ],
      "name": "getNFTPropertyCount",
      "outputs": [
        {
          "internalType": "uint256",
          "name": "",
          "type": "uint256"
        }
      ],
      "stateMutability": "view",
      "type": "function"
    },
    {
      "inputs": [
        {
          "internalType": "address",
          "name": "_user",
          "type": "address"
        }
      ],
      "name": "getNFTsInUse",
      "outputs": [
        {
          "components": [
            {
              "internalType": "uint256",
              "name": "nftId",
              "type": "uint256"
            },
            {
              "internalType": "uint256",
              "name": "epoch",
              "type": "uint256"
            }
          ],
          "internalType": "struct YGYStorageV1.NFTUsage[]",
          "name": "",
          "type": "tuple[]"
        }
      ],
      "stateMutability": "view",
      "type": "function"
    },
    {
      "inputs": [
        {
          "internalType": "uint256",
          "name": "_poolId",
          "type": "uint256"
        }
      ],
      "name": "getPoolInfo",
      "outputs": [
        {
          "internalType": "contract IERC20",
          "name": "_token",
          "type": "address"
        },
        {
          "internalType": "uint256",
          "name": "_allocPointt",
          "type": "uint256"
        },
        {
          "internalType": "uint256",
          "name": "_accRAMPerShare",
          "type": "uint256"
        },
        {
          "internalType": "uint256",
          "name": "_accYGYPerShare",
          "type": "uint256"
        },
        {
          "internalType": "bool",
          "name": "_withdrawable",
          "type": "bool"
        },
        {
          "internalType": "uint256",
          "name": "_effectiveAdditionalTokensFromBoosts",
          "type": "uint256"
        }
      ],
      "stateMutability": "view",
      "type": "function"
    },
    {
      "inputs": [],
      "name": "getPoolLength",
      "outputs": [
        {
          "internalType": "uint256",
          "name": "",
          "type": "uint256"
        }
      ],
      "stateMutability": "view",
      "type": "function"
    },
    {
      "inputs": [
        {
          "internalType": "bytes32",
          "name": "role",
          "type": "bytes32"
        }
      ],
      "name": "getRoleAdmin",
      "outputs": [
        {
          "internalType": "bytes32",
          "name": "",
          "type": "bytes32"
        }
      ],
      "stateMutability": "view",
      "type": "function"
    },
    {
      "inputs": [
        {
          "internalType": "bytes32",
          "name": "role",
          "type": "bytes32"
        },
        {
          "internalType": "uint256",
          "name": "index",
          "type": "uint256"
        }
      ],
      "name": "getRoleMember",
      "outputs": [
        {
          "internalType": "address",
          "name": "",
          "type": "address"
        }
      ],
      "stateMutability": "view",
      "type": "function"
    },
    {
      "inputs": [
        {
          "internalType": "bytes32",
          "name": "role",
          "type": "bytes32"
        }
      ],
      "name": "getRoleMemberCount",
      "outputs": [
        {
          "internalType": "uint256",
          "name": "",
          "type": "uint256"
        }
      ],
      "stateMutability": "view",
      "type": "function"
    },
    {
      "inputs": [
        {
          "internalType": "bytes32",
          "name": "role",
          "type": "bytes32"
        },
        {
          "internalType": "address",
          "name": "account",
          "type": "address"
        }
      ],
      "name": "grantRole",
      "outputs": [],
      "stateMutability": "nonpayable",
      "type": "function"
    },
    {
      "inputs": [
        {
          "internalType": "bytes32",
          "name": "role",
          "type": "bytes32"
        },
        {
          "internalType": "address",
          "name": "account",
          "type": "address"
        }
      ],
      "name": "hasRole",
      "outputs": [
        {
          "internalType": "bool",
          "name": "",
          "type": "bool"
        }
      ],
      "stateMutability": "view",
      "type": "function"
    },
    {
      "inputs": [],
      "name": "init",
      "outputs": [],
      "stateMutability": "nonpayable",
      "type": "function"
    },
    {
      "inputs": [],
      "name": "initializeRAMVault",
      "outputs": [],
      "stateMutability": "nonpayable",
      "type": "function"
    },
    {
      "inputs": [
        {
          "internalType": "address",
          "name": "",
          "type": "address"
        }
      ],
      "name": "lastTicketLevel",
      "outputs": [
        {
          "internalType": "uint256",
          "name": "",
          "type": "uint256"
        }
      ],
      "stateMutability": "view",
      "type": "function"
    },
    {
      "inputs": [
        {
          "internalType": "address",
          "name": "",
          "type": "address"
        }
      ],
      "name": "liquidityContributedEthValue",
      "outputs": [
        {
          "internalType": "uint256",
          "name": "",
          "type": "uint256"
        }
      ],
      "stateMutability": "view",
      "type": "function"
    },
    {
      "inputs": [
        {
          "internalType": "address",
          "name": "",
          "type": "address"
        },
        {
          "internalType": "uint256",
          "name": "",
          "type": "uint256"
        }
      ],
      "name": "nftPropertyChoices",
      "outputs": [
        {
          "internalType": "string",
          "name": "pType",
          "type": "string"
        },
        {
          "internalType": "uint256",
          "name": "pValue",
          "type": "uint256"
        },
        {
          "internalType": "bytes32",
          "name": "extra",
          "type": "bytes32"
        }
      ],
      "stateMutability": "view",
      "type": "function"
    },
    {
      "inputs": [],
      "name": "pendingRewards",
      "outputs": [
        {
          "internalType": "uint256",
          "name": "",
          "type": "uint256"
        }
      ],
      "stateMutability": "view",
      "type": "function"
    },
    {
      "inputs": [],
      "name": "pendingYGYRewards",
      "outputs": [
        {
          "internalType": "uint256",
          "name": "",
          "type": "uint256"
        }
      ],
      "stateMutability": "view",
      "type": "function"
    },
    {
      "inputs": [
        {
          "internalType": "uint256",
          "name": "",
          "type": "uint256"
        },
        {
          "internalType": "address",
          "name": "",
          "type": "address"
        },
        {
          "internalType": "address",
          "name": "",
          "type": "address"
        }
      ],
      "name": "poolAllowance",
      "outputs": [
        {
          "internalType": "uint256",
          "name": "",
          "type": "uint256"
        }
      ],
      "stateMutability": "view",
      "type": "function"
    },
    {
      "inputs": [
        {
          "internalType": "uint256",
          "name": "",
          "type": "uint256"
        }
      ],
      "name": "poolInfo",
      "outputs": [
        {
          "internalType": "contract IERC20",
          "name": "token",
          "type": "address"
        },
        {
          "internalType": "uint256",
          "name": "allocPoint",
          "type": "uint256"
        },
        {
          "internalType": "uint256",
          "name": "accRAMPerShare",
          "type": "uint256"
        },
        {
          "internalType": "uint256",
          "name": "accYGYPerShare",
          "type": "uint256"
        },
        {
          "internalType": "bool",
          "name": "withdrawable",
          "type": "bool"
        },
        {
          "internalType": "uint256",
          "name": "effectiveAdditionalTokensFromBoosts",
          "type": "uint256"
        }
      ],
      "stateMutability": "view",
      "type": "function"
    },
    {
      "inputs": [],
      "name": "ram",
      "outputs": [
        {
          "internalType": "contract INBUNIERC20",
          "name": "",
          "type": "address"
        }
      ],
      "stateMutability": "view",
      "type": "function"
    },
    {
      "inputs": [
        {
          "internalType": "bytes32",
          "name": "role",
          "type": "bytes32"
        },
        {
          "internalType": "address",
          "name": "account",
          "type": "address"
        }
      ],
      "name": "renounceRole",
      "outputs": [],
      "stateMutability": "nonpayable",
      "type": "function"
    },
    {
      "inputs": [
        {
          "internalType": "bytes32",
          "name": "role",
          "type": "bytes32"
        },
        {
          "internalType": "address",
          "name": "account",
          "type": "address"
        }
      ],
      "name": "revokeRole",
      "outputs": [],
      "stateMutability": "nonpayable",
      "type": "function"
    },
    {
      "inputs": [],
      "name": "rewardsInThisEpoch",
      "outputs": [
        {
          "internalType": "uint256",
          "name": "",
          "type": "uint256"
        }
      ],
      "stateMutability": "view",
      "type": "function"
    },
    {
      "inputs": [
        {
          "internalType": "uint256",
          "name": "_amount",
          "type": "uint256"
        },
        {
          "internalType": "bool",
          "name": "_add",
          "type": "bool"
        }
      ],
      "name": "setBoostFees",
      "outputs": [],
      "stateMutability": "nonpayable",
      "type": "function"
    },
    {
      "inputs": [],
      "name": "setCumulativeRewardsSinceStart",
      "outputs": [],
      "stateMutability": "nonpayable",
      "type": "function"
    },
    {
      "inputs": [],
      "name": "setEpochCalculationStartBlock",
      "outputs": [],
      "stateMutability": "nonpayable",
      "type": "function"
    },
    {
      "inputs": [],
      "name": "setEpochRewards",
      "outputs": [],
      "stateMutability": "nonpayable",
      "type": "function"
    },
    {
      "inputs": [
        {
          "internalType": "address",
          "name": "_user",
          "type": "address"
        },
        {
          "internalType": "uint256",
          "name": "_level",
          "type": "uint256"
        }
      ],
      "name": "setLastTicketLevel",
      "outputs": [],
      "stateMutability": "nonpayable",
      "type": "function"
    },
    {
      "inputs": [
        {
          "internalType": "address",
          "name": "_spender",
          "type": "address"
        },
        {
          "internalType": "uint256",
          "name": "_amount",
          "type": "uint256"
        },
        {
          "internalType": "bool",
          "name": "_delete",
          "type": "bool"
        }
      ],
      "name": "setLiquidityContributedEthValue",
      "outputs": [],
      "stateMutability": "nonpayable",
      "type": "function"
    },
    {
      "inputs": [
        {
          "internalType": "address",
          "name": "_vault",
          "type": "address"
        },
        {
          "internalType": "address",
          "name": "_router",
          "type": "address"
        },
        {
          "internalType": "address",
          "name": "_nftFactory",
          "type": "address"
        }
      ],
      "name": "setModifierContracts",
      "outputs": [],
      "stateMutability": "nonpayable",
      "type": "function"
    },
    {
      "inputs": [
        {
          "internalType": "uint256",
          "name": "_nftId",
          "type": "uint256"
        },
        {
          "internalType": "address",
          "name": "_user",
          "type": "address"
        }
      ],
      "name": "setNFTInUse",
      "outputs": [],
      "stateMutability": "nonpayable",
      "type": "function"
    },
    {
      "inputs": [
        {
          "internalType": "address",
          "name": "_contractAddress",
          "type": "address"
        },
        {
          "components": [
            {
              "internalType": "string",
              "name": "pType",
              "type": "string"
            },
            {
              "internalType": "uint256",
              "name": "pValue",
              "type": "uint256"
            },
            {
              "internalType": "bytes32",
              "name": "extra",
              "type": "bytes32"
            }
          ],
          "internalType": "struct YGYStorageV1.NFTProperty[]",
          "name": "_properties",
          "type": "tuple[]"
        }
      ],
      "name": "setNFTPropertiesForContract",
      "outputs": [],
      "stateMutability": "nonpayable",
      "type": "function"
    },
    {
      "inputs": [
        {
          "internalType": "uint256",
          "name": "_poolId",
          "type": "uint256"
        },
        {
          "internalType": "uint256",
          "name": "_allocPoint",
          "type": "uint256"
        },
        {
          "internalType": "bool",
          "name": "_withdrawable",
          "type": "bool"
        }
      ],
      "name": "setPool",
      "outputs": [],
      "stateMutability": "nonpayable",
      "type": "function"
    },
    {
      "inputs": [
        {
          "internalType": "uint256",
          "name": "_pid",
          "type": "uint256"
        },
        {
          "internalType": "address",
          "name": "_user",
          "type": "address"
        },
        {
          "internalType": "address",
          "name": "_spender",
          "type": "address"
        },
        {
          "internalType": "uint256",
          "name": "_allowance",
          "type": "uint256"
        }
      ],
      "name": "setPoolAllowance",
      "outputs": [],
      "stateMutability": "nonpayable",
      "type": "function"
    },
    {
      "inputs": [
        {
          "internalType": "uint256",
          "name": "_amount",
          "type": "uint256"
        }
      ],
      "name": "setRAMBalance",
      "outputs": [],
      "stateMutability": "nonpayable",
      "type": "function"
    },
    {
      "inputs": [],
      "name": "setRAMVaultStartBlock",
      "outputs": [],
      "stateMutability": "nonpayable",
      "type": "function"
    },
    {
      "inputs": [
        {
          "internalType": "uint256",
          "name": "_amount",
          "type": "uint256"
        }
      ],
      "name": "setRewardsInThisEpoch",
      "outputs": [],
      "stateMutability": "nonpayable",
      "type": "function"
    },
    {
      "inputs": [
        {
          "internalType": "address",
          "name": "RAMToken",
          "type": "address"
        },
        {
          "internalType": "address",
          "name": "YGYToken",
          "type": "address"
        },
        {
          "internalType": "address",
          "name": "WETH",
          "type": "address"
        },
        {
          "internalType": "address",
          "name": "YGYRAMPair",
          "type": "address"
        },
        {
          "internalType": "address",
          "name": "YGYWethPair",
          "type": "address"
        },
        {
          "internalType": "address[]",
          "name": "nfts",
          "type": "address[]"
        },
        {
          "internalType": "address",
          "name": "dXIOTToken",
          "type": "address"
        }
      ],
      "name": "setTokens",
      "outputs": [],
      "stateMutability": "nonpayable",
      "type": "function"
    },
    {
      "inputs": [
        {
          "internalType": "uint256",
          "name": "_amount",
          "type": "uint256"
        }
      ],
      "name": "setYGYBalance",
      "outputs": [],
      "stateMutability": "nonpayable",
      "type": "function"
    },
    {
      "inputs": [
        {
          "internalType": "uint256",
          "name": "_amount",
          "type": "uint256"
        }
      ],
      "name": "setYGYReserve",
      "outputs": [],
      "stateMutability": "nonpayable",
      "type": "function"
    },
    {
      "inputs": [
        {
          "internalType": "string",
          "name": "source",
          "type": "string"
        }
      ],
      "name": "stringToBytes32",
      "outputs": [
        {
          "internalType": "bytes32",
          "name": "result",
          "type": "bytes32"
        }
      ],
      "stateMutability": "pure",
      "type": "function"
    },
    {
      "inputs": [],
      "name": "totalAllocPoint",
      "outputs": [
        {
          "internalType": "uint256",
          "name": "",
          "type": "uint256"
        }
      ],
      "stateMutability": "view",
      "type": "function"
    },
    {
      "inputs": [
        {
          "internalType": "uint256",
          "name": "",
          "type": "uint256"
        }
      ],
      "name": "uintStorageCount",
      "outputs": [
        {
          "internalType": "uint256",
          "name": "",
          "type": "uint256"
        }
      ],
      "stateMutability": "view",
      "type": "function"
    },
    {
      "inputs": [
        {
          "internalType": "uint256[]",
          "name": "_boostMultipliers",
          "type": "uint256[]"
        },
        {
          "internalType": "uint256[]",
          "name": "_boostCosts",
          "type": "uint256[]"
        }
      ],
      "name": "updateBoosts",
      "outputs": [],
      "stateMutability": "nonpayable",
      "type": "function"
    },
    {
      "inputs": [
        {
          "internalType": "uint256",
          "name": "_poolId",
          "type": "uint256"
        },
        {
          "components": [
            {
              "internalType": "contract IERC20",
              "name": "token",
              "type": "address"
            },
            {
              "internalType": "uint256",
              "name": "allocPoint",
              "type": "uint256"
            },
            {
              "internalType": "uint256",
              "name": "accRAMPerShare",
              "type": "uint256"
            },
            {
              "internalType": "uint256",
              "name": "accYGYPerShare",
              "type": "uint256"
            },
            {
              "internalType": "bool",
              "name": "withdrawable",
              "type": "bool"
            },
            {
              "internalType": "uint256",
              "name": "effectiveAdditionalTokensFromBoosts",
              "type": "uint256"
            }
          ],
          "internalType": "struct YGYStorageV1.PoolInfo",
          "name": "_userInfo",
          "type": "tuple"
        }
      ],
      "name": "updatePoolInfo",
      "outputs": [],
      "stateMutability": "nonpayable",
      "type": "function"
    },
    {
      "inputs": [
        {
          "internalType": "uint256",
          "name": "allRewards",
          "type": "uint256"
        },
        {
          "internalType": "uint256",
          "name": "allYGYRewards",
          "type": "uint256"
        }
      ],
      "name": "updatePoolRewards",
      "outputs": [],
      "stateMutability": "nonpayable",
      "type": "function"
    },
    {
      "inputs": [
        {
          "internalType": "uint256",
          "name": "_poolId",
          "type": "uint256"
        },
        {
          "internalType": "address",
          "name": "_userAddress",
          "type": "address"
        },
        {
          "components": [
            {
              "internalType": "uint256",
              "name": "amount",
              "type": "uint256"
            },
            {
              "internalType": "uint256",
              "name": "rewardDebt",
              "type": "uint256"
            },
            {
              "internalType": "uint256",
              "name": "rewardDebtYGY",
              "type": "uint256"
            },
            {
              "internalType": "uint256",
              "name": "boostAmount",
              "type": "uint256"
            },
            {
              "internalType": "uint256",
              "name": "boostLevel",
              "type": "uint256"
            },
            {
              "internalType": "uint256",
              "name": "spentMultiplierTokens",
              "type": "uint256"
            }
          ],
          "internalType": "struct YGYStorageV1.UserInfo",
          "name": "_userInfo",
          "type": "tuple"
        }
      ],
      "name": "updateUserInfo",
      "outputs": [],
      "stateMutability": "nonpayable",
      "type": "function"
    },
    {
      "inputs": [
        {
          "internalType": "uint256",
          "name": "",
          "type": "uint256"
        },
        {
          "internalType": "address",
          "name": "",
          "type": "address"
        }
      ],
      "name": "userInfo",
      "outputs": [
        {
          "internalType": "uint256",
          "name": "amount",
          "type": "uint256"
        },
        {
          "internalType": "uint256",
          "name": "rewardDebt",
          "type": "uint256"
        },
        {
          "internalType": "uint256",
          "name": "rewardDebtYGY",
          "type": "uint256"
        },
        {
          "internalType": "uint256",
          "name": "boostAmount",
          "type": "uint256"
        },
        {
          "internalType": "uint256",
          "name": "boostLevel",
          "type": "uint256"
        },
        {
          "internalType": "uint256",
          "name": "spentMultiplierTokens",
          "type": "uint256"
        }
      ],
      "stateMutability": "view",
      "type": "function"
    },
    {
      "inputs": [],
      "name": "ygy",
      "outputs": [
        {
          "internalType": "contract IERC20",
          "name": "",
          "type": "address"
        }
      ],
      "stateMutability": "view",
      "type": "function"
    }
  ],
  "transactionHash": "0x54ddcadc92147150934a85f68251409d7d68e0b51e86c95c410b16dbe9a15b94",
  "args": [],
  "solcInputHash": "ccaf5d1fb511a7f3aa44cce753a91265",
  "bytecode": "0x608060405234801561001057600080fd5b506133dc806100206000396000f3fe608060405234801561001057600080fd5b506004361061048b5760003560e01c80638792a26511610262578063b81a0b4c11610151578063d6cf8021116100ce578063eded3fda11610092578063eded3fda146109a4578063ee02ea1b146109ac578063f63e3d6c146109bf578063f7db38cb146109c7578063fa69669c146109cf578063fb70c3bf146109d75761048b565b8063d6cf80211461095b578063e0af36161461096e578063e1c7392a14610976578063e671fab51461097e578063e941c856146109915761048b565b8063cc40f66411610115578063cc40f66414610907578063cfb519281461091a578063d4665bb71461092d578063d547741f14610940578063d662f4f6146109535761048b565b8063b81a0b4c146108be578063bcb49086146108c6578063bd57954e146108d9578063c8ffb873146108ec578063ca15c873146108f45761048b565b80639649d76c116101df578063a5f8ace8116101a3578063a5f8ace81461086a578063ad1414b21461087d578063b2f4b44a14610890578063b3944d52146108a3578063b4afd978146108ab5761048b565b80639649d76c146108215780639d18f773146108295780639df3e6d01461083c5780639eec69051461084f578063a217fddf146108625761048b565b8063900cf0cf11610226578063900cf0cf146107ae5780639010d07c146107b657806391328af2146107c957806391d14854146107dc57806393f1a40b146107fc5761048b565b80638792a26514610770578063884817dc146107835780638b6ff57b1461078b5780638f33b5e5146107935780638f838a9f1461079b5761048b565b80633d780dfc1161037e57806360443a45116102fb57806370686e92116102bf57806370686e921461071c5780637575aa8a1461072f5780637828fec014610737578063795d79f51461074a5780637abceffd1461075d5761048b565b806360443a45146106c8578063608c8d3a146106db5780636798f19f146106e35780636a9d1f6f146106f65780636b42ee55146107095761048b565b80634dc47d34116103425780634dc47d34146106655780635105a975146106785780635498d4c01461068b57806358739fc8146106ad5780635d577c18146106c05761048b565b80633d780dfc14610611578063423d6fa014610624578063469fcdcb1461063757806346ca6bea1461064a5780634a2ac43a1461065d5761048b565b80631dbf779e1161040c57806330ff3d97116103d057806330ff3d97146105bb57806331db122c146105db57806336568abe146105e357806337d28932146105f65780633b24bd4a146106095761048b565b80631dbf779e14610565578063248a9ca31461056d5780632f2ff15d146105805780632f380b35146105935780632f4f8a7a146105a65761048b565b806310178d9c1161045357806310178d9c146104f15780631526fe2714610512578063158dd3931461053757806317caf6f11461054a57806319a5c13a146105525761048b565b8063045fda0e146104905780630788733a1461049a578063094601f1146104ad57806309e3de41146104c05780630a08f1d4146104de575b600080fd5b6104986109df565b005b6104986104a8366004612d70565b610a08565b6104986104bb366004612c1b565b610a86565b6104c8610aae565b6040516104d59190612ffa565b60405180910390f35b6104c86104ec366004612c1b565b610ab4565b6105046104ff366004612c33565b610bdb565b6040516104d59291906132e6565b610525610520366004612c1b565b610cad565b6040516104d596959493929190613003565b6104c8610545366004612d03565b610d00565b6104c8610d23565b610498610560366004612abd565b610d29565b6104c8610ddd565b6104c861057b366004612c1b565b610de3565b61049861058e366004612c33565b610df8565b6105256105a1366004612c1b565b610e49565b6105ae610ee9565b6040516104d59190612f8c565b6105ce6105c936600461294e565b610ef8565b6040516104d59190612fa0565b6104c8610f8b565b6104986105f1366004612c33565b610f91565b610498610604366004612e31565b610fd3565b6105ae611017565b61049861061f36600461296a565b611026565b610498610632366004612c1b565b611097565b6104c8610645366004612c1b565b61113f565b610498610658366004612f14565b611151565b61049861120a565b6104c8610673366004612c1b565b61124f565b610498610686366004612c62565b611261565b61069e610699366004612c62565b6112a8565b6040516104d59392919061304b565b61069e6106bb366004612b59565b6113d2565b6104c861149a565b6104986106d6366004612d29565b6114a0565b6104c86114f5565b6104c86106f1366004612c1b565b6114fb565b6104c8610704366004612c1b565b61150d565b6104c8610717366004612c1b565b61151f565b61049861072a366004612b84565b61153d565b6104c86115c5565b610498610745366004612e31565b6115d7565b6105ae610758366004612c1b565b611639565b61049861076b366004612e55565b611654565b61049861077e366004612c33565b611844565b6104986118c0565b6104c86118f9565b6105ae6118ff565b6104986107a9366004612c1b565b61190e565b6104c8611936565b6105ae6107c4366004612c62565b61193c565b6104c86107d736600461294e565b61195d565b6107ef6107ea366004612c33565b611a7a565b6040516104d59190612fef565b61080f61080a366004612c33565b611a92565b6040516104d5969594939291906132f4565b6104c8611ad2565b6105ae610837366004612c1b565b611ad8565b61049861084a366004612c1b565b611af3565b61050461085d366004612dfa565b611b1b565b6104c8611b62565b6104986108783660046129b4565b611b67565b6104c861088b36600461294e565b611c91565b61049861089e366004612bba565b611ca3565b6104c8611d42565b6104986108b9366004612b59565b611d48565b6105ae611d87565b6104c86108d4366004612c1b565b611d96565b6104986108e7366004612c1b565b611da8565b6104c8611dd0565b6104c8610902366004612c1b565b611dd6565b6104c861091536600461294e565b611ded565b6104c8610928366004612c83565b611dff565b61049861093b366004612e8b565b611e1d565b61049861094e366004612c33565b611ec4565b610498611efe565b6104c8610969366004612c1b565b612095565b6105ae6120a2565b6104986120b1565b6107ef61098c366004612cbe565b612167565b6104c861099f366004612c1b565b61219b565b6104c86121a8565b6105ae6109ba366004612c83565b6121ae565b6104986121d9565b6105ae612202565b6105ae612211565b6105ae612220565b6109f96000805160206133878339815191526107ea61222f565b610a0257600080fd5b4360a255565b610a226000805160206133878339815191526107ea61222f565b610a2b57600080fd5b60009283526098602090815260408085206001600160a01b0390941685529281529282902081518155928101516001840155908101516002830155606081015160038301556080810151600483015560a00151600590910155565b610aa06000805160206133878339815191526107ea61222f565b610aa957600080fd5b60a055565b60af5481565b600081815260b560209081526040808320546001600160a01b031680845260b68352818420805483518186028101860190945280845291936060939290869084015b82821015610bcb5760008481526020908190206040805160038602909201805460026001821615610100026000190190911604601f8101859004909402830160809081019092526060830184815292939092849290918491840182828015610b9f5780601f10610b7457610100808354040283529160200191610b9f565b820191906000526020600020905b815481529060010190602001808311610b8257829003601f168201915b505050505081526020016001820154815260200160028201548152505081526020019060010190610af6565b505091519450505050505b919050565b6000806000609a8581548110610bed57fe5b600091825260208083208884526098825260408085206001600160a01b038a16865290925290832060038101548154600690940290920194509291610c3191612233565b905060008084600301541115610c7857610c758360020154610c6f64e8d4a51000610c6988600301548761225890919063ffffffff16565b90612292565b906122d4565b90505b610ca08360010154610c6f64e8d4a51000610c6988600201548761225890919063ffffffff16565b9890975095505050505050565b609a8181548110610cba57fe5b60009182526020909120600690910201805460018201546002830154600384015460048501546005909501546001600160a01b0390941695509193909260ff9091169086565b609960209081526000938452604080852082529284528284209052825290205481565b609b5481565b610d436000805160206133878339815191526107ea61222f565b610d4c57600080fd5b60005b8151811015610dd8576001600160a01b038316600090815260b6602052604090208251839083908110610d7e57fe5b602090810291909101810151825460018101845560009384529282902081518051929460030290910192610db792849290910190612717565b50602082015160018083019190915560409092015160029091015501610d4f565b505050565b609e5481565b60009081526065602052604090206002015490565b600082815260656020526040902060020154610e16906107ea61222f565b610e3b5760405162461bcd60e51b8152600401610e32906130dd565b60405180910390fd5b610e458282612316565b5050565b600080600080600080610e5a612795565b609a8881548110610e6757fe5b60009182526020918290206040805160c08101825260069390930290910180546001600160a01b031680845260018201549484018590526002820154928401839052600382015460608501819052600483015460ff1615156080860181905260059093015460a0909501859052909d949c50919a509098509650945092505050565b60a9546001600160a01b031681565b60a65460009081526097602090815260408083206001600160a01b03851684528252808320805482518185028101850190935280835260609492939192909184015b82821015610f8057838290600052602060002090600202016040518060400160405290816000820154815260200160018201548152505081526020019060010190610f3a565b505050509050919050565b60a15481565b610f9961222f565b6001600160a01b0316816001600160a01b031614610fc95760405162461bcd60e51b8152600401610e3290613297565b610e45828261237f565b610fed6000805160206133878339815191526107ea61222f565b610ff657600080fd5b80156110115760af546110099083612233565b60af55610e45565b5060af55565b60ab546001600160a01b031681565b61103360006107ea61222f565b61104f5760405162461bcd60e51b8152600401610e32906131b3565b61106760008051602061338783398151915284610e3b565b61107f60008051602061338783398151915283610e3b565b610dd860008051602061338783398151915282610e3b565b6110b16000805160206133878339815191526107ea61222f565b6110cd5760405162461bcd60e51b8152600401610e32906130b2565b609c546110da9082612233565b609c5560a5546110ea9082612233565b60a555609e5481101561111c57609d546111049082612233565b609d55609e5461111490826122d4565b609e5561113c565b609e541561113c57609e54609d5461113391612233565b609d556000609e555b50565b60b06020526000908152604090205481565b61116b6000805160206133878339815191526107ea61222f565b61117457600080fd5b6111b1826111ab609a868154811061118857fe5b906000526020600020906006020160010154609b546122d490919063ffffffff16565b90612233565b5081609a84815481106111c057fe5b90600052602060002090600602016001018190555080609a84815481106111e357fe5b60009182526020909120600690910201600401805460ff1916911515919091179055505050565b6112246000805160206133878339815191526107ea61222f565b61122d57600080fd5b60a55460a68054600090815260b2602052604090209190915580546001019055565b60b26020526000908152604090205481565b61127b6000805160206133878339815191526107ea61222f565b61128457600080fd5b609c5461129190836122d4565b609c55609d546112a190826122d4565b609d555050565b600082815260b560205260408120546060919081906001600160a01b03166112ce6127d6565b6001600160a01b038216600090815260b6602052604090208054879081106112f257fe5b600091825260209182902060408051600393909302909101805460026001821615610100026000190190911604601f81018590049094028301608090810190925260608301848152929390928492909184918401828280156113955780601f1061136a57610100808354040283529160200191611395565b820191906000526020600020905b81548152906001019060200180831161137857829003601f168201915b5050505050815260200160018201548152602001600282015481525050905080600001518160200151826040015194509450945050509250925092565b60b660205281600052604060002081815481106113eb57fe5b60009182526020918290206003919091020180546040805160026001841615610100026000190190931692909204601f8101859004850283018501909152808252919450925083918301828280156114845780601f1061145957610100808354040283529160200191611484565b820191906000526020600020905b81548152906001019060200180831161146757829003601f168201915b5050505050908060010154908060020154905083565b60a25481565b6114ba6000805160206133878339815191526107ea61222f565b6114c357600080fd5b60009384526099602090815260408086206001600160a01b039586168752825280862093909416855291909152912055565b60a55481565b600090815260b1602052604090205490565b600090815260b0602052604090205490565b60ba818154811061152c57fe5b600091825260209091200154905081565b6115576000805160206133878339815191526107ea61222f565b61156057600080fd5b8015611584576001600160a01b038316600090815260b46020526040812055610dd8565b6001600160a01b038316600090815260b460205260409020546115a79083612233565b6001600160a01b038416600090815260b46020526040902055505050565b60008051602061338783398151915281565b6115f16000805160206133878339815191526107ea61222f565b6115fa57600080fd5b801561161557609e5461160d9083612233565b609e55610e45565b609c546116229083612233565b609c5560a5546116329083612233565b60a5555050565b60b5602052600090815260409020546001600160a01b031681565b61166e6000805160206133878339815191526107ea61222f565b61167757600080fd5b60005b609a548110156116db57826001600160a01b0316609a828154811061169b57fe5b60009182526020909120600690910201546001600160a01b031614156116d35760405162461bcd60e51b8152600401610e3290613260565b60010161167a565b50609b546116e99084612233565b609b556040805160c0810182526001600160a01b039384168152602081019485526000918101828152606082018381529315156080830190815260a08301848152609a8054600181018255955292517f44da158ba27f9252712a74ff6a55c5d531f69609f1f6e7f17c4443a8e2089be4600690950294850180546001600160a01b031916919097161790955594517f44da158ba27f9252712a74ff6a55c5d531f69609f1f6e7f17c4443a8e2089be583015593517f44da158ba27f9252712a74ff6a55c5d531f69609f1f6e7f17c4443a8e2089be682015590517f44da158ba27f9252712a74ff6a55c5d531f69609f1f6e7f17c4443a8e2089be782015590517f44da158ba27f9252712a74ff6a55c5d531f69609f1f6e7f17c4443a8e2089be88201805460ff191691151591909117905590517f44da158ba27f9252712a74ff6a55c5d531f69609f1f6e7f17c4443a8e2089be990910155565b61185e6000805160206133878339815191526107ea61222f565b61186757600080fd5b60a65460008181526097602090815260408083206001600160a01b039095168352938152838220845180860190955294845283810192835284546001818101875595835291209251600290910290920191825551910155565b6118da6000805160206133878339815191526107ea61222f565b6118e357600080fd5b60a55460a380548201905560a480549091019055565b609d5481565b60a7546001600160a01b031681565b6119286000805160206133878339815191526107ea61222f565b61193157600080fd5b609f55565b60a65481565b600082815260656020526040812061195490836123e8565b90505b92915050565b60a65460009081526097602090815260408083206001600160a01b0385168452825280832080548251818502810185019093528083528493606093929190859084015b828210156119e6578382906000526020600020906002020160405180604001604052908160008201548152602001600182015481525050815260200190600101906119a0565b50505050905060005b8151811015611a7157818181518110611a0457fe5b60200260200101516020015160a6541415611a6957818181518110611a2557fe5b60200260200101516000015160051480611a565750818181518110611a4657fe5b6020026020010151600001516006145b15611a6957611a6683600a612233565b92505b6001016119ef565b50909392505050565b600082815260656020526040812061195490836123f4565b6098602090815260009283526040808420909152908252902080546001820154600283015460038401546004850154600590950154939492939192909186565b60a45481565b600090815260b560205260409020546001600160a01b031690565b611b0d6000805160206133878339815191526107ea61222f565b611b1657600080fd5b60a555565b60976020528260005260406000206020528160005260406000208181548110611b4057fe5b6000918252602090912060029091020180546001909101549093509150839050565b600081565b611b816000805160206133878339815191526107ea61222f565b80611b945750611b9460006107ea61222f565b611bb05760405162461bcd60e51b8152600401610e32906130b2565b60a780546001600160a01b03199081166001600160a01b038a811691821790935560a8805483168a851690811790915560ac8054841690921790915560aa80548316909117905560ad8054821688841617905560a98054821687841617905560ab8054821686841617905560ae805490911691831691909117905560005b8251811015611c8757828181518110611c4357fe5b602090810291909101810151600192909201600081815260b5909252604090912080546001600160a01b0319166001600160a01b0390931692909217909155611c2e565b5050505050505050565b60b46020526000908152604090205481565b611cbd6000805160206133878339815191526107ea61222f565b611cc657600080fd5b60005b82518160ff1611610dd857818160ff1681518110611ce357fe5b602002602001015160b060008360010160ff16815260200190815260200160002081905550828160ff1681518110611d1757fe5b60209081029190910181015160ff6001909301928316600090815260b1909252604090912055611cc9565b609a5490565b611d626000805160206133878339815191526107ea61222f565b611d6b57600080fd5b6001600160a01b03909116600090815260b36020526040902055565b60ae546001600160a01b031681565b60b16020526000908152604090205481565b611dc26000805160206133878339815191526107ea61222f565b611dcb57600080fd5b609e55565b60a35481565b600081815260656020526040812061195790612409565b60b36020526000908152604090205481565b80516000908290611e14575060009050610bd6565b50506020015190565b611e376000805160206133878339815191526107ea61222f565b611e4057600080fd5b80609a8381548110611e4e57fe5b600091825260209182902083516006929092020180546001600160a01b0319166001600160a01b039092169190911781559082015160018201556040820151600282015560608201516003820155608082015160048201805460ff191691151591909117905560a0909101516005909101555050565b600082815260656020526040902060020154611ee2906107ea61222f565b610fc95760405162461bcd60e51b8152600401610e3290613163565b611f186000805160206133878339815191526107ea61222f565b80611f2b5750611f2b60006107ea61222f565b611f475760405162461bcd60e51b8152600401610e32906130b2565b4360a155674563918244f400007f2ece0d27245ca4a357e8d077613a722d4d1521036879824658dc484c52c7c0a15567d02ab486cedc00007f6e01826bd384b53cadd411dfb0d7b9bb8347fa1fdfb968d963ab9753a36f3ee1556801a055690d9db800007f1b47d0ec8866f11488ba3f9889b2cb3acfff2dfb8ebe8a1c3bdcf69e2f06577e55680340aad21b3b7000007f4a1be165f25a7987e337edc4e6b4ebb4f17cf12ecbb3dc24632b9c6b8bcff4ce5560b160205260057fd7e297a316c321c40332cfb8dc1701afefe5c7db49edec748122ee7e43d355c455600f7f7ae7ad9a4c32d2f3e019743ac18a175616ca69d351bbf6528cf9a64ce6017f7255601e7f8ad2446af2a0369fe8964797f78858d5dc0e301ab1acc8cdf1f7252f94e5c061556004600052603c7f8a66bef5dd30a7468a9bb314b1a60dbb73161e7e2f190bd4e69027c3498b6fa555565b60b8818154811061152c57fe5b60ad546001600160a01b031681565b600054610100900460ff16806120ca57506120ca612414565b806120d8575060005460ff16155b6120f45760405162461bcd60e51b8152600401610e3290613212565b600054610100900460ff1615801561211f576000805460ff1961ff0019909116610100171660011790555b61212761241a565b612139600061213461222f565b610e3b565b61215360008051602061338783398151915261213461222f565b801561113c576000805461ff001916905550565b60008061217384611dff565b600090815260b76020908152604082206001600160a01b039095169091529290925292915050565b60bc818154811061152c57fe5b609c5481565b6000806121ba83611dff565b600090815260b960205260409020546001600160a01b03169392505050565b6121f36000805160206133878339815191526107ea61222f565b6121fc57600080fd5b4360a155565b60aa546001600160a01b031681565b60ac546001600160a01b031681565b60a8546001600160a01b031681565b3390565b6000828201838110156119545760405162461bcd60e51b8152600401610e329061312c565b60008261226757506000611957565b8282028284828161227457fe5b04146119545760405162461bcd60e51b8152600401610e32906131d1565b600061195483836040518060400160405280601a81526020017f536166654d6174683a206469766973696f6e206279207a65726f000000000000815250612498565b600061195483836040518060400160405280601e81526020017f536166654d6174683a207375627472616374696f6e206f766572666c6f7700008152506124cf565b600082815260656020526040902061232e90826124fb565b15610e455761233b61222f565b6001600160a01b0316816001600160a01b0316837f2f8788117e7eff1d82e926ec794901d17c78024a50270940304540a733656f0d60405160405180910390a45050565b60008281526065602052604090206123979082612510565b15610e45576123a461222f565b6001600160a01b0316816001600160a01b0316837ff6391f5c32d9c69d2a47ea670b442974b53935d1edc7fd64eb21e047a839171b60405160405180910390a45050565b60006119548383612525565b6000611954836001600160a01b03841661256a565b600061195782612582565b303b1590565b600054610100900460ff16806124335750612433612414565b80612441575060005460ff16155b61245d5760405162461bcd60e51b8152600401610e3290613212565b600054610100900460ff16158015612488576000805460ff1961ff0019909116610100171660011790555b612490612586565b612153612586565b600081836124b95760405162461bcd60e51b8152600401610e329190613038565b5060008385816124c557fe5b0495945050505050565b600081848411156124f35760405162461bcd60e51b8152600401610e329190613038565b505050900390565b6000611954836001600160a01b038416612607565b6000611954836001600160a01b038416612651565b815460009082106125485760405162461bcd60e51b8152600401610e3290613070565b82600001828154811061255757fe5b9060005260206000200154905092915050565b60009081526001919091016020526040902054151590565b5490565b600054610100900460ff168061259f575061259f612414565b806125ad575060005460ff16155b6125c95760405162461bcd60e51b8152600401610e3290613212565b600054610100900460ff16158015612153576000805460ff1961ff001990911661010017166001179055801561113c576000805461ff001916905550565b6000612613838361256a565b61264957508154600181810184556000848152602080822090930184905584548482528286019093526040902091909155611957565b506000611957565b6000818152600183016020526040812054801561270d578354600019808301919081019060009087908390811061268457fe5b90600052602060002001549050808760000184815481106126a157fe5b6000918252602080832090910192909255828152600189810190925260409020908401905586548790806126d157fe5b60019003818190600052602060002001600090559055866001016000878152602001908152602001600020600090556001945050505050611957565b6000915050611957565b828054600181600116156101000203166002900490600052602060002090601f016020900481019282601f1061275857805160ff1916838001178555612785565b82800160010185558215612785579182015b8281111561278557825182559160200191906001019061276a565b506127919291506127fa565b5090565b6040518060c0016040528060006001600160a01b03168152602001600081526020016000815260200160008152602001600015158152602001600081525090565b60405180606001604052806060815260200160008152602001600080191681525090565b5b8082111561279157600081556001016127fb565b803561195781613363565b600082601f83011261282a578081fd5b813561283d61283882613343565b61331c565b81815291506020808301908481018184028601820187101561285e57600080fd5b60005b8481101561287d57813584529282019290820190600101612861565b505050505092915050565b600082601f830112612898578081fd5b813567ffffffffffffffff8111156128ae578182fd5b6128c1601f8201601f191660200161331c565b91508082528360208285010111156128d857600080fd5b8060208401602084013760009082016020015292915050565b600060608284031215612902578081fd5b61290c606061331c565b9050813567ffffffffffffffff81111561292557600080fd5b61293184828501612888565b825250602082013560208201526040820135604082015292915050565b60006020828403121561295f578081fd5b813561195481613363565b60008060006060848603121561297e578182fd5b833561298981613363565b9250602084013561299981613363565b915060408401356129a981613363565b809150509250925092565b600080600080600080600060e0888a0312156129ce578283fd5b87356129d981613363565b96506020888101356129ea81613363565b965060408901356129fa81613363565b95506060890135612a0a81613363565b94506080890135612a1a81613363565b935060a089013567ffffffffffffffff811115612a35578384fd5b8901601f81018b13612a45578384fd5b8035612a5361283882613343565b81815283810190838501858402850186018f1015612a6f578788fd5b8794505b83851015612a9957612a858f8261280f565b835260019490940193918501918501612a73565b508096505050505050612aaf8960c08a0161280f565b905092959891949750929550565b60008060408385031215612acf578182fd5b8235612ada81613363565b915060208381013567ffffffffffffffff811115612af6578283fd5b8401601f81018613612b06578283fd5b8035612b1461283882613343565b81815283810190838501865b84811015612b4957612b378b8884358901016128f1565b84529286019290860190600101612b20565b5096999098509650505050505050565b60008060408385031215612b6b578182fd5b8235612b7681613363565b946020939093013593505050565b600080600060608486031215612b98578283fd5b8335612ba381613363565b92506020840135915060408401356129a981613378565b60008060408385031215612bcc578182fd5b823567ffffffffffffffff80821115612be3578384fd5b612bef8683870161281a565b93506020850135915080821115612c04578283fd5b50612c118582860161281a565b9150509250929050565b600060208284031215612c2c578081fd5b5035919050565b60008060408385031215612c45578182fd5b823591506020830135612c5781613363565b809150509250929050565b60008060408385031215612c74578182fd5b50508035926020909101359150565b600060208284031215612c94578081fd5b813567ffffffffffffffff811115612caa578182fd5b612cb684828501612888565b949350505050565b60008060408385031215612cd0578182fd5b823567ffffffffffffffff811115612ce6578283fd5b612cf285828601612888565b9250506020830135612c5781613363565b600080600060608486031215612d17578081fd5b83359250602084013561299981613363565b60008060008060808587031215612d3e578182fd5b843593506020850135612d5081613363565b92506040850135612d6081613363565b9396929550929360600135925050565b6000806000838503610100811215612d86578182fd5b843593506020850135612d9881613363565b925060c0603f1982011215612dab578182fd5b50612db660c061331c565b60408501358152606085013560208201526080850135604082015260a0850135606082015260c0850135608082015260e085013560a0820152809150509250925092565b600080600060608486031215612e0e578081fd5b833592506020840135612e2081613363565b929592945050506040919091013590565b60008060408385031215612e43578182fd5b823591506020830135612c5781613378565b600080600060608486031215612e69578081fd5b833592506020840135612e7b81613363565b915060408401356129a981613378565b60008082840360e0811215612e9e578283fd5b8335925060c0601f1982011215612eb3578182fd5b50612ebe60c061331c565b6020840135612ecc81613363565b8082525060408401356020820152606084013560408201526080840135606082015260a0840135612efc81613378565b608082015260c0939093013560a08401525092909150565b600080600060608486031215612f28578081fd5b833592506020840135915060408401356129a981613378565b60008151808452815b81811015612f6657602081850181015186830182015201612f4a565b81811115612f775782602083870101525b50601f01601f19169290920160200192915050565b6001600160a01b0391909116815260200190565b602080825282518282018190526000919060409081850190868401855b82811015612fe257815180518552860151868501529284019290850190600101612fbd565b5091979650505050505050565b901515815260200190565b90815260200190565b6001600160a01b039690961686526020860194909452604085019290925260608401521515608083015260a082015260c00190565b6000602082526119546020830184612f41565b60006060825261305e6060830186612f41565b60208301949094525060400152919050565b60208082526022908201527f456e756d657261626c655365743a20696e646578206f7574206f6620626f756e604082015261647360f01b606082015260800190565b602080825260119082015270283937b434b134ba32b21031b0b63632b960791b604082015260600190565b6020808252602f908201527f416363657373436f6e74726f6c3a2073656e646572206d75737420626520616e60408201526e0818591b5a5b881d1bc819dc985b9d608a1b606082015260800190565b6020808252601b908201527f536166654d6174683a206164646974696f6e206f766572666c6f770000000000604082015260600190565b60208082526030908201527f416363657373436f6e74726f6c3a2073656e646572206d75737420626520616e60408201526f2061646d696e20746f207265766f6b6560801b606082015260800190565b6020808252600490820152634e6f6e6f60e01b604082015260600190565b60208082526021908201527f536166654d6174683a206d756c7469706c69636174696f6e206f766572666c6f6040820152607760f81b606082015260800190565b6020808252602e908201527f436f6e747261637420696e7374616e63652068617320616c726561647920626560408201526d195b881a5b9a5d1a585b1a5e995960921b606082015260800190565b60208082526018908201527f4572726f7220706f6f6c20616c72656164792061646465640000000000000000604082015260600190565b6020808252602f908201527f416363657373436f6e74726f6c3a2063616e206f6e6c792072656e6f756e636560408201526e103937b632b9903337b91039b2b63360891b606082015260800190565b918252602082015260400190565b958652602086019490945260408501929092526060840152608083015260a082015260c00190565b60405181810167ffffffffffffffff8111828210171561333b57600080fd5b604052919050565b600067ffffffffffffffff821115613359578081fd5b5060209081020190565b6001600160a01b038116811461113c57600080fd5b801515811461113c57600080fdfe62ca43aa15f7f495faa685ce5a258aa390fdc8d7094251dd23d32353f496ddfea264697066735822122076dcb69c9b095c221b7eaaa8a3a5e1de7b48297b15b5df5247ced6c9d1f6671364736f6c634300060c0033",
  "devdoc": {
    "kind": "dev",
    "methods": {
      "getRoleAdmin(bytes32)": {
        "details": "Returns the admin role that controls `role`. See {grantRole} and {revokeRole}. To change a role's admin, use {_setRoleAdmin}."
      },
      "getRoleMember(bytes32,uint256)": {
        "details": "Returns one of the accounts that have `role`. `index` must be a value between 0 and {getRoleMemberCount}, non-inclusive. Role bearers are not sorted in any particular way, and their ordering may change at any point. WARNING: When using {getRoleMember} and {getRoleMemberCount}, make sure you perform all queries on the same block. See the following https://forum.openzeppelin.com/t/iterating-over-elements-on-enumerableset-in-openzeppelin-contracts/2296[forum post] for more information."
      },
      "getRoleMemberCount(bytes32)": {
        "details": "Returns the number of accounts that have `role`. Can be used together with {getRoleMember} to enumerate all bearers of a role."
      },
      "grantRole(bytes32,address)": {
        "details": "Grants `role` to `account`. If `account` had not been already granted `role`, emits a {RoleGranted} event. Requirements: - the caller must have ``role``'s admin role."
      },
      "hasRole(bytes32,address)": {
        "details": "Returns `true` if `account` has been granted `role`."
      },
      "renounceRole(bytes32,address)": {
        "details": "Revokes `role` from the calling account. Roles are often managed via {grantRole} and {revokeRole}: this function's purpose is to provide a mechanism for accounts to lose their privileges if they are compromised (such as when a trusted device is misplaced). If the calling account had been granted `role`, emits a {RoleRevoked} event. Requirements: - the caller must be `account`."
      },
      "revokeRole(bytes32,address)": {
        "details": "Revokes `role` from `account`. If `account` had been granted `role`, emits a {RoleRevoked} event. Requirements: - the caller must have ``role``'s admin role."
      }
    },
    "version": 1
  },
  "userdoc": {
    "kind": "user",
    "methods": {},
    "version": 1
  },
  "storageLayout": {
    "storage": [
      {
        "astId": 195,
        "contract": "contracts/YGYStorageV1.sol:YGYStorageV1",
        "label": "initialized",
        "offset": 0,
        "slot": "0",
        "type": "t_bool"
      },
      {
        "astId": 198,
        "contract": "contracts/YGYStorageV1.sol:YGYStorageV1",
        "label": "initializing",
        "offset": 1,
        "slot": "0",
        "type": "t_bool"
      },
      {
        "astId": 263,
        "contract": "contracts/YGYStorageV1.sol:YGYStorageV1",
        "label": "______gap",
        "offset": 0,
        "slot": "1",
        "type": "t_array(t_uint256)50_storage"
      },
      {
        "astId": 188,
        "contract": "contracts/YGYStorageV1.sol:YGYStorageV1",
        "label": "__gap",
        "offset": 0,
        "slot": "51",
        "type": "t_array(t_uint256)50_storage"
      },
      {
        "astId": 308,
        "contract": "contracts/YGYStorageV1.sol:YGYStorageV1",
        "label": "_roles",
        "offset": 0,
        "slot": "101",
        "type": "t_mapping(t_bytes32,t_struct(RoleData)304_storage)"
      },
      {
        "astId": 553,
        "contract": "contracts/YGYStorageV1.sol:YGYStorageV1",
        "label": "__gap",
        "offset": 0,
        "slot": "102",
        "type": "t_array(t_uint256)49_storage"
      },
      {
        "astId": 13963,
        "contract": "contracts/YGYStorageV1.sol:YGYStorageV1",
        "label": "NFTUsageInfo",
        "offset": 0,
        "slot": "151",
        "type": "t_mapping(t_uint256,t_mapping(t_address,t_array(t_struct(NFTUsage)13956_storage)dyn_storage))"
      },
      {
        "astId": 14077,
        "contract": "contracts/YGYStorageV1.sol:YGYStorageV1",
        "label": "userInfo",
        "offset": 0,
        "slot": "152",
        "type": "t_mapping(t_uint256,t_mapping(t_address,t_struct(UserInfo)13951_storage))"
      },
      {
        "astId": 14111,
        "contract": "contracts/YGYStorageV1.sol:YGYStorageV1",
        "label": "poolAllowance",
        "offset": 0,
        "slot": "153",
        "type": "t_mapping(t_uint256,t_mapping(t_address,t_mapping(t_address,t_uint256)))"
      },
      {
        "astId": 14157,
        "contract": "contracts/YGYStorageV1.sol:YGYStorageV1",
        "label": "poolInfo",
        "offset": 0,
        "slot": "154",
        "type": "t_array(t_struct(PoolInfo)14154_storage)dyn_storage"
      },
      {
        "astId": 14469,
        "contract": "contracts/YGYStorageV1.sol:YGYStorageV1",
        "label": "totalAllocPoint",
        "offset": 0,
        "slot": "155",
        "type": "t_uint256"
      },
      {
        "astId": 14471,
        "contract": "contracts/YGYStorageV1.sol:YGYStorageV1",
        "label": "pendingRewards",
        "offset": 0,
        "slot": "156",
        "type": "t_uint256"
      },
      {
        "astId": 14473,
        "contract": "contracts/YGYStorageV1.sol:YGYStorageV1",
        "label": "pendingYGYRewards",
        "offset": 0,
        "slot": "157",
        "type": "t_uint256"
      },
      {
        "astId": 14475,
        "contract": "contracts/YGYStorageV1.sol:YGYStorageV1",
        "label": "YGYReserve",
        "offset": 0,
        "slot": "158",
        "type": "t_uint256"
      },
      {
        "astId": 14495,
        "contract": "contracts/YGYStorageV1.sol:YGYStorageV1",
        "label": "ramBalance",
        "offset": 0,
        "slot": "159",
        "type": "t_uint256"
      },
      {
        "astId": 14515,
        "contract": "contracts/YGYStorageV1.sol:YGYStorageV1",
        "label": "ygyBalance",
        "offset": 0,
        "slot": "160",
        "type": "t_uint256"
      },
      {
        "astId": 14535,
        "contract": "contracts/YGYStorageV1.sol:YGYStorageV1",
        "label": "RAMVaultStartBlock",
        "offset": 0,
        "slot": "161",
        "type": "t_uint256"
      },
      {
        "astId": 14554,
        "contract": "contracts/YGYStorageV1.sol:YGYStorageV1",
        "label": "epochCalculationStartBlock",
        "offset": 0,
        "slot": "162",
        "type": "t_uint256"
      },
      {
        "astId": 14573,
        "contract": "contracts/YGYStorageV1.sol:YGYStorageV1",
        "label": "cumulativeRewardsSinceStart",
        "offset": 0,
        "slot": "163",
        "type": "t_uint256"
      },
      {
        "astId": 14575,
        "contract": "contracts/YGYStorageV1.sol:YGYStorageV1",
        "label": "cumulativeYGYRewardsSinceStart",
        "offset": 0,
        "slot": "164",
        "type": "t_uint256"
      },
      {
        "astId": 14601,
        "contract": "contracts/YGYStorageV1.sol:YGYStorageV1",
        "label": "rewardsInThisEpoch",
        "offset": 0,
        "slot": "165",
        "type": "t_uint256"
      },
      {
        "astId": 14621,
        "contract": "contracts/YGYStorageV1.sol:YGYStorageV1",
        "label": "epoch",
        "offset": 0,
        "slot": "166",
        "type": "t_uint256"
      },
      {
        "astId": 14623,
        "contract": "contracts/YGYStorageV1.sol:YGYStorageV1",
        "label": "ram",
        "offset": 0,
        "slot": "167",
        "type": "t_contract(INBUNIERC20)15595"
      },
      {
        "astId": 14625,
        "contract": "contracts/YGYStorageV1.sol:YGYStorageV1",
        "label": "ygy",
        "offset": 0,
        "slot": "168",
        "type": "t_contract(IERC20)1045"
      },
      {
        "astId": 14627,
        "contract": "contracts/YGYStorageV1.sol:YGYStorageV1",
        "label": "_YGYRAMPair",
        "offset": 0,
        "slot": "169",
        "type": "t_address"
      },
      {
        "astId": 14629,
        "contract": "contracts/YGYStorageV1.sol:YGYStorageV1",
        "label": "_YGYToken",
        "offset": 0,
        "slot": "170",
        "type": "t_address"
      },
      {
        "astId": 14631,
        "contract": "contracts/YGYStorageV1.sol:YGYStorageV1",
        "label": "_YGYWETHPair",
        "offset": 0,
        "slot": "171",
        "type": "t_address"
      },
      {
        "astId": 14633,
        "contract": "contracts/YGYStorageV1.sol:YGYStorageV1",
        "label": "_RAMToken",
        "offset": 0,
        "slot": "172",
        "type": "t_address"
      },
      {
        "astId": 14635,
        "contract": "contracts/YGYStorageV1.sol:YGYStorageV1",
        "label": "_WETH",
        "offset": 0,
        "slot": "173",
        "type": "t_contract(IWETH)23009"
      },
      {
        "astId": 14637,
        "contract": "contracts/YGYStorageV1.sol:YGYStorageV1",
        "label": "_dXIOTToken",
        "offset": 0,
        "slot": "174",
        "type": "t_contract(IERC20)1045"
      },
      {
        "astId": 14816,
        "contract": "contracts/YGYStorageV1.sol:YGYStorageV1",
        "label": "boostFees",
        "offset": 0,
        "slot": "175",
        "type": "t_uint256"
      },
      {
        "astId": 14851,
        "contract": "contracts/YGYStorageV1.sol:YGYStorageV1",
        "label": "boostLevelCosts",
        "offset": 0,
        "slot": "176",
        "type": "t_mapping(t_uint256,t_uint256)"
      },
      {
        "astId": 14941,
        "contract": "contracts/YGYStorageV1.sol:YGYStorageV1",
        "label": "boostLevelMultipliers",
        "offset": 0,
        "slot": "177",
        "type": "t_mapping(t_uint256,t_uint256)"
      },
      {
        "astId": 15007,
        "contract": "contracts/YGYStorageV1.sol:YGYStorageV1",
        "label": "epochRewards",
        "offset": 0,
        "slot": "178",
        "type": "t_mapping(t_uint256,t_uint256)"
      },
      {
        "astId": 15032,
        "contract": "contracts/YGYStorageV1.sol:YGYStorageV1",
        "label": "lastTicketLevel",
        "offset": 0,
        "slot": "179",
        "type": "t_mapping(t_address,t_uint256)"
      },
      {
        "astId": 15058,
        "contract": "contracts/YGYStorageV1.sol:YGYStorageV1",
        "label": "liquidityContributedEthValue",
        "offset": 0,
        "slot": "180",
        "type": "t_mapping(t_address,t_uint256)"
      },
      {
        "astId": 15100,
        "contract": "contracts/YGYStorageV1.sol:YGYStorageV1",
        "label": "_NFTs",
        "offset": 0,
        "slot": "181",
        "type": "t_mapping(t_uint256,t_address)"
      },
      {
        "astId": 15112,
        "contract": "contracts/YGYStorageV1.sol:YGYStorageV1",
        "label": "nftPropertyChoices",
        "offset": 0,
        "slot": "182",
        "type": "t_mapping(t_address,t_array(t_struct(NFTProperty)15107_storage)dyn_storage)"
      },
      {
        "astId": 15229,
        "contract": "contracts/YGYStorageV1.sol:YGYStorageV1",
        "label": "booleanMapStorage",
        "offset": 0,
        "slot": "183",
        "type": "t_mapping(t_bytes32,t_mapping(t_address,t_bool))"
      },
      {
        "astId": 15232,
        "contract": "contracts/YGYStorageV1.sol:YGYStorageV1",
        "label": "booleanMapStorageCount",
        "offset": 0,
        "slot": "184",
        "type": "t_array(t_uint256)dyn_storage"
      },
      {
        "astId": 15258,
        "contract": "contracts/YGYStorageV1.sol:YGYStorageV1",
        "label": "addressStorage",
        "offset": 0,
        "slot": "185",
        "type": "t_mapping(t_bytes32,t_address)"
      },
      {
        "astId": 15261,
        "contract": "contracts/YGYStorageV1.sol:YGYStorageV1",
        "label": "addressStorageCount",
        "offset": 0,
        "slot": "186",
        "type": "t_array(t_uint256)dyn_storage"
      },
      {
        "astId": 15283,
        "contract": "contracts/YGYStorageV1.sol:YGYStorageV1",
        "label": "uintStorage",
        "offset": 0,
        "slot": "187",
        "type": "t_mapping(t_bytes32,t_uint256)"
      },
      {
        "astId": 15286,
        "contract": "contracts/YGYStorageV1.sol:YGYStorageV1",
        "label": "uintStorageCount",
        "offset": 0,
        "slot": "188",
        "type": "t_array(t_uint256)dyn_storage"
      }
    ],
    "types": {
      "t_address": {
        "encoding": "inplace",
        "label": "address",
        "numberOfBytes": "20"
      },
      "t_array(t_bytes32)dyn_storage": {
        "base": "t_bytes32",
        "encoding": "dynamic_array",
        "label": "bytes32[]",
        "numberOfBytes": "32"
      },
      "t_array(t_struct(NFTProperty)15107_storage)dyn_storage": {
        "base": "t_struct(NFTProperty)15107_storage",
        "encoding": "dynamic_array",
        "label": "struct YGYStorageV1.NFTProperty[]",
        "numberOfBytes": "32"
      },
      "t_array(t_struct(NFTUsage)13956_storage)dyn_storage": {
        "base": "t_struct(NFTUsage)13956_storage",
        "encoding": "dynamic_array",
        "label": "struct YGYStorageV1.NFTUsage[]",
        "numberOfBytes": "32"
      },
      "t_array(t_struct(PoolInfo)14154_storage)dyn_storage": {
        "base": "t_struct(PoolInfo)14154_storage",
        "encoding": "dynamic_array",
        "label": "struct YGYStorageV1.PoolInfo[]",
        "numberOfBytes": "32"
      },
      "t_array(t_uint256)49_storage": {
        "base": "t_uint256",
        "encoding": "inplace",
        "label": "uint256[49]",
        "numberOfBytes": "1568"
      },
      "t_array(t_uint256)50_storage": {
        "base": "t_uint256",
        "encoding": "inplace",
        "label": "uint256[50]",
        "numberOfBytes": "1600"
      },
      "t_array(t_uint256)dyn_storage": {
        "base": "t_uint256",
        "encoding": "dynamic_array",
        "label": "uint256[]",
        "numberOfBytes": "32"
      },
      "t_bool": {
        "encoding": "inplace",
        "label": "bool",
        "numberOfBytes": "1"
      },
      "t_bytes32": {
        "encoding": "inplace",
        "label": "bytes32",
        "numberOfBytes": "32"
      },
      "t_contract(IERC20)1045": {
        "encoding": "inplace",
        "label": "contract IERC20",
        "numberOfBytes": "20"
      },
      "t_contract(INBUNIERC20)15595": {
        "encoding": "inplace",
        "label": "contract INBUNIERC20",
        "numberOfBytes": "20"
      },
      "t_contract(IWETH)23009": {
        "encoding": "inplace",
        "label": "contract IWETH",
        "numberOfBytes": "20"
      },
      "t_mapping(t_address,t_array(t_struct(NFTProperty)15107_storage)dyn_storage)": {
        "encoding": "mapping",
        "key": "t_address",
        "label": "mapping(address => struct YGYStorageV1.NFTProperty[])",
        "numberOfBytes": "32",
        "value": "t_array(t_struct(NFTProperty)15107_storage)dyn_storage"
      },
      "t_mapping(t_address,t_array(t_struct(NFTUsage)13956_storage)dyn_storage)": {
        "encoding": "mapping",
        "key": "t_address",
        "label": "mapping(address => struct YGYStorageV1.NFTUsage[])",
        "numberOfBytes": "32",
        "value": "t_array(t_struct(NFTUsage)13956_storage)dyn_storage"
      },
      "t_mapping(t_address,t_bool)": {
        "encoding": "mapping",
        "key": "t_address",
        "label": "mapping(address => bool)",
        "numberOfBytes": "32",
        "value": "t_bool"
      },
      "t_mapping(t_address,t_mapping(t_address,t_uint256))": {
        "encoding": "mapping",
        "key": "t_address",
        "label": "mapping(address => mapping(address => uint256))",
        "numberOfBytes": "32",
        "value": "t_mapping(t_address,t_uint256)"
      },
      "t_mapping(t_address,t_struct(UserInfo)13951_storage)": {
        "encoding": "mapping",
        "key": "t_address",
        "label": "mapping(address => struct YGYStorageV1.UserInfo)",
        "numberOfBytes": "32",
        "value": "t_struct(UserInfo)13951_storage"
      },
      "t_mapping(t_address,t_uint256)": {
        "encoding": "mapping",
        "key": "t_address",
        "label": "mapping(address => uint256)",
        "numberOfBytes": "32",
        "value": "t_uint256"
      },
      "t_mapping(t_bytes32,t_address)": {
        "encoding": "mapping",
        "key": "t_bytes32",
        "label": "mapping(bytes32 => address)",
        "numberOfBytes": "32",
        "value": "t_address"
      },
      "t_mapping(t_bytes32,t_mapping(t_address,t_bool))": {
        "encoding": "mapping",
        "key": "t_bytes32",
        "label": "mapping(bytes32 => mapping(address => bool))",
        "numberOfBytes": "32",
        "value": "t_mapping(t_address,t_bool)"
      },
      "t_mapping(t_bytes32,t_struct(RoleData)304_storage)": {
        "encoding": "mapping",
        "key": "t_bytes32",
        "label": "mapping(bytes32 => struct AccessControlUpgradeSafe.RoleData)",
        "numberOfBytes": "32",
        "value": "t_struct(RoleData)304_storage"
      },
      "t_mapping(t_bytes32,t_uint256)": {
        "encoding": "mapping",
        "key": "t_bytes32",
        "label": "mapping(bytes32 => uint256)",
        "numberOfBytes": "32",
        "value": "t_uint256"
      },
      "t_mapping(t_uint256,t_address)": {
        "encoding": "mapping",
        "key": "t_uint256",
        "label": "mapping(uint256 => address)",
        "numberOfBytes": "32",
        "value": "t_address"
      },
      "t_mapping(t_uint256,t_mapping(t_address,t_array(t_struct(NFTUsage)13956_storage)dyn_storage))": {
        "encoding": "mapping",
        "key": "t_uint256",
        "label": "mapping(uint256 => mapping(address => struct YGYStorageV1.NFTUsage[]))",
        "numberOfBytes": "32",
        "value": "t_mapping(t_address,t_array(t_struct(NFTUsage)13956_storage)dyn_storage)"
      },
      "t_mapping(t_uint256,t_mapping(t_address,t_mapping(t_address,t_uint256)))": {
        "encoding": "mapping",
        "key": "t_uint256",
        "label": "mapping(uint256 => mapping(address => mapping(address => uint256)))",
        "numberOfBytes": "32",
        "value": "t_mapping(t_address,t_mapping(t_address,t_uint256))"
      },
      "t_mapping(t_uint256,t_mapping(t_address,t_struct(UserInfo)13951_storage))": {
        "encoding": "mapping",
        "key": "t_uint256",
        "label": "mapping(uint256 => mapping(address => struct YGYStorageV1.UserInfo))",
        "numberOfBytes": "32",
        "value": "t_mapping(t_address,t_struct(UserInfo)13951_storage)"
      },
      "t_mapping(t_uint256,t_uint256)": {
        "encoding": "mapping",
        "key": "t_uint256",
        "label": "mapping(uint256 => uint256)",
        "numberOfBytes": "32",
        "value": "t_uint256"
      },
      "t_string_storage": {
        "encoding": "bytes",
        "label": "string",
        "numberOfBytes": "32"
      },
      "t_struct(AddressSet)2033_storage": {
        "encoding": "inplace",
        "label": "struct EnumerableSet.AddressSet",
        "members": [
          {
            "astId": 2032,
            "contract": "contracts/YGYStorageV1.sol:YGYStorageV1",
            "label": "_inner",
            "offset": 0,
            "slot": "0",
            "type": "t_struct(Set)1853_storage"
          }
        ],
        "numberOfBytes": "64"
      },
      "t_struct(NFTProperty)15107_storage": {
        "encoding": "inplace",
        "label": "struct YGYStorageV1.NFTProperty",
        "members": [
          {
            "astId": 15102,
            "contract": "contracts/YGYStorageV1.sol:YGYStorageV1",
            "label": "pType",
            "offset": 0,
            "slot": "0",
            "type": "t_string_storage"
          },
          {
            "astId": 15104,
            "contract": "contracts/YGYStorageV1.sol:YGYStorageV1",
            "label": "pValue",
            "offset": 0,
            "slot": "1",
            "type": "t_uint256"
          },
          {
            "astId": 15106,
            "contract": "contracts/YGYStorageV1.sol:YGYStorageV1",
            "label": "extra",
            "offset": 0,
            "slot": "2",
            "type": "t_bytes32"
          }
        ],
        "numberOfBytes": "96"
      },
      "t_struct(NFTUsage)13956_storage": {
        "encoding": "inplace",
        "label": "struct YGYStorageV1.NFTUsage",
        "members": [
          {
            "astId": 13953,
            "contract": "contracts/YGYStorageV1.sol:YGYStorageV1",
            "label": "nftId",
            "offset": 0,
            "slot": "0",
            "type": "t_uint256"
          },
          {
            "astId": 13955,
            "contract": "contracts/YGYStorageV1.sol:YGYStorageV1",
            "label": "epoch",
            "offset": 0,
            "slot": "1",
            "type": "t_uint256"
          }
        ],
        "numberOfBytes": "64"
      },
      "t_struct(PoolInfo)14154_storage": {
        "encoding": "inplace",
        "label": "struct YGYStorageV1.PoolInfo",
        "members": [
          {
            "astId": 14143,
            "contract": "contracts/YGYStorageV1.sol:YGYStorageV1",
            "label": "token",
            "offset": 0,
            "slot": "0",
            "type": "t_contract(IERC20)1045"
          },
          {
            "astId": 14145,
            "contract": "contracts/YGYStorageV1.sol:YGYStorageV1",
            "label": "allocPoint",
            "offset": 0,
            "slot": "1",
            "type": "t_uint256"
          },
          {
            "astId": 14147,
            "contract": "contracts/YGYStorageV1.sol:YGYStorageV1",
            "label": "accRAMPerShare",
            "offset": 0,
            "slot": "2",
            "type": "t_uint256"
          },
          {
            "astId": 14149,
            "contract": "contracts/YGYStorageV1.sol:YGYStorageV1",
            "label": "accYGYPerShare",
            "offset": 0,
            "slot": "3",
            "type": "t_uint256"
          },
          {
            "astId": 14151,
            "contract": "contracts/YGYStorageV1.sol:YGYStorageV1",
            "label": "withdrawable",
            "offset": 0,
            "slot": "4",
            "type": "t_bool"
          },
          {
            "astId": 14153,
            "contract": "contracts/YGYStorageV1.sol:YGYStorageV1",
            "label": "effectiveAdditionalTokensFromBoosts",
            "offset": 0,
            "slot": "5",
            "type": "t_uint256"
          }
        ],
        "numberOfBytes": "192"
      },
      "t_struct(RoleData)304_storage": {
        "encoding": "inplace",
        "label": "struct AccessControlUpgradeSafe.RoleData",
        "members": [
          {
            "astId": 301,
            "contract": "contracts/YGYStorageV1.sol:YGYStorageV1",
            "label": "members",
            "offset": 0,
            "slot": "0",
            "type": "t_struct(AddressSet)2033_storage"
          },
          {
            "astId": 303,
            "contract": "contracts/YGYStorageV1.sol:YGYStorageV1",
            "label": "adminRole",
            "offset": 0,
            "slot": "2",
            "type": "t_bytes32"
          }
        ],
        "numberOfBytes": "96"
      },
      "t_struct(Set)1853_storage": {
        "encoding": "inplace",
        "label": "struct EnumerableSet.Set",
        "members": [
          {
            "astId": 1848,
            "contract": "contracts/YGYStorageV1.sol:YGYStorageV1",
            "label": "_values",
            "offset": 0,
            "slot": "0",
            "type": "t_array(t_bytes32)dyn_storage"
          },
          {
            "astId": 1852,
            "contract": "contracts/YGYStorageV1.sol:YGYStorageV1",
            "label": "_indexes",
            "offset": 0,
            "slot": "1",
            "type": "t_mapping(t_bytes32,t_uint256)"
          }
        ],
        "numberOfBytes": "64"
      },
      "t_struct(UserInfo)13951_storage": {
        "encoding": "inplace",
        "label": "struct YGYStorageV1.UserInfo",
        "members": [
          {
            "astId": 13940,
            "contract": "contracts/YGYStorageV1.sol:YGYStorageV1",
            "label": "amount",
            "offset": 0,
            "slot": "0",
            "type": "t_uint256"
          },
          {
            "astId": 13942,
            "contract": "contracts/YGYStorageV1.sol:YGYStorageV1",
            "label": "rewardDebt",
            "offset": 0,
            "slot": "1",
            "type": "t_uint256"
          },
          {
            "astId": 13944,
            "contract": "contracts/YGYStorageV1.sol:YGYStorageV1",
            "label": "rewardDebtYGY",
            "offset": 0,
            "slot": "2",
            "type": "t_uint256"
          },
          {
            "astId": 13946,
            "contract": "contracts/YGYStorageV1.sol:YGYStorageV1",
            "label": "boostAmount",
            "offset": 0,
            "slot": "3",
            "type": "t_uint256"
          },
          {
            "astId": 13948,
            "contract": "contracts/YGYStorageV1.sol:YGYStorageV1",
            "label": "boostLevel",
            "offset": 0,
            "slot": "4",
            "type": "t_uint256"
          },
          {
            "astId": 13950,
            "contract": "contracts/YGYStorageV1.sol:YGYStorageV1",
            "label": "spentMultiplierTokens",
            "offset": 0,
            "slot": "5",
            "type": "t_uint256"
          }
        ],
        "numberOfBytes": "192"
      },
      "t_uint256": {
        "encoding": "inplace",
        "label": "uint256",
        "numberOfBytes": "32"
      }
    }
  }
}