{
  "address": "0xb9B32aa42ce3D0828dA1B8509457DC6e3E05B166",
  "abi": [
    {
      "anonymous": false,
      "inputs": [
        {
          "indexed": true,
          "internalType": "bytes32",
          "name": "role",
          "type": "bytes32"
        },
        {
          "indexed": true,
          "internalType": "address",
          "name": "account",
          "type": "address"
        },
        {
          "indexed": true,
          "internalType": "address",
          "name": "sender",
          "type": "address"
        }
      ],
      "name": "RoleGranted",
      "type": "event"
    },
    {
      "anonymous": false,
      "inputs": [
        {
          "indexed": true,
          "internalType": "bytes32",
          "name": "role",
          "type": "bytes32"
        },
        {
          "indexed": true,
          "internalType": "address",
          "name": "account",
          "type": "address"
        },
        {
          "indexed": true,
          "internalType": "address",
          "name": "sender",
          "type": "address"
        }
      ],
      "name": "RoleRevoked",
      "type": "event"
    },
    {
      "inputs": [],
      "name": "DEFAULT_ADMIN_ROLE",
      "outputs": [
        {
          "internalType": "bytes32",
          "name": "",
          "type": "bytes32"
        }
      ],
      "stateMutability": "view",
      "type": "function"
    },
    {
      "inputs": [],
      "name": "MODIFIER_ROLE",
      "outputs": [
        {
          "internalType": "bytes32",
          "name": "",
          "type": "bytes32"
        }
      ],
      "stateMutability": "view",
      "type": "function"
    },
    {
      "inputs": [
        {
          "internalType": "uint256",
          "name": "",
          "type": "uint256"
        },
        {
          "internalType": "address",
          "name": "",
          "type": "address"
        },
        {
          "internalType": "uint256",
          "name": "",
          "type": "uint256"
        }
      ],
      "name": "NFTUsageInfo",
      "outputs": [
        {
          "internalType": "uint256",
          "name": "contractId",
          "type": "uint256"
        },
        {
          "internalType": "uint256",
          "name": "epoch",
          "type": "uint256"
        }
      ],
      "stateMutability": "view",
      "type": "function"
    },
    {
      "inputs": [],
      "name": "RAMVaultStartBlock",
      "outputs": [
        {
          "internalType": "uint256",
          "name": "",
          "type": "uint256"
        }
      ],
      "stateMutability": "view",
      "type": "function"
    },
    {
      "inputs": [],
      "name": "YGYReserve",
      "outputs": [
        {
          "internalType": "uint256",
          "name": "",
          "type": "uint256"
        }
      ],
      "stateMutability": "view",
      "type": "function"
    },
    {
      "inputs": [],
      "name": "YGYRewardsInThisEpoch",
      "outputs": [
        {
          "internalType": "uint256",
          "name": "",
          "type": "uint256"
        }
      ],
      "stateMutability": "view",
      "type": "function"
    },
    {
      "inputs": [
        {
          "internalType": "uint256",
          "name": "",
          "type": "uint256"
        }
      ],
      "name": "_NFTs",
      "outputs": [
        {
          "internalType": "address",
          "name": "",
          "type": "address"
        }
      ],
      "stateMutability": "view",
      "type": "function"
    },
    {
      "inputs": [],
      "name": "_RAMToken",
      "outputs": [
        {
          "internalType": "address",
          "name": "",
          "type": "address"
        }
      ],
      "stateMutability": "view",
      "type": "function"
    },
    {
      "inputs": [],
      "name": "_WETH",
      "outputs": [
        {
          "internalType": "contract IWETH",
          "name": "",
          "type": "address"
        }
      ],
      "stateMutability": "view",
      "type": "function"
    },
    {
      "inputs": [],
      "name": "_YGYRAMPair",
      "outputs": [
        {
          "internalType": "address",
          "name": "",
          "type": "address"
        }
      ],
      "stateMutability": "view",
      "type": "function"
    },
    {
      "inputs": [],
      "name": "_YGYToken",
      "outputs": [
        {
          "internalType": "address",
          "name": "",
          "type": "address"
        }
      ],
      "stateMutability": "view",
      "type": "function"
    },
    {
      "inputs": [],
      "name": "_YGYWETHPair",
      "outputs": [
        {
          "internalType": "address",
          "name": "",
          "type": "address"
        }
      ],
      "stateMutability": "view",
      "type": "function"
    },
    {
      "inputs": [],
      "name": "_dXIOTToken",
      "outputs": [
        {
          "internalType": "contract IERC20",
          "name": "",
          "type": "address"
        }
      ],
      "stateMutability": "view",
      "type": "function"
    },
    {
      "inputs": [
        {
          "internalType": "uint256",
          "name": "_amount",
          "type": "uint256"
        },
        {
          "internalType": "bool",
          "name": "_ygy",
          "type": "bool"
        }
      ],
      "name": "addAdditionalRewards",
      "outputs": [],
      "stateMutability": "nonpayable",
      "type": "function"
    },
    {
      "inputs": [
        {
          "internalType": "uint256",
          "name": "_amount",
          "type": "uint256"
        }
      ],
      "name": "addPendingRewards",
      "outputs": [],
      "stateMutability": "nonpayable",
      "type": "function"
    },
    {
      "inputs": [
        {
          "internalType": "uint256",
          "name": "_allocPoint",
          "type": "uint256"
        },
        {
          "internalType": "contract IERC20",
          "name": "_token",
          "type": "address"
        },
        {
          "internalType": "bool",
          "name": "_withdrawable",
          "type": "bool"
        }
      ],
      "name": "addPool",
      "outputs": [],
      "stateMutability": "nonpayable",
      "type": "function"
    },
    {
      "inputs": [
        {
          "internalType": "uint256",
          "name": "",
          "type": "uint256"
        }
      ],
      "name": "addressStorageCount",
      "outputs": [
        {
          "internalType": "uint256",
          "name": "",
          "type": "uint256"
        }
      ],
      "stateMutability": "view",
      "type": "function"
    },
    {
      "inputs": [],
      "name": "averageFeesPerBlockEpoch",
      "outputs": [
        {
          "internalType": "uint256",
          "name": "averagePerBlock",
          "type": "uint256"
        },
        {
          "internalType": "uint256",
          "name": "ygyPerBlock",
          "type": "uint256"
        }
      ],
      "stateMutability": "view",
      "type": "function"
    },
    {
      "inputs": [],
      "name": "averageFeesPerBlockSinceStart",
      "outputs": [
        {
          "internalType": "uint256",
          "name": "averagePerBlock",
          "type": "uint256"
        },
        {
          "internalType": "uint256",
          "name": "ygyPerBlock",
          "type": "uint256"
        }
      ],
      "stateMutability": "view",
      "type": "function"
    },
    {
      "inputs": [
        {
          "internalType": "uint256",
          "name": "",
          "type": "uint256"
        }
      ],
      "name": "booleanMapStorageCount",
      "outputs": [
        {
          "internalType": "uint256",
          "name": "",
          "type": "uint256"
        }
      ],
      "stateMutability": "view",
      "type": "function"
    },
    {
      "inputs": [],
      "name": "boostFees",
      "outputs": [
        {
          "internalType": "uint256",
          "name": "",
          "type": "uint256"
        }
      ],
      "stateMutability": "view",
      "type": "function"
    },
    {
      "inputs": [
        {
          "internalType": "uint256",
          "name": "",
          "type": "uint256"
        }
      ],
      "name": "boostLevelCosts",
      "outputs": [
        {
          "internalType": "uint256",
          "name": "",
          "type": "uint256"
        }
      ],
      "stateMutability": "view",
      "type": "function"
    },
    {
      "inputs": [
        {
          "internalType": "uint256",
          "name": "",
          "type": "uint256"
        }
      ],
      "name": "boostLevelMultipliers",
      "outputs": [
        {
          "internalType": "uint256",
          "name": "",
          "type": "uint256"
        }
      ],
      "stateMutability": "view",
      "type": "function"
    },
    {
      "inputs": [
        {
          "internalType": "uint256",
          "name": "_pid",
          "type": "uint256"
        },
        {
          "internalType": "address",
          "name": "_user",
          "type": "address"
        }
      ],
      "name": "checkRewards",
      "outputs": [
        {
          "internalType": "uint256",
          "name": "pendingRAM",
          "type": "uint256"
        },
        {
          "internalType": "uint256",
          "name": "pendingYGY",
          "type": "uint256"
        }
      ],
      "stateMutability": "view",
      "type": "function"
    },
    {
      "inputs": [],
      "name": "cumulativeRewardsSinceStart",
      "outputs": [
        {
          "internalType": "uint256",
          "name": "",
          "type": "uint256"
        }
      ],
      "stateMutability": "view",
      "type": "function"
    },
    {
      "inputs": [],
      "name": "cumulativeYGYRewardsSinceStart",
      "outputs": [
        {
          "internalType": "uint256",
          "name": "",
          "type": "uint256"
        }
      ],
      "stateMutability": "view",
      "type": "function"
    },
    {
      "inputs": [],
      "name": "epoch",
      "outputs": [
        {
          "internalType": "uint256",
          "name": "",
          "type": "uint256"
        }
      ],
      "stateMutability": "view",
      "type": "function"
    },
    {
      "inputs": [
        {
          "internalType": "uint256",
          "name": "",
          "type": "uint256"
        }
      ],
      "name": "epochRewards",
      "outputs": [
        {
          "internalType": "uint256",
          "name": "",
          "type": "uint256"
        }
      ],
      "stateMutability": "view",
      "type": "function"
    },
    {
      "inputs": [],
      "name": "epochStartBlock",
      "outputs": [
        {
          "internalType": "uint256",
          "name": "",
          "type": "uint256"
        }
      ],
      "stateMutability": "view",
      "type": "function"
    },
    {
      "inputs": [
        {
          "internalType": "string",
          "name": "_key",
          "type": "string"
        }
      ],
      "name": "getAddressStorage",
      "outputs": [
        {
          "internalType": "address",
          "name": "",
          "type": "address"
        }
      ],
      "stateMutability": "view",
      "type": "function"
    },
    {
      "inputs": [
        {
          "internalType": "string",
          "name": "_key",
          "type": "string"
        },
        {
          "internalType": "address",
          "name": "_address",
          "type": "address"
        }
      ],
      "name": "getBooleanMapValue",
      "outputs": [
        {
          "internalType": "bool",
          "name": "",
          "type": "bool"
        }
      ],
      "stateMutability": "view",
      "type": "function"
    },
    {
      "inputs": [
        {
          "internalType": "uint256",
          "name": "_level",
          "type": "uint256"
        }
      ],
      "name": "getBoostLevelCost",
      "outputs": [
        {
          "internalType": "uint256",
          "name": "",
          "type": "uint256"
        }
      ],
      "stateMutability": "view",
      "type": "function"
    },
    {
      "inputs": [
        {
          "internalType": "uint256",
          "name": "_level",
          "type": "uint256"
        }
      ],
      "name": "getBoostLevelMultiplier",
      "outputs": [
        {
          "internalType": "uint256",
          "name": "",
          "type": "uint256"
        }
      ],
      "stateMutability": "view",
      "type": "function"
    },
    {
      "inputs": [
        {
          "internalType": "uint256",
          "name": "_contractId",
          "type": "uint256"
        }
      ],
      "name": "getNFTAddress",
      "outputs": [
        {
          "internalType": "address",
          "name": "",
          "type": "address"
        }
      ],
      "stateMutability": "view",
      "type": "function"
    },
    {
      "inputs": [
        {
          "internalType": "address",
          "name": "_user",
          "type": "address"
        }
      ],
      "name": "getNFTBoost",
      "outputs": [
        {
          "internalType": "uint256",
          "name": "",
          "type": "uint256"
        }
      ],
      "stateMutability": "view",
      "type": "function"
    },
    {
      "inputs": [
        {
          "internalType": "uint256",
          "name": "_contractId",
          "type": "uint256"
        },
        {
          "internalType": "uint256",
          "name": "_index",
          "type": "uint256"
        }
      ],
      "name": "getNFTProperty",
      "outputs": [
        {
          "internalType": "string",
          "name": "pType",
          "type": "string"
        },
        {
          "internalType": "uint256",
          "name": "pValue",
          "type": "uint256"
        },
        {
          "internalType": "bytes32",
          "name": "extra",
          "type": "bytes32"
        }
      ],
      "stateMutability": "view",
      "type": "function"
    },
    {
      "inputs": [
        {
          "internalType": "uint256",
          "name": "_contractId",
          "type": "uint256"
        }
      ],
      "name": "getNFTPropertyCount",
      "outputs": [
        {
          "internalType": "uint256",
          "name": "",
          "type": "uint256"
        }
      ],
      "stateMutability": "view",
      "type": "function"
    },
    {
      "inputs": [
        {
          "internalType": "address",
          "name": "_user",
          "type": "address"
        }
      ],
      "name": "getNFTsInUse",
      "outputs": [
        {
          "components": [
            {
              "internalType": "uint256",
              "name": "contractId",
              "type": "uint256"
            },
            {
              "internalType": "uint256",
              "name": "epoch",
              "type": "uint256"
            }
          ],
          "internalType": "struct YGYStorageV1.NFTUsage[]",
          "name": "",
          "type": "tuple[]"
        }
      ],
      "stateMutability": "view",
      "type": "function"
    },
    {
      "inputs": [
        {
          "internalType": "uint256",
          "name": "_poolId",
          "type": "uint256"
        }
      ],
      "name": "getPoolInfo",
      "outputs": [
        {
          "internalType": "contract IERC20",
          "name": "_token",
          "type": "address"
        },
        {
          "internalType": "uint256",
          "name": "_allocPointt",
          "type": "uint256"
        },
        {
          "internalType": "uint256",
          "name": "_accRAMPerShare",
          "type": "uint256"
        },
        {
          "internalType": "uint256",
          "name": "_accYGYPerShare",
          "type": "uint256"
        },
        {
          "internalType": "bool",
          "name": "_withdrawable",
          "type": "bool"
        },
        {
          "internalType": "uint256",
          "name": "_effectiveAdditionalTokensFromBoosts",
          "type": "uint256"
        }
      ],
      "stateMutability": "view",
      "type": "function"
    },
    {
      "inputs": [],
      "name": "getPoolLength",
      "outputs": [
        {
          "internalType": "uint256",
          "name": "",
          "type": "uint256"
        }
      ],
      "stateMutability": "view",
      "type": "function"
    },
    {
      "inputs": [
        {
          "internalType": "bytes32",
          "name": "role",
          "type": "bytes32"
        }
      ],
      "name": "getRoleAdmin",
      "outputs": [
        {
          "internalType": "bytes32",
          "name": "",
          "type": "bytes32"
        }
      ],
      "stateMutability": "view",
      "type": "function"
    },
    {
      "inputs": [
        {
          "internalType": "bytes32",
          "name": "role",
          "type": "bytes32"
        },
        {
          "internalType": "uint256",
          "name": "index",
          "type": "uint256"
        }
      ],
      "name": "getRoleMember",
      "outputs": [
        {
          "internalType": "address",
          "name": "",
          "type": "address"
        }
      ],
      "stateMutability": "view",
      "type": "function"
    },
    {
      "inputs": [
        {
          "internalType": "bytes32",
          "name": "role",
          "type": "bytes32"
        }
      ],
      "name": "getRoleMemberCount",
      "outputs": [
        {
          "internalType": "uint256",
          "name": "",
          "type": "uint256"
        }
      ],
      "stateMutability": "view",
      "type": "function"
    },
    {
      "inputs": [
        {
          "internalType": "bytes32",
          "name": "role",
          "type": "bytes32"
        },
        {
          "internalType": "address",
          "name": "account",
          "type": "address"
        }
      ],
      "name": "grantRole",
      "outputs": [],
      "stateMutability": "nonpayable",
      "type": "function"
    },
    {
      "inputs": [
        {
          "internalType": "bytes32",
          "name": "role",
          "type": "bytes32"
        },
        {
          "internalType": "address",
          "name": "account",
          "type": "address"
        }
      ],
      "name": "hasRole",
      "outputs": [
        {
          "internalType": "bool",
          "name": "",
          "type": "bool"
        }
      ],
      "stateMutability": "view",
      "type": "function"
    },
    {
      "inputs": [],
      "name": "init",
      "outputs": [],
      "stateMutability": "nonpayable",
      "type": "function"
    },
    {
      "inputs": [],
      "name": "initializeRAMVault",
      "outputs": [],
      "stateMutability": "nonpayable",
      "type": "function"
    },
    {
      "inputs": [
        {
          "internalType": "address",
          "name": "",
          "type": "address"
        }
      ],
      "name": "lastTicketLevel",
      "outputs": [
        {
          "internalType": "uint256",
          "name": "",
          "type": "uint256"
        }
      ],
      "stateMutability": "view",
      "type": "function"
    },
    {
      "inputs": [
        {
          "internalType": "address",
          "name": "",
          "type": "address"
        }
      ],
      "name": "liquidityContributedEthValue",
      "outputs": [
        {
          "internalType": "uint256",
          "name": "",
          "type": "uint256"
        }
      ],
      "stateMutability": "view",
      "type": "function"
    },
    {
      "inputs": [
        {
          "internalType": "address",
          "name": "",
          "type": "address"
        },
        {
          "internalType": "uint256",
          "name": "",
          "type": "uint256"
        }
      ],
      "name": "nftPropertyChoices",
      "outputs": [
        {
          "internalType": "string",
          "name": "pType",
          "type": "string"
        },
        {
          "internalType": "uint256",
          "name": "pValue",
          "type": "uint256"
        },
        {
          "internalType": "bytes32",
          "name": "extra",
          "type": "bytes32"
        }
      ],
      "stateMutability": "view",
      "type": "function"
    },
    {
      "inputs": [],
      "name": "pendingRewards",
      "outputs": [
        {
          "internalType": "uint256",
          "name": "",
          "type": "uint256"
        }
      ],
      "stateMutability": "view",
      "type": "function"
    },
    {
      "inputs": [],
      "name": "pendingYGYRewards",
      "outputs": [
        {
          "internalType": "uint256",
          "name": "",
          "type": "uint256"
        }
      ],
      "stateMutability": "view",
      "type": "function"
    },
    {
      "inputs": [
        {
          "internalType": "uint256",
          "name": "",
          "type": "uint256"
        },
        {
          "internalType": "address",
          "name": "",
          "type": "address"
        },
        {
          "internalType": "address",
          "name": "",
          "type": "address"
        }
      ],
      "name": "poolAllowance",
      "outputs": [
        {
          "internalType": "uint256",
          "name": "",
          "type": "uint256"
        }
      ],
      "stateMutability": "view",
      "type": "function"
    },
    {
      "inputs": [
        {
          "internalType": "uint256",
          "name": "",
          "type": "uint256"
        }
      ],
      "name": "poolInfo",
      "outputs": [
        {
          "internalType": "contract IERC20",
          "name": "token",
          "type": "address"
        },
        {
          "internalType": "uint256",
          "name": "allocPoint",
          "type": "uint256"
        },
        {
          "internalType": "uint256",
          "name": "accRAMPerShare",
          "type": "uint256"
        },
        {
          "internalType": "uint256",
          "name": "accYGYPerShare",
          "type": "uint256"
        },
        {
          "internalType": "bool",
          "name": "withdrawable",
          "type": "bool"
        },
        {
          "internalType": "uint256",
          "name": "effectiveAdditionalTokensFromBoosts",
          "type": "uint256"
        }
      ],
      "stateMutability": "view",
      "type": "function"
    },
    {
      "inputs": [],
      "name": "ram",
      "outputs": [
        {
          "internalType": "contract INBUNIERC20",
          "name": "",
          "type": "address"
        }
      ],
      "stateMutability": "view",
      "type": "function"
    },
    {
      "inputs": [
        {
          "internalType": "bytes32",
          "name": "role",
          "type": "bytes32"
        },
        {
          "internalType": "address",
          "name": "account",
          "type": "address"
        }
      ],
      "name": "renounceRole",
      "outputs": [],
      "stateMutability": "nonpayable",
      "type": "function"
    },
    {
      "inputs": [
        {
          "internalType": "bytes32",
          "name": "role",
          "type": "bytes32"
        },
        {
          "internalType": "address",
          "name": "account",
          "type": "address"
        }
      ],
      "name": "revokeRole",
      "outputs": [],
      "stateMutability": "nonpayable",
      "type": "function"
    },
    {
      "inputs": [],
      "name": "rewardsInThisEpoch",
      "outputs": [
        {
          "internalType": "uint256",
          "name": "",
          "type": "uint256"
        }
      ],
      "stateMutability": "view",
      "type": "function"
    },
    {
      "inputs": [
        {
          "internalType": "uint256",
          "name": "_amount",
          "type": "uint256"
        },
        {
          "internalType": "bool",
          "name": "_add",
          "type": "bool"
        }
      ],
      "name": "setBoostFees",
      "outputs": [],
      "stateMutability": "nonpayable",
      "type": "function"
    },
    {
      "inputs": [],
      "name": "setCumulativeRewardsSinceStart",
      "outputs": [],
      "stateMutability": "nonpayable",
      "type": "function"
    },
    {
      "inputs": [],
      "name": "setEpochCalculationStartBlock",
      "outputs": [],
      "stateMutability": "nonpayable",
      "type": "function"
    },
    {
      "inputs": [],
      "name": "setEpochRewards",
      "outputs": [],
      "stateMutability": "nonpayable",
      "type": "function"
    },
    {
      "inputs": [
        {
          "internalType": "address",
          "name": "_user",
          "type": "address"
        },
        {
          "internalType": "uint256",
          "name": "_level",
          "type": "uint256"
        }
      ],
      "name": "setLastTicketLevel",
      "outputs": [],
      "stateMutability": "nonpayable",
      "type": "function"
    },
    {
      "inputs": [
        {
          "internalType": "address",
          "name": "_spender",
          "type": "address"
        },
        {
          "internalType": "uint256",
          "name": "_amount",
          "type": "uint256"
        },
        {
          "internalType": "bool",
          "name": "_delete",
          "type": "bool"
        }
      ],
      "name": "setLiquidityContributedEthValue",
      "outputs": [],
      "stateMutability": "nonpayable",
      "type": "function"
    },
    {
      "inputs": [
        {
          "internalType": "address",
          "name": "_vault",
          "type": "address"
        },
        {
          "internalType": "address",
          "name": "_router",
          "type": "address"
        },
        {
          "internalType": "address",
          "name": "_nftFactory",
          "type": "address"
        }
      ],
      "name": "setModifierContracts",
      "outputs": [],
      "stateMutability": "nonpayable",
      "type": "function"
    },
    {
      "inputs": [
        {
          "internalType": "uint256",
          "name": "_contractId",
          "type": "uint256"
        },
        {
          "internalType": "address",
          "name": "_user",
          "type": "address"
        }
      ],
      "name": "setNFTInUse",
      "outputs": [],
      "stateMutability": "nonpayable",
      "type": "function"
    },
    {
      "inputs": [
        {
          "internalType": "address",
          "name": "_contractAddress",
          "type": "address"
        },
        {
          "components": [
            {
              "internalType": "string",
              "name": "pType",
              "type": "string"
            },
            {
              "internalType": "uint256",
              "name": "pValue",
              "type": "uint256"
            },
            {
              "internalType": "bytes32",
              "name": "extra",
              "type": "bytes32"
            }
          ],
          "internalType": "struct YGYStorageV1.NFTProperty[]",
          "name": "_properties",
          "type": "tuple[]"
        }
      ],
      "name": "setNFTPropertiesForContract",
      "outputs": [],
      "stateMutability": "nonpayable",
      "type": "function"
    },
    {
      "inputs": [
        {
          "internalType": "uint256",
          "name": "_poolId",
          "type": "uint256"
        },
        {
          "internalType": "uint256",
          "name": "_allocPoint",
          "type": "uint256"
        },
        {
          "internalType": "bool",
          "name": "_withdrawable",
          "type": "bool"
        }
      ],
      "name": "setPool",
      "outputs": [],
      "stateMutability": "nonpayable",
      "type": "function"
    },
    {
      "inputs": [
        {
          "internalType": "uint256",
          "name": "_pid",
          "type": "uint256"
        },
        {
          "internalType": "address",
          "name": "_user",
          "type": "address"
        },
        {
          "internalType": "address",
          "name": "_spender",
          "type": "address"
        },
        {
          "internalType": "uint256",
          "name": "_allowance",
          "type": "uint256"
        }
      ],
      "name": "setPoolAllowance",
      "outputs": [],
      "stateMutability": "nonpayable",
      "type": "function"
    },
    {
      "inputs": [
        {
          "internalType": "uint256",
          "name": "_amount",
          "type": "uint256"
        }
      ],
      "name": "setRAMBalance",
      "outputs": [],
      "stateMutability": "nonpayable",
      "type": "function"
    },
    {
      "inputs": [],
      "name": "setRAMVaultStartBlock",
      "outputs": [],
      "stateMutability": "nonpayable",
      "type": "function"
    },
    {
      "inputs": [
        {
          "internalType": "uint256",
          "name": "_amount",
          "type": "uint256"
        },
        {
          "internalType": "uint256",
          "name": "_ygyAmount",
          "type": "uint256"
        }
      ],
      "name": "setRewardsInThisEpoch",
      "outputs": [],
      "stateMutability": "nonpayable",
      "type": "function"
    },
    {
      "inputs": [
        {
          "internalType": "address",
          "name": "RAMToken",
          "type": "address"
        },
        {
          "internalType": "address",
          "name": "YGYToken",
          "type": "address"
        },
        {
          "internalType": "address",
          "name": "WETH",
          "type": "address"
        },
        {
          "internalType": "address",
          "name": "YGYRAMPair",
          "type": "address"
        },
        {
          "internalType": "address",
          "name": "YGYWethPair",
          "type": "address"
        },
        {
          "internalType": "address[]",
          "name": "nfts",
          "type": "address[]"
        },
        {
          "internalType": "address",
          "name": "dXIOTToken",
          "type": "address"
        }
      ],
      "name": "setTokens",
      "outputs": [],
      "stateMutability": "nonpayable",
      "type": "function"
    },
    {
      "inputs": [
        {
          "internalType": "uint256",
          "name": "_amount",
          "type": "uint256"
        }
      ],
      "name": "setYGYBalance",
      "outputs": [],
      "stateMutability": "nonpayable",
      "type": "function"
    },
    {
      "inputs": [
        {
          "internalType": "uint256",
          "name": "_amount",
          "type": "uint256"
        }
      ],
      "name": "setYGYReserve",
      "outputs": [],
      "stateMutability": "nonpayable",
      "type": "function"
    },
    {
      "inputs": [
        {
          "internalType": "string",
          "name": "source",
          "type": "string"
        }
      ],
      "name": "stringToBytes32",
      "outputs": [
        {
          "internalType": "bytes32",
          "name": "result",
          "type": "bytes32"
        }
      ],
      "stateMutability": "pure",
      "type": "function"
    },
    {
      "inputs": [],
      "name": "totalAllocPoint",
      "outputs": [
        {
          "internalType": "uint256",
          "name": "",
          "type": "uint256"
        }
      ],
      "stateMutability": "view",
      "type": "function"
    },
    {
      "inputs": [
        {
          "internalType": "uint256",
          "name": "",
          "type": "uint256"
        }
      ],
      "name": "uintStorageCount",
      "outputs": [
        {
          "internalType": "uint256",
          "name": "",
          "type": "uint256"
        }
      ],
      "stateMutability": "view",
      "type": "function"
    },
    {
      "inputs": [
        {
          "internalType": "uint256[]",
          "name": "_boostMultipliers",
          "type": "uint256[]"
        },
        {
          "internalType": "uint256[]",
          "name": "_boostCosts",
          "type": "uint256[]"
        }
      ],
      "name": "updateBoosts",
      "outputs": [],
      "stateMutability": "nonpayable",
      "type": "function"
    },
    {
      "inputs": [
        {
          "internalType": "uint256",
          "name": "_poolId",
          "type": "uint256"
        },
        {
          "components": [
            {
              "internalType": "contract IERC20",
              "name": "token",
              "type": "address"
            },
            {
              "internalType": "uint256",
              "name": "allocPoint",
              "type": "uint256"
            },
            {
              "internalType": "uint256",
              "name": "accRAMPerShare",
              "type": "uint256"
            },
            {
              "internalType": "uint256",
              "name": "accYGYPerShare",
              "type": "uint256"
            },
            {
              "internalType": "bool",
              "name": "withdrawable",
              "type": "bool"
            },
            {
              "internalType": "uint256",
              "name": "effectiveAdditionalTokensFromBoosts",
              "type": "uint256"
            }
          ],
          "internalType": "struct YGYStorageV1.PoolInfo",
          "name": "_userInfo",
          "type": "tuple"
        }
      ],
      "name": "updatePoolInfo",
      "outputs": [],
      "stateMutability": "nonpayable",
      "type": "function"
    },
    {
      "inputs": [
        {
          "internalType": "uint256",
          "name": "allRewards",
          "type": "uint256"
        },
        {
          "internalType": "uint256",
          "name": "allYGYRewards",
          "type": "uint256"
        }
      ],
      "name": "updatePoolRewards",
      "outputs": [],
      "stateMutability": "nonpayable",
      "type": "function"
    },
    {
      "inputs": [
        {
          "internalType": "uint256",
          "name": "_poolId",
          "type": "uint256"
        },
        {
          "internalType": "address",
          "name": "_userAddress",
          "type": "address"
        },
        {
          "components": [
            {
              "internalType": "uint256",
              "name": "amount",
              "type": "uint256"
            },
            {
              "internalType": "uint256",
              "name": "rewardDebt",
              "type": "uint256"
            },
            {
              "internalType": "uint256",
              "name": "rewardDebtYGY",
              "type": "uint256"
            },
            {
              "internalType": "uint256",
              "name": "boostAmount",
              "type": "uint256"
            },
            {
              "internalType": "uint256",
              "name": "boostLevel",
              "type": "uint256"
            },
            {
              "internalType": "uint256",
              "name": "spentMultiplierTokens",
              "type": "uint256"
            }
          ],
          "internalType": "struct YGYStorageV1.UserInfo",
          "name": "_userInfo",
          "type": "tuple"
        }
      ],
      "name": "updateUserInfo",
      "outputs": [],
      "stateMutability": "nonpayable",
      "type": "function"
    },
    {
      "inputs": [
        {
          "internalType": "uint256",
          "name": "",
          "type": "uint256"
        },
        {
          "internalType": "address",
          "name": "",
          "type": "address"
        }
      ],
      "name": "userInfo",
      "outputs": [
        {
          "internalType": "uint256",
          "name": "amount",
          "type": "uint256"
        },
        {
          "internalType": "uint256",
          "name": "rewardDebt",
          "type": "uint256"
        },
        {
          "internalType": "uint256",
          "name": "rewardDebtYGY",
          "type": "uint256"
        },
        {
          "internalType": "uint256",
          "name": "boostAmount",
          "type": "uint256"
        },
        {
          "internalType": "uint256",
          "name": "boostLevel",
          "type": "uint256"
        },
        {
          "internalType": "uint256",
          "name": "spentMultiplierTokens",
          "type": "uint256"
        }
      ],
      "stateMutability": "view",
      "type": "function"
    },
    {
      "inputs": [],
      "name": "ygy",
      "outputs": [
        {
          "internalType": "contract IERC20",
          "name": "",
          "type": "address"
        }
      ],
      "stateMutability": "view",
      "type": "function"
    }
  ],
  "transactionHash": "0x91fdeb081329ff4ed8a5e6f9e2ded843c3c0f9355ace17e7c7c9da6cd6812934",
  "args": [],
  "solcInputHash": "ac7b371f6e191aaf3845c9283da8575b",
  "bytecode": "0x608060405234801561001057600080fd5b506134e0806100206000396000f3fe608060405234801561001057600080fd5b50600436106104ac5760003560e01c8063884817dc1161026d578063bd57954e11610151578063e0af3616116100ce578063eded3fda11610092578063eded3fda146109dd578063ee02ea1b146109e5578063f63e3d6c146109f8578063f7db38cb14610a00578063fa69669c14610a08578063fb70c3bf14610a10576104ac565b8063e0af361614610994578063e1c7392a1461099c578063e671fab5146109a4578063e941c856146109b7578063eaac6173146109ca576104ac565b8063cfb5192811610115578063cfb5192814610940578063d4665bb714610953578063d547741f14610966578063d662f4f614610979578063d6cf802114610981576104ac565b8063bd57954e146108f7578063c083143d1461090a578063c8ffb87314610912578063ca15c8731461091a578063cc40f6641461092d576104ac565b80639d18f773116101ea578063ad1414b2116101ae578063ad1414b21461089b578063b2f4b44a146108ae578063b3944d52146108c1578063b4afd978146108c9578063b81a0b4c146108dc578063bcb49086146108e4576104ac565b80639d18f773146108525780639dbc2d90146108655780639eec69051461086d578063a217fddf14610880578063a5f8ace814610888576104ac565b80639010d07c116102315780639010d07c146107df57806391328af2146107f257806391d148541461080557806393f1a40b146108255780639649d76c1461084a576104ac565b8063884817dc146107ac5780638b6ff57b146107b45780638f33b5e5146107bc5780638f838a9f146107c4578063900cf0cf146107d7576104ac565b80633d780dfc1161039457806360443a451161031157806370686e92116102d557806370686e92146107455780637575aa8a146107585780637828fec014610760578063795d79f5146107735780637abceffd146107865780638792a26514610799576104ac565b806360443a45146106f1578063608c8d3a146107045780636798f19f1461070c5780636a9d1f6f1461071f5780636b42ee5514610732576104ac565b80634a2ac43a116103585780634a2ac43a1461068e5780634dc47d34146106965780635105a975146106a95780635498d4c0146106bc57806358739fc8146106de576104ac565b80633d780dfc1461063a5780633ed55b7b1461064d578063423d6fa014610655578063469fcdcb1461066857806346ca6bea1461067b576104ac565b806319a5c13a1161042d5780632f4f8a7a116103f15780632f4f8a7a146105cf57806330ff3d97146105e457806331db122c1461060457806336568abe1461060c57806337d289321461061f5780633b24bd4a14610632576104ac565b806319a5c13a1461057b5780631dbf779e1461058e578063248a9ca3146105965780632f2ff15d146105a95780632f380b35146105bc576104ac565b80630a08f1d4116104745780630a08f1d41461051557806310178d9c146105285780631526fe271461053b578063158dd3931461056057806317caf6f114610573576104ac565b806303dec009146104b1578063045fda0e146104d05780630788733a146104da578063094601f1146104ed57806309e3de4114610500575b600080fd5b6104b9610a18565b6040516104c79291906133ea565b60405180910390f35b6104d8610a65565b005b6104d86104e8366004612e70565b610a8e565b6104d86104fb366004612d1b565b610b0c565b610508610b34565b6040516104c791906130fe565b610508610523366004612d1b565b610b3a565b6104b9610536366004612d33565b610c61565b61054e610549366004612d1b565b610d33565b6040516104c796959493929190613107565b61050861056e366004612e03565b610d86565b610508610da9565b6104d8610589366004612b6e565b610daf565b610508610e63565b6105086105a4366004612d1b565b610e69565b6104d86105b7366004612d33565b610e7e565b61054e6105ca366004612d1b565b610ecf565b6105d7610f6f565b6040516104c79190613090565b6105f76105f23660046129ff565b610f7e565b6040516104c791906130a4565b610508611011565b6104d861061a366004612d33565b611017565b6104d861062d366004612f31565b611059565b6105d761109d565b6104d8610648366004612a1b565b6110ac565b61050861111d565b6104d8610663366004612d1b565b611123565b610508610676366004612d1b565b6111eb565b6104d8610689366004613018565b6111fd565b6104d86112b6565b6105086106a4366004612d1b565b6112fb565b6104d86106b7366004612d62565b61130d565b6106cf6106ca366004612d62565b611354565b6040516104c79392919061314f565b6106cf6106ec366004612c59565b61147e565b6104d86106ff366004612e29565b611546565b61050861159b565b61050861071a366004612d1b565b6115a1565b61050861072d366004612d1b565b6115b3565b610508610740366004612d1b565b6115c5565b6104d8610753366004612c84565b6115e3565b61050861166b565b6104d861076e366004612f31565b61167d565b6105d7610781366004612d1b565b6116df565b6104d8610794366004612f55565b6116fa565b6104d86107a7366004612d33565b6118ea565b6104d8611966565b6105086119a5565b6105d76119ab565b6104d86107d2366004612d1b565b6119ba565b6105086119e2565b6105d76107ed366004612d62565b6119e8565b6105086108003660046129ff565b611a09565b610818610813366004612d33565b611b26565b6040516104c791906130f3565b610838610833366004612d33565b611b3e565b6040516104c7969594939291906133f8565b610508611b7e565b6105d7610860366004612d1b565b611b84565b6104b9611b9f565b6104b961087b366004612efa565b611bf0565b610508611c37565b6104d8610896366004612a65565b611c3c565b6105086108a93660046129ff565b611d66565b6104d86108bc366004612cba565b611d78565b610508611e17565b6104d86108d7366004612c59565b611e1d565b6105d7611e5c565b6105086108f2366004612d1b565b611e6b565b6104d8610905366004612d1b565b611e7d565b610508611ea5565b610508611eab565b610508610928366004612d1b565b611eb1565b61050861093b3660046129ff565b611ec8565b61050861094e366004612d83565b611eda565b6104d8610961366004612f8b565b611ef8565b6104d8610974366004612d33565b611f9f565b6104d8611fd9565b61050861098f366004612d1b565b612175565b6105d7612182565b6104d8612191565b6108186109b2366004612dbe565b612247565b6105086109c5366004612d1b565b61227b565b6104d86109d8366004612d62565b612288565b6105086122b6565b6105d76109f3366004612d83565b6122bc565b6104d86122e7565b6105d7612310565b6105d761231f565b6105d761232e565b600080610a3c610a3360a2544361233d90919063ffffffff16565b60a5549061237f565b610a5d610a5460a2544361233d90919063ffffffff16565b60a6549061237f565b915091509091565b610a7f60008051602061348b8339815191526108136123c1565b610a8857600080fd5b4360a255565b610aa860008051602061348b8339815191526108136123c1565b610ab157600080fd5b60009283526098602090815260408085206001600160a01b0390941685529281529282902081518155928101516001840155908101516002830155606081015160038301556080810151600483015560a00151600590910155565b610b2660008051602061348b8339815191526108136123c1565b610b2f57600080fd5b60a055565b60b05481565b600081815260b660209081526040808320546001600160a01b031680845260b78352818420805483518186028101860190945280845291936060939290869084015b82821015610c515760008481526020908190206040805160038602909201805460026001821615610100026000190190911604601f8101859004909402830160809081019092526060830184815292939092849290918491840182828015610c255780601f10610bfa57610100808354040283529160200191610c25565b820191906000526020600020905b815481529060010190602001808311610c0857829003601f168201915b505050505081526020016001820154815260200160028201548152505081526020019060010190610b7c565b505091519450505050505b919050565b6000806000609a8581548110610c7357fe5b600091825260208083208884526098825260408085206001600160a01b038a16865290925290832060038101548154600690940290920194509291610cb7916123c5565b905060008084600301541115610cfe57610cfb8360020154610cf564e8d4a51000610cef8860030154876123ea90919063ffffffff16565b9061237f565b9061233d565b90505b610d268360010154610cf564e8d4a51000610cef8860020154876123ea90919063ffffffff16565b9890975095505050505050565b609a8181548110610d4057fe5b60009182526020909120600690910201805460018201546002830154600384015460048501546005909501546001600160a01b0390941695509193909260ff9091169086565b609960209081526000938452604080852082529284528284209052825290205481565b609b5481565b610dc960008051602061348b8339815191526108136123c1565b610dd257600080fd5b60005b8151811015610e5e576001600160a01b038316600090815260b7602052604090208251839083908110610e0457fe5b602090810291909101810151825460018101845560009384529282902081518051929460030290910192610e3d92849290910190612825565b50602082015160018083019190915560409092015160029091015501610dd5565b505050565b609e5481565b60009081526065602052604090206002015490565b600082815260656020526040902060020154610e9c906108136123c1565b610ec15760405162461bcd60e51b8152600401610eb8906131e1565b60405180910390fd5b610ecb8282612424565b5050565b600080600080600080610ee06128a3565b609a8881548110610eed57fe5b60009182526020918290206040805160c08101825260069390930290910180546001600160a01b031680845260018201549484018590526002820154928401839052600382015460608501819052600483015460ff1615156080860181905260059093015460a0909501859052909d949c50919a509098509650945092505050565b60aa546001600160a01b031681565b60a75460009081526097602090815260408083206001600160a01b03851684528252808320805482518185028101850190935280835260609492939192909184015b8282101561100657838290600052602060002090600202016040518060400160405290816000820154815260200160018201548152505081526020019060010190610fc0565b505050509050919050565b60a15481565b61101f6123c1565b6001600160a01b0316816001600160a01b03161461104f5760405162461bcd60e51b8152600401610eb89061339b565b610ecb828261248d565b61107360008051602061348b8339815191526108136123c1565b61107c57600080fd5b80156110975760b05461108f90836123c5565b60b055610ecb565b5060b055565b60ac546001600160a01b031681565b6110b960006108136123c1565b6110d55760405162461bcd60e51b8152600401610eb8906132b7565b6110ed60008051602061348b83398151915284610ec1565b61110560008051602061348b83398151915283610ec1565b610e5e60008051602061348b83398151915282610ec1565b60a25481565b61113d60008051602061348b8339815191526108136123c1565b6111595760405162461bcd60e51b8152600401610eb8906131b6565b609c5461116690826123c5565b609c5560a55461117690826123c5565b60a555609e548110156111b857609d5461119090826123c5565b609d5560a6546111a090826123c5565b60a655609e546111b0908261233d565b609e556111e8565b609e54156111e85760a6546111cd90826123c5565b60a655609e54609d546111df916123c5565b609d556000609e555b50565b60b16020526000908152604090205481565b61121760008051602061348b8339815191526108136123c1565b61122057600080fd5b61125d82611257609a868154811061123457fe5b906000526020600020906006020160010154609b5461233d90919063ffffffff16565b906123c5565b5081609a848154811061126c57fe5b90600052602060002090600602016001018190555080609a848154811061128f57fe5b60009182526020909120600690910201600401805460ff1916911515919091179055505050565b6112d060008051602061348b8339815191526108136123c1565b6112d957600080fd5b60a55460a78054600090815260b3602052604090209190915580546001019055565b60b36020526000908152604090205481565b61132760008051602061348b8339815191526108136123c1565b61133057600080fd5b609c5461133d908361233d565b609c55609d5461134d908261233d565b609d555050565b600082815260b660205260408120546060919081906001600160a01b031661137a6128e4565b6001600160a01b038216600090815260b76020526040902080548790811061139e57fe5b600091825260209182902060408051600393909302909101805460026001821615610100026000190190911604601f81018590049094028301608090810190925260608301848152929390928492909184918401828280156114415780601f1061141657610100808354040283529160200191611441565b820191906000526020600020905b81548152906001019060200180831161142457829003601f168201915b5050505050815260200160018201548152602001600282015481525050905080600001518160200151826040015194509450945050509250925092565b60b7602052816000526040600020818154811061149757fe5b60009182526020918290206003919091020180546040805160026001841615610100026000190190931692909204601f8101859004850283018501909152808252919450925083918301828280156115305780601f1061150557610100808354040283529160200191611530565b820191906000526020600020905b81548152906001019060200180831161151357829003601f168201915b5050505050908060010154908060020154905083565b61156060008051602061348b8339815191526108136123c1565b61156957600080fd5b60009384526099602090815260408086206001600160a01b039586168752825280862093909416855291909152912055565b60a55481565b600090815260b2602052604090205490565b600090815260b1602052604090205490565b60bb81815481106115d257fe5b600091825260209091200154905081565b6115fd60008051602061348b8339815191526108136123c1565b61160657600080fd5b801561162a576001600160a01b038316600090815260b56020526040812055610e5e565b6001600160a01b038316600090815260b5602052604090205461164d90836123c5565b6001600160a01b038416600090815260b56020526040902055505050565b60008051602061348b83398151915281565b61169760008051602061348b8339815191526108136123c1565b6116a057600080fd5b80156116bb57609e546116b390836123c5565b609e55610ecb565b609c546116c890836123c5565b609c5560a5546116d890836123c5565b60a5555050565b60b6602052600090815260409020546001600160a01b031681565b61171460008051602061348b8339815191526108136123c1565b61171d57600080fd5b60005b609a5481101561178157826001600160a01b0316609a828154811061174157fe5b60009182526020909120600690910201546001600160a01b031614156117795760405162461bcd60e51b8152600401610eb890613364565b600101611720565b50609b5461178f90846123c5565b609b556040805160c0810182526001600160a01b039384168152602081019485526000918101828152606082018381529315156080830190815260a08301848152609a8054600181018255955292517f44da158ba27f9252712a74ff6a55c5d531f69609f1f6e7f17c4443a8e2089be4600690950294850180546001600160a01b031916919097161790955594517f44da158ba27f9252712a74ff6a55c5d531f69609f1f6e7f17c4443a8e2089be583015593517f44da158ba27f9252712a74ff6a55c5d531f69609f1f6e7f17c4443a8e2089be682015590517f44da158ba27f9252712a74ff6a55c5d531f69609f1f6e7f17c4443a8e2089be782015590517f44da158ba27f9252712a74ff6a55c5d531f69609f1f6e7f17c4443a8e2089be88201805460ff191691151591909117905590517f44da158ba27f9252712a74ff6a55c5d531f69609f1f6e7f17c4443a8e2089be990910155565b61190460008051602061348b8339815191526108136123c1565b61190d57600080fd5b60a75460008181526097602090815260408083206001600160a01b039095168352938152838220845180860190955294845283810192835284546001818101875595835291209251600290910290920191825551910155565b61198060008051602061348b8339815191526108136123c1565b61198957600080fd5b60a55460a3540160a38190555060a65460a4540160a481905550565b609d5481565b60a8546001600160a01b031681565b6119d460008051602061348b8339815191526108136123c1565b6119dd57600080fd5b609f55565b60a75481565b6000828152606560205260408120611a0090836124f6565b90505b92915050565b60a75460009081526097602090815260408083206001600160a01b0385168452825280832080548251818502810185019093528083528493606093929190859084015b82821015611a9257838290600052602060002090600202016040518060400160405290816000820154815260200160018201548152505081526020019060010190611a4c565b50505050905060005b8151811015611b1d57818181518110611ab057fe5b60200260200101516020015160a7541415611b1557818181518110611ad157fe5b60200260200101516000015160051480611b025750818181518110611af257fe5b6020026020010151600001516006145b15611b1557611b1283600a6123c5565b92505b600101611a9b565b50909392505050565b6000828152606560205260408120611a009083612502565b6098602090815260009283526040808420909152908252902080546001820154600283015460038401546004850154600590950154939492939192909186565b60a45481565b600090815260b660205260409020546001600160a01b031690565b600080611bc9611bba60a1544361233d90919063ffffffff16565b60a55460a354610cef916123c5565b610a5d611be160a1544361233d90919063ffffffff16565b60a65460a454610cef916123c5565b60976020528260005260406000206020528160005260406000208181548110611c1557fe5b6000918252602090912060029091020180546001909101549093509150839050565b600081565b611c5660008051602061348b8339815191526108136123c1565b80611c695750611c6960006108136123c1565b611c855760405162461bcd60e51b8152600401610eb8906131b6565b60a880546001600160a01b03199081166001600160a01b038a811691821790935560a9805483168a851690811790915560ad8054841690921790915560ab80548316909117905560ae8054821688841617905560aa8054821687841617905560ac8054821686841617905560af805490911691831691909117905560005b8251811015611d5c57828181518110611d1857fe5b602090810291909101810151600192909201600081815260b6909252604090912080546001600160a01b0319166001600160a01b0390931692909217909155611d03565b5050505050505050565b60b56020526000908152604090205481565b611d9260008051602061348b8339815191526108136123c1565b611d9b57600080fd5b60005b82518160ff1611610e5e57818160ff1681518110611db857fe5b602002602001015160b160008360010160ff16815260200190815260200160002081905550828160ff1681518110611dec57fe5b60209081029190910181015160ff6001909301928316600090815260b2909252604090912055611d9e565b609a5490565b611e3760008051602061348b8339815191526108136123c1565b611e4057600080fd5b6001600160a01b03909116600090815260b46020526040902055565b60af546001600160a01b031681565b60b26020526000908152604090205481565b611e9760008051602061348b8339815191526108136123c1565b611ea057600080fd5b609e55565b60a65481565b60a35481565b6000818152606560205260408120611a0390612517565b60b46020526000908152604090205481565b80516000908290611eef575060009050610c5c565b50506020015190565b611f1260008051602061348b8339815191526108136123c1565b611f1b57600080fd5b80609a8381548110611f2957fe5b600091825260209182902083516006929092020180546001600160a01b0319166001600160a01b039092169190911781559082015160018201556040820151600282015560608201516003820155608082015160048201805460ff191691151591909117905560a0909101516005909101555050565b600082815260656020526040902060020154611fbd906108136123c1565b61104f5760405162461bcd60e51b8152600401610eb890613267565b611ff360008051602061348b8339815191526108136123c1565b80612006575061200660006108136123c1565b6120225760405162461bcd60e51b8152600401610eb8906131b6565b4360a181905560a255674563918244f400007fd7e297a316c321c40332cfb8dc1701afefe5c7db49edec748122ee7e43d355c45567d02ab486cedc00007f7ae7ad9a4c32d2f3e019743ac18a175616ca69d351bbf6528cf9a64ce6017f72556801a055690d9db800007f8ad2446af2a0369fe8964797f78858d5dc0e301ab1acc8cdf1f7252f94e5c06155680340aad21b3b7000007f8a66bef5dd30a7468a9bb314b1a60dbb73161e7e2f190bd4e69027c3498b6fa55560b260205260057f35d6d33b61caf953b1fdec6585886a368c8408847ef2328e57c387b832e7638d55600f7facb2347081d7997cfc6409475bb0dc1248fbd4ae52d2d43dc7563e298a326f1155601e7f75df2f5fe83649f2dabee4aef8800c1d8c6ee6fabd8a1a8d612526edd7b583e0556004600052603c7fe351558a8d68b5ec5c950f5a6687fc404112b1ef91312218d2cfb1c85ad4275655565b60b981815481106115d257fe5b60ae546001600160a01b031681565b600054610100900460ff16806121aa57506121aa612522565b806121b8575060005460ff16155b6121d45760405162461bcd60e51b8152600401610eb890613316565b600054610100900460ff161580156121ff576000805460ff1961ff0019909116610100171660011790555b612207612528565b61221960006122146123c1565b610ec1565b61223360008051602061348b8339815191526122146123c1565b80156111e8576000805461ff001916905550565b60008061225384611eda565b600090815260b86020908152604082206001600160a01b039095169091529290925292915050565b60bd81815481106115d257fe5b6122a260008051602061348b8339815191526108136123c1565b6122ab57600080fd5b60a59190915560a655565b609c5481565b6000806122c883611eda565b600090815260ba60205260409020546001600160a01b03169392505050565b61230160008051602061348b8339815191526108136123c1565b61230a57600080fd5b4360a155565b60ab546001600160a01b031681565b60ad546001600160a01b031681565b60a9546001600160a01b031681565b6000611a0083836040518060400160405280601e81526020017f536166654d6174683a207375627472616374696f6e206f766572666c6f7700008152506125a6565b6000611a0083836040518060400160405280601a81526020017f536166654d6174683a206469766973696f6e206279207a65726f0000000000008152506125d2565b3390565b600082820183811015611a005760405162461bcd60e51b8152600401610eb890613230565b6000826123f957506000611a03565b8282028284828161240657fe5b0414611a005760405162461bcd60e51b8152600401610eb8906132d5565b600082815260656020526040902061243c9082612609565b15610ecb576124496123c1565b6001600160a01b0316816001600160a01b0316837f2f8788117e7eff1d82e926ec794901d17c78024a50270940304540a733656f0d60405160405180910390a45050565b60008281526065602052604090206124a5908261261e565b15610ecb576124b26123c1565b6001600160a01b0316816001600160a01b0316837ff6391f5c32d9c69d2a47ea670b442974b53935d1edc7fd64eb21e047a839171b60405160405180910390a45050565b6000611a008383612633565b6000611a00836001600160a01b038416612678565b6000611a0382612690565b303b1590565b600054610100900460ff16806125415750612541612522565b8061254f575060005460ff16155b61256b5760405162461bcd60e51b8152600401610eb890613316565b600054610100900460ff16158015612596576000805460ff1961ff0019909116610100171660011790555b61259e612694565b612233612694565b600081848411156125ca5760405162461bcd60e51b8152600401610eb8919061313c565b505050900390565b600081836125f35760405162461bcd60e51b8152600401610eb8919061313c565b5060008385816125ff57fe5b0495945050505050565b6000611a00836001600160a01b038416612715565b6000611a00836001600160a01b03841661275f565b815460009082106126565760405162461bcd60e51b8152600401610eb890613174565b82600001828154811061266557fe5b9060005260206000200154905092915050565b60009081526001919091016020526040902054151590565b5490565b600054610100900460ff16806126ad57506126ad612522565b806126bb575060005460ff16155b6126d75760405162461bcd60e51b8152600401610eb890613316565b600054610100900460ff16158015612233576000805460ff1961ff00199091166101001716600117905580156111e8576000805461ff001916905550565b60006127218383612678565b61275757508154600181810184556000848152602080822090930184905584548482528286019093526040902091909155611a03565b506000611a03565b6000818152600183016020526040812054801561281b578354600019808301919081019060009087908390811061279257fe5b90600052602060002001549050808760000184815481106127af57fe5b6000918252602080832090910192909255828152600189810190925260409020908401905586548790806127df57fe5b60019003818190600052602060002001600090559055866001016000878152602001908152602001600020600090556001945050505050611a03565b6000915050611a03565b828054600181600116156101000203166002900490600052602060002090601f016020900481019282601f1061286657805160ff1916838001178555612893565b82800160010185558215612893579182015b82811115612893578251825591602001919060010190612878565b5061289f929150612908565b5090565b6040518060c0016040528060006001600160a01b03168152602001600081526020016000815260200160008152602001600015158152602001600081525090565b60405180606001604052806060815260200160008152602001600080191681525090565b5b8082111561289f5760008155600101612909565b8035611a0381613467565b600082601f830112612938578081fd5b813561294b61294682613447565b613420565b81815291506020808301908481018184028601820187101561296c57600080fd5b60005b8481101561298b5781358452928201929082019060010161296f565b505050505092915050565b600082601f8301126129a6578081fd5b813567ffffffffffffffff8111156129bc578182fd5b6129cf601f8201601f1916602001613420565b91508082528360208285010111156129e657600080fd5b8060208401602084013760009082016020015292915050565b600060208284031215612a10578081fd5b8135611a0081613467565b600080600060608486031215612a2f578182fd5b8335612a3a81613467565b92506020840135612a4a81613467565b91506040840135612a5a81613467565b809150509250925092565b600080600080600080600060e0888a031215612a7f578283fd5b8735612a8a81613467565b9650602088810135612a9b81613467565b96506040890135612aab81613467565b95506060890135612abb81613467565b94506080890135612acb81613467565b935060a089013567ffffffffffffffff811115612ae6578384fd5b8901601f81018b13612af6578384fd5b8035612b0461294682613447565b81815283810190838501858402850186018f1015612b20578788fd5b8794505b83851015612b4a57612b368f8261291d565b835260019490940193918501918501612b24565b508096505050505050612b608960c08a0161291d565b905092959891949750929550565b60008060408385031215612b80578182fd5b8235612b8b81613467565b915060208381013567ffffffffffffffff80821115612ba8578384fd5b818601915086601f830112612bbb578384fd5b8135612bc961294682613447565b81815284810190848601875b84811015612c4857813587016060818e03601f19011215612bf457898afd5b612bfe6060613420565b8982013588811115612c0e578b8cfd5b612c1c8f8c83860101612996565b8252506040828101358b8301526060909201359181019190915284529287019290870190600101612bd5565b50979a909950975050505050505050565b60008060408385031215612c6b578182fd5b8235612c7681613467565b946020939093013593505050565b600080600060608486031215612c98578283fd5b8335612ca381613467565b9250602084013591506040840135612a5a8161347c565b60008060408385031215612ccc578182fd5b823567ffffffffffffffff80821115612ce3578384fd5b612cef86838701612928565b93506020850135915080821115612d04578283fd5b50612d1185828601612928565b9150509250929050565b600060208284031215612d2c578081fd5b5035919050565b60008060408385031215612d45578182fd5b823591506020830135612d5781613467565b809150509250929050565b60008060408385031215612d74578182fd5b50508035926020909101359150565b600060208284031215612d94578081fd5b813567ffffffffffffffff811115612daa578182fd5b612db684828501612996565b949350505050565b60008060408385031215612dd0578182fd5b823567ffffffffffffffff811115612de6578283fd5b612df285828601612996565b9250506020830135612d5781613467565b600080600060608486031215612e17578081fd5b833592506020840135612a4a81613467565b60008060008060808587031215612e3e578182fd5b843593506020850135612e5081613467565b92506040850135612e6081613467565b9396929550929360600135925050565b6000806000838503610100811215612e86578182fd5b843593506020850135612e9881613467565b925060c0603f1982011215612eab578182fd5b50612eb660c0613420565b60408501358152606085013560208201526080850135604082015260a0850135606082015260c0850135608082015260e085013560a0820152809150509250925092565b600080600060608486031215612f0e578081fd5b833592506020840135612f2081613467565b929592945050506040919091013590565b60008060408385031215612f43578182fd5b823591506020830135612d578161347c565b600080600060608486031215612f69578081fd5b833592506020840135612f7b81613467565b91506040840135612a5a8161347c565b60008082840360e0811215612f9e578283fd5b8335925060c0601f1982011215612fb3578182fd5b50612fbe60c0613420565b6020840135612fcc81613467565b8082525060408401356020820152606084013560408201526080840135606082015260a08401358015158114613000578283fd5b608082015260c0939093013560a08401525092909150565b60008060006060848603121561302c578081fd5b83359250602084013591506040840135612a5a8161347c565b60008151808452815b8181101561306a5760208185018101518683018201520161304e565b8181111561307b5782602083870101525b50601f01601f19169290920160200192915050565b6001600160a01b0391909116815260200190565b602080825282518282018190526000919060409081850190868401855b828110156130e6578151805185528601518685015292840192908501906001016130c1565b5091979650505050505050565b901515815260200190565b90815260200190565b6001600160a01b039690961686526020860194909452604085019290925260608401521515608083015260a082015260c00190565b600060208252611a006020830184613045565b6000606082526131626060830186613045565b60208301949094525060400152919050565b60208082526022908201527f456e756d657261626c655365743a20696e646578206f7574206f6620626f756e604082015261647360f01b606082015260800190565b602080825260119082015270283937b434b134ba32b21031b0b63632b960791b604082015260600190565b6020808252602f908201527f416363657373436f6e74726f6c3a2073656e646572206d75737420626520616e60408201526e0818591b5a5b881d1bc819dc985b9d608a1b606082015260800190565b6020808252601b908201527f536166654d6174683a206164646974696f6e206f766572666c6f770000000000604082015260600190565b60208082526030908201527f416363657373436f6e74726f6c3a2073656e646572206d75737420626520616e60408201526f2061646d696e20746f207265766f6b6560801b606082015260800190565b6020808252600490820152634e6f6e6f60e01b604082015260600190565b60208082526021908201527f536166654d6174683a206d756c7469706c69636174696f6e206f766572666c6f6040820152607760f81b606082015260800190565b6020808252602e908201527f436f6e747261637420696e7374616e63652068617320616c726561647920626560408201526d195b881a5b9a5d1a585b1a5e995960921b606082015260800190565b60208082526018908201527f4572726f7220706f6f6c20616c72656164792061646465640000000000000000604082015260600190565b6020808252602f908201527f416363657373436f6e74726f6c3a2063616e206f6e6c792072656e6f756e636560408201526e103937b632b9903337b91039b2b63360891b606082015260800190565b918252602082015260400190565b958652602086019490945260408501929092526060840152608083015260a082015260c00190565b60405181810167ffffffffffffffff8111828210171561343f57600080fd5b604052919050565b600067ffffffffffffffff82111561345d578081fd5b5060209081020190565b6001600160a01b03811681146111e857600080fd5b80151581146111e857600080fdfe62ca43aa15f7f495faa685ce5a258aa390fdc8d7094251dd23d32353f496ddfea26469706673582212203fc99806f682d88a1e1d61ccd7a2a484e00e715b3c68bc85d9182d81943bee5264736f6c634300060c0033",
  "devdoc": {
    "kind": "dev",
    "methods": {
      "getRoleAdmin(bytes32)": {
        "details": "Returns the admin role that controls `role`. See {grantRole} and {revokeRole}. To change a role's admin, use {_setRoleAdmin}."
      },
      "getRoleMember(bytes32,uint256)": {
        "details": "Returns one of the accounts that have `role`. `index` must be a value between 0 and {getRoleMemberCount}, non-inclusive. Role bearers are not sorted in any particular way, and their ordering may change at any point. WARNING: When using {getRoleMember} and {getRoleMemberCount}, make sure you perform all queries on the same block. See the following https://forum.openzeppelin.com/t/iterating-over-elements-on-enumerableset-in-openzeppelin-contracts/2296[forum post] for more information."
      },
      "getRoleMemberCount(bytes32)": {
        "details": "Returns the number of accounts that have `role`. Can be used together with {getRoleMember} to enumerate all bearers of a role."
      },
      "grantRole(bytes32,address)": {
        "details": "Grants `role` to `account`. If `account` had not been already granted `role`, emits a {RoleGranted} event. Requirements: - the caller must have ``role``'s admin role."
      },
      "hasRole(bytes32,address)": {
        "details": "Returns `true` if `account` has been granted `role`."
      },
      "renounceRole(bytes32,address)": {
        "details": "Revokes `role` from the calling account. Roles are often managed via {grantRole} and {revokeRole}: this function's purpose is to provide a mechanism for accounts to lose their privileges if they are compromised (such as when a trusted device is misplaced). If the calling account had been granted `role`, emits a {RoleRevoked} event. Requirements: - the caller must be `account`."
      },
      "revokeRole(bytes32,address)": {
        "details": "Revokes `role` from `account`. If `account` had been granted `role`, emits a {RoleRevoked} event. Requirements: - the caller must have ``role``'s admin role."
      }
    },
    "version": 1
  },
  "userdoc": {
    "kind": "user",
    "methods": {},
    "version": 1
  },
  "storageLayout": {
    "storage": [
      {
        "astId": 195,
        "contract": "contracts/YGYStorageV1.sol:YGYStorageV1",
        "label": "initialized",
        "offset": 0,
        "slot": "0",
        "type": "t_bool"
      },
      {
        "astId": 198,
        "contract": "contracts/YGYStorageV1.sol:YGYStorageV1",
        "label": "initializing",
        "offset": 1,
        "slot": "0",
        "type": "t_bool"
      },
      {
        "astId": 263,
        "contract": "contracts/YGYStorageV1.sol:YGYStorageV1",
        "label": "______gap",
        "offset": 0,
        "slot": "1",
        "type": "t_array(t_uint256)50_storage"
      },
      {
        "astId": 188,
        "contract": "contracts/YGYStorageV1.sol:YGYStorageV1",
        "label": "__gap",
        "offset": 0,
        "slot": "51",
        "type": "t_array(t_uint256)50_storage"
      },
      {
        "astId": 308,
        "contract": "contracts/YGYStorageV1.sol:YGYStorageV1",
        "label": "_roles",
        "offset": 0,
        "slot": "101",
        "type": "t_mapping(t_bytes32,t_struct(RoleData)304_storage)"
      },
      {
        "astId": 553,
        "contract": "contracts/YGYStorageV1.sol:YGYStorageV1",
        "label": "__gap",
        "offset": 0,
        "slot": "102",
        "type": "t_array(t_uint256)49_storage"
      },
      {
        "astId": 14394,
        "contract": "contracts/YGYStorageV1.sol:YGYStorageV1",
        "label": "NFTUsageInfo",
        "offset": 0,
        "slot": "151",
        "type": "t_mapping(t_uint256,t_mapping(t_address,t_array(t_struct(NFTUsage)14387_storage)dyn_storage))"
      },
      {
        "astId": 14508,
        "contract": "contracts/YGYStorageV1.sol:YGYStorageV1",
        "label": "userInfo",
        "offset": 0,
        "slot": "152",
        "type": "t_mapping(t_uint256,t_mapping(t_address,t_struct(UserInfo)14382_storage))"
      },
      {
        "astId": 14542,
        "contract": "contracts/YGYStorageV1.sol:YGYStorageV1",
        "label": "poolAllowance",
        "offset": 0,
        "slot": "153",
        "type": "t_mapping(t_uint256,t_mapping(t_address,t_mapping(t_address,t_uint256)))"
      },
      {
        "astId": 14588,
        "contract": "contracts/YGYStorageV1.sol:YGYStorageV1",
        "label": "poolInfo",
        "offset": 0,
        "slot": "154",
        "type": "t_array(t_struct(PoolInfo)14585_storage)dyn_storage"
      },
      {
        "astId": 14914,
        "contract": "contracts/YGYStorageV1.sol:YGYStorageV1",
        "label": "totalAllocPoint",
        "offset": 0,
        "slot": "155",
        "type": "t_uint256"
      },
      {
        "astId": 14916,
        "contract": "contracts/YGYStorageV1.sol:YGYStorageV1",
        "label": "pendingRewards",
        "offset": 0,
        "slot": "156",
        "type": "t_uint256"
      },
      {
        "astId": 14918,
        "contract": "contracts/YGYStorageV1.sol:YGYStorageV1",
        "label": "pendingYGYRewards",
        "offset": 0,
        "slot": "157",
        "type": "t_uint256"
      },
      {
        "astId": 14920,
        "contract": "contracts/YGYStorageV1.sol:YGYStorageV1",
        "label": "YGYReserve",
        "offset": 0,
        "slot": "158",
        "type": "t_uint256"
      },
      {
        "astId": 14940,
        "contract": "contracts/YGYStorageV1.sol:YGYStorageV1",
        "label": "ramBalance",
        "offset": 0,
        "slot": "159",
        "type": "t_uint256"
      },
      {
        "astId": 14960,
        "contract": "contracts/YGYStorageV1.sol:YGYStorageV1",
        "label": "ygyBalance",
        "offset": 0,
        "slot": "160",
        "type": "t_uint256"
      },
      {
        "astId": 14980,
        "contract": "contracts/YGYStorageV1.sol:YGYStorageV1",
        "label": "RAMVaultStartBlock",
        "offset": 0,
        "slot": "161",
        "type": "t_uint256"
      },
      {
        "astId": 14999,
        "contract": "contracts/YGYStorageV1.sol:YGYStorageV1",
        "label": "epochStartBlock",
        "offset": 0,
        "slot": "162",
        "type": "t_uint256"
      },
      {
        "astId": 15018,
        "contract": "contracts/YGYStorageV1.sol:YGYStorageV1",
        "label": "cumulativeRewardsSinceStart",
        "offset": 0,
        "slot": "163",
        "type": "t_uint256"
      },
      {
        "astId": 15020,
        "contract": "contracts/YGYStorageV1.sol:YGYStorageV1",
        "label": "cumulativeYGYRewardsSinceStart",
        "offset": 0,
        "slot": "164",
        "type": "t_uint256"
      },
      {
        "astId": 15046,
        "contract": "contracts/YGYStorageV1.sol:YGYStorageV1",
        "label": "rewardsInThisEpoch",
        "offset": 0,
        "slot": "165",
        "type": "t_uint256"
      },
      {
        "astId": 15048,
        "contract": "contracts/YGYStorageV1.sol:YGYStorageV1",
        "label": "YGYRewardsInThisEpoch",
        "offset": 0,
        "slot": "166",
        "type": "t_uint256"
      },
      {
        "astId": 15074,
        "contract": "contracts/YGYStorageV1.sol:YGYStorageV1",
        "label": "epoch",
        "offset": 0,
        "slot": "167",
        "type": "t_uint256"
      },
      {
        "astId": 15076,
        "contract": "contracts/YGYStorageV1.sol:YGYStorageV1",
        "label": "ram",
        "offset": 0,
        "slot": "168",
        "type": "t_contract(INBUNIERC20)16111"
      },
      {
        "astId": 15078,
        "contract": "contracts/YGYStorageV1.sol:YGYStorageV1",
        "label": "ygy",
        "offset": 0,
        "slot": "169",
        "type": "t_contract(IERC20)1045"
      },
      {
        "astId": 15080,
        "contract": "contracts/YGYStorageV1.sol:YGYStorageV1",
        "label": "_YGYRAMPair",
        "offset": 0,
        "slot": "170",
        "type": "t_address"
      },
      {
        "astId": 15082,
        "contract": "contracts/YGYStorageV1.sol:YGYStorageV1",
        "label": "_YGYToken",
        "offset": 0,
        "slot": "171",
        "type": "t_address"
      },
      {
        "astId": 15084,
        "contract": "contracts/YGYStorageV1.sol:YGYStorageV1",
        "label": "_YGYWETHPair",
        "offset": 0,
        "slot": "172",
        "type": "t_address"
      },
      {
        "astId": 15086,
        "contract": "contracts/YGYStorageV1.sol:YGYStorageV1",
        "label": "_RAMToken",
        "offset": 0,
        "slot": "173",
        "type": "t_address"
      },
      {
        "astId": 15088,
        "contract": "contracts/YGYStorageV1.sol:YGYStorageV1",
        "label": "_WETH",
        "offset": 0,
        "slot": "174",
        "type": "t_contract(IWETH)23510"
      },
      {
        "astId": 15090,
        "contract": "contracts/YGYStorageV1.sol:YGYStorageV1",
        "label": "_dXIOTToken",
        "offset": 0,
        "slot": "175",
        "type": "t_contract(IERC20)1045"
      },
      {
        "astId": 15274,
        "contract": "contracts/YGYStorageV1.sol:YGYStorageV1",
        "label": "boostFees",
        "offset": 0,
        "slot": "176",
        "type": "t_uint256"
      },
      {
        "astId": 15309,
        "contract": "contracts/YGYStorageV1.sol:YGYStorageV1",
        "label": "boostLevelCosts",
        "offset": 0,
        "slot": "177",
        "type": "t_mapping(t_uint256,t_uint256)"
      },
      {
        "astId": 15399,
        "contract": "contracts/YGYStorageV1.sol:YGYStorageV1",
        "label": "boostLevelMultipliers",
        "offset": 0,
        "slot": "178",
        "type": "t_mapping(t_uint256,t_uint256)"
      },
      {
        "astId": 15465,
        "contract": "contracts/YGYStorageV1.sol:YGYStorageV1",
        "label": "epochRewards",
        "offset": 0,
        "slot": "179",
        "type": "t_mapping(t_uint256,t_uint256)"
      },
      {
        "astId": 15548,
        "contract": "contracts/YGYStorageV1.sol:YGYStorageV1",
        "label": "lastTicketLevel",
        "offset": 0,
        "slot": "180",
        "type": "t_mapping(t_address,t_uint256)"
      },
      {
        "astId": 15574,
        "contract": "contracts/YGYStorageV1.sol:YGYStorageV1",
        "label": "liquidityContributedEthValue",
        "offset": 0,
        "slot": "181",
        "type": "t_mapping(t_address,t_uint256)"
      },
      {
        "astId": 15616,
        "contract": "contracts/YGYStorageV1.sol:YGYStorageV1",
        "label": "_NFTs",
        "offset": 0,
        "slot": "182",
        "type": "t_mapping(t_uint256,t_address)"
      },
      {
        "astId": 15628,
        "contract": "contracts/YGYStorageV1.sol:YGYStorageV1",
        "label": "nftPropertyChoices",
        "offset": 0,
        "slot": "183",
        "type": "t_mapping(t_address,t_array(t_struct(NFTProperty)15623_storage)dyn_storage)"
      },
      {
        "astId": 15745,
        "contract": "contracts/YGYStorageV1.sol:YGYStorageV1",
        "label": "booleanMapStorage",
        "offset": 0,
        "slot": "184",
        "type": "t_mapping(t_bytes32,t_mapping(t_address,t_bool))"
      },
      {
        "astId": 15748,
        "contract": "contracts/YGYStorageV1.sol:YGYStorageV1",
        "label": "booleanMapStorageCount",
        "offset": 0,
        "slot": "185",
        "type": "t_array(t_uint256)dyn_storage"
      },
      {
        "astId": 15774,
        "contract": "contracts/YGYStorageV1.sol:YGYStorageV1",
        "label": "addressStorage",
        "offset": 0,
        "slot": "186",
        "type": "t_mapping(t_bytes32,t_address)"
      },
      {
        "astId": 15777,
        "contract": "contracts/YGYStorageV1.sol:YGYStorageV1",
        "label": "addressStorageCount",
        "offset": 0,
        "slot": "187",
        "type": "t_array(t_uint256)dyn_storage"
      },
      {
        "astId": 15799,
        "contract": "contracts/YGYStorageV1.sol:YGYStorageV1",
        "label": "uintStorage",
        "offset": 0,
        "slot": "188",
        "type": "t_mapping(t_bytes32,t_uint256)"
      },
      {
        "astId": 15802,
        "contract": "contracts/YGYStorageV1.sol:YGYStorageV1",
        "label": "uintStorageCount",
        "offset": 0,
        "slot": "189",
        "type": "t_array(t_uint256)dyn_storage"
      }
    ],
    "types": {
      "t_address": {
        "encoding": "inplace",
        "label": "address",
        "numberOfBytes": "20"
      },
      "t_array(t_bytes32)dyn_storage": {
        "base": "t_bytes32",
        "encoding": "dynamic_array",
        "label": "bytes32[]",
        "numberOfBytes": "32"
      },
      "t_array(t_struct(NFTProperty)15623_storage)dyn_storage": {
        "base": "t_struct(NFTProperty)15623_storage",
        "encoding": "dynamic_array",
        "label": "struct YGYStorageV1.NFTProperty[]",
        "numberOfBytes": "32"
      },
      "t_array(t_struct(NFTUsage)14387_storage)dyn_storage": {
        "base": "t_struct(NFTUsage)14387_storage",
        "encoding": "dynamic_array",
        "label": "struct YGYStorageV1.NFTUsage[]",
        "numberOfBytes": "32"
      },
      "t_array(t_struct(PoolInfo)14585_storage)dyn_storage": {
        "base": "t_struct(PoolInfo)14585_storage",
        "encoding": "dynamic_array",
        "label": "struct YGYStorageV1.PoolInfo[]",
        "numberOfBytes": "32"
      },
      "t_array(t_uint256)49_storage": {
        "base": "t_uint256",
        "encoding": "inplace",
        "label": "uint256[49]",
        "numberOfBytes": "1568"
      },
      "t_array(t_uint256)50_storage": {
        "base": "t_uint256",
        "encoding": "inplace",
        "label": "uint256[50]",
        "numberOfBytes": "1600"
      },
      "t_array(t_uint256)dyn_storage": {
        "base": "t_uint256",
        "encoding": "dynamic_array",
        "label": "uint256[]",
        "numberOfBytes": "32"
      },
      "t_bool": {
        "encoding": "inplace",
        "label": "bool",
        "numberOfBytes": "1"
      },
      "t_bytes32": {
        "encoding": "inplace",
        "label": "bytes32",
        "numberOfBytes": "32"
      },
      "t_contract(IERC20)1045": {
        "encoding": "inplace",
        "label": "contract IERC20",
        "numberOfBytes": "20"
      },
      "t_contract(INBUNIERC20)16111": {
        "encoding": "inplace",
        "label": "contract INBUNIERC20",
        "numberOfBytes": "20"
      },
      "t_contract(IWETH)23510": {
        "encoding": "inplace",
        "label": "contract IWETH",
        "numberOfBytes": "20"
      },
      "t_mapping(t_address,t_array(t_struct(NFTProperty)15623_storage)dyn_storage)": {
        "encoding": "mapping",
        "key": "t_address",
        "label": "mapping(address => struct YGYStorageV1.NFTProperty[])",
        "numberOfBytes": "32",
        "value": "t_array(t_struct(NFTProperty)15623_storage)dyn_storage"
      },
      "t_mapping(t_address,t_array(t_struct(NFTUsage)14387_storage)dyn_storage)": {
        "encoding": "mapping",
        "key": "t_address",
        "label": "mapping(address => struct YGYStorageV1.NFTUsage[])",
        "numberOfBytes": "32",
        "value": "t_array(t_struct(NFTUsage)14387_storage)dyn_storage"
      },
      "t_mapping(t_address,t_bool)": {
        "encoding": "mapping",
        "key": "t_address",
        "label": "mapping(address => bool)",
        "numberOfBytes": "32",
        "value": "t_bool"
      },
      "t_mapping(t_address,t_mapping(t_address,t_uint256))": {
        "encoding": "mapping",
        "key": "t_address",
        "label": "mapping(address => mapping(address => uint256))",
        "numberOfBytes": "32",
        "value": "t_mapping(t_address,t_uint256)"
      },
      "t_mapping(t_address,t_struct(UserInfo)14382_storage)": {
        "encoding": "mapping",
        "key": "t_address",
        "label": "mapping(address => struct YGYStorageV1.UserInfo)",
        "numberOfBytes": "32",
        "value": "t_struct(UserInfo)14382_storage"
      },
      "t_mapping(t_address,t_uint256)": {
        "encoding": "mapping",
        "key": "t_address",
        "label": "mapping(address => uint256)",
        "numberOfBytes": "32",
        "value": "t_uint256"
      },
      "t_mapping(t_bytes32,t_address)": {
        "encoding": "mapping",
        "key": "t_bytes32",
        "label": "mapping(bytes32 => address)",
        "numberOfBytes": "32",
        "value": "t_address"
      },
      "t_mapping(t_bytes32,t_mapping(t_address,t_bool))": {
        "encoding": "mapping",
        "key": "t_bytes32",
        "label": "mapping(bytes32 => mapping(address => bool))",
        "numberOfBytes": "32",
        "value": "t_mapping(t_address,t_bool)"
      },
      "t_mapping(t_bytes32,t_struct(RoleData)304_storage)": {
        "encoding": "mapping",
        "key": "t_bytes32",
        "label": "mapping(bytes32 => struct AccessControlUpgradeSafe.RoleData)",
        "numberOfBytes": "32",
        "value": "t_struct(RoleData)304_storage"
      },
      "t_mapping(t_bytes32,t_uint256)": {
        "encoding": "mapping",
        "key": "t_bytes32",
        "label": "mapping(bytes32 => uint256)",
        "numberOfBytes": "32",
        "value": "t_uint256"
      },
      "t_mapping(t_uint256,t_address)": {
        "encoding": "mapping",
        "key": "t_uint256",
        "label": "mapping(uint256 => address)",
        "numberOfBytes": "32",
        "value": "t_address"
      },
      "t_mapping(t_uint256,t_mapping(t_address,t_array(t_struct(NFTUsage)14387_storage)dyn_storage))": {
        "encoding": "mapping",
        "key": "t_uint256",
        "label": "mapping(uint256 => mapping(address => struct YGYStorageV1.NFTUsage[]))",
        "numberOfBytes": "32",
        "value": "t_mapping(t_address,t_array(t_struct(NFTUsage)14387_storage)dyn_storage)"
      },
      "t_mapping(t_uint256,t_mapping(t_address,t_mapping(t_address,t_uint256)))": {
        "encoding": "mapping",
        "key": "t_uint256",
        "label": "mapping(uint256 => mapping(address => mapping(address => uint256)))",
        "numberOfBytes": "32",
        "value": "t_mapping(t_address,t_mapping(t_address,t_uint256))"
      },
      "t_mapping(t_uint256,t_mapping(t_address,t_struct(UserInfo)14382_storage))": {
        "encoding": "mapping",
        "key": "t_uint256",
        "label": "mapping(uint256 => mapping(address => struct YGYStorageV1.UserInfo))",
        "numberOfBytes": "32",
        "value": "t_mapping(t_address,t_struct(UserInfo)14382_storage)"
      },
      "t_mapping(t_uint256,t_uint256)": {
        "encoding": "mapping",
        "key": "t_uint256",
        "label": "mapping(uint256 => uint256)",
        "numberOfBytes": "32",
        "value": "t_uint256"
      },
      "t_string_storage": {
        "encoding": "bytes",
        "label": "string",
        "numberOfBytes": "32"
      },
      "t_struct(AddressSet)2033_storage": {
        "encoding": "inplace",
        "label": "struct EnumerableSet.AddressSet",
        "members": [
          {
            "astId": 2032,
            "contract": "contracts/YGYStorageV1.sol:YGYStorageV1",
            "label": "_inner",
            "offset": 0,
            "slot": "0",
            "type": "t_struct(Set)1853_storage"
          }
        ],
        "numberOfBytes": "64"
      },
      "t_struct(NFTProperty)15623_storage": {
        "encoding": "inplace",
        "label": "struct YGYStorageV1.NFTProperty",
        "members": [
          {
            "astId": 15618,
            "contract": "contracts/YGYStorageV1.sol:YGYStorageV1",
            "label": "pType",
            "offset": 0,
            "slot": "0",
            "type": "t_string_storage"
          },
          {
            "astId": 15620,
            "contract": "contracts/YGYStorageV1.sol:YGYStorageV1",
            "label": "pValue",
            "offset": 0,
            "slot": "1",
            "type": "t_uint256"
          },
          {
            "astId": 15622,
            "contract": "contracts/YGYStorageV1.sol:YGYStorageV1",
            "label": "extra",
            "offset": 0,
            "slot": "2",
            "type": "t_bytes32"
          }
        ],
        "numberOfBytes": "96"
      },
      "t_struct(NFTUsage)14387_storage": {
        "encoding": "inplace",
        "label": "struct YGYStorageV1.NFTUsage",
        "members": [
          {
            "astId": 14384,
            "contract": "contracts/YGYStorageV1.sol:YGYStorageV1",
            "label": "contractId",
            "offset": 0,
            "slot": "0",
            "type": "t_uint256"
          },
          {
            "astId": 14386,
            "contract": "contracts/YGYStorageV1.sol:YGYStorageV1",
            "label": "epoch",
            "offset": 0,
            "slot": "1",
            "type": "t_uint256"
          }
        ],
        "numberOfBytes": "64"
      },
      "t_struct(PoolInfo)14585_storage": {
        "encoding": "inplace",
        "label": "struct YGYStorageV1.PoolInfo",
        "members": [
          {
            "astId": 14574,
            "contract": "contracts/YGYStorageV1.sol:YGYStorageV1",
            "label": "token",
            "offset": 0,
            "slot": "0",
            "type": "t_contract(IERC20)1045"
          },
          {
            "astId": 14576,
            "contract": "contracts/YGYStorageV1.sol:YGYStorageV1",
            "label": "allocPoint",
            "offset": 0,
            "slot": "1",
            "type": "t_uint256"
          },
          {
            "astId": 14578,
            "contract": "contracts/YGYStorageV1.sol:YGYStorageV1",
            "label": "accRAMPerShare",
            "offset": 0,
            "slot": "2",
            "type": "t_uint256"
          },
          {
            "astId": 14580,
            "contract": "contracts/YGYStorageV1.sol:YGYStorageV1",
            "label": "accYGYPerShare",
            "offset": 0,
            "slot": "3",
            "type": "t_uint256"
          },
          {
            "astId": 14582,
            "contract": "contracts/YGYStorageV1.sol:YGYStorageV1",
            "label": "withdrawable",
            "offset": 0,
            "slot": "4",
            "type": "t_bool"
          },
          {
            "astId": 14584,
            "contract": "contracts/YGYStorageV1.sol:YGYStorageV1",
            "label": "effectiveAdditionalTokensFromBoosts",
            "offset": 0,
            "slot": "5",
            "type": "t_uint256"
          }
        ],
        "numberOfBytes": "192"
      },
      "t_struct(RoleData)304_storage": {
        "encoding": "inplace",
        "label": "struct AccessControlUpgradeSafe.RoleData",
        "members": [
          {
            "astId": 301,
            "contract": "contracts/YGYStorageV1.sol:YGYStorageV1",
            "label": "members",
            "offset": 0,
            "slot": "0",
            "type": "t_struct(AddressSet)2033_storage"
          },
          {
            "astId": 303,
            "contract": "contracts/YGYStorageV1.sol:YGYStorageV1",
            "label": "adminRole",
            "offset": 0,
            "slot": "2",
            "type": "t_bytes32"
          }
        ],
        "numberOfBytes": "96"
      },
      "t_struct(Set)1853_storage": {
        "encoding": "inplace",
        "label": "struct EnumerableSet.Set",
        "members": [
          {
            "astId": 1848,
            "contract": "contracts/YGYStorageV1.sol:YGYStorageV1",
            "label": "_values",
            "offset": 0,
            "slot": "0",
            "type": "t_array(t_bytes32)dyn_storage"
          },
          {
            "astId": 1852,
            "contract": "contracts/YGYStorageV1.sol:YGYStorageV1",
            "label": "_indexes",
            "offset": 0,
            "slot": "1",
            "type": "t_mapping(t_bytes32,t_uint256)"
          }
        ],
        "numberOfBytes": "64"
      },
      "t_struct(UserInfo)14382_storage": {
        "encoding": "inplace",
        "label": "struct YGYStorageV1.UserInfo",
        "members": [
          {
            "astId": 14371,
            "contract": "contracts/YGYStorageV1.sol:YGYStorageV1",
            "label": "amount",
            "offset": 0,
            "slot": "0",
            "type": "t_uint256"
          },
          {
            "astId": 14373,
            "contract": "contracts/YGYStorageV1.sol:YGYStorageV1",
            "label": "rewardDebt",
            "offset": 0,
            "slot": "1",
            "type": "t_uint256"
          },
          {
            "astId": 14375,
            "contract": "contracts/YGYStorageV1.sol:YGYStorageV1",
            "label": "rewardDebtYGY",
            "offset": 0,
            "slot": "2",
            "type": "t_uint256"
          },
          {
            "astId": 14377,
            "contract": "contracts/YGYStorageV1.sol:YGYStorageV1",
            "label": "boostAmount",
            "offset": 0,
            "slot": "3",
            "type": "t_uint256"
          },
          {
            "astId": 14379,
            "contract": "contracts/YGYStorageV1.sol:YGYStorageV1",
            "label": "boostLevel",
            "offset": 0,
            "slot": "4",
            "type": "t_uint256"
          },
          {
            "astId": 14381,
            "contract": "contracts/YGYStorageV1.sol:YGYStorageV1",
            "label": "spentMultiplierTokens",
            "offset": 0,
            "slot": "5",
            "type": "t_uint256"
          }
        ],
        "numberOfBytes": "192"
      },
      "t_uint256": {
        "encoding": "inplace",
        "label": "uint256",
        "numberOfBytes": "32"
      }
    }
  }
}