{
    "contractName": "VRFCoordinator",
    "abi": [
        {
            "inputs": [
                {
                    "internalType": "address",
                    "name": "_link",
                    "type": "address"
                },
                {
                    "internalType": "address",
                    "name": "_blockHashStore",
                    "type": "address"
                }
            ],
            "stateMutability": "nonpayable",
            "type": "constructor"
        },
        {
            "anonymous": false,
            "inputs": [
                {
                    "indexed": false,
                    "internalType": "bytes32",
                    "name": "keyHash",
                    "type": "bytes32"
                },
                {
                    "indexed": false,
                    "internalType": "uint256",
                    "name": "fee",
                    "type": "uint256"
                }
            ],
            "name": "NewServiceAgreement",
            "type": "event"
        },
        {
            "anonymous": false,
            "inputs": [
                {
                    "indexed": false,
                    "internalType": "bytes32",
                    "name": "keyHash",
                    "type": "bytes32"
                },
                {
                    "indexed": false,
                    "internalType": "uint256",
                    "name": "seed",
                    "type": "uint256"
                },
                {
                    "indexed": true,
                    "internalType": "bytes32",
                    "name": "jobID",
                    "type": "bytes32"
                },
                {
                    "indexed": false,
                    "internalType": "address",
                    "name": "sender",
                    "type": "address"
                },
                {
                    "indexed": false,
                    "internalType": "uint256",
                    "name": "fee",
                    "type": "uint256"
                },
                {
                    "indexed": false,
                    "internalType": "bytes32",
                    "name": "requestID",
                    "type": "bytes32"
                }
            ],
            "name": "RandomnessRequest",
            "type": "event"
        },
        {
            "anonymous": false,
            "inputs": [
                {
                    "indexed": false,
                    "internalType": "bytes32",
                    "name": "requestId",
                    "type": "bytes32"
                },
                {
                    "indexed": false,
                    "internalType": "uint256",
                    "name": "output",
                    "type": "uint256"
                }
            ],
            "name": "RandomnessRequestFulfilled",
            "type": "event"
        },
        {
            "inputs": [],
            "name": "PRESEED_OFFSET",
            "outputs": [
                {
                    "internalType": "uint256",
                    "name": "",
                    "type": "uint256"
                }
            ],
            "stateMutability": "view",
            "type": "function"
        },
        {
            "inputs": [],
            "name": "PROOF_LENGTH",
            "outputs": [
                {
                    "internalType": "uint256",
                    "name": "",
                    "type": "uint256"
                }
            ],
            "stateMutability": "view",
            "type": "function"
        },
        {
            "inputs": [],
            "name": "PUBLIC_KEY_OFFSET",
            "outputs": [
                {
                    "internalType": "uint256",
                    "name": "",
                    "type": "uint256"
                }
            ],
            "stateMutability": "view",
            "type": "function"
        },
        {
            "inputs": [
                {
                    "internalType": "bytes32",
                    "name": "",
                    "type": "bytes32"
                }
            ],
            "name": "callbacks",
            "outputs": [
                {
                    "internalType": "address",
                    "name": "callbackContract",
                    "type": "address"
                },
                {
                    "internalType": "uint96",
                    "name": "randomnessFee",
                    "type": "uint96"
                },
                {
                    "internalType": "bytes32",
                    "name": "seedAndBlockNum",
                    "type": "bytes32"
                }
            ],
            "stateMutability": "view",
            "type": "function"
        },
        {
            "inputs": [
                {
                    "internalType": "bytes32",
                    "name": "requestId",
                    "type": "bytes32"
                },
                {
                    "internalType": "uint256",
                    "name": "randomness",
                    "type": "uint256"
                }
            ],
            "name": "fulfillRandomnessRequest",
            "outputs": [],
            "stateMutability": "nonpayable",
            "type": "function"
        },
        {
            "inputs": [
                {
                    "internalType": "uint256[2]",
                    "name": "_publicKey",
                    "type": "uint256[2]"
                }
            ],
            "name": "hashOfKey",
            "outputs": [
                {
                    "internalType": "bytes32",
                    "name": "",
                    "type": "bytes32"
                }
            ],
            "stateMutability": "pure",
            "type": "function"
        },
        {
            "inputs": [
                {
                    "internalType": "address",
                    "name": "_sender",
                    "type": "address"
                },
                {
                    "internalType": "uint256",
                    "name": "_fee",
                    "type": "uint256"
                },
                {
                    "internalType": "bytes",
                    "name": "_data",
                    "type": "bytes"
                }
            ],
            "name": "onTokenTransfer",
            "outputs": [],
            "stateMutability": "nonpayable",
            "type": "function"
        },
        {
            "inputs": [
                {
                    "internalType": "uint256",
                    "name": "_fee",
                    "type": "uint256"
                },
                {
                    "internalType": "address",
                    "name": "_oracle",
                    "type": "address"
                },
                {
                    "internalType": "uint256[2]",
                    "name": "_publicProvingKey",
                    "type": "uint256[2]"
                },
                {
                    "internalType": "bytes32",
                    "name": "_jobID",
                    "type": "bytes32"
                }
            ],
            "name": "registerProvingKey",
            "outputs": [],
            "stateMutability": "nonpayable",
            "type": "function"
        },
        {
            "inputs": [
                {
                    "internalType": "bytes32",
                    "name": "",
                    "type": "bytes32"
                }
            ],
            "name": "serviceAgreements",
            "outputs": [
                {
                    "internalType": "address",
                    "name": "vRFOracle",
                    "type": "address"
                },
                {
                    "internalType": "uint96",
                    "name": "fee",
                    "type": "uint96"
                },
                {
                    "internalType": "bytes32",
                    "name": "jobID",
                    "type": "bytes32"
                }
            ],
            "stateMutability": "view",
            "type": "function"
        },
        {
            "inputs": [
                {
                    "internalType": "address",
                    "name": "_recipient",
                    "type": "address"
                },
                {
                    "internalType": "uint256",
                    "name": "_amount",
                    "type": "uint256"
                }
            ],
            "name": "withdraw",
            "outputs": [],
            "stateMutability": "nonpayable",
            "type": "function"
        },
        {
            "inputs": [
                {
                    "internalType": "address",
                    "name": "",
                    "type": "address"
                }
            ],
            "name": "withdrawableTokens",
            "outputs": [
                {
                    "internalType": "uint256",
                    "name": "",
                    "type": "uint256"
                }
            ],
            "stateMutability": "view",
            "type": "function"
        }
    ],
    "bytecode": "608060405234801561001057600080fd5b50604051610c5c380380610c5c8339818101604052604081101561003357600080fd5b508051602090910151600080546001600160a01b039384166001600160a01b03199182161790915560018054939092169216919091179055610be28061007a6000396000f3fe608060405234801561001057600080fd5b50600436106100a85760003560e01c8063a4c0ed3611610071578063a4c0ed361461017c578063b415f4f514610237578063caf70c4a1461023f578063d83402091461028a578063e911439c146102c1578063f3fef3a3146102c9576100a8565b80626f6ad0146100ad57806321f36509146100e55780634b9f1c941461013257806375d35070146101575780638aa7927b14610174575b600080fd5b6100d3600480360360208110156100c357600080fd5b50356001600160a01b03166102f5565b60408051918252519081900360200190f35b610102600480360360208110156100fb57600080fd5b5035610307565b604080516001600160a01b0390941684526001600160601b03909216602084015282820152519081900360600190f35b6101556004803603604081101561014857600080fd5b508035906020013561033c565b005b6101026004803603602081101561016d57600080fd5b50356103a0565b6100d36103d5565b6101556004803603606081101561019257600080fd5b6001600160a01b03823516916020810135918101906060810160408201356401000000008111156101c257600080fd5b8201836020820111156101d457600080fd5b803590602001918460018302840111640100000000831117156101f657600080fd5b91908080601f0160208091040260200160405190810160405280939291908181526020018383808284376000920191909152509295506103da945050505050565b6100d3610468565b6100d36004803603604081101561025557600080fd5b6040805180820182529183019291818301918390600290839083908082843760009201919091525091945061046d9350505050565b610155600480360360a08110156102a057600080fd5b508035906001600160a01b03602082013516906040810190608001356104c2565b6100d36106a2565b610155600480360360408110156102df57600080fd5b506001600160a01b0381351690602001356106a8565b60046020526000908152604090205481565b600260205260009081526040902080546001909101546001600160a01b03821691600160a01b90046001600160601b03169083565b60008281526002602052604090205461036190839083906001600160a01b03166107c4565b604080518381526020810183905281517fa2e7a402243ebda4a69ceeb3dfb682943b7a9b3ac66d6eefa8db65894009611c929181900390910190a15050565b600360205260009081526040902080546001909101546001600160a01b03821691600160a01b90046001600160601b03169083565b602081565b6000546001600160a01b0316331461042f576040805162461bcd60e51b815260206004820152601360248201527226bab9ba103ab9b2902624a725903a37b5b2b760691b604482015290519081900360640190fd5b60008082806020019051604081101561044757600080fd5b50805160209091015190925090506104618282868861090e565b5050505050565b60e081565b6000816040516020018082600260200280838360005b8381101561049b578181015183820152602001610483565b50505050905001915050604051602081830303815290604052805190602001209050919050565b6040805180820182526000916104f191908590600290839083908082843760009201919091525061046d915050565b6000818152600360205260409020549091506001600160a01b0316801561055f576040805162461bcd60e51b815260206004820152601960248201527f706c656173652072656769737465722061206e6577206b657900000000000000604482015290519081900360640190fd5b6001600160a01b0385166105ba576040805162461bcd60e51b815260206004820152601760248201527f5f6f7261636c65206d757374206e6f7420626520307830000000000000000000604482015290519081900360640190fd5b600082815260036020526040902080546001600160a01b0319166001600160a01b0387161781556001018390556b033b2e3c9fd0803ce80000008611156106325760405162461bcd60e51b815260040180806020018281038252603c815260200180610b71603c913960400191505060405180910390fd5b60008281526003602090815260409182902080546001600160a01b0316600160a01b6001600160601b038b1602179055815184815290810188905281517fae189157e0628c1e62315e9179156e1ea10e90e9c15060002f7021e907dc2cfe929181900390910190a1505050505050565b6101a081565b33600090815260046020526040902054819081111561070e576040805162461bcd60e51b815260206004820181905260248201527f63616e2774207769746864726177206d6f7265207468616e2062616c616e6365604482015290519081900360640190fd5b336000908152600460205260409020546107289083610a1d565b336000908152600460208181526040808420949094558254845163a9059cbb60e01b81526001600160a01b038981169482019490945260248101889052945192169363a9059cbb93604480830194928390030190829087803b15801561078d57600080fd5b505af11580156107a1573d6000803e3d6000fd5b505050506040513d60208110156107b757600080fd5b50516107bf57fe5b505050565b604080516024810185905260448082018590528251808303909101815260649091019091526020810180516001600160e01b03166394985ddd60e01b179052600090620324b0805a101561085f576040805162461bcd60e51b815260206004820152601b60248201527f6e6f7420656e6f7567682067617320666f7220636f6e73756d65720000000000604482015290519081900360640190fd5b6000846001600160a01b0316836040518082805190602001908083835b6020831061089b5780518252601f19909201916020918201910161087c565b6001836020036101000a0380198251168184511680821785525050505050509050019150506000604051808303816000865af19150503d80600081146108fd576040519150601f19603f3d011682016040523d82523d6000602084013e610902565b606091505b50505050505050505050565b60008481526003602052604090205482908590600160a01b90046001600160601b031682101561097c576040805162461bcd60e51b815260206004820152601460248201527310995b1bddc81859dc995959081c185e5b595b9d60621b604482015290519081900360640190fd5b60008681526005602090815260408083206001600160a01b0387168452909152812054906109ac88888785610a66565b905060006109ba8983610aad565b6000818152600260205260409020549091506001600160a01b0316156109dc57fe5b600081815260026020526040902080546001600160a01b0319166001600160a01b038816179055610a128143600019014061033c565b505050505050505050565b6000610a5f83836040518060400160405280601e81526020017f536166654d6174683a207375627472616374696f6e206f766572666c6f770000815250610ad9565b9392505050565b60408051602080820196909652808201949094526001600160a01b039290921660608401526080808401919091528151808403909101815260a09092019052805191012090565b604080516020808201949094528082019290925280518083038201815260609092019052805191012090565b60008184841115610b685760405162461bcd60e51b81526004018080602001828103825283818151815260200191508051906020019080838360005b83811015610b2d578181015183820152602001610b15565b50505050905090810190601f168015610b5a5780820380516001836020036101000a031916815260200191505b509250505060405180910390fd5b50505090039056fe796f752063616e277420636861726765206d6f7265207468616e20616c6c20746865204c494e4b20696e2074686520776f726c642c20677265656479a2646970667358221220f3075ee629e867813faa35f7d70422c44f43e5bda51aed53e36769669534d5ae64736f6c634300060c0033",
    "sourcePath": "/Users/225153/Projects/proxy-test/contracts/testing/VRFCoordinator.sol",
    "compiler": {
        "name": "solc",
        "version": "0.6.12+commit.27d51765"
    },
    "functionHashes": {
        "PRESEED_OFFSET()": "b415f4f5",
        "PROOF_LENGTH()": "e911439c",
        "PUBLIC_KEY_OFFSET()": "8aa7927b",
        "callbacks(bytes32)": "21f36509",
        "fulfillRandomnessRequest(bytes32,uint256)": "4b9f1c94",
        "hashOfKey(uint256[2])": "caf70c4a",
        "onTokenTransfer(address,uint256,bytes)": "a4c0ed36",
        "registerProvingKey(uint256,address,uint256[2],bytes32)": "d8340209",
        "serviceAgreements(bytes32)": "75d35070",
        "withdraw(address,uint256)": "f3fef3a3",
        "withdrawableTokens(address)": "006f6ad0"
    },
    "gasEstimates": {
        "creation": {
            "codeDepositCost": "608400",
            "executionCost": "infinite",
            "totalCost": "infinite"
        },
        "external": {
            "PRESEED_OFFSET()": "220",
            "PROOF_LENGTH()": "286",
            "PUBLIC_KEY_OFFSET()": "287",
            "callbacks(bytes32)": "2081",
            "fulfillRandomnessRequest(bytes32,uint256)": "infinite",
            "hashOfKey(uint256[2])": "infinite",
            "onTokenTransfer(address,uint256,bytes)": "infinite",
            "registerProvingKey(uint256,address,uint256[2],bytes32)": "infinite",
            "serviceAgreements(bytes32)": "2125",
            "withdraw(address,uint256)": "infinite",
            "withdrawableTokens(address)": "1125"
        },
        "internal": {
            "callBackWithRandomness(bytes32,uint256,address)": "infinite",
            "getRandomnessFromProof(bytes memory)": "infinite",
            "randomnessRequest(bytes32,uint256,uint256,address)": "infinite"
        }
    }
}